{
    "ABAcalls2": {
        "_info": {
            "comment": "",
            "filling-rpc-server": "evm version 1.10.16-unstable-0f893109-20220105",
            "filling-tool-version": "retesteth-0.2.2-testinfo+commit.01c6aac2.Linux.g++",
            "filledWith": "CoreGeth-1.12.9-unstable-ab16c56768f0284ab56a30aac9550d3ebdc45901",
            "lllcversion": "Version: 0.5.14-develop.2021.11.27+commit.401d5358.Linux.g++",
            "source": "src/GeneralStateTestsFiller/stSystemOperationsTest/ABAcalls2Filler.json",
            "sourceHash": "5b890d5d08a9c3cb4b748c634c47016ba82d2491031e94d0e473392236de5633"
        },
        "env": {
            "currentCoinbase": "0x2adc25665018aa1fe0e6bc666dac8fc2697ff9ba",
            "currentDifficulty": "0x20000",
            "currentGasLimit": "0x2540be400",
            "currentNumber": "0x1",
            "currentTimestamp": "0x3e8",
            "currentBaseFee": "0xa",
            "previousHash": "0x5e20a0453cecd065ea59c37ac63e079ee08998b6045136a8ce6635c7912ec0b6"
        },
        "pre": {
            "0x095e7baea6a6c7c4c2dfeb977efac326af552d87": {
                "code": "0x6001600054016000556000600060006000600173945304eb96065b2a98b57a48a06ae28d285a71b5620186a05a03f100",
                "balance": "0xde0b6b3a7640000"
            },
            "0x945304eb96065b2a98b57a48a06ae28d285a71b5": {
                "code": "0x6001600054016000556000600060006000600073095e7baea6a6c7c4c2dfeb977efac326af552d87620186a05a03f100",
                "balance": "0x0"
            },
            "0xa94f5374fce5edbc8e2a8697c15331677e6ebf0b": {
                "balance": "0xde0b6b3a7640000"
            }
        },
        "transaction": {
            "gasPrice": "0xa",
            "nonce": "0x0",
            "to": "0x095e7baea6a6c7c4c2dfeb977efac326af552d87",
            "data": [
                "0x"
            ],
            "gasLimit": [
                "0x3b9aca00"
            ],
            "value": [
                "0x0186a0"
            ],
            "secretKey": "0x45a915e4d060149eb4365960e6a7a45f334393093061116b197e3240065ff2d8",
            "sender": "0xa94f5374fce5edbc8e2a8697c15331677e6ebf0b"
        },
        "post": {
            "ETC_Magneto": [
                {
                    "hash": "5b0b737737074636bbb7bcd121aaab7ed997c5b88a005fb0a3118fb6d79c1de3",
                    "logs": "1dcc4de8dec75d7aab85b567b6ccd41ad312451b948a7413f0a142fd40d49347",
                    "txbytes": "0xf864800a843b9aca0094095e7baea6a6c7c4c2dfeb977efac326af552d87830186a0801ca074457fed2b2c7eb1656a7764820d6abc640a61a9cc1cdba895fb722db4180d98a0538ec00d6d68933a7031f2803f032ddf4f150249b92ac351239ba76e12d90c9d",
                    "indexes": {
                        "data": 0,
                        "gas": 0,
                        "value": 0
                    }
                }
            ],
            "ETC_Mystique": [
                {
                    "hash": "5b0b737737074636bbb7bcd121aaab7ed997c5b88a005fb0a3118fb6d79c1de3",
                    "logs": "1dcc4de8dec75d7aab85b567b6ccd41ad312451b948a7413f0a142fd40d49347",
                    "txbytes": "0xf864800a843b9aca0094095e7baea6a6c7c4c2dfeb977efac326af552d87830186a0801ca074457fed2b2c7eb1656a7764820d6abc640a61a9cc1cdba895fb722db4180d98a0538ec00d6d68933a7031f2803f032ddf4f150249b92ac351239ba76e12d90c9d",
                    "indexes": {
                        "data": 0,
                        "gas": 0,
                        "value": 0
                    }
                }
            ],
            "ETC_Phoenix": [
                {
                    "hash": "8cf4a6193b17f412d7037aaa17f657ab57ca38aa6df4bd0a5c283e28327fe384",
                    "logs": "1dcc4de8dec75d7aab85b567b6ccd41ad312451b948a7413f0a142fd40d49347",
                    "txbytes": "0xf864800a843b9aca0094095e7baea6a6c7c4c2dfeb977efac326af552d87830186a0801ca074457fed2b2c7eb1656a7764820d6abc640a61a9cc1cdba895fb722db4180d98a0538ec00d6d68933a7031f2803f032ddf4f150249b92ac351239ba76e12d90c9d",
                    "indexes": {
                        "data": 0,
                        "gas": 0,
                        "value": 0
                    }
                }
            ]
        }
    }
}