{
    "callcodeToNameRegistrator0": {
        "_info": {
            "comment": "",
            "filling-rpc-server": "evm version 1.10.16-unstable-0f893109-20220105",
            "filling-tool-version": "retesteth-0.2.2-testinfo+commit.01c6aac2.Linux.g++",
            "filledWith": "CoreGeth-1.12.9-unstable-d390462df9df233b60b4cd7a37db5b3043832022",
            "lllcversion": "Version: 0.5.14-develop.2021.11.27+commit.401d5358.Linux.g++",
            "source": "src/GeneralStateTestsFiller/stSystemOperationsTest/callcodeToNameRegistrator0Filler.json",
            "sourceHash": "69aef0e36c591415c909f88bbad5edbed4a65666d67056dd8c05f9c60bafa423"
        },
        "env": {
            "currentCoinbase": "0x2adc25665018aa1fe0e6bc666dac8fc2697ff9ba",
            "currentDifficulty": "0x20000",
            "currentGasLimit": "0x989680",
            "currentNumber": "0x1",
            "currentTimestamp": "0x3e8",
            "previousHash": "0x5e20a0453cecd065ea59c37ac63e079ee08998b6045136a8ce6635c7912ec0b6"
        },
        "pre": {
            "0x095e7baea6a6c7c4c2dfeb977efac326af552d87": {
                "code": "0x7fffffffffffffffffffffffffffffffffffffffffffffffffffffffffffffffff6000527faaffffffffffffffffffffffffffffffffffffffffffffffffffffffffffffaa6020526000604060406000601773945304eb96065b2a98b57a48a06ae28d285a71b56103e8f260005500",
                "balance": "0xde0b6b3a7640000",
                "nonce": "0x0"
            },
            "0x945304eb96065b2a98b57a48a06ae28d285a71b5": {
                "code": "0x6000355415600957005b60203560003555",
                "balance": "0x17",
                "nonce": "0x0"
            },
            "0xa94f5374fce5edbc8e2a8697c15331677e6ebf0b": {
                "code": "0x",
                "balance": "0xde0b6b3a7640000",
                "nonce": "0x0"
            }
        },
        "transaction": {
            "gasPrice": "0xa",
            "nonce": "0x0",
            "to": "0x095e7baea6a6c7c4c2dfeb977efac326af552d87",
            "data": [
                "0x"
            ],
            "gasLimit": [
                "0xf4240"
            ],
            "value": [
                "0x0186a0"
            ],
            "secretKey": "0x45a915e4d060149eb4365960e6a7a45f334393093061116b197e3240065ff2d8",
            "sender": "0xa94f5374fce5edbc8e2a8697c15331677e6ebf0b"
        },
        "post": {
            "ETC_Magneto": [
                {
                    "hash": "d7690ec7d9c60327b9443f2e345931aab672d9b5045570b2ea612ae8eb5ff014",
                    "logs": "1dcc4de8dec75d7aab85b567b6ccd41ad312451b948a7413f0a142fd40d49347",
                    "txbytes": "0xf863800a830f424094095e7baea6a6c7c4c2dfeb977efac326af552d87830186a0801ca07bb4986663aec020c016ea3db37ba36e62e9c7d355dc8ed8566b20ce7452b600a07da62397d8a969f674442837f419001f2671df0f19a45586ed3acfd93e819d82",
                    "indexes": {
                        "data": 0,
                        "gas": 0,
                        "value": 0
                    }
                }
            ],
            "ETC_Mystique": [
                {
                    "hash": "d7690ec7d9c60327b9443f2e345931aab672d9b5045570b2ea612ae8eb5ff014",
                    "logs": "1dcc4de8dec75d7aab85b567b6ccd41ad312451b948a7413f0a142fd40d49347",
                    "txbytes": "0xf863800a830f424094095e7baea6a6c7c4c2dfeb977efac326af552d87830186a0801ca07bb4986663aec020c016ea3db37ba36e62e9c7d355dc8ed8566b20ce7452b600a07da62397d8a969f674442837f419001f2671df0f19a45586ed3acfd93e819d82",
                    "indexes": {
                        "data": 0,
                        "gas": 0,
                        "value": 0
                    }
                }
            ],
            "ETC_Phoenix": [
                {
                    "hash": "4b336417c0ef4392a3ae6cd2aedd78708e730c807c9a287536f0aeb3fdffa0a3",
                    "logs": "1dcc4de8dec75d7aab85b567b6ccd41ad312451b948a7413f0a142fd40d49347",
                    "txbytes": "0xf863800a830f424094095e7baea6a6c7c4c2dfeb977efac326af552d87830186a0801ca07bb4986663aec020c016ea3db37ba36e62e9c7d355dc8ed8566b20ce7452b600a07da62397d8a969f674442837f419001f2671df0f19a45586ed3acfd93e819d82",
                    "indexes": {
                        "data": 0,
                        "gas": 0,
                        "value": 0
                    }
                }
            ]
        }
    }
}