{
    "CallRecursiveBomb2": {
        "_info": {
            "comment": "",
            "filling-rpc-server": "evm version 1.10.16-unstable-0f893109-20220105",
            "filling-tool-version": "retesteth-0.2.2-testinfo+commit.01c6aac2.Linux.g++",
            "filledWith": "CoreGeth-1.12.9-unstable-d64998ce9b05f4f41b35740c69c4b402e41a3105",
            "lllcversion": "Version: 0.5.14-develop.2021.11.27+commit.401d5358.Linux.g++",
            "source": "src/GeneralStateTestsFiller/stSystemOperationsTest/CallRecursiveBomb2Filler.json",
            "sourceHash": "be0491061713178acfbf3cd1929534aca2ae33a1eba872882e996c43b9d7dbb0"
        },
        "env": {
            "currentCoinbase": "0x2adc25665018aa1fe0e6bc666dac8fc2697ff9ba",
            "currentDifficulty": "0x20000",
            "currentGasLimit": "0x5f5e100",
            "currentNumber": "0x1",
            "currentTimestamp": "0x3e8",
            "previousHash": "0x5e20a0453cecd065ea59c37ac63e079ee08998b6045136a8ce6635c7912ec0b6"
        },
        "pre": {
            "0x095e7baea6a6c7c4c2dfeb977efac326af552d87": {
                "code": "0x6001600054016000556000600060006000600030613a985a03f160015500",
                "balance": "0x1312d00"
            },
            "0xa94f5374fce5edbc8e2a8697c15331677e6ebf0b": {
                "balance": "0xde0b6b3a7640000"
            }
        },
        "transaction": {
            "gasPrice": "0xa",
            "nonce": "0x0",
            "to": "0x095e7baea6a6c7c4c2dfeb977efac326af552d87",
            "data": [
                "0x"
            ],
            "gasLimit": [
                "0x13aab13"
            ],
            "value": [
                "0x0186a0"
            ],
            "secretKey": "0x45a915e4d060149eb4365960e6a7a45f334393093061116b197e3240065ff2d8",
            "sender": "0xa94f5374fce5edbc8e2a8697c15331677e6ebf0b"
        },
        "post": {
            "ETC_Magneto": [
                {
                    "hash": "4dec72c7ea6a93440818253c5fde20303e67575730a1d766f2524ee62c2781c1",
                    "logs": "1dcc4de8dec75d7aab85b567b6ccd41ad312451b948a7413f0a142fd40d49347",
                    "txbytes": "0xf864800a84013aab1394095e7baea6a6c7c4c2dfeb977efac326af552d87830186a0801ba05fcc98b1cd7d55f0df39305978bb2fbaad0a50f288b7f43dbcb74495c6394b10a0578772e7613b25f41636ea29de5a93b42dd61c288d34df87efd2ee8173269469",
                    "indexes": {
                        "data": 0,
                        "gas": 0,
                        "value": 0
                    }
                }
            ],
            "ETC_Mystique": [
                {
                    "hash": "4dec72c7ea6a93440818253c5fde20303e67575730a1d766f2524ee62c2781c1",
                    "logs": "1dcc4de8dec75d7aab85b567b6ccd41ad312451b948a7413f0a142fd40d49347",
                    "txbytes": "0xf864800a84013aab1394095e7baea6a6c7c4c2dfeb977efac326af552d87830186a0801ba05fcc98b1cd7d55f0df39305978bb2fbaad0a50f288b7f43dbcb74495c6394b10a0578772e7613b25f41636ea29de5a93b42dd61c288d34df87efd2ee8173269469",
                    "indexes": {
                        "data": 0,
                        "gas": 0,
                        "value": 0
                    }
                }
            ],
            "ETC_Phoenix": [
                {
                    "hash": "e9f84851483b08f72b1573d499325a8795edc3b102d17ed90e2d055cf8c62ade",
                    "logs": "1dcc4de8dec75d7aab85b567b6ccd41ad312451b948a7413f0a142fd40d49347",
                    "txbytes": "0xf864800a84013aab1394095e7baea6a6c7c4c2dfeb977efac326af552d87830186a0801ba05fcc98b1cd7d55f0df39305978bb2fbaad0a50f288b7f43dbcb74495c6394b10a0578772e7613b25f41636ea29de5a93b42dd61c288d34df87efd2ee8173269469",
                    "indexes": {
                        "data": 0,
                        "gas": 0,
                        "value": 0
                    }
                }
            ]
        }
    }
}