{
    "Call10": {
        "_info": {
            "comment": "",
            "filling-rpc-server": "evm version 1.10.16-unstable-0f893109-20220105",
            "filling-tool-version": "retesteth-0.2.2-testinfo+commit.01c6aac2.Linux.g++",
            "filledWith": "CoreGeth-1.12.9-unstable-f4059ddd82d975bdc54fa648e5422a80172161cb",
            "lllcversion": "Version: 0.5.14-develop.2021.11.27+commit.401d5358.Linux.g++",
            "source": "src/GeneralStateTestsFiller/stSystemOperationsTest/Call10Filler.json",
            "sourceHash": "82e8586a94f55c6016d06da5a04d64d0e344e3961e2bc2e81d1b90cc5620b6c6"
        },
        "env": {
            "currentCoinbase": "b94f5374fce5edbc8e2a8697c15331677e6ebf0b",
            "currentDifficulty": "0x20000",
            "currentRandom": null,
            "currentGasLimit": "0x7fffffffffffffff",
            "currentNumber": "0x1",
            "currentTimestamp": "0x3e8",
            "currentBaseFee": "0xa"
        },
        "pre": {
            "0xa94f5374fce5edbc8e2a8697c15331677e6ebf0b": {
                "balance": "0xffffffffffffffffffffffffffffffff"
            },
            "0xaaaf5374fce5edbc8e2a8697c15331677e6ebf0b": {
                "balance": "0x1b58"
            },
            "0xbbbf5374fce5edbc8e2a8697c15331677e6ebf0b": {
                "code": "0x5b600a60805110156042576000600061c3506000600173aaaf5374fce5edbc8e2a8697c15331677e6ebf0b650ffffffffffff16000556001608051016080526000565b60805160015500",
                "balance": "0x3e8"
            }
        },
        "transaction": {
            "gasPrice": "0xa",
            "maxFeePerGas": null,
            "maxPriorityFeePerGas": null,
            "nonce": "0x0",
            "to": "0xbbbf5374fce5edbc8e2a8697c15331677e6ebf0b",
            "data": [
                "0x"
            ],
            "gasLimit": [
                "0x7f000ffffffffff0"
            ],
            "value": [
                "0x0a"
            ],
            "secretKey": "0x45a915e4d060149eb4365960e6a7a45f334393093061116b197e3240065ff2d8"
        },
        "out": "0x",
        "post": {
            "ETC_Magneto": [
                {
                    "hash": "bd2f51c292501cb094589b1d56e92f26237d56dcf1b734101e1177cb08246b90",
                    "logs": "1dcc4de8dec75d7aab85b567b6ccd41ad312451b948a7413f0a142fd40d49347",
                    "txbytes": "0xf865800a887f000ffffffffff094bbbf5374fce5edbc8e2a8697c15331677e6ebf0b0a801ca0cc716f76fe070932b29f95dcc3aff9ba92e56e39c8e288d6c3fb18ebeba4c9fba0551bf704610c52f9ca662fb9ebc8ab3547be4ec302fd2d26b2df248a4aa120ca",
                    "indexes": {
                        "data": 0,
                        "gas": 0,
                        "value": 0
                    }
                }
            ],
            "ETC_Mystique": [
                {
                    "hash": "bd2f51c292501cb094589b1d56e92f26237d56dcf1b734101e1177cb08246b90",
                    "logs": "1dcc4de8dec75d7aab85b567b6ccd41ad312451b948a7413f0a142fd40d49347",
                    "txbytes": "0xf865800a887f000ffffffffff094bbbf5374fce5edbc8e2a8697c15331677e6ebf0b0a801ca0cc716f76fe070932b29f95dcc3aff9ba92e56e39c8e288d6c3fb18ebeba4c9fba0551bf704610c52f9ca662fb9ebc8ab3547be4ec302fd2d26b2df248a4aa120ca",
                    "indexes": {
                        "data": 0,
                        "gas": 0,
                        "value": 0
                    }
                }
            ],
            "ETC_Phoenix": [
                {
                    "hash": "b49858c5dae19707c742e306087b5dee68b86a053e93cd45bf2f8082042a615d",
                    "logs": "1dcc4de8dec75d7aab85b567b6ccd41ad312451b948a7413f0a142fd40d49347",
                    "txbytes": "0xf865800a887f000ffffffffff094bbbf5374fce5edbc8e2a8697c15331677e6ebf0b0a801ca0cc716f76fe070932b29f95dcc3aff9ba92e56e39c8e288d6c3fb18ebeba4c9fba0551bf704610c52f9ca662fb9ebc8ab3547be4ec302fd2d26b2df248a4aa120ca",
                    "indexes": {
                        "data": 0,
                        "gas": 0,
                        "value": 0
                    }
                }
            ]
        }
    }
}