{
    "CallToNameRegistratorNotMuchMemory1": {
        "_info": {
            "comment": "",
            "filling-rpc-server": "evm version 1.10.16-unstable-0f893109-20220105",
            "filling-tool-version": "retesteth-0.2.2-testinfo+commit.01c6aac2.Linux.g++",
            "filledWith": "CoreGeth-1.12.9-unstable-f4059ddd82d975bdc54fa648e5422a80172161cb",
            "lllcversion": "Version: 0.5.14-develop.2021.11.27+commit.401d5358.Linux.g++",
            "source": "src/GeneralStateTestsFiller/stSystemOperationsTest/CallToNameRegistratorNotMuchMemory1Filler.json",
            "sourceHash": "3f97dc587e318d126399eb3ffe4ede3b7a3ef5ef4818c153610a9c8eb503d414"
        },
        "env": {
            "currentCoinbase": "2adc25665018aa1fe0e6bc666dac8fc2697ff9ba",
            "currentDifficulty": "0x20000",
            "currentRandom": null,
            "currentGasLimit": "0x989680",
            "currentNumber": "0x1",
            "currentTimestamp": "0x3e8",
            "currentBaseFee": "0xa"
        },
        "pre": {
            "0x095e7baea6a6c7c4c2dfeb977efac326af552d87": {
                "code": "0x7feeffffffffffffffffffffffffffffffffffffffffffffffffffffffffffff006000527faaffffffffffffffffffffffffffffffffffffffffffffffffffffffffffffaa602052600060406000620f1206601773945304eb96065b2a98b57a48a06ae28d285a71b56101f4f160005500",
                "balance": "0xde0b6b3a7640000"
            },
            "0x945304eb96065b2a98b57a48a06ae28d285a71b5": {
                "code": "0x6000355415600957005b60203560003555",
                "balance": "0x17"
            },
            "0xa94f5374fce5edbc8e2a8697c15331677e6ebf0b": {
                "balance": "0xde0b6b3a7640000"
            }
        },
        "transaction": {
            "gasPrice": "0xa",
            "maxFeePerGas": null,
            "maxPriorityFeePerGas": null,
            "nonce": "0x0",
            "to": "0x095e7baea6a6c7c4c2dfeb977efac326af552d87",
            "data": [
                "0x"
            ],
            "gasLimit": [
                "0x46cd0"
            ],
            "value": [
                "0x0186a0"
            ],
            "secretKey": "0x45a915e4d060149eb4365960e6a7a45f334393093061116b197e3240065ff2d8"
        },
        "out": "0x",
        "post": {
            "ETC_Magneto": [
                {
                    "hash": "0e1429f28a7f8c0e4fb57bced93fce6904fd870cf0192143e13ce62635d72381",
                    "logs": "1dcc4de8dec75d7aab85b567b6ccd41ad312451b948a7413f0a142fd40d49347",
                    "txbytes": "0xf863800a83046cd094095e7baea6a6c7c4c2dfeb977efac326af552d87830186a0801ca0c5ad0e9b9fa6d5a195d86627f55969fa7ba5a79c4273565803710e4344d25f86a06ed8f4217b1b015be7adb015b57db3fc4c86890e12d647000749b199d67a306f",
                    "indexes": {
                        "data": 0,
                        "gas": 0,
                        "value": 0
                    }
                }
            ],
            "ETC_Mystique": [
                {
                    "hash": "0e1429f28a7f8c0e4fb57bced93fce6904fd870cf0192143e13ce62635d72381",
                    "logs": "1dcc4de8dec75d7aab85b567b6ccd41ad312451b948a7413f0a142fd40d49347",
                    "txbytes": "0xf863800a83046cd094095e7baea6a6c7c4c2dfeb977efac326af552d87830186a0801ca0c5ad0e9b9fa6d5a195d86627f55969fa7ba5a79c4273565803710e4344d25f86a06ed8f4217b1b015be7adb015b57db3fc4c86890e12d647000749b199d67a306f",
                    "indexes": {
                        "data": 0,
                        "gas": 0,
                        "value": 0
                    }
                }
            ],
            "ETC_Phoenix": [
                {
                    "hash": "ac8a2795027f7da9c4d3974e8a9396f7bc011aac8cc035071f4a727d5fd62f7a",
                    "logs": "1dcc4de8dec75d7aab85b567b6ccd41ad312451b948a7413f0a142fd40d49347",
                    "txbytes": "0xf863800a83046cd094095e7baea6a6c7c4c2dfeb977efac326af552d87830186a0801ca0c5ad0e9b9fa6d5a195d86627f55969fa7ba5a79c4273565803710e4344d25f86a06ed8f4217b1b015be7adb015b57db3fc4c86890e12d647000749b199d67a306f",
                    "indexes": {
                        "data": 0,
                        "gas": 0,
                        "value": 0
                    }
                }
            ]
        }
    }
}