{
    "CallRecursiveBomb1": {
        "_info": {
            "comment": "",
            "filling-rpc-server": "evm version 1.10.16-unstable-0f893109-20220105",
            "filling-tool-version": "retesteth-0.2.2-testinfo+commit.01c6aac2.Linux.g++",
            "filledWith": "CoreGeth-1.12.9-unstable-f4059ddd82d975bdc54fa648e5422a80172161cb",
            "lllcversion": "Version: 0.5.14-develop.2021.11.27+commit.401d5358.Linux.g++",
            "source": "src/GeneralStateTestsFiller/stSystemOperationsTest/CallRecursiveBomb1Filler.json",
            "sourceHash": "89dc58200c791e2a05f24b9a5cd8ba21965396ed246d340a4afbca0d2b19cf59"
        },
        "env": {
            "currentCoinbase": "2adc25665018aa1fe0e6bc666dac8fc2697ff9ba",
            "currentDifficulty": "0x20000",
            "currentRandom": null,
            "currentGasLimit": "0x5f5e100",
            "currentNumber": "0x1",
            "currentTimestamp": "0x3e8",
            "currentBaseFee": "0xa"
        },
        "pre": {
            "0x095e7baea6a6c7c4c2dfeb977efac326af552d87": {
                "code": "0x6001600054016000556000600060006000600030613a985a03f160015500",
                "balance": "0x1312d00"
            },
            "0xa94f5374fce5edbc8e2a8697c15331677e6ebf0b": {
                "balance": "0xde0b6b3a7640000"
            }
        },
        "transaction": {
            "gasPrice": "0xa",
            "maxFeePerGas": null,
            "maxPriorityFeePerGas": null,
            "nonce": "0x0",
            "to": "0x095e7baea6a6c7c4c2dfeb977efac326af552d87",
            "data": [
                "0x"
            ],
            "gasLimit": [
                "0x13aab14"
            ],
            "value": [
                "0x0186a0"
            ],
            "secretKey": "0x45a915e4d060149eb4365960e6a7a45f334393093061116b197e3240065ff2d8"
        },
        "out": "0x",
        "post": {
            "ETC_Magneto": [
                {
                    "hash": "4dec72c7ea6a93440818253c5fde20303e67575730a1d766f2524ee62c2781c1",
                    "logs": "1dcc4de8dec75d7aab85b567b6ccd41ad312451b948a7413f0a142fd40d49347",
                    "txbytes": "0xf864800a84013aab1494095e7baea6a6c7c4c2dfeb977efac326af552d87830186a0801ca077cb5433d431b4fb6933cbb4f39226dc5acc9897d1428d1aa32203de10f2aecea00be1f28a43cf4ab937885785fff87c66a79701e81b5c3aaab8290a7d8b2a9b28",
                    "indexes": {
                        "data": 0,
                        "gas": 0,
                        "value": 0
                    }
                }
            ],
            "ETC_Mystique": [
                {
                    "hash": "4dec72c7ea6a93440818253c5fde20303e67575730a1d766f2524ee62c2781c1",
                    "logs": "1dcc4de8dec75d7aab85b567b6ccd41ad312451b948a7413f0a142fd40d49347",
                    "txbytes": "0xf864800a84013aab1494095e7baea6a6c7c4c2dfeb977efac326af552d87830186a0801ca077cb5433d431b4fb6933cbb4f39226dc5acc9897d1428d1aa32203de10f2aecea00be1f28a43cf4ab937885785fff87c66a79701e81b5c3aaab8290a7d8b2a9b28",
                    "indexes": {
                        "data": 0,
                        "gas": 0,
                        "value": 0
                    }
                }
            ],
            "ETC_Phoenix": [
                {
                    "hash": "e9f84851483b08f72b1573d499325a8795edc3b102d17ed90e2d055cf8c62ade",
                    "logs": "1dcc4de8dec75d7aab85b567b6ccd41ad312451b948a7413f0a142fd40d49347",
                    "txbytes": "0xf864800a84013aab1494095e7baea6a6c7c4c2dfeb977efac326af552d87830186a0801ca077cb5433d431b4fb6933cbb4f39226dc5acc9897d1428d1aa32203de10f2aecea00be1f28a43cf4ab937885785fff87c66a79701e81b5c3aaab8290a7d8b2a9b28",
                    "indexes": {
                        "data": 0,
                        "gas": 0,
                        "value": 0
                    }
                }
            ]
        }
    }
}