{
    "callcodeTo0": {
        "_info": {
            "comment": "",
            "filling-rpc-server": "evm version 1.10.16-unstable-0f893109-20220105",
            "filling-tool-version": "retesteth-0.2.2-testinfo+commit.01c6aac2.Linux.g++",
            "filledWith": "CoreGeth-1.12.9-unstable-4d59a861107c8232d6896811c48f229d30087be4",
            "lllcversion": "Version: 0.5.14-develop.2021.11.27+commit.401d5358.Linux.g++",
            "source": "src/GeneralStateTestsFiller/stSystemOperationsTest/callcodeTo0Filler.json",
            "sourceHash": "fa0362bf81356744eea1bead17cb16dc557efa0ca8bc5947f985a7963f828a0e"
        },
        "env": {
            "currentCoinbase": "0x2adc25665018aa1fe0e6bc666dac8fc2697ff9ba",
            "currentDifficulty": "0x20000",
            "currentGasLimit": "0x1c9c380",
            "currentNumber": "0x1",
            "currentTimestamp": "0x3e8",
            "currentBaseFee": "0xa",
            "previousHash": "0x5e20a0453cecd065ea59c37ac63e079ee08998b6045136a8ce6635c7912ec0b6"
        },
        "pre": {
            "0x095e7baea6a6c7c4c2dfeb977efac326af552d87": {
                "code": "0x60006000600060006001600061c350f260005500",
                "balance": "0xde0b6b3a7640000"
            },
            "0xa94f5374fce5edbc8e2a8697c15331677e6ebf0b": {
                "balance": "0xde0b6b3a7640000"
            }
        },
        "transaction": {
            "gasPrice": "0xa",
            "nonce": "0x0",
            "to": "0x095e7baea6a6c7c4c2dfeb977efac326af552d87",
            "data": [
                "0x"
            ],
            "gasLimit": [
                "0x2dc6c0"
            ],
            "value": [
                "0x0186a0"
            ],
            "secretKey": "0x45a915e4d060149eb4365960e6a7a45f334393093061116b197e3240065ff2d8",
            "sender": "0xa94f5374fce5edbc8e2a8697c15331677e6ebf0b"
        },
        "post": {
            "ETC_Magneto": [
                {
                    "hash": "e7017663c24bfd7e6a2ba548b629ddaf165cebf6bc0e32f05ccf8d77df7fbe92",
                    "logs": "1dcc4de8dec75d7aab85b567b6ccd41ad312451b948a7413f0a142fd40d49347",
                    "txbytes": "0xf863800a832dc6c094095e7baea6a6c7c4c2dfeb977efac326af552d87830186a0801ba076ad63e99848bdf585517964cc93fd7e7eec1b1484b1c2c5da06654431002826a0374e5100dbad1edfd62c48df092041f48b1dc272850f7229aaf8b2c08e7e4fef",
                    "indexes": {
                        "data": 0,
                        "gas": 0,
                        "value": 0
                    }
                }
            ],
            "ETC_Mystique": [
                {
                    "hash": "e7017663c24bfd7e6a2ba548b629ddaf165cebf6bc0e32f05ccf8d77df7fbe92",
                    "logs": "1dcc4de8dec75d7aab85b567b6ccd41ad312451b948a7413f0a142fd40d49347",
                    "txbytes": "0xf863800a832dc6c094095e7baea6a6c7c4c2dfeb977efac326af552d87830186a0801ba076ad63e99848bdf585517964cc93fd7e7eec1b1484b1c2c5da06654431002826a0374e5100dbad1edfd62c48df092041f48b1dc272850f7229aaf8b2c08e7e4fef",
                    "indexes": {
                        "data": 0,
                        "gas": 0,
                        "value": 0
                    }
                }
            ],
            "ETC_Phoenix": [
                {
                    "hash": "da6f6c272a05d8887c4656719cbc45bbb6ac6e8b5deb6a80abc99f6f9358578b",
                    "logs": "1dcc4de8dec75d7aab85b567b6ccd41ad312451b948a7413f0a142fd40d49347",
                    "txbytes": "0xf863800a832dc6c094095e7baea6a6c7c4c2dfeb977efac326af552d87830186a0801ba076ad63e99848bdf585517964cc93fd7e7eec1b1484b1c2c5da06654431002826a0374e5100dbad1edfd62c48df092041f48b1dc272850f7229aaf8b2c08e7e4fef",
                    "indexes": {
                        "data": 0,
                        "gas": 0,
                        "value": 0
                    }
                }
            ]
        }
    }
}