{
    "CallRecursiveBomb0": {
        "_info": {
            "comment": "",
            "filling-rpc-server": "evm version 1.10.16-unstable-0f893109-20220105",
            "filling-tool-version": "retesteth-0.2.2-testinfo+commit.01c6aac2.Linux.g++",
            "filledWith": "CoreGeth-1.12.9-unstable-f4059ddd82d975bdc54fa648e5422a80172161cb",
            "lllcversion": "Version: 0.5.14-develop.2021.11.27+commit.401d5358.Linux.g++",
            "source": "src/GeneralStateTestsFiller/stSystemOperationsTest/CallRecursiveBomb0Filler.json",
            "sourceHash": "ff50fb15f1107f8a1727237ddf8a2f1e86970a1fcae6c9eeab44aa04fe1b8263"
        },
        "env": {
            "currentCoinbase": "2adc25665018aa1fe0e6bc666dac8fc2697ff9ba",
            "currentDifficulty": "0x20000",
            "currentRandom": null,
            "currentGasLimit": "0x28fa6ae00",
            "currentNumber": "0x1",
            "currentTimestamp": "0x3e8",
            "currentBaseFee": "0xa"
        },
        "pre": {
            "0x095e7baea6a6c7c4c2dfeb977efac326af552d87": {
                "code": "0x6000600060006000601773945304eb96065b2a98b57a48a06ae28d285a71b56305f5e100f100",
                "balance": "0x77359400"
            },
            "0x945304eb96065b2a98b57a48a06ae28d285a71b5": {
                "code": "0x6001600054016000556000600060006000600030612af85a03f160015500",
                "balance": "0xde0b6b3a7640000"
            },
            "0xa94f5374fce5edbc8e2a8697c15331677e6ebf0b": {
                "balance": "0xde0b6b3a7640000"
            }
        },
        "transaction": {
            "gasPrice": "0xa",
            "maxFeePerGas": null,
            "maxPriorityFeePerGas": null,
            "nonce": "0x0",
            "to": "0x095e7baea6a6c7c4c2dfeb977efac326af552d87",
            "data": [
                "0x"
            ],
            "gasLimit": [
                "0x2540be400"
            ],
            "value": [
                "0x0186a0"
            ],
            "secretKey": "0x45a915e4d060149eb4365960e6a7a45f334393093061116b197e3240065ff2d8"
        },
        "out": "0x",
        "post": {
            "ETC_Magneto": [
                {
                    "hash": "69aea43c27676758769385433b0fd33ffb590f5d94f4e48489fbedbbb02a54a5",
                    "logs": "1dcc4de8dec75d7aab85b567b6ccd41ad312451b948a7413f0a142fd40d49347",
                    "txbytes": "0xf865800a8502540be40094095e7baea6a6c7c4c2dfeb977efac326af552d87830186a0801ca05b8993b5faca3203d3fd785975b0a31783852022fb185d680deb7ef51896e22ea07f9f84185359ef8b8932571f5990b6dd320d09acfb8ca412f0696098e7cdb653",
                    "indexes": {
                        "data": 0,
                        "gas": 0,
                        "value": 0
                    }
                }
            ],
            "ETC_Mystique": [
                {
                    "hash": "69aea43c27676758769385433b0fd33ffb590f5d94f4e48489fbedbbb02a54a5",
                    "logs": "1dcc4de8dec75d7aab85b567b6ccd41ad312451b948a7413f0a142fd40d49347",
                    "txbytes": "0xf865800a8502540be40094095e7baea6a6c7c4c2dfeb977efac326af552d87830186a0801ca05b8993b5faca3203d3fd785975b0a31783852022fb185d680deb7ef51896e22ea07f9f84185359ef8b8932571f5990b6dd320d09acfb8ca412f0696098e7cdb653",
                    "indexes": {
                        "data": 0,
                        "gas": 0,
                        "value": 0
                    }
                }
            ],
            "ETC_Phoenix": [
                {
                    "hash": "ee12b2f734ff50bcfc89e7da37c884d95eb467e4aca9fd12443bf663eea54ee0",
                    "logs": "1dcc4de8dec75d7aab85b567b6ccd41ad312451b948a7413f0a142fd40d49347",
                    "txbytes": "0xf865800a8502540be40094095e7baea6a6c7c4c2dfeb977efac326af552d87830186a0801ca05b8993b5faca3203d3fd785975b0a31783852022fb185d680deb7ef51896e22ea07f9f84185359ef8b8932571f5990b6dd320d09acfb8ca412f0696098e7cdb653",
                    "indexes": {
                        "data": 0,
                        "gas": 0,
                        "value": 0
                    }
                }
            ]
        }
    }
}