{
    "CallToNameRegistratorAddressTooBigLeft": {
        "_info": {
            "comment": "",
            "filling-rpc-server": "evm version 1.10.16-unstable-0f893109-20220105",
            "filling-tool-version": "retesteth-0.2.2-testinfo+commit.01c6aac2.Linux.g++",
            "filledWith": "CoreGeth-1.12.9-unstable-4cf5b2b0837228e7d5eadba6a01ffb80e9288e21",
            "lllcversion": "Version: 0.5.14-develop.2021.11.27+commit.401d5358.Linux.g++",
            "source": "src/GeneralStateTestsFiller/stSystemOperationsTest/CallToNameRegistratorAddressTooBigLeftFiller.json",
            "sourceHash": "b45b0d39f61bae4f4c4c3549c23d4ec7eea55b7d8e3432355ab47134d2fea928"
        },
        "env": {
            "currentCoinbase": "0x2adc25665018aa1fe0e6bc666dac8fc2697ff9ba",
            "currentDifficulty": "0x20000",
            "currentGasLimit": "0x989680",
            "currentNumber": "0x1",
            "currentTimestamp": "0x3e8",
            "previousHash": "0x5e20a0453cecd065ea59c37ac63e079ee08998b6045136a8ce6635c7912ec0b6"
        },
        "pre": {
            "0x095e7baea6a6c7c4c2dfeb977efac326af552d87": {
                "code": "0x7fffffffffffffffffffffffffffffffffffffffffffffffffffffffffffffffff6000527faaffffffffffffffffffffffffffffffffffffffffffffffffffffffffffffaa6020526000604060406000601774aa945304eb96065b2a98b57a48a06ae28d285a71b56103e8f160005500",
                "balance": "0xde0b6b3a7640000",
                "nonce": "0x0"
            },
            "0x945304eb96065b2a98b57a48a06ae28d285a71b5": {
                "code": "0x6000355415600957005b60203560003555",
                "balance": "0x17",
                "nonce": "0x0"
            },
            "0xa94f5374fce5edbc8e2a8697c15331677e6ebf0b": {
                "code": "0x",
                "balance": "0xde0b6b3a7640000",
                "nonce": "0x0"
            }
        },
        "transaction": {
            "gasPrice": "0xa",
            "nonce": "0x0",
            "to": "0x095e7baea6a6c7c4c2dfeb977efac326af552d87",
            "data": [
                "0x"
            ],
            "gasLimit": [
                "0x493e0"
            ],
            "value": [
                "0x0186a0"
            ],
            "secretKey": "0x45a915e4d060149eb4365960e6a7a45f334393093061116b197e3240065ff2d8",
            "sender": "0xa94f5374fce5edbc8e2a8697c15331677e6ebf0b"
        },
        "post": {
            "ETC_Magneto": [
                {
                    "hash": "04711241fbc7c38f4dccda559a76688b49a855a45dbbf42ae4cf26928872bc56",
                    "logs": "1dcc4de8dec75d7aab85b567b6ccd41ad312451b948a7413f0a142fd40d49347",
                    "txbytes": "0xf863800a830493e094095e7baea6a6c7c4c2dfeb977efac326af552d87830186a0801ca0eaba2c4380d98d9c50136f125ed97e3c2dd0b36c4d4492108be1b0e885dbad68a027594bc48dc0ceb398bd05f0bfb8b6c5dee2f476d270a4e9a7030bff805bd71e",
                    "indexes": {
                        "data": 0,
                        "gas": 0,
                        "value": 0
                    }
                }
            ],
            "ETC_Mystique": [
                {
                    "hash": "04711241fbc7c38f4dccda559a76688b49a855a45dbbf42ae4cf26928872bc56",
                    "logs": "1dcc4de8dec75d7aab85b567b6ccd41ad312451b948a7413f0a142fd40d49347",
                    "txbytes": "0xf863800a830493e094095e7baea6a6c7c4c2dfeb977efac326af552d87830186a0801ca0eaba2c4380d98d9c50136f125ed97e3c2dd0b36c4d4492108be1b0e885dbad68a027594bc48dc0ceb398bd05f0bfb8b6c5dee2f476d270a4e9a7030bff805bd71e",
                    "indexes": {
                        "data": 0,
                        "gas": 0,
                        "value": 0
                    }
                }
            ],
            "ETC_Phoenix": [
                {
                    "hash": "5307ba06d4f92a903e81de6dfb656169825b7a303b58492bbe0c61dab37b9435",
                    "logs": "1dcc4de8dec75d7aab85b567b6ccd41ad312451b948a7413f0a142fd40d49347",
                    "txbytes": "0xf863800a830493e094095e7baea6a6c7c4c2dfeb977efac326af552d87830186a0801ca0eaba2c4380d98d9c50136f125ed97e3c2dd0b36c4d4492108be1b0e885dbad68a027594bc48dc0ceb398bd05f0bfb8b6c5dee2f476d270a4e9a7030bff805bd71e",
                    "indexes": {
                        "data": 0,
                        "gas": 0,
                        "value": 0
                    }
                }
            ]
        }
    }
}