{
    "createNameRegistratorValueTooHigh": {
        "_info": {
            "comment": "",
            "filling-rpc-server": "evm version 1.10.16-unstable-0f893109-20220105",
            "filling-tool-version": "retesteth-0.2.2-testinfo+commit.01c6aac2.Linux.g++",
            "filledWith": "CoreGeth-1.12.9-unstable-4d59a861107c8232d6896811c48f229d30087be4",
            "lllcversion": "Version: 0.5.14-develop.2021.11.27+commit.401d5358.Linux.g++",
            "source": "src/GeneralStateTestsFiller/stSystemOperationsTest/createNameRegistratorValueTooHighFiller.json",
            "sourceHash": "5cb9fe288202f995c4d90e4d4c03ae74b62f95d5e508c9622eb6d64b156e0e1f"
        },
        "env": {
            "currentCoinbase": "0x2adc25665018aa1fe0e6bc666dac8fc2697ff9ba",
            "currentDifficulty": "0x20000",
            "currentGasLimit": "0xf4240",
            "currentNumber": "0x1",
            "currentTimestamp": "0x3e8",
            "currentBaseFee": "0xa",
            "previousHash": "0x5e20a0453cecd065ea59c37ac63e079ee08998b6045136a8ce6635c7912ec0b6"
        },
        "pre": {
            "0x095e7baea6a6c7c4c2dfeb977efac326af552d87": {
                "code": "0x7c601080600c6000396000f3006000355415600957005b60203560003555600052601d6003670de0b6b3a7640001f060005500",
                "balance": "0xde0b6b3a7640000"
            },
            "0xa94f5374fce5edbc8e2a8697c15331677e6ebf0b": {
                "balance": "0x5f5e100"
            }
        },
        "transaction": {
            "gasPrice": "0xa",
            "nonce": "0x0",
            "to": "0x095e7baea6a6c7c4c2dfeb977efac326af552d87",
            "data": [
                "0x"
            ],
            "gasLimit": [
                "0x493e0"
            ],
            "value": [
                "0x00"
            ],
            "secretKey": "0x45a915e4d060149eb4365960e6a7a45f334393093061116b197e3240065ff2d8",
            "sender": "0xa94f5374fce5edbc8e2a8697c15331677e6ebf0b"
        },
        "post": {
            "ETC_Magneto": [
                {
                    "hash": "e76ef085ca80eb5e7f48ce2ef4009afc885c8298315072e2af034c69a07c02c5",
                    "logs": "1dcc4de8dec75d7aab85b567b6ccd41ad312451b948a7413f0a142fd40d49347",
                    "txbytes": "0xf860800a830493e094095e7baea6a6c7c4c2dfeb977efac326af552d8780801ba07dac90ad76be184dd90393b97a7f5b12f65c841791c7462aac2d55bef38051aba0071a9c5cb6781a525949e167c2850acdd1fb05d02b11ae3838219c60c18cd448",
                    "indexes": {
                        "data": 0,
                        "gas": 0,
                        "value": 0
                    }
                }
            ],
            "ETC_Mystique": [
                {
                    "hash": "e76ef085ca80eb5e7f48ce2ef4009afc885c8298315072e2af034c69a07c02c5",
                    "logs": "1dcc4de8dec75d7aab85b567b6ccd41ad312451b948a7413f0a142fd40d49347",
                    "txbytes": "0xf860800a830493e094095e7baea6a6c7c4c2dfeb977efac326af552d8780801ba07dac90ad76be184dd90393b97a7f5b12f65c841791c7462aac2d55bef38051aba0071a9c5cb6781a525949e167c2850acdd1fb05d02b11ae3838219c60c18cd448",
                    "indexes": {
                        "data": 0,
                        "gas": 0,
                        "value": 0
                    }
                }
            ],
            "ETC_Phoenix": [
                {
                    "hash": "bd02e2bb26c131e19a81a1933db7eea48559bf104b8e33bec5d0f14ce0632e9a",
                    "logs": "1dcc4de8dec75d7aab85b567b6ccd41ad312451b948a7413f0a142fd40d49347",
                    "txbytes": "0xf860800a830493e094095e7baea6a6c7c4c2dfeb977efac326af552d8780801ba07dac90ad76be184dd90393b97a7f5b12f65c841791c7462aac2d55bef38051aba0071a9c5cb6781a525949e167c2850acdd1fb05d02b11ae3838219c60c18cd448",
                    "indexes": {
                        "data": 0,
                        "gas": 0,
                        "value": 0
                    }
                }
            ]
        }
    }
}