{
    "doubleSelfdestructTest2": {
        "_info": {
            "comment": "The second test case requested here https://github.com/ethereum/tests/issues/431#issue-306081539 .\nInvoked Solidity 0.4.21 with solc --bin-runtime --optimize\ncontract DoubleSelfdestructTest2 {\n  address constant B = 0x3;\n  function remoteSelfdestruct() external {\n    selfdestruct(this);\n  }\n  function() external payable {\n    this.remoteSelfdestruct();\n    selfdestruct(B);\n  }\n}\nThe version of Solidity emits code that always enter OOG for Homestead and Frontier.  So no new accounts\nare created for Homestead and Frontier.  EIP158 changes the behavior of zero-amount transfer so that no new accounts are created.\nThis leaves EIP150 as a special case.\nBecause gasprice is 0 and mining reward is 0, the mining account is created as empty in the post state. (imitating blockchain rules)\n",
            "filling-rpc-server": "evm version 1.10.16-unstable-0f893109-20220105",
            "filling-tool-version": "retesteth-0.2.2-testinfo+commit.01c6aac2.Linux.g++",
            "filledWith": "CoreGeth-1.12.9-unstable-4cf5b2b0837228e7d5eadba6a01ffb80e9288e21",
            "lllcversion": "Version: 0.5.14-develop.2021.11.27+commit.401d5358.Linux.g++",
            "source": "src/GeneralStateTestsFiller/stSystemOperationsTest/doubleSelfdestructTest2Filler.yml",
            "sourceHash": "33ae53c705ded21f3751a1266782336e3c9a68c9593f370eec8ab1550a48890a"
        },
        "env": {
            "currentCoinbase": "0x2adc25665018aa1fe0e6bc666dac8fc2697ff9ba",
            "currentDifficulty": "0x20000",
            "currentGasLimit": "0x2540be400",
            "currentNumber": "0x1",
            "currentTimestamp": "0x3e8",
            "previousHash": "0x5e20a0453cecd065ea59c37ac63e079ee08998b6045136a8ce6635c7912ec0b6"
        },
        "pre": {
            "0x095e7baea6a6c7c4c2dfeb977efac326af552d87": {
                "code": "0x606060405260043610603e5763ffffffff7c01000000000000000000000000000000000000000000000000000000006000350416632c3f2bf3811460b4575b3073ffffffffffffffffffffffffffffffffffffffff16632c3f2bf36040518163ffffffff167c0100000000000000000000000000000000000000000000000000000000028152600401600060405180830381600087803b151560a057600080fd5b5af1151560ac57600080fd5b506003915050ff5b341560be57600080fd5b60c460c6565b005b3073ffffffffffffffffffffffffffffffffffffffff16ff00a165627a7a7230582004c215a78ad0add6ec7f9e2488a74efe60734d3dfe25da652ef8ac9dae892c4a0029",
                "balance": "0xde0b6b3a7640000",
                "nonce": "0x0"
            },
            "0xa94f5374fce5edbc8e2a8697c15331677e6ebf0b": {
                "code": "0x",
                "balance": "0xde0b6b3a7640000",
                "nonce": "0x0"
            }
        },
        "transaction": {
            "gasPrice": "0xa",
            "nonce": "0x0",
            "to": "0x095e7baea6a6c7c4c2dfeb977efac326af552d87",
            "data": [
                "0x"
            ],
            "gasLimit": [
                "0x3b9aca00"
            ],
            "value": [
                "0x0186a0"
            ],
            "secretKey": "0x45a915e4d060149eb4365960e6a7a45f334393093061116b197e3240065ff2d8",
            "sender": "0xa94f5374fce5edbc8e2a8697c15331677e6ebf0b"
        },
        "post": {
            "ETC_Magneto": [
                {
                    "hash": "53eb4be3447f97b60ff4771fde0120f367803d2a7081a00022ecd7c961c2878b",
                    "logs": "1dcc4de8dec75d7aab85b567b6ccd41ad312451b948a7413f0a142fd40d49347",
                    "txbytes": "0xf864800a843b9aca0094095e7baea6a6c7c4c2dfeb977efac326af552d87830186a0801ca074457fed2b2c7eb1656a7764820d6abc640a61a9cc1cdba895fb722db4180d98a0538ec00d6d68933a7031f2803f032ddf4f150249b92ac351239ba76e12d90c9d",
                    "indexes": {
                        "data": 0,
                        "gas": 0,
                        "value": 0
                    }
                }
            ],
            "ETC_Mystique": [
                {
                    "hash": "88eea27f1f94a108b9a362e5100c9c91f1fa8ea6cc45da356981217f59b24003",
                    "logs": "1dcc4de8dec75d7aab85b567b6ccd41ad312451b948a7413f0a142fd40d49347",
                    "txbytes": "0xf864800a843b9aca0094095e7baea6a6c7c4c2dfeb977efac326af552d87830186a0801ca074457fed2b2c7eb1656a7764820d6abc640a61a9cc1cdba895fb722db4180d98a0538ec00d6d68933a7031f2803f032ddf4f150249b92ac351239ba76e12d90c9d",
                    "indexes": {
                        "data": 0,
                        "gas": 0,
                        "value": 0
                    }
                }
            ],
            "ETC_Phoenix": [
                {
                    "hash": "f9a8ad6929da013fffa1cff9aa2a7855c01d381bf949269a54473ae5c25b5583",
                    "logs": "1dcc4de8dec75d7aab85b567b6ccd41ad312451b948a7413f0a142fd40d49347",
                    "txbytes": "0xf864800a843b9aca0094095e7baea6a6c7c4c2dfeb977efac326af552d87830186a0801ca074457fed2b2c7eb1656a7764820d6abc640a61a9cc1cdba895fb722db4180d98a0538ec00d6d68933a7031f2803f032ddf4f150249b92ac351239ba76e12d90c9d",
                    "indexes": {
                        "data": 0,
                        "gas": 0,
                        "value": 0
                    }
                }
            ]
        }
    }
}