{
    "testRandomTest": {
        "_info": {
            "comment": "",
            "filling-rpc-server": "evm version 1.10.16-unstable-0f893109-20220105",
            "filling-tool-version": "retesteth-0.2.2-testinfo+commit.01c6aac2.Linux.g++",
            "filledWith": "CoreGeth-1.12.9-unstable-4d59a861107c8232d6896811c48f229d30087be4",
            "lllcversion": "Version: 0.5.14-develop.2021.11.27+commit.401d5358.Linux.g++",
            "source": "src/GeneralStateTestsFiller/stSystemOperationsTest/testRandomTestFiller.json",
            "sourceHash": "47f380b4f6049dc13a9dc8aa1eb738058ebfcdb206282f4ab1dda7561a9318cf"
        },
        "env": {
            "currentCoinbase": "0x2adc25665018aa1fe0e6bc666dac8fc2697ff9ba",
            "currentDifficulty": "0x20000",
            "currentGasLimit": "0xf4240",
            "currentNumber": "0x1",
            "currentTimestamp": "0x3e8",
            "currentBaseFee": "0xa",
            "previousHash": "0x5e20a0453cecd065ea59c37ac63e079ee08998b6045136a8ce6635c7912ec0b6"
        },
        "pre": {
            "0x0f572e5295c57f15886f9b263e2f6d2d6c7b5ec6": {
                "code": "0x424443444243434383f0155af055",
                "balance": "0xde0b6b3a7640000"
            },
            "0xa94f5374fce5edbc8e2a8697c15331677e6ebf0b": {
                "balance": "0xde0b6b3a7640000"
            }
        },
        "transaction": {
            "gasPrice": "0xa",
            "nonce": "0x0",
            "to": "0x0f572e5295c57f15886f9b263e2f6d2d6c7b5ec6",
            "data": [
                "0x"
            ],
            "gasLimit": [
                "0x493e0"
            ],
            "value": [
                "0x0186a0"
            ],
            "secretKey": "0x45a915e4d060149eb4365960e6a7a45f334393093061116b197e3240065ff2d8",
            "sender": "0xa94f5374fce5edbc8e2a8697c15331677e6ebf0b"
        },
        "post": {
            "ETC_Magneto": [
                {
                    "hash": "1c05ee072f72b2d181b7f0883d55403090a50c29ed6d4cf789043b53460ef520",
                    "logs": "1dcc4de8dec75d7aab85b567b6ccd41ad312451b948a7413f0a142fd40d49347",
                    "txbytes": "0xf863800a830493e0940f572e5295c57f15886f9b263e2f6d2d6c7b5ec6830186a0801ba027dcde5168ff8300aff10d3943599b18e968de98bdff4ce07554a92bafc83c81a041e85d4d354ddbcc7e2f64ccd05925c5bf2f35768b83de910e607191c37e98a5",
                    "indexes": {
                        "data": 0,
                        "gas": 0,
                        "value": 0
                    }
                }
            ],
            "ETC_Mystique": [
                {
                    "hash": "1c05ee072f72b2d181b7f0883d55403090a50c29ed6d4cf789043b53460ef520",
                    "logs": "1dcc4de8dec75d7aab85b567b6ccd41ad312451b948a7413f0a142fd40d49347",
                    "txbytes": "0xf863800a830493e0940f572e5295c57f15886f9b263e2f6d2d6c7b5ec6830186a0801ba027dcde5168ff8300aff10d3943599b18e968de98bdff4ce07554a92bafc83c81a041e85d4d354ddbcc7e2f64ccd05925c5bf2f35768b83de910e607191c37e98a5",
                    "indexes": {
                        "data": 0,
                        "gas": 0,
                        "value": 0
                    }
                }
            ],
            "ETC_Phoenix": [
                {
                    "hash": "e7cb8e55180b7b3edb5188ddc4ed09bbe564d398e13e22c2e6a945d5baf999eb",
                    "logs": "1dcc4de8dec75d7aab85b567b6ccd41ad312451b948a7413f0a142fd40d49347",
                    "txbytes": "0xf863800a830493e0940f572e5295c57f15886f9b263e2f6d2d6c7b5ec6830186a0801ba027dcde5168ff8300aff10d3943599b18e968de98bdff4ce07554a92bafc83c81a041e85d4d354ddbcc7e2f64ccd05925c5bf2f35768b83de910e607191c37e98a5",
                    "indexes": {
                        "data": 0,
                        "gas": 0,
                        "value": 0
                    }
                }
            ]
        }
    }
}