{
    "NonZeroValue_TransactionCALLwithData_ToOneStorageKey": {
        "_info": {
            "comment": "",
            "filling-rpc-server": "evm version 1.10.16-unstable-0f893109-20220105",
            "filling-tool-version": "retesteth-0.2.2-testinfo+commit.01c6aac2.Linux.g++",
            "filledWith": "CoreGeth-1.12.9-unstable-4d59a861107c8232d6896811c48f229d30087be4",
            "lllcversion": "Version: 0.5.14-develop.2021.11.27+commit.401d5358.Linux.g++",
            "source": "src/GeneralStateTestsFiller/stNonZeroCallsTest/NonZeroValue_TransactionCALLwithData_ToOneStorageKeyFiller.json",
            "sourceHash": "aa85d7def7c1385ad2be56ecebf7f404f1978c54cfec39ced82e3cc041d1f55d"
        },
        "env": {
            "currentCoinbase": "0x2adc25665018aa1fe0e6bc666dac8fc2697ff9ba",
            "currentDifficulty": "0x20000",
            "currentGasLimit": "0x989680",
            "currentNumber": "0x1",
            "currentTimestamp": "0x3e8",
            "currentBaseFee": "0xa",
            "previousHash": "0x5e20a0453cecd065ea59c37ac63e079ee08998b6045136a8ce6635c7912ec0b6"
        },
        "pre": {
            "0xa94f5374fce5edbc8e2a8697c15331677e6ebf0b": {
                "balance": "0xe8d4a51000"
            },
            "0xb94f5374fce5edbc8e2a8697c15331677e6ebf0b": {
                "storage": {
                    "0x0000000000000000000000000000000000000000000000000000000000000000": "0x0000000000000000000000000000000000000000000000000000000000000001"
                },
                "balance": "0x0"
            }
        },
        "transaction": {
            "gasPrice": "0xa",
            "nonce": "0x0",
            "to": "0xb94f5374fce5edbc8e2a8697c15331677e6ebf0b",
            "data": [
                "0x1122334455667788991011121314151617181920"
            ],
            "gasLimit": [
                "0x927c0"
            ],
            "value": [
                "0x01"
            ],
            "secretKey": "0x45a915e4d060149eb4365960e6a7a45f334393093061116b197e3240065ff2d8",
            "sender": "0xa94f5374fce5edbc8e2a8697c15331677e6ebf0b"
        },
        "post": {
            "ETC_Magneto": [
                {
                    "hash": "1b9cb21cac15117ac25f7e216311a227df4fbdd98056d0a20d35d2b540943adb",
                    "logs": "1dcc4de8dec75d7aab85b567b6ccd41ad312451b948a7413f0a142fd40d49347",
                    "txbytes": "0xf874800a830927c094b94f5374fce5edbc8e2a8697c15331677e6ebf0b019411223344556677889910111213141516171819201ba09b61c327057844fea2d140ba07457aefc92e8126675242b1cb6460973f3ea93aa065048035baaf914f82864a523ea217092243e89ef0afd5aebd3b9d62a945724f",
                    "indexes": {
                        "data": 0,
                        "gas": 0,
                        "value": 0
                    }
                }
            ],
            "ETC_Mystique": [
                {
                    "hash": "1b9cb21cac15117ac25f7e216311a227df4fbdd98056d0a20d35d2b540943adb",
                    "logs": "1dcc4de8dec75d7aab85b567b6ccd41ad312451b948a7413f0a142fd40d49347",
                    "txbytes": "0xf874800a830927c094b94f5374fce5edbc8e2a8697c15331677e6ebf0b019411223344556677889910111213141516171819201ba09b61c327057844fea2d140ba07457aefc92e8126675242b1cb6460973f3ea93aa065048035baaf914f82864a523ea217092243e89ef0afd5aebd3b9d62a945724f",
                    "indexes": {
                        "data": 0,
                        "gas": 0,
                        "value": 0
                    }
                }
            ],
            "ETC_Phoenix": [
                {
                    "hash": "1b9cb21cac15117ac25f7e216311a227df4fbdd98056d0a20d35d2b540943adb",
                    "logs": "1dcc4de8dec75d7aab85b567b6ccd41ad312451b948a7413f0a142fd40d49347",
                    "txbytes": "0xf874800a830927c094b94f5374fce5edbc8e2a8697c15331677e6ebf0b019411223344556677889910111213141516171819201ba09b61c327057844fea2d140ba07457aefc92e8126675242b1cb6460973f3ea93aa065048035baaf914f82864a523ea217092243e89ef0afd5aebd3b9d62a945724f",
                    "indexes": {
                        "data": 0,
                        "gas": 0,
                        "value": 0
                    }
                }
            ]
        }
    }
}