{
    "NonZeroValue_TransactionCALL_ToNonNonZeroBalance": {
        "_info": {
            "comment": "",
            "filling-rpc-server": "evm version 1.10.16-unstable-0f893109-20220105",
            "filling-tool-version": "retesteth-0.2.2-testinfo+commit.01c6aac2.Linux.g++",
            "filledWith": "CoreGeth-1.12.9-unstable-d64998ce9b05f4f41b35740c69c4b402e41a3105",
            "lllcversion": "Version: 0.5.14-develop.2021.11.27+commit.401d5358.Linux.g++",
            "source": "src/GeneralStateTestsFiller/stNonZeroCallsTest/NonZeroValue_TransactionCALL_ToNonNonZeroBalanceFiller.json",
            "sourceHash": "1a8a3f9a88c6996d81126a0dd3a21d8949c457fc4a57b20ad4563331c37aa7f9"
        },
        "env": {
            "currentCoinbase": "0x2adc25665018aa1fe0e6bc666dac8fc2697ff9ba",
            "currentDifficulty": "0x20000",
            "currentGasLimit": "0x989680",
            "currentNumber": "0x1",
            "currentTimestamp": "0x3e8",
            "previousHash": "0x5e20a0453cecd065ea59c37ac63e079ee08998b6045136a8ce6635c7912ec0b6"
        },
        "pre": {
            "0xa94f5374fce5edbc8e2a8697c15331677e6ebf0b": {
                "balance": "0xe8d4a51000"
            },
            "0xb94f5374fce5edbc8e2a8697c15331677e6ebf0b": {
                "balance": "0x64"
            }
        },
        "transaction": {
            "gasPrice": "0xa",
            "nonce": "0x0",
            "to": "0xb94f5374fce5edbc8e2a8697c15331677e6ebf0b",
            "data": [
                "0x"
            ],
            "gasLimit": [
                "0x927c0"
            ],
            "value": [
                "0x01"
            ],
            "secretKey": "0x45a915e4d060149eb4365960e6a7a45f334393093061116b197e3240065ff2d8",
            "sender": "0xa94f5374fce5edbc8e2a8697c15331677e6ebf0b"
        },
        "post": {
            "ETC_Magneto": [
                {
                    "hash": "92525ec459a80a6761e87868e6f01cdb15d0549b31c425130c3861533d38d853",
                    "logs": "1dcc4de8dec75d7aab85b567b6ccd41ad312451b948a7413f0a142fd40d49347",
                    "txbytes": "0xf860800a830927c094b94f5374fce5edbc8e2a8697c15331677e6ebf0b01801ca0991fadf4b91da15f71a60c4a91fa3edf3cbb43d37b6f5fd58d58544dfa32357ea0618764e5f3da6ec033e229850b71b32ea88b79f9a0273752c53d9de8b9fdb5cc",
                    "indexes": {
                        "data": 0,
                        "gas": 0,
                        "value": 0
                    }
                }
            ],
            "ETC_Mystique": [
                {
                    "hash": "92525ec459a80a6761e87868e6f01cdb15d0549b31c425130c3861533d38d853",
                    "logs": "1dcc4de8dec75d7aab85b567b6ccd41ad312451b948a7413f0a142fd40d49347",
                    "txbytes": "0xf860800a830927c094b94f5374fce5edbc8e2a8697c15331677e6ebf0b01801ca0991fadf4b91da15f71a60c4a91fa3edf3cbb43d37b6f5fd58d58544dfa32357ea0618764e5f3da6ec033e229850b71b32ea88b79f9a0273752c53d9de8b9fdb5cc",
                    "indexes": {
                        "data": 0,
                        "gas": 0,
                        "value": 0
                    }
                }
            ],
            "ETC_Phoenix": [
                {
                    "hash": "92525ec459a80a6761e87868e6f01cdb15d0549b31c425130c3861533d38d853",
                    "logs": "1dcc4de8dec75d7aab85b567b6ccd41ad312451b948a7413f0a142fd40d49347",
                    "txbytes": "0xf860800a830927c094b94f5374fce5edbc8e2a8697c15331677e6ebf0b01801ca0991fadf4b91da15f71a60c4a91fa3edf3cbb43d37b6f5fd58d58544dfa32357ea0618764e5f3da6ec033e229850b71b32ea88b79f9a0273752c53d9de8b9fdb5cc",
                    "indexes": {
                        "data": 0,
                        "gas": 0,
                        "value": 0
                    }
                }
            ]
        }
    }
}