{
    "callcallcodecallcode_011_OOGMAfter": {
        "_info": {
            "comment": "CALL -\u003e (DELEGATE -\u003e DELEGATE -\u003e CODE) OOG",
            "filling-rpc-server": "evm version 1.10.16-unstable-0f893109-20220105",
            "filling-tool-version": "retesteth-0.2.2-testinfo+commit.01c6aac2.Linux.g++",
            "filledWith": "CoreGeth-1.12.9-unstable-ab16c56768f0284ab56a30aac9550d3ebdc45901",
            "lllcversion": "Version: 0.5.14-develop.2021.11.27+commit.401d5358.Linux.g++",
            "source": "src/GeneralStateTestsFiller/stCallDelegateCodesHomestead/callcallcodecallcode_011_OOGMAfterFiller.json",
            "sourceHash": "9a54a958c1452f310556677bc0a5ffc36e5f8d7f7ad5f19c2dba2cbdee9df257"
        },
        "env": {
            "currentCoinbase": "0x2adc25665018aa1fe0e6bc666dac8fc2697ff9ba",
            "currentDifficulty": "0x20000",
            "currentGasLimit": "0x1c9c380",
            "currentNumber": "0x1",
            "currentTimestamp": "0x3e8",
            "currentBaseFee": "0xa",
            "previousHash": "0x5e20a0453cecd065ea59c37ac63e079ee08998b6045136a8ce6635c7912ec0b6"
        },
        "pre": {
            "0x1000000000000000000000000000000000000000": {
                "code": "0x60406000604060006000731000000000000000000000000000000000000001620c3500f16000556001600b5500",
                "balance": "0xde0b6b3a7640000"
            },
            "0x1000000000000000000000000000000000000001": {
                "code": "0x6040600060406000731000000000000000000000000000000000000002620927c0f4600155622fffff60002000",
                "balance": "0x0"
            },
            "0x1000000000000000000000000000000000000002": {
                "code": "0x604060006040600073100000000000000000000000000000000000000362061a80f460025500",
                "balance": "0x0"
            },
            "0x1000000000000000000000000000000000000003": {
                "code": "0x600160035500",
                "balance": "0x0"
            },
            "0xa94f5374fce5edbc8e2a8697c15331677e6ebf0b": {
                "balance": "0xde0b6b3a7640000"
            }
        },
        "transaction": {
            "gasPrice": "0xa",
            "nonce": "0x0",
            "to": "0x1000000000000000000000000000000000000000",
            "data": [
                "0x"
            ],
            "gasLimit": [
                "0xf4240"
            ],
            "value": [
                "0x00"
            ],
            "secretKey": "0x45a915e4d060149eb4365960e6a7a45f334393093061116b197e3240065ff2d8",
            "sender": "0xa94f5374fce5edbc8e2a8697c15331677e6ebf0b"
        },
        "post": {
            "ETC_Magneto": [
                {
                    "hash": "2f6e23cd1e95d24e4df617ca24b24e0728a8be1a3f07ad665d61014e0aabe0c6",
                    "logs": "1dcc4de8dec75d7aab85b567b6ccd41ad312451b948a7413f0a142fd40d49347",
                    "txbytes": "0xf860800a830f424094100000000000000000000000000000000000000080801ba0878fccf1801724b1bfb5b0a67d68454b9c56fe9e3753200bc36cd66eed5636eca00dc53455b0e859433799ddbe3c16f98e70c52b6bf684992d9907dc9d1ccb03f1",
                    "indexes": {
                        "data": 0,
                        "gas": 0,
                        "value": 0
                    }
                }
            ],
            "ETC_Mystique": [
                {
                    "hash": "2f6e23cd1e95d24e4df617ca24b24e0728a8be1a3f07ad665d61014e0aabe0c6",
                    "logs": "1dcc4de8dec75d7aab85b567b6ccd41ad312451b948a7413f0a142fd40d49347",
                    "txbytes": "0xf860800a830f424094100000000000000000000000000000000000000080801ba0878fccf1801724b1bfb5b0a67d68454b9c56fe9e3753200bc36cd66eed5636eca00dc53455b0e859433799ddbe3c16f98e70c52b6bf684992d9907dc9d1ccb03f1",
                    "indexes": {
                        "data": 0,
                        "gas": 0,
                        "value": 0
                    }
                }
            ],
            "ETC_Phoenix": [
                {
                    "hash": "e1b0d6f197d44673846a24df09962b19f11ff6e42db11f82186d1e8779cec87c",
                    "logs": "1dcc4de8dec75d7aab85b567b6ccd41ad312451b948a7413f0a142fd40d49347",
                    "txbytes": "0xf860800a830f424094100000000000000000000000000000000000000080801ba0878fccf1801724b1bfb5b0a67d68454b9c56fe9e3753200bc36cd66eed5636eca00dc53455b0e859433799ddbe3c16f98e70c52b6bf684992d9907dc9d1ccb03f1",
                    "indexes": {
                        "data": 0,
                        "gas": 0,
                        "value": 0
                    }
                }
            ]
        }
    }
}