{
    "callcallcodecallcode_011": {
        "_info": {
            "comment": "",
            "filling-rpc-server": "evm version 1.10.16-unstable-0f893109-20220105",
            "filling-tool-version": "retesteth-0.2.2-testinfo+commit.01c6aac2.Linux.g++",
            "filledWith": "CoreGeth-1.12.9-unstable-d64998ce9b05f4f41b35740c69c4b402e41a3105",
            "lllcversion": "Version: 0.5.14-develop.2021.11.27+commit.401d5358.Linux.g++",
            "source": "src/GeneralStateTestsFiller/stCallDelegateCodesHomestead/callcallcodecallcode_011Filler.json",
            "sourceHash": "490fc36debb0a3c8d38b5b22b0343d9558eba0c27480b373a0e39d82443f3825"
        },
        "env": {
            "currentCoinbase": "0x2adc25665018aa1fe0e6bc666dac8fc2697ff9ba",
            "currentDifficulty": "0x20000",
            "currentGasLimit": "0x1c9c380",
            "currentNumber": "0x1",
            "currentTimestamp": "0x3e8",
            "previousHash": "0x5e20a0453cecd065ea59c37ac63e079ee08998b6045136a8ce6635c7912ec0b6"
        },
        "pre": {
            "0x1000000000000000000000000000000000000000": {
                "code": "0x6040600060406000600173100000000000000000000000000000000000000162055730f160005500",
                "balance": "0xde0b6b3a7640000"
            },
            "0x1000000000000000000000000000000000000001": {
                "code": "0x6040600060406000731000000000000000000000000000000000000002620493e0f460015500",
                "balance": "0xde0b6b3a7640000"
            },
            "0x1000000000000000000000000000000000000002": {
                "code": "0x60406000604060007310000000000000000000000000000000000000036203d090f460025500",
                "balance": "0xde0b6b3a7640000"
            },
            "0x1000000000000000000000000000000000000003": {
                "code": "0x600160035533600455346007553061014a553261014c55366101505538610152553a6101545500",
                "balance": "0x0"
            },
            "0xa94f5374fce5edbc8e2a8697c15331677e6ebf0b": {
                "balance": "0xde0b6b3a7640000"
            }
        },
        "transaction": {
            "gasPrice": "0xa",
            "nonce": "0x0",
            "to": "0x1000000000000000000000000000000000000000",
            "data": [
                "0x"
            ],
            "gasLimit": [
                "0x2dc6c0"
            ],
            "value": [
                "0x00"
            ],
            "secretKey": "0x45a915e4d060149eb4365960e6a7a45f334393093061116b197e3240065ff2d8",
            "sender": "0xa94f5374fce5edbc8e2a8697c15331677e6ebf0b"
        },
        "post": {
            "ETC_Magneto": [
                {
                    "hash": "b03b952d7d9adb29e061d37ee9b9cf0e1b8e545b7b6acab8b5be2ad4f4455c5f",
                    "logs": "1dcc4de8dec75d7aab85b567b6ccd41ad312451b948a7413f0a142fd40d49347",
                    "txbytes": "0xf860800a832dc6c094100000000000000000000000000000000000000080801ba07763c200d265ba0050627c8c7b4c19bf118b3581a3de22dbcebdfcb6e8565790a0514908f638ddc4b1402230e34692f43bb92713ff2cad3627814cf6fb19ac2e43",
                    "indexes": {
                        "data": 0,
                        "gas": 0,
                        "value": 0
                    }
                }
            ],
            "ETC_Mystique": [
                {
                    "hash": "b03b952d7d9adb29e061d37ee9b9cf0e1b8e545b7b6acab8b5be2ad4f4455c5f",
                    "logs": "1dcc4de8dec75d7aab85b567b6ccd41ad312451b948a7413f0a142fd40d49347",
                    "txbytes": "0xf860800a832dc6c094100000000000000000000000000000000000000080801ba07763c200d265ba0050627c8c7b4c19bf118b3581a3de22dbcebdfcb6e8565790a0514908f638ddc4b1402230e34692f43bb92713ff2cad3627814cf6fb19ac2e43",
                    "indexes": {
                        "data": 0,
                        "gas": 0,
                        "value": 0
                    }
                }
            ],
            "ETC_Phoenix": [
                {
                    "hash": "8adcfd133ae4edf39fc3fa1eed88e43f030e658b044a4149b17207e288b2af8e",
                    "logs": "1dcc4de8dec75d7aab85b567b6ccd41ad312451b948a7413f0a142fd40d49347",
                    "txbytes": "0xf860800a832dc6c094100000000000000000000000000000000000000080801ba07763c200d265ba0050627c8c7b4c19bf118b3581a3de22dbcebdfcb6e8565790a0514908f638ddc4b1402230e34692f43bb92713ff2cad3627814cf6fb19ac2e43",
                    "indexes": {
                        "data": 0,
                        "gas": 0,
                        "value": 0
                    }
                }
            ]
        }
    }
}