{
    "callcallcallcode_ABCB_RECURSIVE": {
        "_info": {
            "comment": "CALL -\u003e CALL2 -\u003e DELEGATECALL -\u003e CALL2 -\u003e ...",
            "filling-rpc-server": "evm version 1.10.16-unstable-0f893109-20220105",
            "filling-tool-version": "retesteth-0.2.2-testinfo+commit.01c6aac2.Linux.g++",
            "filledWith": "CoreGeth-1.12.9-unstable-f4059ddd82d975bdc54fa648e5422a80172161cb",
            "lllcversion": "Version: 0.5.14-develop.2021.11.27+commit.401d5358.Linux.g++",
            "source": "src/GeneralStateTestsFiller/stCallDelegateCodesHomestead/callcallcallcode_ABCB_RECURSIVEFiller.json",
            "sourceHash": "e9f1b12f9135eb20d467ee960c58531334755323e597d08ffe07b5e2e27d4185"
        },
        "env": {
            "currentCoinbase": "2adc25665018aa1fe0e6bc666dac8fc2697ff9ba",
            "currentDifficulty": "0x20000",
            "currentRandom": null,
            "currentGasLimit": "0xb2d05e00",
            "currentNumber": "0x1",
            "currentTimestamp": "0x3e8",
            "currentBaseFee": "0xa"
        },
        "pre": {
            "0x1000000000000000000000000000000000000000": {
                "code": "0x6040600060406000600073100000000000000000000000000000000000000163017d7840f160005500",
                "balance": "0xde0b6b3a7640000"
            },
            "0x1000000000000000000000000000000000000001": {
                "code": "0x60406000604060006000731000000000000000000000000000000000000002620f4240f160015500",
                "balance": "0x2540be400"
            },
            "0x1000000000000000000000000000000000000002": {
                "code": "0x60406000604060007310000000000000000000000000000000000000016207a120f460025500",
                "balance": "0x2540be400"
            },
            "0xa94f5374fce5edbc8e2a8697c15331677e6ebf0b": {
                "balance": "0xde0b6b3a7640000"
            }
        },
        "transaction": {
            "gasPrice": "0xa",
            "maxFeePerGas": null,
            "maxPriorityFeePerGas": null,
            "nonce": "0x0",
            "to": "0x1000000000000000000000000000000000000000",
            "data": [
                "0x"
            ],
            "gasLimit": [
                "0x1c9c380"
            ],
            "value": [
                "0x00"
            ],
            "secretKey": "0x45a915e4d060149eb4365960e6a7a45f334393093061116b197e3240065ff2d8"
        },
        "out": "0x",
        "post": {
            "ETC_Magneto": [
                {
                    "hash": "8777fbe5ccbf3498b62ab33ba1b25e8e8d9927b94f06f96ece3a0af837da0ecd",
                    "logs": "1dcc4de8dec75d7aab85b567b6ccd41ad312451b948a7413f0a142fd40d49347",
                    "txbytes": "0xf861800a8401c9c38094100000000000000000000000000000000000000080801ba0e8d1cea1a04c8b4da190371aa4937f7756d5c55d54af29cc22a1f457ca1a213aa0517b7f1455b270f21c5e3b5ebf42dd7234a8b7dcbcd0d96e910182f8ccd55629",
                    "indexes": {
                        "data": 0,
                        "gas": 0,
                        "value": 0
                    }
                }
            ],
            "ETC_Mystique": [
                {
                    "hash": "8777fbe5ccbf3498b62ab33ba1b25e8e8d9927b94f06f96ece3a0af837da0ecd",
                    "logs": "1dcc4de8dec75d7aab85b567b6ccd41ad312451b948a7413f0a142fd40d49347",
                    "txbytes": "0xf861800a8401c9c38094100000000000000000000000000000000000000080801ba0e8d1cea1a04c8b4da190371aa4937f7756d5c55d54af29cc22a1f457ca1a213aa0517b7f1455b270f21c5e3b5ebf42dd7234a8b7dcbcd0d96e910182f8ccd55629",
                    "indexes": {
                        "data": 0,
                        "gas": 0,
                        "value": 0
                    }
                }
            ],
            "ETC_Phoenix": [
                {
                    "hash": "58ec30346b4525449f33ecba40ab2cecd2bc6a8c917f4842daba26cb660ef899",
                    "logs": "1dcc4de8dec75d7aab85b567b6ccd41ad312451b948a7413f0a142fd40d49347",
                    "txbytes": "0xf861800a8401c9c38094100000000000000000000000000000000000000080801ba0e8d1cea1a04c8b4da190371aa4937f7756d5c55d54af29cc22a1f457ca1a213aa0517b7f1455b270f21c5e3b5ebf42dd7234a8b7dcbcd0d96e910182f8ccd55629",
                    "indexes": {
                        "data": 0,
                        "gas": 0,
                        "value": 0
                    }
                }
            ]
        }
    }
}