{
    "callcallcode_01": {
        "_info": {
            "comment": "",
            "filling-rpc-server": "evm version 1.10.16-unstable-0f893109-20220105",
            "filling-tool-version": "retesteth-0.2.2-testinfo+commit.01c6aac2.Linux.g++",
            "filledWith": "CoreGeth-1.12.9-unstable-4d59a861107c8232d6896811c48f229d30087be4",
            "lllcversion": "Version: 0.5.14-develop.2021.11.27+commit.401d5358.Linux.g++",
            "source": "src/GeneralStateTestsFiller/stCallDelegateCodesHomestead/callcallcode_01Filler.json",
            "sourceHash": "1f44cbf0e34b3d4a868f2e6a11bf1f5afbe22aada27639fbfa78bc48dd8f40a3"
        },
        "env": {
            "currentCoinbase": "0x2adc25665018aa1fe0e6bc666dac8fc2697ff9ba",
            "currentDifficulty": "0x20000",
            "currentGasLimit": "0x1c9c380",
            "currentNumber": "0x1",
            "currentTimestamp": "0x3e8",
            "currentBaseFee": "0xa",
            "previousHash": "0x5e20a0453cecd065ea59c37ac63e079ee08998b6045136a8ce6635c7912ec0b6"
        },
        "pre": {
            "0x1000000000000000000000000000000000000000": {
                "code": "0x6040600060406000600173100000000000000000000000000000000000000162055730f160005500",
                "balance": "0xde0b6b3a7640000"
            },
            "0x1000000000000000000000000000000000000001": {
                "code": "0x60406000604060007310000000000000000000000000000000000000026203d090f460015500",
                "balance": "0x0"
            },
            "0x1000000000000000000000000000000000000002": {
                "code": "0x600160025533600455346007553060e6553260e8553660ec553860ee553a60f05500",
                "balance": "0x0"
            },
            "0xa94f5374fce5edbc8e2a8697c15331677e6ebf0b": {
                "balance": "0xde0b6b3a7640000"
            }
        },
        "transaction": {
            "gasPrice": "0xa",
            "nonce": "0x0",
            "to": "0x1000000000000000000000000000000000000000",
            "data": [
                "0x"
            ],
            "gasLimit": [
                "0x2dc6c0"
            ],
            "value": [
                "0x00"
            ],
            "secretKey": "0x45a915e4d060149eb4365960e6a7a45f334393093061116b197e3240065ff2d8",
            "sender": "0xa94f5374fce5edbc8e2a8697c15331677e6ebf0b"
        },
        "post": {
            "ETC_Magneto": [
                {
                    "hash": "9bbf743bd3501a00794c9a23c06e33ecb7cdf914cc95dd70fcd384f7bb92dbc5",
                    "logs": "1dcc4de8dec75d7aab85b567b6ccd41ad312451b948a7413f0a142fd40d49347",
                    "txbytes": "0xf860800a832dc6c094100000000000000000000000000000000000000080801ba07763c200d265ba0050627c8c7b4c19bf118b3581a3de22dbcebdfcb6e8565790a0514908f638ddc4b1402230e34692f43bb92713ff2cad3627814cf6fb19ac2e43",
                    "indexes": {
                        "data": 0,
                        "gas": 0,
                        "value": 0
                    }
                }
            ],
            "ETC_Mystique": [
                {
                    "hash": "9bbf743bd3501a00794c9a23c06e33ecb7cdf914cc95dd70fcd384f7bb92dbc5",
                    "logs": "1dcc4de8dec75d7aab85b567b6ccd41ad312451b948a7413f0a142fd40d49347",
                    "txbytes": "0xf860800a832dc6c094100000000000000000000000000000000000000080801ba07763c200d265ba0050627c8c7b4c19bf118b3581a3de22dbcebdfcb6e8565790a0514908f638ddc4b1402230e34692f43bb92713ff2cad3627814cf6fb19ac2e43",
                    "indexes": {
                        "data": 0,
                        "gas": 0,
                        "value": 0
                    }
                }
            ],
            "ETC_Phoenix": [
                {
                    "hash": "f898cb61987422c435056b66af6b582844eaa22b17d7df2ee6de40993b2c426f",
                    "logs": "1dcc4de8dec75d7aab85b567b6ccd41ad312451b948a7413f0a142fd40d49347",
                    "txbytes": "0xf860800a832dc6c094100000000000000000000000000000000000000080801ba07763c200d265ba0050627c8c7b4c19bf118b3581a3de22dbcebdfcb6e8565790a0514908f638ddc4b1402230e34692f43bb92713ff2cad3627814cf6fb19ac2e43",
                    "indexes": {
                        "data": 0,
                        "gas": 0,
                        "value": 0
                    }
                }
            ]
        }
    }
}