{
    "createCodeSizeLimit": {
        "_info": {
            "comment": "",
            "filling-rpc-server": "evm version 1.10.16-unstable-0f893109-20220105",
            "filling-tool-version": "retesteth-0.2.2-testinfo+commit.01c6aac2.Linux.g++",
            "filledWith": "CoreGeth-1.12.9-unstable-3995a327f2ded5c98324b03792b5ccc22557754f",
            "lllcversion": "Version: 0.5.14-develop.2021.11.27+commit.401d5358.Linux.g++",
            "source": "src/GeneralStateTestsFiller/stCodeSizeLimit/createCodeSizeLimitFiller.yml",
            "sourceHash": "83e9c2d38543bbcf31c92169085e1c3abdefc658d0d8834f6ea580002426c001",
            "labels": {
                "0": "valid",
                "1": "invalid"
            }
        },
        "env": {
            "currentCoinbase": "0x2adc25665018aa1fe0e6bc666dac8fc2697ff9ba",
            "currentDifficulty": "0x20000",
            "currentGasLimit": "0x1312d00",
            "currentNumber": "0x1",
            "currentTimestamp": "0x3e8",
            "currentBaseFee": "0xa",
            "previousHash": "0x5e20a0453cecd065ea59c37ac63e079ee08998b6045136a8ce6635c7912ec0b6"
        },
        "pre": {
            "0xa94f5374fce5edbc8e2a8697c15331677e6ebf0b": {
                "balance": "0xbebc200"
            },
            "0xb94f5374fce5edbc8e2a8697c15331677e6ebf0b": {
                "code": "0x6000356000523660006000f06000556001600155",
                "balance": "0x0"
            }
        },
        "transaction": {
            "gasPrice": "0xa",
            "nonce": "0x0",
            "to": "0xb94f5374fce5edbc8e2a8697c15331677e6ebf0b",
            "data": [
                "0x6160006000f3",
                "0x6160016000f3"
            ],
            "gasLimit": [
                "0xe4e1c0"
            ],
            "value": [
                "0x00"
            ],
            "secretKey": "0x45a915e4d060149eb4365960e6a7a45f334393093061116b197e3240065ff2d8",
            "sender": "0xa94f5374fce5edbc8e2a8697c15331677e6ebf0b"
        },
        "post": {
            "ETC_Mystique": [
                {
                    "hash": "6d7c707d55ff61f4560cb125de68be3123950a981a62a4028a4271d0de364c25",
                    "logs": "1dcc4de8dec75d7aab85b567b6ccd41ad312451b948a7413f0a142fd40d49347",
                    "txbytes": "0xf866800a83e4e1c094b94f5374fce5edbc8e2a8697c15331677e6ebf0b80866160006000f31ca06957879e5ca2ea859efc500f71fbaabb8633c3f0a5834b18fa3d2f7267d81058a0530f5410643685c2df91d3c0e3ddb122f8fe547d715a3097810353d84f7ca8d4",
                    "indexes": {
                        "data": 0,
                        "gas": 0,
                        "value": 0
                    }
                },
                {
                    "hash": "1b66b0209461a64135ba075b7a7dd66f0cede81372f90ec6f03139a917f77c9e",
                    "logs": "1dcc4de8dec75d7aab85b567b6ccd41ad312451b948a7413f0a142fd40d49347",
                    "txbytes": "0xf866800a83e4e1c094b94f5374fce5edbc8e2a8697c15331677e6ebf0b80866160016000f31ca0390753f620ef37dbf531a3fcc72e9cd91ce82bb53c2dfd9e805518dc02edc9e5a0624951fb91c52d511a0bea95a84ece588511f2c5ec5608886ba6b06e94a6b375",
                    "indexes": {
                        "data": 1,
                        "gas": 0,
                        "value": 0
                    }
                }
            ]
        }
    }
}