{
    "static_RevertDepth2": {
        "_info": {
            "comment": "",
            "filling-rpc-server": "evm version 1.10.16-unstable-0f893109-20220105",
            "filling-tool-version": "retesteth-0.2.2-testinfo+commit.01c6aac2.Linux.g++",
            "filledWith": "CoreGeth-1.12.9-unstable-4d59a861107c8232d6896811c48f229d30087be4",
            "lllcversion": "Version: 0.5.14-develop.2021.11.27+commit.401d5358.Linux.g++",
            "source": "src/GeneralStateTestsFiller/stStaticCall/static_RevertDepth2Filler.json",
            "sourceHash": "ad318db5b07e459a135adde4b3e9d7a0e1663abfe92f276508fd1231404b47c3"
        },
        "env": {
            "currentCoinbase": "0x2adc25665018aa1fe0e6bc666dac8fc2697ff9ba",
            "currentDifficulty": "0x20000",
            "currentGasLimit": "0x989680",
            "currentNumber": "0x1",
            "currentTimestamp": "0x3e8",
            "currentBaseFee": "0xa",
            "previousHash": "0x5e20a0453cecd065ea59c37ac63e079ee08998b6045136a8ce6635c7912ec0b6"
        },
        "pre": {
            "0xa000000000000000000000000000000000000000": {
                "code": "0x600054600101600055600060006000600073b000000000000000000000000000000000000000620249f0fa600155600060006000600073d000000000000000000000000000000000000000620249f0fa60025500",
                "balance": "0x0"
            },
            "0xa94f5374fce5edbc8e2a8697c15331677e6ebf0b": {
                "balance": "0xe8d4a51000"
            },
            "0xb000000000000000000000000000000000000000": {
                "code": "0x600060006000600073c00000000000000000000000000000000000000061c350fa50600160015200",
                "balance": "0x0"
            },
            "0xc000000000000000000000000000000000000000": {
                "code": "0x600160015200",
                "balance": "0x0"
            },
            "0xd000000000000000000000000000000000000000": {
                "code": "0x600060006000600073c00000000000000000000000000000000000000061c350fa50622fffff60002000",
                "balance": "0x0"
            }
        },
        "transaction": {
            "gasPrice": "0xa",
            "nonce": "0x0",
            "to": "0xa000000000000000000000000000000000000000",
            "data": [
                "0x"
            ],
            "gasLimit": [
                "0x1a0b62"
            ],
            "value": [
                "0x00"
            ],
            "secretKey": "0x45a915e4d060149eb4365960e6a7a45f334393093061116b197e3240065ff2d8",
            "sender": "0xa94f5374fce5edbc8e2a8697c15331677e6ebf0b"
        },
        "post": {
            "ETC_Magneto": [
                {
                    "hash": "c95bbb1418271dc0e46a819b8b99318de4bccc873027da8ec4ee0ab1ede200f4",
                    "logs": "1dcc4de8dec75d7aab85b567b6ccd41ad312451b948a7413f0a142fd40d49347",
                    "txbytes": "0xf860800a831a0b6294a00000000000000000000000000000000000000080801ba02eeccbe8ee57ab93153eabbe88f412f4945b19acbaf396144baecdb3e0b2f277a04cee67c7cdef93a256b9b7abb07c574e165b4b2f261b91632762e22ef9e52ce2",
                    "indexes": {
                        "data": 0,
                        "gas": 0,
                        "value": 0
                    }
                }
            ],
            "ETC_Mystique": [
                {
                    "hash": "c95bbb1418271dc0e46a819b8b99318de4bccc873027da8ec4ee0ab1ede200f4",
                    "logs": "1dcc4de8dec75d7aab85b567b6ccd41ad312451b948a7413f0a142fd40d49347",
                    "txbytes": "0xf860800a831a0b6294a00000000000000000000000000000000000000080801ba02eeccbe8ee57ab93153eabbe88f412f4945b19acbaf396144baecdb3e0b2f277a04cee67c7cdef93a256b9b7abb07c574e165b4b2f261b91632762e22ef9e52ce2",
                    "indexes": {
                        "data": 0,
                        "gas": 0,
                        "value": 0
                    }
                }
            ],
            "ETC_Phoenix": [
                {
                    "hash": "d381bdc71cce6348b48293a34ec040afbaafd0d1c471767e3cd9723f5efa56b2",
                    "logs": "1dcc4de8dec75d7aab85b567b6ccd41ad312451b948a7413f0a142fd40d49347",
                    "txbytes": "0xf860800a831a0b6294a00000000000000000000000000000000000000080801ba02eeccbe8ee57ab93153eabbe88f412f4945b19acbaf396144baecdb3e0b2f277a04cee67c7cdef93a256b9b7abb07c574e165b4b2f261b91632762e22ef9e52ce2",
                    "indexes": {
                        "data": 0,
                        "gas": 0,
                        "value": 0
                    }
                }
            ]
        }
    }
}