{
    "static_ZeroValue_CALL_OOGRevert": {
        "_info": {
            "comment": "",
            "filling-rpc-server": "evm version 1.10.16-unstable-0f893109-20220105",
            "filling-tool-version": "retesteth-0.2.2-testinfo+commit.01c6aac2.Linux.g++",
            "filledWith": "CoreGeth-1.12.9-unstable-ab16c56768f0284ab56a30aac9550d3ebdc45901",
            "lllcversion": "Version: 0.5.14-develop.2021.11.27+commit.401d5358.Linux.g++",
            "source": "src/GeneralStateTestsFiller/stStaticCall/static_ZeroValue_CALL_OOGRevertFiller.json",
            "sourceHash": "7a794b2f5adba60750b044debe941d94ad5aec5dd3896d5bbda5f4034702fd8f"
        },
        "env": {
            "currentCoinbase": "0x2adc25665018aa1fe0e6bc666dac8fc2697ff9ba",
            "currentDifficulty": "0x20000",
            "currentGasLimit": "0x989680",
            "currentNumber": "0x1",
            "currentTimestamp": "0x3e8",
            "currentBaseFee": "0xa",
            "previousHash": "0x5e20a0453cecd065ea59c37ac63e079ee08998b6045136a8ce6635c7912ec0b6"
        },
        "pre": {
            "0xa94f5374fce5edbc8e2a8697c15331677e6ebf0b": {
                "balance": "0xe8d4a51000"
            },
            "0xb94f5374fce5edbc8e2a8697c15331677e6ebf0b": {
                "code": "0x5a600055600060006000600073c94f5374fce5edbc8e2a8697c15331677e6ebf0b61ea60fa600155622fffff600020505a60645500",
                "balance": "0x0"
            }
        },
        "transaction": {
            "gasPrice": "0xa",
            "nonce": "0x0",
            "to": "0xb94f5374fce5edbc8e2a8697c15331677e6ebf0b",
            "data": [
                "0x"
            ],
            "gasLimit": [
                "0x149970"
            ],
            "value": [
                "0x00"
            ],
            "secretKey": "0x45a915e4d060149eb4365960e6a7a45f334393093061116b197e3240065ff2d8",
            "sender": "0xa94f5374fce5edbc8e2a8697c15331677e6ebf0b"
        },
        "post": {
            "ETC_Magneto": [
                {
                    "hash": "8651f227a3562f84726d42f3f9f5fd47fbc1588f7a2dd40627bbf6de76766cab",
                    "logs": "1dcc4de8dec75d7aab85b567b6ccd41ad312451b948a7413f0a142fd40d49347",
                    "txbytes": "0xf860800a8314997094b94f5374fce5edbc8e2a8697c15331677e6ebf0b80801ba04f2915c3577ba8a96ce7dc3bee3c6e43cc9804eb3b6a4ce452ba8486853fd13aa02a0a61c56004d161d692a9ae7f021d4b33c5db235c90b8cecbd0dfba98b5954c",
                    "indexes": {
                        "data": 0,
                        "gas": 0,
                        "value": 0
                    }
                }
            ],
            "ETC_Mystique": [
                {
                    "hash": "8651f227a3562f84726d42f3f9f5fd47fbc1588f7a2dd40627bbf6de76766cab",
                    "logs": "1dcc4de8dec75d7aab85b567b6ccd41ad312451b948a7413f0a142fd40d49347",
                    "txbytes": "0xf860800a8314997094b94f5374fce5edbc8e2a8697c15331677e6ebf0b80801ba04f2915c3577ba8a96ce7dc3bee3c6e43cc9804eb3b6a4ce452ba8486853fd13aa02a0a61c56004d161d692a9ae7f021d4b33c5db235c90b8cecbd0dfba98b5954c",
                    "indexes": {
                        "data": 0,
                        "gas": 0,
                        "value": 0
                    }
                }
            ],
            "ETC_Phoenix": [
                {
                    "hash": "8651f227a3562f84726d42f3f9f5fd47fbc1588f7a2dd40627bbf6de76766cab",
                    "logs": "1dcc4de8dec75d7aab85b567b6ccd41ad312451b948a7413f0a142fd40d49347",
                    "txbytes": "0xf860800a8314997094b94f5374fce5edbc8e2a8697c15331677e6ebf0b80801ba04f2915c3577ba8a96ce7dc3bee3c6e43cc9804eb3b6a4ce452ba8486853fd13aa02a0a61c56004d161d692a9ae7f021d4b33c5db235c90b8cecbd0dfba98b5954c",
                    "indexes": {
                        "data": 0,
                        "gas": 0,
                        "value": 0
                    }
                }
            ]
        }
    }
}