{
    "static_CallGoesOOGOnSecondLevel2": {
        "_info": {
            "comment": "",
            "filling-rpc-server": "evm version 1.10.16-unstable-0f893109-20220105",
            "filling-tool-version": "retesteth-0.2.2-testinfo+commit.01c6aac2.Linux.g++",
            "filledWith": "CoreGeth-1.12.9-unstable-d390462df9df233b60b4cd7a37db5b3043832022",
            "lllcversion": "Version: 0.5.14-develop.2021.11.27+commit.401d5358.Linux.g++",
            "source": "src/GeneralStateTestsFiller/stStaticCall/static_CallGoesOOGOnSecondLevel2Filler.json",
            "sourceHash": "b62419876156b463dd5f4f394ef905ae3b3f93f6ad93c0fa3213cac37848794b"
        },
        "env": {
            "currentCoinbase": "0x2adc25665018aa1fe0e6bc666dac8fc2697ff9ba",
            "currentDifficulty": "0x20000",
            "currentGasLimit": "0x989680",
            "currentNumber": "0x1",
            "currentTimestamp": "0x3e8",
            "previousHash": "0x5e20a0453cecd065ea59c37ac63e079ee08998b6045136a8ce6635c7912ec0b6"
        },
        "pre": {
            "0x1000000000000000000000000000000000000113": {
                "code": "0x5a6008526000600060006000600035620927c0fa60095200",
                "balance": "0x0",
                "nonce": "0x0"
            },
            "0x1000000000000000000000000000000000000114": {
                "code": "0x600160015500",
                "balance": "0x0",
                "nonce": "0x0"
            },
            "0x2000000000000000000000000000000000000114": {
                "code": "0x5b61c3506080511015601c5760013b506001608051016080526000565b00",
                "balance": "0x0",
                "nonce": "0x0"
            },
            "0xa94f5374fce5edbc8e2a8697c15331677e6ebf0b": {
                "code": "0x",
                "balance": "0xe8d4a51000",
                "nonce": "0x0"
            },
            "0xb94f5374fce5edbc8e2a8697c15331677e6ebf0b": {
                "code": "0x6000356000526000600060206000731000000000000000000000000000000000000113620927c0fa600055600160015500",
                "balance": "0x0",
                "nonce": "0x0"
            }
        },
        "transaction": {
            "gasPrice": "0xa",
            "nonce": "0x0",
            "to": "0xb94f5374fce5edbc8e2a8697c15331677e6ebf0b",
            "data": [
                "0x0000000000000000000000001000000000000000000000000000000000000114",
                "0x0000000000000000000000002000000000000000000000000000000000000114"
            ],
            "gasLimit": [
                "0x27100"
            ],
            "value": [
                "0x00"
            ],
            "secretKey": "0x45a915e4d060149eb4365960e6a7a45f334393093061116b197e3240065ff2d8",
            "sender": "0xa94f5374fce5edbc8e2a8697c15331677e6ebf0b"
        },
        "post": {
            "ETC_Magneto": [
                {
                    "hash": "5f5a88b2ce4144d5a936dd537138c89745f85bac1eaa6f4107cc6dba6c758928",
                    "logs": "1dcc4de8dec75d7aab85b567b6ccd41ad312451b948a7413f0a142fd40d49347",
                    "txbytes": "0xf880800a8302710094b94f5374fce5edbc8e2a8697c15331677e6ebf0b80a000000000000000000000000010000000000000000000000000000000000001141ba09e0ccc5168e8ba993637a51d58ec6c9113354ced34db875ed9c41a9ae9cc0620a0446a35e42730e3d8bc2c4ef8a032de07e852decce8d6f6733b1da65c5c508737",
                    "indexes": {
                        "data": 0,
                        "gas": 0,
                        "value": 0
                    }
                },
                {
                    "hash": "5f5a88b2ce4144d5a936dd537138c89745f85bac1eaa6f4107cc6dba6c758928",
                    "logs": "1dcc4de8dec75d7aab85b567b6ccd41ad312451b948a7413f0a142fd40d49347",
                    "txbytes": "0xf880800a8302710094b94f5374fce5edbc8e2a8697c15331677e6ebf0b80a000000000000000000000000020000000000000000000000000000000000001141ba0981b2dea86a50c1832975b9bde9c2089568db844dba31c9e7a8dd236bbc20a84a0725ae70fff697a216e580ac032e8381167c1df3fb98fe683461c9d58b3a9d097",
                    "indexes": {
                        "data": 1,
                        "gas": 0,
                        "value": 0
                    }
                }
            ],
            "ETC_Mystique": [
                {
                    "hash": "5f5a88b2ce4144d5a936dd537138c89745f85bac1eaa6f4107cc6dba6c758928",
                    "logs": "1dcc4de8dec75d7aab85b567b6ccd41ad312451b948a7413f0a142fd40d49347",
                    "txbytes": "0xf880800a8302710094b94f5374fce5edbc8e2a8697c15331677e6ebf0b80a000000000000000000000000010000000000000000000000000000000000001141ba09e0ccc5168e8ba993637a51d58ec6c9113354ced34db875ed9c41a9ae9cc0620a0446a35e42730e3d8bc2c4ef8a032de07e852decce8d6f6733b1da65c5c508737",
                    "indexes": {
                        "data": 0,
                        "gas": 0,
                        "value": 0
                    }
                },
                {
                    "hash": "5f5a88b2ce4144d5a936dd537138c89745f85bac1eaa6f4107cc6dba6c758928",
                    "logs": "1dcc4de8dec75d7aab85b567b6ccd41ad312451b948a7413f0a142fd40d49347",
                    "txbytes": "0xf880800a8302710094b94f5374fce5edbc8e2a8697c15331677e6ebf0b80a000000000000000000000000020000000000000000000000000000000000001141ba0981b2dea86a50c1832975b9bde9c2089568db844dba31c9e7a8dd236bbc20a84a0725ae70fff697a216e580ac032e8381167c1df3fb98fe683461c9d58b3a9d097",
                    "indexes": {
                        "data": 1,
                        "gas": 0,
                        "value": 0
                    }
                }
            ],
            "ETC_Phoenix": [
                {
                    "hash": "5f5a88b2ce4144d5a936dd537138c89745f85bac1eaa6f4107cc6dba6c758928",
                    "logs": "1dcc4de8dec75d7aab85b567b6ccd41ad312451b948a7413f0a142fd40d49347",
                    "txbytes": "0xf880800a8302710094b94f5374fce5edbc8e2a8697c15331677e6ebf0b80a000000000000000000000000010000000000000000000000000000000000001141ba09e0ccc5168e8ba993637a51d58ec6c9113354ced34db875ed9c41a9ae9cc0620a0446a35e42730e3d8bc2c4ef8a032de07e852decce8d6f6733b1da65c5c508737",
                    "indexes": {
                        "data": 0,
                        "gas": 0,
                        "value": 0
                    }
                },
                {
                    "hash": "5f5a88b2ce4144d5a936dd537138c89745f85bac1eaa6f4107cc6dba6c758928",
                    "logs": "1dcc4de8dec75d7aab85b567b6ccd41ad312451b948a7413f0a142fd40d49347",
                    "txbytes": "0xf880800a8302710094b94f5374fce5edbc8e2a8697c15331677e6ebf0b80a000000000000000000000000020000000000000000000000000000000000001141ba0981b2dea86a50c1832975b9bde9c2089568db844dba31c9e7a8dd236bbc20a84a0725ae70fff697a216e580ac032e8381167c1df3fb98fe683461c9d58b3a9d097",
                    "indexes": {
                        "data": 1,
                        "gas": 0,
                        "value": 0
                    }
                }
            ]
        }
    }
}