{
    "static_callcallcodecall_010_OOGE": {
        "_info": {
            "comment": "",
            "filling-rpc-server": "evm version 1.10.16-unstable-0f893109-20220105",
            "filling-tool-version": "retesteth-0.2.2-testinfo+commit.01c6aac2.Linux.g++",
            "filledWith": "CoreGeth-1.12.9-unstable-ab16c56768f0284ab56a30aac9550d3ebdc45901",
            "lllcversion": "Version: 0.5.14-develop.2021.11.27+commit.401d5358.Linux.g++",
            "source": "src/GeneralStateTestsFiller/stStaticCall/static_callcallcodecall_010_OOGEFiller.json",
            "sourceHash": "fee988be61f9ea614e3b6c9d0085584ee5b82e86daa49ab2cbdda0013c024aca"
        },
        "env": {
            "currentCoinbase": "0x2adc25665018aa1fe0e6bc666dac8fc2697ff9ba",
            "currentDifficulty": "0x20000",
            "currentGasLimit": "0x1c9c380",
            "currentNumber": "0x1",
            "currentTimestamp": "0x3e8",
            "currentBaseFee": "0xa",
            "previousHash": "0x5e20a0453cecd065ea59c37ac63e079ee08998b6045136a8ce6635c7912ec0b6"
        },
        "pre": {
            "0x1000000000000000000000000000000000000000": {
                "code": "0x60003560005260406000604060007310000000000000000000000000000000000000016207a120fa600055600160015500",
                "balance": "0xde0b6b3a7640000"
            },
            "0x1000000000000000000000000000000000000001": {
                "code": "0x6040600060406000600035620493e0f450600160015200",
                "balance": "0x0"
            },
            "0x1000000000000000000000000000000000000002": {
                "code": "0x60406000604060007310000000000000000000000000000000000000036201d4d4fa505b61c3506080511015603f5760013b506001608051016080526023565b00",
                "balance": "0x0"
            },
            "0x1000000000000000000000000000000000000003": {
                "code": "0x600160035200",
                "balance": "0x0"
            },
            "0x2000000000000000000000000000000000000002": {
                "code": "0x60406000604060007310000000000000000000000000000000000000036201d4d4fa50600160015500",
                "balance": "0x0"
            },
            "0xa94f5374fce5edbc8e2a8697c15331677e6ebf0b": {
                "balance": "0xde0b6b3a7640000"
            }
        },
        "transaction": {
            "gasPrice": "0xa",
            "nonce": "0x0",
            "to": "0x1000000000000000000000000000000000000000",
            "data": [
                "0x0000000000000000000000001000000000000000000000000000000000000002",
                "0x0000000000000000000000002000000000000000000000000000000000000002"
            ],
            "gasLimit": [
                "0x1a3ec0"
            ],
            "value": [
                "0x00"
            ],
            "secretKey": "0x45a915e4d060149eb4365960e6a7a45f334393093061116b197e3240065ff2d8",
            "sender": "0xa94f5374fce5edbc8e2a8697c15331677e6ebf0b"
        },
        "post": {
            "ETC_Magneto": [
                {
                    "hash": "4e98e207c1aecaedba16e03ee5c620b81b653162046da66727da6c9bae44e2fa",
                    "logs": "1dcc4de8dec75d7aab85b567b6ccd41ad312451b948a7413f0a142fd40d49347",
                    "txbytes": "0xf880800a831a3ec094100000000000000000000000000000000000000080a000000000000000000000000010000000000000000000000000000000000000021ba00135d39dda0a616faf53a126ba46f7b8de35ece789300313c2905634fe943b8fa008302200c9b0aae97b5299edb9bea9b45fe5a6625c95d092aa3ff13b8a97be92",
                    "indexes": {
                        "data": 0,
                        "gas": 0,
                        "value": 0
                    }
                },
                {
                    "hash": "4e98e207c1aecaedba16e03ee5c620b81b653162046da66727da6c9bae44e2fa",
                    "logs": "1dcc4de8dec75d7aab85b567b6ccd41ad312451b948a7413f0a142fd40d49347",
                    "txbytes": "0xf880800a831a3ec094100000000000000000000000000000000000000080a000000000000000000000000020000000000000000000000000000000000000021ba0813d06989d9966041adced4c3d8002fe81c97c51029f680e9a73e8cd7a5ce140a042b031d211c2af75a61a94ef107e12b9facaf68eb8fd415a6da2007df9e7710d",
                    "indexes": {
                        "data": 1,
                        "gas": 0,
                        "value": 0
                    }
                }
            ],
            "ETC_Mystique": [
                {
                    "hash": "4e98e207c1aecaedba16e03ee5c620b81b653162046da66727da6c9bae44e2fa",
                    "logs": "1dcc4de8dec75d7aab85b567b6ccd41ad312451b948a7413f0a142fd40d49347",
                    "txbytes": "0xf880800a831a3ec094100000000000000000000000000000000000000080a000000000000000000000000010000000000000000000000000000000000000021ba00135d39dda0a616faf53a126ba46f7b8de35ece789300313c2905634fe943b8fa008302200c9b0aae97b5299edb9bea9b45fe5a6625c95d092aa3ff13b8a97be92",
                    "indexes": {
                        "data": 0,
                        "gas": 0,
                        "value": 0
                    }
                },
                {
                    "hash": "4e98e207c1aecaedba16e03ee5c620b81b653162046da66727da6c9bae44e2fa",
                    "logs": "1dcc4de8dec75d7aab85b567b6ccd41ad312451b948a7413f0a142fd40d49347",
                    "txbytes": "0xf880800a831a3ec094100000000000000000000000000000000000000080a000000000000000000000000020000000000000000000000000000000000000021ba0813d06989d9966041adced4c3d8002fe81c97c51029f680e9a73e8cd7a5ce140a042b031d211c2af75a61a94ef107e12b9facaf68eb8fd415a6da2007df9e7710d",
                    "indexes": {
                        "data": 1,
                        "gas": 0,
                        "value": 0
                    }
                }
            ],
            "ETC_Phoenix": [
                {
                    "hash": "328b6b5a00391eefcc13c9642b3a93d9f0b2954313c363aae3c0a7be57a0dfb3",
                    "logs": "1dcc4de8dec75d7aab85b567b6ccd41ad312451b948a7413f0a142fd40d49347",
                    "txbytes": "0xf880800a831a3ec094100000000000000000000000000000000000000080a000000000000000000000000010000000000000000000000000000000000000021ba00135d39dda0a616faf53a126ba46f7b8de35ece789300313c2905634fe943b8fa008302200c9b0aae97b5299edb9bea9b45fe5a6625c95d092aa3ff13b8a97be92",
                    "indexes": {
                        "data": 0,
                        "gas": 0,
                        "value": 0
                    }
                },
                {
                    "hash": "328b6b5a00391eefcc13c9642b3a93d9f0b2954313c363aae3c0a7be57a0dfb3",
                    "logs": "1dcc4de8dec75d7aab85b567b6ccd41ad312451b948a7413f0a142fd40d49347",
                    "txbytes": "0xf880800a831a3ec094100000000000000000000000000000000000000080a000000000000000000000000020000000000000000000000000000000000000021ba0813d06989d9966041adced4c3d8002fe81c97c51029f680e9a73e8cd7a5ce140a042b031d211c2af75a61a94ef107e12b9facaf68eb8fd415a6da2007df9e7710d",
                    "indexes": {
                        "data": 1,
                        "gas": 0,
                        "value": 0
                    }
                }
            ]
        }
    }
}