{
    "static_ABAcalls1": {
        "_info": {
            "comment": "",
            "filling-rpc-server": "evm version 1.10.16-unstable-0f893109-20220105",
            "filling-tool-version": "retesteth-0.2.2-testinfo+commit.01c6aac2.Linux.g++",
            "filledWith": "CoreGeth-1.12.9-unstable-4d59a861107c8232d6896811c48f229d30087be4",
            "lllcversion": "Version: 0.5.14-develop.2021.11.27+commit.401d5358.Linux.g++",
            "source": "src/GeneralStateTestsFiller/stStaticCall/static_ABAcalls1Filler.json",
            "sourceHash": "96d1fdf4c4e690c976443bec07107b62255cc1e267869a80b401bd6cb1e3125b"
        },
        "env": {
            "currentCoinbase": "0x2adc25665018aa1fe0e6bc666dac8fc2697ff9ba",
            "currentDifficulty": "0x20000",
            "currentGasLimit": "0x2540be400",
            "currentNumber": "0x1",
            "currentTimestamp": "0x3e8",
            "currentBaseFee": "0xa",
            "previousHash": "0x5e20a0453cecd065ea59c37ac63e079ee08998b6045136a8ce6635c7912ec0b6"
        },
        "pre": {
            "0x095e7baea6a6c7c4c2dfeb977efac326af552d87": {
                "code": "0x600060006000600073945304eb96065b2a98b57a48a06ae28d285a71b5620186a05a03fa585500",
                "balance": "0xde0b6b3a7640000"
            },
            "0x1000000000000000000000000000000000000000": {
                "code": "0x600060006000600060006000355af1600055600160015500",
                "balance": "0xde0b6b3a7640000"
            },
            "0x195e7baea6a6c7c4c2dfeb977efac326af552d87": {
                "code": "0x58600152600060006000600073245304eb96065b2a98b57a48a06ae28d285a71b5620186a05a03fa00",
                "balance": "0xde0b6b3a7640000"
            },
            "0x245304eb96065b2a98b57a48a06ae28d285a71b5": {
                "code": "0x600060006000600073195e7baea6a6c7c4c2dfeb977efac326af552d87620186a05a03fa600101585200",
                "balance": "0x17"
            },
            "0x945304eb96065b2a98b57a48a06ae28d285a71b5": {
                "code": "0x600060006000600073095e7baea6a6c7c4c2dfeb977efac326af552d87620186a05a03fa600101585500",
                "balance": "0x17"
            },
            "0xa94f5374fce5edbc8e2a8697c15331677e6ebf0b": {
                "balance": "0xde0b6b3a7640000"
            }
        },
        "transaction": {
            "gasPrice": "0xa",
            "nonce": "0x0",
            "to": "0x1000000000000000000000000000000000000000",
            "data": [
                "0x000000000000000000000000095e7baea6a6c7c4c2dfeb977efac326af552d87",
                "0x000000000000000000000000195e7baea6a6c7c4c2dfeb977efac326af552d87"
            ],
            "gasLimit": [
                "0x3b9aca00"
            ],
            "value": [
                "0x0186a0"
            ],
            "secretKey": "0x45a915e4d060149eb4365960e6a7a45f334393093061116b197e3240065ff2d8",
            "sender": "0xa94f5374fce5edbc8e2a8697c15331677e6ebf0b"
        },
        "post": {
            "ETC_Magneto": [
                {
                    "hash": "99258986b9e89adc6832627252b793b0f463663d4455e9eb7f5837286581be4a",
                    "logs": "1dcc4de8dec75d7aab85b567b6ccd41ad312451b948a7413f0a142fd40d49347",
                    "txbytes": "0xf884800a843b9aca00941000000000000000000000000000000000000000830186a0a0000000000000000000000000095e7baea6a6c7c4c2dfeb977efac326af552d871ca046cf5c6fe3298c3c375aef028e0d5f245612f9517a8300141a93dfd91a61a320a00216f56b453c91113013624ae75897d5d9f89606e4ca93e6d7ee877fca3253cb",
                    "indexes": {
                        "data": 0,
                        "gas": 0,
                        "value": 0
                    }
                },
                {
                    "hash": "08dfc1f6ce290875ed00f58ced3ba7a144eb53f6082f382b15a32a80b1f83f04",
                    "logs": "1dcc4de8dec75d7aab85b567b6ccd41ad312451b948a7413f0a142fd40d49347",
                    "txbytes": "0xf884800a843b9aca00941000000000000000000000000000000000000000830186a0a0000000000000000000000000195e7baea6a6c7c4c2dfeb977efac326af552d871ca043346bdb06f0488afb597431dbd8d3b8b06cfeb312b175cbdd88ca63d470588ea04b9bf3dd640d0eb103c0daa1942423c681833e95308af2ac2906834b47fd66f9",
                    "indexes": {
                        "data": 1,
                        "gas": 0,
                        "value": 0
                    }
                }
            ],
            "ETC_Mystique": [
                {
                    "hash": "99258986b9e89adc6832627252b793b0f463663d4455e9eb7f5837286581be4a",
                    "logs": "1dcc4de8dec75d7aab85b567b6ccd41ad312451b948a7413f0a142fd40d49347",
                    "txbytes": "0xf884800a843b9aca00941000000000000000000000000000000000000000830186a0a0000000000000000000000000095e7baea6a6c7c4c2dfeb977efac326af552d871ca046cf5c6fe3298c3c375aef028e0d5f245612f9517a8300141a93dfd91a61a320a00216f56b453c91113013624ae75897d5d9f89606e4ca93e6d7ee877fca3253cb",
                    "indexes": {
                        "data": 0,
                        "gas": 0,
                        "value": 0
                    }
                },
                {
                    "hash": "08dfc1f6ce290875ed00f58ced3ba7a144eb53f6082f382b15a32a80b1f83f04",
                    "logs": "1dcc4de8dec75d7aab85b567b6ccd41ad312451b948a7413f0a142fd40d49347",
                    "txbytes": "0xf884800a843b9aca00941000000000000000000000000000000000000000830186a0a0000000000000000000000000195e7baea6a6c7c4c2dfeb977efac326af552d871ca043346bdb06f0488afb597431dbd8d3b8b06cfeb312b175cbdd88ca63d470588ea04b9bf3dd640d0eb103c0daa1942423c681833e95308af2ac2906834b47fd66f9",
                    "indexes": {
                        "data": 1,
                        "gas": 0,
                        "value": 0
                    }
                }
            ],
            "ETC_Phoenix": [
                {
                    "hash": "fc3fa3a6562012b07e0b72b49afd7781c993fa8479cddcde31342f512142c3fd",
                    "logs": "1dcc4de8dec75d7aab85b567b6ccd41ad312451b948a7413f0a142fd40d49347",
                    "txbytes": "0xf884800a843b9aca00941000000000000000000000000000000000000000830186a0a0000000000000000000000000095e7baea6a6c7c4c2dfeb977efac326af552d871ca046cf5c6fe3298c3c375aef028e0d5f245612f9517a8300141a93dfd91a61a320a00216f56b453c91113013624ae75897d5d9f89606e4ca93e6d7ee877fca3253cb",
                    "indexes": {
                        "data": 0,
                        "gas": 0,
                        "value": 0
                    }
                },
                {
                    "hash": "81daec01a7bd97c4b83b05658d531e0bf611d8e69800a565ec091f0a63142fe8",
                    "logs": "1dcc4de8dec75d7aab85b567b6ccd41ad312451b948a7413f0a142fd40d49347",
                    "txbytes": "0xf884800a843b9aca00941000000000000000000000000000000000000000830186a0a0000000000000000000000000195e7baea6a6c7c4c2dfeb977efac326af552d871ca043346bdb06f0488afb597431dbd8d3b8b06cfeb312b175cbdd88ca63d470588ea04b9bf3dd640d0eb103c0daa1942423c681833e95308af2ac2906834b47fd66f9",
                    "indexes": {
                        "data": 1,
                        "gas": 0,
                        "value": 0
                    }
                }
            ]
        }
    }
}