{
    "static_CheckOpcodes3": {
        "_info": {
            "comment": "",
            "filling-rpc-server": "evm version 1.10.16-unstable-0f893109-20220105",
            "filling-tool-version": "retesteth-0.2.2-testinfo+commit.01c6aac2.Linux.g++",
            "filledWith": "CoreGeth-1.12.9-unstable-f4059ddd82d975bdc54fa648e5422a80172161cb",
            "lllcversion": "Version: 0.5.14-develop.2021.11.27+commit.401d5358.Linux.g++",
            "source": "src/GeneralStateTestsFiller/stStaticCall/static_CheckOpcodes3Filler.json",
            "sourceHash": "e770d76c8b78fffe75972ce40b9b0a6167a1a6a02e1d43e303bc502ad6cea3b6"
        },
        "env": {
            "currentCoinbase": "2adc25665018aa1fe0e6bc666dac8fc2697ff9ba",
            "currentDifficulty": "0x20000",
            "currentRandom": null,
            "currentGasLimit": "0x989680",
            "currentNumber": "0x1",
            "currentTimestamp": "0x3e8",
            "currentBaseFee": "0xa"
        },
        "pre": {
            "0x1000000000000000000000000000000000000000": {
                "code": "0x6000600060006000600035620186a0fa60015500",
                "balance": "0x0"
            },
            "0x1000000000000000000000000000000000000001": {
                "code": "0x73a1000000000000000000000000000000000000016000526000600060206000600073b000000000000000000000000000000000000001620186a0f160005260005160011460505760026001556056565b60016001525b00",
                "balance": "0xa"
            },
            "0x2000000000000000000000000000000000000001": {
                "code": "0x73a1000000000000000000000000000000000000016000526000600060206000600173b000000000000000000000000000000000000001620186a0f16000526001600152600160025200",
                "balance": "0xa"
            },
            "0x3000000000000000000000000000000000000001": {
                "code": "0x73a3000000000000000000000000000000000000016020526000600060406020600073b000000000000000000000000000000000000001620186a0f260005260005160011460505760026001556056565b60016001525b00",
                "balance": "0xa"
            },
            "0x4000000000000000000000000000000000000001": {
                "code": "0x73a4000000000000000000000000000000000000016000526000600060206000600173b000000000000000000000000000000000000001620186a0f260005260005160011460505760026001556056565b60016001525b00",
                "balance": "0xa"
            },
            "0x5000000000000000000000000000000000000001": {
                "code": "0x73a500000000000000000000000000000000000001600052600060006020600073b000000000000000000000000000000000000001620186a0f4600052600051600114604e5760026001556054565b60016001525b00",
                "balance": "0xa"
            },
            "0xa100000000000000000000000000000000000001": {
                "code": "0x3273a94f5374fce5edbc8e2a8697c15331677e6ebf0b1460225760026001556028565b60016001525b3373b00000000000000000000000000000000000000114604b5760026001556051565b60016001525b3073a100000000000000000000000000000000000001146074576002600155607a565b60016001525b34600014608a5760026001556090565b60016001525b00",
                "balance": "0x0"
            },
            "0xa200000000000000000000000000000000000001": {
                "code": "0x3273a94f5374fce5edbc8e2a8697c15331677e6ebf0b1460225760026001556028565b60016001525b3373200000000000000000000000000000000000000114604b5760026001556051565b60016001525b3073a200000000000000000000000000000000000001146074576002600155607a565b60016001525b34600114608a5760026001556090565b60016001525b00",
                "balance": "0x0"
            },
            "0xa300000000000000000000000000000000000001": {
                "code": "0x3273a94f5374fce5edbc8e2a8697c15331677e6ebf0b1460225760026001556028565b60016001525b3373300000000000000000000000000000000000000114604b5760026001556051565b60016001525b3073a300000000000000000000000000000000000001146074576002600155607a565b60016001525b34600014608a5760026001556090565b60016001525b00",
                "balance": "0x0"
            },
            "0xa400000000000000000000000000000000000001": {
                "code": "0x3273a94f5374fce5edbc8e2a8697c15331677e6ebf0b1460225760026001556028565b60016001525b3373400000000000000000000000000000000000000114604b5760026001556051565b60016001525b3073a400000000000000000000000000000000000001146074576002600155607a565b60016001525b34600014608a5760026001556090565b60016001525b00",
                "balance": "0x0"
            },
            "0xa500000000000000000000000000000000000001": {
                "code": "0x3273a94f5374fce5edbc8e2a8697c15331677e6ebf0b1460225760026001556028565b60016001525b3373500000000000000000000000000000000000000114604b5760026001556051565b60016001525b3073a500000000000000000000000000000000000001146074576002600155607a565b60016001525b34600014608a5760026001556090565b60016001525b00",
                "balance": "0x0"
            },
            "0xa94f5374fce5edbc8e2a8697c15331677e6ebf0b": {
                "balance": "0xe8d4a51000"
            },
            "0xb000000000000000000000000000000000000001": {
                "code": "0x6000600060006000600035620186a0fa6000526000516001146024576002600155602a565b60016001525b00",
                "balance": "0x0"
            }
        },
        "transaction": {
            "gasPrice": "0xa",
            "maxFeePerGas": null,
            "maxPriorityFeePerGas": null,
            "nonce": "0x0",
            "to": "0x1000000000000000000000000000000000000000",
            "data": [
                "0x0000000000000000000000001000000000000000000000000000000000000001",
                "0x0000000000000000000000002000000000000000000000000000000000000001",
                "0x0000000000000000000000003000000000000000000000000000000000000001",
                "0x0000000000000000000000004000000000000000000000000000000000000001",
                "0x0000000000000000000000005000000000000000000000000000000000000001"
            ],
            "gasLimit": [
                "0x51c98"
            ],
            "value": [
                "0x00",
                "0x64"
            ],
            "secretKey": "0x45a915e4d060149eb4365960e6a7a45f334393093061116b197e3240065ff2d8"
        },
        "out": "0x",
        "post": {
            "ETC_Magneto": [
                {
                    "hash": "01076d63de99a1d72bed8c0031fededd56e9c28316947424794c3c08a3db1e81",
                    "logs": "1dcc4de8dec75d7aab85b567b6ccd41ad312451b948a7413f0a142fd40d49347",
                    "txbytes": "0xf880800a83051c9894100000000000000000000000000000000000000080a000000000000000000000000010000000000000000000000000000000000000011ca04a3f429fcd0277a0f1ef5c4931ec78c08c652bed01d2f35852f8ee017308131fa042345097a1d3131559e4f4c2f533826f44b03ae8328ea46790867a3e1bc72c55",
                    "indexes": {
                        "data": 0,
                        "gas": 0,
                        "value": 0
                    }
                },
                {
                    "hash": "7d89d2f9fb3d4afaf9122c3bf257fcc673ba3dc8f31215365827cfa4bfa80648",
                    "logs": "1dcc4de8dec75d7aab85b567b6ccd41ad312451b948a7413f0a142fd40d49347",
                    "txbytes": "0xf880800a83051c9894100000000000000000000000000000000000000064a000000000000000000000000010000000000000000000000000000000000000011ba0861bbbf3944ba5d6363326fa71e9f2a9a18642011d2826a5b62e0aeb2073ac1ba00cf5ad0ec7bbf0779203bfd2703d254432fac642f2aedab16958a3f46b2a781a",
                    "indexes": {
                        "data": 0,
                        "gas": 0,
                        "value": 1
                    }
                },
                {
                    "hash": "ed016e423e2b6d5e66cbec31cd6a2ab956aead1ed885d2392447e6b1583394bc",
                    "logs": "1dcc4de8dec75d7aab85b567b6ccd41ad312451b948a7413f0a142fd40d49347",
                    "txbytes": "0xf880800a83051c9894100000000000000000000000000000000000000080a000000000000000000000000030000000000000000000000000000000000000011ba01f08cfd670f24de23648a701c8c8279a01afba9ce0dcba460b2c44ad0341d48da06df490de0634cb39d61337b507656f843620d96db7adf145d4bc6e3c3aedd906",
                    "indexes": {
                        "data": 2,
                        "gas": 0,
                        "value": 0
                    }
                },
                {
                    "hash": "f596ecbf1b96203f61d93a1de40ca21a3baf4684868e07eaf57c596364f9b620",
                    "logs": "1dcc4de8dec75d7aab85b567b6ccd41ad312451b948a7413f0a142fd40d49347",
                    "txbytes": "0xf880800a83051c9894100000000000000000000000000000000000000064a000000000000000000000000030000000000000000000000000000000000000011ba04a0fa3a5308cf43770f27151e77f84d282694bb8f7e7f891bb46aae4dcad2dfda06bb069a54b0cd0979e7b25241b6b8b3bae9b0fd9353b8200ed4fbd8c0c2258d6",
                    "indexes": {
                        "data": 2,
                        "gas": 0,
                        "value": 1
                    }
                },
                {
                    "hash": "342adc06b1128d2514564b059f3d591f1988788d8da9cb718827bf5f90b65565",
                    "logs": "1dcc4de8dec75d7aab85b567b6ccd41ad312451b948a7413f0a142fd40d49347",
                    "txbytes": "0xf880800a83051c9894100000000000000000000000000000000000000080a000000000000000000000000040000000000000000000000000000000000000011ba0142345b4b42112def12fe6c6048f5d1c10c2ea6ac886e80b390a4c837c893839a01d618ca015abd09841542496e6443465ed926645c2e3d8e9727c2018cf5190a7",
                    "indexes": {
                        "data": 3,
                        "gas": 0,
                        "value": 0
                    }
                },
                {
                    "hash": "fb9babe517794529493e92d21fe4e12b28de8b1f7174c3e5558ab2433a2577dd",
                    "logs": "1dcc4de8dec75d7aab85b567b6ccd41ad312451b948a7413f0a142fd40d49347",
                    "txbytes": "0xf880800a83051c9894100000000000000000000000000000000000000064a000000000000000000000000040000000000000000000000000000000000000011ca0a1678aeb2fd208b0f6a014ca3b9878ea61dd790ca712eae0e62936aaea24ae81a0483da10f2fa1266b2b160eb39d9f5169abd1171630b248df1b76d2f6e951d508",
                    "indexes": {
                        "data": 3,
                        "gas": 0,
                        "value": 1
                    }
                },
                {
                    "hash": "a6ff9f082efea30bfb11c2f3458b16ee93aeb35e742c4000d1695a4794314be0",
                    "logs": "1dcc4de8dec75d7aab85b567b6ccd41ad312451b948a7413f0a142fd40d49347",
                    "txbytes": "0xf880800a83051c9894100000000000000000000000000000000000000080a000000000000000000000000050000000000000000000000000000000000000011ba02416ec592644e6b766e889be391dc08d4673a76b35448fa1f8fd222372dc5a4ea01ff3272ca0aed9e8a9968cae53c4900ba598f264e5d7d0c8b27b406cee5860c7",
                    "indexes": {
                        "data": 4,
                        "gas": 0,
                        "value": 0
                    }
                },
                {
                    "hash": "21fb9fd499d093f8d0bbbe767bcb9dcea36c04c2f45bb6dcc2f4448335f49feb",
                    "logs": "1dcc4de8dec75d7aab85b567b6ccd41ad312451b948a7413f0a142fd40d49347",
                    "txbytes": "0xf880800a83051c9894100000000000000000000000000000000000000064a000000000000000000000000050000000000000000000000000000000000000011ca0756b93cbbaeed76072f6d01eb844882cb2acca947784a6c2b3e24710a636bb9da03987bd279210b9179692f1c28cf971801de3ebf59b5043aa3fa8beb103d19647",
                    "indexes": {
                        "data": 4,
                        "gas": 0,
                        "value": 1
                    }
                },
                {
                    "hash": "929099d8778ac47822ab446a2f11044b70d4c30bed4227c3bfadec219caabbaa",
                    "logs": "1dcc4de8dec75d7aab85b567b6ccd41ad312451b948a7413f0a142fd40d49347",
                    "txbytes": "0xf880800a83051c9894100000000000000000000000000000000000000080a000000000000000000000000020000000000000000000000000000000000000011ca04e2e63a9929b38875b448be8e2a475781cc67e554ee4578a28df0895c46c8bb0a04a7c671d0e8f0ac6195d59390a679a6b87f2cf1f687d08bb2f71a5027e5cf20c",
                    "indexes": {
                        "data": 1,
                        "gas": 0,
                        "value": 0
                    }
                },
                {
                    "hash": "b4e6bea4c58ed228d9234d07cef2a173163aeccebec4b1628ee79f318cd53878",
                    "logs": "1dcc4de8dec75d7aab85b567b6ccd41ad312451b948a7413f0a142fd40d49347",
                    "txbytes": "0xf880800a83051c9894100000000000000000000000000000000000000064a000000000000000000000000020000000000000000000000000000000000000011ca04087076b3a23a6b523381e41e9aebc4ccf47c08151ad9c25325e1b2346af8b5ba0475b98aa14ef2157a1e5c5e9290476ac1a3e559da5b04b829dc2f0106f00a0a8",
                    "indexes": {
                        "data": 1,
                        "gas": 0,
                        "value": 1
                    }
                }
            ],
            "ETC_Mystique": [
                {
                    "hash": "01076d63de99a1d72bed8c0031fededd56e9c28316947424794c3c08a3db1e81",
                    "logs": "1dcc4de8dec75d7aab85b567b6ccd41ad312451b948a7413f0a142fd40d49347",
                    "txbytes": "0xf880800a83051c9894100000000000000000000000000000000000000080a000000000000000000000000010000000000000000000000000000000000000011ca04a3f429fcd0277a0f1ef5c4931ec78c08c652bed01d2f35852f8ee017308131fa042345097a1d3131559e4f4c2f533826f44b03ae8328ea46790867a3e1bc72c55",
                    "indexes": {
                        "data": 0,
                        "gas": 0,
                        "value": 0
                    }
                },
                {
                    "hash": "7d89d2f9fb3d4afaf9122c3bf257fcc673ba3dc8f31215365827cfa4bfa80648",
                    "logs": "1dcc4de8dec75d7aab85b567b6ccd41ad312451b948a7413f0a142fd40d49347",
                    "txbytes": "0xf880800a83051c9894100000000000000000000000000000000000000064a000000000000000000000000010000000000000000000000000000000000000011ba0861bbbf3944ba5d6363326fa71e9f2a9a18642011d2826a5b62e0aeb2073ac1ba00cf5ad0ec7bbf0779203bfd2703d254432fac642f2aedab16958a3f46b2a781a",
                    "indexes": {
                        "data": 0,
                        "gas": 0,
                        "value": 1
                    }
                },
                {
                    "hash": "ed016e423e2b6d5e66cbec31cd6a2ab956aead1ed885d2392447e6b1583394bc",
                    "logs": "1dcc4de8dec75d7aab85b567b6ccd41ad312451b948a7413f0a142fd40d49347",
                    "txbytes": "0xf880800a83051c9894100000000000000000000000000000000000000080a000000000000000000000000030000000000000000000000000000000000000011ba01f08cfd670f24de23648a701c8c8279a01afba9ce0dcba460b2c44ad0341d48da06df490de0634cb39d61337b507656f843620d96db7adf145d4bc6e3c3aedd906",
                    "indexes": {
                        "data": 2,
                        "gas": 0,
                        "value": 0
                    }
                },
                {
                    "hash": "f596ecbf1b96203f61d93a1de40ca21a3baf4684868e07eaf57c596364f9b620",
                    "logs": "1dcc4de8dec75d7aab85b567b6ccd41ad312451b948a7413f0a142fd40d49347",
                    "txbytes": "0xf880800a83051c9894100000000000000000000000000000000000000064a000000000000000000000000030000000000000000000000000000000000000011ba04a0fa3a5308cf43770f27151e77f84d282694bb8f7e7f891bb46aae4dcad2dfda06bb069a54b0cd0979e7b25241b6b8b3bae9b0fd9353b8200ed4fbd8c0c2258d6",
                    "indexes": {
                        "data": 2,
                        "gas": 0,
                        "value": 1
                    }
                },
                {
                    "hash": "342adc06b1128d2514564b059f3d591f1988788d8da9cb718827bf5f90b65565",
                    "logs": "1dcc4de8dec75d7aab85b567b6ccd41ad312451b948a7413f0a142fd40d49347",
                    "txbytes": "0xf880800a83051c9894100000000000000000000000000000000000000080a000000000000000000000000040000000000000000000000000000000000000011ba0142345b4b42112def12fe6c6048f5d1c10c2ea6ac886e80b390a4c837c893839a01d618ca015abd09841542496e6443465ed926645c2e3d8e9727c2018cf5190a7",
                    "indexes": {
                        "data": 3,
                        "gas": 0,
                        "value": 0
                    }
                },
                {
                    "hash": "fb9babe517794529493e92d21fe4e12b28de8b1f7174c3e5558ab2433a2577dd",
                    "logs": "1dcc4de8dec75d7aab85b567b6ccd41ad312451b948a7413f0a142fd40d49347",
                    "txbytes": "0xf880800a83051c9894100000000000000000000000000000000000000064a000000000000000000000000040000000000000000000000000000000000000011ca0a1678aeb2fd208b0f6a014ca3b9878ea61dd790ca712eae0e62936aaea24ae81a0483da10f2fa1266b2b160eb39d9f5169abd1171630b248df1b76d2f6e951d508",
                    "indexes": {
                        "data": 3,
                        "gas": 0,
                        "value": 1
                    }
                },
                {
                    "hash": "a6ff9f082efea30bfb11c2f3458b16ee93aeb35e742c4000d1695a4794314be0",
                    "logs": "1dcc4de8dec75d7aab85b567b6ccd41ad312451b948a7413f0a142fd40d49347",
                    "txbytes": "0xf880800a83051c9894100000000000000000000000000000000000000080a000000000000000000000000050000000000000000000000000000000000000011ba02416ec592644e6b766e889be391dc08d4673a76b35448fa1f8fd222372dc5a4ea01ff3272ca0aed9e8a9968cae53c4900ba598f264e5d7d0c8b27b406cee5860c7",
                    "indexes": {
                        "data": 4,
                        "gas": 0,
                        "value": 0
                    }
                },
                {
                    "hash": "21fb9fd499d093f8d0bbbe767bcb9dcea36c04c2f45bb6dcc2f4448335f49feb",
                    "logs": "1dcc4de8dec75d7aab85b567b6ccd41ad312451b948a7413f0a142fd40d49347",
                    "txbytes": "0xf880800a83051c9894100000000000000000000000000000000000000064a000000000000000000000000050000000000000000000000000000000000000011ca0756b93cbbaeed76072f6d01eb844882cb2acca947784a6c2b3e24710a636bb9da03987bd279210b9179692f1c28cf971801de3ebf59b5043aa3fa8beb103d19647",
                    "indexes": {
                        "data": 4,
                        "gas": 0,
                        "value": 1
                    }
                },
                {
                    "hash": "929099d8778ac47822ab446a2f11044b70d4c30bed4227c3bfadec219caabbaa",
                    "logs": "1dcc4de8dec75d7aab85b567b6ccd41ad312451b948a7413f0a142fd40d49347",
                    "txbytes": "0xf880800a83051c9894100000000000000000000000000000000000000080a000000000000000000000000020000000000000000000000000000000000000011ca04e2e63a9929b38875b448be8e2a475781cc67e554ee4578a28df0895c46c8bb0a04a7c671d0e8f0ac6195d59390a679a6b87f2cf1f687d08bb2f71a5027e5cf20c",
                    "indexes": {
                        "data": 1,
                        "gas": 0,
                        "value": 0
                    }
                },
                {
                    "hash": "b4e6bea4c58ed228d9234d07cef2a173163aeccebec4b1628ee79f318cd53878",
                    "logs": "1dcc4de8dec75d7aab85b567b6ccd41ad312451b948a7413f0a142fd40d49347",
                    "txbytes": "0xf880800a83051c9894100000000000000000000000000000000000000064a000000000000000000000000020000000000000000000000000000000000000011ca04087076b3a23a6b523381e41e9aebc4ccf47c08151ad9c25325e1b2346af8b5ba0475b98aa14ef2157a1e5c5e9290476ac1a3e559da5b04b829dc2f0106f00a0a8",
                    "indexes": {
                        "data": 1,
                        "gas": 0,
                        "value": 1
                    }
                }
            ],
            "ETC_Phoenix": [
                {
                    "hash": "9fcc380d33eea87e4befa28136a14d902e2de1e1bb41061e0c4547365116e3c0",
                    "logs": "1dcc4de8dec75d7aab85b567b6ccd41ad312451b948a7413f0a142fd40d49347",
                    "txbytes": "0xf880800a83051c9894100000000000000000000000000000000000000080a000000000000000000000000010000000000000000000000000000000000000011ca04a3f429fcd0277a0f1ef5c4931ec78c08c652bed01d2f35852f8ee017308131fa042345097a1d3131559e4f4c2f533826f44b03ae8328ea46790867a3e1bc72c55",
                    "indexes": {
                        "data": 0,
                        "gas": 0,
                        "value": 0
                    }
                },
                {
                    "hash": "0ecb94930a7a71e75c75233b93c6876d1e28de532bdf24dc840a0f573f7c91bf",
                    "logs": "1dcc4de8dec75d7aab85b567b6ccd41ad312451b948a7413f0a142fd40d49347",
                    "txbytes": "0xf880800a83051c9894100000000000000000000000000000000000000064a000000000000000000000000010000000000000000000000000000000000000011ba0861bbbf3944ba5d6363326fa71e9f2a9a18642011d2826a5b62e0aeb2073ac1ba00cf5ad0ec7bbf0779203bfd2703d254432fac642f2aedab16958a3f46b2a781a",
                    "indexes": {
                        "data": 0,
                        "gas": 0,
                        "value": 1
                    }
                },
                {
                    "hash": "2ce13ef4b29600333a14799239e59c270f636836c80ec5d36c607d59d8756a96",
                    "logs": "1dcc4de8dec75d7aab85b567b6ccd41ad312451b948a7413f0a142fd40d49347",
                    "txbytes": "0xf880800a83051c9894100000000000000000000000000000000000000080a000000000000000000000000030000000000000000000000000000000000000011ba01f08cfd670f24de23648a701c8c8279a01afba9ce0dcba460b2c44ad0341d48da06df490de0634cb39d61337b507656f843620d96db7adf145d4bc6e3c3aedd906",
                    "indexes": {
                        "data": 2,
                        "gas": 0,
                        "value": 0
                    }
                },
                {
                    "hash": "3d02a287e91ab1753e792d007fbb6687186b10794ec17dfc70ddb406a345a659",
                    "logs": "1dcc4de8dec75d7aab85b567b6ccd41ad312451b948a7413f0a142fd40d49347",
                    "txbytes": "0xf880800a83051c9894100000000000000000000000000000000000000064a000000000000000000000000030000000000000000000000000000000000000011ba04a0fa3a5308cf43770f27151e77f84d282694bb8f7e7f891bb46aae4dcad2dfda06bb069a54b0cd0979e7b25241b6b8b3bae9b0fd9353b8200ed4fbd8c0c2258d6",
                    "indexes": {
                        "data": 2,
                        "gas": 0,
                        "value": 1
                    }
                },
                {
                    "hash": "f60b5e3375cd087dbc2f4a644cddcecc8397afd990b6d9b2bab8ab6aa5fe5d7d",
                    "logs": "1dcc4de8dec75d7aab85b567b6ccd41ad312451b948a7413f0a142fd40d49347",
                    "txbytes": "0xf880800a83051c9894100000000000000000000000000000000000000080a000000000000000000000000040000000000000000000000000000000000000011ba0142345b4b42112def12fe6c6048f5d1c10c2ea6ac886e80b390a4c837c893839a01d618ca015abd09841542496e6443465ed926645c2e3d8e9727c2018cf5190a7",
                    "indexes": {
                        "data": 3,
                        "gas": 0,
                        "value": 0
                    }
                },
                {
                    "hash": "189a381dc6268c82fc644bc60652fd3e8088c9f7988d0c8c0b1684d73d90269e",
                    "logs": "1dcc4de8dec75d7aab85b567b6ccd41ad312451b948a7413f0a142fd40d49347",
                    "txbytes": "0xf880800a83051c9894100000000000000000000000000000000000000064a000000000000000000000000040000000000000000000000000000000000000011ca0a1678aeb2fd208b0f6a014ca3b9878ea61dd790ca712eae0e62936aaea24ae81a0483da10f2fa1266b2b160eb39d9f5169abd1171630b248df1b76d2f6e951d508",
                    "indexes": {
                        "data": 3,
                        "gas": 0,
                        "value": 1
                    }
                },
                {
                    "hash": "e79dafd2ae66d0e5eaf4c512a83783188973cc56fda06e5bf023d38a2e775dca",
                    "logs": "1dcc4de8dec75d7aab85b567b6ccd41ad312451b948a7413f0a142fd40d49347",
                    "txbytes": "0xf880800a83051c9894100000000000000000000000000000000000000080a000000000000000000000000050000000000000000000000000000000000000011ba02416ec592644e6b766e889be391dc08d4673a76b35448fa1f8fd222372dc5a4ea01ff3272ca0aed9e8a9968cae53c4900ba598f264e5d7d0c8b27b406cee5860c7",
                    "indexes": {
                        "data": 4,
                        "gas": 0,
                        "value": 0
                    }
                },
                {
                    "hash": "010cb82fe1143d9674e79fa138ad39a210e8b43a87185896596bcff4e6131a7c",
                    "logs": "1dcc4de8dec75d7aab85b567b6ccd41ad312451b948a7413f0a142fd40d49347",
                    "txbytes": "0xf880800a83051c9894100000000000000000000000000000000000000064a000000000000000000000000050000000000000000000000000000000000000011ca0756b93cbbaeed76072f6d01eb844882cb2acca947784a6c2b3e24710a636bb9da03987bd279210b9179692f1c28cf971801de3ebf59b5043aa3fa8beb103d19647",
                    "indexes": {
                        "data": 4,
                        "gas": 0,
                        "value": 1
                    }
                },
                {
                    "hash": "95330c8da178ed1510a83c9fb7c152de9169d9eeba903b3680e8ddbd9b94f89c",
                    "logs": "1dcc4de8dec75d7aab85b567b6ccd41ad312451b948a7413f0a142fd40d49347",
                    "txbytes": "0xf880800a83051c9894100000000000000000000000000000000000000080a000000000000000000000000020000000000000000000000000000000000000011ca04e2e63a9929b38875b448be8e2a475781cc67e554ee4578a28df0895c46c8bb0a04a7c671d0e8f0ac6195d59390a679a6b87f2cf1f687d08bb2f71a5027e5cf20c",
                    "indexes": {
                        "data": 1,
                        "gas": 0,
                        "value": 0
                    }
                },
                {
                    "hash": "a803510ba5a9f8201ca8dd2e00fcc9709fc0b586154d1522e568e19cfc9231f7",
                    "logs": "1dcc4de8dec75d7aab85b567b6ccd41ad312451b948a7413f0a142fd40d49347",
                    "txbytes": "0xf880800a83051c9894100000000000000000000000000000000000000064a000000000000000000000000020000000000000000000000000000000000000011ca04087076b3a23a6b523381e41e9aebc4ccf47c08151ad9c25325e1b2346af8b5ba0475b98aa14ef2157a1e5c5e9290476ac1a3e559da5b04b829dc2f0106f00a0a8",
                    "indexes": {
                        "data": 1,
                        "gas": 0,
                        "value": 1
                    }
                }
            ]
        }
    }
}