{
    "static_Call1024PreCalls2": {
        "_info": {
            "comment": "",
            "filling-rpc-server": "evm version 1.10.16-unstable-0f893109-20220105",
            "filling-tool-version": "retesteth-0.2.2-testinfo+commit.01c6aac2.Linux.g++",
            "filledWith": "CoreGeth-1.12.9-unstable-4cf5b2b0837228e7d5eadba6a01ffb80e9288e21",
            "lllcversion": "Version: 0.5.14-develop.2021.11.27+commit.401d5358.Linux.g++",
            "source": "src/GeneralStateTestsFiller/stStaticCall/static_Call1024PreCalls2Filler.json",
            "sourceHash": "293b48c8301f0c0d0a5aa16c17fb93104399da8067850c9e13f12040c7d75b09"
        },
        "env": {
            "currentCoinbase": "0xb94f5374fce5edbc8e2a8697c15331677e6ebf0b",
            "currentDifficulty": "0x20000",
            "currentGasLimit": "0x7fffffffffffffff",
            "currentNumber": "0x1",
            "currentTimestamp": "0x3e8",
            "previousHash": "0x5e20a0453cecd065ea59c37ac63e079ee08998b6045136a8ce6635c7912ec0b6"
        },
        "pre": {
            "0x1000000000000000000000000000000000000000": {
                "code": "0x6000600060006000346000355af1600055600160015500",
                "balance": "0x0",
                "nonce": "0x0"
            },
            "0xa94f5374fce5edbc8e2a8697c15331677e6ebf0b": {
                "code": "0x",
                "balance": "0xfffffffffffffffffffffffffffffffff",
                "nonce": "0x0"
            },
            "0xaaaf5374fce5edbc8e2a8697c15331677e6ebf0b": {
                "code": "0x600160005200",
                "balance": "0x1b58",
                "nonce": "0x0"
            },
            "0xbbbf5374fce5edbc8e2a8697c15331677e6ebf0b": {
                "code": "0x600060006000600073aaaf5374fce5edbc8e2a8697c15331677e6ebf0b61fffffa600255600060006000600073aaaf5374fce5edbc8e2a8697c15331677e6ebf0b61fffffa600355600160005401600055600060006000600073bbbf5374fce5edbc8e2a8697c15331677e6ebf0b650ffffffffffff460015500",
                "balance": "0x7e8",
                "nonce": "0x0"
            },
            "0xcbbf5374fce5edbc8e2a8697c15331677e6ebf0b": {
                "code": "0x600060006000600073aaaf5374fce5edbc8e2a8697c15331677e6ebf0b61fffffa50600060006000600073aaaf5374fce5edbc8e2a8697c15331677e6ebf0b61fffffa50600160005101600052600060006000600073cbbf5374fce5edbc8e2a8697c15331677e6ebf0b650ffffffffffff400",
                "balance": "0x7e8",
                "nonce": "0x0"
            }
        },
        "transaction": {
            "gasPrice": "0xa",
            "nonce": "0x0",
            "to": "0x1000000000000000000000000000000000000000",
            "data": [
                "0x000000000000000000000000bbbf5374fce5edbc8e2a8697c15331677e6ebf0b",
                "0x000000000000000000000000cbbf5374fce5edbc8e2a8697c15331677e6ebf0b"
            ],
            "gasLimit": [
                "0x7fe0000000000001"
            ],
            "value": [
                "0x0a"
            ],
            "secretKey": "0x45a915e4d060149eb4365960e6a7a45f334393093061116b197e3240065ff2d8",
            "sender": "0xa94f5374fce5edbc8e2a8697c15331677e6ebf0b"
        },
        "post": {
            "ETC_Magneto": [
                {
                    "hash": "4c09f3d8728e0499d49a6e2906894065c3cc4d107379a1351f98a39898afeeeb",
                    "logs": "1dcc4de8dec75d7aab85b567b6ccd41ad312451b948a7413f0a142fd40d49347",
                    "txbytes": "0xf885800a887fe00000000000019410000000000000000000000000000000000000000aa0000000000000000000000000bbbf5374fce5edbc8e2a8697c15331677e6ebf0b1ca0d8158dbd8f9abeb3077ab3f8a58b5686602d668b4f3789066206f97929650ab8a07e7d73b80175cab7b58928a10a83c3887df251c1ec21dd0fe8847c2e3423e6b4",
                    "indexes": {
                        "data": 0,
                        "gas": 0,
                        "value": 0
                    }
                },
                {
                    "hash": "cf7947dd9f49a32c73b17f7113927f7cde6ce2d260166a1769cb8c794bfbccb7",
                    "logs": "1dcc4de8dec75d7aab85b567b6ccd41ad312451b948a7413f0a142fd40d49347",
                    "txbytes": "0xf885800a887fe00000000000019410000000000000000000000000000000000000000aa0000000000000000000000000cbbf5374fce5edbc8e2a8697c15331677e6ebf0b1ca0d66f04968eb32841eaafc54eb514fc54c6a290da44c377e74332f09eb0253a07a00c780941396de0d81e0bd44dc4b3fa31268be355dabb3ebe678a8ae1c3cfde44",
                    "indexes": {
                        "data": 1,
                        "gas": 0,
                        "value": 0
                    }
                }
            ],
            "ETC_Mystique": [
                {
                    "hash": "4c09f3d8728e0499d49a6e2906894065c3cc4d107379a1351f98a39898afeeeb",
                    "logs": "1dcc4de8dec75d7aab85b567b6ccd41ad312451b948a7413f0a142fd40d49347",
                    "txbytes": "0xf885800a887fe00000000000019410000000000000000000000000000000000000000aa0000000000000000000000000bbbf5374fce5edbc8e2a8697c15331677e6ebf0b1ca0d8158dbd8f9abeb3077ab3f8a58b5686602d668b4f3789066206f97929650ab8a07e7d73b80175cab7b58928a10a83c3887df251c1ec21dd0fe8847c2e3423e6b4",
                    "indexes": {
                        "data": 0,
                        "gas": 0,
                        "value": 0
                    }
                },
                {
                    "hash": "cf7947dd9f49a32c73b17f7113927f7cde6ce2d260166a1769cb8c794bfbccb7",
                    "logs": "1dcc4de8dec75d7aab85b567b6ccd41ad312451b948a7413f0a142fd40d49347",
                    "txbytes": "0xf885800a887fe00000000000019410000000000000000000000000000000000000000aa0000000000000000000000000cbbf5374fce5edbc8e2a8697c15331677e6ebf0b1ca0d66f04968eb32841eaafc54eb514fc54c6a290da44c377e74332f09eb0253a07a00c780941396de0d81e0bd44dc4b3fa31268be355dabb3ebe678a8ae1c3cfde44",
                    "indexes": {
                        "data": 1,
                        "gas": 0,
                        "value": 0
                    }
                }
            ],
            "ETC_Phoenix": [
                {
                    "hash": "b983f096c2da595dfc862d0b935c1a09ae28b20d1afff2669908fe47f1b9b707",
                    "logs": "1dcc4de8dec75d7aab85b567b6ccd41ad312451b948a7413f0a142fd40d49347",
                    "txbytes": "0xf885800a887fe00000000000019410000000000000000000000000000000000000000aa0000000000000000000000000bbbf5374fce5edbc8e2a8697c15331677e6ebf0b1ca0d8158dbd8f9abeb3077ab3f8a58b5686602d668b4f3789066206f97929650ab8a07e7d73b80175cab7b58928a10a83c3887df251c1ec21dd0fe8847c2e3423e6b4",
                    "indexes": {
                        "data": 0,
                        "gas": 0,
                        "value": 0
                    }
                },
                {
                    "hash": "124cccaec9a93fc8cc5e445fb374d87b53a51d5201ccce52b52c94107c4a43c8",
                    "logs": "1dcc4de8dec75d7aab85b567b6ccd41ad312451b948a7413f0a142fd40d49347",
                    "txbytes": "0xf885800a887fe00000000000019410000000000000000000000000000000000000000aa0000000000000000000000000cbbf5374fce5edbc8e2a8697c15331677e6ebf0b1ca0d66f04968eb32841eaafc54eb514fc54c6a290da44c377e74332f09eb0253a07a00c780941396de0d81e0bd44dc4b3fa31268be355dabb3ebe678a8ae1c3cfde44",
                    "indexes": {
                        "data": 1,
                        "gas": 0,
                        "value": 0
                    }
                }
            ]
        }
    }
}