{
    "static_callcodecallcall_100_OOGMAfter2": {
        "_info": {
            "comment": "",
            "filling-rpc-server": "evm version 1.10.16-unstable-0f893109-20220105",
            "filling-tool-version": "retesteth-0.2.2-testinfo+commit.01c6aac2.Linux.g++",
            "filledWith": "CoreGeth-1.12.9-unstable-4cf5b2b0837228e7d5eadba6a01ffb80e9288e21",
            "lllcversion": "Version: 0.5.14-develop.2021.11.27+commit.401d5358.Linux.g++",
            "source": "src/GeneralStateTestsFiller/stStaticCall/static_callcodecallcall_100_OOGMAfter2Filler.json",
            "sourceHash": "383b8d0d219391b54ce93367a3c0bd602ba6a0b04afd539a2f2c7bf2517fb4d6"
        },
        "env": {
            "currentCoinbase": "0x2adc25665018aa1fe0e6bc666dac8fc2697ff9ba",
            "currentDifficulty": "0x20000",
            "currentGasLimit": "0x1c9c380",
            "currentNumber": "0x1",
            "currentTimestamp": "0x3e8",
            "previousHash": "0x5e20a0453cecd065ea59c37ac63e079ee08998b6045136a8ce6635c7912ec0b6"
        },
        "pre": {
            "0x1000000000000000000000000000000000000000": {
                "code": "0x60406000604060003460003562092856f2600055600160015500",
                "balance": "0xde0b6b3a7640000",
                "nonce": "0x0"
            },
            "0x1000000000000000000000000000000000000001": {
                "code": "0x604060006040600073100000000000000000000000000000000000000262061ad0fa505b61c3506080511015603f5760013b506001608051016080526023565b00",
                "balance": "0x0",
                "nonce": "0x0"
            },
            "0x1000000000000000000000000000000000000002": {
                "code": "0x60406000604060007310000000000000000000000000000000000000036201d4d4fa00",
                "balance": "0x0",
                "nonce": "0x0"
            },
            "0x1000000000000000000000000000000000000003": {
                "code": "0x600160035200",
                "balance": "0x0",
                "nonce": "0x0"
            },
            "0xa94f5374fce5edbc8e2a8697c15331677e6ebf0b": {
                "code": "0x",
                "balance": "0xde0b6b3a7640000",
                "nonce": "0x0"
            }
        },
        "transaction": {
            "gasPrice": "0xa",
            "nonce": "0x0",
            "to": "0x1000000000000000000000000000000000000000",
            "data": [
                "0x0000000000000000000000001000000000000000000000000000000000000001"
            ],
            "gasLimit": [
                "0x1a3ec0"
            ],
            "value": [
                "0x00",
                "0x01"
            ],
            "secretKey": "0x45a915e4d060149eb4365960e6a7a45f334393093061116b197e3240065ff2d8",
            "sender": "0xa94f5374fce5edbc8e2a8697c15331677e6ebf0b"
        },
        "post": {
            "ETC_Magneto": [
                {
                    "hash": "ed6144dc6c416b0995b9e3ceec1fc53aa4c6a0f3895eb78e59f02846c435130d",
                    "logs": "1dcc4de8dec75d7aab85b567b6ccd41ad312451b948a7413f0a142fd40d49347",
                    "txbytes": "0xf880800a831a3ec094100000000000000000000000000000000000000080a000000000000000000000000010000000000000000000000000000000000000011ba02590ccf8f721345bcf2d7252eed958f3f6422fd9c93907d690520f4152736401a042fd7491825b7164ce58950ef0114e74193af86ac496119c22a2742f08190c54",
                    "indexes": {
                        "data": 0,
                        "gas": 0,
                        "value": 0
                    }
                },
                {
                    "hash": "269b5e4573bcf33c921fdb4adccaf38125213e3173a42bb08a9befa77aaff31d",
                    "logs": "1dcc4de8dec75d7aab85b567b6ccd41ad312451b948a7413f0a142fd40d49347",
                    "txbytes": "0xf880800a831a3ec094100000000000000000000000000000000000000001a000000000000000000000000010000000000000000000000000000000000000011ca08d6e0ce43cd61b9485e633d234c6af1567717a08efc8279aabb03b309300adf4a00cd89d339666c1d80ebfd75dfb77185c1ca454546081e9e7310f285291cbdaeb",
                    "indexes": {
                        "data": 0,
                        "gas": 0,
                        "value": 1
                    }
                }
            ],
            "ETC_Mystique": [
                {
                    "hash": "ed6144dc6c416b0995b9e3ceec1fc53aa4c6a0f3895eb78e59f02846c435130d",
                    "logs": "1dcc4de8dec75d7aab85b567b6ccd41ad312451b948a7413f0a142fd40d49347",
                    "txbytes": "0xf880800a831a3ec094100000000000000000000000000000000000000080a000000000000000000000000010000000000000000000000000000000000000011ba02590ccf8f721345bcf2d7252eed958f3f6422fd9c93907d690520f4152736401a042fd7491825b7164ce58950ef0114e74193af86ac496119c22a2742f08190c54",
                    "indexes": {
                        "data": 0,
                        "gas": 0,
                        "value": 0
                    }
                },
                {
                    "hash": "269b5e4573bcf33c921fdb4adccaf38125213e3173a42bb08a9befa77aaff31d",
                    "logs": "1dcc4de8dec75d7aab85b567b6ccd41ad312451b948a7413f0a142fd40d49347",
                    "txbytes": "0xf880800a831a3ec094100000000000000000000000000000000000000001a000000000000000000000000010000000000000000000000000000000000000011ca08d6e0ce43cd61b9485e633d234c6af1567717a08efc8279aabb03b309300adf4a00cd89d339666c1d80ebfd75dfb77185c1ca454546081e9e7310f285291cbdaeb",
                    "indexes": {
                        "data": 0,
                        "gas": 0,
                        "value": 1
                    }
                }
            ],
            "ETC_Phoenix": [
                {
                    "hash": "b0aa00e7d7ea828749546216b4a3623c284a40113e88eef2f2a55c321e273612",
                    "logs": "1dcc4de8dec75d7aab85b567b6ccd41ad312451b948a7413f0a142fd40d49347",
                    "txbytes": "0xf880800a831a3ec094100000000000000000000000000000000000000080a000000000000000000000000010000000000000000000000000000000000000011ba02590ccf8f721345bcf2d7252eed958f3f6422fd9c93907d690520f4152736401a042fd7491825b7164ce58950ef0114e74193af86ac496119c22a2742f08190c54",
                    "indexes": {
                        "data": 0,
                        "gas": 0,
                        "value": 0
                    }
                },
                {
                    "hash": "497fbae985394550a839111ccfa809d3d51f81e6f27fa2006d792c4be4bd4214",
                    "logs": "1dcc4de8dec75d7aab85b567b6ccd41ad312451b948a7413f0a142fd40d49347",
                    "txbytes": "0xf880800a831a3ec094100000000000000000000000000000000000000001a000000000000000000000000010000000000000000000000000000000000000011ca08d6e0ce43cd61b9485e633d234c6af1567717a08efc8279aabb03b309300adf4a00cd89d339666c1d80ebfd75dfb77185c1ca454546081e9e7310f285291cbdaeb",
                    "indexes": {
                        "data": 0,
                        "gas": 0,
                        "value": 1
                    }
                }
            ]
        }
    }
}