{
    "static_LoopCallsThenRevert": {
        "_info": {
            "comment": "",
            "filling-rpc-server": "evm version 1.10.16-unstable-0f893109-20220105",
            "filling-tool-version": "retesteth-0.2.2-testinfo+commit.01c6aac2.Linux.g++",
            "filledWith": "CoreGeth-1.12.9-unstable-4d59a861107c8232d6896811c48f229d30087be4",
            "lllcversion": "Version: 0.5.14-develop.2021.11.27+commit.401d5358.Linux.g++",
            "source": "src/GeneralStateTestsFiller/stStaticCall/static_LoopCallsThenRevertFiller.json",
            "sourceHash": "981e4c6dc0d5756404b383d98d8b934895951bcc1e42cdb79306271cb77cb596"
        },
        "env": {
            "currentCoinbase": "0x2adc25665018aa1fe0e6bc666dac8fc2697ff9ba",
            "currentDifficulty": "0x20000",
            "currentGasLimit": "0x5f5e100",
            "currentNumber": "0x1",
            "currentTimestamp": "0x3e8",
            "currentBaseFee": "0xa",
            "previousHash": "0x5e20a0453cecd065ea59c37ac63e079ee08998b6045136a8ce6635c7912ec0b6"
        },
        "pre": {
            "0x1000000000000000000000000000000000000000": {
                "code": "0x6103526000526000600060206000600073a0000000000000000000000000000000000000006127105a03f1600055600160015500",
                "balance": "0x0"
            },
            "0xa000000000000000000000000000000000000000": {
                "code": "0x5b600160003503600052600060006000600073b00000000000000000000000000000000000000061c350fa50600051600057",
                "storage": {
                    "0x0000000000000000000000000000000000000000000000000000000000000000": "0x0000000000000000000000000000000000000000000000000000000000000352"
                },
                "balance": "0x0"
            },
            "0xa94f5374fce5edbc8e2a8697c15331677e6ebf0b": {
                "balance": "0xe8d4a51000"
            },
            "0xb000000000000000000000000000000000000000": {
                "code": "0x60005160010160005200",
                "balance": "0x0"
            }
        },
        "transaction": {
            "gasPrice": "0xa",
            "nonce": "0x0",
            "to": "0x1000000000000000000000000000000000000000",
            "data": [
                "0x"
            ],
            "gasLimit": [
                "0x989680",
                "0x895440"
            ],
            "value": [
                "0x00"
            ],
            "secretKey": "0x45a915e4d060149eb4365960e6a7a45f334393093061116b197e3240065ff2d8",
            "sender": "0xa94f5374fce5edbc8e2a8697c15331677e6ebf0b"
        },
        "post": {
            "ETC_Magneto": [
                {
                    "hash": "c9d686dadb16196de3c523dc98f2be554b8694126fc1c7cbcac7ae41cd6f3362",
                    "logs": "1dcc4de8dec75d7aab85b567b6ccd41ad312451b948a7413f0a142fd40d49347",
                    "txbytes": "0xf860800a8398968094100000000000000000000000000000000000000080801ca0a7accd6631d88ac13ba736b2c129326003880919924697ae7fedf1d63d0e06d4a05606f852f9cfc740abf9a9ad42e4d1a53490202393c4116d046c53804853ff05",
                    "indexes": {
                        "data": 0,
                        "gas": 0,
                        "value": 0
                    }
                },
                {
                    "hash": "3bc8d61749c04ca2214271175e6e7a50c2ad1cf7c9d7186a33d4871b1578c200",
                    "logs": "1dcc4de8dec75d7aab85b567b6ccd41ad312451b948a7413f0a142fd40d49347",
                    "txbytes": "0xf860800a8389544094100000000000000000000000000000000000000080801ca009782fe371f1042aa38e21403bbb1000dac5e1f2829779aad0643eb32ee862fca0469de5c6e39e9f39fdcd8627b1f0c028b7294b9304a24086d7f109c55baaa7b0",
                    "indexes": {
                        "data": 0,
                        "gas": 1,
                        "value": 0
                    }
                }
            ],
            "ETC_Mystique": [
                {
                    "hash": "c9d686dadb16196de3c523dc98f2be554b8694126fc1c7cbcac7ae41cd6f3362",
                    "logs": "1dcc4de8dec75d7aab85b567b6ccd41ad312451b948a7413f0a142fd40d49347",
                    "txbytes": "0xf860800a8398968094100000000000000000000000000000000000000080801ca0a7accd6631d88ac13ba736b2c129326003880919924697ae7fedf1d63d0e06d4a05606f852f9cfc740abf9a9ad42e4d1a53490202393c4116d046c53804853ff05",
                    "indexes": {
                        "data": 0,
                        "gas": 0,
                        "value": 0
                    }
                },
                {
                    "hash": "3bc8d61749c04ca2214271175e6e7a50c2ad1cf7c9d7186a33d4871b1578c200",
                    "logs": "1dcc4de8dec75d7aab85b567b6ccd41ad312451b948a7413f0a142fd40d49347",
                    "txbytes": "0xf860800a8389544094100000000000000000000000000000000000000080801ca009782fe371f1042aa38e21403bbb1000dac5e1f2829779aad0643eb32ee862fca0469de5c6e39e9f39fdcd8627b1f0c028b7294b9304a24086d7f109c55baaa7b0",
                    "indexes": {
                        "data": 0,
                        "gas": 1,
                        "value": 0
                    }
                }
            ],
            "ETC_Phoenix": [
                {
                    "hash": "6b9a454797a56deefb6fc33d5de4c994d48e065be1b83e03a885a30c5a853f07",
                    "logs": "1dcc4de8dec75d7aab85b567b6ccd41ad312451b948a7413f0a142fd40d49347",
                    "txbytes": "0xf860800a8398968094100000000000000000000000000000000000000080801ca0a7accd6631d88ac13ba736b2c129326003880919924697ae7fedf1d63d0e06d4a05606f852f9cfc740abf9a9ad42e4d1a53490202393c4116d046c53804853ff05",
                    "indexes": {
                        "data": 0,
                        "gas": 0,
                        "value": 0
                    }
                },
                {
                    "hash": "697566e4742b9360e0954c08fd105ed0cb41cf6720177e1ce474cbc8f59114ee",
                    "logs": "1dcc4de8dec75d7aab85b567b6ccd41ad312451b948a7413f0a142fd40d49347",
                    "txbytes": "0xf860800a8389544094100000000000000000000000000000000000000080801ca009782fe371f1042aa38e21403bbb1000dac5e1f2829779aad0643eb32ee862fca0469de5c6e39e9f39fdcd8627b1f0c028b7294b9304a24086d7f109c55baaa7b0",
                    "indexes": {
                        "data": 0,
                        "gas": 1,
                        "value": 0
                    }
                }
            ]
        }
    }
}