{
    "static_callcodecallcodecall_110_OOGMAfter2": {
        "_info": {
            "comment": "",
            "filling-rpc-server": "evm version 1.10.16-unstable-0f893109-20220105",
            "filling-tool-version": "retesteth-0.2.2-testinfo+commit.01c6aac2.Linux.g++",
            "filledWith": "CoreGeth-1.12.9-unstable-f4059ddd82d975bdc54fa648e5422a80172161cb",
            "lllcversion": "Version: 0.5.14-develop.2021.11.27+commit.401d5358.Linux.g++",
            "source": "src/GeneralStateTestsFiller/stStaticCall/static_callcodecallcodecall_110_OOGMAfter2Filler.json",
            "sourceHash": "b86ec14b97a89e80578c9155c1f2c72cb1ece7db592490b30bd17a081dbb5b44"
        },
        "env": {
            "currentCoinbase": "2adc25665018aa1fe0e6bc666dac8fc2697ff9ba",
            "currentDifficulty": "0x20000",
            "currentRandom": null,
            "currentGasLimit": "0x1c9c380",
            "currentNumber": "0x1",
            "currentTimestamp": "0x3e8",
            "currentBaseFee": "0xa"
        },
        "pre": {
            "0x1000000000000000000000000000000000000000": {
                "code": "0x60406000604060003473100000000000000000000000000000000000000161eaf6f2600055600160015500",
                "balance": "0xde0b6b3a7640000"
            },
            "0x1000000000000000000000000000000000000001": {
                "code": "0x604060006040600060013403731000000000000000000000000000000000000002619c90f2505b61c350608051101560425760013b506001608051016080526026565b00",
                "balance": "0x0"
            },
            "0x1000000000000000000000000000000000000002": {
                "code": "0x6040600060406000731000000000000000000000000000000000000003614e34fa00",
                "balance": "0x0"
            },
            "0x1000000000000000000000000000000000000003": {
                "code": "0x600160035200",
                "balance": "0x0"
            },
            "0xa94f5374fce5edbc8e2a8697c15331677e6ebf0b": {
                "balance": "0xde0b6b3a7640000"
            }
        },
        "transaction": {
            "gasPrice": "0xa",
            "maxFeePerGas": null,
            "maxPriorityFeePerGas": null,
            "nonce": "0x0",
            "to": "0x1000000000000000000000000000000000000000",
            "data": [
                "0x"
            ],
            "gasLimit": [
                "0x29fe0"
            ],
            "value": [
                "0x00",
                "0x01",
                "0x02"
            ],
            "secretKey": "0x45a915e4d060149eb4365960e6a7a45f334393093061116b197e3240065ff2d8"
        },
        "out": "0x",
        "post": {
            "ETC_Magneto": [
                {
                    "hash": "482388352891f1c81159e162ee5ee76e6275ae82a425a70bcf2f91a3b016e770",
                    "logs": "1dcc4de8dec75d7aab85b567b6ccd41ad312451b948a7413f0a142fd40d49347",
                    "txbytes": "0xf860800a83029fe094100000000000000000000000000000000000000080801ca01b274730d72131698f0cc6eea2f774a24c10b287a72be84322c3c9fa1ddc2dffa056fcfb722815c7658ee0ac5099f980ad1cacb56f3b0e4800760de325539de6c8",
                    "indexes": {
                        "data": 0,
                        "gas": 0,
                        "value": 0
                    }
                },
                {
                    "hash": "1c2157650cf2e868775ba40670e7d2464677f3078f9210d7d6c7ded60dc6eba5",
                    "logs": "1dcc4de8dec75d7aab85b567b6ccd41ad312451b948a7413f0a142fd40d49347",
                    "txbytes": "0xf860800a83029fe094100000000000000000000000000000000000000001801ba07df431aeac08ad2be95737c660d1eb8b5e0134c04d8f8c7e1d57470fc5cf5ea2a066542c03412ed72e525376c55c28cb0addc700a70dd045203276318e01ea3520",
                    "indexes": {
                        "data": 0,
                        "gas": 0,
                        "value": 1
                    }
                },
                {
                    "hash": "dfdc660ab39b4d2615e035e8c720a821f479f2235c60d49ded950842a3548065",
                    "logs": "1dcc4de8dec75d7aab85b567b6ccd41ad312451b948a7413f0a142fd40d49347",
                    "txbytes": "0xf860800a83029fe094100000000000000000000000000000000000000002801ca0d93dc181b5592e95db78ed23f31302c88ac99cbe8145e863d38dbe3fb72dfc84a04a6ff07e4108360748a3e38726de6cb1949fa7c65ba4618329041993ad265d76",
                    "indexes": {
                        "data": 0,
                        "gas": 0,
                        "value": 2
                    }
                }
            ],
            "ETC_Mystique": [
                {
                    "hash": "482388352891f1c81159e162ee5ee76e6275ae82a425a70bcf2f91a3b016e770",
                    "logs": "1dcc4de8dec75d7aab85b567b6ccd41ad312451b948a7413f0a142fd40d49347",
                    "txbytes": "0xf860800a83029fe094100000000000000000000000000000000000000080801ca01b274730d72131698f0cc6eea2f774a24c10b287a72be84322c3c9fa1ddc2dffa056fcfb722815c7658ee0ac5099f980ad1cacb56f3b0e4800760de325539de6c8",
                    "indexes": {
                        "data": 0,
                        "gas": 0,
                        "value": 0
                    }
                },
                {
                    "hash": "1c2157650cf2e868775ba40670e7d2464677f3078f9210d7d6c7ded60dc6eba5",
                    "logs": "1dcc4de8dec75d7aab85b567b6ccd41ad312451b948a7413f0a142fd40d49347",
                    "txbytes": "0xf860800a83029fe094100000000000000000000000000000000000000001801ba07df431aeac08ad2be95737c660d1eb8b5e0134c04d8f8c7e1d57470fc5cf5ea2a066542c03412ed72e525376c55c28cb0addc700a70dd045203276318e01ea3520",
                    "indexes": {
                        "data": 0,
                        "gas": 0,
                        "value": 1
                    }
                },
                {
                    "hash": "dfdc660ab39b4d2615e035e8c720a821f479f2235c60d49ded950842a3548065",
                    "logs": "1dcc4de8dec75d7aab85b567b6ccd41ad312451b948a7413f0a142fd40d49347",
                    "txbytes": "0xf860800a83029fe094100000000000000000000000000000000000000002801ca0d93dc181b5592e95db78ed23f31302c88ac99cbe8145e863d38dbe3fb72dfc84a04a6ff07e4108360748a3e38726de6cb1949fa7c65ba4618329041993ad265d76",
                    "indexes": {
                        "data": 0,
                        "gas": 0,
                        "value": 2
                    }
                }
            ],
            "ETC_Phoenix": [
                {
                    "hash": "12a8638657be0c53cfb74c405b284dc51d7f49fbfc3d2d257b5a46a525a5fb22",
                    "logs": "1dcc4de8dec75d7aab85b567b6ccd41ad312451b948a7413f0a142fd40d49347",
                    "txbytes": "0xf860800a83029fe094100000000000000000000000000000000000000080801ca01b274730d72131698f0cc6eea2f774a24c10b287a72be84322c3c9fa1ddc2dffa056fcfb722815c7658ee0ac5099f980ad1cacb56f3b0e4800760de325539de6c8",
                    "indexes": {
                        "data": 0,
                        "gas": 0,
                        "value": 0
                    }
                },
                {
                    "hash": "4ba64a04806379dfe513b66d27589ff4064592cfa76e29ecfb4430355d92ca82",
                    "logs": "1dcc4de8dec75d7aab85b567b6ccd41ad312451b948a7413f0a142fd40d49347",
                    "txbytes": "0xf860800a83029fe094100000000000000000000000000000000000000001801ba07df431aeac08ad2be95737c660d1eb8b5e0134c04d8f8c7e1d57470fc5cf5ea2a066542c03412ed72e525376c55c28cb0addc700a70dd045203276318e01ea3520",
                    "indexes": {
                        "data": 0,
                        "gas": 0,
                        "value": 1
                    }
                },
                {
                    "hash": "88262449a56da13ed8d4efea54c02dc5621ee8f7c2294e29c7c85d2c073db7da",
                    "logs": "1dcc4de8dec75d7aab85b567b6ccd41ad312451b948a7413f0a142fd40d49347",
                    "txbytes": "0xf860800a83029fe094100000000000000000000000000000000000000002801ca0d93dc181b5592e95db78ed23f31302c88ac99cbe8145e863d38dbe3fb72dfc84a04a6ff07e4108360748a3e38726de6cb1949fa7c65ba4618329041993ad265d76",
                    "indexes": {
                        "data": 0,
                        "gas": 0,
                        "value": 2
                    }
                }
            ]
        }
    }
}