{
    "static_callcodecallcallcode_101_SuicideMiddle2": {
        "_info": {
            "comment": "",
            "filling-rpc-server": "evm version 1.10.16-unstable-0f893109-20220105",
            "filling-tool-version": "retesteth-0.2.2-testinfo+commit.01c6aac2.Linux.g++",
            "filledWith": "CoreGeth-1.12.9-unstable-f4059ddd82d975bdc54fa648e5422a80172161cb",
            "lllcversion": "Version: 0.5.14-develop.2021.11.27+commit.401d5358.Linux.g++",
            "source": "src/GeneralStateTestsFiller/stStaticCall/static_callcodecallcallcode_101_SuicideMiddle2Filler.json",
            "sourceHash": "ce5acdbf34606420fd17b27c3312a037e0c2a6dfeb15720f06840334f476aafe"
        },
        "env": {
            "currentCoinbase": "2adc25665018aa1fe0e6bc666dac8fc2697ff9ba",
            "currentDifficulty": "0x20000",
            "currentRandom": null,
            "currentGasLimit": "0x1c9c380",
            "currentNumber": "0x1",
            "currentTimestamp": "0x3e8",
            "currentBaseFee": "0xa"
        },
        "pre": {
            "0x1000000000000000000000000000000000000000": {
                "code": "0x604060006040600034731000000000000000000000000000000000000001620249f0f2600055600160015500",
                "balance": "0xde0b6b3a7640000"
            },
            "0x1000000000000000000000000000000000000001": {
                "code": "0x60016003526040600060406000731000000000000000000000000000000000000002620186a0fa50600160205200",
                "balance": "0x2540be400"
            },
            "0x1000000000000000000000000000000000000002": {
                "code": "0x731000000000000000000000000000000000000000ff6040600060406000600073100000000000000000000000000000000000000361c350f200",
                "balance": "0x2540be400"
            },
            "0x1000000000000000000000000000000000000003": {
                "code": "0x600160035200",
                "balance": "0x2540be400"
            },
            "0xa94f5374fce5edbc8e2a8697c15331677e6ebf0b": {
                "balance": "0xde0b6b3a7640000"
            }
        },
        "transaction": {
            "gasPrice": "0xa",
            "maxFeePerGas": null,
            "maxPriorityFeePerGas": null,
            "nonce": "0x0",
            "to": "0x1000000000000000000000000000000000000000",
            "data": [
                "0x"
            ],
            "gasLimit": [
                "0x2dc6c0"
            ],
            "value": [
                "0x00",
                "0x01"
            ],
            "secretKey": "0x45a915e4d060149eb4365960e6a7a45f334393093061116b197e3240065ff2d8"
        },
        "out": "0x",
        "post": {
            "ETC_Magneto": [
                {
                    "hash": "b5e0e54744decb843d1d647a94a13bedc33aedd680aeab36a3b6094060358ecc",
                    "logs": "1dcc4de8dec75d7aab85b567b6ccd41ad312451b948a7413f0a142fd40d49347",
                    "txbytes": "0xf860800a832dc6c094100000000000000000000000000000000000000080801ba07763c200d265ba0050627c8c7b4c19bf118b3581a3de22dbcebdfcb6e8565790a0514908f638ddc4b1402230e34692f43bb92713ff2cad3627814cf6fb19ac2e43",
                    "indexes": {
                        "data": 0,
                        "gas": 0,
                        "value": 0
                    }
                },
                {
                    "hash": "06259de55ac8c10ed6a546a0e62999fa583bcfda536b8ba4456270ec6fd9e7cb",
                    "logs": "1dcc4de8dec75d7aab85b567b6ccd41ad312451b948a7413f0a142fd40d49347",
                    "txbytes": "0xf860800a832dc6c094100000000000000000000000000000000000000001801ca085588c8950be75d51a1ea463c405de40d9ea221f948e70162b5a21e99a9a0ee2a03841aa9eb09e4e12313a04e2d6b0f271499a2945558c7d36b8ad6ed0ccd26236",
                    "indexes": {
                        "data": 0,
                        "gas": 0,
                        "value": 1
                    }
                }
            ],
            "ETC_Mystique": [
                {
                    "hash": "b5e0e54744decb843d1d647a94a13bedc33aedd680aeab36a3b6094060358ecc",
                    "logs": "1dcc4de8dec75d7aab85b567b6ccd41ad312451b948a7413f0a142fd40d49347",
                    "txbytes": "0xf860800a832dc6c094100000000000000000000000000000000000000080801ba07763c200d265ba0050627c8c7b4c19bf118b3581a3de22dbcebdfcb6e8565790a0514908f638ddc4b1402230e34692f43bb92713ff2cad3627814cf6fb19ac2e43",
                    "indexes": {
                        "data": 0,
                        "gas": 0,
                        "value": 0
                    }
                },
                {
                    "hash": "06259de55ac8c10ed6a546a0e62999fa583bcfda536b8ba4456270ec6fd9e7cb",
                    "logs": "1dcc4de8dec75d7aab85b567b6ccd41ad312451b948a7413f0a142fd40d49347",
                    "txbytes": "0xf860800a832dc6c094100000000000000000000000000000000000000001801ca085588c8950be75d51a1ea463c405de40d9ea221f948e70162b5a21e99a9a0ee2a03841aa9eb09e4e12313a04e2d6b0f271499a2945558c7d36b8ad6ed0ccd26236",
                    "indexes": {
                        "data": 0,
                        "gas": 0,
                        "value": 1
                    }
                }
            ],
            "ETC_Phoenix": [
                {
                    "hash": "6d4d0f340fc03959e8fc02fc978c199f68d45d283a111dc6ba380486826e395e",
                    "logs": "1dcc4de8dec75d7aab85b567b6ccd41ad312451b948a7413f0a142fd40d49347",
                    "txbytes": "0xf860800a832dc6c094100000000000000000000000000000000000000080801ba07763c200d265ba0050627c8c7b4c19bf118b3581a3de22dbcebdfcb6e8565790a0514908f638ddc4b1402230e34692f43bb92713ff2cad3627814cf6fb19ac2e43",
                    "indexes": {
                        "data": 0,
                        "gas": 0,
                        "value": 0
                    }
                },
                {
                    "hash": "8071e334699a4b46cedf41f3eddf993606cab7b7a16d738ed310ac5afb378f6d",
                    "logs": "1dcc4de8dec75d7aab85b567b6ccd41ad312451b948a7413f0a142fd40d49347",
                    "txbytes": "0xf860800a832dc6c094100000000000000000000000000000000000000001801ca085588c8950be75d51a1ea463c405de40d9ea221f948e70162b5a21e99a9a0ee2a03841aa9eb09e4e12313a04e2d6b0f271499a2945558c7d36b8ad6ed0ccd26236",
                    "indexes": {
                        "data": 0,
                        "gas": 0,
                        "value": 1
                    }
                }
            ]
        }
    }
}