{
    "static_CallAskMoreGasOnDepth2ThenTransactionHas": {
        "_info": {
            "comment": "",
            "filling-rpc-server": "evm version 1.10.16-unstable-0f893109-20220105",
            "filling-tool-version": "retesteth-0.2.2-testinfo+commit.01c6aac2.Linux.g++",
            "filledWith": "CoreGeth-1.12.9-unstable-4d59a861107c8232d6896811c48f229d30087be4",
            "lllcversion": "Version: 0.5.14-develop.2021.11.27+commit.401d5358.Linux.g++",
            "source": "src/GeneralStateTestsFiller/stStaticCall/static_CallAskMoreGasOnDepth2ThenTransactionHasFiller.json",
            "sourceHash": "fb843458eb162716283e60c01f3a17af9794c08c32fd3cbc4f11b6ac0d204ba7"
        },
        "env": {
            "currentCoinbase": "0x2adc25665018aa1fe0e6bc666dac8fc2697ff9ba",
            "currentDifficulty": "0x20000",
            "currentGasLimit": "0x989680",
            "currentNumber": "0x1",
            "currentTimestamp": "0x3e8",
            "currentBaseFee": "0xa",
            "previousHash": "0x5e20a0453cecd065ea59c37ac63e079ee08998b6045136a8ce6635c7912ec0b6"
        },
        "pre": {
            "0x1000000000000000000000000000000000000000": {
                "code": "0x6000600060006000346000355af1600055600160015500",
                "balance": "0x0"
            },
            "0x1000000000000000000000000000000000000107": {
                "code": "0x5a6008526000600060006000731000000000000000000000000000000000000108620927c0fa60095200",
                "balance": "0x0"
            },
            "0x1000000000000000000000000000000000000108": {
                "code": "0x600160085500",
                "balance": "0x0"
            },
            "0x2000000000000000000000000000000000000107": {
                "code": "0x5a6008526000600060006000732000000000000000000000000000000000000108620927c0fa60095200",
                "balance": "0x0"
            },
            "0x2000000000000000000000000000000000000108": {
                "code": "0x5a60085200",
                "balance": "0x0"
            },
            "0xa94f5374fce5edbc8e2a8697c15331677e6ebf0b": {
                "balance": "0xe8d4a51000"
            },
            "0xb94f5374fce5edbc8e2a8697c15331677e6ebf0b": {
                "code": "0x6001600855600060006000600073100000000000000000000000000000000000010762030d40fa60095500",
                "balance": "0x0"
            },
            "0xc94f5374fce5edbc8e2a8697c15331677e6ebf0b": {
                "code": "0x6001600855600060006000600073200000000000000000000000000000000000010762030d40fa60095500",
                "balance": "0x0"
            }
        },
        "transaction": {
            "gasPrice": "0xa",
            "nonce": "0x0",
            "to": "0x1000000000000000000000000000000000000000",
            "data": [
                "0x000000000000000000000000b94f5374fce5edbc8e2a8697c15331677e6ebf0b",
                "0x000000000000000000000000c94f5374fce5edbc8e2a8697c15331677e6ebf0b"
            ],
            "gasLimit": [
                "0x927c0"
            ],
            "value": [
                "0x00"
            ],
            "secretKey": "0x45a915e4d060149eb4365960e6a7a45f334393093061116b197e3240065ff2d8",
            "sender": "0xa94f5374fce5edbc8e2a8697c15331677e6ebf0b"
        },
        "post": {
            "ETC_Magneto": [
                {
                    "hash": "8853b98e7143563dbc95e09d202e1402fb10811280bb8442adc8d1fe234306e5",
                    "logs": "1dcc4de8dec75d7aab85b567b6ccd41ad312451b948a7413f0a142fd40d49347",
                    "txbytes": "0xf880800a830927c094100000000000000000000000000000000000000080a0000000000000000000000000b94f5374fce5edbc8e2a8697c15331677e6ebf0b1ca0ae9873d3009d7ae8de25731167578dc9529ee0b9b426804e9ab97fcfb99b0ff1a01cdd876e136c164ba4d985f32a62c8c3e5778e91bca1718c3f75d05d491dc556",
                    "indexes": {
                        "data": 0,
                        "gas": 0,
                        "value": 0
                    }
                },
                {
                    "hash": "27e54742a8660de5a5622a21778eb9a08917db8f703960e0f08898a58fba19ac",
                    "logs": "1dcc4de8dec75d7aab85b567b6ccd41ad312451b948a7413f0a142fd40d49347",
                    "txbytes": "0xf880800a830927c094100000000000000000000000000000000000000080a0000000000000000000000000c94f5374fce5edbc8e2a8697c15331677e6ebf0b1ba0fc63c034eab0c1d958cdf3ce0b184808d3d0b90501f2de7a93d5b711612ec63aa07d5fd5679516a5c0c7a275a26680211315916a6d9b0a6ca1e9c68fc1ecdfe7d3",
                    "indexes": {
                        "data": 1,
                        "gas": 0,
                        "value": 0
                    }
                }
            ],
            "ETC_Mystique": [
                {
                    "hash": "8853b98e7143563dbc95e09d202e1402fb10811280bb8442adc8d1fe234306e5",
                    "logs": "1dcc4de8dec75d7aab85b567b6ccd41ad312451b948a7413f0a142fd40d49347",
                    "txbytes": "0xf880800a830927c094100000000000000000000000000000000000000080a0000000000000000000000000b94f5374fce5edbc8e2a8697c15331677e6ebf0b1ca0ae9873d3009d7ae8de25731167578dc9529ee0b9b426804e9ab97fcfb99b0ff1a01cdd876e136c164ba4d985f32a62c8c3e5778e91bca1718c3f75d05d491dc556",
                    "indexes": {
                        "data": 0,
                        "gas": 0,
                        "value": 0
                    }
                },
                {
                    "hash": "27e54742a8660de5a5622a21778eb9a08917db8f703960e0f08898a58fba19ac",
                    "logs": "1dcc4de8dec75d7aab85b567b6ccd41ad312451b948a7413f0a142fd40d49347",
                    "txbytes": "0xf880800a830927c094100000000000000000000000000000000000000080a0000000000000000000000000c94f5374fce5edbc8e2a8697c15331677e6ebf0b1ba0fc63c034eab0c1d958cdf3ce0b184808d3d0b90501f2de7a93d5b711612ec63aa07d5fd5679516a5c0c7a275a26680211315916a6d9b0a6ca1e9c68fc1ecdfe7d3",
                    "indexes": {
                        "data": 1,
                        "gas": 0,
                        "value": 0
                    }
                }
            ],
            "ETC_Phoenix": [
                {
                    "hash": "7a3d991056d8ac713fce3ba9141a9fcd3593b782eec4df8b25fbe42c43d8e744",
                    "logs": "1dcc4de8dec75d7aab85b567b6ccd41ad312451b948a7413f0a142fd40d49347",
                    "txbytes": "0xf880800a830927c094100000000000000000000000000000000000000080a0000000000000000000000000b94f5374fce5edbc8e2a8697c15331677e6ebf0b1ca0ae9873d3009d7ae8de25731167578dc9529ee0b9b426804e9ab97fcfb99b0ff1a01cdd876e136c164ba4d985f32a62c8c3e5778e91bca1718c3f75d05d491dc556",
                    "indexes": {
                        "data": 0,
                        "gas": 0,
                        "value": 0
                    }
                },
                {
                    "hash": "c2bd94f662daa2b2bd58f75ad50a5612f7b9bc9ea906ae9218dbddba3c6d3311",
                    "logs": "1dcc4de8dec75d7aab85b567b6ccd41ad312451b948a7413f0a142fd40d49347",
                    "txbytes": "0xf880800a830927c094100000000000000000000000000000000000000080a0000000000000000000000000c94f5374fce5edbc8e2a8697c15331677e6ebf0b1ba0fc63c034eab0c1d958cdf3ce0b184808d3d0b90501f2de7a93d5b711612ec63aa07d5fd5679516a5c0c7a275a26680211315916a6d9b0a6ca1e9c68fc1ecdfe7d3",
                    "indexes": {
                        "data": 1,
                        "gas": 0,
                        "value": 0
                    }
                }
            ]
        }
    }
}