{
    "static_CallGoesOOGOnSecondLevel": {
        "_info": {
            "comment": "",
            "filling-rpc-server": "evm version 1.10.16-unstable-0f893109-20220105",
            "filling-tool-version": "retesteth-0.2.2-testinfo+commit.01c6aac2.Linux.g++",
            "filledWith": "CoreGeth-1.12.9-unstable-d390462df9df233b60b4cd7a37db5b3043832022",
            "lllcversion": "Version: 0.5.14-develop.2021.11.27+commit.401d5358.Linux.g++",
            "source": "src/GeneralStateTestsFiller/stStaticCall/static_CallGoesOOGOnSecondLevelFiller.json",
            "sourceHash": "178012ea9f77f2c6e77b75c8fbbdda55c73e81ea7c699c8a28b32a5b3bcb18a0"
        },
        "env": {
            "currentCoinbase": "0x2adc25665018aa1fe0e6bc666dac8fc2697ff9ba",
            "currentDifficulty": "0x20000",
            "currentGasLimit": "0x989680",
            "currentNumber": "0x1",
            "currentTimestamp": "0x3e8",
            "previousHash": "0x5e20a0453cecd065ea59c37ac63e079ee08998b6045136a8ce6635c7912ec0b6"
        },
        "pre": {
            "0x1000000000000000000000000000000000000110": {
                "code": "0x5a6008526000600060006000731000000000000000000000000000000000000111620927c0fa60095200",
                "balance": "0x0",
                "nonce": "0x0"
            },
            "0x1000000000000000000000000000000000000111": {
                "code": "0x622fffff60002000",
                "balance": "0x0",
                "nonce": "0x0"
            },
            "0xa94f5374fce5edbc8e2a8697c15331677e6ebf0b": {
                "code": "0x",
                "balance": "0xe8d4a51000",
                "nonce": "0x0"
            },
            "0xb94f5374fce5edbc8e2a8697c15331677e6ebf0b": {
                "code": "0x6000600060006000731000000000000000000000000000000000000110620927c0fa6009555a600a5500",
                "balance": "0x0",
                "nonce": "0x0"
            }
        },
        "transaction": {
            "gasPrice": "0xa",
            "nonce": "0x0",
            "to": "0xb94f5374fce5edbc8e2a8697c15331677e6ebf0b",
            "data": [
                "0x"
            ],
            "gasLimit": [
                "0x35b60"
            ],
            "value": [
                "0x00"
            ],
            "secretKey": "0x45a915e4d060149eb4365960e6a7a45f334393093061116b197e3240065ff2d8",
            "sender": "0xa94f5374fce5edbc8e2a8697c15331677e6ebf0b"
        },
        "post": {
            "ETC_Magneto": [
                {
                    "hash": "c82c749d34680b7aedb4b73b32a0ae5bd2d3cc73032cdf083a2cf72e4058fcbf",
                    "logs": "1dcc4de8dec75d7aab85b567b6ccd41ad312451b948a7413f0a142fd40d49347",
                    "txbytes": "0xf860800a83035b6094b94f5374fce5edbc8e2a8697c15331677e6ebf0b80801ba0ffa221058227d8d75f72c77be7c1d7e425e6125b7af0bcffda85586f96716e64a03234060c471eb67a8ff588066a6767bbbd5456de6cd7d0f50abcd45558bab8a6",
                    "indexes": {
                        "data": 0,
                        "gas": 0,
                        "value": 0
                    }
                }
            ],
            "ETC_Mystique": [
                {
                    "hash": "c82c749d34680b7aedb4b73b32a0ae5bd2d3cc73032cdf083a2cf72e4058fcbf",
                    "logs": "1dcc4de8dec75d7aab85b567b6ccd41ad312451b948a7413f0a142fd40d49347",
                    "txbytes": "0xf860800a83035b6094b94f5374fce5edbc8e2a8697c15331677e6ebf0b80801ba0ffa221058227d8d75f72c77be7c1d7e425e6125b7af0bcffda85586f96716e64a03234060c471eb67a8ff588066a6767bbbd5456de6cd7d0f50abcd45558bab8a6",
                    "indexes": {
                        "data": 0,
                        "gas": 0,
                        "value": 0
                    }
                }
            ],
            "ETC_Phoenix": [
                {
                    "hash": "c82c749d34680b7aedb4b73b32a0ae5bd2d3cc73032cdf083a2cf72e4058fcbf",
                    "logs": "1dcc4de8dec75d7aab85b567b6ccd41ad312451b948a7413f0a142fd40d49347",
                    "txbytes": "0xf860800a83035b6094b94f5374fce5edbc8e2a8697c15331677e6ebf0b80801ba0ffa221058227d8d75f72c77be7c1d7e425e6125b7af0bcffda85586f96716e64a03234060c471eb67a8ff588066a6767bbbd5456de6cd7d0f50abcd45558bab8a6",
                    "indexes": {
                        "data": 0,
                        "gas": 0,
                        "value": 0
                    }
                }
            ]
        }
    }
}