{
    "static_Return50000_2": {
        "_info": {
            "comment": "",
            "filling-rpc-server": "evm version 1.10.16-unstable-0f893109-20220105",
            "filling-tool-version": "retesteth-0.2.2-testinfo+commit.01c6aac2.Linux.g++",
            "filledWith": "CoreGeth-1.12.9-unstable-d390462df9df233b60b4cd7a37db5b3043832022",
            "lllcversion": "Version: 0.5.14-develop.2021.11.27+commit.401d5358.Linux.g++",
            "source": "src/GeneralStateTestsFiller/stStaticCall/static_Return50000_2Filler.json",
            "sourceHash": "179845fb489b9fd6e16f2e213abaa4411ad0420ade67db5fada42eb8db4fc1a5"
        },
        "env": {
            "currentCoinbase": "0xb94f5374fce5edbc8e2a8697c15331677e6ebf0b",
            "currentDifficulty": "0x20000",
            "currentGasLimit": "0x551d8d0",
            "currentNumber": "0x1",
            "currentTimestamp": "0x3e8",
            "previousHash": "0x5e20a0453cecd065ea59c37ac63e079ee08998b6045136a8ce6635c7912ec0b6"
        },
        "pre": {
            "0x10bf5374fce5edbc8e2a8697c15331677e6ebf0b": {
                "code": "0x6000600060006000600073bbbf5374fce5edbc8e2a8697c15331677e6ebf0b5af1600055600160015500",
                "balance": "0xfffffffffffff",
                "nonce": "0x0"
            },
            "0xa94f5374fce5edbc8e2a8697c15331677e6ebf0b": {
                "code": "0x",
                "balance": "0xffffffffffffffffffffffffffffffff",
                "nonce": "0x0"
            },
            "0xaaaf5374fce5edbc8e2a8697c15331677e6ebf0b": {
                "code": "0x61c34f356000526001600051f300",
                "balance": "0xfffffffffffff",
                "nonce": "0x0"
            },
            "0xbbbf5374fce5edbc8e2a8697c15331677e6ebf0b": {
                "code": "0x5b61c3506080511015603d576000600061c350600073aaaf5374fce5edbc8e2a8697c15331677e6ebf0b61061cfa6000556001608051016080526000565b60805160015500",
                "balance": "0xfffffffffffff",
                "nonce": "0x0"
            }
        },
        "transaction": {
            "gasPrice": "0xa",
            "nonce": "0x0",
            "to": "0x10bf5374fce5edbc8e2a8697c15331677e6ebf0b",
            "data": [
                "0x"
            ],
            "gasLimit": [
                "0x5429690"
            ],
            "value": [
                "0x0a"
            ],
            "secretKey": "0x45a915e4d060149eb4365960e6a7a45f334393093061116b197e3240065ff2d8",
            "sender": "0xa94f5374fce5edbc8e2a8697c15331677e6ebf0b"
        },
        "post": {
            "ETC_Magneto": [
                {
                    "hash": "373d80c39037de57dcfd50cf01e59d18cd8b7f1c01e3b70af27bc4f52d40bdf9",
                    "logs": "1dcc4de8dec75d7aab85b567b6ccd41ad312451b948a7413f0a142fd40d49347",
                    "txbytes": "0xf861800a84054296909410bf5374fce5edbc8e2a8697c15331677e6ebf0b0a801ba0c8255cf7a40d2f1314fb62c983e837566910faa6d008f592ea270a6492765d80a00c8e08c40dd6cf006fd5e5bf22d6d9a73716adf5685029f792b3963f2ece2b34",
                    "indexes": {
                        "data": 0,
                        "gas": 0,
                        "value": 0
                    }
                }
            ],
            "ETC_Mystique": [
                {
                    "hash": "373d80c39037de57dcfd50cf01e59d18cd8b7f1c01e3b70af27bc4f52d40bdf9",
                    "logs": "1dcc4de8dec75d7aab85b567b6ccd41ad312451b948a7413f0a142fd40d49347",
                    "txbytes": "0xf861800a84054296909410bf5374fce5edbc8e2a8697c15331677e6ebf0b0a801ba0c8255cf7a40d2f1314fb62c983e837566910faa6d008f592ea270a6492765d80a00c8e08c40dd6cf006fd5e5bf22d6d9a73716adf5685029f792b3963f2ece2b34",
                    "indexes": {
                        "data": 0,
                        "gas": 0,
                        "value": 0
                    }
                }
            ],
            "ETC_Phoenix": [
                {
                    "hash": "975a04aa0b615872f6fdd5c0219f10afe30730e0861ed875d66a9761b5d8a01c",
                    "logs": "1dcc4de8dec75d7aab85b567b6ccd41ad312451b948a7413f0a142fd40d49347",
                    "txbytes": "0xf861800a84054296909410bf5374fce5edbc8e2a8697c15331677e6ebf0b0a801ba0c8255cf7a40d2f1314fb62c983e837566910faa6d008f592ea270a6492765d80a00c8e08c40dd6cf006fd5e5bf22d6d9a73716adf5685029f792b3963f2ece2b34",
                    "indexes": {
                        "data": 0,
                        "gas": 0,
                        "value": 0
                    }
                }
            ]
        }
    }
}