{
    "static_callcall_00_OOGE_2": {
        "_info": {
            "comment": "",
            "filling-rpc-server": "evm version 1.10.16-unstable-0f893109-20220105",
            "filling-tool-version": "retesteth-0.2.2-testinfo+commit.01c6aac2.Linux.g++",
            "filledWith": "CoreGeth-1.12.9-unstable-f4059ddd82d975bdc54fa648e5422a80172161cb",
            "lllcversion": "Version: 0.5.14-develop.2021.11.27+commit.401d5358.Linux.g++",
            "source": "src/GeneralStateTestsFiller/stStaticCall/static_callcall_00_OOGE_2Filler.json",
            "sourceHash": "d0f0d69b63fde708439476a7236d8355913130816d4ed6c2cfe070d216820207"
        },
        "env": {
            "currentCoinbase": "2adc25665018aa1fe0e6bc666dac8fc2697ff9ba",
            "currentDifficulty": "0x20000",
            "currentRandom": null,
            "currentGasLimit": "0x1c9c380",
            "currentNumber": "0x1",
            "currentTimestamp": "0x3e8",
            "currentBaseFee": "0xa"
        },
        "pre": {
            "0x1000000000000000000000000000000000000000": {
                "code": "0x6040600060406000731000000000000000000000000000000000000001620249f0fa60005500",
                "balance": "0xde0b6b3a7640000"
            },
            "0x1000000000000000000000000000000000000001": {
                "code": "0x60016002526040600060406000731000000000000000000000000000000000000002620186a0fa50600160205200",
                "balance": "0xde0b6b3a7640000"
            },
            "0x1000000000000000000000000000000000000002": {
                "code": "0x60016002553460055500",
                "balance": "0x0"
            },
            "0x2000000000000000000000000000000000000000": {
                "code": "0x6040600060406000732000000000000000000000000000000000000001620249f0fa60005500",
                "balance": "0xde0b6b3a7640000"
            },
            "0x2000000000000000000000000000000000000001": {
                "code": "0x60016002526040600060406000732000000000000000000000000000000000000002620186a0fa50600160205200",
                "balance": "0xde0b6b3a7640000"
            },
            "0x2000000000000000000000000000000000000002": {
                "code": "0x5b61c3506080511015601c5760013b506001608051016080526000565b00",
                "balance": "0x0"
            },
            "0xa000000000000000000000000000000000000000": {
                "code": "0x6000600060006000346000355af1600055600160015500",
                "balance": "0x0"
            },
            "0xa94f5374fce5edbc8e2a8697c15331677e6ebf0b": {
                "balance": "0xde0b6b3a7640000"
            }
        },
        "transaction": {
            "gasPrice": "0xa",
            "maxFeePerGas": null,
            "maxPriorityFeePerGas": null,
            "nonce": "0x0",
            "to": "0xa000000000000000000000000000000000000000",
            "data": [
                "0x0000000000000000000000001000000000000000000000000000000000000000",
                "0x0000000000000000000000002000000000000000000000000000000000000000"
            ],
            "gasLimit": [
                "0x24a32"
            ],
            "value": [
                "0x00"
            ],
            "secretKey": "0x45a915e4d060149eb4365960e6a7a45f334393093061116b197e3240065ff2d8"
        },
        "out": "0x",
        "post": {
            "ETC_Magneto": [
                {
                    "hash": "01c04d7be04384958de597a06e1995e3ff7f5958a45a9a95a7b49f2ec9b7e31c",
                    "logs": "1dcc4de8dec75d7aab85b567b6ccd41ad312451b948a7413f0a142fd40d49347",
                    "txbytes": "0xf880800a83024a3294a00000000000000000000000000000000000000080a000000000000000000000000010000000000000000000000000000000000000001ba0f7110d63c8633b5838030e64501917937561dc81233f68642bd0b03a4f158838a04fa360ff037ac3edf1ba8a9323835301fb47e92366ce4d6c20de2090756819ca",
                    "indexes": {
                        "data": 0,
                        "gas": 0,
                        "value": 0
                    }
                },
                {
                    "hash": "01c04d7be04384958de597a06e1995e3ff7f5958a45a9a95a7b49f2ec9b7e31c",
                    "logs": "1dcc4de8dec75d7aab85b567b6ccd41ad312451b948a7413f0a142fd40d49347",
                    "txbytes": "0xf880800a83024a3294a00000000000000000000000000000000000000080a000000000000000000000000020000000000000000000000000000000000000001ca0c1af1625e65b46ecb6f235aa3dded11411b7e40ae086bbc6e3141bfb1fa6aa5da07deffe38d7f6aeb6b0c963d145c92cfce65251cae60db30ee394982aefe77ec2",
                    "indexes": {
                        "data": 1,
                        "gas": 0,
                        "value": 0
                    }
                }
            ],
            "ETC_Mystique": [
                {
                    "hash": "01c04d7be04384958de597a06e1995e3ff7f5958a45a9a95a7b49f2ec9b7e31c",
                    "logs": "1dcc4de8dec75d7aab85b567b6ccd41ad312451b948a7413f0a142fd40d49347",
                    "txbytes": "0xf880800a83024a3294a00000000000000000000000000000000000000080a000000000000000000000000010000000000000000000000000000000000000001ba0f7110d63c8633b5838030e64501917937561dc81233f68642bd0b03a4f158838a04fa360ff037ac3edf1ba8a9323835301fb47e92366ce4d6c20de2090756819ca",
                    "indexes": {
                        "data": 0,
                        "gas": 0,
                        "value": 0
                    }
                },
                {
                    "hash": "01c04d7be04384958de597a06e1995e3ff7f5958a45a9a95a7b49f2ec9b7e31c",
                    "logs": "1dcc4de8dec75d7aab85b567b6ccd41ad312451b948a7413f0a142fd40d49347",
                    "txbytes": "0xf880800a83024a3294a00000000000000000000000000000000000000080a000000000000000000000000020000000000000000000000000000000000000001ca0c1af1625e65b46ecb6f235aa3dded11411b7e40ae086bbc6e3141bfb1fa6aa5da07deffe38d7f6aeb6b0c963d145c92cfce65251cae60db30ee394982aefe77ec2",
                    "indexes": {
                        "data": 1,
                        "gas": 0,
                        "value": 0
                    }
                }
            ],
            "ETC_Phoenix": [
                {
                    "hash": "01c04d7be04384958de597a06e1995e3ff7f5958a45a9a95a7b49f2ec9b7e31c",
                    "logs": "1dcc4de8dec75d7aab85b567b6ccd41ad312451b948a7413f0a142fd40d49347",
                    "txbytes": "0xf880800a83024a3294a00000000000000000000000000000000000000080a000000000000000000000000010000000000000000000000000000000000000001ba0f7110d63c8633b5838030e64501917937561dc81233f68642bd0b03a4f158838a04fa360ff037ac3edf1ba8a9323835301fb47e92366ce4d6c20de2090756819ca",
                    "indexes": {
                        "data": 0,
                        "gas": 0,
                        "value": 0
                    }
                },
                {
                    "hash": "01c04d7be04384958de597a06e1995e3ff7f5958a45a9a95a7b49f2ec9b7e31c",
                    "logs": "1dcc4de8dec75d7aab85b567b6ccd41ad312451b948a7413f0a142fd40d49347",
                    "txbytes": "0xf880800a83024a3294a00000000000000000000000000000000000000080a000000000000000000000000020000000000000000000000000000000000000001ca0c1af1625e65b46ecb6f235aa3dded11411b7e40ae086bbc6e3141bfb1fa6aa5da07deffe38d7f6aeb6b0c963d145c92cfce65251cae60db30ee394982aefe77ec2",
                    "indexes": {
                        "data": 1,
                        "gas": 0,
                        "value": 0
                    }
                }
            ]
        }
    }
}