{
    "static_makeMoney": {
        "_info": {
            "comment": "",
            "filling-rpc-server": "evm version 1.10.16-unstable-0f893109-20220105",
            "filling-tool-version": "retesteth-0.2.2-testinfo+commit.01c6aac2.Linux.g++",
            "filledWith": "CoreGeth-1.12.9-unstable-d390462df9df233b60b4cd7a37db5b3043832022",
            "lllcversion": "Version: 0.5.14-develop.2021.11.27+commit.401d5358.Linux.g++",
            "source": "src/GeneralStateTestsFiller/stStaticCall/static_makeMoneyFiller.json",
            "sourceHash": "1fdd087ebb7f158222c68769db569c1a65227625cf9547142fb53f7efec602fc"
        },
        "env": {
            "currentCoinbase": "0x2adc25665018aa1fe0e6bc666dac8fc2697ff9ba",
            "currentDifficulty": "0x20000",
            "currentGasLimit": "0xf4240",
            "currentNumber": "0x1",
            "currentTimestamp": "0x3e8",
            "previousHash": "0x5e20a0453cecd065ea59c37ac63e079ee08998b6045136a8ce6635c7912ec0b6"
        },
        "pre": {
            "0x095e7baea6a6c7c4c2dfeb977efac326af552d87": {
                "code": "0x7b601080600c6000396000f20060003554156009570060203560003555600052600060006000600073aaaaaaaaace5edbc8e2a8697c15331677e6ebf0b7fffffffffffffffffffffffffffffffffffffffffffffffffffffffffffffffecfa00",
                "balance": "0xde0b6b3a7640000",
                "nonce": "0x0"
            },
            "0xa94f5374fce5edbc8e2a8697c15331677e6ebf0b": {
                "code": "0x",
                "balance": "0x5f5e100",
                "nonce": "0x0"
            },
            "0xaaaaaaaaace5edbc8e2a8697c15331677e6ebf0b": {
                "code": "0x600160015532600255",
                "balance": "0xde0b6b3a7640000",
                "nonce": "0x0"
            }
        },
        "transaction": {
            "gasPrice": "0xa",
            "nonce": "0x0",
            "to": "0x095e7baea6a6c7c4c2dfeb977efac326af552d87",
            "data": [
                "0x"
            ],
            "gasLimit": [
                "0x37c94"
            ],
            "value": [
                "0x0a"
            ],
            "secretKey": "0x45a915e4d060149eb4365960e6a7a45f334393093061116b197e3240065ff2d8",
            "sender": "0xa94f5374fce5edbc8e2a8697c15331677e6ebf0b"
        },
        "post": {
            "ETC_Magneto": [
                {
                    "hash": "76afb6697f0b9c2de1fa22974e6cf1190024cb8bbcca09c31e3777204758af7c",
                    "logs": "1dcc4de8dec75d7aab85b567b6ccd41ad312451b948a7413f0a142fd40d49347",
                    "txbytes": "0xf860800a83037c9494095e7baea6a6c7c4c2dfeb977efac326af552d870a801ba0b07974995e9a9397bd9ee2cd20d94561a8b24b540495d57095bd3c8eef318bdaa0675ab3cd023f6d479de46a677e1e13b12833acfce3243fb86951cd903dd37357",
                    "indexes": {
                        "data": 0,
                        "gas": 0,
                        "value": 0
                    }
                }
            ],
            "ETC_Mystique": [
                {
                    "hash": "76afb6697f0b9c2de1fa22974e6cf1190024cb8bbcca09c31e3777204758af7c",
                    "logs": "1dcc4de8dec75d7aab85b567b6ccd41ad312451b948a7413f0a142fd40d49347",
                    "txbytes": "0xf860800a83037c9494095e7baea6a6c7c4c2dfeb977efac326af552d870a801ba0b07974995e9a9397bd9ee2cd20d94561a8b24b540495d57095bd3c8eef318bdaa0675ab3cd023f6d479de46a677e1e13b12833acfce3243fb86951cd903dd37357",
                    "indexes": {
                        "data": 0,
                        "gas": 0,
                        "value": 0
                    }
                }
            ],
            "ETC_Phoenix": [
                {
                    "hash": "00ee9fef7cb39bf82bf4acca405935e6de93fef2011f1a9b34a68a3afdedd5e5",
                    "logs": "1dcc4de8dec75d7aab85b567b6ccd41ad312451b948a7413f0a142fd40d49347",
                    "txbytes": "0xf860800a83037c9494095e7baea6a6c7c4c2dfeb977efac326af552d870a801ba0b07974995e9a9397bd9ee2cd20d94561a8b24b540495d57095bd3c8eef318bdaa0675ab3cd023f6d479de46a677e1e13b12833acfce3243fb86951cd903dd37357",
                    "indexes": {
                        "data": 0,
                        "gas": 0,
                        "value": 0
                    }
                }
            ]
        }
    }
}