{
    "static_Call1024OOG": {
        "_info": {
            "comment": "",
            "filling-rpc-server": "evm version 1.10.16-unstable-0f893109-20220105",
            "filling-tool-version": "retesteth-0.2.2-testinfo+commit.01c6aac2.Linux.g++",
            "filledWith": "CoreGeth-1.12.9-unstable-f4059ddd82d975bdc54fa648e5422a80172161cb",
            "lllcversion": "Version: 0.5.14-develop.2021.11.27+commit.401d5358.Linux.g++",
            "source": "src/GeneralStateTestsFiller/stStaticCall/static_Call1024OOGFiller.json",
            "sourceHash": "fc565b0756cf6a11dbdb384441a5d26bdf75fc6fcf08129da3ba88ee45b74e2a"
        },
        "env": {
            "currentCoinbase": "b94f5374fce5edbc8e2a8697c15331677e6ebf0b",
            "currentDifficulty": "0x20000",
            "currentRandom": null,
            "currentGasLimit": "0x7fffffffffffffff",
            "currentNumber": "0x1",
            "currentTimestamp": "0x3e8",
            "currentBaseFee": "0xa"
        },
        "pre": {
            "0x1000000000000000000000000000000000000000": {
                "code": "0x6000600060006000346000355af1600055600160015500",
                "balance": "0x0"
            },
            "0xa94f5374fce5edbc8e2a8697c15331677e6ebf0b": {
                "balance": "0xffffffffffffffffffffffffffffffff"
            },
            "0xaaaf5374fce5edbc8e2a8697c15331677e6ebf0b": {
                "balance": "0x1b58"
            },
            "0xbbbf5374fce5edbc8e2a8697c15331677e6ebf0b": {
                "code": "0x600160005401600055600060006000600073bbbf5374fce5edbc8e2a8697c15331677e6ebf0b610401600054046001036127105a0302fa6001556103e86000540260010160025500",
                "balance": "0x400"
            },
            "0xcbbf5374fce5edbc8e2a8697c15331677e6ebf0b": {
                "code": "0x600160005101600052600060006000600073cbbf5374fce5edbc8e2a8697c15331677e6ebf0b610401600051046001036127105a0302fa506103e86000510260010160205200",
                "balance": "0x400"
            }
        },
        "transaction": {
            "gasPrice": "0xa",
            "maxFeePerGas": null,
            "maxPriorityFeePerGas": null,
            "nonce": "0x0",
            "to": "0x1000000000000000000000000000000000000000",
            "data": [
                "0x000000000000000000000000bbbf5374fce5edbc8e2a8697c15331677e6ebf0b",
                "0x000000000000000000000000cbbf5374fce5edbc8e2a8697c15331677e6ebf0b"
            ],
            "gasLimit": [
                "0xefe17a"
            ],
            "value": [
                "0x0a"
            ],
            "secretKey": "0x45a915e4d060149eb4365960e6a7a45f334393093061116b197e3240065ff2d8"
        },
        "out": "0x",
        "post": {
            "ETC_Magneto": [
                {
                    "hash": "f3275886788d3b7ab0dfc8f4cbe7195592e90d063f8fa66444519e6485156303",
                    "logs": "1dcc4de8dec75d7aab85b567b6ccd41ad312451b948a7413f0a142fd40d49347",
                    "txbytes": "0xf880800a83efe17a9410000000000000000000000000000000000000000aa0000000000000000000000000bbbf5374fce5edbc8e2a8697c15331677e6ebf0b1ba00933aaf81fdecb9275ee359b87279ccea8051cd933dc751cd204c9b43c86b651a0050663f862f58ced16f144a2ce7044bd3e7970b5cfcac394c953cd0a32a0ce31",
                    "indexes": {
                        "data": 0,
                        "gas": 0,
                        "value": 0
                    }
                },
                {
                    "hash": "090c5dba6902a0c9c9ba0c3cb480511b24c25d74f5ad9187fb48db7abb907e15",
                    "logs": "1dcc4de8dec75d7aab85b567b6ccd41ad312451b948a7413f0a142fd40d49347",
                    "txbytes": "0xf880800a83efe17a9410000000000000000000000000000000000000000aa0000000000000000000000000cbbf5374fce5edbc8e2a8697c15331677e6ebf0b1ca0671712b910ccc75616f5e145ab401423ca8c2c3dfa8897e2b420b14e4d7ea69ca007b0981b17ac8fa55f03d4968f12e08f8da061a3057c47174bb7aac47a29688e",
                    "indexes": {
                        "data": 1,
                        "gas": 0,
                        "value": 0
                    }
                }
            ],
            "ETC_Mystique": [
                {
                    "hash": "f3275886788d3b7ab0dfc8f4cbe7195592e90d063f8fa66444519e6485156303",
                    "logs": "1dcc4de8dec75d7aab85b567b6ccd41ad312451b948a7413f0a142fd40d49347",
                    "txbytes": "0xf880800a83efe17a9410000000000000000000000000000000000000000aa0000000000000000000000000bbbf5374fce5edbc8e2a8697c15331677e6ebf0b1ba00933aaf81fdecb9275ee359b87279ccea8051cd933dc751cd204c9b43c86b651a0050663f862f58ced16f144a2ce7044bd3e7970b5cfcac394c953cd0a32a0ce31",
                    "indexes": {
                        "data": 0,
                        "gas": 0,
                        "value": 0
                    }
                },
                {
                    "hash": "090c5dba6902a0c9c9ba0c3cb480511b24c25d74f5ad9187fb48db7abb907e15",
                    "logs": "1dcc4de8dec75d7aab85b567b6ccd41ad312451b948a7413f0a142fd40d49347",
                    "txbytes": "0xf880800a83efe17a9410000000000000000000000000000000000000000aa0000000000000000000000000cbbf5374fce5edbc8e2a8697c15331677e6ebf0b1ca0671712b910ccc75616f5e145ab401423ca8c2c3dfa8897e2b420b14e4d7ea69ca007b0981b17ac8fa55f03d4968f12e08f8da061a3057c47174bb7aac47a29688e",
                    "indexes": {
                        "data": 1,
                        "gas": 0,
                        "value": 0
                    }
                }
            ],
            "ETC_Phoenix": [
                {
                    "hash": "6238bdabc3ab6dbd953aae2cc7e099204cb6e46ab2b447ee07dee1dadfdb9bec",
                    "logs": "1dcc4de8dec75d7aab85b567b6ccd41ad312451b948a7413f0a142fd40d49347",
                    "txbytes": "0xf880800a83efe17a9410000000000000000000000000000000000000000aa0000000000000000000000000bbbf5374fce5edbc8e2a8697c15331677e6ebf0b1ba00933aaf81fdecb9275ee359b87279ccea8051cd933dc751cd204c9b43c86b651a0050663f862f58ced16f144a2ce7044bd3e7970b5cfcac394c953cd0a32a0ce31",
                    "indexes": {
                        "data": 0,
                        "gas": 0,
                        "value": 0
                    }
                },
                {
                    "hash": "4cefecf761440ac23cf14755c8e307ee4dafc911daa6cb0aba9667e61ad392cb",
                    "logs": "1dcc4de8dec75d7aab85b567b6ccd41ad312451b948a7413f0a142fd40d49347",
                    "txbytes": "0xf880800a83efe17a9410000000000000000000000000000000000000000aa0000000000000000000000000cbbf5374fce5edbc8e2a8697c15331677e6ebf0b1ca0671712b910ccc75616f5e145ab401423ca8c2c3dfa8897e2b420b14e4d7ea69ca007b0981b17ac8fa55f03d4968f12e08f8da061a3057c47174bb7aac47a29688e",
                    "indexes": {
                        "data": 1,
                        "gas": 0,
                        "value": 0
                    }
                }
            ]
        }
    }
}