{
    "static_callcall_00_OOGE_1": {
        "_info": {
            "comment": "",
            "filling-rpc-server": "evm version 1.10.16-unstable-0f893109-20220105",
            "filling-tool-version": "retesteth-0.2.2-testinfo+commit.01c6aac2.Linux.g++",
            "filledWith": "CoreGeth-1.12.9-unstable-4cf5b2b0837228e7d5eadba6a01ffb80e9288e21",
            "lllcversion": "Version: 0.5.14-develop.2021.11.27+commit.401d5358.Linux.g++",
            "source": "src/GeneralStateTestsFiller/stStaticCall/static_callcall_00_OOGE_1Filler.json",
            "sourceHash": "fb2ee0ddac786299bc50bf3afc99fcd28a2392e2e87ad80551ef60fddc51ca6d"
        },
        "env": {
            "currentCoinbase": "0x2adc25665018aa1fe0e6bc666dac8fc2697ff9ba",
            "currentDifficulty": "0x20000",
            "currentGasLimit": "0x1c9c380",
            "currentNumber": "0x1",
            "currentTimestamp": "0x3e8",
            "previousHash": "0x5e20a0453cecd065ea59c37ac63e079ee08998b6045136a8ce6635c7912ec0b6"
        },
        "pre": {
            "0x1000000000000000000000000000000000000000": {
                "code": "0x6040600060406000731000000000000000000000000000000000000001620249f0fa60005500",
                "balance": "0xde0b6b3a7640000",
                "nonce": "0x0"
            },
            "0x1000000000000000000000000000000000000001": {
                "code": "0x60016002526040600060406000731000000000000000000000000000000000000002620186a0fa50600160205200",
                "balance": "0xde0b6b3a7640000",
                "nonce": "0x0"
            },
            "0x1000000000000000000000000000000000000002": {
                "code": "0x60016002553460055500",
                "balance": "0x0",
                "nonce": "0x0"
            },
            "0x2000000000000000000000000000000000000000": {
                "code": "0x6040600060406000732000000000000000000000000000000000000001620249f0fa60005500",
                "balance": "0xde0b6b3a7640000",
                "nonce": "0x0"
            },
            "0x2000000000000000000000000000000000000001": {
                "code": "0x60016002526040600060406000732000000000000000000000000000000000000002620186a0fa50600160205200",
                "balance": "0xde0b6b3a7640000",
                "nonce": "0x0"
            },
            "0x2000000000000000000000000000000000000002": {
                "code": "0x5b61c3506080511015601c5760013b506001608051016080526000565b00",
                "balance": "0x0",
                "nonce": "0x0"
            },
            "0xa000000000000000000000000000000000000000": {
                "code": "0x6000600060006000346000355af1600055600160015500",
                "balance": "0x0",
                "nonce": "0x0"
            },
            "0xa94f5374fce5edbc8e2a8697c15331677e6ebf0b": {
                "code": "0x",
                "balance": "0xde0b6b3a7640000",
                "nonce": "0x0"
            }
        },
        "transaction": {
            "gasPrice": "0xa",
            "nonce": "0x0",
            "to": "0xa000000000000000000000000000000000000000",
            "data": [
                "0x0000000000000000000000001000000000000000000000000000000000000000",
                "0x0000000000000000000000002000000000000000000000000000000000000000"
            ],
            "gasLimit": [
                "0x5cca2"
            ],
            "value": [
                "0x00"
            ],
            "secretKey": "0x45a915e4d060149eb4365960e6a7a45f334393093061116b197e3240065ff2d8",
            "sender": "0xa94f5374fce5edbc8e2a8697c15331677e6ebf0b"
        },
        "post": {
            "ETC_Magneto": [
                {
                    "hash": "8563bb707f6c91d9e3fe348e30c3fd241c1cf767c7bd387baf178833644d8340",
                    "logs": "1dcc4de8dec75d7aab85b567b6ccd41ad312451b948a7413f0a142fd40d49347",
                    "txbytes": "0xf880800a8305cca294a00000000000000000000000000000000000000080a000000000000000000000000010000000000000000000000000000000000000001ba0522b5291354c7a26b9708e5138e373dae7d6b5caa8fc738d8f87a08a7e5d1b31a04936fc1ecaec7879c9b3868534fe5e96421c2c85015524ed39b7d2f3d406097c",
                    "indexes": {
                        "data": 0,
                        "gas": 0,
                        "value": 0
                    }
                },
                {
                    "hash": "c975d420118fe8ffc39f49f713c172fba498ba9c8b0f41918dc35316d18c52b5",
                    "logs": "1dcc4de8dec75d7aab85b567b6ccd41ad312451b948a7413f0a142fd40d49347",
                    "txbytes": "0xf880800a8305cca294a00000000000000000000000000000000000000080a000000000000000000000000020000000000000000000000000000000000000001ca04f3be0155b0e51d029ee7402047155a6644a9d3a373525748dbfd447874b9b3da0504e92420298d9f2668bb846a457738aa714776cae4c09b7f43c806c1afe807f",
                    "indexes": {
                        "data": 1,
                        "gas": 0,
                        "value": 0
                    }
                }
            ],
            "ETC_Mystique": [
                {
                    "hash": "8563bb707f6c91d9e3fe348e30c3fd241c1cf767c7bd387baf178833644d8340",
                    "logs": "1dcc4de8dec75d7aab85b567b6ccd41ad312451b948a7413f0a142fd40d49347",
                    "txbytes": "0xf880800a8305cca294a00000000000000000000000000000000000000080a000000000000000000000000010000000000000000000000000000000000000001ba0522b5291354c7a26b9708e5138e373dae7d6b5caa8fc738d8f87a08a7e5d1b31a04936fc1ecaec7879c9b3868534fe5e96421c2c85015524ed39b7d2f3d406097c",
                    "indexes": {
                        "data": 0,
                        "gas": 0,
                        "value": 0
                    }
                },
                {
                    "hash": "c975d420118fe8ffc39f49f713c172fba498ba9c8b0f41918dc35316d18c52b5",
                    "logs": "1dcc4de8dec75d7aab85b567b6ccd41ad312451b948a7413f0a142fd40d49347",
                    "txbytes": "0xf880800a8305cca294a00000000000000000000000000000000000000080a000000000000000000000000020000000000000000000000000000000000000001ca04f3be0155b0e51d029ee7402047155a6644a9d3a373525748dbfd447874b9b3da0504e92420298d9f2668bb846a457738aa714776cae4c09b7f43c806c1afe807f",
                    "indexes": {
                        "data": 1,
                        "gas": 0,
                        "value": 0
                    }
                }
            ],
            "ETC_Phoenix": [
                {
                    "hash": "c3d0cc3f1cb2a2f4aafb3dc00a09c1d95f5f5fa9d7f65c0ac1a9805b019e782d",
                    "logs": "1dcc4de8dec75d7aab85b567b6ccd41ad312451b948a7413f0a142fd40d49347",
                    "txbytes": "0xf880800a8305cca294a00000000000000000000000000000000000000080a000000000000000000000000010000000000000000000000000000000000000001ba0522b5291354c7a26b9708e5138e373dae7d6b5caa8fc738d8f87a08a7e5d1b31a04936fc1ecaec7879c9b3868534fe5e96421c2c85015524ed39b7d2f3d406097c",
                    "indexes": {
                        "data": 0,
                        "gas": 0,
                        "value": 0
                    }
                },
                {
                    "hash": "ee328c01baea675d301b4b2fcff153323da3e345eae08a0663e8e4c783fbd0aa",
                    "logs": "1dcc4de8dec75d7aab85b567b6ccd41ad312451b948a7413f0a142fd40d49347",
                    "txbytes": "0xf880800a8305cca294a00000000000000000000000000000000000000080a000000000000000000000000020000000000000000000000000000000000000001ca04f3be0155b0e51d029ee7402047155a6644a9d3a373525748dbfd447874b9b3da0504e92420298d9f2668bb846a457738aa714776cae4c09b7f43c806c1afe807f",
                    "indexes": {
                        "data": 1,
                        "gas": 0,
                        "value": 0
                    }
                }
            ]
        }
    }
}