{
    "static_ABAcalls3": {
        "_info": {
            "comment": "",
            "filling-rpc-server": "evm version 1.10.16-unstable-0f893109-20220105",
            "filling-tool-version": "retesteth-0.2.2-testinfo+commit.01c6aac2.Linux.g++",
            "filledWith": "CoreGeth-1.12.9-unstable-ab16c56768f0284ab56a30aac9550d3ebdc45901",
            "lllcversion": "Version: 0.5.14-develop.2021.11.27+commit.401d5358.Linux.g++",
            "source": "src/GeneralStateTestsFiller/stStaticCall/static_ABAcalls3Filler.json",
            "sourceHash": "33d97b1eaa83d2354c7c3f4946f54fe94db26d5c8284368c6040863722d44f86"
        },
        "env": {
            "currentCoinbase": "0x2adc25665018aa1fe0e6bc666dac8fc2697ff9ba",
            "currentDifficulty": "0x20000",
            "currentGasLimit": "0x3b9aca00",
            "currentNumber": "0x1",
            "currentTimestamp": "0x3e8",
            "currentBaseFee": "0xa",
            "previousHash": "0x5e20a0453cecd065ea59c37ac63e079ee08998b6045136a8ce6635c7912ec0b6"
        },
        "pre": {
            "0x095e7baea6a6c7c4c2dfeb977efac326af552d87": {
                "code": "0x600160005401600055600060006000600073945304eb96065b2a98b57a48a06ae28d285a71b5620186a05a03fa00",
                "balance": "0xfa3e8"
            },
            "0x1000000000000000000000000000000000000000": {
                "code": "0x6000600060006000346000355af1600055600160015500",
                "balance": "0x0"
            },
            "0x195e7baea6a6c7c4c2dfeb977efac326af552d87": {
                "code": "0x600160005401600052600060006000600073245304eb96065b2a98b57a48a06ae28d285a71b5620186a05a03fa00",
                "balance": "0xfa3e8"
            },
            "0x245304eb96065b2a98b57a48a06ae28d285a71b5": {
                "code": "0x600160005401600052600060006000600073195e7baea6a6c7c4c2dfeb977efac326af552d87620186a05a03fa00",
                "balance": "0x0"
            },
            "0x945304eb96065b2a98b57a48a06ae28d285a71b5": {
                "code": "0x600160005401600055600060006000600073095e7baea6a6c7c4c2dfeb977efac326af552d87620186a05a03fa00",
                "balance": "0x0"
            },
            "0xa94f5374fce5edbc8e2a8697c15331677e6ebf0b": {
                "balance": "0xde0b6b3a7640000"
            }
        },
        "transaction": {
            "gasPrice": "0xa",
            "nonce": "0x0",
            "to": "0x1000000000000000000000000000000000000000",
            "data": [
                "0x000000000000000000000000095e7baea6a6c7c4c2dfeb977efac326af552d87",
                "0x000000000000000000000000195e7baea6a6c7c4c2dfeb977efac326af552d87"
            ],
            "gasLimit": [
                "0x989680"
            ],
            "value": [
                "0x0186a0"
            ],
            "secretKey": "0x45a915e4d060149eb4365960e6a7a45f334393093061116b197e3240065ff2d8",
            "sender": "0xa94f5374fce5edbc8e2a8697c15331677e6ebf0b"
        },
        "post": {
            "ETC_Magneto": [
                {
                    "hash": "5c31a570892ef36e279ab136c0130c3e3832b46d7e8832e79a78497e85c8fe70",
                    "logs": "1dcc4de8dec75d7aab85b567b6ccd41ad312451b948a7413f0a142fd40d49347",
                    "txbytes": "0xf883800a83989680941000000000000000000000000000000000000000830186a0a0000000000000000000000000095e7baea6a6c7c4c2dfeb977efac326af552d871ba03674fcb63609cd71c51805c258b15e7cd1934bfcf749c4176810d314a585abd3a00afbe1fe69fd381dc0934227cfb1e6218176ccd4cd358b43a36c7b4969fa67eb",
                    "indexes": {
                        "data": 0,
                        "gas": 0,
                        "value": 0
                    }
                },
                {
                    "hash": "1ea3584937919f5461eac7931a076590624a009775648da10deefced797c40e4",
                    "logs": "1dcc4de8dec75d7aab85b567b6ccd41ad312451b948a7413f0a142fd40d49347",
                    "txbytes": "0xf883800a83989680941000000000000000000000000000000000000000830186a0a0000000000000000000000000195e7baea6a6c7c4c2dfeb977efac326af552d871ba0ddd17b28ea282a3246d40c121250322a72b15d5b7986a359e475a74d9953ab33a0085575043cc90b9a2fcf7a3505d85661a25255e400cce3cba54a25398103b6cd",
                    "indexes": {
                        "data": 1,
                        "gas": 0,
                        "value": 0
                    }
                }
            ],
            "ETC_Mystique": [
                {
                    "hash": "5c31a570892ef36e279ab136c0130c3e3832b46d7e8832e79a78497e85c8fe70",
                    "logs": "1dcc4de8dec75d7aab85b567b6ccd41ad312451b948a7413f0a142fd40d49347",
                    "txbytes": "0xf883800a83989680941000000000000000000000000000000000000000830186a0a0000000000000000000000000095e7baea6a6c7c4c2dfeb977efac326af552d871ba03674fcb63609cd71c51805c258b15e7cd1934bfcf749c4176810d314a585abd3a00afbe1fe69fd381dc0934227cfb1e6218176ccd4cd358b43a36c7b4969fa67eb",
                    "indexes": {
                        "data": 0,
                        "gas": 0,
                        "value": 0
                    }
                },
                {
                    "hash": "1ea3584937919f5461eac7931a076590624a009775648da10deefced797c40e4",
                    "logs": "1dcc4de8dec75d7aab85b567b6ccd41ad312451b948a7413f0a142fd40d49347",
                    "txbytes": "0xf883800a83989680941000000000000000000000000000000000000000830186a0a0000000000000000000000000195e7baea6a6c7c4c2dfeb977efac326af552d871ba0ddd17b28ea282a3246d40c121250322a72b15d5b7986a359e475a74d9953ab33a0085575043cc90b9a2fcf7a3505d85661a25255e400cce3cba54a25398103b6cd",
                    "indexes": {
                        "data": 1,
                        "gas": 0,
                        "value": 0
                    }
                }
            ],
            "ETC_Phoenix": [
                {
                    "hash": "e17e4c163b8bd6c5865677d989a8f71f45fda5cc1348bd60062f743ab9fedffb",
                    "logs": "1dcc4de8dec75d7aab85b567b6ccd41ad312451b948a7413f0a142fd40d49347",
                    "txbytes": "0xf883800a83989680941000000000000000000000000000000000000000830186a0a0000000000000000000000000095e7baea6a6c7c4c2dfeb977efac326af552d871ba03674fcb63609cd71c51805c258b15e7cd1934bfcf749c4176810d314a585abd3a00afbe1fe69fd381dc0934227cfb1e6218176ccd4cd358b43a36c7b4969fa67eb",
                    "indexes": {
                        "data": 0,
                        "gas": 0,
                        "value": 0
                    }
                },
                {
                    "hash": "954d899b4f298b879de10f1b9cdebf2c0449fa5f1158c3a55ac6a63b3c5c5569",
                    "logs": "1dcc4de8dec75d7aab85b567b6ccd41ad312451b948a7413f0a142fd40d49347",
                    "txbytes": "0xf883800a83989680941000000000000000000000000000000000000000830186a0a0000000000000000000000000195e7baea6a6c7c4c2dfeb977efac326af552d871ba0ddd17b28ea282a3246d40c121250322a72b15d5b7986a359e475a74d9953ab33a0085575043cc90b9a2fcf7a3505d85661a25255e400cce3cba54a25398103b6cd",
                    "indexes": {
                        "data": 1,
                        "gas": 0,
                        "value": 0
                    }
                }
            ]
        }
    }
}