{
    "static_log_Caller": {
        "_info": {
            "comment": "",
            "filling-rpc-server": "evm version 1.10.16-unstable-0f893109-20220105",
            "filling-tool-version": "retesteth-0.2.2-testinfo+commit.01c6aac2.Linux.g++",
            "filledWith": "CoreGeth-1.12.9-unstable-f4059ddd82d975bdc54fa648e5422a80172161cb",
            "lllcversion": "Version: 0.5.14-develop.2021.11.27+commit.401d5358.Linux.g++",
            "source": "src/GeneralStateTestsFiller/stStaticCall/static_log_CallerFiller.json",
            "sourceHash": "1ccf0c9b4b7c3599ffa0cc12356c69acf36db6fce4140d5337fcd4c20e864eca"
        },
        "env": {
            "currentCoinbase": "2adc25665018aa1fe0e6bc666dac8fc2697ff9ba",
            "currentDifficulty": "0x20000",
            "currentRandom": null,
            "currentGasLimit": "0xf4240",
            "currentNumber": "0x1",
            "currentTimestamp": "0x3e8",
            "currentBaseFee": "0xa"
        },
        "pre": {
            "0x095e7baea6a6c7c4c2dfeb977efac326af552d87": {
                "code": "0x600060006000600060003561c350fa60005500",
                "balance": "0xde0b6b3a7640000"
            },
            "0x1000000000000000000000000000000000000000": {
                "code": "0x60ff6000533360206000a100",
                "balance": "0xde0b6b3a7640000"
            },
            "0x2000000000000000000000000000000000000000": {
                "code": "0x60ff60005333600060206000a200",
                "balance": "0xde0b6b3a7640000"
            },
            "0x3000000000000000000000000000000000000000": {
                "code": "0x60ff600053336000600060206000a300",
                "balance": "0xde0b6b3a7640000"
            },
            "0x4000000000000000000000000000000000000000": {
                "code": "0x60ff6000533360006000600060206000a400",
                "balance": "0xde0b6b3a7640000"
            },
            "0xa000000000000000000000000000000000000000": {
                "code": "0x60ff60005360206000a000",
                "balance": "0xde0b6b3a7640000"
            },
            "0xa94f5374fce5edbc8e2a8697c15331677e6ebf0b": {
                "balance": "0xde0b6b3a7640000"
            }
        },
        "transaction": {
            "gasPrice": "0xa",
            "maxFeePerGas": null,
            "maxPriorityFeePerGas": null,
            "nonce": "0x0",
            "to": "0x095e7baea6a6c7c4c2dfeb977efac326af552d87",
            "data": [
                "0x000000000000000000000000a000000000000000000000000000000000000000",
                "0x0000000000000000000000001000000000000000000000000000000000000000",
                "0x0000000000000000000000002000000000000000000000000000000000000000",
                "0x0000000000000000000000003000000000000000000000000000000000000000",
                "0x0000000000000000000000004000000000000000000000000000000000000000"
            ],
            "gasLimit": [
                "0x33450"
            ],
            "value": [
                "0x0186a0"
            ],
            "secretKey": "0x45a915e4d060149eb4365960e6a7a45f334393093061116b197e3240065ff2d8"
        },
        "out": "0x",
        "post": {
            "ETC_Magneto": [
                {
                    "hash": "dec2ba2611d8af45f86cd9393fb5ec578b5af498a0db9b8c2b17eb72fb42f6f7",
                    "logs": "1dcc4de8dec75d7aab85b567b6ccd41ad312451b948a7413f0a142fd40d49347",
                    "txbytes": "0xf883800a8303345094095e7baea6a6c7c4c2dfeb977efac326af552d87830186a0a0000000000000000000000000a0000000000000000000000000000000000000001ca0cae47dda82b1e8bda952a6754850726c891a12513ad78944251c27ceb10336dba00d46964765eff94b8c01e45b7f4b48b244111e552ca614cb5c381ad26cb0f31e",
                    "indexes": {
                        "data": 0,
                        "gas": 0,
                        "value": 0
                    }
                },
                {
                    "hash": "dec2ba2611d8af45f86cd9393fb5ec578b5af498a0db9b8c2b17eb72fb42f6f7",
                    "logs": "1dcc4de8dec75d7aab85b567b6ccd41ad312451b948a7413f0a142fd40d49347",
                    "txbytes": "0xf883800a8303345094095e7baea6a6c7c4c2dfeb977efac326af552d87830186a0a000000000000000000000000010000000000000000000000000000000000000001ca096e6079b221688e3c7b4de5b5bee31d787334324aa14a97ac30be1e2928a286ca07cc3b4060f9d445c68ba9574e99aeba4a1370c0dd21fef84f36843aedec89dcb",
                    "indexes": {
                        "data": 1,
                        "gas": 0,
                        "value": 0
                    }
                },
                {
                    "hash": "dec2ba2611d8af45f86cd9393fb5ec578b5af498a0db9b8c2b17eb72fb42f6f7",
                    "logs": "1dcc4de8dec75d7aab85b567b6ccd41ad312451b948a7413f0a142fd40d49347",
                    "txbytes": "0xf883800a8303345094095e7baea6a6c7c4c2dfeb977efac326af552d87830186a0a000000000000000000000000020000000000000000000000000000000000000001ba06ddc85075e70e9a498c4e9fb3f13d13da96c2be8a16c507338cf15a25fb91ef1a068a3160f5aaf3f9804295f995035bc37e2e735c46cca04fe2a3fa2f877c1cf26",
                    "indexes": {
                        "data": 2,
                        "gas": 0,
                        "value": 0
                    }
                },
                {
                    "hash": "dec2ba2611d8af45f86cd9393fb5ec578b5af498a0db9b8c2b17eb72fb42f6f7",
                    "logs": "1dcc4de8dec75d7aab85b567b6ccd41ad312451b948a7413f0a142fd40d49347",
                    "txbytes": "0xf883800a8303345094095e7baea6a6c7c4c2dfeb977efac326af552d87830186a0a000000000000000000000000030000000000000000000000000000000000000001ca0968ae966604505b521874d83ad0204bf702593d12a517798f699dc130dbf81d3a02e6c40b87b900c71837602e18ad694fa1d7250f98164d7b179bc89710e5bde04",
                    "indexes": {
                        "data": 3,
                        "gas": 0,
                        "value": 0
                    }
                },
                {
                    "hash": "dec2ba2611d8af45f86cd9393fb5ec578b5af498a0db9b8c2b17eb72fb42f6f7",
                    "logs": "1dcc4de8dec75d7aab85b567b6ccd41ad312451b948a7413f0a142fd40d49347",
                    "txbytes": "0xf882800a8303345094095e7baea6a6c7c4c2dfeb977efac326af552d87830186a0a000000000000000000000000040000000000000000000000000000000000000001ca0e8e2e99ef16724f3bf54dd60089db376f5034c40531daefcf141211e95f2c4379f8a107b3706fe4fe0b499bcbb4d7fcc2129432226ce10885c1bc9295cf79211",
                    "indexes": {
                        "data": 4,
                        "gas": 0,
                        "value": 0
                    }
                }
            ],
            "ETC_Mystique": [
                {
                    "hash": "dec2ba2611d8af45f86cd9393fb5ec578b5af498a0db9b8c2b17eb72fb42f6f7",
                    "logs": "1dcc4de8dec75d7aab85b567b6ccd41ad312451b948a7413f0a142fd40d49347",
                    "txbytes": "0xf883800a8303345094095e7baea6a6c7c4c2dfeb977efac326af552d87830186a0a0000000000000000000000000a0000000000000000000000000000000000000001ca0cae47dda82b1e8bda952a6754850726c891a12513ad78944251c27ceb10336dba00d46964765eff94b8c01e45b7f4b48b244111e552ca614cb5c381ad26cb0f31e",
                    "indexes": {
                        "data": 0,
                        "gas": 0,
                        "value": 0
                    }
                },
                {
                    "hash": "dec2ba2611d8af45f86cd9393fb5ec578b5af498a0db9b8c2b17eb72fb42f6f7",
                    "logs": "1dcc4de8dec75d7aab85b567b6ccd41ad312451b948a7413f0a142fd40d49347",
                    "txbytes": "0xf883800a8303345094095e7baea6a6c7c4c2dfeb977efac326af552d87830186a0a000000000000000000000000010000000000000000000000000000000000000001ca096e6079b221688e3c7b4de5b5bee31d787334324aa14a97ac30be1e2928a286ca07cc3b4060f9d445c68ba9574e99aeba4a1370c0dd21fef84f36843aedec89dcb",
                    "indexes": {
                        "data": 1,
                        "gas": 0,
                        "value": 0
                    }
                },
                {
                    "hash": "dec2ba2611d8af45f86cd9393fb5ec578b5af498a0db9b8c2b17eb72fb42f6f7",
                    "logs": "1dcc4de8dec75d7aab85b567b6ccd41ad312451b948a7413f0a142fd40d49347",
                    "txbytes": "0xf883800a8303345094095e7baea6a6c7c4c2dfeb977efac326af552d87830186a0a000000000000000000000000020000000000000000000000000000000000000001ba06ddc85075e70e9a498c4e9fb3f13d13da96c2be8a16c507338cf15a25fb91ef1a068a3160f5aaf3f9804295f995035bc37e2e735c46cca04fe2a3fa2f877c1cf26",
                    "indexes": {
                        "data": 2,
                        "gas": 0,
                        "value": 0
                    }
                },
                {
                    "hash": "dec2ba2611d8af45f86cd9393fb5ec578b5af498a0db9b8c2b17eb72fb42f6f7",
                    "logs": "1dcc4de8dec75d7aab85b567b6ccd41ad312451b948a7413f0a142fd40d49347",
                    "txbytes": "0xf883800a8303345094095e7baea6a6c7c4c2dfeb977efac326af552d87830186a0a000000000000000000000000030000000000000000000000000000000000000001ca0968ae966604505b521874d83ad0204bf702593d12a517798f699dc130dbf81d3a02e6c40b87b900c71837602e18ad694fa1d7250f98164d7b179bc89710e5bde04",
                    "indexes": {
                        "data": 3,
                        "gas": 0,
                        "value": 0
                    }
                },
                {
                    "hash": "dec2ba2611d8af45f86cd9393fb5ec578b5af498a0db9b8c2b17eb72fb42f6f7",
                    "logs": "1dcc4de8dec75d7aab85b567b6ccd41ad312451b948a7413f0a142fd40d49347",
                    "txbytes": "0xf882800a8303345094095e7baea6a6c7c4c2dfeb977efac326af552d87830186a0a000000000000000000000000040000000000000000000000000000000000000001ca0e8e2e99ef16724f3bf54dd60089db376f5034c40531daefcf141211e95f2c4379f8a107b3706fe4fe0b499bcbb4d7fcc2129432226ce10885c1bc9295cf79211",
                    "indexes": {
                        "data": 4,
                        "gas": 0,
                        "value": 0
                    }
                }
            ],
            "ETC_Phoenix": [
                {
                    "hash": "fcc551264b4ab7c33bb3241130b6dc750e6e605bfdbdd4218d116531c5544400",
                    "logs": "1dcc4de8dec75d7aab85b567b6ccd41ad312451b948a7413f0a142fd40d49347",
                    "txbytes": "0xf883800a8303345094095e7baea6a6c7c4c2dfeb977efac326af552d87830186a0a0000000000000000000000000a0000000000000000000000000000000000000001ca0cae47dda82b1e8bda952a6754850726c891a12513ad78944251c27ceb10336dba00d46964765eff94b8c01e45b7f4b48b244111e552ca614cb5c381ad26cb0f31e",
                    "indexes": {
                        "data": 0,
                        "gas": 0,
                        "value": 0
                    }
                },
                {
                    "hash": "fcc551264b4ab7c33bb3241130b6dc750e6e605bfdbdd4218d116531c5544400",
                    "logs": "1dcc4de8dec75d7aab85b567b6ccd41ad312451b948a7413f0a142fd40d49347",
                    "txbytes": "0xf883800a8303345094095e7baea6a6c7c4c2dfeb977efac326af552d87830186a0a000000000000000000000000010000000000000000000000000000000000000001ca096e6079b221688e3c7b4de5b5bee31d787334324aa14a97ac30be1e2928a286ca07cc3b4060f9d445c68ba9574e99aeba4a1370c0dd21fef84f36843aedec89dcb",
                    "indexes": {
                        "data": 1,
                        "gas": 0,
                        "value": 0
                    }
                },
                {
                    "hash": "fcc551264b4ab7c33bb3241130b6dc750e6e605bfdbdd4218d116531c5544400",
                    "logs": "1dcc4de8dec75d7aab85b567b6ccd41ad312451b948a7413f0a142fd40d49347",
                    "txbytes": "0xf883800a8303345094095e7baea6a6c7c4c2dfeb977efac326af552d87830186a0a000000000000000000000000020000000000000000000000000000000000000001ba06ddc85075e70e9a498c4e9fb3f13d13da96c2be8a16c507338cf15a25fb91ef1a068a3160f5aaf3f9804295f995035bc37e2e735c46cca04fe2a3fa2f877c1cf26",
                    "indexes": {
                        "data": 2,
                        "gas": 0,
                        "value": 0
                    }
                },
                {
                    "hash": "fcc551264b4ab7c33bb3241130b6dc750e6e605bfdbdd4218d116531c5544400",
                    "logs": "1dcc4de8dec75d7aab85b567b6ccd41ad312451b948a7413f0a142fd40d49347",
                    "txbytes": "0xf883800a8303345094095e7baea6a6c7c4c2dfeb977efac326af552d87830186a0a000000000000000000000000030000000000000000000000000000000000000001ca0968ae966604505b521874d83ad0204bf702593d12a517798f699dc130dbf81d3a02e6c40b87b900c71837602e18ad694fa1d7250f98164d7b179bc89710e5bde04",
                    "indexes": {
                        "data": 3,
                        "gas": 0,
                        "value": 0
                    }
                },
                {
                    "hash": "fcc551264b4ab7c33bb3241130b6dc750e6e605bfdbdd4218d116531c5544400",
                    "logs": "1dcc4de8dec75d7aab85b567b6ccd41ad312451b948a7413f0a142fd40d49347",
                    "txbytes": "0xf882800a8303345094095e7baea6a6c7c4c2dfeb977efac326af552d87830186a0a000000000000000000000000040000000000000000000000000000000000000001ca0e8e2e99ef16724f3bf54dd60089db376f5034c40531daefcf141211e95f2c4379f8a107b3706fe4fe0b499bcbb4d7fcc2129432226ce10885c1bc9295cf79211",
                    "indexes": {
                        "data": 4,
                        "gas": 0,
                        "value": 0
                    }
                }
            ]
        }
    }
}