{
    "static_callCreate2": {
        "_info": {
            "comment": "",
            "filling-rpc-server": "evm version 1.10.16-unstable-0f893109-20220105",
            "filling-tool-version": "retesteth-0.2.2-testinfo+commit.01c6aac2.Linux.g++",
            "filledWith": "CoreGeth-1.12.9-unstable-d64998ce9b05f4f41b35740c69c4b402e41a3105",
            "lllcversion": "Version: 0.5.14-develop.2021.11.27+commit.401d5358.Linux.g++",
            "source": "src/GeneralStateTestsFiller/stStaticCall/static_callCreate2Filler.json",
            "sourceHash": "d3ce178e437bf3d1ce10392cd22451f99aea915d8c62395f5e73c81561833a87"
        },
        "env": {
            "currentCoinbase": "0x2adc25665018aa1fe0e6bc666dac8fc2697ff9ba",
            "currentDifficulty": "0x20000",
            "currentGasLimit": "0x989680",
            "currentNumber": "0x1",
            "currentTimestamp": "0x3e8",
            "previousHash": "0x5e20a0453cecd065ea59c37ac63e079ee08998b6045136a8ce6635c7912ec0b6"
        },
        "pre": {
            "0x1000000000000000000000000000000000000000": {
                "code": "0x600060006001f06000556000600060006000600054620493e0fa60015500",
                "balance": "0xde0b6b3a7640000"
            },
            "0x1000000000000000000000000000000000000001": {
                "code": "0x6d6460016001556000526005601bf3600052600e60126001f06000556000600060006000600054620493e0fa60015500",
                "balance": "0xde0b6b3a7640000"
            },
            "0x1000000000000000000000000000000000000002": {
                "code": "0x6d6460016001556000526005601bf3600052600e60126001f06000556000600060006000600054620493e0fa6001555b61c3506080511015604b5760013b50600160805101608052602f565b00",
                "balance": "0xde0b6b3a7640000"
            },
            "0xa000000000000000000000000000000000000000": {
                "code": "0x60006000600060006000600035620927c0f100",
                "balance": "0xde0b6b3a7640000"
            },
            "0xa94f5374fce5edbc8e2a8697c15331677e6ebf0b": {
                "balance": "0xde0b6b3a7640000"
            }
        },
        "transaction": {
            "gasPrice": "0xa",
            "nonce": "0x0",
            "to": "0xa000000000000000000000000000000000000000",
            "data": [
                "0x0000000000000000000000001000000000000000000000000000000000000000",
                "0x0000000000000000000000001000000000000000000000000000000000000001",
                "0x0000000000000000000000001000000000000000000000000000000000000002"
            ],
            "gasLimit": [
                "0xf4240"
            ],
            "value": [
                "0x0186a0"
            ],
            "secretKey": "0x45a915e4d060149eb4365960e6a7a45f334393093061116b197e3240065ff2d8",
            "sender": "0xa94f5374fce5edbc8e2a8697c15331677e6ebf0b"
        },
        "post": {
            "ETC_Magneto": [
                {
                    "hash": "9c3a4bd6e962e688bf4fcc02983e0f49024775f92c5da1f44f08227224170bc9",
                    "logs": "1dcc4de8dec75d7aab85b567b6ccd41ad312451b948a7413f0a142fd40d49347",
                    "txbytes": "0xf883800a830f424094a000000000000000000000000000000000000000830186a0a000000000000000000000000010000000000000000000000000000000000000001ba011245eee4844656f39de851802157db73ed455cc95fc8a3356d6ab2af14d626ea06ca8fd956f2583c20d6a66145fa219e1a714a93fb8effce857ce9cd37a9cb80d",
                    "indexes": {
                        "data": 0,
                        "gas": 0,
                        "value": 0
                    }
                },
                {
                    "hash": "8833500762715b1b1e73b38fe66eb58b309ed28813b0fed55ee209148fa1bed9",
                    "logs": "1dcc4de8dec75d7aab85b567b6ccd41ad312451b948a7413f0a142fd40d49347",
                    "txbytes": "0xf883800a830f424094a000000000000000000000000000000000000000830186a0a000000000000000000000000010000000000000000000000000000000000000011ca07ee06b08a1999e48a0b4611d269374998a5c2002ddcc80620358e6e687c60b4ea0136361ef6075bb1591e061e173d94903d6e4a8dc2d9f60196bceedda8293d5f4",
                    "indexes": {
                        "data": 1,
                        "gas": 0,
                        "value": 0
                    }
                },
                {
                    "hash": "7ed6defa1fbc9c3e8196d61026bdc499d75b0ed47fb078c917e22f69c52855c7",
                    "logs": "1dcc4de8dec75d7aab85b567b6ccd41ad312451b948a7413f0a142fd40d49347",
                    "txbytes": "0xf883800a830f424094a000000000000000000000000000000000000000830186a0a000000000000000000000000010000000000000000000000000000000000000021ca03b4b18369035d0e989a1fc55f5f688479e8c6f9caa25941e570c88209a8f3a96a02af636774916d3c027ab22b70171300f1c9b624bedf78fa9cd5c321cd763c6be",
                    "indexes": {
                        "data": 2,
                        "gas": 0,
                        "value": 0
                    }
                }
            ],
            "ETC_Mystique": [
                {
                    "hash": "9c3a4bd6e962e688bf4fcc02983e0f49024775f92c5da1f44f08227224170bc9",
                    "logs": "1dcc4de8dec75d7aab85b567b6ccd41ad312451b948a7413f0a142fd40d49347",
                    "txbytes": "0xf883800a830f424094a000000000000000000000000000000000000000830186a0a000000000000000000000000010000000000000000000000000000000000000001ba011245eee4844656f39de851802157db73ed455cc95fc8a3356d6ab2af14d626ea06ca8fd956f2583c20d6a66145fa219e1a714a93fb8effce857ce9cd37a9cb80d",
                    "indexes": {
                        "data": 0,
                        "gas": 0,
                        "value": 0
                    }
                },
                {
                    "hash": "8833500762715b1b1e73b38fe66eb58b309ed28813b0fed55ee209148fa1bed9",
                    "logs": "1dcc4de8dec75d7aab85b567b6ccd41ad312451b948a7413f0a142fd40d49347",
                    "txbytes": "0xf883800a830f424094a000000000000000000000000000000000000000830186a0a000000000000000000000000010000000000000000000000000000000000000011ca07ee06b08a1999e48a0b4611d269374998a5c2002ddcc80620358e6e687c60b4ea0136361ef6075bb1591e061e173d94903d6e4a8dc2d9f60196bceedda8293d5f4",
                    "indexes": {
                        "data": 1,
                        "gas": 0,
                        "value": 0
                    }
                },
                {
                    "hash": "7ed6defa1fbc9c3e8196d61026bdc499d75b0ed47fb078c917e22f69c52855c7",
                    "logs": "1dcc4de8dec75d7aab85b567b6ccd41ad312451b948a7413f0a142fd40d49347",
                    "txbytes": "0xf883800a830f424094a000000000000000000000000000000000000000830186a0a000000000000000000000000010000000000000000000000000000000000000021ca03b4b18369035d0e989a1fc55f5f688479e8c6f9caa25941e570c88209a8f3a96a02af636774916d3c027ab22b70171300f1c9b624bedf78fa9cd5c321cd763c6be",
                    "indexes": {
                        "data": 2,
                        "gas": 0,
                        "value": 0
                    }
                }
            ],
            "ETC_Phoenix": [
                {
                    "hash": "4eea63cc550cdbdfd0c3c32fcca59e5bb2ed445f892432147c105da1028be988",
                    "logs": "1dcc4de8dec75d7aab85b567b6ccd41ad312451b948a7413f0a142fd40d49347",
                    "txbytes": "0xf883800a830f424094a000000000000000000000000000000000000000830186a0a000000000000000000000000010000000000000000000000000000000000000001ba011245eee4844656f39de851802157db73ed455cc95fc8a3356d6ab2af14d626ea06ca8fd956f2583c20d6a66145fa219e1a714a93fb8effce857ce9cd37a9cb80d",
                    "indexes": {
                        "data": 0,
                        "gas": 0,
                        "value": 0
                    }
                },
                {
                    "hash": "3ae4b8a5a5d24f6d10c02807ba02adf3bc1bde36a35f68fba9652de43c86a17b",
                    "logs": "1dcc4de8dec75d7aab85b567b6ccd41ad312451b948a7413f0a142fd40d49347",
                    "txbytes": "0xf883800a830f424094a000000000000000000000000000000000000000830186a0a000000000000000000000000010000000000000000000000000000000000000011ca07ee06b08a1999e48a0b4611d269374998a5c2002ddcc80620358e6e687c60b4ea0136361ef6075bb1591e061e173d94903d6e4a8dc2d9f60196bceedda8293d5f4",
                    "indexes": {
                        "data": 1,
                        "gas": 0,
                        "value": 0
                    }
                },
                {
                    "hash": "3330af79bd64ebb9850cc9f6ffb63e391724e4c7a8a5824eeed3ca699841d06c",
                    "logs": "1dcc4de8dec75d7aab85b567b6ccd41ad312451b948a7413f0a142fd40d49347",
                    "txbytes": "0xf883800a830f424094a000000000000000000000000000000000000000830186a0a000000000000000000000000010000000000000000000000000000000000000021ca03b4b18369035d0e989a1fc55f5f688479e8c6f9caa25941e570c88209a8f3a96a02af636774916d3c027ab22b70171300f1c9b624bedf78fa9cd5c321cd763c6be",
                    "indexes": {
                        "data": 2,
                        "gas": 0,
                        "value": 0
                    }
                }
            ]
        }
    }
}