{
    "static_call_value_inherit_from_call": {
        "_info": {
            "comment": "",
            "filling-rpc-server": "evm version 1.10.16-unstable-0f893109-20220105",
            "filling-tool-version": "retesteth-0.2.2-testinfo+commit.01c6aac2.Linux.g++",
            "filledWith": "CoreGeth-1.12.9-unstable-f4059ddd82d975bdc54fa648e5422a80172161cb",
            "lllcversion": "Version: 0.5.14-develop.2021.11.27+commit.401d5358.Linux.g++",
            "source": "src/GeneralStateTestsFiller/stStaticCall/static_call_value_inherit_from_callFiller.json",
            "sourceHash": "946ed14e163f188c8077c61de5f4f5044f8da863ed75b2ae813ac8950bd12a2e"
        },
        "env": {
            "currentCoinbase": "2adc25665018aa1fe0e6bc666dac8fc2697ff9ba",
            "currentDifficulty": "0x20000",
            "currentRandom": null,
            "currentGasLimit": "0x989680",
            "currentNumber": "0x1",
            "currentTimestamp": "0x3e8",
            "currentBaseFee": "0xa"
        },
        "pre": {
            "0x094f5374fce5edbc8e2a8697c15331677e6ebf0b": {
                "code": "0x602060006000600073c94f5374fce5edbc8e2a8697c15331677e6ebf0b61c350fa60005560005160015500",
                "storage": {
                    "0x0000000000000000000000000000000000000000000000000000000000000001": "0x0000000000000000000000000000000000000000000000000000000000000001"
                },
                "balance": "0x1"
            },
            "0xa94f5374fce5edbc8e2a8697c15331677e6ebf0b": {
                "balance": "0xe8d4a51000"
            },
            "0xc8b90f8d999d9d9988209481999a9889098a89a0": {
                "code": "0x6000600060006000600a73094f5374fce5edbc8e2a8697c15331677e6ebf0b620186a0f100",
                "balance": "0x0"
            },
            "0xc94f5374fce5edbc8e2a8697c15331677e6ebf0b": {
                "code": "0x3460005260206000f300",
                "balance": "0x1"
            }
        },
        "transaction": {
            "gasPrice": "0xa",
            "maxFeePerGas": null,
            "maxPriorityFeePerGas": null,
            "nonce": "0x0",
            "to": "0xc8b90f8d999d9d9988209481999a9889098a89a0",
            "data": [
                "0x"
            ],
            "gasLimit": [
                "0x704e0"
            ],
            "value": [
                "0x0a"
            ],
            "secretKey": "0x45a915e4d060149eb4365960e6a7a45f334393093061116b197e3240065ff2d8"
        },
        "out": "0x",
        "post": {
            "ETC_Magneto": [
                {
                    "hash": "39bd95f1cbc788a628a729d3663ec15e5dca034ec7777757f51db1f3b9b949ca",
                    "logs": "1dcc4de8dec75d7aab85b567b6ccd41ad312451b948a7413f0a142fd40d49347",
                    "txbytes": "0xf860800a830704e094c8b90f8d999d9d9988209481999a9889098a89a00a801ba015bd7a44e39b3f98ab5b08c3034173b8e4b2be8507b3a1ca0fa99def5a8a35c6a06d89cd6d72a710e3c53662f0f29031985a150d38789e88d1b2c32ba5a473849d",
                    "indexes": {
                        "data": 0,
                        "gas": 0,
                        "value": 0
                    }
                }
            ],
            "ETC_Mystique": [
                {
                    "hash": "36a2dfcb07989c04c16b9edb1f228a45a0512cd724cf4bc771b92dd673525ebb",
                    "logs": "1dcc4de8dec75d7aab85b567b6ccd41ad312451b948a7413f0a142fd40d49347",
                    "txbytes": "0xf860800a830704e094c8b90f8d999d9d9988209481999a9889098a89a00a801ba015bd7a44e39b3f98ab5b08c3034173b8e4b2be8507b3a1ca0fa99def5a8a35c6a06d89cd6d72a710e3c53662f0f29031985a150d38789e88d1b2c32ba5a473849d",
                    "indexes": {
                        "data": 0,
                        "gas": 0,
                        "value": 0
                    }
                }
            ],
            "ETC_Phoenix": [
                {
                    "hash": "6c44d5189f63ffd47b618425441a3f6d92ca877a2db161b42497e06ac2b60753",
                    "logs": "1dcc4de8dec75d7aab85b567b6ccd41ad312451b948a7413f0a142fd40d49347",
                    "txbytes": "0xf860800a830704e094c8b90f8d999d9d9988209481999a9889098a89a00a801ba015bd7a44e39b3f98ab5b08c3034173b8e4b2be8507b3a1ca0fa99def5a8a35c6a06d89cd6d72a710e3c53662f0f29031985a150d38789e88d1b2c32ba5a473849d",
                    "indexes": {
                        "data": 0,
                        "gas": 0,
                        "value": 0
                    }
                }
            ]
        }
    }
}