{
    "static_callWithHighValueAndGasOOG": {
        "_info": {
            "comment": "",
            "filling-rpc-server": "evm version 1.10.16-unstable-0f893109-20220105",
            "filling-tool-version": "retesteth-0.2.2-testinfo+commit.01c6aac2.Linux.g++",
            "filledWith": "CoreGeth-1.12.9-unstable-4cf5b2b0837228e7d5eadba6a01ffb80e9288e21",
            "lllcversion": "Version: 0.5.14-develop.2021.11.27+commit.401d5358.Linux.g++",
            "source": "src/GeneralStateTestsFiller/stStaticCall/static_callWithHighValueAndGasOOGFiller.json",
            "sourceHash": "15352c208a6da58693736101c010d8a2076cc17a0f3d43a3d6595b454fc57e2c"
        },
        "env": {
            "currentCoinbase": "0x2adc25665018aa1fe0e6bc666dac8fc2697ff9ba",
            "currentDifficulty": "0x20000",
            "currentGasLimit": "0x1c9c380",
            "currentNumber": "0x1",
            "currentTimestamp": "0x3e8",
            "previousHash": "0x5e20a0453cecd065ea59c37ac63e079ee08998b6045136a8ce6635c7912ec0b6"
        },
        "pre": {
            "0x095e7baea6a6c7c4c2dfeb977efac326af552d87": {
                "code": "0x7fffffffffffffffffffffffffffffffffffffffffffffffffffffffffffffffff6000527faaffffffffffffffffffffffffffffffffffffffffffffffffffffffffffffaa602052600260006040600073945304eb96065b2a98b57a48a06ae28d285a71b56bfffffffffffffffffffffffffa60005560005160015500",
                "balance": "0xde0b6b3a7640000",
                "nonce": "0x0"
            },
            "0x1000000000000000000000000000000000000000": {
                "code": "0x600060006000600060006000356207a120f100",
                "balance": "0xde0b6b3a7640000",
                "nonce": "0x0"
            },
            "0x195e7baea6a6c7c4c2dfeb977efac326af552d87": {
                "code": "0x7fffffffffffffffffffffffffffffffffffffffffffffffffffffffffffffffff6000527faaffffffffffffffffffffffffffffffffffffffffffffffffffffffffffffaa602052600260006040600073b45304eb96065b2a98b57a48a06ae28d285a71b56bfffffffffffffffffffffffffa60005560005160015500",
                "storage": {
                    "0x0000000000000000000000000000000000000000000000000000000000000000": "0x0000000000000000000000000000000000000000000000000000000000000001",
                    "0x0000000000000000000000000000000000000000000000000000000000000001": "0x0000000000000000000000000000000000000000000000000000000000000001"
                },
                "balance": "0xde0b6b3a7640000",
                "nonce": "0x0"
            },
            "0x945304eb96065b2a98b57a48a06ae28d285a71b5": {
                "code": "0x603760005360026000f3",
                "balance": "0x17",
                "nonce": "0x0"
            },
            "0xa94f5374fce5edbc8e2a8697c15331677e6ebf0b": {
                "code": "0x",
                "balance": "0xde0b6b3a7640000",
                "nonce": "0x0"
            },
            "0xb45304eb96065b2a98b57a48a06ae28d285a71b5": {
                "code": "0x622fffff60002000",
                "balance": "0x17",
                "nonce": "0x0"
            }
        },
        "transaction": {
            "gasPrice": "0xa",
            "nonce": "0x0",
            "to": "0x1000000000000000000000000000000000000000",
            "data": [
                "0x000000000000000000000000095e7baea6a6c7c4c2dfeb977efac326af552d87",
                "0x000000000000000000000000195e7baea6a6c7c4c2dfeb977efac326af552d87"
            ],
            "gasLimit": [
                "0x2dc6c0"
            ],
            "value": [
                "0x0186a0"
            ],
            "secretKey": "0x45a915e4d060149eb4365960e6a7a45f334393093061116b197e3240065ff2d8",
            "sender": "0xa94f5374fce5edbc8e2a8697c15331677e6ebf0b"
        },
        "post": {
            "ETC_Magneto": [
                {
                    "hash": "81e0bc14b351d85e331d1fb01e35381295a0c9b30df56c2bb4796f2e15616603",
                    "logs": "1dcc4de8dec75d7aab85b567b6ccd41ad312451b948a7413f0a142fd40d49347",
                    "txbytes": "0xf883800a832dc6c0941000000000000000000000000000000000000000830186a0a0000000000000000000000000095e7baea6a6c7c4c2dfeb977efac326af552d871ca0888ab46c19e5f1026103ca0e95dea2b1dc890f82042c3800a57fa295d8280e16a039bc5c657d13aeed0a0397f99b68984ad4e5d1592a1e43261faa842fd8310714",
                    "indexes": {
                        "data": 0,
                        "gas": 0,
                        "value": 0
                    }
                },
                {
                    "hash": "4ac6b70250112bd73a43efd9e87eb7fca8f9a94432f10cfb4ce49171906b01ea",
                    "logs": "1dcc4de8dec75d7aab85b567b6ccd41ad312451b948a7413f0a142fd40d49347",
                    "txbytes": "0xf883800a832dc6c0941000000000000000000000000000000000000000830186a0a0000000000000000000000000195e7baea6a6c7c4c2dfeb977efac326af552d871ba0490468d20c37f008e7b864a458c08099df14e98ac03fbbc5d8ecce6707e64d05a04dccbc9df8ffd1eb45d5cf7070781bb6bef21beb542407c7ddb4f97d11fd5574",
                    "indexes": {
                        "data": 1,
                        "gas": 0,
                        "value": 0
                    }
                }
            ],
            "ETC_Mystique": [
                {
                    "hash": "81e0bc14b351d85e331d1fb01e35381295a0c9b30df56c2bb4796f2e15616603",
                    "logs": "1dcc4de8dec75d7aab85b567b6ccd41ad312451b948a7413f0a142fd40d49347",
                    "txbytes": "0xf883800a832dc6c0941000000000000000000000000000000000000000830186a0a0000000000000000000000000095e7baea6a6c7c4c2dfeb977efac326af552d871ca0888ab46c19e5f1026103ca0e95dea2b1dc890f82042c3800a57fa295d8280e16a039bc5c657d13aeed0a0397f99b68984ad4e5d1592a1e43261faa842fd8310714",
                    "indexes": {
                        "data": 0,
                        "gas": 0,
                        "value": 0
                    }
                },
                {
                    "hash": "4ac6b70250112bd73a43efd9e87eb7fca8f9a94432f10cfb4ce49171906b01ea",
                    "logs": "1dcc4de8dec75d7aab85b567b6ccd41ad312451b948a7413f0a142fd40d49347",
                    "txbytes": "0xf883800a832dc6c0941000000000000000000000000000000000000000830186a0a0000000000000000000000000195e7baea6a6c7c4c2dfeb977efac326af552d871ba0490468d20c37f008e7b864a458c08099df14e98ac03fbbc5d8ecce6707e64d05a04dccbc9df8ffd1eb45d5cf7070781bb6bef21beb542407c7ddb4f97d11fd5574",
                    "indexes": {
                        "data": 1,
                        "gas": 0,
                        "value": 0
                    }
                }
            ],
            "ETC_Phoenix": [
                {
                    "hash": "a05645f728c6d76b345c286bb4fb4bfa9929ca7cf5bdeb3d08051669bbf2b540",
                    "logs": "1dcc4de8dec75d7aab85b567b6ccd41ad312451b948a7413f0a142fd40d49347",
                    "txbytes": "0xf883800a832dc6c0941000000000000000000000000000000000000000830186a0a0000000000000000000000000095e7baea6a6c7c4c2dfeb977efac326af552d871ca0888ab46c19e5f1026103ca0e95dea2b1dc890f82042c3800a57fa295d8280e16a039bc5c657d13aeed0a0397f99b68984ad4e5d1592a1e43261faa842fd8310714",
                    "indexes": {
                        "data": 0,
                        "gas": 0,
                        "value": 0
                    }
                },
                {
                    "hash": "cd2fdc99f7a5c2170f19f35444b6eb03557cf0f9077ea216cae94592ed33ad80",
                    "logs": "1dcc4de8dec75d7aab85b567b6ccd41ad312451b948a7413f0a142fd40d49347",
                    "txbytes": "0xf883800a832dc6c0941000000000000000000000000000000000000000830186a0a0000000000000000000000000195e7baea6a6c7c4c2dfeb977efac326af552d871ba0490468d20c37f008e7b864a458c08099df14e98ac03fbbc5d8ecce6707e64d05a04dccbc9df8ffd1eb45d5cf7070781bb6bef21beb542407c7ddb4f97d11fd5574",
                    "indexes": {
                        "data": 1,
                        "gas": 0,
                        "value": 0
                    }
                }
            ]
        }
    }
}