{
    "static_Call50000": {
        "_info": {
            "comment": "",
            "filling-rpc-server": "evm version 1.10.16-unstable-0f893109-20220105",
            "filling-tool-version": "retesteth-0.2.2-testinfo+commit.01c6aac2.Linux.g++",
            "filledWith": "CoreGeth-1.12.9-unstable-f4059ddd82d975bdc54fa648e5422a80172161cb",
            "lllcversion": "Version: 0.5.14-develop.2021.11.27+commit.401d5358.Linux.g++",
            "source": "src/GeneralStateTestsFiller/stStaticCall/static_Call50000Filler.json",
            "sourceHash": "5db5d334a19c725793869e28ccebefb19bd2d022e22ed19fbe18488eddca5c04"
        },
        "env": {
            "currentCoinbase": "b94f5374fce5edbc8e2a8697c15331677e6ebf0b",
            "currentDifficulty": "0x20000",
            "currentRandom": null,
            "currentGasLimit": "0x174876e800",
            "currentNumber": "0x1",
            "currentTimestamp": "0x3e8",
            "currentBaseFee": "0xa"
        },
        "pre": {
            "0x1000000000000000000000000000000000000000": {
                "code": "0x6000600060006000346000355af1600055600160015500",
                "balance": "0x0"
            },
            "0xa94f5374fce5edbc8e2a8697c15331677e6ebf0b": {
                "balance": "0xffffffffffffffffffffffffffffffff"
            },
            "0xaaaf5374fce5edbc8e2a8697c15331677e6ebf0b": {
                "code": "0x60005460005200",
                "storage": {
                    "0x0000000000000000000000000000000000000000000000000000000000000000": "0x0000000000000000000000000000000000000000000000000000000000000001"
                },
                "balance": "0x1b58"
            },
            "0xbaaf5374fce5edbc8e2a8697c15331677e6ebf0b": {
                "code": "0x60005460005500",
                "storage": {
                    "0x0000000000000000000000000000000000000000000000000000000000000000": "0x0000000000000000000000000000000000000000000000000000000000000001"
                },
                "balance": "0x1b58"
            },
            "0xbbbf5374fce5edbc8e2a8697c15331677e6ebf0b": {
                "code": "0x5b61c3506080511015603e576000600061c350600073baaf5374fce5edbc8e2a8697c15331677e6ebf0b620186a0fa6000556001608051016080526000565b60805160015500",
                "balance": "0xfffffffffffff"
            },
            "0xcccf5374fce5edbc8e2a8697c15331677e6ebf0b": {
                "code": "0x5b61c3506080511015603e576000600061c350600073aaaf5374fce5edbc8e2a8697c15331677e6ebf0b620186a0fa6000556001608051016080526000565b60805160205500",
                "balance": "0xfffffffffffff"
            }
        },
        "transaction": {
            "gasPrice": "0xa",
            "maxFeePerGas": null,
            "maxPriorityFeePerGas": null,
            "nonce": "0x0",
            "to": "0x1000000000000000000000000000000000000000",
            "data": [
                "0x000000000000000000000000bbbf5374fce5edbc8e2a8697c15331677e6ebf0b",
                "0x000000000000000000000000cccf5374fce5edbc8e2a8697c15331677e6ebf0b"
            ],
            "gasLimit": [
                "0x14f46b0400"
            ],
            "value": [
                "0x0a"
            ],
            "secretKey": "0x45a915e4d060149eb4365960e6a7a45f334393093061116b197e3240065ff2d8"
        },
        "out": "0x",
        "post": {
            "ETC_Magneto": [
                {
                    "hash": "cf65323862fc207083bf9bc10a67febd1b94643d27fa0474a61c0d352ab9c296",
                    "logs": "1dcc4de8dec75d7aab85b567b6ccd41ad312451b948a7413f0a142fd40d49347",
                    "txbytes": "0xf882800a8514f46b04009410000000000000000000000000000000000000000aa0000000000000000000000000bbbf5374fce5edbc8e2a8697c15331677e6ebf0b1ca018bffe4245c250949fcf5f2c91a1b87696125006f0d9178a246d27fcca5988aea05e51205a6d82c0339262ed6fad22ede5f6c9c8a2cfc1dbb3a2d2dca1f53c6996",
                    "indexes": {
                        "data": 0,
                        "gas": 0,
                        "value": 0
                    }
                },
                {
                    "hash": "0e93402a67046e25dc6798d376214ac802cdf931a8599f51729f43958d34e6ba",
                    "logs": "1dcc4de8dec75d7aab85b567b6ccd41ad312451b948a7413f0a142fd40d49347",
                    "txbytes": "0xf882800a8514f46b04009410000000000000000000000000000000000000000aa0000000000000000000000000cccf5374fce5edbc8e2a8697c15331677e6ebf0b1ba01383e7dc9f63ea3c843b711c3efe5d690db1a58decdbb92ee77a792b89937dcfa06148b8e79632397ed15972b8f731c8d2cd026cdda5d1486cddf0c6ecb1ff65df",
                    "indexes": {
                        "data": 1,
                        "gas": 0,
                        "value": 0
                    }
                }
            ],
            "ETC_Mystique": [
                {
                    "hash": "cf65323862fc207083bf9bc10a67febd1b94643d27fa0474a61c0d352ab9c296",
                    "logs": "1dcc4de8dec75d7aab85b567b6ccd41ad312451b948a7413f0a142fd40d49347",
                    "txbytes": "0xf882800a8514f46b04009410000000000000000000000000000000000000000aa0000000000000000000000000bbbf5374fce5edbc8e2a8697c15331677e6ebf0b1ca018bffe4245c250949fcf5f2c91a1b87696125006f0d9178a246d27fcca5988aea05e51205a6d82c0339262ed6fad22ede5f6c9c8a2cfc1dbb3a2d2dca1f53c6996",
                    "indexes": {
                        "data": 0,
                        "gas": 0,
                        "value": 0
                    }
                },
                {
                    "hash": "0e93402a67046e25dc6798d376214ac802cdf931a8599f51729f43958d34e6ba",
                    "logs": "1dcc4de8dec75d7aab85b567b6ccd41ad312451b948a7413f0a142fd40d49347",
                    "txbytes": "0xf882800a8514f46b04009410000000000000000000000000000000000000000aa0000000000000000000000000cccf5374fce5edbc8e2a8697c15331677e6ebf0b1ba01383e7dc9f63ea3c843b711c3efe5d690db1a58decdbb92ee77a792b89937dcfa06148b8e79632397ed15972b8f731c8d2cd026cdda5d1486cddf0c6ecb1ff65df",
                    "indexes": {
                        "data": 1,
                        "gas": 0,
                        "value": 0
                    }
                }
            ],
            "ETC_Phoenix": [
                {
                    "hash": "000780098668eecc397203cd36c014fe5b1478d0314e60b88252dc87058b5ca9",
                    "logs": "1dcc4de8dec75d7aab85b567b6ccd41ad312451b948a7413f0a142fd40d49347",
                    "txbytes": "0xf882800a8514f46b04009410000000000000000000000000000000000000000aa0000000000000000000000000bbbf5374fce5edbc8e2a8697c15331677e6ebf0b1ca018bffe4245c250949fcf5f2c91a1b87696125006f0d9178a246d27fcca5988aea05e51205a6d82c0339262ed6fad22ede5f6c9c8a2cfc1dbb3a2d2dca1f53c6996",
                    "indexes": {
                        "data": 0,
                        "gas": 0,
                        "value": 0
                    }
                },
                {
                    "hash": "94c8f660df6dc3267f44e67cd8e3cf969efe504ad7f1c497b1ccf4be12876187",
                    "logs": "1dcc4de8dec75d7aab85b567b6ccd41ad312451b948a7413f0a142fd40d49347",
                    "txbytes": "0xf882800a8514f46b04009410000000000000000000000000000000000000000aa0000000000000000000000000cccf5374fce5edbc8e2a8697c15331677e6ebf0b1ba01383e7dc9f63ea3c843b711c3efe5d690db1a58decdbb92ee77a792b89937dcfa06148b8e79632397ed15972b8f731c8d2cd026cdda5d1486cddf0c6ecb1ff65df",
                    "indexes": {
                        "data": 1,
                        "gas": 0,
                        "value": 0
                    }
                }
            ]
        }
    }
}