{
    "static_callCreate": {
        "_info": {
            "comment": "",
            "filling-rpc-server": "evm version 1.10.16-unstable-0f893109-20220105",
            "filling-tool-version": "retesteth-0.2.2-testinfo+commit.01c6aac2.Linux.g++",
            "filledWith": "CoreGeth-1.12.9-unstable-d390462df9df233b60b4cd7a37db5b3043832022",
            "lllcversion": "Version: 0.5.14-develop.2021.11.27+commit.401d5358.Linux.g++",
            "source": "src/GeneralStateTestsFiller/stStaticCall/static_callCreateFiller.json",
            "sourceHash": "ef8bd72c76feaca37f7e3e8c2efbaa081532b0d0bebd3da32fe34a96ad339b4f"
        },
        "env": {
            "currentCoinbase": "0x2adc25665018aa1fe0e6bc666dac8fc2697ff9ba",
            "currentDifficulty": "0x20000",
            "currentGasLimit": "0x989680",
            "currentNumber": "0x1",
            "currentTimestamp": "0x3e8",
            "previousHash": "0x5e20a0453cecd065ea59c37ac63e079ee08998b6045136a8ce6635c7912ec0b6"
        },
        "pre": {
            "0x1000000000000000000000000000000000000000": {
                "code": "0x6000600060006000600035620493e0fa60005500",
                "balance": "0xde0b6b3a7640000",
                "nonce": "0x0"
            },
            "0x1000000000000000000000000000000000000001": {
                "code": "0x60006000600060006000731000000000000000000000000000000000000002620249f0f100",
                "balance": "0xde0b6b3a7640000",
                "nonce": "0x0"
            },
            "0x1000000000000000000000000000000000000002": {
                "code": "0x600160016000f000",
                "balance": "0xde0b6b3a7640000",
                "nonce": "0x0"
            },
            "0x1000000000000000000000000000000000000003": {
                "code": "0x6000600060006000731000000000000000000000000000000000000002620249f0f400",
                "balance": "0xde0b6b3a7640000",
                "nonce": "0x0"
            },
            "0x1000000000000000000000000000000000000004": {
                "code": "0x6000600060006000731000000000000000000000000000000000000002620249f0fa00",
                "balance": "0xde0b6b3a7640000",
                "nonce": "0x0"
            },
            "0xa94f5374fce5edbc8e2a8697c15331677e6ebf0b": {
                "code": "0x",
                "balance": "0xde0b6b3a7640000",
                "nonce": "0x0"
            }
        },
        "transaction": {
            "gasPrice": "0xa",
            "nonce": "0x0",
            "to": "0x1000000000000000000000000000000000000000",
            "data": [
                "0x0000000000000000000000001000000000000000000000000000000000000001",
                "0x0000000000000000000000001000000000000000000000000000000000000002",
                "0x0000000000000000000000001000000000000000000000000000000000000003",
                "0x0000000000000000000000001000000000000000000000000000000000000004"
            ],
            "gasLimit": [
                "0xf4240"
            ],
            "value": [
                "0x0186a0"
            ],
            "secretKey": "0x45a915e4d060149eb4365960e6a7a45f334393093061116b197e3240065ff2d8",
            "sender": "0xa94f5374fce5edbc8e2a8697c15331677e6ebf0b"
        },
        "post": {
            "ETC_Magneto": [
                {
                    "hash": "67f665faa04224f920cce3fdbc519ffb5007c29c3b7496b69454a37f740d45e7",
                    "logs": "1dcc4de8dec75d7aab85b567b6ccd41ad312451b948a7413f0a142fd40d49347",
                    "txbytes": "0xf882800a830f4240941000000000000000000000000000000000000000830186a0a000000000000000000000000010000000000000000000000000000000000000011ca0514e6d57b27c36a1adf5890b29f2022eb31ca22c9caf7ec23173cce0e205b1fa9f2b4089c9e9eb460c07d87a38b69fb5ee99cc7fdf6b3a4da9b485c0ba654a5b",
                    "indexes": {
                        "data": 0,
                        "gas": 0,
                        "value": 0
                    }
                },
                {
                    "hash": "ffa6f78eeee91cda755f9538c15f4883573850af394fd798fd8db442eeedeff8",
                    "logs": "1dcc4de8dec75d7aab85b567b6ccd41ad312451b948a7413f0a142fd40d49347",
                    "txbytes": "0xf883800a830f4240941000000000000000000000000000000000000000830186a0a000000000000000000000000010000000000000000000000000000000000000031ba06bdd77330496339693751e9305ae7695fe274e72ad2450532f7f60a8c45ebeb4a0541cfd67e180492a0ca5f8272bdde9a239db8950be5954b90822be7b362f2637",
                    "indexes": {
                        "data": 2,
                        "gas": 0,
                        "value": 0
                    }
                },
                {
                    "hash": "ffa6f78eeee91cda755f9538c15f4883573850af394fd798fd8db442eeedeff8",
                    "logs": "1dcc4de8dec75d7aab85b567b6ccd41ad312451b948a7413f0a142fd40d49347",
                    "txbytes": "0xf883800a830f4240941000000000000000000000000000000000000000830186a0a000000000000000000000000010000000000000000000000000000000000000041ba0856611cf5e52fb801e04e673f3f74d36ac5a30f2a79e0e6daaf0bfdcb85b5ffba051732305ba41bc2ebabdaba4ec509d27b2939a5c8f8141a65d26be9c37e6d666",
                    "indexes": {
                        "data": 3,
                        "gas": 0,
                        "value": 0
                    }
                },
                {
                    "hash": "191b57def28544393827858fd29127c3fc5eb1870f5cdc488066470870b03467",
                    "logs": "1dcc4de8dec75d7aab85b567b6ccd41ad312451b948a7413f0a142fd40d49347",
                    "txbytes": "0xf883800a830f4240941000000000000000000000000000000000000000830186a0a000000000000000000000000010000000000000000000000000000000000000021ca03b37c5591fddac206a7ccce34908e7ef2d67216140a5dc4d14bd86419ed443daa06e94719c8b134c3ad4350a8f16b086be08c4071bc3b4dbe46276cde10b1d510e",
                    "indexes": {
                        "data": 1,
                        "gas": 0,
                        "value": 0
                    }
                }
            ],
            "ETC_Mystique": [
                {
                    "hash": "67f665faa04224f920cce3fdbc519ffb5007c29c3b7496b69454a37f740d45e7",
                    "logs": "1dcc4de8dec75d7aab85b567b6ccd41ad312451b948a7413f0a142fd40d49347",
                    "txbytes": "0xf882800a830f4240941000000000000000000000000000000000000000830186a0a000000000000000000000000010000000000000000000000000000000000000011ca0514e6d57b27c36a1adf5890b29f2022eb31ca22c9caf7ec23173cce0e205b1fa9f2b4089c9e9eb460c07d87a38b69fb5ee99cc7fdf6b3a4da9b485c0ba654a5b",
                    "indexes": {
                        "data": 0,
                        "gas": 0,
                        "value": 0
                    }
                },
                {
                    "hash": "ffa6f78eeee91cda755f9538c15f4883573850af394fd798fd8db442eeedeff8",
                    "logs": "1dcc4de8dec75d7aab85b567b6ccd41ad312451b948a7413f0a142fd40d49347",
                    "txbytes": "0xf883800a830f4240941000000000000000000000000000000000000000830186a0a000000000000000000000000010000000000000000000000000000000000000031ba06bdd77330496339693751e9305ae7695fe274e72ad2450532f7f60a8c45ebeb4a0541cfd67e180492a0ca5f8272bdde9a239db8950be5954b90822be7b362f2637",
                    "indexes": {
                        "data": 2,
                        "gas": 0,
                        "value": 0
                    }
                },
                {
                    "hash": "ffa6f78eeee91cda755f9538c15f4883573850af394fd798fd8db442eeedeff8",
                    "logs": "1dcc4de8dec75d7aab85b567b6ccd41ad312451b948a7413f0a142fd40d49347",
                    "txbytes": "0xf883800a830f4240941000000000000000000000000000000000000000830186a0a000000000000000000000000010000000000000000000000000000000000000041ba0856611cf5e52fb801e04e673f3f74d36ac5a30f2a79e0e6daaf0bfdcb85b5ffba051732305ba41bc2ebabdaba4ec509d27b2939a5c8f8141a65d26be9c37e6d666",
                    "indexes": {
                        "data": 3,
                        "gas": 0,
                        "value": 0
                    }
                },
                {
                    "hash": "191b57def28544393827858fd29127c3fc5eb1870f5cdc488066470870b03467",
                    "logs": "1dcc4de8dec75d7aab85b567b6ccd41ad312451b948a7413f0a142fd40d49347",
                    "txbytes": "0xf883800a830f4240941000000000000000000000000000000000000000830186a0a000000000000000000000000010000000000000000000000000000000000000021ca03b37c5591fddac206a7ccce34908e7ef2d67216140a5dc4d14bd86419ed443daa06e94719c8b134c3ad4350a8f16b086be08c4071bc3b4dbe46276cde10b1d510e",
                    "indexes": {
                        "data": 1,
                        "gas": 0,
                        "value": 0
                    }
                }
            ],
            "ETC_Phoenix": [
                {
                    "hash": "870f355fa3039e91e43830333c6377d14ffd221bb696d4ee5a616eea8ec3e69f",
                    "logs": "1dcc4de8dec75d7aab85b567b6ccd41ad312451b948a7413f0a142fd40d49347",
                    "txbytes": "0xf882800a830f4240941000000000000000000000000000000000000000830186a0a000000000000000000000000010000000000000000000000000000000000000011ca0514e6d57b27c36a1adf5890b29f2022eb31ca22c9caf7ec23173cce0e205b1fa9f2b4089c9e9eb460c07d87a38b69fb5ee99cc7fdf6b3a4da9b485c0ba654a5b",
                    "indexes": {
                        "data": 0,
                        "gas": 0,
                        "value": 0
                    }
                },
                {
                    "hash": "34ee0e057af2b21af871d5ca6d31bdbcffc63ed2511e6fd3ca0d84a42a79ea9e",
                    "logs": "1dcc4de8dec75d7aab85b567b6ccd41ad312451b948a7413f0a142fd40d49347",
                    "txbytes": "0xf883800a830f4240941000000000000000000000000000000000000000830186a0a000000000000000000000000010000000000000000000000000000000000000031ba06bdd77330496339693751e9305ae7695fe274e72ad2450532f7f60a8c45ebeb4a0541cfd67e180492a0ca5f8272bdde9a239db8950be5954b90822be7b362f2637",
                    "indexes": {
                        "data": 2,
                        "gas": 0,
                        "value": 0
                    }
                },
                {
                    "hash": "34ee0e057af2b21af871d5ca6d31bdbcffc63ed2511e6fd3ca0d84a42a79ea9e",
                    "logs": "1dcc4de8dec75d7aab85b567b6ccd41ad312451b948a7413f0a142fd40d49347",
                    "txbytes": "0xf883800a830f4240941000000000000000000000000000000000000000830186a0a000000000000000000000000010000000000000000000000000000000000000041ba0856611cf5e52fb801e04e673f3f74d36ac5a30f2a79e0e6daaf0bfdcb85b5ffba051732305ba41bc2ebabdaba4ec509d27b2939a5c8f8141a65d26be9c37e6d666",
                    "indexes": {
                        "data": 3,
                        "gas": 0,
                        "value": 0
                    }
                },
                {
                    "hash": "8daecc12432364165c223c4c052c7a59df653523c081c10a7ac1387d9ec7d629",
                    "logs": "1dcc4de8dec75d7aab85b567b6ccd41ad312451b948a7413f0a142fd40d49347",
                    "txbytes": "0xf883800a830f4240941000000000000000000000000000000000000000830186a0a000000000000000000000000010000000000000000000000000000000000000021ca03b37c5591fddac206a7ccce34908e7ef2d67216140a5dc4d14bd86419ed443daa06e94719c8b134c3ad4350a8f16b086be08c4071bc3b4dbe46276cde10b1d510e",
                    "indexes": {
                        "data": 1,
                        "gas": 0,
                        "value": 0
                    }
                }
            ]
        }
    }
}