{
    "static_Call50000_identity": {
        "_info": {
            "comment": "",
            "filling-rpc-server": "evm version 1.10.16-unstable-0f893109-20220105",
            "filling-tool-version": "retesteth-0.2.2-testinfo+commit.01c6aac2.Linux.g++",
            "filledWith": "CoreGeth-1.12.9-unstable-4d59a861107c8232d6896811c48f229d30087be4",
            "lllcversion": "Version: 0.5.14-develop.2021.11.27+commit.401d5358.Linux.g++",
            "source": "src/GeneralStateTestsFiller/stStaticCall/static_Call50000_identityFiller.json",
            "sourceHash": "944000c53b5d924512a639bc327a0c25d087719c45fe1535448df7ea66033288"
        },
        "env": {
            "currentCoinbase": "0xb94f5374fce5edbc8e2a8697c15331677e6ebf0b",
            "currentDifficulty": "0x20000",
            "currentGasLimit": "0x551d8d0",
            "currentNumber": "0x1",
            "currentTimestamp": "0x3e8",
            "currentBaseFee": "0xa",
            "previousHash": "0x5e20a0453cecd065ea59c37ac63e079ee08998b6045136a8ce6635c7912ec0b6"
        },
        "pre": {
            "0x1000000000000000000000000000000000000000": {
                "code": "0x6000600060006000346000355af1600055600160015500",
                "balance": "0x0"
            },
            "0xa94f5374fce5edbc8e2a8697c15331677e6ebf0b": {
                "balance": "0xffffffffffffffffffffffffffffffff"
            },
            "0xbbbf5374fce5edbc8e2a8697c15331677e6ebf0b": {
                "code": "0x5b61c3506080511015602a576000600061c3506000600461061cfa6000556001608051016080526000565b60805160015500",
                "balance": "0xfffffffffffff"
            },
            "0xcccf5374fce5edbc8e2a8697c15331677e6ebf0b": {
                "code": "0x5b61c3506080511015602a576000600061c3506000600461061cfa6000526001608051016080526000565b60805160205200",
                "balance": "0xfffffffffffff"
            }
        },
        "transaction": {
            "gasPrice": "0xa",
            "nonce": "0x0",
            "to": "0x1000000000000000000000000000000000000000",
            "data": [
                "0x000000000000000000000000bbbf5374fce5edbc8e2a8697c15331677e6ebf0b",
                "0x000000000000000000000000cccf5374fce5edbc8e2a8697c15331677e6ebf0b"
            ],
            "gasLimit": [
                "0x5429690"
            ],
            "value": [
                "0x0a"
            ],
            "secretKey": "0x45a915e4d060149eb4365960e6a7a45f334393093061116b197e3240065ff2d8",
            "sender": "0xa94f5374fce5edbc8e2a8697c15331677e6ebf0b"
        },
        "post": {
            "ETC_Magneto": [
                {
                    "hash": "5e45c70bd2a56a85b38b521a7a5ab1e2d45f642d858cb2af43f8de49685356ed",
                    "logs": "1dcc4de8dec75d7aab85b567b6ccd41ad312451b948a7413f0a142fd40d49347",
                    "txbytes": "0xf881800a84054296909410000000000000000000000000000000000000000aa0000000000000000000000000bbbf5374fce5edbc8e2a8697c15331677e6ebf0b1ba055f9f03558e3f4c0a4517d02319c07a4974ac4650d83ebb67c838be3ddf5d481a0082a9924817046d83dd79e5652586b3ecf26bbb84dcf7e2508f6ca88bc516f72",
                    "indexes": {
                        "data": 0,
                        "gas": 0,
                        "value": 0
                    }
                },
                {
                    "hash": "5e45c70bd2a56a85b38b521a7a5ab1e2d45f642d858cb2af43f8de49685356ed",
                    "logs": "1dcc4de8dec75d7aab85b567b6ccd41ad312451b948a7413f0a142fd40d49347",
                    "txbytes": "0xf881800a84054296909410000000000000000000000000000000000000000aa0000000000000000000000000cccf5374fce5edbc8e2a8697c15331677e6ebf0b1ba0055f7680e202a4f3c1d0e4df9f93edfcd7c1bf0c06b7bade7987a7348be40d06a00ec2e2ec37a5b701789e24c75983f8e03870efd9738479a5cbb59fe940aa2bee",
                    "indexes": {
                        "data": 1,
                        "gas": 0,
                        "value": 0
                    }
                }
            ],
            "ETC_Mystique": [
                {
                    "hash": "5e45c70bd2a56a85b38b521a7a5ab1e2d45f642d858cb2af43f8de49685356ed",
                    "logs": "1dcc4de8dec75d7aab85b567b6ccd41ad312451b948a7413f0a142fd40d49347",
                    "txbytes": "0xf881800a84054296909410000000000000000000000000000000000000000aa0000000000000000000000000bbbf5374fce5edbc8e2a8697c15331677e6ebf0b1ba055f9f03558e3f4c0a4517d02319c07a4974ac4650d83ebb67c838be3ddf5d481a0082a9924817046d83dd79e5652586b3ecf26bbb84dcf7e2508f6ca88bc516f72",
                    "indexes": {
                        "data": 0,
                        "gas": 0,
                        "value": 0
                    }
                },
                {
                    "hash": "5e45c70bd2a56a85b38b521a7a5ab1e2d45f642d858cb2af43f8de49685356ed",
                    "logs": "1dcc4de8dec75d7aab85b567b6ccd41ad312451b948a7413f0a142fd40d49347",
                    "txbytes": "0xf881800a84054296909410000000000000000000000000000000000000000aa0000000000000000000000000cccf5374fce5edbc8e2a8697c15331677e6ebf0b1ba0055f7680e202a4f3c1d0e4df9f93edfcd7c1bf0c06b7bade7987a7348be40d06a00ec2e2ec37a5b701789e24c75983f8e03870efd9738479a5cbb59fe940aa2bee",
                    "indexes": {
                        "data": 1,
                        "gas": 0,
                        "value": 0
                    }
                }
            ],
            "ETC_Phoenix": [
                {
                    "hash": "69d627a237a6bc9ba79c10cb2cfdd88c04e308471765cd73a8db88e5e3aec387",
                    "logs": "1dcc4de8dec75d7aab85b567b6ccd41ad312451b948a7413f0a142fd40d49347",
                    "txbytes": "0xf881800a84054296909410000000000000000000000000000000000000000aa0000000000000000000000000bbbf5374fce5edbc8e2a8697c15331677e6ebf0b1ba055f9f03558e3f4c0a4517d02319c07a4974ac4650d83ebb67c838be3ddf5d481a0082a9924817046d83dd79e5652586b3ecf26bbb84dcf7e2508f6ca88bc516f72",
                    "indexes": {
                        "data": 0,
                        "gas": 0,
                        "value": 0
                    }
                },
                {
                    "hash": "69d627a237a6bc9ba79c10cb2cfdd88c04e308471765cd73a8db88e5e3aec387",
                    "logs": "1dcc4de8dec75d7aab85b567b6ccd41ad312451b948a7413f0a142fd40d49347",
                    "txbytes": "0xf881800a84054296909410000000000000000000000000000000000000000aa0000000000000000000000000cccf5374fce5edbc8e2a8697c15331677e6ebf0b1ba0055f7680e202a4f3c1d0e4df9f93edfcd7c1bf0c06b7bade7987a7348be40d06a00ec2e2ec37a5b701789e24c75983f8e03870efd9738479a5cbb59fe940aa2bee",
                    "indexes": {
                        "data": 1,
                        "gas": 0,
                        "value": 0
                    }
                }
            ]
        }
    }
}