{
    "static_callcallcall_000": {
        "_info": {
            "comment": "",
            "filling-rpc-server": "evm version 1.10.16-unstable-0f893109-20220105",
            "filling-tool-version": "retesteth-0.2.2-testinfo+commit.01c6aac2.Linux.g++",
            "filledWith": "CoreGeth-1.12.9-unstable-d390462df9df233b60b4cd7a37db5b3043832022",
            "lllcversion": "Version: 0.5.14-develop.2021.11.27+commit.401d5358.Linux.g++",
            "source": "src/GeneralStateTestsFiller/stStaticCall/static_callcallcall_000Filler.json",
            "sourceHash": "c0555a416d537e787c4de3d9513b95563fe54ae3b623b3752d4da9b524347a28"
        },
        "env": {
            "currentCoinbase": "0x2adc25665018aa1fe0e6bc666dac8fc2697ff9ba",
            "currentDifficulty": "0x20000",
            "currentGasLimit": "0x1c9c380",
            "currentNumber": "0x1",
            "currentTimestamp": "0x3e8",
            "previousHash": "0x5e20a0453cecd065ea59c37ac63e079ee08998b6045136a8ce6635c7912ec0b6"
        },
        "pre": {
            "0x1000000000000000000000000000000000000000": {
                "code": "0x60406000604060007310000000000000000000000000000000000000016209eb10fa60005500",
                "balance": "0xde0b6b3a7640000",
                "nonce": "0x0"
            },
            "0x1000000000000000000000000000000000000001": {
                "code": "0x6001600352604060006040600073100000000000000000000000000000000000000262061a80fa50600160205200",
                "balance": "0xde0b6b3a7640000",
                "nonce": "0x0"
            },
            "0x1000000000000000000000000000000000000002": {
                "code": "0x600160035260406000604060007310000000000000000000000000000000000000036203d090fa50600160205200",
                "balance": "0xde0b6b3a7640000",
                "nonce": "0x0"
            },
            "0x1000000000000000000000000000000000000003": {
                "code": "0x600160035533600455346007553061014a553261014c55366101505538610152553a6101545500",
                "balance": "0x0",
                "nonce": "0x0"
            },
            "0x2000000000000000000000000000000000000000": {
                "code": "0x604060006040600073200000000000000000000000000000000000000162055730fa60005500",
                "balance": "0xde0b6b3a7640000",
                "nonce": "0x0"
            },
            "0x2000000000000000000000000000000000000001": {
                "code": "0x60016003526040600060406000732000000000000000000000000000000000000002620493e0fa50600160205200",
                "balance": "0xde0b6b3a7640000",
                "nonce": "0x0"
            },
            "0x2000000000000000000000000000000000000002": {
                "code": "0x600160035260406000604060007320000000000000000000000000000000000000036203d090fa50600160205200",
                "balance": "0xde0b6b3a7640000",
                "nonce": "0x0"
            },
            "0x2000000000000000000000000000000000000003": {
                "code": "0x600160035200",
                "balance": "0x0",
                "nonce": "0x0"
            },
            "0xa000000000000000000000000000000000000000": {
                "code": "0x6000600060006000346000355af1600055600160015500",
                "balance": "0x0",
                "nonce": "0x0"
            },
            "0xa94f5374fce5edbc8e2a8697c15331677e6ebf0b": {
                "code": "0x",
                "balance": "0xde0b6b3a7640000",
                "nonce": "0x0"
            }
        },
        "transaction": {
            "gasPrice": "0xa",
            "nonce": "0x0",
            "to": "0xa000000000000000000000000000000000000000",
            "data": [
                "0x0000000000000000000000001000000000000000000000000000000000000000",
                "0x0000000000000000000000002000000000000000000000000000000000000000"
            ],
            "gasLimit": [
                "0x2dc6c0"
            ],
            "value": [
                "0x00"
            ],
            "secretKey": "0x45a915e4d060149eb4365960e6a7a45f334393093061116b197e3240065ff2d8",
            "sender": "0xa94f5374fce5edbc8e2a8697c15331677e6ebf0b"
        },
        "post": {
            "ETC_Magneto": [
                {
                    "hash": "bc9080a2336219481e354877f4cbe071dde8bba105362f550b23bce2c5806320",
                    "logs": "1dcc4de8dec75d7aab85b567b6ccd41ad312451b948a7413f0a142fd40d49347",
                    "txbytes": "0xf880800a832dc6c094a00000000000000000000000000000000000000080a000000000000000000000000010000000000000000000000000000000000000001ba0fc76c53941910cc75d6b1e3b6e9828079eddb5bc36e2c93227cf1bab02459d9fa034c9bbd4849b1e31e3295cc756143c7f50d62538804e3c6454c1f7863eae231b",
                    "indexes": {
                        "data": 0,
                        "gas": 0,
                        "value": 0
                    }
                },
                {
                    "hash": "5cbcf971931d19ebed58945bc96f2cc38d2aa7cece39a3c9f988fb0d926c024f",
                    "logs": "1dcc4de8dec75d7aab85b567b6ccd41ad312451b948a7413f0a142fd40d49347",
                    "txbytes": "0xf880800a832dc6c094a00000000000000000000000000000000000000080a000000000000000000000000020000000000000000000000000000000000000001ba0a2c8404e47dad6bc51c70e20f899eac8d519c681d9cb38b6889e81043ccb4e0ca00e02dfe8720c12f9a5bd2b689534ee298755ef9e16f2c08eec3b371ad038519a",
                    "indexes": {
                        "data": 1,
                        "gas": 0,
                        "value": 0
                    }
                }
            ],
            "ETC_Mystique": [
                {
                    "hash": "bc9080a2336219481e354877f4cbe071dde8bba105362f550b23bce2c5806320",
                    "logs": "1dcc4de8dec75d7aab85b567b6ccd41ad312451b948a7413f0a142fd40d49347",
                    "txbytes": "0xf880800a832dc6c094a00000000000000000000000000000000000000080a000000000000000000000000010000000000000000000000000000000000000001ba0fc76c53941910cc75d6b1e3b6e9828079eddb5bc36e2c93227cf1bab02459d9fa034c9bbd4849b1e31e3295cc756143c7f50d62538804e3c6454c1f7863eae231b",
                    "indexes": {
                        "data": 0,
                        "gas": 0,
                        "value": 0
                    }
                },
                {
                    "hash": "5cbcf971931d19ebed58945bc96f2cc38d2aa7cece39a3c9f988fb0d926c024f",
                    "logs": "1dcc4de8dec75d7aab85b567b6ccd41ad312451b948a7413f0a142fd40d49347",
                    "txbytes": "0xf880800a832dc6c094a00000000000000000000000000000000000000080a000000000000000000000000020000000000000000000000000000000000000001ba0a2c8404e47dad6bc51c70e20f899eac8d519c681d9cb38b6889e81043ccb4e0ca00e02dfe8720c12f9a5bd2b689534ee298755ef9e16f2c08eec3b371ad038519a",
                    "indexes": {
                        "data": 1,
                        "gas": 0,
                        "value": 0
                    }
                }
            ],
            "ETC_Phoenix": [
                {
                    "hash": "fecde8798d2e55c90daeaba858a4f34d45575ba8c65b07b8228b4c3f7d054d24",
                    "logs": "1dcc4de8dec75d7aab85b567b6ccd41ad312451b948a7413f0a142fd40d49347",
                    "txbytes": "0xf880800a832dc6c094a00000000000000000000000000000000000000080a000000000000000000000000010000000000000000000000000000000000000001ba0fc76c53941910cc75d6b1e3b6e9828079eddb5bc36e2c93227cf1bab02459d9fa034c9bbd4849b1e31e3295cc756143c7f50d62538804e3c6454c1f7863eae231b",
                    "indexes": {
                        "data": 0,
                        "gas": 0,
                        "value": 0
                    }
                },
                {
                    "hash": "a801f8bb93870f04931bcea5fa151cb2e87babb398158a5ad5bc68f8bada9740",
                    "logs": "1dcc4de8dec75d7aab85b567b6ccd41ad312451b948a7413f0a142fd40d49347",
                    "txbytes": "0xf880800a832dc6c094a00000000000000000000000000000000000000080a000000000000000000000000020000000000000000000000000000000000000001ba0a2c8404e47dad6bc51c70e20f899eac8d519c681d9cb38b6889e81043ccb4e0ca00e02dfe8720c12f9a5bd2b689534ee298755ef9e16f2c08eec3b371ad038519a",
                    "indexes": {
                        "data": 1,
                        "gas": 0,
                        "value": 0
                    }
                }
            ]
        }
    }
}