{
    "static_callcallcodecallcode_011_OOGE": {
        "_info": {
            "comment": "",
            "filling-rpc-server": "evm version 1.10.16-unstable-0f893109-20220105",
            "filling-tool-version": "retesteth-0.2.2-testinfo+commit.01c6aac2.Linux.g++",
            "filledWith": "CoreGeth-1.12.9-unstable-4d59a861107c8232d6896811c48f229d30087be4",
            "lllcversion": "Version: 0.5.14-develop.2021.11.27+commit.401d5358.Linux.g++",
            "source": "src/GeneralStateTestsFiller/stStaticCall/static_callcallcodecallcode_011_OOGEFiller.json",
            "sourceHash": "7e40b790bc67bdc3a97aae6ae98929098cffa5307d7d64c26ffd9ca59714ee2e"
        },
        "env": {
            "currentCoinbase": "0x2adc25665018aa1fe0e6bc666dac8fc2697ff9ba",
            "currentDifficulty": "0x20000",
            "currentGasLimit": "0x1c9c380",
            "currentNumber": "0x1",
            "currentTimestamp": "0x3e8",
            "currentBaseFee": "0xa",
            "previousHash": "0x5e20a0453cecd065ea59c37ac63e079ee08998b6045136a8ce6635c7912ec0b6"
        },
        "pre": {
            "0x1000000000000000000000000000000000000000": {
                "code": "0x6000356000526040600060406000731000000000000000000000000000000000000001620249f0fa600055600160015500",
                "balance": "0xde0b6b3a7640000"
            },
            "0x1000000000000000000000000000000000000001": {
                "code": "0x6000356000526040600060406000731000000000000000000000000000000000000002620186a0f400",
                "balance": "0x0"
            },
            "0x1000000000000000000000000000000000000002": {
                "code": "0x6040600060406000600035614e34f400",
                "balance": "0x0"
            },
            "0x1000000000000000000000000000000000000003": {
                "code": "0x600160035500",
                "balance": "0x0"
            },
            "0x2000000000000000000000000000000000000003": {
                "code": "0x5b61c3506080511015601c5760013b506001608051016080526000565b00",
                "balance": "0x0"
            },
            "0xa94f5374fce5edbc8e2a8697c15331677e6ebf0b": {
                "balance": "0xde0b6b3a7640000"
            }
        },
        "transaction": {
            "gasPrice": "0xa",
            "nonce": "0x0",
            "to": "0x1000000000000000000000000000000000000000",
            "data": [
                "0x0000000000000000000000001000000000000000000000000000000000000003",
                "0x0000000000000000000000002000000000000000000000000000000000000003"
            ],
            "gasLimit": [
                "0x29fe0"
            ],
            "value": [
                "0x00"
            ],
            "secretKey": "0x45a915e4d060149eb4365960e6a7a45f334393093061116b197e3240065ff2d8",
            "sender": "0xa94f5374fce5edbc8e2a8697c15331677e6ebf0b"
        },
        "post": {
            "ETC_Magneto": [
                {
                    "hash": "50a9eedc348dc964ff5456b8978e9b7b6b05d5b5f0d8ea93426ea0dbf2a7cd90",
                    "logs": "1dcc4de8dec75d7aab85b567b6ccd41ad312451b948a7413f0a142fd40d49347",
                    "txbytes": "0xf880800a83029fe094100000000000000000000000000000000000000080a000000000000000000000000010000000000000000000000000000000000000031ba02de559c20f04cf203f4f92c5cf57d9751975feb2c9bb74290ef3c8ec956be420a0652f76501a071ad5861437076f2bb53dbb993279ffe6ec388c739acc8e215874",
                    "indexes": {
                        "data": 0,
                        "gas": 0,
                        "value": 0
                    }
                },
                {
                    "hash": "50a9eedc348dc964ff5456b8978e9b7b6b05d5b5f0d8ea93426ea0dbf2a7cd90",
                    "logs": "1dcc4de8dec75d7aab85b567b6ccd41ad312451b948a7413f0a142fd40d49347",
                    "txbytes": "0xf880800a83029fe094100000000000000000000000000000000000000080a000000000000000000000000020000000000000000000000000000000000000031ca082d255cfb41fa33e99950f8306cacd35c896f2c9c60734c0f14c8e0c6fdc3dc6a06d59f9f72cb99dadf8513e4d2184bee81a566b4e26c87c033d76f891cca01cf6",
                    "indexes": {
                        "data": 1,
                        "gas": 0,
                        "value": 0
                    }
                }
            ],
            "ETC_Mystique": [
                {
                    "hash": "50a9eedc348dc964ff5456b8978e9b7b6b05d5b5f0d8ea93426ea0dbf2a7cd90",
                    "logs": "1dcc4de8dec75d7aab85b567b6ccd41ad312451b948a7413f0a142fd40d49347",
                    "txbytes": "0xf880800a83029fe094100000000000000000000000000000000000000080a000000000000000000000000010000000000000000000000000000000000000031ba02de559c20f04cf203f4f92c5cf57d9751975feb2c9bb74290ef3c8ec956be420a0652f76501a071ad5861437076f2bb53dbb993279ffe6ec388c739acc8e215874",
                    "indexes": {
                        "data": 0,
                        "gas": 0,
                        "value": 0
                    }
                },
                {
                    "hash": "50a9eedc348dc964ff5456b8978e9b7b6b05d5b5f0d8ea93426ea0dbf2a7cd90",
                    "logs": "1dcc4de8dec75d7aab85b567b6ccd41ad312451b948a7413f0a142fd40d49347",
                    "txbytes": "0xf880800a83029fe094100000000000000000000000000000000000000080a000000000000000000000000020000000000000000000000000000000000000031ca082d255cfb41fa33e99950f8306cacd35c896f2c9c60734c0f14c8e0c6fdc3dc6a06d59f9f72cb99dadf8513e4d2184bee81a566b4e26c87c033d76f891cca01cf6",
                    "indexes": {
                        "data": 1,
                        "gas": 0,
                        "value": 0
                    }
                }
            ],
            "ETC_Phoenix": [
                {
                    "hash": "9d2123d1db9bfe7e17477b837b98137e6133ffa01b1b254bdb884805854ae1cb",
                    "logs": "1dcc4de8dec75d7aab85b567b6ccd41ad312451b948a7413f0a142fd40d49347",
                    "txbytes": "0xf880800a83029fe094100000000000000000000000000000000000000080a000000000000000000000000010000000000000000000000000000000000000031ba02de559c20f04cf203f4f92c5cf57d9751975feb2c9bb74290ef3c8ec956be420a0652f76501a071ad5861437076f2bb53dbb993279ffe6ec388c739acc8e215874",
                    "indexes": {
                        "data": 0,
                        "gas": 0,
                        "value": 0
                    }
                },
                {
                    "hash": "9d2123d1db9bfe7e17477b837b98137e6133ffa01b1b254bdb884805854ae1cb",
                    "logs": "1dcc4de8dec75d7aab85b567b6ccd41ad312451b948a7413f0a142fd40d49347",
                    "txbytes": "0xf880800a83029fe094100000000000000000000000000000000000000080a000000000000000000000000020000000000000000000000000000000000000031ca082d255cfb41fa33e99950f8306cacd35c896f2c9c60734c0f14c8e0c6fdc3dc6a06d59f9f72cb99dadf8513e4d2184bee81a566b4e26c87c033d76f891cca01cf6",
                    "indexes": {
                        "data": 1,
                        "gas": 0,
                        "value": 0
                    }
                }
            ]
        }
    }
}