{
    "static_LoopCallsDepthThenRevert2": {
        "_info": {
            "comment": "",
            "filling-rpc-server": "evm version 1.10.16-unstable-0f893109-20220105",
            "filling-tool-version": "retesteth-0.2.2-testinfo+commit.01c6aac2.Linux.g++",
            "filledWith": "CoreGeth-1.12.9-unstable-f4059ddd82d975bdc54fa648e5422a80172161cb",
            "lllcversion": "Version: 0.5.14-develop.2021.11.27+commit.401d5358.Linux.g++",
            "source": "src/GeneralStateTestsFiller/stStaticCall/static_LoopCallsDepthThenRevert2Filler.json",
            "sourceHash": "f7a4595270dbabf8d9d9107f736e051e2c80c6ba4a7f04eea6a0d94866080757"
        },
        "env": {
            "currentCoinbase": "2adc25665018aa1fe0e6bc666dac8fc2697ff9ba",
            "currentDifficulty": "0x20000",
            "currentRandom": null,
            "currentGasLimit": "0x7fffffffffffffff",
            "currentNumber": "0x1",
            "currentTimestamp": "0x3e8",
            "currentBaseFee": "0xa"
        },
        "pre": {
            "0xa000000000000000000000000000000000000000": {
                "code": "0x6103ff60003514603d57600160003501600052600060006020600073a0000000000000000000000000000000000000005afa5061041a600051106051575b66600060006002f0600052600760196003f0505b",
                "balance": "0xa"
            },
            "0xa94f5374fce5edbc8e2a8697c15331677e6ebf0b": {
                "balance": "0x13426172c74d822b878fe800000000"
            }
        },
        "transaction": {
            "gasPrice": "0xa",
            "maxFeePerGas": null,
            "maxPriorityFeePerGas": null,
            "nonce": "0x0",
            "to": "0xa000000000000000000000000000000000000000",
            "data": [
                "0x"
            ],
            "gasLimit": [
                "0x7fe0000000000001"
            ],
            "value": [
                "0x00"
            ],
            "secretKey": "0x45a915e4d060149eb4365960e6a7a45f334393093061116b197e3240065ff2d8"
        },
        "out": "0x",
        "post": {
            "ETC_Magneto": [
                {
                    "hash": "d16bb69238f6575e5714ea102e905451bd7c4facb72e8b5bf68539ea53c76ad4",
                    "logs": "1dcc4de8dec75d7aab85b567b6ccd41ad312451b948a7413f0a142fd40d49347",
                    "txbytes": "0xf865800a887fe000000000000194a00000000000000000000000000000000000000080801ba045940258a3a315af154284f8adc1a1d2d45ece5442735eed1becc8263e223782a04d1e76dbc74c087276a8b56d6fd0be83d688c872909868d2f6edd71329042430",
                    "indexes": {
                        "data": 0,
                        "gas": 0,
                        "value": 0
                    }
                }
            ],
            "ETC_Mystique": [
                {
                    "hash": "d16bb69238f6575e5714ea102e905451bd7c4facb72e8b5bf68539ea53c76ad4",
                    "logs": "1dcc4de8dec75d7aab85b567b6ccd41ad312451b948a7413f0a142fd40d49347",
                    "txbytes": "0xf865800a887fe000000000000194a00000000000000000000000000000000000000080801ba045940258a3a315af154284f8adc1a1d2d45ece5442735eed1becc8263e223782a04d1e76dbc74c087276a8b56d6fd0be83d688c872909868d2f6edd71329042430",
                    "indexes": {
                        "data": 0,
                        "gas": 0,
                        "value": 0
                    }
                }
            ],
            "ETC_Phoenix": [
                {
                    "hash": "9538dfcf72f3a71995c08cb180370fea58c54a5c098039982edf6ac8fcd39ac1",
                    "logs": "1dcc4de8dec75d7aab85b567b6ccd41ad312451b948a7413f0a142fd40d49347",
                    "txbytes": "0xf865800a887fe000000000000194a00000000000000000000000000000000000000080801ba045940258a3a315af154284f8adc1a1d2d45ece5442735eed1becc8263e223782a04d1e76dbc74c087276a8b56d6fd0be83d688c872909868d2f6edd71329042430",
                    "indexes": {
                        "data": 0,
                        "gas": 0,
                        "value": 0
                    }
                }
            ]
        }
    }
}