{
    "static_CallRecursiveBomb1": {
        "_info": {
            "comment": "",
            "filling-rpc-server": "evm version 1.10.16-unstable-0f893109-20220105",
            "filling-tool-version": "retesteth-0.2.2-testinfo+commit.01c6aac2.Linux.g++",
            "filledWith": "CoreGeth-1.12.9-unstable-d390462df9df233b60b4cd7a37db5b3043832022",
            "lllcversion": "Version: 0.5.14-develop.2021.11.27+commit.401d5358.Linux.g++",
            "source": "src/GeneralStateTestsFiller/stStaticCall/static_CallRecursiveBomb1Filler.json",
            "sourceHash": "faaa109f816b44999fd176949194e3699fbe2ef5ebef5051ae1c31ab712616e5"
        },
        "env": {
            "currentCoinbase": "0x2adc25665018aa1fe0e6bc666dac8fc2697ff9ba",
            "currentDifficulty": "0x20000",
            "currentGasLimit": "0x5f5e100",
            "currentNumber": "0x1",
            "currentTimestamp": "0x3e8",
            "previousHash": "0x5e20a0453cecd065ea59c37ac63e079ee08998b6045136a8ce6635c7912ec0b6"
        },
        "pre": {
            "0x095e7baea6a6c7c4c2dfeb977efac326af552d87": {
                "code": "0x600160005101600052600060006000600030613a985a03fa00",
                "balance": "0x1312d00",
                "nonce": "0x0"
            },
            "0x195e7baea6a6c7c4c2dfeb977efac326af552d87": {
                "code": "0x6000600060006000600073095e7baea6a6c7c4c2dfeb977efac326af552d875af250600160015500",
                "balance": "0x1312d00",
                "nonce": "0x0"
            },
            "0xa94f5374fce5edbc8e2a8697c15331677e6ebf0b": {
                "code": "0x",
                "balance": "0xde0b6b3a7640000",
                "nonce": "0x0"
            }
        },
        "transaction": {
            "gasPrice": "0xa",
            "nonce": "0x0",
            "to": "0x195e7baea6a6c7c4c2dfeb977efac326af552d87",
            "data": [
                "0x"
            ],
            "gasLimit": [
                "0x13aab14"
            ],
            "value": [
                "0x0186a0"
            ],
            "secretKey": "0x45a915e4d060149eb4365960e6a7a45f334393093061116b197e3240065ff2d8",
            "sender": "0xa94f5374fce5edbc8e2a8697c15331677e6ebf0b"
        },
        "post": {
            "ETC_Magneto": [
                {
                    "hash": "ffba3b69b2a934a7eb4b14ead2be91ca73e6fcbe07245593eb8e10f1c0933060",
                    "logs": "1dcc4de8dec75d7aab85b567b6ccd41ad312451b948a7413f0a142fd40d49347",
                    "txbytes": "0xf864800a84013aab1494195e7baea6a6c7c4c2dfeb977efac326af552d87830186a0801ba0eb4a1869812830260ef0229fc04680c2dc7779edf92313c0fa2b91ec9e8cbe26a01df60362e98b1c796d2e3a7e316377261f7eadfe32e668b74702f278ed38b37d",
                    "indexes": {
                        "data": 0,
                        "gas": 0,
                        "value": 0
                    }
                }
            ],
            "ETC_Mystique": [
                {
                    "hash": "ffba3b69b2a934a7eb4b14ead2be91ca73e6fcbe07245593eb8e10f1c0933060",
                    "logs": "1dcc4de8dec75d7aab85b567b6ccd41ad312451b948a7413f0a142fd40d49347",
                    "txbytes": "0xf864800a84013aab1494195e7baea6a6c7c4c2dfeb977efac326af552d87830186a0801ba0eb4a1869812830260ef0229fc04680c2dc7779edf92313c0fa2b91ec9e8cbe26a01df60362e98b1c796d2e3a7e316377261f7eadfe32e668b74702f278ed38b37d",
                    "indexes": {
                        "data": 0,
                        "gas": 0,
                        "value": 0
                    }
                }
            ],
            "ETC_Phoenix": [
                {
                    "hash": "6c19f07e5981069634a1b535f3a24987fc9a9d1bcf81f7065cffd8b37604afea",
                    "logs": "1dcc4de8dec75d7aab85b567b6ccd41ad312451b948a7413f0a142fd40d49347",
                    "txbytes": "0xf864800a84013aab1494195e7baea6a6c7c4c2dfeb977efac326af552d87830186a0801ba0eb4a1869812830260ef0229fc04680c2dc7779edf92313c0fa2b91ec9e8cbe26a01df60362e98b1c796d2e3a7e316377261f7eadfe32e668b74702f278ed38b37d",
                    "indexes": {
                        "data": 0,
                        "gas": 0,
                        "value": 0
                    }
                }
            ]
        }
    }
}