{
    "static_callcallcallcode_001_OOGE_2": {
        "_info": {
            "comment": "",
            "filling-rpc-server": "evm version 1.10.16-unstable-0f893109-20220105",
            "filling-tool-version": "retesteth-0.2.2-testinfo+commit.01c6aac2.Linux.g++",
            "filledWith": "CoreGeth-1.12.9-unstable-ab16c56768f0284ab56a30aac9550d3ebdc45901",
            "lllcversion": "Version: 0.5.14-develop.2021.11.27+commit.401d5358.Linux.g++",
            "source": "src/GeneralStateTestsFiller/stStaticCall/static_callcallcallcode_001_OOGE_2Filler.json",
            "sourceHash": "04577c24b81f6e7082402a05933275bf2c21a123e9f9a64c3d78270f25ba33c6"
        },
        "env": {
            "currentCoinbase": "0x2adc25665018aa1fe0e6bc666dac8fc2697ff9ba",
            "currentDifficulty": "0x20000",
            "currentGasLimit": "0x1c9c380",
            "currentNumber": "0x1",
            "currentTimestamp": "0x3e8",
            "currentBaseFee": "0xa",
            "previousHash": "0x5e20a0453cecd065ea59c37ac63e079ee08998b6045136a8ce6635c7912ec0b6"
        },
        "pre": {
            "0x1000000000000000000000000000000000000000": {
                "code": "0x60406000604060007310000000000000000000000000000000000000016207a120fa60005500",
                "balance": "0xde0b6b3a7640000"
            },
            "0x1000000000000000000000000000000000000001": {
                "code": "0x6040600060406000731000000000000000000000000000000000000002620493e0fa00",
                "balance": "0x0"
            },
            "0x1000000000000000000000000000000000000002": {
                "code": "0x604060006040600060007310000000000000000000000000000000000000036201d4d4f200",
                "balance": "0x0"
            },
            "0x1000000000000000000000000000000000000003": {
                "code": "0x6001600355600160035200",
                "balance": "0x0"
            },
            "0x2000000000000000000000000000000000000000": {
                "code": "0x60406000604060007320000000000000000000000000000000000000016207a120fa60005500",
                "balance": "0xde0b6b3a7640000"
            },
            "0x2000000000000000000000000000000000000001": {
                "code": "0x6040600060406000732000000000000000000000000000000000000002620493e0fa00",
                "balance": "0x0"
            },
            "0x2000000000000000000000000000000000000002": {
                "code": "0x604060006040600060007320000000000000000000000000000000000000036201d4d4f200",
                "balance": "0x0"
            },
            "0x2000000000000000000000000000000000000003": {
                "code": "0x5b61c3506080511015601c5760013b506001608051016080526000565b00",
                "balance": "0x0"
            },
            "0xa000000000000000000000000000000000000000": {
                "code": "0x6000600060006000346000355af1600055600160015500",
                "balance": "0x0"
            },
            "0xa94f5374fce5edbc8e2a8697c15331677e6ebf0b": {
                "balance": "0xde0b6b3a7640000"
            }
        },
        "transaction": {
            "gasPrice": "0xa",
            "nonce": "0x0",
            "to": "0xa000000000000000000000000000000000000000",
            "data": [
                "0x0000000000000000000000001000000000000000000000000000000000000000",
                "0x0000000000000000000000002000000000000000000000000000000000000000"
            ],
            "gasLimit": [
                "0x1a3ec0"
            ],
            "value": [
                "0x00"
            ],
            "secretKey": "0x45a915e4d060149eb4365960e6a7a45f334393093061116b197e3240065ff2d8",
            "sender": "0xa94f5374fce5edbc8e2a8697c15331677e6ebf0b"
        },
        "post": {
            "ETC_Magneto": [
                {
                    "hash": "7ae01a85a79eaceb1734ae734c5469a2a738e29266c90e4529df3a43b3d36967",
                    "logs": "1dcc4de8dec75d7aab85b567b6ccd41ad312451b948a7413f0a142fd40d49347",
                    "txbytes": "0xf880800a831a3ec094a00000000000000000000000000000000000000080a000000000000000000000000010000000000000000000000000000000000000001ca04465e456ac2e5633693a8e24d699e54c5786f1016518a6c30b41cc04d26460d7a05cca1656fc4e8719d009e054b6e68fb5318c879547d0715c7a550d9e80ad12dd",
                    "indexes": {
                        "data": 0,
                        "gas": 0,
                        "value": 0
                    }
                },
                {
                    "hash": "b0e5d507f32ea5d71b491934070139556d4beb36e6dc8adfbd4cf52b5a00bd88",
                    "logs": "1dcc4de8dec75d7aab85b567b6ccd41ad312451b948a7413f0a142fd40d49347",
                    "txbytes": "0xf880800a831a3ec094a00000000000000000000000000000000000000080a000000000000000000000000020000000000000000000000000000000000000001ba0be5444cba9ed1027f7b3e3e880bb05b5bcd4a4b9784eae3d8e9f43ae029c6a72a0559b4ac4915be91fcb1c20ba3d178b11a4598d93b03f4dea38df49ca19159299",
                    "indexes": {
                        "data": 1,
                        "gas": 0,
                        "value": 0
                    }
                }
            ],
            "ETC_Mystique": [
                {
                    "hash": "7ae01a85a79eaceb1734ae734c5469a2a738e29266c90e4529df3a43b3d36967",
                    "logs": "1dcc4de8dec75d7aab85b567b6ccd41ad312451b948a7413f0a142fd40d49347",
                    "txbytes": "0xf880800a831a3ec094a00000000000000000000000000000000000000080a000000000000000000000000010000000000000000000000000000000000000001ca04465e456ac2e5633693a8e24d699e54c5786f1016518a6c30b41cc04d26460d7a05cca1656fc4e8719d009e054b6e68fb5318c879547d0715c7a550d9e80ad12dd",
                    "indexes": {
                        "data": 0,
                        "gas": 0,
                        "value": 0
                    }
                },
                {
                    "hash": "b0e5d507f32ea5d71b491934070139556d4beb36e6dc8adfbd4cf52b5a00bd88",
                    "logs": "1dcc4de8dec75d7aab85b567b6ccd41ad312451b948a7413f0a142fd40d49347",
                    "txbytes": "0xf880800a831a3ec094a00000000000000000000000000000000000000080a000000000000000000000000020000000000000000000000000000000000000001ba0be5444cba9ed1027f7b3e3e880bb05b5bcd4a4b9784eae3d8e9f43ae029c6a72a0559b4ac4915be91fcb1c20ba3d178b11a4598d93b03f4dea38df49ca19159299",
                    "indexes": {
                        "data": 1,
                        "gas": 0,
                        "value": 0
                    }
                }
            ],
            "ETC_Phoenix": [
                {
                    "hash": "fb126b7c15d629280591d61271e245a571b33f0f8df0b652309dd99139a1043f",
                    "logs": "1dcc4de8dec75d7aab85b567b6ccd41ad312451b948a7413f0a142fd40d49347",
                    "txbytes": "0xf880800a831a3ec094a00000000000000000000000000000000000000080a000000000000000000000000010000000000000000000000000000000000000001ca04465e456ac2e5633693a8e24d699e54c5786f1016518a6c30b41cc04d26460d7a05cca1656fc4e8719d009e054b6e68fb5318c879547d0715c7a550d9e80ad12dd",
                    "indexes": {
                        "data": 0,
                        "gas": 0,
                        "value": 0
                    }
                },
                {
                    "hash": "926ae8cd65d16b66fde0a6686c461fef0e7359d59210c968027e6c75e7867dfb",
                    "logs": "1dcc4de8dec75d7aab85b567b6ccd41ad312451b948a7413f0a142fd40d49347",
                    "txbytes": "0xf880800a831a3ec094a00000000000000000000000000000000000000080a000000000000000000000000020000000000000000000000000000000000000001ba0be5444cba9ed1027f7b3e3e880bb05b5bcd4a4b9784eae3d8e9f43ae029c6a72a0559b4ac4915be91fcb1c20ba3d178b11a4598d93b03f4dea38df49ca19159299",
                    "indexes": {
                        "data": 1,
                        "gas": 0,
                        "value": 0
                    }
                }
            ]
        }
    }
}