{
    "static_callcallcodecall_010_2": {
        "_info": {
            "comment": "",
            "filling-rpc-server": "evm version 1.10.16-unstable-0f893109-20220105",
            "filling-tool-version": "retesteth-0.2.2-testinfo+commit.01c6aac2.Linux.g++",
            "filledWith": "CoreGeth-1.12.9-unstable-d390462df9df233b60b4cd7a37db5b3043832022",
            "lllcversion": "Version: 0.5.14-develop.2021.11.27+commit.401d5358.Linux.g++",
            "source": "src/GeneralStateTestsFiller/stStaticCall/static_callcallcodecall_010_2Filler.json",
            "sourceHash": "ec0c0835e42ae793f8496749231dd179db3aadaa1d9737bbdfa3b73e3d3ebbeb"
        },
        "env": {
            "currentCoinbase": "0x2adc25665018aa1fe0e6bc666dac8fc2697ff9ba",
            "currentDifficulty": "0x20000",
            "currentGasLimit": "0x1c9c380",
            "currentNumber": "0x1",
            "currentTimestamp": "0x3e8",
            "previousHash": "0x5e20a0453cecd065ea59c37ac63e079ee08998b6045136a8ce6635c7912ec0b6"
        },
        "pre": {
            "0x1000000000000000000000000000000000000000": {
                "code": "0x604060006040600060003562055730fa600055600160015500",
                "balance": "0xde0b6b3a7640000",
                "nonce": "0x0"
            },
            "0x1000000000000000000000000000000000000001": {
                "code": "0x60406000604060006002731000000000000000000000000000000000000002620493e0f200",
                "balance": "0xde0b6b3a7640000",
                "nonce": "0x0"
            },
            "0x1000000000000000000000000000000000000002": {
                "code": "0x60406000604060007310000000000000000000000000000000000000036203d090fa00",
                "balance": "0xde0b6b3a7640000",
                "nonce": "0x0"
            },
            "0x1000000000000000000000000000000000000003": {
                "code": "0x600160035200",
                "balance": "0x0",
                "nonce": "0x0"
            },
            "0x2000000000000000000000000000000000000001": {
                "code": "0x60406000604060006000731000000000000000000000000000000000000002620493e0f200",
                "balance": "0xde0b6b3a7640000",
                "nonce": "0x0"
            },
            "0xa94f5374fce5edbc8e2a8697c15331677e6ebf0b": {
                "code": "0x",
                "balance": "0xde0b6b3a7640000",
                "nonce": "0x0"
            }
        },
        "transaction": {
            "gasPrice": "0xa",
            "nonce": "0x0",
            "to": "0x1000000000000000000000000000000000000000",
            "data": [
                "0x0000000000000000000000001000000000000000000000000000000000000001",
                "0x0000000000000000000000002000000000000000000000000000000000000001"
            ],
            "gasLimit": [
                "0x2dc6c0"
            ],
            "value": [
                "0x00"
            ],
            "secretKey": "0x45a915e4d060149eb4365960e6a7a45f334393093061116b197e3240065ff2d8",
            "sender": "0xa94f5374fce5edbc8e2a8697c15331677e6ebf0b"
        },
        "post": {
            "ETC_Magneto": [
                {
                    "hash": "8fc7e673eb86f44dc3b6d0409b63cfc7879b52c3aa4d9223ee0ec892702c236f",
                    "logs": "1dcc4de8dec75d7aab85b567b6ccd41ad312451b948a7413f0a142fd40d49347",
                    "txbytes": "0xf880800a832dc6c094100000000000000000000000000000000000000080a000000000000000000000000010000000000000000000000000000000000000011ca0dce885f65e7923a99d56f4d94b7fb33966b1afc1f44a9150494382321629f4e9a01c062b7039b547f12d8810f8b354032f212a6fbb1628631be45d017871b02096",
                    "indexes": {
                        "data": 0,
                        "gas": 0,
                        "value": 0
                    }
                },
                {
                    "hash": "abf8c6f39cb49e5f4dcbc7cbff6d200b148382c97e09e6c9faf3a589fcbc7cbd",
                    "logs": "1dcc4de8dec75d7aab85b567b6ccd41ad312451b948a7413f0a142fd40d49347",
                    "txbytes": "0xf880800a832dc6c094100000000000000000000000000000000000000080a000000000000000000000000020000000000000000000000000000000000000011ba0e6c665cccee0bc2c401b4d555b9b217c1537fdad6d432be248ec393d1c3e8fcca031bc5996ee18e8e59cee5fccea1198c673960c7b3070360edb2355b93930f281",
                    "indexes": {
                        "data": 1,
                        "gas": 0,
                        "value": 0
                    }
                }
            ],
            "ETC_Mystique": [
                {
                    "hash": "8fc7e673eb86f44dc3b6d0409b63cfc7879b52c3aa4d9223ee0ec892702c236f",
                    "logs": "1dcc4de8dec75d7aab85b567b6ccd41ad312451b948a7413f0a142fd40d49347",
                    "txbytes": "0xf880800a832dc6c094100000000000000000000000000000000000000080a000000000000000000000000010000000000000000000000000000000000000011ca0dce885f65e7923a99d56f4d94b7fb33966b1afc1f44a9150494382321629f4e9a01c062b7039b547f12d8810f8b354032f212a6fbb1628631be45d017871b02096",
                    "indexes": {
                        "data": 0,
                        "gas": 0,
                        "value": 0
                    }
                },
                {
                    "hash": "abf8c6f39cb49e5f4dcbc7cbff6d200b148382c97e09e6c9faf3a589fcbc7cbd",
                    "logs": "1dcc4de8dec75d7aab85b567b6ccd41ad312451b948a7413f0a142fd40d49347",
                    "txbytes": "0xf880800a832dc6c094100000000000000000000000000000000000000080a000000000000000000000000020000000000000000000000000000000000000011ba0e6c665cccee0bc2c401b4d555b9b217c1537fdad6d432be248ec393d1c3e8fcca031bc5996ee18e8e59cee5fccea1198c673960c7b3070360edb2355b93930f281",
                    "indexes": {
                        "data": 1,
                        "gas": 0,
                        "value": 0
                    }
                }
            ],
            "ETC_Phoenix": [
                {
                    "hash": "2ef96a04233d10a658d0b0cf8fe13891dfe04fba11568cdb08c5faf0d5999cae",
                    "logs": "1dcc4de8dec75d7aab85b567b6ccd41ad312451b948a7413f0a142fd40d49347",
                    "txbytes": "0xf880800a832dc6c094100000000000000000000000000000000000000080a000000000000000000000000010000000000000000000000000000000000000011ca0dce885f65e7923a99d56f4d94b7fb33966b1afc1f44a9150494382321629f4e9a01c062b7039b547f12d8810f8b354032f212a6fbb1628631be45d017871b02096",
                    "indexes": {
                        "data": 0,
                        "gas": 0,
                        "value": 0
                    }
                },
                {
                    "hash": "16171a1c6e7245083c2934b12f6bdb9aab313a31bf8786ff2aeca3d19b1e9e70",
                    "logs": "1dcc4de8dec75d7aab85b567b6ccd41ad312451b948a7413f0a142fd40d49347",
                    "txbytes": "0xf880800a832dc6c094100000000000000000000000000000000000000080a000000000000000000000000020000000000000000000000000000000000000011ba0e6c665cccee0bc2c401b4d555b9b217c1537fdad6d432be248ec393d1c3e8fcca031bc5996ee18e8e59cee5fccea1198c673960c7b3070360edb2355b93930f281",
                    "indexes": {
                        "data": 1,
                        "gas": 0,
                        "value": 0
                    }
                }
            ]
        }
    }
}