{
    "static_CheckOpcodes2": {
        "_info": {
            "comment": "",
            "filling-rpc-server": "evm version 1.10.16-unstable-0f893109-20220105",
            "filling-tool-version": "retesteth-0.2.2-testinfo+commit.01c6aac2.Linux.g++",
            "filledWith": "CoreGeth-1.12.9-unstable-4cf5b2b0837228e7d5eadba6a01ffb80e9288e21",
            "lllcversion": "Version: 0.5.14-develop.2021.11.27+commit.401d5358.Linux.g++",
            "source": "src/GeneralStateTestsFiller/stStaticCall/static_CheckOpcodes2Filler.json",
            "sourceHash": "bd3e8ecee2fbf78d8e3ca880f9eca040f641dd1fd3e5e8207ecb9286b94e6e35"
        },
        "env": {
            "currentCoinbase": "0x2adc25665018aa1fe0e6bc666dac8fc2697ff9ba",
            "currentDifficulty": "0x20000",
            "currentGasLimit": "0x989680",
            "currentNumber": "0x1",
            "currentTimestamp": "0x3e8",
            "previousHash": "0x5e20a0453cecd065ea59c37ac63e079ee08998b6045136a8ce6635c7912ec0b6"
        },
        "pre": {
            "0x1000000000000000000000000000000000000000": {
                "code": "0x6000600060006000600035620186a0fa60015500",
                "balance": "0x0",
                "nonce": "0x0"
            },
            "0x1000000000000000000000000000000000000001": {
                "code": "0x6000600060006000600073a100000000000000000000000000000000000001620186a0f16000526000516001146038576002600155603e565b60016001525b00",
                "balance": "0xa",
                "nonce": "0x0"
            },
            "0x2000000000000000000000000000000000000001": {
                "code": "0x60006000526000600060006000600173a200000000000000000000000000000000000001620186a0f16000526001600152600160025200",
                "balance": "0xa",
                "nonce": "0x0"
            },
            "0x3000000000000000000000000000000000000001": {
                "code": "0x6000600060006000600073a300000000000000000000000000000000000001620186a0f26000526000516001146038576002600155603e565b60016001525b00",
                "balance": "0xa",
                "nonce": "0x0"
            },
            "0x4000000000000000000000000000000000000001": {
                "code": "0x6000600060006000600173a400000000000000000000000000000000000001620186a0f26000526000516001146038576002600155603e565b60016001525b00",
                "balance": "0xa",
                "nonce": "0x0"
            },
            "0x5000000000000000000000000000000000000001": {
                "code": "0x600060006000600073a500000000000000000000000000000000000001620186a0f46000526000516001146036576002600155603c565b60016001525b00",
                "balance": "0xa",
                "nonce": "0x0"
            },
            "0xa100000000000000000000000000000000000001": {
                "code": "0x3273a94f5374fce5edbc8e2a8697c15331677e6ebf0b1460225760026001556028565b60016001525b3373100000000000000000000000000000000000000114604b5760026001556051565b60016001525b3073a100000000000000000000000000000000000001146074576002600155607a565b60016001525b34600014608a5760026001556090565b60016001525b00",
                "balance": "0x0",
                "nonce": "0x0"
            },
            "0xa200000000000000000000000000000000000001": {
                "code": "0x3273a94f5374fce5edbc8e2a8697c15331677e6ebf0b1460225760026001556028565b60016001525b3373200000000000000000000000000000000000000114604b5760026001556051565b60016001525b3073a200000000000000000000000000000000000001146074576002600155607a565b60016001525b34600114608a5760026001556090565b60016001525b00",
                "balance": "0x0",
                "nonce": "0x0"
            },
            "0xa300000000000000000000000000000000000001": {
                "code": "0x3273a94f5374fce5edbc8e2a8697c15331677e6ebf0b1460225760026001556028565b60016001525b3373300000000000000000000000000000000000000114604b5760026001556051565b60016001525b30733000000000000000000000000000000000000001146074576002600155607a565b60016001525b34600014608a5760026001556090565b60016001525b00",
                "balance": "0x0",
                "nonce": "0x0"
            },
            "0xa400000000000000000000000000000000000001": {
                "code": "0x3273a94f5374fce5edbc8e2a8697c15331677e6ebf0b1460225760026001556028565b60016001525b3373400000000000000000000000000000000000000114604b5760026001556051565b60016001525b30734000000000000000000000000000000000000001146074576002600155607a565b60016001525b34600114608a5760026001556090565b60016001525b00",
                "balance": "0x0",
                "nonce": "0x0"
            },
            "0xa500000000000000000000000000000000000001": {
                "code": "0x3273a94f5374fce5edbc8e2a8697c15331677e6ebf0b1460225760026001556028565b60016001525b3373100000000000000000000000000000000000000014604b5760026001556051565b60016001525b30735000000000000000000000000000000000000001146074576002600155607a565b60016001525b34600014608a5760026001556090565b60016001525b00",
                "balance": "0x0",
                "nonce": "0x0"
            },
            "0xa94f5374fce5edbc8e2a8697c15331677e6ebf0b": {
                "code": "0x",
                "balance": "0xe8d4a51000",
                "nonce": "0x0"
            }
        },
        "transaction": {
            "gasPrice": "0xa",
            "nonce": "0x0",
            "to": "0x1000000000000000000000000000000000000000",
            "data": [
                "0x0000000000000000000000001000000000000000000000000000000000000001",
                "0x0000000000000000000000002000000000000000000000000000000000000001",
                "0x0000000000000000000000003000000000000000000000000000000000000001",
                "0x0000000000000000000000004000000000000000000000000000000000000001",
                "0x0000000000000000000000005000000000000000000000000000000000000001"
            ],
            "gasLimit": [
                "0x51c98"
            ],
            "value": [
                "0x00",
                "0x64"
            ],
            "secretKey": "0x45a915e4d060149eb4365960e6a7a45f334393093061116b197e3240065ff2d8",
            "sender": "0xa94f5374fce5edbc8e2a8697c15331677e6ebf0b"
        },
        "post": {
            "ETC_Magneto": [
                {
                    "hash": "10a2a69e530cb92d7d6d8f30f1a445851a8b2c77fac997668acb8fd4dcadd2c2",
                    "logs": "1dcc4de8dec75d7aab85b567b6ccd41ad312451b948a7413f0a142fd40d49347",
                    "txbytes": "0xf880800a83051c9894100000000000000000000000000000000000000080a000000000000000000000000010000000000000000000000000000000000000011ca04a3f429fcd0277a0f1ef5c4931ec78c08c652bed01d2f35852f8ee017308131fa042345097a1d3131559e4f4c2f533826f44b03ae8328ea46790867a3e1bc72c55",
                    "indexes": {
                        "data": 0,
                        "gas": 0,
                        "value": 0
                    }
                },
                {
                    "hash": "1e5b5932bf0bc9dc4ddf5f8f96cfd3dff969c8845503ea0f1988e929efbf5b0d",
                    "logs": "1dcc4de8dec75d7aab85b567b6ccd41ad312451b948a7413f0a142fd40d49347",
                    "txbytes": "0xf880800a83051c9894100000000000000000000000000000000000000064a000000000000000000000000010000000000000000000000000000000000000011ba0861bbbf3944ba5d6363326fa71e9f2a9a18642011d2826a5b62e0aeb2073ac1ba00cf5ad0ec7bbf0779203bfd2703d254432fac642f2aedab16958a3f46b2a781a",
                    "indexes": {
                        "data": 0,
                        "gas": 0,
                        "value": 1
                    }
                },
                {
                    "hash": "10a2a69e530cb92d7d6d8f30f1a445851a8b2c77fac997668acb8fd4dcadd2c2",
                    "logs": "1dcc4de8dec75d7aab85b567b6ccd41ad312451b948a7413f0a142fd40d49347",
                    "txbytes": "0xf880800a83051c9894100000000000000000000000000000000000000080a000000000000000000000000030000000000000000000000000000000000000011ba01f08cfd670f24de23648a701c8c8279a01afba9ce0dcba460b2c44ad0341d48da06df490de0634cb39d61337b507656f843620d96db7adf145d4bc6e3c3aedd906",
                    "indexes": {
                        "data": 2,
                        "gas": 0,
                        "value": 0
                    }
                },
                {
                    "hash": "1e5b5932bf0bc9dc4ddf5f8f96cfd3dff969c8845503ea0f1988e929efbf5b0d",
                    "logs": "1dcc4de8dec75d7aab85b567b6ccd41ad312451b948a7413f0a142fd40d49347",
                    "txbytes": "0xf880800a83051c9894100000000000000000000000000000000000000064a000000000000000000000000030000000000000000000000000000000000000011ba04a0fa3a5308cf43770f27151e77f84d282694bb8f7e7f891bb46aae4dcad2dfda06bb069a54b0cd0979e7b25241b6b8b3bae9b0fd9353b8200ed4fbd8c0c2258d6",
                    "indexes": {
                        "data": 2,
                        "gas": 0,
                        "value": 1
                    }
                },
                {
                    "hash": "507632b79b7b736b6520591eea813e6b17bb7f667b2436e7e70bb396fc3cc32d",
                    "logs": "1dcc4de8dec75d7aab85b567b6ccd41ad312451b948a7413f0a142fd40d49347",
                    "txbytes": "0xf880800a83051c9894100000000000000000000000000000000000000080a000000000000000000000000040000000000000000000000000000000000000011ba0142345b4b42112def12fe6c6048f5d1c10c2ea6ac886e80b390a4c837c893839a01d618ca015abd09841542496e6443465ed926645c2e3d8e9727c2018cf5190a7",
                    "indexes": {
                        "data": 3,
                        "gas": 0,
                        "value": 0
                    }
                },
                {
                    "hash": "2ee5fd354c6f42e3b7c8b4c84bdad0173f366ec75d6a6e7e47e11196db9bcdf1",
                    "logs": "1dcc4de8dec75d7aab85b567b6ccd41ad312451b948a7413f0a142fd40d49347",
                    "txbytes": "0xf880800a83051c9894100000000000000000000000000000000000000064a000000000000000000000000040000000000000000000000000000000000000011ca0a1678aeb2fd208b0f6a014ca3b9878ea61dd790ca712eae0e62936aaea24ae81a0483da10f2fa1266b2b160eb39d9f5169abd1171630b248df1b76d2f6e951d508",
                    "indexes": {
                        "data": 3,
                        "gas": 0,
                        "value": 1
                    }
                },
                {
                    "hash": "e40cfe3c0974d18067f3feb9572f41f545774dd21edc7865a0ca40d97fb0ff31",
                    "logs": "1dcc4de8dec75d7aab85b567b6ccd41ad312451b948a7413f0a142fd40d49347",
                    "txbytes": "0xf880800a83051c9894100000000000000000000000000000000000000080a000000000000000000000000050000000000000000000000000000000000000011ba02416ec592644e6b766e889be391dc08d4673a76b35448fa1f8fd222372dc5a4ea01ff3272ca0aed9e8a9968cae53c4900ba598f264e5d7d0c8b27b406cee5860c7",
                    "indexes": {
                        "data": 4,
                        "gas": 0,
                        "value": 0
                    }
                },
                {
                    "hash": "b784f3b4951b746dfe7d6cd2835a11b57b7d5f0c3897687249d6fa2eb3470008",
                    "logs": "1dcc4de8dec75d7aab85b567b6ccd41ad312451b948a7413f0a142fd40d49347",
                    "txbytes": "0xf880800a83051c9894100000000000000000000000000000000000000064a000000000000000000000000050000000000000000000000000000000000000011ca0756b93cbbaeed76072f6d01eb844882cb2acca947784a6c2b3e24710a636bb9da03987bd279210b9179692f1c28cf971801de3ebf59b5043aa3fa8beb103d19647",
                    "indexes": {
                        "data": 4,
                        "gas": 0,
                        "value": 1
                    }
                },
                {
                    "hash": "2b9aa3ebe73d4683f456bc615cac7ca90b236af29206e67903cb1bd9c27cb341",
                    "logs": "1dcc4de8dec75d7aab85b567b6ccd41ad312451b948a7413f0a142fd40d49347",
                    "txbytes": "0xf880800a83051c9894100000000000000000000000000000000000000080a000000000000000000000000020000000000000000000000000000000000000011ca04e2e63a9929b38875b448be8e2a475781cc67e554ee4578a28df0895c46c8bb0a04a7c671d0e8f0ac6195d59390a679a6b87f2cf1f687d08bb2f71a5027e5cf20c",
                    "indexes": {
                        "data": 1,
                        "gas": 0,
                        "value": 0
                    }
                },
                {
                    "hash": "135e381c219399f02da4af292d48e43ca69d2a08e9f17476ba368a6c6a8d7b03",
                    "logs": "1dcc4de8dec75d7aab85b567b6ccd41ad312451b948a7413f0a142fd40d49347",
                    "txbytes": "0xf880800a83051c9894100000000000000000000000000000000000000064a000000000000000000000000020000000000000000000000000000000000000011ca04087076b3a23a6b523381e41e9aebc4ccf47c08151ad9c25325e1b2346af8b5ba0475b98aa14ef2157a1e5c5e9290476ac1a3e559da5b04b829dc2f0106f00a0a8",
                    "indexes": {
                        "data": 1,
                        "gas": 0,
                        "value": 1
                    }
                }
            ],
            "ETC_Mystique": [
                {
                    "hash": "10a2a69e530cb92d7d6d8f30f1a445851a8b2c77fac997668acb8fd4dcadd2c2",
                    "logs": "1dcc4de8dec75d7aab85b567b6ccd41ad312451b948a7413f0a142fd40d49347",
                    "txbytes": "0xf880800a83051c9894100000000000000000000000000000000000000080a000000000000000000000000010000000000000000000000000000000000000011ca04a3f429fcd0277a0f1ef5c4931ec78c08c652bed01d2f35852f8ee017308131fa042345097a1d3131559e4f4c2f533826f44b03ae8328ea46790867a3e1bc72c55",
                    "indexes": {
                        "data": 0,
                        "gas": 0,
                        "value": 0
                    }
                },
                {
                    "hash": "1e5b5932bf0bc9dc4ddf5f8f96cfd3dff969c8845503ea0f1988e929efbf5b0d",
                    "logs": "1dcc4de8dec75d7aab85b567b6ccd41ad312451b948a7413f0a142fd40d49347",
                    "txbytes": "0xf880800a83051c9894100000000000000000000000000000000000000064a000000000000000000000000010000000000000000000000000000000000000011ba0861bbbf3944ba5d6363326fa71e9f2a9a18642011d2826a5b62e0aeb2073ac1ba00cf5ad0ec7bbf0779203bfd2703d254432fac642f2aedab16958a3f46b2a781a",
                    "indexes": {
                        "data": 0,
                        "gas": 0,
                        "value": 1
                    }
                },
                {
                    "hash": "10a2a69e530cb92d7d6d8f30f1a445851a8b2c77fac997668acb8fd4dcadd2c2",
                    "logs": "1dcc4de8dec75d7aab85b567b6ccd41ad312451b948a7413f0a142fd40d49347",
                    "txbytes": "0xf880800a83051c9894100000000000000000000000000000000000000080a000000000000000000000000030000000000000000000000000000000000000011ba01f08cfd670f24de23648a701c8c8279a01afba9ce0dcba460b2c44ad0341d48da06df490de0634cb39d61337b507656f843620d96db7adf145d4bc6e3c3aedd906",
                    "indexes": {
                        "data": 2,
                        "gas": 0,
                        "value": 0
                    }
                },
                {
                    "hash": "1e5b5932bf0bc9dc4ddf5f8f96cfd3dff969c8845503ea0f1988e929efbf5b0d",
                    "logs": "1dcc4de8dec75d7aab85b567b6ccd41ad312451b948a7413f0a142fd40d49347",
                    "txbytes": "0xf880800a83051c9894100000000000000000000000000000000000000064a000000000000000000000000030000000000000000000000000000000000000011ba04a0fa3a5308cf43770f27151e77f84d282694bb8f7e7f891bb46aae4dcad2dfda06bb069a54b0cd0979e7b25241b6b8b3bae9b0fd9353b8200ed4fbd8c0c2258d6",
                    "indexes": {
                        "data": 2,
                        "gas": 0,
                        "value": 1
                    }
                },
                {
                    "hash": "507632b79b7b736b6520591eea813e6b17bb7f667b2436e7e70bb396fc3cc32d",
                    "logs": "1dcc4de8dec75d7aab85b567b6ccd41ad312451b948a7413f0a142fd40d49347",
                    "txbytes": "0xf880800a83051c9894100000000000000000000000000000000000000080a000000000000000000000000040000000000000000000000000000000000000011ba0142345b4b42112def12fe6c6048f5d1c10c2ea6ac886e80b390a4c837c893839a01d618ca015abd09841542496e6443465ed926645c2e3d8e9727c2018cf5190a7",
                    "indexes": {
                        "data": 3,
                        "gas": 0,
                        "value": 0
                    }
                },
                {
                    "hash": "2ee5fd354c6f42e3b7c8b4c84bdad0173f366ec75d6a6e7e47e11196db9bcdf1",
                    "logs": "1dcc4de8dec75d7aab85b567b6ccd41ad312451b948a7413f0a142fd40d49347",
                    "txbytes": "0xf880800a83051c9894100000000000000000000000000000000000000064a000000000000000000000000040000000000000000000000000000000000000011ca0a1678aeb2fd208b0f6a014ca3b9878ea61dd790ca712eae0e62936aaea24ae81a0483da10f2fa1266b2b160eb39d9f5169abd1171630b248df1b76d2f6e951d508",
                    "indexes": {
                        "data": 3,
                        "gas": 0,
                        "value": 1
                    }
                },
                {
                    "hash": "e40cfe3c0974d18067f3feb9572f41f545774dd21edc7865a0ca40d97fb0ff31",
                    "logs": "1dcc4de8dec75d7aab85b567b6ccd41ad312451b948a7413f0a142fd40d49347",
                    "txbytes": "0xf880800a83051c9894100000000000000000000000000000000000000080a000000000000000000000000050000000000000000000000000000000000000011ba02416ec592644e6b766e889be391dc08d4673a76b35448fa1f8fd222372dc5a4ea01ff3272ca0aed9e8a9968cae53c4900ba598f264e5d7d0c8b27b406cee5860c7",
                    "indexes": {
                        "data": 4,
                        "gas": 0,
                        "value": 0
                    }
                },
                {
                    "hash": "b784f3b4951b746dfe7d6cd2835a11b57b7d5f0c3897687249d6fa2eb3470008",
                    "logs": "1dcc4de8dec75d7aab85b567b6ccd41ad312451b948a7413f0a142fd40d49347",
                    "txbytes": "0xf880800a83051c9894100000000000000000000000000000000000000064a000000000000000000000000050000000000000000000000000000000000000011ca0756b93cbbaeed76072f6d01eb844882cb2acca947784a6c2b3e24710a636bb9da03987bd279210b9179692f1c28cf971801de3ebf59b5043aa3fa8beb103d19647",
                    "indexes": {
                        "data": 4,
                        "gas": 0,
                        "value": 1
                    }
                },
                {
                    "hash": "2b9aa3ebe73d4683f456bc615cac7ca90b236af29206e67903cb1bd9c27cb341",
                    "logs": "1dcc4de8dec75d7aab85b567b6ccd41ad312451b948a7413f0a142fd40d49347",
                    "txbytes": "0xf880800a83051c9894100000000000000000000000000000000000000080a000000000000000000000000020000000000000000000000000000000000000011ca04e2e63a9929b38875b448be8e2a475781cc67e554ee4578a28df0895c46c8bb0a04a7c671d0e8f0ac6195d59390a679a6b87f2cf1f687d08bb2f71a5027e5cf20c",
                    "indexes": {
                        "data": 1,
                        "gas": 0,
                        "value": 0
                    }
                },
                {
                    "hash": "135e381c219399f02da4af292d48e43ca69d2a08e9f17476ba368a6c6a8d7b03",
                    "logs": "1dcc4de8dec75d7aab85b567b6ccd41ad312451b948a7413f0a142fd40d49347",
                    "txbytes": "0xf880800a83051c9894100000000000000000000000000000000000000064a000000000000000000000000020000000000000000000000000000000000000011ca04087076b3a23a6b523381e41e9aebc4ccf47c08151ad9c25325e1b2346af8b5ba0475b98aa14ef2157a1e5c5e9290476ac1a3e559da5b04b829dc2f0106f00a0a8",
                    "indexes": {
                        "data": 1,
                        "gas": 0,
                        "value": 1
                    }
                }
            ],
            "ETC_Phoenix": [
                {
                    "hash": "31ca8349ca26e4dddfddea5537d9edb17768696ecf2e9f7d55313db9641cc6d9",
                    "logs": "1dcc4de8dec75d7aab85b567b6ccd41ad312451b948a7413f0a142fd40d49347",
                    "txbytes": "0xf880800a83051c9894100000000000000000000000000000000000000080a000000000000000000000000010000000000000000000000000000000000000011ca04a3f429fcd0277a0f1ef5c4931ec78c08c652bed01d2f35852f8ee017308131fa042345097a1d3131559e4f4c2f533826f44b03ae8328ea46790867a3e1bc72c55",
                    "indexes": {
                        "data": 0,
                        "gas": 0,
                        "value": 0
                    }
                },
                {
                    "hash": "5dc8b04c0fe752482e4d5bd1b6233c5ca46d21f4094dbcbfa7d6963065b4f7b3",
                    "logs": "1dcc4de8dec75d7aab85b567b6ccd41ad312451b948a7413f0a142fd40d49347",
                    "txbytes": "0xf880800a83051c9894100000000000000000000000000000000000000064a000000000000000000000000010000000000000000000000000000000000000011ba0861bbbf3944ba5d6363326fa71e9f2a9a18642011d2826a5b62e0aeb2073ac1ba00cf5ad0ec7bbf0779203bfd2703d254432fac642f2aedab16958a3f46b2a781a",
                    "indexes": {
                        "data": 0,
                        "gas": 0,
                        "value": 1
                    }
                },
                {
                    "hash": "31ca8349ca26e4dddfddea5537d9edb17768696ecf2e9f7d55313db9641cc6d9",
                    "logs": "1dcc4de8dec75d7aab85b567b6ccd41ad312451b948a7413f0a142fd40d49347",
                    "txbytes": "0xf880800a83051c9894100000000000000000000000000000000000000080a000000000000000000000000030000000000000000000000000000000000000011ba01f08cfd670f24de23648a701c8c8279a01afba9ce0dcba460b2c44ad0341d48da06df490de0634cb39d61337b507656f843620d96db7adf145d4bc6e3c3aedd906",
                    "indexes": {
                        "data": 2,
                        "gas": 0,
                        "value": 0
                    }
                },
                {
                    "hash": "5dc8b04c0fe752482e4d5bd1b6233c5ca46d21f4094dbcbfa7d6963065b4f7b3",
                    "logs": "1dcc4de8dec75d7aab85b567b6ccd41ad312451b948a7413f0a142fd40d49347",
                    "txbytes": "0xf880800a83051c9894100000000000000000000000000000000000000064a000000000000000000000000030000000000000000000000000000000000000011ba04a0fa3a5308cf43770f27151e77f84d282694bb8f7e7f891bb46aae4dcad2dfda06bb069a54b0cd0979e7b25241b6b8b3bae9b0fd9353b8200ed4fbd8c0c2258d6",
                    "indexes": {
                        "data": 2,
                        "gas": 0,
                        "value": 1
                    }
                },
                {
                    "hash": "47b942b3c0756b2e8013c59e270394b3924c079946864ed9b9b5da1673e14236",
                    "logs": "1dcc4de8dec75d7aab85b567b6ccd41ad312451b948a7413f0a142fd40d49347",
                    "txbytes": "0xf880800a83051c9894100000000000000000000000000000000000000080a000000000000000000000000040000000000000000000000000000000000000011ba0142345b4b42112def12fe6c6048f5d1c10c2ea6ac886e80b390a4c837c893839a01d618ca015abd09841542496e6443465ed926645c2e3d8e9727c2018cf5190a7",
                    "indexes": {
                        "data": 3,
                        "gas": 0,
                        "value": 0
                    }
                },
                {
                    "hash": "74c9dd3c1177b10ef807de003b35e6fdf85141839e09b242ea32f3e11523d604",
                    "logs": "1dcc4de8dec75d7aab85b567b6ccd41ad312451b948a7413f0a142fd40d49347",
                    "txbytes": "0xf880800a83051c9894100000000000000000000000000000000000000064a000000000000000000000000040000000000000000000000000000000000000011ca0a1678aeb2fd208b0f6a014ca3b9878ea61dd790ca712eae0e62936aaea24ae81a0483da10f2fa1266b2b160eb39d9f5169abd1171630b248df1b76d2f6e951d508",
                    "indexes": {
                        "data": 3,
                        "gas": 0,
                        "value": 1
                    }
                },
                {
                    "hash": "e582a9a0a3905f5f6b534ddf4eae91e7473ed5bdedb9dd73169152e1bc64db42",
                    "logs": "1dcc4de8dec75d7aab85b567b6ccd41ad312451b948a7413f0a142fd40d49347",
                    "txbytes": "0xf880800a83051c9894100000000000000000000000000000000000000080a000000000000000000000000050000000000000000000000000000000000000011ba02416ec592644e6b766e889be391dc08d4673a76b35448fa1f8fd222372dc5a4ea01ff3272ca0aed9e8a9968cae53c4900ba598f264e5d7d0c8b27b406cee5860c7",
                    "indexes": {
                        "data": 4,
                        "gas": 0,
                        "value": 0
                    }
                },
                {
                    "hash": "1beeefa2a0d4d520f1025a14c03620dcd661116f1b875c0ea44d60bc642b6ec6",
                    "logs": "1dcc4de8dec75d7aab85b567b6ccd41ad312451b948a7413f0a142fd40d49347",
                    "txbytes": "0xf880800a83051c9894100000000000000000000000000000000000000064a000000000000000000000000050000000000000000000000000000000000000011ca0756b93cbbaeed76072f6d01eb844882cb2acca947784a6c2b3e24710a636bb9da03987bd279210b9179692f1c28cf971801de3ebf59b5043aa3fa8beb103d19647",
                    "indexes": {
                        "data": 4,
                        "gas": 0,
                        "value": 1
                    }
                },
                {
                    "hash": "73875daca2c0ac89cc8f8ac2c16c3569eee6314c8123276202e5b5273aef3a87",
                    "logs": "1dcc4de8dec75d7aab85b567b6ccd41ad312451b948a7413f0a142fd40d49347",
                    "txbytes": "0xf880800a83051c9894100000000000000000000000000000000000000080a000000000000000000000000020000000000000000000000000000000000000011ca04e2e63a9929b38875b448be8e2a475781cc67e554ee4578a28df0895c46c8bb0a04a7c671d0e8f0ac6195d59390a679a6b87f2cf1f687d08bb2f71a5027e5cf20c",
                    "indexes": {
                        "data": 1,
                        "gas": 0,
                        "value": 0
                    }
                },
                {
                    "hash": "4af300fd29c9b84b05777508431faca4e4e4c55070a03ac7b5be1e3feeed94ae",
                    "logs": "1dcc4de8dec75d7aab85b567b6ccd41ad312451b948a7413f0a142fd40d49347",
                    "txbytes": "0xf880800a83051c9894100000000000000000000000000000000000000064a000000000000000000000000020000000000000000000000000000000000000011ca04087076b3a23a6b523381e41e9aebc4ccf47c08151ad9c25325e1b2346af8b5ba0475b98aa14ef2157a1e5c5e9290476ac1a3e559da5b04b829dc2f0106f00a0a8",
                    "indexes": {
                        "data": 1,
                        "gas": 0,
                        "value": 1
                    }
                }
            ]
        }
    }
}