{
    "static_ReturnTest": {
        "_info": {
            "comment": "",
            "filling-rpc-server": "evm version 1.10.16-unstable-0f893109-20220105",
            "filling-tool-version": "retesteth-0.2.2-testinfo+commit.01c6aac2.Linux.g++",
            "filledWith": "CoreGeth-1.12.9-unstable-d64998ce9b05f4f41b35740c69c4b402e41a3105",
            "lllcversion": "Version: 0.5.14-develop.2021.11.27+commit.401d5358.Linux.g++",
            "source": "src/GeneralStateTestsFiller/stStaticCall/static_ReturnTestFiller.json",
            "sourceHash": "0e278bcac464e2b49fce796f37d6930fb05a5bb6c1a502880ea685d556792b99"
        },
        "env": {
            "currentCoinbase": "0x2adc25665018aa1fe0e6bc666dac8fc2697ff9ba",
            "currentDifficulty": "0x20000",
            "currentGasLimit": "0x989680",
            "currentNumber": "0x1",
            "currentTimestamp": "0x3e8",
            "previousHash": "0x5e20a0453cecd065ea59c37ac63e079ee08998b6045136a8ce6635c7912ec0b6"
        },
        "pre": {
            "0x194f5374fce5edbc8e2a8697c15331677e6ebf0b": {
                "code": "0x6001601f6001601e73b94f5374fce5edbc8e2a8697c15331677e6ebf0b6107d0fa506000516000556002601ef300",
                "balance": "0x0"
            },
            "0xa94f5374fce5edbc8e2a8697c15331677e6ebf0b": {
                "balance": "0x5f5e100"
            },
            "0xb94f5374fce5edbc8e2a8697c15331677e6ebf0b": {
                "code": "0x60156000526001601ff300",
                "balance": "0x186a0"
            }
        },
        "transaction": {
            "gasPrice": "0xa",
            "nonce": "0x0",
            "to": "0x194f5374fce5edbc8e2a8697c15331677e6ebf0b",
            "data": [
                "0x"
            ],
            "gasLimit": [
                "0x493e0"
            ],
            "value": [
                "0x00"
            ],
            "secretKey": "0x45a915e4d060149eb4365960e6a7a45f334393093061116b197e3240065ff2d8",
            "sender": "0xa94f5374fce5edbc8e2a8697c15331677e6ebf0b"
        },
        "post": {
            "ETC_Magneto": [
                {
                    "hash": "3e45810056b782613f7acf92dec6facafddecddccf68ad4f1673cc115f70a1d9",
                    "logs": "1dcc4de8dec75d7aab85b567b6ccd41ad312451b948a7413f0a142fd40d49347",
                    "txbytes": "0xf860800a830493e094194f5374fce5edbc8e2a8697c15331677e6ebf0b80801ba09943cc10112518b718585ef4f38c6c7c372c48304a26a051ebc3f79654adaf89a0783f0c5c3adf59c3aea75203755f128d5c88768543783c741fc688fc74c8ee6b",
                    "indexes": {
                        "data": 0,
                        "gas": 0,
                        "value": 0
                    }
                }
            ],
            "ETC_Mystique": [
                {
                    "hash": "3e45810056b782613f7acf92dec6facafddecddccf68ad4f1673cc115f70a1d9",
                    "logs": "1dcc4de8dec75d7aab85b567b6ccd41ad312451b948a7413f0a142fd40d49347",
                    "txbytes": "0xf860800a830493e094194f5374fce5edbc8e2a8697c15331677e6ebf0b80801ba09943cc10112518b718585ef4f38c6c7c372c48304a26a051ebc3f79654adaf89a0783f0c5c3adf59c3aea75203755f128d5c88768543783c741fc688fc74c8ee6b",
                    "indexes": {
                        "data": 0,
                        "gas": 0,
                        "value": 0
                    }
                }
            ],
            "ETC_Phoenix": [
                {
                    "hash": "6f769d67857f81d1914c35e9af88e784825d4ced2f33300afb7e2cec5f517447",
                    "logs": "1dcc4de8dec75d7aab85b567b6ccd41ad312451b948a7413f0a142fd40d49347",
                    "txbytes": "0xf860800a830493e094194f5374fce5edbc8e2a8697c15331677e6ebf0b80801ba09943cc10112518b718585ef4f38c6c7c372c48304a26a051ebc3f79654adaf89a0783f0c5c3adf59c3aea75203755f128d5c88768543783c741fc688fc74c8ee6b",
                    "indexes": {
                        "data": 0,
                        "gas": 0,
                        "value": 0
                    }
                }
            ]
        }
    }
}