{
    "static_RETURN_BoundsOOG": {
        "_info": {
            "comment": "",
            "filling-rpc-server": "evm version 1.10.16-unstable-0f893109-20220105",
            "filling-tool-version": "retesteth-0.2.2-testinfo+commit.01c6aac2.Linux.g++",
            "filledWith": "CoreGeth-1.12.9-unstable-d390462df9df233b60b4cd7a37db5b3043832022",
            "lllcversion": "Version: 0.5.14-develop.2021.11.27+commit.401d5358.Linux.g++",
            "source": "src/GeneralStateTestsFiller/stStaticCall/static_RETURN_BoundsOOGFiller.json",
            "sourceHash": "de82935a62a3df60bb284a582e027197215e4645edc6f9f6d470c7881be3d35d"
        },
        "env": {
            "currentCoinbase": "0x2adc25665018aa1fe0e6bc666dac8fc2697ff9ba",
            "currentDifficulty": "0x20000",
            "currentGasLimit": "0x7fffffffffffffff",
            "currentNumber": "0x1",
            "currentTimestamp": "0x3e8",
            "previousHash": "0x5e20a0453cecd065ea59c37ac63e079ee08998b6045136a8ce6635c7912ec0b6"
        },
        "pre": {
            "0x1000000000000000000000000000000000000000": {
                "code": "0x60006000600060007310000000000000000000000000000000000000016707fffffffffffffffa60015560006000600060007310000000000000000000000000000000000000026707fffffffffffffffa60025560006000600060007310000000000000000000000000000000000000036707fffffffffffffffa60035560006000600060007310000000000000000000000000000000000000046707fffffffffffffffa60045560006000600060007310000000000000000000000000000000000000056707fffffffffffffffa60055560006000600060007310000000000000000000000000000000000000066707fffffffffffffffa60065560006000600060007310000000000000000000000000000000000000066707fffffffffffffffa60075560006000600060007310000000000000000000000000000000000000066707fffffffffffffffa60085560006000600060007310000000000000000000000000000000000000066707fffffffffffffffa60095560006000600060007310000000000000000000000000000000000000066707fffffffffffffffa600a5560006000600060007310000000000000000000000000000000000000066707fffffffffffffffa600b5560006000600060007310000000000000000000000000000000000000066707fffffffffffffffa600c5560006000600060007310000000000000000000000000000000000000066707fffffffffffffffa600d5560006000600060007310000000000000000000000000000000000000066707fffffffffffffffa600e5560006000600060007310000000000000000000000000000000000000066707fffffffffffffffa600f5560006000600060007310000000000000000000000000000000000000066707fffffffffffffffa6010556000600035146102af575a6102b7565b622fffff6000205b00",
                "balance": "0x0",
                "nonce": "0x0"
            },
            "0x1000000000000000000000000000000000000001": {
                "code": "0x60006000f300",
                "balance": "0x0",
                "nonce": "0x0"
            },
            "0x1000000000000000000000000000000000000002": {
                "code": "0x6000630ffffffff300",
                "balance": "0x0",
                "nonce": "0x0"
            },
            "0x1000000000000000000000000000000000000003": {
                "code": "0x600063fffffffff300",
                "balance": "0x0",
                "nonce": "0x0"
            },
            "0x1000000000000000000000000000000000000004": {
                "code": "0x600067fffffffffffffffff300",
                "balance": "0x0",
                "nonce": "0x0"
            },
            "0x1000000000000000000000000000000000000005": {
                "code": "0x60006d0ffffffffffffffffffffffffffff300",
                "balance": "0x0",
                "nonce": "0x0"
            },
            "0x1000000000000000000000000000000000000006": {
                "code": "0x60007ffffffffffffffffffffffffffffffffffffffffffffffffffffffffffffffffff300",
                "balance": "0x0",
                "nonce": "0x0"
            },
            "0x1000000000000000000000000000000000000007": {
                "code": "0x630fffffff6000f300",
                "balance": "0x0",
                "nonce": "0x0"
            },
            "0x1000000000000000000000000000000000000008": {
                "code": "0x63ffffffff6000f300",
                "balance": "0x0",
                "nonce": "0x0"
            },
            "0x1000000000000000000000000000000000000009": {
                "code": "0x67ffffffffffffffff6000f300",
                "balance": "0x0",
                "nonce": "0x0"
            },
            "0x1000000000000000000000000000000000000010": {
                "code": "0x6d0fffffffffffffffffffffffffff6000f300",
                "balance": "0x0",
                "nonce": "0x0"
            },
            "0x1000000000000000000000000000000000000011": {
                "code": "0x7fffffffffffffffffffffffffffffffffffffffffffffffffffffffffffffffff6000f300",
                "balance": "0x0",
                "nonce": "0x0"
            },
            "0x1000000000000000000000000000000000000012": {
                "code": "0x630fffffff630ffffffff300",
                "balance": "0x0",
                "nonce": "0x0"
            },
            "0x1000000000000000000000000000000000000013": {
                "code": "0x63ffffffff63fffffffff300",
                "balance": "0x0",
                "nonce": "0x0"
            },
            "0x1000000000000000000000000000000000000014": {
                "code": "0x67ffffffffffffffff67fffffffffffffffff300",
                "balance": "0x0",
                "nonce": "0x0"
            },
            "0x1000000000000000000000000000000000000015": {
                "code": "0x6d0fffffffffffffffffffffffffff6d0ffffffffffffffffffffffffffff300",
                "balance": "0x0",
                "nonce": "0x0"
            },
            "0x1000000000000000000000000000000000000016": {
                "code": "0x7fffffffffffffffffffffffffffffffffffffffffffffffffffffffffffffffff7ffffffffffffffffffffffffffffffffffffffffffffffffffffffffffffffffff300",
                "balance": "0x0",
                "nonce": "0x0"
            },
            "0xa94f5374fce5edbc8e2a8697c15331677e6ebf0b": {
                "code": "0x",
                "balance": "0xffffffffffffffffffffffffffffffffffffffffffffffffffffffffffffffff",
                "nonce": "0x0"
            }
        },
        "transaction": {
            "gasPrice": "0xa",
            "nonce": "0x0",
            "to": "0x1000000000000000000000000000000000000000",
            "data": [
                "0x00",
                "0x0000000000000000000000000000000000000001"
            ],
            "gasLimit": [
                "0xe4e1c0"
            ],
            "value": [
                "0x01"
            ],
            "secretKey": "0x45a915e4d060149eb4365960e6a7a45f334393093061116b197e3240065ff2d8",
            "sender": "0xa94f5374fce5edbc8e2a8697c15331677e6ebf0b"
        },
        "post": {
            "ETC_Magneto": [
                {
                    "hash": "e8196b2741e5fa5d1b9242f88a8105df782080e5b9ca81814fa90aa88bd3fb58",
                    "logs": "1dcc4de8dec75d7aab85b567b6ccd41ad312451b948a7413f0a142fd40d49347",
                    "txbytes": "0xf874800a83e4e1c0941000000000000000000000000000000000000000019400000000000000000000000000000000000000011ca0a3e01deac66be32920daecc20eb689136f2eaf018756ae42f74dd1b2abdeab2da004f80afafda826918a9c971afca7fc7c4de6255573eaa7c33c627222255e99a1",
                    "indexes": {
                        "data": 1,
                        "gas": 0,
                        "value": 0
                    }
                },
                {
                    "hash": "d087067b0dc92fec7c63142699c7cb42a984c958453ae32f0c8e5df177c38982",
                    "logs": "1dcc4de8dec75d7aab85b567b6ccd41ad312451b948a7413f0a142fd40d49347",
                    "txbytes": "0xf860800a83e4e1c094100000000000000000000000000000000000000001001ba0713ff6da6d1246af001ca1009a34aae709facd4cd97980caff276f9bef5707f1a0669afcd4932089f81bd696f65d21915758bacb4e7df54a1fe2ac0df4bfb59f56",
                    "indexes": {
                        "data": 0,
                        "gas": 0,
                        "value": 0
                    }
                }
            ],
            "ETC_Mystique": [
                {
                    "hash": "e8196b2741e5fa5d1b9242f88a8105df782080e5b9ca81814fa90aa88bd3fb58",
                    "logs": "1dcc4de8dec75d7aab85b567b6ccd41ad312451b948a7413f0a142fd40d49347",
                    "txbytes": "0xf874800a83e4e1c0941000000000000000000000000000000000000000019400000000000000000000000000000000000000011ca0a3e01deac66be32920daecc20eb689136f2eaf018756ae42f74dd1b2abdeab2da004f80afafda826918a9c971afca7fc7c4de6255573eaa7c33c627222255e99a1",
                    "indexes": {
                        "data": 1,
                        "gas": 0,
                        "value": 0
                    }
                },
                {
                    "hash": "d087067b0dc92fec7c63142699c7cb42a984c958453ae32f0c8e5df177c38982",
                    "logs": "1dcc4de8dec75d7aab85b567b6ccd41ad312451b948a7413f0a142fd40d49347",
                    "txbytes": "0xf860800a83e4e1c094100000000000000000000000000000000000000001001ba0713ff6da6d1246af001ca1009a34aae709facd4cd97980caff276f9bef5707f1a0669afcd4932089f81bd696f65d21915758bacb4e7df54a1fe2ac0df4bfb59f56",
                    "indexes": {
                        "data": 0,
                        "gas": 0,
                        "value": 0
                    }
                }
            ],
            "ETC_Phoenix": [
                {
                    "hash": "61896230443a1250b165b30ebf61a1db7b392f5c6fafbde099f3fa5ff8ac97e5",
                    "logs": "1dcc4de8dec75d7aab85b567b6ccd41ad312451b948a7413f0a142fd40d49347",
                    "txbytes": "0xf874800a83e4e1c0941000000000000000000000000000000000000000019400000000000000000000000000000000000000011ca0a3e01deac66be32920daecc20eb689136f2eaf018756ae42f74dd1b2abdeab2da004f80afafda826918a9c971afca7fc7c4de6255573eaa7c33c627222255e99a1",
                    "indexes": {
                        "data": 1,
                        "gas": 0,
                        "value": 0
                    }
                },
                {
                    "hash": "d087067b0dc92fec7c63142699c7cb42a984c958453ae32f0c8e5df177c38982",
                    "logs": "1dcc4de8dec75d7aab85b567b6ccd41ad312451b948a7413f0a142fd40d49347",
                    "txbytes": "0xf860800a83e4e1c094100000000000000000000000000000000000000001001ba0713ff6da6d1246af001ca1009a34aae709facd4cd97980caff276f9bef5707f1a0669afcd4932089f81bd696f65d21915758bacb4e7df54a1fe2ac0df4bfb59f56",
                    "indexes": {
                        "data": 0,
                        "gas": 0,
                        "value": 0
                    }
                }
            ]
        }
    }
}