{
    "static_callChangeRevert": {
        "_info": {
            "comment": "",
            "filling-rpc-server": "evm version 1.10.16-unstable-0f893109-20220105",
            "filling-tool-version": "retesteth-0.2.2-testinfo+commit.01c6aac2.Linux.g++",
            "filledWith": "CoreGeth-1.12.9-unstable-3995a327f2ded5c98324b03792b5ccc22557754f",
            "lllcversion": "Version: 0.5.14-develop.2021.11.27+commit.401d5358.Linux.g++",
            "source": "src/GeneralStateTestsFiller/stStaticCall/static_callChangeRevertFiller.json",
            "sourceHash": "a675420dbfbe83c28176b5524a3fd8d7dfaf528f88a84692b0c56f38b1c6805c"
        },
        "env": {
            "currentCoinbase": "0x2adc25665018aa1fe0e6bc666dac8fc2697ff9ba",
            "currentDifficulty": "0x20000",
            "currentGasLimit": "0x989680",
            "currentNumber": "0x1",
            "currentTimestamp": "0x3e8",
            "currentBaseFee": "0xa",
            "previousHash": "0x5e20a0453cecd065ea59c37ac63e079ee08998b6045136a8ce6635c7912ec0b6"
        },
        "pre": {
            "0x1000000000000000000000000000000000000000": {
                "code": "0x60006000600060006001731000000000000000000000000000000000000001620186a0f16000556000600060006000731000000000000000000000000000000000000001620186a0fa60015560006000600060006001731000000000000000000000000000000000000001620186a0f160025500",
                "balance": "0xde0b6b3a7640000"
            },
            "0x1000000000000000000000000000000000000001": {
                "code": "0x600160015200",
                "balance": "0x0"
            },
            "0x1000000000000000000000000000000000000002": {
                "code": "0x600160015260015460015500",
                "balance": "0x0"
            },
            "0x2000000000000000000000000000000000000000": {
                "code": "0x60006000600060006001731000000000000000000000000000000000000001620186a0f16000556000600060006000731000000000000000000000000000000000000001620186a0fa60015560006000600060006001731000000000000000000000000000000000000001620186a0f16002555b61c3506080511015608f5760013b506001608051016080526073565b00",
                "balance": "0xde0b6b3a7640000"
            },
            "0x3000000000000000000000000000000000000000": {
                "code": "0x60006000600060006001731000000000000000000000000000000000000002620186a0f16000556000600060006000731000000000000000000000000000000000000002620186a0fa60015560006000600060006001731000000000000000000000000000000000000002620186a0f160025500",
                "balance": "0xde0b6b3a7640000"
            },
            "0xa000000000000000000000000000000000000000": {
                "code": "0x6000600060006000600060003562055730f100",
                "balance": "0xde0b6b3a7640000"
            },
            "0xa94f5374fce5edbc8e2a8697c15331677e6ebf0b": {
                "balance": "0xde0b6b3a7640000"
            }
        },
        "transaction": {
            "gasPrice": "0xa",
            "nonce": "0x0",
            "to": "0xa000000000000000000000000000000000000000",
            "data": [
                "0x0000000000000000000000001000000000000000000000000000000000000000",
                "0x0000000000000000000000002000000000000000000000000000000000000000",
                "0x0000000000000000000000003000000000000000000000000000000000000000"
            ],
            "gasLimit": [
                "0xf4240"
            ],
            "value": [
                "0x0186a0"
            ],
            "secretKey": "0x45a915e4d060149eb4365960e6a7a45f334393093061116b197e3240065ff2d8",
            "sender": "0xa94f5374fce5edbc8e2a8697c15331677e6ebf0b"
        },
        "post": {
            "ETC_Magneto": [
                {
                    "hash": "99f5b1251138bbd9a0068ec677467a7f0bd2fe5cea2feae7587a5c7dc485ea3f",
                    "logs": "1dcc4de8dec75d7aab85b567b6ccd41ad312451b948a7413f0a142fd40d49347",
                    "txbytes": "0xf883800a830f424094a000000000000000000000000000000000000000830186a0a000000000000000000000000010000000000000000000000000000000000000001ba011245eee4844656f39de851802157db73ed455cc95fc8a3356d6ab2af14d626ea06ca8fd956f2583c20d6a66145fa219e1a714a93fb8effce857ce9cd37a9cb80d",
                    "indexes": {
                        "data": 0,
                        "gas": 0,
                        "value": 0
                    }
                },
                {
                    "hash": "011343e184eee91598a89444a98ed91b4b77675752bfac539f4a11e98f799dda",
                    "logs": "1dcc4de8dec75d7aab85b567b6ccd41ad312451b948a7413f0a142fd40d49347",
                    "txbytes": "0xf883800a830f424094a000000000000000000000000000000000000000830186a0a000000000000000000000000020000000000000000000000000000000000000001ba0f8d3b0a8d0ec9fefc48649321c7539ee90b6bd2c7b49f5d94409142076601a09a079abb99142140522477c7ef6f345153bd3b0bd2dbf971971800fb96424ed006b",
                    "indexes": {
                        "data": 1,
                        "gas": 0,
                        "value": 0
                    }
                },
                {
                    "hash": "a0949a9eb36b6a561b6a92b2f663f2bf89c1bec6052fe0f008863adf511c531c",
                    "logs": "1dcc4de8dec75d7aab85b567b6ccd41ad312451b948a7413f0a142fd40d49347",
                    "txbytes": "0xf883800a830f424094a000000000000000000000000000000000000000830186a0a000000000000000000000000030000000000000000000000000000000000000001ca0370abc6ef30d01822c06e30a0aeed612611cde4e40527df9029b64ac73094cd7a0634ce4bd2539d3a1420de90b70b34497444b72b6562410edb055dd83b5ba87fe",
                    "indexes": {
                        "data": 2,
                        "gas": 0,
                        "value": 0
                    }
                }
            ],
            "ETC_Mystique": [
                {
                    "hash": "99f5b1251138bbd9a0068ec677467a7f0bd2fe5cea2feae7587a5c7dc485ea3f",
                    "logs": "1dcc4de8dec75d7aab85b567b6ccd41ad312451b948a7413f0a142fd40d49347",
                    "txbytes": "0xf883800a830f424094a000000000000000000000000000000000000000830186a0a000000000000000000000000010000000000000000000000000000000000000001ba011245eee4844656f39de851802157db73ed455cc95fc8a3356d6ab2af14d626ea06ca8fd956f2583c20d6a66145fa219e1a714a93fb8effce857ce9cd37a9cb80d",
                    "indexes": {
                        "data": 0,
                        "gas": 0,
                        "value": 0
                    }
                },
                {
                    "hash": "011343e184eee91598a89444a98ed91b4b77675752bfac539f4a11e98f799dda",
                    "logs": "1dcc4de8dec75d7aab85b567b6ccd41ad312451b948a7413f0a142fd40d49347",
                    "txbytes": "0xf883800a830f424094a000000000000000000000000000000000000000830186a0a000000000000000000000000020000000000000000000000000000000000000001ba0f8d3b0a8d0ec9fefc48649321c7539ee90b6bd2c7b49f5d94409142076601a09a079abb99142140522477c7ef6f345153bd3b0bd2dbf971971800fb96424ed006b",
                    "indexes": {
                        "data": 1,
                        "gas": 0,
                        "value": 0
                    }
                },
                {
                    "hash": "a0949a9eb36b6a561b6a92b2f663f2bf89c1bec6052fe0f008863adf511c531c",
                    "logs": "1dcc4de8dec75d7aab85b567b6ccd41ad312451b948a7413f0a142fd40d49347",
                    "txbytes": "0xf883800a830f424094a000000000000000000000000000000000000000830186a0a000000000000000000000000030000000000000000000000000000000000000001ca0370abc6ef30d01822c06e30a0aeed612611cde4e40527df9029b64ac73094cd7a0634ce4bd2539d3a1420de90b70b34497444b72b6562410edb055dd83b5ba87fe",
                    "indexes": {
                        "data": 2,
                        "gas": 0,
                        "value": 0
                    }
                }
            ],
            "ETC_Phoenix": [
                {
                    "hash": "49539724eb2685a07668053aeed5c806932a8f32b44888a601bef55d3e31fa5d",
                    "logs": "1dcc4de8dec75d7aab85b567b6ccd41ad312451b948a7413f0a142fd40d49347",
                    "txbytes": "0xf883800a830f424094a000000000000000000000000000000000000000830186a0a000000000000000000000000010000000000000000000000000000000000000001ba011245eee4844656f39de851802157db73ed455cc95fc8a3356d6ab2af14d626ea06ca8fd956f2583c20d6a66145fa219e1a714a93fb8effce857ce9cd37a9cb80d",
                    "indexes": {
                        "data": 0,
                        "gas": 0,
                        "value": 0
                    }
                },
                {
                    "hash": "a119f38cd5b524d898c99453d02728a17a78ec92414f7c4d515bd68e6b8583ba",
                    "logs": "1dcc4de8dec75d7aab85b567b6ccd41ad312451b948a7413f0a142fd40d49347",
                    "txbytes": "0xf883800a830f424094a000000000000000000000000000000000000000830186a0a000000000000000000000000020000000000000000000000000000000000000001ba0f8d3b0a8d0ec9fefc48649321c7539ee90b6bd2c7b49f5d94409142076601a09a079abb99142140522477c7ef6f345153bd3b0bd2dbf971971800fb96424ed006b",
                    "indexes": {
                        "data": 1,
                        "gas": 0,
                        "value": 0
                    }
                },
                {
                    "hash": "95bbaa870eebfb9b122067c230c64f3e8754713de747d7519c6d677eafe86d28",
                    "logs": "1dcc4de8dec75d7aab85b567b6ccd41ad312451b948a7413f0a142fd40d49347",
                    "txbytes": "0xf883800a830f424094a000000000000000000000000000000000000000830186a0a000000000000000000000000030000000000000000000000000000000000000001ca0370abc6ef30d01822c06e30a0aeed612611cde4e40527df9029b64ac73094cd7a0634ce4bd2539d3a1420de90b70b34497444b72b6562410edb055dd83b5ba87fe",
                    "indexes": {
                        "data": 2,
                        "gas": 0,
                        "value": 0
                    }
                }
            ]
        }
    }
}