{
    "static_callcodecallcallcode_ABCB_RECURSIVE2": {
        "_info": {
            "comment": "",
            "filling-rpc-server": "evm version 1.10.16-unstable-0f893109-20220105",
            "filling-tool-version": "retesteth-0.2.2-testinfo+commit.01c6aac2.Linux.g++",
            "filledWith": "CoreGeth-1.12.9-unstable-d64998ce9b05f4f41b35740c69c4b402e41a3105",
            "lllcversion": "Version: 0.5.14-develop.2021.11.27+commit.401d5358.Linux.g++",
            "source": "src/GeneralStateTestsFiller/stStaticCall/static_callcodecallcallcode_ABCB_RECURSIVE2Filler.json",
            "sourceHash": "f1957240a985ed599b4e00cc833b99526c31f123aa03283001faffc3810f695a"
        },
        "env": {
            "currentCoinbase": "0x2adc25665018aa1fe0e6bc666dac8fc2697ff9ba",
            "currentDifficulty": "0x20000",
            "currentGasLimit": "0xb2d05e00",
            "currentNumber": "0x1",
            "currentTimestamp": "0x3e8",
            "previousHash": "0x5e20a0453cecd065ea59c37ac63e079ee08998b6045136a8ce6635c7912ec0b6"
        },
        "pre": {
            "0x1000000000000000000000000000000000000000": {
                "code": "0x60406000604060003460003563017d7840f2600055600160015500",
                "balance": "0xde0b6b3a7640000"
            },
            "0x1000000000000000000000000000000000000001": {
                "code": "0x6040600060406000731000000000000000000000000000000000000002620f4240fa00",
                "balance": "0x2540be400"
            },
            "0x1000000000000000000000000000000000000002": {
                "code": "0x604060006040600060007310000000000000000000000000000000000000016207a120f200",
                "balance": "0x2540be400"
            },
            "0x2000000000000000000000000000000000000001": {
                "code": "0x6040600060406000732000000000000000000000000000000000000002620f4240fa00",
                "balance": "0x2540be400"
            },
            "0x2000000000000000000000000000000000000002": {
                "code": "0x604060006040600060017320000000000000000000000000000000000000016207a120f200",
                "balance": "0x2540be400"
            },
            "0xa94f5374fce5edbc8e2a8697c15331677e6ebf0b": {
                "balance": "0xde0b6b3a7640000"
            }
        },
        "transaction": {
            "gasPrice": "0xa",
            "nonce": "0x0",
            "to": "0x1000000000000000000000000000000000000000",
            "data": [
                "0x0000000000000000000000001000000000000000000000000000000000000001",
                "0x0000000000000000000000002000000000000000000000000000000000000001"
            ],
            "gasLimit": [
                "0x1c9c380"
            ],
            "value": [
                "0x00",
                "0x01"
            ],
            "secretKey": "0x45a915e4d060149eb4365960e6a7a45f334393093061116b197e3240065ff2d8",
            "sender": "0xa94f5374fce5edbc8e2a8697c15331677e6ebf0b"
        },
        "post": {
            "ETC_Magneto": [
                {
                    "hash": "45d8956fa5f0010a32b497c7080c6fdf487573db6646a235b72dbf0f33ce6229",
                    "logs": "1dcc4de8dec75d7aab85b567b6ccd41ad312451b948a7413f0a142fd40d49347",
                    "txbytes": "0xf881800a8401c9c38094100000000000000000000000000000000000000080a000000000000000000000000010000000000000000000000000000000000000011ca0d14cd022c7b393927d0a2566c0b9650b6db158dcd159967c1e2f8ef9629aa151a034d3af7dac5b7dd0e3f3e377f100bf137d601fcbef5c72f8aa335d4c311140b1",
                    "indexes": {
                        "data": 0,
                        "gas": 0,
                        "value": 0
                    }
                },
                {
                    "hash": "efee60c1bd2d9b24b015584adce016323d5daac92a81daa4142e7b8b191a8c8c",
                    "logs": "1dcc4de8dec75d7aab85b567b6ccd41ad312451b948a7413f0a142fd40d49347",
                    "txbytes": "0xf881800a8401c9c38094100000000000000000000000000000000000000001a000000000000000000000000010000000000000000000000000000000000000011ca003c3b36674b91c341b54e5a6686eb182b438768fccea18328ebfae46a9985140a045a52bfb9cfc0b51aa850113d6f53aef8e78af1fc87891e6e92ad4cf8468e2ce",
                    "indexes": {
                        "data": 0,
                        "gas": 0,
                        "value": 1
                    }
                },
                {
                    "hash": "7d159c16c591a0132881d81c95fe7caec709da297a6fd626b060de59c108d7dd",
                    "logs": "1dcc4de8dec75d7aab85b567b6ccd41ad312451b948a7413f0a142fd40d49347",
                    "txbytes": "0xf881800a8401c9c38094100000000000000000000000000000000000000080a000000000000000000000000020000000000000000000000000000000000000011ca05b0214d29b80397dec30769c8e64b6b063affd91335be7da78cf15495a6f0c84a00b6fe6dda44797133980c869456a21b5734698a508d34ed6c9d9d8edbca29df0",
                    "indexes": {
                        "data": 1,
                        "gas": 0,
                        "value": 0
                    }
                },
                {
                    "hash": "a061fe21c2e5abd145b559312da0275b40f8f0066a70af7cfe0148ef8da84a2d",
                    "logs": "1dcc4de8dec75d7aab85b567b6ccd41ad312451b948a7413f0a142fd40d49347",
                    "txbytes": "0xf881800a8401c9c38094100000000000000000000000000000000000000001a000000000000000000000000020000000000000000000000000000000000000011ca05ad4b5756c23f3bc1bca240a1798e23b09b9a908490d206566cb7e9dc7bb1498a00cf91e75009709ab62cbc5cf846f08c565d9c0517b857c8dad961713525f2d75",
                    "indexes": {
                        "data": 1,
                        "gas": 0,
                        "value": 1
                    }
                }
            ],
            "ETC_Mystique": [
                {
                    "hash": "45d8956fa5f0010a32b497c7080c6fdf487573db6646a235b72dbf0f33ce6229",
                    "logs": "1dcc4de8dec75d7aab85b567b6ccd41ad312451b948a7413f0a142fd40d49347",
                    "txbytes": "0xf881800a8401c9c38094100000000000000000000000000000000000000080a000000000000000000000000010000000000000000000000000000000000000011ca0d14cd022c7b393927d0a2566c0b9650b6db158dcd159967c1e2f8ef9629aa151a034d3af7dac5b7dd0e3f3e377f100bf137d601fcbef5c72f8aa335d4c311140b1",
                    "indexes": {
                        "data": 0,
                        "gas": 0,
                        "value": 0
                    }
                },
                {
                    "hash": "efee60c1bd2d9b24b015584adce016323d5daac92a81daa4142e7b8b191a8c8c",
                    "logs": "1dcc4de8dec75d7aab85b567b6ccd41ad312451b948a7413f0a142fd40d49347",
                    "txbytes": "0xf881800a8401c9c38094100000000000000000000000000000000000000001a000000000000000000000000010000000000000000000000000000000000000011ca003c3b36674b91c341b54e5a6686eb182b438768fccea18328ebfae46a9985140a045a52bfb9cfc0b51aa850113d6f53aef8e78af1fc87891e6e92ad4cf8468e2ce",
                    "indexes": {
                        "data": 0,
                        "gas": 0,
                        "value": 1
                    }
                },
                {
                    "hash": "7d159c16c591a0132881d81c95fe7caec709da297a6fd626b060de59c108d7dd",
                    "logs": "1dcc4de8dec75d7aab85b567b6ccd41ad312451b948a7413f0a142fd40d49347",
                    "txbytes": "0xf881800a8401c9c38094100000000000000000000000000000000000000080a000000000000000000000000020000000000000000000000000000000000000011ca05b0214d29b80397dec30769c8e64b6b063affd91335be7da78cf15495a6f0c84a00b6fe6dda44797133980c869456a21b5734698a508d34ed6c9d9d8edbca29df0",
                    "indexes": {
                        "data": 1,
                        "gas": 0,
                        "value": 0
                    }
                },
                {
                    "hash": "a061fe21c2e5abd145b559312da0275b40f8f0066a70af7cfe0148ef8da84a2d",
                    "logs": "1dcc4de8dec75d7aab85b567b6ccd41ad312451b948a7413f0a142fd40d49347",
                    "txbytes": "0xf881800a8401c9c38094100000000000000000000000000000000000000001a000000000000000000000000020000000000000000000000000000000000000011ca05ad4b5756c23f3bc1bca240a1798e23b09b9a908490d206566cb7e9dc7bb1498a00cf91e75009709ab62cbc5cf846f08c565d9c0517b857c8dad961713525f2d75",
                    "indexes": {
                        "data": 1,
                        "gas": 0,
                        "value": 1
                    }
                }
            ],
            "ETC_Phoenix": [
                {
                    "hash": "63cd47b0ca96b74b9eeed3f6c0f40f57eea9781eb1e85364466310bc75c1bb1d",
                    "logs": "1dcc4de8dec75d7aab85b567b6ccd41ad312451b948a7413f0a142fd40d49347",
                    "txbytes": "0xf881800a8401c9c38094100000000000000000000000000000000000000080a000000000000000000000000010000000000000000000000000000000000000011ca0d14cd022c7b393927d0a2566c0b9650b6db158dcd159967c1e2f8ef9629aa151a034d3af7dac5b7dd0e3f3e377f100bf137d601fcbef5c72f8aa335d4c311140b1",
                    "indexes": {
                        "data": 0,
                        "gas": 0,
                        "value": 0
                    }
                },
                {
                    "hash": "1228adf8082b69aba8fb82a5e62bf070cc355e95fb1d0c3bba90c4ff08e6dcf9",
                    "logs": "1dcc4de8dec75d7aab85b567b6ccd41ad312451b948a7413f0a142fd40d49347",
                    "txbytes": "0xf881800a8401c9c38094100000000000000000000000000000000000000001a000000000000000000000000010000000000000000000000000000000000000011ca003c3b36674b91c341b54e5a6686eb182b438768fccea18328ebfae46a9985140a045a52bfb9cfc0b51aa850113d6f53aef8e78af1fc87891e6e92ad4cf8468e2ce",
                    "indexes": {
                        "data": 0,
                        "gas": 0,
                        "value": 1
                    }
                },
                {
                    "hash": "9cc1428cb739f87901ac2a162ffa71f1653942986b80c314211f5ee1245b3623",
                    "logs": "1dcc4de8dec75d7aab85b567b6ccd41ad312451b948a7413f0a142fd40d49347",
                    "txbytes": "0xf881800a8401c9c38094100000000000000000000000000000000000000080a000000000000000000000000020000000000000000000000000000000000000011ca05b0214d29b80397dec30769c8e64b6b063affd91335be7da78cf15495a6f0c84a00b6fe6dda44797133980c869456a21b5734698a508d34ed6c9d9d8edbca29df0",
                    "indexes": {
                        "data": 1,
                        "gas": 0,
                        "value": 0
                    }
                },
                {
                    "hash": "16c9b2331d186f125e99265fb4b08a30b912c9f464a9e455dd0413834e98c584",
                    "logs": "1dcc4de8dec75d7aab85b567b6ccd41ad312451b948a7413f0a142fd40d49347",
                    "txbytes": "0xf881800a8401c9c38094100000000000000000000000000000000000000001a000000000000000000000000020000000000000000000000000000000000000011ca05ad4b5756c23f3bc1bca240a1798e23b09b9a908490d206566cb7e9dc7bb1498a00cf91e75009709ab62cbc5cf846f08c565d9c0517b857c8dad961713525f2d75",
                    "indexes": {
                        "data": 1,
                        "gas": 0,
                        "value": 1
                    }
                }
            ]
        }
    }
}