{
    "static_RawCallGasAsk": {
        "_info": {
            "comment": "",
            "filling-rpc-server": "evm version 1.10.16-unstable-0f893109-20220105",
            "filling-tool-version": "retesteth-0.2.2-testinfo+commit.01c6aac2.Linux.g++",
            "filledWith": "CoreGeth-1.12.9-unstable-4d59a861107c8232d6896811c48f229d30087be4",
            "lllcversion": "Version: 0.5.14-develop.2021.11.27+commit.401d5358.Linux.g++",
            "source": "src/GeneralStateTestsFiller/stStaticCall/static_RawCallGasAskFiller.json",
            "sourceHash": "649029b00a812400f593f1f5fcba0cc0617a140fd59d34628fd50b6c2aa4ed06"
        },
        "env": {
            "currentCoinbase": "0x2adc25665018aa1fe0e6bc666dac8fc2697ff9ba",
            "currentDifficulty": "0x20000",
            "currentGasLimit": "0x989680",
            "currentNumber": "0x1",
            "currentTimestamp": "0x3e8",
            "currentBaseFee": "0xa",
            "previousHash": "0x5e20a0453cecd065ea59c37ac63e079ee08998b6045136a8ce6635c7912ec0b6"
        },
        "pre": {
            "0x094f5374fce5edbc8e2a8697c15331677e6ebf0b": {
                "code": "0x5a60005200",
                "balance": "0x0"
            },
            "0x1000000000000000000000000000000000000000": {
                "code": "0x600060006000600060006000355af100",
                "balance": "0xe8d4a51000"
            },
            "0x1000000000000000000000000000000000000001": {
                "code": "0x600060006000600073094f5374fce5edbc8e2a8697c15331677e6ebf0b622dc6c0fa505a60015500",
                "balance": "0x0"
            },
            "0x2000000000000000000000000000000000000001": {
                "code": "0x600060006000600073094f5374fce5edbc8e2a8697c15331677e6ebf0b6201fbd0fa505a60015500",
                "balance": "0x0"
            },
            "0x3000000000000000000000000000000000000001": {
                "code": "0x611f406000611f40600073094f5374fce5edbc8e2a8697c15331677e6ebf0b622dc6c0fa505a60015500",
                "balance": "0x0"
            },
            "0x4000000000000000000000000000000000000001": {
                "code": "0x611f406000611f40600073094f5374fce5edbc8e2a8697c15331677e6ebf0b6201fbd0fa505a60015500",
                "balance": "0x0"
            },
            "0xa94f5374fce5edbc8e2a8697c15331677e6ebf0b": {
                "balance": "0xe8d4a51000"
            }
        },
        "transaction": {
            "gasPrice": "0xa",
            "nonce": "0x0",
            "to": "0x1000000000000000000000000000000000000000",
            "data": [
                "0x0000000000000000000000001000000000000000000000000000000000000001",
                "0x0000000000000000000000002000000000000000000000000000000000000001",
                "0x0000000000000000000000003000000000000000000000000000000000000001",
                "0x0000000000000000000000004000000000000000000000000000000000000001"
            ],
            "gasLimit": [
                "0xf4240"
            ],
            "value": [
                "0x00"
            ],
            "secretKey": "0x45a915e4d060149eb4365960e6a7a45f334393093061116b197e3240065ff2d8",
            "sender": "0xa94f5374fce5edbc8e2a8697c15331677e6ebf0b"
        },
        "post": {
            "ETC_Magneto": [
                {
                    "hash": "976db0ad69d0b845da07e98c4859f25279f0eb7ab1621254ee40c7f6717cad92",
                    "logs": "1dcc4de8dec75d7aab85b567b6ccd41ad312451b948a7413f0a142fd40d49347",
                    "txbytes": "0xf880800a830f424094100000000000000000000000000000000000000080a000000000000000000000000010000000000000000000000000000000000000011ba0ca40286cf510dd110911c6af510abd371016c753d97a4a306498c7e5e0a37f7fa00c0e0cd7f37671b9086387e571267b36b02bceed7978227cef9d14c2d6bd8429",
                    "indexes": {
                        "data": 0,
                        "gas": 0,
                        "value": 0
                    }
                },
                {
                    "hash": "3af06e8e1040fc4fa49f1b401d8cadf90ba818017c6345369bf6a11d33b7df8f",
                    "logs": "1dcc4de8dec75d7aab85b567b6ccd41ad312451b948a7413f0a142fd40d49347",
                    "txbytes": "0xf880800a830f424094100000000000000000000000000000000000000080a000000000000000000000000020000000000000000000000000000000000000011ba0ba980204ef9d34737a326b503432984d6b3724a24c2ee1334a9f47b838f94625a062922ac8f39378bacdfc45793f527e1923e7aa99502b350e65b4a206a7ec2941",
                    "indexes": {
                        "data": 1,
                        "gas": 0,
                        "value": 0
                    }
                },
                {
                    "hash": "6f784c8c2864298f730428afde58924e813234191e018079423531f8766f9e3c",
                    "logs": "1dcc4de8dec75d7aab85b567b6ccd41ad312451b948a7413f0a142fd40d49347",
                    "txbytes": "0xf880800a830f424094100000000000000000000000000000000000000080a000000000000000000000000030000000000000000000000000000000000000011ba07824aed1c1cfe024f3da4846d5f51126a6c7e980d70b63cb4e89c8785e7949dba02e48e80ef66529c7e82a60df59443c777bbf10fda01b9caac1c5a85c52d600ad",
                    "indexes": {
                        "data": 2,
                        "gas": 0,
                        "value": 0
                    }
                },
                {
                    "hash": "f981dbf3ed95ef698628ca318f25bd45d1438810ecc8b2e7e2cea91134ed1565",
                    "logs": "1dcc4de8dec75d7aab85b567b6ccd41ad312451b948a7413f0a142fd40d49347",
                    "txbytes": "0xf880800a830f424094100000000000000000000000000000000000000080a000000000000000000000000040000000000000000000000000000000000000011ca0a23bede74153162a10f3a3c3d88e4aeb8e7656e1974a82f231e84b6c91fbbf5aa07cca804453cb41b24a9c65e78a2ff2fc58e4d9734e9110af5f6422cba3066bc2",
                    "indexes": {
                        "data": 3,
                        "gas": 0,
                        "value": 0
                    }
                }
            ],
            "ETC_Mystique": [
                {
                    "hash": "976db0ad69d0b845da07e98c4859f25279f0eb7ab1621254ee40c7f6717cad92",
                    "logs": "1dcc4de8dec75d7aab85b567b6ccd41ad312451b948a7413f0a142fd40d49347",
                    "txbytes": "0xf880800a830f424094100000000000000000000000000000000000000080a000000000000000000000000010000000000000000000000000000000000000011ba0ca40286cf510dd110911c6af510abd371016c753d97a4a306498c7e5e0a37f7fa00c0e0cd7f37671b9086387e571267b36b02bceed7978227cef9d14c2d6bd8429",
                    "indexes": {
                        "data": 0,
                        "gas": 0,
                        "value": 0
                    }
                },
                {
                    "hash": "3af06e8e1040fc4fa49f1b401d8cadf90ba818017c6345369bf6a11d33b7df8f",
                    "logs": "1dcc4de8dec75d7aab85b567b6ccd41ad312451b948a7413f0a142fd40d49347",
                    "txbytes": "0xf880800a830f424094100000000000000000000000000000000000000080a000000000000000000000000020000000000000000000000000000000000000011ba0ba980204ef9d34737a326b503432984d6b3724a24c2ee1334a9f47b838f94625a062922ac8f39378bacdfc45793f527e1923e7aa99502b350e65b4a206a7ec2941",
                    "indexes": {
                        "data": 1,
                        "gas": 0,
                        "value": 0
                    }
                },
                {
                    "hash": "6f784c8c2864298f730428afde58924e813234191e018079423531f8766f9e3c",
                    "logs": "1dcc4de8dec75d7aab85b567b6ccd41ad312451b948a7413f0a142fd40d49347",
                    "txbytes": "0xf880800a830f424094100000000000000000000000000000000000000080a000000000000000000000000030000000000000000000000000000000000000011ba07824aed1c1cfe024f3da4846d5f51126a6c7e980d70b63cb4e89c8785e7949dba02e48e80ef66529c7e82a60df59443c777bbf10fda01b9caac1c5a85c52d600ad",
                    "indexes": {
                        "data": 2,
                        "gas": 0,
                        "value": 0
                    }
                },
                {
                    "hash": "f981dbf3ed95ef698628ca318f25bd45d1438810ecc8b2e7e2cea91134ed1565",
                    "logs": "1dcc4de8dec75d7aab85b567b6ccd41ad312451b948a7413f0a142fd40d49347",
                    "txbytes": "0xf880800a830f424094100000000000000000000000000000000000000080a000000000000000000000000040000000000000000000000000000000000000011ca0a23bede74153162a10f3a3c3d88e4aeb8e7656e1974a82f231e84b6c91fbbf5aa07cca804453cb41b24a9c65e78a2ff2fc58e4d9734e9110af5f6422cba3066bc2",
                    "indexes": {
                        "data": 3,
                        "gas": 0,
                        "value": 0
                    }
                }
            ],
            "ETC_Phoenix": [
                {
                    "hash": "b6f58d09c5ee5b7f826ad937356fe9c68c0c20321db741d721e77460f058e27c",
                    "logs": "1dcc4de8dec75d7aab85b567b6ccd41ad312451b948a7413f0a142fd40d49347",
                    "txbytes": "0xf880800a830f424094100000000000000000000000000000000000000080a000000000000000000000000010000000000000000000000000000000000000011ba0ca40286cf510dd110911c6af510abd371016c753d97a4a306498c7e5e0a37f7fa00c0e0cd7f37671b9086387e571267b36b02bceed7978227cef9d14c2d6bd8429",
                    "indexes": {
                        "data": 0,
                        "gas": 0,
                        "value": 0
                    }
                },
                {
                    "hash": "3182b3015e40f12e273c79d153400bf819c946e0dd90b263a3827a570666dbf1",
                    "logs": "1dcc4de8dec75d7aab85b567b6ccd41ad312451b948a7413f0a142fd40d49347",
                    "txbytes": "0xf880800a830f424094100000000000000000000000000000000000000080a000000000000000000000000020000000000000000000000000000000000000011ba0ba980204ef9d34737a326b503432984d6b3724a24c2ee1334a9f47b838f94625a062922ac8f39378bacdfc45793f527e1923e7aa99502b350e65b4a206a7ec2941",
                    "indexes": {
                        "data": 1,
                        "gas": 0,
                        "value": 0
                    }
                },
                {
                    "hash": "74a3059831797bce73841b3729faf72eaac18f2f9d6bf8c77fe1eefdf77f76f2",
                    "logs": "1dcc4de8dec75d7aab85b567b6ccd41ad312451b948a7413f0a142fd40d49347",
                    "txbytes": "0xf880800a830f424094100000000000000000000000000000000000000080a000000000000000000000000030000000000000000000000000000000000000011ba07824aed1c1cfe024f3da4846d5f51126a6c7e980d70b63cb4e89c8785e7949dba02e48e80ef66529c7e82a60df59443c777bbf10fda01b9caac1c5a85c52d600ad",
                    "indexes": {
                        "data": 2,
                        "gas": 0,
                        "value": 0
                    }
                },
                {
                    "hash": "b036157e7a9099e9287dc0760847c00ba817b108dd7937d3a56bc0532ec97865",
                    "logs": "1dcc4de8dec75d7aab85b567b6ccd41ad312451b948a7413f0a142fd40d49347",
                    "txbytes": "0xf880800a830f424094100000000000000000000000000000000000000080a000000000000000000000000040000000000000000000000000000000000000011ca0a23bede74153162a10f3a3c3d88e4aeb8e7656e1974a82f231e84b6c91fbbf5aa07cca804453cb41b24a9c65e78a2ff2fc58e4d9734e9110af5f6422cba3066bc2",
                    "indexes": {
                        "data": 3,
                        "gas": 0,
                        "value": 0
                    }
                }
            ]
        }
    }
}