{
    "static_callcallcall_000_OOGMBefore": {
        "_info": {
            "comment": "",
            "filling-rpc-server": "evm version 1.10.16-unstable-0f893109-20220105",
            "filling-tool-version": "retesteth-0.2.2-testinfo+commit.01c6aac2.Linux.g++",
            "filledWith": "CoreGeth-1.12.9-unstable-4d59a861107c8232d6896811c48f229d30087be4",
            "lllcversion": "Version: 0.5.14-develop.2021.11.27+commit.401d5358.Linux.g++",
            "source": "src/GeneralStateTestsFiller/stStaticCall/static_callcallcall_000_OOGMBeforeFiller.json",
            "sourceHash": "4286f0d259b6b9f7aa4c9b06d3262e862494cf1a94e5fb01be93b0697920c5e9"
        },
        "env": {
            "currentCoinbase": "0x2adc25665018aa1fe0e6bc666dac8fc2697ff9ba",
            "currentDifficulty": "0x20000",
            "currentGasLimit": "0x1c9c380",
            "currentNumber": "0x1",
            "currentTimestamp": "0x3e8",
            "currentBaseFee": "0xa",
            "previousHash": "0x5e20a0453cecd065ea59c37ac63e079ee08998b6045136a8ce6635c7912ec0b6"
        },
        "pre": {
            "0x1000000000000000000000000000000000000000": {
                "code": "0x6040600060406000731000000000000000000000000000000000000001620927c0fa600055600160015500",
                "balance": "0xde0b6b3a7640000"
            },
            "0x1000000000000000000000000000000000000001": {
                "code": "0x604060006040600073100000000000000000000000000000000000000262061ad0fa00",
                "balance": "0x0"
            },
            "0x1000000000000000000000000000000000000002": {
                "code": "0x5b61c3506080511015601c5760013b506001608051016080526000565b60406000604060007310000000000000000000000000000000000000036201d4d4fa00",
                "balance": "0x0"
            },
            "0x1000000000000000000000000000000000000003": {
                "code": "0x600160035200",
                "balance": "0x0"
            },
            "0xa94f5374fce5edbc8e2a8697c15331677e6ebf0b": {
                "balance": "0xde0b6b3a7640000"
            }
        },
        "transaction": {
            "gasPrice": "0xa",
            "nonce": "0x0",
            "to": "0x1000000000000000000000000000000000000000",
            "data": [
                "0x"
            ],
            "gasLimit": [
                "0x1a3ec0"
            ],
            "value": [
                "0x00"
            ],
            "secretKey": "0x45a915e4d060149eb4365960e6a7a45f334393093061116b197e3240065ff2d8",
            "sender": "0xa94f5374fce5edbc8e2a8697c15331677e6ebf0b"
        },
        "post": {
            "ETC_Magneto": [
                {
                    "hash": "8e36d3e30971342c1f4375d4c901823df80d9bd9a8bfe431fa8061d3c900857c",
                    "logs": "1dcc4de8dec75d7aab85b567b6ccd41ad312451b948a7413f0a142fd40d49347",
                    "txbytes": "0xf860800a831a3ec094100000000000000000000000000000000000000080801ca0acfc91f3c02c203ac11cd661013186017278a3d0176928aa63bd220579b06444a02269c9cb99058373f9706454a281ce90a68726feb1fd5cc2763504effee1ec77",
                    "indexes": {
                        "data": 0,
                        "gas": 0,
                        "value": 0
                    }
                }
            ],
            "ETC_Mystique": [
                {
                    "hash": "8e36d3e30971342c1f4375d4c901823df80d9bd9a8bfe431fa8061d3c900857c",
                    "logs": "1dcc4de8dec75d7aab85b567b6ccd41ad312451b948a7413f0a142fd40d49347",
                    "txbytes": "0xf860800a831a3ec094100000000000000000000000000000000000000080801ca0acfc91f3c02c203ac11cd661013186017278a3d0176928aa63bd220579b06444a02269c9cb99058373f9706454a281ce90a68726feb1fd5cc2763504effee1ec77",
                    "indexes": {
                        "data": 0,
                        "gas": 0,
                        "value": 0
                    }
                }
            ],
            "ETC_Phoenix": [
                {
                    "hash": "01dc8deb7162953d6048bff089941ab1bc27957665dc5ed482ef0b15f6261169",
                    "logs": "1dcc4de8dec75d7aab85b567b6ccd41ad312451b948a7413f0a142fd40d49347",
                    "txbytes": "0xf860800a831a3ec094100000000000000000000000000000000000000080801ca0acfc91f3c02c203ac11cd661013186017278a3d0176928aa63bd220579b06444a02269c9cb99058373f9706454a281ce90a68726feb1fd5cc2763504effee1ec77",
                    "indexes": {
                        "data": 0,
                        "gas": 0,
                        "value": 0
                    }
                }
            ]
        }
    }
}