{
    "static_CallContractToCreateContractOOGBonusGas": {
        "_info": {
            "comment": "",
            "filling-rpc-server": "evm version 1.10.16-unstable-0f893109-20220105",
            "filling-tool-version": "retesteth-0.2.2-testinfo+commit.01c6aac2.Linux.g++",
            "filledWith": "CoreGeth-1.12.9-unstable-3995a327f2ded5c98324b03792b5ccc22557754f",
            "lllcversion": "Version: 0.5.14-develop.2021.11.27+commit.401d5358.Linux.g++",
            "source": "src/GeneralStateTestsFiller/stStaticCall/static_CallContractToCreateContractOOGBonusGasFiller.json",
            "sourceHash": "e8f7595df554d35cd4d127a6074348b125df0cc395106320fe90ed7ac1ef19f2"
        },
        "env": {
            "currentCoinbase": "0x2adc25665018aa1fe0e6bc666dac8fc2697ff9ba",
            "currentDifficulty": "0x20000",
            "currentGasLimit": "0x5f5e100",
            "currentNumber": "0x1",
            "currentTimestamp": "0x3e8",
            "currentBaseFee": "0xa",
            "previousHash": "0x5e20a0453cecd065ea59c37ac63e079ee08998b6045136a8ce6635c7912ec0b6"
        },
        "pre": {
            "0x095e7baea6a6c7c4c2dfeb977efac326af552d87": {
                "code": "0x74600c60005566602060406000f060205260076039f36000526015600b6001f060005560006000600060006000546000fa60015500",
                "balance": "0x70"
            },
            "0xa94f5374fce5edbc8e2a8697c15331677e6ebf0b": {
                "balance": "0x2540be400"
            }
        },
        "transaction": {
            "gasPrice": "0xa",
            "nonce": "0x0",
            "to": "0x095e7baea6a6c7c4c2dfeb977efac326af552d87",
            "data": [
                "0x"
            ],
            "gasLimit": [
                "0x1312d00",
                "0x13880"
            ],
            "value": [
                "0x00"
            ],
            "secretKey": "0x45a915e4d060149eb4365960e6a7a45f334393093061116b197e3240065ff2d8",
            "sender": "0xa94f5374fce5edbc8e2a8697c15331677e6ebf0b"
        },
        "post": {
            "ETC_Magneto": [
                {
                    "hash": "bd8e8b6c5f42a0a3e34f37a469b319b7b286cb91cea59f01396bd1376dc76265",
                    "logs": "1dcc4de8dec75d7aab85b567b6ccd41ad312451b948a7413f0a142fd40d49347",
                    "txbytes": "0xf861800a8401312d0094095e7baea6a6c7c4c2dfeb977efac326af552d8780801ba06ee270600d7a9f226bac0111a4723fbbc5fb4fba8c5ed2a828c574a9ccc731ffa03d591fcf35332a026bfc804a088c246881b2687e481f9b69c2113aa991cdfbcf",
                    "indexes": {
                        "data": 0,
                        "gas": 0,
                        "value": 0
                    }
                },
                {
                    "hash": "8b4591008568a47038f4b8e6ed8790d9a1e4abe1cb17ec09e2ecc31e40a51b43",
                    "logs": "1dcc4de8dec75d7aab85b567b6ccd41ad312451b948a7413f0a142fd40d49347",
                    "txbytes": "0xf860800a8301388094095e7baea6a6c7c4c2dfeb977efac326af552d8780801ba0cc8a47298734a72add21f7f3dc7bd93b3cf63e3f9018e98f3876ba47ebd7db70a0223f3ea1e2aa1061a9606aae0e94e48ee15e87ec587e5825eb228e55b85ae58c",
                    "indexes": {
                        "data": 0,
                        "gas": 1,
                        "value": 0
                    }
                }
            ],
            "ETC_Mystique": [
                {
                    "hash": "bd8e8b6c5f42a0a3e34f37a469b319b7b286cb91cea59f01396bd1376dc76265",
                    "logs": "1dcc4de8dec75d7aab85b567b6ccd41ad312451b948a7413f0a142fd40d49347",
                    "txbytes": "0xf861800a8401312d0094095e7baea6a6c7c4c2dfeb977efac326af552d8780801ba06ee270600d7a9f226bac0111a4723fbbc5fb4fba8c5ed2a828c574a9ccc731ffa03d591fcf35332a026bfc804a088c246881b2687e481f9b69c2113aa991cdfbcf",
                    "indexes": {
                        "data": 0,
                        "gas": 0,
                        "value": 0
                    }
                },
                {
                    "hash": "8b4591008568a47038f4b8e6ed8790d9a1e4abe1cb17ec09e2ecc31e40a51b43",
                    "logs": "1dcc4de8dec75d7aab85b567b6ccd41ad312451b948a7413f0a142fd40d49347",
                    "txbytes": "0xf860800a8301388094095e7baea6a6c7c4c2dfeb977efac326af552d8780801ba0cc8a47298734a72add21f7f3dc7bd93b3cf63e3f9018e98f3876ba47ebd7db70a0223f3ea1e2aa1061a9606aae0e94e48ee15e87ec587e5825eb228e55b85ae58c",
                    "indexes": {
                        "data": 0,
                        "gas": 1,
                        "value": 0
                    }
                }
            ],
            "ETC_Phoenix": [
                {
                    "hash": "66703fd5c57ec99772d58e3c98c8cbb879bce153298334bb6e116b77993e9f92",
                    "logs": "1dcc4de8dec75d7aab85b567b6ccd41ad312451b948a7413f0a142fd40d49347",
                    "txbytes": "0xf861800a8401312d0094095e7baea6a6c7c4c2dfeb977efac326af552d8780801ba06ee270600d7a9f226bac0111a4723fbbc5fb4fba8c5ed2a828c574a9ccc731ffa03d591fcf35332a026bfc804a088c246881b2687e481f9b69c2113aa991cdfbcf",
                    "indexes": {
                        "data": 0,
                        "gas": 0,
                        "value": 0
                    }
                },
                {
                    "hash": "8b4591008568a47038f4b8e6ed8790d9a1e4abe1cb17ec09e2ecc31e40a51b43",
                    "logs": "1dcc4de8dec75d7aab85b567b6ccd41ad312451b948a7413f0a142fd40d49347",
                    "txbytes": "0xf860800a8301388094095e7baea6a6c7c4c2dfeb977efac326af552d8780801ba0cc8a47298734a72add21f7f3dc7bd93b3cf63e3f9018e98f3876ba47ebd7db70a0223f3ea1e2aa1061a9606aae0e94e48ee15e87ec587e5825eb228e55b85ae58c",
                    "indexes": {
                        "data": 0,
                        "gas": 1,
                        "value": 0
                    }
                }
            ]
        }
    }
}