{
    "static_callcallcodecallcode_011_OOGMBefore": {
        "_info": {
            "comment": "",
            "filling-rpc-server": "evm version 1.10.16-unstable-0f893109-20220105",
            "filling-tool-version": "retesteth-0.2.2-testinfo+commit.01c6aac2.Linux.g++",
            "filledWith": "CoreGeth-1.12.9-unstable-4cf5b2b0837228e7d5eadba6a01ffb80e9288e21",
            "lllcversion": "Version: 0.5.14-develop.2021.11.27+commit.401d5358.Linux.g++",
            "source": "src/GeneralStateTestsFiller/stStaticCall/static_callcallcodecallcode_011_OOGMBeforeFiller.json",
            "sourceHash": "fe46c68eb5ade6792cdd0c406df65c7cd3dc1685080be2100d8ee349c12bbe1f"
        },
        "env": {
            "currentCoinbase": "0x2adc25665018aa1fe0e6bc666dac8fc2697ff9ba",
            "currentDifficulty": "0x20000",
            "currentGasLimit": "0x1c9c380",
            "currentNumber": "0x1",
            "currentTimestamp": "0x3e8",
            "previousHash": "0x5e20a0453cecd065ea59c37ac63e079ee08998b6045136a8ce6635c7912ec0b6"
        },
        "pre": {
            "0x1000000000000000000000000000000000000000": {
                "code": "0x6000356000526040600060406000731000000000000000000000000000000000000001620249f0fa600055600160015500",
                "balance": "0xde0b6b3a7640000",
                "nonce": "0x0"
            },
            "0x1000000000000000000000000000000000000001": {
                "code": "0x60016003526040600060406000600035619c90f450600160035200",
                "balance": "0x0",
                "nonce": "0x0"
            },
            "0x1000000000000000000000000000000000000002": {
                "code": "0x60016003556040600060406000731000000000000000000000000000000000000003614e34f450600160035200",
                "balance": "0x0",
                "nonce": "0x0"
            },
            "0x1000000000000000000000000000000000000003": {
                "code": "0x600160035200",
                "balance": "0x0",
                "nonce": "0x0"
            },
            "0x2000000000000000000000000000000000000002": {
                "code": "0x5b61c3506080511015601c5760013b506001608051016080526000565b6040600060406000731000000000000000000000000000000000000003614e34f450600160035200",
                "balance": "0x0",
                "nonce": "0x0"
            },
            "0xa94f5374fce5edbc8e2a8697c15331677e6ebf0b": {
                "code": "0x",
                "balance": "0xde0b6b3a7640000",
                "nonce": "0x0"
            }
        },
        "transaction": {
            "gasPrice": "0xa",
            "nonce": "0x0",
            "to": "0x1000000000000000000000000000000000000000",
            "data": [
                "0x0000000000000000000000001000000000000000000000000000000000000002",
                "0x0000000000000000000000002000000000000000000000000000000000000002"
            ],
            "gasLimit": [
                "0x29fe0"
            ],
            "value": [
                "0x00"
            ],
            "secretKey": "0x45a915e4d060149eb4365960e6a7a45f334393093061116b197e3240065ff2d8",
            "sender": "0xa94f5374fce5edbc8e2a8697c15331677e6ebf0b"
        },
        "post": {
            "ETC_Magneto": [
                {
                    "hash": "1f7184feeb637cf44ae881e562d995c57659679aa9ad398af3e394669a8b5ce2",
                    "logs": "1dcc4de8dec75d7aab85b567b6ccd41ad312451b948a7413f0a142fd40d49347",
                    "txbytes": "0xf880800a83029fe094100000000000000000000000000000000000000080a000000000000000000000000010000000000000000000000000000000000000021ba07030b0e0fb12abba541b31aaa9fa9f48d8916465fc459270b1b2a6463fd78a54a061849f602af25d6d1e45fde31a174040aeeabd4abb09b80bb922a5a2348bcd26",
                    "indexes": {
                        "data": 0,
                        "gas": 0,
                        "value": 0
                    }
                },
                {
                    "hash": "1f7184feeb637cf44ae881e562d995c57659679aa9ad398af3e394669a8b5ce2",
                    "logs": "1dcc4de8dec75d7aab85b567b6ccd41ad312451b948a7413f0a142fd40d49347",
                    "txbytes": "0xf880800a83029fe094100000000000000000000000000000000000000080a000000000000000000000000020000000000000000000000000000000000000021ba0351d0163a3385c0578103bdc19adb1351a8a626a7cedd4ba39d3340e7fce0411a02406896d81fbf345e9c35c0d78742244eaf647b79e866078c8123df762208984",
                    "indexes": {
                        "data": 1,
                        "gas": 0,
                        "value": 0
                    }
                }
            ],
            "ETC_Mystique": [
                {
                    "hash": "1f7184feeb637cf44ae881e562d995c57659679aa9ad398af3e394669a8b5ce2",
                    "logs": "1dcc4de8dec75d7aab85b567b6ccd41ad312451b948a7413f0a142fd40d49347",
                    "txbytes": "0xf880800a83029fe094100000000000000000000000000000000000000080a000000000000000000000000010000000000000000000000000000000000000021ba07030b0e0fb12abba541b31aaa9fa9f48d8916465fc459270b1b2a6463fd78a54a061849f602af25d6d1e45fde31a174040aeeabd4abb09b80bb922a5a2348bcd26",
                    "indexes": {
                        "data": 0,
                        "gas": 0,
                        "value": 0
                    }
                },
                {
                    "hash": "1f7184feeb637cf44ae881e562d995c57659679aa9ad398af3e394669a8b5ce2",
                    "logs": "1dcc4de8dec75d7aab85b567b6ccd41ad312451b948a7413f0a142fd40d49347",
                    "txbytes": "0xf880800a83029fe094100000000000000000000000000000000000000080a000000000000000000000000020000000000000000000000000000000000000021ba0351d0163a3385c0578103bdc19adb1351a8a626a7cedd4ba39d3340e7fce0411a02406896d81fbf345e9c35c0d78742244eaf647b79e866078c8123df762208984",
                    "indexes": {
                        "data": 1,
                        "gas": 0,
                        "value": 0
                    }
                }
            ],
            "ETC_Phoenix": [
                {
                    "hash": "8dd41c2d78e81af23ae511eadf664a67e3374b4a45df998844d451afb2d896f5",
                    "logs": "1dcc4de8dec75d7aab85b567b6ccd41ad312451b948a7413f0a142fd40d49347",
                    "txbytes": "0xf880800a83029fe094100000000000000000000000000000000000000080a000000000000000000000000010000000000000000000000000000000000000021ba07030b0e0fb12abba541b31aaa9fa9f48d8916465fc459270b1b2a6463fd78a54a061849f602af25d6d1e45fde31a174040aeeabd4abb09b80bb922a5a2348bcd26",
                    "indexes": {
                        "data": 0,
                        "gas": 0,
                        "value": 0
                    }
                },
                {
                    "hash": "8dd41c2d78e81af23ae511eadf664a67e3374b4a45df998844d451afb2d896f5",
                    "logs": "1dcc4de8dec75d7aab85b567b6ccd41ad312451b948a7413f0a142fd40d49347",
                    "txbytes": "0xf880800a83029fe094100000000000000000000000000000000000000080a000000000000000000000000020000000000000000000000000000000000000021ba0351d0163a3385c0578103bdc19adb1351a8a626a7cedd4ba39d3340e7fce0411a02406896d81fbf345e9c35c0d78742244eaf647b79e866078c8123df762208984",
                    "indexes": {
                        "data": 1,
                        "gas": 0,
                        "value": 0
                    }
                }
            ]
        }
    }
}