{
    "static_callcallcodecallcode_011_OOGMAfter2": {
        "_info": {
            "comment": "",
            "filling-rpc-server": "evm version 1.10.16-unstable-0f893109-20220105",
            "filling-tool-version": "retesteth-0.2.2-testinfo+commit.01c6aac2.Linux.g++",
            "filledWith": "CoreGeth-1.12.9-unstable-f4059ddd82d975bdc54fa648e5422a80172161cb",
            "lllcversion": "Version: 0.5.14-develop.2021.11.27+commit.401d5358.Linux.g++",
            "source": "src/GeneralStateTestsFiller/stStaticCall/static_callcallcodecallcode_011_OOGMAfter2Filler.json",
            "sourceHash": "41d98c1dfacb3bf708e623b03d29fa6d98e490c583546cde47a1f0dddebd7a00"
        },
        "env": {
            "currentCoinbase": "2adc25665018aa1fe0e6bc666dac8fc2697ff9ba",
            "currentDifficulty": "0x20000",
            "currentRandom": null,
            "currentGasLimit": "0x1c9c380",
            "currentNumber": "0x1",
            "currentTimestamp": "0x3e8",
            "currentBaseFee": "0xa"
        },
        "pre": {
            "0x1000000000000000000000000000000000000000": {
                "code": "0x604060006040600060003561eaf6fa600055600160015500",
                "balance": "0xde0b6b3a7640000"
            },
            "0x1000000000000000000000000000000000000001": {
                "code": "0x60406000604060006000731000000000000000000000000000000000000002619c90f250600160035500",
                "balance": "0x0"
            },
            "0x1000000000000000000000000000000000000002": {
                "code": "0x60406000604060006000731000000000000000000000000000000000000003614e34f200",
                "balance": "0x0"
            },
            "0x1000000000000000000000000000000000000003": {
                "code": "0x600160035200",
                "balance": "0x0"
            },
            "0x2000000000000000000000000000000000000001": {
                "code": "0x60406000604060006000731000000000000000000000000000000000000002619c90f2505b61c350608051101560405760013b506001608051016080526024565b00",
                "balance": "0x0"
            },
            "0xa94f5374fce5edbc8e2a8697c15331677e6ebf0b": {
                "balance": "0xde0b6b3a7640000"
            }
        },
        "transaction": {
            "gasPrice": "0xa",
            "maxFeePerGas": null,
            "maxPriorityFeePerGas": null,
            "nonce": "0x0",
            "to": "0x1000000000000000000000000000000000000000",
            "data": [
                "0x0000000000000000000000001000000000000000000000000000000000000001",
                "0x0000000000000000000000002000000000000000000000000000000000000001"
            ],
            "gasLimit": [
                "0x29fe0"
            ],
            "value": [
                "0x00"
            ],
            "secretKey": "0x45a915e4d060149eb4365960e6a7a45f334393093061116b197e3240065ff2d8"
        },
        "out": "0x",
        "post": {
            "ETC_Magneto": [
                {
                    "hash": "777024baa7d690577dd03ae27c62c8c636adfd105c70d4140bbb1d1f6dbd2df6",
                    "logs": "1dcc4de8dec75d7aab85b567b6ccd41ad312451b948a7413f0a142fd40d49347",
                    "txbytes": "0xf880800a83029fe094100000000000000000000000000000000000000080a000000000000000000000000010000000000000000000000000000000000000011ca0c88da1b937b6eb3767ce86fdc72d23558b6fba88a686f11c23e6e8e6df4134cda059cdd1e308428fa2d34b032dd15fdd0cde8799c70fa0cc94dfb5da55b04dcd51",
                    "indexes": {
                        "data": 0,
                        "gas": 0,
                        "value": 0
                    }
                },
                {
                    "hash": "777024baa7d690577dd03ae27c62c8c636adfd105c70d4140bbb1d1f6dbd2df6",
                    "logs": "1dcc4de8dec75d7aab85b567b6ccd41ad312451b948a7413f0a142fd40d49347",
                    "txbytes": "0xf880800a83029fe094100000000000000000000000000000000000000080a000000000000000000000000020000000000000000000000000000000000000011ba0c5f80126a3e1fa1970c82d6f1986ccf66cffd2c2d7a8c8b37efce6a5322c231aa03674ddec65787a737068b16d80ff408dd181b2005b4220db2439bb0fcf7ae5c5",
                    "indexes": {
                        "data": 1,
                        "gas": 0,
                        "value": 0
                    }
                }
            ],
            "ETC_Mystique": [
                {
                    "hash": "777024baa7d690577dd03ae27c62c8c636adfd105c70d4140bbb1d1f6dbd2df6",
                    "logs": "1dcc4de8dec75d7aab85b567b6ccd41ad312451b948a7413f0a142fd40d49347",
                    "txbytes": "0xf880800a83029fe094100000000000000000000000000000000000000080a000000000000000000000000010000000000000000000000000000000000000011ca0c88da1b937b6eb3767ce86fdc72d23558b6fba88a686f11c23e6e8e6df4134cda059cdd1e308428fa2d34b032dd15fdd0cde8799c70fa0cc94dfb5da55b04dcd51",
                    "indexes": {
                        "data": 0,
                        "gas": 0,
                        "value": 0
                    }
                },
                {
                    "hash": "777024baa7d690577dd03ae27c62c8c636adfd105c70d4140bbb1d1f6dbd2df6",
                    "logs": "1dcc4de8dec75d7aab85b567b6ccd41ad312451b948a7413f0a142fd40d49347",
                    "txbytes": "0xf880800a83029fe094100000000000000000000000000000000000000080a000000000000000000000000020000000000000000000000000000000000000011ba0c5f80126a3e1fa1970c82d6f1986ccf66cffd2c2d7a8c8b37efce6a5322c231aa03674ddec65787a737068b16d80ff408dd181b2005b4220db2439bb0fcf7ae5c5",
                    "indexes": {
                        "data": 1,
                        "gas": 0,
                        "value": 0
                    }
                }
            ],
            "ETC_Phoenix": [
                {
                    "hash": "d7dfe6ccfa12ec6f38861a05b5e083d606abe652a261f6d79d375c55722596c3",
                    "logs": "1dcc4de8dec75d7aab85b567b6ccd41ad312451b948a7413f0a142fd40d49347",
                    "txbytes": "0xf880800a83029fe094100000000000000000000000000000000000000080a000000000000000000000000010000000000000000000000000000000000000011ca0c88da1b937b6eb3767ce86fdc72d23558b6fba88a686f11c23e6e8e6df4134cda059cdd1e308428fa2d34b032dd15fdd0cde8799c70fa0cc94dfb5da55b04dcd51",
                    "indexes": {
                        "data": 0,
                        "gas": 0,
                        "value": 0
                    }
                },
                {
                    "hash": "d7dfe6ccfa12ec6f38861a05b5e083d606abe652a261f6d79d375c55722596c3",
                    "logs": "1dcc4de8dec75d7aab85b567b6ccd41ad312451b948a7413f0a142fd40d49347",
                    "txbytes": "0xf880800a83029fe094100000000000000000000000000000000000000080a000000000000000000000000020000000000000000000000000000000000000011ba0c5f80126a3e1fa1970c82d6f1986ccf66cffd2c2d7a8c8b37efce6a5322c231aa03674ddec65787a737068b16d80ff408dd181b2005b4220db2439bb0fcf7ae5c5",
                    "indexes": {
                        "data": 1,
                        "gas": 0,
                        "value": 0
                    }
                }
            ]
        }
    }
}