{
    "static_Call50000_ecrec": {
        "_info": {
            "comment": "",
            "filling-rpc-server": "evm version 1.10.16-unstable-0f893109-20220105",
            "filling-tool-version": "retesteth-0.2.2-testinfo+commit.01c6aac2.Linux.g++",
            "filledWith": "CoreGeth-1.12.9-unstable-3995a327f2ded5c98324b03792b5ccc22557754f",
            "lllcversion": "Version: 0.5.14-develop.2021.11.27+commit.401d5358.Linux.g++",
            "source": "src/GeneralStateTestsFiller/stStaticCall/static_Call50000_ecrecFiller.json",
            "sourceHash": "3a740e2f9bbeca513d93399fbc73b8cc70a30a0bf3abeada5fa5ddc2306478c4"
        },
        "env": {
            "currentCoinbase": "0xb94f5374fce5edbc8e2a8697c15331677e6ebf0b",
            "currentDifficulty": "0x20000",
            "currentGasLimit": "0x5a995c0",
            "currentNumber": "0x1",
            "currentTimestamp": "0x3e8",
            "currentBaseFee": "0xa",
            "previousHash": "0x5e20a0453cecd065ea59c37ac63e079ee08998b6045136a8ce6635c7912ec0b6"
        },
        "pre": {
            "0x1000000000000000000000000000000000000000": {
                "code": "0x6000600060006000346000355af1600055600160015500",
                "balance": "0x0"
            },
            "0xa94f5374fce5edbc8e2a8697c15331677e6ebf0b": {
                "balance": "0xffffffffffffffffffffffffffffffff"
            },
            "0xbbbf5374fce5edbc8e2a8697c15331677e6ebf0b": {
                "code": "0x5b61c3506080511015602a576000600061c350600060016101f4fa6000556001608051016080526000565b60805160015500",
                "balance": "0xffffffffffffffffffffffffffffffff"
            },
            "0xcccf5374fce5edbc8e2a8697c15331677e6ebf0b": {
                "code": "0x5b61c3506080511015602a576000600061c350600060016101f4fa6000526001608051016080526000565b60805160205200",
                "balance": "0xffffffffffffffffffffffffffffffff"
            }
        },
        "transaction": {
            "gasPrice": "0xa",
            "nonce": "0x0",
            "to": "0x1000000000000000000000000000000000000000",
            "data": [
                "0x000000000000000000000000bbbf5374fce5edbc8e2a8697c15331677e6ebf0b",
                "0x000000000000000000000000cccf5374fce5edbc8e2a8697c15331677e6ebf0b"
            ],
            "gasLimit": [
                "0x5a1f4a0"
            ],
            "value": [
                "0x0a"
            ],
            "secretKey": "0x45a915e4d060149eb4365960e6a7a45f334393093061116b197e3240065ff2d8",
            "sender": "0xa94f5374fce5edbc8e2a8697c15331677e6ebf0b"
        },
        "post": {
            "ETC_Magneto": [
                {
                    "hash": "2ddaa238ed651706337ea0a2b59165fbdf28ff598071b3e59cacc9b740a435ee",
                    "logs": "1dcc4de8dec75d7aab85b567b6ccd41ad312451b948a7413f0a142fd40d49347",
                    "txbytes": "0xf881800a8405a1f4a09410000000000000000000000000000000000000000aa0000000000000000000000000bbbf5374fce5edbc8e2a8697c15331677e6ebf0b1ca04b3b2cd05e7850ad89240fdeac3ecc8cc9bd9a28d0bbc3eb7ff7ba722243192ca0515eeda61c2f83e0af650418566b0cb006cc5a8e35ee7c60c2de1c6b8994bdb9",
                    "indexes": {
                        "data": 0,
                        "gas": 0,
                        "value": 0
                    }
                },
                {
                    "hash": "52d52d3a0b8efce19eada9c751054cff5a0bcb5048d33071adc7336b4a5b7edc",
                    "logs": "1dcc4de8dec75d7aab85b567b6ccd41ad312451b948a7413f0a142fd40d49347",
                    "txbytes": "0xf881800a8405a1f4a09410000000000000000000000000000000000000000aa0000000000000000000000000cccf5374fce5edbc8e2a8697c15331677e6ebf0b1ca05059661398e22006d2534b9f87f188bd599867cf6d9f26d8d89c917d01bf1d93a02609c18f5c53c6e6dabc725702320ec93695aec7680355ab3f4e3c3e10cf9ea8",
                    "indexes": {
                        "data": 1,
                        "gas": 0,
                        "value": 0
                    }
                }
            ],
            "ETC_Mystique": [
                {
                    "hash": "2ddaa238ed651706337ea0a2b59165fbdf28ff598071b3e59cacc9b740a435ee",
                    "logs": "1dcc4de8dec75d7aab85b567b6ccd41ad312451b948a7413f0a142fd40d49347",
                    "txbytes": "0xf881800a8405a1f4a09410000000000000000000000000000000000000000aa0000000000000000000000000bbbf5374fce5edbc8e2a8697c15331677e6ebf0b1ca04b3b2cd05e7850ad89240fdeac3ecc8cc9bd9a28d0bbc3eb7ff7ba722243192ca0515eeda61c2f83e0af650418566b0cb006cc5a8e35ee7c60c2de1c6b8994bdb9",
                    "indexes": {
                        "data": 0,
                        "gas": 0,
                        "value": 0
                    }
                },
                {
                    "hash": "52d52d3a0b8efce19eada9c751054cff5a0bcb5048d33071adc7336b4a5b7edc",
                    "logs": "1dcc4de8dec75d7aab85b567b6ccd41ad312451b948a7413f0a142fd40d49347",
                    "txbytes": "0xf881800a8405a1f4a09410000000000000000000000000000000000000000aa0000000000000000000000000cccf5374fce5edbc8e2a8697c15331677e6ebf0b1ca05059661398e22006d2534b9f87f188bd599867cf6d9f26d8d89c917d01bf1d93a02609c18f5c53c6e6dabc725702320ec93695aec7680355ab3f4e3c3e10cf9ea8",
                    "indexes": {
                        "data": 1,
                        "gas": 0,
                        "value": 0
                    }
                }
            ],
            "ETC_Phoenix": [
                {
                    "hash": "cdd31321fa4a8915cf5deb64e50a8fe87a72c2c5f0b116c89eaaeaec2381ad41",
                    "logs": "1dcc4de8dec75d7aab85b567b6ccd41ad312451b948a7413f0a142fd40d49347",
                    "txbytes": "0xf881800a8405a1f4a09410000000000000000000000000000000000000000aa0000000000000000000000000bbbf5374fce5edbc8e2a8697c15331677e6ebf0b1ca04b3b2cd05e7850ad89240fdeac3ecc8cc9bd9a28d0bbc3eb7ff7ba722243192ca0515eeda61c2f83e0af650418566b0cb006cc5a8e35ee7c60c2de1c6b8994bdb9",
                    "indexes": {
                        "data": 0,
                        "gas": 0,
                        "value": 0
                    }
                },
                {
                    "hash": "c120bea41ff28ca2aeab69b1c935b8605815b23e42040599238b681a35fdb7bf",
                    "logs": "1dcc4de8dec75d7aab85b567b6ccd41ad312451b948a7413f0a142fd40d49347",
                    "txbytes": "0xf881800a8405a1f4a09410000000000000000000000000000000000000000aa0000000000000000000000000cccf5374fce5edbc8e2a8697c15331677e6ebf0b1ca05059661398e22006d2534b9f87f188bd599867cf6d9f26d8d89c917d01bf1d93a02609c18f5c53c6e6dabc725702320ec93695aec7680355ab3f4e3c3e10cf9ea8",
                    "indexes": {
                        "data": 1,
                        "gas": 0,
                        "value": 0
                    }
                }
            ]
        }
    }
}