{
    "static_CheckOpcodes": {
        "_info": {
            "comment": "",
            "filling-rpc-server": "evm version 1.10.16-unstable-0f893109-20220105",
            "filling-tool-version": "retesteth-0.2.2-testinfo+commit.01c6aac2.Linux.g++",
            "filledWith": "CoreGeth-1.12.9-unstable-3995a327f2ded5c98324b03792b5ccc22557754f",
            "lllcversion": "Version: 0.5.14-develop.2021.11.27+commit.401d5358.Linux.g++",
            "source": "src/GeneralStateTestsFiller/stStaticCall/static_CheckOpcodesFiller.json",
            "sourceHash": "bf84162bbdef34b70ae0378b51077b5cd9c93c7a73958ab6a0fa30459329d677"
        },
        "env": {
            "currentCoinbase": "0x2adc25665018aa1fe0e6bc666dac8fc2697ff9ba",
            "currentDifficulty": "0x20000",
            "currentGasLimit": "0x989680",
            "currentNumber": "0x1",
            "currentTimestamp": "0x3e8",
            "currentBaseFee": "0xa",
            "previousHash": "0x5e20a0453cecd065ea59c37ac63e079ee08998b6045136a8ce6635c7912ec0b6"
        },
        "pre": {
            "0x1000000000000000000000000000000000000000": {
                "code": "0x6000600060006000600035620186a0fa60015500",
                "balance": "0x0"
            },
            "0x1000000000000000000000000000000000000001": {
                "code": "0x3273a94f5374fce5edbc8e2a8697c15331677e6ebf0b1460225760026001556028565b60016001525b3373100000000000000000000000000000000000000014604b5760026001556051565b60016001525b30731000000000000000000000000000000000000001146074576002600155607a565b60016001525b34600014608a5760026001556090565b60016001525b00",
                "balance": "0x0"
            },
            "0x1000000000000000000000000000000000000002": {
                "code": "0x6000600060006000731000000000000000000000000000000000000003620186a0fa00",
                "balance": "0x0"
            },
            "0x1000000000000000000000000000000000000003": {
                "code": "0x3273a94f5374fce5edbc8e2a8697c15331677e6ebf0b1460225760026001556028565b60016001525b3373100000000000000000000000000000000000000214604b5760026001556051565b60016001525b30731000000000000000000000000000000000000001146074576002600155607a565b60016001525b34600014608a5760026001556090565b60016001525b00",
                "balance": "0x0"
            },
            "0xa94f5374fce5edbc8e2a8697c15331677e6ebf0b": {
                "balance": "0xe8d4a51000"
            }
        },
        "transaction": {
            "gasPrice": "0xa",
            "nonce": "0x0",
            "to": "0x1000000000000000000000000000000000000000",
            "data": [
                "0x0000000000000000000000001000000000000000000000000000000000000001",
                "0x0000000000000000000000001000000000000000000000000000000000000002"
            ],
            "gasLimit": [
                "0xc350",
                "0x51c98"
            ],
            "value": [
                "0x00",
                "0x64"
            ],
            "secretKey": "0x45a915e4d060149eb4365960e6a7a45f334393093061116b197e3240065ff2d8",
            "sender": "0xa94f5374fce5edbc8e2a8697c15331677e6ebf0b"
        },
        "post": {
            "ETC_Magneto": [
                {
                    "hash": "bb566372f3dd813249392534666054f219d3e863ecb0b7734cd92176177d1a49",
                    "logs": "1dcc4de8dec75d7aab85b567b6ccd41ad312451b948a7413f0a142fd40d49347",
                    "txbytes": "0xf880800a83051c9894100000000000000000000000000000000000000080a000000000000000000000000010000000000000000000000000000000000000011ca04a3f429fcd0277a0f1ef5c4931ec78c08c652bed01d2f35852f8ee017308131fa042345097a1d3131559e4f4c2f533826f44b03ae8328ea46790867a3e1bc72c55",
                    "indexes": {
                        "data": 0,
                        "gas": 1,
                        "value": 0
                    }
                },
                {
                    "hash": "8ee1cb864b9d758c98344fb3cd49fbdbd02a2b4aee2e8d7186f507efdf780050",
                    "logs": "1dcc4de8dec75d7aab85b567b6ccd41ad312451b948a7413f0a142fd40d49347",
                    "txbytes": "0xf880800a83051c9894100000000000000000000000000000000000000064a000000000000000000000000010000000000000000000000000000000000000011ba0861bbbf3944ba5d6363326fa71e9f2a9a18642011d2826a5b62e0aeb2073ac1ba00cf5ad0ec7bbf0779203bfd2703d254432fac642f2aedab16958a3f46b2a781a",
                    "indexes": {
                        "data": 0,
                        "gas": 1,
                        "value": 1
                    }
                },
                {
                    "hash": "c7eb21f1da7f904ad6e8239df0251344e7a3d2f8df08bde7594401309cc0b6b9",
                    "logs": "1dcc4de8dec75d7aab85b567b6ccd41ad312451b948a7413f0a142fd40d49347",
                    "txbytes": "0xf880800a83051c9894100000000000000000000000000000000000000080a000000000000000000000000010000000000000000000000000000000000000021ba003cf385e874411ecc9eca12bd98ed12b2880ef6a166585a4bbe1e9fa7aacd456a072d7f7edd68d6f10bb9867908146f48096d8e45a6a228ebfc1c75b059c7986e2",
                    "indexes": {
                        "data": 1,
                        "gas": 1,
                        "value": 0
                    }
                },
                {
                    "hash": "ff359221714b05b37f053b56d01348b4c5fad1c726f6afe13613d051fa65681a",
                    "logs": "1dcc4de8dec75d7aab85b567b6ccd41ad312451b948a7413f0a142fd40d49347",
                    "txbytes": "0xf880800a83051c9894100000000000000000000000000000000000000064a000000000000000000000000010000000000000000000000000000000000000021ba0d3b916c650aca05ee04d8256ac2333df1ec65803b13c10e34828c2dbae0fad81a05b8311bb266141158d67ccb3bfa3ec58ac070ed7a0aa3535315c05c05a2937c7",
                    "indexes": {
                        "data": 1,
                        "gas": 1,
                        "value": 1
                    }
                },
                {
                    "hash": "416875243717992df65bd806b661d9175375f8cf7ee98d19e702857dbca76639",
                    "logs": "1dcc4de8dec75d7aab85b567b6ccd41ad312451b948a7413f0a142fd40d49347",
                    "txbytes": "0xf87f800a82c35094100000000000000000000000000000000000000080a000000000000000000000000010000000000000000000000000000000000000021ba029b9707ddee77f22facbe0e0733bd76f8be2e0c761d828a3e45aabd523e7ec6ea003fde03c70e9c11362ec18f312feae309fe50b5ae3a5cf4c251e8e5b199f82ff",
                    "indexes": {
                        "data": 1,
                        "gas": 0,
                        "value": 0
                    }
                },
                {
                    "hash": "416875243717992df65bd806b661d9175375f8cf7ee98d19e702857dbca76639",
                    "logs": "1dcc4de8dec75d7aab85b567b6ccd41ad312451b948a7413f0a142fd40d49347",
                    "txbytes": "0xf87f800a82c35094100000000000000000000000000000000000000064a000000000000000000000000010000000000000000000000000000000000000021ca05501905322b0d63b298d59b5a479394131c250fbad904788fb92fdff0343ab8ba033ba66e98d976cd7891d51f5d637675490fc5aba108ece72abc07e190a0f2b4d",
                    "indexes": {
                        "data": 1,
                        "gas": 0,
                        "value": 1
                    }
                },
                {
                    "hash": "bb566372f3dd813249392534666054f219d3e863ecb0b7734cd92176177d1a49",
                    "logs": "1dcc4de8dec75d7aab85b567b6ccd41ad312451b948a7413f0a142fd40d49347",
                    "txbytes": "0xf87f800a82c35094100000000000000000000000000000000000000080a000000000000000000000000010000000000000000000000000000000000000011ba0d42bef4c32caef9b727985db7d8cdbc55d8a8bb1b4e64deff468ac4975705489a02ed8dab9798c0ac91c98bf96ac5f706f2cb94e8b220fdc9a5d441f1f43cd8a14",
                    "indexes": {
                        "data": 0,
                        "gas": 0,
                        "value": 0
                    }
                },
                {
                    "hash": "8ee1cb864b9d758c98344fb3cd49fbdbd02a2b4aee2e8d7186f507efdf780050",
                    "logs": "1dcc4de8dec75d7aab85b567b6ccd41ad312451b948a7413f0a142fd40d49347",
                    "txbytes": "0xf87f800a82c35094100000000000000000000000000000000000000064a000000000000000000000000010000000000000000000000000000000000000011ba071539f6eb160bc0e5ef75b404af9f9888c64df00aa7f45afb872b920363c90d9a038554c977067a351b568fd794dbd1b5046a431c98e58b8410c0e531e53cfbdb8",
                    "indexes": {
                        "data": 0,
                        "gas": 0,
                        "value": 1
                    }
                }
            ],
            "ETC_Mystique": [
                {
                    "hash": "bb566372f3dd813249392534666054f219d3e863ecb0b7734cd92176177d1a49",
                    "logs": "1dcc4de8dec75d7aab85b567b6ccd41ad312451b948a7413f0a142fd40d49347",
                    "txbytes": "0xf880800a83051c9894100000000000000000000000000000000000000080a000000000000000000000000010000000000000000000000000000000000000011ca04a3f429fcd0277a0f1ef5c4931ec78c08c652bed01d2f35852f8ee017308131fa042345097a1d3131559e4f4c2f533826f44b03ae8328ea46790867a3e1bc72c55",
                    "indexes": {
                        "data": 0,
                        "gas": 1,
                        "value": 0
                    }
                },
                {
                    "hash": "8ee1cb864b9d758c98344fb3cd49fbdbd02a2b4aee2e8d7186f507efdf780050",
                    "logs": "1dcc4de8dec75d7aab85b567b6ccd41ad312451b948a7413f0a142fd40d49347",
                    "txbytes": "0xf880800a83051c9894100000000000000000000000000000000000000064a000000000000000000000000010000000000000000000000000000000000000011ba0861bbbf3944ba5d6363326fa71e9f2a9a18642011d2826a5b62e0aeb2073ac1ba00cf5ad0ec7bbf0779203bfd2703d254432fac642f2aedab16958a3f46b2a781a",
                    "indexes": {
                        "data": 0,
                        "gas": 1,
                        "value": 1
                    }
                },
                {
                    "hash": "c7eb21f1da7f904ad6e8239df0251344e7a3d2f8df08bde7594401309cc0b6b9",
                    "logs": "1dcc4de8dec75d7aab85b567b6ccd41ad312451b948a7413f0a142fd40d49347",
                    "txbytes": "0xf880800a83051c9894100000000000000000000000000000000000000080a000000000000000000000000010000000000000000000000000000000000000021ba003cf385e874411ecc9eca12bd98ed12b2880ef6a166585a4bbe1e9fa7aacd456a072d7f7edd68d6f10bb9867908146f48096d8e45a6a228ebfc1c75b059c7986e2",
                    "indexes": {
                        "data": 1,
                        "gas": 1,
                        "value": 0
                    }
                },
                {
                    "hash": "ff359221714b05b37f053b56d01348b4c5fad1c726f6afe13613d051fa65681a",
                    "logs": "1dcc4de8dec75d7aab85b567b6ccd41ad312451b948a7413f0a142fd40d49347",
                    "txbytes": "0xf880800a83051c9894100000000000000000000000000000000000000064a000000000000000000000000010000000000000000000000000000000000000021ba0d3b916c650aca05ee04d8256ac2333df1ec65803b13c10e34828c2dbae0fad81a05b8311bb266141158d67ccb3bfa3ec58ac070ed7a0aa3535315c05c05a2937c7",
                    "indexes": {
                        "data": 1,
                        "gas": 1,
                        "value": 1
                    }
                },
                {
                    "hash": "416875243717992df65bd806b661d9175375f8cf7ee98d19e702857dbca76639",
                    "logs": "1dcc4de8dec75d7aab85b567b6ccd41ad312451b948a7413f0a142fd40d49347",
                    "txbytes": "0xf87f800a82c35094100000000000000000000000000000000000000080a000000000000000000000000010000000000000000000000000000000000000021ba029b9707ddee77f22facbe0e0733bd76f8be2e0c761d828a3e45aabd523e7ec6ea003fde03c70e9c11362ec18f312feae309fe50b5ae3a5cf4c251e8e5b199f82ff",
                    "indexes": {
                        "data": 1,
                        "gas": 0,
                        "value": 0
                    }
                },
                {
                    "hash": "416875243717992df65bd806b661d9175375f8cf7ee98d19e702857dbca76639",
                    "logs": "1dcc4de8dec75d7aab85b567b6ccd41ad312451b948a7413f0a142fd40d49347",
                    "txbytes": "0xf87f800a82c35094100000000000000000000000000000000000000064a000000000000000000000000010000000000000000000000000000000000000021ca05501905322b0d63b298d59b5a479394131c250fbad904788fb92fdff0343ab8ba033ba66e98d976cd7891d51f5d637675490fc5aba108ece72abc07e190a0f2b4d",
                    "indexes": {
                        "data": 1,
                        "gas": 0,
                        "value": 1
                    }
                },
                {
                    "hash": "bb566372f3dd813249392534666054f219d3e863ecb0b7734cd92176177d1a49",
                    "logs": "1dcc4de8dec75d7aab85b567b6ccd41ad312451b948a7413f0a142fd40d49347",
                    "txbytes": "0xf87f800a82c35094100000000000000000000000000000000000000080a000000000000000000000000010000000000000000000000000000000000000011ba0d42bef4c32caef9b727985db7d8cdbc55d8a8bb1b4e64deff468ac4975705489a02ed8dab9798c0ac91c98bf96ac5f706f2cb94e8b220fdc9a5d441f1f43cd8a14",
                    "indexes": {
                        "data": 0,
                        "gas": 0,
                        "value": 0
                    }
                },
                {
                    "hash": "8ee1cb864b9d758c98344fb3cd49fbdbd02a2b4aee2e8d7186f507efdf780050",
                    "logs": "1dcc4de8dec75d7aab85b567b6ccd41ad312451b948a7413f0a142fd40d49347",
                    "txbytes": "0xf87f800a82c35094100000000000000000000000000000000000000064a000000000000000000000000010000000000000000000000000000000000000011ba071539f6eb160bc0e5ef75b404af9f9888c64df00aa7f45afb872b920363c90d9a038554c977067a351b568fd794dbd1b5046a431c98e58b8410c0e531e53cfbdb8",
                    "indexes": {
                        "data": 0,
                        "gas": 0,
                        "value": 1
                    }
                }
            ],
            "ETC_Phoenix": [
                {
                    "hash": "038de92eda2aed6fdfe9fe46b618312a659d9002d417a7d815891ff212a08fcf",
                    "logs": "1dcc4de8dec75d7aab85b567b6ccd41ad312451b948a7413f0a142fd40d49347",
                    "txbytes": "0xf880800a83051c9894100000000000000000000000000000000000000080a000000000000000000000000010000000000000000000000000000000000000011ca04a3f429fcd0277a0f1ef5c4931ec78c08c652bed01d2f35852f8ee017308131fa042345097a1d3131559e4f4c2f533826f44b03ae8328ea46790867a3e1bc72c55",
                    "indexes": {
                        "data": 0,
                        "gas": 1,
                        "value": 0
                    }
                },
                {
                    "hash": "01442a2808308e38c199fa8adabf6d438ad8fbe56515f366de63f508bb66d731",
                    "logs": "1dcc4de8dec75d7aab85b567b6ccd41ad312451b948a7413f0a142fd40d49347",
                    "txbytes": "0xf880800a83051c9894100000000000000000000000000000000000000064a000000000000000000000000010000000000000000000000000000000000000011ba0861bbbf3944ba5d6363326fa71e9f2a9a18642011d2826a5b62e0aeb2073ac1ba00cf5ad0ec7bbf0779203bfd2703d254432fac642f2aedab16958a3f46b2a781a",
                    "indexes": {
                        "data": 0,
                        "gas": 1,
                        "value": 1
                    }
                },
                {
                    "hash": "ff4ed3e0fed0d5291b7ce9f7e54a0a91b14ddd09d9221e9046a4aa70725a1403",
                    "logs": "1dcc4de8dec75d7aab85b567b6ccd41ad312451b948a7413f0a142fd40d49347",
                    "txbytes": "0xf880800a83051c9894100000000000000000000000000000000000000080a000000000000000000000000010000000000000000000000000000000000000021ba003cf385e874411ecc9eca12bd98ed12b2880ef6a166585a4bbe1e9fa7aacd456a072d7f7edd68d6f10bb9867908146f48096d8e45a6a228ebfc1c75b059c7986e2",
                    "indexes": {
                        "data": 1,
                        "gas": 1,
                        "value": 0
                    }
                },
                {
                    "hash": "2e6e8c8ed0e0ab3f9b94cbf8271b0e0f6a27876fdfe64ed2fc511289a43c9961",
                    "logs": "1dcc4de8dec75d7aab85b567b6ccd41ad312451b948a7413f0a142fd40d49347",
                    "txbytes": "0xf880800a83051c9894100000000000000000000000000000000000000064a000000000000000000000000010000000000000000000000000000000000000021ba0d3b916c650aca05ee04d8256ac2333df1ec65803b13c10e34828c2dbae0fad81a05b8311bb266141158d67ccb3bfa3ec58ac070ed7a0aa3535315c05c05a2937c7",
                    "indexes": {
                        "data": 1,
                        "gas": 1,
                        "value": 1
                    }
                },
                {
                    "hash": "416875243717992df65bd806b661d9175375f8cf7ee98d19e702857dbca76639",
                    "logs": "1dcc4de8dec75d7aab85b567b6ccd41ad312451b948a7413f0a142fd40d49347",
                    "txbytes": "0xf87f800a82c35094100000000000000000000000000000000000000080a000000000000000000000000010000000000000000000000000000000000000021ba029b9707ddee77f22facbe0e0733bd76f8be2e0c761d828a3e45aabd523e7ec6ea003fde03c70e9c11362ec18f312feae309fe50b5ae3a5cf4c251e8e5b199f82ff",
                    "indexes": {
                        "data": 1,
                        "gas": 0,
                        "value": 0
                    }
                },
                {
                    "hash": "416875243717992df65bd806b661d9175375f8cf7ee98d19e702857dbca76639",
                    "logs": "1dcc4de8dec75d7aab85b567b6ccd41ad312451b948a7413f0a142fd40d49347",
                    "txbytes": "0xf87f800a82c35094100000000000000000000000000000000000000064a000000000000000000000000010000000000000000000000000000000000000021ca05501905322b0d63b298d59b5a479394131c250fbad904788fb92fdff0343ab8ba033ba66e98d976cd7891d51f5d637675490fc5aba108ece72abc07e190a0f2b4d",
                    "indexes": {
                        "data": 1,
                        "gas": 0,
                        "value": 1
                    }
                },
                {
                    "hash": "038de92eda2aed6fdfe9fe46b618312a659d9002d417a7d815891ff212a08fcf",
                    "logs": "1dcc4de8dec75d7aab85b567b6ccd41ad312451b948a7413f0a142fd40d49347",
                    "txbytes": "0xf87f800a82c35094100000000000000000000000000000000000000080a000000000000000000000000010000000000000000000000000000000000000011ba0d42bef4c32caef9b727985db7d8cdbc55d8a8bb1b4e64deff468ac4975705489a02ed8dab9798c0ac91c98bf96ac5f706f2cb94e8b220fdc9a5d441f1f43cd8a14",
                    "indexes": {
                        "data": 0,
                        "gas": 0,
                        "value": 0
                    }
                },
                {
                    "hash": "01442a2808308e38c199fa8adabf6d438ad8fbe56515f366de63f508bb66d731",
                    "logs": "1dcc4de8dec75d7aab85b567b6ccd41ad312451b948a7413f0a142fd40d49347",
                    "txbytes": "0xf87f800a82c35094100000000000000000000000000000000000000064a000000000000000000000000010000000000000000000000000000000000000011ba071539f6eb160bc0e5ef75b404af9f9888c64df00aa7f45afb872b920363c90d9a038554c977067a351b568fd794dbd1b5046a431c98e58b8410c0e531e53cfbdb8",
                    "indexes": {
                        "data": 0,
                        "gas": 0,
                        "value": 1
                    }
                }
            ]
        }
    }
}