{
    "static_callcodecallcall_ABCB_RECURSIVE2": {
        "_info": {
            "comment": "",
            "filling-rpc-server": "evm version 1.10.16-unstable-0f893109-20220105",
            "filling-tool-version": "retesteth-0.2.2-testinfo+commit.01c6aac2.Linux.g++",
            "filledWith": "CoreGeth-1.12.9-unstable-3995a327f2ded5c98324b03792b5ccc22557754f",
            "lllcversion": "Version: 0.5.14-develop.2021.11.27+commit.401d5358.Linux.g++",
            "source": "src/GeneralStateTestsFiller/stStaticCall/static_callcodecallcall_ABCB_RECURSIVE2Filler.json",
            "sourceHash": "4bbe00230441a4f0a3f9be5d21eb456edbeff5bf4e978ee1d357593bba8d1a29"
        },
        "env": {
            "currentCoinbase": "0x2adc25665018aa1fe0e6bc666dac8fc2697ff9ba",
            "currentDifficulty": "0x20000",
            "currentGasLimit": "0xb2d05e00",
            "currentNumber": "0x1",
            "currentTimestamp": "0x3e8",
            "currentBaseFee": "0xa",
            "previousHash": "0x5e20a0453cecd065ea59c37ac63e079ee08998b6045136a8ce6635c7912ec0b6"
        },
        "pre": {
            "0x1000000000000000000000000000000000000000": {
                "code": "0x60406000604060003473100000000000000000000000000000000000000163017d7840f2600055600160015500",
                "balance": "0xde0b6b3a7640000"
            },
            "0x1000000000000000000000000000000000000001": {
                "code": "0x6040600060406000731000000000000000000000000000000000000002620f4240fa00",
                "balance": "0x2540be400"
            },
            "0x1000000000000000000000000000000000000002": {
                "code": "0x60406000604060007310000000000000000000000000000000000000016207a120fa00",
                "balance": "0x2540be400"
            },
            "0xa94f5374fce5edbc8e2a8697c15331677e6ebf0b": {
                "balance": "0xde0b6b3a7640000"
            }
        },
        "transaction": {
            "gasPrice": "0xa",
            "nonce": "0x0",
            "to": "0x1000000000000000000000000000000000000000",
            "data": [
                "0x"
            ],
            "gasLimit": [
                "0x1c9c380"
            ],
            "value": [
                "0x00",
                "0x01"
            ],
            "secretKey": "0x45a915e4d060149eb4365960e6a7a45f334393093061116b197e3240065ff2d8",
            "sender": "0xa94f5374fce5edbc8e2a8697c15331677e6ebf0b"
        },
        "post": {
            "ETC_Magneto": [
                {
                    "hash": "2796b81005e393ba6c1bdd592ff7e54f8ce4add2f6bfcfcefe958fcac3415566",
                    "logs": "1dcc4de8dec75d7aab85b567b6ccd41ad312451b948a7413f0a142fd40d49347",
                    "txbytes": "0xf861800a8401c9c38094100000000000000000000000000000000000000080801ba0e8d1cea1a04c8b4da190371aa4937f7756d5c55d54af29cc22a1f457ca1a213aa0517b7f1455b270f21c5e3b5ebf42dd7234a8b7dcbcd0d96e910182f8ccd55629",
                    "indexes": {
                        "data": 0,
                        "gas": 0,
                        "value": 0
                    }
                },
                {
                    "hash": "06c573d5b89667780b7608f92508d0ba2d3bb7164d21dcd7f61e8aeae011ead1",
                    "logs": "1dcc4de8dec75d7aab85b567b6ccd41ad312451b948a7413f0a142fd40d49347",
                    "txbytes": "0xf861800a8401c9c38094100000000000000000000000000000000000000001801ca0eab9f5976abdb3e1fa1ee49482c1bd2059f1e5da9ccd9f4e5a75c646280a057ca03dc5dab49363d59a56beba1ec36a450f07424d08b855b0b7639c9fe23f2680d9",
                    "indexes": {
                        "data": 0,
                        "gas": 0,
                        "value": 1
                    }
                }
            ],
            "ETC_Mystique": [
                {
                    "hash": "2796b81005e393ba6c1bdd592ff7e54f8ce4add2f6bfcfcefe958fcac3415566",
                    "logs": "1dcc4de8dec75d7aab85b567b6ccd41ad312451b948a7413f0a142fd40d49347",
                    "txbytes": "0xf861800a8401c9c38094100000000000000000000000000000000000000080801ba0e8d1cea1a04c8b4da190371aa4937f7756d5c55d54af29cc22a1f457ca1a213aa0517b7f1455b270f21c5e3b5ebf42dd7234a8b7dcbcd0d96e910182f8ccd55629",
                    "indexes": {
                        "data": 0,
                        "gas": 0,
                        "value": 0
                    }
                },
                {
                    "hash": "06c573d5b89667780b7608f92508d0ba2d3bb7164d21dcd7f61e8aeae011ead1",
                    "logs": "1dcc4de8dec75d7aab85b567b6ccd41ad312451b948a7413f0a142fd40d49347",
                    "txbytes": "0xf861800a8401c9c38094100000000000000000000000000000000000000001801ca0eab9f5976abdb3e1fa1ee49482c1bd2059f1e5da9ccd9f4e5a75c646280a057ca03dc5dab49363d59a56beba1ec36a450f07424d08b855b0b7639c9fe23f2680d9",
                    "indexes": {
                        "data": 0,
                        "gas": 0,
                        "value": 1
                    }
                }
            ],
            "ETC_Phoenix": [
                {
                    "hash": "0f8a12d2da5d21a30d011dde3cdb808d60329ae37c33bd119c0258314e71962d",
                    "logs": "1dcc4de8dec75d7aab85b567b6ccd41ad312451b948a7413f0a142fd40d49347",
                    "txbytes": "0xf861800a8401c9c38094100000000000000000000000000000000000000080801ba0e8d1cea1a04c8b4da190371aa4937f7756d5c55d54af29cc22a1f457ca1a213aa0517b7f1455b270f21c5e3b5ebf42dd7234a8b7dcbcd0d96e910182f8ccd55629",
                    "indexes": {
                        "data": 0,
                        "gas": 0,
                        "value": 0
                    }
                },
                {
                    "hash": "f5d594642f784e42292a1fd655223f9af998eb5251363798356de348aa60b15f",
                    "logs": "1dcc4de8dec75d7aab85b567b6ccd41ad312451b948a7413f0a142fd40d49347",
                    "txbytes": "0xf861800a8401c9c38094100000000000000000000000000000000000000001801ca0eab9f5976abdb3e1fa1ee49482c1bd2059f1e5da9ccd9f4e5a75c646280a057ca03dc5dab49363d59a56beba1ec36a450f07424d08b855b0b7639c9fe23f2680d9",
                    "indexes": {
                        "data": 0,
                        "gas": 0,
                        "value": 1
                    }
                }
            ]
        }
    }
}