{
    "static_RevertOpcodeCalls": {
        "_info": {
            "comment": "",
            "filling-rpc-server": "evm version 1.10.16-unstable-0f893109-20220105",
            "filling-tool-version": "retesteth-0.2.2-testinfo+commit.01c6aac2.Linux.g++",
            "filledWith": "CoreGeth-1.12.9-unstable-d64998ce9b05f4f41b35740c69c4b402e41a3105",
            "lllcversion": "Version: 0.5.14-develop.2021.11.27+commit.401d5358.Linux.g++",
            "source": "src/GeneralStateTestsFiller/stStaticCall/static_RevertOpcodeCallsFiller.json",
            "sourceHash": "a342b38baf7127b39b235ac567a6fc0c9595145e5e222c6a057df427b751f0d3"
        },
        "env": {
            "currentCoinbase": "0x2adc25665018aa1fe0e6bc666dac8fc2697ff9ba",
            "currentDifficulty": "0x20000",
            "currentGasLimit": "0x989680",
            "currentNumber": "0x1",
            "currentTimestamp": "0x3e8",
            "previousHash": "0x5e20a0453cecd065ea59c37ac63e079ee08998b6045136a8ce6635c7912ec0b6"
        },
        "pre": {
            "0x094f5374fce5edbc8e2a8697c15331677e6ebf0b": {
                "code": "0x600060006000600073c94f5374fce5edbc8e2a8697c15331677e6ebf0b61c350fa6000553d60015500",
                "balance": "0x1"
            },
            "0xa94f5374fce5edbc8e2a8697c15331677e6ebf0b": {
                "balance": "0xe8d4a51000"
            },
            "0xc94f5374fce5edbc8e2a8697c15331677e6ebf0b": {
                "code": "0x60016000fd00",
                "balance": "0x1"
            }
        },
        "transaction": {
            "gasPrice": "0xa",
            "nonce": "0x0",
            "to": "0x094f5374fce5edbc8e2a8697c15331677e6ebf0b",
            "data": [
                "0x"
            ],
            "gasLimit": [
                "0x704e0",
                "0x157c0"
            ],
            "value": [
                "0x00"
            ],
            "secretKey": "0x45a915e4d060149eb4365960e6a7a45f334393093061116b197e3240065ff2d8",
            "sender": "0xa94f5374fce5edbc8e2a8697c15331677e6ebf0b"
        },
        "post": {
            "ETC_Magneto": [
                {
                    "hash": "7515d3064f0505796820c6a70ead71b40acf34c3899f15ececd5f18f9f1c06a2",
                    "logs": "1dcc4de8dec75d7aab85b567b6ccd41ad312451b948a7413f0a142fd40d49347",
                    "txbytes": "0xf860800a830704e094094f5374fce5edbc8e2a8697c15331677e6ebf0b80801ba0a857c1dd4f29a65d8fbdc0c384e96178e0de79c585b77f02943c656e0393eaf9a05eb5bf8af08587cbe79291c77fdd40b2e2c3050053ff667af17299985feaab0c",
                    "indexes": {
                        "data": 0,
                        "gas": 0,
                        "value": 0
                    }
                },
                {
                    "hash": "7515d3064f0505796820c6a70ead71b40acf34c3899f15ececd5f18f9f1c06a2",
                    "logs": "1dcc4de8dec75d7aab85b567b6ccd41ad312451b948a7413f0a142fd40d49347",
                    "txbytes": "0xf860800a830157c094094f5374fce5edbc8e2a8697c15331677e6ebf0b80801ca01c1e4b66f3356b392f590187497d7e4283d3ee0a75d9b56a634a1e37635e2078a01d6a7bfdf3c312a2c095a1ecaa73faee61a8b805d66014ade053b5a668f6286e",
                    "indexes": {
                        "data": 0,
                        "gas": 1,
                        "value": 0
                    }
                }
            ],
            "ETC_Mystique": [
                {
                    "hash": "7515d3064f0505796820c6a70ead71b40acf34c3899f15ececd5f18f9f1c06a2",
                    "logs": "1dcc4de8dec75d7aab85b567b6ccd41ad312451b948a7413f0a142fd40d49347",
                    "txbytes": "0xf860800a830704e094094f5374fce5edbc8e2a8697c15331677e6ebf0b80801ba0a857c1dd4f29a65d8fbdc0c384e96178e0de79c585b77f02943c656e0393eaf9a05eb5bf8af08587cbe79291c77fdd40b2e2c3050053ff667af17299985feaab0c",
                    "indexes": {
                        "data": 0,
                        "gas": 0,
                        "value": 0
                    }
                },
                {
                    "hash": "7515d3064f0505796820c6a70ead71b40acf34c3899f15ececd5f18f9f1c06a2",
                    "logs": "1dcc4de8dec75d7aab85b567b6ccd41ad312451b948a7413f0a142fd40d49347",
                    "txbytes": "0xf860800a830157c094094f5374fce5edbc8e2a8697c15331677e6ebf0b80801ca01c1e4b66f3356b392f590187497d7e4283d3ee0a75d9b56a634a1e37635e2078a01d6a7bfdf3c312a2c095a1ecaa73faee61a8b805d66014ade053b5a668f6286e",
                    "indexes": {
                        "data": 0,
                        "gas": 1,
                        "value": 0
                    }
                }
            ],
            "ETC_Phoenix": [
                {
                    "hash": "6595cc9c4c8bdf06022ddffccb79c499fba97ee79ccfd0a36989d55406b9c5d8",
                    "logs": "1dcc4de8dec75d7aab85b567b6ccd41ad312451b948a7413f0a142fd40d49347",
                    "txbytes": "0xf860800a830704e094094f5374fce5edbc8e2a8697c15331677e6ebf0b80801ba0a857c1dd4f29a65d8fbdc0c384e96178e0de79c585b77f02943c656e0393eaf9a05eb5bf8af08587cbe79291c77fdd40b2e2c3050053ff667af17299985feaab0c",
                    "indexes": {
                        "data": 0,
                        "gas": 0,
                        "value": 0
                    }
                },
                {
                    "hash": "6595cc9c4c8bdf06022ddffccb79c499fba97ee79ccfd0a36989d55406b9c5d8",
                    "logs": "1dcc4de8dec75d7aab85b567b6ccd41ad312451b948a7413f0a142fd40d49347",
                    "txbytes": "0xf860800a830157c094094f5374fce5edbc8e2a8697c15331677e6ebf0b80801ca01c1e4b66f3356b392f590187497d7e4283d3ee0a75d9b56a634a1e37635e2078a01d6a7bfdf3c312a2c095a1ecaa73faee61a8b805d66014ade053b5a668f6286e",
                    "indexes": {
                        "data": 0,
                        "gas": 1,
                        "value": 0
                    }
                }
            ]
        }
    }
}