{
    "static_callcodecallcall_100_OOGMBefore2": {
        "_info": {
            "comment": "",
            "filling-rpc-server": "evm version 1.10.16-unstable-0f893109-20220105",
            "filling-tool-version": "retesteth-0.2.2-testinfo+commit.01c6aac2.Linux.g++",
            "filledWith": "CoreGeth-1.12.9-unstable-3995a327f2ded5c98324b03792b5ccc22557754f",
            "lllcversion": "Version: 0.5.14-develop.2021.11.27+commit.401d5358.Linux.g++",
            "source": "src/GeneralStateTestsFiller/stStaticCall/static_callcodecallcall_100_OOGMBefore2Filler.json",
            "sourceHash": "7bd953717155f71d7fd8621544af0664a2641f5c0266c7f4c9834d1e4d9ae8d7"
        },
        "env": {
            "currentCoinbase": "0x2adc25665018aa1fe0e6bc666dac8fc2697ff9ba",
            "currentDifficulty": "0x20000",
            "currentGasLimit": "0x1c9c380",
            "currentNumber": "0x1",
            "currentTimestamp": "0x3e8",
            "currentBaseFee": "0xa",
            "previousHash": "0x5e20a0453cecd065ea59c37ac63e079ee08998b6045136a8ce6635c7912ec0b6"
        },
        "pre": {
            "0x1000000000000000000000000000000000000000": {
                "code": "0x600035600052604060006040600034731000000000000000000000000000000000000001620249f0f2600055600160015500",
                "balance": "0xde0b6b3a7640000"
            },
            "0x1000000000000000000000000000000000000001": {
                "code": "0x60016003526040600060406000600035619c90fa00",
                "balance": "0x0"
            },
            "0x1000000000000000000000000000000000000002": {
                "code": "0x5b61c3506080511015601c5760013b506001608051016080526000565b6040600060406000731000000000000000000000000000000000000003614e34fa00",
                "balance": "0x0"
            },
            "0x1000000000000000000000000000000000000003": {
                "code": "0x600160035200",
                "balance": "0x0"
            },
            "0x2000000000000000000000000000000000000002": {
                "code": "0x60016003556040600060406000731000000000000000000000000000000000000003614e34fa00",
                "balance": "0x0"
            },
            "0xa94f5374fce5edbc8e2a8697c15331677e6ebf0b": {
                "balance": "0xde0b6b3a7640000"
            }
        },
        "transaction": {
            "gasPrice": "0xa",
            "nonce": "0x0",
            "to": "0x1000000000000000000000000000000000000000",
            "data": [
                "0x0000000000000000000000001000000000000000000000000000000000000002",
                "0x0000000000000000000000002000000000000000000000000000000000000002"
            ],
            "gasLimit": [
                "0x29fe0"
            ],
            "value": [
                "0x00",
                "0x01"
            ],
            "secretKey": "0x45a915e4d060149eb4365960e6a7a45f334393093061116b197e3240065ff2d8",
            "sender": "0xa94f5374fce5edbc8e2a8697c15331677e6ebf0b"
        },
        "post": {
            "ETC_Magneto": [
                {
                    "hash": "cf8060a34cb10b3981722c698b845e87d94439e510249b1fd85c13bcdf575436",
                    "logs": "1dcc4de8dec75d7aab85b567b6ccd41ad312451b948a7413f0a142fd40d49347",
                    "txbytes": "0xf880800a83029fe094100000000000000000000000000000000000000080a000000000000000000000000010000000000000000000000000000000000000021ba07030b0e0fb12abba541b31aaa9fa9f48d8916465fc459270b1b2a6463fd78a54a061849f602af25d6d1e45fde31a174040aeeabd4abb09b80bb922a5a2348bcd26",
                    "indexes": {
                        "data": 0,
                        "gas": 0,
                        "value": 0
                    }
                },
                {
                    "hash": "636c4a0da77042caf0aea79421b57fb79194f10c612955802ee51c3cfa4f1107",
                    "logs": "1dcc4de8dec75d7aab85b567b6ccd41ad312451b948a7413f0a142fd40d49347",
                    "txbytes": "0xf880800a83029fe094100000000000000000000000000000000000000001a000000000000000000000000010000000000000000000000000000000000000021ba020a92b687e3d6166823e6c754af0a01210093c1d868ab039dee0518a91eb82fba069a677c12bf347947c73518b1c124c2fc36592bfc2a6d0973a755d3c196442ea",
                    "indexes": {
                        "data": 0,
                        "gas": 0,
                        "value": 1
                    }
                },
                {
                    "hash": "cf8060a34cb10b3981722c698b845e87d94439e510249b1fd85c13bcdf575436",
                    "logs": "1dcc4de8dec75d7aab85b567b6ccd41ad312451b948a7413f0a142fd40d49347",
                    "txbytes": "0xf880800a83029fe094100000000000000000000000000000000000000080a000000000000000000000000020000000000000000000000000000000000000021ba0351d0163a3385c0578103bdc19adb1351a8a626a7cedd4ba39d3340e7fce0411a02406896d81fbf345e9c35c0d78742244eaf647b79e866078c8123df762208984",
                    "indexes": {
                        "data": 1,
                        "gas": 0,
                        "value": 0
                    }
                },
                {
                    "hash": "636c4a0da77042caf0aea79421b57fb79194f10c612955802ee51c3cfa4f1107",
                    "logs": "1dcc4de8dec75d7aab85b567b6ccd41ad312451b948a7413f0a142fd40d49347",
                    "txbytes": "0xf880800a83029fe094100000000000000000000000000000000000000001a000000000000000000000000020000000000000000000000000000000000000021ca0d87a42e8eb3920ea2f8c57c646e539b8e1637758e19233c5ea1d96bb7729c610a01040d77f25bf212627882cdf1c2adb89b61666c92c57b60b1b933e2e2c46458b",
                    "indexes": {
                        "data": 1,
                        "gas": 0,
                        "value": 1
                    }
                }
            ],
            "ETC_Mystique": [
                {
                    "hash": "cf8060a34cb10b3981722c698b845e87d94439e510249b1fd85c13bcdf575436",
                    "logs": "1dcc4de8dec75d7aab85b567b6ccd41ad312451b948a7413f0a142fd40d49347",
                    "txbytes": "0xf880800a83029fe094100000000000000000000000000000000000000080a000000000000000000000000010000000000000000000000000000000000000021ba07030b0e0fb12abba541b31aaa9fa9f48d8916465fc459270b1b2a6463fd78a54a061849f602af25d6d1e45fde31a174040aeeabd4abb09b80bb922a5a2348bcd26",
                    "indexes": {
                        "data": 0,
                        "gas": 0,
                        "value": 0
                    }
                },
                {
                    "hash": "636c4a0da77042caf0aea79421b57fb79194f10c612955802ee51c3cfa4f1107",
                    "logs": "1dcc4de8dec75d7aab85b567b6ccd41ad312451b948a7413f0a142fd40d49347",
                    "txbytes": "0xf880800a83029fe094100000000000000000000000000000000000000001a000000000000000000000000010000000000000000000000000000000000000021ba020a92b687e3d6166823e6c754af0a01210093c1d868ab039dee0518a91eb82fba069a677c12bf347947c73518b1c124c2fc36592bfc2a6d0973a755d3c196442ea",
                    "indexes": {
                        "data": 0,
                        "gas": 0,
                        "value": 1
                    }
                },
                {
                    "hash": "cf8060a34cb10b3981722c698b845e87d94439e510249b1fd85c13bcdf575436",
                    "logs": "1dcc4de8dec75d7aab85b567b6ccd41ad312451b948a7413f0a142fd40d49347",
                    "txbytes": "0xf880800a83029fe094100000000000000000000000000000000000000080a000000000000000000000000020000000000000000000000000000000000000021ba0351d0163a3385c0578103bdc19adb1351a8a626a7cedd4ba39d3340e7fce0411a02406896d81fbf345e9c35c0d78742244eaf647b79e866078c8123df762208984",
                    "indexes": {
                        "data": 1,
                        "gas": 0,
                        "value": 0
                    }
                },
                {
                    "hash": "636c4a0da77042caf0aea79421b57fb79194f10c612955802ee51c3cfa4f1107",
                    "logs": "1dcc4de8dec75d7aab85b567b6ccd41ad312451b948a7413f0a142fd40d49347",
                    "txbytes": "0xf880800a83029fe094100000000000000000000000000000000000000001a000000000000000000000000020000000000000000000000000000000000000021ca0d87a42e8eb3920ea2f8c57c646e539b8e1637758e19233c5ea1d96bb7729c610a01040d77f25bf212627882cdf1c2adb89b61666c92c57b60b1b933e2e2c46458b",
                    "indexes": {
                        "data": 1,
                        "gas": 0,
                        "value": 1
                    }
                }
            ],
            "ETC_Phoenix": [
                {
                    "hash": "cc169a02c33e9f5f951d21d752cfd33c9e71b48c02f79aeb6f192df013ef5c81",
                    "logs": "1dcc4de8dec75d7aab85b567b6ccd41ad312451b948a7413f0a142fd40d49347",
                    "txbytes": "0xf880800a83029fe094100000000000000000000000000000000000000080a000000000000000000000000010000000000000000000000000000000000000021ba07030b0e0fb12abba541b31aaa9fa9f48d8916465fc459270b1b2a6463fd78a54a061849f602af25d6d1e45fde31a174040aeeabd4abb09b80bb922a5a2348bcd26",
                    "indexes": {
                        "data": 0,
                        "gas": 0,
                        "value": 0
                    }
                },
                {
                    "hash": "9344ae0a63999b91658f3f950a58e4a75b0d83deca82cebe8b218cf7348b81fd",
                    "logs": "1dcc4de8dec75d7aab85b567b6ccd41ad312451b948a7413f0a142fd40d49347",
                    "txbytes": "0xf880800a83029fe094100000000000000000000000000000000000000001a000000000000000000000000010000000000000000000000000000000000000021ba020a92b687e3d6166823e6c754af0a01210093c1d868ab039dee0518a91eb82fba069a677c12bf347947c73518b1c124c2fc36592bfc2a6d0973a755d3c196442ea",
                    "indexes": {
                        "data": 0,
                        "gas": 0,
                        "value": 1
                    }
                },
                {
                    "hash": "cc169a02c33e9f5f951d21d752cfd33c9e71b48c02f79aeb6f192df013ef5c81",
                    "logs": "1dcc4de8dec75d7aab85b567b6ccd41ad312451b948a7413f0a142fd40d49347",
                    "txbytes": "0xf880800a83029fe094100000000000000000000000000000000000000080a000000000000000000000000020000000000000000000000000000000000000021ba0351d0163a3385c0578103bdc19adb1351a8a626a7cedd4ba39d3340e7fce0411a02406896d81fbf345e9c35c0d78742244eaf647b79e866078c8123df762208984",
                    "indexes": {
                        "data": 1,
                        "gas": 0,
                        "value": 0
                    }
                },
                {
                    "hash": "9344ae0a63999b91658f3f950a58e4a75b0d83deca82cebe8b218cf7348b81fd",
                    "logs": "1dcc4de8dec75d7aab85b567b6ccd41ad312451b948a7413f0a142fd40d49347",
                    "txbytes": "0xf880800a83029fe094100000000000000000000000000000000000000001a000000000000000000000000020000000000000000000000000000000000000021ca0d87a42e8eb3920ea2f8c57c646e539b8e1637758e19233c5ea1d96bb7729c610a01040d77f25bf212627882cdf1c2adb89b61666c92c57b60b1b933e2e2c46458b",
                    "indexes": {
                        "data": 1,
                        "gas": 0,
                        "value": 1
                    }
                }
            ]
        }
    }
}