{
    "static_Call1024BalanceTooLow": {
        "_info": {
            "comment": "",
            "filling-rpc-server": "evm version 1.10.16-unstable-0f893109-20220105",
            "filling-tool-version": "retesteth-0.2.2-testinfo+commit.01c6aac2.Linux.g++",
            "filledWith": "CoreGeth-1.12.9-unstable-4cf5b2b0837228e7d5eadba6a01ffb80e9288e21",
            "lllcversion": "Version: 0.5.14-develop.2021.11.27+commit.401d5358.Linux.g++",
            "source": "src/GeneralStateTestsFiller/stStaticCall/static_Call1024BalanceTooLowFiller.json",
            "sourceHash": "261a2cffa842e706a330cacee50599c27ee9b580a95289bc571e6b49b8a072e8"
        },
        "env": {
            "currentCoinbase": "0x2adc25665018aa1fe0e6bc666dac8fc2697ff9ba",
            "currentDifficulty": "0x20000",
            "currentGasLimit": "0x7fffffffffffffff",
            "currentNumber": "0x28d138",
            "currentTimestamp": "0x3e8",
            "previousHash": "0x5e20a0453cecd065ea59c37ac63e079ee08998b6045136a8ce6635c7912ec0b6"
        },
        "pre": {
            "0x1000000000000000000000000000000000000000": {
                "code": "0x6000600060006000346000355af1600055600160015500",
                "balance": "0x0",
                "nonce": "0x0"
            },
            "0xa94f5374fce5edbc8e2a8697c15331677e6ebf0b": {
                "code": "0x",
                "balance": "0xffffffffffffffffffffffffffffffff",
                "nonce": "0x0"
            },
            "0xaaaf5374fce5edbc8e2a8697c15331677e6ebf0b": {
                "code": "0x",
                "balance": "0x1b58",
                "nonce": "0x0"
            },
            "0xbbbf5374fce5edbc8e2a8697c15331677e6ebf0b": {
                "code": "0x60016000540160005560006000600060005473bbbf5374fce5edbc8e2a8697c15331677e6ebf0b650ffffffffffffa60015500",
                "balance": "0x400",
                "nonce": "0x0"
            },
            "0xcbbf5374fce5edbc8e2a8697c15331677e6ebf0b": {
                "code": "0x60016000510160005260006000600060005173cbbf5374fce5edbc8e2a8697c15331677e6ebf0b650ffffffffffffa60205200",
                "balance": "0x400",
                "nonce": "0x0"
            }
        },
        "transaction": {
            "gasPrice": "0xa",
            "nonce": "0x0",
            "to": "0x1000000000000000000000000000000000000000",
            "data": [
                "0x000000000000000000000000bbbf5374fce5edbc8e2a8697c15331677e6ebf0b",
                "0x000000000000000000000000cbbf5374fce5edbc8e2a8697c15331677e6ebf0b"
            ],
            "gasLimit": [
                "0x10000000d788"
            ],
            "value": [
                "0x0a"
            ],
            "secretKey": "0x45a915e4d060149eb4365960e6a7a45f334393093061116b197e3240065ff2d8",
            "sender": "0xa94f5374fce5edbc8e2a8697c15331677e6ebf0b"
        },
        "post": {
            "ETC_Magneto": [
                {
                    "hash": "93a69924031c18a000a58705a7b54e97b6eecc23a096833b62c0648aef930889",
                    "logs": "1dcc4de8dec75d7aab85b567b6ccd41ad312451b948a7413f0a142fd40d49347",
                    "txbytes": "0xf883800a8610000000d7889410000000000000000000000000000000000000000aa0000000000000000000000000bbbf5374fce5edbc8e2a8697c15331677e6ebf0b1ba0897b5ffd3d13469404d8934dbc513f85869f7b33c1ba3f0652f0b7a501dc62f7a0451e8746faab2dd4408c95f2ec882591a8308b73bdcde97c4c9a87389cdf2650",
                    "indexes": {
                        "data": 0,
                        "gas": 0,
                        "value": 0
                    }
                },
                {
                    "hash": "15c9405d9acd55e341de107652222f38dab77410b1c58528dacd4a989c2fb3e4",
                    "logs": "1dcc4de8dec75d7aab85b567b6ccd41ad312451b948a7413f0a142fd40d49347",
                    "txbytes": "0xf883800a8610000000d7889410000000000000000000000000000000000000000aa0000000000000000000000000cbbf5374fce5edbc8e2a8697c15331677e6ebf0b1ba0f8df96eb2f87bf7515f3bd84307d7ffae3628bb9a84ad866f812ee5e89beb9a7a05fc9007970d81cf50f76686d904c5dbd3938f8bf8b08ab434e64a7173c57f7ba",
                    "indexes": {
                        "data": 1,
                        "gas": 0,
                        "value": 0
                    }
                }
            ],
            "ETC_Mystique": [
                {
                    "hash": "93a69924031c18a000a58705a7b54e97b6eecc23a096833b62c0648aef930889",
                    "logs": "1dcc4de8dec75d7aab85b567b6ccd41ad312451b948a7413f0a142fd40d49347",
                    "txbytes": "0xf883800a8610000000d7889410000000000000000000000000000000000000000aa0000000000000000000000000bbbf5374fce5edbc8e2a8697c15331677e6ebf0b1ba0897b5ffd3d13469404d8934dbc513f85869f7b33c1ba3f0652f0b7a501dc62f7a0451e8746faab2dd4408c95f2ec882591a8308b73bdcde97c4c9a87389cdf2650",
                    "indexes": {
                        "data": 0,
                        "gas": 0,
                        "value": 0
                    }
                },
                {
                    "hash": "15c9405d9acd55e341de107652222f38dab77410b1c58528dacd4a989c2fb3e4",
                    "logs": "1dcc4de8dec75d7aab85b567b6ccd41ad312451b948a7413f0a142fd40d49347",
                    "txbytes": "0xf883800a8610000000d7889410000000000000000000000000000000000000000aa0000000000000000000000000cbbf5374fce5edbc8e2a8697c15331677e6ebf0b1ba0f8df96eb2f87bf7515f3bd84307d7ffae3628bb9a84ad866f812ee5e89beb9a7a05fc9007970d81cf50f76686d904c5dbd3938f8bf8b08ab434e64a7173c57f7ba",
                    "indexes": {
                        "data": 1,
                        "gas": 0,
                        "value": 0
                    }
                }
            ],
            "ETC_Phoenix": [
                {
                    "hash": "9aa6cbe56ffcd24b84787adcddac888e56a9b27a8596eea0fad3eed5aa911e5c",
                    "logs": "1dcc4de8dec75d7aab85b567b6ccd41ad312451b948a7413f0a142fd40d49347",
                    "txbytes": "0xf883800a8610000000d7889410000000000000000000000000000000000000000aa0000000000000000000000000bbbf5374fce5edbc8e2a8697c15331677e6ebf0b1ba0897b5ffd3d13469404d8934dbc513f85869f7b33c1ba3f0652f0b7a501dc62f7a0451e8746faab2dd4408c95f2ec882591a8308b73bdcde97c4c9a87389cdf2650",
                    "indexes": {
                        "data": 0,
                        "gas": 0,
                        "value": 0
                    }
                },
                {
                    "hash": "b86e4bcba21a1f0a6fe5557bec1f331f0451f4168c3a3ad9f3352087dd75438c",
                    "logs": "1dcc4de8dec75d7aab85b567b6ccd41ad312451b948a7413f0a142fd40d49347",
                    "txbytes": "0xf883800a8610000000d7889410000000000000000000000000000000000000000aa0000000000000000000000000cbbf5374fce5edbc8e2a8697c15331677e6ebf0b1ba0f8df96eb2f87bf7515f3bd84307d7ffae3628bb9a84ad866f812ee5e89beb9a7a05fc9007970d81cf50f76686d904c5dbd3938f8bf8b08ab434e64a7173c57f7ba",
                    "indexes": {
                        "data": 1,
                        "gas": 0,
                        "value": 0
                    }
                }
            ]
        }
    }
}