{
    "static_ReturnTest2": {
        "_info": {
            "comment": "",
            "filling-rpc-server": "evm version 1.10.16-unstable-0f893109-20220105",
            "filling-tool-version": "retesteth-0.2.2-testinfo+commit.01c6aac2.Linux.g++",
            "filledWith": "CoreGeth-1.12.9-unstable-f4059ddd82d975bdc54fa648e5422a80172161cb",
            "lllcversion": "Version: 0.5.14-develop.2021.11.27+commit.401d5358.Linux.g++",
            "source": "src/GeneralStateTestsFiller/stStaticCall/static_ReturnTest2Filler.json",
            "sourceHash": "5893996683449e291532171218252a893057c60606e205035482199df2887a85"
        },
        "env": {
            "currentCoinbase": "2adc25665018aa1fe0e6bc666dac8fc2697ff9ba",
            "currentDifficulty": "0x20000",
            "currentRandom": null,
            "currentGasLimit": "0x3b9aca00",
            "currentNumber": "0x1",
            "currentTimestamp": "0x3e8",
            "currentBaseFee": "0xa"
        },
        "pre": {
            "0x194f5374fce5edbc8e2a8697c15331677e6ebf0b": {
                "code": "0x6015600052602060206020600073b94f5374fce5edbc8e2a8697c15331677e6ebf0b611b58fa5060005160005560205160015560406000f300",
                "balance": "0x0"
            },
            "0xa94f5374fce5edbc8e2a8697c15331677e6ebf0b": {
                "balance": "0x5f5e100"
            },
            "0xb94f5374fce5edbc8e2a8697c15331677e6ebf0b": {
                "code": "0x60003560030260005260206000f300",
                "balance": "0x186a0"
            }
        },
        "transaction": {
            "gasPrice": "0xa",
            "maxFeePerGas": null,
            "maxPriorityFeePerGas": null,
            "nonce": "0x0",
            "to": "0x194f5374fce5edbc8e2a8697c15331677e6ebf0b",
            "data": [
                "0x"
            ],
            "gasLimit": [
                "0x3d090"
            ],
            "value": [
                "0x00"
            ],
            "secretKey": "0x45a915e4d060149eb4365960e6a7a45f334393093061116b197e3240065ff2d8"
        },
        "out": "0x",
        "post": {
            "ETC_Magneto": [
                {
                    "hash": "92167fbf44c2eebab24dcb97a02b25b5da4bf3b6b9a2ec9379150b30195b135c",
                    "logs": "1dcc4de8dec75d7aab85b567b6ccd41ad312451b948a7413f0a142fd40d49347",
                    "txbytes": "0xf860800a8303d09094194f5374fce5edbc8e2a8697c15331677e6ebf0b80801ba08e1ac11b121ba404894bf7b1d776e2a1431189c5a19d746bd814de525f895c58a054f2e32e9d1762876987d939df070e73310a01edceefc9139f74f3db3699e371",
                    "indexes": {
                        "data": 0,
                        "gas": 0,
                        "value": 0
                    }
                }
            ],
            "ETC_Mystique": [
                {
                    "hash": "92167fbf44c2eebab24dcb97a02b25b5da4bf3b6b9a2ec9379150b30195b135c",
                    "logs": "1dcc4de8dec75d7aab85b567b6ccd41ad312451b948a7413f0a142fd40d49347",
                    "txbytes": "0xf860800a8303d09094194f5374fce5edbc8e2a8697c15331677e6ebf0b80801ba08e1ac11b121ba404894bf7b1d776e2a1431189c5a19d746bd814de525f895c58a054f2e32e9d1762876987d939df070e73310a01edceefc9139f74f3db3699e371",
                    "indexes": {
                        "data": 0,
                        "gas": 0,
                        "value": 0
                    }
                }
            ],
            "ETC_Phoenix": [
                {
                    "hash": "56dfae1f49f6cbbe60b7b9a20158cf95969a6628d6b3cd96b4054f20cd38a5c1",
                    "logs": "1dcc4de8dec75d7aab85b567b6ccd41ad312451b948a7413f0a142fd40d49347",
                    "txbytes": "0xf860800a8303d09094194f5374fce5edbc8e2a8697c15331677e6ebf0b80801ba08e1ac11b121ba404894bf7b1d776e2a1431189c5a19d746bd814de525f895c58a054f2e32e9d1762876987d939df070e73310a01edceefc9139f74f3db3699e371",
                    "indexes": {
                        "data": 0,
                        "gas": 0,
                        "value": 0
                    }
                }
            ]
        }
    }
}