{
    "static_Call1024PreCalls": {
        "_info": {
            "comment": "",
            "filling-rpc-server": "evm version 1.10.16-unstable-0f893109-20220105",
            "filling-tool-version": "retesteth-0.2.2-testinfo+commit.01c6aac2.Linux.g++",
            "filledWith": "CoreGeth-1.12.9-unstable-3995a327f2ded5c98324b03792b5ccc22557754f",
            "lllcversion": "Version: 0.5.14-develop.2021.11.27+commit.401d5358.Linux.g++",
            "source": "src/GeneralStateTestsFiller/stStaticCall/static_Call1024PreCallsFiller.json",
            "sourceHash": "135fe21ffdaa900943a3eed68ab68bec0df413e6d9fc09f8b78cb48606e735bd"
        },
        "env": {
            "currentCoinbase": "0x2adc25665018aa1fe0e6bc666dac8fc2697ff9ba",
            "currentDifficulty": "0x20000",
            "currentGasLimit": "0x7fffffffffffffff",
            "currentNumber": "0x1",
            "currentTimestamp": "0x3e8",
            "currentBaseFee": "0xa",
            "previousHash": "0x5e20a0453cecd065ea59c37ac63e079ee08998b6045136a8ce6635c7912ec0b6"
        },
        "pre": {
            "0x1000000000000000000000000000000000000000": {
                "code": "0x6000600060006000346000355af1600055600160015500",
                "balance": "0x0"
            },
            "0xa94f5374fce5edbc8e2a8697c15331677e6ebf0b": {
                "balance": "0xfffffffffffffffffffffffffffffffff"
            },
            "0xaaaf5374fce5edbc8e2a8697c15331677e6ebf0b": {
                "balance": "0x1b58"
            },
            "0xbbbf5374fce5edbc8e2a8697c15331677e6ebf0b": {
                "code": "0x600060006000600073aaaf5374fce5edbc8e2a8697c15331677e6ebf0b61fffffa600255600060006000600073aaaf5374fce5edbc8e2a8697c15331677e6ebf0b61fffffa600355600160005401600055600060006000600073bbbf5374fce5edbc8e2a8697c15331677e6ebf0b650ffffffffffffa60015500",
                "balance": "0x7e8"
            },
            "0xcbbf5374fce5edbc8e2a8697c15331677e6ebf0b": {
                "code": "0x600060006000600073aaaf5374fce5edbc8e2a8697c15331677e6ebf0b61fffffa50600060006000600073aaaf5374fce5edbc8e2a8697c15331677e6ebf0b61fffffa50600160005101600052600060006000600073cbbf5374fce5edbc8e2a8697c15331677e6ebf0b650ffffffffffffa00",
                "balance": "0x7e8"
            }
        },
        "transaction": {
            "gasPrice": "0xa",
            "nonce": "0x0",
            "to": "0x1000000000000000000000000000000000000000",
            "data": [
                "0x000000000000000000000000bbbf5374fce5edbc8e2a8697c15331677e6ebf0b",
                "0x000000000000000000000000cbbf5374fce5edbc8e2a8697c15331677e6ebf0b"
            ],
            "gasLimit": [
                "0x7fe0000000000001"
            ],
            "value": [
                "0x0a"
            ],
            "secretKey": "0x45a915e4d060149eb4365960e6a7a45f334393093061116b197e3240065ff2d8",
            "sender": "0xa94f5374fce5edbc8e2a8697c15331677e6ebf0b"
        },
        "post": {
            "ETC_Magneto": [
                {
                    "hash": "f3ac353d3c7ead5974feab02c44184f862a19a7b219cdfac6b17587a86017c4f",
                    "logs": "1dcc4de8dec75d7aab85b567b6ccd41ad312451b948a7413f0a142fd40d49347",
                    "txbytes": "0xf885800a887fe00000000000019410000000000000000000000000000000000000000aa0000000000000000000000000bbbf5374fce5edbc8e2a8697c15331677e6ebf0b1ca0d8158dbd8f9abeb3077ab3f8a58b5686602d668b4f3789066206f97929650ab8a07e7d73b80175cab7b58928a10a83c3887df251c1ec21dd0fe8847c2e3423e6b4",
                    "indexes": {
                        "data": 0,
                        "gas": 0,
                        "value": 0
                    }
                },
                {
                    "hash": "43cbbd8d205e4ac38f6ce57fb4149f9056ade53342c2185bdc4ddcb49f8598c2",
                    "logs": "1dcc4de8dec75d7aab85b567b6ccd41ad312451b948a7413f0a142fd40d49347",
                    "txbytes": "0xf885800a887fe00000000000019410000000000000000000000000000000000000000aa0000000000000000000000000cbbf5374fce5edbc8e2a8697c15331677e6ebf0b1ca0d66f04968eb32841eaafc54eb514fc54c6a290da44c377e74332f09eb0253a07a00c780941396de0d81e0bd44dc4b3fa31268be355dabb3ebe678a8ae1c3cfde44",
                    "indexes": {
                        "data": 1,
                        "gas": 0,
                        "value": 0
                    }
                }
            ],
            "ETC_Mystique": [
                {
                    "hash": "f3ac353d3c7ead5974feab02c44184f862a19a7b219cdfac6b17587a86017c4f",
                    "logs": "1dcc4de8dec75d7aab85b567b6ccd41ad312451b948a7413f0a142fd40d49347",
                    "txbytes": "0xf885800a887fe00000000000019410000000000000000000000000000000000000000aa0000000000000000000000000bbbf5374fce5edbc8e2a8697c15331677e6ebf0b1ca0d8158dbd8f9abeb3077ab3f8a58b5686602d668b4f3789066206f97929650ab8a07e7d73b80175cab7b58928a10a83c3887df251c1ec21dd0fe8847c2e3423e6b4",
                    "indexes": {
                        "data": 0,
                        "gas": 0,
                        "value": 0
                    }
                },
                {
                    "hash": "43cbbd8d205e4ac38f6ce57fb4149f9056ade53342c2185bdc4ddcb49f8598c2",
                    "logs": "1dcc4de8dec75d7aab85b567b6ccd41ad312451b948a7413f0a142fd40d49347",
                    "txbytes": "0xf885800a887fe00000000000019410000000000000000000000000000000000000000aa0000000000000000000000000cbbf5374fce5edbc8e2a8697c15331677e6ebf0b1ca0d66f04968eb32841eaafc54eb514fc54c6a290da44c377e74332f09eb0253a07a00c780941396de0d81e0bd44dc4b3fa31268be355dabb3ebe678a8ae1c3cfde44",
                    "indexes": {
                        "data": 1,
                        "gas": 0,
                        "value": 0
                    }
                }
            ],
            "ETC_Phoenix": [
                {
                    "hash": "2fce6e16c836b8247649a43e827152fe2a07a54ebba5b0de1a3a34ce9b989b4c",
                    "logs": "1dcc4de8dec75d7aab85b567b6ccd41ad312451b948a7413f0a142fd40d49347",
                    "txbytes": "0xf885800a887fe00000000000019410000000000000000000000000000000000000000aa0000000000000000000000000bbbf5374fce5edbc8e2a8697c15331677e6ebf0b1ca0d8158dbd8f9abeb3077ab3f8a58b5686602d668b4f3789066206f97929650ab8a07e7d73b80175cab7b58928a10a83c3887df251c1ec21dd0fe8847c2e3423e6b4",
                    "indexes": {
                        "data": 0,
                        "gas": 0,
                        "value": 0
                    }
                },
                {
                    "hash": "c019bc3c1879ac10e1c5bfef0c534d263b72e839217376fd003470d2a8fb08a7",
                    "logs": "1dcc4de8dec75d7aab85b567b6ccd41ad312451b948a7413f0a142fd40d49347",
                    "txbytes": "0xf885800a887fe00000000000019410000000000000000000000000000000000000000aa0000000000000000000000000cbbf5374fce5edbc8e2a8697c15331677e6ebf0b1ca0d66f04968eb32841eaafc54eb514fc54c6a290da44c377e74332f09eb0253a07a00c780941396de0d81e0bd44dc4b3fa31268be355dabb3ebe678a8ae1c3cfde44",
                    "indexes": {
                        "data": 1,
                        "gas": 0,
                        "value": 0
                    }
                }
            ]
        }
    }
}