{
    "static_CallContractToCreateContractAndCallItOOG": {
        "_info": {
            "comment": "",
            "filling-rpc-server": "evm version 1.10.16-unstable-0f893109-20220105",
            "filling-tool-version": "retesteth-0.2.2-testinfo+commit.01c6aac2.Linux.g++",
            "filledWith": "CoreGeth-1.12.9-unstable-4cf5b2b0837228e7d5eadba6a01ffb80e9288e21",
            "lllcversion": "Version: 0.5.14-develop.2021.11.27+commit.401d5358.Linux.g++",
            "source": "src/GeneralStateTestsFiller/stStaticCall/static_CallContractToCreateContractAndCallItOOGFiller.json",
            "sourceHash": "c66fb9ddb5f6c9621780cf9fbc0a43c98b5095f578b99e98a0cb8db4bee5b894"
        },
        "env": {
            "currentCoinbase": "0x2adc25665018aa1fe0e6bc666dac8fc2697ff9ba",
            "currentDifficulty": "0x20000",
            "currentGasLimit": "0x5f5e100",
            "currentNumber": "0x1",
            "currentTimestamp": "0x3e8",
            "previousHash": "0x5e20a0453cecd065ea59c37ac63e079ee08998b6045136a8ce6635c7912ec0b6"
        },
        "pre": {
            "0x095e7baea6a6c7c4c2dfeb977efac326af552d87": {
                "code": "0x74600c60005566602060406000f060205260076039f36000526015600b6001f060005560006000600060006000546103e8fa506000600035146040575a6048565b622fffff6000205b00",
                "balance": "0x3e8",
                "nonce": "0x0"
            },
            "0xa94f5374fce5edbc8e2a8697c15331677e6ebf0b": {
                "code": "0x",
                "balance": "0x5f5e100",
                "nonce": "0x0"
            }
        },
        "transaction": {
            "gasPrice": "0xa",
            "nonce": "0x0",
            "to": "0x095e7baea6a6c7c4c2dfeb977efac326af552d87",
            "data": [
                "0x00",
                "0x01"
            ],
            "gasLimit": [
                "0x1e8480"
            ],
            "value": [
                "0x00"
            ],
            "secretKey": "0x45a915e4d060149eb4365960e6a7a45f334393093061116b197e3240065ff2d8",
            "sender": "0xa94f5374fce5edbc8e2a8697c15331677e6ebf0b"
        },
        "post": {
            "ETC_Magneto": [
                {
                    "hash": "7d6ea5e19902ae43c32f75e8dcb2815165ad31932d92e8fad04c8523267d7155",
                    "logs": "1dcc4de8dec75d7aab85b567b6ccd41ad312451b948a7413f0a142fd40d49347",
                    "txbytes": "0xf860800a831e848094095e7baea6a6c7c4c2dfeb977efac326af552d8780011ba01d35ebc28eea412cc5f51a5e0af347596f089556e344a71e72870219819401f1a038a6623e736915a310ceaff80583125e561bb254e4abbbfcb8e5127701cbb273",
                    "indexes": {
                        "data": 1,
                        "gas": 0,
                        "value": 0
                    }
                },
                {
                    "hash": "244984ac680f1c043ee08640467c052ac0fe553770c98afdb2409f8dbf0e088d",
                    "logs": "1dcc4de8dec75d7aab85b567b6ccd41ad312451b948a7413f0a142fd40d49347",
                    "txbytes": "0xf860800a831e848094095e7baea6a6c7c4c2dfeb977efac326af552d8780001ca0b88e51b17644102b6b3a4b852aca9a7431fcbb9f842d8c8e1694a4b1a0a5813ca06040d5dab054f24ca4820829578938719db02c2b5c06fcb5450da66cfd14f332",
                    "indexes": {
                        "data": 0,
                        "gas": 0,
                        "value": 0
                    }
                }
            ],
            "ETC_Mystique": [
                {
                    "hash": "7d6ea5e19902ae43c32f75e8dcb2815165ad31932d92e8fad04c8523267d7155",
                    "logs": "1dcc4de8dec75d7aab85b567b6ccd41ad312451b948a7413f0a142fd40d49347",
                    "txbytes": "0xf860800a831e848094095e7baea6a6c7c4c2dfeb977efac326af552d8780011ba01d35ebc28eea412cc5f51a5e0af347596f089556e344a71e72870219819401f1a038a6623e736915a310ceaff80583125e561bb254e4abbbfcb8e5127701cbb273",
                    "indexes": {
                        "data": 1,
                        "gas": 0,
                        "value": 0
                    }
                },
                {
                    "hash": "244984ac680f1c043ee08640467c052ac0fe553770c98afdb2409f8dbf0e088d",
                    "logs": "1dcc4de8dec75d7aab85b567b6ccd41ad312451b948a7413f0a142fd40d49347",
                    "txbytes": "0xf860800a831e848094095e7baea6a6c7c4c2dfeb977efac326af552d8780001ca0b88e51b17644102b6b3a4b852aca9a7431fcbb9f842d8c8e1694a4b1a0a5813ca06040d5dab054f24ca4820829578938719db02c2b5c06fcb5450da66cfd14f332",
                    "indexes": {
                        "data": 0,
                        "gas": 0,
                        "value": 0
                    }
                }
            ],
            "ETC_Phoenix": [
                {
                    "hash": "a69449cd5e5168eedb7540b516d03e984a87273e9f532c837c2d61be1b181f77",
                    "logs": "1dcc4de8dec75d7aab85b567b6ccd41ad312451b948a7413f0a142fd40d49347",
                    "txbytes": "0xf860800a831e848094095e7baea6a6c7c4c2dfeb977efac326af552d8780011ba01d35ebc28eea412cc5f51a5e0af347596f089556e344a71e72870219819401f1a038a6623e736915a310ceaff80583125e561bb254e4abbbfcb8e5127701cbb273",
                    "indexes": {
                        "data": 1,
                        "gas": 0,
                        "value": 0
                    }
                },
                {
                    "hash": "244984ac680f1c043ee08640467c052ac0fe553770c98afdb2409f8dbf0e088d",
                    "logs": "1dcc4de8dec75d7aab85b567b6ccd41ad312451b948a7413f0a142fd40d49347",
                    "txbytes": "0xf860800a831e848094095e7baea6a6c7c4c2dfeb977efac326af552d8780001ca0b88e51b17644102b6b3a4b852aca9a7431fcbb9f842d8c8e1694a4b1a0a5813ca06040d5dab054f24ca4820829578938719db02c2b5c06fcb5450da66cfd14f332",
                    "indexes": {
                        "data": 0,
                        "gas": 0,
                        "value": 0
                    }
                }
            ]
        }
    }
}