{
    "CallLowLevelCreatesSolidity": {
        "_info": {
            "comment": "",
            "filling-rpc-server": "evm version 1.10.16-unstable-0f893109-20220105",
            "filling-tool-version": "retesteth-0.2.2-testinfo+commit.01c6aac2.Linux.g++",
            "filledWith": "CoreGeth-1.12.9-unstable-f4059ddd82d975bdc54fa648e5422a80172161cb",
            "lllcversion": "Version: 0.5.14-develop.2021.11.27+commit.401d5358.Linux.g++",
            "source": "src/GeneralStateTestsFiller/stSolidityTest/CallLowLevelCreatesSolidityFiller.json",
            "sourceHash": "ebc001f7e04bc306349f31ad3851381e08c62b45358a4f96d0282e8022783347"
        },
        "env": {
            "currentCoinbase": "2adc25665018aa1fe0e6bc666dac8fc2697ff9ba",
            "currentDifficulty": "0x20000",
            "currentRandom": null,
            "currentGasLimit": "0x5f5e100",
            "currentNumber": "0x1",
            "currentTimestamp": "0x3e8",
            "currentBaseFee": "0xa"
        },
        "pre": {
            "0x095e7baea6a6c7c4c2dfeb977efac326af552d87": {
                "code": "0x60003560e060020a9004806330debb4214610021578063c04062261461003257005b61002c6004356100c7565b60006000f35b61003a610044565b8060005260206000f35b60006000600160008190555073095e7baea6a6c7c4c2dfeb977efac326af552d87600181905550606a6100d2600039606a60006000f0905080600160a060020a03166319ab453c600060008260e060020a026000526004600154600160a060020a03168152602001600060008660325a03f16100bc57005b505060005491505090565b80600081905550505600605e80600c6000396000f30060003560e060020a9004806319ab453c14601557005b601e6004356024565b60006000f35b80600160a060020a03166330debb42600060008260e060020a02600052600460e18152602001600060008660325a03f1605957005b50505056",
                "balance": "0x186a0"
            },
            "0xa94f5374fce5edbc8e2a8697c15331677e6ebf0b": {
                "balance": "0x5f5e100"
            }
        },
        "transaction": {
            "gasPrice": "0xa",
            "maxFeePerGas": null,
            "maxPriorityFeePerGas": null,
            "nonce": "0x0",
            "to": "0x095e7baea6a6c7c4c2dfeb977efac326af552d87",
            "data": [
                "0xc0406226"
            ],
            "gasLimit": [
                "0x55730"
            ],
            "value": [
                "0x01"
            ],
            "secretKey": "0x45a915e4d060149eb4365960e6a7a45f334393093061116b197e3240065ff2d8"
        },
        "out": "0x",
        "post": {
            "ETC_Magneto": [
                {
                    "hash": "5668f4b9bc281b46b5273244789133685e3dd3d1be9aea59939a38966e952bf3",
                    "logs": "1dcc4de8dec75d7aab85b567b6ccd41ad312451b948a7413f0a142fd40d49347",
                    "txbytes": "0xf864800a8305573094095e7baea6a6c7c4c2dfeb977efac326af552d870184c04062261ca08ace2d28de65f8c8518280a42df3cb6691db78cd335dd296a5e805dd6e19f8b0a0473dc62994ef0bc26438486640fd602903e2076ec6af601c728ba1f1fa8aab64",
                    "indexes": {
                        "data": 0,
                        "gas": 0,
                        "value": 0
                    }
                }
            ],
            "ETC_Mystique": [
                {
                    "hash": "5668f4b9bc281b46b5273244789133685e3dd3d1be9aea59939a38966e952bf3",
                    "logs": "1dcc4de8dec75d7aab85b567b6ccd41ad312451b948a7413f0a142fd40d49347",
                    "txbytes": "0xf864800a8305573094095e7baea6a6c7c4c2dfeb977efac326af552d870184c04062261ca08ace2d28de65f8c8518280a42df3cb6691db78cd335dd296a5e805dd6e19f8b0a0473dc62994ef0bc26438486640fd602903e2076ec6af601c728ba1f1fa8aab64",
                    "indexes": {
                        "data": 0,
                        "gas": 0,
                        "value": 0
                    }
                }
            ],
            "ETC_Phoenix": [
                {
                    "hash": "cbedd1e15d2ebc46de674b0063e2777c80366ebd4de685fa6285e050fbca157a",
                    "logs": "1dcc4de8dec75d7aab85b567b6ccd41ad312451b948a7413f0a142fd40d49347",
                    "txbytes": "0xf864800a8305573094095e7baea6a6c7c4c2dfeb977efac326af552d870184c04062261ca08ace2d28de65f8c8518280a42df3cb6691db78cd335dd296a5e805dd6e19f8b0a0473dc62994ef0bc26438486640fd602903e2076ec6af601c728ba1f1fa8aab64",
                    "indexes": {
                        "data": 0,
                        "gas": 0,
                        "value": 0
                    }
                }
            ]
        }
    }
}