{
    "SelfDestruct": {
        "_info": {
            "comment": "Ori Pomerantz qbzzt1@gmail.com",
            "filling-rpc-server": "evm version 1.10.16-unstable-0f893109-20220105",
            "filling-tool-version": "retesteth-0.2.2-testinfo+commit.01c6aac2.Linux.g++",
            "filledWith": "CoreGeth-1.12.9-unstable-f4059ddd82d975bdc54fa648e5422a80172161cb",
            "lllcversion": "Version: 0.5.14-develop.2021.11.27+commit.401d5358.Linux.g++",
            "source": "src/GeneralStateTestsFiller/stSolidityTest/SelfDestructFiller.yml",
            "sourceHash": "6e675c62fa42d2f7adacab92ebec7503386244ca2e3eb9894b7c3c40487230b7"
        },
        "env": {
            "currentCoinbase": "2adc25665018aa1fe0e6bc666dac8fc2697ff9ba",
            "currentDifficulty": "0x20000",
            "currentRandom": null,
            "currentGasLimit": "0x5f5e100",
            "currentNumber": "0x1",
            "currentTimestamp": "0x3e8",
            "currentBaseFee": "0xa"
        },
        "pre": {
            "0x0000000000000000000000000000000000000001": {
                "balance": "0x1"
            },
            "0x0000000000000000000000000000000000000002": {
                "balance": "0x1"
            },
            "0x0000000000000000000000000000000000000003": {
                "balance": "0x1"
            },
            "0xa94f5374fce5edbc8e2a8697c15331677e6ebf0b": {
                "balance": "0xba1a9ce0ba1a9ce"
            },
            "0xcccccccccccccccccccccccccccccccccccccccc": {
                "code": "0x608060405234801561001057600080fd5b506004361061002b5760003560e01c80634cbe9d7214610030575b600080fd5b61004a60048036038101906100459190610280565b61004c565b005b600060018214156100cf5773dead00000000000000000000000000000000000190508073ffffffffffffffffffffffffffffffffffffffff1663b0bea7256040518163ffffffff1660e01b8152600401600060405180830381600087803b1580156100b657600080fd5b505af11580156100ca573d6000803e3d6000fd5b505050505b60028214156101505773dead00000000000000000000000000000000000290508073ffffffffffffffffffffffffffffffffffffffff1663b0bea7256040518163ffffffff1660e01b8152600401600060405180830381600087803b15801561013757600080fd5b505af115801561014b573d6000803e3d6000fd5b505050505b60038214156101d15773dead00000000000000000000000000000000000390508073ffffffffffffffffffffffffffffffffffffffff1663b0bea7256040518163ffffffff1660e01b8152600401600060405180830381600087803b1580156101b857600080fd5b505af11580156101cc573d6000803e3d6000fd5b505050505b73dead00000000000000000000000000000000000173ffffffffffffffffffffffffffffffffffffffff163160018190555073dead00000000000000000000000000000000000273ffffffffffffffffffffffffffffffffffffffff163160028190555073dead00000000000000000000000000000000000373ffffffffffffffffffffffffffffffffffffffff16316003819055505050565b60008135905061027a816102bc565b92915050565b600060208284031215610296576102956102b7565b5b60006102a48482850161026b565b91505092915050565b6000819050919050565b600080fd5b6102c5816102ad565b81146102d057600080fd5b5056fea2646970667358221220182e805de1a564e35f1d58a3184fbfba827df3008a24638e3747115525f094a964736f6c63430008050033",
                "balance": "0xba1a9ce0ba1a9ce"
            },
            "0xdead000000000000000000000000000000000001": {
                "code": "0x60806040526004361060265760003560e01c80632c3f2bf314602b578063b0bea72514603f575b600080fd5b348015603657600080fd5b50603d6047565b005b60456061565b005b600273ffffffffffffffffffffffffffffffffffffffff16ff5b3073ffffffffffffffffffffffffffffffffffffffff16632c3f2bf36040518163ffffffff1660e01b8152600401600060405180830381600087803b15801560a857600080fd5b505af115801560bb573d6000803e3d6000fd5b50505050600173ffffffffffffffffffffffffffffffffffffffff16fffea264697066735822122042cfca3dfe925edf7ef3a3303605413df5fffc6eb3fa5f0ffd5c60ef50605dbe64736f6c63430008050033",
                "balance": "0xffffffffffffff"
            },
            "0xdead000000000000000000000000000000000002": {
                "code": "0x60806040526004361060265760003560e01c80632c3f2bf314602b578063b0bea72514603f575b600080fd5b348015603657600080fd5b50603d6047565b005b60456060565b005b3073ffffffffffffffffffffffffffffffffffffffff16ff5b3073ffffffffffffffffffffffffffffffffffffffff16632c3f2bf36040518163ffffffff1660e01b8152600401600060405180830381600087803b15801560a757600080fd5b505af115801560ba573d6000803e3d6000fd5b50505050600373ffffffffffffffffffffffffffffffffffffffff16fffea264697066735822122087bf5104370e6124fe1599b9a5b3a0c40416c81b3f8c9a970cd2a50065c15c1764736f6c63430008050033",
                "balance": "0xffffffffffffff"
            },
            "0xdead000000000000000000000000000000000003": {
                "code": "0x60806040526004361060265760003560e01c80632c3f2bf314602b578063b0bea72514603f575b600080fd5b348015603657600080fd5b50603d6047565b005b60456060565b005b3073ffffffffffffffffffffffffffffffffffffffff16ff5b3073ffffffffffffffffffffffffffffffffffffffff16632c3f2bf36040518163ffffffff1660e01b8152600401600060405180830381600087803b15801560a757600080fd5b505af115801560ba573d6000803e3d6000fd5b505050503073ffffffffffffffffffffffffffffffffffffffff16fffea264697066735822122052e9a243e6b2b389daa590b1d3083716c79bb44736847bbe9b749fe0e65d3cf564736f6c63430008050033",
                "balance": "0xffffffffffffff"
            }
        },
        "transaction": {
            "gasPrice": "0xa",
            "maxFeePerGas": null,
            "maxPriorityFeePerGas": null,
            "nonce": "0x0",
            "to": "0xcccccccccccccccccccccccccccccccccccccccc",
            "data": [
                "0x4cbe9d720000000000000000000000000000000000000000000000000000000000000001",
                "0x4cbe9d720000000000000000000000000000000000000000000000000000000000000002",
                "0x4cbe9d720000000000000000000000000000000000000000000000000000000000000003"
            ],
            "gasLimit": [
                "0x4c4b400"
            ],
            "value": [
                "0x00"
            ],
            "secretKey": "0x45a915e4d060149eb4365960e6a7a45f334393093061116b197e3240065ff2d8"
        },
        "out": "0x",
        "post": {
            "ETC_Magneto": [
                {
                    "hash": "8bcba8fac288a1e209141d5092577fd38d8fc8565356624d9dcc2e5476456d58",
                    "logs": "1dcc4de8dec75d7aab85b567b6ccd41ad312451b948a7413f0a142fd40d49347",
                    "txbytes": "0xf885800a8404c4b40094cccccccccccccccccccccccccccccccccccccccc80a44cbe9d7200000000000000000000000000000000000000000000000000000000000000011ca07ee587728d69bf6fda01d0b64324ecd83bbc2731abf2269cf1ca028af249b5e5a02a030c04af0624e1aa7b80982da45909d91613dea37d9d2070d489ac56f93b92",
                    "indexes": {
                        "data": 0,
                        "gas": 0,
                        "value": 0
                    }
                },
                {
                    "hash": "4d4546ab444b3cd559105ab23257e505ae6a52b51e6fcd3fa4363d314f5cfdd3",
                    "logs": "1dcc4de8dec75d7aab85b567b6ccd41ad312451b948a7413f0a142fd40d49347",
                    "txbytes": "0xf885800a8404c4b40094cccccccccccccccccccccccccccccccccccccccc80a44cbe9d7200000000000000000000000000000000000000000000000000000000000000021ba0aea46c501360cdd1d1456da991bba2f707e4a19f641aba76487a241ac063acc6a033b91852533f2854d429af54a57737d7e0bcad9043db6d2801a78d9c369b40c6",
                    "indexes": {
                        "data": 1,
                        "gas": 0,
                        "value": 0
                    }
                },
                {
                    "hash": "0208b7de97767ae70dee8778f22fbd8e5cbd77c6ce2314d312ad5e1911e954da",
                    "logs": "1dcc4de8dec75d7aab85b567b6ccd41ad312451b948a7413f0a142fd40d49347",
                    "txbytes": "0xf885800a8404c4b40094cccccccccccccccccccccccccccccccccccccccc80a44cbe9d7200000000000000000000000000000000000000000000000000000000000000031ca0b2f5c812025b571b714ea93e6ac1f9feae4ff7ef3c6bd28773d44f643817295fa03cfb547cc8a995f739f5aa6918bdc4aba1b246dc2f3fe362a2c449e329398525",
                    "indexes": {
                        "data": 2,
                        "gas": 0,
                        "value": 0
                    }
                }
            ],
            "ETC_Mystique": [
                {
                    "hash": "2cc97899828252cd542b2fa84a2c621de4bbe99e1ee5000863cccbdf06fe584d",
                    "logs": "1dcc4de8dec75d7aab85b567b6ccd41ad312451b948a7413f0a142fd40d49347",
                    "txbytes": "0xf885800a8404c4b40094cccccccccccccccccccccccccccccccccccccccc80a44cbe9d7200000000000000000000000000000000000000000000000000000000000000011ca07ee587728d69bf6fda01d0b64324ecd83bbc2731abf2269cf1ca028af249b5e5a02a030c04af0624e1aa7b80982da45909d91613dea37d9d2070d489ac56f93b92",
                    "indexes": {
                        "data": 0,
                        "gas": 0,
                        "value": 0
                    }
                },
                {
                    "hash": "118e74490ef4df01f608fde3bba8eb61206642fd9468c8a9b29f4110bb916a69",
                    "logs": "1dcc4de8dec75d7aab85b567b6ccd41ad312451b948a7413f0a142fd40d49347",
                    "txbytes": "0xf885800a8404c4b40094cccccccccccccccccccccccccccccccccccccccc80a44cbe9d7200000000000000000000000000000000000000000000000000000000000000021ba0aea46c501360cdd1d1456da991bba2f707e4a19f641aba76487a241ac063acc6a033b91852533f2854d429af54a57737d7e0bcad9043db6d2801a78d9c369b40c6",
                    "indexes": {
                        "data": 1,
                        "gas": 0,
                        "value": 0
                    }
                },
                {
                    "hash": "af306817ba010ff0c8e7f3658dc0ca2131c7a3e8888d1714d3ae007e164b747c",
                    "logs": "1dcc4de8dec75d7aab85b567b6ccd41ad312451b948a7413f0a142fd40d49347",
                    "txbytes": "0xf885800a8404c4b40094cccccccccccccccccccccccccccccccccccccccc80a44cbe9d7200000000000000000000000000000000000000000000000000000000000000031ca0b2f5c812025b571b714ea93e6ac1f9feae4ff7ef3c6bd28773d44f643817295fa03cfb547cc8a995f739f5aa6918bdc4aba1b246dc2f3fe362a2c449e329398525",
                    "indexes": {
                        "data": 2,
                        "gas": 0,
                        "value": 0
                    }
                }
            ],
            "ETC_Phoenix": [
                {
                    "hash": "e1641ba4d3c14e21e3d601c92af432a2ef8aa89230fd45e835c2384f220e4bdb",
                    "logs": "1dcc4de8dec75d7aab85b567b6ccd41ad312451b948a7413f0a142fd40d49347",
                    "txbytes": "0xf885800a8404c4b40094cccccccccccccccccccccccccccccccccccccccc80a44cbe9d7200000000000000000000000000000000000000000000000000000000000000011ca07ee587728d69bf6fda01d0b64324ecd83bbc2731abf2269cf1ca028af249b5e5a02a030c04af0624e1aa7b80982da45909d91613dea37d9d2070d489ac56f93b92",
                    "indexes": {
                        "data": 0,
                        "gas": 0,
                        "value": 0
                    }
                },
                {
                    "hash": "8f50c29939382c2b97a55c0be2b539138361d872c4560f7ede3bf153f78e2edf",
                    "logs": "1dcc4de8dec75d7aab85b567b6ccd41ad312451b948a7413f0a142fd40d49347",
                    "txbytes": "0xf885800a8404c4b40094cccccccccccccccccccccccccccccccccccccccc80a44cbe9d7200000000000000000000000000000000000000000000000000000000000000021ba0aea46c501360cdd1d1456da991bba2f707e4a19f641aba76487a241ac063acc6a033b91852533f2854d429af54a57737d7e0bcad9043db6d2801a78d9c369b40c6",
                    "indexes": {
                        "data": 1,
                        "gas": 0,
                        "value": 0
                    }
                },
                {
                    "hash": "d6ce667335c8138bf37e66f83d92a9f443091c7a5c9eb9fb08d6046a54f72997",
                    "logs": "1dcc4de8dec75d7aab85b567b6ccd41ad312451b948a7413f0a142fd40d49347",
                    "txbytes": "0xf885800a8404c4b40094cccccccccccccccccccccccccccccccccccccccc80a44cbe9d7200000000000000000000000000000000000000000000000000000000000000031ca0b2f5c812025b571b714ea93e6ac1f9feae4ff7ef3c6bd28773d44f643817295fa03cfb547cc8a995f739f5aa6918bdc4aba1b246dc2f3fe362a2c449e329398525",
                    "indexes": {
                        "data": 2,
                        "gas": 0,
                        "value": 0
                    }
                }
            ]
        }
    }
}