{
    "TestCryptographicFunctions": {
        "_info": {
            "comment": "",
            "filling-rpc-server": "evm version 1.10.16-unstable-0f893109-20220105",
            "filling-tool-version": "retesteth-0.2.2-testinfo+commit.01c6aac2.Linux.g++",
            "filledWith": "CoreGeth-1.12.9-unstable-f4059ddd82d975bdc54fa648e5422a80172161cb",
            "lllcversion": "Version: 0.5.14-develop.2021.11.27+commit.401d5358.Linux.g++",
            "source": "src/GeneralStateTestsFiller/stSolidityTest/TestCryptographicFunctionsFiller.json",
            "sourceHash": "67c27ec57e27cf3eadfe1e236360992428a3c6ff18904c0ce877844d9f2e0824"
        },
        "env": {
            "currentCoinbase": "2adc25665018aa1fe0e6bc666dac8fc2697ff9ba",
            "currentDifficulty": "0x20000",
            "currentRandom": null,
            "currentGasLimit": "0x7fffffffffffffff",
            "currentNumber": "0x1",
            "currentTimestamp": "0x3e8",
            "currentBaseFee": "0xa"
        },
        "pre": {
            "0x095e7baea6a6c7c4c2dfeb977efac326af552d87": {
                "code": "0x6000357c010000000000000000000000000000000000000000000000000000000090048063c04062261461003a578063e0a9fd281461004c57005b61004261005e565b8060005260206000f35b610054610099565b8060005260206000f35b6000610068610099565b600060006101000a81548160ff02191690830217905550600060009054906101000a900460ff169050610096565b90565b60006001905080507f43c4b4524adb81e4e9a5c4648a98e9d320e3908ac5b6c889144b642cd08ae16d60010260407f74657374737472696e67000000000000000000000000000000000000000000008152600a016040900360402014156100ff57610108565b600090506102ec565b7f3c8727e019a42b444667a587b6001251becadabbb36bfed8087a92c18882d11160010260026020600060007f74657374737472696e67000000000000000000000000000000000000000000008152600a0160006000856161da5a03f161016b57005b50600051141561017a57610183565b600090506102ec565b73cd566972b5e50104011a92b59fa8e0b1234851ae6c010000000000000000000000000260036020600060007f74657374737472696e67000000000000000000000000000000000000000000008152600a0160006000856161da5a03f16101e657005b506000516c010000000000000000000000000214156102045761020d565b600090506102ec565b73a94f5374fce5edbc8e2a8697c15331677e6ebf0b60016020600060007f18c547e4f7b0f325ad1e56f57e26c745b09a3e503d86e00e5255ff7f715d3d1c6001028152602001601c81526020017f73b1693892219d736caba55bdb67216e485557ea6b6af75f37096c9aa6a5a75f60010281526020017feeb940b1d03b21e36b0e47e79769f095fe2ab855bd91e3a38756b7d75a9c4549600102815260200160006000856161da5a03f16102bd57005b5060005173ffffffffffffffffffffffffffffffffffffffff1614156102e2576102eb565b600090506102ec565b5b9056",
                "balance": "0x186a0"
            },
            "0xa94f5374fce5edbc8e2a8697c15331677e6ebf0b": {
                "balance": "0x12a05f200"
            }
        },
        "transaction": {
            "gasPrice": "0xa",
            "maxFeePerGas": null,
            "maxPriorityFeePerGas": null,
            "nonce": "0x0",
            "to": "0x095e7baea6a6c7c4c2dfeb977efac326af552d87",
            "data": [
                "0xc0406226"
            ],
            "gasLimit": [
                "0x2160ec0"
            ],
            "value": [
                "0x64"
            ],
            "secretKey": "0x45a915e4d060149eb4365960e6a7a45f334393093061116b197e3240065ff2d8"
        },
        "out": "0x",
        "post": {
            "ETC_Magneto": [
                {
                    "hash": "782cbfb2abaf8a350ae06c9fb468753e3500769abcb07bb1a11643b5b24fc7d4",
                    "logs": "1dcc4de8dec75d7aab85b567b6ccd41ad312451b948a7413f0a142fd40d49347",
                    "txbytes": "0xf865800a8402160ec094095e7baea6a6c7c4c2dfeb977efac326af552d876484c04062261ba09be8285a68ffe1902fc5456c3467b938eb63a7c200658253fdf6f0da53807e28a01aa7e0ebbd734a0b7f3f1d58650f6964a2ae7ef400127b0f2b363573cc0729dc",
                    "indexes": {
                        "data": 0,
                        "gas": 0,
                        "value": 0
                    }
                }
            ],
            "ETC_Mystique": [
                {
                    "hash": "782cbfb2abaf8a350ae06c9fb468753e3500769abcb07bb1a11643b5b24fc7d4",
                    "logs": "1dcc4de8dec75d7aab85b567b6ccd41ad312451b948a7413f0a142fd40d49347",
                    "txbytes": "0xf865800a8402160ec094095e7baea6a6c7c4c2dfeb977efac326af552d876484c04062261ba09be8285a68ffe1902fc5456c3467b938eb63a7c200658253fdf6f0da53807e28a01aa7e0ebbd734a0b7f3f1d58650f6964a2ae7ef400127b0f2b363573cc0729dc",
                    "indexes": {
                        "data": 0,
                        "gas": 0,
                        "value": 0
                    }
                }
            ],
            "ETC_Phoenix": [
                {
                    "hash": "7e82139cb2a68422f751af69ba70f2270212cd2eaa42bbab65f360b3e5a6d7e1",
                    "logs": "1dcc4de8dec75d7aab85b567b6ccd41ad312451b948a7413f0a142fd40d49347",
                    "txbytes": "0xf865800a8402160ec094095e7baea6a6c7c4c2dfeb977efac326af552d876484c04062261ba09be8285a68ffe1902fc5456c3467b938eb63a7c200658253fdf6f0da53807e28a01aa7e0ebbd734a0b7f3f1d58650f6964a2ae7ef400127b0f2b363573cc0729dc",
                    "indexes": {
                        "data": 0,
                        "gas": 0,
                        "value": 0
                    }
                }
            ]
        }
    }
}