{
    "TestStructuresAndVariabless": {
        "_info": {
            "comment": "",
            "filling-rpc-server": "evm version 1.10.16-unstable-0f893109-20220105",
            "filling-tool-version": "retesteth-0.2.2-testinfo+commit.01c6aac2.Linux.g++",
            "filledWith": "CoreGeth-1.12.9-unstable-d64998ce9b05f4f41b35740c69c4b402e41a3105",
            "lllcversion": "Version: 0.5.14-develop.2021.11.27+commit.401d5358.Linux.g++",
            "source": "src/GeneralStateTestsFiller/stSolidityTest/TestStructuresAndVariablessFiller.json",
            "sourceHash": "db9230741e4c7c6f7cccf2b3df4f8726f3dc0df809dbd93d57099da2c0e12973"
        },
        "env": {
            "currentCoinbase": "0x2adc25665018aa1fe0e6bc666dac8fc2697ff9ba",
            "currentDifficulty": "0x20000",
            "currentGasLimit": "0x7fffffffffffffff",
            "currentNumber": "0x1",
            "currentTimestamp": "0x3e8",
            "previousHash": "0x5e20a0453cecd065ea59c37ac63e079ee08998b6045136a8ce6635c7912ec0b6"
        },
        "pre": {
            "0x095e7baea6a6c7c4c2dfeb977efac326af552d87": {
                "code": "0x7c010000000000000000000000000000000000000000000000000000000060003504632a9afb838114610039578063c04062261461004b57005b61004161005d565b8060005260206000f35b61005361016c565b8060005260206000f35b600160ff8154141561006e57610076565b506000610169565b60015460035414156100875761008f565b506000610169565b73a94f5374fce5edbc8e2a8697c15331677e6ebf0b73ffffffffffffffffffffffffffffffffffffffff60016002540481161614156100cd576100d5565b506000610169565b7f676c6f62616c2064617461203332206c656e67746820737472696e670000000060045414156101045761010c565b506000610169565b6005600080815260200190815260200160002060009054906101000a900473ffffffffffffffffffffffffffffffffffffffff1673a94f5374fce5edbc8e2a8697c15331677e6ebf0b141561016057610168565b506000610169565b5b90565b600060ff806001555073a94f5374fce5edbc8e2a8697c15331677e6ebf0b6002805473ffffffffffffffffffffffffffffffffffffffff1916821790555060ff80600355507f676c6f62616c2064617461203332206c656e67746820737472696e6700000000806004555073a94f5374fce5edbc8e2a8697c15331677e6ebf0b6005600080815260200190815260200160002060006101000a81548173ffffffffffffffffffffffffffffffffffffffff0219169083021790555061022f61005d565b600060006101000a81548160ff0219169083021790555060ff6001600054041690509056",
                "balance": "0x186a0"
            },
            "0xa94f5374fce5edbc8e2a8697c15331677e6ebf0b": {
                "balance": "0x2540be400"
            }
        },
        "transaction": {
            "gasPrice": "0xa",
            "nonce": "0x0",
            "to": "0x095e7baea6a6c7c4c2dfeb977efac326af552d87",
            "data": [
                "0xc0406226"
            ],
            "gasLimit": [
                "0x55730"
            ],
            "value": [
                "0x64"
            ],
            "secretKey": "0x45a915e4d060149eb4365960e6a7a45f334393093061116b197e3240065ff2d8",
            "sender": "0xa94f5374fce5edbc8e2a8697c15331677e6ebf0b"
        },
        "post": {
            "ETC_Magneto": [
                {
                    "hash": "8372d2710daec20535415fd7dedd47bf7908997c385d3693958d1dd9b1c7fe25",
                    "logs": "1dcc4de8dec75d7aab85b567b6ccd41ad312451b948a7413f0a142fd40d49347",
                    "txbytes": "0xf864800a8305573094095e7baea6a6c7c4c2dfeb977efac326af552d876484c04062261ba0a64fef6a7d43230fbfb29238aab1f14abbcea0cbc0677c89b82babbb264d0250a03539d0c0c3bd6a151f1658ed2c47c8aa133e0cdad7e5d6b8f8af45cbb013e771",
                    "indexes": {
                        "data": 0,
                        "gas": 0,
                        "value": 0
                    }
                }
            ],
            "ETC_Mystique": [
                {
                    "hash": "8372d2710daec20535415fd7dedd47bf7908997c385d3693958d1dd9b1c7fe25",
                    "logs": "1dcc4de8dec75d7aab85b567b6ccd41ad312451b948a7413f0a142fd40d49347",
                    "txbytes": "0xf864800a8305573094095e7baea6a6c7c4c2dfeb977efac326af552d876484c04062261ba0a64fef6a7d43230fbfb29238aab1f14abbcea0cbc0677c89b82babbb264d0250a03539d0c0c3bd6a151f1658ed2c47c8aa133e0cdad7e5d6b8f8af45cbb013e771",
                    "indexes": {
                        "data": 0,
                        "gas": 0,
                        "value": 0
                    }
                }
            ],
            "ETC_Phoenix": [
                {
                    "hash": "f14118182eef20a21d263491a291daa9e8d050a398d8c60ea02e02530d0ed2e8",
                    "logs": "1dcc4de8dec75d7aab85b567b6ccd41ad312451b948a7413f0a142fd40d49347",
                    "txbytes": "0xf864800a8305573094095e7baea6a6c7c4c2dfeb977efac326af552d876484c04062261ba0a64fef6a7d43230fbfb29238aab1f14abbcea0cbc0677c89b82babbb264d0250a03539d0c0c3bd6a151f1658ed2c47c8aa133e0cdad7e5d6b8f8af45cbb013e771",
                    "indexes": {
                        "data": 0,
                        "gas": 0,
                        "value": 0
                    }
                }
            ]
        }
    }
}