{
    "RevertPrefoundEmptyOOG": {
        "_info": {
            "comment": "",
            "filling-rpc-server": "evm version 1.10.16-unstable-0f893109-20220105",
            "filling-tool-version": "retesteth-0.2.2-testinfo+commit.01c6aac2.Linux.g++",
            "filledWith": "CoreGeth-1.12.9-unstable-4cf5b2b0837228e7d5eadba6a01ffb80e9288e21",
            "lllcversion": "Version: 0.5.14-develop.2021.11.27+commit.401d5358.Linux.g++",
            "source": "src/GeneralStateTestsFiller/stRevertTest/RevertPrefoundEmptyOOGFiller.json",
            "sourceHash": "8ec31aa88e15559a64d01503ba69b7ce62c1177c66933277957b083f5cb5b23a"
        },
        "env": {
            "currentCoinbase": "0x2adc25665018aa1fe0e6bc666dac8fc2697ff9ba",
            "currentDifficulty": "0x20000",
            "currentGasLimit": "0x989680",
            "currentNumber": "0x1",
            "currentTimestamp": "0x3e8",
            "previousHash": "0x5e20a0453cecd065ea59c37ac63e079ee08998b6045136a8ce6635c7912ec0b6"
        },
        "pre": {
            "0x7db299e0885c85039f56fa504a13dd8ce8a56aa7": {
                "code": "0x",
                "balance": "0x0",
                "nonce": "0x0"
            },
            "0xa000000000000000000000000000000000000000": {
                "code": "0x602060006000f0600055622fffff60002000",
                "balance": "0x1",
                "nonce": "0x0"
            },
            "0xa94f5374fce5edbc8e2a8697c15331677e6ebf0b": {
                "code": "0x",
                "balance": "0xe8d4a51000",
                "nonce": "0x0"
            }
        },
        "transaction": {
            "gasPrice": "0xa",
            "nonce": "0x0",
            "to": "0xa000000000000000000000000000000000000000",
            "data": [
                "0x"
            ],
            "gasLimit": [
                "0xe30d0"
            ],
            "value": [
                "0x00"
            ],
            "secretKey": "0x45a915e4d060149eb4365960e6a7a45f334393093061116b197e3240065ff2d8",
            "sender": "0xa94f5374fce5edbc8e2a8697c15331677e6ebf0b"
        },
        "post": {
            "ETC_Magneto": [
                {
                    "hash": "1cb14fea80a672ac71c7fd78a68d2aa2d4689db929c39c087561103b38a9c5cb",
                    "logs": "1dcc4de8dec75d7aab85b567b6ccd41ad312451b948a7413f0a142fd40d49347",
                    "txbytes": "0xf860800a830e30d094a00000000000000000000000000000000000000080801ca05c3f1e6773c901e467947ba168cd429e7d7a1ad7ecc450cf5c8f1cbc36336941a07440df464268bd7ba6e64c3d97b467794214530c45ccb2b463397f116e2a7bf2",
                    "indexes": {
                        "data": 0,
                        "gas": 0,
                        "value": 0
                    }
                }
            ],
            "ETC_Mystique": [
                {
                    "hash": "1cb14fea80a672ac71c7fd78a68d2aa2d4689db929c39c087561103b38a9c5cb",
                    "logs": "1dcc4de8dec75d7aab85b567b6ccd41ad312451b948a7413f0a142fd40d49347",
                    "txbytes": "0xf860800a830e30d094a00000000000000000000000000000000000000080801ca05c3f1e6773c901e467947ba168cd429e7d7a1ad7ecc450cf5c8f1cbc36336941a07440df464268bd7ba6e64c3d97b467794214530c45ccb2b463397f116e2a7bf2",
                    "indexes": {
                        "data": 0,
                        "gas": 0,
                        "value": 0
                    }
                }
            ],
            "ETC_Phoenix": [
                {
                    "hash": "1cb14fea80a672ac71c7fd78a68d2aa2d4689db929c39c087561103b38a9c5cb",
                    "logs": "1dcc4de8dec75d7aab85b567b6ccd41ad312451b948a7413f0a142fd40d49347",
                    "txbytes": "0xf860800a830e30d094a00000000000000000000000000000000000000080801ca05c3f1e6773c901e467947ba168cd429e7d7a1ad7ecc450cf5c8f1cbc36336941a07440df464268bd7ba6e64c3d97b467794214530c45ccb2b463397f116e2a7bf2",
                    "indexes": {
                        "data": 0,
                        "gas": 0,
                        "value": 0
                    }
                }
            ]
        }
    }
}