{
    "RevertPrefoundEmptyCall": {
        "_info": {
            "comment": "",
            "filling-rpc-server": "evm version 1.10.16-unstable-0f893109-20220105",
            "filling-tool-version": "retesteth-0.2.2-testinfo+commit.01c6aac2.Linux.g++",
            "filledWith": "CoreGeth-1.12.9-unstable-f4059ddd82d975bdc54fa648e5422a80172161cb",
            "lllcversion": "Version: 0.5.14-develop.2021.11.27+commit.401d5358.Linux.g++",
            "source": "src/GeneralStateTestsFiller/stRevertTest/RevertPrefoundEmptyCallFiller.json",
            "sourceHash": "f47cab6ca443dc79b7ac4dba77abcb3c8075f09a54cda540476262c40a5bc551"
        },
        "env": {
            "currentCoinbase": "2adc25665018aa1fe0e6bc666dac8fc2697ff9ba",
            "currentDifficulty": "0x20000",
            "currentRandom": null,
            "currentGasLimit": "0x989680",
            "currentNumber": "0x1",
            "currentTimestamp": "0x3e8",
            "currentBaseFee": "0xa"
        },
        "pre": {
            "0x7db299e0885c85039f56fa504a13dd8ce8a56aa7": {
                "balance": "0x0"
            },
            "0xa000000000000000000000000000000000000000": {
                "code": "0x60206000602060006000737db299e0885c85039f56fa504a13dd8ce8a56aa761c350f1600055600c60015500",
                "balance": "0x1"
            },
            "0xa94f5374fce5edbc8e2a8697c15331677e6ebf0b": {
                "balance": "0xe8d4a51000"
            }
        },
        "transaction": {
            "gasPrice": "0xa",
            "maxFeePerGas": null,
            "maxPriorityFeePerGas": null,
            "nonce": "0x0",
            "to": "0xa000000000000000000000000000000000000000",
            "data": [
                "0x"
            ],
            "gasLimit": [
                "0x16f30"
            ],
            "value": [
                "0x00"
            ],
            "secretKey": "0x45a915e4d060149eb4365960e6a7a45f334393093061116b197e3240065ff2d8"
        },
        "out": "0x",
        "post": {
            "ETC_Magneto": [
                {
                    "hash": "22ce7edb303a79763192ec1c013f20e91b6cca358a2c7511efb442c776ec54ae",
                    "logs": "1dcc4de8dec75d7aab85b567b6ccd41ad312451b948a7413f0a142fd40d49347",
                    "txbytes": "0xf860800a83016f3094a00000000000000000000000000000000000000080801ba05ccb788f6098ea99168081b2cf1612cf26ad39c6b024a8436d00ad2f4825ce60a04a2e3eebe2688b5b9503b21d7f2a6a2a8fbc5cd04f5335012beaf40ebb66792b",
                    "indexes": {
                        "data": 0,
                        "gas": 0,
                        "value": 0
                    }
                }
            ],
            "ETC_Mystique": [
                {
                    "hash": "22ce7edb303a79763192ec1c013f20e91b6cca358a2c7511efb442c776ec54ae",
                    "logs": "1dcc4de8dec75d7aab85b567b6ccd41ad312451b948a7413f0a142fd40d49347",
                    "txbytes": "0xf860800a83016f3094a00000000000000000000000000000000000000080801ba05ccb788f6098ea99168081b2cf1612cf26ad39c6b024a8436d00ad2f4825ce60a04a2e3eebe2688b5b9503b21d7f2a6a2a8fbc5cd04f5335012beaf40ebb66792b",
                    "indexes": {
                        "data": 0,
                        "gas": 0,
                        "value": 0
                    }
                }
            ],
            "ETC_Phoenix": [
                {
                    "hash": "0e20a51da36ee4b1c22f893c2cdf336d709757cc747758130674142550ec6795",
                    "logs": "1dcc4de8dec75d7aab85b567b6ccd41ad312451b948a7413f0a142fd40d49347",
                    "txbytes": "0xf860800a83016f3094a00000000000000000000000000000000000000080801ba05ccb788f6098ea99168081b2cf1612cf26ad39c6b024a8436d00ad2f4825ce60a04a2e3eebe2688b5b9503b21d7f2a6a2a8fbc5cd04f5335012beaf40ebb66792b",
                    "indexes": {
                        "data": 0,
                        "gas": 0,
                        "value": 0
                    }
                }
            ]
        }
    }
}