{
    "RevertDepth2": {
        "_info": {
            "comment": "",
            "filling-rpc-server": "evm version 1.10.16-unstable-0f893109-20220105",
            "filling-tool-version": "retesteth-0.2.2-testinfo+commit.01c6aac2.Linux.g++",
            "filledWith": "CoreGeth-1.12.9-unstable-d390462df9df233b60b4cd7a37db5b3043832022",
            "lllcversion": "Version: 0.5.14-develop.2021.11.27+commit.401d5358.Linux.g++",
            "source": "src/GeneralStateTestsFiller/stRevertTest/RevertDepth2Filler.json",
            "sourceHash": "fd4e022f5467b01030fe310ef970ee0495c007de5da1d83eae0b9f9a9bd65da5"
        },
        "env": {
            "currentCoinbase": "0x2adc25665018aa1fe0e6bc666dac8fc2697ff9ba",
            "currentDifficulty": "0x20000",
            "currentGasLimit": "0x989680",
            "currentNumber": "0x1",
            "currentTimestamp": "0x3e8",
            "previousHash": "0x5e20a0453cecd065ea59c37ac63e079ee08998b6045136a8ce6635c7912ec0b6"
        },
        "pre": {
            "0xa000000000000000000000000000000000000000": {
                "code": "0x6000546001016000556000600060006000600073b000000000000000000000000000000000000000620249f0f16001556000600060006000600073d000000000000000000000000000000000000000620249f0f160025500",
                "balance": "0x0",
                "nonce": "0x0"
            },
            "0xa94f5374fce5edbc8e2a8697c15331677e6ebf0b": {
                "code": "0x",
                "balance": "0xe8d4a51000",
                "nonce": "0x0"
            },
            "0xb000000000000000000000000000000000000000": {
                "code": "0x6000546001016000556000600060006000600073c00000000000000000000000000000000000000061c350f160015500",
                "balance": "0x0",
                "nonce": "0x0"
            },
            "0xc000000000000000000000000000000000000000": {
                "code": "0x60005460010160005500",
                "balance": "0x0",
                "nonce": "0x0"
            },
            "0xd000000000000000000000000000000000000000": {
                "code": "0x6000546001016000556000600060006000600073c00000000000000000000000000000000000000061c350f16001555a60025500",
                "balance": "0x0",
                "nonce": "0x0"
            }
        },
        "transaction": {
            "gasPrice": "0xa",
            "nonce": "0x0",
            "to": "0xa000000000000000000000000000000000000000",
            "data": [
                "0x"
            ],
            "gasLimit": [
                "0x29abd",
                "0x215ed"
            ],
            "value": [
                "0x00"
            ],
            "secretKey": "0x45a915e4d060149eb4365960e6a7a45f334393093061116b197e3240065ff2d8",
            "sender": "0xa94f5374fce5edbc8e2a8697c15331677e6ebf0b"
        },
        "post": {
            "ETC_Magneto": [
                {
                    "hash": "8c02a81ca160083053f0e5315047a6ee2dd16dda73ffeb93e7e849211fef6403",
                    "logs": "1dcc4de8dec75d7aab85b567b6ccd41ad312451b948a7413f0a142fd40d49347",
                    "txbytes": "0xf860800a83029abd94a00000000000000000000000000000000000000080801ba02ec44291d4924deede9387fffce7044b293843b4a8a1df3f14f286ba2763c903a0189d3c03e6b5091a550583a3ca9652614492640afca3a6d771e7e7fccbc2d34a",
                    "indexes": {
                        "data": 0,
                        "gas": 0,
                        "value": 0
                    }
                },
                {
                    "hash": "b2ef1345dbcaf639cddb8e12b3aae285c8a646d4de9e1536678cf04f797d93eb",
                    "logs": "1dcc4de8dec75d7aab85b567b6ccd41ad312451b948a7413f0a142fd40d49347",
                    "txbytes": "0xf860800a830215ed94a00000000000000000000000000000000000000080801ca0869d4b3d7d55f28dd035fe95350c73c7d44614d262140aeb234bd094e02f5987a0790b7c19fc801ee75c90a17f21dbd759ffaab23484df146f8fe49c5dfef57bd4",
                    "indexes": {
                        "data": 0,
                        "gas": 1,
                        "value": 0
                    }
                }
            ],
            "ETC_Mystique": [
                {
                    "hash": "8c02a81ca160083053f0e5315047a6ee2dd16dda73ffeb93e7e849211fef6403",
                    "logs": "1dcc4de8dec75d7aab85b567b6ccd41ad312451b948a7413f0a142fd40d49347",
                    "txbytes": "0xf860800a83029abd94a00000000000000000000000000000000000000080801ba02ec44291d4924deede9387fffce7044b293843b4a8a1df3f14f286ba2763c903a0189d3c03e6b5091a550583a3ca9652614492640afca3a6d771e7e7fccbc2d34a",
                    "indexes": {
                        "data": 0,
                        "gas": 0,
                        "value": 0
                    }
                },
                {
                    "hash": "b2ef1345dbcaf639cddb8e12b3aae285c8a646d4de9e1536678cf04f797d93eb",
                    "logs": "1dcc4de8dec75d7aab85b567b6ccd41ad312451b948a7413f0a142fd40d49347",
                    "txbytes": "0xf860800a830215ed94a00000000000000000000000000000000000000080801ca0869d4b3d7d55f28dd035fe95350c73c7d44614d262140aeb234bd094e02f5987a0790b7c19fc801ee75c90a17f21dbd759ffaab23484df146f8fe49c5dfef57bd4",
                    "indexes": {
                        "data": 0,
                        "gas": 1,
                        "value": 0
                    }
                }
            ],
            "ETC_Phoenix": [
                {
                    "hash": "8c02a81ca160083053f0e5315047a6ee2dd16dda73ffeb93e7e849211fef6403",
                    "logs": "1dcc4de8dec75d7aab85b567b6ccd41ad312451b948a7413f0a142fd40d49347",
                    "txbytes": "0xf860800a83029abd94a00000000000000000000000000000000000000080801ba02ec44291d4924deede9387fffce7044b293843b4a8a1df3f14f286ba2763c903a0189d3c03e6b5091a550583a3ca9652614492640afca3a6d771e7e7fccbc2d34a",
                    "indexes": {
                        "data": 0,
                        "gas": 0,
                        "value": 0
                    }
                },
                {
                    "hash": "b2ef1345dbcaf639cddb8e12b3aae285c8a646d4de9e1536678cf04f797d93eb",
                    "logs": "1dcc4de8dec75d7aab85b567b6ccd41ad312451b948a7413f0a142fd40d49347",
                    "txbytes": "0xf860800a830215ed94a00000000000000000000000000000000000000080801ca0869d4b3d7d55f28dd035fe95350c73c7d44614d262140aeb234bd094e02f5987a0790b7c19fc801ee75c90a17f21dbd759ffaab23484df146f8fe49c5dfef57bd4",
                    "indexes": {
                        "data": 0,
                        "gas": 1,
                        "value": 0
                    }
                }
            ]
        }
    }
}