{
    "RevertInDelegateCall": {
        "_info": {
            "comment": "",
            "filling-rpc-server": "evm version 1.10.16-unstable-0f893109-20220105",
            "filling-tool-version": "retesteth-0.2.2-testinfo+commit.01c6aac2.Linux.g++",
            "filledWith": "CoreGeth-1.12.9-unstable-f4059ddd82d975bdc54fa648e5422a80172161cb",
            "lllcversion": "Version: 0.5.14-develop.2021.11.27+commit.401d5358.Linux.g++",
            "source": "src/GeneralStateTestsFiller/stRevertTest/RevertInDelegateCallFiller.json",
            "sourceHash": "17beabdad04fd258f4cf584237788ff770af0c3e8e367ece6382f0ac1c385885"
        },
        "env": {
            "currentCoinbase": "2adc25665018aa1fe0e6bc666dac8fc2697ff9ba",
            "currentDifficulty": "0x20000",
            "currentRandom": null,
            "currentGasLimit": "0xf4240",
            "currentNumber": "0x1",
            "currentTimestamp": "0x3e8",
            "currentBaseFee": "0xa"
        },
        "pre": {
            "0x1000000000000000000000000000000000000000": {
                "code": "0x604060006040600073945304eb96065b2a98b57a48a06ae28d285a71b561c350f46000553d60015560206000603f3e603f5160025500",
                "balance": "0x3e8"
            },
            "0x945304eb96065b2a98b57a48a06ae28d285a71b5": {
                "code": "0x600a60205260206020fd00",
                "balance": "0x0"
            },
            "0xa94f5374fce5edbc8e2a8697c15331677e6ebf0b": {
                "balance": "0x5f5e100"
            }
        },
        "transaction": {
            "gasPrice": "0xa",
            "maxFeePerGas": null,
            "maxPriorityFeePerGas": null,
            "nonce": "0x0",
            "to": "0x1000000000000000000000000000000000000000",
            "data": [
                "0x"
            ],
            "gasLimit": [
                "0x19a54"
            ],
            "value": [
                "0x00"
            ],
            "secretKey": "0x45a915e4d060149eb4365960e6a7a45f334393093061116b197e3240065ff2d8"
        },
        "out": "0x",
        "post": {
            "ETC_Magneto": [
                {
                    "hash": "50aa2217ad949d30e70ee1bde012fc2127ee26c0ba55746c21957aca26f81095",
                    "logs": "1dcc4de8dec75d7aab85b567b6ccd41ad312451b948a7413f0a142fd40d49347",
                    "txbytes": "0xf860800a83019a5494100000000000000000000000000000000000000080801ba0a5f995ecdea1634598844fb12bf88f4128e99c411b7ca069e50b0082a30b4a93a053ef5ec7e2b4f168fed8387df495cbab666ff039a7c7ad5c188dc905e5ca02e8",
                    "indexes": {
                        "data": 0,
                        "gas": 0,
                        "value": 0
                    }
                }
            ],
            "ETC_Mystique": [
                {
                    "hash": "50aa2217ad949d30e70ee1bde012fc2127ee26c0ba55746c21957aca26f81095",
                    "logs": "1dcc4de8dec75d7aab85b567b6ccd41ad312451b948a7413f0a142fd40d49347",
                    "txbytes": "0xf860800a83019a5494100000000000000000000000000000000000000080801ba0a5f995ecdea1634598844fb12bf88f4128e99c411b7ca069e50b0082a30b4a93a053ef5ec7e2b4f168fed8387df495cbab666ff039a7c7ad5c188dc905e5ca02e8",
                    "indexes": {
                        "data": 0,
                        "gas": 0,
                        "value": 0
                    }
                }
            ],
            "ETC_Phoenix": [
                {
                    "hash": "d30a9c46d689c5fead9ce54e1b2f441bde1ed776daf747d9de01df716bbbbe2c",
                    "logs": "1dcc4de8dec75d7aab85b567b6ccd41ad312451b948a7413f0a142fd40d49347",
                    "txbytes": "0xf860800a83019a5494100000000000000000000000000000000000000080801ba0a5f995ecdea1634598844fb12bf88f4128e99c411b7ca069e50b0082a30b4a93a053ef5ec7e2b4f168fed8387df495cbab666ff039a7c7ad5c188dc905e5ca02e8",
                    "indexes": {
                        "data": 0,
                        "gas": 0,
                        "value": 0
                    }
                }
            ]
        }
    }
}