{
    "RevertOpcode": {
        "_info": {
            "comment": "",
            "filling-rpc-server": "evm version 1.10.16-unstable-0f893109-20220105",
            "filling-tool-version": "retesteth-0.2.2-testinfo+commit.01c6aac2.Linux.g++",
            "filledWith": "CoreGeth-1.12.9-unstable-d64998ce9b05f4f41b35740c69c4b402e41a3105",
            "lllcversion": "Version: 0.5.14-develop.2021.11.27+commit.401d5358.Linux.g++",
            "source": "src/GeneralStateTestsFiller/stRevertTest/RevertOpcodeFiller.json",
            "sourceHash": "90cf774d7f2028e669cb87828a6a59731e59acf524835fa4f35f99f9bbaf8e5b"
        },
        "env": {
            "currentCoinbase": "0x2adc25665018aa1fe0e6bc666dac8fc2697ff9ba",
            "currentDifficulty": "0x20000",
            "currentGasLimit": "0x989680",
            "currentNumber": "0x1",
            "currentTimestamp": "0x3e8",
            "previousHash": "0x5e20a0453cecd065ea59c37ac63e079ee08998b6045136a8ce6635c7912ec0b6"
        },
        "pre": {
            "0xa000000000000000000000000000000000000000": {
                "code": "0x600160005560016000fd6011600155",
                "balance": "0x0"
            },
            "0xa94f5374fce5edbc8e2a8697c15331677e6ebf0b": {
                "balance": "0xe8d4a51000"
            }
        },
        "transaction": {
            "gasPrice": "0xa",
            "nonce": "0x0",
            "to": "0xa000000000000000000000000000000000000000",
            "data": [
                "0x"
            ],
            "gasLimit": [
                "0xc3500",
                "0x7530"
            ],
            "value": [
                "0x00",
                "0x0a"
            ],
            "secretKey": "0x45a915e4d060149eb4365960e6a7a45f334393093061116b197e3240065ff2d8",
            "sender": "0xa94f5374fce5edbc8e2a8697c15331677e6ebf0b"
        },
        "post": {
            "ETC_Magneto": [
                {
                    "hash": "5d5467f157825e33c1789e9cb72b79a377de88a04bb225d2116c66eaf3ca7a8e",
                    "logs": "1dcc4de8dec75d7aab85b567b6ccd41ad312451b948a7413f0a142fd40d49347",
                    "txbytes": "0xf860800a830c350094a00000000000000000000000000000000000000080801ba051c79deec64c18d714ab3239621102ed949f893c0a3d1fcf29e3ea72cb9ac2c0a06d6c8f417b153259b1e270ddffc1496db1e2b6d379be8e173166d81fb883883c",
                    "indexes": {
                        "data": 0,
                        "gas": 0,
                        "value": 0
                    }
                },
                {
                    "hash": "5d5467f157825e33c1789e9cb72b79a377de88a04bb225d2116c66eaf3ca7a8e",
                    "logs": "1dcc4de8dec75d7aab85b567b6ccd41ad312451b948a7413f0a142fd40d49347",
                    "txbytes": "0xf860800a830c350094a0000000000000000000000000000000000000000a801ba082a68288f24608a2dc815428c23da90cd9000e34bc094bdfcff142e04e1fab06a04fa883562817dd9bcd3cce18ed8e6a7be03f28dc6fbeec906c108a8d13b17b1a",
                    "indexes": {
                        "data": 0,
                        "gas": 0,
                        "value": 1
                    }
                },
                {
                    "hash": "eb43feab9968e33acfe2a816dd1c8d9dd37facd37855196669afb95aa5e34d8a",
                    "logs": "1dcc4de8dec75d7aab85b567b6ccd41ad312451b948a7413f0a142fd40d49347",
                    "txbytes": "0xf85f800a82753094a00000000000000000000000000000000000000080801ba006fe387eaba6964d0093998376929d60a786e5c6a0299da2d24db435aa15fd99a03bf8c7744df8218fe09857857e916a4d95f38c0adc9a1c21c5ba8b17da72e50f",
                    "indexes": {
                        "data": 0,
                        "gas": 1,
                        "value": 0
                    }
                },
                {
                    "hash": "eb43feab9968e33acfe2a816dd1c8d9dd37facd37855196669afb95aa5e34d8a",
                    "logs": "1dcc4de8dec75d7aab85b567b6ccd41ad312451b948a7413f0a142fd40d49347",
                    "txbytes": "0xf85f800a82753094a0000000000000000000000000000000000000000a801ba0581def5a74f48ce448d465c9aea0dbf70e682c288ae9f7ed3a7abea8b2154f00a03be466020306b982fe46e1b81a6ca970aa4386063c107bc4a1695d79bbf96a1d",
                    "indexes": {
                        "data": 0,
                        "gas": 1,
                        "value": 1
                    }
                }
            ],
            "ETC_Mystique": [
                {
                    "hash": "5d5467f157825e33c1789e9cb72b79a377de88a04bb225d2116c66eaf3ca7a8e",
                    "logs": "1dcc4de8dec75d7aab85b567b6ccd41ad312451b948a7413f0a142fd40d49347",
                    "txbytes": "0xf860800a830c350094a00000000000000000000000000000000000000080801ba051c79deec64c18d714ab3239621102ed949f893c0a3d1fcf29e3ea72cb9ac2c0a06d6c8f417b153259b1e270ddffc1496db1e2b6d379be8e173166d81fb883883c",
                    "indexes": {
                        "data": 0,
                        "gas": 0,
                        "value": 0
                    }
                },
                {
                    "hash": "5d5467f157825e33c1789e9cb72b79a377de88a04bb225d2116c66eaf3ca7a8e",
                    "logs": "1dcc4de8dec75d7aab85b567b6ccd41ad312451b948a7413f0a142fd40d49347",
                    "txbytes": "0xf860800a830c350094a0000000000000000000000000000000000000000a801ba082a68288f24608a2dc815428c23da90cd9000e34bc094bdfcff142e04e1fab06a04fa883562817dd9bcd3cce18ed8e6a7be03f28dc6fbeec906c108a8d13b17b1a",
                    "indexes": {
                        "data": 0,
                        "gas": 0,
                        "value": 1
                    }
                },
                {
                    "hash": "eb43feab9968e33acfe2a816dd1c8d9dd37facd37855196669afb95aa5e34d8a",
                    "logs": "1dcc4de8dec75d7aab85b567b6ccd41ad312451b948a7413f0a142fd40d49347",
                    "txbytes": "0xf85f800a82753094a00000000000000000000000000000000000000080801ba006fe387eaba6964d0093998376929d60a786e5c6a0299da2d24db435aa15fd99a03bf8c7744df8218fe09857857e916a4d95f38c0adc9a1c21c5ba8b17da72e50f",
                    "indexes": {
                        "data": 0,
                        "gas": 1,
                        "value": 0
                    }
                },
                {
                    "hash": "eb43feab9968e33acfe2a816dd1c8d9dd37facd37855196669afb95aa5e34d8a",
                    "logs": "1dcc4de8dec75d7aab85b567b6ccd41ad312451b948a7413f0a142fd40d49347",
                    "txbytes": "0xf85f800a82753094a0000000000000000000000000000000000000000a801ba0581def5a74f48ce448d465c9aea0dbf70e682c288ae9f7ed3a7abea8b2154f00a03be466020306b982fe46e1b81a6ca970aa4386063c107bc4a1695d79bbf96a1d",
                    "indexes": {
                        "data": 0,
                        "gas": 1,
                        "value": 1
                    }
                }
            ],
            "ETC_Phoenix": [
                {
                    "hash": "6e964cab85c4badbcfd3bbc8f29d9431b3124fcb1d9be7c3a2ec4682abffc32e",
                    "logs": "1dcc4de8dec75d7aab85b567b6ccd41ad312451b948a7413f0a142fd40d49347",
                    "txbytes": "0xf860800a830c350094a00000000000000000000000000000000000000080801ba051c79deec64c18d714ab3239621102ed949f893c0a3d1fcf29e3ea72cb9ac2c0a06d6c8f417b153259b1e270ddffc1496db1e2b6d379be8e173166d81fb883883c",
                    "indexes": {
                        "data": 0,
                        "gas": 0,
                        "value": 0
                    }
                },
                {
                    "hash": "6e964cab85c4badbcfd3bbc8f29d9431b3124fcb1d9be7c3a2ec4682abffc32e",
                    "logs": "1dcc4de8dec75d7aab85b567b6ccd41ad312451b948a7413f0a142fd40d49347",
                    "txbytes": "0xf860800a830c350094a0000000000000000000000000000000000000000a801ba082a68288f24608a2dc815428c23da90cd9000e34bc094bdfcff142e04e1fab06a04fa883562817dd9bcd3cce18ed8e6a7be03f28dc6fbeec906c108a8d13b17b1a",
                    "indexes": {
                        "data": 0,
                        "gas": 0,
                        "value": 1
                    }
                },
                {
                    "hash": "eb43feab9968e33acfe2a816dd1c8d9dd37facd37855196669afb95aa5e34d8a",
                    "logs": "1dcc4de8dec75d7aab85b567b6ccd41ad312451b948a7413f0a142fd40d49347",
                    "txbytes": "0xf85f800a82753094a00000000000000000000000000000000000000080801ba006fe387eaba6964d0093998376929d60a786e5c6a0299da2d24db435aa15fd99a03bf8c7744df8218fe09857857e916a4d95f38c0adc9a1c21c5ba8b17da72e50f",
                    "indexes": {
                        "data": 0,
                        "gas": 1,
                        "value": 0
                    }
                },
                {
                    "hash": "eb43feab9968e33acfe2a816dd1c8d9dd37facd37855196669afb95aa5e34d8a",
                    "logs": "1dcc4de8dec75d7aab85b567b6ccd41ad312451b948a7413f0a142fd40d49347",
                    "txbytes": "0xf85f800a82753094a0000000000000000000000000000000000000000a801ba0581def5a74f48ce448d465c9aea0dbf70e682c288ae9f7ed3a7abea8b2154f00a03be466020306b982fe46e1b81a6ca970aa4386063c107bc4a1695d79bbf96a1d",
                    "indexes": {
                        "data": 0,
                        "gas": 1,
                        "value": 1
                    }
                }
            ]
        }
    }
}