{
    "RevertPrefoundEmpty": {
        "_info": {
            "comment": "",
            "filling-rpc-server": "evm version 1.10.16-unstable-0f893109-20220105",
            "filling-tool-version": "retesteth-0.2.2-testinfo+commit.01c6aac2.Linux.g++",
            "filledWith": "CoreGeth-1.12.9-unstable-3995a327f2ded5c98324b03792b5ccc22557754f",
            "lllcversion": "Version: 0.5.14-develop.2021.11.27+commit.401d5358.Linux.g++",
            "source": "src/GeneralStateTestsFiller/stRevertTest/RevertPrefoundEmptyFiller.json",
            "sourceHash": "d7f0e0ca984697b75ccccfb009ee7a82c112dc5ef0fed07d54001ef58f35b918"
        },
        "env": {
            "currentCoinbase": "0x2adc25665018aa1fe0e6bc666dac8fc2697ff9ba",
            "currentDifficulty": "0x20000",
            "currentGasLimit": "0x989680",
            "currentNumber": "0x1",
            "currentTimestamp": "0x3e8",
            "currentBaseFee": "0xa",
            "previousHash": "0x5e20a0453cecd065ea59c37ac63e079ee08998b6045136a8ce6635c7912ec0b6"
        },
        "pre": {
            "0x7db299e0885c85039f56fa504a13dd8ce8a56aa7": {
                "balance": "0x0"
            },
            "0xa000000000000000000000000000000000000000": {
                "code": "0x602060006000f0600055600c60015500",
                "balance": "0x1"
            },
            "0xa94f5374fce5edbc8e2a8697c15331677e6ebf0b": {
                "balance": "0xe8d4a51000"
            }
        },
        "transaction": {
            "gasPrice": "0xa",
            "nonce": "0x0",
            "to": "0xa000000000000000000000000000000000000000",
            "data": [
                "0x"
            ],
            "gasLimit": [
                "0xe57e0"
            ],
            "value": [
                "0x00"
            ],
            "secretKey": "0x45a915e4d060149eb4365960e6a7a45f334393093061116b197e3240065ff2d8",
            "sender": "0xa94f5374fce5edbc8e2a8697c15331677e6ebf0b"
        },
        "post": {
            "ETC_Magneto": [
                {
                    "hash": "cb73497ddc8a5c2304c92b07107d4e3e003c272c48e75f838fe4fa59f4729c13",
                    "logs": "1dcc4de8dec75d7aab85b567b6ccd41ad312451b948a7413f0a142fd40d49347",
                    "txbytes": "0xf860800a830e57e094a00000000000000000000000000000000000000080801ca00c15d8aef8d30ab079c002157ad73ba8694c844e8d37950f71a9756f2a305ec9a04853df942c46581f011c001b6b4d2d91dc2f7a0765f1808d1cccdcad3677dceb",
                    "indexes": {
                        "data": 0,
                        "gas": 0,
                        "value": 0
                    }
                }
            ],
            "ETC_Mystique": [
                {
                    "hash": "cb73497ddc8a5c2304c92b07107d4e3e003c272c48e75f838fe4fa59f4729c13",
                    "logs": "1dcc4de8dec75d7aab85b567b6ccd41ad312451b948a7413f0a142fd40d49347",
                    "txbytes": "0xf860800a830e57e094a00000000000000000000000000000000000000080801ca00c15d8aef8d30ab079c002157ad73ba8694c844e8d37950f71a9756f2a305ec9a04853df942c46581f011c001b6b4d2d91dc2f7a0765f1808d1cccdcad3677dceb",
                    "indexes": {
                        "data": 0,
                        "gas": 0,
                        "value": 0
                    }
                }
            ],
            "ETC_Phoenix": [
                {
                    "hash": "e138256975000c2b3f5f07159d5b6e281dc7619b8d0d344e1a7f31bed1be84ef",
                    "logs": "1dcc4de8dec75d7aab85b567b6ccd41ad312451b948a7413f0a142fd40d49347",
                    "txbytes": "0xf860800a830e57e094a00000000000000000000000000000000000000080801ca00c15d8aef8d30ab079c002157ad73ba8694c844e8d37950f71a9756f2a305ec9a04853df942c46581f011c001b6b4d2d91dc2f7a0765f1808d1cccdcad3677dceb",
                    "indexes": {
                        "data": 0,
                        "gas": 0,
                        "value": 0
                    }
                }
            ]
        }
    }
}