{
    "RevertOpcodeCalls": {
        "_info": {
            "comment": "",
            "filling-rpc-server": "evm version 1.10.16-unstable-0f893109-20220105",
            "filling-tool-version": "retesteth-0.2.2-testinfo+commit.01c6aac2.Linux.g++",
            "filledWith": "CoreGeth-1.12.9-unstable-d390462df9df233b60b4cd7a37db5b3043832022",
            "lllcversion": "Version: 0.5.14-develop.2021.11.27+commit.401d5358.Linux.g++",
            "source": "src/GeneralStateTestsFiller/stRevertTest/RevertOpcodeCallsFiller.json",
            "sourceHash": "358d983939029b3a43cefad29d8a4ff9926b600cfe514c539e6fe69918aa5d84"
        },
        "env": {
            "currentCoinbase": "0x2adc25665018aa1fe0e6bc666dac8fc2697ff9ba",
            "currentDifficulty": "0x20000",
            "currentGasLimit": "0x989680",
            "currentNumber": "0x1",
            "currentTimestamp": "0x3e8",
            "previousHash": "0x5e20a0453cecd065ea59c37ac63e079ee08998b6045136a8ce6635c7912ec0b6"
        },
        "pre": {
            "0x094f5374fce5edbc8e2a8697c15331677e6ebf0b": {
                "code": "0x600060006000600060006000356203f7a0f1600a5500",
                "balance": "0x1",
                "nonce": "0x0"
            },
            "0xa94f5374fce5edbc8e2a8697c15331677e6ebf0b": {
                "code": "0x",
                "balance": "0xe8d4a51000",
                "nonce": "0x0"
            },
            "0xb0005374fce5edbc8e2a8697c15331677e6ebf0b": {
                "code": "0x6000600060006000600073c94f5374fce5edbc8e2a8697c15331677e6ebf0b61c350f1600055600e60025500",
                "balance": "0x1",
                "nonce": "0x0"
            },
            "0xb1005374fce5edbc8e2a8697c15331677e6ebf0b": {
                "code": "0x6000600060006000600073c94f5374fce5edbc8e2a8697c15331677e6ebf0b61c350f2600055600e60025500",
                "balance": "0x1",
                "nonce": "0x0"
            },
            "0xb2005374fce5edbc8e2a8697c15331677e6ebf0b": {
                "code": "0x600060006000600073c94f5374fce5edbc8e2a8697c15331677e6ebf0b61c350f4600055600e60025500",
                "balance": "0x1",
                "nonce": "0x0"
            },
            "0xb3005374fce5edbc8e2a8697c15331677e6ebf0b": {
                "code": "0x6000600060006000600073b3305374fce5edbc8e2a8697c15331677e6ebf0b620186a0f1600055600e60025500",
                "balance": "0x1",
                "nonce": "0x0"
            },
            "0xb3305374fce5edbc8e2a8697c15331677e6ebf0b": {
                "code": "0x6000600060006000600073c94f5374fce5edbc8e2a8697c15331677e6ebf0b61c350f1600455600e60055500",
                "balance": "0x1",
                "nonce": "0x0"
            },
            "0xc94f5374fce5edbc8e2a8697c15331677e6ebf0b": {
                "code": "0x600c60015560016000fd600d60035500",
                "balance": "0x1",
                "nonce": "0x0"
            }
        },
        "transaction": {
            "gasPrice": "0xa",
            "nonce": "0x0",
            "to": "0x094f5374fce5edbc8e2a8697c15331677e6ebf0b",
            "data": [
                "0x000000000000000000000000b0005374fce5edbc8e2a8697c15331677e6ebf0b",
                "0x000000000000000000000000b1005374fce5edbc8e2a8697c15331677e6ebf0b",
                "0x000000000000000000000000b2005374fce5edbc8e2a8697c15331677e6ebf0b",
                "0x000000000000000000000000b3005374fce5edbc8e2a8697c15331677e6ebf0b"
            ],
            "gasLimit": [
                "0x704e0",
                "0x146a6"
            ],
            "value": [
                "0x00"
            ],
            "secretKey": "0x45a915e4d060149eb4365960e6a7a45f334393093061116b197e3240065ff2d8",
            "sender": "0xa94f5374fce5edbc8e2a8697c15331677e6ebf0b"
        },
        "post": {
            "ETC_Magneto": [
                {
                    "hash": "94fe68d82fabbe583d0d3bbe91339d0dfeac839f62461aaf444fc0d509b13817",
                    "logs": "1dcc4de8dec75d7aab85b567b6ccd41ad312451b948a7413f0a142fd40d49347",
                    "txbytes": "0xf880800a830704e094094f5374fce5edbc8e2a8697c15331677e6ebf0b80a0000000000000000000000000b0005374fce5edbc8e2a8697c15331677e6ebf0b1ca0568965a178adb1145245ac37643703f8107badd6bbd4ccb8e70d6b51013d11b8a03f15a0ae2b55dbd860ae5221c20933f43e63a1a5f693697de43e5617eeaa0338",
                    "indexes": {
                        "data": 0,
                        "gas": 0,
                        "value": 0
                    }
                },
                {
                    "hash": "125c5ff90c05dd7b8cdafcfab395daec465fb78b3e4bfa2f35959404dcf742b1",
                    "logs": "1dcc4de8dec75d7aab85b567b6ccd41ad312451b948a7413f0a142fd40d49347",
                    "txbytes": "0xf880800a830146a694094f5374fce5edbc8e2a8697c15331677e6ebf0b80a0000000000000000000000000b0005374fce5edbc8e2a8697c15331677e6ebf0b1ca0db84f755ee799db4ed515b208d36006a55c32e77ec366c543df3a3444f37289ca0525f9bfeab248ae11a4a5ed8341fe9fc61b5064604536f563f23567c7b1dee07",
                    "indexes": {
                        "data": 0,
                        "gas": 1,
                        "value": 0
                    }
                },
                {
                    "hash": "33bedb7ffb248f2d783dddd82e846048be9610e9b8df3c6e565b746297243676",
                    "logs": "1dcc4de8dec75d7aab85b567b6ccd41ad312451b948a7413f0a142fd40d49347",
                    "txbytes": "0xf880800a830704e094094f5374fce5edbc8e2a8697c15331677e6ebf0b80a0000000000000000000000000b1005374fce5edbc8e2a8697c15331677e6ebf0b1ba017da61e37da10ae0bbded17c2356f0ff31623651b5acb26a46e450f716a2e02da004d064f8b8fc9371c31623ef0b9dc8ad2364a49d7db2806d00ef38f706419b3e",
                    "indexes": {
                        "data": 1,
                        "gas": 0,
                        "value": 0
                    }
                },
                {
                    "hash": "125c5ff90c05dd7b8cdafcfab395daec465fb78b3e4bfa2f35959404dcf742b1",
                    "logs": "1dcc4de8dec75d7aab85b567b6ccd41ad312451b948a7413f0a142fd40d49347",
                    "txbytes": "0xf880800a830146a694094f5374fce5edbc8e2a8697c15331677e6ebf0b80a0000000000000000000000000b1005374fce5edbc8e2a8697c15331677e6ebf0b1ca0f5f74e2c86969890f88c9b14372f7b5bd58f21354c46b10ef103be87d63df5aea06b2fc3bd26f72d72e86aaee775487e428173f6131eb2b06e06ec3a41895cb843",
                    "indexes": {
                        "data": 1,
                        "gas": 1,
                        "value": 0
                    }
                },
                {
                    "hash": "1d015558732f3506b7482b3204621f88cbaeb21113b6bc2f0a7296cbc9478d97",
                    "logs": "1dcc4de8dec75d7aab85b567b6ccd41ad312451b948a7413f0a142fd40d49347",
                    "txbytes": "0xf880800a830704e094094f5374fce5edbc8e2a8697c15331677e6ebf0b80a0000000000000000000000000b2005374fce5edbc8e2a8697c15331677e6ebf0b1ca06ae65a8a7b64691438bc4faa5cd9ab0912efbe97d9deed31ebfd12bc8300ed39a0273dea0411ecb9df6e086fc64a88d342344ade5e8ab3d2e113ff876a39c96639",
                    "indexes": {
                        "data": 2,
                        "gas": 0,
                        "value": 0
                    }
                },
                {
                    "hash": "125c5ff90c05dd7b8cdafcfab395daec465fb78b3e4bfa2f35959404dcf742b1",
                    "logs": "1dcc4de8dec75d7aab85b567b6ccd41ad312451b948a7413f0a142fd40d49347",
                    "txbytes": "0xf880800a830146a694094f5374fce5edbc8e2a8697c15331677e6ebf0b80a0000000000000000000000000b2005374fce5edbc8e2a8697c15331677e6ebf0b1ba09444d5c8d6244238c20707940fce1cada88854c779e458fba6cf39fe2102baf0a0462f1316a046b2af09f7675f9db53ad69b9701ded33732698d173c24e99272b2",
                    "indexes": {
                        "data": 2,
                        "gas": 1,
                        "value": 0
                    }
                },
                {
                    "hash": "ee613a7139de6e47a8f8b929b6270657e1e755f6d866432b35bdfae3646b547a",
                    "logs": "1dcc4de8dec75d7aab85b567b6ccd41ad312451b948a7413f0a142fd40d49347",
                    "txbytes": "0xf880800a830704e094094f5374fce5edbc8e2a8697c15331677e6ebf0b80a0000000000000000000000000b3005374fce5edbc8e2a8697c15331677e6ebf0b1ba0ea0e828438a2c22f24ed3d84a6f9c8ea3af3a5bda15cef782226b3d4f1a02577a046604faa0d25c86949776f2917bb8a079ed2c2d48451529490c8810280057fc5",
                    "indexes": {
                        "data": 3,
                        "gas": 0,
                        "value": 0
                    }
                },
                {
                    "hash": "125c5ff90c05dd7b8cdafcfab395daec465fb78b3e4bfa2f35959404dcf742b1",
                    "logs": "1dcc4de8dec75d7aab85b567b6ccd41ad312451b948a7413f0a142fd40d49347",
                    "txbytes": "0xf880800a830146a694094f5374fce5edbc8e2a8697c15331677e6ebf0b80a0000000000000000000000000b3005374fce5edbc8e2a8697c15331677e6ebf0b1ca00e181c3b0bb6790d8419ac1127874beccbdba3fbda11a72d441be2fa73dedb31a06feabd75c86020adeb3d133d7b3f9839fe25dc19596f074d56bf6c1550ced76e",
                    "indexes": {
                        "data": 3,
                        "gas": 1,
                        "value": 0
                    }
                }
            ],
            "ETC_Mystique": [
                {
                    "hash": "94fe68d82fabbe583d0d3bbe91339d0dfeac839f62461aaf444fc0d509b13817",
                    "logs": "1dcc4de8dec75d7aab85b567b6ccd41ad312451b948a7413f0a142fd40d49347",
                    "txbytes": "0xf880800a830704e094094f5374fce5edbc8e2a8697c15331677e6ebf0b80a0000000000000000000000000b0005374fce5edbc8e2a8697c15331677e6ebf0b1ca0568965a178adb1145245ac37643703f8107badd6bbd4ccb8e70d6b51013d11b8a03f15a0ae2b55dbd860ae5221c20933f43e63a1a5f693697de43e5617eeaa0338",
                    "indexes": {
                        "data": 0,
                        "gas": 0,
                        "value": 0
                    }
                },
                {
                    "hash": "125c5ff90c05dd7b8cdafcfab395daec465fb78b3e4bfa2f35959404dcf742b1",
                    "logs": "1dcc4de8dec75d7aab85b567b6ccd41ad312451b948a7413f0a142fd40d49347",
                    "txbytes": "0xf880800a830146a694094f5374fce5edbc8e2a8697c15331677e6ebf0b80a0000000000000000000000000b0005374fce5edbc8e2a8697c15331677e6ebf0b1ca0db84f755ee799db4ed515b208d36006a55c32e77ec366c543df3a3444f37289ca0525f9bfeab248ae11a4a5ed8341fe9fc61b5064604536f563f23567c7b1dee07",
                    "indexes": {
                        "data": 0,
                        "gas": 1,
                        "value": 0
                    }
                },
                {
                    "hash": "33bedb7ffb248f2d783dddd82e846048be9610e9b8df3c6e565b746297243676",
                    "logs": "1dcc4de8dec75d7aab85b567b6ccd41ad312451b948a7413f0a142fd40d49347",
                    "txbytes": "0xf880800a830704e094094f5374fce5edbc8e2a8697c15331677e6ebf0b80a0000000000000000000000000b1005374fce5edbc8e2a8697c15331677e6ebf0b1ba017da61e37da10ae0bbded17c2356f0ff31623651b5acb26a46e450f716a2e02da004d064f8b8fc9371c31623ef0b9dc8ad2364a49d7db2806d00ef38f706419b3e",
                    "indexes": {
                        "data": 1,
                        "gas": 0,
                        "value": 0
                    }
                },
                {
                    "hash": "125c5ff90c05dd7b8cdafcfab395daec465fb78b3e4bfa2f35959404dcf742b1",
                    "logs": "1dcc4de8dec75d7aab85b567b6ccd41ad312451b948a7413f0a142fd40d49347",
                    "txbytes": "0xf880800a830146a694094f5374fce5edbc8e2a8697c15331677e6ebf0b80a0000000000000000000000000b1005374fce5edbc8e2a8697c15331677e6ebf0b1ca0f5f74e2c86969890f88c9b14372f7b5bd58f21354c46b10ef103be87d63df5aea06b2fc3bd26f72d72e86aaee775487e428173f6131eb2b06e06ec3a41895cb843",
                    "indexes": {
                        "data": 1,
                        "gas": 1,
                        "value": 0
                    }
                },
                {
                    "hash": "1d015558732f3506b7482b3204621f88cbaeb21113b6bc2f0a7296cbc9478d97",
                    "logs": "1dcc4de8dec75d7aab85b567b6ccd41ad312451b948a7413f0a142fd40d49347",
                    "txbytes": "0xf880800a830704e094094f5374fce5edbc8e2a8697c15331677e6ebf0b80a0000000000000000000000000b2005374fce5edbc8e2a8697c15331677e6ebf0b1ca06ae65a8a7b64691438bc4faa5cd9ab0912efbe97d9deed31ebfd12bc8300ed39a0273dea0411ecb9df6e086fc64a88d342344ade5e8ab3d2e113ff876a39c96639",
                    "indexes": {
                        "data": 2,
                        "gas": 0,
                        "value": 0
                    }
                },
                {
                    "hash": "125c5ff90c05dd7b8cdafcfab395daec465fb78b3e4bfa2f35959404dcf742b1",
                    "logs": "1dcc4de8dec75d7aab85b567b6ccd41ad312451b948a7413f0a142fd40d49347",
                    "txbytes": "0xf880800a830146a694094f5374fce5edbc8e2a8697c15331677e6ebf0b80a0000000000000000000000000b2005374fce5edbc8e2a8697c15331677e6ebf0b1ba09444d5c8d6244238c20707940fce1cada88854c779e458fba6cf39fe2102baf0a0462f1316a046b2af09f7675f9db53ad69b9701ded33732698d173c24e99272b2",
                    "indexes": {
                        "data": 2,
                        "gas": 1,
                        "value": 0
                    }
                },
                {
                    "hash": "ee613a7139de6e47a8f8b929b6270657e1e755f6d866432b35bdfae3646b547a",
                    "logs": "1dcc4de8dec75d7aab85b567b6ccd41ad312451b948a7413f0a142fd40d49347",
                    "txbytes": "0xf880800a830704e094094f5374fce5edbc8e2a8697c15331677e6ebf0b80a0000000000000000000000000b3005374fce5edbc8e2a8697c15331677e6ebf0b1ba0ea0e828438a2c22f24ed3d84a6f9c8ea3af3a5bda15cef782226b3d4f1a02577a046604faa0d25c86949776f2917bb8a079ed2c2d48451529490c8810280057fc5",
                    "indexes": {
                        "data": 3,
                        "gas": 0,
                        "value": 0
                    }
                },
                {
                    "hash": "125c5ff90c05dd7b8cdafcfab395daec465fb78b3e4bfa2f35959404dcf742b1",
                    "logs": "1dcc4de8dec75d7aab85b567b6ccd41ad312451b948a7413f0a142fd40d49347",
                    "txbytes": "0xf880800a830146a694094f5374fce5edbc8e2a8697c15331677e6ebf0b80a0000000000000000000000000b3005374fce5edbc8e2a8697c15331677e6ebf0b1ca00e181c3b0bb6790d8419ac1127874beccbdba3fbda11a72d441be2fa73dedb31a06feabd75c86020adeb3d133d7b3f9839fe25dc19596f074d56bf6c1550ced76e",
                    "indexes": {
                        "data": 3,
                        "gas": 1,
                        "value": 0
                    }
                }
            ],
            "ETC_Phoenix": [
                {
                    "hash": "5c2e563e53fff935e8350ede25b6680f2813444e588de605a58b7fa5e8c58b60",
                    "logs": "1dcc4de8dec75d7aab85b567b6ccd41ad312451b948a7413f0a142fd40d49347",
                    "txbytes": "0xf880800a830704e094094f5374fce5edbc8e2a8697c15331677e6ebf0b80a0000000000000000000000000b0005374fce5edbc8e2a8697c15331677e6ebf0b1ca0568965a178adb1145245ac37643703f8107badd6bbd4ccb8e70d6b51013d11b8a03f15a0ae2b55dbd860ae5221c20933f43e63a1a5f693697de43e5617eeaa0338",
                    "indexes": {
                        "data": 0,
                        "gas": 0,
                        "value": 0
                    }
                },
                {
                    "hash": "125c5ff90c05dd7b8cdafcfab395daec465fb78b3e4bfa2f35959404dcf742b1",
                    "logs": "1dcc4de8dec75d7aab85b567b6ccd41ad312451b948a7413f0a142fd40d49347",
                    "txbytes": "0xf880800a830146a694094f5374fce5edbc8e2a8697c15331677e6ebf0b80a0000000000000000000000000b0005374fce5edbc8e2a8697c15331677e6ebf0b1ca0db84f755ee799db4ed515b208d36006a55c32e77ec366c543df3a3444f37289ca0525f9bfeab248ae11a4a5ed8341fe9fc61b5064604536f563f23567c7b1dee07",
                    "indexes": {
                        "data": 0,
                        "gas": 1,
                        "value": 0
                    }
                },
                {
                    "hash": "1aeaf997ce39a1e0ddd589805f189aad0955bf797666a7ff8f924f9a7df96dd6",
                    "logs": "1dcc4de8dec75d7aab85b567b6ccd41ad312451b948a7413f0a142fd40d49347",
                    "txbytes": "0xf880800a830704e094094f5374fce5edbc8e2a8697c15331677e6ebf0b80a0000000000000000000000000b1005374fce5edbc8e2a8697c15331677e6ebf0b1ba017da61e37da10ae0bbded17c2356f0ff31623651b5acb26a46e450f716a2e02da004d064f8b8fc9371c31623ef0b9dc8ad2364a49d7db2806d00ef38f706419b3e",
                    "indexes": {
                        "data": 1,
                        "gas": 0,
                        "value": 0
                    }
                },
                {
                    "hash": "125c5ff90c05dd7b8cdafcfab395daec465fb78b3e4bfa2f35959404dcf742b1",
                    "logs": "1dcc4de8dec75d7aab85b567b6ccd41ad312451b948a7413f0a142fd40d49347",
                    "txbytes": "0xf880800a830146a694094f5374fce5edbc8e2a8697c15331677e6ebf0b80a0000000000000000000000000b1005374fce5edbc8e2a8697c15331677e6ebf0b1ca0f5f74e2c86969890f88c9b14372f7b5bd58f21354c46b10ef103be87d63df5aea06b2fc3bd26f72d72e86aaee775487e428173f6131eb2b06e06ec3a41895cb843",
                    "indexes": {
                        "data": 1,
                        "gas": 1,
                        "value": 0
                    }
                },
                {
                    "hash": "ffca206e0195618d9fe190cfd0053b32ee5c905035674ced35c9f6c49c421c20",
                    "logs": "1dcc4de8dec75d7aab85b567b6ccd41ad312451b948a7413f0a142fd40d49347",
                    "txbytes": "0xf880800a830704e094094f5374fce5edbc8e2a8697c15331677e6ebf0b80a0000000000000000000000000b2005374fce5edbc8e2a8697c15331677e6ebf0b1ca06ae65a8a7b64691438bc4faa5cd9ab0912efbe97d9deed31ebfd12bc8300ed39a0273dea0411ecb9df6e086fc64a88d342344ade5e8ab3d2e113ff876a39c96639",
                    "indexes": {
                        "data": 2,
                        "gas": 0,
                        "value": 0
                    }
                },
                {
                    "hash": "125c5ff90c05dd7b8cdafcfab395daec465fb78b3e4bfa2f35959404dcf742b1",
                    "logs": "1dcc4de8dec75d7aab85b567b6ccd41ad312451b948a7413f0a142fd40d49347",
                    "txbytes": "0xf880800a830146a694094f5374fce5edbc8e2a8697c15331677e6ebf0b80a0000000000000000000000000b2005374fce5edbc8e2a8697c15331677e6ebf0b1ba09444d5c8d6244238c20707940fce1cada88854c779e458fba6cf39fe2102baf0a0462f1316a046b2af09f7675f9db53ad69b9701ded33732698d173c24e99272b2",
                    "indexes": {
                        "data": 2,
                        "gas": 1,
                        "value": 0
                    }
                },
                {
                    "hash": "4e2c31c658bfc621a13949911f29502c8f8903dbdcf56f398eeec0848e92ae93",
                    "logs": "1dcc4de8dec75d7aab85b567b6ccd41ad312451b948a7413f0a142fd40d49347",
                    "txbytes": "0xf880800a830704e094094f5374fce5edbc8e2a8697c15331677e6ebf0b80a0000000000000000000000000b3005374fce5edbc8e2a8697c15331677e6ebf0b1ba0ea0e828438a2c22f24ed3d84a6f9c8ea3af3a5bda15cef782226b3d4f1a02577a046604faa0d25c86949776f2917bb8a079ed2c2d48451529490c8810280057fc5",
                    "indexes": {
                        "data": 3,
                        "gas": 0,
                        "value": 0
                    }
                },
                {
                    "hash": "125c5ff90c05dd7b8cdafcfab395daec465fb78b3e4bfa2f35959404dcf742b1",
                    "logs": "1dcc4de8dec75d7aab85b567b6ccd41ad312451b948a7413f0a142fd40d49347",
                    "txbytes": "0xf880800a830146a694094f5374fce5edbc8e2a8697c15331677e6ebf0b80a0000000000000000000000000b3005374fce5edbc8e2a8697c15331677e6ebf0b1ca00e181c3b0bb6790d8419ac1127874beccbdba3fbda11a72d441be2fa73dedb31a06feabd75c86020adeb3d133d7b3f9839fe25dc19596f074d56bf6c1550ced76e",
                    "indexes": {
                        "data": 3,
                        "gas": 1,
                        "value": 0
                    }
                }
            ]
        }
    }
}