{
    "RevertInCallCode": {
        "_info": {
            "comment": "",
            "filling-rpc-server": "evm version 1.10.16-unstable-0f893109-20220105",
            "filling-tool-version": "retesteth-0.2.2-testinfo+commit.01c6aac2.Linux.g++",
            "filledWith": "CoreGeth-1.12.9-unstable-3995a327f2ded5c98324b03792b5ccc22557754f",
            "lllcversion": "Version: 0.5.14-develop.2021.11.27+commit.401d5358.Linux.g++",
            "source": "src/GeneralStateTestsFiller/stRevertTest/RevertInCallCodeFiller.json",
            "sourceHash": "c92c017529123b1a4f2c116bc0fc847bafc4a17cafeeb405c49b4202dbec0a99"
        },
        "env": {
            "currentCoinbase": "0x2adc25665018aa1fe0e6bc666dac8fc2697ff9ba",
            "currentDifficulty": "0x20000",
            "currentGasLimit": "0xf4240",
            "currentNumber": "0x1",
            "currentTimestamp": "0x3e8",
            "currentBaseFee": "0xa",
            "previousHash": "0x5e20a0453cecd065ea59c37ac63e079ee08998b6045136a8ce6635c7912ec0b6"
        },
        "pre": {
            "0x1000000000000000000000000000000000000000": {
                "code": "0x60406000604060006103e873945304eb96065b2a98b57a48a06ae28d285a71b561c350f26000553d6001556020600060403e60405160025500",
                "balance": "0x3e8"
            },
            "0x945304eb96065b2a98b57a48a06ae28d285a71b5": {
                "code": "0x61223260005260206000fd00",
                "balance": "0x0"
            },
            "0xa94f5374fce5edbc8e2a8697c15331677e6ebf0b": {
                "balance": "0x5f5e100"
            }
        },
        "transaction": {
            "gasPrice": "0xa",
            "nonce": "0x0",
            "to": "0x1000000000000000000000000000000000000000",
            "data": [
                "0x"
            ],
            "gasLimit": [
                "0x19a54"
            ],
            "value": [
                "0x00"
            ],
            "secretKey": "0x45a915e4d060149eb4365960e6a7a45f334393093061116b197e3240065ff2d8",
            "sender": "0xa94f5374fce5edbc8e2a8697c15331677e6ebf0b"
        },
        "post": {
            "ETC_Magneto": [
                {
                    "hash": "be9f1d5f7f135e1323e1ac83b8d8fe191ff78ab9987385f1f3105a8958fbe967",
                    "logs": "1dcc4de8dec75d7aab85b567b6ccd41ad312451b948a7413f0a142fd40d49347",
                    "txbytes": "0xf860800a83019a5494100000000000000000000000000000000000000080801ba0a5f995ecdea1634598844fb12bf88f4128e99c411b7ca069e50b0082a30b4a93a053ef5ec7e2b4f168fed8387df495cbab666ff039a7c7ad5c188dc905e5ca02e8",
                    "indexes": {
                        "data": 0,
                        "gas": 0,
                        "value": 0
                    }
                }
            ],
            "ETC_Mystique": [
                {
                    "hash": "be9f1d5f7f135e1323e1ac83b8d8fe191ff78ab9987385f1f3105a8958fbe967",
                    "logs": "1dcc4de8dec75d7aab85b567b6ccd41ad312451b948a7413f0a142fd40d49347",
                    "txbytes": "0xf860800a83019a5494100000000000000000000000000000000000000080801ba0a5f995ecdea1634598844fb12bf88f4128e99c411b7ca069e50b0082a30b4a93a053ef5ec7e2b4f168fed8387df495cbab666ff039a7c7ad5c188dc905e5ca02e8",
                    "indexes": {
                        "data": 0,
                        "gas": 0,
                        "value": 0
                    }
                }
            ],
            "ETC_Phoenix": [
                {
                    "hash": "104756693d39c8be5fa53c8ec71ce32bd0ec7581c803db34b7615de04ad18e90",
                    "logs": "1dcc4de8dec75d7aab85b567b6ccd41ad312451b948a7413f0a142fd40d49347",
                    "txbytes": "0xf860800a83019a5494100000000000000000000000000000000000000080801ba0a5f995ecdea1634598844fb12bf88f4128e99c411b7ca069e50b0082a30b4a93a053ef5ec7e2b4f168fed8387df495cbab666ff039a7c7ad5c188dc905e5ca02e8",
                    "indexes": {
                        "data": 0,
                        "gas": 0,
                        "value": 0
                    }
                }
            ]
        }
    }
}