{
    "RevertOpcodeCreate": {
        "_info": {
            "comment": "",
            "filling-rpc-server": "evm version 1.10.16-unstable-0f893109-20220105",
            "filling-tool-version": "retesteth-0.2.2-testinfo+commit.01c6aac2.Linux.g++",
            "filledWith": "CoreGeth-1.12.9-unstable-3995a327f2ded5c98324b03792b5ccc22557754f",
            "lllcversion": "Version: 0.5.14-develop.2021.11.27+commit.401d5358.Linux.g++",
            "source": "src/GeneralStateTestsFiller/stRevertTest/RevertOpcodeCreateFiller.json",
            "sourceHash": "f2ac3d1dc8eed1a23bb5feac3c8bd5c6b805e906f25a4b915f19631bccd1c91c"
        },
        "env": {
            "currentCoinbase": "0x2adc25665018aa1fe0e6bc666dac8fc2697ff9ba",
            "currentDifficulty": "0x20000",
            "currentGasLimit": "0x989680",
            "currentNumber": "0x1",
            "currentTimestamp": "0x3e8",
            "currentBaseFee": "0xa",
            "previousHash": "0x5e20a0453cecd065ea59c37ac63e079ee08998b6045136a8ce6635c7912ec0b6"
        },
        "pre": {
            "0xa94f5374fce5edbc8e2a8697c15331677e6ebf0b": {
                "balance": "0xe8d4a51000"
            },
            "0xb94f5374fce5edbc8e2a8697c15331677e6ebf0b": {
                "code": "0x6e600160005560016000fd6011600155600052600f60116001f0600155600c60005500",
                "balance": "0x1"
            }
        },
        "transaction": {
            "gasPrice": "0xa",
            "nonce": "0x0",
            "to": "0xb94f5374fce5edbc8e2a8697c15331677e6ebf0b",
            "data": [
                "0x600160005560016000fe6011600155"
            ],
            "gasLimit": [
                "0x704e0",
                "0x11170"
            ],
            "value": [
                "0x00"
            ],
            "secretKey": "0x45a915e4d060149eb4365960e6a7a45f334393093061116b197e3240065ff2d8",
            "sender": "0xa94f5374fce5edbc8e2a8697c15331677e6ebf0b"
        },
        "post": {
            "ETC_Magneto": [
                {
                    "hash": "ba344789df13b13573f0bc3d53efba98f501d3477245f5bff081dd568de3a995",
                    "logs": "1dcc4de8dec75d7aab85b567b6ccd41ad312451b948a7413f0a142fd40d49347",
                    "txbytes": "0xf86f800a830704e094b94f5374fce5edbc8e2a8697c15331677e6ebf0b808f600160005560016000fe60116001551ba0d5edd414de54afb709bd23f2e5dda1a01b1e96b3cfb5d730812fa37160a4f05ba028ba9657cea41957eeca7ea84ad2861d9701381f08a94de4b6eae629c59ec32e",
                    "indexes": {
                        "data": 0,
                        "gas": 0,
                        "value": 0
                    }
                },
                {
                    "hash": "2ec8f1bc1c39b78e36b4e728a113bde2ec484c567627029d16c3a25c5f061bdf",
                    "logs": "1dcc4de8dec75d7aab85b567b6ccd41ad312451b948a7413f0a142fd40d49347",
                    "txbytes": "0xf86f800a8301117094b94f5374fce5edbc8e2a8697c15331677e6ebf0b808f600160005560016000fe60116001551ca01c0067161eb4a947f3634eadfb6eb4f1187913d69e32f62ffe19621650a96571a0554d1b57109a2120bfc3701fa29348b22333351428c028e2835b0ac7a3070a20",
                    "indexes": {
                        "data": 0,
                        "gas": 1,
                        "value": 0
                    }
                }
            ],
            "ETC_Mystique": [
                {
                    "hash": "ba344789df13b13573f0bc3d53efba98f501d3477245f5bff081dd568de3a995",
                    "logs": "1dcc4de8dec75d7aab85b567b6ccd41ad312451b948a7413f0a142fd40d49347",
                    "txbytes": "0xf86f800a830704e094b94f5374fce5edbc8e2a8697c15331677e6ebf0b808f600160005560016000fe60116001551ba0d5edd414de54afb709bd23f2e5dda1a01b1e96b3cfb5d730812fa37160a4f05ba028ba9657cea41957eeca7ea84ad2861d9701381f08a94de4b6eae629c59ec32e",
                    "indexes": {
                        "data": 0,
                        "gas": 0,
                        "value": 0
                    }
                },
                {
                    "hash": "2ec8f1bc1c39b78e36b4e728a113bde2ec484c567627029d16c3a25c5f061bdf",
                    "logs": "1dcc4de8dec75d7aab85b567b6ccd41ad312451b948a7413f0a142fd40d49347",
                    "txbytes": "0xf86f800a8301117094b94f5374fce5edbc8e2a8697c15331677e6ebf0b808f600160005560016000fe60116001551ca01c0067161eb4a947f3634eadfb6eb4f1187913d69e32f62ffe19621650a96571a0554d1b57109a2120bfc3701fa29348b22333351428c028e2835b0ac7a3070a20",
                    "indexes": {
                        "data": 0,
                        "gas": 1,
                        "value": 0
                    }
                }
            ],
            "ETC_Phoenix": [
                {
                    "hash": "06a6c2a2566706560487a75cc1c6d655f51b40abdc635a50aa6348b90dd2c05b",
                    "logs": "1dcc4de8dec75d7aab85b567b6ccd41ad312451b948a7413f0a142fd40d49347",
                    "txbytes": "0xf86f800a830704e094b94f5374fce5edbc8e2a8697c15331677e6ebf0b808f600160005560016000fe60116001551ba0d5edd414de54afb709bd23f2e5dda1a01b1e96b3cfb5d730812fa37160a4f05ba028ba9657cea41957eeca7ea84ad2861d9701381f08a94de4b6eae629c59ec32e",
                    "indexes": {
                        "data": 0,
                        "gas": 0,
                        "value": 0
                    }
                },
                {
                    "hash": "2ec8f1bc1c39b78e36b4e728a113bde2ec484c567627029d16c3a25c5f061bdf",
                    "logs": "1dcc4de8dec75d7aab85b567b6ccd41ad312451b948a7413f0a142fd40d49347",
                    "txbytes": "0xf86f800a8301117094b94f5374fce5edbc8e2a8697c15331677e6ebf0b808f600160005560016000fe60116001551ca01c0067161eb4a947f3634eadfb6eb4f1187913d69e32f62ffe19621650a96571a0554d1b57109a2120bfc3701fa29348b22333351428c028e2835b0ac7a3070a20",
                    "indexes": {
                        "data": 0,
                        "gas": 1,
                        "value": 0
                    }
                }
            ]
        }
    }
}