{
    "RevertOpcodeInCreateReturns": {
        "_info": {
            "comment": "",
            "filling-rpc-server": "evm version 1.10.16-unstable-0f893109-20220105",
            "filling-tool-version": "retesteth-0.2.2-testinfo+commit.01c6aac2.Linux.g++",
            "filledWith": "CoreGeth-1.12.9-unstable-f4059ddd82d975bdc54fa648e5422a80172161cb",
            "lllcversion": "Version: 0.5.14-develop.2021.11.27+commit.401d5358.Linux.g++",
            "source": "src/GeneralStateTestsFiller/stRevertTest/RevertOpcodeInCreateReturnsFiller.json",
            "sourceHash": "d9253baa8cccc85c8e923fdf34e9f7a53c4f5cc648c9530af855b179b37862e7"
        },
        "env": {
            "currentCoinbase": "2adc25665018aa1fe0e6bc666dac8fc2697ff9ba",
            "currentDifficulty": "0x20000",
            "currentRandom": null,
            "currentGasLimit": "0xa00000000",
            "currentNumber": "0x1",
            "currentTimestamp": "0x3e8",
            "currentBaseFee": "0xa"
        },
        "pre": {
            "0x0f572e5295c57f15886f9b263e2f6d2d6c7b5ec6": {
                "code": "0x600d80601560003960006000f0503d6000550000fe6211223360005260206000fd00",
                "storage": {
                    "0x0000000000000000000000000000000000000000000000000000000000000000": "0x0000000000000000000000000000000000000000000000000000000000000001"
                },
                "balance": "0x0"
            },
            "0xa94f5374fce5edbc8e2a8697c15331677e6ebf0b": {
                "balance": "0x6400000000"
            }
        },
        "transaction": {
            "gasPrice": "0xa",
            "maxFeePerGas": null,
            "maxPriorityFeePerGas": null,
            "nonce": "0x0",
            "to": "0x0f572e5295c57f15886f9b263e2f6d2d6c7b5ec6",
            "data": [
                "0x"
            ],
            "gasLimit": [
                "0x9fd800001"
            ],
            "value": [
                "0x00"
            ],
            "secretKey": "0x45a915e4d060149eb4365960e6a7a45f334393093061116b197e3240065ff2d8"
        },
        "out": "0x",
        "post": {
            "ETC_Magneto": [
                {
                    "hash": "287783a98deb09dd5597ee321021aa0dffcb24025f8a6ceff4720c50aa4bceaf",
                    "logs": "1dcc4de8dec75d7aab85b567b6ccd41ad312451b948a7413f0a142fd40d49347",
                    "txbytes": "0xf862800a8509fd800001940f572e5295c57f15886f9b263e2f6d2d6c7b5ec680801ba078e7cc7b77552daa0be34dd58a7080c1983e5e823be2a7ab81835fb66713ed43a06bb82c39a8177bd5bf769840ad5778d53a03042a8273a9825c04a0ec6bc56fbc",
                    "indexes": {
                        "data": 0,
                        "gas": 0,
                        "value": 0
                    }
                }
            ],
            "ETC_Mystique": [
                {
                    "hash": "287783a98deb09dd5597ee321021aa0dffcb24025f8a6ceff4720c50aa4bceaf",
                    "logs": "1dcc4de8dec75d7aab85b567b6ccd41ad312451b948a7413f0a142fd40d49347",
                    "txbytes": "0xf862800a8509fd800001940f572e5295c57f15886f9b263e2f6d2d6c7b5ec680801ba078e7cc7b77552daa0be34dd58a7080c1983e5e823be2a7ab81835fb66713ed43a06bb82c39a8177bd5bf769840ad5778d53a03042a8273a9825c04a0ec6bc56fbc",
                    "indexes": {
                        "data": 0,
                        "gas": 0,
                        "value": 0
                    }
                }
            ],
            "ETC_Phoenix": [
                {
                    "hash": "287783a98deb09dd5597ee321021aa0dffcb24025f8a6ceff4720c50aa4bceaf",
                    "logs": "1dcc4de8dec75d7aab85b567b6ccd41ad312451b948a7413f0a142fd40d49347",
                    "txbytes": "0xf862800a8509fd800001940f572e5295c57f15886f9b263e2f6d2d6c7b5ec680801ba078e7cc7b77552daa0be34dd58a7080c1983e5e823be2a7ab81835fb66713ed43a06bb82c39a8177bd5bf769840ad5778d53a03042a8273a9825c04a0ec6bc56fbc",
                    "indexes": {
                        "data": 0,
                        "gas": 0,
                        "value": 0
                    }
                }
            ]
        }
    }
}