{
    "RevertOnEmptyStack": {
        "_info": {
            "comment": "Calling a runtime code that contains only a single `REVERT` should consume all gas.",
            "filling-rpc-server": "evm version 1.10.16-unstable-0f893109-20220105",
            "filling-tool-version": "retesteth-0.2.2-testinfo+commit.01c6aac2.Linux.g++",
            "filledWith": "CoreGeth-1.12.9-unstable-d64998ce9b05f4f41b35740c69c4b402e41a3105",
            "lllcversion": "Version: 0.5.14-develop.2021.11.27+commit.401d5358.Linux.g++",
            "source": "src/GeneralStateTestsFiller/stRevertTest/RevertOnEmptyStackFiller.json",
            "sourceHash": "ec0b0772836ddb0c4daefe63af330d39f98669fd32a95fe33ab17fffa7710408"
        },
        "env": {
            "currentCoinbase": "0x2adc25665018aa1fe0e6bc666dac8fc2697ff9ba",
            "currentDifficulty": "0x20000",
            "currentGasLimit": "0x989680",
            "currentNumber": "0x1",
            "currentTimestamp": "0x3e8",
            "previousHash": "0x5e20a0453cecd065ea59c37ac63e079ee08998b6045136a8ce6635c7912ec0b6"
        },
        "pre": {
            "0xa000000000000000000000000000000000000000": {
                "code": "0xfd",
                "balance": "0x0"
            },
            "0xa94f5374fce5edbc8e2a8697c15331677e6ebf0b": {
                "balance": "0x5af3107a4000"
            }
        },
        "transaction": {
            "gasPrice": "0xa",
            "nonce": "0x0",
            "to": "0xa000000000000000000000000000000000000000",
            "data": [
                "0x"
            ],
            "gasLimit": [
                "0x1e8480"
            ],
            "value": [
                "0x00"
            ],
            "secretKey": "0x45a915e4d060149eb4365960e6a7a45f334393093061116b197e3240065ff2d8",
            "sender": "0xa94f5374fce5edbc8e2a8697c15331677e6ebf0b"
        },
        "post": {
            "ETC_Magneto": [
                {
                    "hash": "1a1098f7e9910cdab952f9cdf04c0a19d7e588fcf171d3026d6fce2ff0706a21",
                    "logs": "1dcc4de8dec75d7aab85b567b6ccd41ad312451b948a7413f0a142fd40d49347",
                    "txbytes": "0xf860800a831e848094a00000000000000000000000000000000000000080801ba0d2930ecbb7ac6800dc8327166abee7e583a849b5227924da23c21fdef394b9d2a0746757ad43c4a34031ebf7186c40781e418f5da69a149f9183fd561618ccbe79",
                    "indexes": {
                        "data": 0,
                        "gas": 0,
                        "value": 0
                    }
                }
            ],
            "ETC_Mystique": [
                {
                    "hash": "1a1098f7e9910cdab952f9cdf04c0a19d7e588fcf171d3026d6fce2ff0706a21",
                    "logs": "1dcc4de8dec75d7aab85b567b6ccd41ad312451b948a7413f0a142fd40d49347",
                    "txbytes": "0xf860800a831e848094a00000000000000000000000000000000000000080801ba0d2930ecbb7ac6800dc8327166abee7e583a849b5227924da23c21fdef394b9d2a0746757ad43c4a34031ebf7186c40781e418f5da69a149f9183fd561618ccbe79",
                    "indexes": {
                        "data": 0,
                        "gas": 0,
                        "value": 0
                    }
                }
            ],
            "ETC_Phoenix": [
                {
                    "hash": "1a1098f7e9910cdab952f9cdf04c0a19d7e588fcf171d3026d6fce2ff0706a21",
                    "logs": "1dcc4de8dec75d7aab85b567b6ccd41ad312451b948a7413f0a142fd40d49347",
                    "txbytes": "0xf860800a831e848094a00000000000000000000000000000000000000080801ba0d2930ecbb7ac6800dc8327166abee7e583a849b5227924da23c21fdef394b9d2a0746757ad43c4a34031ebf7186c40781e418f5da69a149f9183fd561618ccbe79",
                    "indexes": {
                        "data": 0,
                        "gas": 0,
                        "value": 0
                    }
                }
            ]
        }
    }
}