{
    "RevertInStaticCall": {
        "_info": {
            "comment": "",
            "filling-rpc-server": "evm version 1.10.16-unstable-0f893109-20220105",
            "filling-tool-version": "retesteth-0.2.2-testinfo+commit.01c6aac2.Linux.g++",
            "filledWith": "CoreGeth-1.12.9-unstable-d390462df9df233b60b4cd7a37db5b3043832022",
            "lllcversion": "Version: 0.5.14-develop.2021.11.27+commit.401d5358.Linux.g++",
            "source": "src/GeneralStateTestsFiller/stRevertTest/RevertInStaticCallFiller.json",
            "sourceHash": "a762f22b61d6dc11589f349331f15e564522a61a0630b42dbcea38a46084804b"
        },
        "env": {
            "currentCoinbase": "0x2adc25665018aa1fe0e6bc666dac8fc2697ff9ba",
            "currentDifficulty": "0x20000",
            "currentGasLimit": "0xf4240",
            "currentNumber": "0x1",
            "currentTimestamp": "0x3e8",
            "previousHash": "0x5e20a0453cecd065ea59c37ac63e079ee08998b6045136a8ce6635c7912ec0b6"
        },
        "pre": {
            "0x1000000000000000000000000000000000000000": {
                "code": "0x604060006040600073945304eb96065b2a98b57a48a06ae28d285a71b561c350fa60005500",
                "balance": "0x3e8",
                "nonce": "0x0"
            },
            "0x945304eb96065b2a98b57a48a06ae28d285a71b5": {
                "code": "0x60006000fd00",
                "balance": "0x0",
                "nonce": "0x0"
            },
            "0xa94f5374fce5edbc8e2a8697c15331677e6ebf0b": {
                "code": "0x",
                "balance": "0x5f5e100",
                "nonce": "0x0"
            }
        },
        "transaction": {
            "gasPrice": "0xa",
            "nonce": "0x0",
            "to": "0x1000000000000000000000000000000000000000",
            "data": [
                "0x"
            ],
            "gasLimit": [
                "0x19a54"
            ],
            "value": [
                "0x00"
            ],
            "secretKey": "0x45a915e4d060149eb4365960e6a7a45f334393093061116b197e3240065ff2d8",
            "sender": "0xa94f5374fce5edbc8e2a8697c15331677e6ebf0b"
        },
        "post": {
            "ETC_Magneto": [
                {
                    "hash": "92ad6cc308407bf6df19e6ac8798ae4ff7dc61d568595a8fdafc8846d5286c51",
                    "logs": "1dcc4de8dec75d7aab85b567b6ccd41ad312451b948a7413f0a142fd40d49347",
                    "txbytes": "0xf860800a83019a5494100000000000000000000000000000000000000080801ba0a5f995ecdea1634598844fb12bf88f4128e99c411b7ca069e50b0082a30b4a93a053ef5ec7e2b4f168fed8387df495cbab666ff039a7c7ad5c188dc905e5ca02e8",
                    "indexes": {
                        "data": 0,
                        "gas": 0,
                        "value": 0
                    }
                }
            ],
            "ETC_Mystique": [
                {
                    "hash": "92ad6cc308407bf6df19e6ac8798ae4ff7dc61d568595a8fdafc8846d5286c51",
                    "logs": "1dcc4de8dec75d7aab85b567b6ccd41ad312451b948a7413f0a142fd40d49347",
                    "txbytes": "0xf860800a83019a5494100000000000000000000000000000000000000080801ba0a5f995ecdea1634598844fb12bf88f4128e99c411b7ca069e50b0082a30b4a93a053ef5ec7e2b4f168fed8387df495cbab666ff039a7c7ad5c188dc905e5ca02e8",
                    "indexes": {
                        "data": 0,
                        "gas": 0,
                        "value": 0
                    }
                }
            ],
            "ETC_Phoenix": [
                {
                    "hash": "0cc935110440708864d7acf59c91790b24dbe20499de7530ffec002443d2028e",
                    "logs": "1dcc4de8dec75d7aab85b567b6ccd41ad312451b948a7413f0a142fd40d49347",
                    "txbytes": "0xf860800a83019a5494100000000000000000000000000000000000000080801ba0a5f995ecdea1634598844fb12bf88f4128e99c411b7ca069e50b0082a30b4a93a053ef5ec7e2b4f168fed8387df495cbab666ff039a7c7ad5c188dc905e5ca02e8",
                    "indexes": {
                        "data": 0,
                        "gas": 0,
                        "value": 0
                    }
                }
            ]
        }
    }
}