{
    "RevertPrefoundEmptyCallOOG": {
        "_info": {
            "comment": "",
            "filling-rpc-server": "evm version 1.10.16-unstable-0f893109-20220105",
            "filling-tool-version": "retesteth-0.2.2-testinfo+commit.01c6aac2.Linux.g++",
            "filledWith": "CoreGeth-1.12.9-unstable-f4059ddd82d975bdc54fa648e5422a80172161cb",
            "lllcversion": "Version: 0.5.14-develop.2021.11.27+commit.401d5358.Linux.g++",
            "source": "src/GeneralStateTestsFiller/stRevertTest/RevertPrefoundEmptyCallOOGFiller.json",
            "sourceHash": "84ef29b21bae9c84d61d6a7ae801c0d22988d20e3f865177a1206d3bf68f5fce"
        },
        "env": {
            "currentCoinbase": "2adc25665018aa1fe0e6bc666dac8fc2697ff9ba",
            "currentDifficulty": "0x20000",
            "currentRandom": null,
            "currentGasLimit": "0x989680",
            "currentNumber": "0x1",
            "currentTimestamp": "0x3e8",
            "currentBaseFee": "0xa"
        },
        "pre": {
            "0x7db299e0885c85039f56fa504a13dd8ce8a56aa7": {
                "balance": "0x0"
            },
            "0xa000000000000000000000000000000000000000": {
                "code": "0x60206000602060006000737db299e0885c85039f56fa504a13dd8ce8a56aa761c350f1600055600c600155600c60025500",
                "balance": "0x1"
            },
            "0xa94f5374fce5edbc8e2a8697c15331677e6ebf0b": {
                "balance": "0xe8d4a51000"
            }
        },
        "transaction": {
            "gasPrice": "0xa",
            "maxFeePerGas": null,
            "maxPriorityFeePerGas": null,
            "nonce": "0x0",
            "to": "0xa000000000000000000000000000000000000000",
            "data": [
                "0x"
            ],
            "gasLimit": [
                "0xf618"
            ],
            "value": [
                "0x00"
            ],
            "secretKey": "0x45a915e4d060149eb4365960e6a7a45f334393093061116b197e3240065ff2d8"
        },
        "out": "0x",
        "post": {
            "ETC_Magneto": [
                {
                    "hash": "d18bbe2d5fefd9c3945a2b3e35b3865833675d9f9b704a0f0c1d2e78e6a78c5f",
                    "logs": "1dcc4de8dec75d7aab85b567b6ccd41ad312451b948a7413f0a142fd40d49347",
                    "txbytes": "0xf85f800a82f61894a00000000000000000000000000000000000000080801ca0fcfd546c280719ab9dcb8b2be2724922ede734668afaeaec89bb8ce58c06ceada07359ca6ebd7d641508edb0ac7f815a1ee6874875102e3b83e3a5bfde544c17f2",
                    "indexes": {
                        "data": 0,
                        "gas": 0,
                        "value": 0
                    }
                }
            ],
            "ETC_Mystique": [
                {
                    "hash": "d18bbe2d5fefd9c3945a2b3e35b3865833675d9f9b704a0f0c1d2e78e6a78c5f",
                    "logs": "1dcc4de8dec75d7aab85b567b6ccd41ad312451b948a7413f0a142fd40d49347",
                    "txbytes": "0xf85f800a82f61894a00000000000000000000000000000000000000080801ca0fcfd546c280719ab9dcb8b2be2724922ede734668afaeaec89bb8ce58c06ceada07359ca6ebd7d641508edb0ac7f815a1ee6874875102e3b83e3a5bfde544c17f2",
                    "indexes": {
                        "data": 0,
                        "gas": 0,
                        "value": 0
                    }
                }
            ],
            "ETC_Phoenix": [
                {
                    "hash": "d18bbe2d5fefd9c3945a2b3e35b3865833675d9f9b704a0f0c1d2e78e6a78c5f",
                    "logs": "1dcc4de8dec75d7aab85b567b6ccd41ad312451b948a7413f0a142fd40d49347",
                    "txbytes": "0xf85f800a82f61894a00000000000000000000000000000000000000080801ca0fcfd546c280719ab9dcb8b2be2724922ede734668afaeaec89bb8ce58c06ceada07359ca6ebd7d641508edb0ac7f815a1ee6874875102e3b83e3a5bfde544c17f2",
                    "indexes": {
                        "data": 0,
                        "gas": 0,
                        "value": 0
                    }
                }
            ]
        }
    }
}