{
    "RevertDepthCreateAddressCollision": {
        "_info": {
            "comment": "",
            "filling-rpc-server": "evm version 1.10.16-unstable-0f893109-20220105",
            "filling-tool-version": "retesteth-0.2.2-testinfo+commit.01c6aac2.Linux.g++",
            "filledWith": "CoreGeth-1.12.9-unstable-d64998ce9b05f4f41b35740c69c4b402e41a3105",
            "lllcversion": "Version: 0.5.14-develop.2021.11.27+commit.401d5358.Linux.g++",
            "source": "src/GeneralStateTestsFiller/stRevertTest/RevertDepthCreateAddressCollisionFiller.json",
            "sourceHash": "21f15392f7dfd021ba9235d91fa828269c3f454ce1314ab5d89c6d97c3905bd9"
        },
        "env": {
            "currentCoinbase": "0x2adc25665018aa1fe0e6bc666dac8fc2697ff9ba",
            "currentDifficulty": "0x20000",
            "currentGasLimit": "0x989680",
            "currentNumber": "0x1",
            "currentTimestamp": "0x3e8",
            "previousHash": "0x5e20a0453cecd065ea59c37ac63e079ee08998b6045136a8ce6635c7912ec0b6"
        },
        "pre": {
            "0x3e180b1862f9d158abb5e519a6d8605540c23682": {
                "code": "0x60016000556000600060006000600073b000000000000000000000000000000000000000600035f1600155600c60045500",
                "balance": "0x5",
                "nonce": "0x36"
            },
            "0xa94f5374fce5edbc8e2a8697c15331677e6ebf0b": {
                "balance": "0xe8d4a51000"
            },
            "0xb000000000000000000000000000000000000000": {
                "code": "0x6008600255600060006000f050600c60035500",
                "balance": "0x0"
            }
        },
        "transaction": {
            "gasPrice": "0xa",
            "nonce": "0x0",
            "to": "0x3e180b1862f9d158abb5e519a6d8605540c23682",
            "data": [
                "0x000000000000000000000000000000000000000000000000000000000000ea60",
                "0x000000000000000000000000000000000000000000000000000000000001ea60"
            ],
            "gasLimit": [
                "0x1adb0",
                "0x27100"
            ],
            "value": [
                "0x01",
                "0x00"
            ],
            "secretKey": "0x45a915e4d060149eb4365960e6a7a45f334393093061116b197e3240065ff2d8",
            "sender": "0xa94f5374fce5edbc8e2a8697c15331677e6ebf0b"
        },
        "post": {
            "ETC_Magneto": [
                {
                    "hash": "1fba9e61ceddd63fbbf20d5aa6ac40f4b4640037de4ad007f00f03c39da20465",
                    "logs": "1dcc4de8dec75d7aab85b567b6ccd41ad312451b948a7413f0a142fd40d49347",
                    "txbytes": "0xf880800a83027100943e180b1862f9d158abb5e519a6d8605540c2368201a0000000000000000000000000000000000000000000000000000000000001ea601ca0268c803f60e42df404a73dd684695dc02c9b87dfacb7251759c2e65d538e871da03392af8aadc6dcfbe1c19886fbfbadb6a64ea0b73bbe45daf5b3c2b1ed070cb1",
                    "indexes": {
                        "data": 1,
                        "gas": 1,
                        "value": 0
                    }
                },
                {
                    "hash": "1fba9e61ceddd63fbbf20d5aa6ac40f4b4640037de4ad007f00f03c39da20465",
                    "logs": "1dcc4de8dec75d7aab85b567b6ccd41ad312451b948a7413f0a142fd40d49347",
                    "txbytes": "0xf880800a83027100943e180b1862f9d158abb5e519a6d8605540c2368280a0000000000000000000000000000000000000000000000000000000000001ea601ca05226210dc9dc93ed1604cbf44b3223d3ab0da36f9b41dfefb18b2ad02eeaa986a0283e727d29c9845fd81795ed2eadd8c49c2eba3a8093adbb605edc2a51e7df9f",
                    "indexes": {
                        "data": 1,
                        "gas": 1,
                        "value": 1
                    }
                },
                {
                    "hash": "709c7e123754bfe3a8889737839191ecbddde279e6b7945227c1faff4d77999c",
                    "logs": "1dcc4de8dec75d7aab85b567b6ccd41ad312451b948a7413f0a142fd40d49347",
                    "txbytes": "0xf880800a83027100943e180b1862f9d158abb5e519a6d8605540c2368201a0000000000000000000000000000000000000000000000000000000000000ea601ba077772f1caa3b94d2c311de512622007786928572e21f57cf5b3f7bc2218c7478a05f5e6c335e66fdc5022cfa37866aaf6bb1643ba97456d87137eaf81675a47478",
                    "indexes": {
                        "data": 0,
                        "gas": 1,
                        "value": 0
                    }
                },
                {
                    "hash": "717c6229b1191b54faac6ebb82d58334a419cabfbc75ec444a104b1de57ddb8d",
                    "logs": "1dcc4de8dec75d7aab85b567b6ccd41ad312451b948a7413f0a142fd40d49347",
                    "txbytes": "0xf880800a83027100943e180b1862f9d158abb5e519a6d8605540c2368280a0000000000000000000000000000000000000000000000000000000000000ea601ba00f6bf09f6501426ef6d138adc67baf51ebb0fb794439f85355f107b6f4ad612fa0629e1d2c0ef292e544d80eef8199730ad616bc6165f04d52b6ed7d60d3e4ad3c",
                    "indexes": {
                        "data": 0,
                        "gas": 1,
                        "value": 1
                    }
                },
                {
                    "hash": "1be99b5b7f565d4da804eb08e5ca2525f44b94c4c5580557af49cd199174e290",
                    "logs": "1dcc4de8dec75d7aab85b567b6ccd41ad312451b948a7413f0a142fd40d49347",
                    "txbytes": "0xf880800a8301adb0943e180b1862f9d158abb5e519a6d8605540c2368201a0000000000000000000000000000000000000000000000000000000000001ea601ca0523cd1fbeb8c991c610157b7f2033b7e199fcbae3fe069ecaca55afcc2a5352aa0466960dc82c3a086e8f7567088aff10688d65036e4df9c8c8301cb1dfb5728fa",
                    "indexes": {
                        "data": 1,
                        "gas": 0,
                        "value": 0
                    }
                },
                {
                    "hash": "1be99b5b7f565d4da804eb08e5ca2525f44b94c4c5580557af49cd199174e290",
                    "logs": "1dcc4de8dec75d7aab85b567b6ccd41ad312451b948a7413f0a142fd40d49347",
                    "txbytes": "0xf880800a8301adb0943e180b1862f9d158abb5e519a6d8605540c2368280a0000000000000000000000000000000000000000000000000000000000001ea601ba0f51fec31fb51356069d31ff5573774161979d8c22c4633e3a15dcb4b1d14c1ada02d3ebeae4186f0d3f5dea9d2134b33f1e7f787e27c026e898c4b3c09b6775825",
                    "indexes": {
                        "data": 1,
                        "gas": 0,
                        "value": 1
                    }
                },
                {
                    "hash": "1be99b5b7f565d4da804eb08e5ca2525f44b94c4c5580557af49cd199174e290",
                    "logs": "1dcc4de8dec75d7aab85b567b6ccd41ad312451b948a7413f0a142fd40d49347",
                    "txbytes": "0xf880800a8301adb0943e180b1862f9d158abb5e519a6d8605540c2368201a0000000000000000000000000000000000000000000000000000000000000ea601ca0518c79367a18d73d4e47fbb1611e86e4f335118b81e270cc9e42bc63f4ed5fcfa017d1c19eaa017ff25d40aad9caa897b3e273392a0a872bba7eefef384a38d9a1",
                    "indexes": {
                        "data": 0,
                        "gas": 0,
                        "value": 0
                    }
                },
                {
                    "hash": "1be99b5b7f565d4da804eb08e5ca2525f44b94c4c5580557af49cd199174e290",
                    "logs": "1dcc4de8dec75d7aab85b567b6ccd41ad312451b948a7413f0a142fd40d49347",
                    "txbytes": "0xf880800a8301adb0943e180b1862f9d158abb5e519a6d8605540c2368280a0000000000000000000000000000000000000000000000000000000000000ea601ba0217eb4240037e38d93f6cedce218cdf7dc22b920c2084c6a4ece1f0467b559aca031dc37042bd3190bfeb02b819f333b926cb01d8005f30a611655ec615fcc8e88",
                    "indexes": {
                        "data": 0,
                        "gas": 0,
                        "value": 1
                    }
                }
            ],
            "ETC_Mystique": [
                {
                    "hash": "1fba9e61ceddd63fbbf20d5aa6ac40f4b4640037de4ad007f00f03c39da20465",
                    "logs": "1dcc4de8dec75d7aab85b567b6ccd41ad312451b948a7413f0a142fd40d49347",
                    "txbytes": "0xf880800a83027100943e180b1862f9d158abb5e519a6d8605540c2368201a0000000000000000000000000000000000000000000000000000000000001ea601ca0268c803f60e42df404a73dd684695dc02c9b87dfacb7251759c2e65d538e871da03392af8aadc6dcfbe1c19886fbfbadb6a64ea0b73bbe45daf5b3c2b1ed070cb1",
                    "indexes": {
                        "data": 1,
                        "gas": 1,
                        "value": 0
                    }
                },
                {
                    "hash": "1fba9e61ceddd63fbbf20d5aa6ac40f4b4640037de4ad007f00f03c39da20465",
                    "logs": "1dcc4de8dec75d7aab85b567b6ccd41ad312451b948a7413f0a142fd40d49347",
                    "txbytes": "0xf880800a83027100943e180b1862f9d158abb5e519a6d8605540c2368280a0000000000000000000000000000000000000000000000000000000000001ea601ca05226210dc9dc93ed1604cbf44b3223d3ab0da36f9b41dfefb18b2ad02eeaa986a0283e727d29c9845fd81795ed2eadd8c49c2eba3a8093adbb605edc2a51e7df9f",
                    "indexes": {
                        "data": 1,
                        "gas": 1,
                        "value": 1
                    }
                },
                {
                    "hash": "709c7e123754bfe3a8889737839191ecbddde279e6b7945227c1faff4d77999c",
                    "logs": "1dcc4de8dec75d7aab85b567b6ccd41ad312451b948a7413f0a142fd40d49347",
                    "txbytes": "0xf880800a83027100943e180b1862f9d158abb5e519a6d8605540c2368201a0000000000000000000000000000000000000000000000000000000000000ea601ba077772f1caa3b94d2c311de512622007786928572e21f57cf5b3f7bc2218c7478a05f5e6c335e66fdc5022cfa37866aaf6bb1643ba97456d87137eaf81675a47478",
                    "indexes": {
                        "data": 0,
                        "gas": 1,
                        "value": 0
                    }
                },
                {
                    "hash": "717c6229b1191b54faac6ebb82d58334a419cabfbc75ec444a104b1de57ddb8d",
                    "logs": "1dcc4de8dec75d7aab85b567b6ccd41ad312451b948a7413f0a142fd40d49347",
                    "txbytes": "0xf880800a83027100943e180b1862f9d158abb5e519a6d8605540c2368280a0000000000000000000000000000000000000000000000000000000000000ea601ba00f6bf09f6501426ef6d138adc67baf51ebb0fb794439f85355f107b6f4ad612fa0629e1d2c0ef292e544d80eef8199730ad616bc6165f04d52b6ed7d60d3e4ad3c",
                    "indexes": {
                        "data": 0,
                        "gas": 1,
                        "value": 1
                    }
                },
                {
                    "hash": "1be99b5b7f565d4da804eb08e5ca2525f44b94c4c5580557af49cd199174e290",
                    "logs": "1dcc4de8dec75d7aab85b567b6ccd41ad312451b948a7413f0a142fd40d49347",
                    "txbytes": "0xf880800a8301adb0943e180b1862f9d158abb5e519a6d8605540c2368201a0000000000000000000000000000000000000000000000000000000000001ea601ca0523cd1fbeb8c991c610157b7f2033b7e199fcbae3fe069ecaca55afcc2a5352aa0466960dc82c3a086e8f7567088aff10688d65036e4df9c8c8301cb1dfb5728fa",
                    "indexes": {
                        "data": 1,
                        "gas": 0,
                        "value": 0
                    }
                },
                {
                    "hash": "1be99b5b7f565d4da804eb08e5ca2525f44b94c4c5580557af49cd199174e290",
                    "logs": "1dcc4de8dec75d7aab85b567b6ccd41ad312451b948a7413f0a142fd40d49347",
                    "txbytes": "0xf880800a8301adb0943e180b1862f9d158abb5e519a6d8605540c2368280a0000000000000000000000000000000000000000000000000000000000001ea601ba0f51fec31fb51356069d31ff5573774161979d8c22c4633e3a15dcb4b1d14c1ada02d3ebeae4186f0d3f5dea9d2134b33f1e7f787e27c026e898c4b3c09b6775825",
                    "indexes": {
                        "data": 1,
                        "gas": 0,
                        "value": 1
                    }
                },
                {
                    "hash": "1be99b5b7f565d4da804eb08e5ca2525f44b94c4c5580557af49cd199174e290",
                    "logs": "1dcc4de8dec75d7aab85b567b6ccd41ad312451b948a7413f0a142fd40d49347",
                    "txbytes": "0xf880800a8301adb0943e180b1862f9d158abb5e519a6d8605540c2368201a0000000000000000000000000000000000000000000000000000000000000ea601ca0518c79367a18d73d4e47fbb1611e86e4f335118b81e270cc9e42bc63f4ed5fcfa017d1c19eaa017ff25d40aad9caa897b3e273392a0a872bba7eefef384a38d9a1",
                    "indexes": {
                        "data": 0,
                        "gas": 0,
                        "value": 0
                    }
                },
                {
                    "hash": "1be99b5b7f565d4da804eb08e5ca2525f44b94c4c5580557af49cd199174e290",
                    "logs": "1dcc4de8dec75d7aab85b567b6ccd41ad312451b948a7413f0a142fd40d49347",
                    "txbytes": "0xf880800a8301adb0943e180b1862f9d158abb5e519a6d8605540c2368280a0000000000000000000000000000000000000000000000000000000000000ea601ba0217eb4240037e38d93f6cedce218cdf7dc22b920c2084c6a4ece1f0467b559aca031dc37042bd3190bfeb02b819f333b926cb01d8005f30a611655ec615fcc8e88",
                    "indexes": {
                        "data": 0,
                        "gas": 0,
                        "value": 1
                    }
                }
            ],
            "ETC_Phoenix": [
                {
                    "hash": "1fba9e61ceddd63fbbf20d5aa6ac40f4b4640037de4ad007f00f03c39da20465",
                    "logs": "1dcc4de8dec75d7aab85b567b6ccd41ad312451b948a7413f0a142fd40d49347",
                    "txbytes": "0xf880800a83027100943e180b1862f9d158abb5e519a6d8605540c2368201a0000000000000000000000000000000000000000000000000000000000001ea601ca0268c803f60e42df404a73dd684695dc02c9b87dfacb7251759c2e65d538e871da03392af8aadc6dcfbe1c19886fbfbadb6a64ea0b73bbe45daf5b3c2b1ed070cb1",
                    "indexes": {
                        "data": 1,
                        "gas": 1,
                        "value": 0
                    }
                },
                {
                    "hash": "1fba9e61ceddd63fbbf20d5aa6ac40f4b4640037de4ad007f00f03c39da20465",
                    "logs": "1dcc4de8dec75d7aab85b567b6ccd41ad312451b948a7413f0a142fd40d49347",
                    "txbytes": "0xf880800a83027100943e180b1862f9d158abb5e519a6d8605540c2368280a0000000000000000000000000000000000000000000000000000000000001ea601ca05226210dc9dc93ed1604cbf44b3223d3ab0da36f9b41dfefb18b2ad02eeaa986a0283e727d29c9845fd81795ed2eadd8c49c2eba3a8093adbb605edc2a51e7df9f",
                    "indexes": {
                        "data": 1,
                        "gas": 1,
                        "value": 1
                    }
                },
                {
                    "hash": "019e603a596f903be327730e3f961bf394e38dd1a64727d6cc34897c62daf2d7",
                    "logs": "1dcc4de8dec75d7aab85b567b6ccd41ad312451b948a7413f0a142fd40d49347",
                    "txbytes": "0xf880800a83027100943e180b1862f9d158abb5e519a6d8605540c2368201a0000000000000000000000000000000000000000000000000000000000000ea601ba077772f1caa3b94d2c311de512622007786928572e21f57cf5b3f7bc2218c7478a05f5e6c335e66fdc5022cfa37866aaf6bb1643ba97456d87137eaf81675a47478",
                    "indexes": {
                        "data": 0,
                        "gas": 1,
                        "value": 0
                    }
                },
                {
                    "hash": "02402a3f46c8c8ff9c582088ad5b884de1ca136c28e2252482eed0ae151ed9d3",
                    "logs": "1dcc4de8dec75d7aab85b567b6ccd41ad312451b948a7413f0a142fd40d49347",
                    "txbytes": "0xf880800a83027100943e180b1862f9d158abb5e519a6d8605540c2368280a0000000000000000000000000000000000000000000000000000000000000ea601ba00f6bf09f6501426ef6d138adc67baf51ebb0fb794439f85355f107b6f4ad612fa0629e1d2c0ef292e544d80eef8199730ad616bc6165f04d52b6ed7d60d3e4ad3c",
                    "indexes": {
                        "data": 0,
                        "gas": 1,
                        "value": 1
                    }
                },
                {
                    "hash": "1be99b5b7f565d4da804eb08e5ca2525f44b94c4c5580557af49cd199174e290",
                    "logs": "1dcc4de8dec75d7aab85b567b6ccd41ad312451b948a7413f0a142fd40d49347",
                    "txbytes": "0xf880800a8301adb0943e180b1862f9d158abb5e519a6d8605540c2368201a0000000000000000000000000000000000000000000000000000000000001ea601ca0523cd1fbeb8c991c610157b7f2033b7e199fcbae3fe069ecaca55afcc2a5352aa0466960dc82c3a086e8f7567088aff10688d65036e4df9c8c8301cb1dfb5728fa",
                    "indexes": {
                        "data": 1,
                        "gas": 0,
                        "value": 0
                    }
                },
                {
                    "hash": "1be99b5b7f565d4da804eb08e5ca2525f44b94c4c5580557af49cd199174e290",
                    "logs": "1dcc4de8dec75d7aab85b567b6ccd41ad312451b948a7413f0a142fd40d49347",
                    "txbytes": "0xf880800a8301adb0943e180b1862f9d158abb5e519a6d8605540c2368280a0000000000000000000000000000000000000000000000000000000000001ea601ba0f51fec31fb51356069d31ff5573774161979d8c22c4633e3a15dcb4b1d14c1ada02d3ebeae4186f0d3f5dea9d2134b33f1e7f787e27c026e898c4b3c09b6775825",
                    "indexes": {
                        "data": 1,
                        "gas": 0,
                        "value": 1
                    }
                },
                {
                    "hash": "1be99b5b7f565d4da804eb08e5ca2525f44b94c4c5580557af49cd199174e290",
                    "logs": "1dcc4de8dec75d7aab85b567b6ccd41ad312451b948a7413f0a142fd40d49347",
                    "txbytes": "0xf880800a8301adb0943e180b1862f9d158abb5e519a6d8605540c2368201a0000000000000000000000000000000000000000000000000000000000000ea601ca0518c79367a18d73d4e47fbb1611e86e4f335118b81e270cc9e42bc63f4ed5fcfa017d1c19eaa017ff25d40aad9caa897b3e273392a0a872bba7eefef384a38d9a1",
                    "indexes": {
                        "data": 0,
                        "gas": 0,
                        "value": 0
                    }
                },
                {
                    "hash": "1be99b5b7f565d4da804eb08e5ca2525f44b94c4c5580557af49cd199174e290",
                    "logs": "1dcc4de8dec75d7aab85b567b6ccd41ad312451b948a7413f0a142fd40d49347",
                    "txbytes": "0xf880800a8301adb0943e180b1862f9d158abb5e519a6d8605540c2368280a0000000000000000000000000000000000000000000000000000000000000ea601ba0217eb4240037e38d93f6cedce218cdf7dc22b920c2084c6a4ece1f0467b559aca031dc37042bd3190bfeb02b819f333b926cb01d8005f30a611655ec615fcc8e88",
                    "indexes": {
                        "data": 0,
                        "gas": 0,
                        "value": 1
                    }
                }
            ]
        }
    }
}