{
    "RevertSubCallStorageOOG2": {
        "_info": {
            "comment": "",
            "filling-rpc-server": "evm version 1.10.16-unstable-0f893109-20220105",
            "filling-tool-version": "retesteth-0.2.2-testinfo+commit.01c6aac2.Linux.g++",
            "filledWith": "CoreGeth-1.12.9-unstable-4cf5b2b0837228e7d5eadba6a01ffb80e9288e21",
            "lllcversion": "Version: 0.5.14-develop.2021.11.27+commit.401d5358.Linux.g++",
            "source": "src/GeneralStateTestsFiller/stRevertTest/RevertSubCallStorageOOG2Filler.json",
            "sourceHash": "7a864814a1ed283d661dac2e17126cee7dc8e67994eff0b8c60d2fcd02b6d412"
        },
        "env": {
            "currentCoinbase": "0x2adc25665018aa1fe0e6bc666dac8fc2697ff9ba",
            "currentDifficulty": "0x20000",
            "currentGasLimit": "0x989680",
            "currentNumber": "0x1",
            "currentTimestamp": "0x3e8",
            "previousHash": "0x5e20a0453cecd065ea59c37ac63e079ee08998b6045136a8ce6635c7912ec0b6"
        },
        "pre": {
            "0xa000000000000000000000000000000000000000": {
                "code": "0x60606040526000357c0100000000000000000000000000000000000000000000000000000000900463ffffffff168063b28175c4146046578063c0406226146052575b6000565b3460005760506076565b005b34600057605c6081565b604051808215151515815260200191505060405180910390f35b600c6000819055505b565b600060896076565b600d600081905550600e6001819055505b905600a165627a7a72305820b7c6987c21e63fed8a74d899557744a3be8d3fda191ce0f56cf261d6b860f6b40029",
                "balance": "0x1",
                "nonce": "0x0"
            },
            "0xa94f5374fce5edbc8e2a8697c15331677e6ebf0b": {
                "code": "0x",
                "balance": "0xe8d4a51000",
                "nonce": "0x0"
            }
        },
        "transaction": {
            "gasPrice": "0xa",
            "nonce": "0x0",
            "to": "0xa000000000000000000000000000000000000000",
            "data": [
                "0xc0406226"
            ],
            "gasLimit": [
                "0xf03c",
                "0x2c308"
            ],
            "value": [
                "0x00",
                "0x01"
            ],
            "secretKey": "0x45a915e4d060149eb4365960e6a7a45f334393093061116b197e3240065ff2d8",
            "sender": "0xa94f5374fce5edbc8e2a8697c15331677e6ebf0b"
        },
        "post": {
            "ETC_Magneto": [
                {
                    "hash": "000e2215feeaaca8d6072d43b2e028bd3503845694dd1cd42304b14e4bb4e963",
                    "logs": "1dcc4de8dec75d7aab85b567b6ccd41ad312451b948a7413f0a142fd40d49347",
                    "txbytes": "0xf863800a82f03c94a0000000000000000000000000000000000000008084c04062261ca028024078605850d2692b1d69f9b751065a43452a899e932b65c63d90df8a6faba01685ec76c7b9aa0c2009cc2afb5e19b05a4c7eeddc7eb06c8df3ba69e00cc8c0",
                    "indexes": {
                        "data": 0,
                        "gas": 0,
                        "value": 0
                    }
                },
                {
                    "hash": "000e2215feeaaca8d6072d43b2e028bd3503845694dd1cd42304b14e4bb4e963",
                    "logs": "1dcc4de8dec75d7aab85b567b6ccd41ad312451b948a7413f0a142fd40d49347",
                    "txbytes": "0xf863800a82f03c94a0000000000000000000000000000000000000000184c04062261ba0aaf161e07200f35e1a4003cf459484d75c92ae4e353eeb38c7688ae8dc131f56a03136423b20689ffd62eac5c5b0d77fb8004740f37010f422e2def9e1155a1900",
                    "indexes": {
                        "data": 0,
                        "gas": 0,
                        "value": 1
                    }
                },
                {
                    "hash": "bdb3310d0634c4d72379136ba297ceef1776e4ad43566d07fb36e4770f06b093",
                    "logs": "1dcc4de8dec75d7aab85b567b6ccd41ad312451b948a7413f0a142fd40d49347",
                    "txbytes": "0xf864800a8302c30894a0000000000000000000000000000000000000008084c04062261ca0208a2bbfbd6b1fe81b80346ecd8810f4301d89f46716f903fe891f42ed7f2041a020d0f2a56419a399f5ed1dd785bd1adb3aedbe1a755d432d2330a531d0367d82",
                    "indexes": {
                        "data": 0,
                        "gas": 1,
                        "value": 0
                    }
                },
                {
                    "hash": "394358c0b79f9ce6a179cda98d9b888007a7eba61899cdcae570f7ad813eb600",
                    "logs": "1dcc4de8dec75d7aab85b567b6ccd41ad312451b948a7413f0a142fd40d49347",
                    "txbytes": "0xf863800a8302c30894a0000000000000000000000000000000000000000184c04062261ca0d110f2706800698cac8c8eac854ca8a2e62ab15f4e77d04760d0fccb3575279b9fd3cca27f52b2b7ce76c8f22a74d80ef82a229df44b0bdf21d733857dc34379",
                    "indexes": {
                        "data": 0,
                        "gas": 1,
                        "value": 1
                    }
                }
            ],
            "ETC_Mystique": [
                {
                    "hash": "000e2215feeaaca8d6072d43b2e028bd3503845694dd1cd42304b14e4bb4e963",
                    "logs": "1dcc4de8dec75d7aab85b567b6ccd41ad312451b948a7413f0a142fd40d49347",
                    "txbytes": "0xf863800a82f03c94a0000000000000000000000000000000000000008084c04062261ca028024078605850d2692b1d69f9b751065a43452a899e932b65c63d90df8a6faba01685ec76c7b9aa0c2009cc2afb5e19b05a4c7eeddc7eb06c8df3ba69e00cc8c0",
                    "indexes": {
                        "data": 0,
                        "gas": 0,
                        "value": 0
                    }
                },
                {
                    "hash": "000e2215feeaaca8d6072d43b2e028bd3503845694dd1cd42304b14e4bb4e963",
                    "logs": "1dcc4de8dec75d7aab85b567b6ccd41ad312451b948a7413f0a142fd40d49347",
                    "txbytes": "0xf863800a82f03c94a0000000000000000000000000000000000000000184c04062261ba0aaf161e07200f35e1a4003cf459484d75c92ae4e353eeb38c7688ae8dc131f56a03136423b20689ffd62eac5c5b0d77fb8004740f37010f422e2def9e1155a1900",
                    "indexes": {
                        "data": 0,
                        "gas": 0,
                        "value": 1
                    }
                },
                {
                    "hash": "bdb3310d0634c4d72379136ba297ceef1776e4ad43566d07fb36e4770f06b093",
                    "logs": "1dcc4de8dec75d7aab85b567b6ccd41ad312451b948a7413f0a142fd40d49347",
                    "txbytes": "0xf864800a8302c30894a0000000000000000000000000000000000000008084c04062261ca0208a2bbfbd6b1fe81b80346ecd8810f4301d89f46716f903fe891f42ed7f2041a020d0f2a56419a399f5ed1dd785bd1adb3aedbe1a755d432d2330a531d0367d82",
                    "indexes": {
                        "data": 0,
                        "gas": 1,
                        "value": 0
                    }
                },
                {
                    "hash": "394358c0b79f9ce6a179cda98d9b888007a7eba61899cdcae570f7ad813eb600",
                    "logs": "1dcc4de8dec75d7aab85b567b6ccd41ad312451b948a7413f0a142fd40d49347",
                    "txbytes": "0xf863800a8302c30894a0000000000000000000000000000000000000000184c04062261ca0d110f2706800698cac8c8eac854ca8a2e62ab15f4e77d04760d0fccb3575279b9fd3cca27f52b2b7ce76c8f22a74d80ef82a229df44b0bdf21d733857dc34379",
                    "indexes": {
                        "data": 0,
                        "gas": 1,
                        "value": 1
                    }
                }
            ],
            "ETC_Phoenix": [
                {
                    "hash": "000e2215feeaaca8d6072d43b2e028bd3503845694dd1cd42304b14e4bb4e963",
                    "logs": "1dcc4de8dec75d7aab85b567b6ccd41ad312451b948a7413f0a142fd40d49347",
                    "txbytes": "0xf863800a82f03c94a0000000000000000000000000000000000000008084c04062261ca028024078605850d2692b1d69f9b751065a43452a899e932b65c63d90df8a6faba01685ec76c7b9aa0c2009cc2afb5e19b05a4c7eeddc7eb06c8df3ba69e00cc8c0",
                    "indexes": {
                        "data": 0,
                        "gas": 0,
                        "value": 0
                    }
                },
                {
                    "hash": "000e2215feeaaca8d6072d43b2e028bd3503845694dd1cd42304b14e4bb4e963",
                    "logs": "1dcc4de8dec75d7aab85b567b6ccd41ad312451b948a7413f0a142fd40d49347",
                    "txbytes": "0xf863800a82f03c94a0000000000000000000000000000000000000000184c04062261ba0aaf161e07200f35e1a4003cf459484d75c92ae4e353eeb38c7688ae8dc131f56a03136423b20689ffd62eac5c5b0d77fb8004740f37010f422e2def9e1155a1900",
                    "indexes": {
                        "data": 0,
                        "gas": 0,
                        "value": 1
                    }
                },
                {
                    "hash": "194591274ce6a7e22cba80e956ddf1b88dba67c832065b3bc44fafa464f48f2d",
                    "logs": "1dcc4de8dec75d7aab85b567b6ccd41ad312451b948a7413f0a142fd40d49347",
                    "txbytes": "0xf864800a8302c30894a0000000000000000000000000000000000000008084c04062261ca0208a2bbfbd6b1fe81b80346ecd8810f4301d89f46716f903fe891f42ed7f2041a020d0f2a56419a399f5ed1dd785bd1adb3aedbe1a755d432d2330a531d0367d82",
                    "indexes": {
                        "data": 0,
                        "gas": 1,
                        "value": 0
                    }
                },
                {
                    "hash": "394358c0b79f9ce6a179cda98d9b888007a7eba61899cdcae570f7ad813eb600",
                    "logs": "1dcc4de8dec75d7aab85b567b6ccd41ad312451b948a7413f0a142fd40d49347",
                    "txbytes": "0xf863800a8302c30894a0000000000000000000000000000000000000000184c04062261ca0d110f2706800698cac8c8eac854ca8a2e62ab15f4e77d04760d0fccb3575279b9fd3cca27f52b2b7ce76c8f22a74d80ef82a229df44b0bdf21d733857dc34379",
                    "indexes": {
                        "data": 0,
                        "gas": 1,
                        "value": 1
                    }
                }
            ]
        }
    }
}