{
    "RevertPrefoundOOG": {
        "_info": {
            "comment": "",
            "filling-rpc-server": "evm version 1.10.16-unstable-0f893109-20220105",
            "filling-tool-version": "retesteth-0.2.2-testinfo+commit.01c6aac2.Linux.g++",
            "filledWith": "CoreGeth-1.12.9-unstable-f4059ddd82d975bdc54fa648e5422a80172161cb",
            "lllcversion": "Version: 0.5.14-develop.2021.11.27+commit.401d5358.Linux.g++",
            "source": "src/GeneralStateTestsFiller/stRevertTest/RevertPrefoundOOGFiller.json",
            "sourceHash": "23c4701eb97b13c8d15a29a34a7d0a110acde6224b52228911b2c6baf725af83"
        },
        "env": {
            "currentCoinbase": "2adc25665018aa1fe0e6bc666dac8fc2697ff9ba",
            "currentDifficulty": "0x20000",
            "currentRandom": null,
            "currentGasLimit": "0x989680",
            "currentNumber": "0x1",
            "currentTimestamp": "0x3e8",
            "currentBaseFee": "0xa"
        },
        "pre": {
            "0x7db299e0885c85039f56fa504a13dd8ce8a56aa7": {
                "balance": "0x1"
            },
            "0xa000000000000000000000000000000000000000": {
                "code": "0x602060006000f0600055622fffff60002000",
                "balance": "0x1"
            },
            "0xa94f5374fce5edbc8e2a8697c15331677e6ebf0b": {
                "balance": "0xe8d4a51000"
            }
        },
        "transaction": {
            "gasPrice": "0xa",
            "maxFeePerGas": null,
            "maxPriorityFeePerGas": null,
            "nonce": "0x0",
            "to": "0xa000000000000000000000000000000000000000",
            "data": [
                "0x"
            ],
            "gasLimit": [
                "0xe30d0"
            ],
            "value": [
                "0x00"
            ],
            "secretKey": "0x45a915e4d060149eb4365960e6a7a45f334393093061116b197e3240065ff2d8"
        },
        "out": "0x",
        "post": {
            "ETC_Magneto": [
                {
                    "hash": "c77c12e2b27ee8b14319e2f9bfac9883e479207cbac0b48285ed943af1c2faef",
                    "logs": "1dcc4de8dec75d7aab85b567b6ccd41ad312451b948a7413f0a142fd40d49347",
                    "txbytes": "0xf860800a830e30d094a00000000000000000000000000000000000000080801ca05c3f1e6773c901e467947ba168cd429e7d7a1ad7ecc450cf5c8f1cbc36336941a07440df464268bd7ba6e64c3d97b467794214530c45ccb2b463397f116e2a7bf2",
                    "indexes": {
                        "data": 0,
                        "gas": 0,
                        "value": 0
                    }
                }
            ],
            "ETC_Mystique": [
                {
                    "hash": "c77c12e2b27ee8b14319e2f9bfac9883e479207cbac0b48285ed943af1c2faef",
                    "logs": "1dcc4de8dec75d7aab85b567b6ccd41ad312451b948a7413f0a142fd40d49347",
                    "txbytes": "0xf860800a830e30d094a00000000000000000000000000000000000000080801ca05c3f1e6773c901e467947ba168cd429e7d7a1ad7ecc450cf5c8f1cbc36336941a07440df464268bd7ba6e64c3d97b467794214530c45ccb2b463397f116e2a7bf2",
                    "indexes": {
                        "data": 0,
                        "gas": 0,
                        "value": 0
                    }
                }
            ],
            "ETC_Phoenix": [
                {
                    "hash": "c77c12e2b27ee8b14319e2f9bfac9883e479207cbac0b48285ed943af1c2faef",
                    "logs": "1dcc4de8dec75d7aab85b567b6ccd41ad312451b948a7413f0a142fd40d49347",
                    "txbytes": "0xf860800a830e30d094a00000000000000000000000000000000000000080801ca05c3f1e6773c901e467947ba168cd429e7d7a1ad7ecc450cf5c8f1cbc36336941a07440df464268bd7ba6e64c3d97b467794214530c45ccb2b463397f116e2a7bf2",
                    "indexes": {
                        "data": 0,
                        "gas": 0,
                        "value": 0
                    }
                }
            ]
        }
    }
}