{
    "TouchToEmptyAccountRevert2": {
        "_info": {
            "comment": "",
            "filling-rpc-server": "evm version 1.10.16-unstable-0f893109-20220105",
            "filling-tool-version": "retesteth-0.2.2-testinfo+commit.01c6aac2.Linux.g++",
            "filledWith": "CoreGeth-1.12.9-unstable-3995a327f2ded5c98324b03792b5ccc22557754f",
            "lllcversion": "Version: 0.5.14-develop.2021.11.27+commit.401d5358.Linux.g++",
            "source": "src/GeneralStateTestsFiller/stRevertTest/TouchToEmptyAccountRevert2Filler.json",
            "sourceHash": "72c7bf163b50349e7310ccc3c286a81aa3c725cfb3f95335236c078519245647"
        },
        "env": {
            "currentCoinbase": "0x2adc25665018aa1fe0e6bc666dac8fc2697ff9ba",
            "currentDifficulty": "0x20000",
            "currentGasLimit": "0x989680",
            "currentNumber": "0x1",
            "currentTimestamp": "0x3e8",
            "currentBaseFee": "0xa",
            "previousHash": "0x5e20a0453cecd065ea59c37ac63e079ee08998b6045136a8ce6635c7912ec0b6"
        },
        "pre": {
            "0x1000000000000000000000000000000000000000": {
                "balance": "0x0"
            },
            "0xa94f5374fce5edbc8e2a8697c15331677e6ebf0b": {
                "balance": "0xe8d4a51000"
            },
            "0xb94f5374fce5edbc8e2a8697c15331677e6ebf0b": {
                "code": "0x600060006000600060007310000000000000000000000000000000000000006201fbd0f1600255622fffff60002000",
                "balance": "0x0"
            },
            "0xba4f5374fce5edbc8e2a8697c15331677e6ebf0b": {
                "code": "0x600060006000600060007310000000000000000000000000000000000000006201fbd0f16000556000600060006000600073b94f5374fce5edbc8e2a8697c15331677e6ebf0b6201fbd0f160015500",
                "balance": "0x0"
            }
        },
        "transaction": {
            "gasPrice": "0xa",
            "nonce": "0x0",
            "to": "0xba4f5374fce5edbc8e2a8697c15331677e6ebf0b",
            "data": [
                "0x"
            ],
            "gasLimit": [
                "0xf4240"
            ],
            "value": [
                "0x00"
            ],
            "secretKey": "0x45a915e4d060149eb4365960e6a7a45f334393093061116b197e3240065ff2d8",
            "sender": "0xa94f5374fce5edbc8e2a8697c15331677e6ebf0b"
        },
        "post": {
            "ETC_Magneto": [
                {
                    "hash": "ac5f00d87631cb2c525753dbfa38b127ba68f69251e546851e5371798124d47f",
                    "logs": "1dcc4de8dec75d7aab85b567b6ccd41ad312451b948a7413f0a142fd40d49347",
                    "txbytes": "0xf860800a830f424094ba4f5374fce5edbc8e2a8697c15331677e6ebf0b80801ca0c04851e7b71994af9d9e3204e99735e20049dd8d666d026c46d3aa395fa57fdba03ab985ea33cd3c4c094dcc2f88b02c35513268a4b1fb030a53b5f5537efb582a",
                    "indexes": {
                        "data": 0,
                        "gas": 0,
                        "value": 0
                    }
                }
            ],
            "ETC_Mystique": [
                {
                    "hash": "ac5f00d87631cb2c525753dbfa38b127ba68f69251e546851e5371798124d47f",
                    "logs": "1dcc4de8dec75d7aab85b567b6ccd41ad312451b948a7413f0a142fd40d49347",
                    "txbytes": "0xf860800a830f424094ba4f5374fce5edbc8e2a8697c15331677e6ebf0b80801ca0c04851e7b71994af9d9e3204e99735e20049dd8d666d026c46d3aa395fa57fdba03ab985ea33cd3c4c094dcc2f88b02c35513268a4b1fb030a53b5f5537efb582a",
                    "indexes": {
                        "data": 0,
                        "gas": 0,
                        "value": 0
                    }
                }
            ],
            "ETC_Phoenix": [
                {
                    "hash": "6360072b9c75eb2967d27663e035b76cce9f1460159f4fa90ede5f49b748dc41",
                    "logs": "1dcc4de8dec75d7aab85b567b6ccd41ad312451b948a7413f0a142fd40d49347",
                    "txbytes": "0xf860800a830f424094ba4f5374fce5edbc8e2a8697c15331677e6ebf0b80801ca0c04851e7b71994af9d9e3204e99735e20049dd8d666d026c46d3aa395fa57fdba03ab985ea33cd3c4c094dcc2f88b02c35513268a4b1fb030a53b5f5537efb582a",
                    "indexes": {
                        "data": 0,
                        "gas": 0,
                        "value": 0
                    }
                }
            ]
        }
    }
}