{
    "TouchToEmptyAccountRevert": {
        "_info": {
            "comment": "",
            "filling-rpc-server": "evm version 1.10.16-unstable-0f893109-20220105",
            "filling-tool-version": "retesteth-0.2.2-testinfo+commit.01c6aac2.Linux.g++",
            "filledWith": "CoreGeth-1.12.9-unstable-d64998ce9b05f4f41b35740c69c4b402e41a3105",
            "lllcversion": "Version: 0.5.14-develop.2021.11.27+commit.401d5358.Linux.g++",
            "source": "src/GeneralStateTestsFiller/stRevertTest/TouchToEmptyAccountRevertFiller.json",
            "sourceHash": "28d805db70d8c5d49e0cb3b390285ecc8fda3e0bb77039f65800bd01a3505a93"
        },
        "env": {
            "currentCoinbase": "0x2adc25665018aa1fe0e6bc666dac8fc2697ff9ba",
            "currentDifficulty": "0x20000",
            "currentGasLimit": "0x989680",
            "currentNumber": "0x1",
            "currentTimestamp": "0x3e8",
            "previousHash": "0x5e20a0453cecd065ea59c37ac63e079ee08998b6045136a8ce6635c7912ec0b6"
        },
        "pre": {
            "0x1000000000000000000000000000000000000000": {
                "balance": "0x0"
            },
            "0xa94f5374fce5edbc8e2a8697c15331677e6ebf0b": {
                "balance": "0xe8d4a51000"
            },
            "0xb94f5374fce5edbc8e2a8697c15331677e6ebf0b": {
                "code": "0x6000600060006000600073c94f5374fce5edbc8e2a8697c15331677e6ebf0b617530f1600055600160025500",
                "balance": "0x0"
            },
            "0xc94f5374fce5edbc8e2a8697c15331677e6ebf0b": {
                "code": "0x60006000600060006000731000000000000000000000000000000000000000617530f160015500",
                "balance": "0x0"
            }
        },
        "transaction": {
            "gasPrice": "0xa",
            "nonce": "0x0",
            "to": "0xb94f5374fce5edbc8e2a8697c15331677e6ebf0b",
            "data": [
                "0x"
            ],
            "gasLimit": [
                "0x11170"
            ],
            "value": [
                "0x00"
            ],
            "secretKey": "0x45a915e4d060149eb4365960e6a7a45f334393093061116b197e3240065ff2d8",
            "sender": "0xa94f5374fce5edbc8e2a8697c15331677e6ebf0b"
        },
        "post": {
            "ETC_Magneto": [
                {
                    "hash": "ff0e516507687252285787236e642694e1015384cb8ef8a21bb7679ab293befa",
                    "logs": "1dcc4de8dec75d7aab85b567b6ccd41ad312451b948a7413f0a142fd40d49347",
                    "txbytes": "0xf860800a8301117094b94f5374fce5edbc8e2a8697c15331677e6ebf0b80801ba0ea21bb838ec81bf1723cd1cac4cb896694761a548d9c5831bc6348abfd1a6b4ea05d5257a0d7a7bc1c9d50ff024881768f69dc5e657f53eb36d4b1851ada48347c",
                    "indexes": {
                        "data": 0,
                        "gas": 0,
                        "value": 0
                    }
                }
            ],
            "ETC_Mystique": [
                {
                    "hash": "ff0e516507687252285787236e642694e1015384cb8ef8a21bb7679ab293befa",
                    "logs": "1dcc4de8dec75d7aab85b567b6ccd41ad312451b948a7413f0a142fd40d49347",
                    "txbytes": "0xf860800a8301117094b94f5374fce5edbc8e2a8697c15331677e6ebf0b80801ba0ea21bb838ec81bf1723cd1cac4cb896694761a548d9c5831bc6348abfd1a6b4ea05d5257a0d7a7bc1c9d50ff024881768f69dc5e657f53eb36d4b1851ada48347c",
                    "indexes": {
                        "data": 0,
                        "gas": 0,
                        "value": 0
                    }
                }
            ],
            "ETC_Phoenix": [
                {
                    "hash": "ff0e516507687252285787236e642694e1015384cb8ef8a21bb7679ab293befa",
                    "logs": "1dcc4de8dec75d7aab85b567b6ccd41ad312451b948a7413f0a142fd40d49347",
                    "txbytes": "0xf860800a8301117094b94f5374fce5edbc8e2a8697c15331677e6ebf0b80801ba0ea21bb838ec81bf1723cd1cac4cb896694761a548d9c5831bc6348abfd1a6b4ea05d5257a0d7a7bc1c9d50ff024881768f69dc5e657f53eb36d4b1851ada48347c",
                    "indexes": {
                        "data": 0,
                        "gas": 0,
                        "value": 0
                    }
                }
            ]
        }
    }
}