{
    "ExtCodeCopyTests": {
        "_info": {
            "comment": "",
            "filling-rpc-server": "evm version 1.10.16-unstable-0f893109-20220105",
            "filling-tool-version": "retesteth-0.2.2-testinfo+commit.01c6aac2.Linux.g++",
            "filledWith": "CoreGeth-1.12.9-unstable-4cf5b2b0837228e7d5eadba6a01ffb80e9288e21",
            "lllcversion": "Version: 0.5.14-develop.2021.11.27+commit.401d5358.Linux.g++",
            "source": "src/GeneralStateTestsFiller/stCodeCopyTest/ExtCodeCopyTestsFiller.json",
            "sourceHash": "159fe3ae6673921f7a921a0368084ad0134341f4d8df4bf0d1d84ab9b31c12d2"
        },
        "env": {
            "currentCoinbase": "0x2adc25665018aa1fe0e6bc666dac8fc2697ff9ba",
            "currentDifficulty": "0x20000",
            "currentGasLimit": "0x7fffffffffffffff",
            "currentNumber": "0x28d138",
            "currentTimestamp": "0x3e8",
            "previousHash": "0x5e20a0453cecd065ea59c37ac63e079ee08998b6045136a8ce6635c7912ec0b6"
        },
        "pre": {
            "0xa94f5374fce5edbc8e2a8697c15331677e6ebf0b": {
                "code": "0x",
                "balance": "0xffffffffffffffffffffffffffffffff",
                "nonce": "0x0"
            },
            "0xaaaf5374fce5edbc8e2a8697c15331677e6ebf0b": {
                "code": "0x6002600a600173bbbf5374fce5edbc8e2a8697c15331677e6ebf0b3c6000516002556002600a600173cccf5374fce5edbc8e2a8697c15331677e6ebf0b3c6000516003556002600a600173dddf5374fce5edbc8e2a8697c15331677e6ebf0b3c6000516004556002600a600173eeef5374fce5edbc8e2a8697c15331677e6ebf0b3c60005160055560c8600a600173eeef5374fce5edbc8e2a8697c15331677e6ebf0b3c60005160065500",
                "balance": "0x1b58",
                "nonce": "0x0"
            },
            "0xcccf5374fce5edbc8e2a8697c15331677e6ebf0b": {
                "code": "0x",
                "balance": "0x0",
                "nonce": "0x0"
            },
            "0xdddf5374fce5edbc8e2a8697c15331677e6ebf0b": {
                "code": "0x",
                "balance": "0x0",
                "nonce": "0x1"
            },
            "0xeeef5374fce5edbc8e2a8697c15331677e6ebf0b": {
                "code": "0x1122334455667788991011121314151617181920212223242526272829303132",
                "balance": "0x0",
                "nonce": "0x1"
            }
        },
        "transaction": {
            "gasPrice": "0xa",
            "nonce": "0x0",
            "to": "0xaaaf5374fce5edbc8e2a8697c15331677e6ebf0b",
            "data": [
                "0x"
            ],
            "gasLimit": [
                "0x61a80"
            ],
            "value": [
                "0x00"
            ],
            "secretKey": "0x45a915e4d060149eb4365960e6a7a45f334393093061116b197e3240065ff2d8",
            "sender": "0xa94f5374fce5edbc8e2a8697c15331677e6ebf0b"
        },
        "post": {
            "ETC_Magneto": [
                {
                    "hash": "6a04b8ec298844e5c94a0911a19e2f19bbf0312627c4bc84849e77428ae799f0",
                    "logs": "1dcc4de8dec75d7aab85b567b6ccd41ad312451b948a7413f0a142fd40d49347",
                    "txbytes": "0xf860800a83061a8094aaaf5374fce5edbc8e2a8697c15331677e6ebf0b80801ca0f1326147c4351dc80fb7bef9b63c76a4aae39ceccd9ec54065339ba60f77c6d9a02567b84dc4697e7b6ca92bec948694fa9723fec84460588629068c5bbb1ee6de",
                    "indexes": {
                        "data": 0,
                        "gas": 0,
                        "value": 0
                    }
                }
            ],
            "ETC_Mystique": [
                {
                    "hash": "6a04b8ec298844e5c94a0911a19e2f19bbf0312627c4bc84849e77428ae799f0",
                    "logs": "1dcc4de8dec75d7aab85b567b6ccd41ad312451b948a7413f0a142fd40d49347",
                    "txbytes": "0xf860800a83061a8094aaaf5374fce5edbc8e2a8697c15331677e6ebf0b80801ca0f1326147c4351dc80fb7bef9b63c76a4aae39ceccd9ec54065339ba60f77c6d9a02567b84dc4697e7b6ca92bec948694fa9723fec84460588629068c5bbb1ee6de",
                    "indexes": {
                        "data": 0,
                        "gas": 0,
                        "value": 0
                    }
                }
            ],
            "ETC_Phoenix": [
                {
                    "hash": "7a75a27e7440a0ab3db693913d4f6e86b238471e11af8ece28793215be02e7a6",
                    "logs": "1dcc4de8dec75d7aab85b567b6ccd41ad312451b948a7413f0a142fd40d49347",
                    "txbytes": "0xf860800a83061a8094aaaf5374fce5edbc8e2a8697c15331677e6ebf0b80801ca0f1326147c4351dc80fb7bef9b63c76a4aae39ceccd9ec54065339ba60f77c6d9a02567b84dc4697e7b6ca92bec948694fa9723fec84460588629068c5bbb1ee6de",
                    "indexes": {
                        "data": 0,
                        "gas": 0,
                        "value": 0
                    }
                }
            ]
        }
    }
}