{
    "callcodeDynamicCode": {
        "_info": {
            "comment": "callcode to a contract that is being created in the same transaction",
            "filling-rpc-server": "evm version 1.10.16-unstable-0f893109-20220105",
            "filling-tool-version": "retesteth-0.2.2-testinfo+commit.01c6aac2.Linux.g++",
            "filledWith": "CoreGeth-1.12.9-unstable-4cf5b2b0837228e7d5eadba6a01ffb80e9288e21",
            "lllcversion": "Version: 0.5.14-develop.2021.11.27+commit.401d5358.Linux.g++",
            "source": "src/GeneralStateTestsFiller/stCallCodes/callcodeDynamicCodeFiller.json",
            "sourceHash": "27b9b90fbbec2738072b495cc82278a88b9b6183881eb2c99e10bbd4c60ca152"
        },
        "env": {
            "currentCoinbase": "0x2adc25665018aa1fe0e6bc666dac8fc2697ff9ba",
            "currentDifficulty": "0x20000",
            "currentGasLimit": "0xf4240",
            "currentNumber": "0x1",
            "currentTimestamp": "0x3e8",
            "previousHash": "0x5e20a0453cecd065ea59c37ac63e079ee08998b6045136a8ce6635c7912ec0b6"
        },
        "pre": {
            "0x1000000000000000000000000000000000000000": {
                "code": "0x601f80602760003960006000f0600a5560406000604060006000600a54620186a0f2600b5500fe601280600d6000396000f300fe600160005530601455326015553360165500",
                "balance": "0x2710",
                "nonce": "0x0"
            },
            "0x1100000000000000000000000000000000000000": {
                "code": "0x60006000600060006000600035620c3500f100",
                "balance": "0x0",
                "nonce": "0x0"
            },
            "0x2000000000000000000000000000000000000000": {
                "code": "0x6000601f80602960003960006000f5600a5560406000604060006000600a54620186a0f2600b5500fe601280600d6000396000f300fe600160005530601455326015553360165500",
                "balance": "0x3e8",
                "nonce": "0x0"
            },
            "0x3000000000000000000000000000000000000000": {
                "code": "0x604680600f60003960006000f000fe601f80602760003960006000f0600a5560406000604060006000600a54620186a0f2600b5500fe601280600d6000396000f300fe600160005530601455326015553360165500",
                "balance": "0x2710",
                "nonce": "0x0"
            },
            "0x4000000000000000000000000000000000000000": {
                "code": "0x604880600f60003960006000f000fe6000601f80602960003960006000f5600a5560406000604060006000600a54620186a0f2600b5500fe601280600d6000396000f300fe600160005530601455326015553360165500",
                "balance": "0x2710",
                "nonce": "0x0"
            },
            "0xa94f5374fce5edbc8e2a8697c15331677e6ebf0b": {
                "code": "0x",
                "balance": "0x2386f26fc10000",
                "nonce": "0x0"
            }
        },
        "transaction": {
            "gasPrice": "0xa",
            "nonce": "0x0",
            "to": "0x1100000000000000000000000000000000000000",
            "data": [
                "0x0000000000000000000000001000000000000000000000000000000000000000",
                "0x0000000000000000000000002000000000000000000000000000000000000000",
                "0x0000000000000000000000003000000000000000000000000000000000000000",
                "0x0000000000000000000000004000000000000000000000000000000000000000"
            ],
            "gasLimit": [
                "0xf4240"
            ],
            "value": [
                "0x00"
            ],
            "secretKey": "0x45a915e4d060149eb4365960e6a7a45f334393093061116b197e3240065ff2d8",
            "sender": "0xa94f5374fce5edbc8e2a8697c15331677e6ebf0b"
        },
        "post": {
            "ETC_Magneto": [
                {
                    "hash": "858dc9a9c3b60b4dfcedf2938223ab830885fa2937798b34b5d46c1940d33ea9",
                    "logs": "1dcc4de8dec75d7aab85b567b6ccd41ad312451b948a7413f0a142fd40d49347",
                    "txbytes": "0xf880800a830f424094110000000000000000000000000000000000000080a000000000000000000000000010000000000000000000000000000000000000001ca0ca78c6aeceba1c80b3c5904c35b296f162da6e954108ed3b0850dbbd1eba4349a06691b8ca833ecef464101a63e9710d881bc488dd2aebd813eb32c54900b02bfc",
                    "indexes": {
                        "data": 0,
                        "gas": 0,
                        "value": 0
                    }
                },
                {
                    "hash": "4c3deddfdb91835f90e4473c72d006810da3aa4c579011275499e87c4ae4b199",
                    "logs": "1dcc4de8dec75d7aab85b567b6ccd41ad312451b948a7413f0a142fd40d49347",
                    "txbytes": "0xf880800a830f424094110000000000000000000000000000000000000080a000000000000000000000000020000000000000000000000000000000000000001ba0f7974705a787c5f412c26b5774972b33e1e9eebe96f758308a0bf87d00530341a04adf51bcbf3ae243e677603067518d772153750ce235d25d149cd6b035b8b1b0",
                    "indexes": {
                        "data": 1,
                        "gas": 0,
                        "value": 0
                    }
                },
                {
                    "hash": "94377342635b59ee522ff318a74dd7c2c200dee095e729d366a5ebdc75ff642b",
                    "logs": "1dcc4de8dec75d7aab85b567b6ccd41ad312451b948a7413f0a142fd40d49347",
                    "txbytes": "0xf880800a830f424094110000000000000000000000000000000000000080a000000000000000000000000030000000000000000000000000000000000000001ba0e61980e65c6074e6924988df3a1d6a1ec807f44b5e00ca76a3f36be3af84cf4fa0319ceca19c2d7fa691c8272c09a791493485c0d535cf4cef97e0f528768e4b62",
                    "indexes": {
                        "data": 2,
                        "gas": 0,
                        "value": 0
                    }
                },
                {
                    "hash": "8aa5c744d4c9c104e8164641916fa783968ddeee6e182014b4b72e207616283e",
                    "logs": "1dcc4de8dec75d7aab85b567b6ccd41ad312451b948a7413f0a142fd40d49347",
                    "txbytes": "0xf880800a830f424094110000000000000000000000000000000000000080a000000000000000000000000040000000000000000000000000000000000000001ca02e93caef46930ef045b9fdc33c740f81b8a89b5785c404ad06f5da88d3dcd7eda01b2f38a179816fbb83c8ffab82e333edebd634e1d646304f93497c266c231eff",
                    "indexes": {
                        "data": 3,
                        "gas": 0,
                        "value": 0
                    }
                }
            ],
            "ETC_Mystique": [
                {
                    "hash": "858dc9a9c3b60b4dfcedf2938223ab830885fa2937798b34b5d46c1940d33ea9",
                    "logs": "1dcc4de8dec75d7aab85b567b6ccd41ad312451b948a7413f0a142fd40d49347",
                    "txbytes": "0xf880800a830f424094110000000000000000000000000000000000000080a000000000000000000000000010000000000000000000000000000000000000001ca0ca78c6aeceba1c80b3c5904c35b296f162da6e954108ed3b0850dbbd1eba4349a06691b8ca833ecef464101a63e9710d881bc488dd2aebd813eb32c54900b02bfc",
                    "indexes": {
                        "data": 0,
                        "gas": 0,
                        "value": 0
                    }
                },
                {
                    "hash": "4c3deddfdb91835f90e4473c72d006810da3aa4c579011275499e87c4ae4b199",
                    "logs": "1dcc4de8dec75d7aab85b567b6ccd41ad312451b948a7413f0a142fd40d49347",
                    "txbytes": "0xf880800a830f424094110000000000000000000000000000000000000080a000000000000000000000000020000000000000000000000000000000000000001ba0f7974705a787c5f412c26b5774972b33e1e9eebe96f758308a0bf87d00530341a04adf51bcbf3ae243e677603067518d772153750ce235d25d149cd6b035b8b1b0",
                    "indexes": {
                        "data": 1,
                        "gas": 0,
                        "value": 0
                    }
                },
                {
                    "hash": "94377342635b59ee522ff318a74dd7c2c200dee095e729d366a5ebdc75ff642b",
                    "logs": "1dcc4de8dec75d7aab85b567b6ccd41ad312451b948a7413f0a142fd40d49347",
                    "txbytes": "0xf880800a830f424094110000000000000000000000000000000000000080a000000000000000000000000030000000000000000000000000000000000000001ba0e61980e65c6074e6924988df3a1d6a1ec807f44b5e00ca76a3f36be3af84cf4fa0319ceca19c2d7fa691c8272c09a791493485c0d535cf4cef97e0f528768e4b62",
                    "indexes": {
                        "data": 2,
                        "gas": 0,
                        "value": 0
                    }
                },
                {
                    "hash": "8aa5c744d4c9c104e8164641916fa783968ddeee6e182014b4b72e207616283e",
                    "logs": "1dcc4de8dec75d7aab85b567b6ccd41ad312451b948a7413f0a142fd40d49347",
                    "txbytes": "0xf880800a830f424094110000000000000000000000000000000000000080a000000000000000000000000040000000000000000000000000000000000000001ca02e93caef46930ef045b9fdc33c740f81b8a89b5785c404ad06f5da88d3dcd7eda01b2f38a179816fbb83c8ffab82e333edebd634e1d646304f93497c266c231eff",
                    "indexes": {
                        "data": 3,
                        "gas": 0,
                        "value": 0
                    }
                }
            ],
            "ETC_Phoenix": [
                {
                    "hash": "6158d5bdf7eba8a456dc05d7febf7de11ab8c94b0b4f0faedf69f50d3ee2502e",
                    "logs": "1dcc4de8dec75d7aab85b567b6ccd41ad312451b948a7413f0a142fd40d49347",
                    "txbytes": "0xf880800a830f424094110000000000000000000000000000000000000080a000000000000000000000000010000000000000000000000000000000000000001ca0ca78c6aeceba1c80b3c5904c35b296f162da6e954108ed3b0850dbbd1eba4349a06691b8ca833ecef464101a63e9710d881bc488dd2aebd813eb32c54900b02bfc",
                    "indexes": {
                        "data": 0,
                        "gas": 0,
                        "value": 0
                    }
                },
                {
                    "hash": "24618dcfb2ad2cc2d42523486dab845185064e666f82e6d294601d3b26305ec7",
                    "logs": "1dcc4de8dec75d7aab85b567b6ccd41ad312451b948a7413f0a142fd40d49347",
                    "txbytes": "0xf880800a830f424094110000000000000000000000000000000000000080a000000000000000000000000020000000000000000000000000000000000000001ba0f7974705a787c5f412c26b5774972b33e1e9eebe96f758308a0bf87d00530341a04adf51bcbf3ae243e677603067518d772153750ce235d25d149cd6b035b8b1b0",
                    "indexes": {
                        "data": 1,
                        "gas": 0,
                        "value": 0
                    }
                },
                {
                    "hash": "991b2f81cd0512aca671efb32a287e54b043dbbe8841400071b28502c96e22d7",
                    "logs": "1dcc4de8dec75d7aab85b567b6ccd41ad312451b948a7413f0a142fd40d49347",
                    "txbytes": "0xf880800a830f424094110000000000000000000000000000000000000080a000000000000000000000000030000000000000000000000000000000000000001ba0e61980e65c6074e6924988df3a1d6a1ec807f44b5e00ca76a3f36be3af84cf4fa0319ceca19c2d7fa691c8272c09a791493485c0d535cf4cef97e0f528768e4b62",
                    "indexes": {
                        "data": 2,
                        "gas": 0,
                        "value": 0
                    }
                },
                {
                    "hash": "ec1ebb6e7ae14f66232d94555a70ef63dd090271ad022a7ba9740e8fc3ef9249",
                    "logs": "1dcc4de8dec75d7aab85b567b6ccd41ad312451b948a7413f0a142fd40d49347",
                    "txbytes": "0xf880800a830f424094110000000000000000000000000000000000000080a000000000000000000000000040000000000000000000000000000000000000001ca02e93caef46930ef045b9fdc33c740f81b8a89b5785c404ad06f5da88d3dcd7eda01b2f38a179816fbb83c8ffab82e333edebd634e1d646304f93497c266c231eff",
                    "indexes": {
                        "data": 3,
                        "gas": 0,
                        "value": 0
                    }
                }
            ]
        }
    }
}