{
    "callcodeDynamicCode2SelfCall": {
        "_info": {
            "comment": "callcode happen to a contract that is dynamicly created from within the contract (to itself)",
            "filling-rpc-server": "evm version 1.10.16-unstable-0f893109-20220105",
            "filling-tool-version": "retesteth-0.2.2-testinfo+commit.01c6aac2.Linux.g++",
            "filledWith": "CoreGeth-1.12.9-unstable-d390462df9df233b60b4cd7a37db5b3043832022",
            "lllcversion": "Version: 0.5.14-develop.2021.11.27+commit.401d5358.Linux.g++",
            "source": "src/GeneralStateTestsFiller/stCallCodes/callcodeDynamicCode2SelfCallFiller.json",
            "sourceHash": "6fbdfafbffef0de46e45d642314cfde9c1a942b6e3bf67bdb3482d78bffe6902"
        },
        "env": {
            "currentCoinbase": "0x2adc25665018aa1fe0e6bc666dac8fc2697ff9ba",
            "currentDifficulty": "0x20000",
            "currentGasLimit": "0x989680",
            "currentNumber": "0x1",
            "currentTimestamp": "0x3e8",
            "previousHash": "0x5e20a0453cecd065ea59c37ac63e079ee08998b6045136a8ce6635c7912ec0b6"
        },
        "pre": {
            "0x1000000000000000000000000000000000000000": {
                "code": "0x604680602760003960006000f0600a5560406000604060006000600a54620186a0f2600b5500fe604060006040600060007313136008b64ff592819b2fa6d43f2835c452020e620186a0f2607a5560128060346000396000f300fe600160005530601455326015553360165500",
                "balance": "0x2710",
                "nonce": "0x0"
            },
            "0x1100000000000000000000000000000000000000": {
                "code": "0x60006000600060006000600035620c3500f100",
                "balance": "0x0",
                "nonce": "0x0"
            },
            "0xa000000000000000000000000000000000000000": {
                "code": "0x7f604060006040600060007313136008b64ff592819b2fa6d43f2835c452020e626000527f0186a0f2600b5533600c55000000000000000000000000000000000000000000602052604060006001f000",
                "balance": "0x2710",
                "nonce": "0x0"
            },
            "0xa94f5374fce5edbc8e2a8697c15331677e6ebf0b": {
                "code": "0x",
                "balance": "0x2386f26fc10000",
                "nonce": "0x0"
            }
        },
        "transaction": {
            "gasPrice": "0xa",
            "nonce": "0x0",
            "to": "0x1100000000000000000000000000000000000000",
            "data": [
                "0x000000000000000000000000a000000000000000000000000000000000000000",
                "0x0000000000000000000000001000000000000000000000000000000000000000"
            ],
            "gasLimit": [
                "0x162c19"
            ],
            "value": [
                "0x00"
            ],
            "secretKey": "0x45a915e4d060149eb4365960e6a7a45f334393093061116b197e3240065ff2d8",
            "sender": "0xa94f5374fce5edbc8e2a8697c15331677e6ebf0b"
        },
        "post": {
            "ETC_Magneto": [
                {
                    "hash": "84c3f2c802ca9e09a767492402ea7b05769c9d76a1e9a541cad51e188f0dd273",
                    "logs": "1dcc4de8dec75d7aab85b567b6ccd41ad312451b948a7413f0a142fd40d49347",
                    "txbytes": "0xf880800a83162c1994110000000000000000000000000000000000000080a0000000000000000000000000a0000000000000000000000000000000000000001ba0a5f0650b9b892f0eacfacbf1e65579b550984d82b686a5b19242da2690b5ab12a062453940543d0c70b2ade834d0f19018899af2aa04aa1b626dd546504d47c518",
                    "indexes": {
                        "data": 0,
                        "gas": 0,
                        "value": 0
                    }
                },
                {
                    "hash": "70ea47c18e94e5255abe886dbadb0ab0efb6678f6b2a12f17b348a922cadbabb",
                    "logs": "1dcc4de8dec75d7aab85b567b6ccd41ad312451b948a7413f0a142fd40d49347",
                    "txbytes": "0xf880800a83162c1994110000000000000000000000000000000000000080a000000000000000000000000010000000000000000000000000000000000000001ca0eea33a7585b0b5b2bffd5b79db62acfcb3550b937b293216b5ac87934da5cc5aa06310388cb61e1c948e1676f1ea6328b4493804154e0fcdf5246df8ce6f396f6b",
                    "indexes": {
                        "data": 1,
                        "gas": 0,
                        "value": 0
                    }
                }
            ],
            "ETC_Mystique": [
                {
                    "hash": "84c3f2c802ca9e09a767492402ea7b05769c9d76a1e9a541cad51e188f0dd273",
                    "logs": "1dcc4de8dec75d7aab85b567b6ccd41ad312451b948a7413f0a142fd40d49347",
                    "txbytes": "0xf880800a83162c1994110000000000000000000000000000000000000080a0000000000000000000000000a0000000000000000000000000000000000000001ba0a5f0650b9b892f0eacfacbf1e65579b550984d82b686a5b19242da2690b5ab12a062453940543d0c70b2ade834d0f19018899af2aa04aa1b626dd546504d47c518",
                    "indexes": {
                        "data": 0,
                        "gas": 0,
                        "value": 0
                    }
                },
                {
                    "hash": "70ea47c18e94e5255abe886dbadb0ab0efb6678f6b2a12f17b348a922cadbabb",
                    "logs": "1dcc4de8dec75d7aab85b567b6ccd41ad312451b948a7413f0a142fd40d49347",
                    "txbytes": "0xf880800a83162c1994110000000000000000000000000000000000000080a000000000000000000000000010000000000000000000000000000000000000001ca0eea33a7585b0b5b2bffd5b79db62acfcb3550b937b293216b5ac87934da5cc5aa06310388cb61e1c948e1676f1ea6328b4493804154e0fcdf5246df8ce6f396f6b",
                    "indexes": {
                        "data": 1,
                        "gas": 0,
                        "value": 0
                    }
                }
            ],
            "ETC_Phoenix": [
                {
                    "hash": "656ea3e096c7ae8088ccd3f704234604d99968a239d683940ad9ef085d69b6ce",
                    "logs": "1dcc4de8dec75d7aab85b567b6ccd41ad312451b948a7413f0a142fd40d49347",
                    "txbytes": "0xf880800a83162c1994110000000000000000000000000000000000000080a0000000000000000000000000a0000000000000000000000000000000000000001ba0a5f0650b9b892f0eacfacbf1e65579b550984d82b686a5b19242da2690b5ab12a062453940543d0c70b2ade834d0f19018899af2aa04aa1b626dd546504d47c518",
                    "indexes": {
                        "data": 0,
                        "gas": 0,
                        "value": 0
                    }
                },
                {
                    "hash": "39427746079703194c301a0148fa3de20ae8376ca745385abe4266fa42743323",
                    "logs": "1dcc4de8dec75d7aab85b567b6ccd41ad312451b948a7413f0a142fd40d49347",
                    "txbytes": "0xf880800a83162c1994110000000000000000000000000000000000000080a000000000000000000000000010000000000000000000000000000000000000001ca0eea33a7585b0b5b2bffd5b79db62acfcb3550b937b293216b5ac87934da5cc5aa06310388cb61e1c948e1676f1ea6328b4493804154e0fcdf5246df8ce6f396f6b",
                    "indexes": {
                        "data": 1,
                        "gas": 0,
                        "value": 0
                    }
                }
            ]
        }
    }
}