{
    "callcodeInInitcodeToEmptyContract": {
        "_info": {
            "comment": "callcode inside create contract init to non-existent contract",
            "filling-rpc-server": "evm version 1.10.16-unstable-0f893109-20220105",
            "filling-tool-version": "retesteth-0.2.2-testinfo+commit.01c6aac2.Linux.g++",
            "filledWith": "CoreGeth-1.12.9-unstable-3995a327f2ded5c98324b03792b5ccc22557754f",
            "lllcversion": "Version: 0.5.14-develop.2021.11.27+commit.401d5358.Linux.g++",
            "source": "src/GeneralStateTestsFiller/stCallCodes/callcodeInInitcodeToEmptyContractFiller.json",
            "sourceHash": "e7560b7ca2be5d20bafd5b49164394e2dfc46eb3193821a02258aeee3323e0f3"
        },
        "env": {
            "currentCoinbase": "0x2adc25665018aa1fe0e6bc666dac8fc2697ff9ba",
            "currentDifficulty": "0x20000",
            "currentGasLimit": "0x989680",
            "currentNumber": "0x1",
            "currentTimestamp": "0x3e8",
            "currentBaseFee": "0xa",
            "previousHash": "0x5e20a0453cecd065ea59c37ac63e079ee08998b6045136a8ce6635c7912ec0b6"
        },
        "pre": {
            "0x1000000000000000000000000000000000000000": {
                "code": "0x602d80600f60003960006000f000fe600060006000600060017310000000000000000000000000000000000000016207a120f2600155600160025500",
                "balance": "0x2710"
            },
            "0x1100000000000000000000000000000000000000": {
                "code": "0x60006000600060006000600035620493e0f100",
                "balance": "0x0"
            },
            "0x2000000000000000000000000000000000000000": {
                "code": "0x6000602d80601160003960006000f500fe600060006000600060017310000000000000000000000000000000000000016207a120f2600155600160025500",
                "balance": "0x2710"
            },
            "0xa94f5374fce5edbc8e2a8697c15331677e6ebf0b": {
                "balance": "0x2386f26fc10000"
            }
        },
        "transaction": {
            "gasPrice": "0xa",
            "nonce": "0x0",
            "to": "0x1100000000000000000000000000000000000000",
            "data": [
                "0x0000000000000000000000001000000000000000000000000000000000000000",
                "0x0000000000000000000000002000000000000000000000000000000000000000"
            ],
            "gasLimit": [
                "0x162c19"
            ],
            "value": [
                "0x00"
            ],
            "secretKey": "0x45a915e4d060149eb4365960e6a7a45f334393093061116b197e3240065ff2d8",
            "sender": "0xa94f5374fce5edbc8e2a8697c15331677e6ebf0b"
        },
        "post": {
            "ETC_Magneto": [
                {
                    "hash": "742f1c3b2ff6343322065d09b6cb87c4898ef3b69425fbc0ebfa559b731e61d9",
                    "logs": "1dcc4de8dec75d7aab85b567b6ccd41ad312451b948a7413f0a142fd40d49347",
                    "txbytes": "0xf880800a83162c1994110000000000000000000000000000000000000080a000000000000000000000000010000000000000000000000000000000000000001ca0eea33a7585b0b5b2bffd5b79db62acfcb3550b937b293216b5ac87934da5cc5aa06310388cb61e1c948e1676f1ea6328b4493804154e0fcdf5246df8ce6f396f6b",
                    "indexes": {
                        "data": 0,
                        "gas": 0,
                        "value": 0
                    }
                },
                {
                    "hash": "19eaa197b81a44f75c097a12575a78e3e40473949b65a6b6d094a0078012c069",
                    "logs": "1dcc4de8dec75d7aab85b567b6ccd41ad312451b948a7413f0a142fd40d49347",
                    "txbytes": "0xf880800a83162c1994110000000000000000000000000000000000000080a000000000000000000000000020000000000000000000000000000000000000001ca085700e3b1a16f187771cfc763decee25168baf3737bef4fb1b810c81358a8f9ba036efc037f7eca42eb2560288dfe74ffd4253dd5c0507a1ea4fa9de5b6218fa92",
                    "indexes": {
                        "data": 1,
                        "gas": 0,
                        "value": 0
                    }
                }
            ],
            "ETC_Mystique": [
                {
                    "hash": "742f1c3b2ff6343322065d09b6cb87c4898ef3b69425fbc0ebfa559b731e61d9",
                    "logs": "1dcc4de8dec75d7aab85b567b6ccd41ad312451b948a7413f0a142fd40d49347",
                    "txbytes": "0xf880800a83162c1994110000000000000000000000000000000000000080a000000000000000000000000010000000000000000000000000000000000000001ca0eea33a7585b0b5b2bffd5b79db62acfcb3550b937b293216b5ac87934da5cc5aa06310388cb61e1c948e1676f1ea6328b4493804154e0fcdf5246df8ce6f396f6b",
                    "indexes": {
                        "data": 0,
                        "gas": 0,
                        "value": 0
                    }
                },
                {
                    "hash": "19eaa197b81a44f75c097a12575a78e3e40473949b65a6b6d094a0078012c069",
                    "logs": "1dcc4de8dec75d7aab85b567b6ccd41ad312451b948a7413f0a142fd40d49347",
                    "txbytes": "0xf880800a83162c1994110000000000000000000000000000000000000080a000000000000000000000000020000000000000000000000000000000000000001ca085700e3b1a16f187771cfc763decee25168baf3737bef4fb1b810c81358a8f9ba036efc037f7eca42eb2560288dfe74ffd4253dd5c0507a1ea4fa9de5b6218fa92",
                    "indexes": {
                        "data": 1,
                        "gas": 0,
                        "value": 0
                    }
                }
            ],
            "ETC_Phoenix": [
                {
                    "hash": "902d68eafa7ca0df576bb36fbcfdb615349297ac964d9329cb0277fad17c855b",
                    "logs": "1dcc4de8dec75d7aab85b567b6ccd41ad312451b948a7413f0a142fd40d49347",
                    "txbytes": "0xf880800a83162c1994110000000000000000000000000000000000000080a000000000000000000000000010000000000000000000000000000000000000001ca0eea33a7585b0b5b2bffd5b79db62acfcb3550b937b293216b5ac87934da5cc5aa06310388cb61e1c948e1676f1ea6328b4493804154e0fcdf5246df8ce6f396f6b",
                    "indexes": {
                        "data": 0,
                        "gas": 0,
                        "value": 0
                    }
                },
                {
                    "hash": "9c8f9ef44b648ec89057655e056c73eb0494d22b15f817156a4b4cb1cc4bbc92",
                    "logs": "1dcc4de8dec75d7aab85b567b6ccd41ad312451b948a7413f0a142fd40d49347",
                    "txbytes": "0xf880800a83162c1994110000000000000000000000000000000000000080a000000000000000000000000020000000000000000000000000000000000000001ca085700e3b1a16f187771cfc763decee25168baf3737bef4fb1b810c81358a8f9ba036efc037f7eca42eb2560288dfe74ffd4253dd5c0507a1ea4fa9de5b6218fa92",
                    "indexes": {
                        "data": 1,
                        "gas": 0,
                        "value": 0
                    }
                }
            ]
        }
    }
}