{
    "CallContractToCreateContractAndCallItOOG": {
        "_info": {
            "comment": "",
            "filling-rpc-server": "evm version 1.10.16-unstable-0f893109-20220105",
            "filling-tool-version": "retesteth-0.2.2-testinfo+commit.01c6aac2.Linux.g++",
            "filledWith": "CoreGeth-1.12.9-unstable-f4059ddd82d975bdc54fa648e5422a80172161cb",
            "lllcversion": "Version: 0.5.14-develop.2021.11.27+commit.401d5358.Linux.g++",
            "source": "src/GeneralStateTestsFiller/stInitCodeTest/CallContractToCreateContractAndCallItOOGFiller.json",
            "sourceHash": "bb4b1791dbb7bc05afea4bb22e1635322bf2cc6aef52b05d1f4a2f1cc7ffe07a"
        },
        "env": {
            "currentCoinbase": "2adc25665018aa1fe0e6bc666dac8fc2697ff9ba",
            "currentDifficulty": "0x20000",
            "currentRandom": null,
            "currentGasLimit": "0x5f5e100",
            "currentNumber": "0x1",
            "currentTimestamp": "0x3e8",
            "currentBaseFee": "0xa"
        },
        "pre": {
            "0x095e7baea6a6c7c4c2dfeb977efac326af552d87": {
                "code": "0x74600c60005566602060406000f060205260076039f36000526015600b6001f0600055600060006000600060006000546103e8f100",
                "balance": "0x3e8"
            },
            "0xa94f5374fce5edbc8e2a8697c15331677e6ebf0b": {
                "balance": "0x5f5e100"
            }
        },
        "transaction": {
            "gasPrice": "0xa",
            "maxFeePerGas": null,
            "maxPriorityFeePerGas": null,
            "nonce": "0x0",
            "to": "0x095e7baea6a6c7c4c2dfeb977efac326af552d87",
            "data": [
                "0x00"
            ],
            "gasLimit": [
                "0x318f8"
            ],
            "value": [
                "0x00"
            ],
            "secretKey": "0x45a915e4d060149eb4365960e6a7a45f334393093061116b197e3240065ff2d8"
        },
        "out": "0x",
        "post": {
            "ETC_Magneto": [
                {
                    "hash": "a2868d4885891e232d628ab1231614eb2ea46c388545aad5ca8b767cc5327d05",
                    "logs": "1dcc4de8dec75d7aab85b567b6ccd41ad312451b948a7413f0a142fd40d49347",
                    "txbytes": "0xf860800a830318f894095e7baea6a6c7c4c2dfeb977efac326af552d8780001ca0ed7099e3bf2fc10f12c49ce5a0bf8ffd8fdca079207e0c0917c1ae821221ecd9a029faa8892ca9ec398baad3b05574c0d40d2801537e3cc27c85275bcf0a17f728",
                    "indexes": {
                        "data": 0,
                        "gas": 0,
                        "value": 0
                    }
                }
            ],
            "ETC_Mystique": [
                {
                    "hash": "a2868d4885891e232d628ab1231614eb2ea46c388545aad5ca8b767cc5327d05",
                    "logs": "1dcc4de8dec75d7aab85b567b6ccd41ad312451b948a7413f0a142fd40d49347",
                    "txbytes": "0xf860800a830318f894095e7baea6a6c7c4c2dfeb977efac326af552d8780001ca0ed7099e3bf2fc10f12c49ce5a0bf8ffd8fdca079207e0c0917c1ae821221ecd9a029faa8892ca9ec398baad3b05574c0d40d2801537e3cc27c85275bcf0a17f728",
                    "indexes": {
                        "data": 0,
                        "gas": 0,
                        "value": 0
                    }
                }
            ],
            "ETC_Phoenix": [
                {
                    "hash": "7cfe735be6ae1240224ce4ef488e170911dd97d04c629ab4f7965d8d43ae7b1f",
                    "logs": "1dcc4de8dec75d7aab85b567b6ccd41ad312451b948a7413f0a142fd40d49347",
                    "txbytes": "0xf860800a830318f894095e7baea6a6c7c4c2dfeb977efac326af552d8780001ca0ed7099e3bf2fc10f12c49ce5a0bf8ffd8fdca079207e0c0917c1ae821221ecd9a029faa8892ca9ec398baad3b05574c0d40d2801537e3cc27c85275bcf0a17f728",
                    "indexes": {
                        "data": 0,
                        "gas": 0,
                        "value": 0
                    }
                }
            ]
        }
    }
}