{
    "StaticcallForPrecompilesIssue683": {
        "_info": {
            "comment": "Bytecode from issue 683, that initially show the problem with staticcall in hevm.\nIssue link: https://github.com/ethereum/tests/issues/683\nPullrequest link with original bytecode: https://github.com/dapphub/dapptools/pull/360\n",
            "filling-rpc-server": "evm version 1.10.16-unstable-0f893109-20220105",
            "filling-tool-version": "retesteth-0.2.2-testinfo+commit.01c6aac2.Linux.g++",
            "filledWith": "CoreGeth-1.12.9-unstable-4cf5b2b0837228e7d5eadba6a01ffb80e9288e21",
            "lllcversion": "Version: 0.5.14-develop.2021.11.27+commit.401d5358.Linux.g++",
            "source": "src/GeneralStateTestsFiller/stStaticFlagEnabled/StaticcallForPrecompilesIssue683Filler.yml",
            "sourceHash": "7a41a2eaa7f6c6be3c76027bed0eb82cd29e206e81abc34e44d51176747253c4"
        },
        "env": {
            "currentCoinbase": "0xcafe000000000000000000000000000000000001",
            "currentDifficulty": "0x20000",
            "currentGasLimit": "0x989680",
            "currentNumber": "0x1",
            "currentTimestamp": "0x3e8",
            "previousHash": "0x5e20a0453cecd065ea59c37ac63e079ee08998b6045136a8ce6635c7912ec0b6"
        },
        "pre": {
            "0xa000000000000000000000000000000000000000": {
                "code": "0x600080541515601d576001815580818283305afa15601b578081fd5b005b80818283600160025af15050",
                "balance": "0x3e8",
                "nonce": "0x0"
            },
            "0xa94f5374fce5edbc8e2a8697c15331677e6ebf0b": {
                "code": "0x",
                "balance": "0xde0b6b3a7640000",
                "nonce": "0x0"
            }
        },
        "transaction": {
            "gasPrice": "0xa",
            "nonce": "0x0",
            "to": "0xa000000000000000000000000000000000000000",
            "data": [
                "0x"
            ],
            "gasLimit": [
                "0xf4240"
            ],
            "value": [
                "0x64"
            ],
            "secretKey": "0x45a915e4d060149eb4365960e6a7a45f334393093061116b197e3240065ff2d8",
            "sender": "0xa94f5374fce5edbc8e2a8697c15331677e6ebf0b"
        },
        "post": {
            "ETC_Magneto": [
                {
                    "hash": "3e142c15f03f62e7a172f0d24c81a70d3138be8f778d5b39b07142f94c358938",
                    "logs": "1dcc4de8dec75d7aab85b567b6ccd41ad312451b948a7413f0a142fd40d49347",
                    "txbytes": "0xf860800a830f424094a00000000000000000000000000000000000000064801ca054870e924ab213fd0acf66dd0adfd431874d9face7898dd1782c737590cf01d0a05afbafd3918a0904a5d215edb16650f36704cc05a3eb3a3d950a72c3d4d364d0",
                    "indexes": {
                        "data": 0,
                        "gas": 0,
                        "value": 0
                    }
                }
            ],
            "ETC_Mystique": [
                {
                    "hash": "3e142c15f03f62e7a172f0d24c81a70d3138be8f778d5b39b07142f94c358938",
                    "logs": "1dcc4de8dec75d7aab85b567b6ccd41ad312451b948a7413f0a142fd40d49347",
                    "txbytes": "0xf860800a830f424094a00000000000000000000000000000000000000064801ca054870e924ab213fd0acf66dd0adfd431874d9face7898dd1782c737590cf01d0a05afbafd3918a0904a5d215edb16650f36704cc05a3eb3a3d950a72c3d4d364d0",
                    "indexes": {
                        "data": 0,
                        "gas": 0,
                        "value": 0
                    }
                }
            ],
            "ETC_Phoenix": [
                {
                    "hash": "a6d73b2d482ec036608e107f437c2c2e69b05b6c2f1419948f6989174fde04ac",
                    "logs": "1dcc4de8dec75d7aab85b567b6ccd41ad312451b948a7413f0a142fd40d49347",
                    "txbytes": "0xf860800a830f424094a00000000000000000000000000000000000000064801ca054870e924ab213fd0acf66dd0adfd431874d9face7898dd1782c737590cf01d0a05afbafd3918a0904a5d215edb16650f36704cc05a3eb3a3d950a72c3d4d364d0",
                    "indexes": {
                        "data": 0,
                        "gas": 0,
                        "value": 0
                    }
                }
            ]
        }
    }
}