{
    "ecadd_1145-3932_2969-1336_25000_128": {
        "_info": {
            "comment": "Puts the points (10744596414106452074759370245733544594153395043370666422502510773307029471145, 848677436511517736191562425154572367705380862894644942948681172815252343932) and (1624070059937464756887933993293429854168590106605707304006200119738501412969, 3269329550605213075043232856820720631601935657990457502777101397807070461336) into the ECADD precompile, truncating or expanding the input data to 128 bytes. Gives the execution 25000 bytes",
            "filling-rpc-server": "evm version 1.10.16-unstable-0f893109-20220105",
            "filling-tool-version": "retesteth-0.2.2-testinfo+commit.01c6aac2.Linux.g++",
            "filledWith": "CoreGeth-1.12.9-unstable-d390462df9df233b60b4cd7a37db5b3043832022",
            "lllcversion": "Version: 0.5.14-develop.2021.11.27+commit.401d5358.Linux.g++",
            "source": "src/GeneralStateTestsFiller/stZeroKnowledge2/ecadd_1145-3932_2969-1336_25000_128Filler.json",
            "sourceHash": "ef16503377c9f5b1f251038f919349ae69cfa6e25e127eca3a6a95f710008820"
        },
        "env": {
            "currentCoinbase": "0x3535353535353535353535353535353535353535",
            "currentDifficulty": "0x20000",
            "currentGasLimit": "0x5f5e100",
            "currentNumber": "0x1",
            "currentTimestamp": "0x3e8",
            "previousHash": "0xc6745cf3cada515bbfb9573261c82547e0b8f9e3d5dd382e464704a84e47b5ad"
        },
        "pre": {
            "0x0000000000000000000000000000000000000000": {
                "code": "0x",
                "balance": "0x1",
                "nonce": "0x0"
            },
            "0x0000000000000000000000000000000000000001": {
                "code": "0x",
                "balance": "0x1",
                "nonce": "0x0"
            },
            "0x0000000000000000000000000000000000000002": {
                "code": "0x",
                "balance": "0x1",
                "nonce": "0x0"
            },
            "0x0000000000000000000000000000000000000003": {
                "code": "0x",
                "balance": "0x1",
                "nonce": "0x0"
            },
            "0x0000000000000000000000000000000000000004": {
                "code": "0x",
                "balance": "0x1",
                "nonce": "0x0"
            },
            "0x0000000000000000000000000000000000000005": {
                "code": "0x",
                "balance": "0x1",
                "nonce": "0x0"
            },
            "0x0000000000000000000000000000000000000006": {
                "code": "0x",
                "balance": "0x1",
                "nonce": "0x0"
            },
            "0x0000000000000000000000000000000000000007": {
                "code": "0x",
                "balance": "0x1",
                "nonce": "0x0"
            },
            "0x10a1c1cb95c92ec31d3f22c66eef1d9f3f258c6b": {
                "code": "0x",
                "balance": "0xde0b6b3a7640000",
                "nonce": "0x0"
            },
            "0x13cbb8d99c6c4e0f2728c7d72606e78a29c4e224": {
                "code": "0x",
                "balance": "0xde0b6b3a7640000",
                "nonce": "0x0"
            },
            "0x24143873e0e0815fdcbcffdbe09c979cbf9ad013": {
                "code": "0x",
                "balance": "0xde0b6b3a7640000",
                "nonce": "0x0"
            },
            "0x3535353535353535353535353535353535353535": {
                "code": "0x",
                "balance": "0x13cdc3",
                "nonce": "0x0"
            },
            "0x598443f1880ef585b21f1d7585bd0577402861e5": {
                "code": "0x",
                "balance": "0xde0b6b3a7640000",
                "nonce": "0x0"
            },
            "0x77db2bebba79db42a978f896968f4afce746ea1f": {
                "code": "0x",
                "balance": "0xde0b6b3a7640000",
                "nonce": "0x0"
            },
            "0x7d577a597b2742b498cb5cf0c26cdcd726d39e6e": {
                "code": "0x",
                "balance": "0xde0b6b3a7640000",
                "nonce": "0x0"
            },
            "0x82a978b3f5962a5b0957d9ee9eef472ee55b42f1": {
                "code": "0x",
                "balance": "0xde0b6b3a750323d",
                "nonce": "0x1f"
            },
            "0x90f0b1ebbba1c1936aff7aaf20a7878ff9e04b6c": {
                "code": "0x",
                "balance": "0xde0b6b3a7640000",
                "nonce": "0x0"
            },
            "0xc305c901078781c232a2a521c2af7980f8385ee9": {
                "code": "0x600035601c52740100000000000000000000000000000000000000006020526fffffffffffffffffffffffffffffffff6040527fffffffffffffffffffffffffffffffff000000000000000000000000000000016060527402540be3fffffffffffffffffffffffffdabf41c006080527ffffffffffffffffffffffffdabf41c00000000000000000000000002540be40060a0526330c8d1da600051141561012b5760c06004356004013511151558576004356004013560200160043560040161014037604061026061014051610160600060066305f5e0fff11558576040610240526102406060806102c0828460006004601bf15050506102c08051602082012090506000556102c060206020820352604081510160206001820306601f820103905060208203f350005b",
                "storage": {
                    "0x0000000000000000000000000000000000000000000000000000000000000000": "0x8a5045bc7a493061be89fdbc32ea8ae69e8d8b55ebe445fa41fa534b1543ab50"
                },
                "balance": "0x0",
                "nonce": "0x1"
            },
            "0xdceceaf3fc5c0a63d195d69b1a90011b7b19650d": {
                "code": "0x",
                "balance": "0xde0b6b3a7640000",
                "nonce": "0x0"
            },
            "0xe0fc04fa2d34a66b779fd5cee748268032a146c0": {
                "code": "0x",
                "balance": "0xde0b6b3a7640000",
                "nonce": "0x0"
            }
        },
        "transaction": {
            "gasPrice": "0xa",
            "nonce": "0x1f",
            "to": "0xc305c901078781c232a2a521c2af7980f8385ee9",
            "data": [
                "0x30c8d1da0000000000000000000000000000000000000000000000000000000000000020000000000000000000000000000000000000000000000000000000000000008017c139df0efee0f766bc0204762b774362e4ded88953a39ce849a8a7fa163fa901e0559bacb160664764a357af8a9fe70baa9258e0b959273ffc5718c6d4cc7c039730ea8dff1254c0fee9c0ea777d29a9c710b7e616683f194f18c43b43b869073a5ffcc6fc7a28c30723d6e58ce577356982d65b833a5a5c15bf9024b43d98"
            ],
            "gasLimit": [
                "0xd840",
                "0x15f90",
                "0x1adb0",
                "0x30d40"
            ],
            "value": [
                "0x00"
            ],
            "secretKey": "0x044852b2a670ade5407e78fb2863c51de9fcb96542a07186fe3aeda6bb8a116d",
            "sender": "0x82a978b3f5962a5b0957d9ee9eef472ee55b42f1"
        },
        "post": {
            "ETC_Magneto": [
                {
                    "hash": "9b43bd3048b485cf9b4cc3ea890f18d15c18f60bf9ef0ac7c866b53ccd148b8c",
                    "logs": "1dcc4de8dec75d7aab85b567b6ccd41ad312451b948a7413f0a142fd40d49347",
                    "txbytes": "0xf901241f0a82d84094c305c901078781c232a2a521c2af7980f8385ee980b8c430c8d1da0000000000000000000000000000000000000000000000000000000000000020000000000000000000000000000000000000000000000000000000000000008017c139df0efee0f766bc0204762b774362e4ded88953a39ce849a8a7fa163fa901e0559bacb160664764a357af8a9fe70baa9258e0b959273ffc5718c6d4cc7c039730ea8dff1254c0fee9c0ea777d29a9c710b7e616683f194f18c43b43b869073a5ffcc6fc7a28c30723d6e58ce577356982d65b833a5a5c15bf9024b43d981ca0e0c5dc5eac41a546b75ed8e7fdbae772e88300b6e94709c304d190c6c72ffa3fa04aa54c75cf58385a731d976c1139234e7f008dd7b8280bd583f3d9674628b3ea",
                    "indexes": {
                        "data": 0,
                        "gas": 0,
                        "value": 0
                    }
                },
                {
                    "hash": "9b43bd3048b485cf9b4cc3ea890f18d15c18f60bf9ef0ac7c866b53ccd148b8c",
                    "logs": "1dcc4de8dec75d7aab85b567b6ccd41ad312451b948a7413f0a142fd40d49347",
                    "txbytes": "0xf901251f0a83015f9094c305c901078781c232a2a521c2af7980f8385ee980b8c430c8d1da0000000000000000000000000000000000000000000000000000000000000020000000000000000000000000000000000000000000000000000000000000008017c139df0efee0f766bc0204762b774362e4ded88953a39ce849a8a7fa163fa901e0559bacb160664764a357af8a9fe70baa9258e0b959273ffc5718c6d4cc7c039730ea8dff1254c0fee9c0ea777d29a9c710b7e616683f194f18c43b43b869073a5ffcc6fc7a28c30723d6e58ce577356982d65b833a5a5c15bf9024b43d981ca0591e9b880259c959d7aff167fb93c3f4ab6002bff4f946694cb3c886dec1931ca03d1c559efbcbc28962d22b27af4e2a018f92abdd049874e4cd6b3f7df44f9554",
                    "indexes": {
                        "data": 0,
                        "gas": 1,
                        "value": 0
                    }
                },
                {
                    "hash": "9b43bd3048b485cf9b4cc3ea890f18d15c18f60bf9ef0ac7c866b53ccd148b8c",
                    "logs": "1dcc4de8dec75d7aab85b567b6ccd41ad312451b948a7413f0a142fd40d49347",
                    "txbytes": "0xf901251f0a8301adb094c305c901078781c232a2a521c2af7980f8385ee980b8c430c8d1da0000000000000000000000000000000000000000000000000000000000000020000000000000000000000000000000000000000000000000000000000000008017c139df0efee0f766bc0204762b774362e4ded88953a39ce849a8a7fa163fa901e0559bacb160664764a357af8a9fe70baa9258e0b959273ffc5718c6d4cc7c039730ea8dff1254c0fee9c0ea777d29a9c710b7e616683f194f18c43b43b869073a5ffcc6fc7a28c30723d6e58ce577356982d65b833a5a5c15bf9024b43d981ca050fb0f8b112f064946ef4a5f1dc847b031d5465156284d3aed0ffce8d784b10ca04ed4213c6c645e7072823b2b31496e80ecdf550b30cb513b4bfa8b6fd4c370c4",
                    "indexes": {
                        "data": 0,
                        "gas": 2,
                        "value": 0
                    }
                },
                {
                    "hash": "9b43bd3048b485cf9b4cc3ea890f18d15c18f60bf9ef0ac7c866b53ccd148b8c",
                    "logs": "1dcc4de8dec75d7aab85b567b6ccd41ad312451b948a7413f0a142fd40d49347",
                    "txbytes": "0xf901241f0a83030d4094c305c901078781c232a2a521c2af7980f8385ee980b8c430c8d1da0000000000000000000000000000000000000000000000000000000000000020000000000000000000000000000000000000000000000000000000000000008017c139df0efee0f766bc0204762b774362e4ded88953a39ce849a8a7fa163fa901e0559bacb160664764a357af8a9fe70baa9258e0b959273ffc5718c6d4cc7c039730ea8dff1254c0fee9c0ea777d29a9c710b7e616683f194f18c43b43b869073a5ffcc6fc7a28c30723d6e58ce577356982d65b833a5a5c15bf9024b43d981ba0e38a950c373bef59b564e62fcd5636bc83c28d488cc419aff0b25b0b885831399fb1a96b65843f5735d98f900f8504e1551572531493c0d690820b404da06102",
                    "indexes": {
                        "data": 0,
                        "gas": 3,
                        "value": 0
                    }
                }
            ],
            "ETC_Mystique": [
                {
                    "hash": "9b43bd3048b485cf9b4cc3ea890f18d15c18f60bf9ef0ac7c866b53ccd148b8c",
                    "logs": "1dcc4de8dec75d7aab85b567b6ccd41ad312451b948a7413f0a142fd40d49347",
                    "txbytes": "0xf901241f0a82d84094c305c901078781c232a2a521c2af7980f8385ee980b8c430c8d1da0000000000000000000000000000000000000000000000000000000000000020000000000000000000000000000000000000000000000000000000000000008017c139df0efee0f766bc0204762b774362e4ded88953a39ce849a8a7fa163fa901e0559bacb160664764a357af8a9fe70baa9258e0b959273ffc5718c6d4cc7c039730ea8dff1254c0fee9c0ea777d29a9c710b7e616683f194f18c43b43b869073a5ffcc6fc7a28c30723d6e58ce577356982d65b833a5a5c15bf9024b43d981ca0e0c5dc5eac41a546b75ed8e7fdbae772e88300b6e94709c304d190c6c72ffa3fa04aa54c75cf58385a731d976c1139234e7f008dd7b8280bd583f3d9674628b3ea",
                    "indexes": {
                        "data": 0,
                        "gas": 0,
                        "value": 0
                    }
                },
                {
                    "hash": "9b43bd3048b485cf9b4cc3ea890f18d15c18f60bf9ef0ac7c866b53ccd148b8c",
                    "logs": "1dcc4de8dec75d7aab85b567b6ccd41ad312451b948a7413f0a142fd40d49347",
                    "txbytes": "0xf901251f0a83015f9094c305c901078781c232a2a521c2af7980f8385ee980b8c430c8d1da0000000000000000000000000000000000000000000000000000000000000020000000000000000000000000000000000000000000000000000000000000008017c139df0efee0f766bc0204762b774362e4ded88953a39ce849a8a7fa163fa901e0559bacb160664764a357af8a9fe70baa9258e0b959273ffc5718c6d4cc7c039730ea8dff1254c0fee9c0ea777d29a9c710b7e616683f194f18c43b43b869073a5ffcc6fc7a28c30723d6e58ce577356982d65b833a5a5c15bf9024b43d981ca0591e9b880259c959d7aff167fb93c3f4ab6002bff4f946694cb3c886dec1931ca03d1c559efbcbc28962d22b27af4e2a018f92abdd049874e4cd6b3f7df44f9554",
                    "indexes": {
                        "data": 0,
                        "gas": 1,
                        "value": 0
                    }
                },
                {
                    "hash": "9b43bd3048b485cf9b4cc3ea890f18d15c18f60bf9ef0ac7c866b53ccd148b8c",
                    "logs": "1dcc4de8dec75d7aab85b567b6ccd41ad312451b948a7413f0a142fd40d49347",
                    "txbytes": "0xf901251f0a8301adb094c305c901078781c232a2a521c2af7980f8385ee980b8c430c8d1da0000000000000000000000000000000000000000000000000000000000000020000000000000000000000000000000000000000000000000000000000000008017c139df0efee0f766bc0204762b774362e4ded88953a39ce849a8a7fa163fa901e0559bacb160664764a357af8a9fe70baa9258e0b959273ffc5718c6d4cc7c039730ea8dff1254c0fee9c0ea777d29a9c710b7e616683f194f18c43b43b869073a5ffcc6fc7a28c30723d6e58ce577356982d65b833a5a5c15bf9024b43d981ca050fb0f8b112f064946ef4a5f1dc847b031d5465156284d3aed0ffce8d784b10ca04ed4213c6c645e7072823b2b31496e80ecdf550b30cb513b4bfa8b6fd4c370c4",
                    "indexes": {
                        "data": 0,
                        "gas": 2,
                        "value": 0
                    }
                },
                {
                    "hash": "9b43bd3048b485cf9b4cc3ea890f18d15c18f60bf9ef0ac7c866b53ccd148b8c",
                    "logs": "1dcc4de8dec75d7aab85b567b6ccd41ad312451b948a7413f0a142fd40d49347",
                    "txbytes": "0xf901241f0a83030d4094c305c901078781c232a2a521c2af7980f8385ee980b8c430c8d1da0000000000000000000000000000000000000000000000000000000000000020000000000000000000000000000000000000000000000000000000000000008017c139df0efee0f766bc0204762b774362e4ded88953a39ce849a8a7fa163fa901e0559bacb160664764a357af8a9fe70baa9258e0b959273ffc5718c6d4cc7c039730ea8dff1254c0fee9c0ea777d29a9c710b7e616683f194f18c43b43b869073a5ffcc6fc7a28c30723d6e58ce577356982d65b833a5a5c15bf9024b43d981ba0e38a950c373bef59b564e62fcd5636bc83c28d488cc419aff0b25b0b885831399fb1a96b65843f5735d98f900f8504e1551572531493c0d690820b404da06102",
                    "indexes": {
                        "data": 0,
                        "gas": 3,
                        "value": 0
                    }
                }
            ],
            "ETC_Phoenix": [
                {
                    "hash": "ae1cf13219b929b1166795163bc0fe55cec127b59ee980355cc1937577d3f115",
                    "logs": "1dcc4de8dec75d7aab85b567b6ccd41ad312451b948a7413f0a142fd40d49347",
                    "txbytes": "0xf901241f0a82d84094c305c901078781c232a2a521c2af7980f8385ee980b8c430c8d1da0000000000000000000000000000000000000000000000000000000000000020000000000000000000000000000000000000000000000000000000000000008017c139df0efee0f766bc0204762b774362e4ded88953a39ce849a8a7fa163fa901e0559bacb160664764a357af8a9fe70baa9258e0b959273ffc5718c6d4cc7c039730ea8dff1254c0fee9c0ea777d29a9c710b7e616683f194f18c43b43b869073a5ffcc6fc7a28c30723d6e58ce577356982d65b833a5a5c15bf9024b43d981ca0e0c5dc5eac41a546b75ed8e7fdbae772e88300b6e94709c304d190c6c72ffa3fa04aa54c75cf58385a731d976c1139234e7f008dd7b8280bd583f3d9674628b3ea",
                    "indexes": {
                        "data": 0,
                        "gas": 0,
                        "value": 0
                    }
                },
                {
                    "hash": "ae1cf13219b929b1166795163bc0fe55cec127b59ee980355cc1937577d3f115",
                    "logs": "1dcc4de8dec75d7aab85b567b6ccd41ad312451b948a7413f0a142fd40d49347",
                    "txbytes": "0xf901251f0a83015f9094c305c901078781c232a2a521c2af7980f8385ee980b8c430c8d1da0000000000000000000000000000000000000000000000000000000000000020000000000000000000000000000000000000000000000000000000000000008017c139df0efee0f766bc0204762b774362e4ded88953a39ce849a8a7fa163fa901e0559bacb160664764a357af8a9fe70baa9258e0b959273ffc5718c6d4cc7c039730ea8dff1254c0fee9c0ea777d29a9c710b7e616683f194f18c43b43b869073a5ffcc6fc7a28c30723d6e58ce577356982d65b833a5a5c15bf9024b43d981ca0591e9b880259c959d7aff167fb93c3f4ab6002bff4f946694cb3c886dec1931ca03d1c559efbcbc28962d22b27af4e2a018f92abdd049874e4cd6b3f7df44f9554",
                    "indexes": {
                        "data": 0,
                        "gas": 1,
                        "value": 0
                    }
                },
                {
                    "hash": "ae1cf13219b929b1166795163bc0fe55cec127b59ee980355cc1937577d3f115",
                    "logs": "1dcc4de8dec75d7aab85b567b6ccd41ad312451b948a7413f0a142fd40d49347",
                    "txbytes": "0xf901251f0a8301adb094c305c901078781c232a2a521c2af7980f8385ee980b8c430c8d1da0000000000000000000000000000000000000000000000000000000000000020000000000000000000000000000000000000000000000000000000000000008017c139df0efee0f766bc0204762b774362e4ded88953a39ce849a8a7fa163fa901e0559bacb160664764a357af8a9fe70baa9258e0b959273ffc5718c6d4cc7c039730ea8dff1254c0fee9c0ea777d29a9c710b7e616683f194f18c43b43b869073a5ffcc6fc7a28c30723d6e58ce577356982d65b833a5a5c15bf9024b43d981ca050fb0f8b112f064946ef4a5f1dc847b031d5465156284d3aed0ffce8d784b10ca04ed4213c6c645e7072823b2b31496e80ecdf550b30cb513b4bfa8b6fd4c370c4",
                    "indexes": {
                        "data": 0,
                        "gas": 2,
                        "value": 0
                    }
                },
                {
                    "hash": "ae1cf13219b929b1166795163bc0fe55cec127b59ee980355cc1937577d3f115",
                    "logs": "1dcc4de8dec75d7aab85b567b6ccd41ad312451b948a7413f0a142fd40d49347",
                    "txbytes": "0xf901241f0a83030d4094c305c901078781c232a2a521c2af7980f8385ee980b8c430c8d1da0000000000000000000000000000000000000000000000000000000000000020000000000000000000000000000000000000000000000000000000000000008017c139df0efee0f766bc0204762b774362e4ded88953a39ce849a8a7fa163fa901e0559bacb160664764a357af8a9fe70baa9258e0b959273ffc5718c6d4cc7c039730ea8dff1254c0fee9c0ea777d29a9c710b7e616683f194f18c43b43b869073a5ffcc6fc7a28c30723d6e58ce577356982d65b833a5a5c15bf9024b43d981ba0e38a950c373bef59b564e62fcd5636bc83c28d488cc419aff0b25b0b885831399fb1a96b65843f5735d98f900f8504e1551572531493c0d690820b404da06102",
                    "indexes": {
                        "data": 0,
                        "gas": 3,
                        "value": 0
                    }
                }
            ]
        }
    }
}