{
    "ecmul_0-0_0_21000_0": {
        "_info": {
            "comment": "Puts the point (0, 0) and the factor 0 into the ECMUL precompile, truncating or expanding the input data to 0 bytes. Gives the execution 21000 bytes",
            "filling-rpc-server": "evm version 1.10.16-unstable-0f893109-20220105",
            "filling-tool-version": "retesteth-0.2.2-testinfo+commit.01c6aac2.Linux.g++",
            "filledWith": "CoreGeth-1.12.9-unstable-4cf5b2b0837228e7d5eadba6a01ffb80e9288e21",
            "lllcversion": "Version: 0.5.14-develop.2021.11.27+commit.401d5358.Linux.g++",
            "source": "src/GeneralStateTestsFiller/stZeroKnowledge2/ecmul_0-0_0_21000_0Filler.json",
            "sourceHash": "cf571627e44372b1200e483dd6981e9347370519bccc758cefb876eee21c9a6a"
        },
        "env": {
            "currentCoinbase": "0x3535353535353535353535353535353535353535",
            "currentDifficulty": "0x20000",
            "currentGasLimit": "0x5f5e100",
            "currentNumber": "0x1",
            "currentTimestamp": "0x3e8",
            "previousHash": "0xc6745cf3cada515bbfb9573261c82547e0b8f9e3d5dd382e464704a84e47b5ad"
        },
        "pre": {
            "0x0000000000000000000000000000000000000000": {
                "code": "0x",
                "balance": "0x1",
                "nonce": "0x0"
            },
            "0x0000000000000000000000000000000000000001": {
                "code": "0x",
                "balance": "0x1",
                "nonce": "0x0"
            },
            "0x0000000000000000000000000000000000000002": {
                "code": "0x",
                "balance": "0x1",
                "nonce": "0x0"
            },
            "0x0000000000000000000000000000000000000003": {
                "code": "0x",
                "balance": "0x1",
                "nonce": "0x0"
            },
            "0x0000000000000000000000000000000000000004": {
                "code": "0x",
                "balance": "0x1",
                "nonce": "0x0"
            },
            "0x0000000000000000000000000000000000000005": {
                "code": "0x",
                "balance": "0x1",
                "nonce": "0x0"
            },
            "0x0000000000000000000000000000000000000006": {
                "code": "0x",
                "balance": "0x1",
                "nonce": "0x0"
            },
            "0x0000000000000000000000000000000000000007": {
                "code": "0x",
                "balance": "0x1",
                "nonce": "0x0"
            },
            "0x10a1c1cb95c92ec31d3f22c66eef1d9f3f258c6b": {
                "code": "0x",
                "balance": "0xde0b6b3a7640000",
                "nonce": "0x0"
            },
            "0x13cbb8d99c6c4e0f2728c7d72606e78a29c4e224": {
                "code": "0x",
                "balance": "0xde0b6b3a7640000",
                "nonce": "0x0"
            },
            "0x24143873e0e0815fdcbcffdbe09c979cbf9ad013": {
                "code": "0x",
                "balance": "0xde0b6b3a7640000",
                "nonce": "0x0"
            },
            "0x3535353535353535353535353535353535353535": {
                "code": "0x",
                "balance": "0x4a26e",
                "nonce": "0x0"
            },
            "0x598443f1880ef585b21f1d7585bd0577402861e5": {
                "code": "0x",
                "balance": "0xde0b6b3a7640000",
                "nonce": "0x0"
            },
            "0x77db2bebba79db42a978f896968f4afce746ea1f": {
                "code": "0x",
                "balance": "0xde0b6b3a7640000",
                "nonce": "0x0"
            },
            "0x7d577a597b2742b498cb5cf0c26cdcd726d39e6e": {
                "code": "0x",
                "balance": "0xde0b6b3a7640000",
                "nonce": "0x0"
            },
            "0x82a978b3f5962a5b0957d9ee9eef472ee55b42f1": {
                "code": "0x",
                "balance": "0xde0b6b3a75f5d92",
                "nonce": "0x5"
            },
            "0x90f0b1ebbba1c1936aff7aaf20a7878ff9e04b6c": {
                "code": "0x",
                "balance": "0xde0b6b3a7640000",
                "nonce": "0x0"
            },
            "0xc305c901078781c232a2a521c2af7980f8385ee9": {
                "code": "0x600035601c52740100000000000000000000000000000000000000006020526fffffffffffffffffffffffffffffffff6040527fffffffffffffffffffffffffffffffff000000000000000000000000000000016060527402540be3fffffffffffffffffffffffffdabf41c006080527ffffffffffffffffffffffffdabf41c00000000000000000000000002540be40060a0526330c8d1da600051141561012b5760c06004356004013511151558576004356004013560200160043560040161014037604061026061014051610160600060076305f5e0fff11558576040610240526102406060806102c0828460006004601bf15050506102c08051602082012090506000556102c060206020820352604081510160206001820306601f820103905060208203f350005b",
                "balance": "0x0",
                "nonce": "0x1"
            },
            "0xdceceaf3fc5c0a63d195d69b1a90011b7b19650d": {
                "code": "0x",
                "balance": "0xde0b6b3a7640000",
                "nonce": "0x0"
            },
            "0xe0fc04fa2d34a66b779fd5cee748268032a146c0": {
                "code": "0x",
                "balance": "0xde0b6b3a7640000",
                "nonce": "0x0"
            }
        },
        "transaction": {
            "gasPrice": "0xa",
            "nonce": "0x5",
            "to": "0xc305c901078781c232a2a521c2af7980f8385ee9",
            "data": [
                "0x30c8d1da00000000000000000000000000000000000000000000000000000000000000200000000000000000000000000000000000000000000000000000000000000000"
            ],
            "gasLimit": [
                "0xa660",
                "0x15f90",
                "0x1adb0",
                "0x30d40"
            ],
            "value": [
                "0x00"
            ],
            "secretKey": "0x044852b2a670ade5407e78fb2863c51de9fcb96542a07186fe3aeda6bb8a116d",
            "sender": "0x82a978b3f5962a5b0957d9ee9eef472ee55b42f1"
        },
        "post": {
            "ETC_Magneto": [
                {
                    "hash": "869c8ec9bd5c2e3385e1f9d66358491d5981e55cba805fc24dee09ff4c3cb78c",
                    "logs": "1dcc4de8dec75d7aab85b567b6ccd41ad312451b948a7413f0a142fd40d49347",
                    "txbytes": "0xf8a4050a82a66094c305c901078781c232a2a521c2af7980f8385ee980b84430c8d1da000000000000000000000000000000000000000000000000000000000000002000000000000000000000000000000000000000000000000000000000000000001ca02b86c3c15c4ec88a9de465750dcd46a09fc99c58d82f78b415531dbc54849591a07c227ef26a712e6883a1f4b25f50a58733a0624bf36d2f7d1ea3a398c4c63809",
                    "indexes": {
                        "data": 0,
                        "gas": 0,
                        "value": 0
                    }
                },
                {
                    "hash": "adc0fdad982e7818e174936ff8146579d85a74494b2c9f9dbcc3930844547b1d",
                    "logs": "1dcc4de8dec75d7aab85b567b6ccd41ad312451b948a7413f0a142fd40d49347",
                    "txbytes": "0xf8a5050a83015f9094c305c901078781c232a2a521c2af7980f8385ee980b84430c8d1da000000000000000000000000000000000000000000000000000000000000002000000000000000000000000000000000000000000000000000000000000000001ba0c19793f06c48cdfb614391bc8b36a9abe260020c0f2e30d5057f9526f7882a90a02efc965fbde709fe21b56aaa0aa62b8d6f024618a7d271d5f4e162feff36aa73",
                    "indexes": {
                        "data": 0,
                        "gas": 1,
                        "value": 0
                    }
                },
                {
                    "hash": "adc0fdad982e7818e174936ff8146579d85a74494b2c9f9dbcc3930844547b1d",
                    "logs": "1dcc4de8dec75d7aab85b567b6ccd41ad312451b948a7413f0a142fd40d49347",
                    "txbytes": "0xf8a5050a8301adb094c305c901078781c232a2a521c2af7980f8385ee980b84430c8d1da000000000000000000000000000000000000000000000000000000000000002000000000000000000000000000000000000000000000000000000000000000001ca0705be45199e787d216b2703462cd2516c6330eaea17a3b06f898cbf2c2ad2d4da02553d1b2a241d5d31150fcd05df810b0729540c967d54230787c2d784dc38f85",
                    "indexes": {
                        "data": 0,
                        "gas": 2,
                        "value": 0
                    }
                },
                {
                    "hash": "adc0fdad982e7818e174936ff8146579d85a74494b2c9f9dbcc3930844547b1d",
                    "logs": "1dcc4de8dec75d7aab85b567b6ccd41ad312451b948a7413f0a142fd40d49347",
                    "txbytes": "0xf8a5050a83030d4094c305c901078781c232a2a521c2af7980f8385ee980b84430c8d1da000000000000000000000000000000000000000000000000000000000000002000000000000000000000000000000000000000000000000000000000000000001ca06dfc111a785cb7c29a52025a95199d49538f93611787c2808aa5acba5776cad8a02387aa9295e2ca703da19d4144049d2bca63e0b9c50e9c4737bb889eedb39558",
                    "indexes": {
                        "data": 0,
                        "gas": 3,
                        "value": 0
                    }
                }
            ],
            "ETC_Mystique": [
                {
                    "hash": "869c8ec9bd5c2e3385e1f9d66358491d5981e55cba805fc24dee09ff4c3cb78c",
                    "logs": "1dcc4de8dec75d7aab85b567b6ccd41ad312451b948a7413f0a142fd40d49347",
                    "txbytes": "0xf8a4050a82a66094c305c901078781c232a2a521c2af7980f8385ee980b84430c8d1da000000000000000000000000000000000000000000000000000000000000002000000000000000000000000000000000000000000000000000000000000000001ca02b86c3c15c4ec88a9de465750dcd46a09fc99c58d82f78b415531dbc54849591a07c227ef26a712e6883a1f4b25f50a58733a0624bf36d2f7d1ea3a398c4c63809",
                    "indexes": {
                        "data": 0,
                        "gas": 0,
                        "value": 0
                    }
                },
                {
                    "hash": "adc0fdad982e7818e174936ff8146579d85a74494b2c9f9dbcc3930844547b1d",
                    "logs": "1dcc4de8dec75d7aab85b567b6ccd41ad312451b948a7413f0a142fd40d49347",
                    "txbytes": "0xf8a5050a83015f9094c305c901078781c232a2a521c2af7980f8385ee980b84430c8d1da000000000000000000000000000000000000000000000000000000000000002000000000000000000000000000000000000000000000000000000000000000001ba0c19793f06c48cdfb614391bc8b36a9abe260020c0f2e30d5057f9526f7882a90a02efc965fbde709fe21b56aaa0aa62b8d6f024618a7d271d5f4e162feff36aa73",
                    "indexes": {
                        "data": 0,
                        "gas": 1,
                        "value": 0
                    }
                },
                {
                    "hash": "adc0fdad982e7818e174936ff8146579d85a74494b2c9f9dbcc3930844547b1d",
                    "logs": "1dcc4de8dec75d7aab85b567b6ccd41ad312451b948a7413f0a142fd40d49347",
                    "txbytes": "0xf8a5050a8301adb094c305c901078781c232a2a521c2af7980f8385ee980b84430c8d1da000000000000000000000000000000000000000000000000000000000000002000000000000000000000000000000000000000000000000000000000000000001ca0705be45199e787d216b2703462cd2516c6330eaea17a3b06f898cbf2c2ad2d4da02553d1b2a241d5d31150fcd05df810b0729540c967d54230787c2d784dc38f85",
                    "indexes": {
                        "data": 0,
                        "gas": 2,
                        "value": 0
                    }
                },
                {
                    "hash": "adc0fdad982e7818e174936ff8146579d85a74494b2c9f9dbcc3930844547b1d",
                    "logs": "1dcc4de8dec75d7aab85b567b6ccd41ad312451b948a7413f0a142fd40d49347",
                    "txbytes": "0xf8a5050a83030d4094c305c901078781c232a2a521c2af7980f8385ee980b84430c8d1da000000000000000000000000000000000000000000000000000000000000002000000000000000000000000000000000000000000000000000000000000000001ca06dfc111a785cb7c29a52025a95199d49538f93611787c2808aa5acba5776cad8a02387aa9295e2ca703da19d4144049d2bca63e0b9c50e9c4737bb889eedb39558",
                    "indexes": {
                        "data": 0,
                        "gas": 3,
                        "value": 0
                    }
                }
            ],
            "ETC_Phoenix": [
                {
                    "hash": "869c8ec9bd5c2e3385e1f9d66358491d5981e55cba805fc24dee09ff4c3cb78c",
                    "logs": "1dcc4de8dec75d7aab85b567b6ccd41ad312451b948a7413f0a142fd40d49347",
                    "txbytes": "0xf8a4050a82a66094c305c901078781c232a2a521c2af7980f8385ee980b84430c8d1da000000000000000000000000000000000000000000000000000000000000002000000000000000000000000000000000000000000000000000000000000000001ca02b86c3c15c4ec88a9de465750dcd46a09fc99c58d82f78b415531dbc54849591a07c227ef26a712e6883a1f4b25f50a58733a0624bf36d2f7d1ea3a398c4c63809",
                    "indexes": {
                        "data": 0,
                        "gas": 0,
                        "value": 0
                    }
                },
                {
                    "hash": "4e948cb65f6576c9e8fb1f12cdaa516171bced7187e2a13814e296eb47a90240",
                    "logs": "1dcc4de8dec75d7aab85b567b6ccd41ad312451b948a7413f0a142fd40d49347",
                    "txbytes": "0xf8a5050a83015f9094c305c901078781c232a2a521c2af7980f8385ee980b84430c8d1da000000000000000000000000000000000000000000000000000000000000002000000000000000000000000000000000000000000000000000000000000000001ba0c19793f06c48cdfb614391bc8b36a9abe260020c0f2e30d5057f9526f7882a90a02efc965fbde709fe21b56aaa0aa62b8d6f024618a7d271d5f4e162feff36aa73",
                    "indexes": {
                        "data": 0,
                        "gas": 1,
                        "value": 0
                    }
                },
                {
                    "hash": "4e948cb65f6576c9e8fb1f12cdaa516171bced7187e2a13814e296eb47a90240",
                    "logs": "1dcc4de8dec75d7aab85b567b6ccd41ad312451b948a7413f0a142fd40d49347",
                    "txbytes": "0xf8a5050a8301adb094c305c901078781c232a2a521c2af7980f8385ee980b84430c8d1da000000000000000000000000000000000000000000000000000000000000002000000000000000000000000000000000000000000000000000000000000000001ca0705be45199e787d216b2703462cd2516c6330eaea17a3b06f898cbf2c2ad2d4da02553d1b2a241d5d31150fcd05df810b0729540c967d54230787c2d784dc38f85",
                    "indexes": {
                        "data": 0,
                        "gas": 2,
                        "value": 0
                    }
                },
                {
                    "hash": "4e948cb65f6576c9e8fb1f12cdaa516171bced7187e2a13814e296eb47a90240",
                    "logs": "1dcc4de8dec75d7aab85b567b6ccd41ad312451b948a7413f0a142fd40d49347",
                    "txbytes": "0xf8a5050a83030d4094c305c901078781c232a2a521c2af7980f8385ee980b84430c8d1da000000000000000000000000000000000000000000000000000000000000002000000000000000000000000000000000000000000000000000000000000000001ca06dfc111a785cb7c29a52025a95199d49538f93611787c2808aa5acba5776cad8a02387aa9295e2ca703da19d4144049d2bca63e0b9c50e9c4737bb889eedb39558",
                    "indexes": {
                        "data": 0,
                        "gas": 3,
                        "value": 0
                    }
                }
            ]
        }
    }
}