{
    "ecmul_0-3_5617_21000_128": {
        "_info": {
            "comment": "Puts the point (0, 3) and the factor 21888242871839275222246405745257275088548364400416034343698204186575808495617 into the ECMUL precompile, truncating or expanding the input data to 128 bytes. Gives the execution 21000 bytes",
            "filling-rpc-server": "evm version 1.10.16-unstable-0f893109-20220105",
            "filling-tool-version": "retesteth-0.2.2-testinfo+commit.01c6aac2.Linux.g++",
            "filledWith": "CoreGeth-1.12.9-unstable-f4059ddd82d975bdc54fa648e5422a80172161cb",
            "lllcversion": "Version: 0.5.14-develop.2021.11.27+commit.401d5358.Linux.g++",
            "source": "src/GeneralStateTestsFiller/stZeroKnowledge2/ecmul_0-3_5617_21000_128Filler.json",
            "sourceHash": "26a782d174da5706f6703783adb702170adc34ce06bfda234f742c576d0422fc"
        },
        "env": {
            "currentCoinbase": "3535353535353535353535353535353535353535",
            "currentDifficulty": "0x20000",
            "currentRandom": null,
            "currentGasLimit": "0x5f5e100",
            "currentNumber": "0x1",
            "currentTimestamp": "0x3e8",
            "currentBaseFee": "0xa"
        },
        "pre": {
            "0x0000000000000000000000000000000000000000": {
                "balance": "0x1"
            },
            "0x0000000000000000000000000000000000000001": {
                "balance": "0x1"
            },
            "0x0000000000000000000000000000000000000002": {
                "balance": "0x1"
            },
            "0x0000000000000000000000000000000000000003": {
                "balance": "0x1"
            },
            "0x0000000000000000000000000000000000000004": {
                "balance": "0x1"
            },
            "0x0000000000000000000000000000000000000005": {
                "balance": "0x1"
            },
            "0x0000000000000000000000000000000000000006": {
                "balance": "0x1"
            },
            "0x0000000000000000000000000000000000000007": {
                "balance": "0x1"
            },
            "0x10a1c1cb95c92ec31d3f22c66eef1d9f3f258c6b": {
                "balance": "0xde0b6b3a7640000"
            },
            "0x13cbb8d99c6c4e0f2728c7d72606e78a29c4e224": {
                "balance": "0xde0b6b3a7640000"
            },
            "0x24143873e0e0815fdcbcffdbe09c979cbf9ad013": {
                "balance": "0xde0b6b3a7640000"
            },
            "0x3535353535353535353535353535353535353535": {
                "balance": "0x3c40ee"
            },
            "0x598443f1880ef585b21f1d7585bd0577402861e5": {
                "balance": "0xde0b6b3a7640000"
            },
            "0x77db2bebba79db42a978f896968f4afce746ea1f": {
                "balance": "0xde0b6b3a7640000"
            },
            "0x7d577a597b2742b498cb5cf0c26cdcd726d39e6e": {
                "balance": "0xde0b6b3a7640000"
            },
            "0x82a978b3f5962a5b0957d9ee9eef472ee55b42f1": {
                "balance": "0xde0b6b3a727bf12",
                "nonce": "0x57"
            },
            "0x90f0b1ebbba1c1936aff7aaf20a7878ff9e04b6c": {
                "balance": "0xde0b6b3a7640000"
            },
            "0xc305c901078781c232a2a521c2af7980f8385ee9": {
                "code": "0x600035601c52740100000000000000000000000000000000000000006020526fffffffffffffffffffffffffffffffff6040527fffffffffffffffffffffffffffffffff000000000000000000000000000000016060527402540be3fffffffffffffffffffffffffdabf41c006080527ffffffffffffffffffffffffdabf41c00000000000000000000000002540be40060a0526330c8d1da600051141561012b5760c06004356004013511151558576004356004013560200160043560040161014037604061026061014051610160600060076305f5e0fff11558576040610240526102406060806102c0828460006004601bf15050506102c08051602082012090506000556102c060206020820352604081510160206001820306601f820103905060208203f350005b",
                "balance": "0x0",
                "nonce": "0x1"
            },
            "0xdceceaf3fc5c0a63d195d69b1a90011b7b19650d": {
                "balance": "0xde0b6b3a7640000"
            },
            "0xe0fc04fa2d34a66b779fd5cee748268032a146c0": {
                "balance": "0xde0b6b3a7640000"
            }
        },
        "transaction": {
            "gasPrice": "0xa",
            "maxFeePerGas": null,
            "maxPriorityFeePerGas": null,
            "nonce": "0x57",
            "to": "0xc305c901078781c232a2a521c2af7980f8385ee9",
            "data": [
                "0x30c8d1da000000000000000000000000000000000000000000000000000000000000002000000000000000000000000000000000000000000000000000000000000000800000000000000000000000000000000000000000000000000000000000000000000000000000000000000000000000000000000000000000000000000000000330644e72e131a029b85045b68181585d2833e84879b9709143e1f593f00000010000000000000000000000000000000000000000000000000000000000000000"
            ],
            "gasLimit": [
                "0xb060",
                "0x15f90",
                "0x1adb0",
                "0x30d40"
            ],
            "value": [
                "0x00"
            ],
            "secretKey": "0x044852b2a670ade5407e78fb2863c51de9fcb96542a07186fe3aeda6bb8a116d"
        },
        "out": "0x",
        "post": {
            "ETC_Magneto": [
                {
                    "hash": "03cc3478859595ed9683acf3d3a17790a54fab44455c1254ba8f70b54b2bfa6a",
                    "logs": "1dcc4de8dec75d7aab85b567b6ccd41ad312451b948a7413f0a142fd40d49347",
                    "txbytes": "0xf90124570a82b06094c305c901078781c232a2a521c2af7980f8385ee980b8c430c8d1da000000000000000000000000000000000000000000000000000000000000002000000000000000000000000000000000000000000000000000000000000000800000000000000000000000000000000000000000000000000000000000000000000000000000000000000000000000000000000000000000000000000000000330644e72e131a029b85045b68181585d2833e84879b9709143e1f593f000000100000000000000000000000000000000000000000000000000000000000000001ca09a0a1d02ea5d8c84d536a5c519c47916d53019d010286e9af6f2077cc6ac5899a04bf20df7d8f06c3aa30d3b34590e4d51b08461a468b253965481b65abb36177f",
                    "indexes": {
                        "data": 0,
                        "gas": 0,
                        "value": 0
                    }
                },
                {
                    "hash": "73637f66f0c037aa2345d054fb064db0888239a9e5c3bd44ef6e75be4c8e25be",
                    "logs": "1dcc4de8dec75d7aab85b567b6ccd41ad312451b948a7413f0a142fd40d49347",
                    "txbytes": "0xf90125570a83015f9094c305c901078781c232a2a521c2af7980f8385ee980b8c430c8d1da000000000000000000000000000000000000000000000000000000000000002000000000000000000000000000000000000000000000000000000000000000800000000000000000000000000000000000000000000000000000000000000000000000000000000000000000000000000000000000000000000000000000000330644e72e131a029b85045b68181585d2833e84879b9709143e1f593f000000100000000000000000000000000000000000000000000000000000000000000001ba06db953c0639cddad5de4c04245e99e718411e2e443a1ae525e6d20a95de13508a039659265a2a2bfc0ce4c12bad663ecc7a49d36c0dfdcf9061f9bc5ce0e90dbc1",
                    "indexes": {
                        "data": 0,
                        "gas": 1,
                        "value": 0
                    }
                },
                {
                    "hash": "618f23da8e0ce641031711861b91523c9a707391bc6d9a5bc8452ee688f9433c",
                    "logs": "1dcc4de8dec75d7aab85b567b6ccd41ad312451b948a7413f0a142fd40d49347",
                    "txbytes": "0xf90125570a8301adb094c305c901078781c232a2a521c2af7980f8385ee980b8c430c8d1da000000000000000000000000000000000000000000000000000000000000002000000000000000000000000000000000000000000000000000000000000000800000000000000000000000000000000000000000000000000000000000000000000000000000000000000000000000000000000000000000000000000000000330644e72e131a029b85045b68181585d2833e84879b9709143e1f593f000000100000000000000000000000000000000000000000000000000000000000000001ca06ee39b2b2df444673884a109431f7bb6ae4562bfa969a91462104218143a9340a06ce854bb62797783df3bdb9474c80c6c1fea8ae6f135d70a19b5da845f547692",
                    "indexes": {
                        "data": 0,
                        "gas": 2,
                        "value": 0
                    }
                },
                {
                    "hash": "021916fe145a6f1d6c17383fd6e2576e1543232da5af87e93278c2578122f3b2",
                    "logs": "1dcc4de8dec75d7aab85b567b6ccd41ad312451b948a7413f0a142fd40d49347",
                    "txbytes": "0xf90125570a83030d4094c305c901078781c232a2a521c2af7980f8385ee980b8c430c8d1da000000000000000000000000000000000000000000000000000000000000002000000000000000000000000000000000000000000000000000000000000000800000000000000000000000000000000000000000000000000000000000000000000000000000000000000000000000000000000000000000000000000000000330644e72e131a029b85045b68181585d2833e84879b9709143e1f593f000000100000000000000000000000000000000000000000000000000000000000000001ba0226f7317cae10e516a2abc18bd3659b596da52ddc8986491759ef58e1912a5dea06e54619b4b0ba41495e7fa8c14c40790b5efe3b302e6434e77d8332c073ad9d0",
                    "indexes": {
                        "data": 0,
                        "gas": 3,
                        "value": 0
                    }
                }
            ],
            "ETC_Mystique": [
                {
                    "hash": "03cc3478859595ed9683acf3d3a17790a54fab44455c1254ba8f70b54b2bfa6a",
                    "logs": "1dcc4de8dec75d7aab85b567b6ccd41ad312451b948a7413f0a142fd40d49347",
                    "txbytes": "0xf90124570a82b06094c305c901078781c232a2a521c2af7980f8385ee980b8c430c8d1da000000000000000000000000000000000000000000000000000000000000002000000000000000000000000000000000000000000000000000000000000000800000000000000000000000000000000000000000000000000000000000000000000000000000000000000000000000000000000000000000000000000000000330644e72e131a029b85045b68181585d2833e84879b9709143e1f593f000000100000000000000000000000000000000000000000000000000000000000000001ca09a0a1d02ea5d8c84d536a5c519c47916d53019d010286e9af6f2077cc6ac5899a04bf20df7d8f06c3aa30d3b34590e4d51b08461a468b253965481b65abb36177f",
                    "indexes": {
                        "data": 0,
                        "gas": 0,
                        "value": 0
                    }
                },
                {
                    "hash": "73637f66f0c037aa2345d054fb064db0888239a9e5c3bd44ef6e75be4c8e25be",
                    "logs": "1dcc4de8dec75d7aab85b567b6ccd41ad312451b948a7413f0a142fd40d49347",
                    "txbytes": "0xf90125570a83015f9094c305c901078781c232a2a521c2af7980f8385ee980b8c430c8d1da000000000000000000000000000000000000000000000000000000000000002000000000000000000000000000000000000000000000000000000000000000800000000000000000000000000000000000000000000000000000000000000000000000000000000000000000000000000000000000000000000000000000000330644e72e131a029b85045b68181585d2833e84879b9709143e1f593f000000100000000000000000000000000000000000000000000000000000000000000001ba06db953c0639cddad5de4c04245e99e718411e2e443a1ae525e6d20a95de13508a039659265a2a2bfc0ce4c12bad663ecc7a49d36c0dfdcf9061f9bc5ce0e90dbc1",
                    "indexes": {
                        "data": 0,
                        "gas": 1,
                        "value": 0
                    }
                },
                {
                    "hash": "618f23da8e0ce641031711861b91523c9a707391bc6d9a5bc8452ee688f9433c",
                    "logs": "1dcc4de8dec75d7aab85b567b6ccd41ad312451b948a7413f0a142fd40d49347",
                    "txbytes": "0xf90125570a8301adb094c305c901078781c232a2a521c2af7980f8385ee980b8c430c8d1da000000000000000000000000000000000000000000000000000000000000002000000000000000000000000000000000000000000000000000000000000000800000000000000000000000000000000000000000000000000000000000000000000000000000000000000000000000000000000000000000000000000000000330644e72e131a029b85045b68181585d2833e84879b9709143e1f593f000000100000000000000000000000000000000000000000000000000000000000000001ca06ee39b2b2df444673884a109431f7bb6ae4562bfa969a91462104218143a9340a06ce854bb62797783df3bdb9474c80c6c1fea8ae6f135d70a19b5da845f547692",
                    "indexes": {
                        "data": 0,
                        "gas": 2,
                        "value": 0
                    }
                },
                {
                    "hash": "021916fe145a6f1d6c17383fd6e2576e1543232da5af87e93278c2578122f3b2",
                    "logs": "1dcc4de8dec75d7aab85b567b6ccd41ad312451b948a7413f0a142fd40d49347",
                    "txbytes": "0xf90125570a83030d4094c305c901078781c232a2a521c2af7980f8385ee980b8c430c8d1da000000000000000000000000000000000000000000000000000000000000002000000000000000000000000000000000000000000000000000000000000000800000000000000000000000000000000000000000000000000000000000000000000000000000000000000000000000000000000000000000000000000000000330644e72e131a029b85045b68181585d2833e84879b9709143e1f593f000000100000000000000000000000000000000000000000000000000000000000000001ba0226f7317cae10e516a2abc18bd3659b596da52ddc8986491759ef58e1912a5dea06e54619b4b0ba41495e7fa8c14c40790b5efe3b302e6434e77d8332c073ad9d0",
                    "indexes": {
                        "data": 0,
                        "gas": 3,
                        "value": 0
                    }
                }
            ],
            "ETC_Phoenix": [
                {
                    "hash": "03cc3478859595ed9683acf3d3a17790a54fab44455c1254ba8f70b54b2bfa6a",
                    "logs": "1dcc4de8dec75d7aab85b567b6ccd41ad312451b948a7413f0a142fd40d49347",
                    "txbytes": "0xf90124570a82b06094c305c901078781c232a2a521c2af7980f8385ee980b8c430c8d1da000000000000000000000000000000000000000000000000000000000000002000000000000000000000000000000000000000000000000000000000000000800000000000000000000000000000000000000000000000000000000000000000000000000000000000000000000000000000000000000000000000000000000330644e72e131a029b85045b68181585d2833e84879b9709143e1f593f000000100000000000000000000000000000000000000000000000000000000000000001ca09a0a1d02ea5d8c84d536a5c519c47916d53019d010286e9af6f2077cc6ac5899a04bf20df7d8f06c3aa30d3b34590e4d51b08461a468b253965481b65abb36177f",
                    "indexes": {
                        "data": 0,
                        "gas": 0,
                        "value": 0
                    }
                },
                {
                    "hash": "73637f66f0c037aa2345d054fb064db0888239a9e5c3bd44ef6e75be4c8e25be",
                    "logs": "1dcc4de8dec75d7aab85b567b6ccd41ad312451b948a7413f0a142fd40d49347",
                    "txbytes": "0xf90125570a83015f9094c305c901078781c232a2a521c2af7980f8385ee980b8c430c8d1da000000000000000000000000000000000000000000000000000000000000002000000000000000000000000000000000000000000000000000000000000000800000000000000000000000000000000000000000000000000000000000000000000000000000000000000000000000000000000000000000000000000000000330644e72e131a029b85045b68181585d2833e84879b9709143e1f593f000000100000000000000000000000000000000000000000000000000000000000000001ba06db953c0639cddad5de4c04245e99e718411e2e443a1ae525e6d20a95de13508a039659265a2a2bfc0ce4c12bad663ecc7a49d36c0dfdcf9061f9bc5ce0e90dbc1",
                    "indexes": {
                        "data": 0,
                        "gas": 1,
                        "value": 0
                    }
                },
                {
                    "hash": "618f23da8e0ce641031711861b91523c9a707391bc6d9a5bc8452ee688f9433c",
                    "logs": "1dcc4de8dec75d7aab85b567b6ccd41ad312451b948a7413f0a142fd40d49347",
                    "txbytes": "0xf90125570a8301adb094c305c901078781c232a2a521c2af7980f8385ee980b8c430c8d1da000000000000000000000000000000000000000000000000000000000000002000000000000000000000000000000000000000000000000000000000000000800000000000000000000000000000000000000000000000000000000000000000000000000000000000000000000000000000000000000000000000000000000330644e72e131a029b85045b68181585d2833e84879b9709143e1f593f000000100000000000000000000000000000000000000000000000000000000000000001ca06ee39b2b2df444673884a109431f7bb6ae4562bfa969a91462104218143a9340a06ce854bb62797783df3bdb9474c80c6c1fea8ae6f135d70a19b5da845f547692",
                    "indexes": {
                        "data": 0,
                        "gas": 2,
                        "value": 0
                    }
                },
                {
                    "hash": "021916fe145a6f1d6c17383fd6e2576e1543232da5af87e93278c2578122f3b2",
                    "logs": "1dcc4de8dec75d7aab85b567b6ccd41ad312451b948a7413f0a142fd40d49347",
                    "txbytes": "0xf90125570a83030d4094c305c901078781c232a2a521c2af7980f8385ee980b8c430c8d1da000000000000000000000000000000000000000000000000000000000000002000000000000000000000000000000000000000000000000000000000000000800000000000000000000000000000000000000000000000000000000000000000000000000000000000000000000000000000000000000000000000000000000330644e72e131a029b85045b68181585d2833e84879b9709143e1f593f000000100000000000000000000000000000000000000000000000000000000000000001ba0226f7317cae10e516a2abc18bd3659b596da52ddc8986491759ef58e1912a5dea06e54619b4b0ba41495e7fa8c14c40790b5efe3b302e6434e77d8332c073ad9d0",
                    "indexes": {
                        "data": 0,
                        "gas": 3,
                        "value": 0
                    }
                }
            ]
        }
    }
}