{
    "ecmul_0-0_5616_28000_128": {
        "_info": {
            "comment": "Puts the point (0, 0) and the factor 21888242871839275222246405745257275088548364400416034343698204186575808495616 into the ECMUL precompile, truncating or expanding the input data to 128 bytes. Gives the execution 28000 bytes",
            "filling-rpc-server": "evm version 1.10.16-unstable-0f893109-20220105",
            "filling-tool-version": "retesteth-0.2.2-testinfo+commit.01c6aac2.Linux.g++",
            "filledWith": "CoreGeth-1.12.9-unstable-4cf5b2b0837228e7d5eadba6a01ffb80e9288e21",
            "lllcversion": "Version: 0.5.14-develop.2021.11.27+commit.401d5358.Linux.g++",
            "source": "src/GeneralStateTestsFiller/stZeroKnowledge2/ecmul_0-0_5616_28000_128Filler.json",
            "sourceHash": "2f5857a52b8a80e94704900c1077761ca5d9c559bbd1d31b5a74dcbd74e8e3c4"
        },
        "env": {
            "currentCoinbase": "0x3535353535353535353535353535353535353535",
            "currentDifficulty": "0x20000",
            "currentGasLimit": "0x5f5e100",
            "currentNumber": "0x1",
            "currentTimestamp": "0x3e8",
            "previousHash": "0xc6745cf3cada515bbfb9573261c82547e0b8f9e3d5dd382e464704a84e47b5ad"
        },
        "pre": {
            "0x0000000000000000000000000000000000000000": {
                "code": "0x",
                "balance": "0x1",
                "nonce": "0x0"
            },
            "0x0000000000000000000000000000000000000001": {
                "code": "0x",
                "balance": "0x1",
                "nonce": "0x0"
            },
            "0x0000000000000000000000000000000000000002": {
                "code": "0x",
                "balance": "0x1",
                "nonce": "0x0"
            },
            "0x0000000000000000000000000000000000000003": {
                "code": "0x",
                "balance": "0x1",
                "nonce": "0x0"
            },
            "0x0000000000000000000000000000000000000004": {
                "code": "0x",
                "balance": "0x1",
                "nonce": "0x0"
            },
            "0x0000000000000000000000000000000000000005": {
                "code": "0x",
                "balance": "0x1",
                "nonce": "0x0"
            },
            "0x0000000000000000000000000000000000000006": {
                "code": "0x",
                "balance": "0x1",
                "nonce": "0x0"
            },
            "0x0000000000000000000000000000000000000007": {
                "code": "0x",
                "balance": "0x1",
                "nonce": "0x0"
            },
            "0x10a1c1cb95c92ec31d3f22c66eef1d9f3f258c6b": {
                "code": "0x",
                "balance": "0xde0b6b3a7640000",
                "nonce": "0x0"
            },
            "0x13cbb8d99c6c4e0f2728c7d72606e78a29c4e224": {
                "code": "0x",
                "balance": "0xde0b6b3a7640000",
                "nonce": "0x0"
            },
            "0x24143873e0e0815fdcbcffdbe09c979cbf9ad013": {
                "code": "0x",
                "balance": "0xde0b6b3a7640000",
                "nonce": "0x0"
            },
            "0x3535353535353535353535353535353535353535": {
                "code": "0x",
                "balance": "0x6cd6c8",
                "nonce": "0x0"
            },
            "0x598443f1880ef585b21f1d7585bd0577402861e5": {
                "code": "0x",
                "balance": "0xde0b6b3a7640000",
                "nonce": "0x0"
            },
            "0x77db2bebba79db42a978f896968f4afce746ea1f": {
                "code": "0x",
                "balance": "0xde0b6b3a7640000",
                "nonce": "0x0"
            },
            "0x7d577a597b2742b498cb5cf0c26cdcd726d39e6e": {
                "code": "0x",
                "balance": "0xde0b6b3a7640000",
                "nonce": "0x0"
            },
            "0x82a978b3f5962a5b0957d9ee9eef472ee55b42f1": {
                "code": "0x",
                "balance": "0xde0b6b3a6f72938",
                "nonce": "0xa6"
            },
            "0x90f0b1ebbba1c1936aff7aaf20a7878ff9e04b6c": {
                "code": "0x",
                "balance": "0xde0b6b3a7640000",
                "nonce": "0x0"
            },
            "0xc305c901078781c232a2a521c2af7980f8385ee9": {
                "code": "0x600035601c52740100000000000000000000000000000000000000006020526fffffffffffffffffffffffffffffffff6040527fffffffffffffffffffffffffffffffff000000000000000000000000000000016060527402540be3fffffffffffffffffffffffffdabf41c006080527ffffffffffffffffffffffffdabf41c00000000000000000000000002540be40060a0526330c8d1da600051141561012b5760c06004356004013511151558576004356004013560200160043560040161014037604061026061014051610160600060076305f5e0fff11558576040610240526102406060806102c0828460006004601bf15050506102c08051602082012090506000556102c060206020820352604081510160206001820306601f820103905060208203f350005b",
                "storage": {
                    "0x0000000000000000000000000000000000000000000000000000000000000000": "0xad3228b676f7d3cd4284a5443f17f1962b36e491b30a40b2405849e597ba5fb5"
                },
                "balance": "0x0",
                "nonce": "0x1"
            },
            "0xdceceaf3fc5c0a63d195d69b1a90011b7b19650d": {
                "code": "0x",
                "balance": "0xde0b6b3a7640000",
                "nonce": "0x0"
            },
            "0xe0fc04fa2d34a66b779fd5cee748268032a146c0": {
                "code": "0x",
                "balance": "0xde0b6b3a7640000",
                "nonce": "0x0"
            }
        },
        "transaction": {
            "gasPrice": "0xa",
            "nonce": "0xa6",
            "to": "0xc305c901078781c232a2a521c2af7980f8385ee9",
            "data": [
                "0x30c8d1da000000000000000000000000000000000000000000000000000000000000002000000000000000000000000000000000000000000000000000000000000000800000000000000000000000000000000000000000000000000000000000000000000000000000000000000000000000000000000000000000000000000000000030644e72e131a029b85045b68181585d2833e84879b9709143e1f593f00000000000000000000000000000000000000000000000000000000000000000000000"
            ],
            "gasLimit": [
                "0xcb38",
                "0x15f90",
                "0x1adb0",
                "0x30d40"
            ],
            "value": [
                "0x00"
            ],
            "secretKey": "0x044852b2a670ade5407e78fb2863c51de9fcb96542a07186fe3aeda6bb8a116d",
            "sender": "0x82a978b3f5962a5b0957d9ee9eef472ee55b42f1"
        },
        "post": {
            "ETC_Magneto": [
                {
                    "hash": "92dca70699b4698ef45ef0720b31848f3691f084a2e6ec709b4e0574f4cd064e",
                    "logs": "1dcc4de8dec75d7aab85b567b6ccd41ad312451b948a7413f0a142fd40d49347",
                    "txbytes": "0xf9012581a60a82cb3894c305c901078781c232a2a521c2af7980f8385ee980b8c430c8d1da000000000000000000000000000000000000000000000000000000000000002000000000000000000000000000000000000000000000000000000000000000800000000000000000000000000000000000000000000000000000000000000000000000000000000000000000000000000000000000000000000000000000000030644e72e131a029b85045b68181585d2833e84879b9709143e1f593f000000000000000000000000000000000000000000000000000000000000000000000001ca03ba64cd08eafc48fb9426abb344813788a3ce3a192eec9c2f1b4b7e45b5f7425a00b3560be96a1263026e56aa17bda378323b5945ac0362df6c90bb9574b92908a",
                    "indexes": {
                        "data": 0,
                        "gas": 0,
                        "value": 0
                    }
                },
                {
                    "hash": "92dca70699b4698ef45ef0720b31848f3691f084a2e6ec709b4e0574f4cd064e",
                    "logs": "1dcc4de8dec75d7aab85b567b6ccd41ad312451b948a7413f0a142fd40d49347",
                    "txbytes": "0xf9012681a60a83015f9094c305c901078781c232a2a521c2af7980f8385ee980b8c430c8d1da000000000000000000000000000000000000000000000000000000000000002000000000000000000000000000000000000000000000000000000000000000800000000000000000000000000000000000000000000000000000000000000000000000000000000000000000000000000000000000000000000000000000000030644e72e131a029b85045b68181585d2833e84879b9709143e1f593f000000000000000000000000000000000000000000000000000000000000000000000001ca078fbee0d9b6a416484701ed3175b0f229c7107c6828c99a3d34798d9fb106e4da0643c976fca28c27f557a4d2e990bf2a43fb2374e8c8ddc6624ef6ec921835a6d",
                    "indexes": {
                        "data": 0,
                        "gas": 1,
                        "value": 0
                    }
                },
                {
                    "hash": "92dca70699b4698ef45ef0720b31848f3691f084a2e6ec709b4e0574f4cd064e",
                    "logs": "1dcc4de8dec75d7aab85b567b6ccd41ad312451b948a7413f0a142fd40d49347",
                    "txbytes": "0xf9012681a60a8301adb094c305c901078781c232a2a521c2af7980f8385ee980b8c430c8d1da000000000000000000000000000000000000000000000000000000000000002000000000000000000000000000000000000000000000000000000000000000800000000000000000000000000000000000000000000000000000000000000000000000000000000000000000000000000000000000000000000000000000000030644e72e131a029b85045b68181585d2833e84879b9709143e1f593f000000000000000000000000000000000000000000000000000000000000000000000001ca0edfebd4e7b0e7cbe1bb7933e91cc27fbb20572890b827b0ff4ec4010a72572bca00b2b57eb57eac2c33e56f314fac1fd972da1acde40576f5893317064103dec3c",
                    "indexes": {
                        "data": 0,
                        "gas": 2,
                        "value": 0
                    }
                },
                {
                    "hash": "92dca70699b4698ef45ef0720b31848f3691f084a2e6ec709b4e0574f4cd064e",
                    "logs": "1dcc4de8dec75d7aab85b567b6ccd41ad312451b948a7413f0a142fd40d49347",
                    "txbytes": "0xf9012681a60a83030d4094c305c901078781c232a2a521c2af7980f8385ee980b8c430c8d1da000000000000000000000000000000000000000000000000000000000000002000000000000000000000000000000000000000000000000000000000000000800000000000000000000000000000000000000000000000000000000000000000000000000000000000000000000000000000000000000000000000000000000030644e72e131a029b85045b68181585d2833e84879b9709143e1f593f000000000000000000000000000000000000000000000000000000000000000000000001ba0a6af8d4131102bc20246c29e8a22b07471b34211d895dac06cc48221fe260777a04b2d43da8944c608ea0ec462b3bf9710821ad492f29f367100b1b8e5173412a4",
                    "indexes": {
                        "data": 0,
                        "gas": 3,
                        "value": 0
                    }
                }
            ],
            "ETC_Mystique": [
                {
                    "hash": "92dca70699b4698ef45ef0720b31848f3691f084a2e6ec709b4e0574f4cd064e",
                    "logs": "1dcc4de8dec75d7aab85b567b6ccd41ad312451b948a7413f0a142fd40d49347",
                    "txbytes": "0xf9012581a60a82cb3894c305c901078781c232a2a521c2af7980f8385ee980b8c430c8d1da000000000000000000000000000000000000000000000000000000000000002000000000000000000000000000000000000000000000000000000000000000800000000000000000000000000000000000000000000000000000000000000000000000000000000000000000000000000000000000000000000000000000000030644e72e131a029b85045b68181585d2833e84879b9709143e1f593f000000000000000000000000000000000000000000000000000000000000000000000001ca03ba64cd08eafc48fb9426abb344813788a3ce3a192eec9c2f1b4b7e45b5f7425a00b3560be96a1263026e56aa17bda378323b5945ac0362df6c90bb9574b92908a",
                    "indexes": {
                        "data": 0,
                        "gas": 0,
                        "value": 0
                    }
                },
                {
                    "hash": "92dca70699b4698ef45ef0720b31848f3691f084a2e6ec709b4e0574f4cd064e",
                    "logs": "1dcc4de8dec75d7aab85b567b6ccd41ad312451b948a7413f0a142fd40d49347",
                    "txbytes": "0xf9012681a60a83015f9094c305c901078781c232a2a521c2af7980f8385ee980b8c430c8d1da000000000000000000000000000000000000000000000000000000000000002000000000000000000000000000000000000000000000000000000000000000800000000000000000000000000000000000000000000000000000000000000000000000000000000000000000000000000000000000000000000000000000000030644e72e131a029b85045b68181585d2833e84879b9709143e1f593f000000000000000000000000000000000000000000000000000000000000000000000001ca078fbee0d9b6a416484701ed3175b0f229c7107c6828c99a3d34798d9fb106e4da0643c976fca28c27f557a4d2e990bf2a43fb2374e8c8ddc6624ef6ec921835a6d",
                    "indexes": {
                        "data": 0,
                        "gas": 1,
                        "value": 0
                    }
                },
                {
                    "hash": "92dca70699b4698ef45ef0720b31848f3691f084a2e6ec709b4e0574f4cd064e",
                    "logs": "1dcc4de8dec75d7aab85b567b6ccd41ad312451b948a7413f0a142fd40d49347",
                    "txbytes": "0xf9012681a60a8301adb094c305c901078781c232a2a521c2af7980f8385ee980b8c430c8d1da000000000000000000000000000000000000000000000000000000000000002000000000000000000000000000000000000000000000000000000000000000800000000000000000000000000000000000000000000000000000000000000000000000000000000000000000000000000000000000000000000000000000000030644e72e131a029b85045b68181585d2833e84879b9709143e1f593f000000000000000000000000000000000000000000000000000000000000000000000001ca0edfebd4e7b0e7cbe1bb7933e91cc27fbb20572890b827b0ff4ec4010a72572bca00b2b57eb57eac2c33e56f314fac1fd972da1acde40576f5893317064103dec3c",
                    "indexes": {
                        "data": 0,
                        "gas": 2,
                        "value": 0
                    }
                },
                {
                    "hash": "92dca70699b4698ef45ef0720b31848f3691f084a2e6ec709b4e0574f4cd064e",
                    "logs": "1dcc4de8dec75d7aab85b567b6ccd41ad312451b948a7413f0a142fd40d49347",
                    "txbytes": "0xf9012681a60a83030d4094c305c901078781c232a2a521c2af7980f8385ee980b8c430c8d1da000000000000000000000000000000000000000000000000000000000000002000000000000000000000000000000000000000000000000000000000000000800000000000000000000000000000000000000000000000000000000000000000000000000000000000000000000000000000000000000000000000000000000030644e72e131a029b85045b68181585d2833e84879b9709143e1f593f000000000000000000000000000000000000000000000000000000000000000000000001ba0a6af8d4131102bc20246c29e8a22b07471b34211d895dac06cc48221fe260777a04b2d43da8944c608ea0ec462b3bf9710821ad492f29f367100b1b8e5173412a4",
                    "indexes": {
                        "data": 0,
                        "gas": 3,
                        "value": 0
                    }
                }
            ],
            "ETC_Phoenix": [
                {
                    "hash": "cec8a893e8c3f925672d21d982b59ea7ea654b64ce525cffe916144f415fbb4d",
                    "logs": "1dcc4de8dec75d7aab85b567b6ccd41ad312451b948a7413f0a142fd40d49347",
                    "txbytes": "0xf9012581a60a82cb3894c305c901078781c232a2a521c2af7980f8385ee980b8c430c8d1da000000000000000000000000000000000000000000000000000000000000002000000000000000000000000000000000000000000000000000000000000000800000000000000000000000000000000000000000000000000000000000000000000000000000000000000000000000000000000000000000000000000000000030644e72e131a029b85045b68181585d2833e84879b9709143e1f593f000000000000000000000000000000000000000000000000000000000000000000000001ca03ba64cd08eafc48fb9426abb344813788a3ce3a192eec9c2f1b4b7e45b5f7425a00b3560be96a1263026e56aa17bda378323b5945ac0362df6c90bb9574b92908a",
                    "indexes": {
                        "data": 0,
                        "gas": 0,
                        "value": 0
                    }
                },
                {
                    "hash": "cec8a893e8c3f925672d21d982b59ea7ea654b64ce525cffe916144f415fbb4d",
                    "logs": "1dcc4de8dec75d7aab85b567b6ccd41ad312451b948a7413f0a142fd40d49347",
                    "txbytes": "0xf9012681a60a83015f9094c305c901078781c232a2a521c2af7980f8385ee980b8c430c8d1da000000000000000000000000000000000000000000000000000000000000002000000000000000000000000000000000000000000000000000000000000000800000000000000000000000000000000000000000000000000000000000000000000000000000000000000000000000000000000000000000000000000000000030644e72e131a029b85045b68181585d2833e84879b9709143e1f593f000000000000000000000000000000000000000000000000000000000000000000000001ca078fbee0d9b6a416484701ed3175b0f229c7107c6828c99a3d34798d9fb106e4da0643c976fca28c27f557a4d2e990bf2a43fb2374e8c8ddc6624ef6ec921835a6d",
                    "indexes": {
                        "data": 0,
                        "gas": 1,
                        "value": 0
                    }
                },
                {
                    "hash": "cec8a893e8c3f925672d21d982b59ea7ea654b64ce525cffe916144f415fbb4d",
                    "logs": "1dcc4de8dec75d7aab85b567b6ccd41ad312451b948a7413f0a142fd40d49347",
                    "txbytes": "0xf9012681a60a8301adb094c305c901078781c232a2a521c2af7980f8385ee980b8c430c8d1da000000000000000000000000000000000000000000000000000000000000002000000000000000000000000000000000000000000000000000000000000000800000000000000000000000000000000000000000000000000000000000000000000000000000000000000000000000000000000000000000000000000000000030644e72e131a029b85045b68181585d2833e84879b9709143e1f593f000000000000000000000000000000000000000000000000000000000000000000000001ca0edfebd4e7b0e7cbe1bb7933e91cc27fbb20572890b827b0ff4ec4010a72572bca00b2b57eb57eac2c33e56f314fac1fd972da1acde40576f5893317064103dec3c",
                    "indexes": {
                        "data": 0,
                        "gas": 2,
                        "value": 0
                    }
                },
                {
                    "hash": "cec8a893e8c3f925672d21d982b59ea7ea654b64ce525cffe916144f415fbb4d",
                    "logs": "1dcc4de8dec75d7aab85b567b6ccd41ad312451b948a7413f0a142fd40d49347",
                    "txbytes": "0xf9012681a60a83030d4094c305c901078781c232a2a521c2af7980f8385ee980b8c430c8d1da000000000000000000000000000000000000000000000000000000000000002000000000000000000000000000000000000000000000000000000000000000800000000000000000000000000000000000000000000000000000000000000000000000000000000000000000000000000000000000000000000000000000000030644e72e131a029b85045b68181585d2833e84879b9709143e1f593f000000000000000000000000000000000000000000000000000000000000000000000001ba0a6af8d4131102bc20246c29e8a22b07471b34211d895dac06cc48221fe260777a04b2d43da8944c608ea0ec462b3bf9710821ad492f29f367100b1b8e5173412a4",
                    "indexes": {
                        "data": 0,
                        "gas": 3,
                        "value": 0
                    }
                }
            ]
        }
    }
}