{
    "ecmul_0-3_5616_21000_96": {
        "_info": {
            "comment": "Puts the point (0, 3) and the factor 21888242871839275222246405745257275088548364400416034343698204186575808495616 into the ECMUL precompile, truncating or expanding the input data to 96 bytes. Gives the execution 21000 bytes",
            "filling-rpc-server": "evm version 1.10.16-unstable-0f893109-20220105",
            "filling-tool-version": "retesteth-0.2.2-testinfo+commit.01c6aac2.Linux.g++",
            "filledWith": "CoreGeth-1.12.9-unstable-d390462df9df233b60b4cd7a37db5b3043832022",
            "lllcversion": "Version: 0.5.14-develop.2021.11.27+commit.401d5358.Linux.g++",
            "source": "src/GeneralStateTestsFiller/stZeroKnowledge2/ecmul_0-3_5616_21000_96Filler.json",
            "sourceHash": "c097eea0eb9af5cb0f30e390f96c711b360ad9974bd43ac421bcfbe4e8e92118"
        },
        "env": {
            "currentCoinbase": "0x3535353535353535353535353535353535353535",
            "currentDifficulty": "0x20000",
            "currentGasLimit": "0x5f5e100",
            "currentNumber": "0x1",
            "currentTimestamp": "0x3e8",
            "previousHash": "0xc6745cf3cada515bbfb9573261c82547e0b8f9e3d5dd382e464704a84e47b5ad"
        },
        "pre": {
            "0x0000000000000000000000000000000000000000": {
                "code": "0x",
                "balance": "0x1",
                "nonce": "0x0"
            },
            "0x0000000000000000000000000000000000000001": {
                "code": "0x",
                "balance": "0x1",
                "nonce": "0x0"
            },
            "0x0000000000000000000000000000000000000002": {
                "code": "0x",
                "balance": "0x1",
                "nonce": "0x0"
            },
            "0x0000000000000000000000000000000000000003": {
                "code": "0x",
                "balance": "0x1",
                "nonce": "0x0"
            },
            "0x0000000000000000000000000000000000000004": {
                "code": "0x",
                "balance": "0x1",
                "nonce": "0x0"
            },
            "0x0000000000000000000000000000000000000005": {
                "code": "0x",
                "balance": "0x1",
                "nonce": "0x0"
            },
            "0x0000000000000000000000000000000000000006": {
                "code": "0x",
                "balance": "0x1",
                "nonce": "0x0"
            },
            "0x0000000000000000000000000000000000000007": {
                "code": "0x",
                "balance": "0x1",
                "nonce": "0x0"
            },
            "0x10a1c1cb95c92ec31d3f22c66eef1d9f3f258c6b": {
                "code": "0x",
                "balance": "0xde0b6b3a7640000",
                "nonce": "0x0"
            },
            "0x13cbb8d99c6c4e0f2728c7d72606e78a29c4e224": {
                "code": "0x",
                "balance": "0xde0b6b3a7640000",
                "nonce": "0x0"
            },
            "0x24143873e0e0815fdcbcffdbe09c979cbf9ad013": {
                "code": "0x",
                "balance": "0xde0b6b3a7640000",
                "nonce": "0x0"
            },
            "0x3535353535353535353535353535353535353535": {
                "code": "0x",
                "balance": "0x3490ce",
                "nonce": "0x0"
            },
            "0x598443f1880ef585b21f1d7585bd0577402861e5": {
                "code": "0x",
                "balance": "0xde0b6b3a7640000",
                "nonce": "0x0"
            },
            "0x77db2bebba79db42a978f896968f4afce746ea1f": {
                "code": "0x",
                "balance": "0xde0b6b3a7640000",
                "nonce": "0x0"
            },
            "0x7d577a597b2742b498cb5cf0c26cdcd726d39e6e": {
                "code": "0x",
                "balance": "0xde0b6b3a7640000",
                "nonce": "0x0"
            },
            "0x82a978b3f5962a5b0957d9ee9eef472ee55b42f1": {
                "code": "0x",
                "balance": "0xde0b6b3a72f6f32",
                "nonce": "0x4c"
            },
            "0x90f0b1ebbba1c1936aff7aaf20a7878ff9e04b6c": {
                "code": "0x",
                "balance": "0xde0b6b3a7640000",
                "nonce": "0x0"
            },
            "0xc305c901078781c232a2a521c2af7980f8385ee9": {
                "code": "0x600035601c52740100000000000000000000000000000000000000006020526fffffffffffffffffffffffffffffffff6040527fffffffffffffffffffffffffffffffff000000000000000000000000000000016060527402540be3fffffffffffffffffffffffffdabf41c006080527ffffffffffffffffffffffffdabf41c00000000000000000000000002540be40060a0526330c8d1da600051141561012b5760c06004356004013511151558576004356004013560200160043560040161014037604061026061014051610160600060076305f5e0fff11558576040610240526102406060806102c0828460006004601bf15050506102c08051602082012090506000556102c060206020820352604081510160206001820306601f820103905060208203f350005b",
                "balance": "0x0",
                "nonce": "0x1"
            },
            "0xdceceaf3fc5c0a63d195d69b1a90011b7b19650d": {
                "code": "0x",
                "balance": "0xde0b6b3a7640000",
                "nonce": "0x0"
            },
            "0xe0fc04fa2d34a66b779fd5cee748268032a146c0": {
                "code": "0x",
                "balance": "0xde0b6b3a7640000",
                "nonce": "0x0"
            }
        },
        "transaction": {
            "gasPrice": "0xa",
            "nonce": "0x4c",
            "to": "0xc305c901078781c232a2a521c2af7980f8385ee9",
            "data": [
                "0x30c8d1da000000000000000000000000000000000000000000000000000000000000002000000000000000000000000000000000000000000000000000000000000000600000000000000000000000000000000000000000000000000000000000000000000000000000000000000000000000000000000000000000000000000000000330644e72e131a029b85045b68181585d2833e84879b9709143e1f593f0000000"
            ],
            "gasLimit": [
                "0xafa0",
                "0x15f90",
                "0x1adb0",
                "0x30d40"
            ],
            "value": [
                "0x00"
            ],
            "secretKey": "0x044852b2a670ade5407e78fb2863c51de9fcb96542a07186fe3aeda6bb8a116d",
            "sender": "0x82a978b3f5962a5b0957d9ee9eef472ee55b42f1"
        },
        "post": {
            "ETC_Magneto": [
                {
                    "hash": "ae1496c245f23f1a6279fc5b0f8ce4844459f87413c99a5465e4dc7732b9b839",
                    "logs": "1dcc4de8dec75d7aab85b567b6ccd41ad312451b948a7413f0a142fd40d49347",
                    "txbytes": "0xf901044c0a82afa094c305c901078781c232a2a521c2af7980f8385ee980b8a430c8d1da000000000000000000000000000000000000000000000000000000000000002000000000000000000000000000000000000000000000000000000000000000600000000000000000000000000000000000000000000000000000000000000000000000000000000000000000000000000000000000000000000000000000000330644e72e131a029b85045b68181585d2833e84879b9709143e1f593f00000001ca036dd12c0eba9171238febece35ec98f4a0e4482aa52f89b121d9ea32492ef8b4a00cb4ddcf9a8c99ec461a32929b0a48837525c588f39bbf663d349da4d3c92028",
                    "indexes": {
                        "data": 0,
                        "gas": 0,
                        "value": 0
                    }
                },
                {
                    "hash": "a7634229f08ecc51953a3080d84e6f332a76f3212eba2b8cf6587aa88f6d80f8",
                    "logs": "1dcc4de8dec75d7aab85b567b6ccd41ad312451b948a7413f0a142fd40d49347",
                    "txbytes": "0xf901054c0a83015f9094c305c901078781c232a2a521c2af7980f8385ee980b8a430c8d1da000000000000000000000000000000000000000000000000000000000000002000000000000000000000000000000000000000000000000000000000000000600000000000000000000000000000000000000000000000000000000000000000000000000000000000000000000000000000000000000000000000000000000330644e72e131a029b85045b68181585d2833e84879b9709143e1f593f00000001ca0deae2326ff15237b3080b94195a5e9e7d72f9025d41ddd9aa66a414c8a8ce266a069fe9a9ce74b3e5facceadc90735fd5c2a5687c07f0a5424aa4e870ebba4b204",
                    "indexes": {
                        "data": 0,
                        "gas": 1,
                        "value": 0
                    }
                },
                {
                    "hash": "3e9fc60047eeeb4ad42f05a6b7cbc91828b7b3b09dd3d40599de0054149d10c0",
                    "logs": "1dcc4de8dec75d7aab85b567b6ccd41ad312451b948a7413f0a142fd40d49347",
                    "txbytes": "0xf901054c0a8301adb094c305c901078781c232a2a521c2af7980f8385ee980b8a430c8d1da000000000000000000000000000000000000000000000000000000000000002000000000000000000000000000000000000000000000000000000000000000600000000000000000000000000000000000000000000000000000000000000000000000000000000000000000000000000000000000000000000000000000000330644e72e131a029b85045b68181585d2833e84879b9709143e1f593f00000001ca03b46434c4d2cede0b39bfb61e10f2a729758615728e24f87b2bd7297cf6a7cc6a02d82a8247303ba0f7dea75020fff83566de3611a7fe71196b6736353e79dfcd1",
                    "indexes": {
                        "data": 0,
                        "gas": 2,
                        "value": 0
                    }
                },
                {
                    "hash": "12e9ffd108b3f48b192eb0a59fd25eec17618a3b76152247f2b73f52a6b88c69",
                    "logs": "1dcc4de8dec75d7aab85b567b6ccd41ad312451b948a7413f0a142fd40d49347",
                    "txbytes": "0xf901054c0a83030d4094c305c901078781c232a2a521c2af7980f8385ee980b8a430c8d1da000000000000000000000000000000000000000000000000000000000000002000000000000000000000000000000000000000000000000000000000000000600000000000000000000000000000000000000000000000000000000000000000000000000000000000000000000000000000000000000000000000000000000330644e72e131a029b85045b68181585d2833e84879b9709143e1f593f00000001ba07f195c990e81f67589150be48083023afd1c05f0d826ba4ab6a612bc5091a234a03c415d7c80e5ee8711bd10c4004cd68d639668864b2ab1eaf0d2216534626e84",
                    "indexes": {
                        "data": 0,
                        "gas": 3,
                        "value": 0
                    }
                }
            ],
            "ETC_Mystique": [
                {
                    "hash": "ae1496c245f23f1a6279fc5b0f8ce4844459f87413c99a5465e4dc7732b9b839",
                    "logs": "1dcc4de8dec75d7aab85b567b6ccd41ad312451b948a7413f0a142fd40d49347",
                    "txbytes": "0xf901044c0a82afa094c305c901078781c232a2a521c2af7980f8385ee980b8a430c8d1da000000000000000000000000000000000000000000000000000000000000002000000000000000000000000000000000000000000000000000000000000000600000000000000000000000000000000000000000000000000000000000000000000000000000000000000000000000000000000000000000000000000000000330644e72e131a029b85045b68181585d2833e84879b9709143e1f593f00000001ca036dd12c0eba9171238febece35ec98f4a0e4482aa52f89b121d9ea32492ef8b4a00cb4ddcf9a8c99ec461a32929b0a48837525c588f39bbf663d349da4d3c92028",
                    "indexes": {
                        "data": 0,
                        "gas": 0,
                        "value": 0
                    }
                },
                {
                    "hash": "a7634229f08ecc51953a3080d84e6f332a76f3212eba2b8cf6587aa88f6d80f8",
                    "logs": "1dcc4de8dec75d7aab85b567b6ccd41ad312451b948a7413f0a142fd40d49347",
                    "txbytes": "0xf901054c0a83015f9094c305c901078781c232a2a521c2af7980f8385ee980b8a430c8d1da000000000000000000000000000000000000000000000000000000000000002000000000000000000000000000000000000000000000000000000000000000600000000000000000000000000000000000000000000000000000000000000000000000000000000000000000000000000000000000000000000000000000000330644e72e131a029b85045b68181585d2833e84879b9709143e1f593f00000001ca0deae2326ff15237b3080b94195a5e9e7d72f9025d41ddd9aa66a414c8a8ce266a069fe9a9ce74b3e5facceadc90735fd5c2a5687c07f0a5424aa4e870ebba4b204",
                    "indexes": {
                        "data": 0,
                        "gas": 1,
                        "value": 0
                    }
                },
                {
                    "hash": "3e9fc60047eeeb4ad42f05a6b7cbc91828b7b3b09dd3d40599de0054149d10c0",
                    "logs": "1dcc4de8dec75d7aab85b567b6ccd41ad312451b948a7413f0a142fd40d49347",
                    "txbytes": "0xf901054c0a8301adb094c305c901078781c232a2a521c2af7980f8385ee980b8a430c8d1da000000000000000000000000000000000000000000000000000000000000002000000000000000000000000000000000000000000000000000000000000000600000000000000000000000000000000000000000000000000000000000000000000000000000000000000000000000000000000000000000000000000000000330644e72e131a029b85045b68181585d2833e84879b9709143e1f593f00000001ca03b46434c4d2cede0b39bfb61e10f2a729758615728e24f87b2bd7297cf6a7cc6a02d82a8247303ba0f7dea75020fff83566de3611a7fe71196b6736353e79dfcd1",
                    "indexes": {
                        "data": 0,
                        "gas": 2,
                        "value": 0
                    }
                },
                {
                    "hash": "12e9ffd108b3f48b192eb0a59fd25eec17618a3b76152247f2b73f52a6b88c69",
                    "logs": "1dcc4de8dec75d7aab85b567b6ccd41ad312451b948a7413f0a142fd40d49347",
                    "txbytes": "0xf901054c0a83030d4094c305c901078781c232a2a521c2af7980f8385ee980b8a430c8d1da000000000000000000000000000000000000000000000000000000000000002000000000000000000000000000000000000000000000000000000000000000600000000000000000000000000000000000000000000000000000000000000000000000000000000000000000000000000000000000000000000000000000000330644e72e131a029b85045b68181585d2833e84879b9709143e1f593f00000001ba07f195c990e81f67589150be48083023afd1c05f0d826ba4ab6a612bc5091a234a03c415d7c80e5ee8711bd10c4004cd68d639668864b2ab1eaf0d2216534626e84",
                    "indexes": {
                        "data": 0,
                        "gas": 3,
                        "value": 0
                    }
                }
            ],
            "ETC_Phoenix": [
                {
                    "hash": "ae1496c245f23f1a6279fc5b0f8ce4844459f87413c99a5465e4dc7732b9b839",
                    "logs": "1dcc4de8dec75d7aab85b567b6ccd41ad312451b948a7413f0a142fd40d49347",
                    "txbytes": "0xf901044c0a82afa094c305c901078781c232a2a521c2af7980f8385ee980b8a430c8d1da000000000000000000000000000000000000000000000000000000000000002000000000000000000000000000000000000000000000000000000000000000600000000000000000000000000000000000000000000000000000000000000000000000000000000000000000000000000000000000000000000000000000000330644e72e131a029b85045b68181585d2833e84879b9709143e1f593f00000001ca036dd12c0eba9171238febece35ec98f4a0e4482aa52f89b121d9ea32492ef8b4a00cb4ddcf9a8c99ec461a32929b0a48837525c588f39bbf663d349da4d3c92028",
                    "indexes": {
                        "data": 0,
                        "gas": 0,
                        "value": 0
                    }
                },
                {
                    "hash": "a7634229f08ecc51953a3080d84e6f332a76f3212eba2b8cf6587aa88f6d80f8",
                    "logs": "1dcc4de8dec75d7aab85b567b6ccd41ad312451b948a7413f0a142fd40d49347",
                    "txbytes": "0xf901054c0a83015f9094c305c901078781c232a2a521c2af7980f8385ee980b8a430c8d1da000000000000000000000000000000000000000000000000000000000000002000000000000000000000000000000000000000000000000000000000000000600000000000000000000000000000000000000000000000000000000000000000000000000000000000000000000000000000000000000000000000000000000330644e72e131a029b85045b68181585d2833e84879b9709143e1f593f00000001ca0deae2326ff15237b3080b94195a5e9e7d72f9025d41ddd9aa66a414c8a8ce266a069fe9a9ce74b3e5facceadc90735fd5c2a5687c07f0a5424aa4e870ebba4b204",
                    "indexes": {
                        "data": 0,
                        "gas": 1,
                        "value": 0
                    }
                },
                {
                    "hash": "3e9fc60047eeeb4ad42f05a6b7cbc91828b7b3b09dd3d40599de0054149d10c0",
                    "logs": "1dcc4de8dec75d7aab85b567b6ccd41ad312451b948a7413f0a142fd40d49347",
                    "txbytes": "0xf901054c0a8301adb094c305c901078781c232a2a521c2af7980f8385ee980b8a430c8d1da000000000000000000000000000000000000000000000000000000000000002000000000000000000000000000000000000000000000000000000000000000600000000000000000000000000000000000000000000000000000000000000000000000000000000000000000000000000000000000000000000000000000000330644e72e131a029b85045b68181585d2833e84879b9709143e1f593f00000001ca03b46434c4d2cede0b39bfb61e10f2a729758615728e24f87b2bd7297cf6a7cc6a02d82a8247303ba0f7dea75020fff83566de3611a7fe71196b6736353e79dfcd1",
                    "indexes": {
                        "data": 0,
                        "gas": 2,
                        "value": 0
                    }
                },
                {
                    "hash": "12e9ffd108b3f48b192eb0a59fd25eec17618a3b76152247f2b73f52a6b88c69",
                    "logs": "1dcc4de8dec75d7aab85b567b6ccd41ad312451b948a7413f0a142fd40d49347",
                    "txbytes": "0xf901054c0a83030d4094c305c901078781c232a2a521c2af7980f8385ee980b8a430c8d1da000000000000000000000000000000000000000000000000000000000000002000000000000000000000000000000000000000000000000000000000000000600000000000000000000000000000000000000000000000000000000000000000000000000000000000000000000000000000000000000000000000000000000330644e72e131a029b85045b68181585d2833e84879b9709143e1f593f00000001ba07f195c990e81f67589150be48083023afd1c05f0d826ba4ab6a612bc5091a234a03c415d7c80e5ee8711bd10c4004cd68d639668864b2ab1eaf0d2216534626e84",
                    "indexes": {
                        "data": 0,
                        "gas": 3,
                        "value": 0
                    }
                }
            ]
        }
    }
}