{
    "ecmul_0-0_2_28000_128": {
        "_info": {
            "comment": "Puts the point (0, 0) and the factor 2 into the ECMUL precompile, truncating or expanding the input data to 128 bytes. Gives the execution 28000 bytes",
            "filling-rpc-server": "evm version 1.10.16-unstable-0f893109-20220105",
            "filling-tool-version": "retesteth-0.2.2-testinfo+commit.01c6aac2.Linux.g++",
            "filledWith": "CoreGeth-1.12.9-unstable-f4059ddd82d975bdc54fa648e5422a80172161cb",
            "lllcversion": "Version: 0.5.14-develop.2021.11.27+commit.401d5358.Linux.g++",
            "source": "src/GeneralStateTestsFiller/stZeroKnowledge2/ecmul_0-0_2_28000_128Filler.json",
            "sourceHash": "d4aeb31574e13a4775f8768d7bd94f333fdbec30c6e95138246464d7978a5df6"
        },
        "env": {
            "currentCoinbase": "3535353535353535353535353535353535353535",
            "currentDifficulty": "0x20000",
            "currentRandom": null,
            "currentGasLimit": "0x5f5e100",
            "currentNumber": "0x1",
            "currentTimestamp": "0x3e8",
            "currentBaseFee": "0xa"
        },
        "pre": {
            "0x0000000000000000000000000000000000000000": {
                "balance": "0x1"
            },
            "0x0000000000000000000000000000000000000001": {
                "balance": "0x1"
            },
            "0x0000000000000000000000000000000000000002": {
                "balance": "0x1"
            },
            "0x0000000000000000000000000000000000000003": {
                "balance": "0x1"
            },
            "0x0000000000000000000000000000000000000004": {
                "balance": "0x1"
            },
            "0x0000000000000000000000000000000000000005": {
                "balance": "0x1"
            },
            "0x0000000000000000000000000000000000000006": {
                "balance": "0x1"
            },
            "0x0000000000000000000000000000000000000007": {
                "balance": "0x1"
            },
            "0x10a1c1cb95c92ec31d3f22c66eef1d9f3f258c6b": {
                "balance": "0xde0b6b3a7640000"
            },
            "0x13cbb8d99c6c4e0f2728c7d72606e78a29c4e224": {
                "balance": "0xde0b6b3a7640000"
            },
            "0x24143873e0e0815fdcbcffdbe09c979cbf9ad013": {
                "balance": "0xde0b6b3a7640000"
            },
            "0x3535353535353535353535353535353535353535": {
                "balance": "0x57ae10"
            },
            "0x598443f1880ef585b21f1d7585bd0577402861e5": {
                "balance": "0xde0b6b3a7640000"
            },
            "0x77db2bebba79db42a978f896968f4afce746ea1f": {
                "balance": "0xde0b6b3a7640000"
            },
            "0x7d577a597b2742b498cb5cf0c26cdcd726d39e6e": {
                "balance": "0xde0b6b3a7640000"
            },
            "0x82a978b3f5962a5b0957d9ee9eef472ee55b42f1": {
                "balance": "0xde0b6b3a70c51f0",
                "nonce": "0x83"
            },
            "0x90f0b1ebbba1c1936aff7aaf20a7878ff9e04b6c": {
                "balance": "0xde0b6b3a7640000"
            },
            "0xc305c901078781c232a2a521c2af7980f8385ee9": {
                "code": "0x600035601c52740100000000000000000000000000000000000000006020526fffffffffffffffffffffffffffffffff6040527fffffffffffffffffffffffffffffffff000000000000000000000000000000016060527402540be3fffffffffffffffffffffffffdabf41c006080527ffffffffffffffffffffffffdabf41c00000000000000000000000002540be40060a0526330c8d1da600051141561012b5760c06004356004013511151558576004356004013560200160043560040161014037604061026061014051610160600060076305f5e0fff11558576040610240526102406060806102c0828460006004601bf15050506102c08051602082012090506000556102c060206020820352604081510160206001820306601f820103905060208203f350005b",
                "storage": {
                    "0x0000000000000000000000000000000000000000000000000000000000000000": "0xad3228b676f7d3cd4284a5443f17f1962b36e491b30a40b2405849e597ba5fb5"
                },
                "balance": "0x0",
                "nonce": "0x1"
            },
            "0xdceceaf3fc5c0a63d195d69b1a90011b7b19650d": {
                "balance": "0xde0b6b3a7640000"
            },
            "0xe0fc04fa2d34a66b779fd5cee748268032a146c0": {
                "balance": "0xde0b6b3a7640000"
            }
        },
        "transaction": {
            "gasPrice": "0xa",
            "maxFeePerGas": null,
            "maxPriorityFeePerGas": null,
            "nonce": "0x83",
            "to": "0xc305c901078781c232a2a521c2af7980f8385ee9",
            "data": [
                "0x30c8d1da000000000000000000000000000000000000000000000000000000000000002000000000000000000000000000000000000000000000000000000000000000800000000000000000000000000000000000000000000000000000000000000000000000000000000000000000000000000000000000000000000000000000000000000000000000000000000000000000000000000000000000000000000000020000000000000000000000000000000000000000000000000000000000000000"
            ],
            "gasLimit": [
                "0xc438",
                "0x15f90",
                "0x1adb0",
                "0x30d40"
            ],
            "value": [
                "0x00"
            ],
            "secretKey": "0x044852b2a670ade5407e78fb2863c51de9fcb96542a07186fe3aeda6bb8a116d"
        },
        "out": "0x",
        "post": {
            "ETC_Magneto": [
                {
                    "hash": "68b1505a6413d24db6e729df0cf258b1dced6679a4185b1afedf3ddb153fc488",
                    "logs": "1dcc4de8dec75d7aab85b567b6ccd41ad312451b948a7413f0a142fd40d49347",
                    "txbytes": "0xf9012581830a82c43894c305c901078781c232a2a521c2af7980f8385ee980b8c430c8d1da0000000000000000000000000000000000000000000000000000000000000020000000000000000000000000000000000000000000000000000000000000008000000000000000000000000000000000000000000000000000000000000000000000000000000000000000000000000000000000000000000000000000000000000000000000000000000000000000000000000000000000000000000000000200000000000000000000000000000000000000000000000000000000000000001ca005335d691503d2fa779814c2267201dfa946d6a8b0b477c3d04a61d9b72c12c9a048488ce40119dcaf327fc7159ac7a295c9d18885a63143fe8efe25d08bb05092",
                    "indexes": {
                        "data": 0,
                        "gas": 0,
                        "value": 0
                    }
                },
                {
                    "hash": "68b1505a6413d24db6e729df0cf258b1dced6679a4185b1afedf3ddb153fc488",
                    "logs": "1dcc4de8dec75d7aab85b567b6ccd41ad312451b948a7413f0a142fd40d49347",
                    "txbytes": "0xf9012681830a83015f9094c305c901078781c232a2a521c2af7980f8385ee980b8c430c8d1da0000000000000000000000000000000000000000000000000000000000000020000000000000000000000000000000000000000000000000000000000000008000000000000000000000000000000000000000000000000000000000000000000000000000000000000000000000000000000000000000000000000000000000000000000000000000000000000000000000000000000000000000000000000200000000000000000000000000000000000000000000000000000000000000001ba00b9d804d2860d4190f99ca496ec23e5ada7d618f9a6ee8b66869b3cc4363bf07a034b23caa409f53565e47b68839fbc4690aeba389c4ae423189ff4e6f8133780c",
                    "indexes": {
                        "data": 0,
                        "gas": 1,
                        "value": 0
                    }
                },
                {
                    "hash": "68b1505a6413d24db6e729df0cf258b1dced6679a4185b1afedf3ddb153fc488",
                    "logs": "1dcc4de8dec75d7aab85b567b6ccd41ad312451b948a7413f0a142fd40d49347",
                    "txbytes": "0xf9012681830a8301adb094c305c901078781c232a2a521c2af7980f8385ee980b8c430c8d1da0000000000000000000000000000000000000000000000000000000000000020000000000000000000000000000000000000000000000000000000000000008000000000000000000000000000000000000000000000000000000000000000000000000000000000000000000000000000000000000000000000000000000000000000000000000000000000000000000000000000000000000000000000000200000000000000000000000000000000000000000000000000000000000000001ca0982d59e6214dbeb1b0beb33ab8565f41ae35edacc4f4b88dbc8b1e058ea46e28a0436cef4a6a54e90df9163e51cbf2eb45dea14eea32436bd7489ad46a28f16061",
                    "indexes": {
                        "data": 0,
                        "gas": 2,
                        "value": 0
                    }
                },
                {
                    "hash": "68b1505a6413d24db6e729df0cf258b1dced6679a4185b1afedf3ddb153fc488",
                    "logs": "1dcc4de8dec75d7aab85b567b6ccd41ad312451b948a7413f0a142fd40d49347",
                    "txbytes": "0xf9012681830a83030d4094c305c901078781c232a2a521c2af7980f8385ee980b8c430c8d1da0000000000000000000000000000000000000000000000000000000000000020000000000000000000000000000000000000000000000000000000000000008000000000000000000000000000000000000000000000000000000000000000000000000000000000000000000000000000000000000000000000000000000000000000000000000000000000000000000000000000000000000000000000000200000000000000000000000000000000000000000000000000000000000000001ca03a1496a2bd8ac2238457353031594fcf0e25f0265f22d0521d8088834d088741a05d8b5f3f205d51dda4cae79ad80eeabf88b80d076d53b267c1e6383e4efac822",
                    "indexes": {
                        "data": 0,
                        "gas": 3,
                        "value": 0
                    }
                }
            ],
            "ETC_Mystique": [
                {
                    "hash": "68b1505a6413d24db6e729df0cf258b1dced6679a4185b1afedf3ddb153fc488",
                    "logs": "1dcc4de8dec75d7aab85b567b6ccd41ad312451b948a7413f0a142fd40d49347",
                    "txbytes": "0xf9012581830a82c43894c305c901078781c232a2a521c2af7980f8385ee980b8c430c8d1da0000000000000000000000000000000000000000000000000000000000000020000000000000000000000000000000000000000000000000000000000000008000000000000000000000000000000000000000000000000000000000000000000000000000000000000000000000000000000000000000000000000000000000000000000000000000000000000000000000000000000000000000000000000200000000000000000000000000000000000000000000000000000000000000001ca005335d691503d2fa779814c2267201dfa946d6a8b0b477c3d04a61d9b72c12c9a048488ce40119dcaf327fc7159ac7a295c9d18885a63143fe8efe25d08bb05092",
                    "indexes": {
                        "data": 0,
                        "gas": 0,
                        "value": 0
                    }
                },
                {
                    "hash": "68b1505a6413d24db6e729df0cf258b1dced6679a4185b1afedf3ddb153fc488",
                    "logs": "1dcc4de8dec75d7aab85b567b6ccd41ad312451b948a7413f0a142fd40d49347",
                    "txbytes": "0xf9012681830a83015f9094c305c901078781c232a2a521c2af7980f8385ee980b8c430c8d1da0000000000000000000000000000000000000000000000000000000000000020000000000000000000000000000000000000000000000000000000000000008000000000000000000000000000000000000000000000000000000000000000000000000000000000000000000000000000000000000000000000000000000000000000000000000000000000000000000000000000000000000000000000000200000000000000000000000000000000000000000000000000000000000000001ba00b9d804d2860d4190f99ca496ec23e5ada7d618f9a6ee8b66869b3cc4363bf07a034b23caa409f53565e47b68839fbc4690aeba389c4ae423189ff4e6f8133780c",
                    "indexes": {
                        "data": 0,
                        "gas": 1,
                        "value": 0
                    }
                },
                {
                    "hash": "68b1505a6413d24db6e729df0cf258b1dced6679a4185b1afedf3ddb153fc488",
                    "logs": "1dcc4de8dec75d7aab85b567b6ccd41ad312451b948a7413f0a142fd40d49347",
                    "txbytes": "0xf9012681830a8301adb094c305c901078781c232a2a521c2af7980f8385ee980b8c430c8d1da0000000000000000000000000000000000000000000000000000000000000020000000000000000000000000000000000000000000000000000000000000008000000000000000000000000000000000000000000000000000000000000000000000000000000000000000000000000000000000000000000000000000000000000000000000000000000000000000000000000000000000000000000000000200000000000000000000000000000000000000000000000000000000000000001ca0982d59e6214dbeb1b0beb33ab8565f41ae35edacc4f4b88dbc8b1e058ea46e28a0436cef4a6a54e90df9163e51cbf2eb45dea14eea32436bd7489ad46a28f16061",
                    "indexes": {
                        "data": 0,
                        "gas": 2,
                        "value": 0
                    }
                },
                {
                    "hash": "68b1505a6413d24db6e729df0cf258b1dced6679a4185b1afedf3ddb153fc488",
                    "logs": "1dcc4de8dec75d7aab85b567b6ccd41ad312451b948a7413f0a142fd40d49347",
                    "txbytes": "0xf9012681830a83030d4094c305c901078781c232a2a521c2af7980f8385ee980b8c430c8d1da0000000000000000000000000000000000000000000000000000000000000020000000000000000000000000000000000000000000000000000000000000008000000000000000000000000000000000000000000000000000000000000000000000000000000000000000000000000000000000000000000000000000000000000000000000000000000000000000000000000000000000000000000000000200000000000000000000000000000000000000000000000000000000000000001ca03a1496a2bd8ac2238457353031594fcf0e25f0265f22d0521d8088834d088741a05d8b5f3f205d51dda4cae79ad80eeabf88b80d076d53b267c1e6383e4efac822",
                    "indexes": {
                        "data": 0,
                        "gas": 3,
                        "value": 0
                    }
                }
            ],
            "ETC_Phoenix": [
                {
                    "hash": "6f152c2ad91c21a0f3e672bf33805ed4e5b8753ef82ebcb1735c182367f59d9f",
                    "logs": "1dcc4de8dec75d7aab85b567b6ccd41ad312451b948a7413f0a142fd40d49347",
                    "txbytes": "0xf9012581830a82c43894c305c901078781c232a2a521c2af7980f8385ee980b8c430c8d1da0000000000000000000000000000000000000000000000000000000000000020000000000000000000000000000000000000000000000000000000000000008000000000000000000000000000000000000000000000000000000000000000000000000000000000000000000000000000000000000000000000000000000000000000000000000000000000000000000000000000000000000000000000000200000000000000000000000000000000000000000000000000000000000000001ca005335d691503d2fa779814c2267201dfa946d6a8b0b477c3d04a61d9b72c12c9a048488ce40119dcaf327fc7159ac7a295c9d18885a63143fe8efe25d08bb05092",
                    "indexes": {
                        "data": 0,
                        "gas": 0,
                        "value": 0
                    }
                },
                {
                    "hash": "6f152c2ad91c21a0f3e672bf33805ed4e5b8753ef82ebcb1735c182367f59d9f",
                    "logs": "1dcc4de8dec75d7aab85b567b6ccd41ad312451b948a7413f0a142fd40d49347",
                    "txbytes": "0xf9012681830a83015f9094c305c901078781c232a2a521c2af7980f8385ee980b8c430c8d1da0000000000000000000000000000000000000000000000000000000000000020000000000000000000000000000000000000000000000000000000000000008000000000000000000000000000000000000000000000000000000000000000000000000000000000000000000000000000000000000000000000000000000000000000000000000000000000000000000000000000000000000000000000000200000000000000000000000000000000000000000000000000000000000000001ba00b9d804d2860d4190f99ca496ec23e5ada7d618f9a6ee8b66869b3cc4363bf07a034b23caa409f53565e47b68839fbc4690aeba389c4ae423189ff4e6f8133780c",
                    "indexes": {
                        "data": 0,
                        "gas": 1,
                        "value": 0
                    }
                },
                {
                    "hash": "6f152c2ad91c21a0f3e672bf33805ed4e5b8753ef82ebcb1735c182367f59d9f",
                    "logs": "1dcc4de8dec75d7aab85b567b6ccd41ad312451b948a7413f0a142fd40d49347",
                    "txbytes": "0xf9012681830a8301adb094c305c901078781c232a2a521c2af7980f8385ee980b8c430c8d1da0000000000000000000000000000000000000000000000000000000000000020000000000000000000000000000000000000000000000000000000000000008000000000000000000000000000000000000000000000000000000000000000000000000000000000000000000000000000000000000000000000000000000000000000000000000000000000000000000000000000000000000000000000000200000000000000000000000000000000000000000000000000000000000000001ca0982d59e6214dbeb1b0beb33ab8565f41ae35edacc4f4b88dbc8b1e058ea46e28a0436cef4a6a54e90df9163e51cbf2eb45dea14eea32436bd7489ad46a28f16061",
                    "indexes": {
                        "data": 0,
                        "gas": 2,
                        "value": 0
                    }
                },
                {
                    "hash": "6f152c2ad91c21a0f3e672bf33805ed4e5b8753ef82ebcb1735c182367f59d9f",
                    "logs": "1dcc4de8dec75d7aab85b567b6ccd41ad312451b948a7413f0a142fd40d49347",
                    "txbytes": "0xf9012681830a83030d4094c305c901078781c232a2a521c2af7980f8385ee980b8c430c8d1da0000000000000000000000000000000000000000000000000000000000000020000000000000000000000000000000000000000000000000000000000000008000000000000000000000000000000000000000000000000000000000000000000000000000000000000000000000000000000000000000000000000000000000000000000000000000000000000000000000000000000000000000000000000200000000000000000000000000000000000000000000000000000000000000001ca03a1496a2bd8ac2238457353031594fcf0e25f0265f22d0521d8088834d088741a05d8b5f3f205d51dda4cae79ad80eeabf88b80d076d53b267c1e6383e4efac822",
                    "indexes": {
                        "data": 0,
                        "gas": 3,
                        "value": 0
                    }
                }
            ]
        }
    }
}