{
    "ecmul_1-2_0_21000_64": {
        "_info": {
            "comment": "Puts the point (1, 2) and the factor 0 into the ECMUL precompile, truncating or expanding the input data to 64 bytes. Gives the execution 21000 bytes",
            "filling-rpc-server": "evm version 1.10.16-unstable-0f893109-20220105",
            "filling-tool-version": "retesteth-0.2.2-testinfo+commit.01c6aac2.Linux.g++",
            "filledWith": "CoreGeth-1.12.9-unstable-4cf5b2b0837228e7d5eadba6a01ffb80e9288e21",
            "lllcversion": "Version: 0.5.14-develop.2021.11.27+commit.401d5358.Linux.g++",
            "source": "src/GeneralStateTestsFiller/stZeroKnowledge2/ecmul_1-2_0_21000_64Filler.json",
            "sourceHash": "adef7557935d1396845d56630ba485b970af598a44946cfee1df7fac1314ba6b"
        },
        "env": {
            "currentCoinbase": "0x3535353535353535353535353535353535353535",
            "currentDifficulty": "0x20000",
            "currentGasLimit": "0x5f5e100",
            "currentNumber": "0x1",
            "currentTimestamp": "0x3e8",
            "previousHash": "0xc6745cf3cada515bbfb9573261c82547e0b8f9e3d5dd382e464704a84e47b5ad"
        },
        "pre": {
            "0x0000000000000000000000000000000000000000": {
                "code": "0x",
                "balance": "0x1",
                "nonce": "0x0"
            },
            "0x0000000000000000000000000000000000000001": {
                "code": "0x",
                "balance": "0x1",
                "nonce": "0x0"
            },
            "0x0000000000000000000000000000000000000002": {
                "code": "0x",
                "balance": "0x1",
                "nonce": "0x0"
            },
            "0x0000000000000000000000000000000000000003": {
                "code": "0x",
                "balance": "0x1",
                "nonce": "0x0"
            },
            "0x0000000000000000000000000000000000000004": {
                "code": "0x",
                "balance": "0x1",
                "nonce": "0x0"
            },
            "0x0000000000000000000000000000000000000005": {
                "code": "0x",
                "balance": "0x1",
                "nonce": "0x0"
            },
            "0x0000000000000000000000000000000000000006": {
                "code": "0x",
                "balance": "0x1",
                "nonce": "0x0"
            },
            "0x0000000000000000000000000000000000000007": {
                "code": "0x",
                "balance": "0x1",
                "nonce": "0x0"
            },
            "0x10a1c1cb95c92ec31d3f22c66eef1d9f3f258c6b": {
                "code": "0x",
                "balance": "0xde0b6b3a7640000",
                "nonce": "0x0"
            },
            "0x13cbb8d99c6c4e0f2728c7d72606e78a29c4e224": {
                "code": "0x",
                "balance": "0xde0b6b3a7640000",
                "nonce": "0x0"
            },
            "0x24143873e0e0815fdcbcffdbe09c979cbf9ad013": {
                "code": "0x",
                "balance": "0xde0b6b3a7640000",
                "nonce": "0x0"
            },
            "0x3535353535353535353535353535353535353535": {
                "code": "0x",
                "balance": "0x7422e",
                "nonce": "0x0"
            },
            "0x598443f1880ef585b21f1d7585bd0577402861e5": {
                "code": "0x",
                "balance": "0xde0b6b3a7640000",
                "nonce": "0x0"
            },
            "0x77db2bebba79db42a978f896968f4afce746ea1f": {
                "code": "0x",
                "balance": "0xde0b6b3a7640000",
                "nonce": "0x0"
            },
            "0x7d577a597b2742b498cb5cf0c26cdcd726d39e6e": {
                "code": "0x",
                "balance": "0xde0b6b3a7640000",
                "nonce": "0x0"
            },
            "0x82a978b3f5962a5b0957d9ee9eef472ee55b42f1": {
                "code": "0x",
                "balance": "0xde0b6b3a75cbdd2",
                "nonce": "0x9"
            },
            "0x90f0b1ebbba1c1936aff7aaf20a7878ff9e04b6c": {
                "code": "0x",
                "balance": "0xde0b6b3a7640000",
                "nonce": "0x0"
            },
            "0xc305c901078781c232a2a521c2af7980f8385ee9": {
                "code": "0x600035601c52740100000000000000000000000000000000000000006020526fffffffffffffffffffffffffffffffff6040527fffffffffffffffffffffffffffffffff000000000000000000000000000000016060527402540be3fffffffffffffffffffffffffdabf41c006080527ffffffffffffffffffffffffdabf41c00000000000000000000000002540be40060a0526330c8d1da600051141561012b5760c06004356004013511151558576004356004013560200160043560040161014037604061026061014051610160600060076305f5e0fff11558576040610240526102406060806102c0828460006004601bf15050506102c08051602082012090506000556102c060206020820352604081510160206001820306601f820103905060208203f350005b",
                "balance": "0x0",
                "nonce": "0x1"
            },
            "0xdceceaf3fc5c0a63d195d69b1a90011b7b19650d": {
                "code": "0x",
                "balance": "0xde0b6b3a7640000",
                "nonce": "0x0"
            },
            "0xe0fc04fa2d34a66b779fd5cee748268032a146c0": {
                "code": "0x",
                "balance": "0xde0b6b3a7640000",
                "nonce": "0x0"
            }
        },
        "transaction": {
            "gasPrice": "0xa",
            "nonce": "0x9",
            "to": "0xc305c901078781c232a2a521c2af7980f8385ee9",
            "data": [
                "0x30c8d1da0000000000000000000000000000000000000000000000000000000000000020000000000000000000000000000000000000000000000000000000000000004000000000000000000000000000000000000000000000000000000000000000010000000000000000000000000000000000000000000000000000000000000002"
            ],
            "gasLimit": [
                "0xa820",
                "0x15f90",
                "0x1adb0",
                "0x30d40"
            ],
            "value": [
                "0x00"
            ],
            "secretKey": "0x044852b2a670ade5407e78fb2863c51de9fcb96542a07186fe3aeda6bb8a116d",
            "sender": "0x82a978b3f5962a5b0957d9ee9eef472ee55b42f1"
        },
        "post": {
            "ETC_Magneto": [
                {
                    "hash": "e39151ad5e2973b8c47504c29a3a7121351d4da8c3c849cb7d5a6ee5bd6a119d",
                    "logs": "1dcc4de8dec75d7aab85b567b6ccd41ad312451b948a7413f0a142fd40d49347",
                    "txbytes": "0xf8e4090a82a82094c305c901078781c232a2a521c2af7980f8385ee980b88430c8d1da00000000000000000000000000000000000000000000000000000000000000200000000000000000000000000000000000000000000000000000000000000040000000000000000000000000000000000000000000000000000000000000000100000000000000000000000000000000000000000000000000000000000000021ba0088b39708f4f07a688012770bc88201ad605ae67b00adf97043b0cc223d53c79a03375c5b1f63eeb2c54ca956b778086e7d3bfab7fc62ffdd0dafb5c3ec70455ec",
                    "indexes": {
                        "data": 0,
                        "gas": 0,
                        "value": 0
                    }
                },
                {
                    "hash": "be24d0236b4ee8a14fb98a845c65577047c4d4d66991d25aa06f65ce63039d46",
                    "logs": "1dcc4de8dec75d7aab85b567b6ccd41ad312451b948a7413f0a142fd40d49347",
                    "txbytes": "0xf8e5090a83015f9094c305c901078781c232a2a521c2af7980f8385ee980b88430c8d1da00000000000000000000000000000000000000000000000000000000000000200000000000000000000000000000000000000000000000000000000000000040000000000000000000000000000000000000000000000000000000000000000100000000000000000000000000000000000000000000000000000000000000021ba0a0931c59052002e01ab732b96e08e6f407c0812dfb9f30e685124bc456104d0aa004d0ff09530c2fcedcb49dd8509e0bba00b2a9ce01bff1c0b54fd15a510185d8",
                    "indexes": {
                        "data": 0,
                        "gas": 1,
                        "value": 0
                    }
                },
                {
                    "hash": "be24d0236b4ee8a14fb98a845c65577047c4d4d66991d25aa06f65ce63039d46",
                    "logs": "1dcc4de8dec75d7aab85b567b6ccd41ad312451b948a7413f0a142fd40d49347",
                    "txbytes": "0xf8e5090a8301adb094c305c901078781c232a2a521c2af7980f8385ee980b88430c8d1da00000000000000000000000000000000000000000000000000000000000000200000000000000000000000000000000000000000000000000000000000000040000000000000000000000000000000000000000000000000000000000000000100000000000000000000000000000000000000000000000000000000000000021ba05c7580679d574fec17a97c4a27b9cf388195775a5419417b54b60399c67e5485a0645d3c5c368b5077f2d2193f09f45e8e371488fa199b52a79f69f426f2f40280",
                    "indexes": {
                        "data": 0,
                        "gas": 2,
                        "value": 0
                    }
                },
                {
                    "hash": "be24d0236b4ee8a14fb98a845c65577047c4d4d66991d25aa06f65ce63039d46",
                    "logs": "1dcc4de8dec75d7aab85b567b6ccd41ad312451b948a7413f0a142fd40d49347",
                    "txbytes": "0xf8e5090a83030d4094c305c901078781c232a2a521c2af7980f8385ee980b88430c8d1da00000000000000000000000000000000000000000000000000000000000000200000000000000000000000000000000000000000000000000000000000000040000000000000000000000000000000000000000000000000000000000000000100000000000000000000000000000000000000000000000000000000000000021ca0f0d5d1a182114d923d6e10143e7a3ed24e7186b911d62ae8a2889bc135e5cd0fa05f77dcaa7cae561590fd602f5930dc495670c07c954643ba7ea6c5435964a26c",
                    "indexes": {
                        "data": 0,
                        "gas": 3,
                        "value": 0
                    }
                }
            ],
            "ETC_Mystique": [
                {
                    "hash": "e39151ad5e2973b8c47504c29a3a7121351d4da8c3c849cb7d5a6ee5bd6a119d",
                    "logs": "1dcc4de8dec75d7aab85b567b6ccd41ad312451b948a7413f0a142fd40d49347",
                    "txbytes": "0xf8e4090a82a82094c305c901078781c232a2a521c2af7980f8385ee980b88430c8d1da00000000000000000000000000000000000000000000000000000000000000200000000000000000000000000000000000000000000000000000000000000040000000000000000000000000000000000000000000000000000000000000000100000000000000000000000000000000000000000000000000000000000000021ba0088b39708f4f07a688012770bc88201ad605ae67b00adf97043b0cc223d53c79a03375c5b1f63eeb2c54ca956b778086e7d3bfab7fc62ffdd0dafb5c3ec70455ec",
                    "indexes": {
                        "data": 0,
                        "gas": 0,
                        "value": 0
                    }
                },
                {
                    "hash": "be24d0236b4ee8a14fb98a845c65577047c4d4d66991d25aa06f65ce63039d46",
                    "logs": "1dcc4de8dec75d7aab85b567b6ccd41ad312451b948a7413f0a142fd40d49347",
                    "txbytes": "0xf8e5090a83015f9094c305c901078781c232a2a521c2af7980f8385ee980b88430c8d1da00000000000000000000000000000000000000000000000000000000000000200000000000000000000000000000000000000000000000000000000000000040000000000000000000000000000000000000000000000000000000000000000100000000000000000000000000000000000000000000000000000000000000021ba0a0931c59052002e01ab732b96e08e6f407c0812dfb9f30e685124bc456104d0aa004d0ff09530c2fcedcb49dd8509e0bba00b2a9ce01bff1c0b54fd15a510185d8",
                    "indexes": {
                        "data": 0,
                        "gas": 1,
                        "value": 0
                    }
                },
                {
                    "hash": "be24d0236b4ee8a14fb98a845c65577047c4d4d66991d25aa06f65ce63039d46",
                    "logs": "1dcc4de8dec75d7aab85b567b6ccd41ad312451b948a7413f0a142fd40d49347",
                    "txbytes": "0xf8e5090a8301adb094c305c901078781c232a2a521c2af7980f8385ee980b88430c8d1da00000000000000000000000000000000000000000000000000000000000000200000000000000000000000000000000000000000000000000000000000000040000000000000000000000000000000000000000000000000000000000000000100000000000000000000000000000000000000000000000000000000000000021ba05c7580679d574fec17a97c4a27b9cf388195775a5419417b54b60399c67e5485a0645d3c5c368b5077f2d2193f09f45e8e371488fa199b52a79f69f426f2f40280",
                    "indexes": {
                        "data": 0,
                        "gas": 2,
                        "value": 0
                    }
                },
                {
                    "hash": "be24d0236b4ee8a14fb98a845c65577047c4d4d66991d25aa06f65ce63039d46",
                    "logs": "1dcc4de8dec75d7aab85b567b6ccd41ad312451b948a7413f0a142fd40d49347",
                    "txbytes": "0xf8e5090a83030d4094c305c901078781c232a2a521c2af7980f8385ee980b88430c8d1da00000000000000000000000000000000000000000000000000000000000000200000000000000000000000000000000000000000000000000000000000000040000000000000000000000000000000000000000000000000000000000000000100000000000000000000000000000000000000000000000000000000000000021ca0f0d5d1a182114d923d6e10143e7a3ed24e7186b911d62ae8a2889bc135e5cd0fa05f77dcaa7cae561590fd602f5930dc495670c07c954643ba7ea6c5435964a26c",
                    "indexes": {
                        "data": 0,
                        "gas": 3,
                        "value": 0
                    }
                }
            ],
            "ETC_Phoenix": [
                {
                    "hash": "e39151ad5e2973b8c47504c29a3a7121351d4da8c3c849cb7d5a6ee5bd6a119d",
                    "logs": "1dcc4de8dec75d7aab85b567b6ccd41ad312451b948a7413f0a142fd40d49347",
                    "txbytes": "0xf8e4090a82a82094c305c901078781c232a2a521c2af7980f8385ee980b88430c8d1da00000000000000000000000000000000000000000000000000000000000000200000000000000000000000000000000000000000000000000000000000000040000000000000000000000000000000000000000000000000000000000000000100000000000000000000000000000000000000000000000000000000000000021ba0088b39708f4f07a688012770bc88201ad605ae67b00adf97043b0cc223d53c79a03375c5b1f63eeb2c54ca956b778086e7d3bfab7fc62ffdd0dafb5c3ec70455ec",
                    "indexes": {
                        "data": 0,
                        "gas": 0,
                        "value": 0
                    }
                },
                {
                    "hash": "8e84af3c897825984b8e2b64999076114a42471755e5fefa8cd225e8b1e237a9",
                    "logs": "1dcc4de8dec75d7aab85b567b6ccd41ad312451b948a7413f0a142fd40d49347",
                    "txbytes": "0xf8e5090a83015f9094c305c901078781c232a2a521c2af7980f8385ee980b88430c8d1da00000000000000000000000000000000000000000000000000000000000000200000000000000000000000000000000000000000000000000000000000000040000000000000000000000000000000000000000000000000000000000000000100000000000000000000000000000000000000000000000000000000000000021ba0a0931c59052002e01ab732b96e08e6f407c0812dfb9f30e685124bc456104d0aa004d0ff09530c2fcedcb49dd8509e0bba00b2a9ce01bff1c0b54fd15a510185d8",
                    "indexes": {
                        "data": 0,
                        "gas": 1,
                        "value": 0
                    }
                },
                {
                    "hash": "8e84af3c897825984b8e2b64999076114a42471755e5fefa8cd225e8b1e237a9",
                    "logs": "1dcc4de8dec75d7aab85b567b6ccd41ad312451b948a7413f0a142fd40d49347",
                    "txbytes": "0xf8e5090a8301adb094c305c901078781c232a2a521c2af7980f8385ee980b88430c8d1da00000000000000000000000000000000000000000000000000000000000000200000000000000000000000000000000000000000000000000000000000000040000000000000000000000000000000000000000000000000000000000000000100000000000000000000000000000000000000000000000000000000000000021ba05c7580679d574fec17a97c4a27b9cf388195775a5419417b54b60399c67e5485a0645d3c5c368b5077f2d2193f09f45e8e371488fa199b52a79f69f426f2f40280",
                    "indexes": {
                        "data": 0,
                        "gas": 2,
                        "value": 0
                    }
                },
                {
                    "hash": "8e84af3c897825984b8e2b64999076114a42471755e5fefa8cd225e8b1e237a9",
                    "logs": "1dcc4de8dec75d7aab85b567b6ccd41ad312451b948a7413f0a142fd40d49347",
                    "txbytes": "0xf8e5090a83030d4094c305c901078781c232a2a521c2af7980f8385ee980b88430c8d1da00000000000000000000000000000000000000000000000000000000000000200000000000000000000000000000000000000000000000000000000000000040000000000000000000000000000000000000000000000000000000000000000100000000000000000000000000000000000000000000000000000000000000021ca0f0d5d1a182114d923d6e10143e7a3ed24e7186b911d62ae8a2889bc135e5cd0fa05f77dcaa7cae561590fd602f5930dc495670c07c954643ba7ea6c5435964a26c",
                    "indexes": {
                        "data": 0,
                        "gas": 3,
                        "value": 0
                    }
                }
            ]
        }
    }
}