{
    "201503110226PYTHON_DUP6": {
        "_info": {
            "comment": "This test used to be a VM test and it once failed in python client some day.  Since the test contains a BALANCE instruction (which must be mocked), it's moved to GeneralSateTest https://github.com/ethereum/tests/pull/445/files#r179426325",
            "filling-rpc-server": "evm version 1.10.16-unstable-0f893109-20220105",
            "filling-tool-version": "retesteth-0.2.2-testinfo+commit.01c6aac2.Linux.g++",
            "filledWith": "CoreGeth-1.12.9-unstable-f4059ddd82d975bdc54fa648e5422a80172161cb",
            "lllcversion": "Version: 0.5.14-develop.2021.11.27+commit.401d5358.Linux.g++",
            "source": "src/GeneralStateTestsFiller/stRandom2/201503110226PYTHON_DUP6Filler.json",
            "sourceHash": "7c92caad665148b6deb21f50e1d974231bd9b91d6761d9c8556baa8c9efdaadb"
        },
        "env": {
            "currentCoinbase": "2adc25665018aa1fe0e6bc666dac8fc2697ff9ba",
            "currentDifficulty": "0x20000",
            "currentRandom": null,
            "currentGasLimit": "0x38d7ea4c68000",
            "currentNumber": "0x1",
            "currentTimestamp": "0x3e8",
            "currentBaseFee": "0xa"
        },
        "pre": {
            "0x0f572e5295c57f15886f9b263e2f6d2d6c7b5ec6": {
                "code": "0x45414443434042405b85",
                "balance": "0xde0b6b3a7640000"
            },
            "0xa94f5374fce5edbc8e2a8697c15331677e6ebf0b": {
                "balance": "0x1038beec8feeca2598"
            }
        },
        "transaction": {
            "gasPrice": "0x5af3107a4000",
            "maxFeePerGas": null,
            "maxPriorityFeePerGas": null,
            "nonce": "0x0",
            "to": "0x0f572e5295c57f15886f9b263e2f6d2d6c7b5ec6",
            "data": [
                "0x"
            ],
            "gasLimit": [
                "0x186a0"
            ],
            "value": [
                "0x0de0b6b3a7640000"
            ],
            "secretKey": "0x45a915e4d060149eb4365960e6a7a45f334393093061116b197e3240065ff2d8"
        },
        "out": "0x",
        "post": {
            "ETC_Magneto": [
                {
                    "hash": "0108977eb54f6d011ce8755a7080159ca76a8ea8625c875c7a4358f389a8638a",
                    "logs": "1dcc4de8dec75d7aab85b567b6ccd41ad312451b948a7413f0a142fd40d49347",
                    "txbytes": "0xf86e80865af3107a4000830186a0940f572e5295c57f15886f9b263e2f6d2d6c7b5ec6880de0b6b3a7640000801ba095e48b6cdb342026b8bf5c3fa3eacf4044e3c1f6865edc2f2fe471a4dfa00cafa07dc3ff02760c8839631cdbcb9ac82f7322a6e28f3b8ab5f5ecaaec983425cf20",
                    "indexes": {
                        "data": 0,
                        "gas": 0,
                        "value": 0
                    }
                }
            ],
            "ETC_Mystique": [
                {
                    "hash": "0108977eb54f6d011ce8755a7080159ca76a8ea8625c875c7a4358f389a8638a",
                    "logs": "1dcc4de8dec75d7aab85b567b6ccd41ad312451b948a7413f0a142fd40d49347",
                    "txbytes": "0xf86e80865af3107a4000830186a0940f572e5295c57f15886f9b263e2f6d2d6c7b5ec6880de0b6b3a7640000801ba095e48b6cdb342026b8bf5c3fa3eacf4044e3c1f6865edc2f2fe471a4dfa00cafa07dc3ff02760c8839631cdbcb9ac82f7322a6e28f3b8ab5f5ecaaec983425cf20",
                    "indexes": {
                        "data": 0,
                        "gas": 0,
                        "value": 0
                    }
                }
            ],
            "ETC_Phoenix": [
                {
                    "hash": "0108977eb54f6d011ce8755a7080159ca76a8ea8625c875c7a4358f389a8638a",
                    "logs": "1dcc4de8dec75d7aab85b567b6ccd41ad312451b948a7413f0a142fd40d49347",
                    "txbytes": "0xf86e80865af3107a4000830186a0940f572e5295c57f15886f9b263e2f6d2d6c7b5ec6880de0b6b3a7640000801ba095e48b6cdb342026b8bf5c3fa3eacf4044e3c1f6865edc2f2fe471a4dfa00cafa07dc3ff02760c8839631cdbcb9ac82f7322a6e28f3b8ab5f5ecaaec983425cf20",
                    "indexes": {
                        "data": 0,
                        "gas": 0,
                        "value": 0
                    }
                }
            ]
        }
    }
}