{
    "randomStatetest507": {
        "_info": {
            "comment": "",
            "filling-rpc-server": "evm version 1.10.16-unstable-0f893109-20220105",
            "filling-tool-version": "retesteth-0.2.2-testinfo+commit.01c6aac2.Linux.g++",
            "filledWith": "CoreGeth-1.12.9-unstable-ab16c56768f0284ab56a30aac9550d3ebdc45901",
            "lllcversion": "Version: 0.5.14-develop.2021.11.27+commit.401d5358.Linux.g++",
            "source": "src/GeneralStateTestsFiller/stRandom2/randomStatetest507Filler.json",
            "sourceHash": "82fb68c906cebf4482c9e7bfa28be8a3f7cb32dadb0f9a96ba7e28da0f4d344d"
        },
        "env": {
            "currentCoinbase": "0x945304eb96065b2a98b57a48a06ae28d285a71b5",
            "currentDifficulty": "0x20000",
            "currentGasLimit": "0x7fffffffffffffff",
            "currentNumber": "0x1",
            "currentTimestamp": "0x3e8",
            "currentBaseFee": "0xa",
            "previousHash": "0x5e20a0453cecd065ea59c37ac63e079ee08998b6045136a8ce6635c7912ec0b6"
        },
        "pre": {
            "0x095e7baea6a6c7c4c2dfeb977efac326af552d87": {
                "code": "0x5a7f0000000000000000000000010000000000000000000000000000000000000000327f00000000000000000000000000000000000000000000000000000000000000017f000000000000000000000000ffffffffffffffffffffffffffffffffffffffff7ffffffffffffffffffffffffffffffffffffffffffffffffffffffffffffffffe7f000000000000000000000000945304eb96065b2a98b57a48a06ae28d285a71b56f99a4527612a199a06d1a348b02563a9b60005155",
                "balance": "0x0"
            },
            "0x945304eb96065b2a98b57a48a06ae28d285a71b5": {
                "code": "0x6000355415600957005b60203560003555",
                "balance": "0x2e"
            },
            "0xa94f5374fce5edbc8e2a8697c15331677e6ebf0b": {
                "balance": "0xde0b6b3a7640000"
            }
        },
        "transaction": {
            "gasPrice": "0xa",
            "nonce": "0x0",
            "to": "0x095e7baea6a6c7c4c2dfeb977efac326af552d87",
            "data": [
                "0x5a7f0000000000000000000000010000000000000000000000000000000000000000327f00000000000000000000000000000000000000000000000000000000000000017f000000000000000000000000ffffffffffffffffffffffffffffffffffffffff7ffffffffffffffffffffffffffffffffffffffffffffffffffffffffffffffffe7f000000000000000000000000945304eb96065b2a98b57a48a06ae28d285a71b56f99a4527612a199a06d1a348b02563a9b"
            ],
            "gasLimit": [
                "0x6f62fdbd"
            ],
            "value": [
                "0x2987830a"
            ],
            "secretKey": "0x45a915e4d060149eb4365960e6a7a45f334393093061116b197e3240065ff2d8",
            "sender": "0xa94f5374fce5edbc8e2a8697c15331677e6ebf0b"
        },
        "post": {
            "ETC_Magneto": [
                {
                    "hash": "e0fa89789e816b032bf52f738029b56695f8d05b83fb1881f9c4617e0c7dfc63",
                    "logs": "1dcc4de8dec75d7aab85b567b6ccd41ad312451b948a7413f0a142fd40d49347",
                    "txbytes": "0xf9011e800a846f62fdbd94095e7baea6a6c7c4c2dfeb977efac326af552d87842987830ab8b85a7f0000000000000000000000010000000000000000000000000000000000000000327f00000000000000000000000000000000000000000000000000000000000000017f000000000000000000000000ffffffffffffffffffffffffffffffffffffffff7ffffffffffffffffffffffffffffffffffffffffffffffffffffffffffffffffe7f000000000000000000000000945304eb96065b2a98b57a48a06ae28d285a71b56f99a4527612a199a06d1a348b02563a9b1ba0aa6fa50b0f986e32a36b521811aea6558e3a07036a5380575986670d4f82eec6a0438804dc947374eefb86f8bece92b39b253c934fcc97d81a9552cd025b5c9e91",
                    "indexes": {
                        "data": 0,
                        "gas": 0,
                        "value": 0
                    }
                }
            ],
            "ETC_Mystique": [
                {
                    "hash": "e0fa89789e816b032bf52f738029b56695f8d05b83fb1881f9c4617e0c7dfc63",
                    "logs": "1dcc4de8dec75d7aab85b567b6ccd41ad312451b948a7413f0a142fd40d49347",
                    "txbytes": "0xf9011e800a846f62fdbd94095e7baea6a6c7c4c2dfeb977efac326af552d87842987830ab8b85a7f0000000000000000000000010000000000000000000000000000000000000000327f00000000000000000000000000000000000000000000000000000000000000017f000000000000000000000000ffffffffffffffffffffffffffffffffffffffff7ffffffffffffffffffffffffffffffffffffffffffffffffffffffffffffffffe7f000000000000000000000000945304eb96065b2a98b57a48a06ae28d285a71b56f99a4527612a199a06d1a348b02563a9b1ba0aa6fa50b0f986e32a36b521811aea6558e3a07036a5380575986670d4f82eec6a0438804dc947374eefb86f8bece92b39b253c934fcc97d81a9552cd025b5c9e91",
                    "indexes": {
                        "data": 0,
                        "gas": 0,
                        "value": 0
                    }
                }
            ],
            "ETC_Phoenix": [
                {
                    "hash": "b0848762d0f37861fa7f70e73ef2c2bd72261a0577ed33a03d825616a70720ba",
                    "logs": "1dcc4de8dec75d7aab85b567b6ccd41ad312451b948a7413f0a142fd40d49347",
                    "txbytes": "0xf9011e800a846f62fdbd94095e7baea6a6c7c4c2dfeb977efac326af552d87842987830ab8b85a7f0000000000000000000000010000000000000000000000000000000000000000327f00000000000000000000000000000000000000000000000000000000000000017f000000000000000000000000ffffffffffffffffffffffffffffffffffffffff7ffffffffffffffffffffffffffffffffffffffffffffffffffffffffffffffffe7f000000000000000000000000945304eb96065b2a98b57a48a06ae28d285a71b56f99a4527612a199a06d1a348b02563a9b1ba0aa6fa50b0f986e32a36b521811aea6558e3a07036a5380575986670d4f82eec6a0438804dc947374eefb86f8bece92b39b253c934fcc97d81a9552cd025b5c9e91",
                    "indexes": {
                        "data": 0,
                        "gas": 0,
                        "value": 0
                    }
                }
            ]
        }
    }
}