{
    "randomStatetest406": {
        "_info": {
            "comment": "",
            "filling-rpc-server": "evm version 1.10.16-unstable-0f893109-20220105",
            "filling-tool-version": "retesteth-0.2.2-testinfo+commit.01c6aac2.Linux.g++",
            "filledWith": "CoreGeth-1.12.9-unstable-f4059ddd82d975bdc54fa648e5422a80172161cb",
            "lllcversion": "Version: 0.5.14-develop.2021.11.27+commit.401d5358.Linux.g++",
            "source": "src/GeneralStateTestsFiller/stRandom2/randomStatetest406Filler.json",
            "sourceHash": "9cc3b1251bab5b96f18c82c662f6638ca3f49bcc1c3ee5172d83d634c4969c1e"
        },
        "env": {
            "currentCoinbase": "945304eb96065b2a98b57a48a06ae28d285a71b5",
            "currentDifficulty": "0x20000",
            "currentRandom": null,
            "currentGasLimit": "0x7fffffffffffffff",
            "currentNumber": "0x1",
            "currentTimestamp": "0x3e8",
            "currentBaseFee": "0xa"
        },
        "pre": {
            "0x095e7baea6a6c7c4c2dfeb977efac326af552d87": {
                "code": "0x7f00000000000000000000000000000000000000000000000000000000000000007f000000000000000000000000945304eb96065b2a98b57a48a06ae28d285a71b57ffffffffffffffffffffffffffffffffffffffffffffffffffffffffffffffffe7f000000000000000000000000945304eb96065b2a98b57a48a06ae28d285a71b57ffffffffffffffffffffffffffffffffffffffffffffffffffffffffffffffffe7e7f000000000000000000000000945304eb96065b2a98b57a48a06ae28d285a71b58b8e99f33c647165337e389f7b9c909cba5560005155",
                "balance": "0x0"
            },
            "0x945304eb96065b2a98b57a48a06ae28d285a71b5": {
                "code": "0x6000355415600957005b60203560003555",
                "balance": "0x2e"
            },
            "0xa94f5374fce5edbc8e2a8697c15331677e6ebf0b": {
                "balance": "0xde0b6b3a7640000"
            }
        },
        "transaction": {
            "gasPrice": "0xa",
            "maxFeePerGas": null,
            "maxPriorityFeePerGas": null,
            "nonce": "0x0",
            "to": "0x095e7baea6a6c7c4c2dfeb977efac326af552d87",
            "data": [
                "0x7f00000000000000000000000000000000000000000000000000000000000000007f000000000000000000000000945304eb96065b2a98b57a48a06ae28d285a71b57ffffffffffffffffffffffffffffffffffffffffffffffffffffffffffffffffe7f000000000000000000000000945304eb96065b2a98b57a48a06ae28d285a71b57ffffffffffffffffffffffffffffffffffffffffffffffffffffffffffffffffe7e7f000000000000000000000000945304eb96065b2a98b57a48a06ae28d285a71b58b8e99f33c647165337e389f7b9c909cba"
            ],
            "gasLimit": [
                "0xe167dc4"
            ],
            "value": [
                "0x4527b6ad"
            ],
            "secretKey": "0x45a915e4d060149eb4365960e6a7a45f334393093061116b197e3240065ff2d8"
        },
        "out": "0x",
        "post": {
            "ETC_Magneto": [
                {
                    "hash": "aa5cd3552c38f376cd09db3748afbb5be6a48f6d30789242fbfb001641fe4e13",
                    "logs": "1dcc4de8dec75d7aab85b567b6ccd41ad312451b948a7413f0a142fd40d49347",
                    "txbytes": "0xf9013e800a840e167dc494095e7baea6a6c7c4c2dfeb977efac326af552d87844527b6adb8d87f00000000000000000000000000000000000000000000000000000000000000007f000000000000000000000000945304eb96065b2a98b57a48a06ae28d285a71b57ffffffffffffffffffffffffffffffffffffffffffffffffffffffffffffffffe7f000000000000000000000000945304eb96065b2a98b57a48a06ae28d285a71b57ffffffffffffffffffffffffffffffffffffffffffffffffffffffffffffffffe7e7f000000000000000000000000945304eb96065b2a98b57a48a06ae28d285a71b58b8e99f33c647165337e389f7b9c909cba1ba04a887e789b9c3b75486dc8ad5dfa8ee182a1aa2c3f76edeb9eee102dc278eeeaa065630aae1d36fab69d0089f196c2114397f60b23301359fb0a3289e2ba8ddaa8",
                    "indexes": {
                        "data": 0,
                        "gas": 0,
                        "value": 0
                    }
                }
            ],
            "ETC_Mystique": [
                {
                    "hash": "aa5cd3552c38f376cd09db3748afbb5be6a48f6d30789242fbfb001641fe4e13",
                    "logs": "1dcc4de8dec75d7aab85b567b6ccd41ad312451b948a7413f0a142fd40d49347",
                    "txbytes": "0xf9013e800a840e167dc494095e7baea6a6c7c4c2dfeb977efac326af552d87844527b6adb8d87f00000000000000000000000000000000000000000000000000000000000000007f000000000000000000000000945304eb96065b2a98b57a48a06ae28d285a71b57ffffffffffffffffffffffffffffffffffffffffffffffffffffffffffffffffe7f000000000000000000000000945304eb96065b2a98b57a48a06ae28d285a71b57ffffffffffffffffffffffffffffffffffffffffffffffffffffffffffffffffe7e7f000000000000000000000000945304eb96065b2a98b57a48a06ae28d285a71b58b8e99f33c647165337e389f7b9c909cba1ba04a887e789b9c3b75486dc8ad5dfa8ee182a1aa2c3f76edeb9eee102dc278eeeaa065630aae1d36fab69d0089f196c2114397f60b23301359fb0a3289e2ba8ddaa8",
                    "indexes": {
                        "data": 0,
                        "gas": 0,
                        "value": 0
                    }
                }
            ],
            "ETC_Phoenix": [
                {
                    "hash": "ebc70af5d8eda279cf08af65f8b8a6b050462c0984371b038abde01b71bd059e",
                    "logs": "1dcc4de8dec75d7aab85b567b6ccd41ad312451b948a7413f0a142fd40d49347",
                    "txbytes": "0xf9013e800a840e167dc494095e7baea6a6c7c4c2dfeb977efac326af552d87844527b6adb8d87f00000000000000000000000000000000000000000000000000000000000000007f000000000000000000000000945304eb96065b2a98b57a48a06ae28d285a71b57ffffffffffffffffffffffffffffffffffffffffffffffffffffffffffffffffe7f000000000000000000000000945304eb96065b2a98b57a48a06ae28d285a71b57ffffffffffffffffffffffffffffffffffffffffffffffffffffffffffffffffe7e7f000000000000000000000000945304eb96065b2a98b57a48a06ae28d285a71b58b8e99f33c647165337e389f7b9c909cba1ba04a887e789b9c3b75486dc8ad5dfa8ee182a1aa2c3f76edeb9eee102dc278eeeaa065630aae1d36fab69d0089f196c2114397f60b23301359fb0a3289e2ba8ddaa8",
                    "indexes": {
                        "data": 0,
                        "gas": 0,
                        "value": 0
                    }
                }
            ]
        }
    }
}