{
    "randomStatetest442": {
        "_info": {
            "comment": "",
            "filling-rpc-server": "evm version 1.10.16-unstable-0f893109-20220105",
            "filling-tool-version": "retesteth-0.2.2-testinfo+commit.01c6aac2.Linux.g++",
            "filledWith": "CoreGeth-1.12.9-unstable-f4059ddd82d975bdc54fa648e5422a80172161cb",
            "lllcversion": "Version: 0.5.14-develop.2021.11.27+commit.401d5358.Linux.g++",
            "source": "src/GeneralStateTestsFiller/stRandom2/randomStatetest442Filler.json",
            "sourceHash": "644a2fd4591c84635ee81cbf21d0be3831f5588c4de9cf0a2daab0365084c7db"
        },
        "env": {
            "currentCoinbase": "945304eb96065b2a98b57a48a06ae28d285a71b5",
            "currentDifficulty": "0x20000",
            "currentRandom": null,
            "currentGasLimit": "0x7fffffffffffffff",
            "currentNumber": "0x1",
            "currentTimestamp": "0x3e8",
            "currentBaseFee": "0xa"
        },
        "pre": {
            "0x095e7baea6a6c7c4c2dfeb977efac326af552d87": {
                "code": "0x7fffffffffffffffffffffffffffffffffffffffffffffffffffffffffffffffff7fffffffffffffffffffffffffffffffffffffffffffffffffffffffffffffffff7fffffffffffffffffffffffffffffffffffffffffffffffffffffffffffffffff917f00000000000000000000000100000000000000000000000000000000000000007f00000000000000000000000000000000000000000000000000000000000000007ffffffffffffffffffffffffffffffffffffffffffffffffffffffffffffffffe7f000000000000000000000000000000000000000000000000000000000000c3501833815560005155",
                "balance": "0x0"
            },
            "0x945304eb96065b2a98b57a48a06ae28d285a71b5": {
                "code": "0x6000355415600957005b60203560003555",
                "balance": "0x2e"
            },
            "0xa94f5374fce5edbc8e2a8697c15331677e6ebf0b": {
                "balance": "0xde0b6b3a7640000"
            }
        },
        "transaction": {
            "gasPrice": "0xa",
            "maxFeePerGas": null,
            "maxPriorityFeePerGas": null,
            "nonce": "0x0",
            "to": "0x095e7baea6a6c7c4c2dfeb977efac326af552d87",
            "data": [
                "0x7fffffffffffffffffffffffffffffffffffffffffffffffffffffffffffffffff7fffffffffffffffffffffffffffffffffffffffffffffffffffffffffffffffff7fffffffffffffffffffffffffffffffffffffffffffffffffffffffffffffffff917f00000000000000000000000100000000000000000000000000000000000000007f00000000000000000000000000000000000000000000000000000000000000007ffffffffffffffffffffffffffffffffffffffffffffffffffffffffffffffffe7f000000000000000000000000000000000000000000000000000000000000c350183381"
            ],
            "gasLimit": [
                "0x664f3c42"
            ],
            "value": [
                "0x2f5a5aa2"
            ],
            "secretKey": "0x45a915e4d060149eb4365960e6a7a45f334393093061116b197e3240065ff2d8"
        },
        "out": "0x",
        "post": {
            "ETC_Magneto": [
                {
                    "hash": "e20fe082c0924f6db998b5e83167e61602b52f50b227d0c7af971cfabbcf3ec2",
                    "logs": "1dcc4de8dec75d7aab85b567b6ccd41ad312451b948a7413f0a142fd40d49347",
                    "txbytes": "0xf90151800a84664f3c4294095e7baea6a6c7c4c2dfeb977efac326af552d87842f5a5aa2b8eb7fffffffffffffffffffffffffffffffffffffffffffffffffffffffffffffffff7fffffffffffffffffffffffffffffffffffffffffffffffffffffffffffffffff7fffffffffffffffffffffffffffffffffffffffffffffffffffffffffffffffff917f00000000000000000000000100000000000000000000000000000000000000007f00000000000000000000000000000000000000000000000000000000000000007ffffffffffffffffffffffffffffffffffffffffffffffffffffffffffffffffe7f000000000000000000000000000000000000000000000000000000000000c3501833811ba00ec9c72a779a97ae78130b57bb64259372a9314c1a3b95e048869c12895d67cda05877364c2788f6696eec54470f95e2cb62d62ff9deb371de733585a45b9dd57d",
                    "indexes": {
                        "data": 0,
                        "gas": 0,
                        "value": 0
                    }
                }
            ],
            "ETC_Mystique": [
                {
                    "hash": "e20fe082c0924f6db998b5e83167e61602b52f50b227d0c7af971cfabbcf3ec2",
                    "logs": "1dcc4de8dec75d7aab85b567b6ccd41ad312451b948a7413f0a142fd40d49347",
                    "txbytes": "0xf90151800a84664f3c4294095e7baea6a6c7c4c2dfeb977efac326af552d87842f5a5aa2b8eb7fffffffffffffffffffffffffffffffffffffffffffffffffffffffffffffffff7fffffffffffffffffffffffffffffffffffffffffffffffffffffffffffffffff7fffffffffffffffffffffffffffffffffffffffffffffffffffffffffffffffff917f00000000000000000000000100000000000000000000000000000000000000007f00000000000000000000000000000000000000000000000000000000000000007ffffffffffffffffffffffffffffffffffffffffffffffffffffffffffffffffe7f000000000000000000000000000000000000000000000000000000000000c3501833811ba00ec9c72a779a97ae78130b57bb64259372a9314c1a3b95e048869c12895d67cda05877364c2788f6696eec54470f95e2cb62d62ff9deb371de733585a45b9dd57d",
                    "indexes": {
                        "data": 0,
                        "gas": 0,
                        "value": 0
                    }
                }
            ],
            "ETC_Phoenix": [
                {
                    "hash": "c7e025ec3ea5dfc525d3039cca31349bf10967c7ee684bce7fdc6c93b69ca5e9",
                    "logs": "1dcc4de8dec75d7aab85b567b6ccd41ad312451b948a7413f0a142fd40d49347",
                    "txbytes": "0xf90151800a84664f3c4294095e7baea6a6c7c4c2dfeb977efac326af552d87842f5a5aa2b8eb7fffffffffffffffffffffffffffffffffffffffffffffffffffffffffffffffff7fffffffffffffffffffffffffffffffffffffffffffffffffffffffffffffffff7fffffffffffffffffffffffffffffffffffffffffffffffffffffffffffffffff917f00000000000000000000000100000000000000000000000000000000000000007f00000000000000000000000000000000000000000000000000000000000000007ffffffffffffffffffffffffffffffffffffffffffffffffffffffffffffffffe7f000000000000000000000000000000000000000000000000000000000000c3501833811ba00ec9c72a779a97ae78130b57bb64259372a9314c1a3b95e048869c12895d67cda05877364c2788f6696eec54470f95e2cb62d62ff9deb371de733585a45b9dd57d",
                    "indexes": {
                        "data": 0,
                        "gas": 0,
                        "value": 0
                    }
                }
            ]
        }
    }
}