{
    "randomStatetest510": {
        "_info": {
            "comment": "",
            "filling-rpc-server": "evm version 1.10.16-unstable-0f893109-20220105",
            "filling-tool-version": "retesteth-0.2.2-testinfo+commit.01c6aac2.Linux.g++",
            "filledWith": "CoreGeth-1.12.9-unstable-ab16c56768f0284ab56a30aac9550d3ebdc45901",
            "lllcversion": "Version: 0.5.14-develop.2021.11.27+commit.401d5358.Linux.g++",
            "source": "src/GeneralStateTestsFiller/stRandom2/randomStatetest510Filler.json",
            "sourceHash": "b6e21dee1517ae0c68e9a24cf3cbe1bb26a864837301f8973f3f512b0fb83045"
        },
        "env": {
            "currentCoinbase": "0x945304eb96065b2a98b57a48a06ae28d285a71b5",
            "currentDifficulty": "0x20000",
            "currentGasLimit": "0x7fffffffffffffff",
            "currentNumber": "0x1",
            "currentTimestamp": "0x3e8",
            "currentBaseFee": "0xa",
            "previousHash": "0x5e20a0453cecd065ea59c37ac63e079ee08998b6045136a8ce6635c7912ec0b6"
        },
        "pre": {
            "0x095e7baea6a6c7c4c2dfeb977efac326af552d87": {
                "code": "0x7f000000000000000000000000ffffffffffffffffffffffffffffffffffffffff7f00000000000000000000000000000000000000000000000000000000000000017f00000000000000000000000100000000000000000000000000000000000000007f000000000000000000000000945304eb96065b2a98b57a48a06ae28d285a71b5447f00000000000000000000000000000000000000000000000000000000000000005a456ff23a88535564545969f162615b93325560005155",
                "balance": "0x0"
            },
            "0x945304eb96065b2a98b57a48a06ae28d285a71b5": {
                "code": "0x6000355415600957005b60203560003555",
                "balance": "0x2e"
            },
            "0xa94f5374fce5edbc8e2a8697c15331677e6ebf0b": {
                "balance": "0xde0b6b3a7640000"
            }
        },
        "transaction": {
            "gasPrice": "0xa",
            "nonce": "0x0",
            "to": "0x095e7baea6a6c7c4c2dfeb977efac326af552d87",
            "data": [
                "0x7f000000000000000000000000ffffffffffffffffffffffffffffffffffffffff7f00000000000000000000000000000000000000000000000000000000000000017f00000000000000000000000100000000000000000000000000000000000000007f000000000000000000000000945304eb96065b2a98b57a48a06ae28d285a71b5447f00000000000000000000000000000000000000000000000000000000000000005a456ff23a88535564545969f162615b9332"
            ],
            "gasLimit": [
                "0x55fe2d15"
            ],
            "value": [
                "0x720ba13a"
            ],
            "secretKey": "0x45a915e4d060149eb4365960e6a7a45f334393093061116b197e3240065ff2d8",
            "sender": "0xa94f5374fce5edbc8e2a8697c15331677e6ebf0b"
        },
        "post": {
            "ETC_Magneto": [
                {
                    "hash": "2ca26636e0d43402b2878b65c493716664ea17e05185a7fe555795786e8d7154",
                    "logs": "1dcc4de8dec75d7aab85b567b6ccd41ad312451b948a7413f0a142fd40d49347",
                    "txbytes": "0xf9011e800a8455fe2d1594095e7baea6a6c7c4c2dfeb977efac326af552d8784720ba13ab8b87f000000000000000000000000ffffffffffffffffffffffffffffffffffffffff7f00000000000000000000000000000000000000000000000000000000000000017f00000000000000000000000100000000000000000000000000000000000000007f000000000000000000000000945304eb96065b2a98b57a48a06ae28d285a71b5447f00000000000000000000000000000000000000000000000000000000000000005a456ff23a88535564545969f162615b93321ba07b6405961236df9425eab050512111aa27301effd2c58b733c8a191728ec6aeaa04e0a3c2191e2cb2081384199bfa188b13c9d4351c8cf08afce89ec31c6c25bed",
                    "indexes": {
                        "data": 0,
                        "gas": 0,
                        "value": 0
                    }
                }
            ],
            "ETC_Mystique": [
                {
                    "hash": "2ca26636e0d43402b2878b65c493716664ea17e05185a7fe555795786e8d7154",
                    "logs": "1dcc4de8dec75d7aab85b567b6ccd41ad312451b948a7413f0a142fd40d49347",
                    "txbytes": "0xf9011e800a8455fe2d1594095e7baea6a6c7c4c2dfeb977efac326af552d8784720ba13ab8b87f000000000000000000000000ffffffffffffffffffffffffffffffffffffffff7f00000000000000000000000000000000000000000000000000000000000000017f00000000000000000000000100000000000000000000000000000000000000007f000000000000000000000000945304eb96065b2a98b57a48a06ae28d285a71b5447f00000000000000000000000000000000000000000000000000000000000000005a456ff23a88535564545969f162615b93321ba07b6405961236df9425eab050512111aa27301effd2c58b733c8a191728ec6aeaa04e0a3c2191e2cb2081384199bfa188b13c9d4351c8cf08afce89ec31c6c25bed",
                    "indexes": {
                        "data": 0,
                        "gas": 0,
                        "value": 0
                    }
                }
            ],
            "ETC_Phoenix": [
                {
                    "hash": "7e5e2a9fd981f3285bf388a9cfe7331e0db307ac805413c36ed6e15c732bf03e",
                    "logs": "1dcc4de8dec75d7aab85b567b6ccd41ad312451b948a7413f0a142fd40d49347",
                    "txbytes": "0xf9011e800a8455fe2d1594095e7baea6a6c7c4c2dfeb977efac326af552d8784720ba13ab8b87f000000000000000000000000ffffffffffffffffffffffffffffffffffffffff7f00000000000000000000000000000000000000000000000000000000000000017f00000000000000000000000100000000000000000000000000000000000000007f000000000000000000000000945304eb96065b2a98b57a48a06ae28d285a71b5447f00000000000000000000000000000000000000000000000000000000000000005a456ff23a88535564545969f162615b93321ba07b6405961236df9425eab050512111aa27301effd2c58b733c8a191728ec6aeaa04e0a3c2191e2cb2081384199bfa188b13c9d4351c8cf08afce89ec31c6c25bed",
                    "indexes": {
                        "data": 0,
                        "gas": 0,
                        "value": 0
                    }
                }
            ]
        }
    }
}