{
    "randomStatetest544": {
        "_info": {
            "comment": "",
            "filling-rpc-server": "evm version 1.10.16-unstable-0f893109-20220105",
            "filling-tool-version": "retesteth-0.2.2-testinfo+commit.01c6aac2.Linux.g++",
            "filledWith": "CoreGeth-1.12.9-unstable-4cf5b2b0837228e7d5eadba6a01ffb80e9288e21",
            "lllcversion": "Version: 0.5.14-develop.2021.11.27+commit.401d5358.Linux.g++",
            "source": "src/GeneralStateTestsFiller/stRandom2/randomStatetest544Filler.json",
            "sourceHash": "5737a2b491f3d613463b3190f51ef21523e95b042d5a06c6e2e06542e5d115be"
        },
        "env": {
            "currentCoinbase": "0x945304eb96065b2a98b57a48a06ae28d285a71b5",
            "currentDifficulty": "0x20000",
            "currentGasLimit": "0x7fffffffffffffff",
            "currentNumber": "0x1",
            "currentTimestamp": "0x3e8",
            "previousHash": "0x5e20a0453cecd065ea59c37ac63e079ee08998b6045136a8ce6635c7912ec0b6"
        },
        "pre": {
            "0x095e7baea6a6c7c4c2dfeb977efac326af552d87": {
                "code": "0x7f000000000000000000000000000000000000000000000000000000000000c3503b7ffffffffffffffffffffffffffffffffffffffffffffffffffffffffffffffffe7f000000000000000000000000ffffffffffffffffffffffffffffffffffffffff7fffffffffffffffffffffffffffffffffffffffffffffffffffffffffffffffff097f000000000000000000000000000000000000000000000000000000000000000055",
                "balance": "0x0",
                "nonce": "0x0"
            },
            "0x945304eb96065b2a98b57a48a06ae28d285a71b5": {
                "code": "0x6000355415600957005b60203560003555",
                "balance": "0x2e",
                "nonce": "0x0"
            },
            "0xa94f5374fce5edbc8e2a8697c15331677e6ebf0b": {
                "code": "0x",
                "balance": "0xde0b6b3a7640000",
                "nonce": "0x0"
            }
        },
        "transaction": {
            "gasPrice": "0xa",
            "nonce": "0x0",
            "to": "0x095e7baea6a6c7c4c2dfeb977efac326af552d87",
            "data": [
                "0x7f000000000000000000000000000000000000000000000000000000000000c3503b7ffffffffffffffffffffffffffffffffffffffffffffffffffffffffffffffffe7f000000000000000000000000ffffffffffffffffffffffffffffffffffffffff7fffffffffffffffffffffffffffffffffffffffffffffffffffffffffffffffff097f0000000000000000000000000000000000000000000000000000000000000000"
            ],
            "gasLimit": [
                "0x68b20f67"
            ],
            "value": [
                "0x505c017e"
            ],
            "secretKey": "0x45a915e4d060149eb4365960e6a7a45f334393093061116b197e3240065ff2d8",
            "sender": "0xa94f5374fce5edbc8e2a8697c15331677e6ebf0b"
        },
        "post": {
            "ETC_Magneto": [
                {
                    "hash": "3fbda210d93247efffef396eb783e46259152332f5d4e49dc277dcb5662cc3ba",
                    "logs": "1dcc4de8dec75d7aab85b567b6ccd41ad312451b948a7413f0a142fd40d49347",
                    "txbytes": "0xf9010d800a8468b20f6794095e7baea6a6c7c4c2dfeb977efac326af552d8784505c017eb8a77f000000000000000000000000000000000000000000000000000000000000c3503b7ffffffffffffffffffffffffffffffffffffffffffffffffffffffffffffffffe7f000000000000000000000000ffffffffffffffffffffffffffffffffffffffff7fffffffffffffffffffffffffffffffffffffffffffffffffffffffffffffffff097f00000000000000000000000000000000000000000000000000000000000000001ba0d5b6cd991be1d350c4cdab87893f115acb65ea3078fc6a262ad20f9645edb5d2a069e47b5a35b8ab9a7425ad93d5c4d86f1bef194c69b30f722456bbcae6e3655d",
                    "indexes": {
                        "data": 0,
                        "gas": 0,
                        "value": 0
                    }
                }
            ],
            "ETC_Mystique": [
                {
                    "hash": "3fbda210d93247efffef396eb783e46259152332f5d4e49dc277dcb5662cc3ba",
                    "logs": "1dcc4de8dec75d7aab85b567b6ccd41ad312451b948a7413f0a142fd40d49347",
                    "txbytes": "0xf9010d800a8468b20f6794095e7baea6a6c7c4c2dfeb977efac326af552d8784505c017eb8a77f000000000000000000000000000000000000000000000000000000000000c3503b7ffffffffffffffffffffffffffffffffffffffffffffffffffffffffffffffffe7f000000000000000000000000ffffffffffffffffffffffffffffffffffffffff7fffffffffffffffffffffffffffffffffffffffffffffffffffffffffffffffff097f00000000000000000000000000000000000000000000000000000000000000001ba0d5b6cd991be1d350c4cdab87893f115acb65ea3078fc6a262ad20f9645edb5d2a069e47b5a35b8ab9a7425ad93d5c4d86f1bef194c69b30f722456bbcae6e3655d",
                    "indexes": {
                        "data": 0,
                        "gas": 0,
                        "value": 0
                    }
                }
            ],
            "ETC_Phoenix": [
                {
                    "hash": "eb94917dd82a447abb3146902a3e17d0f9459d2eb43a9ef2cddd3c98ca60418b",
                    "logs": "1dcc4de8dec75d7aab85b567b6ccd41ad312451b948a7413f0a142fd40d49347",
                    "txbytes": "0xf9010d800a8468b20f6794095e7baea6a6c7c4c2dfeb977efac326af552d8784505c017eb8a77f000000000000000000000000000000000000000000000000000000000000c3503b7ffffffffffffffffffffffffffffffffffffffffffffffffffffffffffffffffe7f000000000000000000000000ffffffffffffffffffffffffffffffffffffffff7fffffffffffffffffffffffffffffffffffffffffffffffffffffffffffffffff097f00000000000000000000000000000000000000000000000000000000000000001ba0d5b6cd991be1d350c4cdab87893f115acb65ea3078fc6a262ad20f9645edb5d2a069e47b5a35b8ab9a7425ad93d5c4d86f1bef194c69b30f722456bbcae6e3655d",
                    "indexes": {
                        "data": 0,
                        "gas": 0,
                        "value": 0
                    }
                }
            ]
        }
    }
}