{
    "randomStatetest547": {
        "_info": {
            "comment": "",
            "filling-rpc-server": "evm version 1.10.16-unstable-0f893109-20220105",
            "filling-tool-version": "retesteth-0.2.2-testinfo+commit.01c6aac2.Linux.g++",
            "filledWith": "CoreGeth-1.12.9-unstable-d64998ce9b05f4f41b35740c69c4b402e41a3105",
            "lllcversion": "Version: 0.5.14-develop.2021.11.27+commit.401d5358.Linux.g++",
            "source": "src/GeneralStateTestsFiller/stRandom2/randomStatetest547Filler.json",
            "sourceHash": "389a89cb9bf15a29111a62200385122f6b18507fc5186119ce73121f9331c513"
        },
        "env": {
            "currentCoinbase": "0x945304eb96065b2a98b57a48a06ae28d285a71b5",
            "currentDifficulty": "0x20000",
            "currentGasLimit": "0x7fffffffffffffff",
            "currentNumber": "0x1",
            "currentTimestamp": "0x3e8",
            "previousHash": "0x5e20a0453cecd065ea59c37ac63e079ee08998b6045136a8ce6635c7912ec0b6"
        },
        "pre": {
            "0x095e7baea6a6c7c4c2dfeb977efac326af552d87": {
                "code": "0x7fffffffffffffffffffffffffffffffffffffffffffffffffffffffffffffffff7f0000000000000000000000000000000000000000000000000000000000000001417fffffffffffffffffffffffffffffffffffffffffffffffffffffffffffffffff7f00000000000000000000000000000000000000000000000000000000000000007f000000000000000000000000ffffffffffffffffffffffffffffffffffffffff7f000000000000000000000000000000000000000000000000000000000000c35014623971943854a009768255",
                "balance": "0x0"
            },
            "0x945304eb96065b2a98b57a48a06ae28d285a71b5": {
                "code": "0x6000355415600957005b60203560003555",
                "balance": "0x2e"
            },
            "0xa94f5374fce5edbc8e2a8697c15331677e6ebf0b": {
                "balance": "0xde0b6b3a7640000"
            }
        },
        "transaction": {
            "gasPrice": "0xa",
            "nonce": "0x0",
            "to": "0x095e7baea6a6c7c4c2dfeb977efac326af552d87",
            "data": [
                "0x7fffffffffffffffffffffffffffffffffffffffffffffffffffffffffffffffff7f0000000000000000000000000000000000000000000000000000000000000001417fffffffffffffffffffffffffffffffffffffffffffffffffffffffffffffffff7f00000000000000000000000000000000000000000000000000000000000000007f000000000000000000000000ffffffffffffffffffffffffffffffffffffffff7f000000000000000000000000000000000000000000000000000000000000c35014623971943854a0097682"
            ],
            "gasLimit": [
                "0x605781c3"
            ],
            "value": [
                "0x7610b461"
            ],
            "secretKey": "0x45a915e4d060149eb4365960e6a7a45f334393093061116b197e3240065ff2d8",
            "sender": "0xa94f5374fce5edbc8e2a8697c15331677e6ebf0b"
        },
        "post": {
            "ETC_Magneto": [
                {
                    "hash": "1e484e8d895de3fb2859224eea01f6cdb90463844cf3f5f2ca63f68b3dc76f2f",
                    "logs": "37a87b4fa62a1757c5bff15948134949df9a14f8905d87f69892e0b4dd0beab0",
                    "txbytes": "0xf90138800a84605781c394095e7baea6a6c7c4c2dfeb977efac326af552d87847610b461b8d27fffffffffffffffffffffffffffffffffffffffffffffffffffffffffffffffff7f0000000000000000000000000000000000000000000000000000000000000001417fffffffffffffffffffffffffffffffffffffffffffffffffffffffffffffffff7f00000000000000000000000000000000000000000000000000000000000000007f000000000000000000000000ffffffffffffffffffffffffffffffffffffffff7f000000000000000000000000000000000000000000000000000000000000c35014623971943854a00976821ba07e10a0d70f79c18fddc16f6986eb83321db6e605c1d91dbb33517bf3284e8773a0490db3d7abfff8136b6a8ee4c67a32aefe8beb3f5ea823f06829e7106150b643",
                    "indexes": {
                        "data": 0,
                        "gas": 0,
                        "value": 0
                    }
                }
            ],
            "ETC_Mystique": [
                {
                    "hash": "1e484e8d895de3fb2859224eea01f6cdb90463844cf3f5f2ca63f68b3dc76f2f",
                    "logs": "37a87b4fa62a1757c5bff15948134949df9a14f8905d87f69892e0b4dd0beab0",
                    "txbytes": "0xf90138800a84605781c394095e7baea6a6c7c4c2dfeb977efac326af552d87847610b461b8d27fffffffffffffffffffffffffffffffffffffffffffffffffffffffffffffffff7f0000000000000000000000000000000000000000000000000000000000000001417fffffffffffffffffffffffffffffffffffffffffffffffffffffffffffffffff7f00000000000000000000000000000000000000000000000000000000000000007f000000000000000000000000ffffffffffffffffffffffffffffffffffffffff7f000000000000000000000000000000000000000000000000000000000000c35014623971943854a00976821ba07e10a0d70f79c18fddc16f6986eb83321db6e605c1d91dbb33517bf3284e8773a0490db3d7abfff8136b6a8ee4c67a32aefe8beb3f5ea823f06829e7106150b643",
                    "indexes": {
                        "data": 0,
                        "gas": 0,
                        "value": 0
                    }
                }
            ],
            "ETC_Phoenix": [
                {
                    "hash": "ac711fa2472b6ea1d066141f3499867314191449261e9e8815ff256a68efbac3",
                    "logs": "37a87b4fa62a1757c5bff15948134949df9a14f8905d87f69892e0b4dd0beab0",
                    "txbytes": "0xf90138800a84605781c394095e7baea6a6c7c4c2dfeb977efac326af552d87847610b461b8d27fffffffffffffffffffffffffffffffffffffffffffffffffffffffffffffffff7f0000000000000000000000000000000000000000000000000000000000000001417fffffffffffffffffffffffffffffffffffffffffffffffffffffffffffffffff7f00000000000000000000000000000000000000000000000000000000000000007f000000000000000000000000ffffffffffffffffffffffffffffffffffffffff7f000000000000000000000000000000000000000000000000000000000000c35014623971943854a00976821ba07e10a0d70f79c18fddc16f6986eb83321db6e605c1d91dbb33517bf3284e8773a0490db3d7abfff8136b6a8ee4c67a32aefe8beb3f5ea823f06829e7106150b643",
                    "indexes": {
                        "data": 0,
                        "gas": 0,
                        "value": 0
                    }
                }
            ]
        }
    }
}