{
    "randomStatetest572": {
        "_info": {
            "comment": "",
            "filling-rpc-server": "evm version 1.10.16-unstable-0f893109-20220105",
            "filling-tool-version": "retesteth-0.2.2-testinfo+commit.01c6aac2.Linux.g++",
            "filledWith": "CoreGeth-1.12.9-unstable-4cf5b2b0837228e7d5eadba6a01ffb80e9288e21",
            "lllcversion": "Version: 0.5.14-develop.2021.11.27+commit.401d5358.Linux.g++",
            "source": "src/GeneralStateTestsFiller/stRandom2/randomStatetest572Filler.json",
            "sourceHash": "de62d685bc9642f7c476add87a856b124b7989cfbae2a2bd3133ecef4b215b41"
        },
        "env": {
            "currentCoinbase": "0x945304eb96065b2a98b57a48a06ae28d285a71b5",
            "currentDifficulty": "0x20000",
            "currentGasLimit": "0x7fffffffffffffff",
            "currentNumber": "0x1",
            "currentTimestamp": "0x3e8",
            "previousHash": "0x5e20a0453cecd065ea59c37ac63e079ee08998b6045136a8ce6635c7912ec0b6"
        },
        "pre": {
            "0x095e7baea6a6c7c4c2dfeb977efac326af552d87": {
                "code": "0x457f000000000000000000000000ffffffffffffffffffffffffffffffffffffffff7ffffffffffffffffffffffffffffffffffffffffffffffffffffffffffffffffe7ffffffffffffffffffffffffffffffffffffffffffffffffffffffffffffffffe7ffffffffffffffffffffffffffffffffffffffffffffffffffffffffffffffffe097f000000000000000000000000945304eb96065b2a98b57a48a06ae28d285a71b5440ba13b38",
                "balance": "0x0",
                "nonce": "0x0"
            },
            "0x945304eb96065b2a98b57a48a06ae28d285a71b5": {
                "code": "0x6000355415600957005b60203560003555",
                "balance": "0x2e",
                "nonce": "0x0"
            },
            "0xa94f5374fce5edbc8e2a8697c15331677e6ebf0b": {
                "code": "0x",
                "balance": "0xde0b6b3a7640000",
                "nonce": "0x0"
            }
        },
        "transaction": {
            "gasPrice": "0xa",
            "nonce": "0x0",
            "to": "0x095e7baea6a6c7c4c2dfeb977efac326af552d87",
            "data": [
                "0x457f000000000000000000000000ffffffffffffffffffffffffffffffffffffffff7ffffffffffffffffffffffffffffffffffffffffffffffffffffffffffffffffe7ffffffffffffffffffffffffffffffffffffffffffffffffffffffffffffffffe7ffffffffffffffffffffffffffffffffffffffffffffffffffffffffffffffffe097f000000000000000000000000945304eb96065b2a98b57a48a06ae28d285a71b5440ba13b38"
            ],
            "gasLimit": [
                "0x3291d5d5"
            ],
            "value": [
                "0x73d5af9c"
            ],
            "secretKey": "0x45a915e4d060149eb4365960e6a7a45f334393093061116b197e3240065ff2d8",
            "sender": "0xa94f5374fce5edbc8e2a8697c15331677e6ebf0b"
        },
        "post": {
            "ETC_Magneto": [
                {
                    "hash": "be894df5a3c16f5ceb12b0e2cd3c7d418bbc83049f11abb437d3f17afca1fcb7",
                    "logs": "c2c9933b56793d3d9fb12c9c53a04a7cfac1cebf28cf4ea6379f9a7b038409b6",
                    "txbytes": "0xf90112800a843291d5d594095e7baea6a6c7c4c2dfeb977efac326af552d878473d5af9cb8ac457f000000000000000000000000ffffffffffffffffffffffffffffffffffffffff7ffffffffffffffffffffffffffffffffffffffffffffffffffffffffffffffffe7ffffffffffffffffffffffffffffffffffffffffffffffffffffffffffffffffe7ffffffffffffffffffffffffffffffffffffffffffffffffffffffffffffffffe097f000000000000000000000000945304eb96065b2a98b57a48a06ae28d285a71b5440ba13b381ca02e428c6de30fcc8d0256447eabd9db6009b832e55e29195e3f16cf40c4899e8ea04f2c722b2d67db72399092787410a7a36eaf492175ffddce01fbae6b1cd5292f",
                    "indexes": {
                        "data": 0,
                        "gas": 0,
                        "value": 0
                    }
                }
            ],
            "ETC_Mystique": [
                {
                    "hash": "be894df5a3c16f5ceb12b0e2cd3c7d418bbc83049f11abb437d3f17afca1fcb7",
                    "logs": "c2c9933b56793d3d9fb12c9c53a04a7cfac1cebf28cf4ea6379f9a7b038409b6",
                    "txbytes": "0xf90112800a843291d5d594095e7baea6a6c7c4c2dfeb977efac326af552d878473d5af9cb8ac457f000000000000000000000000ffffffffffffffffffffffffffffffffffffffff7ffffffffffffffffffffffffffffffffffffffffffffffffffffffffffffffffe7ffffffffffffffffffffffffffffffffffffffffffffffffffffffffffffffffe7ffffffffffffffffffffffffffffffffffffffffffffffffffffffffffffffffe097f000000000000000000000000945304eb96065b2a98b57a48a06ae28d285a71b5440ba13b381ca02e428c6de30fcc8d0256447eabd9db6009b832e55e29195e3f16cf40c4899e8ea04f2c722b2d67db72399092787410a7a36eaf492175ffddce01fbae6b1cd5292f",
                    "indexes": {
                        "data": 0,
                        "gas": 0,
                        "value": 0
                    }
                }
            ],
            "ETC_Phoenix": [
                {
                    "hash": "eec5295d767d1614bd813e31ac5543cdf247e771fc545e547bad6204f93f8855",
                    "logs": "c2c9933b56793d3d9fb12c9c53a04a7cfac1cebf28cf4ea6379f9a7b038409b6",
                    "txbytes": "0xf90112800a843291d5d594095e7baea6a6c7c4c2dfeb977efac326af552d878473d5af9cb8ac457f000000000000000000000000ffffffffffffffffffffffffffffffffffffffff7ffffffffffffffffffffffffffffffffffffffffffffffffffffffffffffffffe7ffffffffffffffffffffffffffffffffffffffffffffffffffffffffffffffffe7ffffffffffffffffffffffffffffffffffffffffffffffffffffffffffffffffe097f000000000000000000000000945304eb96065b2a98b57a48a06ae28d285a71b5440ba13b381ca02e428c6de30fcc8d0256447eabd9db6009b832e55e29195e3f16cf40c4899e8ea04f2c722b2d67db72399092787410a7a36eaf492175ffddce01fbae6b1cd5292f",
                    "indexes": {
                        "data": 0,
                        "gas": 0,
                        "value": 0
                    }
                }
            ]
        }
    }
}