{
    "randomStatetest388": {
        "_info": {
            "comment": "",
            "filling-rpc-server": "evm version 1.10.16-unstable-0f893109-20220105",
            "filling-tool-version": "retesteth-0.2.2-testinfo+commit.01c6aac2.Linux.g++",
            "filledWith": "CoreGeth-1.12.9-unstable-d390462df9df233b60b4cd7a37db5b3043832022",
            "lllcversion": "Version: 0.5.14-develop.2021.11.27+commit.401d5358.Linux.g++",
            "source": "src/GeneralStateTestsFiller/stRandom2/randomStatetest388Filler.json",
            "sourceHash": "49bf2ba81fa2fa22b6ec577a6462978c699de69278fd912438870acdc9362609"
        },
        "env": {
            "currentCoinbase": "0x945304eb96065b2a98b57a48a06ae28d285a71b5",
            "currentDifficulty": "0x20000",
            "currentGasLimit": "0x7fffffffffffffff",
            "currentNumber": "0x1",
            "currentTimestamp": "0x3e8",
            "previousHash": "0x5e20a0453cecd065ea59c37ac63e079ee08998b6045136a8ce6635c7912ec0b6"
        },
        "pre": {
            "0x095e7baea6a6c7c4c2dfeb977efac326af552d87": {
                "code": "0x7f00000000000000000000000000000000000000000000000000000000000000007f000000000000000000000000945304eb96065b2a98b57a48a06ae28d285a71b57f000000000000000000000000ffffffffffffffffffffffffffffffffffffffff7ffffffffffffffffffffffffffffffffffffffffffffffffffffffffffffffffe7f000000000000000000000000945304eb96065b2a98b57a48a06ae28d285a71b57f000000000000000000000000ffffffffffffffffffffffffffffffffffffffff7e7f000000000000000000000000945304eb96065b2a98b57a48a06ae28d285a71b5765b8f743b9979a0905b6a18916560005155",
                "balance": "0x0",
                "nonce": "0x0"
            },
            "0x945304eb96065b2a98b57a48a06ae28d285a71b5": {
                "code": "0x6000355415600957005b60203560003555",
                "balance": "0x2e",
                "nonce": "0x0"
            },
            "0xa94f5374fce5edbc8e2a8697c15331677e6ebf0b": {
                "code": "0x",
                "balance": "0xde0b6b3a7640000",
                "nonce": "0x0"
            }
        },
        "transaction": {
            "gasPrice": "0xa",
            "nonce": "0x0",
            "to": "0x095e7baea6a6c7c4c2dfeb977efac326af552d87",
            "data": [
                "0x7f00000000000000000000000000000000000000000000000000000000000000007f000000000000000000000000945304eb96065b2a98b57a48a06ae28d285a71b57f000000000000000000000000ffffffffffffffffffffffffffffffffffffffff7ffffffffffffffffffffffffffffffffffffffffffffffffffffffffffffffffe7f000000000000000000000000945304eb96065b2a98b57a48a06ae28d285a71b57f000000000000000000000000ffffffffffffffffffffffffffffffffffffffff7e7f000000000000000000000000945304eb96065b2a98b57a48a06ae28d285a71b5765b8f743b9979a0905b6a189165"
            ],
            "gasLimit": [
                "0x7f19d979"
            ],
            "value": [
                "0x460b9f39"
            ],
            "secretKey": "0x45a915e4d060149eb4365960e6a7a45f334393093061116b197e3240065ff2d8",
            "sender": "0xa94f5374fce5edbc8e2a8697c15331677e6ebf0b"
        },
        "post": {
            "ETC_Magneto": [
                {
                    "hash": "cc71ef999566696f14757eabea5d958d46bbbf8d1dc8e32a77dfa0449a3c0411",
                    "logs": "1dcc4de8dec75d7aab85b567b6ccd41ad312451b948a7413f0a142fd40d49347",
                    "txbytes": "0xf9015c800a847f19d97994095e7baea6a6c7c4c2dfeb977efac326af552d8784460b9f39b8f67f00000000000000000000000000000000000000000000000000000000000000007f000000000000000000000000945304eb96065b2a98b57a48a06ae28d285a71b57f000000000000000000000000ffffffffffffffffffffffffffffffffffffffff7ffffffffffffffffffffffffffffffffffffffffffffffffffffffffffffffffe7f000000000000000000000000945304eb96065b2a98b57a48a06ae28d285a71b57f000000000000000000000000ffffffffffffffffffffffffffffffffffffffff7e7f000000000000000000000000945304eb96065b2a98b57a48a06ae28d285a71b5765b8f743b9979a0905b6a1891651ba01eb9ce6ac16beae359c349f8f1e8c4dc0e7419fa8f0169f9bc69b8e4818632a2a0778ca53abc00e00268ec74a8ef720098ad4ed3cbd0e8fb573330dfe9e5cf4192",
                    "indexes": {
                        "data": 0,
                        "gas": 0,
                        "value": 0
                    }
                }
            ],
            "ETC_Mystique": [
                {
                    "hash": "cc71ef999566696f14757eabea5d958d46bbbf8d1dc8e32a77dfa0449a3c0411",
                    "logs": "1dcc4de8dec75d7aab85b567b6ccd41ad312451b948a7413f0a142fd40d49347",
                    "txbytes": "0xf9015c800a847f19d97994095e7baea6a6c7c4c2dfeb977efac326af552d8784460b9f39b8f67f00000000000000000000000000000000000000000000000000000000000000007f000000000000000000000000945304eb96065b2a98b57a48a06ae28d285a71b57f000000000000000000000000ffffffffffffffffffffffffffffffffffffffff7ffffffffffffffffffffffffffffffffffffffffffffffffffffffffffffffffe7f000000000000000000000000945304eb96065b2a98b57a48a06ae28d285a71b57f000000000000000000000000ffffffffffffffffffffffffffffffffffffffff7e7f000000000000000000000000945304eb96065b2a98b57a48a06ae28d285a71b5765b8f743b9979a0905b6a1891651ba01eb9ce6ac16beae359c349f8f1e8c4dc0e7419fa8f0169f9bc69b8e4818632a2a0778ca53abc00e00268ec74a8ef720098ad4ed3cbd0e8fb573330dfe9e5cf4192",
                    "indexes": {
                        "data": 0,
                        "gas": 0,
                        "value": 0
                    }
                }
            ],
            "ETC_Phoenix": [
                {
                    "hash": "3122a5949230732e67de7ad62dea73a65a5cc3c76e3be13c9dd8725d4427f8c7",
                    "logs": "1dcc4de8dec75d7aab85b567b6ccd41ad312451b948a7413f0a142fd40d49347",
                    "txbytes": "0xf9015c800a847f19d97994095e7baea6a6c7c4c2dfeb977efac326af552d8784460b9f39b8f67f00000000000000000000000000000000000000000000000000000000000000007f000000000000000000000000945304eb96065b2a98b57a48a06ae28d285a71b57f000000000000000000000000ffffffffffffffffffffffffffffffffffffffff7ffffffffffffffffffffffffffffffffffffffffffffffffffffffffffffffffe7f000000000000000000000000945304eb96065b2a98b57a48a06ae28d285a71b57f000000000000000000000000ffffffffffffffffffffffffffffffffffffffff7e7f000000000000000000000000945304eb96065b2a98b57a48a06ae28d285a71b5765b8f743b9979a0905b6a1891651ba01eb9ce6ac16beae359c349f8f1e8c4dc0e7419fa8f0169f9bc69b8e4818632a2a0778ca53abc00e00268ec74a8ef720098ad4ed3cbd0e8fb573330dfe9e5cf4192",
                    "indexes": {
                        "data": 0,
                        "gas": 0,
                        "value": 0
                    }
                }
            ]
        }
    }
}