{
    "randomStatetest405": {
        "_info": {
            "comment": "",
            "filling-rpc-server": "evm version 1.10.16-unstable-0f893109-20220105",
            "filling-tool-version": "retesteth-0.2.2-testinfo+commit.01c6aac2.Linux.g++",
            "filledWith": "CoreGeth-1.12.9-unstable-d64998ce9b05f4f41b35740c69c4b402e41a3105",
            "lllcversion": "Version: 0.5.14-develop.2021.11.27+commit.401d5358.Linux.g++",
            "source": "src/GeneralStateTestsFiller/stRandom2/randomStatetest405Filler.json",
            "sourceHash": "f16ed67344842616c46f0a327209366e7b241af229c348c02734012ea1244a4f"
        },
        "env": {
            "currentCoinbase": "0x945304eb96065b2a98b57a48a06ae28d285a71b5",
            "currentDifficulty": "0x20000",
            "currentGasLimit": "0x7fffffffffffffff",
            "currentNumber": "0x1",
            "currentTimestamp": "0x3e8",
            "previousHash": "0x5e20a0453cecd065ea59c37ac63e079ee08998b6045136a8ce6635c7912ec0b6"
        },
        "pre": {
            "0x095e7baea6a6c7c4c2dfeb977efac326af552d87": {
                "code": "0x7fffffffffffffffffffffffffffffffffffffffffffffffffffffffffffffffff7fffffffffffffffffffffffffffffffffffffffffffffffffffffffffffffffff44457f0000000000000000000000010000000000000000000000000000000000000000037ffffffffffffffffffffffffffffffffffffffffffffffffffffffffffffffffe7fffffffffffffffffffffffffffffffffffffffffffffffffffffffffffffffff6f318d0707977199361171756f6d458e5560005155",
                "balance": "0x0"
            },
            "0x945304eb96065b2a98b57a48a06ae28d285a71b5": {
                "code": "0x6000355415600957005b60203560003555",
                "balance": "0x2e"
            },
            "0xa94f5374fce5edbc8e2a8697c15331677e6ebf0b": {
                "balance": "0xde0b6b3a7640000"
            }
        },
        "transaction": {
            "gasPrice": "0xa",
            "nonce": "0x0",
            "to": "0x095e7baea6a6c7c4c2dfeb977efac326af552d87",
            "data": [
                "0x7fffffffffffffffffffffffffffffffffffffffffffffffffffffffffffffffff7fffffffffffffffffffffffffffffffffffffffffffffffffffffffffffffffff44457f0000000000000000000000010000000000000000000000000000000000000000037ffffffffffffffffffffffffffffffffffffffffffffffffffffffffffffffffe7fffffffffffffffffffffffffffffffffffffffffffffffffffffffffffffffff6f318d0707977199361171756f6d458e"
            ],
            "gasLimit": [
                "0x3a821b80"
            ],
            "value": [
                "0x10596faf"
            ],
            "secretKey": "0x45a915e4d060149eb4365960e6a7a45f334393093061116b197e3240065ff2d8",
            "sender": "0xa94f5374fce5edbc8e2a8697c15331677e6ebf0b"
        },
        "post": {
            "ETC_Magneto": [
                {
                    "hash": "ea02ca7a325d82a10aba5ea08e3413c5d29f29277e40859c8ae61d46a9dc4a80",
                    "logs": "1dcc4de8dec75d7aab85b567b6ccd41ad312451b948a7413f0a142fd40d49347",
                    "txbytes": "0xf9011e800a843a821b8094095e7baea6a6c7c4c2dfeb977efac326af552d878410596fafb8b87fffffffffffffffffffffffffffffffffffffffffffffffffffffffffffffffff7fffffffffffffffffffffffffffffffffffffffffffffffffffffffffffffffff44457f0000000000000000000000010000000000000000000000000000000000000000037ffffffffffffffffffffffffffffffffffffffffffffffffffffffffffffffffe7fffffffffffffffffffffffffffffffffffffffffffffffffffffffffffffffff6f318d0707977199361171756f6d458e1ba01b583ee061018d3b56cd84058f2a1474c73f26f80f4ec5b68a38012ae6dfd922a0535fb32d77eee5e6a400e4bdb892a9915e9b1da4a786bc8f48d3b30eaef3d8b9",
                    "indexes": {
                        "data": 0,
                        "gas": 0,
                        "value": 0
                    }
                }
            ],
            "ETC_Mystique": [
                {
                    "hash": "ea02ca7a325d82a10aba5ea08e3413c5d29f29277e40859c8ae61d46a9dc4a80",
                    "logs": "1dcc4de8dec75d7aab85b567b6ccd41ad312451b948a7413f0a142fd40d49347",
                    "txbytes": "0xf9011e800a843a821b8094095e7baea6a6c7c4c2dfeb977efac326af552d878410596fafb8b87fffffffffffffffffffffffffffffffffffffffffffffffffffffffffffffffff7fffffffffffffffffffffffffffffffffffffffffffffffffffffffffffffffff44457f0000000000000000000000010000000000000000000000000000000000000000037ffffffffffffffffffffffffffffffffffffffffffffffffffffffffffffffffe7fffffffffffffffffffffffffffffffffffffffffffffffffffffffffffffffff6f318d0707977199361171756f6d458e1ba01b583ee061018d3b56cd84058f2a1474c73f26f80f4ec5b68a38012ae6dfd922a0535fb32d77eee5e6a400e4bdb892a9915e9b1da4a786bc8f48d3b30eaef3d8b9",
                    "indexes": {
                        "data": 0,
                        "gas": 0,
                        "value": 0
                    }
                }
            ],
            "ETC_Phoenix": [
                {
                    "hash": "5d3d64289cb394d90530ab9f82d3cc3073b2a7a7d46b944b7e0e1b2177bf078a",
                    "logs": "1dcc4de8dec75d7aab85b567b6ccd41ad312451b948a7413f0a142fd40d49347",
                    "txbytes": "0xf9011e800a843a821b8094095e7baea6a6c7c4c2dfeb977efac326af552d878410596fafb8b87fffffffffffffffffffffffffffffffffffffffffffffffffffffffffffffffff7fffffffffffffffffffffffffffffffffffffffffffffffffffffffffffffffff44457f0000000000000000000000010000000000000000000000000000000000000000037ffffffffffffffffffffffffffffffffffffffffffffffffffffffffffffffffe7fffffffffffffffffffffffffffffffffffffffffffffffffffffffffffffffff6f318d0707977199361171756f6d458e1ba01b583ee061018d3b56cd84058f2a1474c73f26f80f4ec5b68a38012ae6dfd922a0535fb32d77eee5e6a400e4bdb892a9915e9b1da4a786bc8f48d3b30eaef3d8b9",
                    "indexes": {
                        "data": 0,
                        "gas": 0,
                        "value": 0
                    }
                }
            ]
        }
    }
}