{
    "randomStatetest407": {
        "_info": {
            "comment": "",
            "filling-rpc-server": "evm version 1.10.16-unstable-0f893109-20220105",
            "filling-tool-version": "retesteth-0.2.2-testinfo+commit.01c6aac2.Linux.g++",
            "filledWith": "CoreGeth-1.12.9-unstable-ab16c56768f0284ab56a30aac9550d3ebdc45901",
            "lllcversion": "Version: 0.5.14-develop.2021.11.27+commit.401d5358.Linux.g++",
            "source": "src/GeneralStateTestsFiller/stRandom2/randomStatetest407Filler.json",
            "sourceHash": "ba524f3d265415df355e130434f3677dabf6b0a3a8e7350bd26f81aa88da1eef"
        },
        "env": {
            "currentCoinbase": "0x945304eb96065b2a98b57a48a06ae28d285a71b5",
            "currentDifficulty": "0x20000",
            "currentGasLimit": "0x7fffffffffffffff",
            "currentNumber": "0x1",
            "currentTimestamp": "0x3e8",
            "currentBaseFee": "0xa",
            "previousHash": "0x5e20a0453cecd065ea59c37ac63e079ee08998b6045136a8ce6635c7912ec0b6"
        },
        "pre": {
            "0x095e7baea6a6c7c4c2dfeb977efac326af552d87": {
                "code": "0x7f000000000000000000000000ffffffffffffffffffffffffffffffffffffffff437ffffffffffffffffffffffffffffffffffffffffffffffffffffffffffffffffe7ffffffffffffffffffffffffffffffffffffffffffffffffffffffffffffffffe7f000000000000000000000000000000000000000000000000000000000000c350437f00000000000000000000000000000000000000000000000000000000000000007f000000000000000000000000945304eb96065b2a98b57a48a06ae28d285a71b56f6d71656f054471181163037902615b5560005155",
                "balance": "0x0"
            },
            "0x945304eb96065b2a98b57a48a06ae28d285a71b5": {
                "code": "0x6000355415600957005b60203560003555",
                "balance": "0x2e"
            },
            "0xa94f5374fce5edbc8e2a8697c15331677e6ebf0b": {
                "balance": "0xde0b6b3a7640000"
            }
        },
        "transaction": {
            "gasPrice": "0xa",
            "nonce": "0x0",
            "to": "0x095e7baea6a6c7c4c2dfeb977efac326af552d87",
            "data": [
                "0x7f000000000000000000000000ffffffffffffffffffffffffffffffffffffffff437ffffffffffffffffffffffffffffffffffffffffffffffffffffffffffffffffe7ffffffffffffffffffffffffffffffffffffffffffffffffffffffffffffffffe7f000000000000000000000000000000000000000000000000000000000000c350437f00000000000000000000000000000000000000000000000000000000000000007f000000000000000000000000945304eb96065b2a98b57a48a06ae28d285a71b56f6d71656f054471181163037902615b"
            ],
            "gasLimit": [
                "0x4bd85812"
            ],
            "value": [
                "0x313547f8"
            ],
            "secretKey": "0x45a915e4d060149eb4365960e6a7a45f334393093061116b197e3240065ff2d8",
            "sender": "0xa94f5374fce5edbc8e2a8697c15331677e6ebf0b"
        },
        "post": {
            "ETC_Magneto": [
                {
                    "hash": "afe9a6de43556a56b45b0f71dda3a32b7dc51514384a7f0e8c449eb4f84024e8",
                    "logs": "1dcc4de8dec75d7aab85b567b6ccd41ad312451b948a7413f0a142fd40d49347",
                    "txbytes": "0xf9013e800a844bd8581294095e7baea6a6c7c4c2dfeb977efac326af552d8784313547f8b8d87f000000000000000000000000ffffffffffffffffffffffffffffffffffffffff437ffffffffffffffffffffffffffffffffffffffffffffffffffffffffffffffffe7ffffffffffffffffffffffffffffffffffffffffffffffffffffffffffffffffe7f000000000000000000000000000000000000000000000000000000000000c350437f00000000000000000000000000000000000000000000000000000000000000007f000000000000000000000000945304eb96065b2a98b57a48a06ae28d285a71b56f6d71656f054471181163037902615b1ba0cbb0f1ba501651e39fd6ee20cbcc3d8ee8e014b5e9ad1d86ac3f6f6598caab58a01a50d26539d0b565db56f1d020ddcb1ecea9fb9dcf4147a8e194dafc786f1bb5",
                    "indexes": {
                        "data": 0,
                        "gas": 0,
                        "value": 0
                    }
                }
            ],
            "ETC_Mystique": [
                {
                    "hash": "afe9a6de43556a56b45b0f71dda3a32b7dc51514384a7f0e8c449eb4f84024e8",
                    "logs": "1dcc4de8dec75d7aab85b567b6ccd41ad312451b948a7413f0a142fd40d49347",
                    "txbytes": "0xf9013e800a844bd8581294095e7baea6a6c7c4c2dfeb977efac326af552d8784313547f8b8d87f000000000000000000000000ffffffffffffffffffffffffffffffffffffffff437ffffffffffffffffffffffffffffffffffffffffffffffffffffffffffffffffe7ffffffffffffffffffffffffffffffffffffffffffffffffffffffffffffffffe7f000000000000000000000000000000000000000000000000000000000000c350437f00000000000000000000000000000000000000000000000000000000000000007f000000000000000000000000945304eb96065b2a98b57a48a06ae28d285a71b56f6d71656f054471181163037902615b1ba0cbb0f1ba501651e39fd6ee20cbcc3d8ee8e014b5e9ad1d86ac3f6f6598caab58a01a50d26539d0b565db56f1d020ddcb1ecea9fb9dcf4147a8e194dafc786f1bb5",
                    "indexes": {
                        "data": 0,
                        "gas": 0,
                        "value": 0
                    }
                }
            ],
            "ETC_Phoenix": [
                {
                    "hash": "ffff075bcbcc2b5830dff189f79d8ec019e78e7bd6181d88755eec2fe1e261cf",
                    "logs": "1dcc4de8dec75d7aab85b567b6ccd41ad312451b948a7413f0a142fd40d49347",
                    "txbytes": "0xf9013e800a844bd8581294095e7baea6a6c7c4c2dfeb977efac326af552d8784313547f8b8d87f000000000000000000000000ffffffffffffffffffffffffffffffffffffffff437ffffffffffffffffffffffffffffffffffffffffffffffffffffffffffffffffe7ffffffffffffffffffffffffffffffffffffffffffffffffffffffffffffffffe7f000000000000000000000000000000000000000000000000000000000000c350437f00000000000000000000000000000000000000000000000000000000000000007f000000000000000000000000945304eb96065b2a98b57a48a06ae28d285a71b56f6d71656f054471181163037902615b1ba0cbb0f1ba501651e39fd6ee20cbcc3d8ee8e014b5e9ad1d86ac3f6f6598caab58a01a50d26539d0b565db56f1d020ddcb1ecea9fb9dcf4147a8e194dafc786f1bb5",
                    "indexes": {
                        "data": 0,
                        "gas": 0,
                        "value": 0
                    }
                }
            ]
        }
    }
}