{
    "randomStatetest588": {
        "_info": {
            "comment": "",
            "filling-rpc-server": "evm version 1.10.16-unstable-0f893109-20220105",
            "filling-tool-version": "retesteth-0.2.2-testinfo+commit.01c6aac2.Linux.g++",
            "filledWith": "CoreGeth-1.12.9-unstable-4cf5b2b0837228e7d5eadba6a01ffb80e9288e21",
            "lllcversion": "Version: 0.5.14-develop.2021.11.27+commit.401d5358.Linux.g++",
            "source": "src/GeneralStateTestsFiller/stRandom2/randomStatetest588Filler.json",
            "sourceHash": "272e8eafedf1b2ff084fdafdda0c2db96638ca7fdd3c5704bb82e28c7df685d5"
        },
        "env": {
            "currentCoinbase": "0x945304eb96065b2a98b57a48a06ae28d285a71b5",
            "currentDifficulty": "0x20000",
            "currentGasLimit": "0x7fffffffffffffff",
            "currentNumber": "0x1",
            "currentTimestamp": "0x3e8",
            "previousHash": "0x5e20a0453cecd065ea59c37ac63e079ee08998b6045136a8ce6635c7912ec0b6"
        },
        "pre": {
            "0x095e7baea6a6c7c4c2dfeb977efac326af552d87": {
                "code": "0x7fffffffffffffffffffffffffffffffffffffffffffffffffffffffffffffffff41437f00000000000000000000000000000000000000000000000000000000000000017f000000000000000000000000000000000000000000000000000000000000c3507f00000000000000000000000000000000000000000000000000000000000000017fffffffffffffffffffffffffffffffffffffffffffffffffffffffffffffffff43063760005155",
                "balance": "0x0",
                "nonce": "0x0"
            },
            "0x945304eb96065b2a98b57a48a06ae28d285a71b5": {
                "code": "0x6000355415600957005b60203560003555",
                "balance": "0x2e",
                "nonce": "0x0"
            },
            "0xa94f5374fce5edbc8e2a8697c15331677e6ebf0b": {
                "code": "0x",
                "balance": "0xde0b6b3a7640000",
                "nonce": "0x0"
            }
        },
        "transaction": {
            "gasPrice": "0xa",
            "nonce": "0x0",
            "to": "0x095e7baea6a6c7c4c2dfeb977efac326af552d87",
            "data": [
                "0x7fffffffffffffffffffffffffffffffffffffffffffffffffffffffffffffffff41437f00000000000000000000000000000000000000000000000000000000000000017f000000000000000000000000000000000000000000000000000000000000c3507f00000000000000000000000000000000000000000000000000000000000000017fffffffffffffffffffffffffffffffffffffffffffffffffffffffffffffffff430637"
            ],
            "gasLimit": [
                "0x1008ed34"
            ],
            "value": [
                "0x66d6bc77"
            ],
            "secretKey": "0x45a915e4d060149eb4365960e6a7a45f334393093061116b197e3240065ff2d8",
            "sender": "0xa94f5374fce5edbc8e2a8697c15331677e6ebf0b"
        },
        "post": {
            "ETC_Magneto": [
                {
                    "hash": "c15946adbcb29c4d8665bc93f046dc583f8ddc9f8ed36dd63fd36f74511fce41",
                    "logs": "1dcc4de8dec75d7aab85b567b6ccd41ad312451b948a7413f0a142fd40d49347",
                    "txbytes": "0xf90110800a841008ed3494095e7baea6a6c7c4c2dfeb977efac326af552d878466d6bc77b8aa7fffffffffffffffffffffffffffffffffffffffffffffffffffffffffffffffff41437f00000000000000000000000000000000000000000000000000000000000000017f000000000000000000000000000000000000000000000000000000000000c3507f00000000000000000000000000000000000000000000000000000000000000017fffffffffffffffffffffffffffffffffffffffffffffffffffffffffffffffff4306371ba0c4e9422e3b177d91fc7dd3c1db051c5173571a0ced9c5e45e51a4fc4f453bfb3a07cc650dd622527f0057b4d587f5bf27c4bd41784cdc75df0cb5a002ec247c5af",
                    "indexes": {
                        "data": 0,
                        "gas": 0,
                        "value": 0
                    }
                }
            ],
            "ETC_Mystique": [
                {
                    "hash": "c15946adbcb29c4d8665bc93f046dc583f8ddc9f8ed36dd63fd36f74511fce41",
                    "logs": "1dcc4de8dec75d7aab85b567b6ccd41ad312451b948a7413f0a142fd40d49347",
                    "txbytes": "0xf90110800a841008ed3494095e7baea6a6c7c4c2dfeb977efac326af552d878466d6bc77b8aa7fffffffffffffffffffffffffffffffffffffffffffffffffffffffffffffffff41437f00000000000000000000000000000000000000000000000000000000000000017f000000000000000000000000000000000000000000000000000000000000c3507f00000000000000000000000000000000000000000000000000000000000000017fffffffffffffffffffffffffffffffffffffffffffffffffffffffffffffffff4306371ba0c4e9422e3b177d91fc7dd3c1db051c5173571a0ced9c5e45e51a4fc4f453bfb3a07cc650dd622527f0057b4d587f5bf27c4bd41784cdc75df0cb5a002ec247c5af",
                    "indexes": {
                        "data": 0,
                        "gas": 0,
                        "value": 0
                    }
                }
            ],
            "ETC_Phoenix": [
                {
                    "hash": "6288c92ee0aec24f9dd3693f94d84fe0bff00a84b8eb641789483a499789fcf9",
                    "logs": "1dcc4de8dec75d7aab85b567b6ccd41ad312451b948a7413f0a142fd40d49347",
                    "txbytes": "0xf90110800a841008ed3494095e7baea6a6c7c4c2dfeb977efac326af552d878466d6bc77b8aa7fffffffffffffffffffffffffffffffffffffffffffffffffffffffffffffffff41437f00000000000000000000000000000000000000000000000000000000000000017f000000000000000000000000000000000000000000000000000000000000c3507f00000000000000000000000000000000000000000000000000000000000000017fffffffffffffffffffffffffffffffffffffffffffffffffffffffffffffffff4306371ba0c4e9422e3b177d91fc7dd3c1db051c5173571a0ced9c5e45e51a4fc4f453bfb3a07cc650dd622527f0057b4d587f5bf27c4bd41784cdc75df0cb5a002ec247c5af",
                    "indexes": {
                        "data": 0,
                        "gas": 0,
                        "value": 0
                    }
                }
            ]
        }
    }
}