{
    "randomStatetest621": {
        "_info": {
            "comment": "",
            "filling-rpc-server": "evm version 1.10.16-unstable-0f893109-20220105",
            "filling-tool-version": "retesteth-0.2.2-testinfo+commit.01c6aac2.Linux.g++",
            "filledWith": "CoreGeth-1.12.9-unstable-4d59a861107c8232d6896811c48f229d30087be4",
            "lllcversion": "Version: 0.5.14-develop.2021.11.27+commit.401d5358.Linux.g++",
            "source": "src/GeneralStateTestsFiller/stRandom2/randomStatetest621Filler.json",
            "sourceHash": "7e40ff90553344a68e777bfeb950579d1f730265015d970cfb41ee3289df5d11"
        },
        "env": {
            "currentCoinbase": "0x945304eb96065b2a98b57a48a06ae28d285a71b5",
            "currentDifficulty": "0x20000",
            "currentGasLimit": "0x7fffffffffffffff",
            "currentNumber": "0x1",
            "currentTimestamp": "0x3e8",
            "currentBaseFee": "0xa",
            "previousHash": "0x5e20a0453cecd065ea59c37ac63e079ee08998b6045136a8ce6635c7912ec0b6"
        },
        "pre": {
            "0x095e7baea6a6c7c4c2dfeb977efac326af552d87": {
                "code": "0x7f000000000000000000000000ffffffffffffffffffffffffffffffffffffffff7f000000000000000000000000945304eb96065b2a98b57a48a06ae28d285a71b57f000000000000000000000000945304eb96065b2a98b57a48a06ae28d285a71b57f0000000000000000000000000000000000000000000000000000000000000000441a7f000000000000000000000000ffffffffffffffffffffffffffffffffffffffff6f3ba187a19366899e595220741232905b60005155",
                "balance": "0x0"
            },
            "0x945304eb96065b2a98b57a48a06ae28d285a71b5": {
                "code": "0x6000355415600957005b60203560003555",
                "balance": "0x2e"
            },
            "0xa94f5374fce5edbc8e2a8697c15331677e6ebf0b": {
                "balance": "0xde0b6b3a7640000"
            }
        },
        "transaction": {
            "gasPrice": "0xa",
            "nonce": "0x0",
            "to": "0x095e7baea6a6c7c4c2dfeb977efac326af552d87",
            "data": [
                "0x7f000000000000000000000000ffffffffffffffffffffffffffffffffffffffff7f000000000000000000000000945304eb96065b2a98b57a48a06ae28d285a71b57f000000000000000000000000945304eb96065b2a98b57a48a06ae28d285a71b57f0000000000000000000000000000000000000000000000000000000000000000441a7f000000000000000000000000ffffffffffffffffffffffffffffffffffffffff6f3ba187a19366899e595220741232905b"
            ],
            "gasLimit": [
                "0x660d9780"
            ],
            "value": [
                "0x7fc94217"
            ],
            "secretKey": "0x45a915e4d060149eb4365960e6a7a45f334393093061116b197e3240065ff2d8",
            "sender": "0xa94f5374fce5edbc8e2a8697c15331677e6ebf0b"
        },
        "post": {
            "ETC_Magneto": [
                {
                    "hash": "401fcab7750456e5eeee9bd647b7f686e34ae7b33d29533d0ae26c7c8d7bc4e0",
                    "logs": "1dcc4de8dec75d7aab85b567b6ccd41ad312451b948a7413f0a142fd40d49347",
                    "txbytes": "0xf9011e800a84660d978094095e7baea6a6c7c4c2dfeb977efac326af552d87847fc94217b8b87f000000000000000000000000ffffffffffffffffffffffffffffffffffffffff7f000000000000000000000000945304eb96065b2a98b57a48a06ae28d285a71b57f000000000000000000000000945304eb96065b2a98b57a48a06ae28d285a71b57f0000000000000000000000000000000000000000000000000000000000000000441a7f000000000000000000000000ffffffffffffffffffffffffffffffffffffffff6f3ba187a19366899e595220741232905b1ca0caf8eec406890938ab7fdeea93f5f873684bbe817a9063a7d7129b6e72d59b92a04decf9e585838e022589da74a1bcbe75d3f2389f5ca071af3de451a4afcfb46e",
                    "indexes": {
                        "data": 0,
                        "gas": 0,
                        "value": 0
                    }
                }
            ],
            "ETC_Mystique": [
                {
                    "hash": "401fcab7750456e5eeee9bd647b7f686e34ae7b33d29533d0ae26c7c8d7bc4e0",
                    "logs": "1dcc4de8dec75d7aab85b567b6ccd41ad312451b948a7413f0a142fd40d49347",
                    "txbytes": "0xf9011e800a84660d978094095e7baea6a6c7c4c2dfeb977efac326af552d87847fc94217b8b87f000000000000000000000000ffffffffffffffffffffffffffffffffffffffff7f000000000000000000000000945304eb96065b2a98b57a48a06ae28d285a71b57f000000000000000000000000945304eb96065b2a98b57a48a06ae28d285a71b57f0000000000000000000000000000000000000000000000000000000000000000441a7f000000000000000000000000ffffffffffffffffffffffffffffffffffffffff6f3ba187a19366899e595220741232905b1ca0caf8eec406890938ab7fdeea93f5f873684bbe817a9063a7d7129b6e72d59b92a04decf9e585838e022589da74a1bcbe75d3f2389f5ca071af3de451a4afcfb46e",
                    "indexes": {
                        "data": 0,
                        "gas": 0,
                        "value": 0
                    }
                }
            ],
            "ETC_Phoenix": [
                {
                    "hash": "504fe622e8f4b413264a2ae0ffacf9bd900b3c40c2f276c3afaa554792eeb08c",
                    "logs": "1dcc4de8dec75d7aab85b567b6ccd41ad312451b948a7413f0a142fd40d49347",
                    "txbytes": "0xf9011e800a84660d978094095e7baea6a6c7c4c2dfeb977efac326af552d87847fc94217b8b87f000000000000000000000000ffffffffffffffffffffffffffffffffffffffff7f000000000000000000000000945304eb96065b2a98b57a48a06ae28d285a71b57f000000000000000000000000945304eb96065b2a98b57a48a06ae28d285a71b57f0000000000000000000000000000000000000000000000000000000000000000441a7f000000000000000000000000ffffffffffffffffffffffffffffffffffffffff6f3ba187a19366899e595220741232905b1ca0caf8eec406890938ab7fdeea93f5f873684bbe817a9063a7d7129b6e72d59b92a04decf9e585838e022589da74a1bcbe75d3f2389f5ca071af3de451a4afcfb46e",
                    "indexes": {
                        "data": 0,
                        "gas": 0,
                        "value": 0
                    }
                }
            ]
        }
    }
}