{
    "randomStatetest481": {
        "_info": {
            "comment": "",
            "filling-rpc-server": "evm version 1.10.16-unstable-0f893109-20220105",
            "filling-tool-version": "retesteth-0.2.2-testinfo+commit.01c6aac2.Linux.g++",
            "filledWith": "CoreGeth-1.12.9-unstable-d390462df9df233b60b4cd7a37db5b3043832022",
            "lllcversion": "Version: 0.5.14-develop.2021.11.27+commit.401d5358.Linux.g++",
            "source": "src/GeneralStateTestsFiller/stRandom2/randomStatetest481Filler.json",
            "sourceHash": "960572fd05dc7873dbe3da341f237932a3cedacfb521463a7d5ca5a6d4d3178f"
        },
        "env": {
            "currentCoinbase": "0x945304eb96065b2a98b57a48a06ae28d285a71b5",
            "currentDifficulty": "0x20000",
            "currentGasLimit": "0x7fffffffffffffff",
            "currentNumber": "0x1",
            "currentTimestamp": "0x3e8",
            "previousHash": "0x5e20a0453cecd065ea59c37ac63e079ee08998b6045136a8ce6635c7912ec0b6"
        },
        "pre": {
            "0x095e7baea6a6c7c4c2dfeb977efac326af552d87": {
                "code": "0x447f00000000000000000000000000000000000000000000000000000000000000017f000000000000000000000000ffffffffffffffffffffffffffffffffffffffff7fffffffffffffffffffffffffffffffffffffffffffffffffffffffffffffffff7f000000000000000000000000ffffffffffffffffffffffffffffffffffffffff09437f0000000000000000000000010000000000000000000000000000000000000000a2695a7d52064361127350",
                "balance": "0x0",
                "nonce": "0x0"
            },
            "0x945304eb96065b2a98b57a48a06ae28d285a71b5": {
                "code": "0x6000355415600957005b60203560003555",
                "balance": "0x2e",
                "nonce": "0x0"
            },
            "0xa94f5374fce5edbc8e2a8697c15331677e6ebf0b": {
                "code": "0x",
                "balance": "0xde0b6b3a7640000",
                "nonce": "0x0"
            }
        },
        "transaction": {
            "gasPrice": "0xa",
            "nonce": "0x0",
            "to": "0x095e7baea6a6c7c4c2dfeb977efac326af552d87",
            "data": [
                "0x447f00000000000000000000000000000000000000000000000000000000000000017f000000000000000000000000ffffffffffffffffffffffffffffffffffffffff7fffffffffffffffffffffffffffffffffffffffffffffffffffffffffffffffff7f000000000000000000000000ffffffffffffffffffffffffffffffffffffffff09437f0000000000000000000000010000000000000000000000000000000000000000a2695a7d52064361127350"
            ],
            "gasLimit": [
                "0x209cf2a2"
            ],
            "value": [
                "0x430c0389"
            ],
            "secretKey": "0x45a915e4d060149eb4365960e6a7a45f334393093061116b197e3240065ff2d8",
            "sender": "0xa94f5374fce5edbc8e2a8697c15331677e6ebf0b"
        },
        "post": {
            "ETC_Magneto": [
                {
                    "hash": "c81a786adc04e6c89176f9edde90dafa868d288dba8d85f632ef21af32398cdf",
                    "logs": "1dcc4de8dec75d7aab85b567b6ccd41ad312451b948a7413f0a142fd40d49347",
                    "txbytes": "0xf90119800a84209cf2a294095e7baea6a6c7c4c2dfeb977efac326af552d8784430c0389b8b3447f00000000000000000000000000000000000000000000000000000000000000017f000000000000000000000000ffffffffffffffffffffffffffffffffffffffff7fffffffffffffffffffffffffffffffffffffffffffffffffffffffffffffffff7f000000000000000000000000ffffffffffffffffffffffffffffffffffffffff09437f0000000000000000000000010000000000000000000000000000000000000000a2695a7d520643611273501ca052840b54bed7c9d76df885448cab3a571bdca8bd69da6b2fd8cd7bc98e48544ea0567a36f8bb35123944c5745c666ac2c2e2889b138c98719736a5f04d9db523b7",
                    "indexes": {
                        "data": 0,
                        "gas": 0,
                        "value": 0
                    }
                }
            ],
            "ETC_Mystique": [
                {
                    "hash": "c81a786adc04e6c89176f9edde90dafa868d288dba8d85f632ef21af32398cdf",
                    "logs": "1dcc4de8dec75d7aab85b567b6ccd41ad312451b948a7413f0a142fd40d49347",
                    "txbytes": "0xf90119800a84209cf2a294095e7baea6a6c7c4c2dfeb977efac326af552d8784430c0389b8b3447f00000000000000000000000000000000000000000000000000000000000000017f000000000000000000000000ffffffffffffffffffffffffffffffffffffffff7fffffffffffffffffffffffffffffffffffffffffffffffffffffffffffffffff7f000000000000000000000000ffffffffffffffffffffffffffffffffffffffff09437f0000000000000000000000010000000000000000000000000000000000000000a2695a7d520643611273501ca052840b54bed7c9d76df885448cab3a571bdca8bd69da6b2fd8cd7bc98e48544ea0567a36f8bb35123944c5745c666ac2c2e2889b138c98719736a5f04d9db523b7",
                    "indexes": {
                        "data": 0,
                        "gas": 0,
                        "value": 0
                    }
                }
            ],
            "ETC_Phoenix": [
                {
                    "hash": "c81a786adc04e6c89176f9edde90dafa868d288dba8d85f632ef21af32398cdf",
                    "logs": "1dcc4de8dec75d7aab85b567b6ccd41ad312451b948a7413f0a142fd40d49347",
                    "txbytes": "0xf90119800a84209cf2a294095e7baea6a6c7c4c2dfeb977efac326af552d8784430c0389b8b3447f00000000000000000000000000000000000000000000000000000000000000017f000000000000000000000000ffffffffffffffffffffffffffffffffffffffff7fffffffffffffffffffffffffffffffffffffffffffffffffffffffffffffffff7f000000000000000000000000ffffffffffffffffffffffffffffffffffffffff09437f0000000000000000000000010000000000000000000000000000000000000000a2695a7d520643611273501ca052840b54bed7c9d76df885448cab3a571bdca8bd69da6b2fd8cd7bc98e48544ea0567a36f8bb35123944c5745c666ac2c2e2889b138c98719736a5f04d9db523b7",
                    "indexes": {
                        "data": 0,
                        "gas": 0,
                        "value": 0
                    }
                }
            ]
        }
    }
}