{
    "randomStatetest647": {
        "_info": {
            "comment": "Malicious bytecode found by fuzztest tool: returndatacopy(0,-1)",
            "filling-rpc-server": "evm version 1.10.16-unstable-0f893109-20220105",
            "filling-tool-version": "retesteth-0.2.2-testinfo+commit.01c6aac2.Linux.g++",
            "filledWith": "CoreGeth-1.12.9-unstable-d390462df9df233b60b4cd7a37db5b3043832022",
            "lllcversion": "Version: 0.5.14-develop.2021.11.27+commit.401d5358.Linux.g++",
            "source": "src/GeneralStateTestsFiller/stRandom2/randomStatetest647Filler.json",
            "sourceHash": "9ed237d893ad7583d114963ac3ca82d7891865d4b8c0daf261b67f4689956017"
        },
        "env": {
            "currentCoinbase": "0xd94f5374fce5edbc8e2a8697c15331677e6ebf0b",
            "currentDifficulty": "0x20000",
            "currentGasLimit": "0x42fe8c95373ea1",
            "currentNumber": "0x1",
            "currentTimestamp": "0x3e8",
            "previousHash": "0xb9cdadfa4eb6b43788795e580e7cb36b4c85348412173e7bb3b9e7e954f7949f"
        },
        "pre": {
            "0xa94f5374fce5edbc8e2a8697c15331677e6ebf0b": {
                "code": "0x",
                "balance": "0x174876e800",
                "nonce": "0x0"
            },
            "0xc94f5374fce5edbc8e2a8697c15331677e6ebf0b": {
                "code": "0x6001600160000360003e00",
                "balance": "0x0",
                "nonce": "0x7"
            }
        },
        "transaction": {
            "gasPrice": "0xa",
            "nonce": "0x0",
            "to": "0xc94f5374fce5edbc8e2a8697c15331677e6ebf0b",
            "data": [
                "0x"
            ],
            "gasLimit": [
                "0x584d31"
            ],
            "value": [
                "0x00"
            ],
            "secretKey": "0x45a915e4d060149eb4365960e6a7a45f334393093061116b197e3240065ff2d8",
            "sender": "0xa94f5374fce5edbc8e2a8697c15331677e6ebf0b"
        },
        "post": {
            "ETC_Magneto": [
                {
                    "hash": "27cde8a956b7dd219a0a14815b7d7f96233adc1cfeda249a583c94509ae7b18a",
                    "logs": "1dcc4de8dec75d7aab85b567b6ccd41ad312451b948a7413f0a142fd40d49347",
                    "txbytes": "0xf860800a83584d3194c94f5374fce5edbc8e2a8697c15331677e6ebf0b80801ca0fe5fa660ebd840483797cfadae975d735b9d0dbdee958c4f9348a05cd6f48b68a068aef8408342266d09d497047888c3478be544da87824a6b88c071ffd90fc79a",
                    "indexes": {
                        "data": 0,
                        "gas": 0,
                        "value": 0
                    }
                }
            ],
            "ETC_Mystique": [
                {
                    "hash": "27cde8a956b7dd219a0a14815b7d7f96233adc1cfeda249a583c94509ae7b18a",
                    "logs": "1dcc4de8dec75d7aab85b567b6ccd41ad312451b948a7413f0a142fd40d49347",
                    "txbytes": "0xf860800a83584d3194c94f5374fce5edbc8e2a8697c15331677e6ebf0b80801ca0fe5fa660ebd840483797cfadae975d735b9d0dbdee958c4f9348a05cd6f48b68a068aef8408342266d09d497047888c3478be544da87824a6b88c071ffd90fc79a",
                    "indexes": {
                        "data": 0,
                        "gas": 0,
                        "value": 0
                    }
                }
            ],
            "ETC_Phoenix": [
                {
                    "hash": "27cde8a956b7dd219a0a14815b7d7f96233adc1cfeda249a583c94509ae7b18a",
                    "logs": "1dcc4de8dec75d7aab85b567b6ccd41ad312451b948a7413f0a142fd40d49347",
                    "txbytes": "0xf860800a83584d3194c94f5374fce5edbc8e2a8697c15331677e6ebf0b80801ca0fe5fa660ebd840483797cfadae975d735b9d0dbdee958c4f9348a05cd6f48b68a068aef8408342266d09d497047888c3478be544da87824a6b88c071ffd90fc79a",
                    "indexes": {
                        "data": 0,
                        "gas": 0,
                        "value": 0
                    }
                }
            ]
        }
    }
}