{
    "randomStatetest526": {
        "_info": {
            "comment": "",
            "filling-rpc-server": "evm version 1.10.16-unstable-0f893109-20220105",
            "filling-tool-version": "retesteth-0.2.2-testinfo+commit.01c6aac2.Linux.g++",
            "filledWith": "CoreGeth-1.12.9-unstable-4d59a861107c8232d6896811c48f229d30087be4",
            "lllcversion": "Version: 0.5.14-develop.2021.11.27+commit.401d5358.Linux.g++",
            "source": "src/GeneralStateTestsFiller/stRandom2/randomStatetest526Filler.json",
            "sourceHash": "8753b58209ef00ebba14ea8d75bb18364e8da5b50a8b856dc378bd3ff2060450"
        },
        "env": {
            "currentCoinbase": "0x945304eb96065b2a98b57a48a06ae28d285a71b5",
            "currentDifficulty": "0x20000",
            "currentGasLimit": "0x7fffffffffffffff",
            "currentNumber": "0x1",
            "currentTimestamp": "0x3e8",
            "currentBaseFee": "0xa",
            "previousHash": "0x5e20a0453cecd065ea59c37ac63e079ee08998b6045136a8ce6635c7912ec0b6"
        },
        "pre": {
            "0x095e7baea6a6c7c4c2dfeb977efac326af552d87": {
                "code": "0x7f00000000000000000000000100000000000000000000000000000000000000007f00000000000000000000000100000000000000000000000000000000000000007f00000000000000000000000000000000000000000000000000000000000000007f000000000000000000000000945304eb96065b2a98b57a48a06ae28d285a71b5417e7f000000000000000000000000945304eb96065b2a98b57a48a06ae28d285a71b5419e01950777810975058c746f5560005155",
                "balance": "0x0"
            },
            "0x945304eb96065b2a98b57a48a06ae28d285a71b5": {
                "code": "0x6000355415600957005b60203560003555",
                "balance": "0x2e"
            },
            "0xa94f5374fce5edbc8e2a8697c15331677e6ebf0b": {
                "balance": "0xde0b6b3a7640000"
            }
        },
        "transaction": {
            "gasPrice": "0xa",
            "nonce": "0x0",
            "to": "0x095e7baea6a6c7c4c2dfeb977efac326af552d87",
            "data": [
                "0x7f00000000000000000000000100000000000000000000000000000000000000007f00000000000000000000000100000000000000000000000000000000000000007f00000000000000000000000000000000000000000000000000000000000000007f000000000000000000000000945304eb96065b2a98b57a48a06ae28d285a71b5417e7f000000000000000000000000945304eb96065b2a98b57a48a06ae28d285a71b5419e01950777810975058c746f"
            ],
            "gasLimit": [
                "0x2d1d285d"
            ],
            "value": [
                "0x3aa8c462"
            ],
            "secretKey": "0x45a915e4d060149eb4365960e6a7a45f334393093061116b197e3240065ff2d8",
            "sender": "0xa94f5374fce5edbc8e2a8697c15331677e6ebf0b"
        },
        "post": {
            "ETC_Magneto": [
                {
                    "hash": "67ea008293b3744d5dfc19bae8e80834c101d21957c8357a295df217424a08c3",
                    "logs": "1dcc4de8dec75d7aab85b567b6ccd41ad312451b948a7413f0a142fd40d49347",
                    "txbytes": "0xf9011a800a842d1d285d94095e7baea6a6c7c4c2dfeb977efac326af552d87843aa8c462b8b47f00000000000000000000000100000000000000000000000000000000000000007f00000000000000000000000100000000000000000000000000000000000000007f00000000000000000000000000000000000000000000000000000000000000007f000000000000000000000000945304eb96065b2a98b57a48a06ae28d285a71b5417e7f000000000000000000000000945304eb96065b2a98b57a48a06ae28d285a71b5419e01950777810975058c746f1ba0cb7df8060641707105960a8482505e80c17bee228c47c6f56dc32c928db15839a03cde7c5381baa3e97b151f1fd4d4e44353b90cfaca9df92f914933b9146af43d",
                    "indexes": {
                        "data": 0,
                        "gas": 0,
                        "value": 0
                    }
                }
            ],
            "ETC_Mystique": [
                {
                    "hash": "67ea008293b3744d5dfc19bae8e80834c101d21957c8357a295df217424a08c3",
                    "logs": "1dcc4de8dec75d7aab85b567b6ccd41ad312451b948a7413f0a142fd40d49347",
                    "txbytes": "0xf9011a800a842d1d285d94095e7baea6a6c7c4c2dfeb977efac326af552d87843aa8c462b8b47f00000000000000000000000100000000000000000000000000000000000000007f00000000000000000000000100000000000000000000000000000000000000007f00000000000000000000000000000000000000000000000000000000000000007f000000000000000000000000945304eb96065b2a98b57a48a06ae28d285a71b5417e7f000000000000000000000000945304eb96065b2a98b57a48a06ae28d285a71b5419e01950777810975058c746f1ba0cb7df8060641707105960a8482505e80c17bee228c47c6f56dc32c928db15839a03cde7c5381baa3e97b151f1fd4d4e44353b90cfaca9df92f914933b9146af43d",
                    "indexes": {
                        "data": 0,
                        "gas": 0,
                        "value": 0
                    }
                }
            ],
            "ETC_Phoenix": [
                {
                    "hash": "416072cd2cec26c065111d017df144d2d25fbe1f13bcb20d29a1c549b731f572",
                    "logs": "1dcc4de8dec75d7aab85b567b6ccd41ad312451b948a7413f0a142fd40d49347",
                    "txbytes": "0xf9011a800a842d1d285d94095e7baea6a6c7c4c2dfeb977efac326af552d87843aa8c462b8b47f00000000000000000000000100000000000000000000000000000000000000007f00000000000000000000000100000000000000000000000000000000000000007f00000000000000000000000000000000000000000000000000000000000000007f000000000000000000000000945304eb96065b2a98b57a48a06ae28d285a71b5417e7f000000000000000000000000945304eb96065b2a98b57a48a06ae28d285a71b5419e01950777810975058c746f1ba0cb7df8060641707105960a8482505e80c17bee228c47c6f56dc32c928db15839a03cde7c5381baa3e97b151f1fd4d4e44353b90cfaca9df92f914933b9146af43d",
                    "indexes": {
                        "data": 0,
                        "gas": 0,
                        "value": 0
                    }
                }
            ]
        }
    }
}