{
    "randomStatetest541": {
        "_info": {
            "comment": "",
            "filling-rpc-server": "evm version 1.10.16-unstable-0f893109-20220105",
            "filling-tool-version": "retesteth-0.2.2-testinfo+commit.01c6aac2.Linux.g++",
            "filledWith": "CoreGeth-1.12.9-unstable-3995a327f2ded5c98324b03792b5ccc22557754f",
            "lllcversion": "Version: 0.5.14-develop.2021.11.27+commit.401d5358.Linux.g++",
            "source": "src/GeneralStateTestsFiller/stRandom2/randomStatetest541Filler.json",
            "sourceHash": "8847110db93461754e42d39f34d7f7e4673096413210ffcb70404ed0312f1464"
        },
        "env": {
            "currentCoinbase": "0x945304eb96065b2a98b57a48a06ae28d285a71b5",
            "currentDifficulty": "0x20000",
            "currentGasLimit": "0x7fffffffffffffff",
            "currentNumber": "0x1",
            "currentTimestamp": "0x3e8",
            "currentBaseFee": "0xa",
            "previousHash": "0x5e20a0453cecd065ea59c37ac63e079ee08998b6045136a8ce6635c7912ec0b6"
        },
        "pre": {
            "0x095e7baea6a6c7c4c2dfeb977efac326af552d87": {
                "code": "0x7f000000000000000000000000ffffffffffffffffffffffffffffffffffffffff457f000000000000000000000000000000000000000000000000000000000000c3507f00000000000000000000000000000000000000000000000000000000000000017f00000000000000000000000000000000000000000000000000000000000000007f00000000000000000000000100000000000000000000000000000000000000004335696e089257368d07897d57350b105560005155",
                "balance": "0x0"
            },
            "0x945304eb96065b2a98b57a48a06ae28d285a71b5": {
                "code": "0x6000355415600957005b60203560003555",
                "balance": "0x2e"
            },
            "0xa94f5374fce5edbc8e2a8697c15331677e6ebf0b": {
                "balance": "0xde0b6b3a7640000"
            }
        },
        "transaction": {
            "gasPrice": "0xa",
            "nonce": "0x0",
            "to": "0x095e7baea6a6c7c4c2dfeb977efac326af552d87",
            "data": [
                "0x7f000000000000000000000000ffffffffffffffffffffffffffffffffffffffff457f000000000000000000000000000000000000000000000000000000000000c3507f00000000000000000000000000000000000000000000000000000000000000017f00000000000000000000000000000000000000000000000000000000000000007f00000000000000000000000100000000000000000000000000000000000000004335696e089257368d07897d57350b10"
            ],
            "gasLimit": [
                "0x7b88a390"
            ],
            "value": [
                "0x1f529315"
            ],
            "secretKey": "0x45a915e4d060149eb4365960e6a7a45f334393093061116b197e3240065ff2d8",
            "sender": "0xa94f5374fce5edbc8e2a8697c15331677e6ebf0b"
        },
        "post": {
            "ETC_Magneto": [
                {
                    "hash": "912b98f68e27c22ba71132490a3adab8b0625f884aa4986f873dac5782095562",
                    "logs": "1dcc4de8dec75d7aab85b567b6ccd41ad312451b948a7413f0a142fd40d49347",
                    "txbytes": "0xf9011c800a847b88a39094095e7baea6a6c7c4c2dfeb977efac326af552d87841f529315b8b67f000000000000000000000000ffffffffffffffffffffffffffffffffffffffff457f000000000000000000000000000000000000000000000000000000000000c3507f00000000000000000000000000000000000000000000000000000000000000017f00000000000000000000000000000000000000000000000000000000000000007f00000000000000000000000100000000000000000000000000000000000000004335696e089257368d07897d57350b101ca0d5865738d1a69fbce75ab3640210fb434c52815aca05c545a6cc16e9fd2253efa0310bb8ab5df1fd1ee46115418e6bb894cbe62311085322bfc2d3edd6cf7664f4",
                    "indexes": {
                        "data": 0,
                        "gas": 0,
                        "value": 0
                    }
                }
            ],
            "ETC_Mystique": [
                {
                    "hash": "912b98f68e27c22ba71132490a3adab8b0625f884aa4986f873dac5782095562",
                    "logs": "1dcc4de8dec75d7aab85b567b6ccd41ad312451b948a7413f0a142fd40d49347",
                    "txbytes": "0xf9011c800a847b88a39094095e7baea6a6c7c4c2dfeb977efac326af552d87841f529315b8b67f000000000000000000000000ffffffffffffffffffffffffffffffffffffffff457f000000000000000000000000000000000000000000000000000000000000c3507f00000000000000000000000000000000000000000000000000000000000000017f00000000000000000000000000000000000000000000000000000000000000007f00000000000000000000000100000000000000000000000000000000000000004335696e089257368d07897d57350b101ca0d5865738d1a69fbce75ab3640210fb434c52815aca05c545a6cc16e9fd2253efa0310bb8ab5df1fd1ee46115418e6bb894cbe62311085322bfc2d3edd6cf7664f4",
                    "indexes": {
                        "data": 0,
                        "gas": 0,
                        "value": 0
                    }
                }
            ],
            "ETC_Phoenix": [
                {
                    "hash": "1ab67ec5ae47d196808ff5e6bc5d6cadf82ec6cff5893e645f3eab879ccf6bac",
                    "logs": "1dcc4de8dec75d7aab85b567b6ccd41ad312451b948a7413f0a142fd40d49347",
                    "txbytes": "0xf9011c800a847b88a39094095e7baea6a6c7c4c2dfeb977efac326af552d87841f529315b8b67f000000000000000000000000ffffffffffffffffffffffffffffffffffffffff457f000000000000000000000000000000000000000000000000000000000000c3507f00000000000000000000000000000000000000000000000000000000000000017f00000000000000000000000000000000000000000000000000000000000000007f00000000000000000000000100000000000000000000000000000000000000004335696e089257368d07897d57350b101ca0d5865738d1a69fbce75ab3640210fb434c52815aca05c545a6cc16e9fd2253efa0310bb8ab5df1fd1ee46115418e6bb894cbe62311085322bfc2d3edd6cf7664f4",
                    "indexes": {
                        "data": 0,
                        "gas": 0,
                        "value": 0
                    }
                }
            ]
        }
    }
}