{
    "randomStatetest416": {
        "_info": {
            "comment": "",
            "filling-rpc-server": "evm version 1.10.16-unstable-0f893109-20220105",
            "filling-tool-version": "retesteth-0.2.2-testinfo+commit.01c6aac2.Linux.g++",
            "filledWith": "CoreGeth-1.12.9-unstable-ab16c56768f0284ab56a30aac9550d3ebdc45901",
            "lllcversion": "Version: 0.5.14-develop.2021.11.27+commit.401d5358.Linux.g++",
            "source": "src/GeneralStateTestsFiller/stRandom2/randomStatetest416Filler.json",
            "sourceHash": "a531e070d510136126112d33ed5e0ff9592817897bbdb72b9dd0324adc532110"
        },
        "env": {
            "currentCoinbase": "0x945304eb96065b2a98b57a48a06ae28d285a71b5",
            "currentDifficulty": "0x20000",
            "currentGasLimit": "0x7fffffffffffffff",
            "currentNumber": "0x1",
            "currentTimestamp": "0x3e8",
            "currentBaseFee": "0xa",
            "previousHash": "0x5e20a0453cecd065ea59c37ac63e079ee08998b6045136a8ce6635c7912ec0b6"
        },
        "pre": {
            "0x095e7baea6a6c7c4c2dfeb977efac326af552d87": {
                "code": "0x7f00000000000000000000000000000000000000000000000000000000000000007f00000000000000000000000100000000000000000000000000000000000000007f00000000000000000000000000000000000000000000000000000000000000007f00000000000000000000000000000000000000000000000000000000000000017f000000000000000000000000ffffffffffffffffffffffffffffffffffffffff427f000000000000000000000000945304eb96065b2a98b57a48a06ae28d285a71b54355",
                "balance": "0x0"
            },
            "0x945304eb96065b2a98b57a48a06ae28d285a71b5": {
                "code": "0x6000355415600957005b60203560003555",
                "balance": "0x2e"
            },
            "0xa94f5374fce5edbc8e2a8697c15331677e6ebf0b": {
                "balance": "0xde0b6b3a7640000"
            }
        },
        "transaction": {
            "gasPrice": "0xa",
            "nonce": "0x0",
            "to": "0x095e7baea6a6c7c4c2dfeb977efac326af552d87",
            "data": [
                "0x7f00000000000000000000000000000000000000000000000000000000000000007f00000000000000000000000100000000000000000000000000000000000000007f00000000000000000000000000000000000000000000000000000000000000007f00000000000000000000000000000000000000000000000000000000000000017f000000000000000000000000ffffffffffffffffffffffffffffffffffffffff427f000000000000000000000000945304eb96065b2a98b57a48a06ae28d285a71b543"
            ],
            "gasLimit": [
                "0x27db6af5"
            ],
            "value": [
                "0x4f622410"
            ],
            "secretKey": "0x45a915e4d060149eb4365960e6a7a45f334393093061116b197e3240065ff2d8",
            "sender": "0xa94f5374fce5edbc8e2a8697c15331677e6ebf0b"
        },
        "post": {
            "ETC_Magneto": [
                {
                    "hash": "72cfafcb4eb994862d4fcfe768978d9d44373a4d5955f3b3ac4c6225faaba2a1",
                    "logs": "1dcc4de8dec75d7aab85b567b6ccd41ad312451b948a7413f0a142fd40d49347",
                    "txbytes": "0xf9012e800a8427db6af594095e7baea6a6c7c4c2dfeb977efac326af552d87844f622410b8c87f00000000000000000000000000000000000000000000000000000000000000007f00000000000000000000000100000000000000000000000000000000000000007f00000000000000000000000000000000000000000000000000000000000000007f00000000000000000000000000000000000000000000000000000000000000017f000000000000000000000000ffffffffffffffffffffffffffffffffffffffff427f000000000000000000000000945304eb96065b2a98b57a48a06ae28d285a71b5431ca01ea9a22d99780f881131fd6e7f8c183fb1dd671a9510fef68466e5d3220ce8d6a045d5af4e77e0920bfda96580a4f0fbca05c7be09e04e6ea7bfa21bacc99964e8",
                    "indexes": {
                        "data": 0,
                        "gas": 0,
                        "value": 0
                    }
                }
            ],
            "ETC_Mystique": [
                {
                    "hash": "72cfafcb4eb994862d4fcfe768978d9d44373a4d5955f3b3ac4c6225faaba2a1",
                    "logs": "1dcc4de8dec75d7aab85b567b6ccd41ad312451b948a7413f0a142fd40d49347",
                    "txbytes": "0xf9012e800a8427db6af594095e7baea6a6c7c4c2dfeb977efac326af552d87844f622410b8c87f00000000000000000000000000000000000000000000000000000000000000007f00000000000000000000000100000000000000000000000000000000000000007f00000000000000000000000000000000000000000000000000000000000000007f00000000000000000000000000000000000000000000000000000000000000017f000000000000000000000000ffffffffffffffffffffffffffffffffffffffff427f000000000000000000000000945304eb96065b2a98b57a48a06ae28d285a71b5431ca01ea9a22d99780f881131fd6e7f8c183fb1dd671a9510fef68466e5d3220ce8d6a045d5af4e77e0920bfda96580a4f0fbca05c7be09e04e6ea7bfa21bacc99964e8",
                    "indexes": {
                        "data": 0,
                        "gas": 0,
                        "value": 0
                    }
                }
            ],
            "ETC_Phoenix": [
                {
                    "hash": "c53779eaaf7ac41fa38d7b021f6f0be41bb43e2e3f3fc02f957dde871ca7e3e8",
                    "logs": "1dcc4de8dec75d7aab85b567b6ccd41ad312451b948a7413f0a142fd40d49347",
                    "txbytes": "0xf9012e800a8427db6af594095e7baea6a6c7c4c2dfeb977efac326af552d87844f622410b8c87f00000000000000000000000000000000000000000000000000000000000000007f00000000000000000000000100000000000000000000000000000000000000007f00000000000000000000000000000000000000000000000000000000000000007f00000000000000000000000000000000000000000000000000000000000000017f000000000000000000000000ffffffffffffffffffffffffffffffffffffffff427f000000000000000000000000945304eb96065b2a98b57a48a06ae28d285a71b5431ca01ea9a22d99780f881131fd6e7f8c183fb1dd671a9510fef68466e5d3220ce8d6a045d5af4e77e0920bfda96580a4f0fbca05c7be09e04e6ea7bfa21bacc99964e8",
                    "indexes": {
                        "data": 0,
                        "gas": 0,
                        "value": 0
                    }
                }
            ]
        }
    }
}