{
    "randomStatetest395": {
        "_info": {
            "comment": "",
            "filling-rpc-server": "evm version 1.10.16-unstable-0f893109-20220105",
            "filling-tool-version": "retesteth-0.2.2-testinfo+commit.01c6aac2.Linux.g++",
            "filledWith": "CoreGeth-1.12.9-unstable-d390462df9df233b60b4cd7a37db5b3043832022",
            "lllcversion": "Version: 0.5.14-develop.2021.11.27+commit.401d5358.Linux.g++",
            "source": "src/GeneralStateTestsFiller/stRandom2/randomStatetest395Filler.json",
            "sourceHash": "a5ae9f5139d2618e0b5c58adb07027675be70ec5bff4db8b69ee9be0becbef79"
        },
        "env": {
            "currentCoinbase": "0x945304eb96065b2a98b57a48a06ae28d285a71b5",
            "currentDifficulty": "0x20000",
            "currentGasLimit": "0x7fffffffffffffff",
            "currentNumber": "0x1",
            "currentTimestamp": "0x3e8",
            "previousHash": "0x5e20a0453cecd065ea59c37ac63e079ee08998b6045136a8ce6635c7912ec0b6"
        },
        "pre": {
            "0x095e7baea6a6c7c4c2dfeb977efac326af552d87": {
                "code": "0x447f0000000000000000000000000000000000000000000000000000000000000001417f00000000000000000000000000000000000000000000000000000000000000017f00000000000000000000000000000000000000000000000000000000000000007f000000000000000000000000000000000000000000000000000000000000c3507f000000000000000000000000ffffffffffffffffffffffffffffffffffffffff7fffffffffffffffffffffffffffffffffffffffffffffffffffffffffffffffff6f823140710bf13990e4500136726d8b5560005155",
                "balance": "0x0",
                "nonce": "0x0"
            },
            "0x945304eb96065b2a98b57a48a06ae28d285a71b5": {
                "code": "0x6000355415600957005b60203560003555",
                "balance": "0x2e",
                "nonce": "0x0"
            },
            "0xa94f5374fce5edbc8e2a8697c15331677e6ebf0b": {
                "code": "0x",
                "balance": "0xde0b6b3a7640000",
                "nonce": "0x0"
            }
        },
        "transaction": {
            "gasPrice": "0xa",
            "nonce": "0x0",
            "to": "0x095e7baea6a6c7c4c2dfeb977efac326af552d87",
            "data": [
                "0x447f0000000000000000000000000000000000000000000000000000000000000001417f00000000000000000000000000000000000000000000000000000000000000017f00000000000000000000000000000000000000000000000000000000000000007f000000000000000000000000000000000000000000000000000000000000c3507f000000000000000000000000ffffffffffffffffffffffffffffffffffffffff7fffffffffffffffffffffffffffffffffffffffffffffffffffffffffffffffff6f823140710bf13990e4500136726d8b"
            ],
            "gasLimit": [
                "0x4f2b2a3f"
            ],
            "value": [
                "0x5a9c61ef"
            ],
            "secretKey": "0x45a915e4d060149eb4365960e6a7a45f334393093061116b197e3240065ff2d8",
            "sender": "0xa94f5374fce5edbc8e2a8697c15331677e6ebf0b"
        },
        "post": {
            "ETC_Magneto": [
                {
                    "hash": "2e294fc788c97dabe826b51ffa34044cf1be0e20d5cf496adb56f1a448e92b44",
                    "logs": "1dcc4de8dec75d7aab85b567b6ccd41ad312451b948a7413f0a142fd40d49347",
                    "txbytes": "0xf9013e800a844f2b2a3f94095e7baea6a6c7c4c2dfeb977efac326af552d87845a9c61efb8d8447f0000000000000000000000000000000000000000000000000000000000000001417f00000000000000000000000000000000000000000000000000000000000000017f00000000000000000000000000000000000000000000000000000000000000007f000000000000000000000000000000000000000000000000000000000000c3507f000000000000000000000000ffffffffffffffffffffffffffffffffffffffff7fffffffffffffffffffffffffffffffffffffffffffffffffffffffffffffffff6f823140710bf13990e4500136726d8b1ba05888d45ce0b0e425fa35d19554ab1470ae250ae4526a7d26fade27da22449fe0a0109c7dec20da6aed2d0bf9a3062bdbe44ca3bb61416911a117dd0cb5ad88658d",
                    "indexes": {
                        "data": 0,
                        "gas": 0,
                        "value": 0
                    }
                }
            ],
            "ETC_Mystique": [
                {
                    "hash": "2e294fc788c97dabe826b51ffa34044cf1be0e20d5cf496adb56f1a448e92b44",
                    "logs": "1dcc4de8dec75d7aab85b567b6ccd41ad312451b948a7413f0a142fd40d49347",
                    "txbytes": "0xf9013e800a844f2b2a3f94095e7baea6a6c7c4c2dfeb977efac326af552d87845a9c61efb8d8447f0000000000000000000000000000000000000000000000000000000000000001417f00000000000000000000000000000000000000000000000000000000000000017f00000000000000000000000000000000000000000000000000000000000000007f000000000000000000000000000000000000000000000000000000000000c3507f000000000000000000000000ffffffffffffffffffffffffffffffffffffffff7fffffffffffffffffffffffffffffffffffffffffffffffffffffffffffffffff6f823140710bf13990e4500136726d8b1ba05888d45ce0b0e425fa35d19554ab1470ae250ae4526a7d26fade27da22449fe0a0109c7dec20da6aed2d0bf9a3062bdbe44ca3bb61416911a117dd0cb5ad88658d",
                    "indexes": {
                        "data": 0,
                        "gas": 0,
                        "value": 0
                    }
                }
            ],
            "ETC_Phoenix": [
                {
                    "hash": "4ea8292835543c99a95c9f4e9aa1e159277e3b884f6a96460bf18a2af4e9b56b",
                    "logs": "1dcc4de8dec75d7aab85b567b6ccd41ad312451b948a7413f0a142fd40d49347",
                    "txbytes": "0xf9013e800a844f2b2a3f94095e7baea6a6c7c4c2dfeb977efac326af552d87845a9c61efb8d8447f0000000000000000000000000000000000000000000000000000000000000001417f00000000000000000000000000000000000000000000000000000000000000017f00000000000000000000000000000000000000000000000000000000000000007f000000000000000000000000000000000000000000000000000000000000c3507f000000000000000000000000ffffffffffffffffffffffffffffffffffffffff7fffffffffffffffffffffffffffffffffffffffffffffffffffffffffffffffff6f823140710bf13990e4500136726d8b1ba05888d45ce0b0e425fa35d19554ab1470ae250ae4526a7d26fade27da22449fe0a0109c7dec20da6aed2d0bf9a3062bdbe44ca3bb61416911a117dd0cb5ad88658d",
                    "indexes": {
                        "data": 0,
                        "gas": 0,
                        "value": 0
                    }
                }
            ]
        }
    }
}