{
    "randomStatetest563": {
        "_info": {
            "comment": "",
            "filling-rpc-server": "evm version 1.10.16-unstable-0f893109-20220105",
            "filling-tool-version": "retesteth-0.2.2-testinfo+commit.01c6aac2.Linux.g++",
            "filledWith": "CoreGeth-1.12.9-unstable-d390462df9df233b60b4cd7a37db5b3043832022",
            "lllcversion": "Version: 0.5.14-develop.2021.11.27+commit.401d5358.Linux.g++",
            "source": "src/GeneralStateTestsFiller/stRandom2/randomStatetest563Filler.json",
            "sourceHash": "787c701e816aecf8d42781f50962c0a3479007341421ea7cf57dbeb464ef0069"
        },
        "env": {
            "currentCoinbase": "0x945304eb96065b2a98b57a48a06ae28d285a71b5",
            "currentDifficulty": "0x20000",
            "currentGasLimit": "0x7fffffffffffffff",
            "currentNumber": "0x1",
            "currentTimestamp": "0x3e8",
            "previousHash": "0x5e20a0453cecd065ea59c37ac63e079ee08998b6045136a8ce6635c7912ec0b6"
        },
        "pre": {
            "0x095e7baea6a6c7c4c2dfeb977efac326af552d87": {
                "code": "0x7ffffffffffffffffffffffffffffffffffffffffffffffffffffffffffffffffe7f00000000000000000000000000000000000000000000000000000000000000007ffffffffffffffffffffffffffffffffffffffffffffffffffffffffffffffffe7ffffffffffffffffffffffffffffffffffffffffffffffffffffffffffffffffe418b7f000000000000000000000000ffffffffffffffffffffffffffffffffffffffff7f000000000000000000000000945304eb96065b2a98b57a48a06ae28d285a71b50461098038315ba267",
                "balance": "0x0",
                "nonce": "0x0"
            },
            "0x945304eb96065b2a98b57a48a06ae28d285a71b5": {
                "code": "0x6000355415600957005b60203560003555",
                "balance": "0x2e",
                "nonce": "0x0"
            },
            "0xa94f5374fce5edbc8e2a8697c15331677e6ebf0b": {
                "code": "0x",
                "balance": "0xde0b6b3a7640000",
                "nonce": "0x0"
            }
        },
        "transaction": {
            "gasPrice": "0xa",
            "nonce": "0x0",
            "to": "0x095e7baea6a6c7c4c2dfeb977efac326af552d87",
            "data": [
                "0x7ffffffffffffffffffffffffffffffffffffffffffffffffffffffffffffffffe7f00000000000000000000000000000000000000000000000000000000000000007ffffffffffffffffffffffffffffffffffffffffffffffffffffffffffffffffe7ffffffffffffffffffffffffffffffffffffffffffffffffffffffffffffffffe418b7f000000000000000000000000ffffffffffffffffffffffffffffffffffffffff7f000000000000000000000000945304eb96065b2a98b57a48a06ae28d285a71b50461098038315ba267"
            ],
            "gasLimit": [
                "0x3e2f4059"
            ],
            "value": [
                "0x4c814c67"
            ],
            "secretKey": "0x45a915e4d060149eb4365960e6a7a45f334393093061116b197e3240065ff2d8",
            "sender": "0xa94f5374fce5edbc8e2a8697c15331677e6ebf0b"
        },
        "post": {
            "ETC_Magneto": [
                {
                    "hash": "704e0f8163500507b934eaa5d4044398d4db8156d47b337f49ef58edffd864c4",
                    "logs": "1dcc4de8dec75d7aab85b567b6ccd41ad312451b948a7413f0a142fd40d49347",
                    "txbytes": "0xf90137800a843e2f405994095e7baea6a6c7c4c2dfeb977efac326af552d87844c814c67b8d17ffffffffffffffffffffffffffffffffffffffffffffffffffffffffffffffffe7f00000000000000000000000000000000000000000000000000000000000000007ffffffffffffffffffffffffffffffffffffffffffffffffffffffffffffffffe7ffffffffffffffffffffffffffffffffffffffffffffffffffffffffffffffffe418b7f000000000000000000000000ffffffffffffffffffffffffffffffffffffffff7f000000000000000000000000945304eb96065b2a98b57a48a06ae28d285a71b50461098038315ba2671ca0261e995ed420c58b4a763638d7514ad7d4e9aaa2cf51a2e31745fa3c0f1c3625a042aa4edbb9d5159fd6a41afd6c60f9a05afb85212fdf1a8744c54fd14c3cb4ea",
                    "indexes": {
                        "data": 0,
                        "gas": 0,
                        "value": 0
                    }
                }
            ],
            "ETC_Mystique": [
                {
                    "hash": "704e0f8163500507b934eaa5d4044398d4db8156d47b337f49ef58edffd864c4",
                    "logs": "1dcc4de8dec75d7aab85b567b6ccd41ad312451b948a7413f0a142fd40d49347",
                    "txbytes": "0xf90137800a843e2f405994095e7baea6a6c7c4c2dfeb977efac326af552d87844c814c67b8d17ffffffffffffffffffffffffffffffffffffffffffffffffffffffffffffffffe7f00000000000000000000000000000000000000000000000000000000000000007ffffffffffffffffffffffffffffffffffffffffffffffffffffffffffffffffe7ffffffffffffffffffffffffffffffffffffffffffffffffffffffffffffffffe418b7f000000000000000000000000ffffffffffffffffffffffffffffffffffffffff7f000000000000000000000000945304eb96065b2a98b57a48a06ae28d285a71b50461098038315ba2671ca0261e995ed420c58b4a763638d7514ad7d4e9aaa2cf51a2e31745fa3c0f1c3625a042aa4edbb9d5159fd6a41afd6c60f9a05afb85212fdf1a8744c54fd14c3cb4ea",
                    "indexes": {
                        "data": 0,
                        "gas": 0,
                        "value": 0
                    }
                }
            ],
            "ETC_Phoenix": [
                {
                    "hash": "704e0f8163500507b934eaa5d4044398d4db8156d47b337f49ef58edffd864c4",
                    "logs": "1dcc4de8dec75d7aab85b567b6ccd41ad312451b948a7413f0a142fd40d49347",
                    "txbytes": "0xf90137800a843e2f405994095e7baea6a6c7c4c2dfeb977efac326af552d87844c814c67b8d17ffffffffffffffffffffffffffffffffffffffffffffffffffffffffffffffffe7f00000000000000000000000000000000000000000000000000000000000000007ffffffffffffffffffffffffffffffffffffffffffffffffffffffffffffffffe7ffffffffffffffffffffffffffffffffffffffffffffffffffffffffffffffffe418b7f000000000000000000000000ffffffffffffffffffffffffffffffffffffffff7f000000000000000000000000945304eb96065b2a98b57a48a06ae28d285a71b50461098038315ba2671ca0261e995ed420c58b4a763638d7514ad7d4e9aaa2cf51a2e31745fa3c0f1c3625a042aa4edbb9d5159fd6a41afd6c60f9a05afb85212fdf1a8744c54fd14c3cb4ea",
                    "indexes": {
                        "data": 0,
                        "gas": 0,
                        "value": 0
                    }
                }
            ]
        }
    }
}