{
    "randomStatetest648": {
        "_info": {
            "comment": "Consensus issue test produced by fuzz testing team 00000005-storagefuzz-1",
            "filling-rpc-server": "evm version 1.10.16-unstable-0f893109-20220105",
            "filling-tool-version": "retesteth-0.2.2-testinfo+commit.01c6aac2.Linux.g++",
            "filledWith": "CoreGeth-1.12.9-unstable-ab16c56768f0284ab56a30aac9550d3ebdc45901",
            "lllcversion": "Version: 0.5.14-develop.2021.11.27+commit.401d5358.Linux.g++",
            "source": "src/GeneralStateTestsFiller/stRandom2/randomStatetest648Filler.json",
            "sourceHash": "24257314563d3489888c5d370ee1a0e833f59d5c12b6a74a30b7a2dcfb6f7989"
        },
        "env": {
            "currentCoinbase": "0xb94f5374fce5edbc8e2a8697c15331677e6ebf0b",
            "currentDifficulty": "0x20000",
            "currentGasLimit": "0x26e1f476fe1e22",
            "currentNumber": "0x1",
            "currentTimestamp": "0x3e8",
            "currentBaseFee": "0xa",
            "previousHash": "0x5e20a0453cecd065ea59c37ac63e079ee08998b6045136a8ce6635c7912ec0b6"
        },
        "pre": {
            "0x00000000000000000000000000000000000000f1": {
                "code": "0x600060006000600060f15af450600060005060f5fffd",
                "balance": "0x0"
            },
            "0x00000000000000000000000000000000000000f5": {
                "code": "0x600050",
                "balance": "0x0"
            },
            "0xa94f5374fce5edbc8e2a8697c15331677e6ebf0b": {
                "balance": "0xffffffff"
            }
        },
        "transaction": {
            "gasPrice": "0xa",
            "nonce": "0x0",
            "to": "0x00000000000000000000000000000000000000f1",
            "data": [
                "0x384c289327fda733f319011b605929b98b6cc52e4915c942369264c71a3ca70ebce56fef7e41103f1acc71e91f299bf6c5730b265d6f9d475936735ea60c58b9bb125a78178171784759606d696e98f8522b52fe213edee397b3df6ca9f0c6"
            ],
            "gasLimit": [
                "0x53dad"
            ],
            "value": [
                "0xdb2206"
            ],
            "secretKey": "0x45a915e4d060149eb4365960e6a7a45f334393093061116b197e3240065ff2d8",
            "sender": "0xa94f5374fce5edbc8e2a8697c15331677e6ebf0b"
        },
        "post": {
            "ETC_Magneto": [
                {
                    "hash": "1dd1cb94277aadd3e5417c03e8fe6e923233ce06568d4abe2e7b1fb509750586",
                    "logs": "1dcc4de8dec75d7aab85b567b6ccd41ad312451b948a7413f0a142fd40d49347",
                    "txbytes": "0xf8c3800a83053dad9400000000000000000000000000000000000000f183db2206b85f384c289327fda733f319011b605929b98b6cc52e4915c942369264c71a3ca70ebce56fef7e41103f1acc71e91f299bf6c5730b265d6f9d475936735ea60c58b9bb125a78178171784759606d696e98f8522b52fe213edee397b3df6ca9f0c61ba040f3226d549d350d99b845f5117ebbad4b078d6ba27706a16dc123984573bfbda03987b5dd27a008c509bc99bfe14bdc9c11165f96ce4cc47c99287ed9eb24d80d",
                    "indexes": {
                        "data": 0,
                        "gas": 0,
                        "value": 0
                    }
                }
            ],
            "ETC_Mystique": [
                {
                    "hash": "1dd1cb94277aadd3e5417c03e8fe6e923233ce06568d4abe2e7b1fb509750586",
                    "logs": "1dcc4de8dec75d7aab85b567b6ccd41ad312451b948a7413f0a142fd40d49347",
                    "txbytes": "0xf8c3800a83053dad9400000000000000000000000000000000000000f183db2206b85f384c289327fda733f319011b605929b98b6cc52e4915c942369264c71a3ca70ebce56fef7e41103f1acc71e91f299bf6c5730b265d6f9d475936735ea60c58b9bb125a78178171784759606d696e98f8522b52fe213edee397b3df6ca9f0c61ba040f3226d549d350d99b845f5117ebbad4b078d6ba27706a16dc123984573bfbda03987b5dd27a008c509bc99bfe14bdc9c11165f96ce4cc47c99287ed9eb24d80d",
                    "indexes": {
                        "data": 0,
                        "gas": 0,
                        "value": 0
                    }
                }
            ],
            "ETC_Phoenix": [
                {
                    "hash": "1dd1cb94277aadd3e5417c03e8fe6e923233ce06568d4abe2e7b1fb509750586",
                    "logs": "1dcc4de8dec75d7aab85b567b6ccd41ad312451b948a7413f0a142fd40d49347",
                    "txbytes": "0xf8c3800a83053dad9400000000000000000000000000000000000000f183db2206b85f384c289327fda733f319011b605929b98b6cc52e4915c942369264c71a3ca70ebce56fef7e41103f1acc71e91f299bf6c5730b265d6f9d475936735ea60c58b9bb125a78178171784759606d696e98f8522b52fe213edee397b3df6ca9f0c61ba040f3226d549d350d99b845f5117ebbad4b078d6ba27706a16dc123984573bfbda03987b5dd27a008c509bc99bfe14bdc9c11165f96ce4cc47c99287ed9eb24d80d",
                    "indexes": {
                        "data": 0,
                        "gas": 0,
                        "value": 0
                    }
                }
            ]
        }
    }
}