{
    "randomStatetest604": {
        "_info": {
            "comment": "",
            "filling-rpc-server": "evm version 1.10.16-unstable-0f893109-20220105",
            "filling-tool-version": "retesteth-0.2.2-testinfo+commit.01c6aac2.Linux.g++",
            "filledWith": "CoreGeth-1.12.9-unstable-4cf5b2b0837228e7d5eadba6a01ffb80e9288e21",
            "lllcversion": "Version: 0.5.14-develop.2021.11.27+commit.401d5358.Linux.g++",
            "source": "src/GeneralStateTestsFiller/stRandom2/randomStatetest604Filler.json",
            "sourceHash": "cd2e0d0fbc56067fecca9b3d5d208bd1ac47fbc5170df1f1f49392568f28f89d"
        },
        "env": {
            "currentCoinbase": "0x945304eb96065b2a98b57a48a06ae28d285a71b5",
            "currentDifficulty": "0x20000",
            "currentGasLimit": "0x7fffffffffffffff",
            "currentNumber": "0x1",
            "currentTimestamp": "0x3e8",
            "previousHash": "0x5e20a0453cecd065ea59c37ac63e079ee08998b6045136a8ce6635c7912ec0b6"
        },
        "pre": {
            "0x095e7baea6a6c7c4c2dfeb977efac326af552d87": {
                "code": "0x7f000000000000000000000000ffffffffffffffffffffffffffffffffffffffff7f0000000000000000000000010000000000000000000000000000000000000000437f00000000000000000000000000000000000000000000000000000000000000007ffffffffffffffffffffffffffffffffffffffffffffffffffffffffffffffffe44a4418a83039c0587363b0518204006065a06",
                "balance": "0x0",
                "nonce": "0x0"
            },
            "0x945304eb96065b2a98b57a48a06ae28d285a71b5": {
                "code": "0x6000355415600957005b60203560003555",
                "balance": "0x2e",
                "nonce": "0x0"
            },
            "0xa94f5374fce5edbc8e2a8697c15331677e6ebf0b": {
                "code": "0x",
                "balance": "0xde0b6b3a7640000",
                "nonce": "0x0"
            }
        },
        "transaction": {
            "gasPrice": "0xa",
            "nonce": "0x0",
            "to": "0x095e7baea6a6c7c4c2dfeb977efac326af552d87",
            "data": [
                "0x7f000000000000000000000000ffffffffffffffffffffffffffffffffffffffff7f0000000000000000000000010000000000000000000000000000000000000000437f00000000000000000000000000000000000000000000000000000000000000007ffffffffffffffffffffffffffffffffffffffffffffffffffffffffffffffffe44a4418a83039c0587363b0518204006065a06"
            ],
            "gasLimit": [
                "0x1bf2100a"
            ],
            "value": [
                "0x4cc50bac"
            ],
            "secretKey": "0x45a915e4d060149eb4365960e6a7a45f334393093061116b197e3240065ff2d8",
            "sender": "0xa94f5374fce5edbc8e2a8697c15331677e6ebf0b"
        },
        "post": {
            "ETC_Magneto": [
                {
                    "hash": "cb2a0987f6d27874098df0c4e45efae213d4253e82a29033be56a24af94a44c1",
                    "logs": "1dcc4de8dec75d7aab85b567b6ccd41ad312451b948a7413f0a142fd40d49347",
                    "txbytes": "0xf8fe800a841bf2100a94095e7baea6a6c7c4c2dfeb977efac326af552d87844cc50bacb8987f000000000000000000000000ffffffffffffffffffffffffffffffffffffffff7f0000000000000000000000010000000000000000000000000000000000000000437f00000000000000000000000000000000000000000000000000000000000000007ffffffffffffffffffffffffffffffffffffffffffffffffffffffffffffffffe44a4418a83039c0587363b0518204006065a061ca0b4f1ce7017fe9c833ee43ac85d55cbeecdf49a4a5c8c9919c4afff97558ff4fda01046a6a093680bfaaf4c2e4fb9afefbe91adee9f8b51d7836d13cdbbbf748224",
                    "indexes": {
                        "data": 0,
                        "gas": 0,
                        "value": 0
                    }
                }
            ],
            "ETC_Mystique": [
                {
                    "hash": "cb2a0987f6d27874098df0c4e45efae213d4253e82a29033be56a24af94a44c1",
                    "logs": "1dcc4de8dec75d7aab85b567b6ccd41ad312451b948a7413f0a142fd40d49347",
                    "txbytes": "0xf8fe800a841bf2100a94095e7baea6a6c7c4c2dfeb977efac326af552d87844cc50bacb8987f000000000000000000000000ffffffffffffffffffffffffffffffffffffffff7f0000000000000000000000010000000000000000000000000000000000000000437f00000000000000000000000000000000000000000000000000000000000000007ffffffffffffffffffffffffffffffffffffffffffffffffffffffffffffffffe44a4418a83039c0587363b0518204006065a061ca0b4f1ce7017fe9c833ee43ac85d55cbeecdf49a4a5c8c9919c4afff97558ff4fda01046a6a093680bfaaf4c2e4fb9afefbe91adee9f8b51d7836d13cdbbbf748224",
                    "indexes": {
                        "data": 0,
                        "gas": 0,
                        "value": 0
                    }
                }
            ],
            "ETC_Phoenix": [
                {
                    "hash": "cb2a0987f6d27874098df0c4e45efae213d4253e82a29033be56a24af94a44c1",
                    "logs": "1dcc4de8dec75d7aab85b567b6ccd41ad312451b948a7413f0a142fd40d49347",
                    "txbytes": "0xf8fe800a841bf2100a94095e7baea6a6c7c4c2dfeb977efac326af552d87844cc50bacb8987f000000000000000000000000ffffffffffffffffffffffffffffffffffffffff7f0000000000000000000000010000000000000000000000000000000000000000437f00000000000000000000000000000000000000000000000000000000000000007ffffffffffffffffffffffffffffffffffffffffffffffffffffffffffffffffe44a4418a83039c0587363b0518204006065a061ca0b4f1ce7017fe9c833ee43ac85d55cbeecdf49a4a5c8c9919c4afff97558ff4fda01046a6a093680bfaaf4c2e4fb9afefbe91adee9f8b51d7836d13cdbbbf748224",
                    "indexes": {
                        "data": 0,
                        "gas": 0,
                        "value": 0
                    }
                }
            ]
        }
    }
}