{
    "randomStatetest413": {
        "_info": {
            "comment": "",
            "filling-rpc-server": "evm version 1.10.16-unstable-0f893109-20220105",
            "filling-tool-version": "retesteth-0.2.2-testinfo+commit.01c6aac2.Linux.g++",
            "filledWith": "CoreGeth-1.12.9-unstable-4d59a861107c8232d6896811c48f229d30087be4",
            "lllcversion": "Version: 0.5.14-develop.2021.11.27+commit.401d5358.Linux.g++",
            "source": "src/GeneralStateTestsFiller/stRandom2/randomStatetest413Filler.json",
            "sourceHash": "66518eeab86878c946d87ac908636075d9b485a204f2ed9b181b876d432e424d"
        },
        "env": {
            "currentCoinbase": "0x945304eb96065b2a98b57a48a06ae28d285a71b5",
            "currentDifficulty": "0x20000",
            "currentGasLimit": "0x7fffffffffffffff",
            "currentNumber": "0x1",
            "currentTimestamp": "0x3e8",
            "currentBaseFee": "0xa",
            "previousHash": "0x5e20a0453cecd065ea59c37ac63e079ee08998b6045136a8ce6635c7912ec0b6"
        },
        "pre": {
            "0x095e7baea6a6c7c4c2dfeb977efac326af552d87": {
                "code": "0x7ffffffffffffffffffffffffffffffffffffffffffffffffffffffffffffffffe7f000000000000000000000000000000000000000000000000000000000000c3507f0000000000000000000000010000000000000000000000000000000000000000817ffffffffffffffffffffffffffffffffffffffffffffffffffffffffffffffffe037f00000000000000000000000000000000000000000000000000000000000000016f086e2055149345ad1a018b063708145560005155",
                "balance": "0x0"
            },
            "0x945304eb96065b2a98b57a48a06ae28d285a71b5": {
                "code": "0x6000355415600957005b60203560003555",
                "balance": "0x2e"
            },
            "0xa94f5374fce5edbc8e2a8697c15331677e6ebf0b": {
                "balance": "0xde0b6b3a7640000"
            }
        },
        "transaction": {
            "gasPrice": "0xa",
            "nonce": "0x0",
            "to": "0x095e7baea6a6c7c4c2dfeb977efac326af552d87",
            "data": [
                "0x7ffffffffffffffffffffffffffffffffffffffffffffffffffffffffffffffffe7f000000000000000000000000000000000000000000000000000000000000c3507f0000000000000000000000010000000000000000000000000000000000000000817ffffffffffffffffffffffffffffffffffffffffffffffffffffffffffffffffe037f00000000000000000000000000000000000000000000000000000000000000016f086e2055149345ad1a018b06370814"
            ],
            "gasLimit": [
                "0x63aead26"
            ],
            "value": [
                "0x47e29c11"
            ],
            "secretKey": "0x45a915e4d060149eb4365960e6a7a45f334393093061116b197e3240065ff2d8",
            "sender": "0xa94f5374fce5edbc8e2a8697c15331677e6ebf0b"
        },
        "post": {
            "ETC_Magneto": [
                {
                    "hash": "e288649f9aa6f8cb87f9e46377f6fb74c0dc08d7bda1f67b943febcedcfa49f3",
                    "logs": "1dcc4de8dec75d7aab85b567b6ccd41ad312451b948a7413f0a142fd40d49347",
                    "txbytes": "0xf9011d800a8463aead2694095e7baea6a6c7c4c2dfeb977efac326af552d878447e29c11b8b77ffffffffffffffffffffffffffffffffffffffffffffffffffffffffffffffffe7f000000000000000000000000000000000000000000000000000000000000c3507f0000000000000000000000010000000000000000000000000000000000000000817ffffffffffffffffffffffffffffffffffffffffffffffffffffffffffffffffe037f00000000000000000000000000000000000000000000000000000000000000016f086e2055149345ad1a018b063708141ba010a3a8a9f70de5ef06aef0d9ddb7245062238c360c5cea8d09817e6eb08f102aa06df3936fc14ab739d7e3801e8f3cc209fb1669811ebfd374ad6dcaa11dc4a368",
                    "indexes": {
                        "data": 0,
                        "gas": 0,
                        "value": 0
                    }
                }
            ],
            "ETC_Mystique": [
                {
                    "hash": "e288649f9aa6f8cb87f9e46377f6fb74c0dc08d7bda1f67b943febcedcfa49f3",
                    "logs": "1dcc4de8dec75d7aab85b567b6ccd41ad312451b948a7413f0a142fd40d49347",
                    "txbytes": "0xf9011d800a8463aead2694095e7baea6a6c7c4c2dfeb977efac326af552d878447e29c11b8b77ffffffffffffffffffffffffffffffffffffffffffffffffffffffffffffffffe7f000000000000000000000000000000000000000000000000000000000000c3507f0000000000000000000000010000000000000000000000000000000000000000817ffffffffffffffffffffffffffffffffffffffffffffffffffffffffffffffffe037f00000000000000000000000000000000000000000000000000000000000000016f086e2055149345ad1a018b063708141ba010a3a8a9f70de5ef06aef0d9ddb7245062238c360c5cea8d09817e6eb08f102aa06df3936fc14ab739d7e3801e8f3cc209fb1669811ebfd374ad6dcaa11dc4a368",
                    "indexes": {
                        "data": 0,
                        "gas": 0,
                        "value": 0
                    }
                }
            ],
            "ETC_Phoenix": [
                {
                    "hash": "44d4793a4a781d9636f2441c1f2e7eb925c620f6507200c0a1085df9debf02d2",
                    "logs": "1dcc4de8dec75d7aab85b567b6ccd41ad312451b948a7413f0a142fd40d49347",
                    "txbytes": "0xf9011d800a8463aead2694095e7baea6a6c7c4c2dfeb977efac326af552d878447e29c11b8b77ffffffffffffffffffffffffffffffffffffffffffffffffffffffffffffffffe7f000000000000000000000000000000000000000000000000000000000000c3507f0000000000000000000000010000000000000000000000000000000000000000817ffffffffffffffffffffffffffffffffffffffffffffffffffffffffffffffffe037f00000000000000000000000000000000000000000000000000000000000000016f086e2055149345ad1a018b063708141ba010a3a8a9f70de5ef06aef0d9ddb7245062238c360c5cea8d09817e6eb08f102aa06df3936fc14ab739d7e3801e8f3cc209fb1669811ebfd374ad6dcaa11dc4a368",
                    "indexes": {
                        "data": 0,
                        "gas": 0,
                        "value": 0
                    }
                }
            ]
        }
    }
}