{
    "randomStatetest612": {
        "_info": {
            "comment": "",
            "filling-rpc-server": "evm version 1.10.16-unstable-0f893109-20220105",
            "filling-tool-version": "retesteth-0.2.2-testinfo+commit.01c6aac2.Linux.g++",
            "filledWith": "CoreGeth-1.12.9-unstable-4cf5b2b0837228e7d5eadba6a01ffb80e9288e21",
            "lllcversion": "Version: 0.5.14-develop.2021.11.27+commit.401d5358.Linux.g++",
            "source": "src/GeneralStateTestsFiller/stRandom2/randomStatetest612Filler.json",
            "sourceHash": "32202d9d409118c668c57cf13587fea4a850c34d6bd189f95658c903f6c5547e"
        },
        "env": {
            "currentCoinbase": "0x945304eb96065b2a98b57a48a06ae28d285a71b5",
            "currentDifficulty": "0x20000",
            "currentGasLimit": "0x7fffffffffffffff",
            "currentNumber": "0x1",
            "currentTimestamp": "0x3e8",
            "previousHash": "0x5e20a0453cecd065ea59c37ac63e079ee08998b6045136a8ce6635c7912ec0b6"
        },
        "pre": {
            "0x095e7baea6a6c7c4c2dfeb977efac326af552d87": {
                "code": "0x7fffffffffffffffffffffffffffffffffffffffffffffffffffffffffffffffff437f00000000000000000000000000000000000000000000000000000000000000017f000000000000000000000000000000000000000000000000000000000000c3507f00000000000000000000000100000000000000000000000000000000000000007ffffffffffffffffffffffffffffffffffffffffffffffffffffffffffffffffe7fffffffffffffffffffffffffffffffffffffffffffffffffffffffffffffffff7f000000000000000000000000ffffffffffffffffffffffffffffffffffffffff095560005155",
                "balance": "0x0",
                "nonce": "0x0"
            },
            "0x945304eb96065b2a98b57a48a06ae28d285a71b5": {
                "code": "0x6000355415600957005b60203560003555",
                "balance": "0x2e",
                "nonce": "0x0"
            },
            "0xa94f5374fce5edbc8e2a8697c15331677e6ebf0b": {
                "code": "0x",
                "balance": "0xde0b6b3a7640000",
                "nonce": "0x0"
            }
        },
        "transaction": {
            "gasPrice": "0xa",
            "nonce": "0x0",
            "to": "0x095e7baea6a6c7c4c2dfeb977efac326af552d87",
            "data": [
                "0x7fffffffffffffffffffffffffffffffffffffffffffffffffffffffffffffffff437f00000000000000000000000000000000000000000000000000000000000000017f000000000000000000000000000000000000000000000000000000000000c3507f00000000000000000000000100000000000000000000000000000000000000007ffffffffffffffffffffffffffffffffffffffffffffffffffffffffffffffffe7fffffffffffffffffffffffffffffffffffffffffffffffffffffffffffffffff7f000000000000000000000000ffffffffffffffffffffffffffffffffffffffff09"
            ],
            "gasLimit": [
                "0x5aab961a"
            ],
            "value": [
                "0x2afe4542"
            ],
            "secretKey": "0x45a915e4d060149eb4365960e6a7a45f334393093061116b197e3240065ff2d8",
            "sender": "0xa94f5374fce5edbc8e2a8697c15331677e6ebf0b"
        },
        "post": {
            "ETC_Magneto": [
                {
                    "hash": "5fffa020cb3817016e804203d9b2607b988dd929bcbd81ce5a4afca2901430b4",
                    "logs": "1dcc4de8dec75d7aab85b567b6ccd41ad312451b948a7413f0a142fd40d49347",
                    "txbytes": "0xf9014f800a845aab961a94095e7baea6a6c7c4c2dfeb977efac326af552d87842afe4542b8e97fffffffffffffffffffffffffffffffffffffffffffffffffffffffffffffffff437f00000000000000000000000000000000000000000000000000000000000000017f000000000000000000000000000000000000000000000000000000000000c3507f00000000000000000000000100000000000000000000000000000000000000007ffffffffffffffffffffffffffffffffffffffffffffffffffffffffffffffffe7fffffffffffffffffffffffffffffffffffffffffffffffffffffffffffffffff7f000000000000000000000000ffffffffffffffffffffffffffffffffffffffff091ba0c7222d0e67a232e8a1751910444b5fa3fe35586d5da20c12144b202558398be3a06d1c2267e76c958c07c4d70a87958e3f20a471cec12dc37eb2900eb81efb0438",
                    "indexes": {
                        "data": 0,
                        "gas": 0,
                        "value": 0
                    }
                }
            ],
            "ETC_Mystique": [
                {
                    "hash": "5fffa020cb3817016e804203d9b2607b988dd929bcbd81ce5a4afca2901430b4",
                    "logs": "1dcc4de8dec75d7aab85b567b6ccd41ad312451b948a7413f0a142fd40d49347",
                    "txbytes": "0xf9014f800a845aab961a94095e7baea6a6c7c4c2dfeb977efac326af552d87842afe4542b8e97fffffffffffffffffffffffffffffffffffffffffffffffffffffffffffffffff437f00000000000000000000000000000000000000000000000000000000000000017f000000000000000000000000000000000000000000000000000000000000c3507f00000000000000000000000100000000000000000000000000000000000000007ffffffffffffffffffffffffffffffffffffffffffffffffffffffffffffffffe7fffffffffffffffffffffffffffffffffffffffffffffffffffffffffffffffff7f000000000000000000000000ffffffffffffffffffffffffffffffffffffffff091ba0c7222d0e67a232e8a1751910444b5fa3fe35586d5da20c12144b202558398be3a06d1c2267e76c958c07c4d70a87958e3f20a471cec12dc37eb2900eb81efb0438",
                    "indexes": {
                        "data": 0,
                        "gas": 0,
                        "value": 0
                    }
                }
            ],
            "ETC_Phoenix": [
                {
                    "hash": "3b702600e1f9f69c5b12a66c534782b66c3953c294018e881ebaaa34d611abb1",
                    "logs": "1dcc4de8dec75d7aab85b567b6ccd41ad312451b948a7413f0a142fd40d49347",
                    "txbytes": "0xf9014f800a845aab961a94095e7baea6a6c7c4c2dfeb977efac326af552d87842afe4542b8e97fffffffffffffffffffffffffffffffffffffffffffffffffffffffffffffffff437f00000000000000000000000000000000000000000000000000000000000000017f000000000000000000000000000000000000000000000000000000000000c3507f00000000000000000000000100000000000000000000000000000000000000007ffffffffffffffffffffffffffffffffffffffffffffffffffffffffffffffffe7fffffffffffffffffffffffffffffffffffffffffffffffffffffffffffffffff7f000000000000000000000000ffffffffffffffffffffffffffffffffffffffff091ba0c7222d0e67a232e8a1751910444b5fa3fe35586d5da20c12144b202558398be3a06d1c2267e76c958c07c4d70a87958e3f20a471cec12dc37eb2900eb81efb0438",
                    "indexes": {
                        "data": 0,
                        "gas": 0,
                        "value": 0
                    }
                }
            ]
        }
    }
}