{
    "randomStatetest401": {
        "_info": {
            "comment": "",
            "filling-rpc-server": "evm version 1.10.16-unstable-0f893109-20220105",
            "filling-tool-version": "retesteth-0.2.2-testinfo+commit.01c6aac2.Linux.g++",
            "filledWith": "CoreGeth-1.12.9-unstable-d64998ce9b05f4f41b35740c69c4b402e41a3105",
            "lllcversion": "Version: 0.5.14-develop.2021.11.27+commit.401d5358.Linux.g++",
            "source": "src/GeneralStateTestsFiller/stRandom2/randomStatetest401Filler.json",
            "sourceHash": "c07fe857b47097165204de7e744864417e4a75aeb0ad81b48d19e2d31ab77f8f"
        },
        "env": {
            "currentCoinbase": "0x945304eb96065b2a98b57a48a06ae28d285a71b5",
            "currentDifficulty": "0x20000",
            "currentGasLimit": "0x7fffffffffffffff",
            "currentNumber": "0x1",
            "currentTimestamp": "0x3e8",
            "previousHash": "0x5e20a0453cecd065ea59c37ac63e079ee08998b6045136a8ce6635c7912ec0b6"
        },
        "pre": {
            "0x095e7baea6a6c7c4c2dfeb977efac326af552d87": {
                "code": "0x7f00000000000000000000000100000000000000000000000000000000000000007f000000000000000000000000945304eb96065b2a98b57a48a06ae28d285a71b57f000000000000000000000000000000000000000000000000000000000000c3507f000000000000000000000000945304eb96065b2a98b57a48a06ae28d285a71b57f000000000000000000000000000000000000000000000000000000000000c35044427f000000000000000000000000945304eb96065b2a98b57a48a06ae28d285a71b5ff60005155",
                "balance": "0x0"
            },
            "0x945304eb96065b2a98b57a48a06ae28d285a71b5": {
                "code": "0x6000355415600957005b60203560003555",
                "balance": "0x2e"
            },
            "0xa94f5374fce5edbc8e2a8697c15331677e6ebf0b": {
                "balance": "0xde0b6b3a7640000"
            }
        },
        "transaction": {
            "gasPrice": "0xa",
            "nonce": "0x0",
            "to": "0x095e7baea6a6c7c4c2dfeb977efac326af552d87",
            "data": [
                "0x7f00000000000000000000000100000000000000000000000000000000000000007f000000000000000000000000945304eb96065b2a98b57a48a06ae28d285a71b57f000000000000000000000000000000000000000000000000000000000000c3507f000000000000000000000000945304eb96065b2a98b57a48a06ae28d285a71b57f000000000000000000000000000000000000000000000000000000000000c35044427f000000000000000000000000945304eb96065b2a98b57a48a06ae28d285a71b5ff"
            ],
            "gasLimit": [
                "0x1bc87846"
            ],
            "value": [
                "0x230f1c8e"
            ],
            "secretKey": "0x45a915e4d060149eb4365960e6a7a45f334393093061116b197e3240065ff2d8",
            "sender": "0xa94f5374fce5edbc8e2a8697c15331677e6ebf0b"
        },
        "post": {
            "ETC_Magneto": [
                {
                    "hash": "237030e19a40460c391ad5e2ca019102489e430cc3b5d959f085628ad0c58130",
                    "logs": "1dcc4de8dec75d7aab85b567b6ccd41ad312451b948a7413f0a142fd40d49347",
                    "txbytes": "0xf9012f800a841bc8784694095e7baea6a6c7c4c2dfeb977efac326af552d8784230f1c8eb8c97f00000000000000000000000100000000000000000000000000000000000000007f000000000000000000000000945304eb96065b2a98b57a48a06ae28d285a71b57f000000000000000000000000000000000000000000000000000000000000c3507f000000000000000000000000945304eb96065b2a98b57a48a06ae28d285a71b57f000000000000000000000000000000000000000000000000000000000000c35044427f000000000000000000000000945304eb96065b2a98b57a48a06ae28d285a71b5ff1ba0e5dfdc35e9d1f8bb30b4d94d7bcdf69ee60da71538b0f5138c61fd84e34254f3a056ad1f3d2f2751f2b86c8b1e4560d1dc28b7429d5baa3215caa9d0a276b8a68d",
                    "indexes": {
                        "data": 0,
                        "gas": 0,
                        "value": 0
                    }
                }
            ],
            "ETC_Mystique": [
                {
                    "hash": "d4754252e04242a63dea1b406f507c27d1ec4a8c1325ea5724b29ec1104411f1",
                    "logs": "1dcc4de8dec75d7aab85b567b6ccd41ad312451b948a7413f0a142fd40d49347",
                    "txbytes": "0xf9012f800a841bc8784694095e7baea6a6c7c4c2dfeb977efac326af552d8784230f1c8eb8c97f00000000000000000000000100000000000000000000000000000000000000007f000000000000000000000000945304eb96065b2a98b57a48a06ae28d285a71b57f000000000000000000000000000000000000000000000000000000000000c3507f000000000000000000000000945304eb96065b2a98b57a48a06ae28d285a71b57f000000000000000000000000000000000000000000000000000000000000c35044427f000000000000000000000000945304eb96065b2a98b57a48a06ae28d285a71b5ff1ba0e5dfdc35e9d1f8bb30b4d94d7bcdf69ee60da71538b0f5138c61fd84e34254f3a056ad1f3d2f2751f2b86c8b1e4560d1dc28b7429d5baa3215caa9d0a276b8a68d",
                    "indexes": {
                        "data": 0,
                        "gas": 0,
                        "value": 0
                    }
                }
            ],
            "ETC_Phoenix": [
                {
                    "hash": "d356eb4a87e99c3f5e7c751fe894fe8dc307cc0d8fde72e9f96c1efd9582f10a",
                    "logs": "1dcc4de8dec75d7aab85b567b6ccd41ad312451b948a7413f0a142fd40d49347",
                    "txbytes": "0xf9012f800a841bc8784694095e7baea6a6c7c4c2dfeb977efac326af552d8784230f1c8eb8c97f00000000000000000000000100000000000000000000000000000000000000007f000000000000000000000000945304eb96065b2a98b57a48a06ae28d285a71b57f000000000000000000000000000000000000000000000000000000000000c3507f000000000000000000000000945304eb96065b2a98b57a48a06ae28d285a71b57f000000000000000000000000000000000000000000000000000000000000c35044427f000000000000000000000000945304eb96065b2a98b57a48a06ae28d285a71b5ff1ba0e5dfdc35e9d1f8bb30b4d94d7bcdf69ee60da71538b0f5138c61fd84e34254f3a056ad1f3d2f2751f2b86c8b1e4560d1dc28b7429d5baa3215caa9d0a276b8a68d",
                    "indexes": {
                        "data": 0,
                        "gas": 0,
                        "value": 0
                    }
                }
            ]
        }
    }
}