{
    "mem64kb-32": {
        "_info": {
            "comment": "",
            "filling-rpc-server": "evm version 1.10.16-unstable-0f893109-20220105",
            "filling-tool-version": "retesteth-0.2.2-testinfo+commit.01c6aac2.Linux.g++",
            "filledWith": "CoreGeth-1.12.9-unstable-3995a327f2ded5c98324b03792b5ccc22557754f",
            "lllcversion": "Version: 0.5.14-develop.2021.11.27+commit.401d5358.Linux.g++",
            "source": "src/GeneralStateTestsFiller/stMemoryTest/mem64kb-32Filler.json",
            "sourceHash": "6cd9e0063cda80e0d27d2d0a7cce0e8ae3cb3e256d845e687123939db108b414"
        },
        "env": {
            "currentCoinbase": "0x2adc25665018aa1fe0e6bc666dac8fc2697ff9ba",
            "currentDifficulty": "0x20000",
            "currentGasLimit": "0xa00000000",
            "currentNumber": "0x1",
            "currentTimestamp": "0x3e8",
            "currentBaseFee": "0xa",
            "previousHash": "0x5e20a0453cecd065ea59c37ac63e079ee08998b6045136a8ce6635c7912ec0b6"
        },
        "pre": {
            "0x0f572e5295c57f15886f9b263e2f6d2d6c7b5ec6": {
                "code": "0x602a61f9c05261f9c0516001555960005500",
                "balance": "0xde0b6b3a7640000"
            },
            "0xa94f5374fce5edbc8e2a8697c15331677e6ebf0b": {
                "balance": "0x6400000000"
            }
        },
        "transaction": {
            "gasPrice": "0xa",
            "nonce": "0x0",
            "to": "0x0f572e5295c57f15886f9b263e2f6d2d6c7b5ec6",
            "data": [
                "0x"
            ],
            "gasLimit": [
                "0x500018d8"
            ],
            "value": [
                "0x0a"
            ],
            "secretKey": "0x45a915e4d060149eb4365960e6a7a45f334393093061116b197e3240065ff2d8",
            "sender": "0xa94f5374fce5edbc8e2a8697c15331677e6ebf0b"
        },
        "post": {
            "ETC_Magneto": [
                {
                    "hash": "b42d451f1c9397a6e068fe4c103a43db8d164b214d565b168d6bcbd737a7c170",
                    "logs": "1dcc4de8dec75d7aab85b567b6ccd41ad312451b948a7413f0a142fd40d49347",
                    "txbytes": "0xf861800a84500018d8940f572e5295c57f15886f9b263e2f6d2d6c7b5ec60a801ca008eb482b74b6f567145a737c020941f0cc75242f1d7349c73c8a7b20ac59738fa004f150a7f57c99f452920bcff42afe039036fe2630ab6a61ce49ab35445096a2",
                    "indexes": {
                        "data": 0,
                        "gas": 0,
                        "value": 0
                    }
                }
            ],
            "ETC_Mystique": [
                {
                    "hash": "b42d451f1c9397a6e068fe4c103a43db8d164b214d565b168d6bcbd737a7c170",
                    "logs": "1dcc4de8dec75d7aab85b567b6ccd41ad312451b948a7413f0a142fd40d49347",
                    "txbytes": "0xf861800a84500018d8940f572e5295c57f15886f9b263e2f6d2d6c7b5ec60a801ca008eb482b74b6f567145a737c020941f0cc75242f1d7349c73c8a7b20ac59738fa004f150a7f57c99f452920bcff42afe039036fe2630ab6a61ce49ab35445096a2",
                    "indexes": {
                        "data": 0,
                        "gas": 0,
                        "value": 0
                    }
                }
            ],
            "ETC_Phoenix": [
                {
                    "hash": "6fec59683c38f2942e9de12ae914ef64967eac26ef2dffd4bc9ec4e07634d6d1",
                    "logs": "1dcc4de8dec75d7aab85b567b6ccd41ad312451b948a7413f0a142fd40d49347",
                    "txbytes": "0xf861800a84500018d8940f572e5295c57f15886f9b263e2f6d2d6c7b5ec60a801ca008eb482b74b6f567145a737c020941f0cc75242f1d7349c73c8a7b20ac59738fa004f150a7f57c99f452920bcff42afe039036fe2630ab6a61ce49ab35445096a2",
                    "indexes": {
                        "data": 0,
                        "gas": 0,
                        "value": 0
                    }
                }
            ]
        }
    }
}