{
    "mem64kb-31": {
        "_info": {
            "comment": "",
            "filling-rpc-server": "evm version 1.10.16-unstable-0f893109-20220105",
            "filling-tool-version": "retesteth-0.2.2-testinfo+commit.01c6aac2.Linux.g++",
            "filledWith": "CoreGeth-1.12.9-unstable-d390462df9df233b60b4cd7a37db5b3043832022",
            "lllcversion": "Version: 0.5.14-develop.2021.11.27+commit.401d5358.Linux.g++",
            "source": "src/GeneralStateTestsFiller/stMemoryTest/mem64kb-31Filler.json",
            "sourceHash": "402bbd5139733f07fbf0c3bc9a5cf93ad7e37e42977276a7759b8ed253537865"
        },
        "env": {
            "currentCoinbase": "0x2adc25665018aa1fe0e6bc666dac8fc2697ff9ba",
            "currentDifficulty": "0x20000",
            "currentGasLimit": "0xa00000000",
            "currentNumber": "0x1",
            "currentTimestamp": "0x3e8",
            "previousHash": "0x5e20a0453cecd065ea59c37ac63e079ee08998b6045136a8ce6635c7912ec0b6"
        },
        "pre": {
            "0x0f572e5295c57f15886f9b263e2f6d2d6c7b5ec6": {
                "code": "0x602a61f9c15261f9c1516001555960005500",
                "balance": "0xde0b6b3a7640000",
                "nonce": "0x0"
            },
            "0xa94f5374fce5edbc8e2a8697c15331677e6ebf0b": {
                "code": "0x",
                "balance": "0x6400000000",
                "nonce": "0x0"
            }
        },
        "transaction": {
            "gasPrice": "0xa",
            "nonce": "0x0",
            "to": "0x0f572e5295c57f15886f9b263e2f6d2d6c7b5ec6",
            "data": [
                "0x"
            ],
            "gasLimit": [
                "0x500018d8"
            ],
            "value": [
                "0x0a"
            ],
            "secretKey": "0x45a915e4d060149eb4365960e6a7a45f334393093061116b197e3240065ff2d8",
            "sender": "0xa94f5374fce5edbc8e2a8697c15331677e6ebf0b"
        },
        "post": {
            "ETC_Magneto": [
                {
                    "hash": "3b59afa6334a82e0f54804c8b3a138de3d893a6139ce1bb487e94cba632766da",
                    "logs": "1dcc4de8dec75d7aab85b567b6ccd41ad312451b948a7413f0a142fd40d49347",
                    "txbytes": "0xf861800a84500018d8940f572e5295c57f15886f9b263e2f6d2d6c7b5ec60a801ca008eb482b74b6f567145a737c020941f0cc75242f1d7349c73c8a7b20ac59738fa004f150a7f57c99f452920bcff42afe039036fe2630ab6a61ce49ab35445096a2",
                    "indexes": {
                        "data": 0,
                        "gas": 0,
                        "value": 0
                    }
                }
            ],
            "ETC_Mystique": [
                {
                    "hash": "3b59afa6334a82e0f54804c8b3a138de3d893a6139ce1bb487e94cba632766da",
                    "logs": "1dcc4de8dec75d7aab85b567b6ccd41ad312451b948a7413f0a142fd40d49347",
                    "txbytes": "0xf861800a84500018d8940f572e5295c57f15886f9b263e2f6d2d6c7b5ec60a801ca008eb482b74b6f567145a737c020941f0cc75242f1d7349c73c8a7b20ac59738fa004f150a7f57c99f452920bcff42afe039036fe2630ab6a61ce49ab35445096a2",
                    "indexes": {
                        "data": 0,
                        "gas": 0,
                        "value": 0
                    }
                }
            ],
            "ETC_Phoenix": [
                {
                    "hash": "f9851eec0e51a89dbb196859726a9f0fd482444fc77dd654be6c8a5d102b5078",
                    "logs": "1dcc4de8dec75d7aab85b567b6ccd41ad312451b948a7413f0a142fd40d49347",
                    "txbytes": "0xf861800a84500018d8940f572e5295c57f15886f9b263e2f6d2d6c7b5ec60a801ca008eb482b74b6f567145a737c020941f0cc75242f1d7349c73c8a7b20ac59738fa004f150a7f57c99f452920bcff42afe039036fe2630ab6a61ce49ab35445096a2",
                    "indexes": {
                        "data": 0,
                        "gas": 0,
                        "value": 0
                    }
                }
            ]
        }
    }
}