{
    "memCopySelf": {
        "_info": {
            "comment": "Ori Pomerantz qbzzt1@gmail.com",
            "filling-rpc-server": "evm version 1.10.16-unstable-0f893109-20220105",
            "filling-tool-version": "retesteth-0.2.2-testinfo+commit.01c6aac2.Linux.g++",
            "filledWith": "CoreGeth-1.12.9-unstable-4d59a861107c8232d6896811c48f229d30087be4",
            "lllcversion": "Version: 0.5.14-develop.2021.11.27+commit.401d5358.Linux.g++",
            "source": "src/GeneralStateTestsFiller/stMemoryTest/memCopySelfFiller.yml",
            "sourceHash": "65f98497ce07299b0ba4358063c4cd1a8ad1a7321abdd709438ce65c4b4eac13"
        },
        "env": {
            "currentCoinbase": "0x2adc25665018aa1fe0e6bc666dac8fc2697ff9ba",
            "currentDifficulty": "0x20000",
            "currentGasLimit": "0x5f5e100",
            "currentNumber": "0x1",
            "currentTimestamp": "0x3e8",
            "currentBaseFee": "0xa",
            "previousHash": "0x5e20a0453cecd065ea59c37ac63e079ee08998b6045136a8ce6635c7912ec0b6"
        },
        "pre": {
            "0xa94f5374fce5edbc8e2a8697c15331677e6ebf0b": {
                "balance": "0xba1a9ce0ba1a9ce",
                "nonce": "0x1"
            },
            "0xcccccccccccccccccccccccccccccccccccccccc": {
                "code": "0x600460005b600f8110156020576011600182010281535b6001810190506004565b50600051600055600a6002600a60006000855af150600051600155600a600060203e60205160025550",
                "storage": {
                    "0x0000000000000000000000000000000000000000000000000000000000000000": "0x00000000000000000000000000000000000000000000000000000000000060a7"
                },
                "balance": "0xba1a9ce0ba1a9ce",
                "nonce": "0x1"
            }
        },
        "transaction": {
            "gasPrice": "0xa",
            "nonce": "0x1",
            "to": "0xcccccccccccccccccccccccccccccccccccccccc",
            "data": [
                "0x"
            ],
            "gasLimit": [
                "0x4c4b400"
            ],
            "value": [
                "0x00"
            ],
            "secretKey": "0x45a915e4d060149eb4365960e6a7a45f334393093061116b197e3240065ff2d8",
            "sender": "0xa94f5374fce5edbc8e2a8697c15331677e6ebf0b"
        },
        "post": {
            "ETC_Magneto": [
                {
                    "hash": "0618cb231aeec742c4a58d5a7a65f7eabf13d73ba18536d714988f0fc4010794",
                    "logs": "1dcc4de8dec75d7aab85b567b6ccd41ad312451b948a7413f0a142fd40d49347",
                    "txbytes": "0xf861010a8404c4b40094cccccccccccccccccccccccccccccccccccccccc80801ca0c350b3ab798c002a04635a82701307f1b6e07b2c432882028e8b7f03c3f18ff0a00a3bfc55ed560aacaee7792898bcb24517d26cbe685eec81ab9cef15ef1621ab",
                    "indexes": {
                        "data": 0,
                        "gas": 0,
                        "value": 0
                    }
                }
            ],
            "ETC_Mystique": [
                {
                    "hash": "0618cb231aeec742c4a58d5a7a65f7eabf13d73ba18536d714988f0fc4010794",
                    "logs": "1dcc4de8dec75d7aab85b567b6ccd41ad312451b948a7413f0a142fd40d49347",
                    "txbytes": "0xf861010a8404c4b40094cccccccccccccccccccccccccccccccccccccccc80801ca0c350b3ab798c002a04635a82701307f1b6e07b2c432882028e8b7f03c3f18ff0a00a3bfc55ed560aacaee7792898bcb24517d26cbe685eec81ab9cef15ef1621ab",
                    "indexes": {
                        "data": 0,
                        "gas": 0,
                        "value": 0
                    }
                }
            ]
        }
    }
}