{
    "mload16bitBound": {
        "_info": {
            "comment": "",
            "filling-rpc-server": "evm version 1.10.16-unstable-0f893109-20220105",
            "filling-tool-version": "retesteth-0.2.2-testinfo+commit.01c6aac2.Linux.g++",
            "filledWith": "CoreGeth-1.12.9-unstable-f4059ddd82d975bdc54fa648e5422a80172161cb",
            "lllcversion": "Version: 0.5.14-develop.2021.11.27+commit.401d5358.Linux.g++",
            "source": "src/GeneralStateTestsFiller/stMemoryTest/mload16bitBoundFiller.json",
            "sourceHash": "1eb3ee90e421ba507b98141fcde02d5070e5a584b08adab7f7931bb56d8630e6"
        },
        "env": {
            "currentCoinbase": "2adc25665018aa1fe0e6bc666dac8fc2697ff9ba",
            "currentDifficulty": "0x20000",
            "currentRandom": null,
            "currentGasLimit": "0x10000804025c",
            "currentNumber": "0x1",
            "currentTimestamp": "0x3e8",
            "currentBaseFee": "0xa"
        },
        "pre": {
            "0x0f572e5295c57f15886f9b263e2f6d2d6c7b5ec6": {
                "code": "0x620100005160015500",
                "balance": "0xde0b6b3a7640000"
            },
            "0xa94f5374fce5edbc8e2a8697c15331677e6ebf0b": {
                "balance": "0xa00050281798"
            }
        },
        "transaction": {
            "gasPrice": "0xa",
            "maxFeePerGas": null,
            "maxPriorityFeePerGas": null,
            "nonce": "0x0",
            "to": "0x0f572e5295c57f15886f9b263e2f6d2d6c7b5ec6",
            "data": [
                "0x"
            ],
            "gasLimit": [
                "0xffc0802015d"
            ],
            "value": [
                "0x0a"
            ],
            "secretKey": "0x45a915e4d060149eb4365960e6a7a45f334393093061116b197e3240065ff2d8"
        },
        "out": "0x",
        "post": {
            "ETC_Magneto": [
                {
                    "hash": "54ef6c5652baffc65e31c5100072c1d50892a7f1ca834f59590d9f1de4fb5984",
                    "logs": "1dcc4de8dec75d7aab85b567b6ccd41ad312451b948a7413f0a142fd40d49347",
                    "txbytes": "0xf863800a860ffc0802015d940f572e5295c57f15886f9b263e2f6d2d6c7b5ec60a801ba0d6e063f55b8805082d776fada150f18f621b5ed50aba9b116956e6d7cc9f8933a065669d8d749a2bdd161220c0318ffae9aca534912e305df71775e45a1391df52",
                    "indexes": {
                        "data": 0,
                        "gas": 0,
                        "value": 0
                    }
                }
            ],
            "ETC_Mystique": [
                {
                    "hash": "54ef6c5652baffc65e31c5100072c1d50892a7f1ca834f59590d9f1de4fb5984",
                    "logs": "1dcc4de8dec75d7aab85b567b6ccd41ad312451b948a7413f0a142fd40d49347",
                    "txbytes": "0xf863800a860ffc0802015d940f572e5295c57f15886f9b263e2f6d2d6c7b5ec60a801ba0d6e063f55b8805082d776fada150f18f621b5ed50aba9b116956e6d7cc9f8933a065669d8d749a2bdd161220c0318ffae9aca534912e305df71775e45a1391df52",
                    "indexes": {
                        "data": 0,
                        "gas": 0,
                        "value": 0
                    }
                }
            ],
            "ETC_Phoenix": [
                {
                    "hash": "5e49cdb484529e9dbb086f0a84b09f883f12b878e88c12f5f5ad30825dcbb44e",
                    "logs": "1dcc4de8dec75d7aab85b567b6ccd41ad312451b948a7413f0a142fd40d49347",
                    "txbytes": "0xf863800a860ffc0802015d940f572e5295c57f15886f9b263e2f6d2d6c7b5ec60a801ba0d6e063f55b8805082d776fada150f18f621b5ed50aba9b116956e6d7cc9f8933a065669d8d749a2bdd161220c0318ffae9aca534912e305df71775e45a1391df52",
                    "indexes": {
                        "data": 0,
                        "gas": 0,
                        "value": 0
                    }
                }
            ]
        }
    }
}