{
    "stackLimitGas_1025": {
        "_info": {
            "comment": "",
            "filling-rpc-server": "evm version 1.10.16-unstable-0f893109-20220105",
            "filling-tool-version": "retesteth-0.2.2-testinfo+commit.01c6aac2.Linux.g++",
            "filledWith": "CoreGeth-1.12.9-unstable-d64998ce9b05f4f41b35740c69c4b402e41a3105",
            "lllcversion": "Version: 0.5.14-develop.2021.11.27+commit.401d5358.Linux.g++",
            "source": "src/GeneralStateTestsFiller/stMemoryTest/stackLimitGas_1025Filler.json",
            "sourceHash": "b435e82495fc086dfee38ba27b145c1615a4869590bfb6a1d4f8647301569338"
        },
        "env": {
            "currentCoinbase": "0x2adc25665018aa1fe0e6bc666dac8fc2697ff9ba",
            "currentDifficulty": "0x20000",
            "currentGasLimit": "0xa00000000",
            "currentNumber": "0x1",
            "currentTimestamp": "0x3e8",
            "previousHash": "0x5e20a0453cecd065ea59c37ac63e079ee08998b6045136a8ce6635c7912ec0b6"
        },
        "pre": {
            "0x0f572e5295c57f15886f9b263e2f6d2d6c7b5ec6": {
                "code": "0x6103ff6000525b5a6001600051036000526000516006570000",
                "balance": "0xde0b6b3a7640000"
            },
            "0xa94f5374fce5edbc8e2a8697c15331677e6ebf0b": {
                "balance": "0x6400000000"
            }
        },
        "transaction": {
            "gasPrice": "0xa",
            "nonce": "0x0",
            "to": "0x0f572e5295c57f15886f9b263e2f6d2d6c7b5ec6",
            "data": [
                "0x"
            ],
            "gasLimit": [
                "0x186a0"
            ],
            "value": [
                "0x0a"
            ],
            "secretKey": "0x45a915e4d060149eb4365960e6a7a45f334393093061116b197e3240065ff2d8",
            "sender": "0xa94f5374fce5edbc8e2a8697c15331677e6ebf0b"
        },
        "post": {
            "ETC_Magneto": [
                {
                    "hash": "dc62011c041fd279c401386909c919de1c8005a9fed2a2f5a65a66c9dca6f23e",
                    "logs": "1dcc4de8dec75d7aab85b567b6ccd41ad312451b948a7413f0a142fd40d49347",
                    "txbytes": "0xf860800a830186a0940f572e5295c57f15886f9b263e2f6d2d6c7b5ec60a801ca062e8f359bbf68c6fc419a2b59b8ebce8255c8688c839a87f4f311ef24d028f83a067b2257faa5e338f546d1be921fbbb1b3d36b5e6914e6786e960876e3f3f73cf",
                    "indexes": {
                        "data": 0,
                        "gas": 0,
                        "value": 0
                    }
                }
            ],
            "ETC_Mystique": [
                {
                    "hash": "dc62011c041fd279c401386909c919de1c8005a9fed2a2f5a65a66c9dca6f23e",
                    "logs": "1dcc4de8dec75d7aab85b567b6ccd41ad312451b948a7413f0a142fd40d49347",
                    "txbytes": "0xf860800a830186a0940f572e5295c57f15886f9b263e2f6d2d6c7b5ec60a801ca062e8f359bbf68c6fc419a2b59b8ebce8255c8688c839a87f4f311ef24d028f83a067b2257faa5e338f546d1be921fbbb1b3d36b5e6914e6786e960876e3f3f73cf",
                    "indexes": {
                        "data": 0,
                        "gas": 0,
                        "value": 0
                    }
                }
            ],
            "ETC_Phoenix": [
                {
                    "hash": "dc62011c041fd279c401386909c919de1c8005a9fed2a2f5a65a66c9dca6f23e",
                    "logs": "1dcc4de8dec75d7aab85b567b6ccd41ad312451b948a7413f0a142fd40d49347",
                    "txbytes": "0xf860800a830186a0940f572e5295c57f15886f9b263e2f6d2d6c7b5ec60a801ca062e8f359bbf68c6fc419a2b59b8ebce8255c8688c839a87f4f311ef24d028f83a067b2257faa5e338f546d1be921fbbb1b3d36b5e6914e6786e960876e3f3f73cf",
                    "indexes": {
                        "data": 0,
                        "gas": 0,
                        "value": 0
                    }
                }
            ]
        }
    }
}