{
    "stackLimitPush32_1024": {
        "_info": {
            "comment": "",
            "filling-rpc-server": "evm version 1.10.16-unstable-0f893109-20220105",
            "filling-tool-version": "retesteth-0.2.2-testinfo+commit.01c6aac2.Linux.g++",
            "filledWith": "CoreGeth-1.12.9-unstable-4d59a861107c8232d6896811c48f229d30087be4",
            "lllcversion": "Version: 0.5.14-develop.2021.11.27+commit.401d5358.Linux.g++",
            "source": "src/GeneralStateTestsFiller/stMemoryTest/stackLimitPush32_1024Filler.json",
            "sourceHash": "e65166a06925c1b3ea6a01fbce8438614467ef5f8a2fdb5a48aa947629d8eb6e"
        },
        "env": {
            "currentCoinbase": "0x2adc25665018aa1fe0e6bc666dac8fc2697ff9ba",
            "currentDifficulty": "0x20000",
            "currentGasLimit": "0xa00000000",
            "currentNumber": "0x1",
            "currentTimestamp": "0x3e8",
            "currentBaseFee": "0xa",
            "previousHash": "0x5e20a0453cecd065ea59c37ac63e079ee08998b6045136a8ce6635c7912ec0b6"
        },
        "pre": {
            "0x0f572e5295c57f15886f9b263e2f6d2d6c7b5ec6": {
                "code": "0x6103fe6000525b7f0102030405060708090a0102030405060708090a0102030405060708090a01026001600051036000526000516006570000",
                "balance": "0xde0b6b3a7640000"
            },
            "0xa94f5374fce5edbc8e2a8697c15331677e6ebf0b": {
                "balance": "0x6400000000"
            }
        },
        "transaction": {
            "gasPrice": "0xa",
            "nonce": "0x0",
            "to": "0x0f572e5295c57f15886f9b263e2f6d2d6c7b5ec6",
            "data": [
                "0x"
            ],
            "gasLimit": [
                "0x186a0"
            ],
            "value": [
                "0x0a"
            ],
            "secretKey": "0x45a915e4d060149eb4365960e6a7a45f334393093061116b197e3240065ff2d8",
            "sender": "0xa94f5374fce5edbc8e2a8697c15331677e6ebf0b"
        },
        "post": {
            "ETC_Magneto": [
                {
                    "hash": "c0861a3b8721bfabb5a28b8a4b3caa390833d745b2baeae2e4e386dfa763c79a",
                    "logs": "1dcc4de8dec75d7aab85b567b6ccd41ad312451b948a7413f0a142fd40d49347",
                    "txbytes": "0xf860800a830186a0940f572e5295c57f15886f9b263e2f6d2d6c7b5ec60a801ca062e8f359bbf68c6fc419a2b59b8ebce8255c8688c839a87f4f311ef24d028f83a067b2257faa5e338f546d1be921fbbb1b3d36b5e6914e6786e960876e3f3f73cf",
                    "indexes": {
                        "data": 0,
                        "gas": 0,
                        "value": 0
                    }
                }
            ],
            "ETC_Mystique": [
                {
                    "hash": "c0861a3b8721bfabb5a28b8a4b3caa390833d745b2baeae2e4e386dfa763c79a",
                    "logs": "1dcc4de8dec75d7aab85b567b6ccd41ad312451b948a7413f0a142fd40d49347",
                    "txbytes": "0xf860800a830186a0940f572e5295c57f15886f9b263e2f6d2d6c7b5ec60a801ca062e8f359bbf68c6fc419a2b59b8ebce8255c8688c839a87f4f311ef24d028f83a067b2257faa5e338f546d1be921fbbb1b3d36b5e6914e6786e960876e3f3f73cf",
                    "indexes": {
                        "data": 0,
                        "gas": 0,
                        "value": 0
                    }
                }
            ],
            "ETC_Phoenix": [
                {
                    "hash": "c0861a3b8721bfabb5a28b8a4b3caa390833d745b2baeae2e4e386dfa763c79a",
                    "logs": "1dcc4de8dec75d7aab85b567b6ccd41ad312451b948a7413f0a142fd40d49347",
                    "txbytes": "0xf860800a830186a0940f572e5295c57f15886f9b263e2f6d2d6c7b5ec60a801ca062e8f359bbf68c6fc419a2b59b8ebce8255c8688c839a87f4f311ef24d028f83a067b2257faa5e338f546d1be921fbbb1b3d36b5e6914e6786e960876e3f3f73cf",
                    "indexes": {
                        "data": 0,
                        "gas": 0,
                        "value": 0
                    }
                }
            ]
        }
    }
}