{
    "pc": {
        "_info": {
            "comment": "Ori Pomerantz qbzzt1@gmail.com",
            "filling-rpc-server": "evm version 1.10.16-unstable-0f893109-20220105",
            "filling-tool-version": "retesteth-0.2.2-testinfo+commit.01c6aac2.Linux.g++",
            "filledWith": "CoreGeth-1.12.9-unstable-f4059ddd82d975bdc54fa648e5422a80172161cb",
            "lllcversion": "Version: 0.5.14-develop.2021.11.27+commit.401d5358.Linux.g++",
            "source": "src/GeneralStateTestsFiller/VMTests/vmIOandFlowOperations/pcFiller.yml",
            "sourceHash": "f3dad8068e6f56b272a6666b492bafb18a8562e1e8b7ff400d647c0859db11e0",
            "labels": {
                "0": "pc1",
                "1": "pc2"
            }
        },
        "env": {
            "currentCoinbase": "2adc25665018aa1fe0e6bc666dac8fc2697ff9ba",
            "currentDifficulty": "0x20000",
            "currentRandom": null,
            "currentGasLimit": "0x5f5e100",
            "currentNumber": "0x1",
            "currentTimestamp": "0x3e8",
            "currentBaseFee": "0xa"
        },
        "pre": {
            "0x0000000000000000000000000000000000000100": {
                "code": "0x5860005500",
                "balance": "0xba1a9ce0ba1a9ce"
            },
            "0x0000000000000000000000000000000000000101": {
                "code": "0x60ff6000555860015500",
                "balance": "0xba1a9ce0ba1a9ce"
            },
            "0xa94f5374fce5edbc8e2a8697c15331677e6ebf0b": {
                "balance": "0x100000000000"
            },
            "0xcccccccccccccccccccccccccccccccccccccccc": {
                "code": "0x6000600060006000600435610100015af400",
                "storage": {
                    "0x0000000000000000000000000000000000000000000000000000000000000000": "0x0000000000000000000000000000000000000000000000000000000000000bad"
                },
                "balance": "0xba1a9ce0ba1a9ce"
            }
        },
        "transaction": {
            "gasPrice": "0xa",
            "maxFeePerGas": null,
            "maxPriorityFeePerGas": null,
            "nonce": "0x0",
            "to": "0xcccccccccccccccccccccccccccccccccccccccc",
            "data": [
                "0x693c61390000000000000000000000000000000000000000000000000000000000000000",
                "0x693c61390000000000000000000000000000000000000000000000000000000000000001"
            ],
            "gasLimit": [
                "0x4c4b400"
            ],
            "value": [
                "0x01"
            ],
            "secretKey": "0x45a915e4d060149eb4365960e6a7a45f334393093061116b197e3240065ff2d8"
        },
        "out": "0x",
        "post": {
            "ETC_Magneto": [
                {
                    "hash": "b88894ad5cd467f38021cc801b63ecb51d99b60297933cc59980cbb24664b028",
                    "logs": "1dcc4de8dec75d7aab85b567b6ccd41ad312451b948a7413f0a142fd40d49347",
                    "txbytes": "0xf885800a8404c4b40094cccccccccccccccccccccccccccccccccccccccc01a4693c613900000000000000000000000000000000000000000000000000000000000000001ba0e8ff56322287185f6afd3422a825b47bf5c1a4ccf0dc0389cdc03f7c1c32b7eaa0776b02f9f5773238d3ff36b74a123f409cd6420908d7855bbe4c8ff63e00d698",
                    "indexes": {
                        "data": 0,
                        "gas": 0,
                        "value": 0
                    }
                },
                {
                    "hash": "d41080f7bf17ce0a19e7ded69043c37f54c590577af87b776cc288526c286f82",
                    "logs": "1dcc4de8dec75d7aab85b567b6ccd41ad312451b948a7413f0a142fd40d49347",
                    "txbytes": "0xf885800a8404c4b40094cccccccccccccccccccccccccccccccccccccccc01a4693c613900000000000000000000000000000000000000000000000000000000000000011ba02c5e81a024dd0f6fb773c8787fa46ab5eb55cb73df83562e6ddbe9106a3df7f6a029437b9a23e45bbfce086f2ddaa98b1e9e6914d7e58e2c5a128310042b332f89",
                    "indexes": {
                        "data": 1,
                        "gas": 0,
                        "value": 0
                    }
                }
            ],
            "ETC_Mystique": [
                {
                    "hash": "24b7d7afad329cf695eb80baa7c3522b699992a856afd0dc66979749acebd027",
                    "logs": "1dcc4de8dec75d7aab85b567b6ccd41ad312451b948a7413f0a142fd40d49347",
                    "txbytes": "0xf885800a8404c4b40094cccccccccccccccccccccccccccccccccccccccc01a4693c613900000000000000000000000000000000000000000000000000000000000000001ba0e8ff56322287185f6afd3422a825b47bf5c1a4ccf0dc0389cdc03f7c1c32b7eaa0776b02f9f5773238d3ff36b74a123f409cd6420908d7855bbe4c8ff63e00d698",
                    "indexes": {
                        "data": 0,
                        "gas": 0,
                        "value": 0
                    }
                },
                {
                    "hash": "d41080f7bf17ce0a19e7ded69043c37f54c590577af87b776cc288526c286f82",
                    "logs": "1dcc4de8dec75d7aab85b567b6ccd41ad312451b948a7413f0a142fd40d49347",
                    "txbytes": "0xf885800a8404c4b40094cccccccccccccccccccccccccccccccccccccccc01a4693c613900000000000000000000000000000000000000000000000000000000000000011ba02c5e81a024dd0f6fb773c8787fa46ab5eb55cb73df83562e6ddbe9106a3df7f6a029437b9a23e45bbfce086f2ddaa98b1e9e6914d7e58e2c5a128310042b332f89",
                    "indexes": {
                        "data": 1,
                        "gas": 0,
                        "value": 0
                    }
                }
            ],
            "ETC_Phoenix": [
                {
                    "hash": "88d687d5a7d12c605162bc933b9679281084bacc26ea890215a8448ff5a4be5d",
                    "logs": "1dcc4de8dec75d7aab85b567b6ccd41ad312451b948a7413f0a142fd40d49347",
                    "txbytes": "0xf885800a8404c4b40094cccccccccccccccccccccccccccccccccccccccc01a4693c613900000000000000000000000000000000000000000000000000000000000000001ba0e8ff56322287185f6afd3422a825b47bf5c1a4ccf0dc0389cdc03f7c1c32b7eaa0776b02f9f5773238d3ff36b74a123f409cd6420908d7855bbe4c8ff63e00d698",
                    "indexes": {
                        "data": 0,
                        "gas": 0,
                        "value": 0
                    }
                },
                {
                    "hash": "adaa5ed35c9bbd478bafe654d26d2bacb0e981ea4c1234b8acdf604445c93b63",
                    "logs": "1dcc4de8dec75d7aab85b567b6ccd41ad312451b948a7413f0a142fd40d49347",
                    "txbytes": "0xf885800a8404c4b40094cccccccccccccccccccccccccccccccccccccccc01a4693c613900000000000000000000000000000000000000000000000000000000000000011ba02c5e81a024dd0f6fb773c8787fa46ab5eb55cb73df83562e6ddbe9106a3df7f6a029437b9a23e45bbfce086f2ddaa98b1e9e6914d7e58e2c5a128310042b332f89",
                    "indexes": {
                        "data": 1,
                        "gas": 0,
                        "value": 0
                    }
                }
            ]
        }
    }
}