{
    "identity_to_smaller": {
        "_info": {
            "comment": "have a call to e.g. identity built-in that specifies output size less than input size. Check that the long input is totally available with RETURNDATA.  CALL is with 100000 as gas, address 4 as destination, 0 as value, 0 as in-offset, 32 as in-size, 16 as out-offset, 16 as out-size.  The returndatasize should see 32.",
            "filling-rpc-server": "evm version 1.10.16-unstable-0f893109-20220105",
            "filling-tool-version": "retesteth-0.2.2-testinfo+commit.01c6aac2.Linux.g++",
            "filledWith": "CoreGeth-1.12.9-unstable-f4059ddd82d975bdc54fa648e5422a80172161cb",
            "lllcversion": "Version: 0.5.14-develop.2021.11.27+commit.401d5358.Linux.g++",
            "source": "src/GeneralStateTestsFiller/stPreCompiledContracts/identity_to_smallerFiller.json",
            "sourceHash": "299792f5c3d7674a90cef92e4bef75528fa1d3a6369951469b99bd0fc303a890"
        },
        "env": {
            "currentCoinbase": "3535353535353535353535353535353535353535",
            "currentDifficulty": "0x20000",
            "currentRandom": null,
            "currentGasLimit": "0x5f5e100",
            "currentNumber": "0x1",
            "currentTimestamp": "0x3e8",
            "currentBaseFee": "0xa"
        },
        "pre": {
            "0x82a978b3f5962a5b0957d9ee9eef472ee55b42f1": {
                "balance": "0xde0b6b3a761fe12",
                "nonce": "0x1"
            },
            "0xc305c901078781c232a2a521c2af7980f8385ee9": {
                "code": "0x7f112233445566778899aabbccddeeff00112233445566778899aabbccddeeff00600052601060106020600060006004620186a0f1503d60005500",
                "balance": "0x0",
                "nonce": "0x21"
            }
        },
        "transaction": {
            "gasPrice": "0xa",
            "maxFeePerGas": null,
            "maxPriorityFeePerGas": null,
            "nonce": "0x1",
            "to": "0xc305c901078781c232a2a521c2af7980f8385ee9",
            "data": [
                "0x"
            ],
            "gasLimit": [
                "0x30d40"
            ],
            "value": [
                "0x00"
            ],
            "secretKey": "0x044852b2a670ade5407e78fb2863c51de9fcb96542a07186fe3aeda6bb8a116d"
        },
        "out": "0x",
        "post": {
            "ETC_Magneto": [
                {
                    "hash": "02635c89dab273a5d29a52f93e2aae2c0c453d6c948f152a00e807cef514f503",
                    "logs": "1dcc4de8dec75d7aab85b567b6ccd41ad312451b948a7413f0a142fd40d49347",
                    "txbytes": "0xf860010a83030d4094c305c901078781c232a2a521c2af7980f8385ee980801ca0602b800f0949f6e02c640db7952151b77666d04650acacc85bac5b60e26bd8d0a008126c5779b4f10e04f9a76fefdf77fbb279e6efe9019747ee85979bd103c2ca",
                    "indexes": {
                        "data": 0,
                        "gas": 0,
                        "value": 0
                    }
                }
            ],
            "ETC_Mystique": [
                {
                    "hash": "02635c89dab273a5d29a52f93e2aae2c0c453d6c948f152a00e807cef514f503",
                    "logs": "1dcc4de8dec75d7aab85b567b6ccd41ad312451b948a7413f0a142fd40d49347",
                    "txbytes": "0xf860010a83030d4094c305c901078781c232a2a521c2af7980f8385ee980801ca0602b800f0949f6e02c640db7952151b77666d04650acacc85bac5b60e26bd8d0a008126c5779b4f10e04f9a76fefdf77fbb279e6efe9019747ee85979bd103c2ca",
                    "indexes": {
                        "data": 0,
                        "gas": 0,
                        "value": 0
                    }
                }
            ],
            "ETC_Phoenix": [
                {
                    "hash": "37c0236911ddfa8dcbc3d8a82aa2c5fd271fb44bb89268e8c433f13b4dc1d43e",
                    "logs": "1dcc4de8dec75d7aab85b567b6ccd41ad312451b948a7413f0a142fd40d49347",
                    "txbytes": "0xf860010a83030d4094c305c901078781c232a2a521c2af7980f8385ee980801ca0602b800f0949f6e02c640db7952151b77666d04650acacc85bac5b60e26bd8d0a008126c5779b4f10e04f9a76fefdf77fbb279e6efe9019747ee85979bd103c2ca",
                    "indexes": {
                        "data": 0,
                        "gas": 0,
                        "value": 0
                    }
                }
            ]
        }
    }
}