{
    "coinbaseT2": {
        "_info": {
            "comment": "Ori Pomerantz qbzzt1@gmail.com",
            "filling-rpc-server": "evm version 1.10.16-unstable-0f893109-20220105",
            "filling-tool-version": "retesteth-0.2.2-testinfo+commit.01c6aac2.Linux.g++",
            "filledWith": "CoreGeth-1.12.9-unstable-4cf5b2b0837228e7d5eadba6a01ffb80e9288e21",
            "lllcversion": "Version: 0.5.14-develop.2021.11.27+commit.401d5358.Linux.g++",
            "source": "src/GeneralStateTestsFiller/stEIP2930/coinbaseT2Filler.yml",
            "sourceHash": "b023602bf37ae7fcd4c350ddc8ef960d3214ed24e5ae5b8c8cc3583a5b682625",
            "labels": {
                "0": "T2baseInList",
                "1": "T2baseNotInList"
            }
        },
        "env": {
            "currentCoinbase": "0x000000000000000000000000000000000000ba5e",
            "currentDifficulty": "0x20000",
            "currentGasLimit": "0xff112233445566",
            "currentNumber": "0x1",
            "currentTimestamp": "0x3e8",
            "previousHash": "0x5e20a0453cecd065ea59c37ac63e079ee08998b6045136a8ce6635c7912ec0b6"
        },
        "pre": {
            "0x000000000000000000000000000000000000ba5e": {
                "code": "0x",
                "balance": "0x0",
                "nonce": "0x1"
            },
            "0x000000000000000000000000000000000000c0de": {
                "code": "0x5a6000526000600060006000620f424061ba5e5af1505a60205260216020516000510303600055",
                "balance": "0xde0b6b3a7640000",
                "nonce": "0x1"
            },
            "0xa94f5374fce5edbc8e2a8697c15331677e6ebf0b": {
                "code": "0x",
                "balance": "0xde0b6b3a7640000",
                "nonce": "0x1"
            }
        },
        "transaction": {
            "gasPrice": "0xa",
            "maxFeePerGas": "0x2710",
            "maxPriorityFeePerGas": "0x64",
            "nonce": "0x1",
            "to": "0x000000000000000000000000000000000000c0de",
            "data": [
                "0x693c61390000000000000000000000000000000000000000000000000000000000000000",
                "0x693c61390000000000000000000000000000000000000000000000000000000000000000"
            ],
            "accessLists": [
                [
                    {
                        "address": "0x000000000000000000000000000000000000ba5e",
                        "storageKeys": []
                    }
                ],
                [
                    {
                        "address": "0x000000000000000000000000000000000000ba5a",
                        "storageKeys": []
                    }
                ]
            ],
            "gasLimit": [
                "0x2625a00"
            ],
            "value": [
                "0x00"
            ],
            "secretKey": "0x45a915e4d060149eb4365960e6a7a45f334393093061116b197e3240065ff2d8",
            "sender": "0xa94f5374fce5edbc8e2a8697c15331677e6ebf0b"
        },
        "post": {
            "ETC_Mystique": [
                {
                    "hash": "1c8f398c6a243ffec2e8f63ef816e48c3af0fbbafc875837c75bb78b555f40aa",
                    "logs": "1dcc4de8dec75d7aab85b567b6ccd41ad312451b948a7413f0a142fd40d49347",
                    "txbytes": "0x02f8a10101648227108402625a0094000000000000000000000000000000000000c0de80a4693c61390000000000000000000000000000000000000000000000000000000000000000d7d694000000000000000000000000000000000000ba5ec080a0d5a3052a8cc387f35ffdebe832afdfdd45980cdcbb9b926dee7fb9b1d9a4ee08a06210d404eb6aecd05bc214b120959a71ede9fadcae4b769c96c58bffa216f205",
                    "expectException": "TR_TypeNotSupported",
                    "indexes": {
                        "data": 0,
                        "gas": 0,
                        "value": 0
                    }
                },
                {
                    "hash": "a0ca8c3dc6c4b54828ffd3e89c977b345c9c152246c9c38cc2c9ee78fb0621b1",
                    "logs": "1dcc4de8dec75d7aab85b567b6ccd41ad312451b948a7413f0a142fd40d49347",
                    "txbytes": "0x02f8a10101648227108402625a0094000000000000000000000000000000000000c0de80a4693c61390000000000000000000000000000000000000000000000000000000000000000d7d694000000000000000000000000000000000000ba5ac080a041870d7c20b48b485d76c28565c7da72ff32b28901157b4e815b2481795edb64a02923e080922a492542d9aaba935f81441a85df4465cacd3c204de6d38cd7ce03",
                    "expectException": "TR_TypeNotSupported",
                    "indexes": {
                        "data": 1,
                        "gas": 0,
                        "value": 0
                    }
                }
            ]
        }
    }
}