{
    "coinbaseT01": {
        "_info": {
            "comment": "Ori Pomerantz qbzzt1@gmail.com",
            "filling-rpc-server": "evm version 1.10.16-unstable-0f893109-20220105",
            "filling-tool-version": "retesteth-0.2.2-testinfo+commit.01c6aac2.Linux.g++",
            "filledWith": "CoreGeth-1.12.9-unstable-4d59a861107c8232d6896811c48f229d30087be4",
            "lllcversion": "Version: 0.5.14-develop.2021.11.27+commit.401d5358.Linux.g++",
            "source": "src/GeneralStateTestsFiller/stEIP2930/coinbaseT01Filler.yml",
            "sourceHash": "2734d937139193adbe3001b8b03250155382bec457fc9c3167df8b04a613712c",
            "labels": {
                "0": "T0",
                "1": "T1baseInList",
                "2": "T1baseNotInList"
            }
        },
        "env": {
            "currentCoinbase": "0x000000000000000000000000000000000000ba5e",
            "currentDifficulty": "0x20000",
            "currentGasLimit": "0xff112233445566",
            "currentNumber": "0x1",
            "currentTimestamp": "0x3e8",
            "currentBaseFee": "0x64",
            "previousHash": "0x5e20a0453cecd065ea59c37ac63e079ee08998b6045136a8ce6635c7912ec0b6"
        },
        "pre": {
            "0x000000000000000000000000000000000000ba5e": {
                "balance": "0x0",
                "nonce": "0x1"
            },
            "0x000000000000000000000000000000000000c0de": {
                "code": "0x5a6000526000600060006000620f424061ba5e5af1505a60205260216020516000510303600055",
                "balance": "0xde0b6b3a7640000",
                "nonce": "0x1"
            },
            "0xa94f5374fce5edbc8e2a8697c15331677e6ebf0b": {
                "balance": "0xde0b6b3a7640000",
                "nonce": "0x1"
            }
        },
        "transaction": {
            "gasPrice": "0x3e8",
            "nonce": "0x1",
            "to": "0x000000000000000000000000000000000000c0de",
            "data": [
                "0x693c61390000000000000000000000000000000000000000000000000000000000000000",
                "0x693c61390000000000000000000000000000000000000000000000000000000000000000",
                "0x693c61390000000000000000000000000000000000000000000000000000000000000000"
            ],
            "accessLists": [
                null,
                [
                    {
                        "address": "0x000000000000000000000000000000000000ba5e",
                        "storageKeys": []
                    }
                ],
                [
                    {
                        "address": "0x000000000000000000000000000000000000ba5a",
                        "storageKeys": []
                    }
                ]
            ],
            "gasLimit": [
                "0x2625a00"
            ],
            "value": [
                "0x00"
            ],
            "secretKey": "0x45a915e4d060149eb4365960e6a7a45f334393093061116b197e3240065ff2d8",
            "sender": "0xa94f5374fce5edbc8e2a8697c15331677e6ebf0b"
        },
        "post": {
            "ETC_Magneto": [
                {
                    "hash": "aa0e374f55a8479bbd3da47ca81a022021c0dff6ad6114365ca285f46f83a1bd",
                    "logs": "1dcc4de8dec75d7aab85b567b6ccd41ad312451b948a7413f0a142fd40d49347",
                    "txbytes": "0x01f8a001018203e88402625a0094000000000000000000000000000000000000c0de80a4693c61390000000000000000000000000000000000000000000000000000000000000000d7d694000000000000000000000000000000000000ba5ec080a08997fab173d7bd66a2ab6d24b6611574d1399451748ebbeaa0b326eca7cc6837a01c9105bd8e3aed1138ed54d00154cd61f3e70dd70dd89752f5d62d8f18daa0e6",
                    "indexes": {
                        "data": 1,
                        "gas": 0,
                        "value": 0
                    }
                },
                {
                    "hash": "14c1818c40245d7d628c5216d7dea687ce1e5140ffd9793dff16b8ce110dbb60",
                    "logs": "1dcc4de8dec75d7aab85b567b6ccd41ad312451b948a7413f0a142fd40d49347",
                    "txbytes": "0xf887018203e88402625a0094000000000000000000000000000000000000c0de80a4693c613900000000000000000000000000000000000000000000000000000000000000001ca04d353bbce5f27c32e87aeb2e22b4ef07f5f6eb2bb1b84fc679fdd3ec31fad618a04d4ba45d24e79886b43f7386a328918a68b89a6bcf53af2c3884fc5f27b1c4e3",
                    "indexes": {
                        "data": 0,
                        "gas": 0,
                        "value": 0
                    }
                },
                {
                    "hash": "7f1d8c0a85f5bddb9daa97f41c510d0916fe7aa5b925fb5b76c2b93a3aef2a80",
                    "logs": "1dcc4de8dec75d7aab85b567b6ccd41ad312451b948a7413f0a142fd40d49347",
                    "txbytes": "0x01f8a001018203e88402625a0094000000000000000000000000000000000000c0de80a4693c61390000000000000000000000000000000000000000000000000000000000000000d7d694000000000000000000000000000000000000ba5ac080a09ff9722ebee09bdcfbbf66eaab3aef0d4122ca12efd426c8bff1b51d2ad82f2fa04945da1ff7e521a6c48b44518a922b2fe360e5f2fe1dd8dc051707afa7bd0fc8",
                    "indexes": {
                        "data": 2,
                        "gas": 0,
                        "value": 0
                    }
                }
            ],
            "ETC_Mystique": [
                {
                    "hash": "aa0e374f55a8479bbd3da47ca81a022021c0dff6ad6114365ca285f46f83a1bd",
                    "logs": "1dcc4de8dec75d7aab85b567b6ccd41ad312451b948a7413f0a142fd40d49347",
                    "txbytes": "0x01f8a001018203e88402625a0094000000000000000000000000000000000000c0de80a4693c61390000000000000000000000000000000000000000000000000000000000000000d7d694000000000000000000000000000000000000ba5ec080a08997fab173d7bd66a2ab6d24b6611574d1399451748ebbeaa0b326eca7cc6837a01c9105bd8e3aed1138ed54d00154cd61f3e70dd70dd89752f5d62d8f18daa0e6",
                    "indexes": {
                        "data": 1,
                        "gas": 0,
                        "value": 0
                    }
                },
                {
                    "hash": "14c1818c40245d7d628c5216d7dea687ce1e5140ffd9793dff16b8ce110dbb60",
                    "logs": "1dcc4de8dec75d7aab85b567b6ccd41ad312451b948a7413f0a142fd40d49347",
                    "txbytes": "0xf887018203e88402625a0094000000000000000000000000000000000000c0de80a4693c613900000000000000000000000000000000000000000000000000000000000000001ca04d353bbce5f27c32e87aeb2e22b4ef07f5f6eb2bb1b84fc679fdd3ec31fad618a04d4ba45d24e79886b43f7386a328918a68b89a6bcf53af2c3884fc5f27b1c4e3",
                    "indexes": {
                        "data": 0,
                        "gas": 0,
                        "value": 0
                    }
                },
                {
                    "hash": "7f1d8c0a85f5bddb9daa97f41c510d0916fe7aa5b925fb5b76c2b93a3aef2a80",
                    "logs": "1dcc4de8dec75d7aab85b567b6ccd41ad312451b948a7413f0a142fd40d49347",
                    "txbytes": "0x01f8a001018203e88402625a0094000000000000000000000000000000000000c0de80a4693c61390000000000000000000000000000000000000000000000000000000000000000d7d694000000000000000000000000000000000000ba5ac080a09ff9722ebee09bdcfbbf66eaab3aef0d4122ca12efd426c8bff1b51d2ad82f2fa04945da1ff7e521a6c48b44518a922b2fe360e5f2fe1dd8dc051707afa7bd0fc8",
                    "indexes": {
                        "data": 2,
                        "gas": 0,
                        "value": 0
                    }
                }
            ]
        }
    }
}