{
    "manualCreate": {
        "_info": {
            "comment": "Ori Pomerantz qbzzt1@gmail.com",
            "filling-rpc-server": "evm version 1.10.16-unstable-0f893109-20220105",
            "filling-tool-version": "retesteth-0.2.2-testinfo+commit.01c6aac2.Linux.g++",
            "filledWith": "CoreGeth-1.12.9-unstable-f4059ddd82d975bdc54fa648e5422a80172161cb",
            "lllcversion": "Version: 0.5.14-develop.2021.11.27+commit.401d5358.Linux.g++",
            "source": "src/GeneralStateTestsFiller/stEIP2930/manualCreateFiller.yml",
            "sourceHash": "44e6e80d3753e056cda5d3315a5cbac2bafad4098f7f97d81ba60af48f51054e",
            "labels": {
                "0": "allBad",
                "1": "addrGoodCellBad",
                "2": "allGood"
            }
        },
        "env": {
            "currentCoinbase": "2adc25665018aa1fe0e6bc666dac8fc2697ff9ba",
            "currentDifficulty": "0x20000",
            "currentRandom": null,
            "currentGasLimit": "0xff112233445566",
            "currentNumber": "0x1",
            "currentTimestamp": "0x3e8",
            "currentBaseFee": "0xa"
        },
        "pre": {
            "0xa94f5374fce5edbc8e2a8697c15331677e6ebf0b": {
                "balance": "0x1000000000000000000",
                "nonce": "0x1"
            }
        },
        "transaction": {
            "gasPrice": "0xa",
            "maxFeePerGas": null,
            "maxPriorityFeePerGas": null,
            "nonce": "0x1",
            "to": "",
            "data": [
                "0x5a3031505a90036001555a60ff6000555a900360005500",
                "0x5a3031505a90036001555a60ff6000555a900360005500",
                "0x5a3031505a90036001555a60ff6000555a900360005500"
            ],
            "accessLists": [
                [
                    {
                        "address": "0x0000000000000000000000000000000000000100",
                        "storageKeys": [
                            "0x0000000000000000000000000000000000000000000000000000000000000000"
                        ]
                    }
                ],
                [
                    {
                        "address": "0xec0e71ad0a90ffe1909d27dac207f7680abba42d",
                        "storageKeys": [
                            "0x0000000000000000000000000000000000000000000000000000000000000001"
                        ]
                    }
                ],
                [
                    {
                        "address": "0xec0e71ad0a90ffe1909d27dac207f7680abba42d",
                        "storageKeys": [
                            "0x0000000000000000000000000000000000000000000000000000000000000000"
                        ]
                    }
                ]
            ],
            "gasLimit": [
                "0x61a80"
            ],
            "value": [
                "0x00"
            ],
            "secretKey": "0x45a915e4d060149eb4365960e6a7a45f334393093061116b197e3240065ff2d8"
        },
        "out": "0x",
        "post": {
            "ETC_Magneto": [
                {
                    "hash": "2610174577036d9c87be8a649cb07a0c2c4a1a5e2a177c01467dea97767c2a18",
                    "logs": "1dcc4de8dec75d7aab85b567b6ccd41ad312451b948a7413f0a142fd40d49347",
                    "txbytes": "0x01f89e01010a83061a808080975a3031505a90036001555a60ff6000555a900360005500f838f794ec0e71ad0a90ffe1909d27dac207f7680abba42de1a0000000000000000000000000000000000000000000000000000000000000000080a0624806136601d18806233d5ec831f6926ff892c3fbdd32b0a0a694501036127da0638a01db82a445461cf2ab4b2876ffbcd55ab145c93efff82fbfcff0ec59fa25",
                    "indexes": {
                        "data": 2,
                        "gas": 0,
                        "value": 0
                    }
                },
                {
                    "hash": "a5fde3e72a7dfd3c8f5986f4feda14e211814c4ecb6d070aca8344e1b94c56a5",
                    "logs": "1dcc4de8dec75d7aab85b567b6ccd41ad312451b948a7413f0a142fd40d49347",
                    "txbytes": "0x01f89e01010a83061a808080975a3031505a90036001555a60ff6000555a900360005500f838f7940000000000000000000000000000000000000100e1a0000000000000000000000000000000000000000000000000000000000000000001a00454375860ec988e662d2e850993d5911bea5eed19e337485582473bc6b25762a0567e77442152378e8dc3ecf3c604ddd173b379e9b90e66c58fc520452c352746",
                    "indexes": {
                        "data": 0,
                        "gas": 0,
                        "value": 0
                    }
                },
                {
                    "hash": "73176822dfac8bfb746c3bd8ab3b61ed814314deb02d72530c0d5b6d83bb0a55",
                    "logs": "1dcc4de8dec75d7aab85b567b6ccd41ad312451b948a7413f0a142fd40d49347",
                    "txbytes": "0x01f89e01010a83061a808080975a3031505a90036001555a60ff6000555a900360005500f838f794ec0e71ad0a90ffe1909d27dac207f7680abba42de1a0000000000000000000000000000000000000000000000000000000000000000101a001ca31f0900d1cff85308441b91a2bb77f60f92c9aa41f08b84d121ede10498ba06ea1c97852769a04d15498188ed4467ee6773dc06e1067d95b18d9c6e264be6c",
                    "indexes": {
                        "data": 1,
                        "gas": 0,
                        "value": 0
                    }
                }
            ],
            "ETC_Mystique": [
                {
                    "hash": "2610174577036d9c87be8a649cb07a0c2c4a1a5e2a177c01467dea97767c2a18",
                    "logs": "1dcc4de8dec75d7aab85b567b6ccd41ad312451b948a7413f0a142fd40d49347",
                    "txbytes": "0x01f89e01010a83061a808080975a3031505a90036001555a60ff6000555a900360005500f838f794ec0e71ad0a90ffe1909d27dac207f7680abba42de1a0000000000000000000000000000000000000000000000000000000000000000080a0624806136601d18806233d5ec831f6926ff892c3fbdd32b0a0a694501036127da0638a01db82a445461cf2ab4b2876ffbcd55ab145c93efff82fbfcff0ec59fa25",
                    "indexes": {
                        "data": 2,
                        "gas": 0,
                        "value": 0
                    }
                },
                {
                    "hash": "a5fde3e72a7dfd3c8f5986f4feda14e211814c4ecb6d070aca8344e1b94c56a5",
                    "logs": "1dcc4de8dec75d7aab85b567b6ccd41ad312451b948a7413f0a142fd40d49347",
                    "txbytes": "0x01f89e01010a83061a808080975a3031505a90036001555a60ff6000555a900360005500f838f7940000000000000000000000000000000000000100e1a0000000000000000000000000000000000000000000000000000000000000000001a00454375860ec988e662d2e850993d5911bea5eed19e337485582473bc6b25762a0567e77442152378e8dc3ecf3c604ddd173b379e9b90e66c58fc520452c352746",
                    "indexes": {
                        "data": 0,
                        "gas": 0,
                        "value": 0
                    }
                },
                {
                    "hash": "73176822dfac8bfb746c3bd8ab3b61ed814314deb02d72530c0d5b6d83bb0a55",
                    "logs": "1dcc4de8dec75d7aab85b567b6ccd41ad312451b948a7413f0a142fd40d49347",
                    "txbytes": "0x01f89e01010a83061a808080975a3031505a90036001555a60ff6000555a900360005500f838f794ec0e71ad0a90ffe1909d27dac207f7680abba42de1a0000000000000000000000000000000000000000000000000000000000000000101a001ca31f0900d1cff85308441b91a2bb77f60f92c9aa41f08b84d121ede10498ba06ea1c97852769a04d15498188ed4467ee6773dc06e1067d95b18d9c6e264be6c",
                    "indexes": {
                        "data": 1,
                        "gas": 0,
                        "value": 0
                    }
                }
            ]
        }
    }
}