{
    "eip2929-ff": {
        "_info": {
            "comment": "Ori Pomerantz qbzzt1@gmail.com",
            "filling-rpc-server": "evm version 1.10.16-unstable-0f893109-20220105",
            "filling-tool-version": "retesteth-0.2.2-testinfo+commit.01c6aac2.Linux.g++",
            "filledWith": "CoreGeth-1.12.9-unstable-4cf5b2b0837228e7d5eadba6a01ffb80e9288e21",
            "lllcversion": "Version: 0.5.14-develop.2021.11.27+commit.401d5358.Linux.g++",
            "source": "src/GeneralStateTestsFiller/stEIP150singleCodeGasPrices/eip2929-ffFiller.yml",
            "sourceHash": "9d40b64d8903ab9c009da12f3b6f1b8c052a4a039ca6e3897f5e5c0a1ce223f4",
            "labels": {
                "0": "simple",
                "1": "balance",
                "2": "extcodesize",
                "3": "extcodecopy",
                "4": "extcodehash",
                "5": "call",
                "6": "callcode",
                "7": "delegatecall",
                "8": "staticcall"
            }
        },
        "env": {
            "currentCoinbase": "0x2adc25665018aa1fe0e6bc666dac8fc2697ff9ba",
            "currentDifficulty": "0x20000",
            "currentGasLimit": "0x5f5e100",
            "currentNumber": "0x1",
            "currentTimestamp": "0x3e8",
            "previousHash": "0x5e20a0453cecd065ea59c37ac63e079ee08998b6045136a8ce6635c7912ec0b6"
        },
        "pre": {
            "0x000000000000000000000000000000000000ca11": {
                "code": "0x61de57ff00",
                "balance": "0xde0b6b3a7640000",
                "nonce": "0x0"
            },
            "0x000000000000000000000000000000000000de57": {
                "code": "0x00",
                "balance": "0x0",
                "nonce": "0x0"
            },
            "0xa94f5374fce5edbc8e2a8697c15331677e6ebf0b": {
                "code": "0x",
                "balance": "0xba1a9ce0ba1a9ce",
                "nonce": "0x0"
            },
            "0xcccccccccccccccccccccccccccccccccccccccc": {
                "code": "0x60ff6101005260ff6101205261ca113150603160043514610021576000610026565b61de57315b50603b6004351461003857600061003d565b61de573b5b50603c600435146100505760005061005b565b60016000600061de573c5b603f6004351461006c576000610071565b61de573f5b5060f160043514610083576000610096565b6000600060006000600061de5762010000f15b5060f2600435146100a85760006100bb565b6000600060006000600061de5762010000f25b5060f4600435146100cd5760006100de565b600060006000600061de5762010000f45b5060fa600435146100f0576000610101565b600060006000600061de5762010000fa5b505a610100526000600060006000600061ca116301000000f1505a610120526008610120516101005103036000555a6101005261de5731505a6101205260086101205161010051030360015500",
                "balance": "0xba1a9ce0ba1a9ce",
                "nonce": "0x0"
            }
        },
        "transaction": {
            "gasPrice": "0xa",
            "nonce": "0x0",
            "to": "0xcccccccccccccccccccccccccccccccccccccccc",
            "data": [
                "0x693c61390000000000000000000000000000000000000000000000000000000000000000",
                "0x693c61390000000000000000000000000000000000000000000000000000000000000031",
                "0x693c6139000000000000000000000000000000000000000000000000000000000000003b",
                "0x693c6139000000000000000000000000000000000000000000000000000000000000003c",
                "0x693c6139000000000000000000000000000000000000000000000000000000000000003f",
                "0x693c613900000000000000000000000000000000000000000000000000000000000000f1",
                "0x693c613900000000000000000000000000000000000000000000000000000000000000f2",
                "0x693c613900000000000000000000000000000000000000000000000000000000000000f4",
                "0x693c613900000000000000000000000000000000000000000000000000000000000000fa"
            ],
            "gasLimit": [
                "0x4c4b400"
            ],
            "value": [
                "0x01"
            ],
            "secretKey": "0x45a915e4d060149eb4365960e6a7a45f334393093061116b197e3240065ff2d8",
            "sender": "0xa94f5374fce5edbc8e2a8697c15331677e6ebf0b"
        },
        "post": {
            "ETC_Magneto": [
                {
                    "hash": "14c1924cf4ae3c852c114981fcf09352d2657bdedbb9c81091348b6d34f4e58b",
                    "logs": "1dcc4de8dec75d7aab85b567b6ccd41ad312451b948a7413f0a142fd40d49347",
                    "txbytes": "0xf885800a8404c4b40094cccccccccccccccccccccccccccccccccccccccc01a4693c613900000000000000000000000000000000000000000000000000000000000000001ba0e8ff56322287185f6afd3422a825b47bf5c1a4ccf0dc0389cdc03f7c1c32b7eaa0776b02f9f5773238d3ff36b74a123f409cd6420908d7855bbe4c8ff63e00d698",
                    "indexes": {
                        "data": 0,
                        "gas": 0,
                        "value": 0
                    }
                },
                {
                    "hash": "678cc6515b8cbeac287a803a5d957546326a9290001a0df1446ea67b57698964",
                    "logs": "1dcc4de8dec75d7aab85b567b6ccd41ad312451b948a7413f0a142fd40d49347",
                    "txbytes": "0xf885800a8404c4b40094cccccccccccccccccccccccccccccccccccccccc01a4693c613900000000000000000000000000000000000000000000000000000000000000311ca0664e7c39f15d06fa5c9f3eadbb594c244314fe1bbd8a185f7fae7fd132de762ca060014bd21d6f2ae1399c834a1c41a9ec76495ee2f348d21a1b28dbfadd4d1707",
                    "indexes": {
                        "data": 1,
                        "gas": 0,
                        "value": 0
                    }
                },
                {
                    "hash": "678cc6515b8cbeac287a803a5d957546326a9290001a0df1446ea67b57698964",
                    "logs": "1dcc4de8dec75d7aab85b567b6ccd41ad312451b948a7413f0a142fd40d49347",
                    "txbytes": "0xf885800a8404c4b40094cccccccccccccccccccccccccccccccccccccccc01a4693c6139000000000000000000000000000000000000000000000000000000000000003b1ca01c1554f7eb65e2ed578d1cd28f6917f23c9c2cdd5433800eda2e97d825c76eeda067feb5f1c063f9f776c972ab4302b843be96245d4527f0defcdeea9631600e1d",
                    "indexes": {
                        "data": 2,
                        "gas": 0,
                        "value": 0
                    }
                },
                {
                    "hash": "4fc536b3d9ba9ec13701f8638859ffbbe73282ef0045a3028b44b189dfbe975b",
                    "logs": "1dcc4de8dec75d7aab85b567b6ccd41ad312451b948a7413f0a142fd40d49347",
                    "txbytes": "0xf885800a8404c4b40094cccccccccccccccccccccccccccccccccccccccc01a4693c6139000000000000000000000000000000000000000000000000000000000000003c1ca0b145ea4d95b3d4b84929fd488be9816d6412de88513c7aa8ca0ac0cb81b9beb9a034803a86ff04ba54d98e7e71ffab7f72d126c8c9675cf79c95042f98483fdee2",
                    "indexes": {
                        "data": 3,
                        "gas": 0,
                        "value": 0
                    }
                },
                {
                    "hash": "678cc6515b8cbeac287a803a5d957546326a9290001a0df1446ea67b57698964",
                    "logs": "1dcc4de8dec75d7aab85b567b6ccd41ad312451b948a7413f0a142fd40d49347",
                    "txbytes": "0xf885800a8404c4b40094cccccccccccccccccccccccccccccccccccccccc01a4693c6139000000000000000000000000000000000000000000000000000000000000003f1ba038f0395a398db099b518c70e4554d48e449a4a0650dcf780c8afa88acb875e2fa022f8e06e868f73b1a82650e0b9d9fbe32b060f0b107cc7d5b62a5ee97f2617b2",
                    "indexes": {
                        "data": 4,
                        "gas": 0,
                        "value": 0
                    }
                },
                {
                    "hash": "734182a1490360e245ef80cbe70b992f977d79a2a8add66b7af68eac429d7bb9",
                    "logs": "1dcc4de8dec75d7aab85b567b6ccd41ad312451b948a7413f0a142fd40d49347",
                    "txbytes": "0xf885800a8404c4b40094cccccccccccccccccccccccccccccccccccccccc01a4693c613900000000000000000000000000000000000000000000000000000000000000f11ca0505c84623e0cead264d4a29fe7a9209996049b09a956454bc01317f299718243a01cae9fd010ecb74bde897157732e197f6e34093e9e0b71c93884cb9d48d0e180",
                    "indexes": {
                        "data": 5,
                        "gas": 0,
                        "value": 0
                    }
                },
                {
                    "hash": "734182a1490360e245ef80cbe70b992f977d79a2a8add66b7af68eac429d7bb9",
                    "logs": "1dcc4de8dec75d7aab85b567b6ccd41ad312451b948a7413f0a142fd40d49347",
                    "txbytes": "0xf885800a8404c4b40094cccccccccccccccccccccccccccccccccccccccc01a4693c613900000000000000000000000000000000000000000000000000000000000000f21ba05bdc52b08637727c1dd29ee0d670dd33e70e97f040465a0cec0ce84e3f4f3e46a07210ba1aaf8171b25388be76d61eaaf3d9d13620c0b362edf23c5dc7f8f14f61",
                    "indexes": {
                        "data": 6,
                        "gas": 0,
                        "value": 0
                    }
                },
                {
                    "hash": "bb32ee5084855b1a13282dd1e58ac7094025281540890676f00f1590ab5a40de",
                    "logs": "1dcc4de8dec75d7aab85b567b6ccd41ad312451b948a7413f0a142fd40d49347",
                    "txbytes": "0xf885800a8404c4b40094cccccccccccccccccccccccccccccccccccccccc01a4693c613900000000000000000000000000000000000000000000000000000000000000f41ba06267fb80ef59ce5cb26c1f58453977efdf7a8434c70554dfc1b067611375d6e9a05168ee07b63c8a1b0016af53e68c97420b7acc000702095d485fb9cc8e10a058",
                    "indexes": {
                        "data": 7,
                        "gas": 0,
                        "value": 0
                    }
                },
                {
                    "hash": "bb32ee5084855b1a13282dd1e58ac7094025281540890676f00f1590ab5a40de",
                    "logs": "1dcc4de8dec75d7aab85b567b6ccd41ad312451b948a7413f0a142fd40d49347",
                    "txbytes": "0xf885800a8404c4b40094cccccccccccccccccccccccccccccccccccccccc01a4693c613900000000000000000000000000000000000000000000000000000000000000fa1ba03cebfded56f903c8a96571c4e262fad07774f67cd46caa950d941ce84b63c306a05a039d70031178287f8def45b59972ae56bef24ff79921a05b9b2d58a06b8633",
                    "indexes": {
                        "data": 8,
                        "gas": 0,
                        "value": 0
                    }
                }
            ],
            "ETC_Mystique": [
                {
                    "hash": "0e4a9452534234c66827098f3360cd1fc5cee3261e4c721781658beca5243474",
                    "logs": "1dcc4de8dec75d7aab85b567b6ccd41ad312451b948a7413f0a142fd40d49347",
                    "txbytes": "0xf885800a8404c4b40094cccccccccccccccccccccccccccccccccccccccc01a4693c613900000000000000000000000000000000000000000000000000000000000000001ba0e8ff56322287185f6afd3422a825b47bf5c1a4ccf0dc0389cdc03f7c1c32b7eaa0776b02f9f5773238d3ff36b74a123f409cd6420908d7855bbe4c8ff63e00d698",
                    "indexes": {
                        "data": 0,
                        "gas": 0,
                        "value": 0
                    }
                },
                {
                    "hash": "05531527169abaa4cfb98fcc78f493d4fd8b2f518ccb827fb6d96f89ead3aaeb",
                    "logs": "1dcc4de8dec75d7aab85b567b6ccd41ad312451b948a7413f0a142fd40d49347",
                    "txbytes": "0xf885800a8404c4b40094cccccccccccccccccccccccccccccccccccccccc01a4693c613900000000000000000000000000000000000000000000000000000000000000311ca0664e7c39f15d06fa5c9f3eadbb594c244314fe1bbd8a185f7fae7fd132de762ca060014bd21d6f2ae1399c834a1c41a9ec76495ee2f348d21a1b28dbfadd4d1707",
                    "indexes": {
                        "data": 1,
                        "gas": 0,
                        "value": 0
                    }
                },
                {
                    "hash": "05531527169abaa4cfb98fcc78f493d4fd8b2f518ccb827fb6d96f89ead3aaeb",
                    "logs": "1dcc4de8dec75d7aab85b567b6ccd41ad312451b948a7413f0a142fd40d49347",
                    "txbytes": "0xf885800a8404c4b40094cccccccccccccccccccccccccccccccccccccccc01a4693c6139000000000000000000000000000000000000000000000000000000000000003b1ca01c1554f7eb65e2ed578d1cd28f6917f23c9c2cdd5433800eda2e97d825c76eeda067feb5f1c063f9f776c972ab4302b843be96245d4527f0defcdeea9631600e1d",
                    "indexes": {
                        "data": 2,
                        "gas": 0,
                        "value": 0
                    }
                },
                {
                    "hash": "19eeb852fea6fb3c0ef67aa8bd35f3e3d0a41a48c1b2f13e720d893c3d9541cd",
                    "logs": "1dcc4de8dec75d7aab85b567b6ccd41ad312451b948a7413f0a142fd40d49347",
                    "txbytes": "0xf885800a8404c4b40094cccccccccccccccccccccccccccccccccccccccc01a4693c6139000000000000000000000000000000000000000000000000000000000000003c1ca0b145ea4d95b3d4b84929fd488be9816d6412de88513c7aa8ca0ac0cb81b9beb9a034803a86ff04ba54d98e7e71ffab7f72d126c8c9675cf79c95042f98483fdee2",
                    "indexes": {
                        "data": 3,
                        "gas": 0,
                        "value": 0
                    }
                },
                {
                    "hash": "05531527169abaa4cfb98fcc78f493d4fd8b2f518ccb827fb6d96f89ead3aaeb",
                    "logs": "1dcc4de8dec75d7aab85b567b6ccd41ad312451b948a7413f0a142fd40d49347",
                    "txbytes": "0xf885800a8404c4b40094cccccccccccccccccccccccccccccccccccccccc01a4693c6139000000000000000000000000000000000000000000000000000000000000003f1ba038f0395a398db099b518c70e4554d48e449a4a0650dcf780c8afa88acb875e2fa022f8e06e868f73b1a82650e0b9d9fbe32b060f0b107cc7d5b62a5ee97f2617b2",
                    "indexes": {
                        "data": 4,
                        "gas": 0,
                        "value": 0
                    }
                },
                {
                    "hash": "a547794a59c94f08858c17d03619622d0b8e8eddc8b82ad452b4c6856c66e021",
                    "logs": "1dcc4de8dec75d7aab85b567b6ccd41ad312451b948a7413f0a142fd40d49347",
                    "txbytes": "0xf885800a8404c4b40094cccccccccccccccccccccccccccccccccccccccc01a4693c613900000000000000000000000000000000000000000000000000000000000000f11ca0505c84623e0cead264d4a29fe7a9209996049b09a956454bc01317f299718243a01cae9fd010ecb74bde897157732e197f6e34093e9e0b71c93884cb9d48d0e180",
                    "indexes": {
                        "data": 5,
                        "gas": 0,
                        "value": 0
                    }
                },
                {
                    "hash": "a547794a59c94f08858c17d03619622d0b8e8eddc8b82ad452b4c6856c66e021",
                    "logs": "1dcc4de8dec75d7aab85b567b6ccd41ad312451b948a7413f0a142fd40d49347",
                    "txbytes": "0xf885800a8404c4b40094cccccccccccccccccccccccccccccccccccccccc01a4693c613900000000000000000000000000000000000000000000000000000000000000f21ba05bdc52b08637727c1dd29ee0d670dd33e70e97f040465a0cec0ce84e3f4f3e46a07210ba1aaf8171b25388be76d61eaaf3d9d13620c0b362edf23c5dc7f8f14f61",
                    "indexes": {
                        "data": 6,
                        "gas": 0,
                        "value": 0
                    }
                },
                {
                    "hash": "e6ca6b1b3d85758636e605a273e9858ac581987cda1b08027e9fd0203b438c40",
                    "logs": "1dcc4de8dec75d7aab85b567b6ccd41ad312451b948a7413f0a142fd40d49347",
                    "txbytes": "0xf885800a8404c4b40094cccccccccccccccccccccccccccccccccccccccc01a4693c613900000000000000000000000000000000000000000000000000000000000000f41ba06267fb80ef59ce5cb26c1f58453977efdf7a8434c70554dfc1b067611375d6e9a05168ee07b63c8a1b0016af53e68c97420b7acc000702095d485fb9cc8e10a058",
                    "indexes": {
                        "data": 7,
                        "gas": 0,
                        "value": 0
                    }
                },
                {
                    "hash": "e6ca6b1b3d85758636e605a273e9858ac581987cda1b08027e9fd0203b438c40",
                    "logs": "1dcc4de8dec75d7aab85b567b6ccd41ad312451b948a7413f0a142fd40d49347",
                    "txbytes": "0xf885800a8404c4b40094cccccccccccccccccccccccccccccccccccccccc01a4693c613900000000000000000000000000000000000000000000000000000000000000fa1ba03cebfded56f903c8a96571c4e262fad07774f67cd46caa950d941ce84b63c306a05a039d70031178287f8def45b59972ae56bef24ff79921a05b9b2d58a06b8633",
                    "indexes": {
                        "data": 8,
                        "gas": 0,
                        "value": 0
                    }
                }
            ],
            "ETC_Phoenix": [
                {
                    "hash": "2132fe33aacb3975bec6fe93d18ddfc66467cc9d497abcadf7c6246c40328d73",
                    "logs": "1dcc4de8dec75d7aab85b567b6ccd41ad312451b948a7413f0a142fd40d49347",
                    "txbytes": "0xf885800a8404c4b40094cccccccccccccccccccccccccccccccccccccccc01a4693c613900000000000000000000000000000000000000000000000000000000000000001ba0e8ff56322287185f6afd3422a825b47bf5c1a4ccf0dc0389cdc03f7c1c32b7eaa0776b02f9f5773238d3ff36b74a123f409cd6420908d7855bbe4c8ff63e00d698",
                    "indexes": {
                        "data": 0,
                        "gas": 0,
                        "value": 0
                    }
                },
                {
                    "hash": "bb08764527444d173e636ef408910734f836f77a4c92d6841f135823734b8a9d",
                    "logs": "1dcc4de8dec75d7aab85b567b6ccd41ad312451b948a7413f0a142fd40d49347",
                    "txbytes": "0xf885800a8404c4b40094cccccccccccccccccccccccccccccccccccccccc01a4693c613900000000000000000000000000000000000000000000000000000000000000311ca0664e7c39f15d06fa5c9f3eadbb594c244314fe1bbd8a185f7fae7fd132de762ca060014bd21d6f2ae1399c834a1c41a9ec76495ee2f348d21a1b28dbfadd4d1707",
                    "indexes": {
                        "data": 1,
                        "gas": 0,
                        "value": 0
                    }
                },
                {
                    "hash": "bb08764527444d173e636ef408910734f836f77a4c92d6841f135823734b8a9d",
                    "logs": "1dcc4de8dec75d7aab85b567b6ccd41ad312451b948a7413f0a142fd40d49347",
                    "txbytes": "0xf885800a8404c4b40094cccccccccccccccccccccccccccccccccccccccc01a4693c6139000000000000000000000000000000000000000000000000000000000000003b1ca01c1554f7eb65e2ed578d1cd28f6917f23c9c2cdd5433800eda2e97d825c76eeda067feb5f1c063f9f776c972ab4302b843be96245d4527f0defcdeea9631600e1d",
                    "indexes": {
                        "data": 2,
                        "gas": 0,
                        "value": 0
                    }
                },
                {
                    "hash": "344cf5140686f53aaabeab3e38052d1d8ae38869934bf5ffdb46c7e8a8e28e4d",
                    "logs": "1dcc4de8dec75d7aab85b567b6ccd41ad312451b948a7413f0a142fd40d49347",
                    "txbytes": "0xf885800a8404c4b40094cccccccccccccccccccccccccccccccccccccccc01a4693c6139000000000000000000000000000000000000000000000000000000000000003c1ca0b145ea4d95b3d4b84929fd488be9816d6412de88513c7aa8ca0ac0cb81b9beb9a034803a86ff04ba54d98e7e71ffab7f72d126c8c9675cf79c95042f98483fdee2",
                    "indexes": {
                        "data": 3,
                        "gas": 0,
                        "value": 0
                    }
                },
                {
                    "hash": "bb08764527444d173e636ef408910734f836f77a4c92d6841f135823734b8a9d",
                    "logs": "1dcc4de8dec75d7aab85b567b6ccd41ad312451b948a7413f0a142fd40d49347",
                    "txbytes": "0xf885800a8404c4b40094cccccccccccccccccccccccccccccccccccccccc01a4693c6139000000000000000000000000000000000000000000000000000000000000003f1ba038f0395a398db099b518c70e4554d48e449a4a0650dcf780c8afa88acb875e2fa022f8e06e868f73b1a82650e0b9d9fbe32b060f0b107cc7d5b62a5ee97f2617b2",
                    "indexes": {
                        "data": 4,
                        "gas": 0,
                        "value": 0
                    }
                },
                {
                    "hash": "0e68bfc9fa2f2a680790e9c071362244add180da997a166a681272d63f33783a",
                    "logs": "1dcc4de8dec75d7aab85b567b6ccd41ad312451b948a7413f0a142fd40d49347",
                    "txbytes": "0xf885800a8404c4b40094cccccccccccccccccccccccccccccccccccccccc01a4693c613900000000000000000000000000000000000000000000000000000000000000f11ca0505c84623e0cead264d4a29fe7a9209996049b09a956454bc01317f299718243a01cae9fd010ecb74bde897157732e197f6e34093e9e0b71c93884cb9d48d0e180",
                    "indexes": {
                        "data": 5,
                        "gas": 0,
                        "value": 0
                    }
                },
                {
                    "hash": "0e68bfc9fa2f2a680790e9c071362244add180da997a166a681272d63f33783a",
                    "logs": "1dcc4de8dec75d7aab85b567b6ccd41ad312451b948a7413f0a142fd40d49347",
                    "txbytes": "0xf885800a8404c4b40094cccccccccccccccccccccccccccccccccccccccc01a4693c613900000000000000000000000000000000000000000000000000000000000000f21ba05bdc52b08637727c1dd29ee0d670dd33e70e97f040465a0cec0ce84e3f4f3e46a07210ba1aaf8171b25388be76d61eaaf3d9d13620c0b362edf23c5dc7f8f14f61",
                    "indexes": {
                        "data": 6,
                        "gas": 0,
                        "value": 0
                    }
                },
                {
                    "hash": "449de79f25dfe7162ec0377add24dc5537d30feb9044c6f7fcb574ae5408e43c",
                    "logs": "1dcc4de8dec75d7aab85b567b6ccd41ad312451b948a7413f0a142fd40d49347",
                    "txbytes": "0xf885800a8404c4b40094cccccccccccccccccccccccccccccccccccccccc01a4693c613900000000000000000000000000000000000000000000000000000000000000f41ba06267fb80ef59ce5cb26c1f58453977efdf7a8434c70554dfc1b067611375d6e9a05168ee07b63c8a1b0016af53e68c97420b7acc000702095d485fb9cc8e10a058",
                    "indexes": {
                        "data": 7,
                        "gas": 0,
                        "value": 0
                    }
                },
                {
                    "hash": "449de79f25dfe7162ec0377add24dc5537d30feb9044c6f7fcb574ae5408e43c",
                    "logs": "1dcc4de8dec75d7aab85b567b6ccd41ad312451b948a7413f0a142fd40d49347",
                    "txbytes": "0xf885800a8404c4b40094cccccccccccccccccccccccccccccccccccccccc01a4693c613900000000000000000000000000000000000000000000000000000000000000fa1ba03cebfded56f903c8a96571c4e262fad07774f67cd46caa950d941ce84b63c306a05a039d70031178287f8def45b59972ae56bef24ff79921a05b9b2d58a06b8633",
                    "indexes": {
                        "data": 8,
                        "gas": 0,
                        "value": 0
                    }
                }
            ]
        }
    }
}