{
    "gasCostExp": {
        "_info": {
            "comment": "Ori Pomerantz qbzzt1@gmail.com",
            "filling-rpc-server": "evm version 1.10.16-unstable-0f893109-20220105",
            "filling-tool-version": "retesteth-0.2.2-testinfo+commit.01c6aac2.Linux.g++",
            "filledWith": "CoreGeth-1.12.9-unstable-4d59a861107c8232d6896811c48f229d30087be4",
            "lllcversion": "Version: 0.5.14-develop.2021.11.27+commit.401d5358.Linux.g++",
            "source": "src/GeneralStateTestsFiller/stEIP150singleCodeGasPrices/gasCostExpFiller.yml",
            "sourceHash": "8ebcb2674829ddb13aba84ece0eb57a7dff7bc7187f823b8d3a74bc9b203f793"
        },
        "env": {
            "currentCoinbase": "0x2adc25665018aa1fe0e6bc666dac8fc2697ff9ba",
            "currentDifficulty": "0x20000",
            "currentGasLimit": "0x5f5e100",
            "currentNumber": "0x1",
            "currentTimestamp": "0x3e8",
            "currentBaseFee": "0xa",
            "previousHash": "0x5e20a0453cecd065ea59c37ac63e079ee08998b6045136a8ce6635c7912ec0b6"
        },
        "pre": {
            "0x095e7baea6a6c7c4c2dfeb977efac326af552d87": {
                "code": "0x6004356000526024356020525a60405260005160020a505a606052602051606051604051030360005500",
                "storage": {
                    "0x0000000000000000000000000000000000000000000000000000000000000000": "0x00000000000000000000000000000000000000000000000000000000000060a7"
                },
                "balance": "0xba1a9ce0ba1a9ce"
            },
            "0xa94f5374fce5edbc8e2a8697c15331677e6ebf0b": {
                "balance": "0xba1a9ce0ba1a9ce"
            }
        },
        "transaction": {
            "gasPrice": "0xa",
            "nonce": "0x0",
            "to": "0x095e7baea6a6c7c4c2dfeb977efac326af552d87",
            "data": [
                "0xc5b5a1ae00000000000000000000000000000000000000000000000000000000000000000000000000000000000000000000000000000000000000000000000000000020",
                "0xc5b5a1ae00000000000000000000000000000000000000000000000000000000000000010000000000000000000000000000000000000000000000000000000000000052",
                "0xc5b5a1ae00000000000000000000000000000000000000000000000000000000000000ff0000000000000000000000000000000000000000000000000000000000000052",
                "0xc5b5a1ae00000000000000000000000000000000000000000000000000000000000001000000000000000000000000000000000000000000000000000000000000000084",
                "0xc5b5a1ae000000000000000000000000000000000000000000000000000000000000ffff0000000000000000000000000000000000000000000000000000000000000084",
                "0xc5b5a1ae000000000000000000000000000000000000000000000000000000000001000000000000000000000000000000000000000000000000000000000000000000b6",
                "0xc5b5a1ae0000000000000000000000000000000000000000000000000000000000ffffff00000000000000000000000000000000000000000000000000000000000000b6",
                "0xc5b5a1ae000000000000000000000000000000000000000000000000000000000100000000000000000000000000000000000000000000000000000000000000000000e8",
                "0xc5b5a1ae00000000000000000000000000000000000000000000000000000000ffffffff00000000000000000000000000000000000000000000000000000000000000e8"
            ],
            "gasLimit": [
                "0x4c4b400"
            ],
            "value": [
                "0x01"
            ],
            "secretKey": "0x45a915e4d060149eb4365960e6a7a45f334393093061116b197e3240065ff2d8",
            "sender": "0xa94f5374fce5edbc8e2a8697c15331677e6ebf0b"
        },
        "post": {
            "ETC_Magneto": [
                {
                    "hash": "1c35d3e55a5576e1e14454070964d3ba8964b61e3e940108d9ad9685564533f7",
                    "logs": "1dcc4de8dec75d7aab85b567b6ccd41ad312451b948a7413f0a142fd40d49347",
                    "txbytes": "0xf8a6800a8404c4b40094095e7baea6a6c7c4c2dfeb977efac326af552d8701b844c5b5a1ae000000000000000000000000000000000000000000000000000000000000000000000000000000000000000000000000000000000000000000000000000000201ca0d4d326a592d3e62ab1c7d21a055f2f8a0446b4d2a83913aadc75def575b313cca01c7ff253eaf52003b4b37206214a96c077b54166e00462a5a7e1502b62110dd4",
                    "indexes": {
                        "data": 0,
                        "gas": 0,
                        "value": 0
                    }
                },
                {
                    "hash": "4c04f01579091e222b7aa0d7728be649a43a4c0a3493752e81f242f34896d93b",
                    "logs": "1dcc4de8dec75d7aab85b567b6ccd41ad312451b948a7413f0a142fd40d49347",
                    "txbytes": "0xf8a6800a8404c4b40094095e7baea6a6c7c4c2dfeb977efac326af552d8701b844c5b5a1ae000000000000000000000000000000000000000000000000000000000000000100000000000000000000000000000000000000000000000000000000000000521ca09625e8a6c280efc7b4f7583963bd9f37b8e3b662d7995e9fca919427c77f66e3a00ff2b1502790aa2a3c9f6e41107ef5e8d3db7d9fd7bde8afbd012eded7068d01",
                    "indexes": {
                        "data": 1,
                        "gas": 0,
                        "value": 0
                    }
                },
                {
                    "hash": "4c04f01579091e222b7aa0d7728be649a43a4c0a3493752e81f242f34896d93b",
                    "logs": "1dcc4de8dec75d7aab85b567b6ccd41ad312451b948a7413f0a142fd40d49347",
                    "txbytes": "0xf8a6800a8404c4b40094095e7baea6a6c7c4c2dfeb977efac326af552d8701b844c5b5a1ae00000000000000000000000000000000000000000000000000000000000000ff00000000000000000000000000000000000000000000000000000000000000521ca0756166e8b82a9dd491825a403f701d2bc9a80c8c10eb05212fd9fd0f59c3d47da0337ccd7dcb6e911bf019cf8d8c4670605f2be43ca4ef86cfb35674d2c598666e",
                    "indexes": {
                        "data": 2,
                        "gas": 0,
                        "value": 0
                    }
                },
                {
                    "hash": "767ef7860e91e0cbbfb2bd2a85bf6c7e4ef4b885da2f2dee4729f08c285f9313",
                    "logs": "1dcc4de8dec75d7aab85b567b6ccd41ad312451b948a7413f0a142fd40d49347",
                    "txbytes": "0xf8a6800a8404c4b40094095e7baea6a6c7c4c2dfeb977efac326af552d8701b844c5b5a1ae000000000000000000000000000000000000000000000000000000000000010000000000000000000000000000000000000000000000000000000000000000841ba0b8ea3f768487b1781c1e7d5caf3ae247e0adfc053845a01f9f22b2d7ac4fabe8a006735d14acdb60356c3aed9116700306303d4909d4c2bfc11bc00389479e4417",
                    "indexes": {
                        "data": 3,
                        "gas": 0,
                        "value": 0
                    }
                },
                {
                    "hash": "b20c91d5ca17b4eaf17797d857f0750c4cc5edd355cfe7cd0c6e3d35be997f37",
                    "logs": "1dcc4de8dec75d7aab85b567b6ccd41ad312451b948a7413f0a142fd40d49347",
                    "txbytes": "0xf8a6800a8404c4b40094095e7baea6a6c7c4c2dfeb977efac326af552d8701b844c5b5a1ae000000000000000000000000000000000000000000000000000000000000ffff00000000000000000000000000000000000000000000000000000000000000841ca0c9cc6985d256e44a8d5ee43210b77559cc45a6c100cd4adfc6e6d8a520bdc40ca02fb413ec2e06aa6792af5b1fc1d53ea74cc2f90e129f536db33664867d390648",
                    "indexes": {
                        "data": 4,
                        "gas": 0,
                        "value": 0
                    }
                },
                {
                    "hash": "d47ce68b3081c8dadfe025f84f553edb8a5abd405c3f067a467ea54a55ed2f3f",
                    "logs": "1dcc4de8dec75d7aab85b567b6ccd41ad312451b948a7413f0a142fd40d49347",
                    "txbytes": "0xf8a6800a8404c4b40094095e7baea6a6c7c4c2dfeb977efac326af552d8701b844c5b5a1ae000000000000000000000000000000000000000000000000000000000001000000000000000000000000000000000000000000000000000000000000000000b61ca02c43cb74d6768c8132553e0e9e7420ef96421c8ff0a3a6a209bba1e35b83a7ffa00de0eda35996b5918c881da3a0689a0bc889eadcb3b534cedbf8fbeaaed9388c",
                    "indexes": {
                        "data": 5,
                        "gas": 0,
                        "value": 0
                    }
                },
                {
                    "hash": "d5c1339ad9968c05e58b07bb9b3bd345b91c448bc9c0b58ace19727effcffe62",
                    "logs": "1dcc4de8dec75d7aab85b567b6ccd41ad312451b948a7413f0a142fd40d49347",
                    "txbytes": "0xf8a6800a8404c4b40094095e7baea6a6c7c4c2dfeb977efac326af552d8701b844c5b5a1ae0000000000000000000000000000000000000000000000000000000000ffffff00000000000000000000000000000000000000000000000000000000000000b61ca06472b44c860a09c5eeb057de9fb589a296839a01eeecb155a3ce317cbd68ce57a075c77abc9a922b9ad81b3fbc171542b9ad11e0f33dce34b897a40715b3df5670",
                    "indexes": {
                        "data": 6,
                        "gas": 0,
                        "value": 0
                    }
                },
                {
                    "hash": "25b40af8f7f42b98d5ee710d1f802918192f0a1fa86a0b286bc35a792da02078",
                    "logs": "1dcc4de8dec75d7aab85b567b6ccd41ad312451b948a7413f0a142fd40d49347",
                    "txbytes": "0xf8a6800a8404c4b40094095e7baea6a6c7c4c2dfeb977efac326af552d8701b844c5b5a1ae000000000000000000000000000000000000000000000000000000000100000000000000000000000000000000000000000000000000000000000000000000e81ba01554ffcb45b476e69168e998980a6839926b2467cab960efbe0ba0c7631712dca0352c138fa4a1ed6d5637aaf94676b8304413895b1dfbfd663fa4d3f644a4cc92",
                    "indexes": {
                        "data": 7,
                        "gas": 0,
                        "value": 0
                    }
                },
                {
                    "hash": "fec8acf7c72c10951cb1f6532e3d6c3800eea66627552f0d748e341cc3d6ef3d",
                    "logs": "1dcc4de8dec75d7aab85b567b6ccd41ad312451b948a7413f0a142fd40d49347",
                    "txbytes": "0xf8a6800a8404c4b40094095e7baea6a6c7c4c2dfeb977efac326af552d8701b844c5b5a1ae00000000000000000000000000000000000000000000000000000000ffffffff00000000000000000000000000000000000000000000000000000000000000e81ba0569405cfc5894e7e286a429aed99daa37e7be82622353af0c20ace612482aa84a05b9d69d1aff649c00abf2efeb893eb1d18d59d07ca5725084e6d3014070d3aff",
                    "indexes": {
                        "data": 8,
                        "gas": 0,
                        "value": 0
                    }
                }
            ],
            "ETC_Mystique": [
                {
                    "hash": "348a1e3b1a7897ac19ce86269f32279dbb0e12de3d6ca4f3918a23c248df3853",
                    "logs": "1dcc4de8dec75d7aab85b567b6ccd41ad312451b948a7413f0a142fd40d49347",
                    "txbytes": "0xf8a6800a8404c4b40094095e7baea6a6c7c4c2dfeb977efac326af552d8701b844c5b5a1ae000000000000000000000000000000000000000000000000000000000000000000000000000000000000000000000000000000000000000000000000000000201ca0d4d326a592d3e62ab1c7d21a055f2f8a0446b4d2a83913aadc75def575b313cca01c7ff253eaf52003b4b37206214a96c077b54166e00462a5a7e1502b62110dd4",
                    "indexes": {
                        "data": 0,
                        "gas": 0,
                        "value": 0
                    }
                },
                {
                    "hash": "f48d8cf0b8f5211864aa755915b4ab54729b078b3eb147af056d4438abacaa1d",
                    "logs": "1dcc4de8dec75d7aab85b567b6ccd41ad312451b948a7413f0a142fd40d49347",
                    "txbytes": "0xf8a6800a8404c4b40094095e7baea6a6c7c4c2dfeb977efac326af552d8701b844c5b5a1ae000000000000000000000000000000000000000000000000000000000000000100000000000000000000000000000000000000000000000000000000000000521ca09625e8a6c280efc7b4f7583963bd9f37b8e3b662d7995e9fca919427c77f66e3a00ff2b1502790aa2a3c9f6e41107ef5e8d3db7d9fd7bde8afbd012eded7068d01",
                    "indexes": {
                        "data": 1,
                        "gas": 0,
                        "value": 0
                    }
                },
                {
                    "hash": "f48d8cf0b8f5211864aa755915b4ab54729b078b3eb147af056d4438abacaa1d",
                    "logs": "1dcc4de8dec75d7aab85b567b6ccd41ad312451b948a7413f0a142fd40d49347",
                    "txbytes": "0xf8a6800a8404c4b40094095e7baea6a6c7c4c2dfeb977efac326af552d8701b844c5b5a1ae00000000000000000000000000000000000000000000000000000000000000ff00000000000000000000000000000000000000000000000000000000000000521ca0756166e8b82a9dd491825a403f701d2bc9a80c8c10eb05212fd9fd0f59c3d47da0337ccd7dcb6e911bf019cf8d8c4670605f2be43ca4ef86cfb35674d2c598666e",
                    "indexes": {
                        "data": 2,
                        "gas": 0,
                        "value": 0
                    }
                },
                {
                    "hash": "ebdd52a2384bc918a90693accd9ce670b20eb5b0384618a3b33049b120f92884",
                    "logs": "1dcc4de8dec75d7aab85b567b6ccd41ad312451b948a7413f0a142fd40d49347",
                    "txbytes": "0xf8a6800a8404c4b40094095e7baea6a6c7c4c2dfeb977efac326af552d8701b844c5b5a1ae000000000000000000000000000000000000000000000000000000000000010000000000000000000000000000000000000000000000000000000000000000841ba0b8ea3f768487b1781c1e7d5caf3ae247e0adfc053845a01f9f22b2d7ac4fabe8a006735d14acdb60356c3aed9116700306303d4909d4c2bfc11bc00389479e4417",
                    "indexes": {
                        "data": 3,
                        "gas": 0,
                        "value": 0
                    }
                },
                {
                    "hash": "1b60de5eb40a32800a866df43d134b01b2054f5c15e1d47318159f86937588dd",
                    "logs": "1dcc4de8dec75d7aab85b567b6ccd41ad312451b948a7413f0a142fd40d49347",
                    "txbytes": "0xf8a6800a8404c4b40094095e7baea6a6c7c4c2dfeb977efac326af552d8701b844c5b5a1ae000000000000000000000000000000000000000000000000000000000000ffff00000000000000000000000000000000000000000000000000000000000000841ca0c9cc6985d256e44a8d5ee43210b77559cc45a6c100cd4adfc6e6d8a520bdc40ca02fb413ec2e06aa6792af5b1fc1d53ea74cc2f90e129f536db33664867d390648",
                    "indexes": {
                        "data": 4,
                        "gas": 0,
                        "value": 0
                    }
                },
                {
                    "hash": "d77544d6f38173fe6bf5d58faa50b3d9bf017b4a07a1be0c501bbbae660c0391",
                    "logs": "1dcc4de8dec75d7aab85b567b6ccd41ad312451b948a7413f0a142fd40d49347",
                    "txbytes": "0xf8a6800a8404c4b40094095e7baea6a6c7c4c2dfeb977efac326af552d8701b844c5b5a1ae000000000000000000000000000000000000000000000000000000000001000000000000000000000000000000000000000000000000000000000000000000b61ca02c43cb74d6768c8132553e0e9e7420ef96421c8ff0a3a6a209bba1e35b83a7ffa00de0eda35996b5918c881da3a0689a0bc889eadcb3b534cedbf8fbeaaed9388c",
                    "indexes": {
                        "data": 5,
                        "gas": 0,
                        "value": 0
                    }
                },
                {
                    "hash": "6705c1a539d8c843d5d4cddb8266b5ff34667d84ac2ad4e8553702ee065e9800",
                    "logs": "1dcc4de8dec75d7aab85b567b6ccd41ad312451b948a7413f0a142fd40d49347",
                    "txbytes": "0xf8a6800a8404c4b40094095e7baea6a6c7c4c2dfeb977efac326af552d8701b844c5b5a1ae0000000000000000000000000000000000000000000000000000000000ffffff00000000000000000000000000000000000000000000000000000000000000b61ca06472b44c860a09c5eeb057de9fb589a296839a01eeecb155a3ce317cbd68ce57a075c77abc9a922b9ad81b3fbc171542b9ad11e0f33dce34b897a40715b3df5670",
                    "indexes": {
                        "data": 6,
                        "gas": 0,
                        "value": 0
                    }
                },
                {
                    "hash": "900112c86b45f1732fa0704fb5ae62f4f151af19720b805128003919ce2de8e2",
                    "logs": "1dcc4de8dec75d7aab85b567b6ccd41ad312451b948a7413f0a142fd40d49347",
                    "txbytes": "0xf8a6800a8404c4b40094095e7baea6a6c7c4c2dfeb977efac326af552d8701b844c5b5a1ae000000000000000000000000000000000000000000000000000000000100000000000000000000000000000000000000000000000000000000000000000000e81ba01554ffcb45b476e69168e998980a6839926b2467cab960efbe0ba0c7631712dca0352c138fa4a1ed6d5637aaf94676b8304413895b1dfbfd663fa4d3f644a4cc92",
                    "indexes": {
                        "data": 7,
                        "gas": 0,
                        "value": 0
                    }
                },
                {
                    "hash": "0adfc5696939d971a277e2c428241ee12e17e2231ad89b313643e2717807ab99",
                    "logs": "1dcc4de8dec75d7aab85b567b6ccd41ad312451b948a7413f0a142fd40d49347",
                    "txbytes": "0xf8a6800a8404c4b40094095e7baea6a6c7c4c2dfeb977efac326af552d8701b844c5b5a1ae00000000000000000000000000000000000000000000000000000000ffffffff00000000000000000000000000000000000000000000000000000000000000e81ba0569405cfc5894e7e286a429aed99daa37e7be82622353af0c20ace612482aa84a05b9d69d1aff649c00abf2efeb893eb1d18d59d07ca5725084e6d3014070d3aff",
                    "indexes": {
                        "data": 8,
                        "gas": 0,
                        "value": 0
                    }
                }
            ],
            "ETC_Phoenix": [
                {
                    "hash": "1c35d3e55a5576e1e14454070964d3ba8964b61e3e940108d9ad9685564533f7",
                    "logs": "1dcc4de8dec75d7aab85b567b6ccd41ad312451b948a7413f0a142fd40d49347",
                    "txbytes": "0xf8a6800a8404c4b40094095e7baea6a6c7c4c2dfeb977efac326af552d8701b844c5b5a1ae000000000000000000000000000000000000000000000000000000000000000000000000000000000000000000000000000000000000000000000000000000201ca0d4d326a592d3e62ab1c7d21a055f2f8a0446b4d2a83913aadc75def575b313cca01c7ff253eaf52003b4b37206214a96c077b54166e00462a5a7e1502b62110dd4",
                    "indexes": {
                        "data": 0,
                        "gas": 0,
                        "value": 0
                    }
                },
                {
                    "hash": "4c04f01579091e222b7aa0d7728be649a43a4c0a3493752e81f242f34896d93b",
                    "logs": "1dcc4de8dec75d7aab85b567b6ccd41ad312451b948a7413f0a142fd40d49347",
                    "txbytes": "0xf8a6800a8404c4b40094095e7baea6a6c7c4c2dfeb977efac326af552d8701b844c5b5a1ae000000000000000000000000000000000000000000000000000000000000000100000000000000000000000000000000000000000000000000000000000000521ca09625e8a6c280efc7b4f7583963bd9f37b8e3b662d7995e9fca919427c77f66e3a00ff2b1502790aa2a3c9f6e41107ef5e8d3db7d9fd7bde8afbd012eded7068d01",
                    "indexes": {
                        "data": 1,
                        "gas": 0,
                        "value": 0
                    }
                },
                {
                    "hash": "4c04f01579091e222b7aa0d7728be649a43a4c0a3493752e81f242f34896d93b",
                    "logs": "1dcc4de8dec75d7aab85b567b6ccd41ad312451b948a7413f0a142fd40d49347",
                    "txbytes": "0xf8a6800a8404c4b40094095e7baea6a6c7c4c2dfeb977efac326af552d8701b844c5b5a1ae00000000000000000000000000000000000000000000000000000000000000ff00000000000000000000000000000000000000000000000000000000000000521ca0756166e8b82a9dd491825a403f701d2bc9a80c8c10eb05212fd9fd0f59c3d47da0337ccd7dcb6e911bf019cf8d8c4670605f2be43ca4ef86cfb35674d2c598666e",
                    "indexes": {
                        "data": 2,
                        "gas": 0,
                        "value": 0
                    }
                },
                {
                    "hash": "767ef7860e91e0cbbfb2bd2a85bf6c7e4ef4b885da2f2dee4729f08c285f9313",
                    "logs": "1dcc4de8dec75d7aab85b567b6ccd41ad312451b948a7413f0a142fd40d49347",
                    "txbytes": "0xf8a6800a8404c4b40094095e7baea6a6c7c4c2dfeb977efac326af552d8701b844c5b5a1ae000000000000000000000000000000000000000000000000000000000000010000000000000000000000000000000000000000000000000000000000000000841ba0b8ea3f768487b1781c1e7d5caf3ae247e0adfc053845a01f9f22b2d7ac4fabe8a006735d14acdb60356c3aed9116700306303d4909d4c2bfc11bc00389479e4417",
                    "indexes": {
                        "data": 3,
                        "gas": 0,
                        "value": 0
                    }
                },
                {
                    "hash": "b20c91d5ca17b4eaf17797d857f0750c4cc5edd355cfe7cd0c6e3d35be997f37",
                    "logs": "1dcc4de8dec75d7aab85b567b6ccd41ad312451b948a7413f0a142fd40d49347",
                    "txbytes": "0xf8a6800a8404c4b40094095e7baea6a6c7c4c2dfeb977efac326af552d8701b844c5b5a1ae000000000000000000000000000000000000000000000000000000000000ffff00000000000000000000000000000000000000000000000000000000000000841ca0c9cc6985d256e44a8d5ee43210b77559cc45a6c100cd4adfc6e6d8a520bdc40ca02fb413ec2e06aa6792af5b1fc1d53ea74cc2f90e129f536db33664867d390648",
                    "indexes": {
                        "data": 4,
                        "gas": 0,
                        "value": 0
                    }
                },
                {
                    "hash": "d47ce68b3081c8dadfe025f84f553edb8a5abd405c3f067a467ea54a55ed2f3f",
                    "logs": "1dcc4de8dec75d7aab85b567b6ccd41ad312451b948a7413f0a142fd40d49347",
                    "txbytes": "0xf8a6800a8404c4b40094095e7baea6a6c7c4c2dfeb977efac326af552d8701b844c5b5a1ae000000000000000000000000000000000000000000000000000000000001000000000000000000000000000000000000000000000000000000000000000000b61ca02c43cb74d6768c8132553e0e9e7420ef96421c8ff0a3a6a209bba1e35b83a7ffa00de0eda35996b5918c881da3a0689a0bc889eadcb3b534cedbf8fbeaaed9388c",
                    "indexes": {
                        "data": 5,
                        "gas": 0,
                        "value": 0
                    }
                },
                {
                    "hash": "d5c1339ad9968c05e58b07bb9b3bd345b91c448bc9c0b58ace19727effcffe62",
                    "logs": "1dcc4de8dec75d7aab85b567b6ccd41ad312451b948a7413f0a142fd40d49347",
                    "txbytes": "0xf8a6800a8404c4b40094095e7baea6a6c7c4c2dfeb977efac326af552d8701b844c5b5a1ae0000000000000000000000000000000000000000000000000000000000ffffff00000000000000000000000000000000000000000000000000000000000000b61ca06472b44c860a09c5eeb057de9fb589a296839a01eeecb155a3ce317cbd68ce57a075c77abc9a922b9ad81b3fbc171542b9ad11e0f33dce34b897a40715b3df5670",
                    "indexes": {
                        "data": 6,
                        "gas": 0,
                        "value": 0
                    }
                },
                {
                    "hash": "25b40af8f7f42b98d5ee710d1f802918192f0a1fa86a0b286bc35a792da02078",
                    "logs": "1dcc4de8dec75d7aab85b567b6ccd41ad312451b948a7413f0a142fd40d49347",
                    "txbytes": "0xf8a6800a8404c4b40094095e7baea6a6c7c4c2dfeb977efac326af552d8701b844c5b5a1ae000000000000000000000000000000000000000000000000000000000100000000000000000000000000000000000000000000000000000000000000000000e81ba01554ffcb45b476e69168e998980a6839926b2467cab960efbe0ba0c7631712dca0352c138fa4a1ed6d5637aaf94676b8304413895b1dfbfd663fa4d3f644a4cc92",
                    "indexes": {
                        "data": 7,
                        "gas": 0,
                        "value": 0
                    }
                },
                {
                    "hash": "fec8acf7c72c10951cb1f6532e3d6c3800eea66627552f0d748e341cc3d6ef3d",
                    "logs": "1dcc4de8dec75d7aab85b567b6ccd41ad312451b948a7413f0a142fd40d49347",
                    "txbytes": "0xf8a6800a8404c4b40094095e7baea6a6c7c4c2dfeb977efac326af552d8701b844c5b5a1ae00000000000000000000000000000000000000000000000000000000ffffffff00000000000000000000000000000000000000000000000000000000000000e81ba0569405cfc5894e7e286a429aed99daa37e7be82622353af0c20ace612482aa84a05b9d69d1aff649c00abf2efeb893eb1d18d59d07ca5725084e6d3014070d3aff",
                    "indexes": {
                        "data": 8,
                        "gas": 0,
                        "value": 0
                    }
                }
            ]
        }
    }
}