{
    "RawCallCodeGas": {
        "_info": {
            "comment": "",
            "filling-rpc-server": "evm version 1.10.16-unstable-0f893109-20220105",
            "filling-tool-version": "retesteth-0.2.2-testinfo+commit.01c6aac2.Linux.g++",
            "filledWith": "CoreGeth-1.12.9-unstable-ab16c56768f0284ab56a30aac9550d3ebdc45901",
            "lllcversion": "Version: 0.5.14-develop.2021.11.27+commit.401d5358.Linux.g++",
            "source": "src/GeneralStateTestsFiller/stEIP150singleCodeGasPrices/RawCallCodeGasFiller.json",
            "sourceHash": "850e317b6c062fa68d2deb4caa5ed83c94ab8c1caa99f0c2d0a2691842255567"
        },
        "env": {
            "currentCoinbase": "0x2adc25665018aa1fe0e6bc666dac8fc2697ff9ba",
            "currentDifficulty": "0x20000",
            "currentGasLimit": "0x989680",
            "currentNumber": "0x1",
            "currentTimestamp": "0x3e8",
            "currentBaseFee": "0xa",
            "previousHash": "0x5e20a0453cecd065ea59c37ac63e079ee08998b6045136a8ce6635c7912ec0b6"
        },
        "pre": {
            "0x094f5374fce5edbc8e2a8697c15331677e6ebf0b": {
                "code": "0x5a60025500",
                "balance": "0x0"
            },
            "0xa94f5374fce5edbc8e2a8697c15331677e6ebf0b": {
                "balance": "0xe8d4a51000"
            },
            "0xb94f5374fce5edbc8e2a8697c15331677e6ebf0b": {
                "code": "0x5a6000526000600060006000600073094f5374fce5edbc8e2a8697c15331677e6ebf0b617530f2505a6000510360015500",
                "balance": "0x0"
            }
        },
        "transaction": {
            "gasPrice": "0xa",
            "nonce": "0x0",
            "to": "0xb94f5374fce5edbc8e2a8697c15331677e6ebf0b",
            "data": [
                "0x"
            ],
            "gasLimit": [
                "0x7a120"
            ],
            "value": [
                "0x00"
            ],
            "secretKey": "0x45a915e4d060149eb4365960e6a7a45f334393093061116b197e3240065ff2d8",
            "sender": "0xa94f5374fce5edbc8e2a8697c15331677e6ebf0b"
        },
        "post": {
            "ETC_Magneto": [
                {
                    "hash": "d86b8edc0b9f28cfdb83081562ea24c6943cfe223aef6458c60bfaed504af719",
                    "logs": "1dcc4de8dec75d7aab85b567b6ccd41ad312451b948a7413f0a142fd40d49347",
                    "txbytes": "0xf860800a8307a12094b94f5374fce5edbc8e2a8697c15331677e6ebf0b80801ca03aef3a5148d2925d8c9607b7102bdd96c4b712986e6e8011cceac4c152509f8ea04a0218cbed3a7577c71da2b2a701c4278b1e59c779efbaad585b92cfb7aad81c",
                    "indexes": {
                        "data": 0,
                        "gas": 0,
                        "value": 0
                    }
                }
            ],
            "ETC_Mystique": [
                {
                    "hash": "d86b8edc0b9f28cfdb83081562ea24c6943cfe223aef6458c60bfaed504af719",
                    "logs": "1dcc4de8dec75d7aab85b567b6ccd41ad312451b948a7413f0a142fd40d49347",
                    "txbytes": "0xf860800a8307a12094b94f5374fce5edbc8e2a8697c15331677e6ebf0b80801ca03aef3a5148d2925d8c9607b7102bdd96c4b712986e6e8011cceac4c152509f8ea04a0218cbed3a7577c71da2b2a701c4278b1e59c779efbaad585b92cfb7aad81c",
                    "indexes": {
                        "data": 0,
                        "gas": 0,
                        "value": 0
                    }
                }
            ],
            "ETC_Phoenix": [
                {
                    "hash": "68b8653721aa2091334ee869d34d923b3f9954f9d46d5c02e368ee98d40ad504",
                    "logs": "1dcc4de8dec75d7aab85b567b6ccd41ad312451b948a7413f0a142fd40d49347",
                    "txbytes": "0xf860800a8307a12094b94f5374fce5edbc8e2a8697c15331677e6ebf0b80801ca03aef3a5148d2925d8c9607b7102bdd96c4b712986e6e8011cceac4c152509f8ea04a0218cbed3a7577c71da2b2a701c4278b1e59c779efbaad585b92cfb7aad81c",
                    "indexes": {
                        "data": 0,
                        "gas": 0,
                        "value": 0
                    }
                }
            ]
        }
    }
}