{
    "RawCallCodeGasValueTransferMemoryAsk": {
        "_info": {
            "comment": "",
            "filling-rpc-server": "evm version 1.10.16-unstable-0f893109-20220105",
            "filling-tool-version": "retesteth-0.2.2-testinfo+commit.01c6aac2.Linux.g++",
            "filledWith": "CoreGeth-1.12.9-unstable-f4059ddd82d975bdc54fa648e5422a80172161cb",
            "lllcversion": "Version: 0.5.14-develop.2021.11.27+commit.401d5358.Linux.g++",
            "source": "src/GeneralStateTestsFiller/stEIP150singleCodeGasPrices/RawCallCodeGasValueTransferMemoryAskFiller.json",
            "sourceHash": "f6ab6e8b10e1f58634ae09b38356e1e2321f9dbf5eae25438120bfd4d589eaf4"
        },
        "env": {
            "currentCoinbase": "2adc25665018aa1fe0e6bc666dac8fc2697ff9ba",
            "currentDifficulty": "0x20000",
            "currentRandom": null,
            "currentGasLimit": "0x989680",
            "currentNumber": "0x1",
            "currentTimestamp": "0x3e8",
            "currentBaseFee": "0xa"
        },
        "pre": {
            "0x094f5374fce5edbc8e2a8697c15331677e6ebf0b": {
                "code": "0x5a60025500",
                "balance": "0x0"
            },
            "0xa94f5374fce5edbc8e2a8697c15331677e6ebf0b": {
                "balance": "0xe8d4a51000"
            },
            "0xb94f5374fce5edbc8e2a8697c15331677e6ebf0b": {
                "code": "0x5a600052611f406000611f406000600a73094f5374fce5edbc8e2a8697c15331677e6ebf0b622dc6c0f2505a6000510360015500",
                "balance": "0x0"
            }
        },
        "transaction": {
            "gasPrice": "0xa",
            "maxFeePerGas": null,
            "maxPriorityFeePerGas": null,
            "nonce": "0x0",
            "to": "0xb94f5374fce5edbc8e2a8697c15331677e6ebf0b",
            "data": [
                "0x"
            ],
            "gasLimit": [
                "0x7a120"
            ],
            "value": [
                "0x0a"
            ],
            "secretKey": "0x45a915e4d060149eb4365960e6a7a45f334393093061116b197e3240065ff2d8"
        },
        "out": "0x",
        "post": {
            "ETC_Magneto": [
                {
                    "hash": "5f75a78f03ce46eee5d5ff123f958326b1b879ccdfa0d98f33e59a0c33bceadc",
                    "logs": "1dcc4de8dec75d7aab85b567b6ccd41ad312451b948a7413f0a142fd40d49347",
                    "txbytes": "0xf860800a8307a12094b94f5374fce5edbc8e2a8697c15331677e6ebf0b0a801ba0fb35c05d1d179aeeff9c12ca66f64b951bd1a1e6b2e8fd598d1ca177ac864ab8a0594406f2277897478d246b26b04bb589a5ed05944a22f904a29742f962ac8b5e",
                    "indexes": {
                        "data": 0,
                        "gas": 0,
                        "value": 0
                    }
                }
            ],
            "ETC_Mystique": [
                {
                    "hash": "5f75a78f03ce46eee5d5ff123f958326b1b879ccdfa0d98f33e59a0c33bceadc",
                    "logs": "1dcc4de8dec75d7aab85b567b6ccd41ad312451b948a7413f0a142fd40d49347",
                    "txbytes": "0xf860800a8307a12094b94f5374fce5edbc8e2a8697c15331677e6ebf0b0a801ba0fb35c05d1d179aeeff9c12ca66f64b951bd1a1e6b2e8fd598d1ca177ac864ab8a0594406f2277897478d246b26b04bb589a5ed05944a22f904a29742f962ac8b5e",
                    "indexes": {
                        "data": 0,
                        "gas": 0,
                        "value": 0
                    }
                }
            ],
            "ETC_Phoenix": [
                {
                    "hash": "d00ba16d5855549c74d40aff679b71513fc8fec43132a41b8e51c67bd9b727c1",
                    "logs": "1dcc4de8dec75d7aab85b567b6ccd41ad312451b948a7413f0a142fd40d49347",
                    "txbytes": "0xf860800a8307a12094b94f5374fce5edbc8e2a8697c15331677e6ebf0b0a801ba0fb35c05d1d179aeeff9c12ca66f64b951bd1a1e6b2e8fd598d1ca177ac864ab8a0594406f2277897478d246b26b04bb589a5ed05944a22f904a29742f962ac8b5e",
                    "indexes": {
                        "data": 0,
                        "gas": 0,
                        "value": 0
                    }
                }
            ]
        }
    }
}