{
    "RawCallGasValueTransferAsk": {
        "_info": {
            "comment": "",
            "filling-rpc-server": "evm version 1.10.16-unstable-0f893109-20220105",
            "filling-tool-version": "retesteth-0.2.2-testinfo+commit.01c6aac2.Linux.g++",
            "filledWith": "CoreGeth-1.12.9-unstable-ab16c56768f0284ab56a30aac9550d3ebdc45901",
            "lllcversion": "Version: 0.5.14-develop.2021.11.27+commit.401d5358.Linux.g++",
            "source": "src/GeneralStateTestsFiller/stEIP150singleCodeGasPrices/RawCallGasValueTransferAskFiller.json",
            "sourceHash": "02a1de904fd8d0f6a6ac39bc03c79036921131f7f60c424f620eaf53f9a24d2c"
        },
        "env": {
            "currentCoinbase": "0x2adc25665018aa1fe0e6bc666dac8fc2697ff9ba",
            "currentDifficulty": "0x20000",
            "currentGasLimit": "0x989680",
            "currentNumber": "0x1",
            "currentTimestamp": "0x3e8",
            "currentBaseFee": "0xa",
            "previousHash": "0x5e20a0453cecd065ea59c37ac63e079ee08998b6045136a8ce6635c7912ec0b6"
        },
        "pre": {
            "0x094f5374fce5edbc8e2a8697c15331677e6ebf0b": {
                "code": "0x5a60025500",
                "balance": "0x0"
            },
            "0xa94f5374fce5edbc8e2a8697c15331677e6ebf0b": {
                "balance": "0xe8d4a51000"
            },
            "0xb94f5374fce5edbc8e2a8697c15331677e6ebf0b": {
                "code": "0x5a6000526000600060006000600a73094f5374fce5edbc8e2a8697c15331677e6ebf0b622dc6c0f1505a6000510360015500",
                "balance": "0x0"
            }
        },
        "transaction": {
            "gasPrice": "0xa",
            "nonce": "0x0",
            "to": "0xb94f5374fce5edbc8e2a8697c15331677e6ebf0b",
            "data": [
                "0x"
            ],
            "gasLimit": [
                "0x7a120"
            ],
            "value": [
                "0x0a"
            ],
            "secretKey": "0x45a915e4d060149eb4365960e6a7a45f334393093061116b197e3240065ff2d8",
            "sender": "0xa94f5374fce5edbc8e2a8697c15331677e6ebf0b"
        },
        "post": {
            "ETC_Magneto": [
                {
                    "hash": "66a17a0f3ff08fb1dd7735e412f29ffa5a9776fffd3b7a814d4883894f508a46",
                    "logs": "1dcc4de8dec75d7aab85b567b6ccd41ad312451b948a7413f0a142fd40d49347",
                    "txbytes": "0xf860800a8307a12094b94f5374fce5edbc8e2a8697c15331677e6ebf0b0a801ba0fb35c05d1d179aeeff9c12ca66f64b951bd1a1e6b2e8fd598d1ca177ac864ab8a0594406f2277897478d246b26b04bb589a5ed05944a22f904a29742f962ac8b5e",
                    "indexes": {
                        "data": 0,
                        "gas": 0,
                        "value": 0
                    }
                }
            ],
            "ETC_Mystique": [
                {
                    "hash": "66a17a0f3ff08fb1dd7735e412f29ffa5a9776fffd3b7a814d4883894f508a46",
                    "logs": "1dcc4de8dec75d7aab85b567b6ccd41ad312451b948a7413f0a142fd40d49347",
                    "txbytes": "0xf860800a8307a12094b94f5374fce5edbc8e2a8697c15331677e6ebf0b0a801ba0fb35c05d1d179aeeff9c12ca66f64b951bd1a1e6b2e8fd598d1ca177ac864ab8a0594406f2277897478d246b26b04bb589a5ed05944a22f904a29742f962ac8b5e",
                    "indexes": {
                        "data": 0,
                        "gas": 0,
                        "value": 0
                    }
                }
            ],
            "ETC_Phoenix": [
                {
                    "hash": "217ca7a1a4f1701ad3cb9a9cf88e014e58195f1309b1e7fa160965db7a7a84f5",
                    "logs": "1dcc4de8dec75d7aab85b567b6ccd41ad312451b948a7413f0a142fd40d49347",
                    "txbytes": "0xf860800a8307a12094b94f5374fce5edbc8e2a8697c15331677e6ebf0b0a801ba0fb35c05d1d179aeeff9c12ca66f64b951bd1a1e6b2e8fd598d1ca177ac864ab8a0594406f2277897478d246b26b04bb589a5ed05944a22f904a29742f962ac8b5e",
                    "indexes": {
                        "data": 0,
                        "gas": 0,
                        "value": 0
                    }
                }
            ]
        }
    }
}