{
    "static_Call50000_sha256": {
        "_info": {
            "comment": "",
            "filling-rpc-server": "evm version 1.10.16-unstable-0f893109-20220105",
            "filling-tool-version": "retesteth-0.2.2-testinfo+commit.01c6aac2.Linux.g++",
            "filledWith": "CoreGeth-1.12.9-unstable-d390462df9df233b60b4cd7a37db5b3043832022",
            "lllcversion": "Version: 0.5.14-develop.2021.11.27+commit.401d5358.Linux.g++",
            "source": "src/GeneralStateTestsFiller/stTimeConsuming/static_Call50000_sha256Filler.json",
            "sourceHash": "42489926d5141cae49695a85f2ec6d3214e8e33fb7c1906f62bc22e847080e69"
        },
        "env": {
            "currentCoinbase": "0xb94f5374fce5edbc8e2a8697c15331677e6ebf0b",
            "currentDifficulty": "0x20000",
            "currentGasLimit": "0x9237b7880",
            "currentNumber": "0x1",
            "currentTimestamp": "0x3e8",
            "previousHash": "0x5e20a0453cecd065ea59c37ac63e079ee08998b6045136a8ce6635c7912ec0b6"
        },
        "pre": {
            "0x1000000000000000000000000000000000000000": {
                "code": "0x6000600060006000346000355af1600055600160015500",
                "balance": "0x0",
                "nonce": "0x0"
            },
            "0xa94f5374fce5edbc8e2a8697c15331677e6ebf0b": {
                "code": "0x",
                "balance": "0xffffffffffffffffffffffffffffffff",
                "nonce": "0x0"
            },
            "0xbbbf5374fce5edbc8e2a8697c15331677e6ebf0b": {
                "code": "0x5b61c3506080511015602b576000600061c3506000600262013178fa6000556001608051016080526000565b60805160015500",
                "balance": "0xfffffffffffff",
                "nonce": "0x0"
            },
            "0xcccf5374fce5edbc8e2a8697c15331677e6ebf0b": {
                "code": "0x5b61c3506080511015602b576000600061c3506000600262013178fa6000526001608051016080526000565b60805160205200",
                "balance": "0xfffffffffffff",
                "nonce": "0x0"
            }
        },
        "transaction": {
            "gasPrice": "0xa",
            "nonce": "0x0",
            "to": "0x1000000000000000000000000000000000000000",
            "data": [
                "0x000000000000000000000000bbbf5374fce5edbc8e2a8697c15331677e6ebf0b",
                "0x000000000000000000000000cccf5374fce5edbc8e2a8697c15331677e6ebf0b"
            ],
            "gasLimit": [
                "0xe9f2bf40"
            ],
            "value": [
                "0x0a"
            ],
            "secretKey": "0x45a915e4d060149eb4365960e6a7a45f334393093061116b197e3240065ff2d8",
            "sender": "0xa94f5374fce5edbc8e2a8697c15331677e6ebf0b"
        },
        "post": {
            "ETC_Magneto": [
                {
                    "hash": "f591a379eee0b124fc34c66ff5987c70dae30af9d0a5d2875e2532904e5cce7b",
                    "logs": "1dcc4de8dec75d7aab85b567b6ccd41ad312451b948a7413f0a142fd40d49347",
                    "txbytes": "0xf881800a84e9f2bf409410000000000000000000000000000000000000000aa0000000000000000000000000bbbf5374fce5edbc8e2a8697c15331677e6ebf0b1ba0f6ff161c8a1e7aee0627569354baeb1466aeda5c2594621cf0a4f7e3c316508ea016853ae60d1819a733888504687b4f844fbf56682aad6bf1932b8883fbccfb5e",
                    "indexes": {
                        "data": 0,
                        "gas": 0,
                        "value": 0
                    }
                },
                {
                    "hash": "71109a01177322cf7c1284efa1174169f297ec52c5d3d61c4b08ee84fb8d252d",
                    "logs": "1dcc4de8dec75d7aab85b567b6ccd41ad312451b948a7413f0a142fd40d49347",
                    "txbytes": "0xf881800a84e9f2bf409410000000000000000000000000000000000000000aa0000000000000000000000000cccf5374fce5edbc8e2a8697c15331677e6ebf0b1ba0e9fdda6ed4379767508dedfc02ea1e6d71a02037556b72676b9d25235f4ff7e1a07560e92292e977106fa1aee44e37d1635db0df4d2e54bb0c90ac0999c58ce021",
                    "indexes": {
                        "data": 1,
                        "gas": 0,
                        "value": 0
                    }
                }
            ],
            "ETC_Mystique": [
                {
                    "hash": "f591a379eee0b124fc34c66ff5987c70dae30af9d0a5d2875e2532904e5cce7b",
                    "logs": "1dcc4de8dec75d7aab85b567b6ccd41ad312451b948a7413f0a142fd40d49347",
                    "txbytes": "0xf881800a84e9f2bf409410000000000000000000000000000000000000000aa0000000000000000000000000bbbf5374fce5edbc8e2a8697c15331677e6ebf0b1ba0f6ff161c8a1e7aee0627569354baeb1466aeda5c2594621cf0a4f7e3c316508ea016853ae60d1819a733888504687b4f844fbf56682aad6bf1932b8883fbccfb5e",
                    "indexes": {
                        "data": 0,
                        "gas": 0,
                        "value": 0
                    }
                },
                {
                    "hash": "71109a01177322cf7c1284efa1174169f297ec52c5d3d61c4b08ee84fb8d252d",
                    "logs": "1dcc4de8dec75d7aab85b567b6ccd41ad312451b948a7413f0a142fd40d49347",
                    "txbytes": "0xf881800a84e9f2bf409410000000000000000000000000000000000000000aa0000000000000000000000000cccf5374fce5edbc8e2a8697c15331677e6ebf0b1ba0e9fdda6ed4379767508dedfc02ea1e6d71a02037556b72676b9d25235f4ff7e1a07560e92292e977106fa1aee44e37d1635db0df4d2e54bb0c90ac0999c58ce021",
                    "indexes": {
                        "data": 1,
                        "gas": 0,
                        "value": 0
                    }
                }
            ],
            "ETC_Phoenix": [
                {
                    "hash": "3dcc46e694eaf2287adfdeeb9cdf06c2f434b4cecf1f83461b529ac0f05ba84c",
                    "logs": "1dcc4de8dec75d7aab85b567b6ccd41ad312451b948a7413f0a142fd40d49347",
                    "txbytes": "0xf881800a84e9f2bf409410000000000000000000000000000000000000000aa0000000000000000000000000bbbf5374fce5edbc8e2a8697c15331677e6ebf0b1ba0f6ff161c8a1e7aee0627569354baeb1466aeda5c2594621cf0a4f7e3c316508ea016853ae60d1819a733888504687b4f844fbf56682aad6bf1932b8883fbccfb5e",
                    "indexes": {
                        "data": 0,
                        "gas": 0,
                        "value": 0
                    }
                },
                {
                    "hash": "e6f8e443c1036537138bdeffacd400a5a63e2283beda6b62c570ca1f1b1458cf",
                    "logs": "1dcc4de8dec75d7aab85b567b6ccd41ad312451b948a7413f0a142fd40d49347",
                    "txbytes": "0xf881800a84e9f2bf409410000000000000000000000000000000000000000aa0000000000000000000000000cccf5374fce5edbc8e2a8697c15331677e6ebf0b1ba0e9fdda6ed4379767508dedfc02ea1e6d71a02037556b72676b9d25235f4ff7e1a07560e92292e977106fa1aee44e37d1635db0df4d2e54bb0c90ac0999c58ce021",
                    "indexes": {
                        "data": 1,
                        "gas": 0,
                        "value": 0
                    }
                }
            ]
        }
    }
}