{
    "calldataloadNonConst": {
        "_info": {
            "comment": "",
            "filling-rpc-server": "evm version 1.10.16-unstable-0f893109-20220105",
            "filling-tool-version": "retesteth-0.2.2-testinfo+commit.01c6aac2.Linux.g++",
            "filledWith": "CoreGeth-1.12.9-unstable-3995a327f2ded5c98324b03792b5ccc22557754f",
            "lllcversion": "Version: 0.5.14-develop.2021.11.27+commit.401d5358.Linux.g++",
            "source": "src/GeneralStateTestsFiller/stArgsZeroOneBalance/calldataloadNonConstFiller.yml",
            "sourceHash": "a1d4bb635d6231b000d183c21bbb6713eef71b721e67dc2fe9947e8b7242931a"
        },
        "env": {
            "currentCoinbase": "0x2adc25665018aa1fe0e6bc666dac8fc2697ff9ba",
            "currentDifficulty": "0x20000",
            "currentGasLimit": "0xf4240",
            "currentNumber": "0x1",
            "currentTimestamp": "0x3e8",
            "currentBaseFee": "0xa",
            "previousHash": "0x5e20a0453cecd065ea59c37ac63e079ee08998b6045136a8ce6635c7912ec0b6"
        },
        "pre": {
            "0x095e7baea6a6c7c4c2dfeb977efac326af552d87": {
                "code": "0x73095e7baea6a6c7c4c2dfeb977efac326af552d87313560005500",
                "balance": "0x0"
            },
            "0xa94f5374fce5edbc8e2a8697c15331677e6ebf0b": {
                "balance": "0xde0b6b3a7640000"
            }
        },
        "transaction": {
            "gasPrice": "0xa",
            "nonce": "0x0",
            "to": "0x095e7baea6a6c7c4c2dfeb977efac326af552d87",
            "data": [
                "0x",
                "0x11223344"
            ],
            "gasLimit": [
                "0x61a80"
            ],
            "value": [
                "0x00",
                "0x01"
            ],
            "secretKey": "0x45a915e4d060149eb4365960e6a7a45f334393093061116b197e3240065ff2d8",
            "sender": "0xa94f5374fce5edbc8e2a8697c15331677e6ebf0b"
        },
        "post": {
            "ETC_Magneto": [
                {
                    "hash": "151c506cbb95a83cc2438c55d75422dbf9192d1f82ee42a1ca43e2b93ec9fbc0",
                    "logs": "1dcc4de8dec75d7aab85b567b6ccd41ad312451b948a7413f0a142fd40d49347",
                    "txbytes": "0xf864800a83061a8094095e7baea6a6c7c4c2dfeb977efac326af552d878084112233441ba077f33eb15032d590ab27d2dcad550e32d98da5c7b7e6900b9d5e3cfbfc8e2ff0a061e5a57f71f2b31702f0f71100be5d506f19b6bd2a84e239b9d26d3ab0c9ba4f",
                    "indexes": {
                        "data": 1,
                        "gas": 0,
                        "value": 0
                    }
                },
                {
                    "hash": "b6a7f54d93e0dfa6da7a11d9d3b5e9ddab031ac485191137894958754db10fdc",
                    "logs": "1dcc4de8dec75d7aab85b567b6ccd41ad312451b948a7413f0a142fd40d49347",
                    "txbytes": "0xf860800a83061a8094095e7baea6a6c7c4c2dfeb977efac326af552d8780801ba072ed817487b84ba367d15d2f039b5fc5f087d0a8882fbdf73e8cb49357e1ce30a0403d800545b8fc544f92ce8124e2255f8c3c6af93f28243a120585d4c4c6a2a3",
                    "indexes": {
                        "data": 0,
                        "gas": 0,
                        "value": 0
                    }
                },
                {
                    "hash": "34f851213e0f11231527a71d844214f7055f6b709862a3877147002ad5333bdb",
                    "logs": "1dcc4de8dec75d7aab85b567b6ccd41ad312451b948a7413f0a142fd40d49347",
                    "txbytes": "0xf864800a83061a8094095e7baea6a6c7c4c2dfeb977efac326af552d870184112233441ca0f19a4027ec89c1c14d11012406a4df857d00821c22071a5e0bc1aa237bfb995ea058be3e5aca7d504993f73d0cc6fadd22fd35ece5863f4febf9f04fbc04e8834c",
                    "indexes": {
                        "data": 1,
                        "gas": 0,
                        "value": 1
                    }
                },
                {
                    "hash": "1b049c19eef853157d85bac24d558280df70e619f754ba4b21155b19b383df6a",
                    "logs": "1dcc4de8dec75d7aab85b567b6ccd41ad312451b948a7413f0a142fd40d49347",
                    "txbytes": "0xf860800a83061a8094095e7baea6a6c7c4c2dfeb977efac326af552d8701801ca09d46b87169053cc40670aef750b032c895cde3e35c2c7f5a37c059272e0914c7a04d4a94b67b2776cc3e0fca2ed9503c10fd92ec79f1b2dcbb85df9634c7de3119",
                    "indexes": {
                        "data": 0,
                        "gas": 0,
                        "value": 1
                    }
                }
            ],
            "ETC_Mystique": [
                {
                    "hash": "151c506cbb95a83cc2438c55d75422dbf9192d1f82ee42a1ca43e2b93ec9fbc0",
                    "logs": "1dcc4de8dec75d7aab85b567b6ccd41ad312451b948a7413f0a142fd40d49347",
                    "txbytes": "0xf864800a83061a8094095e7baea6a6c7c4c2dfeb977efac326af552d878084112233441ba077f33eb15032d590ab27d2dcad550e32d98da5c7b7e6900b9d5e3cfbfc8e2ff0a061e5a57f71f2b31702f0f71100be5d506f19b6bd2a84e239b9d26d3ab0c9ba4f",
                    "indexes": {
                        "data": 1,
                        "gas": 0,
                        "value": 0
                    }
                },
                {
                    "hash": "b6a7f54d93e0dfa6da7a11d9d3b5e9ddab031ac485191137894958754db10fdc",
                    "logs": "1dcc4de8dec75d7aab85b567b6ccd41ad312451b948a7413f0a142fd40d49347",
                    "txbytes": "0xf860800a83061a8094095e7baea6a6c7c4c2dfeb977efac326af552d8780801ba072ed817487b84ba367d15d2f039b5fc5f087d0a8882fbdf73e8cb49357e1ce30a0403d800545b8fc544f92ce8124e2255f8c3c6af93f28243a120585d4c4c6a2a3",
                    "indexes": {
                        "data": 0,
                        "gas": 0,
                        "value": 0
                    }
                },
                {
                    "hash": "34f851213e0f11231527a71d844214f7055f6b709862a3877147002ad5333bdb",
                    "logs": "1dcc4de8dec75d7aab85b567b6ccd41ad312451b948a7413f0a142fd40d49347",
                    "txbytes": "0xf864800a83061a8094095e7baea6a6c7c4c2dfeb977efac326af552d870184112233441ca0f19a4027ec89c1c14d11012406a4df857d00821c22071a5e0bc1aa237bfb995ea058be3e5aca7d504993f73d0cc6fadd22fd35ece5863f4febf9f04fbc04e8834c",
                    "indexes": {
                        "data": 1,
                        "gas": 0,
                        "value": 1
                    }
                },
                {
                    "hash": "1b049c19eef853157d85bac24d558280df70e619f754ba4b21155b19b383df6a",
                    "logs": "1dcc4de8dec75d7aab85b567b6ccd41ad312451b948a7413f0a142fd40d49347",
                    "txbytes": "0xf860800a83061a8094095e7baea6a6c7c4c2dfeb977efac326af552d8701801ca09d46b87169053cc40670aef750b032c895cde3e35c2c7f5a37c059272e0914c7a04d4a94b67b2776cc3e0fca2ed9503c10fd92ec79f1b2dcbb85df9634c7de3119",
                    "indexes": {
                        "data": 0,
                        "gas": 0,
                        "value": 1
                    }
                }
            ],
            "ETC_Phoenix": [
                {
                    "hash": "23e73ee92f24ac191c8f797ed6496d21a95948d6797ce31b048c8fb595e0a3cd",
                    "logs": "1dcc4de8dec75d7aab85b567b6ccd41ad312451b948a7413f0a142fd40d49347",
                    "txbytes": "0xf864800a83061a8094095e7baea6a6c7c4c2dfeb977efac326af552d878084112233441ba077f33eb15032d590ab27d2dcad550e32d98da5c7b7e6900b9d5e3cfbfc8e2ff0a061e5a57f71f2b31702f0f71100be5d506f19b6bd2a84e239b9d26d3ab0c9ba4f",
                    "indexes": {
                        "data": 1,
                        "gas": 0,
                        "value": 0
                    }
                },
                {
                    "hash": "99f7955139f8d35a777ffadd98426da4b34c4a33d5d25d0959fcbb1cfc5141c8",
                    "logs": "1dcc4de8dec75d7aab85b567b6ccd41ad312451b948a7413f0a142fd40d49347",
                    "txbytes": "0xf860800a83061a8094095e7baea6a6c7c4c2dfeb977efac326af552d8780801ba072ed817487b84ba367d15d2f039b5fc5f087d0a8882fbdf73e8cb49357e1ce30a0403d800545b8fc544f92ce8124e2255f8c3c6af93f28243a120585d4c4c6a2a3",
                    "indexes": {
                        "data": 0,
                        "gas": 0,
                        "value": 0
                    }
                },
                {
                    "hash": "1130c92126407671aee9c507d4ad9c2822e70577ab91a82ee0ae1d7ba833c467",
                    "logs": "1dcc4de8dec75d7aab85b567b6ccd41ad312451b948a7413f0a142fd40d49347",
                    "txbytes": "0xf864800a83061a8094095e7baea6a6c7c4c2dfeb977efac326af552d870184112233441ca0f19a4027ec89c1c14d11012406a4df857d00821c22071a5e0bc1aa237bfb995ea058be3e5aca7d504993f73d0cc6fadd22fd35ece5863f4febf9f04fbc04e8834c",
                    "indexes": {
                        "data": 1,
                        "gas": 0,
                        "value": 1
                    }
                },
                {
                    "hash": "8f230f07dbc694a9f64676d988c4ed11c5302b617bad198edff53ed81ea78bca",
                    "logs": "1dcc4de8dec75d7aab85b567b6ccd41ad312451b948a7413f0a142fd40d49347",
                    "txbytes": "0xf860800a83061a8094095e7baea6a6c7c4c2dfeb977efac326af552d8701801ca09d46b87169053cc40670aef750b032c895cde3e35c2c7f5a37c059272e0914c7a04d4a94b67b2776cc3e0fca2ed9503c10fd92ec79f1b2dcbb85df9634c7de3119",
                    "indexes": {
                        "data": 0,
                        "gas": 0,
                        "value": 1
                    }
                }
            ]
        }
    }
}