{
    "log0NonConst": {
        "_info": {
            "comment": "",
            "filling-rpc-server": "evm version 1.10.16-unstable-0f893109-20220105",
            "filling-tool-version": "retesteth-0.2.2-testinfo+commit.01c6aac2.Linux.g++",
            "filledWith": "CoreGeth-1.12.9-unstable-4d59a861107c8232d6896811c48f229d30087be4",
            "lllcversion": "Version: 0.5.14-develop.2021.11.27+commit.401d5358.Linux.g++",
            "source": "src/GeneralStateTestsFiller/stArgsZeroOneBalance/log0NonConstFiller.yml",
            "sourceHash": "169264b6b1cfb086d495b3d270451c014eeec210f5257297a5c80c3ebc8405cf"
        },
        "env": {
            "currentCoinbase": "0x2adc25665018aa1fe0e6bc666dac8fc2697ff9ba",
            "currentDifficulty": "0x20000",
            "currentGasLimit": "0xf4240",
            "currentNumber": "0x1",
            "currentTimestamp": "0x3e8",
            "currentBaseFee": "0xa",
            "previousHash": "0x5e20a0453cecd065ea59c37ac63e079ee08998b6045136a8ce6635c7912ec0b6"
        },
        "pre": {
            "0x095e7baea6a6c7c4c2dfeb977efac326af552d87": {
                "code": "0x73095e7baea6a6c7c4c2dfeb977efac326af552d873173095e7baea6a6c7c4c2dfeb977efac326af552d8731a000",
                "balance": "0x0"
            },
            "0xa94f5374fce5edbc8e2a8697c15331677e6ebf0b": {
                "balance": "0xde0b6b3a7640000"
            }
        },
        "transaction": {
            "gasPrice": "0xa",
            "nonce": "0x0",
            "to": "0x095e7baea6a6c7c4c2dfeb977efac326af552d87",
            "data": [
                "0x"
            ],
            "gasLimit": [
                "0x61a80"
            ],
            "value": [
                "0x00",
                "0x01"
            ],
            "secretKey": "0x45a915e4d060149eb4365960e6a7a45f334393093061116b197e3240065ff2d8",
            "sender": "0xa94f5374fce5edbc8e2a8697c15331677e6ebf0b"
        },
        "post": {
            "ETC_Magneto": [
                {
                    "hash": "28e98e508ac9a1d1777ac5e85205d5a6d4b47b19f6852c3607da889897376881",
                    "logs": "f59cc42c8c5b9a14003f624f7f446b259caf265f66880cc519214920855bcaa9",
                    "txbytes": "0xf860800a83061a8094095e7baea6a6c7c4c2dfeb977efac326af552d8780801ba072ed817487b84ba367d15d2f039b5fc5f087d0a8882fbdf73e8cb49357e1ce30a0403d800545b8fc544f92ce8124e2255f8c3c6af93f28243a120585d4c4c6a2a3",
                    "indexes": {
                        "data": 0,
                        "gas": 0,
                        "value": 0
                    }
                },
                {
                    "hash": "312f8cc1d5edd3e801168134a98ca637b66636b29288f9c31a480ff9dbd081c4",
                    "logs": "13689e2e9881324f1f364860b0218b69f30eb534d90de193867b5aa71ebf937f",
                    "txbytes": "0xf860800a83061a8094095e7baea6a6c7c4c2dfeb977efac326af552d8701801ca09d46b87169053cc40670aef750b032c895cde3e35c2c7f5a37c059272e0914c7a04d4a94b67b2776cc3e0fca2ed9503c10fd92ec79f1b2dcbb85df9634c7de3119",
                    "indexes": {
                        "data": 0,
                        "gas": 0,
                        "value": 1
                    }
                }
            ],
            "ETC_Mystique": [
                {
                    "hash": "28e98e508ac9a1d1777ac5e85205d5a6d4b47b19f6852c3607da889897376881",
                    "logs": "f59cc42c8c5b9a14003f624f7f446b259caf265f66880cc519214920855bcaa9",
                    "txbytes": "0xf860800a83061a8094095e7baea6a6c7c4c2dfeb977efac326af552d8780801ba072ed817487b84ba367d15d2f039b5fc5f087d0a8882fbdf73e8cb49357e1ce30a0403d800545b8fc544f92ce8124e2255f8c3c6af93f28243a120585d4c4c6a2a3",
                    "indexes": {
                        "data": 0,
                        "gas": 0,
                        "value": 0
                    }
                },
                {
                    "hash": "312f8cc1d5edd3e801168134a98ca637b66636b29288f9c31a480ff9dbd081c4",
                    "logs": "13689e2e9881324f1f364860b0218b69f30eb534d90de193867b5aa71ebf937f",
                    "txbytes": "0xf860800a83061a8094095e7baea6a6c7c4c2dfeb977efac326af552d8701801ca09d46b87169053cc40670aef750b032c895cde3e35c2c7f5a37c059272e0914c7a04d4a94b67b2776cc3e0fca2ed9503c10fd92ec79f1b2dcbb85df9634c7de3119",
                    "indexes": {
                        "data": 0,
                        "gas": 0,
                        "value": 1
                    }
                }
            ],
            "ETC_Phoenix": [
                {
                    "hash": "b8150a41cfeaa14244afd3d0099f1d1aeccc4e1007376d0aae8903044eaa8045",
                    "logs": "f59cc42c8c5b9a14003f624f7f446b259caf265f66880cc519214920855bcaa9",
                    "txbytes": "0xf860800a83061a8094095e7baea6a6c7c4c2dfeb977efac326af552d8780801ba072ed817487b84ba367d15d2f039b5fc5f087d0a8882fbdf73e8cb49357e1ce30a0403d800545b8fc544f92ce8124e2255f8c3c6af93f28243a120585d4c4c6a2a3",
                    "indexes": {
                        "data": 0,
                        "gas": 0,
                        "value": 0
                    }
                },
                {
                    "hash": "b7e38efcaab43bca31b7e70751e1cf8ec8a1bc655beae3ba051ae02f893636a4",
                    "logs": "13689e2e9881324f1f364860b0218b69f30eb534d90de193867b5aa71ebf937f",
                    "txbytes": "0xf860800a83061a8094095e7baea6a6c7c4c2dfeb977efac326af552d8701801ca09d46b87169053cc40670aef750b032c895cde3e35c2c7f5a37c059272e0914c7a04d4a94b67b2776cc3e0fca2ed9503c10fd92ec79f1b2dcbb85df9634c7de3119",
                    "indexes": {
                        "data": 0,
                        "gas": 0,
                        "value": 1
                    }
                }
            ]
        }
    }
}