{
    "byte": {
        "_info": {
            "comment": "Ori Pomerantz qbzzt1@gmail.com",
            "filling-rpc-server": "evm version 1.10.16-unstable-0f893109-20220105",
            "filling-tool-version": "retesteth-0.2.2-testinfo+commit.01c6aac2.Linux.g++",
            "filledWith": "CoreGeth-1.12.9-unstable-d390462df9df233b60b4cd7a37db5b3043832022",
            "lllcversion": "Version: 0.5.14-develop.2021.11.27+commit.401d5358.Linux.g++",
            "source": "src/GeneralStateTestsFiller/VMTests/vmBitwiseLogicOperation/byteFiller.yml",
            "sourceHash": "913916ef0043bb9fa15ddea1b56b4c6eff7fbd5a1ef498d6877a68186d289eea",
            "labels": {
                "0": "byte_31_big",
                "1": "byte_30_big",
                "10": "byte_asm",
                "11": "byte_all",
                "2": "byte_29_big",
                "3": "byte_28_big",
                "4": "byte_27_big",
                "5": "byte_26_big",
                "6": "byte_25_big",
                "7": "byte_24_big",
                "8": "byte_00_big",
                "9": "byte_00_big_2nd"
            }
        },
        "env": {
            "currentCoinbase": "0x2adc25665018aa1fe0e6bc666dac8fc2697ff9ba",
            "currentDifficulty": "0x20000",
            "currentGasLimit": "0x5f5e100",
            "currentNumber": "0x1",
            "currentTimestamp": "0x3e8",
            "previousHash": "0x5e20a0453cecd065ea59c37ac63e079ee08998b6045136a8ce6635c7912ec0b6"
        },
        "pre": {
            "0x0000000000000000000000000000000000000100": {
                "code": "0x6780402010080402016000601f031a60005500",
                "balance": "0xba1a9ce0ba1a9ce",
                "nonce": "0x0"
            },
            "0x0000000000000000000000000000000000000101": {
                "code": "0x6780402010080402016001601f031a60005500",
                "balance": "0xba1a9ce0ba1a9ce",
                "nonce": "0x0"
            },
            "0x0000000000000000000000000000000000000102": {
                "code": "0x6780402010080402016002601f031a60005500",
                "balance": "0xba1a9ce0ba1a9ce",
                "nonce": "0x0"
            },
            "0x0000000000000000000000000000000000000103": {
                "code": "0x6780402010080402016003601f031a60005500",
                "balance": "0xba1a9ce0ba1a9ce",
                "nonce": "0x0"
            },
            "0x0000000000000000000000000000000000000104": {
                "code": "0x6780402010080402016004601f031a60005500",
                "balance": "0xba1a9ce0ba1a9ce",
                "nonce": "0x0"
            },
            "0x0000000000000000000000000000000000000105": {
                "code": "0x6780402010080402016005601f031a60005500",
                "balance": "0xba1a9ce0ba1a9ce",
                "nonce": "0x0"
            },
            "0x0000000000000000000000000000000000000106": {
                "code": "0x6780402010080402016006601f031a60005500",
                "balance": "0xba1a9ce0ba1a9ce",
                "nonce": "0x0"
            },
            "0x0000000000000000000000000000000000000107": {
                "code": "0x6780402010080402016007601f031a60005500",
                "balance": "0xba1a9ce0ba1a9ce",
                "nonce": "0x0"
            },
            "0x0000000000000000000000000000000000000108": {
                "code": "0x678040201008040201601f601f031a60005500",
                "balance": "0xba1a9ce0ba1a9ce",
                "nonce": "0x0"
            },
            "0x0000000000000000000000000000000000000109": {
                "code": "0x6780402010080402016020601f051a60005500",
                "balance": "0xba1a9ce0ba1a9ce",
                "nonce": "0x0"
            },
            "0x000000000000000000000000000000000000010a": {
                "code": "0x641234523456601f1a8001600155",
                "balance": "0xba1a9ce0ba1a9ce",
                "nonce": "0x0"
            },
            "0x0000000000000000000000000000000000000200": {
                "code": "0x6000610100525b6020610100511015604a577e0102030405060708090a0b0c0d0e0f101112131415161718191a1b1c1d1e1f610100511a610100515560016101005101610100526006565b00",
                "balance": "0xba1a9ce0ba1a9ce",
                "nonce": "0x0"
            },
            "0xa94f5374fce5edbc8e2a8697c15331677e6ebf0b": {
                "code": "0x",
                "balance": "0xba1a9ce0ba1a9ce",
                "nonce": "0x0"
            },
            "0xcccccccccccccccccccccccccccccccccccccccc": {
                "code": "0x6000600060006000600060043562fffffff100",
                "balance": "0xba1a9ce0ba1a9ce",
                "nonce": "0x0"
            }
        },
        "transaction": {
            "gasPrice": "0xa",
            "nonce": "0x0",
            "to": "0xcccccccccccccccccccccccccccccccccccccccc",
            "data": [
                "0x693c61390000000000000000000000000000000000000000000000000000000000000100",
                "0x693c61390000000000000000000000000000000000000000000000000000000000000101",
                "0x693c61390000000000000000000000000000000000000000000000000000000000000102",
                "0x693c61390000000000000000000000000000000000000000000000000000000000000103",
                "0x693c61390000000000000000000000000000000000000000000000000000000000000104",
                "0x693c61390000000000000000000000000000000000000000000000000000000000000105",
                "0x693c61390000000000000000000000000000000000000000000000000000000000000106",
                "0x693c61390000000000000000000000000000000000000000000000000000000000000107",
                "0x693c61390000000000000000000000000000000000000000000000000000000000000108",
                "0x693c61390000000000000000000000000000000000000000000000000000000000000109",
                "0x693c6139000000000000000000000000000000000000000000000000000000000000010a",
                "0x693c61390000000000000000000000000000000000000000000000000000000000000200"
            ],
            "gasLimit": [
                "0x4c4b400"
            ],
            "value": [
                "0x01"
            ],
            "secretKey": "0x45a915e4d060149eb4365960e6a7a45f334393093061116b197e3240065ff2d8",
            "sender": "0xa94f5374fce5edbc8e2a8697c15331677e6ebf0b"
        },
        "post": {
            "ETC_Magneto": [
                {
                    "hash": "23ca59875a559efc25a390086331ab6ebff9ca697786ac149503044250492ecc",
                    "logs": "1dcc4de8dec75d7aab85b567b6ccd41ad312451b948a7413f0a142fd40d49347",
                    "txbytes": "0xf885800a8404c4b40094cccccccccccccccccccccccccccccccccccccccc01a4693c613900000000000000000000000000000000000000000000000000000000000001001ca0ebc6a836413596ba1ac62a71555ade81e42d09eab71d5de0e5775641519ffd6aa07f41824f46f475c442d28620f914388cf7a1f6e98ecfe8ae4656976facb09ef2",
                    "indexes": {
                        "data": 0,
                        "gas": 0,
                        "value": 0
                    }
                },
                {
                    "hash": "f62cdb142d047f08013b2637f665dcc86da1fe6aecfbf7099dd7ba86e27b996b",
                    "logs": "1dcc4de8dec75d7aab85b567b6ccd41ad312451b948a7413f0a142fd40d49347",
                    "txbytes": "0xf885800a8404c4b40094cccccccccccccccccccccccccccccccccccccccc01a4693c613900000000000000000000000000000000000000000000000000000000000001011ca0ffd26504ab209214bb2e8624e3af346ab8f5a5426dee4ad391f4b14f8dcde5b5a002da13cf479f1c68710ed3fb235b46721807840beacdf41d96440019b5dd859b",
                    "indexes": {
                        "data": 1,
                        "gas": 0,
                        "value": 0
                    }
                },
                {
                    "hash": "8cd7acf24092e8a072d5470519dba6a5d86accdc98bd68fc6be365b51bfff3d2",
                    "logs": "1dcc4de8dec75d7aab85b567b6ccd41ad312451b948a7413f0a142fd40d49347",
                    "txbytes": "0xf885800a8404c4b40094cccccccccccccccccccccccccccccccccccccccc01a4693c613900000000000000000000000000000000000000000000000000000000000001021ca06e247bdafd46e5cae6e41f499c66c65dc939069ffe1d9f9cfb5de833b2bcce52a0056913356be95ab78d8c9029599be68fb1959d4088b8eb807f0987bbb5a2fe89",
                    "indexes": {
                        "data": 2,
                        "gas": 0,
                        "value": 0
                    }
                },
                {
                    "hash": "f6a64c749ef8ac273a4f450ec227097d695b8b5203da7b78476705514355564d",
                    "logs": "1dcc4de8dec75d7aab85b567b6ccd41ad312451b948a7413f0a142fd40d49347",
                    "txbytes": "0xf885800a8404c4b40094cccccccccccccccccccccccccccccccccccccccc01a4693c613900000000000000000000000000000000000000000000000000000000000001031ba0880ce7b3bd0a3dfd9937b2490f8c4f7c2033714b54c6a83140b7d4cf12c34c34a01afb8e4533a87ab82bf53e46ac078d1ac9cb6f383db3c3f84e974e5ba1353462",
                    "indexes": {
                        "data": 3,
                        "gas": 0,
                        "value": 0
                    }
                },
                {
                    "hash": "2a6cf0b0b339641f9aa5fe2f7bea338a359043eefaf68a7e06b008b5ea0f080c",
                    "logs": "1dcc4de8dec75d7aab85b567b6ccd41ad312451b948a7413f0a142fd40d49347",
                    "txbytes": "0xf885800a8404c4b40094cccccccccccccccccccccccccccccccccccccccc01a4693c613900000000000000000000000000000000000000000000000000000000000001041ca065e228d51a1e60e5b70b74274c5f7f493035cb29912040034fd39f8a0b1e8bfea05b000262f1fde6bc066d0e358b95a982f43e65348e52dcad20c0ee989231fc61",
                    "indexes": {
                        "data": 4,
                        "gas": 0,
                        "value": 0
                    }
                },
                {
                    "hash": "c6ef36d98184a5bb2aea4a595f292611c4a869af4b7794fa6976bc0e44be7504",
                    "logs": "1dcc4de8dec75d7aab85b567b6ccd41ad312451b948a7413f0a142fd40d49347",
                    "txbytes": "0xf885800a8404c4b40094cccccccccccccccccccccccccccccccccccccccc01a4693c613900000000000000000000000000000000000000000000000000000000000001051ca0f50f89dfc4141870f6690386f45d1d7e3d8dca7d1dc26256087cbaf8e0019647a076ba09ab907a02572079996dfc798898d355c938b935259f07b49185842d16fd",
                    "indexes": {
                        "data": 5,
                        "gas": 0,
                        "value": 0
                    }
                },
                {
                    "hash": "8ec0e4b6a09534d58063e76040f8b8fae7ef3003d7baaad89437739f4cc0f76e",
                    "logs": "1dcc4de8dec75d7aab85b567b6ccd41ad312451b948a7413f0a142fd40d49347",
                    "txbytes": "0xf885800a8404c4b40094cccccccccccccccccccccccccccccccccccccccc01a4693c613900000000000000000000000000000000000000000000000000000000000001061ca0bcce2dfcf0ae849210908634e762654ca4d3f13be5b176781518680ac391a7c4a004096b7d7551342b8ed3121a2857da84218a4c51f2c53a367f4a8cb8bf6c1bcb",
                    "indexes": {
                        "data": 6,
                        "gas": 0,
                        "value": 0
                    }
                },
                {
                    "hash": "9f4171f40d8d5071cd7e67a054894d854be7ccacfd57cd2e2929e09490dfc969",
                    "logs": "1dcc4de8dec75d7aab85b567b6ccd41ad312451b948a7413f0a142fd40d49347",
                    "txbytes": "0xf885800a8404c4b40094cccccccccccccccccccccccccccccccccccccccc01a4693c613900000000000000000000000000000000000000000000000000000000000001071ba0ff46eb7db27788d275f979f0358ace31f1457a464dc6731fceea1b5c66fcaa56a07ce89256edeeebebc37c785561848be408e475fc837f7181e78f926ec2617ca8",
                    "indexes": {
                        "data": 7,
                        "gas": 0,
                        "value": 0
                    }
                },
                {
                    "hash": "ea292899070c8cd81f0d635b537cdf3140b01015f5d57f622282188ecafb598f",
                    "logs": "1dcc4de8dec75d7aab85b567b6ccd41ad312451b948a7413f0a142fd40d49347",
                    "txbytes": "0xf885800a8404c4b40094cccccccccccccccccccccccccccccccccccccccc01a4693c613900000000000000000000000000000000000000000000000000000000000001081ba0618b3bd5430018eaba6d269cb3e38f2101f443d6936845678c37a22b803d9efea0274d26ee5658d038dfd83f54ec3931cc704146946ea49d5fa831074b9f1df9c7",
                    "indexes": {
                        "data": 8,
                        "gas": 0,
                        "value": 0
                    }
                },
                {
                    "hash": "d32d056a5e3a49c23dca1ef7056564f51aa7a9b4b3990a715b75d3d754c82619",
                    "logs": "1dcc4de8dec75d7aab85b567b6ccd41ad312451b948a7413f0a142fd40d49347",
                    "txbytes": "0xf885800a8404c4b40094cccccccccccccccccccccccccccccccccccccccc01a4693c613900000000000000000000000000000000000000000000000000000000000001091ca04058dc73dad3db26df990e33fb046349a571b3821b1aa2486daf182d9cfc5a0ea04903423f437ea187af9d97d234d25785ddd6333439638a203fe2a2408f9148c1",
                    "indexes": {
                        "data": 9,
                        "gas": 0,
                        "value": 0
                    }
                },
                {
                    "hash": "b6cc5d86481e8bf6c98e94d3bb81bea724b6ba5aaa6e7e86100b69e9318fad8d",
                    "logs": "1dcc4de8dec75d7aab85b567b6ccd41ad312451b948a7413f0a142fd40d49347",
                    "txbytes": "0xf885800a8404c4b40094cccccccccccccccccccccccccccccccccccccccc01a4693c6139000000000000000000000000000000000000000000000000000000000000010a1ba00e2e8a59034532805f04add03ab31b2f1dec7c1ae9b0c1ed2089c490833a4a0ba0396fb0d38bf267117a302682e23f554703cf9f1bcd6cfdc22e59a729538743a5",
                    "indexes": {
                        "data": 10,
                        "gas": 0,
                        "value": 0
                    }
                },
                {
                    "hash": "7832de714554ad18926591ba026a3103b5207360d2b352297f5a469a4564c3f7",
                    "logs": "1dcc4de8dec75d7aab85b567b6ccd41ad312451b948a7413f0a142fd40d49347",
                    "txbytes": "0xf885800a8404c4b40094cccccccccccccccccccccccccccccccccccccccc01a4693c613900000000000000000000000000000000000000000000000000000000000002001ca036f76330467d5f9ce49d78f4d7504e47685989cb87c1f35f142af6eb5ab0bc23a01b0769271f7f694cc6a8d43fe14b8432e0c6228492a4a0cdaef079569f170e20",
                    "indexes": {
                        "data": 11,
                        "gas": 0,
                        "value": 0
                    }
                }
            ],
            "ETC_Mystique": [
                {
                    "hash": "23ca59875a559efc25a390086331ab6ebff9ca697786ac149503044250492ecc",
                    "logs": "1dcc4de8dec75d7aab85b567b6ccd41ad312451b948a7413f0a142fd40d49347",
                    "txbytes": "0xf885800a8404c4b40094cccccccccccccccccccccccccccccccccccccccc01a4693c613900000000000000000000000000000000000000000000000000000000000001001ca0ebc6a836413596ba1ac62a71555ade81e42d09eab71d5de0e5775641519ffd6aa07f41824f46f475c442d28620f914388cf7a1f6e98ecfe8ae4656976facb09ef2",
                    "indexes": {
                        "data": 0,
                        "gas": 0,
                        "value": 0
                    }
                },
                {
                    "hash": "f62cdb142d047f08013b2637f665dcc86da1fe6aecfbf7099dd7ba86e27b996b",
                    "logs": "1dcc4de8dec75d7aab85b567b6ccd41ad312451b948a7413f0a142fd40d49347",
                    "txbytes": "0xf885800a8404c4b40094cccccccccccccccccccccccccccccccccccccccc01a4693c613900000000000000000000000000000000000000000000000000000000000001011ca0ffd26504ab209214bb2e8624e3af346ab8f5a5426dee4ad391f4b14f8dcde5b5a002da13cf479f1c68710ed3fb235b46721807840beacdf41d96440019b5dd859b",
                    "indexes": {
                        "data": 1,
                        "gas": 0,
                        "value": 0
                    }
                },
                {
                    "hash": "8cd7acf24092e8a072d5470519dba6a5d86accdc98bd68fc6be365b51bfff3d2",
                    "logs": "1dcc4de8dec75d7aab85b567b6ccd41ad312451b948a7413f0a142fd40d49347",
                    "txbytes": "0xf885800a8404c4b40094cccccccccccccccccccccccccccccccccccccccc01a4693c613900000000000000000000000000000000000000000000000000000000000001021ca06e247bdafd46e5cae6e41f499c66c65dc939069ffe1d9f9cfb5de833b2bcce52a0056913356be95ab78d8c9029599be68fb1959d4088b8eb807f0987bbb5a2fe89",
                    "indexes": {
                        "data": 2,
                        "gas": 0,
                        "value": 0
                    }
                },
                {
                    "hash": "f6a64c749ef8ac273a4f450ec227097d695b8b5203da7b78476705514355564d",
                    "logs": "1dcc4de8dec75d7aab85b567b6ccd41ad312451b948a7413f0a142fd40d49347",
                    "txbytes": "0xf885800a8404c4b40094cccccccccccccccccccccccccccccccccccccccc01a4693c613900000000000000000000000000000000000000000000000000000000000001031ba0880ce7b3bd0a3dfd9937b2490f8c4f7c2033714b54c6a83140b7d4cf12c34c34a01afb8e4533a87ab82bf53e46ac078d1ac9cb6f383db3c3f84e974e5ba1353462",
                    "indexes": {
                        "data": 3,
                        "gas": 0,
                        "value": 0
                    }
                },
                {
                    "hash": "2a6cf0b0b339641f9aa5fe2f7bea338a359043eefaf68a7e06b008b5ea0f080c",
                    "logs": "1dcc4de8dec75d7aab85b567b6ccd41ad312451b948a7413f0a142fd40d49347",
                    "txbytes": "0xf885800a8404c4b40094cccccccccccccccccccccccccccccccccccccccc01a4693c613900000000000000000000000000000000000000000000000000000000000001041ca065e228d51a1e60e5b70b74274c5f7f493035cb29912040034fd39f8a0b1e8bfea05b000262f1fde6bc066d0e358b95a982f43e65348e52dcad20c0ee989231fc61",
                    "indexes": {
                        "data": 4,
                        "gas": 0,
                        "value": 0
                    }
                },
                {
                    "hash": "c6ef36d98184a5bb2aea4a595f292611c4a869af4b7794fa6976bc0e44be7504",
                    "logs": "1dcc4de8dec75d7aab85b567b6ccd41ad312451b948a7413f0a142fd40d49347",
                    "txbytes": "0xf885800a8404c4b40094cccccccccccccccccccccccccccccccccccccccc01a4693c613900000000000000000000000000000000000000000000000000000000000001051ca0f50f89dfc4141870f6690386f45d1d7e3d8dca7d1dc26256087cbaf8e0019647a076ba09ab907a02572079996dfc798898d355c938b935259f07b49185842d16fd",
                    "indexes": {
                        "data": 5,
                        "gas": 0,
                        "value": 0
                    }
                },
                {
                    "hash": "8ec0e4b6a09534d58063e76040f8b8fae7ef3003d7baaad89437739f4cc0f76e",
                    "logs": "1dcc4de8dec75d7aab85b567b6ccd41ad312451b948a7413f0a142fd40d49347",
                    "txbytes": "0xf885800a8404c4b40094cccccccccccccccccccccccccccccccccccccccc01a4693c613900000000000000000000000000000000000000000000000000000000000001061ca0bcce2dfcf0ae849210908634e762654ca4d3f13be5b176781518680ac391a7c4a004096b7d7551342b8ed3121a2857da84218a4c51f2c53a367f4a8cb8bf6c1bcb",
                    "indexes": {
                        "data": 6,
                        "gas": 0,
                        "value": 0
                    }
                },
                {
                    "hash": "9f4171f40d8d5071cd7e67a054894d854be7ccacfd57cd2e2929e09490dfc969",
                    "logs": "1dcc4de8dec75d7aab85b567b6ccd41ad312451b948a7413f0a142fd40d49347",
                    "txbytes": "0xf885800a8404c4b40094cccccccccccccccccccccccccccccccccccccccc01a4693c613900000000000000000000000000000000000000000000000000000000000001071ba0ff46eb7db27788d275f979f0358ace31f1457a464dc6731fceea1b5c66fcaa56a07ce89256edeeebebc37c785561848be408e475fc837f7181e78f926ec2617ca8",
                    "indexes": {
                        "data": 7,
                        "gas": 0,
                        "value": 0
                    }
                },
                {
                    "hash": "ea292899070c8cd81f0d635b537cdf3140b01015f5d57f622282188ecafb598f",
                    "logs": "1dcc4de8dec75d7aab85b567b6ccd41ad312451b948a7413f0a142fd40d49347",
                    "txbytes": "0xf885800a8404c4b40094cccccccccccccccccccccccccccccccccccccccc01a4693c613900000000000000000000000000000000000000000000000000000000000001081ba0618b3bd5430018eaba6d269cb3e38f2101f443d6936845678c37a22b803d9efea0274d26ee5658d038dfd83f54ec3931cc704146946ea49d5fa831074b9f1df9c7",
                    "indexes": {
                        "data": 8,
                        "gas": 0,
                        "value": 0
                    }
                },
                {
                    "hash": "d32d056a5e3a49c23dca1ef7056564f51aa7a9b4b3990a715b75d3d754c82619",
                    "logs": "1dcc4de8dec75d7aab85b567b6ccd41ad312451b948a7413f0a142fd40d49347",
                    "txbytes": "0xf885800a8404c4b40094cccccccccccccccccccccccccccccccccccccccc01a4693c613900000000000000000000000000000000000000000000000000000000000001091ca04058dc73dad3db26df990e33fb046349a571b3821b1aa2486daf182d9cfc5a0ea04903423f437ea187af9d97d234d25785ddd6333439638a203fe2a2408f9148c1",
                    "indexes": {
                        "data": 9,
                        "gas": 0,
                        "value": 0
                    }
                },
                {
                    "hash": "b6cc5d86481e8bf6c98e94d3bb81bea724b6ba5aaa6e7e86100b69e9318fad8d",
                    "logs": "1dcc4de8dec75d7aab85b567b6ccd41ad312451b948a7413f0a142fd40d49347",
                    "txbytes": "0xf885800a8404c4b40094cccccccccccccccccccccccccccccccccccccccc01a4693c6139000000000000000000000000000000000000000000000000000000000000010a1ba00e2e8a59034532805f04add03ab31b2f1dec7c1ae9b0c1ed2089c490833a4a0ba0396fb0d38bf267117a302682e23f554703cf9f1bcd6cfdc22e59a729538743a5",
                    "indexes": {
                        "data": 10,
                        "gas": 0,
                        "value": 0
                    }
                },
                {
                    "hash": "7832de714554ad18926591ba026a3103b5207360d2b352297f5a469a4564c3f7",
                    "logs": "1dcc4de8dec75d7aab85b567b6ccd41ad312451b948a7413f0a142fd40d49347",
                    "txbytes": "0xf885800a8404c4b40094cccccccccccccccccccccccccccccccccccccccc01a4693c613900000000000000000000000000000000000000000000000000000000000002001ca036f76330467d5f9ce49d78f4d7504e47685989cb87c1f35f142af6eb5ab0bc23a01b0769271f7f694cc6a8d43fe14b8432e0c6228492a4a0cdaef079569f170e20",
                    "indexes": {
                        "data": 11,
                        "gas": 0,
                        "value": 0
                    }
                }
            ],
            "ETC_Phoenix": [
                {
                    "hash": "377e9aad3636720bcab34d8ae7fc1d249c8a687b4893bccb756f1706eb9e65b1",
                    "logs": "1dcc4de8dec75d7aab85b567b6ccd41ad312451b948a7413f0a142fd40d49347",
                    "txbytes": "0xf885800a8404c4b40094cccccccccccccccccccccccccccccccccccccccc01a4693c613900000000000000000000000000000000000000000000000000000000000001001ca0ebc6a836413596ba1ac62a71555ade81e42d09eab71d5de0e5775641519ffd6aa07f41824f46f475c442d28620f914388cf7a1f6e98ecfe8ae4656976facb09ef2",
                    "indexes": {
                        "data": 0,
                        "gas": 0,
                        "value": 0
                    }
                },
                {
                    "hash": "2fc9dbb9a1a540e22318f35b3830e4648405cc80b0a2bfba5a2492bd76d9aa46",
                    "logs": "1dcc4de8dec75d7aab85b567b6ccd41ad312451b948a7413f0a142fd40d49347",
                    "txbytes": "0xf885800a8404c4b40094cccccccccccccccccccccccccccccccccccccccc01a4693c613900000000000000000000000000000000000000000000000000000000000001011ca0ffd26504ab209214bb2e8624e3af346ab8f5a5426dee4ad391f4b14f8dcde5b5a002da13cf479f1c68710ed3fb235b46721807840beacdf41d96440019b5dd859b",
                    "indexes": {
                        "data": 1,
                        "gas": 0,
                        "value": 0
                    }
                },
                {
                    "hash": "9668f0d3297301de9fb25a64ab7e520546e1376a2916994b1d8d74009cbe69dc",
                    "logs": "1dcc4de8dec75d7aab85b567b6ccd41ad312451b948a7413f0a142fd40d49347",
                    "txbytes": "0xf885800a8404c4b40094cccccccccccccccccccccccccccccccccccccccc01a4693c613900000000000000000000000000000000000000000000000000000000000001021ca06e247bdafd46e5cae6e41f499c66c65dc939069ffe1d9f9cfb5de833b2bcce52a0056913356be95ab78d8c9029599be68fb1959d4088b8eb807f0987bbb5a2fe89",
                    "indexes": {
                        "data": 2,
                        "gas": 0,
                        "value": 0
                    }
                },
                {
                    "hash": "42115fecfbd9ced95f6fc56b4ad2f9ac6d05b80c684fb4c61ecb4f9d4d696488",
                    "logs": "1dcc4de8dec75d7aab85b567b6ccd41ad312451b948a7413f0a142fd40d49347",
                    "txbytes": "0xf885800a8404c4b40094cccccccccccccccccccccccccccccccccccccccc01a4693c613900000000000000000000000000000000000000000000000000000000000001031ba0880ce7b3bd0a3dfd9937b2490f8c4f7c2033714b54c6a83140b7d4cf12c34c34a01afb8e4533a87ab82bf53e46ac078d1ac9cb6f383db3c3f84e974e5ba1353462",
                    "indexes": {
                        "data": 3,
                        "gas": 0,
                        "value": 0
                    }
                },
                {
                    "hash": "145daa6d63215eda7f91876ed7398f9b261878f4cd692ea2b9f805e60fcd74a4",
                    "logs": "1dcc4de8dec75d7aab85b567b6ccd41ad312451b948a7413f0a142fd40d49347",
                    "txbytes": "0xf885800a8404c4b40094cccccccccccccccccccccccccccccccccccccccc01a4693c613900000000000000000000000000000000000000000000000000000000000001041ca065e228d51a1e60e5b70b74274c5f7f493035cb29912040034fd39f8a0b1e8bfea05b000262f1fde6bc066d0e358b95a982f43e65348e52dcad20c0ee989231fc61",
                    "indexes": {
                        "data": 4,
                        "gas": 0,
                        "value": 0
                    }
                },
                {
                    "hash": "409a5486d90bab0ef5e8260766cc1982a125b5e5c11beaa225f73630c0e4e86e",
                    "logs": "1dcc4de8dec75d7aab85b567b6ccd41ad312451b948a7413f0a142fd40d49347",
                    "txbytes": "0xf885800a8404c4b40094cccccccccccccccccccccccccccccccccccccccc01a4693c613900000000000000000000000000000000000000000000000000000000000001051ca0f50f89dfc4141870f6690386f45d1d7e3d8dca7d1dc26256087cbaf8e0019647a076ba09ab907a02572079996dfc798898d355c938b935259f07b49185842d16fd",
                    "indexes": {
                        "data": 5,
                        "gas": 0,
                        "value": 0
                    }
                },
                {
                    "hash": "5bbf629cdb86cdb8968410602d456d8b05e2730fe99dcc4357b7ff275f820fc4",
                    "logs": "1dcc4de8dec75d7aab85b567b6ccd41ad312451b948a7413f0a142fd40d49347",
                    "txbytes": "0xf885800a8404c4b40094cccccccccccccccccccccccccccccccccccccccc01a4693c613900000000000000000000000000000000000000000000000000000000000001061ca0bcce2dfcf0ae849210908634e762654ca4d3f13be5b176781518680ac391a7c4a004096b7d7551342b8ed3121a2857da84218a4c51f2c53a367f4a8cb8bf6c1bcb",
                    "indexes": {
                        "data": 6,
                        "gas": 0,
                        "value": 0
                    }
                },
                {
                    "hash": "bb6479d401febf22ea93615bc3d0618b7586aa866f0f23d38eac1ba65cd60c45",
                    "logs": "1dcc4de8dec75d7aab85b567b6ccd41ad312451b948a7413f0a142fd40d49347",
                    "txbytes": "0xf885800a8404c4b40094cccccccccccccccccccccccccccccccccccccccc01a4693c613900000000000000000000000000000000000000000000000000000000000001071ba0ff46eb7db27788d275f979f0358ace31f1457a464dc6731fceea1b5c66fcaa56a07ce89256edeeebebc37c785561848be408e475fc837f7181e78f926ec2617ca8",
                    "indexes": {
                        "data": 7,
                        "gas": 0,
                        "value": 0
                    }
                },
                {
                    "hash": "c1e5bf1c12f0b71a2eeecd0042aa67af1cad8f0dc3a9b1a55217e852eae7bbf2",
                    "logs": "1dcc4de8dec75d7aab85b567b6ccd41ad312451b948a7413f0a142fd40d49347",
                    "txbytes": "0xf885800a8404c4b40094cccccccccccccccccccccccccccccccccccccccc01a4693c613900000000000000000000000000000000000000000000000000000000000001081ba0618b3bd5430018eaba6d269cb3e38f2101f443d6936845678c37a22b803d9efea0274d26ee5658d038dfd83f54ec3931cc704146946ea49d5fa831074b9f1df9c7",
                    "indexes": {
                        "data": 8,
                        "gas": 0,
                        "value": 0
                    }
                },
                {
                    "hash": "c0e60566c30f331ab657273f53a497a9348632056bb102fdf92b62a25ede8ae8",
                    "logs": "1dcc4de8dec75d7aab85b567b6ccd41ad312451b948a7413f0a142fd40d49347",
                    "txbytes": "0xf885800a8404c4b40094cccccccccccccccccccccccccccccccccccccccc01a4693c613900000000000000000000000000000000000000000000000000000000000001091ca04058dc73dad3db26df990e33fb046349a571b3821b1aa2486daf182d9cfc5a0ea04903423f437ea187af9d97d234d25785ddd6333439638a203fe2a2408f9148c1",
                    "indexes": {
                        "data": 9,
                        "gas": 0,
                        "value": 0
                    }
                },
                {
                    "hash": "47e981f4016050e66b6c9a410c0ff0348fde837b832d0698645ccaae61a67faa",
                    "logs": "1dcc4de8dec75d7aab85b567b6ccd41ad312451b948a7413f0a142fd40d49347",
                    "txbytes": "0xf885800a8404c4b40094cccccccccccccccccccccccccccccccccccccccc01a4693c6139000000000000000000000000000000000000000000000000000000000000010a1ba00e2e8a59034532805f04add03ab31b2f1dec7c1ae9b0c1ed2089c490833a4a0ba0396fb0d38bf267117a302682e23f554703cf9f1bcd6cfdc22e59a729538743a5",
                    "indexes": {
                        "data": 10,
                        "gas": 0,
                        "value": 0
                    }
                },
                {
                    "hash": "ead5346765f797c1673fc975553c4aa037ec39d389b7e39f548f0f6509e618c0",
                    "logs": "1dcc4de8dec75d7aab85b567b6ccd41ad312451b948a7413f0a142fd40d49347",
                    "txbytes": "0xf885800a8404c4b40094cccccccccccccccccccccccccccccccccccccccc01a4693c613900000000000000000000000000000000000000000000000000000000000002001ca036f76330467d5f9ce49d78f4d7504e47685989cb87c1f35f142af6eb5ab0bc23a01b0769271f7f694cc6a8d43fe14b8432e0c6228492a4a0cdaef079569f170e20",
                    "indexes": {
                        "data": 11,
                        "gas": 0,
                        "value": 0
                    }
                }
            ]
        }
    }
}