{
    "gt": {
        "_info": {
            "comment": "Ori Pomerantz qbzzt1@gmail.com",
            "filling-rpc-server": "evm version 1.10.16-unstable-0f893109-20220105",
            "filling-tool-version": "retesteth-0.2.2-testinfo+commit.01c6aac2.Linux.g++",
            "filledWith": "CoreGeth-1.12.9-unstable-d64998ce9b05f4f41b35740c69c4b402e41a3105",
            "lllcversion": "Version: 0.5.14-develop.2021.11.27+commit.401d5358.Linux.g++",
            "source": "src/GeneralStateTestsFiller/VMTests/vmBitwiseLogicOperation/gtFiller.yml",
            "sourceHash": "e594fc989cd039fd6f1fbe1e90a6a023e21bd7201dd502f80fe9a0320431dc8f",
            "labels": {
                "0": "gt_neg2_0",
                "1": "gt_0_neg2",
                "2": "gt_neg1_0",
                "3": "gt_0_neg1"
            }
        },
        "env": {
            "currentCoinbase": "0x2adc25665018aa1fe0e6bc666dac8fc2697ff9ba",
            "currentDifficulty": "0x20000",
            "currentGasLimit": "0x5f5e100",
            "currentNumber": "0x1",
            "currentTimestamp": "0x3e8",
            "previousHash": "0x5e20a0453cecd065ea59c37ac63e079ee08998b6045136a8ce6635c7912ec0b6"
        },
        "pre": {
            "0x0000000000000000000000000000000000000100": {
                "code": "0x600060026000031160005500",
                "balance": "0xba1a9ce0ba1a9ce"
            },
            "0x0000000000000000000000000000000000000101": {
                "code": "0x600260000360001160005500",
                "balance": "0xba1a9ce0ba1a9ce"
            },
            "0x0000000000000000000000000000000000000102": {
                "code": "0x60007fffffffffffffffffffffffffffffffffffffffffffffffffffffffffffffffff1160005500",
                "balance": "0xba1a9ce0ba1a9ce"
            },
            "0x0000000000000000000000000000000000000103": {
                "code": "0x7fffffffffffffffffffffffffffffffffffffffffffffffffffffffffffffffff60001160005500",
                "balance": "0xba1a9ce0ba1a9ce"
            },
            "0xa94f5374fce5edbc8e2a8697c15331677e6ebf0b": {
                "balance": "0xba1a9ce0ba1a9ce"
            },
            "0xcccccccccccccccccccccccccccccccccccccccc": {
                "code": "0x600060006000600060006004356101000162fffffff100",
                "balance": "0xba1a9ce0ba1a9ce"
            }
        },
        "transaction": {
            "gasPrice": "0xa",
            "nonce": "0x0",
            "to": "0xcccccccccccccccccccccccccccccccccccccccc",
            "data": [
                "0x693c61390000000000000000000000000000000000000000000000000000000000000000",
                "0x693c61390000000000000000000000000000000000000000000000000000000000000001",
                "0x693c61390000000000000000000000000000000000000000000000000000000000000002",
                "0x693c61390000000000000000000000000000000000000000000000000000000000000003"
            ],
            "gasLimit": [
                "0x4c4b400"
            ],
            "value": [
                "0x01"
            ],
            "secretKey": "0x45a915e4d060149eb4365960e6a7a45f334393093061116b197e3240065ff2d8",
            "sender": "0xa94f5374fce5edbc8e2a8697c15331677e6ebf0b"
        },
        "post": {
            "ETC_Magneto": [
                {
                    "hash": "06324756549caf7ab6456f1aba721b8d16942336b34ca0207f83e66b6dcc3bc2",
                    "logs": "1dcc4de8dec75d7aab85b567b6ccd41ad312451b948a7413f0a142fd40d49347",
                    "txbytes": "0xf885800a8404c4b40094cccccccccccccccccccccccccccccccccccccccc01a4693c613900000000000000000000000000000000000000000000000000000000000000001ba0e8ff56322287185f6afd3422a825b47bf5c1a4ccf0dc0389cdc03f7c1c32b7eaa0776b02f9f5773238d3ff36b74a123f409cd6420908d7855bbe4c8ff63e00d698",
                    "indexes": {
                        "data": 0,
                        "gas": 0,
                        "value": 0
                    }
                },
                {
                    "hash": "845555df057bb69e8d3eab1bcdd4437a71505baf4c5ba16081f9926e652cdc12",
                    "logs": "1dcc4de8dec75d7aab85b567b6ccd41ad312451b948a7413f0a142fd40d49347",
                    "txbytes": "0xf885800a8404c4b40094cccccccccccccccccccccccccccccccccccccccc01a4693c613900000000000000000000000000000000000000000000000000000000000000011ba02c5e81a024dd0f6fb773c8787fa46ab5eb55cb73df83562e6ddbe9106a3df7f6a029437b9a23e45bbfce086f2ddaa98b1e9e6914d7e58e2c5a128310042b332f89",
                    "indexes": {
                        "data": 1,
                        "gas": 0,
                        "value": 0
                    }
                },
                {
                    "hash": "bf7a6859ffcdf6a33264b4f1c6bb8036505cea5ebbce0581a2813ff37a7193f1",
                    "logs": "1dcc4de8dec75d7aab85b567b6ccd41ad312451b948a7413f0a142fd40d49347",
                    "txbytes": "0xf885800a8404c4b40094cccccccccccccccccccccccccccccccccccccccc01a4693c613900000000000000000000000000000000000000000000000000000000000000021ba0fc37ad4eb0633eb18f2b7867bacbe994a2ffcbb04a71e394e6e76041f6ce216fa03b1b415a5c386d8de9e16be9fdc188234b80a0dec99922d03c240f2e463053e3",
                    "indexes": {
                        "data": 2,
                        "gas": 0,
                        "value": 0
                    }
                },
                {
                    "hash": "e71490b323b1b11527c8db1d05ef4705939060c83d83ac82a44077add831a11e",
                    "logs": "1dcc4de8dec75d7aab85b567b6ccd41ad312451b948a7413f0a142fd40d49347",
                    "txbytes": "0xf885800a8404c4b40094cccccccccccccccccccccccccccccccccccccccc01a4693c613900000000000000000000000000000000000000000000000000000000000000031ba0f06eb219c5dba98711a9a2678339f64d172bfac289a5c43a0018d3917be8dc2aa0147bd7a6ee30217e63cbddc28b0e72f115da754d8916b87992aa27ed00eb105e",
                    "indexes": {
                        "data": 3,
                        "gas": 0,
                        "value": 0
                    }
                }
            ],
            "ETC_Mystique": [
                {
                    "hash": "06324756549caf7ab6456f1aba721b8d16942336b34ca0207f83e66b6dcc3bc2",
                    "logs": "1dcc4de8dec75d7aab85b567b6ccd41ad312451b948a7413f0a142fd40d49347",
                    "txbytes": "0xf885800a8404c4b40094cccccccccccccccccccccccccccccccccccccccc01a4693c613900000000000000000000000000000000000000000000000000000000000000001ba0e8ff56322287185f6afd3422a825b47bf5c1a4ccf0dc0389cdc03f7c1c32b7eaa0776b02f9f5773238d3ff36b74a123f409cd6420908d7855bbe4c8ff63e00d698",
                    "indexes": {
                        "data": 0,
                        "gas": 0,
                        "value": 0
                    }
                },
                {
                    "hash": "845555df057bb69e8d3eab1bcdd4437a71505baf4c5ba16081f9926e652cdc12",
                    "logs": "1dcc4de8dec75d7aab85b567b6ccd41ad312451b948a7413f0a142fd40d49347",
                    "txbytes": "0xf885800a8404c4b40094cccccccccccccccccccccccccccccccccccccccc01a4693c613900000000000000000000000000000000000000000000000000000000000000011ba02c5e81a024dd0f6fb773c8787fa46ab5eb55cb73df83562e6ddbe9106a3df7f6a029437b9a23e45bbfce086f2ddaa98b1e9e6914d7e58e2c5a128310042b332f89",
                    "indexes": {
                        "data": 1,
                        "gas": 0,
                        "value": 0
                    }
                },
                {
                    "hash": "bf7a6859ffcdf6a33264b4f1c6bb8036505cea5ebbce0581a2813ff37a7193f1",
                    "logs": "1dcc4de8dec75d7aab85b567b6ccd41ad312451b948a7413f0a142fd40d49347",
                    "txbytes": "0xf885800a8404c4b40094cccccccccccccccccccccccccccccccccccccccc01a4693c613900000000000000000000000000000000000000000000000000000000000000021ba0fc37ad4eb0633eb18f2b7867bacbe994a2ffcbb04a71e394e6e76041f6ce216fa03b1b415a5c386d8de9e16be9fdc188234b80a0dec99922d03c240f2e463053e3",
                    "indexes": {
                        "data": 2,
                        "gas": 0,
                        "value": 0
                    }
                },
                {
                    "hash": "e71490b323b1b11527c8db1d05ef4705939060c83d83ac82a44077add831a11e",
                    "logs": "1dcc4de8dec75d7aab85b567b6ccd41ad312451b948a7413f0a142fd40d49347",
                    "txbytes": "0xf885800a8404c4b40094cccccccccccccccccccccccccccccccccccccccc01a4693c613900000000000000000000000000000000000000000000000000000000000000031ba0f06eb219c5dba98711a9a2678339f64d172bfac289a5c43a0018d3917be8dc2aa0147bd7a6ee30217e63cbddc28b0e72f115da754d8916b87992aa27ed00eb105e",
                    "indexes": {
                        "data": 3,
                        "gas": 0,
                        "value": 0
                    }
                }
            ],
            "ETC_Phoenix": [
                {
                    "hash": "841ee56eda8c1f21bb1e3f3adc77a76775bdd3c060ea0ad7747fb722de8cacc6",
                    "logs": "1dcc4de8dec75d7aab85b567b6ccd41ad312451b948a7413f0a142fd40d49347",
                    "txbytes": "0xf885800a8404c4b40094cccccccccccccccccccccccccccccccccccccccc01a4693c613900000000000000000000000000000000000000000000000000000000000000001ba0e8ff56322287185f6afd3422a825b47bf5c1a4ccf0dc0389cdc03f7c1c32b7eaa0776b02f9f5773238d3ff36b74a123f409cd6420908d7855bbe4c8ff63e00d698",
                    "indexes": {
                        "data": 0,
                        "gas": 0,
                        "value": 0
                    }
                },
                {
                    "hash": "b35bfb68067c3780b8f736fb997cb1f2c0974e1999d4a41c52a711d0bd102d3e",
                    "logs": "1dcc4de8dec75d7aab85b567b6ccd41ad312451b948a7413f0a142fd40d49347",
                    "txbytes": "0xf885800a8404c4b40094cccccccccccccccccccccccccccccccccccccccc01a4693c613900000000000000000000000000000000000000000000000000000000000000011ba02c5e81a024dd0f6fb773c8787fa46ab5eb55cb73df83562e6ddbe9106a3df7f6a029437b9a23e45bbfce086f2ddaa98b1e9e6914d7e58e2c5a128310042b332f89",
                    "indexes": {
                        "data": 1,
                        "gas": 0,
                        "value": 0
                    }
                },
                {
                    "hash": "2b3b274c173ccafcebb42095cfb0054b60b806b6fe9aed8a17580c737ca14f1f",
                    "logs": "1dcc4de8dec75d7aab85b567b6ccd41ad312451b948a7413f0a142fd40d49347",
                    "txbytes": "0xf885800a8404c4b40094cccccccccccccccccccccccccccccccccccccccc01a4693c613900000000000000000000000000000000000000000000000000000000000000021ba0fc37ad4eb0633eb18f2b7867bacbe994a2ffcbb04a71e394e6e76041f6ce216fa03b1b415a5c386d8de9e16be9fdc188234b80a0dec99922d03c240f2e463053e3",
                    "indexes": {
                        "data": 2,
                        "gas": 0,
                        "value": 0
                    }
                },
                {
                    "hash": "45dfafa290f678ca4792f0852351c459d16f9f3801647dc106f3843967be024a",
                    "logs": "1dcc4de8dec75d7aab85b567b6ccd41ad312451b948a7413f0a142fd40d49347",
                    "txbytes": "0xf885800a8404c4b40094cccccccccccccccccccccccccccccccccccccccc01a4693c613900000000000000000000000000000000000000000000000000000000000000031ba0f06eb219c5dba98711a9a2678339f64d172bfac289a5c43a0018d3917be8dc2aa0147bd7a6ee30217e63cbddc28b0e72f115da754d8916b87992aa27ed00eb105e",
                    "indexes": {
                        "data": 3,
                        "gas": 0,
                        "value": 0
                    }
                }
            ]
        }
    }
}