{
    "swap": {
        "_info": {
            "comment": "Ori Pomerantz qbzzt1@gmail.com",
            "filling-rpc-server": "evm version 1.10.16-unstable-0f893109-20220105",
            "filling-tool-version": "retesteth-0.2.2-testinfo+commit.01c6aac2.Linux.g++",
            "filledWith": "CoreGeth-1.12.9-unstable-ab16c56768f0284ab56a30aac9550d3ebdc45901",
            "lllcversion": "Version: 0.5.14-develop.2021.11.27+commit.401d5358.Linux.g++",
            "source": "src/GeneralStateTestsFiller/VMTests/vmTests/swapFiller.yml",
            "sourceHash": "56538920c88dd35a20be53cb2a01530b9ac759dfd4ca290993e6f4ea7685ed6d",
            "labels": {
                "0": "swap1",
                "1": "swap2",
                "10": "swap11",
                "11": "swap12",
                "12": "swap13",
                "13": "swap14",
                "14": "swap15",
                "15": "swap16",
                "2": "swap3",
                "3": "swap4",
                "4": "swap5",
                "5": "swap6",
                "6": "swap7",
                "7": "swap8",
                "8": "swap9",
                "9": "swap10"
            }
        },
        "env": {
            "currentCoinbase": "0x2adc25665018aa1fe0e6bc666dac8fc2697ff9ba",
            "currentDifficulty": "0x20000",
            "currentGasLimit": "0x5f5e100",
            "currentNumber": "0x1",
            "currentTimestamp": "0x3e8",
            "currentBaseFee": "0xa",
            "previousHash": "0x5e20a0453cecd065ea59c37ac63e079ee08998b6045136a8ce6635c7912ec0b6"
        },
        "pre": {
            "0x0000000000000000000000000000000000000100": {
                "code": "0x6000600160026003600460056006600760086009600a600b600c600d600e600f601090600055600155600255600355600455600555600655600755600855600955600a55600b55600c55600d55600e55600f55",
                "balance": "0xba1a9ce0ba1a9ce"
            },
            "0x0000000000000000000000000000000000000101": {
                "code": "0x6000600160026003600460056006600760086009600a600b600c600d600e600f601091600055600155600255600355600455600555600655600755600855600955600a55600b55600c55600d55600e55600f55",
                "balance": "0xba1a9ce0ba1a9ce"
            },
            "0x0000000000000000000000000000000000000102": {
                "code": "0x6000600160026003600460056006600760086009600a600b600c600d600e600f601092600055600155600255600355600455600555600655600755600855600955600a55600b55600c55600d55600e55600f55",
                "balance": "0xba1a9ce0ba1a9ce"
            },
            "0x0000000000000000000000000000000000000103": {
                "code": "0x6000600160026003600460056006600760086009600a600b600c600d600e600f601093600055600155600255600355600455600555600655600755600855600955600a55600b55600c55600d55600e55600f55",
                "balance": "0xba1a9ce0ba1a9ce"
            },
            "0x0000000000000000000000000000000000000104": {
                "code": "0x6000600160026003600460056006600760086009600a600b600c600d600e600f601094600055600155600255600355600455600555600655600755600855600955600a55600b55600c55600d55600e55600f55",
                "balance": "0xba1a9ce0ba1a9ce"
            },
            "0x0000000000000000000000000000000000000105": {
                "code": "0x6000600160026003600460056006600760086009600a600b600c600d600e600f601095600055600155600255600355600455600555600655600755600855600955600a55600b55600c55600d55600e55600f55",
                "balance": "0xba1a9ce0ba1a9ce"
            },
            "0x0000000000000000000000000000000000000106": {
                "code": "0x6000600160026003600460056006600760086009600a600b600c600d600e600f601096600055600155600255600355600455600555600655600755600855600955600a55600b55600c55600d55600e55600f55",
                "balance": "0xba1a9ce0ba1a9ce"
            },
            "0x0000000000000000000000000000000000000107": {
                "code": "0x6000600160026003600460056006600760086009600a600b600c600d600e600f601097600055600155600255600355600455600555600655600755600855600955600a55600b55600c55600d55600e55600f55",
                "balance": "0xba1a9ce0ba1a9ce"
            },
            "0x0000000000000000000000000000000000000108": {
                "code": "0x6000600160026003600460056006600760086009600a600b600c600d600e600f601098600055600155600255600355600455600555600655600755600855600955600a55600b55600c55600d55600e55600f55",
                "balance": "0xba1a9ce0ba1a9ce"
            },
            "0x0000000000000000000000000000000000000109": {
                "code": "0x6000600160026003600460056006600760086009600a600b600c600d600e600f601099600055600155600255600355600455600555600655600755600855600955600a55600b55600c55600d55600e55600f55",
                "balance": "0xba1a9ce0ba1a9ce"
            },
            "0x000000000000000000000000000000000000010a": {
                "code": "0x6000600160026003600460056006600760086009600a600b600c600d600e600f60109a600055600155600255600355600455600555600655600755600855600955600a55600b55600c55600d55600e55600f55",
                "balance": "0xba1a9ce0ba1a9ce"
            },
            "0x000000000000000000000000000000000000010b": {
                "code": "0x6000600160026003600460056006600760086009600a600b600c600d600e600f60109b600055600155600255600355600455600555600655600755600855600955600a55600b55600c55600d55600e55600f55",
                "balance": "0xba1a9ce0ba1a9ce"
            },
            "0x000000000000000000000000000000000000010c": {
                "code": "0x6000600160026003600460056006600760086009600a600b600c600d600e600f60109c600055600155600255600355600455600555600655600755600855600955600a55600b55600c55600d55600e55600f55",
                "balance": "0xba1a9ce0ba1a9ce"
            },
            "0x000000000000000000000000000000000000010d": {
                "code": "0x6000600160026003600460056006600760086009600a600b600c600d600e600f60109d600055600155600255600355600455600555600655600755600855600955600a55600b55600c55600d55600e55600f55",
                "balance": "0xba1a9ce0ba1a9ce"
            },
            "0x000000000000000000000000000000000000010e": {
                "code": "0x6000600160026003600460056006600760086009600a600b600c600d600e600f60109e600055600155600255600355600455600555600655600755600855600955600a55600b55600c55600d55600e55600f55",
                "balance": "0xba1a9ce0ba1a9ce"
            },
            "0x000000000000000000000000000000000000010f": {
                "code": "0x6000600160026003600460056006600760086009600a600b600c600d600e600f60109f600055600155600255600355600455600555600655600755600855600955600a55600b55600c55600d55600e55600f55",
                "balance": "0xba1a9ce0ba1a9ce"
            },
            "0xa94f5374fce5edbc8e2a8697c15331677e6ebf0b": {
                "balance": "0x100000000000"
            },
            "0xcccccccccccccccccccccccccccccccccccccccc": {
                "code": "0x60006000600060006000600435610100015af100",
                "balance": "0xba1a9ce0ba1a9ce"
            }
        },
        "transaction": {
            "gasPrice": "0xa",
            "nonce": "0x0",
            "to": "0xcccccccccccccccccccccccccccccccccccccccc",
            "data": [
                "0x693c61390000000000000000000000000000000000000000000000000000000000000000",
                "0x693c61390000000000000000000000000000000000000000000000000000000000000001",
                "0x693c61390000000000000000000000000000000000000000000000000000000000000002",
                "0x693c61390000000000000000000000000000000000000000000000000000000000000003",
                "0x693c61390000000000000000000000000000000000000000000000000000000000000004",
                "0x693c61390000000000000000000000000000000000000000000000000000000000000005",
                "0x693c61390000000000000000000000000000000000000000000000000000000000000006",
                "0x693c61390000000000000000000000000000000000000000000000000000000000000007",
                "0x693c61390000000000000000000000000000000000000000000000000000000000000008",
                "0x693c61390000000000000000000000000000000000000000000000000000000000000009",
                "0x693c6139000000000000000000000000000000000000000000000000000000000000000a",
                "0x693c6139000000000000000000000000000000000000000000000000000000000000000b",
                "0x693c6139000000000000000000000000000000000000000000000000000000000000000c",
                "0x693c6139000000000000000000000000000000000000000000000000000000000000000d",
                "0x693c6139000000000000000000000000000000000000000000000000000000000000000e",
                "0x693c6139000000000000000000000000000000000000000000000000000000000000000f"
            ],
            "gasLimit": [
                "0x4c4b400"
            ],
            "value": [
                "0x01"
            ],
            "secretKey": "0x45a915e4d060149eb4365960e6a7a45f334393093061116b197e3240065ff2d8",
            "sender": "0xa94f5374fce5edbc8e2a8697c15331677e6ebf0b"
        },
        "post": {
            "ETC_Magneto": [
                {
                    "hash": "a8746f750406f035411e82bcbe2951f11547c80df6e4bf5f86055642de0ca323",
                    "logs": "1dcc4de8dec75d7aab85b567b6ccd41ad312451b948a7413f0a142fd40d49347",
                    "txbytes": "0xf885800a8404c4b40094cccccccccccccccccccccccccccccccccccccccc01a4693c613900000000000000000000000000000000000000000000000000000000000000001ba0e8ff56322287185f6afd3422a825b47bf5c1a4ccf0dc0389cdc03f7c1c32b7eaa0776b02f9f5773238d3ff36b74a123f409cd6420908d7855bbe4c8ff63e00d698",
                    "indexes": {
                        "data": 0,
                        "gas": 0,
                        "value": 0
                    }
                },
                {
                    "hash": "3560e0ef3cbfb3a879214cbc4d2a407c068afdd44a75ccffab122fc1cc47fa05",
                    "logs": "1dcc4de8dec75d7aab85b567b6ccd41ad312451b948a7413f0a142fd40d49347",
                    "txbytes": "0xf885800a8404c4b40094cccccccccccccccccccccccccccccccccccccccc01a4693c613900000000000000000000000000000000000000000000000000000000000000011ba02c5e81a024dd0f6fb773c8787fa46ab5eb55cb73df83562e6ddbe9106a3df7f6a029437b9a23e45bbfce086f2ddaa98b1e9e6914d7e58e2c5a128310042b332f89",
                    "indexes": {
                        "data": 1,
                        "gas": 0,
                        "value": 0
                    }
                },
                {
                    "hash": "4508855a1d688f6b4d182a898b4695db29b45435ff3b98316af1dfd47137cf03",
                    "logs": "1dcc4de8dec75d7aab85b567b6ccd41ad312451b948a7413f0a142fd40d49347",
                    "txbytes": "0xf885800a8404c4b40094cccccccccccccccccccccccccccccccccccccccc01a4693c613900000000000000000000000000000000000000000000000000000000000000021ba0fc37ad4eb0633eb18f2b7867bacbe994a2ffcbb04a71e394e6e76041f6ce216fa03b1b415a5c386d8de9e16be9fdc188234b80a0dec99922d03c240f2e463053e3",
                    "indexes": {
                        "data": 2,
                        "gas": 0,
                        "value": 0
                    }
                },
                {
                    "hash": "7ea80676b0ae0c0c432ea62d3743f217ab11908e7a433f31fea729c348c56f6c",
                    "logs": "1dcc4de8dec75d7aab85b567b6ccd41ad312451b948a7413f0a142fd40d49347",
                    "txbytes": "0xf885800a8404c4b40094cccccccccccccccccccccccccccccccccccccccc01a4693c613900000000000000000000000000000000000000000000000000000000000000031ba0f06eb219c5dba98711a9a2678339f64d172bfac289a5c43a0018d3917be8dc2aa0147bd7a6ee30217e63cbddc28b0e72f115da754d8916b87992aa27ed00eb105e",
                    "indexes": {
                        "data": 3,
                        "gas": 0,
                        "value": 0
                    }
                },
                {
                    "hash": "972dd1692fe269f65478c76fe3c17f33853be83051ac4f73c620296bef624d9b",
                    "logs": "1dcc4de8dec75d7aab85b567b6ccd41ad312451b948a7413f0a142fd40d49347",
                    "txbytes": "0xf885800a8404c4b40094cccccccccccccccccccccccccccccccccccccccc01a4693c613900000000000000000000000000000000000000000000000000000000000000041ba0c148a101aa54703ff0e949441bdba90b1972a16c338f7f9a24b07f0313cd49d6a028cb82229b8a57e2048761d6fa5060c5b459f000d4e218de1372c1df9cfa171e",
                    "indexes": {
                        "data": 4,
                        "gas": 0,
                        "value": 0
                    }
                },
                {
                    "hash": "1618587e5bc04c999549394d6ce69edd7d1625d1289600cf1c762073c9c0c46a",
                    "logs": "1dcc4de8dec75d7aab85b567b6ccd41ad312451b948a7413f0a142fd40d49347",
                    "txbytes": "0xf885800a8404c4b40094cccccccccccccccccccccccccccccccccccccccc01a4693c613900000000000000000000000000000000000000000000000000000000000000051ca09a1ce3fdc8469be9bbe660a07c169cf5b6b70fe408cc1395057bbd4cdc2c8557a0560e8c0503c4364efd017933749f22e1d9ad4eff4580d5463df54b9bff8dca31",
                    "indexes": {
                        "data": 5,
                        "gas": 0,
                        "value": 0
                    }
                },
                {
                    "hash": "73a88b098bdc36b289eeebfd453ffc3b9496b8344f6f55b4927dfb36e12a2907",
                    "logs": "1dcc4de8dec75d7aab85b567b6ccd41ad312451b948a7413f0a142fd40d49347",
                    "txbytes": "0xf885800a8404c4b40094cccccccccccccccccccccccccccccccccccccccc01a4693c613900000000000000000000000000000000000000000000000000000000000000061ca04f7114759d69db050a87677a2dff3d6f9399f0b66da593b2cc50748708377f6fa042f32766ce38ec3cee0d2c2dbc4d14b9cbf94e4af75b0584a04c933457bb83bb",
                    "indexes": {
                        "data": 6,
                        "gas": 0,
                        "value": 0
                    }
                },
                {
                    "hash": "fb56409e830a99c00e4bdffc47de5dea07353a4bb08fd7ad052ceb15619ec55f",
                    "logs": "1dcc4de8dec75d7aab85b567b6ccd41ad312451b948a7413f0a142fd40d49347",
                    "txbytes": "0xf885800a8404c4b40094cccccccccccccccccccccccccccccccccccccccc01a4693c613900000000000000000000000000000000000000000000000000000000000000071ba0e77cc0b2a4af0e43bc5732d6747afb3ddcf781f7277650aeef15b9caba68c91aa04af80af420b77c3f4ad457f1c6535be5d46993e2c8987250d28d088b3a11bb4a",
                    "indexes": {
                        "data": 7,
                        "gas": 0,
                        "value": 0
                    }
                },
                {
                    "hash": "a6adba47438f5e61aaf64ef4d1be9d7aa6b0d1c0ff3a0d81a1e3ed0ab6e9b1fa",
                    "logs": "1dcc4de8dec75d7aab85b567b6ccd41ad312451b948a7413f0a142fd40d49347",
                    "txbytes": "0xf884800a8404c4b40094cccccccccccccccccccccccccccccccccccccccc01a4693c613900000000000000000000000000000000000000000000000000000000000000081ca057f87767c304f58d8c351529457f9fbe53d04ba7f9f0ae7f2bac7a2d6dc59bc09fd8de811557a1287c01a1e09edeb750adba79cef13ebeb951d030ff29e63f39",
                    "indexes": {
                        "data": 8,
                        "gas": 0,
                        "value": 0
                    }
                },
                {
                    "hash": "ae33a919dfcf2e917d6758a1ea424191899b200979e576dfa1c6af33bfb7e3a5",
                    "logs": "1dcc4de8dec75d7aab85b567b6ccd41ad312451b948a7413f0a142fd40d49347",
                    "txbytes": "0xf885800a8404c4b40094cccccccccccccccccccccccccccccccccccccccc01a4693c613900000000000000000000000000000000000000000000000000000000000000091ba09cffdf14ebc27c6c36a8cc9e679e32251165b52fb39e7ccc52cbc42f7157c301a032f0bebe1ae01ef86e26c0194bc26e9ed9e6bb7dad277927a92def3d0badbe74",
                    "indexes": {
                        "data": 9,
                        "gas": 0,
                        "value": 0
                    }
                },
                {
                    "hash": "0a8ca7c2a1b40850a4f79e6b28131d1d49ddcb3754a2d1773d4e95955105469d",
                    "logs": "1dcc4de8dec75d7aab85b567b6ccd41ad312451b948a7413f0a142fd40d49347",
                    "txbytes": "0xf885800a8404c4b40094cccccccccccccccccccccccccccccccccccccccc01a4693c6139000000000000000000000000000000000000000000000000000000000000000a1ca0a1b03cd747783811efe72b24c5681a14f13ddc2a54b346efc81da94b8a6d82aaa04b794a29cf9f0433518c93172d3b2d7cd77315c278ec2220c80fa4448481a8a6",
                    "indexes": {
                        "data": 10,
                        "gas": 0,
                        "value": 0
                    }
                },
                {
                    "hash": "55ef4ffd5bb5516da1e0b9397bc7f6e3419e797b0afb5c592fad21c2d90cdeab",
                    "logs": "1dcc4de8dec75d7aab85b567b6ccd41ad312451b948a7413f0a142fd40d49347",
                    "txbytes": "0xf885800a8404c4b40094cccccccccccccccccccccccccccccccccccccccc01a4693c6139000000000000000000000000000000000000000000000000000000000000000b1ca0c966b1649b82df31630735542a36cd21a0c8ccca99661e9daf19e24b5cd0b4d5a0297ca7c15e08b09a84dfdaee72deecc74b852df21c2b1cce63e4e3638c680015",
                    "indexes": {
                        "data": 11,
                        "gas": 0,
                        "value": 0
                    }
                },
                {
                    "hash": "f522c07dcce598a5d3e978fb71106d5bfc5b0a02d4aa72f17d973204c2c482a2",
                    "logs": "1dcc4de8dec75d7aab85b567b6ccd41ad312451b948a7413f0a142fd40d49347",
                    "txbytes": "0xf885800a8404c4b40094cccccccccccccccccccccccccccccccccccccccc01a4693c6139000000000000000000000000000000000000000000000000000000000000000c1ca0e7c9b0d9792ea976c6e21b9ac03fec15a7a57ede02dd4d5d75bdaea8019be119a03b4dd5fbca89a77591d755174fb98c746ed2856efaa679866bb9591c16fd1ca2",
                    "indexes": {
                        "data": 12,
                        "gas": 0,
                        "value": 0
                    }
                },
                {
                    "hash": "1e992fd42c7c1b88405a1da7175f2d8d1c34464d8ae4e97b89ee9d64322e82de",
                    "logs": "1dcc4de8dec75d7aab85b567b6ccd41ad312451b948a7413f0a142fd40d49347",
                    "txbytes": "0xf885800a8404c4b40094cccccccccccccccccccccccccccccccccccccccc01a4693c6139000000000000000000000000000000000000000000000000000000000000000d1ca01691906b205874203c9abd32dd85c221936c1c63bf7231148e3846ce4b776a23a07496ef32b0a1259d037431119f19ceca327e9a7318eec4d71f1dbb8a878dc2f5",
                    "indexes": {
                        "data": 13,
                        "gas": 0,
                        "value": 0
                    }
                },
                {
                    "hash": "a5f22de544f402895f0a8203faed827170512245dfa0343ee47af461f5fdd2d5",
                    "logs": "1dcc4de8dec75d7aab85b567b6ccd41ad312451b948a7413f0a142fd40d49347",
                    "txbytes": "0xf885800a8404c4b40094cccccccccccccccccccccccccccccccccccccccc01a4693c6139000000000000000000000000000000000000000000000000000000000000000e1ca038eda85bee73907a8eca42c2425bd9c1c0cc7eb377305a1d12135cc442cc2595a01163d3c3c904542c96588d1a134242818a982a8ed0e28be50b5d74f89968ed6b",
                    "indexes": {
                        "data": 14,
                        "gas": 0,
                        "value": 0
                    }
                },
                {
                    "hash": "ae90e8257027039a5e3853586244cf24303276c84fa5f215cef33874297d3f8f",
                    "logs": "1dcc4de8dec75d7aab85b567b6ccd41ad312451b948a7413f0a142fd40d49347",
                    "txbytes": "0xf885800a8404c4b40094cccccccccccccccccccccccccccccccccccccccc01a4693c6139000000000000000000000000000000000000000000000000000000000000000f1ba0651a47e0c9ecbc6ea2c076f38a80e16d51db98bfba82c0fccc5ba4a09d5dd5aea006572dccf26b21afd25f5f58bf2f23fd0242c0774f44785976b7a9e1ff5c194f",
                    "indexes": {
                        "data": 15,
                        "gas": 0,
                        "value": 0
                    }
                }
            ],
            "ETC_Mystique": [
                {
                    "hash": "a8746f750406f035411e82bcbe2951f11547c80df6e4bf5f86055642de0ca323",
                    "logs": "1dcc4de8dec75d7aab85b567b6ccd41ad312451b948a7413f0a142fd40d49347",
                    "txbytes": "0xf885800a8404c4b40094cccccccccccccccccccccccccccccccccccccccc01a4693c613900000000000000000000000000000000000000000000000000000000000000001ba0e8ff56322287185f6afd3422a825b47bf5c1a4ccf0dc0389cdc03f7c1c32b7eaa0776b02f9f5773238d3ff36b74a123f409cd6420908d7855bbe4c8ff63e00d698",
                    "indexes": {
                        "data": 0,
                        "gas": 0,
                        "value": 0
                    }
                },
                {
                    "hash": "3560e0ef3cbfb3a879214cbc4d2a407c068afdd44a75ccffab122fc1cc47fa05",
                    "logs": "1dcc4de8dec75d7aab85b567b6ccd41ad312451b948a7413f0a142fd40d49347",
                    "txbytes": "0xf885800a8404c4b40094cccccccccccccccccccccccccccccccccccccccc01a4693c613900000000000000000000000000000000000000000000000000000000000000011ba02c5e81a024dd0f6fb773c8787fa46ab5eb55cb73df83562e6ddbe9106a3df7f6a029437b9a23e45bbfce086f2ddaa98b1e9e6914d7e58e2c5a128310042b332f89",
                    "indexes": {
                        "data": 1,
                        "gas": 0,
                        "value": 0
                    }
                },
                {
                    "hash": "4508855a1d688f6b4d182a898b4695db29b45435ff3b98316af1dfd47137cf03",
                    "logs": "1dcc4de8dec75d7aab85b567b6ccd41ad312451b948a7413f0a142fd40d49347",
                    "txbytes": "0xf885800a8404c4b40094cccccccccccccccccccccccccccccccccccccccc01a4693c613900000000000000000000000000000000000000000000000000000000000000021ba0fc37ad4eb0633eb18f2b7867bacbe994a2ffcbb04a71e394e6e76041f6ce216fa03b1b415a5c386d8de9e16be9fdc188234b80a0dec99922d03c240f2e463053e3",
                    "indexes": {
                        "data": 2,
                        "gas": 0,
                        "value": 0
                    }
                },
                {
                    "hash": "7ea80676b0ae0c0c432ea62d3743f217ab11908e7a433f31fea729c348c56f6c",
                    "logs": "1dcc4de8dec75d7aab85b567b6ccd41ad312451b948a7413f0a142fd40d49347",
                    "txbytes": "0xf885800a8404c4b40094cccccccccccccccccccccccccccccccccccccccc01a4693c613900000000000000000000000000000000000000000000000000000000000000031ba0f06eb219c5dba98711a9a2678339f64d172bfac289a5c43a0018d3917be8dc2aa0147bd7a6ee30217e63cbddc28b0e72f115da754d8916b87992aa27ed00eb105e",
                    "indexes": {
                        "data": 3,
                        "gas": 0,
                        "value": 0
                    }
                },
                {
                    "hash": "972dd1692fe269f65478c76fe3c17f33853be83051ac4f73c620296bef624d9b",
                    "logs": "1dcc4de8dec75d7aab85b567b6ccd41ad312451b948a7413f0a142fd40d49347",
                    "txbytes": "0xf885800a8404c4b40094cccccccccccccccccccccccccccccccccccccccc01a4693c613900000000000000000000000000000000000000000000000000000000000000041ba0c148a101aa54703ff0e949441bdba90b1972a16c338f7f9a24b07f0313cd49d6a028cb82229b8a57e2048761d6fa5060c5b459f000d4e218de1372c1df9cfa171e",
                    "indexes": {
                        "data": 4,
                        "gas": 0,
                        "value": 0
                    }
                },
                {
                    "hash": "1618587e5bc04c999549394d6ce69edd7d1625d1289600cf1c762073c9c0c46a",
                    "logs": "1dcc4de8dec75d7aab85b567b6ccd41ad312451b948a7413f0a142fd40d49347",
                    "txbytes": "0xf885800a8404c4b40094cccccccccccccccccccccccccccccccccccccccc01a4693c613900000000000000000000000000000000000000000000000000000000000000051ca09a1ce3fdc8469be9bbe660a07c169cf5b6b70fe408cc1395057bbd4cdc2c8557a0560e8c0503c4364efd017933749f22e1d9ad4eff4580d5463df54b9bff8dca31",
                    "indexes": {
                        "data": 5,
                        "gas": 0,
                        "value": 0
                    }
                },
                {
                    "hash": "73a88b098bdc36b289eeebfd453ffc3b9496b8344f6f55b4927dfb36e12a2907",
                    "logs": "1dcc4de8dec75d7aab85b567b6ccd41ad312451b948a7413f0a142fd40d49347",
                    "txbytes": "0xf885800a8404c4b40094cccccccccccccccccccccccccccccccccccccccc01a4693c613900000000000000000000000000000000000000000000000000000000000000061ca04f7114759d69db050a87677a2dff3d6f9399f0b66da593b2cc50748708377f6fa042f32766ce38ec3cee0d2c2dbc4d14b9cbf94e4af75b0584a04c933457bb83bb",
                    "indexes": {
                        "data": 6,
                        "gas": 0,
                        "value": 0
                    }
                },
                {
                    "hash": "fb56409e830a99c00e4bdffc47de5dea07353a4bb08fd7ad052ceb15619ec55f",
                    "logs": "1dcc4de8dec75d7aab85b567b6ccd41ad312451b948a7413f0a142fd40d49347",
                    "txbytes": "0xf885800a8404c4b40094cccccccccccccccccccccccccccccccccccccccc01a4693c613900000000000000000000000000000000000000000000000000000000000000071ba0e77cc0b2a4af0e43bc5732d6747afb3ddcf781f7277650aeef15b9caba68c91aa04af80af420b77c3f4ad457f1c6535be5d46993e2c8987250d28d088b3a11bb4a",
                    "indexes": {
                        "data": 7,
                        "gas": 0,
                        "value": 0
                    }
                },
                {
                    "hash": "a6adba47438f5e61aaf64ef4d1be9d7aa6b0d1c0ff3a0d81a1e3ed0ab6e9b1fa",
                    "logs": "1dcc4de8dec75d7aab85b567b6ccd41ad312451b948a7413f0a142fd40d49347",
                    "txbytes": "0xf884800a8404c4b40094cccccccccccccccccccccccccccccccccccccccc01a4693c613900000000000000000000000000000000000000000000000000000000000000081ca057f87767c304f58d8c351529457f9fbe53d04ba7f9f0ae7f2bac7a2d6dc59bc09fd8de811557a1287c01a1e09edeb750adba79cef13ebeb951d030ff29e63f39",
                    "indexes": {
                        "data": 8,
                        "gas": 0,
                        "value": 0
                    }
                },
                {
                    "hash": "ae33a919dfcf2e917d6758a1ea424191899b200979e576dfa1c6af33bfb7e3a5",
                    "logs": "1dcc4de8dec75d7aab85b567b6ccd41ad312451b948a7413f0a142fd40d49347",
                    "txbytes": "0xf885800a8404c4b40094cccccccccccccccccccccccccccccccccccccccc01a4693c613900000000000000000000000000000000000000000000000000000000000000091ba09cffdf14ebc27c6c36a8cc9e679e32251165b52fb39e7ccc52cbc42f7157c301a032f0bebe1ae01ef86e26c0194bc26e9ed9e6bb7dad277927a92def3d0badbe74",
                    "indexes": {
                        "data": 9,
                        "gas": 0,
                        "value": 0
                    }
                },
                {
                    "hash": "0a8ca7c2a1b40850a4f79e6b28131d1d49ddcb3754a2d1773d4e95955105469d",
                    "logs": "1dcc4de8dec75d7aab85b567b6ccd41ad312451b948a7413f0a142fd40d49347",
                    "txbytes": "0xf885800a8404c4b40094cccccccccccccccccccccccccccccccccccccccc01a4693c6139000000000000000000000000000000000000000000000000000000000000000a1ca0a1b03cd747783811efe72b24c5681a14f13ddc2a54b346efc81da94b8a6d82aaa04b794a29cf9f0433518c93172d3b2d7cd77315c278ec2220c80fa4448481a8a6",
                    "indexes": {
                        "data": 10,
                        "gas": 0,
                        "value": 0
                    }
                },
                {
                    "hash": "55ef4ffd5bb5516da1e0b9397bc7f6e3419e797b0afb5c592fad21c2d90cdeab",
                    "logs": "1dcc4de8dec75d7aab85b567b6ccd41ad312451b948a7413f0a142fd40d49347",
                    "txbytes": "0xf885800a8404c4b40094cccccccccccccccccccccccccccccccccccccccc01a4693c6139000000000000000000000000000000000000000000000000000000000000000b1ca0c966b1649b82df31630735542a36cd21a0c8ccca99661e9daf19e24b5cd0b4d5a0297ca7c15e08b09a84dfdaee72deecc74b852df21c2b1cce63e4e3638c680015",
                    "indexes": {
                        "data": 11,
                        "gas": 0,
                        "value": 0
                    }
                },
                {
                    "hash": "f522c07dcce598a5d3e978fb71106d5bfc5b0a02d4aa72f17d973204c2c482a2",
                    "logs": "1dcc4de8dec75d7aab85b567b6ccd41ad312451b948a7413f0a142fd40d49347",
                    "txbytes": "0xf885800a8404c4b40094cccccccccccccccccccccccccccccccccccccccc01a4693c6139000000000000000000000000000000000000000000000000000000000000000c1ca0e7c9b0d9792ea976c6e21b9ac03fec15a7a57ede02dd4d5d75bdaea8019be119a03b4dd5fbca89a77591d755174fb98c746ed2856efaa679866bb9591c16fd1ca2",
                    "indexes": {
                        "data": 12,
                        "gas": 0,
                        "value": 0
                    }
                },
                {
                    "hash": "1e992fd42c7c1b88405a1da7175f2d8d1c34464d8ae4e97b89ee9d64322e82de",
                    "logs": "1dcc4de8dec75d7aab85b567b6ccd41ad312451b948a7413f0a142fd40d49347",
                    "txbytes": "0xf885800a8404c4b40094cccccccccccccccccccccccccccccccccccccccc01a4693c6139000000000000000000000000000000000000000000000000000000000000000d1ca01691906b205874203c9abd32dd85c221936c1c63bf7231148e3846ce4b776a23a07496ef32b0a1259d037431119f19ceca327e9a7318eec4d71f1dbb8a878dc2f5",
                    "indexes": {
                        "data": 13,
                        "gas": 0,
                        "value": 0
                    }
                },
                {
                    "hash": "a5f22de544f402895f0a8203faed827170512245dfa0343ee47af461f5fdd2d5",
                    "logs": "1dcc4de8dec75d7aab85b567b6ccd41ad312451b948a7413f0a142fd40d49347",
                    "txbytes": "0xf885800a8404c4b40094cccccccccccccccccccccccccccccccccccccccc01a4693c6139000000000000000000000000000000000000000000000000000000000000000e1ca038eda85bee73907a8eca42c2425bd9c1c0cc7eb377305a1d12135cc442cc2595a01163d3c3c904542c96588d1a134242818a982a8ed0e28be50b5d74f89968ed6b",
                    "indexes": {
                        "data": 14,
                        "gas": 0,
                        "value": 0
                    }
                },
                {
                    "hash": "ae90e8257027039a5e3853586244cf24303276c84fa5f215cef33874297d3f8f",
                    "logs": "1dcc4de8dec75d7aab85b567b6ccd41ad312451b948a7413f0a142fd40d49347",
                    "txbytes": "0xf885800a8404c4b40094cccccccccccccccccccccccccccccccccccccccc01a4693c6139000000000000000000000000000000000000000000000000000000000000000f1ba0651a47e0c9ecbc6ea2c076f38a80e16d51db98bfba82c0fccc5ba4a09d5dd5aea006572dccf26b21afd25f5f58bf2f23fd0242c0774f44785976b7a9e1ff5c194f",
                    "indexes": {
                        "data": 15,
                        "gas": 0,
                        "value": 0
                    }
                }
            ],
            "ETC_Phoenix": [
                {
                    "hash": "8798255e0795fff78571a520084df3377e44f61c58e0165bb7e282eb362db54f",
                    "logs": "1dcc4de8dec75d7aab85b567b6ccd41ad312451b948a7413f0a142fd40d49347",
                    "txbytes": "0xf885800a8404c4b40094cccccccccccccccccccccccccccccccccccccccc01a4693c613900000000000000000000000000000000000000000000000000000000000000001ba0e8ff56322287185f6afd3422a825b47bf5c1a4ccf0dc0389cdc03f7c1c32b7eaa0776b02f9f5773238d3ff36b74a123f409cd6420908d7855bbe4c8ff63e00d698",
                    "indexes": {
                        "data": 0,
                        "gas": 0,
                        "value": 0
                    }
                },
                {
                    "hash": "3cb1acbe478bc943395033ee6c3350ed6a2131b1a0a265a9fb880ba6c573dead",
                    "logs": "1dcc4de8dec75d7aab85b567b6ccd41ad312451b948a7413f0a142fd40d49347",
                    "txbytes": "0xf885800a8404c4b40094cccccccccccccccccccccccccccccccccccccccc01a4693c613900000000000000000000000000000000000000000000000000000000000000011ba02c5e81a024dd0f6fb773c8787fa46ab5eb55cb73df83562e6ddbe9106a3df7f6a029437b9a23e45bbfce086f2ddaa98b1e9e6914d7e58e2c5a128310042b332f89",
                    "indexes": {
                        "data": 1,
                        "gas": 0,
                        "value": 0
                    }
                },
                {
                    "hash": "b92528d5a1f72b525716dcffe493633e35942498313910d8df96fdc369d89405",
                    "logs": "1dcc4de8dec75d7aab85b567b6ccd41ad312451b948a7413f0a142fd40d49347",
                    "txbytes": "0xf885800a8404c4b40094cccccccccccccccccccccccccccccccccccccccc01a4693c613900000000000000000000000000000000000000000000000000000000000000021ba0fc37ad4eb0633eb18f2b7867bacbe994a2ffcbb04a71e394e6e76041f6ce216fa03b1b415a5c386d8de9e16be9fdc188234b80a0dec99922d03c240f2e463053e3",
                    "indexes": {
                        "data": 2,
                        "gas": 0,
                        "value": 0
                    }
                },
                {
                    "hash": "b04ec42d526acd846c75348ad42521ecb0553a6a6327e2457eac4d106f245d97",
                    "logs": "1dcc4de8dec75d7aab85b567b6ccd41ad312451b948a7413f0a142fd40d49347",
                    "txbytes": "0xf885800a8404c4b40094cccccccccccccccccccccccccccccccccccccccc01a4693c613900000000000000000000000000000000000000000000000000000000000000031ba0f06eb219c5dba98711a9a2678339f64d172bfac289a5c43a0018d3917be8dc2aa0147bd7a6ee30217e63cbddc28b0e72f115da754d8916b87992aa27ed00eb105e",
                    "indexes": {
                        "data": 3,
                        "gas": 0,
                        "value": 0
                    }
                },
                {
                    "hash": "8358d3ee4072cba4221a94fef3ab56d6c3ffdef8f0894961a93181cbe8c6bba1",
                    "logs": "1dcc4de8dec75d7aab85b567b6ccd41ad312451b948a7413f0a142fd40d49347",
                    "txbytes": "0xf885800a8404c4b40094cccccccccccccccccccccccccccccccccccccccc01a4693c613900000000000000000000000000000000000000000000000000000000000000041ba0c148a101aa54703ff0e949441bdba90b1972a16c338f7f9a24b07f0313cd49d6a028cb82229b8a57e2048761d6fa5060c5b459f000d4e218de1372c1df9cfa171e",
                    "indexes": {
                        "data": 4,
                        "gas": 0,
                        "value": 0
                    }
                },
                {
                    "hash": "7ded9cfcca0a421289a4c4e69514c49b6821ecdc6ed2e50da6965c4b9dbc0818",
                    "logs": "1dcc4de8dec75d7aab85b567b6ccd41ad312451b948a7413f0a142fd40d49347",
                    "txbytes": "0xf885800a8404c4b40094cccccccccccccccccccccccccccccccccccccccc01a4693c613900000000000000000000000000000000000000000000000000000000000000051ca09a1ce3fdc8469be9bbe660a07c169cf5b6b70fe408cc1395057bbd4cdc2c8557a0560e8c0503c4364efd017933749f22e1d9ad4eff4580d5463df54b9bff8dca31",
                    "indexes": {
                        "data": 5,
                        "gas": 0,
                        "value": 0
                    }
                },
                {
                    "hash": "d063a9065f44656f4414169aa7fd4ebf381dc58c335ad9d2ad7cd2847ba4056a",
                    "logs": "1dcc4de8dec75d7aab85b567b6ccd41ad312451b948a7413f0a142fd40d49347",
                    "txbytes": "0xf885800a8404c4b40094cccccccccccccccccccccccccccccccccccccccc01a4693c613900000000000000000000000000000000000000000000000000000000000000061ca04f7114759d69db050a87677a2dff3d6f9399f0b66da593b2cc50748708377f6fa042f32766ce38ec3cee0d2c2dbc4d14b9cbf94e4af75b0584a04c933457bb83bb",
                    "indexes": {
                        "data": 6,
                        "gas": 0,
                        "value": 0
                    }
                },
                {
                    "hash": "05cb721fb6e59a99859eb3571876112dbf4ea40de7053ae99438da27f98d4b8b",
                    "logs": "1dcc4de8dec75d7aab85b567b6ccd41ad312451b948a7413f0a142fd40d49347",
                    "txbytes": "0xf885800a8404c4b40094cccccccccccccccccccccccccccccccccccccccc01a4693c613900000000000000000000000000000000000000000000000000000000000000071ba0e77cc0b2a4af0e43bc5732d6747afb3ddcf781f7277650aeef15b9caba68c91aa04af80af420b77c3f4ad457f1c6535be5d46993e2c8987250d28d088b3a11bb4a",
                    "indexes": {
                        "data": 7,
                        "gas": 0,
                        "value": 0
                    }
                },
                {
                    "hash": "4d45666108829675ca1ef5b0bb15d83d1ec8789391bbb0a56b2f30e6ebc1262f",
                    "logs": "1dcc4de8dec75d7aab85b567b6ccd41ad312451b948a7413f0a142fd40d49347",
                    "txbytes": "0xf884800a8404c4b40094cccccccccccccccccccccccccccccccccccccccc01a4693c613900000000000000000000000000000000000000000000000000000000000000081ca057f87767c304f58d8c351529457f9fbe53d04ba7f9f0ae7f2bac7a2d6dc59bc09fd8de811557a1287c01a1e09edeb750adba79cef13ebeb951d030ff29e63f39",
                    "indexes": {
                        "data": 8,
                        "gas": 0,
                        "value": 0
                    }
                },
                {
                    "hash": "ccf66c33e8e43bceed29c5edceb1746cb59c2da299f038857bbc874926b47d52",
                    "logs": "1dcc4de8dec75d7aab85b567b6ccd41ad312451b948a7413f0a142fd40d49347",
                    "txbytes": "0xf885800a8404c4b40094cccccccccccccccccccccccccccccccccccccccc01a4693c613900000000000000000000000000000000000000000000000000000000000000091ba09cffdf14ebc27c6c36a8cc9e679e32251165b52fb39e7ccc52cbc42f7157c301a032f0bebe1ae01ef86e26c0194bc26e9ed9e6bb7dad277927a92def3d0badbe74",
                    "indexes": {
                        "data": 9,
                        "gas": 0,
                        "value": 0
                    }
                },
                {
                    "hash": "10bc3d66628df8f3de0066fba3d6e3508d11af4d99a8f39f7fb33fe8d9b452b4",
                    "logs": "1dcc4de8dec75d7aab85b567b6ccd41ad312451b948a7413f0a142fd40d49347",
                    "txbytes": "0xf885800a8404c4b40094cccccccccccccccccccccccccccccccccccccccc01a4693c6139000000000000000000000000000000000000000000000000000000000000000a1ca0a1b03cd747783811efe72b24c5681a14f13ddc2a54b346efc81da94b8a6d82aaa04b794a29cf9f0433518c93172d3b2d7cd77315c278ec2220c80fa4448481a8a6",
                    "indexes": {
                        "data": 10,
                        "gas": 0,
                        "value": 0
                    }
                },
                {
                    "hash": "08a2e7368d9d4edcbb973f4f120795630b66da181220abdc7164d3e4209849fb",
                    "logs": "1dcc4de8dec75d7aab85b567b6ccd41ad312451b948a7413f0a142fd40d49347",
                    "txbytes": "0xf885800a8404c4b40094cccccccccccccccccccccccccccccccccccccccc01a4693c6139000000000000000000000000000000000000000000000000000000000000000b1ca0c966b1649b82df31630735542a36cd21a0c8ccca99661e9daf19e24b5cd0b4d5a0297ca7c15e08b09a84dfdaee72deecc74b852df21c2b1cce63e4e3638c680015",
                    "indexes": {
                        "data": 11,
                        "gas": 0,
                        "value": 0
                    }
                },
                {
                    "hash": "19ce15baa4d9c1070f3059a2a83ee3e746513bea65f9d051cbf69c94fbd01b3c",
                    "logs": "1dcc4de8dec75d7aab85b567b6ccd41ad312451b948a7413f0a142fd40d49347",
                    "txbytes": "0xf885800a8404c4b40094cccccccccccccccccccccccccccccccccccccccc01a4693c6139000000000000000000000000000000000000000000000000000000000000000c1ca0e7c9b0d9792ea976c6e21b9ac03fec15a7a57ede02dd4d5d75bdaea8019be119a03b4dd5fbca89a77591d755174fb98c746ed2856efaa679866bb9591c16fd1ca2",
                    "indexes": {
                        "data": 12,
                        "gas": 0,
                        "value": 0
                    }
                },
                {
                    "hash": "2cbfe7380ceb6bfc81d721d72a7710ef0d16f3318d56eb53f9376ee6108cde40",
                    "logs": "1dcc4de8dec75d7aab85b567b6ccd41ad312451b948a7413f0a142fd40d49347",
                    "txbytes": "0xf885800a8404c4b40094cccccccccccccccccccccccccccccccccccccccc01a4693c6139000000000000000000000000000000000000000000000000000000000000000d1ca01691906b205874203c9abd32dd85c221936c1c63bf7231148e3846ce4b776a23a07496ef32b0a1259d037431119f19ceca327e9a7318eec4d71f1dbb8a878dc2f5",
                    "indexes": {
                        "data": 13,
                        "gas": 0,
                        "value": 0
                    }
                },
                {
                    "hash": "caf736039d5e8dd3b23e6a78c06388924fb7688cbc23d122849889f1cb3c0114",
                    "logs": "1dcc4de8dec75d7aab85b567b6ccd41ad312451b948a7413f0a142fd40d49347",
                    "txbytes": "0xf885800a8404c4b40094cccccccccccccccccccccccccccccccccccccccc01a4693c6139000000000000000000000000000000000000000000000000000000000000000e1ca038eda85bee73907a8eca42c2425bd9c1c0cc7eb377305a1d12135cc442cc2595a01163d3c3c904542c96588d1a134242818a982a8ed0e28be50b5d74f89968ed6b",
                    "indexes": {
                        "data": 14,
                        "gas": 0,
                        "value": 0
                    }
                },
                {
                    "hash": "7817a16f16b9cd998849158ec5e88de547b04c0be1e9088a1b37e57e9193ec38",
                    "logs": "1dcc4de8dec75d7aab85b567b6ccd41ad312451b948a7413f0a142fd40d49347",
                    "txbytes": "0xf885800a8404c4b40094cccccccccccccccccccccccccccccccccccccccc01a4693c6139000000000000000000000000000000000000000000000000000000000000000f1ba0651a47e0c9ecbc6ea2c076f38a80e16d51db98bfba82c0fccc5ba4a09d5dd5aea006572dccf26b21afd25f5f58bf2f23fd0242c0774f44785976b7a9e1ff5c194f",
                    "indexes": {
                        "data": 15,
                        "gas": 0,
                        "value": 0
                    }
                }
            ]
        }
    }
}