{
    "create2InitCodes": {
        "_info": {
            "comment": "testing different byte opcodes inside create2 init code",
            "filling-rpc-server": "evm version 1.10.16-unstable-0f893109-20220105",
            "filling-tool-version": "retesteth-0.2.2-testinfo+commit.01c6aac2.Linux.g++",
            "filledWith": "CoreGeth-1.12.9-unstable-f4059ddd82d975bdc54fa648e5422a80172161cb",
            "lllcversion": "Version: 0.5.14-develop.2021.11.27+commit.401d5358.Linux.g++",
            "source": "src/GeneralStateTestsFiller/stCreate2/create2InitCodesFiller.json",
            "sourceHash": "51a1821d94082978ba8ef1e42c9bee0f009e4e4674fb38a64480225589569c0c"
        },
        "env": {
            "currentCoinbase": "2adc25665018aa1fe0e6bc666dac8fc2697ff9ba",
            "currentDifficulty": "0x20000",
            "currentRandom": null,
            "currentGasLimit": "0xf4240",
            "currentNumber": "0x1",
            "currentTimestamp": "0x3e8",
            "currentBaseFee": "0xa"
        },
        "pre": {
            "0xa94f5374fce5edbc8e2a8697c15331677e6ebf0b": {
                "balance": "0xde0b6b3a7640000"
            }
        },
        "transaction": {
            "gasPrice": "0xa",
            "maxFeePerGas": null,
            "maxPriorityFeePerGas": null,
            "nonce": "0x0",
            "to": "",
            "data": [
                "0x60006000536000600160006000f560005500",
                "0x60566000536000600160006000f560005500",
                "0x60016000536000600160006000f560005500",
                "0x60f46000536000600160006000f560005500",
                "0x6a60016001556001546002556000526000600b60156000f560005500",
                "0x626001ff60005260006003601d6000f560005500",
                "0x626001ff60005260006003601d6001f560005500",
                "0x60006003601d6000f560005500",
                "0x6160a960005260006002601e6001f560005500"
            ],
            "gasLimit": [
                "0xc3500"
            ],
            "value": [
                "0x01"
            ],
            "secretKey": "0x45a915e4d060149eb4365960e6a7a45f334393093061116b197e3240065ff2d8"
        },
        "out": "0x",
        "post": {
            "ETC_Magneto": [
                {
                    "hash": "ec608831620fa7e9648e01c721c645b245b3104f452ac0e99e03afd43f560849",
                    "logs": "1dcc4de8dec75d7aab85b567b6ccd41ad312451b948a7413f0a142fd40d49347",
                    "txbytes": "0xf85e800a830c350080019260006000536000600160006000f5600055001ca0ec952454f70a7c63e779da20bd59c018ed443218c2a5076fb877f8a0315eb9b2a077ff7b142ee7d77de473e7fc8f5a68a66abba5f956fb0041a692671de6cf25dc",
                    "indexes": {
                        "data": 0,
                        "gas": 0,
                        "value": 0
                    }
                },
                {
                    "hash": "d009e4fce783afbd5cf8d80ec7441790966233a717a71b58ee74fdbd09ebbb2a",
                    "logs": "1dcc4de8dec75d7aab85b567b6ccd41ad312451b948a7413f0a142fd40d49347",
                    "txbytes": "0xf85e800a830c350080019260566000536000600160006000f5600055001ba0a2a32f4240c43866b18b20c422d852cfa76c3b1c38481946153ad74095edf200a03250350c68295f013883bf7f4f59aacb7a84e1b5c234c948430c15a7d63c6472",
                    "indexes": {
                        "data": 1,
                        "gas": 0,
                        "value": 0
                    }
                },
                {
                    "hash": "d009e4fce783afbd5cf8d80ec7441790966233a717a71b58ee74fdbd09ebbb2a",
                    "logs": "1dcc4de8dec75d7aab85b567b6ccd41ad312451b948a7413f0a142fd40d49347",
                    "txbytes": "0xf85e800a830c350080019260016000536000600160006000f5600055001ba0331ab70acd3913442936323ca8f14202f23be5e3bb2becedc1f8e614eb6ca2b3a05e8cf615f6105d56d21157556b36f0b448c5780394f9bfe0a1155efde9552ed1",
                    "indexes": {
                        "data": 2,
                        "gas": 0,
                        "value": 0
                    }
                },
                {
                    "hash": "d009e4fce783afbd5cf8d80ec7441790966233a717a71b58ee74fdbd09ebbb2a",
                    "logs": "1dcc4de8dec75d7aab85b567b6ccd41ad312451b948a7413f0a142fd40d49347",
                    "txbytes": "0xf85e800a830c350080019260f46000536000600160006000f5600055001ba0bedd53804c09a2215ca2cddbcd7fdbb53bb297634eb1a467a1fae2ea444f3311a07a03f2012a00e61d7c668adb5300c74e884888133a394f8fed7a4f999570bfad",
                    "indexes": {
                        "data": 3,
                        "gas": 0,
                        "value": 0
                    }
                },
                {
                    "hash": "0cba1e92a02967c82fcfb63cc2a86a99e76c251eb19087d02c7d3ccab84dba25",
                    "logs": "1dcc4de8dec75d7aab85b567b6ccd41ad312451b948a7413f0a142fd40d49347",
                    "txbytes": "0xf868800a830c350080019c6a60016001556001546002556000526000600b60156000f5600055001ba05a6950ae2a71d5c1a47bcad7d0eee41f0e9a820bb09a7c2463704d6d8e40a1ada0607853e80708d47965966b01eea325d65f49889ab505daf6630deb23cc759d97",
                    "indexes": {
                        "data": 4,
                        "gas": 0,
                        "value": 0
                    }
                },
                {
                    "hash": "c5744587f29b10544b08ed891beedaa6c0a0611557f92263299990cbb0ab8095",
                    "logs": "1dcc4de8dec75d7aab85b567b6ccd41ad312451b948a7413f0a142fd40d49347",
                    "txbytes": "0xf860800a830c3500800194626001ff60005260006003601d6000f5600055001ca0cabbd6d608a077e1539d7bf623d544e35d9b27e0d5c14c2d1c9ca5bc854a88c3a028962488304e3e4aedbbbf101c5a6e5bf593659c396ca358d83ecc92d13f64ca",
                    "indexes": {
                        "data": 5,
                        "gas": 0,
                        "value": 0
                    }
                },
                {
                    "hash": "8a942f240cecf4a2437111a1fb57bba61d4c3176a005793f0c98de7534432dbb",
                    "logs": "1dcc4de8dec75d7aab85b567b6ccd41ad312451b948a7413f0a142fd40d49347",
                    "txbytes": "0xf860800a830c3500800194626001ff60005260006003601d6001f5600055001ca0b98aabe195dafad3021326e2481f039c48ac605e293efdc96eddcafa975fad2ca035c5513d4e25d488ec1f9899e3babf726210b744b8d028a13eb8a26e0f2dc495",
                    "indexes": {
                        "data": 6,
                        "gas": 0,
                        "value": 0
                    }
                },
                {
                    "hash": "1d2f683dbd78ff706518c341b533ef2cdad391333d2ebdccff430ec47bc55162",
                    "logs": "1dcc4de8dec75d7aab85b567b6ccd41ad312451b948a7413f0a142fd40d49347",
                    "txbytes": "0xf859800a830c350080018d60006003601d6000f5600055001ba07523847b87133dd8ea10bde95a93cd8a7050211e86669234f9f8a000ce7a0b1fa0460a697b1211b642780abb1d3a16163b40c18882089e7f14cda0820af1853ccb",
                    "indexes": {
                        "data": 7,
                        "gas": 0,
                        "value": 0
                    }
                },
                {
                    "hash": "834b1b2a705f790b361434063480dbf14d16da5bb324da34b9413910b63f5d27",
                    "logs": "1dcc4de8dec75d7aab85b567b6ccd41ad312451b948a7413f0a142fd40d49347",
                    "txbytes": "0xf85f800a830c35008001936160a960005260006002601e6001f5600055001ba017022c81c7c76212076cb021228d09a74f59eb7e960b48e66765f313f545ae55a06856c8af523a57306bb6ceb61dd42883a65c20301487f78f2297b98d6f6b32c1",
                    "indexes": {
                        "data": 8,
                        "gas": 0,
                        "value": 0
                    }
                }
            ],
            "ETC_Mystique": [
                {
                    "hash": "ec608831620fa7e9648e01c721c645b245b3104f452ac0e99e03afd43f560849",
                    "logs": "1dcc4de8dec75d7aab85b567b6ccd41ad312451b948a7413f0a142fd40d49347",
                    "txbytes": "0xf85e800a830c350080019260006000536000600160006000f5600055001ca0ec952454f70a7c63e779da20bd59c018ed443218c2a5076fb877f8a0315eb9b2a077ff7b142ee7d77de473e7fc8f5a68a66abba5f956fb0041a692671de6cf25dc",
                    "indexes": {
                        "data": 0,
                        "gas": 0,
                        "value": 0
                    }
                },
                {
                    "hash": "d009e4fce783afbd5cf8d80ec7441790966233a717a71b58ee74fdbd09ebbb2a",
                    "logs": "1dcc4de8dec75d7aab85b567b6ccd41ad312451b948a7413f0a142fd40d49347",
                    "txbytes": "0xf85e800a830c350080019260566000536000600160006000f5600055001ba0a2a32f4240c43866b18b20c422d852cfa76c3b1c38481946153ad74095edf200a03250350c68295f013883bf7f4f59aacb7a84e1b5c234c948430c15a7d63c6472",
                    "indexes": {
                        "data": 1,
                        "gas": 0,
                        "value": 0
                    }
                },
                {
                    "hash": "d009e4fce783afbd5cf8d80ec7441790966233a717a71b58ee74fdbd09ebbb2a",
                    "logs": "1dcc4de8dec75d7aab85b567b6ccd41ad312451b948a7413f0a142fd40d49347",
                    "txbytes": "0xf85e800a830c350080019260016000536000600160006000f5600055001ba0331ab70acd3913442936323ca8f14202f23be5e3bb2becedc1f8e614eb6ca2b3a05e8cf615f6105d56d21157556b36f0b448c5780394f9bfe0a1155efde9552ed1",
                    "indexes": {
                        "data": 2,
                        "gas": 0,
                        "value": 0
                    }
                },
                {
                    "hash": "d009e4fce783afbd5cf8d80ec7441790966233a717a71b58ee74fdbd09ebbb2a",
                    "logs": "1dcc4de8dec75d7aab85b567b6ccd41ad312451b948a7413f0a142fd40d49347",
                    "txbytes": "0xf85e800a830c350080019260f46000536000600160006000f5600055001ba0bedd53804c09a2215ca2cddbcd7fdbb53bb297634eb1a467a1fae2ea444f3311a07a03f2012a00e61d7c668adb5300c74e884888133a394f8fed7a4f999570bfad",
                    "indexes": {
                        "data": 3,
                        "gas": 0,
                        "value": 0
                    }
                },
                {
                    "hash": "0cba1e92a02967c82fcfb63cc2a86a99e76c251eb19087d02c7d3ccab84dba25",
                    "logs": "1dcc4de8dec75d7aab85b567b6ccd41ad312451b948a7413f0a142fd40d49347",
                    "txbytes": "0xf868800a830c350080019c6a60016001556001546002556000526000600b60156000f5600055001ba05a6950ae2a71d5c1a47bcad7d0eee41f0e9a820bb09a7c2463704d6d8e40a1ada0607853e80708d47965966b01eea325d65f49889ab505daf6630deb23cc759d97",
                    "indexes": {
                        "data": 4,
                        "gas": 0,
                        "value": 0
                    }
                },
                {
                    "hash": "a0d0ddcf8078252f91a510b9171cfe173ada34a914fc726fb144f5416d9e746e",
                    "logs": "1dcc4de8dec75d7aab85b567b6ccd41ad312451b948a7413f0a142fd40d49347",
                    "txbytes": "0xf860800a830c3500800194626001ff60005260006003601d6000f5600055001ca0cabbd6d608a077e1539d7bf623d544e35d9b27e0d5c14c2d1c9ca5bc854a88c3a028962488304e3e4aedbbbf101c5a6e5bf593659c396ca358d83ecc92d13f64ca",
                    "indexes": {
                        "data": 5,
                        "gas": 0,
                        "value": 0
                    }
                },
                {
                    "hash": "f5fd20fa86838537c7f61683d29a62ea851debeadb4c484eb6d89879d25237b8",
                    "logs": "1dcc4de8dec75d7aab85b567b6ccd41ad312451b948a7413f0a142fd40d49347",
                    "txbytes": "0xf860800a830c3500800194626001ff60005260006003601d6001f5600055001ca0b98aabe195dafad3021326e2481f039c48ac605e293efdc96eddcafa975fad2ca035c5513d4e25d488ec1f9899e3babf726210b744b8d028a13eb8a26e0f2dc495",
                    "indexes": {
                        "data": 6,
                        "gas": 0,
                        "value": 0
                    }
                },
                {
                    "hash": "1d2f683dbd78ff706518c341b533ef2cdad391333d2ebdccff430ec47bc55162",
                    "logs": "1dcc4de8dec75d7aab85b567b6ccd41ad312451b948a7413f0a142fd40d49347",
                    "txbytes": "0xf859800a830c350080018d60006003601d6000f5600055001ba07523847b87133dd8ea10bde95a93cd8a7050211e86669234f9f8a000ce7a0b1fa0460a697b1211b642780abb1d3a16163b40c18882089e7f14cda0820af1853ccb",
                    "indexes": {
                        "data": 7,
                        "gas": 0,
                        "value": 0
                    }
                },
                {
                    "hash": "834b1b2a705f790b361434063480dbf14d16da5bb324da34b9413910b63f5d27",
                    "logs": "1dcc4de8dec75d7aab85b567b6ccd41ad312451b948a7413f0a142fd40d49347",
                    "txbytes": "0xf85f800a830c35008001936160a960005260006002601e6001f5600055001ba017022c81c7c76212076cb021228d09a74f59eb7e960b48e66765f313f545ae55a06856c8af523a57306bb6ceb61dd42883a65c20301487f78f2297b98d6f6b32c1",
                    "indexes": {
                        "data": 8,
                        "gas": 0,
                        "value": 0
                    }
                }
            ],
            "ETC_Phoenix": [
                {
                    "hash": "e27488521f48dc5ee78c00488443c7e83713f02b7f57e5b95f74822c0a11a29b",
                    "logs": "1dcc4de8dec75d7aab85b567b6ccd41ad312451b948a7413f0a142fd40d49347",
                    "txbytes": "0xf85e800a830c350080019260006000536000600160006000f5600055001ca0ec952454f70a7c63e779da20bd59c018ed443218c2a5076fb877f8a0315eb9b2a077ff7b142ee7d77de473e7fc8f5a68a66abba5f956fb0041a692671de6cf25dc",
                    "indexes": {
                        "data": 0,
                        "gas": 0,
                        "value": 0
                    }
                },
                {
                    "hash": "7600f868dd188afe1ab83d9530bbcd91b3004c210a2db87ab0ce044f2ae270ed",
                    "logs": "1dcc4de8dec75d7aab85b567b6ccd41ad312451b948a7413f0a142fd40d49347",
                    "txbytes": "0xf85e800a830c350080019260566000536000600160006000f5600055001ba0a2a32f4240c43866b18b20c422d852cfa76c3b1c38481946153ad74095edf200a03250350c68295f013883bf7f4f59aacb7a84e1b5c234c948430c15a7d63c6472",
                    "indexes": {
                        "data": 1,
                        "gas": 0,
                        "value": 0
                    }
                },
                {
                    "hash": "7600f868dd188afe1ab83d9530bbcd91b3004c210a2db87ab0ce044f2ae270ed",
                    "logs": "1dcc4de8dec75d7aab85b567b6ccd41ad312451b948a7413f0a142fd40d49347",
                    "txbytes": "0xf85e800a830c350080019260016000536000600160006000f5600055001ba0331ab70acd3913442936323ca8f14202f23be5e3bb2becedc1f8e614eb6ca2b3a05e8cf615f6105d56d21157556b36f0b448c5780394f9bfe0a1155efde9552ed1",
                    "indexes": {
                        "data": 2,
                        "gas": 0,
                        "value": 0
                    }
                },
                {
                    "hash": "7600f868dd188afe1ab83d9530bbcd91b3004c210a2db87ab0ce044f2ae270ed",
                    "logs": "1dcc4de8dec75d7aab85b567b6ccd41ad312451b948a7413f0a142fd40d49347",
                    "txbytes": "0xf85e800a830c350080019260f46000536000600160006000f5600055001ba0bedd53804c09a2215ca2cddbcd7fdbb53bb297634eb1a467a1fae2ea444f3311a07a03f2012a00e61d7c668adb5300c74e884888133a394f8fed7a4f999570bfad",
                    "indexes": {
                        "data": 3,
                        "gas": 0,
                        "value": 0
                    }
                },
                {
                    "hash": "77b87e2b2d5951ba983a3cec0ca7f381268992737ba2b90d123004ecd63376d6",
                    "logs": "1dcc4de8dec75d7aab85b567b6ccd41ad312451b948a7413f0a142fd40d49347",
                    "txbytes": "0xf868800a830c350080019c6a60016001556001546002556000526000600b60156000f5600055001ba05a6950ae2a71d5c1a47bcad7d0eee41f0e9a820bb09a7c2463704d6d8e40a1ada0607853e80708d47965966b01eea325d65f49889ab505daf6630deb23cc759d97",
                    "indexes": {
                        "data": 4,
                        "gas": 0,
                        "value": 0
                    }
                },
                {
                    "hash": "7809038eb6c83a779f8aee9640f4ada394f7f647721c7a7d41367f9a85264d51",
                    "logs": "1dcc4de8dec75d7aab85b567b6ccd41ad312451b948a7413f0a142fd40d49347",
                    "txbytes": "0xf860800a830c3500800194626001ff60005260006003601d6000f5600055001ca0cabbd6d608a077e1539d7bf623d544e35d9b27e0d5c14c2d1c9ca5bc854a88c3a028962488304e3e4aedbbbf101c5a6e5bf593659c396ca358d83ecc92d13f64ca",
                    "indexes": {
                        "data": 5,
                        "gas": 0,
                        "value": 0
                    }
                },
                {
                    "hash": "fad7d4c27343d08bdbad0e8395537b7d2c897b30ef956b5c233d382a5514538f",
                    "logs": "1dcc4de8dec75d7aab85b567b6ccd41ad312451b948a7413f0a142fd40d49347",
                    "txbytes": "0xf860800a830c3500800194626001ff60005260006003601d6001f5600055001ca0b98aabe195dafad3021326e2481f039c48ac605e293efdc96eddcafa975fad2ca035c5513d4e25d488ec1f9899e3babf726210b744b8d028a13eb8a26e0f2dc495",
                    "indexes": {
                        "data": 6,
                        "gas": 0,
                        "value": 0
                    }
                },
                {
                    "hash": "b40d33594418eca0dd32b53d03e8dac9ed974013fcce45acac0aff17d59345d8",
                    "logs": "1dcc4de8dec75d7aab85b567b6ccd41ad312451b948a7413f0a142fd40d49347",
                    "txbytes": "0xf859800a830c350080018d60006003601d6000f5600055001ba07523847b87133dd8ea10bde95a93cd8a7050211e86669234f9f8a000ce7a0b1fa0460a697b1211b642780abb1d3a16163b40c18882089e7f14cda0820af1853ccb",
                    "indexes": {
                        "data": 7,
                        "gas": 0,
                        "value": 0
                    }
                },
                {
                    "hash": "ada2e35c08eccfff11d968a4c404e890de1ac02846f5e5f3fe8aa844874d692a",
                    "logs": "1dcc4de8dec75d7aab85b567b6ccd41ad312451b948a7413f0a142fd40d49347",
                    "txbytes": "0xf85f800a830c35008001936160a960005260006002601e6001f5600055001ba017022c81c7c76212076cb021228d09a74f59eb7e960b48e66765f313f545ae55a06856c8af523a57306bb6ceb61dd42883a65c20301487f78f2297b98d6f6b32c1",
                    "indexes": {
                        "data": 8,
                        "gas": 0,
                        "value": 0
                    }
                }
            ]
        }
    }
}