{
    "CREATE2_EOF1": {
        "_info": {
            "comment": "",
            "filling-rpc-server": "evm version 1.10.16-unstable-0f893109-20220105",
            "filling-tool-version": "retesteth-0.2.2-testinfo+commit.01c6aac2.Linux.g++",
            "filledWith": "CoreGeth-1.12.9-unstable-d64998ce9b05f4f41b35740c69c4b402e41a3105",
            "lllcversion": "Version: 0.5.14-develop.2021.11.27+commit.401d5358.Linux.g++",
            "source": "src/GeneralStateTestsFiller/stCreate2/CREATE2_EOF1Filler.yml",
            "sourceHash": "b34e9167aa2ebf2e5a03de3df46e8c8e1d8293bdfb212b29fc890089d6a06168",
            "labels": {
                "0": "deploying_0xef",
                "1": "deploying_0xef00",
                "2": "deploying_0xef0000",
                "3": "deploying_0xef00..00"
            }
        },
        "env": {
            "currentCoinbase": "0x2adc25665018aa1fe0e6bc666dac8fc2697ff9ba",
            "currentDifficulty": "0x20000",
            "currentGasLimit": "0x5500000",
            "currentNumber": "0x1",
            "currentTimestamp": "0x3e8",
            "previousHash": "0x5e20a0453cecd065ea59c37ac63e079ee08998b6045136a8ce6635c7912ec0b6"
        },
        "pre": {
            "0xa94f5374fce5edbc8e2a8697c15331677e6ebf0b": {
                "balance": "0x989680"
            },
            "0xb94f5374fce5edbc8e2a8697c15331677e6ebf0b": {
                "code": "0x60003560005260003660006000f5600055",
                "balance": "0x0"
            }
        },
        "transaction": {
            "gasPrice": "0xa",
            "nonce": "0x0",
            "to": "0xb94f5374fce5edbc8e2a8697c15331677e6ebf0b",
            "data": [
                "0x60ef60005360016000f3",
                "0x60ef60005360026000f3",
                "0x60ef60005360036000f3",
                "0x60ef60005360206000f3"
            ],
            "gasLimit": [
                "0xaae60"
            ],
            "value": [
                "0x00"
            ],
            "secretKey": "0x45a915e4d060149eb4365960e6a7a45f334393093061116b197e3240065ff2d8",
            "sender": "0xa94f5374fce5edbc8e2a8697c15331677e6ebf0b"
        },
        "post": {
            "ETC_Magneto": [
                {
                    "hash": "a80b6c5d06def4aa18e9aca3a727e243abe0a82499681ba445bfc2c81d74dc7d",
                    "logs": "1dcc4de8dec75d7aab85b567b6ccd41ad312451b948a7413f0a142fd40d49347",
                    "txbytes": "0xf86a800a830aae6094b94f5374fce5edbc8e2a8697c15331677e6ebf0b808a60ef60005360016000f31ca0e9dab3c280074f4f1c9720634e414f9f668e982cb91430a39788ebc00095baefa0575a93633683030c72c93e46855dd20dd19d5c55285ecb4ad92e6cb018b6cf07",
                    "indexes": {
                        "data": 0,
                        "gas": 0,
                        "value": 0
                    }
                },
                {
                    "hash": "c30834a8dbf38b94786e4d037801dfe8e98747165c2aa1e43650822adde35298",
                    "logs": "1dcc4de8dec75d7aab85b567b6ccd41ad312451b948a7413f0a142fd40d49347",
                    "txbytes": "0xf86a800a830aae6094b94f5374fce5edbc8e2a8697c15331677e6ebf0b808a60ef60005360026000f31ba0528a596ff0d2a5f68d59a4f461f5f1560d33bd9a44c63276ce9753aeaa5aae23a036324473bef7bb55f02cf7c0fae91f1c00704818ea276b87ece3551a8b3e011d",
                    "indexes": {
                        "data": 1,
                        "gas": 0,
                        "value": 0
                    }
                },
                {
                    "hash": "baa40d3eb71e4436c8107df7849b26834e4ec1df45c27a24882d58ee4aab3e4e",
                    "logs": "1dcc4de8dec75d7aab85b567b6ccd41ad312451b948a7413f0a142fd40d49347",
                    "txbytes": "0xf86a800a830aae6094b94f5374fce5edbc8e2a8697c15331677e6ebf0b808a60ef60005360036000f31ba0bf176a0743923e7d05c04a5c6a37af49cd3dde155d4f521dd6834c70e5571ad9a01ebf2f5e3bfeb6544b2ea7dab5019244c41a50f44d736bbbf9617cdf0be53711",
                    "indexes": {
                        "data": 2,
                        "gas": 0,
                        "value": 0
                    }
                },
                {
                    "hash": "fbaee3fe05b7bc0d99a04722232ce4701572c9307d0f76df0757c99eceab47e0",
                    "logs": "1dcc4de8dec75d7aab85b567b6ccd41ad312451b948a7413f0a142fd40d49347",
                    "txbytes": "0xf86a800a830aae6094b94f5374fce5edbc8e2a8697c15331677e6ebf0b808a60ef60005360206000f31ba05780b5dee21a0b13a59073d024ac84108b835212be292f761e1c57818e72a29ba02a6357b96f16ac4752c700512acb97a13a384502959404de304c117c285e438c",
                    "indexes": {
                        "data": 3,
                        "gas": 0,
                        "value": 0
                    }
                }
            ],
            "ETC_Mystique": [
                {
                    "hash": "c26b0890b03b9a0027706b45896c8a3c120d0a172f117b166dc533ae99080682",
                    "logs": "1dcc4de8dec75d7aab85b567b6ccd41ad312451b948a7413f0a142fd40d49347",
                    "txbytes": "0xf86a800a830aae6094b94f5374fce5edbc8e2a8697c15331677e6ebf0b808a60ef60005360016000f31ca0e9dab3c280074f4f1c9720634e414f9f668e982cb91430a39788ebc00095baefa0575a93633683030c72c93e46855dd20dd19d5c55285ecb4ad92e6cb018b6cf07",
                    "indexes": {
                        "data": 0,
                        "gas": 0,
                        "value": 0
                    }
                },
                {
                    "hash": "c26b0890b03b9a0027706b45896c8a3c120d0a172f117b166dc533ae99080682",
                    "logs": "1dcc4de8dec75d7aab85b567b6ccd41ad312451b948a7413f0a142fd40d49347",
                    "txbytes": "0xf86a800a830aae6094b94f5374fce5edbc8e2a8697c15331677e6ebf0b808a60ef60005360026000f31ba0528a596ff0d2a5f68d59a4f461f5f1560d33bd9a44c63276ce9753aeaa5aae23a036324473bef7bb55f02cf7c0fae91f1c00704818ea276b87ece3551a8b3e011d",
                    "indexes": {
                        "data": 1,
                        "gas": 0,
                        "value": 0
                    }
                },
                {
                    "hash": "c26b0890b03b9a0027706b45896c8a3c120d0a172f117b166dc533ae99080682",
                    "logs": "1dcc4de8dec75d7aab85b567b6ccd41ad312451b948a7413f0a142fd40d49347",
                    "txbytes": "0xf86a800a830aae6094b94f5374fce5edbc8e2a8697c15331677e6ebf0b808a60ef60005360036000f31ba0bf176a0743923e7d05c04a5c6a37af49cd3dde155d4f521dd6834c70e5571ad9a01ebf2f5e3bfeb6544b2ea7dab5019244c41a50f44d736bbbf9617cdf0be53711",
                    "indexes": {
                        "data": 2,
                        "gas": 0,
                        "value": 0
                    }
                },
                {
                    "hash": "c26b0890b03b9a0027706b45896c8a3c120d0a172f117b166dc533ae99080682",
                    "logs": "1dcc4de8dec75d7aab85b567b6ccd41ad312451b948a7413f0a142fd40d49347",
                    "txbytes": "0xf86a800a830aae6094b94f5374fce5edbc8e2a8697c15331677e6ebf0b808a60ef60005360206000f31ba05780b5dee21a0b13a59073d024ac84108b835212be292f761e1c57818e72a29ba02a6357b96f16ac4752c700512acb97a13a384502959404de304c117c285e438c",
                    "indexes": {
                        "data": 3,
                        "gas": 0,
                        "value": 0
                    }
                }
            ]
        }
    }
}