{
    "Create2OOGafterInitCodeReturndata3": {
        "_info": {
            "comment": "Calls a contract that runs CREATE2 which deploy a code. then OOG happens upon deployment of the actual code. check the RETURN data buffer in initial contract",
            "filling-rpc-server": "evm version 1.10.16-unstable-0f893109-20220105",
            "filling-tool-version": "retesteth-0.2.2-testinfo+commit.01c6aac2.Linux.g++",
            "filledWith": "CoreGeth-1.12.9-unstable-4cf5b2b0837228e7d5eadba6a01ffb80e9288e21",
            "lllcversion": "Version: 0.5.14-develop.2021.11.27+commit.401d5358.Linux.g++",
            "source": "src/GeneralStateTestsFiller/stCreate2/Create2OOGafterInitCodeReturndata3Filler.json",
            "sourceHash": "126d3dbcaae20f1d4acf2345ba2ccc2a961f8020fa7fe0c4f078d28a23e4fd01"
        },
        "env": {
            "currentCoinbase": "0x2adc25665018aa1fe0e6bc666dac8fc2697ff9ba",
            "currentDifficulty": "0x20000",
            "currentGasLimit": "0x989680",
            "currentNumber": "0x1",
            "currentTimestamp": "0x3e8",
            "previousHash": "0x5e20a0453cecd065ea59c37ac63e079ee08998b6045136a8ce6635c7912ec0b6"
        },
        "pre": {
            "0xa94f5374fce5edbc8e2a8697c15331677e6ebf0b": {
                "code": "0x",
                "balance": "0xe8d4a51000",
                "nonce": "0x0"
            },
            "0xb94f5374fce5edbc8e2a8697c15331677e6ebf0b": {
                "code": "0x6d6460016001556000526005601bf36000526000600e60126000f500",
                "balance": "0x0",
                "nonce": "0x0"
            },
            "0xc94f5374fce5edbc8e2a8697c15331677e6ebf0b": {
                "code": "0x6020600060006000600073b94f5374fce5edbc8e2a8697c15331677e6ebf0b5af2506020600060003e60005160015500",
                "storage": {
                    "0x0000000000000000000000000000000000000000000000000000000000000001": "0x0000000000000000000000000000000000000000000000000000000000000001"
                },
                "balance": "0x0",
                "nonce": "0x0"
            }
        },
        "transaction": {
            "gasPrice": "0xa",
            "nonce": "0x0",
            "to": "0xc94f5374fce5edbc8e2a8697c15331677e6ebf0b",
            "data": [
                "0x"
            ],
            "gasLimit": [
                "0xd6d8"
            ],
            "value": [
                "0x00"
            ],
            "secretKey": "0x45a915e4d060149eb4365960e6a7a45f334393093061116b197e3240065ff2d8",
            "sender": "0xa94f5374fce5edbc8e2a8697c15331677e6ebf0b"
        },
        "post": {
            "ETC_Magneto": [
                {
                    "hash": "6ed2fa34083f813cb3297b3d6922e9cd263fc4a6c1253ec1a14b4f0b55d02afb",
                    "logs": "1dcc4de8dec75d7aab85b567b6ccd41ad312451b948a7413f0a142fd40d49347",
                    "txbytes": "0xf85f800a82d6d894c94f5374fce5edbc8e2a8697c15331677e6ebf0b80801ba0218b16ddb45b30b08298f1b83b556fdb43f9b24298883a0a53a3901ace7c20b6a071786b1b966b14d9cca3eb42ff4d9a04248660ce2e727ca1e6c69d4014daddf4",
                    "indexes": {
                        "data": 0,
                        "gas": 0,
                        "value": 0
                    }
                }
            ],
            "ETC_Mystique": [
                {
                    "hash": "6ed2fa34083f813cb3297b3d6922e9cd263fc4a6c1253ec1a14b4f0b55d02afb",
                    "logs": "1dcc4de8dec75d7aab85b567b6ccd41ad312451b948a7413f0a142fd40d49347",
                    "txbytes": "0xf85f800a82d6d894c94f5374fce5edbc8e2a8697c15331677e6ebf0b80801ba0218b16ddb45b30b08298f1b83b556fdb43f9b24298883a0a53a3901ace7c20b6a071786b1b966b14d9cca3eb42ff4d9a04248660ce2e727ca1e6c69d4014daddf4",
                    "indexes": {
                        "data": 0,
                        "gas": 0,
                        "value": 0
                    }
                }
            ],
            "ETC_Phoenix": [
                {
                    "hash": "6ed2fa34083f813cb3297b3d6922e9cd263fc4a6c1253ec1a14b4f0b55d02afb",
                    "logs": "1dcc4de8dec75d7aab85b567b6ccd41ad312451b948a7413f0a142fd40d49347",
                    "txbytes": "0xf85f800a82d6d894c94f5374fce5edbc8e2a8697c15331677e6ebf0b80801ba0218b16ddb45b30b08298f1b83b556fdb43f9b24298883a0a53a3901ace7c20b6a071786b1b966b14d9cca3eb42ff4d9a04248660ce2e727ca1e6c69d4014daddf4",
                    "indexes": {
                        "data": 0,
                        "gas": 0,
                        "value": 0
                    }
                }
            ]
        }
    }
}