{
    "Create2OOGafterInitCodeRevert2": {
        "_info": {
            "comment": "Calls a contract that runs CREATE2 which deploy a code. then after deployment and exiting from CREATE a REVERT is called. check the REVERT data in this case equal to RETURN value of CREATE2. CREATE2 fails due to the deployment cost.",
            "filling-rpc-server": "evm version 1.10.16-unstable-0f893109-20220105",
            "filling-tool-version": "retesteth-0.2.2-testinfo+commit.01c6aac2.Linux.g++",
            "filledWith": "CoreGeth-1.12.9-unstable-3995a327f2ded5c98324b03792b5ccc22557754f",
            "lllcversion": "Version: 0.5.14-develop.2021.11.27+commit.401d5358.Linux.g++",
            "source": "src/GeneralStateTestsFiller/stCreate2/Create2OOGafterInitCodeRevert2Filler.json",
            "sourceHash": "bd6502a8430419d028297c11333e75001866db6204c715a93b1467827ed17866"
        },
        "env": {
            "currentCoinbase": "0x2adc25665018aa1fe0e6bc666dac8fc2697ff9ba",
            "currentDifficulty": "0x20000",
            "currentGasLimit": "0x989680",
            "currentNumber": "0x1",
            "currentTimestamp": "0x3e8",
            "currentBaseFee": "0xa",
            "previousHash": "0x5e20a0453cecd065ea59c37ac63e079ee08998b6045136a8ce6635c7912ec0b6"
        },
        "pre": {
            "0xa94f5374fce5edbc8e2a8697c15331677e6ebf0b": {
                "balance": "0xe8d4a51000"
            },
            "0xb94f5374fce5edbc8e2a8697c15331677e6ebf0b": {
                "code": "0x6d6460016001556000526005601bf36000526000600e60126000f55060206000fd00",
                "balance": "0x0"
            },
            "0xc94f5374fce5edbc8e2a8697c15331677e6ebf0b": {
                "code": "0x6020600060006000600073b94f5374fce5edbc8e2a8697c15331677e6ebf0b6180e8f15060005160015500",
                "storage": {
                    "0x0000000000000000000000000000000000000000000000000000000000000001": "0x0000000000000000000000000000000000000000000000000000000000000001"
                },
                "balance": "0x0"
            }
        },
        "transaction": {
            "gasPrice": "0xa",
            "nonce": "0x0",
            "to": "0xc94f5374fce5edbc8e2a8697c15331677e6ebf0b",
            "data": [
                "0x"
            ],
            "gasLimit": [
                "0x124f8"
            ],
            "value": [
                "0x00"
            ],
            "secretKey": "0x45a915e4d060149eb4365960e6a7a45f334393093061116b197e3240065ff2d8",
            "sender": "0xa94f5374fce5edbc8e2a8697c15331677e6ebf0b"
        },
        "post": {
            "ETC_Magneto": [
                {
                    "hash": "513e37a64b839a4805ae1c22f8f3a47f73965aa44f70ce90c3e8b6f459a29ed9",
                    "logs": "1dcc4de8dec75d7aab85b567b6ccd41ad312451b948a7413f0a142fd40d49347",
                    "txbytes": "0xf860800a830124f894c94f5374fce5edbc8e2a8697c15331677e6ebf0b80801ca04ee610959d952713c71c18dcc4cb0a30bf4ffe5a94bf307b54c56aedbd6ba85da03759dc3d37a0f6c536c851b280ffbc48b50dee61b20f749a6ebe66d67ba7eccc",
                    "indexes": {
                        "data": 0,
                        "gas": 0,
                        "value": 0
                    }
                }
            ],
            "ETC_Mystique": [
                {
                    "hash": "513e37a64b839a4805ae1c22f8f3a47f73965aa44f70ce90c3e8b6f459a29ed9",
                    "logs": "1dcc4de8dec75d7aab85b567b6ccd41ad312451b948a7413f0a142fd40d49347",
                    "txbytes": "0xf860800a830124f894c94f5374fce5edbc8e2a8697c15331677e6ebf0b80801ca04ee610959d952713c71c18dcc4cb0a30bf4ffe5a94bf307b54c56aedbd6ba85da03759dc3d37a0f6c536c851b280ffbc48b50dee61b20f749a6ebe66d67ba7eccc",
                    "indexes": {
                        "data": 0,
                        "gas": 0,
                        "value": 0
                    }
                }
            ],
            "ETC_Phoenix": [
                {
                    "hash": "04ccb4de56342bce936a32b30491dc02a74c1f4aada1d727c9ed6aa348e2ae2e",
                    "logs": "1dcc4de8dec75d7aab85b567b6ccd41ad312451b948a7413f0a142fd40d49347",
                    "txbytes": "0xf860800a830124f894c94f5374fce5edbc8e2a8697c15331677e6ebf0b80801ca04ee610959d952713c71c18dcc4cb0a30bf4ffe5a94bf307b54c56aedbd6ba85da03759dc3d37a0f6c536c851b280ffbc48b50dee61b20f749a6ebe66d67ba7eccc",
                    "indexes": {
                        "data": 0,
                        "gas": 0,
                        "value": 0
                    }
                }
            ]
        }
    }
}