{
    "CREATE2_ContractSuicideDuringInit_ThenStoreThenReturn": {
        "_info": {
            "comment": "",
            "filling-rpc-server": "evm version 1.10.16-unstable-0f893109-20220105",
            "filling-tool-version": "retesteth-0.2.2-testinfo+commit.01c6aac2.Linux.g++",
            "filledWith": "CoreGeth-1.12.9-unstable-4cf5b2b0837228e7d5eadba6a01ffb80e9288e21",
            "lllcversion": "Version: 0.5.14-develop.2021.11.27+commit.401d5358.Linux.g++",
            "source": "src/GeneralStateTestsFiller/stCreate2/CREATE2_ContractSuicideDuringInit_ThenStoreThenReturnFiller.json",
            "sourceHash": "1f5cce3d5ab95febadaa7de76c938353be40731a3f228ffd8f18c381f6ccd2d3"
        },
        "env": {
            "currentCoinbase": "0x2adc25665018aa1fe0e6bc666dac8fc2697ff9ba",
            "currentDifficulty": "0x20000",
            "currentGasLimit": "0x989680",
            "currentNumber": "0x1",
            "currentTimestamp": "0x3e8",
            "previousHash": "0x5e20a0453cecd065ea59c37ac63e079ee08998b6045136a8ce6635c7912ec0b6"
        },
        "pre": {
            "0xa94f5374fce5edbc8e2a8697c15331677e6ebf0b": {
                "code": "0x",
                "balance": "0xe8d4a51000",
                "nonce": "0x0"
            },
            "0xb94f5374fce5edbc8e2a8697c15331677e6ebf0b": {
                "code": "0x6020600060006000600173c94f5374fce5edbc8e2a8697c15331677e6ebf0b620249f0f15060005160015500",
                "balance": "0xe8d4a51000",
                "nonce": "0x0"
            },
            "0xc94f5374fce5edbc8e2a8697c15331677e6ebf0b": {
                "code": "0x746d64600c6000556000526005601bf36000526001ff60005260006015600b6001f550600b600055600e6012f300",
                "balance": "0xe8d4a51000",
                "nonce": "0x0"
            }
        },
        "transaction": {
            "gasPrice": "0xa",
            "nonce": "0x0",
            "to": "0xb94f5374fce5edbc8e2a8697c15331677e6ebf0b",
            "data": [
                "0x"
            ],
            "gasLimit": [
                "0x927c0"
            ],
            "value": [
                "0x0a"
            ],
            "secretKey": "0x45a915e4d060149eb4365960e6a7a45f334393093061116b197e3240065ff2d8",
            "sender": "0xa94f5374fce5edbc8e2a8697c15331677e6ebf0b"
        },
        "post": {
            "ETC_Magneto": [
                {
                    "hash": "f87f13b2cdb82d7d92e90f8af34bb5d76ad2df8f62400ca37f82978cfb178031",
                    "logs": "1dcc4de8dec75d7aab85b567b6ccd41ad312451b948a7413f0a142fd40d49347",
                    "txbytes": "0xf860800a830927c094b94f5374fce5edbc8e2a8697c15331677e6ebf0b0a801ca06c4f36beba005bbfb53692899549a34d3c77554d8c89a3f80ad0ad5a78ce071da03378630efaaec2bf68883fd5879fcbeff2a508c6af95f7fe097d7481868b0f6f",
                    "indexes": {
                        "data": 0,
                        "gas": 0,
                        "value": 0
                    }
                }
            ],
            "ETC_Mystique": [
                {
                    "hash": "64667fd7fbafdc4addf1092520475a758ac46f444ec453c5d8cd3a6a6e2a7ffb",
                    "logs": "1dcc4de8dec75d7aab85b567b6ccd41ad312451b948a7413f0a142fd40d49347",
                    "txbytes": "0xf860800a830927c094b94f5374fce5edbc8e2a8697c15331677e6ebf0b0a801ca06c4f36beba005bbfb53692899549a34d3c77554d8c89a3f80ad0ad5a78ce071da03378630efaaec2bf68883fd5879fcbeff2a508c6af95f7fe097d7481868b0f6f",
                    "indexes": {
                        "data": 0,
                        "gas": 0,
                        "value": 0
                    }
                }
            ],
            "ETC_Phoenix": [
                {
                    "hash": "4c29c1a3f4dd69d929d98f6542cf555bae64aa6c3ff926f6183604b205d3f7a7",
                    "logs": "1dcc4de8dec75d7aab85b567b6ccd41ad312451b948a7413f0a142fd40d49347",
                    "txbytes": "0xf860800a830927c094b94f5374fce5edbc8e2a8697c15331677e6ebf0b0a801ca06c4f36beba005bbfb53692899549a34d3c77554d8c89a3f80ad0ad5a78ce071da03378630efaaec2bf68883fd5879fcbeff2a508c6af95f7fe097d7481868b0f6f",
                    "indexes": {
                        "data": 0,
                        "gas": 0,
                        "value": 0
                    }
                }
            ]
        }
    }
}