{
    "create2checkFieldsInInitcode": {
        "_info": {
            "comment": "Check opcode values in create2 init code. Create2 called with different call types. CREATE2 inside CRETE2 inside CALL, CALLCODE, DELEGATECALL, STATICCALL \u003c\u003c test values of  SENDER,address and so on.",
            "filling-rpc-server": "evm version 1.10.16-unstable-0f893109-20220105",
            "filling-tool-version": "retesteth-0.2.2-testinfo+commit.01c6aac2.Linux.g++",
            "filledWith": "CoreGeth-1.12.9-unstable-d390462df9df233b60b4cd7a37db5b3043832022",
            "lllcversion": "Version: 0.5.14-develop.2021.11.27+commit.401d5358.Linux.g++",
            "source": "src/GeneralStateTestsFiller/stCreate2/create2checkFieldsInInitcodeFiller.json",
            "sourceHash": "48b55d7f1deb067d6bc51ab82433ec821b0e4d75a20855ddd84ee16e0798fcdd"
        },
        "env": {
            "currentCoinbase": "0x2adc25665018aa1fe0e6bc666dac8fc2697ff9ba",
            "currentDifficulty": "0x20000",
            "currentGasLimit": "0xf4240",
            "currentNumber": "0x1",
            "currentTimestamp": "0x3e8",
            "previousHash": "0x5e20a0453cecd065ea59c37ac63e079ee08998b6045136a8ce6635c7912ec0b6"
        },
        "pre": {
            "0x1000000000000000000000000000000000000000": {
                "code": "0x6000600060006000600073f0000000000000000000000000000000000000005af100",
                "balance": "0x0",
                "nonce": "0x0"
            },
            "0x1100000000000000000000000000000000000000": {
                "code": "0x6000602480601360003960006000f5500000fe6000600060006000600073f0000000000000000000000000000000000000005af1500000",
                "balance": "0x0",
                "nonce": "0x0"
            },
            "0x2000000000000000000000000000000000000000": {
                "code": "0x6000600060006000600073f0000000000000000000000000000000000000005af200",
                "balance": "0x0",
                "nonce": "0x0"
            },
            "0x2200000000000000000000000000000000000000": {
                "code": "0x6000602480601360003960006000f5500000fe6000600060006000600073f0000000000000000000000000000000000000005af2500000",
                "balance": "0x0",
                "nonce": "0x0"
            },
            "0x3000000000000000000000000000000000000000": {
                "code": "0x600060006000600073f0000000000000000000000000000000000000005af4500000",
                "balance": "0x0",
                "nonce": "0x0"
            },
            "0x3300000000000000000000000000000000000000": {
                "code": "0x6000602280601360003960006000f5500000fe600060006000600073f0000000000000000000000000000000000000005af4500000",
                "balance": "0x0",
                "nonce": "0x0"
            },
            "0x4000000000000000000000000000000000000000": {
                "code": "0x61010060006000600073f2000000000000000000000000000000000000005afa50600051600a5500",
                "balance": "0x0",
                "nonce": "0x0"
            },
            "0x4400000000000000000000000000000000000000": {
                "code": "0x6000602980601160003960006000f500fe61010060006000600073f2000000000000000000000000000000000000005afa50600051600a550000",
                "balance": "0x0",
                "nonce": "0x0"
            },
            "0xa94f5374fce5edbc8e2a8697c15331677e6ebf0b": {
                "code": "0x",
                "balance": "0x56bc75e2d63100000",
                "nonce": "0x0"
            },
            "0xb94f5374fce5edbc8e2a8697c15331677e6ebf0b": {
                "code": "0x600060006000600060006000355af100",
                "balance": "0x0",
                "nonce": "0x0"
            },
            "0xf000000000000000000000000000000000000000": {
                "code": "0x6000602380601360003960006000f5500000fe30600055303160015532600255336003553460045536600555386006553a6007550000",
                "balance": "0x0",
                "nonce": "0x0"
            },
            "0xf200000000000000000000000000000000000000": {
                "code": "0x6000602980601160003960006000f500fe3060005230316020523260405233606052346080523660a0523860c0523a60e0526101006000f30000",
                "balance": "0x0",
                "nonce": "0x0"
            }
        },
        "transaction": {
            "gasPrice": "0xa",
            "nonce": "0x0",
            "to": "0xb94f5374fce5edbc8e2a8697c15331677e6ebf0b",
            "data": [
                "0x0000000000000000000000001000000000000000000000000000000000000000",
                "0x0000000000000000000000002000000000000000000000000000000000000000",
                "0x0000000000000000000000003000000000000000000000000000000000000000",
                "0x0000000000000000000000004000000000000000000000000000000000000000",
                "0x0000000000000000000000001100000000000000000000000000000000000000",
                "0x0000000000000000000000002200000000000000000000000000000000000000",
                "0x0000000000000000000000003300000000000000000000000000000000000000",
                "0x0000000000000000000000004400000000000000000000000000000000000000"
            ],
            "gasLimit": [
                "0x927c0"
            ],
            "value": [
                "0x00"
            ],
            "secretKey": "0x45a915e4d060149eb4365960e6a7a45f334393093061116b197e3240065ff2d8",
            "sender": "0xa94f5374fce5edbc8e2a8697c15331677e6ebf0b"
        },
        "post": {
            "ETC_Magneto": [
                {
                    "hash": "47b80c6422f0064c4dd28d00f46d8f156c9d9efafba568104bd41c640ed1094d",
                    "logs": "1dcc4de8dec75d7aab85b567b6ccd41ad312451b948a7413f0a142fd40d49347",
                    "txbytes": "0xf880800a830927c094b94f5374fce5edbc8e2a8697c15331677e6ebf0b80a000000000000000000000000010000000000000000000000000000000000000001ba092e0fcd058d4b85225a10761e789854e1a2f632ace6376263f4b7a3edebfb345a06a083dd7caf9fa691e76d85a4a95565e877b426d21f04e5d8d5061fd8c5693b8",
                    "indexes": {
                        "data": 0,
                        "gas": 0,
                        "value": 0
                    }
                },
                {
                    "hash": "9b78d6dd4c754a108a08d52c1e81933ca2b14587a829843d3c5a80501160f658",
                    "logs": "1dcc4de8dec75d7aab85b567b6ccd41ad312451b948a7413f0a142fd40d49347",
                    "txbytes": "0xf880800a830927c094b94f5374fce5edbc8e2a8697c15331677e6ebf0b80a000000000000000000000000011000000000000000000000000000000000000001ca0faff47f3ec955e7929e5e85292e97ffe6df833b8e2f0785e5823e0638d910fa5a079c7d527142532ad026cd394e931fe48588eb8eab83970ab7f8f13fcdafaa47d",
                    "indexes": {
                        "data": 4,
                        "gas": 0,
                        "value": 0
                    }
                },
                {
                    "hash": "c814263c96097b0fb75e2682a0c34b6df5fe681a173bf542703ad2960417e806",
                    "logs": "1dcc4de8dec75d7aab85b567b6ccd41ad312451b948a7413f0a142fd40d49347",
                    "txbytes": "0xf880800a830927c094b94f5374fce5edbc8e2a8697c15331677e6ebf0b80a000000000000000000000000020000000000000000000000000000000000000001ca0accb5cb80609e3415a62bfd56199efbd1994c36753fc08b2cee00b12d76c2afda02b3c388b1ac736e4d0eb6aa23b992de3c62a43cde9ee4121d5581e73b1c2a45f",
                    "indexes": {
                        "data": 1,
                        "gas": 0,
                        "value": 0
                    }
                },
                {
                    "hash": "e22275872eeaa33032e42c37ada55209c4f72bf61dfd343a6d0ca3ca346c17c8",
                    "logs": "1dcc4de8dec75d7aab85b567b6ccd41ad312451b948a7413f0a142fd40d49347",
                    "txbytes": "0xf880800a830927c094b94f5374fce5edbc8e2a8697c15331677e6ebf0b80a000000000000000000000000030000000000000000000000000000000000000001ca083b6e9f8bb4eab2dccd63b75555f3ada1aa16773e449f97d6043e36ed0adb7fba02645041185ca66cc1853467d6c408fe005a5726c9c15b43ef3f2bec9c3b149b4",
                    "indexes": {
                        "data": 2,
                        "gas": 0,
                        "value": 0
                    }
                },
                {
                    "hash": "148a2eec513649e3f6f5f4636d6311274d912ba5ab6b98eea77db81c1eb6ccdf",
                    "logs": "1dcc4de8dec75d7aab85b567b6ccd41ad312451b948a7413f0a142fd40d49347",
                    "txbytes": "0xf880800a830927c094b94f5374fce5edbc8e2a8697c15331677e6ebf0b80a000000000000000000000000040000000000000000000000000000000000000001ba09a9d73dd08e2888a4e34a6d468131ffb363ed4652c76eef4f6a897c74976336ca03a3acb68a8dc39e6c791fddd58808d1b8dc76024cb8092b49655b0cd68a70ab6",
                    "indexes": {
                        "data": 3,
                        "gas": 0,
                        "value": 0
                    }
                },
                {
                    "hash": "bf05d2a657b60bfe80d4340eb2aad1abd288f8380e441fee818b1d048132cf95",
                    "logs": "1dcc4de8dec75d7aab85b567b6ccd41ad312451b948a7413f0a142fd40d49347",
                    "txbytes": "0xf880800a830927c094b94f5374fce5edbc8e2a8697c15331677e6ebf0b80a000000000000000000000000044000000000000000000000000000000000000001ba071034faabbc8a12cdf96568acc481fc62d0fc3a98ec00eb4a087642c85cb77f7a04df7e2b5b6adead9cb30ebc7fb75cd25cf76f104e3f876bc8478ef5e65bb5d54",
                    "indexes": {
                        "data": 7,
                        "gas": 0,
                        "value": 0
                    }
                },
                {
                    "hash": "066cb8d1ff835678ddb9c8155de3582599f33da12cc59d96291c9bbac157793e",
                    "logs": "1dcc4de8dec75d7aab85b567b6ccd41ad312451b948a7413f0a142fd40d49347",
                    "txbytes": "0xf880800a830927c094b94f5374fce5edbc8e2a8697c15331677e6ebf0b80a000000000000000000000000022000000000000000000000000000000000000001ca07cab38ae45e8d3eac243651ad505dd646b099f24202bd94131a7f2dd1a1087e2a01c0c912cb7d4fbc7b120bd30f3edd3d829fc42dea81c2bab88158bb3e8434fba",
                    "indexes": {
                        "data": 5,
                        "gas": 0,
                        "value": 0
                    }
                },
                {
                    "hash": "082623b116ef896f3354779c2d7d42a7fd0a2115722841f5710b8d1ca4248f11",
                    "logs": "1dcc4de8dec75d7aab85b567b6ccd41ad312451b948a7413f0a142fd40d49347",
                    "txbytes": "0xf880800a830927c094b94f5374fce5edbc8e2a8697c15331677e6ebf0b80a000000000000000000000000033000000000000000000000000000000000000001ba08a84edb4ab002bf96f27a0112a0c97ef3ca0315dc502c764296e90b87bb8b1a4a0733928e61774a037674b9bf7e653d5bb995861a95822e85e137bfce4ae54b36d",
                    "indexes": {
                        "data": 6,
                        "gas": 0,
                        "value": 0
                    }
                }
            ],
            "ETC_Mystique": [
                {
                    "hash": "47b80c6422f0064c4dd28d00f46d8f156c9d9efafba568104bd41c640ed1094d",
                    "logs": "1dcc4de8dec75d7aab85b567b6ccd41ad312451b948a7413f0a142fd40d49347",
                    "txbytes": "0xf880800a830927c094b94f5374fce5edbc8e2a8697c15331677e6ebf0b80a000000000000000000000000010000000000000000000000000000000000000001ba092e0fcd058d4b85225a10761e789854e1a2f632ace6376263f4b7a3edebfb345a06a083dd7caf9fa691e76d85a4a95565e877b426d21f04e5d8d5061fd8c5693b8",
                    "indexes": {
                        "data": 0,
                        "gas": 0,
                        "value": 0
                    }
                },
                {
                    "hash": "9b78d6dd4c754a108a08d52c1e81933ca2b14587a829843d3c5a80501160f658",
                    "logs": "1dcc4de8dec75d7aab85b567b6ccd41ad312451b948a7413f0a142fd40d49347",
                    "txbytes": "0xf880800a830927c094b94f5374fce5edbc8e2a8697c15331677e6ebf0b80a000000000000000000000000011000000000000000000000000000000000000001ca0faff47f3ec955e7929e5e85292e97ffe6df833b8e2f0785e5823e0638d910fa5a079c7d527142532ad026cd394e931fe48588eb8eab83970ab7f8f13fcdafaa47d",
                    "indexes": {
                        "data": 4,
                        "gas": 0,
                        "value": 0
                    }
                },
                {
                    "hash": "c814263c96097b0fb75e2682a0c34b6df5fe681a173bf542703ad2960417e806",
                    "logs": "1dcc4de8dec75d7aab85b567b6ccd41ad312451b948a7413f0a142fd40d49347",
                    "txbytes": "0xf880800a830927c094b94f5374fce5edbc8e2a8697c15331677e6ebf0b80a000000000000000000000000020000000000000000000000000000000000000001ca0accb5cb80609e3415a62bfd56199efbd1994c36753fc08b2cee00b12d76c2afda02b3c388b1ac736e4d0eb6aa23b992de3c62a43cde9ee4121d5581e73b1c2a45f",
                    "indexes": {
                        "data": 1,
                        "gas": 0,
                        "value": 0
                    }
                },
                {
                    "hash": "e22275872eeaa33032e42c37ada55209c4f72bf61dfd343a6d0ca3ca346c17c8",
                    "logs": "1dcc4de8dec75d7aab85b567b6ccd41ad312451b948a7413f0a142fd40d49347",
                    "txbytes": "0xf880800a830927c094b94f5374fce5edbc8e2a8697c15331677e6ebf0b80a000000000000000000000000030000000000000000000000000000000000000001ca083b6e9f8bb4eab2dccd63b75555f3ada1aa16773e449f97d6043e36ed0adb7fba02645041185ca66cc1853467d6c408fe005a5726c9c15b43ef3f2bec9c3b149b4",
                    "indexes": {
                        "data": 2,
                        "gas": 0,
                        "value": 0
                    }
                },
                {
                    "hash": "148a2eec513649e3f6f5f4636d6311274d912ba5ab6b98eea77db81c1eb6ccdf",
                    "logs": "1dcc4de8dec75d7aab85b567b6ccd41ad312451b948a7413f0a142fd40d49347",
                    "txbytes": "0xf880800a830927c094b94f5374fce5edbc8e2a8697c15331677e6ebf0b80a000000000000000000000000040000000000000000000000000000000000000001ba09a9d73dd08e2888a4e34a6d468131ffb363ed4652c76eef4f6a897c74976336ca03a3acb68a8dc39e6c791fddd58808d1b8dc76024cb8092b49655b0cd68a70ab6",
                    "indexes": {
                        "data": 3,
                        "gas": 0,
                        "value": 0
                    }
                },
                {
                    "hash": "bf05d2a657b60bfe80d4340eb2aad1abd288f8380e441fee818b1d048132cf95",
                    "logs": "1dcc4de8dec75d7aab85b567b6ccd41ad312451b948a7413f0a142fd40d49347",
                    "txbytes": "0xf880800a830927c094b94f5374fce5edbc8e2a8697c15331677e6ebf0b80a000000000000000000000000044000000000000000000000000000000000000001ba071034faabbc8a12cdf96568acc481fc62d0fc3a98ec00eb4a087642c85cb77f7a04df7e2b5b6adead9cb30ebc7fb75cd25cf76f104e3f876bc8478ef5e65bb5d54",
                    "indexes": {
                        "data": 7,
                        "gas": 0,
                        "value": 0
                    }
                },
                {
                    "hash": "066cb8d1ff835678ddb9c8155de3582599f33da12cc59d96291c9bbac157793e",
                    "logs": "1dcc4de8dec75d7aab85b567b6ccd41ad312451b948a7413f0a142fd40d49347",
                    "txbytes": "0xf880800a830927c094b94f5374fce5edbc8e2a8697c15331677e6ebf0b80a000000000000000000000000022000000000000000000000000000000000000001ca07cab38ae45e8d3eac243651ad505dd646b099f24202bd94131a7f2dd1a1087e2a01c0c912cb7d4fbc7b120bd30f3edd3d829fc42dea81c2bab88158bb3e8434fba",
                    "indexes": {
                        "data": 5,
                        "gas": 0,
                        "value": 0
                    }
                },
                {
                    "hash": "082623b116ef896f3354779c2d7d42a7fd0a2115722841f5710b8d1ca4248f11",
                    "logs": "1dcc4de8dec75d7aab85b567b6ccd41ad312451b948a7413f0a142fd40d49347",
                    "txbytes": "0xf880800a830927c094b94f5374fce5edbc8e2a8697c15331677e6ebf0b80a000000000000000000000000033000000000000000000000000000000000000001ba08a84edb4ab002bf96f27a0112a0c97ef3ca0315dc502c764296e90b87bb8b1a4a0733928e61774a037674b9bf7e653d5bb995861a95822e85e137bfce4ae54b36d",
                    "indexes": {
                        "data": 6,
                        "gas": 0,
                        "value": 0
                    }
                }
            ],
            "ETC_Phoenix": [
                {
                    "hash": "e44a9044457732e17bf28d60b8dd4fdf934efb1a79c89b148f84a25d9206a109",
                    "logs": "1dcc4de8dec75d7aab85b567b6ccd41ad312451b948a7413f0a142fd40d49347",
                    "txbytes": "0xf880800a830927c094b94f5374fce5edbc8e2a8697c15331677e6ebf0b80a000000000000000000000000010000000000000000000000000000000000000001ba092e0fcd058d4b85225a10761e789854e1a2f632ace6376263f4b7a3edebfb345a06a083dd7caf9fa691e76d85a4a95565e877b426d21f04e5d8d5061fd8c5693b8",
                    "indexes": {
                        "data": 0,
                        "gas": 0,
                        "value": 0
                    }
                },
                {
                    "hash": "83b21feed1b7b66861ae9157c490000c1addac14a0cf912e3bf32209921501b4",
                    "logs": "1dcc4de8dec75d7aab85b567b6ccd41ad312451b948a7413f0a142fd40d49347",
                    "txbytes": "0xf880800a830927c094b94f5374fce5edbc8e2a8697c15331677e6ebf0b80a000000000000000000000000011000000000000000000000000000000000000001ca0faff47f3ec955e7929e5e85292e97ffe6df833b8e2f0785e5823e0638d910fa5a079c7d527142532ad026cd394e931fe48588eb8eab83970ab7f8f13fcdafaa47d",
                    "indexes": {
                        "data": 4,
                        "gas": 0,
                        "value": 0
                    }
                },
                {
                    "hash": "5bfd49dadf951776bb6cd3321ddcc0966f28fdc4b79f76aaa1e0539256ffe618",
                    "logs": "1dcc4de8dec75d7aab85b567b6ccd41ad312451b948a7413f0a142fd40d49347",
                    "txbytes": "0xf880800a830927c094b94f5374fce5edbc8e2a8697c15331677e6ebf0b80a000000000000000000000000020000000000000000000000000000000000000001ca0accb5cb80609e3415a62bfd56199efbd1994c36753fc08b2cee00b12d76c2afda02b3c388b1ac736e4d0eb6aa23b992de3c62a43cde9ee4121d5581e73b1c2a45f",
                    "indexes": {
                        "data": 1,
                        "gas": 0,
                        "value": 0
                    }
                },
                {
                    "hash": "c5605e792065f8a6f62d0e888ce54acfa9618aed7c93ab8f3cef1c588d71b9b5",
                    "logs": "1dcc4de8dec75d7aab85b567b6ccd41ad312451b948a7413f0a142fd40d49347",
                    "txbytes": "0xf880800a830927c094b94f5374fce5edbc8e2a8697c15331677e6ebf0b80a000000000000000000000000030000000000000000000000000000000000000001ca083b6e9f8bb4eab2dccd63b75555f3ada1aa16773e449f97d6043e36ed0adb7fba02645041185ca66cc1853467d6c408fe005a5726c9c15b43ef3f2bec9c3b149b4",
                    "indexes": {
                        "data": 2,
                        "gas": 0,
                        "value": 0
                    }
                },
                {
                    "hash": "6138f2121a0623bb9136d738b6f5d59a97a4cee2b27ed0d6e1dd3b975802d0d1",
                    "logs": "1dcc4de8dec75d7aab85b567b6ccd41ad312451b948a7413f0a142fd40d49347",
                    "txbytes": "0xf880800a830927c094b94f5374fce5edbc8e2a8697c15331677e6ebf0b80a000000000000000000000000040000000000000000000000000000000000000001ba09a9d73dd08e2888a4e34a6d468131ffb363ed4652c76eef4f6a897c74976336ca03a3acb68a8dc39e6c791fddd58808d1b8dc76024cb8092b49655b0cd68a70ab6",
                    "indexes": {
                        "data": 3,
                        "gas": 0,
                        "value": 0
                    }
                },
                {
                    "hash": "4ff519a1c487582a4af7d5761126566d574d4b1eb17cd0829627212a3e3aa4ec",
                    "logs": "1dcc4de8dec75d7aab85b567b6ccd41ad312451b948a7413f0a142fd40d49347",
                    "txbytes": "0xf880800a830927c094b94f5374fce5edbc8e2a8697c15331677e6ebf0b80a000000000000000000000000044000000000000000000000000000000000000001ba071034faabbc8a12cdf96568acc481fc62d0fc3a98ec00eb4a087642c85cb77f7a04df7e2b5b6adead9cb30ebc7fb75cd25cf76f104e3f876bc8478ef5e65bb5d54",
                    "indexes": {
                        "data": 7,
                        "gas": 0,
                        "value": 0
                    }
                },
                {
                    "hash": "72473360a395d2aac7f81cbc7fcd6066d836475113c24836f8f4f68c1701b674",
                    "logs": "1dcc4de8dec75d7aab85b567b6ccd41ad312451b948a7413f0a142fd40d49347",
                    "txbytes": "0xf880800a830927c094b94f5374fce5edbc8e2a8697c15331677e6ebf0b80a000000000000000000000000022000000000000000000000000000000000000001ca07cab38ae45e8d3eac243651ad505dd646b099f24202bd94131a7f2dd1a1087e2a01c0c912cb7d4fbc7b120bd30f3edd3d829fc42dea81c2bab88158bb3e8434fba",
                    "indexes": {
                        "data": 5,
                        "gas": 0,
                        "value": 0
                    }
                },
                {
                    "hash": "243d52efef9ed1b48f3dc61f0c279d7631ed252ff97823adc4ab9683b1ae712c",
                    "logs": "1dcc4de8dec75d7aab85b567b6ccd41ad312451b948a7413f0a142fd40d49347",
                    "txbytes": "0xf880800a830927c094b94f5374fce5edbc8e2a8697c15331677e6ebf0b80a000000000000000000000000033000000000000000000000000000000000000001ba08a84edb4ab002bf96f27a0112a0c97ef3ca0315dc502c764296e90b87bb8b1a4a0733928e61774a037674b9bf7e653d5bb995861a95822e85e137bfce4ae54b36d",
                    "indexes": {
                        "data": 6,
                        "gas": 0,
                        "value": 0
                    }
                }
            ]
        }
    }
}