{
    "Create2OOGFromCallRefunds": {
        "_info": {
            "comment": "",
            "filling-rpc-server": "evm version 1.10.16-unstable-0f893109-20220105",
            "filling-tool-version": "retesteth-0.2.2-testinfo+commit.01c6aac2.Linux.g++",
            "filledWith": "CoreGeth-1.12.9-unstable-4d59a861107c8232d6896811c48f229d30087be4",
            "lllcversion": "Version: 0.5.14-develop.2021.11.27+commit.401d5358.Linux.g++",
            "source": "src/GeneralStateTestsFiller/stCreate2/Create2OOGFromCallRefundsFiller.yml",
            "sourceHash": "fe6612a59a0ac4594a11d46ed430bf975a8466bf48fe0433bc8920de27000e8f",
            "labels": {
                "0": "SStore_Refund_NoOoG",
                "1": "SStore_Refund_OoG",
                "10": "SStore_Refund_OoG",
                "11": "SStore_Refund_OoG",
                "12": "SelfDestruct_Refund_NoOoG",
                "13": "SelfDestruct_Refund_OoG",
                "14": "SelfDestruct_Refund_OoG",
                "15": "LogOp_NoOoG",
                "16": "LogOp_OoG",
                "17": "LogOp_OoG",
                "18": "SStore_Create_Refund_NoOoG",
                "19": "SStore_Create_Refund_OoG",
                "2": "SStore_Refund_OoG",
                "20": "SStore_Create_Refund_OoG",
                "21": "SStore_Create2_Refund_NoOoG",
                "22": "SStore_Create2_Refund_OoG",
                "23": "SStore_Create2_Refund_OoG",
                "3": "SStore_Call_Refund_NoOoG",
                "4": "SStore_Refund_OoG",
                "5": "SStore_Refund_OoG",
                "6": "SStore_DelegateCall_Refund_NoOoG",
                "7": "SStore_Refund_OoG",
                "8": "SStore_Refund_OoG",
                "9": "SStore_CallCode_Refund_NoOoG"
            }
        },
        "env": {
            "currentCoinbase": "0x2adc25665018aa1fe0e6bc666dac8fc2697ff9ba",
            "currentDifficulty": "0x20000",
            "currentGasLimit": "0x100000000",
            "currentNumber": "0x1",
            "currentTimestamp": "0x3e8",
            "currentBaseFee": "0xa",
            "previousHash": "0x5e20a0453cecd065ea59c37ac63e079ee08998b6045136a8ce6635c7912ec0b6"
        },
        "pre": {
            "0x000000000000000000000000000000000000001a": {
                "code": "0x60016000556001600155600060015560016000f3",
                "balance": "0x0"
            },
            "0x000000000000000000000000000000000000001b": {
                "code": "0x6001600055600160015560006001556113886000f3",
                "balance": "0x0"
            },
            "0x000000000000000000000000000000000000001c": {
                "code": "0x600160005560016001556000600155fe",
                "balance": "0x0"
            },
            "0x000000000000000000000000000000000000002a": {
                "code": "0x600160005560006000600060006000620c0dea5af15060016000f3",
                "balance": "0x0"
            },
            "0x000000000000000000000000000000000000002b": {
                "code": "0x600160005560006000600060006000620c0dea5af1506113886000f3",
                "balance": "0x0"
            },
            "0x000000000000000000000000000000000000002c": {
                "code": "0x600160005560006000600060006000620c0dea5af150fe",
                "balance": "0x0"
            },
            "0x000000000000000000000000000000000000003a": {
                "code": "0x600160005560016001556000600060006000620c0dea5af45060016000f3",
                "balance": "0x0"
            },
            "0x000000000000000000000000000000000000003b": {
                "code": "0x600160005560016001556000600060006000620c0dea5af4506113886000f3",
                "balance": "0x0"
            },
            "0x000000000000000000000000000000000000003c": {
                "code": "0x600160005560016001556000600060006000620c0dea5af450fe",
                "balance": "0x0"
            },
            "0x000000000000000000000000000000000000004a": {
                "code": "0x6001600055600160015560006000600060006000620c0dea5af25060016000f3",
                "balance": "0x0"
            },
            "0x000000000000000000000000000000000000004b": {
                "code": "0x6001600055600160015560006000600060006000620c0dea5af2506113886000f3",
                "balance": "0x0"
            },
            "0x000000000000000000000000000000000000004c": {
                "code": "0x6001600055600160015560006000600060006000620c0dea5af250fe",
                "balance": "0x0"
            },
            "0x000000000000000000000000000000000000005a": {
                "code": "0x600160005560006000600060006000620c0ded5af15060016000f3",
                "balance": "0x0"
            },
            "0x000000000000000000000000000000000000005b": {
                "code": "0x600160005560006000600060006000620c0ded5af1506113886000f3",
                "balance": "0x0"
            },
            "0x000000000000000000000000000000000000005c": {
                "code": "0x600160005560006000600060006000620c0ded5af150fe",
                "balance": "0x0"
            },
            "0x000000000000000000000000000000000000006a": {
                "code": "0x600160005560006000600060006000620c0de05af15060016000f3",
                "balance": "0x0"
            },
            "0x000000000000000000000000000000000000006b": {
                "code": "0x600160005560006000600060006000620c0de05af1506113886000f3",
                "balance": "0x0"
            },
            "0x000000000000000000000000000000000000006c": {
                "code": "0x600160005560006000600060006000620c0de05af150fe",
                "balance": "0x0"
            },
            "0x000000000000000000000000000000000000007a": {
                "code": "0x600160005560016001556000600155620c0de1803b8060006000843c8060006000f050600160018201f35050",
                "balance": "0x0"
            },
            "0x000000000000000000000000000000000000007b": {
                "code": "0x600160005560016001556000600155620c0de1803b8060006000843c8060006000f05061138860018201f35050",
                "balance": "0x0"
            },
            "0x000000000000000000000000000000000000007c": {
                "code": "0x600160005560016001556000600155620c0de1803b8060006000843c8060006000f050fe5050",
                "balance": "0x0"
            },
            "0x000000000000000000000000000000000000008a": {
                "code": "0x600160005560016001556000600155620c0de1803b8060006000843c60008160006000f550600160018201f35050",
                "balance": "0x0"
            },
            "0x000000000000000000000000000000000000008b": {
                "code": "0x600160005560016001556000600155620c0de1803b8060006000843c60008160006000f55061138860018201f35050",
                "balance": "0x0"
            },
            "0x000000000000000000000000000000000000008c": {
                "code": "0x600160005560016001556000600155620c0de1803b8060006000843c60008160006000f550fe5050",
                "balance": "0x0"
            },
            "0x00000000000000000000000000000000000c0de0": {
                "code": "0x60ff60005260206000a060fa60206000a160fb60fa60206000a260fc60fb60fa60206000a360fd60fc60fb60fa60206000a4",
                "storage": {
                    "0x0000000000000000000000000000000000000000000000000000000000000001": "0x0000000000000000000000000000000000000000000000000000000000000001"
                },
                "balance": "0x0",
                "nonce": "0x1"
            },
            "0x00000000000000000000000000000000000c0de1": {
                "code": "0x6001600055600060005560016000f3",
                "balance": "0x0",
                "nonce": "0x1"
            },
            "0x00000000000000000000000000000000000c0dea": {
                "code": "0x6000600155",
                "storage": {
                    "0x0000000000000000000000000000000000000000000000000000000000000001": "0x0000000000000000000000000000000000000000000000000000000000000001"
                },
                "balance": "0x0",
                "nonce": "0x1"
            },
            "0x00000000000000000000000000000000000c0ded": {
                "code": "0x32ff",
                "storage": {
                    "0x0000000000000000000000000000000000000000000000000000000000000001": "0x0000000000000000000000000000000000000000000000000000000000000001"
                },
                "balance": "0x0",
                "nonce": "0x1"
            },
            "0xa94f5374fce5edbc8e2a8697c15331677e6ebf0b": {
                "balance": "0x3d0900",
                "nonce": "0x1"
            },
            "0xaaaaaaaaaaaaaaaaaaaaaaaaaaaaaaaaaaaaaaaa": {
                "code": "0x600435803b8060006000843c60008160006000f56000811415601d57fe5b505050",
                "balance": "0x0",
                "nonce": "0x1"
            }
        },
        "transaction": {
            "gasPrice": "0xa",
            "nonce": "0x1",
            "to": "0xaaaaaaaaaaaaaaaaaaaaaaaaaaaaaaaaaaaaaaaa",
            "data": [
                "0x693c6139000000000000000000000000000000000000000000000000000000000000001a",
                "0x693c6139000000000000000000000000000000000000000000000000000000000000001b",
                "0x693c6139000000000000000000000000000000000000000000000000000000000000001c",
                "0x693c6139000000000000000000000000000000000000000000000000000000000000002a",
                "0x693c6139000000000000000000000000000000000000000000000000000000000000002b",
                "0x693c6139000000000000000000000000000000000000000000000000000000000000002c",
                "0x693c6139000000000000000000000000000000000000000000000000000000000000003a",
                "0x693c6139000000000000000000000000000000000000000000000000000000000000003b",
                "0x693c6139000000000000000000000000000000000000000000000000000000000000003c",
                "0x693c6139000000000000000000000000000000000000000000000000000000000000004a",
                "0x693c6139000000000000000000000000000000000000000000000000000000000000004b",
                "0x693c6139000000000000000000000000000000000000000000000000000000000000004c",
                "0x693c6139000000000000000000000000000000000000000000000000000000000000005a",
                "0x693c6139000000000000000000000000000000000000000000000000000000000000005b",
                "0x693c6139000000000000000000000000000000000000000000000000000000000000005c",
                "0x693c6139000000000000000000000000000000000000000000000000000000000000006a",
                "0x693c6139000000000000000000000000000000000000000000000000000000000000006b",
                "0x693c6139000000000000000000000000000000000000000000000000000000000000006c",
                "0x693c6139000000000000000000000000000000000000000000000000000000000000007a",
                "0x693c6139000000000000000000000000000000000000000000000000000000000000007b",
                "0x693c6139000000000000000000000000000000000000000000000000000000000000007c",
                "0x693c6139000000000000000000000000000000000000000000000000000000000000008a",
                "0x693c6139000000000000000000000000000000000000000000000000000000000000008b",
                "0x693c6139000000000000000000000000000000000000000000000000000000000000008c"
            ],
            "gasLimit": [
                "0x61a80"
            ],
            "value": [
                "0x00"
            ],
            "secretKey": "0x45a915e4d060149eb4365960e6a7a45f334393093061116b197e3240065ff2d8",
            "sender": "0xa94f5374fce5edbc8e2a8697c15331677e6ebf0b"
        },
        "post": {
            "ETC_Mystique": [
                {
                    "hash": "069908142d8100ca9a11287ddd75d79aadba049d1233fae06d73344a7d30b53c",
                    "logs": "1dcc4de8dec75d7aab85b567b6ccd41ad312451b948a7413f0a142fd40d49347",
                    "txbytes": "0xf884010a83061a8094aaaaaaaaaaaaaaaaaaaaaaaaaaaaaaaaaaaaaaaa80a4693c6139000000000000000000000000000000000000000000000000000000000000001a1ca070bcb72eed56a5588831f8c6cbcda0974e1d904c5e495303871c42df14f15c01a07024417319792be6c175e8747017162b874459eab1dd5cc19410f56dc240a86e",
                    "indexes": {
                        "data": 0,
                        "gas": 0,
                        "value": 0
                    }
                },
                {
                    "hash": "563b16c7b7781778dd4eb37480ad78510facfa1fbf04c1199ef41c5b1393bef6",
                    "logs": "1dcc4de8dec75d7aab85b567b6ccd41ad312451b948a7413f0a142fd40d49347",
                    "txbytes": "0xf884010a83061a8094aaaaaaaaaaaaaaaaaaaaaaaaaaaaaaaaaaaaaaaa80a4693c6139000000000000000000000000000000000000000000000000000000000000002a1ca048eec7d4d0137371efe1d31a588531e6642960a68cb261eb376d56abe0b5ffcba05356bdeb6b296fca34bd1e6343e085eba85876e8eab6f7c19a2c948bf1960597",
                    "indexes": {
                        "data": 3,
                        "gas": 0,
                        "value": 0
                    }
                },
                {
                    "hash": "3ea4658bc90225633ce80115018dad278ddaa442d89bb2134239565727025a1b",
                    "logs": "1dcc4de8dec75d7aab85b567b6ccd41ad312451b948a7413f0a142fd40d49347",
                    "txbytes": "0xf884010a83061a8094aaaaaaaaaaaaaaaaaaaaaaaaaaaaaaaaaaaaaaaa80a4693c6139000000000000000000000000000000000000000000000000000000000000003a1ba01e96931983f821a92346f5a55fd274ace08deedf7a7bd7e61f49ed9e2054492ca0796faeedf5a21fb39b249bf8c2b90daa54fc39aea537831f904285c497cf0eba",
                    "indexes": {
                        "data": 6,
                        "gas": 0,
                        "value": 0
                    }
                },
                {
                    "hash": "06f3ca9f0d1183ee165133cdc50dd0dcc6cf8f1da10924ef6ce31f3c55da3fc9",
                    "logs": "1dcc4de8dec75d7aab85b567b6ccd41ad312451b948a7413f0a142fd40d49347",
                    "txbytes": "0xf884010a83061a8094aaaaaaaaaaaaaaaaaaaaaaaaaaaaaaaaaaaaaaaa80a4693c6139000000000000000000000000000000000000000000000000000000000000004a1ca052bae81fc55ca75a81930ae9c046ec43927f5151087949995909139c777f2ab8a050973624f0040b27adf98a53922d8df95c9ffc45e27ed823ab042e49da5f5c5f",
                    "indexes": {
                        "data": 9,
                        "gas": 0,
                        "value": 0
                    }
                },
                {
                    "hash": "dc9198171fa4ad35407d6c23dcf964ee61e115ff7689d1c251d5f836a289d025",
                    "logs": "1dcc4de8dec75d7aab85b567b6ccd41ad312451b948a7413f0a142fd40d49347",
                    "txbytes": "0xf884010a83061a8094aaaaaaaaaaaaaaaaaaaaaaaaaaaaaaaaaaaaaaaa80a4693c6139000000000000000000000000000000000000000000000000000000000000001b1ba06ab44fed4e53c46801e028bac1ca8bf7b15b184894dc120364028e003dce6a74a05c07661295c9dae2ccc9c0947e564193791341d12c6b72c0ea41bd7ccbdacc19",
                    "indexes": {
                        "data": 1,
                        "gas": 0,
                        "value": 0
                    }
                },
                {
                    "hash": "dc9198171fa4ad35407d6c23dcf964ee61e115ff7689d1c251d5f836a289d025",
                    "logs": "1dcc4de8dec75d7aab85b567b6ccd41ad312451b948a7413f0a142fd40d49347",
                    "txbytes": "0xf884010a83061a8094aaaaaaaaaaaaaaaaaaaaaaaaaaaaaaaaaaaaaaaa80a4693c6139000000000000000000000000000000000000000000000000000000000000001c1ca059dbf78995bd06effed569cfbbe4ce1b06fa08a12f173292445ba7423c44f37ba010b2e8203524e23bc1f8bbcaa0057db743b14cff045015d53a4b1295713ec410",
                    "indexes": {
                        "data": 2,
                        "gas": 0,
                        "value": 0
                    }
                },
                {
                    "hash": "dc9198171fa4ad35407d6c23dcf964ee61e115ff7689d1c251d5f836a289d025",
                    "logs": "1dcc4de8dec75d7aab85b567b6ccd41ad312451b948a7413f0a142fd40d49347",
                    "txbytes": "0xf884010a83061a8094aaaaaaaaaaaaaaaaaaaaaaaaaaaaaaaaaaaaaaaa80a4693c6139000000000000000000000000000000000000000000000000000000000000002b1ca0ad72f77cce4899b3a6902bab08e94bd732bc7b814d72325228735263eb19cdb8a0575175c197dffc5b0ee5790e71d8fa31d4f3e4fdfeff482ae8ef9fe3c6e54522",
                    "indexes": {
                        "data": 4,
                        "gas": 0,
                        "value": 0
                    }
                },
                {
                    "hash": "dc9198171fa4ad35407d6c23dcf964ee61e115ff7689d1c251d5f836a289d025",
                    "logs": "1dcc4de8dec75d7aab85b567b6ccd41ad312451b948a7413f0a142fd40d49347",
                    "txbytes": "0xf884010a83061a8094aaaaaaaaaaaaaaaaaaaaaaaaaaaaaaaaaaaaaaaa80a4693c6139000000000000000000000000000000000000000000000000000000000000002c1ba0c60f8a22a089f7044cd4251fcafe28c2d703572a4c41ae7ca4b78baf9d297ef1a07a59ebc9521af3f715bc0f6ebcac80ae9d90a3ebd4ad914998ace1bc3fcd834e",
                    "indexes": {
                        "data": 5,
                        "gas": 0,
                        "value": 0
                    }
                },
                {
                    "hash": "dc9198171fa4ad35407d6c23dcf964ee61e115ff7689d1c251d5f836a289d025",
                    "logs": "1dcc4de8dec75d7aab85b567b6ccd41ad312451b948a7413f0a142fd40d49347",
                    "txbytes": "0xf884010a83061a8094aaaaaaaaaaaaaaaaaaaaaaaaaaaaaaaaaaaaaaaa80a4693c6139000000000000000000000000000000000000000000000000000000000000003b1ba05059601f018c434e81b83f902f01bb1e908ec63dc727d637d4b5051b2e3e2be6a0514ee25a20996db1e02bd66dafc89ed7f737475a7c602eef6ae6ca49869abc41",
                    "indexes": {
                        "data": 7,
                        "gas": 0,
                        "value": 0
                    }
                },
                {
                    "hash": "dc9198171fa4ad35407d6c23dcf964ee61e115ff7689d1c251d5f836a289d025",
                    "logs": "1dcc4de8dec75d7aab85b567b6ccd41ad312451b948a7413f0a142fd40d49347",
                    "txbytes": "0xf884010a83061a8094aaaaaaaaaaaaaaaaaaaaaaaaaaaaaaaaaaaaaaaa80a4693c6139000000000000000000000000000000000000000000000000000000000000003c1ba0f4c0d249aa55f163f50eadce5a45fdf491cc5ff77f5dbc02235d662b65b5b085a02eb16749e638a66ddbd9db3cff3273ad7c9ee0142c474eb5313497b2db2085fb",
                    "indexes": {
                        "data": 8,
                        "gas": 0,
                        "value": 0
                    }
                },
                {
                    "hash": "dc9198171fa4ad35407d6c23dcf964ee61e115ff7689d1c251d5f836a289d025",
                    "logs": "1dcc4de8dec75d7aab85b567b6ccd41ad312451b948a7413f0a142fd40d49347",
                    "txbytes": "0xf884010a83061a8094aaaaaaaaaaaaaaaaaaaaaaaaaaaaaaaaaaaaaaaa80a4693c6139000000000000000000000000000000000000000000000000000000000000004b1ca018b167e45ad25dfbe2d88da2e9495565d3c3cb45c6c93929f516c97bdd2ee4cea077e061be6ab8edd543451b2a4b55585e5f146a8c64e3f6b1d198354b08fb540c",
                    "indexes": {
                        "data": 10,
                        "gas": 0,
                        "value": 0
                    }
                },
                {
                    "hash": "dc9198171fa4ad35407d6c23dcf964ee61e115ff7689d1c251d5f836a289d025",
                    "logs": "1dcc4de8dec75d7aab85b567b6ccd41ad312451b948a7413f0a142fd40d49347",
                    "txbytes": "0xf884010a83061a8094aaaaaaaaaaaaaaaaaaaaaaaaaaaaaaaaaaaaaaaa80a4693c6139000000000000000000000000000000000000000000000000000000000000004c1ba0f34b7543e37e6673ef4ed82a6e67c50cfbcac14df4b1d22bd141d9382845cd2da0673001f9a3d64bd976332dc71e4bac900ae1f9f35d4fa574f15b3f8d78f3c15b",
                    "indexes": {
                        "data": 11,
                        "gas": 0,
                        "value": 0
                    }
                },
                {
                    "hash": "7545c76f7d83b7dbcfe2187357046136f559daf63977697ca7f3d39a5a9216b9",
                    "logs": "1dcc4de8dec75d7aab85b567b6ccd41ad312451b948a7413f0a142fd40d49347",
                    "txbytes": "0xf884010a83061a8094aaaaaaaaaaaaaaaaaaaaaaaaaaaaaaaaaaaaaaaa80a4693c6139000000000000000000000000000000000000000000000000000000000000005a1ba02326f02241753388b17ff1f934662ea1be7760d9349f1ad1442d288723f16869a02549aa3e857e3976371fffc9f8751c918b2216aa4ad3403199476f0a9979792b",
                    "indexes": {
                        "data": 12,
                        "gas": 0,
                        "value": 0
                    }
                },
                {
                    "hash": "dc9198171fa4ad35407d6c23dcf964ee61e115ff7689d1c251d5f836a289d025",
                    "logs": "1dcc4de8dec75d7aab85b567b6ccd41ad312451b948a7413f0a142fd40d49347",
                    "txbytes": "0xf884010a83061a8094aaaaaaaaaaaaaaaaaaaaaaaaaaaaaaaaaaaaaaaa80a4693c6139000000000000000000000000000000000000000000000000000000000000005b1ca0a35affd0111dae4f57a2e98287194a359d86261fadf6c2b95322d4b612022f7da00542ec0c04d184ec78b90ac00164a19a9a60305d282fc6e902e0696d82ca6a59",
                    "indexes": {
                        "data": 13,
                        "gas": 0,
                        "value": 0
                    }
                },
                {
                    "hash": "dc9198171fa4ad35407d6c23dcf964ee61e115ff7689d1c251d5f836a289d025",
                    "logs": "1dcc4de8dec75d7aab85b567b6ccd41ad312451b948a7413f0a142fd40d49347",
                    "txbytes": "0xf884010a83061a8094aaaaaaaaaaaaaaaaaaaaaaaaaaaaaaaaaaaaaaaa80a4693c6139000000000000000000000000000000000000000000000000000000000000005c1ba0fabdaaf9bba33bcbad9bdbc98d1e581591d50729569f41ffa4f66bca4345116fa0684a05833c685e8ae9f6247995d4028bade2010f6e1fff63f4a0e0ced6810163",
                    "indexes": {
                        "data": 14,
                        "gas": 0,
                        "value": 0
                    }
                },
                {
                    "hash": "76a2d06ccfc6776057c58dd180d8572333bb3b4685b88a71f6a776aaf4707c9c",
                    "logs": "94fff771ace1df4cb19dd7f8872798185dda62dc009bace8942c0257ad867ac0",
                    "txbytes": "0xf884010a83061a8094aaaaaaaaaaaaaaaaaaaaaaaaaaaaaaaaaaaaaaaa80a4693c6139000000000000000000000000000000000000000000000000000000000000006a1ca037a1a296e5f9c69809343efc857c708a9051eb34347d653394b87a4c33adc51da048d965797cd2dd5f874a2d82f9f58b7644960118b6f3b2022130403c9ed693f3",
                    "indexes": {
                        "data": 15,
                        "gas": 0,
                        "value": 0
                    }
                },
                {
                    "hash": "dc9198171fa4ad35407d6c23dcf964ee61e115ff7689d1c251d5f836a289d025",
                    "logs": "1dcc4de8dec75d7aab85b567b6ccd41ad312451b948a7413f0a142fd40d49347",
                    "txbytes": "0xf884010a83061a8094aaaaaaaaaaaaaaaaaaaaaaaaaaaaaaaaaaaaaaaa80a4693c6139000000000000000000000000000000000000000000000000000000000000006b1ba060086193caae0fb638a753c9f8afea64f13b06de2fdbbb9cb7f17b98b624824ba01d369f6019a06b09738af8cccc0ef3540b3a877308f3f7ea3785a0a809b6dd8c",
                    "indexes": {
                        "data": 16,
                        "gas": 0,
                        "value": 0
                    }
                },
                {
                    "hash": "dc9198171fa4ad35407d6c23dcf964ee61e115ff7689d1c251d5f836a289d025",
                    "logs": "1dcc4de8dec75d7aab85b567b6ccd41ad312451b948a7413f0a142fd40d49347",
                    "txbytes": "0xf884010a83061a8094aaaaaaaaaaaaaaaaaaaaaaaaaaaaaaaaaaaaaaaa80a4693c6139000000000000000000000000000000000000000000000000000000000000006c1ca027496c52b3d0729f98f82c051da35cdab2845447342dc0ba21b1a4cbab6e0e3ba0632623b1767e7769ecc07b8901e85fae362a16c36ba3666d26d794a6bd9186e4",
                    "indexes": {
                        "data": 17,
                        "gas": 0,
                        "value": 0
                    }
                },
                {
                    "hash": "f3ea844af7bf8f19366967edc2416f6f404ca5a66a79976becaf4ba80d73110a",
                    "logs": "1dcc4de8dec75d7aab85b567b6ccd41ad312451b948a7413f0a142fd40d49347",
                    "txbytes": "0xf884010a83061a8094aaaaaaaaaaaaaaaaaaaaaaaaaaaaaaaaaaaaaaaa80a4693c6139000000000000000000000000000000000000000000000000000000000000007a1ba02cec418aaa59df7de799473117007f100033ebe96daca5a8c6d9473bda32f7b7a03b27e462bcfc90875f5149c36933cb3a55ec2c1d6021178d6ebb3fc6c0dc48c1",
                    "indexes": {
                        "data": 18,
                        "gas": 0,
                        "value": 0
                    }
                },
                {
                    "hash": "dc9198171fa4ad35407d6c23dcf964ee61e115ff7689d1c251d5f836a289d025",
                    "logs": "1dcc4de8dec75d7aab85b567b6ccd41ad312451b948a7413f0a142fd40d49347",
                    "txbytes": "0xf884010a83061a8094aaaaaaaaaaaaaaaaaaaaaaaaaaaaaaaaaaaaaaaa80a4693c6139000000000000000000000000000000000000000000000000000000000000007b1ba0684faf419978f3957e450b58b32d17ec736317a87472d9199c9e32176057d47ba0698dcabf4143984c9d8b5742abce59b44aaf84c4c7a0236b5af1ee97687fb237",
                    "indexes": {
                        "data": 19,
                        "gas": 0,
                        "value": 0
                    }
                },
                {
                    "hash": "dc9198171fa4ad35407d6c23dcf964ee61e115ff7689d1c251d5f836a289d025",
                    "logs": "1dcc4de8dec75d7aab85b567b6ccd41ad312451b948a7413f0a142fd40d49347",
                    "txbytes": "0xf884010a83061a8094aaaaaaaaaaaaaaaaaaaaaaaaaaaaaaaaaaaaaaaa80a4693c6139000000000000000000000000000000000000000000000000000000000000007c1ca05d829ef16e701405d2535a78b47af2ab8eac3fe35f48e59c7f9a7737e3e3cd50a024ba3da552153455a23f63b4cce1e575ebbc870412dd66d40366d2c9fff9965e",
                    "indexes": {
                        "data": 20,
                        "gas": 0,
                        "value": 0
                    }
                },
                {
                    "hash": "8998b8f5d2352cbfadd4255971de5d775f59ba4e32df811543dd73540f468719",
                    "logs": "1dcc4de8dec75d7aab85b567b6ccd41ad312451b948a7413f0a142fd40d49347",
                    "txbytes": "0xf884010a83061a8094aaaaaaaaaaaaaaaaaaaaaaaaaaaaaaaaaaaaaaaa80a4693c6139000000000000000000000000000000000000000000000000000000000000008a1ba0fbc726e508355f50cbd22e02289656eef4f70ee236d1d669bbdb80c9da3de2c8a0510b36dfaa898194b553c7342eea2fc50bc9fc597049f967e0e5d734210a5ad6",
                    "indexes": {
                        "data": 21,
                        "gas": 0,
                        "value": 0
                    }
                },
                {
                    "hash": "dc9198171fa4ad35407d6c23dcf964ee61e115ff7689d1c251d5f836a289d025",
                    "logs": "1dcc4de8dec75d7aab85b567b6ccd41ad312451b948a7413f0a142fd40d49347",
                    "txbytes": "0xf884010a83061a8094aaaaaaaaaaaaaaaaaaaaaaaaaaaaaaaaaaaaaaaa80a4693c6139000000000000000000000000000000000000000000000000000000000000008b1ca046994cb99c70ba11e650af9de1ac1db201603b38c7effa3522baac35560673a6a0720e9f2d68e7baa17a90dcf82e7076eb1ac991e12abcf0c8829797edc9a413d1",
                    "indexes": {
                        "data": 22,
                        "gas": 0,
                        "value": 0
                    }
                },
                {
                    "hash": "dc9198171fa4ad35407d6c23dcf964ee61e115ff7689d1c251d5f836a289d025",
                    "logs": "1dcc4de8dec75d7aab85b567b6ccd41ad312451b948a7413f0a142fd40d49347",
                    "txbytes": "0xf884010a83061a8094aaaaaaaaaaaaaaaaaaaaaaaaaaaaaaaaaaaaaaaa80a4693c6139000000000000000000000000000000000000000000000000000000000000008c1ba01c5e3d7761021238cbb02df3b27bf59f8e6f52d096da149f3ca129a382204f9ca0021831eac2c95f92717778ec5b286f8c9b52dbc1c0d5d01d95a20a03681d1b26",
                    "indexes": {
                        "data": 23,
                        "gas": 0,
                        "value": 0
                    }
                }
            ]
        }
    }
}