{
    "RevertDepthCreate2OOGBerlin": {
        "_info": {
            "comment": "",
            "filling-rpc-server": "evm version 1.10.16-unstable-0f893109-20220105",
            "filling-tool-version": "retesteth-0.2.2-testinfo+commit.01c6aac2.Linux.g++",
            "filledWith": "CoreGeth-1.12.9-unstable-d64998ce9b05f4f41b35740c69c4b402e41a3105",
            "lllcversion": "Version: 0.5.14-develop.2021.11.27+commit.401d5358.Linux.g++",
            "source": "src/GeneralStateTestsFiller/stCreate2/RevertDepthCreate2OOGBerlinFiller.json",
            "sourceHash": "d21a709e0542db8786bc671197107fd903231792663c1cec6ea528f9eb910c91"
        },
        "env": {
            "currentCoinbase": "0x2adc25665018aa1fe0e6bc666dac8fc2697ff9ba",
            "currentDifficulty": "0x20000",
            "currentGasLimit": "0x989680",
            "currentNumber": "0x1",
            "currentTimestamp": "0x3e8",
            "previousHash": "0x5e20a0453cecd065ea59c37ac63e079ee08998b6045136a8ce6635c7912ec0b6"
        },
        "pre": {
            "0xa000000000000000000000000000000000000000": {
                "code": "0x60016000556000600060006000600073b000000000000000000000000000000000000000600035f1600155600c60045500",
                "balance": "0x5",
                "nonce": "0x36"
            },
            "0xa94f5374fce5edbc8e2a8697c15331677e6ebf0b": {
                "balance": "0xe8d4a51000"
            },
            "0xb000000000000000000000000000000000000000": {
                "code": "0x60086002556000600060006000f550600c60035500",
                "balance": "0x0"
            }
        },
        "transaction": {
            "gasPrice": "0xa",
            "nonce": "0x0",
            "to": "0xa000000000000000000000000000000000000000",
            "data": [
                "0x000000000000000000000000000000000000000000000000000000000000ea60",
                "0x000000000000000000000000000000000000000000000000000000000001ea60"
            ],
            "gasLimit": [
                "0x1adb0",
                "0x29810"
            ],
            "value": [
                "0x01",
                "0x00"
            ],
            "secretKey": "0x45a915e4d060149eb4365960e6a7a45f334393093061116b197e3240065ff2d8",
            "sender": "0xa94f5374fce5edbc8e2a8697c15331677e6ebf0b"
        },
        "post": {
            "ETC_Magneto": [
                {
                    "hash": "59fb971b6bcb1cb8c804b00b42b654ce88bfc0081ffaebfeeb320240720c4646",
                    "logs": "1dcc4de8dec75d7aab85b567b6ccd41ad312451b948a7413f0a142fd40d49347",
                    "txbytes": "0xf880800a8302981094a00000000000000000000000000000000000000001a0000000000000000000000000000000000000000000000000000000000001ea601ba0a80cad0bed5f36632afaf668c6c5e78ab22d09a0e05fd3e62245b48312798b33a022c5a560e3a945c54671c11527538851a5b1c2c0ebcc142656200ba7b4120ee9",
                    "indexes": {
                        "data": 1,
                        "gas": 1,
                        "value": 0
                    }
                },
                {
                    "hash": "3be1b88191d943fa7be5d3e5f9472c31b3a4acdf5b1796f84cb3adf89f538113",
                    "logs": "1dcc4de8dec75d7aab85b567b6ccd41ad312451b948a7413f0a142fd40d49347",
                    "txbytes": "0xf880800a8302981094a00000000000000000000000000000000000000080a0000000000000000000000000000000000000000000000000000000000001ea601ca0d7337570a5a65fb7c49f51db71302ec6e59a778dd242d3ce860cfe7122da2d71a01728ab1164d219a15612e8eb45cf7a2763293371baf997ba0d8937e516515f60",
                    "indexes": {
                        "data": 1,
                        "gas": 1,
                        "value": 1
                    }
                },
                {
                    "hash": "e19110fbac9e5541f4a52fc8718ae5747f540f9e616def01b671c77f7af0e02b",
                    "logs": "1dcc4de8dec75d7aab85b567b6ccd41ad312451b948a7413f0a142fd40d49347",
                    "txbytes": "0xf880800a8302981094a00000000000000000000000000000000000000001a0000000000000000000000000000000000000000000000000000000000000ea601ba09a478435f62aaa53badb789cfed37cf4950fda6282eaa066b8d6f5382455d195a0416abfa3fb1d7e3a388757cefec065ff6da4567e6871d7432d1c4235f79cc328",
                    "indexes": {
                        "data": 0,
                        "gas": 1,
                        "value": 0
                    }
                },
                {
                    "hash": "e95555abdabd237d3e760847954082290efd9df350a2efa589383bbe9788d604",
                    "logs": "1dcc4de8dec75d7aab85b567b6ccd41ad312451b948a7413f0a142fd40d49347",
                    "txbytes": "0xf880800a8302981094a00000000000000000000000000000000000000080a0000000000000000000000000000000000000000000000000000000000000ea601ca0f7e49ce6c395866ca1e23dc51eed14e61f96c381d7fae53987dd527d881207c6a056556bd0f0c23c14681745d14467276f5b05e427d2baf91a50ae2d8abe0817eb",
                    "indexes": {
                        "data": 0,
                        "gas": 1,
                        "value": 1
                    }
                },
                {
                    "hash": "9412a244073c100d5d2c45bc1501cc049c289e895fff03f60f73d9b7cd291133",
                    "logs": "1dcc4de8dec75d7aab85b567b6ccd41ad312451b948a7413f0a142fd40d49347",
                    "txbytes": "0xf880800a8301adb094a00000000000000000000000000000000000000001a0000000000000000000000000000000000000000000000000000000000000ea601ba06aa61b617b4e38153705c272c5b19a531cff03d2d07d970389b225252e546113a04df41cd6c854a9bd5208d03fcbcb6401b3e867453610d047610e3066381fb374",
                    "indexes": {
                        "data": 0,
                        "gas": 0,
                        "value": 0
                    }
                },
                {
                    "hash": "9412a244073c100d5d2c45bc1501cc049c289e895fff03f60f73d9b7cd291133",
                    "logs": "1dcc4de8dec75d7aab85b567b6ccd41ad312451b948a7413f0a142fd40d49347",
                    "txbytes": "0xf880800a8301adb094a00000000000000000000000000000000000000080a0000000000000000000000000000000000000000000000000000000000000ea601ca0bed77bc32f00eba51a4c07ca1a2d7fd1d85147f60f04f5184079f103e4e77a78a03a851971798cd2b6acceb39036e948f91529728e1af3b3efb820c604d6a60ae3",
                    "indexes": {
                        "data": 0,
                        "gas": 0,
                        "value": 1
                    }
                },
                {
                    "hash": "9412a244073c100d5d2c45bc1501cc049c289e895fff03f60f73d9b7cd291133",
                    "logs": "1dcc4de8dec75d7aab85b567b6ccd41ad312451b948a7413f0a142fd40d49347",
                    "txbytes": "0xf880800a8301adb094a00000000000000000000000000000000000000001a0000000000000000000000000000000000000000000000000000000000001ea601ba0c8eb963f0d1fe5892d10f1831c9cbed04e5f137888e21337461e30556cb7ae32a03cb3e13756e6bfcf183c4e8218c7447c932f58d7b87e1b85008a2060f42511eb",
                    "indexes": {
                        "data": 1,
                        "gas": 0,
                        "value": 0
                    }
                },
                {
                    "hash": "9412a244073c100d5d2c45bc1501cc049c289e895fff03f60f73d9b7cd291133",
                    "logs": "1dcc4de8dec75d7aab85b567b6ccd41ad312451b948a7413f0a142fd40d49347",
                    "txbytes": "0xf880800a8301adb094a00000000000000000000000000000000000000080a0000000000000000000000000000000000000000000000000000000000001ea601ca022a1d331afb878b6e5bfdb493bd20aa5d3de94202b02f378482e57547b2d7d27a0287dc82d4030b7513e2a060def1e0afb8d549aaf03c5c5738c78348462d7295f",
                    "indexes": {
                        "data": 1,
                        "gas": 0,
                        "value": 1
                    }
                }
            ],
            "ETC_Mystique": [
                {
                    "hash": "59fb971b6bcb1cb8c804b00b42b654ce88bfc0081ffaebfeeb320240720c4646",
                    "logs": "1dcc4de8dec75d7aab85b567b6ccd41ad312451b948a7413f0a142fd40d49347",
                    "txbytes": "0xf880800a8302981094a00000000000000000000000000000000000000001a0000000000000000000000000000000000000000000000000000000000001ea601ba0a80cad0bed5f36632afaf668c6c5e78ab22d09a0e05fd3e62245b48312798b33a022c5a560e3a945c54671c11527538851a5b1c2c0ebcc142656200ba7b4120ee9",
                    "indexes": {
                        "data": 1,
                        "gas": 1,
                        "value": 0
                    }
                },
                {
                    "hash": "3be1b88191d943fa7be5d3e5f9472c31b3a4acdf5b1796f84cb3adf89f538113",
                    "logs": "1dcc4de8dec75d7aab85b567b6ccd41ad312451b948a7413f0a142fd40d49347",
                    "txbytes": "0xf880800a8302981094a00000000000000000000000000000000000000080a0000000000000000000000000000000000000000000000000000000000001ea601ca0d7337570a5a65fb7c49f51db71302ec6e59a778dd242d3ce860cfe7122da2d71a01728ab1164d219a15612e8eb45cf7a2763293371baf997ba0d8937e516515f60",
                    "indexes": {
                        "data": 1,
                        "gas": 1,
                        "value": 1
                    }
                },
                {
                    "hash": "e19110fbac9e5541f4a52fc8718ae5747f540f9e616def01b671c77f7af0e02b",
                    "logs": "1dcc4de8dec75d7aab85b567b6ccd41ad312451b948a7413f0a142fd40d49347",
                    "txbytes": "0xf880800a8302981094a00000000000000000000000000000000000000001a0000000000000000000000000000000000000000000000000000000000000ea601ba09a478435f62aaa53badb789cfed37cf4950fda6282eaa066b8d6f5382455d195a0416abfa3fb1d7e3a388757cefec065ff6da4567e6871d7432d1c4235f79cc328",
                    "indexes": {
                        "data": 0,
                        "gas": 1,
                        "value": 0
                    }
                },
                {
                    "hash": "e95555abdabd237d3e760847954082290efd9df350a2efa589383bbe9788d604",
                    "logs": "1dcc4de8dec75d7aab85b567b6ccd41ad312451b948a7413f0a142fd40d49347",
                    "txbytes": "0xf880800a8302981094a00000000000000000000000000000000000000080a0000000000000000000000000000000000000000000000000000000000000ea601ca0f7e49ce6c395866ca1e23dc51eed14e61f96c381d7fae53987dd527d881207c6a056556bd0f0c23c14681745d14467276f5b05e427d2baf91a50ae2d8abe0817eb",
                    "indexes": {
                        "data": 0,
                        "gas": 1,
                        "value": 1
                    }
                },
                {
                    "hash": "9412a244073c100d5d2c45bc1501cc049c289e895fff03f60f73d9b7cd291133",
                    "logs": "1dcc4de8dec75d7aab85b567b6ccd41ad312451b948a7413f0a142fd40d49347",
                    "txbytes": "0xf880800a8301adb094a00000000000000000000000000000000000000001a0000000000000000000000000000000000000000000000000000000000000ea601ba06aa61b617b4e38153705c272c5b19a531cff03d2d07d970389b225252e546113a04df41cd6c854a9bd5208d03fcbcb6401b3e867453610d047610e3066381fb374",
                    "indexes": {
                        "data": 0,
                        "gas": 0,
                        "value": 0
                    }
                },
                {
                    "hash": "9412a244073c100d5d2c45bc1501cc049c289e895fff03f60f73d9b7cd291133",
                    "logs": "1dcc4de8dec75d7aab85b567b6ccd41ad312451b948a7413f0a142fd40d49347",
                    "txbytes": "0xf880800a8301adb094a00000000000000000000000000000000000000080a0000000000000000000000000000000000000000000000000000000000000ea601ca0bed77bc32f00eba51a4c07ca1a2d7fd1d85147f60f04f5184079f103e4e77a78a03a851971798cd2b6acceb39036e948f91529728e1af3b3efb820c604d6a60ae3",
                    "indexes": {
                        "data": 0,
                        "gas": 0,
                        "value": 1
                    }
                },
                {
                    "hash": "9412a244073c100d5d2c45bc1501cc049c289e895fff03f60f73d9b7cd291133",
                    "logs": "1dcc4de8dec75d7aab85b567b6ccd41ad312451b948a7413f0a142fd40d49347",
                    "txbytes": "0xf880800a8301adb094a00000000000000000000000000000000000000001a0000000000000000000000000000000000000000000000000000000000001ea601ba0c8eb963f0d1fe5892d10f1831c9cbed04e5f137888e21337461e30556cb7ae32a03cb3e13756e6bfcf183c4e8218c7447c932f58d7b87e1b85008a2060f42511eb",
                    "indexes": {
                        "data": 1,
                        "gas": 0,
                        "value": 0
                    }
                },
                {
                    "hash": "9412a244073c100d5d2c45bc1501cc049c289e895fff03f60f73d9b7cd291133",
                    "logs": "1dcc4de8dec75d7aab85b567b6ccd41ad312451b948a7413f0a142fd40d49347",
                    "txbytes": "0xf880800a8301adb094a00000000000000000000000000000000000000080a0000000000000000000000000000000000000000000000000000000000001ea601ca022a1d331afb878b6e5bfdb493bd20aa5d3de94202b02f378482e57547b2d7d27a0287dc82d4030b7513e2a060def1e0afb8d549aaf03c5c5738c78348462d7295f",
                    "indexes": {
                        "data": 1,
                        "gas": 0,
                        "value": 1
                    }
                }
            ]
        }
    }
}