{
    "RevertDepthCreateAddressCollision": {
        "_info": {
            "comment": "copy of this test for CREATE2",
            "filling-rpc-server": "evm version 1.10.16-unstable-0f893109-20220105",
            "filling-tool-version": "retesteth-0.2.2-testinfo+commit.01c6aac2.Linux.g++",
            "filledWith": "CoreGeth-1.12.9-unstable-f4059ddd82d975bdc54fa648e5422a80172161cb",
            "lllcversion": "Version: 0.5.14-develop.2021.11.27+commit.401d5358.Linux.g++",
            "source": "src/GeneralStateTestsFiller/stCreate2/RevertDepthCreateAddressCollisionFiller.json",
            "sourceHash": "8e5a53f1a3379d3558229a4cf485db80f1456b1d867e759282bb1842ceda6a27"
        },
        "env": {
            "currentCoinbase": "2adc25665018aa1fe0e6bc666dac8fc2697ff9ba",
            "currentDifficulty": "0x20000",
            "currentRandom": null,
            "currentGasLimit": "0x989680",
            "currentNumber": "0x1",
            "currentTimestamp": "0x3e8",
            "currentBaseFee": "0xa"
        },
        "pre": {
            "0x3e180b1862f9d158abb5e519a6d8605540c23682": {
                "code": "0x60016000556000600060006000600073b000000000000000000000000000000000000000600035f1600155600c60045500",
                "balance": "0x5",
                "nonce": "0x36"
            },
            "0xa94f5374fce5edbc8e2a8697c15331677e6ebf0b": {
                "balance": "0xe8d4a51000"
            },
            "0xb000000000000000000000000000000000000000": {
                "code": "0x60086002556000600060006000f550600c60035500",
                "balance": "0x0"
            }
        },
        "transaction": {
            "gasPrice": "0xa",
            "maxFeePerGas": null,
            "maxPriorityFeePerGas": null,
            "nonce": "0x0",
            "to": "0x3e180b1862f9d158abb5e519a6d8605540c23682",
            "data": [
                "0x000000000000000000000000000000000000000000000000000000000000ea60",
                "0x000000000000000000000000000000000000000000000000000000000001ea60"
            ],
            "gasLimit": [
                "0x1adb0",
                "0x27100"
            ],
            "value": [
                "0x01",
                "0x00"
            ],
            "secretKey": "0x45a915e4d060149eb4365960e6a7a45f334393093061116b197e3240065ff2d8"
        },
        "out": "0x",
        "post": {
            "ETC_Phoenix": [
                {
                    "hash": "c50e71f366d71e2924e05afa1ebd7c3b91d17d060bab1b6c58c320948b78bb42",
                    "logs": "1dcc4de8dec75d7aab85b567b6ccd41ad312451b948a7413f0a142fd40d49347",
                    "txbytes": "0xf880800a83027100943e180b1862f9d158abb5e519a6d8605540c2368201a0000000000000000000000000000000000000000000000000000000000001ea601ca0268c803f60e42df404a73dd684695dc02c9b87dfacb7251759c2e65d538e871da03392af8aadc6dcfbe1c19886fbfbadb6a64ea0b73bbe45daf5b3c2b1ed070cb1",
                    "indexes": {
                        "data": 1,
                        "gas": 1,
                        "value": 0
                    }
                },
                {
                    "hash": "2abc5ea89c1494f11a3e19a4fb53eb7ae2e36627b8dac364c5e02b7deae2f4c7",
                    "logs": "1dcc4de8dec75d7aab85b567b6ccd41ad312451b948a7413f0a142fd40d49347",
                    "txbytes": "0xf880800a83027100943e180b1862f9d158abb5e519a6d8605540c2368280a0000000000000000000000000000000000000000000000000000000000001ea601ca05226210dc9dc93ed1604cbf44b3223d3ab0da36f9b41dfefb18b2ad02eeaa986a0283e727d29c9845fd81795ed2eadd8c49c2eba3a8093adbb605edc2a51e7df9f",
                    "indexes": {
                        "data": 1,
                        "gas": 1,
                        "value": 1
                    }
                },
                {
                    "hash": "c39abe2092d458f4d286c620a9c9c0e63d0d3850e722befc8001e4efa1076e71",
                    "logs": "1dcc4de8dec75d7aab85b567b6ccd41ad312451b948a7413f0a142fd40d49347",
                    "txbytes": "0xf880800a83027100943e180b1862f9d158abb5e519a6d8605540c2368201a0000000000000000000000000000000000000000000000000000000000000ea601ba077772f1caa3b94d2c311de512622007786928572e21f57cf5b3f7bc2218c7478a05f5e6c335e66fdc5022cfa37866aaf6bb1643ba97456d87137eaf81675a47478",
                    "indexes": {
                        "data": 0,
                        "gas": 1,
                        "value": 0
                    }
                },
                {
                    "hash": "ff52805600df1ba5722fbab3061501ea6ed9417d2d4efdda4b8a595bdc13ddee",
                    "logs": "1dcc4de8dec75d7aab85b567b6ccd41ad312451b948a7413f0a142fd40d49347",
                    "txbytes": "0xf880800a83027100943e180b1862f9d158abb5e519a6d8605540c2368280a0000000000000000000000000000000000000000000000000000000000000ea601ba00f6bf09f6501426ef6d138adc67baf51ebb0fb794439f85355f107b6f4ad612fa0629e1d2c0ef292e544d80eef8199730ad616bc6165f04d52b6ed7d60d3e4ad3c",
                    "indexes": {
                        "data": 0,
                        "gas": 1,
                        "value": 1
                    }
                },
                {
                    "hash": "0b9a366fca8bb954334a3585d8286b7e7ca8ac872df2808ac099cd3dddf3d80d",
                    "logs": "1dcc4de8dec75d7aab85b567b6ccd41ad312451b948a7413f0a142fd40d49347",
                    "txbytes": "0xf880800a8301adb0943e180b1862f9d158abb5e519a6d8605540c2368201a0000000000000000000000000000000000000000000000000000000000001ea601ca0523cd1fbeb8c991c610157b7f2033b7e199fcbae3fe069ecaca55afcc2a5352aa0466960dc82c3a086e8f7567088aff10688d65036e4df9c8c8301cb1dfb5728fa",
                    "indexes": {
                        "data": 1,
                        "gas": 0,
                        "value": 0
                    }
                },
                {
                    "hash": "0b9a366fca8bb954334a3585d8286b7e7ca8ac872df2808ac099cd3dddf3d80d",
                    "logs": "1dcc4de8dec75d7aab85b567b6ccd41ad312451b948a7413f0a142fd40d49347",
                    "txbytes": "0xf880800a8301adb0943e180b1862f9d158abb5e519a6d8605540c2368280a0000000000000000000000000000000000000000000000000000000000001ea601ba0f51fec31fb51356069d31ff5573774161979d8c22c4633e3a15dcb4b1d14c1ada02d3ebeae4186f0d3f5dea9d2134b33f1e7f787e27c026e898c4b3c09b6775825",
                    "indexes": {
                        "data": 1,
                        "gas": 0,
                        "value": 1
                    }
                },
                {
                    "hash": "0b9a366fca8bb954334a3585d8286b7e7ca8ac872df2808ac099cd3dddf3d80d",
                    "logs": "1dcc4de8dec75d7aab85b567b6ccd41ad312451b948a7413f0a142fd40d49347",
                    "txbytes": "0xf880800a8301adb0943e180b1862f9d158abb5e519a6d8605540c2368201a0000000000000000000000000000000000000000000000000000000000000ea601ca0518c79367a18d73d4e47fbb1611e86e4f335118b81e270cc9e42bc63f4ed5fcfa017d1c19eaa017ff25d40aad9caa897b3e273392a0a872bba7eefef384a38d9a1",
                    "indexes": {
                        "data": 0,
                        "gas": 0,
                        "value": 0
                    }
                },
                {
                    "hash": "0b9a366fca8bb954334a3585d8286b7e7ca8ac872df2808ac099cd3dddf3d80d",
                    "logs": "1dcc4de8dec75d7aab85b567b6ccd41ad312451b948a7413f0a142fd40d49347",
                    "txbytes": "0xf880800a8301adb0943e180b1862f9d158abb5e519a6d8605540c2368280a0000000000000000000000000000000000000000000000000000000000000ea601ba0217eb4240037e38d93f6cedce218cdf7dc22b920c2084c6a4ece1f0467b559aca031dc37042bd3190bfeb02b819f333b926cb01d8005f30a611655ec615fcc8e88",
                    "indexes": {
                        "data": 0,
                        "gas": 0,
                        "value": 1
                    }
                }
            ]
        }
    }
}