{
    "RevertOpcodeCreate": {
        "_info": {
            "comment": "RevertOpcodeCreate for CREATE2",
            "filling-rpc-server": "evm version 1.10.16-unstable-0f893109-20220105",
            "filling-tool-version": "retesteth-0.2.2-testinfo+commit.01c6aac2.Linux.g++",
            "filledWith": "CoreGeth-1.12.9-unstable-3995a327f2ded5c98324b03792b5ccc22557754f",
            "lllcversion": "Version: 0.5.14-develop.2021.11.27+commit.401d5358.Linux.g++",
            "source": "src/GeneralStateTestsFiller/stCreate2/RevertOpcodeCreateFiller.json",
            "sourceHash": "6e114a0e64ce082ef5a0f199b9f9f08c1a7250a3f4c5a3c3262de956652f28ef"
        },
        "env": {
            "currentCoinbase": "0x2adc25665018aa1fe0e6bc666dac8fc2697ff9ba",
            "currentDifficulty": "0x20000",
            "currentGasLimit": "0x989680",
            "currentNumber": "0x1",
            "currentTimestamp": "0x3e8",
            "currentBaseFee": "0xa",
            "previousHash": "0x5e20a0453cecd065ea59c37ac63e079ee08998b6045136a8ce6635c7912ec0b6"
        },
        "pre": {
            "0xa94f5374fce5edbc8e2a8697c15331677e6ebf0b": {
                "balance": "0xe8d4a51000"
            },
            "0xb94f5374fce5edbc8e2a8697c15331677e6ebf0b": {
                "code": "0x6e600160005560016000fd60116001556000526000600f60116001f5600155600c60005500",
                "balance": "0x1"
            }
        },
        "transaction": {
            "gasPrice": "0xa",
            "nonce": "0x0",
            "to": "0xb94f5374fce5edbc8e2a8697c15331677e6ebf0b",
            "data": [
                "0x600160005560016000fe6011600155"
            ],
            "gasLimit": [
                "0x704e0",
                "0x11170"
            ],
            "value": [
                "0x00"
            ],
            "secretKey": "0x45a915e4d060149eb4365960e6a7a45f334393093061116b197e3240065ff2d8",
            "sender": "0xa94f5374fce5edbc8e2a8697c15331677e6ebf0b"
        },
        "post": {
            "ETC_Magneto": [
                {
                    "hash": "1272829babecf8c3295309f7b9690dff5268a37069a39379f76dc59e87b4206f",
                    "logs": "1dcc4de8dec75d7aab85b567b6ccd41ad312451b948a7413f0a142fd40d49347",
                    "txbytes": "0xf86f800a830704e094b94f5374fce5edbc8e2a8697c15331677e6ebf0b808f600160005560016000fe60116001551ba0d5edd414de54afb709bd23f2e5dda1a01b1e96b3cfb5d730812fa37160a4f05ba028ba9657cea41957eeca7ea84ad2861d9701381f08a94de4b6eae629c59ec32e",
                    "indexes": {
                        "data": 0,
                        "gas": 0,
                        "value": 0
                    }
                },
                {
                    "hash": "ec8097df2f0446414ffe3935d0195d98e229baefa8c2ed99d3eae1c479b30dd3",
                    "logs": "1dcc4de8dec75d7aab85b567b6ccd41ad312451b948a7413f0a142fd40d49347",
                    "txbytes": "0xf86f800a8301117094b94f5374fce5edbc8e2a8697c15331677e6ebf0b808f600160005560016000fe60116001551ca01c0067161eb4a947f3634eadfb6eb4f1187913d69e32f62ffe19621650a96571a0554d1b57109a2120bfc3701fa29348b22333351428c028e2835b0ac7a3070a20",
                    "indexes": {
                        "data": 0,
                        "gas": 1,
                        "value": 0
                    }
                }
            ],
            "ETC_Mystique": [
                {
                    "hash": "1272829babecf8c3295309f7b9690dff5268a37069a39379f76dc59e87b4206f",
                    "logs": "1dcc4de8dec75d7aab85b567b6ccd41ad312451b948a7413f0a142fd40d49347",
                    "txbytes": "0xf86f800a830704e094b94f5374fce5edbc8e2a8697c15331677e6ebf0b808f600160005560016000fe60116001551ba0d5edd414de54afb709bd23f2e5dda1a01b1e96b3cfb5d730812fa37160a4f05ba028ba9657cea41957eeca7ea84ad2861d9701381f08a94de4b6eae629c59ec32e",
                    "indexes": {
                        "data": 0,
                        "gas": 0,
                        "value": 0
                    }
                },
                {
                    "hash": "ec8097df2f0446414ffe3935d0195d98e229baefa8c2ed99d3eae1c479b30dd3",
                    "logs": "1dcc4de8dec75d7aab85b567b6ccd41ad312451b948a7413f0a142fd40d49347",
                    "txbytes": "0xf86f800a8301117094b94f5374fce5edbc8e2a8697c15331677e6ebf0b808f600160005560016000fe60116001551ca01c0067161eb4a947f3634eadfb6eb4f1187913d69e32f62ffe19621650a96571a0554d1b57109a2120bfc3701fa29348b22333351428c028e2835b0ac7a3070a20",
                    "indexes": {
                        "data": 0,
                        "gas": 1,
                        "value": 0
                    }
                }
            ],
            "ETC_Phoenix": [
                {
                    "hash": "7cbfbf1d455007a199b7e0723b3d15a0feb666a2f884c4fe5edbc945d20230ff",
                    "logs": "1dcc4de8dec75d7aab85b567b6ccd41ad312451b948a7413f0a142fd40d49347",
                    "txbytes": "0xf86f800a830704e094b94f5374fce5edbc8e2a8697c15331677e6ebf0b808f600160005560016000fe60116001551ba0d5edd414de54afb709bd23f2e5dda1a01b1e96b3cfb5d730812fa37160a4f05ba028ba9657cea41957eeca7ea84ad2861d9701381f08a94de4b6eae629c59ec32e",
                    "indexes": {
                        "data": 0,
                        "gas": 0,
                        "value": 0
                    }
                },
                {
                    "hash": "ec8097df2f0446414ffe3935d0195d98e229baefa8c2ed99d3eae1c479b30dd3",
                    "logs": "1dcc4de8dec75d7aab85b567b6ccd41ad312451b948a7413f0a142fd40d49347",
                    "txbytes": "0xf86f800a8301117094b94f5374fce5edbc8e2a8697c15331677e6ebf0b808f600160005560016000fe60116001551ca01c0067161eb4a947f3634eadfb6eb4f1187913d69e32f62ffe19621650a96571a0554d1b57109a2120bfc3701fa29348b22333351428c028e2835b0ac7a3070a20",
                    "indexes": {
                        "data": 0,
                        "gas": 1,
                        "value": 0
                    }
                }
            ]
        }
    }
}