{
    "randomStatetest121": {
        "_info": {
            "comment": "",
            "filling-rpc-server": "evm version 1.10.16-unstable-0f893109-20220105",
            "filling-tool-version": "retesteth-0.2.2-testinfo+commit.01c6aac2.Linux.g++",
            "filledWith": "CoreGeth-1.12.9-unstable-d64998ce9b05f4f41b35740c69c4b402e41a3105",
            "lllcversion": "Version: 0.5.14-develop.2021.11.27+commit.401d5358.Linux.g++",
            "source": "src/GeneralStateTestsFiller/stRandom/randomStatetest121Filler.json",
            "sourceHash": "235b223cc3ba8cd8e0451c7ed46c34f2892e2aea9acda1b6a5597482dc9add4c"
        },
        "env": {
            "currentCoinbase": "0x945304eb96065b2a98b57a48a06ae28d285a71b5",
            "currentDifficulty": "0x20000",
            "currentGasLimit": "0x7fffffffffffffff",
            "currentNumber": "0x1",
            "currentTimestamp": "0x3e8",
            "previousHash": "0x5e20a0453cecd065ea59c37ac63e079ee08998b6045136a8ce6635c7912ec0b6"
        },
        "pre": {
            "0x095e7baea6a6c7c4c2dfeb977efac326af552d87": {
                "code": "0x7f000000000000000000000000945304eb96065b2a98b57a48a06ae28d285a71b57f00000000000000000000000000000000000000000000000000000000000000017ffffffffffffffffffffffffffffffffffffffffffffffffffffffffffffffffe7f00000000000000000000000000000000000000000000000000000000000000007ffffffffffffffffffffffffffffffffffffffffffffffffffffffffffffffffe7ffffffffffffffffffffffffffffffffffffffffffffffffffffffffffffffffe7f000000000000000000000000000000000000000000000000000000000000c350456f305842321509108c689f7ca3195a9d5560005155",
                "balance": "0x0"
            },
            "0x945304eb96065b2a98b57a48a06ae28d285a71b5": {
                "code": "0x6000355415600957005b60203560003555",
                "balance": "0x2e"
            },
            "0xa94f5374fce5edbc8e2a8697c15331677e6ebf0b": {
                "balance": "0xde0b6b3a7640000"
            }
        },
        "transaction": {
            "gasPrice": "0xa",
            "nonce": "0x0",
            "to": "0x095e7baea6a6c7c4c2dfeb977efac326af552d87",
            "data": [
                "0x7f000000000000000000000000945304eb96065b2a98b57a48a06ae28d285a71b57f00000000000000000000000000000000000000000000000000000000000000017ffffffffffffffffffffffffffffffffffffffffffffffffffffffffffffffffe7f00000000000000000000000000000000000000000000000000000000000000007ffffffffffffffffffffffffffffffffffffffffffffffffffffffffffffffffe7ffffffffffffffffffffffffffffffffffffffffffffffffffffffffffffffffe7f000000000000000000000000000000000000000000000000000000000000c350456f305842321509108c689f7ca3195a9d"
            ],
            "gasLimit": [
                "0xb1aa486"
            ],
            "value": [
                "0x492a84cf"
            ],
            "secretKey": "0x45a915e4d060149eb4365960e6a7a45f334393093061116b197e3240065ff2d8",
            "sender": "0xa94f5374fce5edbc8e2a8697c15331677e6ebf0b"
        },
        "post": {
            "ETC_Magneto": [
                {
                    "hash": "d6f6f493a2167ee1f70677369f7f6ce0b710b01ee7cc04a2c164387e6b44a13e",
                    "logs": "1dcc4de8dec75d7aab85b567b6ccd41ad312451b948a7413f0a142fd40d49347",
                    "txbytes": "0xf9015e800a840b1aa48694095e7baea6a6c7c4c2dfeb977efac326af552d8784492a84cfb8f87f000000000000000000000000945304eb96065b2a98b57a48a06ae28d285a71b57f00000000000000000000000000000000000000000000000000000000000000017ffffffffffffffffffffffffffffffffffffffffffffffffffffffffffffffffe7f00000000000000000000000000000000000000000000000000000000000000007ffffffffffffffffffffffffffffffffffffffffffffffffffffffffffffffffe7ffffffffffffffffffffffffffffffffffffffffffffffffffffffffffffffffe7f000000000000000000000000000000000000000000000000000000000000c350456f305842321509108c689f7ca3195a9d1ba08ac1b4c15197c614f9d108bf549583faac811fd900fc50ba7d52bfabb95f236da066a51edcf9b122885e393889fd51b39b078240bc5fadf063fa7dafbc88576f90",
                    "indexes": {
                        "data": 0,
                        "gas": 0,
                        "value": 0
                    }
                }
            ],
            "ETC_Mystique": [
                {
                    "hash": "d6f6f493a2167ee1f70677369f7f6ce0b710b01ee7cc04a2c164387e6b44a13e",
                    "logs": "1dcc4de8dec75d7aab85b567b6ccd41ad312451b948a7413f0a142fd40d49347",
                    "txbytes": "0xf9015e800a840b1aa48694095e7baea6a6c7c4c2dfeb977efac326af552d8784492a84cfb8f87f000000000000000000000000945304eb96065b2a98b57a48a06ae28d285a71b57f00000000000000000000000000000000000000000000000000000000000000017ffffffffffffffffffffffffffffffffffffffffffffffffffffffffffffffffe7f00000000000000000000000000000000000000000000000000000000000000007ffffffffffffffffffffffffffffffffffffffffffffffffffffffffffffffffe7ffffffffffffffffffffffffffffffffffffffffffffffffffffffffffffffffe7f000000000000000000000000000000000000000000000000000000000000c350456f305842321509108c689f7ca3195a9d1ba08ac1b4c15197c614f9d108bf549583faac811fd900fc50ba7d52bfabb95f236da066a51edcf9b122885e393889fd51b39b078240bc5fadf063fa7dafbc88576f90",
                    "indexes": {
                        "data": 0,
                        "gas": 0,
                        "value": 0
                    }
                }
            ],
            "ETC_Phoenix": [
                {
                    "hash": "30930cba2ce4bf1cfbbe7f604731fcdf4fd4ebcf245be51cca480c7010be47dd",
                    "logs": "1dcc4de8dec75d7aab85b567b6ccd41ad312451b948a7413f0a142fd40d49347",
                    "txbytes": "0xf9015e800a840b1aa48694095e7baea6a6c7c4c2dfeb977efac326af552d8784492a84cfb8f87f000000000000000000000000945304eb96065b2a98b57a48a06ae28d285a71b57f00000000000000000000000000000000000000000000000000000000000000017ffffffffffffffffffffffffffffffffffffffffffffffffffffffffffffffffe7f00000000000000000000000000000000000000000000000000000000000000007ffffffffffffffffffffffffffffffffffffffffffffffffffffffffffffffffe7ffffffffffffffffffffffffffffffffffffffffffffffffffffffffffffffffe7f000000000000000000000000000000000000000000000000000000000000c350456f305842321509108c689f7ca3195a9d1ba08ac1b4c15197c614f9d108bf549583faac811fd900fc50ba7d52bfabb95f236da066a51edcf9b122885e393889fd51b39b078240bc5fadf063fa7dafbc88576f90",
                    "indexes": {
                        "data": 0,
                        "gas": 0,
                        "value": 0
                    }
                }
            ]
        }
    }
}