{
    "randomStatetest301": {
        "_info": {
            "comment": "",
            "filling-rpc-server": "evm version 1.10.16-unstable-0f893109-20220105",
            "filling-tool-version": "retesteth-0.2.2-testinfo+commit.01c6aac2.Linux.g++",
            "filledWith": "CoreGeth-1.12.9-unstable-4cf5b2b0837228e7d5eadba6a01ffb80e9288e21",
            "lllcversion": "Version: 0.5.14-develop.2021.11.27+commit.401d5358.Linux.g++",
            "source": "src/GeneralStateTestsFiller/stRandom/randomStatetest301Filler.json",
            "sourceHash": "6af4b8121c5063822892895d0ca72c187c379cfdd9cd38cb719a536fbecc20c4"
        },
        "env": {
            "currentCoinbase": "0x945304eb96065b2a98b57a48a06ae28d285a71b5",
            "currentDifficulty": "0x20000",
            "currentGasLimit": "0x7fffffffffffffff",
            "currentNumber": "0x1",
            "currentTimestamp": "0x3e8",
            "previousHash": "0x5e20a0453cecd065ea59c37ac63e079ee08998b6045136a8ce6635c7912ec0b6"
        },
        "pre": {
            "0x095e7baea6a6c7c4c2dfeb977efac326af552d87": {
                "code": "0x7ffffffffffffffffffffffffffffffffffffffffffffffffffffffffffffffffe7ffffffffffffffffffffffffffffffffffffffffffffffffffffffffffffffffe7f000000000000000000000000000000000000000000000000000000000000c3507fffffffffffffffffffffffffffffffffffffffffffffffffffffffffffffffff7f000000000000000000000000000000000000000000000000000000000000c3507f000000000000000000000000000000000000000000000000000000000000c3507f00000000000000000000000000000000000000000000000000000000000000007f00000000000000000000000000000000000000000000000000000000000000003784946a737aa092f1975664518a5560005155",
                "balance": "0x0",
                "nonce": "0x0"
            },
            "0x945304eb96065b2a98b57a48a06ae28d285a71b5": {
                "code": "0x6000355415600957005b60203560003555",
                "balance": "0x2e",
                "nonce": "0x0"
            },
            "0xa94f5374fce5edbc8e2a8697c15331677e6ebf0b": {
                "code": "0x",
                "balance": "0xde0b6b3a7640000",
                "nonce": "0x0"
            }
        },
        "transaction": {
            "gasPrice": "0xa",
            "nonce": "0x0",
            "to": "0x095e7baea6a6c7c4c2dfeb977efac326af552d87",
            "data": [
                "0x7ffffffffffffffffffffffffffffffffffffffffffffffffffffffffffffffffe7ffffffffffffffffffffffffffffffffffffffffffffffffffffffffffffffffe7f000000000000000000000000000000000000000000000000000000000000c3507fffffffffffffffffffffffffffffffffffffffffffffffffffffffffffffffff7f000000000000000000000000000000000000000000000000000000000000c3507f000000000000000000000000000000000000000000000000000000000000c3507f00000000000000000000000000000000000000000000000000000000000000007f00000000000000000000000000000000000000000000000000000000000000003784946a737aa092f1975664518a"
            ],
            "gasLimit": [
                "0x38ef9f8a"
            ],
            "value": [
                "0x1340f9ce"
            ],
            "secretKey": "0x45a915e4d060149eb4365960e6a7a45f334393093061116b197e3240065ff2d8",
            "sender": "0xa94f5374fce5edbc8e2a8697c15331677e6ebf0b"
        },
        "post": {
            "ETC_Magneto": [
                {
                    "hash": "56c8b2e3fec7d1b283723588da9247367f9b9c41e379591a08fe710751348457",
                    "logs": "1dcc4de8dec75d7aab85b567b6ccd41ad312451b948a7413f0a142fd40d49347",
                    "txbytes": "0xf9017d800a8438ef9f8a94095e7baea6a6c7c4c2dfeb977efac326af552d87841340f9ceb901167ffffffffffffffffffffffffffffffffffffffffffffffffffffffffffffffffe7ffffffffffffffffffffffffffffffffffffffffffffffffffffffffffffffffe7f000000000000000000000000000000000000000000000000000000000000c3507fffffffffffffffffffffffffffffffffffffffffffffffffffffffffffffffff7f000000000000000000000000000000000000000000000000000000000000c3507f000000000000000000000000000000000000000000000000000000000000c3507f00000000000000000000000000000000000000000000000000000000000000007f00000000000000000000000000000000000000000000000000000000000000003784946a737aa092f1975664518a1ba08ea33d81573bce017252773df24633ed59e2a14402e43c642bb12815b6555d6aa02450f7f0de2a52b961b39dec9f366a327405cc1905a89f9ff29a7c98e2e39753",
                    "indexes": {
                        "data": 0,
                        "gas": 0,
                        "value": 0
                    }
                }
            ],
            "ETC_Mystique": [
                {
                    "hash": "56c8b2e3fec7d1b283723588da9247367f9b9c41e379591a08fe710751348457",
                    "logs": "1dcc4de8dec75d7aab85b567b6ccd41ad312451b948a7413f0a142fd40d49347",
                    "txbytes": "0xf9017d800a8438ef9f8a94095e7baea6a6c7c4c2dfeb977efac326af552d87841340f9ceb901167ffffffffffffffffffffffffffffffffffffffffffffffffffffffffffffffffe7ffffffffffffffffffffffffffffffffffffffffffffffffffffffffffffffffe7f000000000000000000000000000000000000000000000000000000000000c3507fffffffffffffffffffffffffffffffffffffffffffffffffffffffffffffffff7f000000000000000000000000000000000000000000000000000000000000c3507f000000000000000000000000000000000000000000000000000000000000c3507f00000000000000000000000000000000000000000000000000000000000000007f00000000000000000000000000000000000000000000000000000000000000003784946a737aa092f1975664518a1ba08ea33d81573bce017252773df24633ed59e2a14402e43c642bb12815b6555d6aa02450f7f0de2a52b961b39dec9f366a327405cc1905a89f9ff29a7c98e2e39753",
                    "indexes": {
                        "data": 0,
                        "gas": 0,
                        "value": 0
                    }
                }
            ],
            "ETC_Phoenix": [
                {
                    "hash": "d76d0e6a89bab41c1c1e300cf9d6730ff606da3c16ea3f89717fb8bc7018fc4f",
                    "logs": "1dcc4de8dec75d7aab85b567b6ccd41ad312451b948a7413f0a142fd40d49347",
                    "txbytes": "0xf9017d800a8438ef9f8a94095e7baea6a6c7c4c2dfeb977efac326af552d87841340f9ceb901167ffffffffffffffffffffffffffffffffffffffffffffffffffffffffffffffffe7ffffffffffffffffffffffffffffffffffffffffffffffffffffffffffffffffe7f000000000000000000000000000000000000000000000000000000000000c3507fffffffffffffffffffffffffffffffffffffffffffffffffffffffffffffffff7f000000000000000000000000000000000000000000000000000000000000c3507f000000000000000000000000000000000000000000000000000000000000c3507f00000000000000000000000000000000000000000000000000000000000000007f00000000000000000000000000000000000000000000000000000000000000003784946a737aa092f1975664518a1ba08ea33d81573bce017252773df24633ed59e2a14402e43c642bb12815b6555d6aa02450f7f0de2a52b961b39dec9f366a327405cc1905a89f9ff29a7c98e2e39753",
                    "indexes": {
                        "data": 0,
                        "gas": 0,
                        "value": 0
                    }
                }
            ]
        }
    }
}