{
    "randomStatetest294": {
        "_info": {
            "comment": "",
            "filling-rpc-server": "evm version 1.10.16-unstable-0f893109-20220105",
            "filling-tool-version": "retesteth-0.2.2-testinfo+commit.01c6aac2.Linux.g++",
            "filledWith": "CoreGeth-1.12.9-unstable-4d59a861107c8232d6896811c48f229d30087be4",
            "lllcversion": "Version: 0.5.14-develop.2021.11.27+commit.401d5358.Linux.g++",
            "source": "src/GeneralStateTestsFiller/stRandom/randomStatetest294Filler.json",
            "sourceHash": "1bafb52dcca3f269a0ff91e35ef6a9b25eaf561d0dceedb1ac7be1d0a77f154f"
        },
        "env": {
            "currentCoinbase": "0x945304eb96065b2a98b57a48a06ae28d285a71b5",
            "currentDifficulty": "0x20000",
            "currentGasLimit": "0x7fffffffffffffff",
            "currentNumber": "0x1",
            "currentTimestamp": "0x3e8",
            "currentBaseFee": "0xa",
            "previousHash": "0x5e20a0453cecd065ea59c37ac63e079ee08998b6045136a8ce6635c7912ec0b6"
        },
        "pre": {
            "0x095e7baea6a6c7c4c2dfeb977efac326af552d87": {
                "code": "0x057fffffffffffffffffffffffffffffffffffffffffffffffffffffffffffffffff7f000000000000000000000000ffffffffffffffffffffffffffffffffffffffff7fffffffffffffffffffffffffffffffffffffffffffffffffffffffffffffffff7f00000000000000000000000100000000000000000000000000000000000000007ffffffffffffffffffffffffffffffffffffffffffffffffffffffffffffffffe3c7fffffffffffffffffffffffffffffffffffffffffffffffffffffffffffffffff9d0718f377825843028dfa02158878",
                "balance": "0x0"
            },
            "0x945304eb96065b2a98b57a48a06ae28d285a71b5": {
                "code": "0x6000355415600957005b60203560003555",
                "balance": "0x2e"
            },
            "0xa94f5374fce5edbc8e2a8697c15331677e6ebf0b": {
                "balance": "0xde0b6b3a7640000"
            }
        },
        "transaction": {
            "gasPrice": "0xa",
            "nonce": "0x0",
            "to": "0x095e7baea6a6c7c4c2dfeb977efac326af552d87",
            "data": [
                "0x057fffffffffffffffffffffffffffffffffffffffffffffffffffffffffffffffff7f000000000000000000000000ffffffffffffffffffffffffffffffffffffffff7fffffffffffffffffffffffffffffffffffffffffffffffffffffffffffffffff7f00000000000000000000000100000000000000000000000000000000000000007ffffffffffffffffffffffffffffffffffffffffffffffffffffffffffffffffe3c7fffffffffffffffffffffffffffffffffffffffffffffffffffffffffffffffff9d0718f377825843028dfa02158878"
            ],
            "gasLimit": [
                "0x54175ae5"
            ],
            "value": [
                "0x67cba665"
            ],
            "secretKey": "0x45a915e4d060149eb4365960e6a7a45f334393093061116b197e3240065ff2d8",
            "sender": "0xa94f5374fce5edbc8e2a8697c15331677e6ebf0b"
        },
        "post": {
            "ETC_Magneto": [
                {
                    "hash": "85472230f9fe8d8ffcd3cf7df06a2141c5b2daf953155ab371360f72d378ab8b",
                    "logs": "1dcc4de8dec75d7aab85b567b6ccd41ad312451b948a7413f0a142fd40d49347",
                    "txbytes": "0xf9013d800a8454175ae594095e7baea6a6c7c4c2dfeb977efac326af552d878467cba665b8d7057fffffffffffffffffffffffffffffffffffffffffffffffffffffffffffffffff7f000000000000000000000000ffffffffffffffffffffffffffffffffffffffff7fffffffffffffffffffffffffffffffffffffffffffffffffffffffffffffffff7f00000000000000000000000100000000000000000000000000000000000000007ffffffffffffffffffffffffffffffffffffffffffffffffffffffffffffffffe3c7fffffffffffffffffffffffffffffffffffffffffffffffffffffffffffffffff9d0718f377825843028dfa021588781ba083392f466c9140a8bb68f12683da9f08c0ff4945f1b5f53e203723d9bdb38eb5a04a8fd8756a7c588e8656ed877a8e38d0da43084241ba351f2c82fdeabf808b06",
                    "indexes": {
                        "data": 0,
                        "gas": 0,
                        "value": 0
                    }
                }
            ],
            "ETC_Mystique": [
                {
                    "hash": "85472230f9fe8d8ffcd3cf7df06a2141c5b2daf953155ab371360f72d378ab8b",
                    "logs": "1dcc4de8dec75d7aab85b567b6ccd41ad312451b948a7413f0a142fd40d49347",
                    "txbytes": "0xf9013d800a8454175ae594095e7baea6a6c7c4c2dfeb977efac326af552d878467cba665b8d7057fffffffffffffffffffffffffffffffffffffffffffffffffffffffffffffffff7f000000000000000000000000ffffffffffffffffffffffffffffffffffffffff7fffffffffffffffffffffffffffffffffffffffffffffffffffffffffffffffff7f00000000000000000000000100000000000000000000000000000000000000007ffffffffffffffffffffffffffffffffffffffffffffffffffffffffffffffffe3c7fffffffffffffffffffffffffffffffffffffffffffffffffffffffffffffffff9d0718f377825843028dfa021588781ba083392f466c9140a8bb68f12683da9f08c0ff4945f1b5f53e203723d9bdb38eb5a04a8fd8756a7c588e8656ed877a8e38d0da43084241ba351f2c82fdeabf808b06",
                    "indexes": {
                        "data": 0,
                        "gas": 0,
                        "value": 0
                    }
                }
            ],
            "ETC_Phoenix": [
                {
                    "hash": "85472230f9fe8d8ffcd3cf7df06a2141c5b2daf953155ab371360f72d378ab8b",
                    "logs": "1dcc4de8dec75d7aab85b567b6ccd41ad312451b948a7413f0a142fd40d49347",
                    "txbytes": "0xf9013d800a8454175ae594095e7baea6a6c7c4c2dfeb977efac326af552d878467cba665b8d7057fffffffffffffffffffffffffffffffffffffffffffffffffffffffffffffffff7f000000000000000000000000ffffffffffffffffffffffffffffffffffffffff7fffffffffffffffffffffffffffffffffffffffffffffffffffffffffffffffff7f00000000000000000000000100000000000000000000000000000000000000007ffffffffffffffffffffffffffffffffffffffffffffffffffffffffffffffffe3c7fffffffffffffffffffffffffffffffffffffffffffffffffffffffffffffffff9d0718f377825843028dfa021588781ba083392f466c9140a8bb68f12683da9f08c0ff4945f1b5f53e203723d9bdb38eb5a04a8fd8756a7c588e8656ed877a8e38d0da43084241ba351f2c82fdeabf808b06",
                    "indexes": {
                        "data": 0,
                        "gas": 0,
                        "value": 0
                    }
                }
            ]
        }
    }
}