{
    "randomStatetest23": {
        "_info": {
            "comment": "",
            "filling-rpc-server": "evm version 1.10.16-unstable-0f893109-20220105",
            "filling-tool-version": "retesteth-0.2.2-testinfo+commit.01c6aac2.Linux.g++",
            "filledWith": "CoreGeth-1.12.9-unstable-4d59a861107c8232d6896811c48f229d30087be4",
            "lllcversion": "Version: 0.5.14-develop.2021.11.27+commit.401d5358.Linux.g++",
            "source": "src/GeneralStateTestsFiller/stRandom/randomStatetest23Filler.json",
            "sourceHash": "9ec38a403035309cfcd5e239c65faafbbe8ac88fd4b7eb39767b01face21bc54"
        },
        "env": {
            "currentCoinbase": "0x945304eb96065b2a98b57a48a06ae28d285a71b5",
            "currentDifficulty": "0x20000",
            "currentGasLimit": "0x7fffffffffffffff",
            "currentNumber": "0x1",
            "currentTimestamp": "0x3e8",
            "currentBaseFee": "0xa",
            "previousHash": "0x5e20a0453cecd065ea59c37ac63e079ee08998b6045136a8ce6635c7912ec0b6"
        },
        "pre": {
            "0x095e7baea6a6c7c4c2dfeb977efac326af552d87": {
                "code": "0x7f0000000000000000000000000000000000000000000000000000000000000001427f000000000000000000000000945304eb96065b2a98b57a48a06ae28d285a71b57fffffffffffffffffffffffffffffffffffffffffffffffffffffffffffffffff7fffffffffffffffffffffffffffffffffffffffffffffffffffffffffffffffff6f89418c1076f1544315601489386c915560005155",
                "balance": "0x0"
            },
            "0x945304eb96065b2a98b57a48a06ae28d285a71b5": {
                "code": "0x6000355415600957005b60203560003555",
                "balance": "0x2e"
            },
            "0xa94f5374fce5edbc8e2a8697c15331677e6ebf0b": {
                "balance": "0xde0b6b3a7640000"
            }
        },
        "transaction": {
            "gasPrice": "0xa",
            "nonce": "0x0",
            "to": "0x095e7baea6a6c7c4c2dfeb977efac326af552d87",
            "data": [
                "0x7f0000000000000000000000000000000000000000000000000000000000000001427f000000000000000000000000945304eb96065b2a98b57a48a06ae28d285a71b57fffffffffffffffffffffffffffffffffffffffffffffffffffffffffffffffff7fffffffffffffffffffffffffffffffffffffffffffffffffffffffffffffffff6f89418c1076f1544315601489386c91"
            ],
            "gasLimit": [
                "0x430d0b2"
            ],
            "value": [
                "0x27cd2e4b"
            ],
            "secretKey": "0x45a915e4d060149eb4365960e6a7a45f334393093061116b197e3240065ff2d8",
            "sender": "0xa94f5374fce5edbc8e2a8697c15331677e6ebf0b"
        },
        "post": {
            "ETC_Magneto": [
                {
                    "hash": "3a7b93a9f39790d7d8bbcda67d78acc2b60aa4ad9209c7aa7af00959a31b2268",
                    "logs": "1dcc4de8dec75d7aab85b567b6ccd41ad312451b948a7413f0a142fd40d49347",
                    "txbytes": "0xf8fb800a840430d0b294095e7baea6a6c7c4c2dfeb977efac326af552d878427cd2e4bb8957f0000000000000000000000000000000000000000000000000000000000000001427f000000000000000000000000945304eb96065b2a98b57a48a06ae28d285a71b57fffffffffffffffffffffffffffffffffffffffffffffffffffffffffffffffff7fffffffffffffffffffffffffffffffffffffffffffffffffffffffffffffffff6f89418c1076f1544315601489386c911ca0d8ff653c2308a65e09f1312d6eec48a176df24887f662a2ef466a3d3082e21afa02b60bc7ebad437209cfe764c415a7e8824c851e34ebc9bf59a7ca43fd22c1740",
                    "indexes": {
                        "data": 0,
                        "gas": 0,
                        "value": 0
                    }
                }
            ],
            "ETC_Mystique": [
                {
                    "hash": "3a7b93a9f39790d7d8bbcda67d78acc2b60aa4ad9209c7aa7af00959a31b2268",
                    "logs": "1dcc4de8dec75d7aab85b567b6ccd41ad312451b948a7413f0a142fd40d49347",
                    "txbytes": "0xf8fb800a840430d0b294095e7baea6a6c7c4c2dfeb977efac326af552d878427cd2e4bb8957f0000000000000000000000000000000000000000000000000000000000000001427f000000000000000000000000945304eb96065b2a98b57a48a06ae28d285a71b57fffffffffffffffffffffffffffffffffffffffffffffffffffffffffffffffff7fffffffffffffffffffffffffffffffffffffffffffffffffffffffffffffffff6f89418c1076f1544315601489386c911ca0d8ff653c2308a65e09f1312d6eec48a176df24887f662a2ef466a3d3082e21afa02b60bc7ebad437209cfe764c415a7e8824c851e34ebc9bf59a7ca43fd22c1740",
                    "indexes": {
                        "data": 0,
                        "gas": 0,
                        "value": 0
                    }
                }
            ],
            "ETC_Phoenix": [
                {
                    "hash": "7aca00b11bf6f23bbecdcaf91b706289b01be19a611b9b408714ec70d5fbdf82",
                    "logs": "1dcc4de8dec75d7aab85b567b6ccd41ad312451b948a7413f0a142fd40d49347",
                    "txbytes": "0xf8fb800a840430d0b294095e7baea6a6c7c4c2dfeb977efac326af552d878427cd2e4bb8957f0000000000000000000000000000000000000000000000000000000000000001427f000000000000000000000000945304eb96065b2a98b57a48a06ae28d285a71b57fffffffffffffffffffffffffffffffffffffffffffffffffffffffffffffffff7fffffffffffffffffffffffffffffffffffffffffffffffffffffffffffffffff6f89418c1076f1544315601489386c911ca0d8ff653c2308a65e09f1312d6eec48a176df24887f662a2ef466a3d3082e21afa02b60bc7ebad437209cfe764c415a7e8824c851e34ebc9bf59a7ca43fd22c1740",
                    "indexes": {
                        "data": 0,
                        "gas": 0,
                        "value": 0
                    }
                }
            ]
        }
    }
}