{
    "randomStatetest19": {
        "_info": {
            "comment": "",
            "filling-rpc-server": "evm version 1.10.16-unstable-0f893109-20220105",
            "filling-tool-version": "retesteth-0.2.2-testinfo+commit.01c6aac2.Linux.g++",
            "filledWith": "CoreGeth-1.12.9-unstable-f4059ddd82d975bdc54fa648e5422a80172161cb",
            "lllcversion": "Version: 0.5.14-develop.2021.11.27+commit.401d5358.Linux.g++",
            "source": "src/GeneralStateTestsFiller/stRandom/randomStatetest19Filler.json",
            "sourceHash": "5f19fd6175fb4d6d3ae8ecb83fe89b3edf3bcb7c6d86c1e7ba00126e768087d1"
        },
        "env": {
            "currentCoinbase": "945304eb96065b2a98b57a48a06ae28d285a71b5",
            "currentDifficulty": "0x20000",
            "currentRandom": null,
            "currentGasLimit": "0x7fffffffffffffff",
            "currentNumber": "0x1",
            "currentTimestamp": "0x3e8",
            "currentBaseFee": "0xa"
        },
        "pre": {
            "0x095e7baea6a6c7c4c2dfeb977efac326af552d87": {
                "code": "0x7ffffffffffffffffffffffffffffffffffffffffffffffffffffffffffffffffe3a7f000000000000000000000000ffffffffffffffffffffffffffffffffffffffff7ffffffffffffffffffffffffffffffffffffffffffffffffffffffffffffffffe417f0000000000000000000000000000000000000000000000000000000000000001587f000000000000000000000000000000000000000000000000000000000000c3506fff59876660063b7c8df1ff088a84145560005155",
                "balance": "0x0"
            },
            "0x945304eb96065b2a98b57a48a06ae28d285a71b5": {
                "code": "0x6000355415600957005b60203560003555",
                "balance": "0x2e"
            },
            "0xa94f5374fce5edbc8e2a8697c15331677e6ebf0b": {
                "balance": "0xde0b6b3a7640000"
            }
        },
        "transaction": {
            "gasPrice": "0xa",
            "maxFeePerGas": null,
            "maxPriorityFeePerGas": null,
            "nonce": "0x0",
            "to": "0x095e7baea6a6c7c4c2dfeb977efac326af552d87",
            "data": [
                "0x7ffffffffffffffffffffffffffffffffffffffffffffffffffffffffffffffffe3a7f000000000000000000000000ffffffffffffffffffffffffffffffffffffffff7ffffffffffffffffffffffffffffffffffffffffffffffffffffffffffffffffe417f0000000000000000000000000000000000000000000000000000000000000001587f000000000000000000000000000000000000000000000000000000000000c3506fff59876660063b7c8df1ff088a8414"
            ],
            "gasLimit": [
                "0x6d929716"
            ],
            "value": [
                "0x1dcd74de"
            ],
            "secretKey": "0x45a915e4d060149eb4365960e6a7a45f334393093061116b197e3240065ff2d8"
        },
        "out": "0x",
        "post": {
            "ETC_Magneto": [
                {
                    "hash": "273b2adfa25457b9a90a3748c81f871b94023bc49c4b467b88e568c1160a4297",
                    "logs": "1dcc4de8dec75d7aab85b567b6ccd41ad312451b948a7413f0a142fd40d49347",
                    "txbytes": "0xf9011e800a846d92971694095e7baea6a6c7c4c2dfeb977efac326af552d87841dcd74deb8b87ffffffffffffffffffffffffffffffffffffffffffffffffffffffffffffffffe3a7f000000000000000000000000ffffffffffffffffffffffffffffffffffffffff7ffffffffffffffffffffffffffffffffffffffffffffffffffffffffffffffffe417f0000000000000000000000000000000000000000000000000000000000000001587f000000000000000000000000000000000000000000000000000000000000c3506fff59876660063b7c8df1ff088a84141ba0c634f86b9ccb1b07e8426701d2adfbcc9dbc21b3cbf3677de6764a65cd170defa0126b38767b12ffd3d69a9f9009c78a2be49ed4a54307d4d6eda1fe925b22f775",
                    "indexes": {
                        "data": 0,
                        "gas": 0,
                        "value": 0
                    }
                }
            ],
            "ETC_Mystique": [
                {
                    "hash": "273b2adfa25457b9a90a3748c81f871b94023bc49c4b467b88e568c1160a4297",
                    "logs": "1dcc4de8dec75d7aab85b567b6ccd41ad312451b948a7413f0a142fd40d49347",
                    "txbytes": "0xf9011e800a846d92971694095e7baea6a6c7c4c2dfeb977efac326af552d87841dcd74deb8b87ffffffffffffffffffffffffffffffffffffffffffffffffffffffffffffffffe3a7f000000000000000000000000ffffffffffffffffffffffffffffffffffffffff7ffffffffffffffffffffffffffffffffffffffffffffffffffffffffffffffffe417f0000000000000000000000000000000000000000000000000000000000000001587f000000000000000000000000000000000000000000000000000000000000c3506fff59876660063b7c8df1ff088a84141ba0c634f86b9ccb1b07e8426701d2adfbcc9dbc21b3cbf3677de6764a65cd170defa0126b38767b12ffd3d69a9f9009c78a2be49ed4a54307d4d6eda1fe925b22f775",
                    "indexes": {
                        "data": 0,
                        "gas": 0,
                        "value": 0
                    }
                }
            ],
            "ETC_Phoenix": [
                {
                    "hash": "6c0e77ca6079dcc6714721eb7802c325b42bd08d991e93d82e6abf1fce0d402c",
                    "logs": "1dcc4de8dec75d7aab85b567b6ccd41ad312451b948a7413f0a142fd40d49347",
                    "txbytes": "0xf9011e800a846d92971694095e7baea6a6c7c4c2dfeb977efac326af552d87841dcd74deb8b87ffffffffffffffffffffffffffffffffffffffffffffffffffffffffffffffffe3a7f000000000000000000000000ffffffffffffffffffffffffffffffffffffffff7ffffffffffffffffffffffffffffffffffffffffffffffffffffffffffffffffe417f0000000000000000000000000000000000000000000000000000000000000001587f000000000000000000000000000000000000000000000000000000000000c3506fff59876660063b7c8df1ff088a84141ba0c634f86b9ccb1b07e8426701d2adfbcc9dbc21b3cbf3677de6764a65cd170defa0126b38767b12ffd3d69a9f9009c78a2be49ed4a54307d4d6eda1fe925b22f775",
                    "indexes": {
                        "data": 0,
                        "gas": 0,
                        "value": 0
                    }
                }
            ]
        }
    }
}