{
    "randomStatetest87": {
        "_info": {
            "comment": "",
            "filling-rpc-server": "evm version 1.10.16-unstable-0f893109-20220105",
            "filling-tool-version": "retesteth-0.2.2-testinfo+commit.01c6aac2.Linux.g++",
            "filledWith": "CoreGeth-1.12.9-unstable-3995a327f2ded5c98324b03792b5ccc22557754f",
            "lllcversion": "Version: 0.5.14-develop.2021.11.27+commit.401d5358.Linux.g++",
            "source": "src/GeneralStateTestsFiller/stRandom/randomStatetest87Filler.json",
            "sourceHash": "f86748299b4614d16eb80b0acf5f00b2541a139a5c6cbb7a33faf0a1d06ed2e2"
        },
        "env": {
            "currentCoinbase": "0x945304eb96065b2a98b57a48a06ae28d285a71b5",
            "currentDifficulty": "0x20000",
            "currentGasLimit": "0x7fffffffffffffff",
            "currentNumber": "0x1",
            "currentTimestamp": "0x3e8",
            "currentBaseFee": "0xa",
            "previousHash": "0x5e20a0453cecd065ea59c37ac63e079ee08998b6045136a8ce6635c7912ec0b6"
        },
        "pre": {
            "0x095e7baea6a6c7c4c2dfeb977efac326af552d87": {
                "code": "0x7fffffffffffffffffffffffffffffffffffffffffffffffffffffffffffffffff7f00000000000000000000000000000000000000000000000000000000000000007f00000000000000000000000000000000000000000000000000000000000000007f00000000000000000000000100000000000000000000000000000000000000007f00000000000000000000000100000000000000000000000000000000000000005b7ffffffffffffffffffffffffffffffffffffffffffffffffffffffffffffffffe6f446e638e7e16736c030393727d74817460005155",
                "balance": "0x0"
            },
            "0x945304eb96065b2a98b57a48a06ae28d285a71b5": {
                "code": "0x6000355415600957005b60203560003555",
                "balance": "0x2e"
            },
            "0xa94f5374fce5edbc8e2a8697c15331677e6ebf0b": {
                "balance": "0xde0b6b3a7640000"
            }
        },
        "transaction": {
            "gasPrice": "0xa",
            "nonce": "0x0",
            "to": "0x095e7baea6a6c7c4c2dfeb977efac326af552d87",
            "data": [
                "0x7fffffffffffffffffffffffffffffffffffffffffffffffffffffffffffffffff7f00000000000000000000000000000000000000000000000000000000000000007f00000000000000000000000000000000000000000000000000000000000000007f00000000000000000000000100000000000000000000000000000000000000007f00000000000000000000000100000000000000000000000000000000000000005b7ffffffffffffffffffffffffffffffffffffffffffffffffffffffffffffffffe6f446e638e7e16736c030393727d748174"
            ],
            "gasLimit": [
                "0x366ad29e"
            ],
            "value": [
                "0x7b1e5dc9"
            ],
            "secretKey": "0x45a915e4d060149eb4365960e6a7a45f334393093061116b197e3240065ff2d8",
            "sender": "0xa94f5374fce5edbc8e2a8697c15331677e6ebf0b"
        },
        "post": {
            "ETC_Magneto": [
                {
                    "hash": "fbf905df4d942269d52d848019fd7714577d8471f4320c244bb991fc163d7fc0",
                    "logs": "1dcc4de8dec75d7aab85b567b6ccd41ad312451b948a7413f0a142fd40d49347",
                    "txbytes": "0xf9013e800a84366ad29e94095e7baea6a6c7c4c2dfeb977efac326af552d87847b1e5dc9b8d87fffffffffffffffffffffffffffffffffffffffffffffffffffffffffffffffff7f00000000000000000000000000000000000000000000000000000000000000007f00000000000000000000000000000000000000000000000000000000000000007f00000000000000000000000100000000000000000000000000000000000000007f00000000000000000000000100000000000000000000000000000000000000005b7ffffffffffffffffffffffffffffffffffffffffffffffffffffffffffffffffe6f446e638e7e16736c030393727d7481741ba04080bcc8c4faa6c64dbab9f871b306a5f588003c609607faf723aae7c14ca176a05cb49ba42ede855281429b6233d2ba8dc72ec5d703f9114dc758a51ecce14645",
                    "indexes": {
                        "data": 0,
                        "gas": 0,
                        "value": 0
                    }
                }
            ],
            "ETC_Mystique": [
                {
                    "hash": "fbf905df4d942269d52d848019fd7714577d8471f4320c244bb991fc163d7fc0",
                    "logs": "1dcc4de8dec75d7aab85b567b6ccd41ad312451b948a7413f0a142fd40d49347",
                    "txbytes": "0xf9013e800a84366ad29e94095e7baea6a6c7c4c2dfeb977efac326af552d87847b1e5dc9b8d87fffffffffffffffffffffffffffffffffffffffffffffffffffffffffffffffff7f00000000000000000000000000000000000000000000000000000000000000007f00000000000000000000000000000000000000000000000000000000000000007f00000000000000000000000100000000000000000000000000000000000000007f00000000000000000000000100000000000000000000000000000000000000005b7ffffffffffffffffffffffffffffffffffffffffffffffffffffffffffffffffe6f446e638e7e16736c030393727d7481741ba04080bcc8c4faa6c64dbab9f871b306a5f588003c609607faf723aae7c14ca176a05cb49ba42ede855281429b6233d2ba8dc72ec5d703f9114dc758a51ecce14645",
                    "indexes": {
                        "data": 0,
                        "gas": 0,
                        "value": 0
                    }
                }
            ],
            "ETC_Phoenix": [
                {
                    "hash": "464291096d7230519cd6b6745716728524f5e007a2346cdae088e9dc3f47a339",
                    "logs": "1dcc4de8dec75d7aab85b567b6ccd41ad312451b948a7413f0a142fd40d49347",
                    "txbytes": "0xf9013e800a84366ad29e94095e7baea6a6c7c4c2dfeb977efac326af552d87847b1e5dc9b8d87fffffffffffffffffffffffffffffffffffffffffffffffffffffffffffffffff7f00000000000000000000000000000000000000000000000000000000000000007f00000000000000000000000000000000000000000000000000000000000000007f00000000000000000000000100000000000000000000000000000000000000007f00000000000000000000000100000000000000000000000000000000000000005b7ffffffffffffffffffffffffffffffffffffffffffffffffffffffffffffffffe6f446e638e7e16736c030393727d7481741ba04080bcc8c4faa6c64dbab9f871b306a5f588003c609607faf723aae7c14ca176a05cb49ba42ede855281429b6233d2ba8dc72ec5d703f9114dc758a51ecce14645",
                    "indexes": {
                        "data": 0,
                        "gas": 0,
                        "value": 0
                    }
                }
            ]
        }
    }
}