{
    "randomStatetest178": {
        "_info": {
            "comment": "",
            "filling-rpc-server": "evm version 1.10.16-unstable-0f893109-20220105",
            "filling-tool-version": "retesteth-0.2.2-testinfo+commit.01c6aac2.Linux.g++",
            "filledWith": "CoreGeth-1.12.9-unstable-d390462df9df233b60b4cd7a37db5b3043832022",
            "lllcversion": "Version: 0.5.14-develop.2021.11.27+commit.401d5358.Linux.g++",
            "source": "src/GeneralStateTestsFiller/stRandom/randomStatetest178Filler.json",
            "sourceHash": "fd23133c4eca29e963bebfb86a0176fb1689b3fd1fc97004dd206e324e67e66b"
        },
        "env": {
            "currentCoinbase": "0x945304eb96065b2a98b57a48a06ae28d285a71b5",
            "currentDifficulty": "0x20000",
            "currentGasLimit": "0x7fffffffffffffff",
            "currentNumber": "0x1",
            "currentTimestamp": "0x3e8",
            "previousHash": "0x5e20a0453cecd065ea59c37ac63e079ee08998b6045136a8ce6635c7912ec0b6"
        },
        "pre": {
            "0x095e7baea6a6c7c4c2dfeb977efac326af552d87": {
                "code": "0x7d342beabe599e4bc177fd97d36df48d50650ba6129a9a83d4cf809ec21452357c620167f530c3265be9887f6e5b8186decdc00a6a801e5f56dd8d9d36a4806dbccc299e4bbf46ad577e25b5b1fc76b6999cb23a6a03c4035e36b8494135ee170647395da00b6e0a64c43f3358b8bdcf593c89fb70b865ef153b5195c77959256beb4f932095eb8ac80bc2c050f6f550a362aac77f5c4b197151df039d64b77dca22eb8fd4b8cf50fb85a36f1d909d1919a47fe97de5526726b4a47b866b7b13471056439457cd7cbc5060d978056ff5dd24a1f49e50b9f5924f473b2dc5306d67054ca575d0603e616291a3601460106009601f6338a57ddc73095e7baea6a6c7c4c2dfeb977efac326af552d87630e3319c8f133",
                "balance": "0x0",
                "nonce": "0x0"
            },
            "0x945304eb96065b2a98b57a48a06ae28d285a71b5": {
                "code": "0x6000355415600957005b60203560003555",
                "balance": "0x2e",
                "nonce": "0x0"
            },
            "0xa94f5374fce5edbc8e2a8697c15331677e6ebf0b": {
                "code": "0x",
                "balance": "0xde0b6b3a7640000",
                "nonce": "0x0"
            }
        },
        "transaction": {
            "gasPrice": "0xa",
            "nonce": "0x0",
            "to": "0x095e7baea6a6c7c4c2dfeb977efac326af552d87",
            "data": [
                "0x66fd78520a4acd897a6e29cf1b15f576b05a2bc0c18bb93a759d3f5e1ac5d34ba1e261c70b7afd59945da98cc373eac6aa543bae2e6726e3ff03ad2e788dc33f3b736ef736637d8ac680281bb29884e641473063e58e7318f5f4cbade311c02eed1c323c19bba7df4729406464b42ed0cb6d0189be83857fb09713ae69e7d2d472e6d85d23920625c84c39489fc80d272868f40c64cc6cb93ea5741d1918dfc8f61086b1b0637390a1934b637c37ec94877d3ea763b20b9e04fa589f30da18f1565bcf15ad38bc735b9d45b5d963cadd77e9e3db27853e7462a6417a4ac9af38f967a198c6f50deb53634bcbbe9c6a83a7357847acc4f6360fa46e43595a8936969798890170a6874b4e67391c228e9d0a754f68635d505c3f9a8c2555728626e286db52177c2228fb04d4b702bea78df3747d6fa1079394222b8d2a0dfc34ce6d9e5664062fa8977526ced3516147e12a7b9e36f6628dd9efe320bef809146e8fad97d5aedf559bcc15442b1fd347758332cb1d4bb96471a01de009dc175e3eae40d189755a7c1f46c55d3353af6fd0ee638735594b4bb2e6aa99fdbc96508431f421dd770b6379f9b5cbee55423a23c5538390612dc07c752c39f1c87a02777b0fa261dd883d49b2ae5c02c6e81bd0a53ba5d53e12530485664f77811ffaca4c688d18d6122f3a564151676f40f70e45da4fe562355ba17d36458de5f760c8148a11b1fece135e184d2dbf9ecf019d634d8498ae6c6862431f356e1940bc7bb1a252ece1b1605e467f328c79bb45440e29a9444f1948f3737dc02ec2c10862323af3bae0db487768f3aa49fb0967d7eb138302bcb9cedb6b327f4d35a39cf561f1ee73c294825a5de76bd6bf707c5a660e3a417b6ac0586e80ecb6300ea61a618b628d8fcc6c80a37fbfda4e162006259f39441a81fd310c9a323be96b826199149ebdb88ea3e87df96d06c71959b65c4a3e73b50da0a67590625ad154729d9a0a585ba3fc028fc342115f2308566e69cd557f7a7a73474bae3846016f5281b41609a85ee1b4244652d5c1360c9d30fe27dd2d62b415d06a278aafd0816e734b76a3500869747b893809a7c2a185836da26ef253e0a0de429e617a82f8f17f055b1b67fe7366d9a5a491fb47f997937d38e7e8d4cbe8fa227c8b70f8a70e7b667883e393d677c86a9c8ec7144c61cf62e2403893"
            ],
            "gasLimit": [
                "0x38c2a77b"
            ],
            "value": [
                "0x6f33bb2d"
            ],
            "secretKey": "0x45a915e4d060149eb4365960e6a7a45f334393093061116b197e3240065ff2d8",
            "sender": "0xa94f5374fce5edbc8e2a8697c15331677e6ebf0b"
        },
        "post": {
            "ETC_Magneto": [
                {
                    "hash": "36ebe258bafdd1c241d427f44780631028da52febeac6f87df8524c4bc64a60d",
                    "logs": "0f0c3e7507052b883b15a0108881a5d5ec6c92ebbe3d72b3ab332351e44c295e",
                    "txbytes": "0xf903bc800a8438c2a77b94095e7baea6a6c7c4c2dfeb977efac326af552d87846f33bb2db9035566fd78520a4acd897a6e29cf1b15f576b05a2bc0c18bb93a759d3f5e1ac5d34ba1e261c70b7afd59945da98cc373eac6aa543bae2e6726e3ff03ad2e788dc33f3b736ef736637d8ac680281bb29884e641473063e58e7318f5f4cbade311c02eed1c323c19bba7df4729406464b42ed0cb6d0189be83857fb09713ae69e7d2d472e6d85d23920625c84c39489fc80d272868f40c64cc6cb93ea5741d1918dfc8f61086b1b0637390a1934b637c37ec94877d3ea763b20b9e04fa589f30da18f1565bcf15ad38bc735b9d45b5d963cadd77e9e3db27853e7462a6417a4ac9af38f967a198c6f50deb53634bcbbe9c6a83a7357847acc4f6360fa46e43595a8936969798890170a6874b4e67391c228e9d0a754f68635d505c3f9a8c2555728626e286db52177c2228fb04d4b702bea78df3747d6fa1079394222b8d2a0dfc34ce6d9e5664062fa8977526ced3516147e12a7b9e36f6628dd9efe320bef809146e8fad97d5aedf559bcc15442b1fd347758332cb1d4bb96471a01de009dc175e3eae40d189755a7c1f46c55d3353af6fd0ee638735594b4bb2e6aa99fdbc96508431f421dd770b6379f9b5cbee55423a23c5538390612dc07c752c39f1c87a02777b0fa261dd883d49b2ae5c02c6e81bd0a53ba5d53e12530485664f77811ffaca4c688d18d6122f3a564151676f40f70e45da4fe562355ba17d36458de5f760c8148a11b1fece135e184d2dbf9ecf019d634d8498ae6c6862431f356e1940bc7bb1a252ece1b1605e467f328c79bb45440e29a9444f1948f3737dc02ec2c10862323af3bae0db487768f3aa49fb0967d7eb138302bcb9cedb6b327f4d35a39cf561f1ee73c294825a5de76bd6bf707c5a660e3a417b6ac0586e80ecb6300ea61a618b628d8fcc6c80a37fbfda4e162006259f39441a81fd310c9a323be96b826199149ebdb88ea3e87df96d06c71959b65c4a3e73b50da0a67590625ad154729d9a0a585ba3fc028fc342115f2308566e69cd557f7a7a73474bae3846016f5281b41609a85ee1b4244652d5c1360c9d30fe27dd2d62b415d06a278aafd0816e734b76a3500869747b893809a7c2a185836da26ef253e0a0de429e617a82f8f17f055b1b67fe7366d9a5a491fb47f997937d38e7e8d4cbe8fa227c8b70f8a70e7b667883e393d677c86a9c8ec7144c61cf62e24038931ca03cb74bedb54b643d3a95fd3521e2f1c3cf581b6c1bda19f7025b6879e9fe2ebaa04d418074e26b0fcd82152be705bc83f0cbbd05a7b27209660de576eb12febe0f",
                    "indexes": {
                        "data": 0,
                        "gas": 0,
                        "value": 0
                    }
                }
            ],
            "ETC_Mystique": [
                {
                    "hash": "36ebe258bafdd1c241d427f44780631028da52febeac6f87df8524c4bc64a60d",
                    "logs": "0f0c3e7507052b883b15a0108881a5d5ec6c92ebbe3d72b3ab332351e44c295e",
                    "txbytes": "0xf903bc800a8438c2a77b94095e7baea6a6c7c4c2dfeb977efac326af552d87846f33bb2db9035566fd78520a4acd897a6e29cf1b15f576b05a2bc0c18bb93a759d3f5e1ac5d34ba1e261c70b7afd59945da98cc373eac6aa543bae2e6726e3ff03ad2e788dc33f3b736ef736637d8ac680281bb29884e641473063e58e7318f5f4cbade311c02eed1c323c19bba7df4729406464b42ed0cb6d0189be83857fb09713ae69e7d2d472e6d85d23920625c84c39489fc80d272868f40c64cc6cb93ea5741d1918dfc8f61086b1b0637390a1934b637c37ec94877d3ea763b20b9e04fa589f30da18f1565bcf15ad38bc735b9d45b5d963cadd77e9e3db27853e7462a6417a4ac9af38f967a198c6f50deb53634bcbbe9c6a83a7357847acc4f6360fa46e43595a8936969798890170a6874b4e67391c228e9d0a754f68635d505c3f9a8c2555728626e286db52177c2228fb04d4b702bea78df3747d6fa1079394222b8d2a0dfc34ce6d9e5664062fa8977526ced3516147e12a7b9e36f6628dd9efe320bef809146e8fad97d5aedf559bcc15442b1fd347758332cb1d4bb96471a01de009dc175e3eae40d189755a7c1f46c55d3353af6fd0ee638735594b4bb2e6aa99fdbc96508431f421dd770b6379f9b5cbee55423a23c5538390612dc07c752c39f1c87a02777b0fa261dd883d49b2ae5c02c6e81bd0a53ba5d53e12530485664f77811ffaca4c688d18d6122f3a564151676f40f70e45da4fe562355ba17d36458de5f760c8148a11b1fece135e184d2dbf9ecf019d634d8498ae6c6862431f356e1940bc7bb1a252ece1b1605e467f328c79bb45440e29a9444f1948f3737dc02ec2c10862323af3bae0db487768f3aa49fb0967d7eb138302bcb9cedb6b327f4d35a39cf561f1ee73c294825a5de76bd6bf707c5a660e3a417b6ac0586e80ecb6300ea61a618b628d8fcc6c80a37fbfda4e162006259f39441a81fd310c9a323be96b826199149ebdb88ea3e87df96d06c71959b65c4a3e73b50da0a67590625ad154729d9a0a585ba3fc028fc342115f2308566e69cd557f7a7a73474bae3846016f5281b41609a85ee1b4244652d5c1360c9d30fe27dd2d62b415d06a278aafd0816e734b76a3500869747b893809a7c2a185836da26ef253e0a0de429e617a82f8f17f055b1b67fe7366d9a5a491fb47f997937d38e7e8d4cbe8fa227c8b70f8a70e7b667883e393d677c86a9c8ec7144c61cf62e24038931ca03cb74bedb54b643d3a95fd3521e2f1c3cf581b6c1bda19f7025b6879e9fe2ebaa04d418074e26b0fcd82152be705bc83f0cbbd05a7b27209660de576eb12febe0f",
                    "indexes": {
                        "data": 0,
                        "gas": 0,
                        "value": 0
                    }
                }
            ],
            "ETC_Phoenix": [
                {
                    "hash": "e825f35d03041b0fa0c55edea364097071032d00bcece117db15ddebe7e88435",
                    "logs": "042f1ceacd88d7ac290d72cf831073d6513ffc785875a42b272ea74828c54fbe",
                    "txbytes": "0xf903bc800a8438c2a77b94095e7baea6a6c7c4c2dfeb977efac326af552d87846f33bb2db9035566fd78520a4acd897a6e29cf1b15f576b05a2bc0c18bb93a759d3f5e1ac5d34ba1e261c70b7afd59945da98cc373eac6aa543bae2e6726e3ff03ad2e788dc33f3b736ef736637d8ac680281bb29884e641473063e58e7318f5f4cbade311c02eed1c323c19bba7df4729406464b42ed0cb6d0189be83857fb09713ae69e7d2d472e6d85d23920625c84c39489fc80d272868f40c64cc6cb93ea5741d1918dfc8f61086b1b0637390a1934b637c37ec94877d3ea763b20b9e04fa589f30da18f1565bcf15ad38bc735b9d45b5d963cadd77e9e3db27853e7462a6417a4ac9af38f967a198c6f50deb53634bcbbe9c6a83a7357847acc4f6360fa46e43595a8936969798890170a6874b4e67391c228e9d0a754f68635d505c3f9a8c2555728626e286db52177c2228fb04d4b702bea78df3747d6fa1079394222b8d2a0dfc34ce6d9e5664062fa8977526ced3516147e12a7b9e36f6628dd9efe320bef809146e8fad97d5aedf559bcc15442b1fd347758332cb1d4bb96471a01de009dc175e3eae40d189755a7c1f46c55d3353af6fd0ee638735594b4bb2e6aa99fdbc96508431f421dd770b6379f9b5cbee55423a23c5538390612dc07c752c39f1c87a02777b0fa261dd883d49b2ae5c02c6e81bd0a53ba5d53e12530485664f77811ffaca4c688d18d6122f3a564151676f40f70e45da4fe562355ba17d36458de5f760c8148a11b1fece135e184d2dbf9ecf019d634d8498ae6c6862431f356e1940bc7bb1a252ece1b1605e467f328c79bb45440e29a9444f1948f3737dc02ec2c10862323af3bae0db487768f3aa49fb0967d7eb138302bcb9cedb6b327f4d35a39cf561f1ee73c294825a5de76bd6bf707c5a660e3a417b6ac0586e80ecb6300ea61a618b628d8fcc6c80a37fbfda4e162006259f39441a81fd310c9a323be96b826199149ebdb88ea3e87df96d06c71959b65c4a3e73b50da0a67590625ad154729d9a0a585ba3fc028fc342115f2308566e69cd557f7a7a73474bae3846016f5281b41609a85ee1b4244652d5c1360c9d30fe27dd2d62b415d06a278aafd0816e734b76a3500869747b893809a7c2a185836da26ef253e0a0de429e617a82f8f17f055b1b67fe7366d9a5a491fb47f997937d38e7e8d4cbe8fa227c8b70f8a70e7b667883e393d677c86a9c8ec7144c61cf62e24038931ca03cb74bedb54b643d3a95fd3521e2f1c3cf581b6c1bda19f7025b6879e9fe2ebaa04d418074e26b0fcd82152be705bc83f0cbbd05a7b27209660de576eb12febe0f",
                    "indexes": {
                        "data": 0,
                        "gas": 0,
                        "value": 0
                    }
                }
            ]
        }
    }
}