{
    "randomStatetest342": {
        "_info": {
            "comment": "",
            "filling-rpc-server": "evm version 1.10.16-unstable-0f893109-20220105",
            "filling-tool-version": "retesteth-0.2.2-testinfo+commit.01c6aac2.Linux.g++",
            "filledWith": "CoreGeth-1.12.9-unstable-f4059ddd82d975bdc54fa648e5422a80172161cb",
            "lllcversion": "Version: 0.5.14-develop.2021.11.27+commit.401d5358.Linux.g++",
            "source": "src/GeneralStateTestsFiller/stRandom/randomStatetest342Filler.json",
            "sourceHash": "6ee73e0d195f4cb00e56955b8b705687ad81c66dcb25b0a41236d9235d961409"
        },
        "env": {
            "currentCoinbase": "945304eb96065b2a98b57a48a06ae28d285a71b5",
            "currentDifficulty": "0x20000",
            "currentRandom": null,
            "currentGasLimit": "0x7fffffffffffffff",
            "currentNumber": "0x1",
            "currentTimestamp": "0x3e8",
            "currentBaseFee": "0xa"
        },
        "pre": {
            "0x095e7baea6a6c7c4c2dfeb977efac326af552d87": {
                "code": "0x7f00000000000000000000000100000000000000000000000000000000000000007f00000000000000000000000000000000000000000000000000000000000000017f000000000000000000000000000000000000000000000000000000000000000041147fffffffffffffffffffffffffffffffffffffffffffffffffffffffffffffffff7f00000000000000000000000000000000000000000000000000000000000000007fffffffffffffffffffffffffffffffffffffffffffffffffffffffffffffffff6f36314297399455797b42569e8f05565560005155",
                "balance": "0x0"
            },
            "0x945304eb96065b2a98b57a48a06ae28d285a71b5": {
                "code": "0x6000355415600957005b60203560003555",
                "balance": "0x2e"
            },
            "0xa94f5374fce5edbc8e2a8697c15331677e6ebf0b": {
                "balance": "0xde0b6b3a7640000"
            }
        },
        "transaction": {
            "gasPrice": "0xa",
            "maxFeePerGas": null,
            "maxPriorityFeePerGas": null,
            "nonce": "0x0",
            "to": "0x095e7baea6a6c7c4c2dfeb977efac326af552d87",
            "data": [
                "0x7f00000000000000000000000100000000000000000000000000000000000000007f00000000000000000000000000000000000000000000000000000000000000017f000000000000000000000000000000000000000000000000000000000000000041147fffffffffffffffffffffffffffffffffffffffffffffffffffffffffffffffff7f00000000000000000000000000000000000000000000000000000000000000007fffffffffffffffffffffffffffffffffffffffffffffffffffffffffffffffff6f36314297399455797b42569e8f0556"
            ],
            "gasLimit": [
                "0x6ef54abd"
            ],
            "value": [
                "0x6312a8c4"
            ],
            "secretKey": "0x45a915e4d060149eb4365960e6a7a45f334393093061116b197e3240065ff2d8"
        },
        "out": "0x",
        "post": {
            "ETC_Magneto": [
                {
                    "hash": "39b7e8f8731101133dca216bf12ba2db99e272f6181d5daff3dc01ed13478c7a",
                    "logs": "1dcc4de8dec75d7aab85b567b6ccd41ad312451b948a7413f0a142fd40d49347",
                    "txbytes": "0xf9013e800a846ef54abd94095e7baea6a6c7c4c2dfeb977efac326af552d87846312a8c4b8d87f00000000000000000000000100000000000000000000000000000000000000007f00000000000000000000000000000000000000000000000000000000000000017f000000000000000000000000000000000000000000000000000000000000000041147fffffffffffffffffffffffffffffffffffffffffffffffffffffffffffffffff7f00000000000000000000000000000000000000000000000000000000000000007fffffffffffffffffffffffffffffffffffffffffffffffffffffffffffffffff6f36314297399455797b42569e8f05561ca0725da9895af3ef8a21a5f114a4bde34e7fc6878e7c28397b24382636043e1594a077b2632766bb9f8c4b4c4f3133c88b729787e20b9f0587f6323c9d7dd4dfcda2",
                    "indexes": {
                        "data": 0,
                        "gas": 0,
                        "value": 0
                    }
                }
            ],
            "ETC_Mystique": [
                {
                    "hash": "39b7e8f8731101133dca216bf12ba2db99e272f6181d5daff3dc01ed13478c7a",
                    "logs": "1dcc4de8dec75d7aab85b567b6ccd41ad312451b948a7413f0a142fd40d49347",
                    "txbytes": "0xf9013e800a846ef54abd94095e7baea6a6c7c4c2dfeb977efac326af552d87846312a8c4b8d87f00000000000000000000000100000000000000000000000000000000000000007f00000000000000000000000000000000000000000000000000000000000000017f000000000000000000000000000000000000000000000000000000000000000041147fffffffffffffffffffffffffffffffffffffffffffffffffffffffffffffffff7f00000000000000000000000000000000000000000000000000000000000000007fffffffffffffffffffffffffffffffffffffffffffffffffffffffffffffffff6f36314297399455797b42569e8f05561ca0725da9895af3ef8a21a5f114a4bde34e7fc6878e7c28397b24382636043e1594a077b2632766bb9f8c4b4c4f3133c88b729787e20b9f0587f6323c9d7dd4dfcda2",
                    "indexes": {
                        "data": 0,
                        "gas": 0,
                        "value": 0
                    }
                }
            ],
            "ETC_Phoenix": [
                {
                    "hash": "f86e9508251d10cf5b3e18b08189d36b94a2442dddf692e72bfeebdebc3a2991",
                    "logs": "1dcc4de8dec75d7aab85b567b6ccd41ad312451b948a7413f0a142fd40d49347",
                    "txbytes": "0xf9013e800a846ef54abd94095e7baea6a6c7c4c2dfeb977efac326af552d87846312a8c4b8d87f00000000000000000000000100000000000000000000000000000000000000007f00000000000000000000000000000000000000000000000000000000000000017f000000000000000000000000000000000000000000000000000000000000000041147fffffffffffffffffffffffffffffffffffffffffffffffffffffffffffffffff7f00000000000000000000000000000000000000000000000000000000000000007fffffffffffffffffffffffffffffffffffffffffffffffffffffffffffffffff6f36314297399455797b42569e8f05561ca0725da9895af3ef8a21a5f114a4bde34e7fc6878e7c28397b24382636043e1594a077b2632766bb9f8c4b4c4f3133c88b729787e20b9f0587f6323c9d7dd4dfcda2",
                    "indexes": {
                        "data": 0,
                        "gas": 0,
                        "value": 0
                    }
                }
            ]
        }
    }
}