{
    "randomStatetest323": {
        "_info": {
            "comment": "",
            "filling-rpc-server": "evm version 1.10.16-unstable-0f893109-20220105",
            "filling-tool-version": "retesteth-0.2.2-testinfo+commit.01c6aac2.Linux.g++",
            "filledWith": "CoreGeth-1.12.9-unstable-4cf5b2b0837228e7d5eadba6a01ffb80e9288e21",
            "lllcversion": "Version: 0.5.14-develop.2021.11.27+commit.401d5358.Linux.g++",
            "source": "src/GeneralStateTestsFiller/stRandom/randomStatetest323Filler.json",
            "sourceHash": "3d7bfef6ef500e177065e44bdf6cfa7c241a8f95c6410fb215f9c07243badadd"
        },
        "env": {
            "currentCoinbase": "0x945304eb96065b2a98b57a48a06ae28d285a71b5",
            "currentDifficulty": "0x20000",
            "currentGasLimit": "0x7fffffffffffffff",
            "currentNumber": "0x1",
            "currentTimestamp": "0x3e8",
            "previousHash": "0x5e20a0453cecd065ea59c37ac63e079ee08998b6045136a8ce6635c7912ec0b6"
        },
        "pre": {
            "0x095e7baea6a6c7c4c2dfeb977efac326af552d87": {
                "code": "0x6f7f00000000000000000000000000000000000000000000000000000000000000007f000000000000000000000000ffffffffffffffffffffffffffffffffffffffff7f000000000000000000000000945304eb96065b2a98b57a48a06ae28d285a71b57ffffffffffffffffffffffffffffffffffffffffffffffffffffffffffffffffe74977f000000000000000000000000000000000000000000000000000000000000c3506f6b7936181136392060005155",
                "balance": "0x0",
                "nonce": "0x0"
            },
            "0x945304eb96065b2a98b57a48a06ae28d285a71b5": {
                "code": "0x6000355415600957005b60203560003555",
                "balance": "0x2e",
                "nonce": "0x0"
            },
            "0xa94f5374fce5edbc8e2a8697c15331677e6ebf0b": {
                "code": "0x",
                "balance": "0xde0b6b3a7640000",
                "nonce": "0x0"
            }
        },
        "transaction": {
            "gasPrice": "0xa",
            "nonce": "0x0",
            "to": "0x095e7baea6a6c7c4c2dfeb977efac326af552d87",
            "data": [
                "0x6f7f00000000000000000000000000000000000000000000000000000000000000007f000000000000000000000000ffffffffffffffffffffffffffffffffffffffff7f000000000000000000000000945304eb96065b2a98b57a48a06ae28d285a71b57ffffffffffffffffffffffffffffffffffffffffffffffffffffffffffffffffe74977f000000000000000000000000000000000000000000000000000000000000c3506f6b79361811363920"
            ],
            "gasLimit": [
                "0x5bca15f0"
            ],
            "value": [
                "0x7490871f"
            ],
            "secretKey": "0x45a915e4d060149eb4365960e6a7a45f334393093061116b197e3240065ff2d8",
            "sender": "0xa94f5374fce5edbc8e2a8697c15331677e6ebf0b"
        },
        "post": {
            "ETC_Magneto": [
                {
                    "hash": "9b9023629a1da451552007d7f0b91cdcfb25168ab010410915596d3786d3ea31",
                    "logs": "1dcc4de8dec75d7aab85b567b6ccd41ad312451b948a7413f0a142fd40d49347",
                    "txbytes": "0xf90117800a845bca15f094095e7baea6a6c7c4c2dfeb977efac326af552d87847490871fb8b16f7f00000000000000000000000000000000000000000000000000000000000000007f000000000000000000000000ffffffffffffffffffffffffffffffffffffffff7f000000000000000000000000945304eb96065b2a98b57a48a06ae28d285a71b57ffffffffffffffffffffffffffffffffffffffffffffffffffffffffffffffffe74977f000000000000000000000000000000000000000000000000000000000000c3506f6b793618113639201ca03119cb8fc0c2b877b90b39abee3bea4a7015c633aa5ad6d9a7b86b06f463fc00a02b7f146c90381b89ce6d9b71146275eb31830ecae5d18dfd5f9705a0d71cdbab",
                    "indexes": {
                        "data": 0,
                        "gas": 0,
                        "value": 0
                    }
                }
            ],
            "ETC_Mystique": [
                {
                    "hash": "9b9023629a1da451552007d7f0b91cdcfb25168ab010410915596d3786d3ea31",
                    "logs": "1dcc4de8dec75d7aab85b567b6ccd41ad312451b948a7413f0a142fd40d49347",
                    "txbytes": "0xf90117800a845bca15f094095e7baea6a6c7c4c2dfeb977efac326af552d87847490871fb8b16f7f00000000000000000000000000000000000000000000000000000000000000007f000000000000000000000000ffffffffffffffffffffffffffffffffffffffff7f000000000000000000000000945304eb96065b2a98b57a48a06ae28d285a71b57ffffffffffffffffffffffffffffffffffffffffffffffffffffffffffffffffe74977f000000000000000000000000000000000000000000000000000000000000c3506f6b793618113639201ca03119cb8fc0c2b877b90b39abee3bea4a7015c633aa5ad6d9a7b86b06f463fc00a02b7f146c90381b89ce6d9b71146275eb31830ecae5d18dfd5f9705a0d71cdbab",
                    "indexes": {
                        "data": 0,
                        "gas": 0,
                        "value": 0
                    }
                }
            ],
            "ETC_Phoenix": [
                {
                    "hash": "9b9023629a1da451552007d7f0b91cdcfb25168ab010410915596d3786d3ea31",
                    "logs": "1dcc4de8dec75d7aab85b567b6ccd41ad312451b948a7413f0a142fd40d49347",
                    "txbytes": "0xf90117800a845bca15f094095e7baea6a6c7c4c2dfeb977efac326af552d87847490871fb8b16f7f00000000000000000000000000000000000000000000000000000000000000007f000000000000000000000000ffffffffffffffffffffffffffffffffffffffff7f000000000000000000000000945304eb96065b2a98b57a48a06ae28d285a71b57ffffffffffffffffffffffffffffffffffffffffffffffffffffffffffffffffe74977f000000000000000000000000000000000000000000000000000000000000c3506f6b793618113639201ca03119cb8fc0c2b877b90b39abee3bea4a7015c633aa5ad6d9a7b86b06f463fc00a02b7f146c90381b89ce6d9b71146275eb31830ecae5d18dfd5f9705a0d71cdbab",
                    "indexes": {
                        "data": 0,
                        "gas": 0,
                        "value": 0
                    }
                }
            ]
        }
    }
}