{
    "randomStatetest84": {
        "_info": {
            "comment": "",
            "filling-rpc-server": "evm version 1.10.16-unstable-0f893109-20220105",
            "filling-tool-version": "retesteth-0.2.2-testinfo+commit.01c6aac2.Linux.g++",
            "filledWith": "CoreGeth-1.12.9-unstable-d390462df9df233b60b4cd7a37db5b3043832022",
            "lllcversion": "Version: 0.5.14-develop.2021.11.27+commit.401d5358.Linux.g++",
            "source": "src/GeneralStateTestsFiller/stRandom/randomStatetest84Filler.json",
            "sourceHash": "56c1d6b169bda82783ca22e9b2dddddaa2c4cf1320d5b2586acaf1703b734ade"
        },
        "env": {
            "currentCoinbase": "0x945304eb96065b2a98b57a48a06ae28d285a71b5",
            "currentDifficulty": "0x20000",
            "currentGasLimit": "0x7fffffffffffffff",
            "currentNumber": "0x1",
            "currentTimestamp": "0x3e8",
            "previousHash": "0x5e20a0453cecd065ea59c37ac63e079ee08998b6045136a8ce6635c7912ec0b6"
        },
        "pre": {
            "0x095e7baea6a6c7c4c2dfeb977efac326af552d87": {
                "code": "0x7ffffffffffffffffffffffffffffffffffffffffffffffffffffffffffffffffe7f000000000000000000000001000000000000000000000000000000000000000044457f0000000000000000000000000000000000000000000000000000000000000001187f00000000000000000000000000000000000000000000000000000000000000017fffffffffffffffffffffffffffffffffffffffffffffffffffffffffffffffff52155955",
                "balance": "0x0",
                "nonce": "0x0"
            },
            "0x945304eb96065b2a98b57a48a06ae28d285a71b5": {
                "code": "0x6000355415600957005b60203560003555",
                "balance": "0x2e",
                "nonce": "0x0"
            },
            "0xa94f5374fce5edbc8e2a8697c15331677e6ebf0b": {
                "code": "0x",
                "balance": "0xde0b6b3a7640000",
                "nonce": "0x0"
            }
        },
        "transaction": {
            "gasPrice": "0xa",
            "nonce": "0x0",
            "to": "0x095e7baea6a6c7c4c2dfeb977efac326af552d87",
            "data": [
                "0x7ffffffffffffffffffffffffffffffffffffffffffffffffffffffffffffffffe7f000000000000000000000001000000000000000000000000000000000000000044457f0000000000000000000000000000000000000000000000000000000000000001187f00000000000000000000000000000000000000000000000000000000000000017fffffffffffffffffffffffffffffffffffffffffffffffffffffffffffffffff521559"
            ],
            "gasLimit": [
                "0x4c882f36"
            ],
            "value": [
                "0x28841bd1"
            ],
            "secretKey": "0x45a915e4d060149eb4365960e6a7a45f334393093061116b197e3240065ff2d8",
            "sender": "0xa94f5374fce5edbc8e2a8697c15331677e6ebf0b"
        },
        "post": {
            "ETC_Magneto": [
                {
                    "hash": "0101a7e72a7fbb4d96a572c84dfef9a23a9bbdbd6c9611a14ad30b9c27814f0e",
                    "logs": "1dcc4de8dec75d7aab85b567b6ccd41ad312451b948a7413f0a142fd40d49347",
                    "txbytes": "0xf90111800a844c882f3694095e7baea6a6c7c4c2dfeb977efac326af552d878428841bd1b8ab7ffffffffffffffffffffffffffffffffffffffffffffffffffffffffffffffffe7f000000000000000000000001000000000000000000000000000000000000000044457f0000000000000000000000000000000000000000000000000000000000000001187f00000000000000000000000000000000000000000000000000000000000000017fffffffffffffffffffffffffffffffffffffffffffffffffffffffffffffffff5215591ba0b177c2bca1b4f40c0cfcf5637f3eb4691f90b2ac51246a91a5cd85fbc134baf2a05dd0ea047945e31b536718bdfdcd50e99ee1bb41a4c299dbde90e440a12e8c99",
                    "indexes": {
                        "data": 0,
                        "gas": 0,
                        "value": 0
                    }
                }
            ],
            "ETC_Mystique": [
                {
                    "hash": "0101a7e72a7fbb4d96a572c84dfef9a23a9bbdbd6c9611a14ad30b9c27814f0e",
                    "logs": "1dcc4de8dec75d7aab85b567b6ccd41ad312451b948a7413f0a142fd40d49347",
                    "txbytes": "0xf90111800a844c882f3694095e7baea6a6c7c4c2dfeb977efac326af552d878428841bd1b8ab7ffffffffffffffffffffffffffffffffffffffffffffffffffffffffffffffffe7f000000000000000000000001000000000000000000000000000000000000000044457f0000000000000000000000000000000000000000000000000000000000000001187f00000000000000000000000000000000000000000000000000000000000000017fffffffffffffffffffffffffffffffffffffffffffffffffffffffffffffffff5215591ba0b177c2bca1b4f40c0cfcf5637f3eb4691f90b2ac51246a91a5cd85fbc134baf2a05dd0ea047945e31b536718bdfdcd50e99ee1bb41a4c299dbde90e440a12e8c99",
                    "indexes": {
                        "data": 0,
                        "gas": 0,
                        "value": 0
                    }
                }
            ],
            "ETC_Phoenix": [
                {
                    "hash": "0101a7e72a7fbb4d96a572c84dfef9a23a9bbdbd6c9611a14ad30b9c27814f0e",
                    "logs": "1dcc4de8dec75d7aab85b567b6ccd41ad312451b948a7413f0a142fd40d49347",
                    "txbytes": "0xf90111800a844c882f3694095e7baea6a6c7c4c2dfeb977efac326af552d878428841bd1b8ab7ffffffffffffffffffffffffffffffffffffffffffffffffffffffffffffffffe7f000000000000000000000001000000000000000000000000000000000000000044457f0000000000000000000000000000000000000000000000000000000000000001187f00000000000000000000000000000000000000000000000000000000000000017fffffffffffffffffffffffffffffffffffffffffffffffffffffffffffffffff5215591ba0b177c2bca1b4f40c0cfcf5637f3eb4691f90b2ac51246a91a5cd85fbc134baf2a05dd0ea047945e31b536718bdfdcd50e99ee1bb41a4c299dbde90e440a12e8c99",
                    "indexes": {
                        "data": 0,
                        "gas": 0,
                        "value": 0
                    }
                }
            ]
        }
    }
}