{
    "randomStatetest185": {
        "_info": {
            "comment": "",
            "filling-rpc-server": "evm version 1.10.16-unstable-0f893109-20220105",
            "filling-tool-version": "retesteth-0.2.2-testinfo+commit.01c6aac2.Linux.g++",
            "filledWith": "CoreGeth-1.12.9-unstable-4cf5b2b0837228e7d5eadba6a01ffb80e9288e21",
            "lllcversion": "Version: 0.5.14-develop.2021.11.27+commit.401d5358.Linux.g++",
            "source": "src/GeneralStateTestsFiller/stRandom/randomStatetest185Filler.json",
            "sourceHash": "947f0f55c364f058a0c81037d71c5299ddb8adad0b7cfa5aa39d01e8568547e1"
        },
        "env": {
            "currentCoinbase": "0x945304eb96065b2a98b57a48a06ae28d285a71b5",
            "currentDifficulty": "0x20000",
            "currentGasLimit": "0x7fffffffffffffff",
            "currentNumber": "0x1",
            "currentTimestamp": "0x3e8",
            "previousHash": "0x5e20a0453cecd065ea59c37ac63e079ee08998b6045136a8ce6635c7912ec0b6"
        },
        "pre": {
            "0x095e7baea6a6c7c4c2dfeb977efac326af552d87": {
                "code": "0x7f000000000000000000000000000000000000000000000000000000000000c3507f00000000000000000000000000000000000000000000000000000000000000007f000000000000000000000000ffffffffffffffffffffffffffffffffffffffff411a7f000000000000000000000000ffffffffffffffffffffffffffffffffffffffff7f000000000000000000000000ffffffffffffffffffffffffffffffffffffffff7f000000000000000000000000000000000000000000000000000000000000000162805a8d3aa3",
                "balance": "0x0",
                "nonce": "0x0"
            },
            "0x945304eb96065b2a98b57a48a06ae28d285a71b5": {
                "code": "0x6000355415600957005b60203560003555",
                "balance": "0x2e",
                "nonce": "0x0"
            },
            "0xa94f5374fce5edbc8e2a8697c15331677e6ebf0b": {
                "code": "0x",
                "balance": "0xde0b6b3a7640000",
                "nonce": "0x0"
            }
        },
        "transaction": {
            "gasPrice": "0xa",
            "nonce": "0x0",
            "to": "0x095e7baea6a6c7c4c2dfeb977efac326af552d87",
            "data": [
                "0x7f000000000000000000000000000000000000000000000000000000000000c3507f00000000000000000000000000000000000000000000000000000000000000007f000000000000000000000000ffffffffffffffffffffffffffffffffffffffff411a7f000000000000000000000000ffffffffffffffffffffffffffffffffffffffff7f000000000000000000000000ffffffffffffffffffffffffffffffffffffffff7f000000000000000000000000000000000000000000000000000000000000000162805a8d3aa3"
            ],
            "gasLimit": [
                "0x6ab0d01f"
            ],
            "value": [
                "0x451cf342"
            ],
            "secretKey": "0x45a915e4d060149eb4365960e6a7a45f334393093061116b197e3240065ff2d8",
            "sender": "0xa94f5374fce5edbc8e2a8697c15331677e6ebf0b"
        },
        "post": {
            "ETC_Magneto": [
                {
                    "hash": "dcac1a801cf44dde596acd2e5e7e019824f677499b37984560a01c57a79864ba",
                    "logs": "5023bf96b6d1568e46d0da4ac91f1ea187bcef4c96e0b712a4d5ffcb7eb77c15",
                    "txbytes": "0xf90134800a846ab0d01f94095e7baea6a6c7c4c2dfeb977efac326af552d8784451cf342b8ce7f000000000000000000000000000000000000000000000000000000000000c3507f00000000000000000000000000000000000000000000000000000000000000007f000000000000000000000000ffffffffffffffffffffffffffffffffffffffff411a7f000000000000000000000000ffffffffffffffffffffffffffffffffffffffff7f000000000000000000000000ffffffffffffffffffffffffffffffffffffffff7f000000000000000000000000000000000000000000000000000000000000000162805a8d3aa31ba0773fd4d49e0e891c06bd309334100909fc24d4a9640483a4221790c89c9d01f8a033d852c6d4385265419e8d09fbafd3b0c2bfe902cf0e53bb993cc05f108d2c2e",
                    "indexes": {
                        "data": 0,
                        "gas": 0,
                        "value": 0
                    }
                }
            ],
            "ETC_Mystique": [
                {
                    "hash": "dcac1a801cf44dde596acd2e5e7e019824f677499b37984560a01c57a79864ba",
                    "logs": "5023bf96b6d1568e46d0da4ac91f1ea187bcef4c96e0b712a4d5ffcb7eb77c15",
                    "txbytes": "0xf90134800a846ab0d01f94095e7baea6a6c7c4c2dfeb977efac326af552d8784451cf342b8ce7f000000000000000000000000000000000000000000000000000000000000c3507f00000000000000000000000000000000000000000000000000000000000000007f000000000000000000000000ffffffffffffffffffffffffffffffffffffffff411a7f000000000000000000000000ffffffffffffffffffffffffffffffffffffffff7f000000000000000000000000ffffffffffffffffffffffffffffffffffffffff7f000000000000000000000000000000000000000000000000000000000000000162805a8d3aa31ba0773fd4d49e0e891c06bd309334100909fc24d4a9640483a4221790c89c9d01f8a033d852c6d4385265419e8d09fbafd3b0c2bfe902cf0e53bb993cc05f108d2c2e",
                    "indexes": {
                        "data": 0,
                        "gas": 0,
                        "value": 0
                    }
                }
            ],
            "ETC_Phoenix": [
                {
                    "hash": "dcac1a801cf44dde596acd2e5e7e019824f677499b37984560a01c57a79864ba",
                    "logs": "5023bf96b6d1568e46d0da4ac91f1ea187bcef4c96e0b712a4d5ffcb7eb77c15",
                    "txbytes": "0xf90134800a846ab0d01f94095e7baea6a6c7c4c2dfeb977efac326af552d8784451cf342b8ce7f000000000000000000000000000000000000000000000000000000000000c3507f00000000000000000000000000000000000000000000000000000000000000007f000000000000000000000000ffffffffffffffffffffffffffffffffffffffff411a7f000000000000000000000000ffffffffffffffffffffffffffffffffffffffff7f000000000000000000000000ffffffffffffffffffffffffffffffffffffffff7f000000000000000000000000000000000000000000000000000000000000000162805a8d3aa31ba0773fd4d49e0e891c06bd309334100909fc24d4a9640483a4221790c89c9d01f8a033d852c6d4385265419e8d09fbafd3b0c2bfe902cf0e53bb993cc05f108d2c2e",
                    "indexes": {
                        "data": 0,
                        "gas": 0,
                        "value": 0
                    }
                }
            ]
        }
    }
}