{
    "randomStatetest100": {
        "_info": {
            "comment": "",
            "filling-rpc-server": "evm version 1.10.16-unstable-0f893109-20220105",
            "filling-tool-version": "retesteth-0.2.2-testinfo+commit.01c6aac2.Linux.g++",
            "filledWith": "CoreGeth-1.12.9-unstable-d390462df9df233b60b4cd7a37db5b3043832022",
            "lllcversion": "Version: 0.5.14-develop.2021.11.27+commit.401d5358.Linux.g++",
            "source": "src/GeneralStateTestsFiller/stRandom/randomStatetest100Filler.json",
            "sourceHash": "19f2499d859cd5b03c12544b8122dd794a04f2ab9501eac88b4c90f962df10db"
        },
        "env": {
            "currentCoinbase": "0x945304eb96065b2a98b57a48a06ae28d285a71b5",
            "currentDifficulty": "0x20000",
            "currentGasLimit": "0x7fffffffffffffff",
            "currentNumber": "0x1",
            "currentTimestamp": "0x3e8",
            "previousHash": "0x5e20a0453cecd065ea59c37ac63e079ee08998b6045136a8ce6635c7912ec0b6"
        },
        "pre": {
            "0x095e7baea6a6c7c4c2dfeb977efac326af552d87": {
                "code": "0x414243444342444283f24455",
                "balance": "0xde0b6b3a7640000",
                "nonce": "0x0"
            },
            "0x945304eb96065b2a98b57a48a06ae28d285a71b5": {
                "code": "0x6000355415600957005b60203560003555",
                "balance": "0x2e",
                "nonce": "0x0"
            },
            "0xa94f5374fce5edbc8e2a8697c15331677e6ebf0b": {
                "code": "0x",
                "balance": "0xde0b6b3a7640000",
                "nonce": "0x0"
            }
        },
        "transaction": {
            "gasPrice": "0xa",
            "nonce": "0x0",
            "to": "0x095e7baea6a6c7c4c2dfeb977efac326af552d87",
            "data": [
                "0x42"
            ],
            "gasLimit": [
                "0x61a80"
            ],
            "value": [
                "0x0186a0"
            ],
            "secretKey": "0x45a915e4d060149eb4365960e6a7a45f334393093061116b197e3240065ff2d8",
            "sender": "0xa94f5374fce5edbc8e2a8697c15331677e6ebf0b"
        },
        "post": {
            "ETC_Magneto": [
                {
                    "hash": "2c8d3574ffb4d38a51eb88f214a4d44db0e86edbeafc3b81b28810a26e5bdcb1",
                    "logs": "1dcc4de8dec75d7aab85b567b6ccd41ad312451b948a7413f0a142fd40d49347",
                    "txbytes": "0xf863800a83061a8094095e7baea6a6c7c4c2dfeb977efac326af552d87830186a0421ca0b8dc57210e10107f8fca7b1942bb8914b6f36cfeff54d2a9a0ff45f03c660868a078aafb7bb632c717067f9165cd30c5d37b4e0713cdc01b446073abb837413a78",
                    "indexes": {
                        "data": 0,
                        "gas": 0,
                        "value": 0
                    }
                }
            ],
            "ETC_Mystique": [
                {
                    "hash": "2c8d3574ffb4d38a51eb88f214a4d44db0e86edbeafc3b81b28810a26e5bdcb1",
                    "logs": "1dcc4de8dec75d7aab85b567b6ccd41ad312451b948a7413f0a142fd40d49347",
                    "txbytes": "0xf863800a83061a8094095e7baea6a6c7c4c2dfeb977efac326af552d87830186a0421ca0b8dc57210e10107f8fca7b1942bb8914b6f36cfeff54d2a9a0ff45f03c660868a078aafb7bb632c717067f9165cd30c5d37b4e0713cdc01b446073abb837413a78",
                    "indexes": {
                        "data": 0,
                        "gas": 0,
                        "value": 0
                    }
                }
            ],
            "ETC_Phoenix": [
                {
                    "hash": "c976f3445fd5d54ae35ec488e3f49ef26eb2182e399ba002ed74eb3cc9a18348",
                    "logs": "1dcc4de8dec75d7aab85b567b6ccd41ad312451b948a7413f0a142fd40d49347",
                    "txbytes": "0xf863800a83061a8094095e7baea6a6c7c4c2dfeb977efac326af552d87830186a0421ca0b8dc57210e10107f8fca7b1942bb8914b6f36cfeff54d2a9a0ff45f03c660868a078aafb7bb632c717067f9165cd30c5d37b4e0713cdc01b446073abb837413a78",
                    "indexes": {
                        "data": 0,
                        "gas": 0,
                        "value": 0
                    }
                }
            ]
        }
    }
}