{
    "randomStatetest137": {
        "_info": {
            "comment": "",
            "filling-rpc-server": "evm version 1.10.16-unstable-0f893109-20220105",
            "filling-tool-version": "retesteth-0.2.2-testinfo+commit.01c6aac2.Linux.g++",
            "filledWith": "CoreGeth-1.12.9-unstable-3995a327f2ded5c98324b03792b5ccc22557754f",
            "lllcversion": "Version: 0.5.14-develop.2021.11.27+commit.401d5358.Linux.g++",
            "source": "src/GeneralStateTestsFiller/stRandom/randomStatetest137Filler.json",
            "sourceHash": "cc59438a43f3d833eda9c7f130b76d0797de3e70cab4f5999a3405a2732e57e8"
        },
        "env": {
            "currentCoinbase": "0x945304eb96065b2a98b57a48a06ae28d285a71b5",
            "currentDifficulty": "0x20000",
            "currentGasLimit": "0x7fffffffffffffff",
            "currentNumber": "0x1",
            "currentTimestamp": "0x3e8",
            "currentBaseFee": "0xa",
            "previousHash": "0x5e20a0453cecd065ea59c37ac63e079ee08998b6045136a8ce6635c7912ec0b6"
        },
        "pre": {
            "0x095e7baea6a6c7c4c2dfeb977efac326af552d87": {
                "code": "0x7f000000000000000000000000ffffffffffffffffffffffffffffffffffffffff7f00000000000000000000000000000000000000000000000000000000000000007f0000000000000000000000000000000000000000000000000000000000000000087f00000000000000000000000100000000000000000000000000000000000000007f00000000000000000000000000000000000000000000000000000000000000017e7f000000000000000000000000945304eb96065b2a98b57a48a06ae28d285a71b5a130e86ca17390989355f092a25560005155",
                "balance": "0x0"
            },
            "0x945304eb96065b2a98b57a48a06ae28d285a71b5": {
                "code": "0x6000355415600957005b60203560003555",
                "balance": "0x2e"
            },
            "0xa94f5374fce5edbc8e2a8697c15331677e6ebf0b": {
                "balance": "0xde0b6b3a7640000"
            }
        },
        "transaction": {
            "gasPrice": "0xa",
            "nonce": "0x0",
            "to": "0x095e7baea6a6c7c4c2dfeb977efac326af552d87",
            "data": [
                "0x7f000000000000000000000000ffffffffffffffffffffffffffffffffffffffff7f00000000000000000000000000000000000000000000000000000000000000007f0000000000000000000000000000000000000000000000000000000000000000087f00000000000000000000000100000000000000000000000000000000000000007f00000000000000000000000000000000000000000000000000000000000000017e7f000000000000000000000000945304eb96065b2a98b57a48a06ae28d285a71b5a130e86ca17390989355f092a2"
            ],
            "gasLimit": [
                "0x2bbb2129"
            ],
            "value": [
                "0x33ac85e7"
            ],
            "secretKey": "0x45a915e4d060149eb4365960e6a7a45f334393093061116b197e3240065ff2d8",
            "sender": "0xa94f5374fce5edbc8e2a8697c15331677e6ebf0b"
        },
        "post": {
            "ETC_Magneto": [
                {
                    "hash": "dcaeea09289f8e860610f6469e894c50a8628d90800a75c0d1a256cdc18b2783",
                    "logs": "1dcc4de8dec75d7aab85b567b6ccd41ad312451b948a7413f0a142fd40d49347",
                    "txbytes": "0xf9013b800a842bbb212994095e7baea6a6c7c4c2dfeb977efac326af552d878433ac85e7b8d57f000000000000000000000000ffffffffffffffffffffffffffffffffffffffff7f00000000000000000000000000000000000000000000000000000000000000007f0000000000000000000000000000000000000000000000000000000000000000087f00000000000000000000000100000000000000000000000000000000000000007f00000000000000000000000000000000000000000000000000000000000000017e7f000000000000000000000000945304eb96065b2a98b57a48a06ae28d285a71b5a130e86ca17390989355f092a21ba0193ed1b6c4bbbea60fad73d549afbf817a85c956e538c435a938e6e729dab0f8a031170dd3f827b53aabe43d0d3ccb4718b1ca48cb6b5bd44966b670d0905fb82e",
                    "indexes": {
                        "data": 0,
                        "gas": 0,
                        "value": 0
                    }
                }
            ],
            "ETC_Mystique": [
                {
                    "hash": "dcaeea09289f8e860610f6469e894c50a8628d90800a75c0d1a256cdc18b2783",
                    "logs": "1dcc4de8dec75d7aab85b567b6ccd41ad312451b948a7413f0a142fd40d49347",
                    "txbytes": "0xf9013b800a842bbb212994095e7baea6a6c7c4c2dfeb977efac326af552d878433ac85e7b8d57f000000000000000000000000ffffffffffffffffffffffffffffffffffffffff7f00000000000000000000000000000000000000000000000000000000000000007f0000000000000000000000000000000000000000000000000000000000000000087f00000000000000000000000100000000000000000000000000000000000000007f00000000000000000000000000000000000000000000000000000000000000017e7f000000000000000000000000945304eb96065b2a98b57a48a06ae28d285a71b5a130e86ca17390989355f092a21ba0193ed1b6c4bbbea60fad73d549afbf817a85c956e538c435a938e6e729dab0f8a031170dd3f827b53aabe43d0d3ccb4718b1ca48cb6b5bd44966b670d0905fb82e",
                    "indexes": {
                        "data": 0,
                        "gas": 0,
                        "value": 0
                    }
                }
            ],
            "ETC_Phoenix": [
                {
                    "hash": "b12ce55e873be54132017c85fbc9401c467d1986378f8df079802ebfa1ffe025",
                    "logs": "1dcc4de8dec75d7aab85b567b6ccd41ad312451b948a7413f0a142fd40d49347",
                    "txbytes": "0xf9013b800a842bbb212994095e7baea6a6c7c4c2dfeb977efac326af552d878433ac85e7b8d57f000000000000000000000000ffffffffffffffffffffffffffffffffffffffff7f00000000000000000000000000000000000000000000000000000000000000007f0000000000000000000000000000000000000000000000000000000000000000087f00000000000000000000000100000000000000000000000000000000000000007f00000000000000000000000000000000000000000000000000000000000000017e7f000000000000000000000000945304eb96065b2a98b57a48a06ae28d285a71b5a130e86ca17390989355f092a21ba0193ed1b6c4bbbea60fad73d549afbf817a85c956e538c435a938e6e729dab0f8a031170dd3f827b53aabe43d0d3ccb4718b1ca48cb6b5bd44966b670d0905fb82e",
                    "indexes": {
                        "data": 0,
                        "gas": 0,
                        "value": 0
                    }
                }
            ]
        }
    }
}