{
    "randomStatetest73": {
        "_info": {
            "comment": "",
            "filling-rpc-server": "evm version 1.10.16-unstable-0f893109-20220105",
            "filling-tool-version": "retesteth-0.2.2-testinfo+commit.01c6aac2.Linux.g++",
            "filledWith": "CoreGeth-1.12.9-unstable-d64998ce9b05f4f41b35740c69c4b402e41a3105",
            "lllcversion": "Version: 0.5.14-develop.2021.11.27+commit.401d5358.Linux.g++",
            "source": "src/GeneralStateTestsFiller/stRandom/randomStatetest73Filler.json",
            "sourceHash": "fbd946a73710dbffadbc655bfe4b53877b270ffe3ece2d49916ee11baac8a525"
        },
        "env": {
            "currentCoinbase": "0x945304eb96065b2a98b57a48a06ae28d285a71b5",
            "currentDifficulty": "0x20000",
            "currentGasLimit": "0x7fffffffffffffff",
            "currentNumber": "0x1",
            "currentTimestamp": "0x3e8",
            "previousHash": "0x5e20a0453cecd065ea59c37ac63e079ee08998b6045136a8ce6635c7912ec0b6"
        },
        "pre": {
            "0x095e7baea6a6c7c4c2dfeb977efac326af552d87": {
                "code": "0x7fffffffffffffffffffffffffffffffffffffffffffffffffffffffffffffffff7f00000000000000000000000000000000000000000000000000000000000000007f000000000000000000000000000000000000000000000000000000000000c3507f00000000000000000000000000000000000000000000000000000000000000017f000000000000000000000000945304eb96065b2a98b57a48a06ae28d285a71b57e7f000000000000000000000000945304eb96065b2a98b57a48a06ae28d285a71b5b573198d729b711671056e0a055534613855",
                "balance": "0x0"
            },
            "0x945304eb96065b2a98b57a48a06ae28d285a71b5": {
                "code": "0x6000355415600957005b60203560003555",
                "balance": "0x2e"
            },
            "0xa94f5374fce5edbc8e2a8697c15331677e6ebf0b": {
                "balance": "0xde0b6b3a7640000"
            }
        },
        "transaction": {
            "gasPrice": "0xa",
            "nonce": "0x0",
            "to": "0x095e7baea6a6c7c4c2dfeb977efac326af552d87",
            "data": [
                "0x7fffffffffffffffffffffffffffffffffffffffffffffffffffffffffffffffff7f00000000000000000000000000000000000000000000000000000000000000007f000000000000000000000000000000000000000000000000000000000000c3507f00000000000000000000000000000000000000000000000000000000000000017f000000000000000000000000945304eb96065b2a98b57a48a06ae28d285a71b57e7f000000000000000000000000945304eb96065b2a98b57a48a06ae28d285a71b5b573198d729b711671056e0a0555346138"
            ],
            "gasLimit": [
                "0x662bcee0"
            ],
            "value": [
                "0x0505d427"
            ],
            "secretKey": "0x45a915e4d060149eb4365960e6a7a45f334393093061116b197e3240065ff2d8",
            "sender": "0xa94f5374fce5edbc8e2a8697c15331677e6ebf0b"
        },
        "post": {
            "ETC_Magneto": [
                {
                    "hash": "23c1188e00ed62c97b1558cb016a9b99fcd31421e070efc6144d7486f5ca81a6",
                    "logs": "1dcc4de8dec75d7aab85b567b6ccd41ad312451b948a7413f0a142fd40d49347",
                    "txbytes": "0xf9013e800a84662bcee094095e7baea6a6c7c4c2dfeb977efac326af552d87840505d427b8d87fffffffffffffffffffffffffffffffffffffffffffffffffffffffffffffffff7f00000000000000000000000000000000000000000000000000000000000000007f000000000000000000000000000000000000000000000000000000000000c3507f00000000000000000000000000000000000000000000000000000000000000017f000000000000000000000000945304eb96065b2a98b57a48a06ae28d285a71b57e7f000000000000000000000000945304eb96065b2a98b57a48a06ae28d285a71b5b573198d729b711671056e0a05553461381ca09c63a14390c4f86856096cedf523b9dc3a7efcea33dc7b4120a08880e41c30e5a045e939bc4c330ac03673aad3f296b6d375d366c12ebf0fe0b750385a4d9f7f6c",
                    "indexes": {
                        "data": 0,
                        "gas": 0,
                        "value": 0
                    }
                }
            ],
            "ETC_Mystique": [
                {
                    "hash": "23c1188e00ed62c97b1558cb016a9b99fcd31421e070efc6144d7486f5ca81a6",
                    "logs": "1dcc4de8dec75d7aab85b567b6ccd41ad312451b948a7413f0a142fd40d49347",
                    "txbytes": "0xf9013e800a84662bcee094095e7baea6a6c7c4c2dfeb977efac326af552d87840505d427b8d87fffffffffffffffffffffffffffffffffffffffffffffffffffffffffffffffff7f00000000000000000000000000000000000000000000000000000000000000007f000000000000000000000000000000000000000000000000000000000000c3507f00000000000000000000000000000000000000000000000000000000000000017f000000000000000000000000945304eb96065b2a98b57a48a06ae28d285a71b57e7f000000000000000000000000945304eb96065b2a98b57a48a06ae28d285a71b5b573198d729b711671056e0a05553461381ca09c63a14390c4f86856096cedf523b9dc3a7efcea33dc7b4120a08880e41c30e5a045e939bc4c330ac03673aad3f296b6d375d366c12ebf0fe0b750385a4d9f7f6c",
                    "indexes": {
                        "data": 0,
                        "gas": 0,
                        "value": 0
                    }
                }
            ],
            "ETC_Phoenix": [
                {
                    "hash": "523fab2668f76918266cd1148bc7e5f6a80341b102860d9709a448b64d1e27dc",
                    "logs": "1dcc4de8dec75d7aab85b567b6ccd41ad312451b948a7413f0a142fd40d49347",
                    "txbytes": "0xf9013e800a84662bcee094095e7baea6a6c7c4c2dfeb977efac326af552d87840505d427b8d87fffffffffffffffffffffffffffffffffffffffffffffffffffffffffffffffff7f00000000000000000000000000000000000000000000000000000000000000007f000000000000000000000000000000000000000000000000000000000000c3507f00000000000000000000000000000000000000000000000000000000000000017f000000000000000000000000945304eb96065b2a98b57a48a06ae28d285a71b57e7f000000000000000000000000945304eb96065b2a98b57a48a06ae28d285a71b5b573198d729b711671056e0a05553461381ca09c63a14390c4f86856096cedf523b9dc3a7efcea33dc7b4120a08880e41c30e5a045e939bc4c330ac03673aad3f296b6d375d366c12ebf0fe0b750385a4d9f7f6c",
                    "indexes": {
                        "data": 0,
                        "gas": 0,
                        "value": 0
                    }
                }
            ]
        }
    }
}