{
    "randomStatetest326": {
        "_info": {
            "comment": "",
            "filling-rpc-server": "evm version 1.10.16-unstable-0f893109-20220105",
            "filling-tool-version": "retesteth-0.2.2-testinfo+commit.01c6aac2.Linux.g++",
            "filledWith": "CoreGeth-1.12.9-unstable-d390462df9df233b60b4cd7a37db5b3043832022",
            "lllcversion": "Version: 0.5.14-develop.2021.11.27+commit.401d5358.Linux.g++",
            "source": "src/GeneralStateTestsFiller/stRandom/randomStatetest326Filler.json",
            "sourceHash": "c09d03610ba82cc214f4c38e55f53458b1302f4a48c2c5e3c2953b2997e98675"
        },
        "env": {
            "currentCoinbase": "0x945304eb96065b2a98b57a48a06ae28d285a71b5",
            "currentDifficulty": "0x20000",
            "currentGasLimit": "0x7fffffffffffffff",
            "currentNumber": "0x1",
            "currentTimestamp": "0x3e8",
            "previousHash": "0x5e20a0453cecd065ea59c37ac63e079ee08998b6045136a8ce6635c7912ec0b6"
        },
        "pre": {
            "0x095e7baea6a6c7c4c2dfeb977efac326af552d87": {
                "code": "0x7f000000000000000000000000000000000000000000000000000000000000000034577fffffffffffffffffffffffffffffffffffffffffffffffffffffffffffffffff7fffffffffffffffffffffffffffffffffffffffffffffffffffffffffffffffff7fffffffffffffffffffffffffffffffffffffffffffffffffffffffffffffffff7f00000000000000000000000100000000000000000000000000000000000000007f0000000000000000000000000000000000000000000000000000000000000000426259cb6142a1196e3168c986758aa4",
                "balance": "0x0",
                "nonce": "0x0"
            },
            "0x945304eb96065b2a98b57a48a06ae28d285a71b5": {
                "code": "0x6000355415600957005b60203560003555",
                "balance": "0x2e",
                "nonce": "0x0"
            },
            "0xa94f5374fce5edbc8e2a8697c15331677e6ebf0b": {
                "code": "0x",
                "balance": "0xde0b6b3a7640000",
                "nonce": "0x0"
            }
        },
        "transaction": {
            "gasPrice": "0xa",
            "nonce": "0x0",
            "to": "0x095e7baea6a6c7c4c2dfeb977efac326af552d87",
            "data": [
                "0x7f000000000000000000000000000000000000000000000000000000000000000034577fffffffffffffffffffffffffffffffffffffffffffffffffffffffffffffffff7fffffffffffffffffffffffffffffffffffffffffffffffffffffffffffffffff7fffffffffffffffffffffffffffffffffffffffffffffffffffffffffffffffff7f00000000000000000000000100000000000000000000000000000000000000007f0000000000000000000000000000000000000000000000000000000000000000426259cb6142a1196e3168c986758aa4"
            ],
            "gasLimit": [
                "0x16bc578c"
            ],
            "value": [
                "0x5e1f88b1"
            ],
            "secretKey": "0x45a915e4d060149eb4365960e6a7a45f334393093061116b197e3240065ff2d8",
            "sender": "0xa94f5374fce5edbc8e2a8697c15331677e6ebf0b"
        },
        "post": {
            "ETC_Magneto": [
                {
                    "hash": "ec3225dc7b2dd1987688ffe50c59458a8e4b100e5d1eb10bb8068540ad747c90",
                    "logs": "bf77fcc038a0a35f68e7dd8e970e1622d45647f501c5a866ec32c4e7ae5514e9",
                    "txbytes": "0xf9013e800a8416bc578c94095e7baea6a6c7c4c2dfeb977efac326af552d87845e1f88b1b8d87f000000000000000000000000000000000000000000000000000000000000000034577fffffffffffffffffffffffffffffffffffffffffffffffffffffffffffffffff7fffffffffffffffffffffffffffffffffffffffffffffffffffffffffffffffff7fffffffffffffffffffffffffffffffffffffffffffffffffffffffffffffffff7f00000000000000000000000100000000000000000000000000000000000000007f0000000000000000000000000000000000000000000000000000000000000000426259cb6142a1196e3168c986758aa41ca018c43c83eefdd231193cd50749c484129a9d4dbd2393cdd52d29ef6ed3244f3fa070981c28ee70cbe28b694cea6893560e23fdd907b65bb634e6da462c2cfd3f79",
                    "indexes": {
                        "data": 0,
                        "gas": 0,
                        "value": 0
                    }
                }
            ],
            "ETC_Mystique": [
                {
                    "hash": "ec3225dc7b2dd1987688ffe50c59458a8e4b100e5d1eb10bb8068540ad747c90",
                    "logs": "bf77fcc038a0a35f68e7dd8e970e1622d45647f501c5a866ec32c4e7ae5514e9",
                    "txbytes": "0xf9013e800a8416bc578c94095e7baea6a6c7c4c2dfeb977efac326af552d87845e1f88b1b8d87f000000000000000000000000000000000000000000000000000000000000000034577fffffffffffffffffffffffffffffffffffffffffffffffffffffffffffffffff7fffffffffffffffffffffffffffffffffffffffffffffffffffffffffffffffff7fffffffffffffffffffffffffffffffffffffffffffffffffffffffffffffffff7f00000000000000000000000100000000000000000000000000000000000000007f0000000000000000000000000000000000000000000000000000000000000000426259cb6142a1196e3168c986758aa41ca018c43c83eefdd231193cd50749c484129a9d4dbd2393cdd52d29ef6ed3244f3fa070981c28ee70cbe28b694cea6893560e23fdd907b65bb634e6da462c2cfd3f79",
                    "indexes": {
                        "data": 0,
                        "gas": 0,
                        "value": 0
                    }
                }
            ],
            "ETC_Phoenix": [
                {
                    "hash": "ec3225dc7b2dd1987688ffe50c59458a8e4b100e5d1eb10bb8068540ad747c90",
                    "logs": "bf77fcc038a0a35f68e7dd8e970e1622d45647f501c5a866ec32c4e7ae5514e9",
                    "txbytes": "0xf9013e800a8416bc578c94095e7baea6a6c7c4c2dfeb977efac326af552d87845e1f88b1b8d87f000000000000000000000000000000000000000000000000000000000000000034577fffffffffffffffffffffffffffffffffffffffffffffffffffffffffffffffff7fffffffffffffffffffffffffffffffffffffffffffffffffffffffffffffffff7fffffffffffffffffffffffffffffffffffffffffffffffffffffffffffffffff7f00000000000000000000000100000000000000000000000000000000000000007f0000000000000000000000000000000000000000000000000000000000000000426259cb6142a1196e3168c986758aa41ca018c43c83eefdd231193cd50749c484129a9d4dbd2393cdd52d29ef6ed3244f3fa070981c28ee70cbe28b694cea6893560e23fdd907b65bb634e6da462c2cfd3f79",
                    "indexes": {
                        "data": 0,
                        "gas": 0,
                        "value": 0
                    }
                }
            ]
        }
    }
}