{
    "randomStatetest135": {
        "_info": {
            "comment": "",
            "filling-rpc-server": "evm version 1.10.16-unstable-0f893109-20220105",
            "filling-tool-version": "retesteth-0.2.2-testinfo+commit.01c6aac2.Linux.g++",
            "filledWith": "CoreGeth-1.12.9-unstable-d64998ce9b05f4f41b35740c69c4b402e41a3105",
            "lllcversion": "Version: 0.5.14-develop.2021.11.27+commit.401d5358.Linux.g++",
            "source": "src/GeneralStateTestsFiller/stRandom/randomStatetest135Filler.json",
            "sourceHash": "9f71c1baa6df82245e8faf04e2bdf0862b1e573ee0d0e781dca7771d27f24aa6"
        },
        "env": {
            "currentCoinbase": "0x945304eb96065b2a98b57a48a06ae28d285a71b5",
            "currentDifficulty": "0x20000",
            "currentGasLimit": "0x7fffffffffffffff",
            "currentNumber": "0x1",
            "currentTimestamp": "0x3e8",
            "previousHash": "0x5e20a0453cecd065ea59c37ac63e079ee08998b6045136a8ce6635c7912ec0b6"
        },
        "pre": {
            "0x095e7baea6a6c7c4c2dfeb977efac326af552d87": {
                "code": "0x7f000000000000000000000000000000000000000000000000000000000000c3507f0000000000000000000000010000000000000000000000000000000000000000417f00000000000000000000000000000000000000000000000000000000000000007f000000000000000000000000945304eb96065b2a98b57a48a06ae28d285a71b57f00000000000000000000000000000000000000000000000000000000000000007f000000000000000000000000ffffffffffffffffffffffffffffffffffffffff7ffffffffffffffffffffffffffffffffffffffffffffffffffffffffffffffffff0075a0b64319218663016870455",
                "balance": "0x0"
            },
            "0x945304eb96065b2a98b57a48a06ae28d285a71b5": {
                "code": "0x6000355415600957005b60203560003555",
                "balance": "0x2e"
            },
            "0xa94f5374fce5edbc8e2a8697c15331677e6ebf0b": {
                "balance": "0xde0b6b3a7640000"
            }
        },
        "transaction": {
            "gasPrice": "0xa",
            "nonce": "0x0",
            "to": "0x095e7baea6a6c7c4c2dfeb977efac326af552d87",
            "data": [
                "0x7f000000000000000000000000000000000000000000000000000000000000c3507f0000000000000000000000010000000000000000000000000000000000000000417f00000000000000000000000000000000000000000000000000000000000000007f000000000000000000000000945304eb96065b2a98b57a48a06ae28d285a71b57f00000000000000000000000000000000000000000000000000000000000000007f000000000000000000000000ffffffffffffffffffffffffffffffffffffffff7ffffffffffffffffffffffffffffffffffffffffffffffffffffffffffffffffff0075a0b643192186630168704"
            ],
            "gasLimit": [
                "0x43b3081d"
            ],
            "value": [
                "0x625b8cef"
            ],
            "secretKey": "0x45a915e4d060149eb4365960e6a7a45f334393093061116b197e3240065ff2d8",
            "sender": "0xa94f5374fce5edbc8e2a8697c15331677e6ebf0b"
        },
        "post": {
            "ETC_Magneto": [
                {
                    "hash": "fa17186a271b84c9633f76c431e690da8e96d4d51020a402be25dcee556dd47a",
                    "logs": "1dcc4de8dec75d7aab85b567b6ccd41ad312451b948a7413f0a142fd40d49347",
                    "txbytes": "0xf9015b800a8443b3081d94095e7baea6a6c7c4c2dfeb977efac326af552d8784625b8cefb8f57f000000000000000000000000000000000000000000000000000000000000c3507f0000000000000000000000010000000000000000000000000000000000000000417f00000000000000000000000000000000000000000000000000000000000000007f000000000000000000000000945304eb96065b2a98b57a48a06ae28d285a71b57f00000000000000000000000000000000000000000000000000000000000000007f000000000000000000000000ffffffffffffffffffffffffffffffffffffffff7ffffffffffffffffffffffffffffffffffffffffffffffffffffffffffffffffff0075a0b6431921866301687041ba0b1a0629b9eb35ad5ec7bba948820a37278d5d2375dc6c4438d33b64b2a6804dba06f43ff327006e2572a14db48d70bb6d5456444e008d1a6898236e0b34449b253",
                    "indexes": {
                        "data": 0,
                        "gas": 0,
                        "value": 0
                    }
                }
            ],
            "ETC_Mystique": [
                {
                    "hash": "fa17186a271b84c9633f76c431e690da8e96d4d51020a402be25dcee556dd47a",
                    "logs": "1dcc4de8dec75d7aab85b567b6ccd41ad312451b948a7413f0a142fd40d49347",
                    "txbytes": "0xf9015b800a8443b3081d94095e7baea6a6c7c4c2dfeb977efac326af552d8784625b8cefb8f57f000000000000000000000000000000000000000000000000000000000000c3507f0000000000000000000000010000000000000000000000000000000000000000417f00000000000000000000000000000000000000000000000000000000000000007f000000000000000000000000945304eb96065b2a98b57a48a06ae28d285a71b57f00000000000000000000000000000000000000000000000000000000000000007f000000000000000000000000ffffffffffffffffffffffffffffffffffffffff7ffffffffffffffffffffffffffffffffffffffffffffffffffffffffffffffffff0075a0b6431921866301687041ba0b1a0629b9eb35ad5ec7bba948820a37278d5d2375dc6c4438d33b64b2a6804dba06f43ff327006e2572a14db48d70bb6d5456444e008d1a6898236e0b34449b253",
                    "indexes": {
                        "data": 0,
                        "gas": 0,
                        "value": 0
                    }
                }
            ],
            "ETC_Phoenix": [
                {
                    "hash": "fa17186a271b84c9633f76c431e690da8e96d4d51020a402be25dcee556dd47a",
                    "logs": "1dcc4de8dec75d7aab85b567b6ccd41ad312451b948a7413f0a142fd40d49347",
                    "txbytes": "0xf9015b800a8443b3081d94095e7baea6a6c7c4c2dfeb977efac326af552d8784625b8cefb8f57f000000000000000000000000000000000000000000000000000000000000c3507f0000000000000000000000010000000000000000000000000000000000000000417f00000000000000000000000000000000000000000000000000000000000000007f000000000000000000000000945304eb96065b2a98b57a48a06ae28d285a71b57f00000000000000000000000000000000000000000000000000000000000000007f000000000000000000000000ffffffffffffffffffffffffffffffffffffffff7ffffffffffffffffffffffffffffffffffffffffffffffffffffffffffffffffff0075a0b6431921866301687041ba0b1a0629b9eb35ad5ec7bba948820a37278d5d2375dc6c4438d33b64b2a6804dba06f43ff327006e2572a14db48d70bb6d5456444e008d1a6898236e0b34449b253",
                    "indexes": {
                        "data": 0,
                        "gas": 0,
                        "value": 0
                    }
                }
            ]
        }
    }
}