{
    "randomStatetest271": {
        "_info": {
            "comment": "",
            "filling-rpc-server": "evm version 1.10.16-unstable-0f893109-20220105",
            "filling-tool-version": "retesteth-0.2.2-testinfo+commit.01c6aac2.Linux.g++",
            "filledWith": "CoreGeth-1.12.9-unstable-ab16c56768f0284ab56a30aac9550d3ebdc45901",
            "lllcversion": "Version: 0.5.14-develop.2021.11.27+commit.401d5358.Linux.g++",
            "source": "src/GeneralStateTestsFiller/stRandom/randomStatetest271Filler.json",
            "sourceHash": "6bbf42e5305a51f572ed5be5d734bd41da33516fe0562018e96b5274a5d8440a"
        },
        "env": {
            "currentCoinbase": "0x945304eb96065b2a98b57a48a06ae28d285a71b5",
            "currentDifficulty": "0x20000",
            "currentGasLimit": "0x7fffffffffffffff",
            "currentNumber": "0x1",
            "currentTimestamp": "0x3e8",
            "currentBaseFee": "0xa",
            "previousHash": "0x5e20a0453cecd065ea59c37ac63e079ee08998b6045136a8ce6635c7912ec0b6"
        },
        "pre": {
            "0x095e7baea6a6c7c4c2dfeb977efac326af552d87": {
                "code": "0x7f0000000000000000000000000000000000000000000000000000000000000001457f000000000000000000000000000000000000000000000000000000000000c350417f000000000000000000000000945304eb96065b2a98b57a48a06ae28d285a71b57f0000000000000000000000000000000000000000000000000000000000000000357f00000000000000000000000000000000000000000000000000000000000000000b6d7d958a0269995560005155",
                "balance": "0x0"
            },
            "0x945304eb96065b2a98b57a48a06ae28d285a71b5": {
                "code": "0x6000355415600957005b60203560003555",
                "balance": "0x2e"
            },
            "0xa94f5374fce5edbc8e2a8697c15331677e6ebf0b": {
                "balance": "0xde0b6b3a7640000"
            }
        },
        "transaction": {
            "gasPrice": "0xa",
            "nonce": "0x0",
            "to": "0x095e7baea6a6c7c4c2dfeb977efac326af552d87",
            "data": [
                "0x7f0000000000000000000000000000000000000000000000000000000000000001457f000000000000000000000000000000000000000000000000000000000000c350417f000000000000000000000000945304eb96065b2a98b57a48a06ae28d285a71b57f0000000000000000000000000000000000000000000000000000000000000000357f00000000000000000000000000000000000000000000000000000000000000000b6d7d958a026999"
            ],
            "gasLimit": [
                "0x238967b7"
            ],
            "value": [
                "0x0b900eb8"
            ],
            "secretKey": "0x45a915e4d060149eb4365960e6a7a45f334393093061116b197e3240065ff2d8",
            "sender": "0xa94f5374fce5edbc8e2a8697c15331677e6ebf0b"
        },
        "post": {
            "ETC_Magneto": [
                {
                    "hash": "9d34192dbcda4c3d2170f1d2c2da575c565f5a47398869cc4b7a9d78e77d0f56",
                    "logs": "1dcc4de8dec75d7aab85b567b6ccd41ad312451b948a7413f0a142fd40d49347",
                    "txbytes": "0xf90116800a84238967b794095e7baea6a6c7c4c2dfeb977efac326af552d87840b900eb8b8b07f0000000000000000000000000000000000000000000000000000000000000001457f000000000000000000000000000000000000000000000000000000000000c350417f000000000000000000000000945304eb96065b2a98b57a48a06ae28d285a71b57f0000000000000000000000000000000000000000000000000000000000000000357f00000000000000000000000000000000000000000000000000000000000000000b6d7d958a0269991ba0b8d07e25fe28029a8a179d7735d04ff81a5f8955999937425aa1bd83053ec471a0226eb5745b80ba7d3a779cdabab587baefbec87e69d3baa0ab98a0f16931b9f7",
                    "indexes": {
                        "data": 0,
                        "gas": 0,
                        "value": 0
                    }
                }
            ],
            "ETC_Mystique": [
                {
                    "hash": "9d34192dbcda4c3d2170f1d2c2da575c565f5a47398869cc4b7a9d78e77d0f56",
                    "logs": "1dcc4de8dec75d7aab85b567b6ccd41ad312451b948a7413f0a142fd40d49347",
                    "txbytes": "0xf90116800a84238967b794095e7baea6a6c7c4c2dfeb977efac326af552d87840b900eb8b8b07f0000000000000000000000000000000000000000000000000000000000000001457f000000000000000000000000000000000000000000000000000000000000c350417f000000000000000000000000945304eb96065b2a98b57a48a06ae28d285a71b57f0000000000000000000000000000000000000000000000000000000000000000357f00000000000000000000000000000000000000000000000000000000000000000b6d7d958a0269991ba0b8d07e25fe28029a8a179d7735d04ff81a5f8955999937425aa1bd83053ec471a0226eb5745b80ba7d3a779cdabab587baefbec87e69d3baa0ab98a0f16931b9f7",
                    "indexes": {
                        "data": 0,
                        "gas": 0,
                        "value": 0
                    }
                }
            ],
            "ETC_Phoenix": [
                {
                    "hash": "9d34192dbcda4c3d2170f1d2c2da575c565f5a47398869cc4b7a9d78e77d0f56",
                    "logs": "1dcc4de8dec75d7aab85b567b6ccd41ad312451b948a7413f0a142fd40d49347",
                    "txbytes": "0xf90116800a84238967b794095e7baea6a6c7c4c2dfeb977efac326af552d87840b900eb8b8b07f0000000000000000000000000000000000000000000000000000000000000001457f000000000000000000000000000000000000000000000000000000000000c350417f000000000000000000000000945304eb96065b2a98b57a48a06ae28d285a71b57f0000000000000000000000000000000000000000000000000000000000000000357f00000000000000000000000000000000000000000000000000000000000000000b6d7d958a0269991ba0b8d07e25fe28029a8a179d7735d04ff81a5f8955999937425aa1bd83053ec471a0226eb5745b80ba7d3a779cdabab587baefbec87e69d3baa0ab98a0f16931b9f7",
                    "indexes": {
                        "data": 0,
                        "gas": 0,
                        "value": 0
                    }
                }
            ]
        }
    }
}