{
    "randomStatetest41": {
        "_info": {
            "comment": "",
            "filling-rpc-server": "evm version 1.10.16-unstable-0f893109-20220105",
            "filling-tool-version": "retesteth-0.2.2-testinfo+commit.01c6aac2.Linux.g++",
            "filledWith": "CoreGeth-1.12.9-unstable-4d59a861107c8232d6896811c48f229d30087be4",
            "lllcversion": "Version: 0.5.14-develop.2021.11.27+commit.401d5358.Linux.g++",
            "source": "src/GeneralStateTestsFiller/stRandom/randomStatetest41Filler.json",
            "sourceHash": "d5b5d3b93edc56244cfd5cda60b9a029b3b267ae69395be25b0a30448960a14a"
        },
        "env": {
            "currentCoinbase": "0x945304eb96065b2a98b57a48a06ae28d285a71b5",
            "currentDifficulty": "0x20000",
            "currentGasLimit": "0x7fffffffffffffff",
            "currentNumber": "0x1",
            "currentTimestamp": "0x3e8",
            "currentBaseFee": "0xa",
            "previousHash": "0x5e20a0453cecd065ea59c37ac63e079ee08998b6045136a8ce6635c7912ec0b6"
        },
        "pre": {
            "0x095e7baea6a6c7c4c2dfeb977efac326af552d87": {
                "code": "0x7f000000000000000000000000945304eb96065b2a98b57a48a06ae28d285a71b57f000000000000000000000000945304eb96065b2a98b57a48a06ae28d285a71b57f000000000000000000000000ffffffffffffffffffffffffffffffffffffffff7f000000000000000000000000000000000000000000000000000000000000c350517f0000000000000000000000010000000000000000000000000000000000000000417f000000000000000000000000945304eb96065b2a98b57a48a06ae28d285a71b56a84a10719a1786a6510349b028255",
                "balance": "0x0"
            },
            "0x945304eb96065b2a98b57a48a06ae28d285a71b5": {
                "code": "0x6000355415600957005b60203560003555",
                "balance": "0x2e"
            },
            "0xa94f5374fce5edbc8e2a8697c15331677e6ebf0b": {
                "balance": "0xde0b6b3a7640000"
            }
        },
        "transaction": {
            "gasPrice": "0xa",
            "nonce": "0x0",
            "to": "0x095e7baea6a6c7c4c2dfeb977efac326af552d87",
            "data": [
                "0x7f000000000000000000000000945304eb96065b2a98b57a48a06ae28d285a71b57f000000000000000000000000945304eb96065b2a98b57a48a06ae28d285a71b57f000000000000000000000000ffffffffffffffffffffffffffffffffffffffff7f000000000000000000000000000000000000000000000000000000000000c350517f0000000000000000000000010000000000000000000000000000000000000000417f000000000000000000000000945304eb96065b2a98b57a48a06ae28d285a71b56a84a10719a1786a6510349b0282"
            ],
            "gasLimit": [
                "0x3cd14fc1"
            ],
            "value": [
                "0x04ade804"
            ],
            "secretKey": "0x45a915e4d060149eb4365960e6a7a45f334393093061116b197e3240065ff2d8",
            "sender": "0xa94f5374fce5edbc8e2a8697c15331677e6ebf0b"
        },
        "post": {
            "ETC_Magneto": [
                {
                    "hash": "19e21280bde584532bce964b5754edd466bee7088cd22023295f419379693d0a",
                    "logs": "1dcc4de8dec75d7aab85b567b6ccd41ad312451b948a7413f0a142fd40d49347",
                    "txbytes": "0xf9013c800a843cd14fc194095e7baea6a6c7c4c2dfeb977efac326af552d878404ade804b8d67f000000000000000000000000945304eb96065b2a98b57a48a06ae28d285a71b57f000000000000000000000000945304eb96065b2a98b57a48a06ae28d285a71b57f000000000000000000000000ffffffffffffffffffffffffffffffffffffffff7f000000000000000000000000000000000000000000000000000000000000c350517f0000000000000000000000010000000000000000000000000000000000000000417f000000000000000000000000945304eb96065b2a98b57a48a06ae28d285a71b56a84a10719a1786a6510349b02821ba08ab1c63d4422ee53730f899c3999783b445265232e5679f2acc53d8e21282224a05c176397e01b1a2b2352460a49c3abf21baee4f725e7de6e579ba258bd774c85",
                    "indexes": {
                        "data": 0,
                        "gas": 0,
                        "value": 0
                    }
                }
            ],
            "ETC_Mystique": [
                {
                    "hash": "19e21280bde584532bce964b5754edd466bee7088cd22023295f419379693d0a",
                    "logs": "1dcc4de8dec75d7aab85b567b6ccd41ad312451b948a7413f0a142fd40d49347",
                    "txbytes": "0xf9013c800a843cd14fc194095e7baea6a6c7c4c2dfeb977efac326af552d878404ade804b8d67f000000000000000000000000945304eb96065b2a98b57a48a06ae28d285a71b57f000000000000000000000000945304eb96065b2a98b57a48a06ae28d285a71b57f000000000000000000000000ffffffffffffffffffffffffffffffffffffffff7f000000000000000000000000000000000000000000000000000000000000c350517f0000000000000000000000010000000000000000000000000000000000000000417f000000000000000000000000945304eb96065b2a98b57a48a06ae28d285a71b56a84a10719a1786a6510349b02821ba08ab1c63d4422ee53730f899c3999783b445265232e5679f2acc53d8e21282224a05c176397e01b1a2b2352460a49c3abf21baee4f725e7de6e579ba258bd774c85",
                    "indexes": {
                        "data": 0,
                        "gas": 0,
                        "value": 0
                    }
                }
            ],
            "ETC_Phoenix": [
                {
                    "hash": "c9ce76748f990008bb52aac139f53f5dc7eb70f5a4c3945dba155a36afccb700",
                    "logs": "1dcc4de8dec75d7aab85b567b6ccd41ad312451b948a7413f0a142fd40d49347",
                    "txbytes": "0xf9013c800a843cd14fc194095e7baea6a6c7c4c2dfeb977efac326af552d878404ade804b8d67f000000000000000000000000945304eb96065b2a98b57a48a06ae28d285a71b57f000000000000000000000000945304eb96065b2a98b57a48a06ae28d285a71b57f000000000000000000000000ffffffffffffffffffffffffffffffffffffffff7f000000000000000000000000000000000000000000000000000000000000c350517f0000000000000000000000010000000000000000000000000000000000000000417f000000000000000000000000945304eb96065b2a98b57a48a06ae28d285a71b56a84a10719a1786a6510349b02821ba08ab1c63d4422ee53730f899c3999783b445265232e5679f2acc53d8e21282224a05c176397e01b1a2b2352460a49c3abf21baee4f725e7de6e579ba258bd774c85",
                    "indexes": {
                        "data": 0,
                        "gas": 0,
                        "value": 0
                    }
                }
            ]
        }
    }
}