{
    "randomStatetest280": {
        "_info": {
            "comment": "",
            "filling-rpc-server": "evm version 1.10.16-unstable-0f893109-20220105",
            "filling-tool-version": "retesteth-0.2.2-testinfo+commit.01c6aac2.Linux.g++",
            "filledWith": "CoreGeth-1.12.9-unstable-ab16c56768f0284ab56a30aac9550d3ebdc45901",
            "lllcversion": "Version: 0.5.14-develop.2021.11.27+commit.401d5358.Linux.g++",
            "source": "src/GeneralStateTestsFiller/stRandom/randomStatetest280Filler.json",
            "sourceHash": "2df4b644396bf15ae6e5fa3a40666cdd16f7ef3e60e2192a8d7058db0090b15b"
        },
        "env": {
            "currentCoinbase": "0x945304eb96065b2a98b57a48a06ae28d285a71b5",
            "currentDifficulty": "0x20000",
            "currentGasLimit": "0x7fffffffffffffff",
            "currentNumber": "0x1",
            "currentTimestamp": "0x3e8",
            "currentBaseFee": "0xa",
            "previousHash": "0x5e20a0453cecd065ea59c37ac63e079ee08998b6045136a8ce6635c7912ec0b6"
        },
        "pre": {
            "0x095e7baea6a6c7c4c2dfeb977efac326af552d87": {
                "code": "0x7f000000000000000000000000000000000000000000000000000000000000000143507f000000000000000000000000000000000000000000000000000000000000c350417f00000000000000000000000000000000000000000000000000000000000000006f423b3c407e7c6f16718668738d193cf260005155",
                "balance": "0x0"
            },
            "0x945304eb96065b2a98b57a48a06ae28d285a71b5": {
                "code": "0x6000355415600957005b60203560003555",
                "balance": "0x2e"
            },
            "0xa94f5374fce5edbc8e2a8697c15331677e6ebf0b": {
                "balance": "0xde0b6b3a7640000"
            }
        },
        "transaction": {
            "gasPrice": "0xa",
            "nonce": "0x0",
            "to": "0x095e7baea6a6c7c4c2dfeb977efac326af552d87",
            "data": [
                "0x7f000000000000000000000000000000000000000000000000000000000000000143507f000000000000000000000000000000000000000000000000000000000000c350417f00000000000000000000000000000000000000000000000000000000000000006f423b3c407e7c6f16718668738d193cf2"
            ],
            "gasLimit": [
                "0x2db9c369"
            ],
            "value": [
                "0x303cdc5a"
            ],
            "secretKey": "0x45a915e4d060149eb4365960e6a7a45f334393093061116b197e3240065ff2d8",
            "sender": "0xa94f5374fce5edbc8e2a8697c15331677e6ebf0b"
        },
        "post": {
            "ETC_Magneto": [
                {
                    "hash": "50ffa2c4e283a5b185709783154d68f03c303dba5beedd5a6e823dc53f3346e9",
                    "logs": "1dcc4de8dec75d7aab85b567b6ccd41ad312451b948a7413f0a142fd40d49347",
                    "txbytes": "0xf8dd800a842db9c36994095e7baea6a6c7c4c2dfeb977efac326af552d8784303cdc5ab8777f000000000000000000000000000000000000000000000000000000000000000143507f000000000000000000000000000000000000000000000000000000000000c350417f00000000000000000000000000000000000000000000000000000000000000006f423b3c407e7c6f16718668738d193cf21ca0d2b8785f8e691ac846965585637a88b474794405fc0cef90094bbf6a57770536a07de472ac85d78d59b79fb43d2eca4491e4a850358a116f6f79ad6a2cdde62fc2",
                    "indexes": {
                        "data": 0,
                        "gas": 0,
                        "value": 0
                    }
                }
            ],
            "ETC_Mystique": [
                {
                    "hash": "50ffa2c4e283a5b185709783154d68f03c303dba5beedd5a6e823dc53f3346e9",
                    "logs": "1dcc4de8dec75d7aab85b567b6ccd41ad312451b948a7413f0a142fd40d49347",
                    "txbytes": "0xf8dd800a842db9c36994095e7baea6a6c7c4c2dfeb977efac326af552d8784303cdc5ab8777f000000000000000000000000000000000000000000000000000000000000000143507f000000000000000000000000000000000000000000000000000000000000c350417f00000000000000000000000000000000000000000000000000000000000000006f423b3c407e7c6f16718668738d193cf21ca0d2b8785f8e691ac846965585637a88b474794405fc0cef90094bbf6a57770536a07de472ac85d78d59b79fb43d2eca4491e4a850358a116f6f79ad6a2cdde62fc2",
                    "indexes": {
                        "data": 0,
                        "gas": 0,
                        "value": 0
                    }
                }
            ],
            "ETC_Phoenix": [
                {
                    "hash": "9c9df846dda9bfede1719b4b32ab88785f4fdd1ed882564d2e87fd123c20135f",
                    "logs": "1dcc4de8dec75d7aab85b567b6ccd41ad312451b948a7413f0a142fd40d49347",
                    "txbytes": "0xf8dd800a842db9c36994095e7baea6a6c7c4c2dfeb977efac326af552d8784303cdc5ab8777f000000000000000000000000000000000000000000000000000000000000000143507f000000000000000000000000000000000000000000000000000000000000c350417f00000000000000000000000000000000000000000000000000000000000000006f423b3c407e7c6f16718668738d193cf21ca0d2b8785f8e691ac846965585637a88b474794405fc0cef90094bbf6a57770536a07de472ac85d78d59b79fb43d2eca4491e4a850358a116f6f79ad6a2cdde62fc2",
                    "indexes": {
                        "data": 0,
                        "gas": 0,
                        "value": 0
                    }
                }
            ]
        }
    }
}