{
    "randomStatetest260": {
        "_info": {
            "comment": "",
            "filling-rpc-server": "evm version 1.10.16-unstable-0f893109-20220105",
            "filling-tool-version": "retesteth-0.2.2-testinfo+commit.01c6aac2.Linux.g++",
            "filledWith": "CoreGeth-1.12.9-unstable-f4059ddd82d975bdc54fa648e5422a80172161cb",
            "lllcversion": "Version: 0.5.14-develop.2021.11.27+commit.401d5358.Linux.g++",
            "source": "src/GeneralStateTestsFiller/stRandom/randomStatetest260Filler.json",
            "sourceHash": "5ea870f1f55093be6fa87e2f167f540089bcfc8ed04204df6468818088abfaa0"
        },
        "env": {
            "currentCoinbase": "945304eb96065b2a98b57a48a06ae28d285a71b5",
            "currentDifficulty": "0x20000",
            "currentRandom": null,
            "currentGasLimit": "0x7fffffffffffffff",
            "currentNumber": "0x1",
            "currentTimestamp": "0x3e8",
            "currentBaseFee": "0xa"
        },
        "pre": {
            "0x095e7baea6a6c7c4c2dfeb977efac326af552d87": {
                "code": "0x7f000000000000000000000000000000000000000000000000000000000000c3507f0000000000000000000000000000000000000000000000000000000000000001a07ffffffffffffffffffffffffffffffffffffffffffffffffffffffffffffffffe7f000000000000000000000000ffffffffffffffffffffffffffffffffffffffff7f000000000000000000000000000000000000000000000000000000000000c3507f000000000000000000000000000000000000000000000000000000000000c3507f000000000000000000000000000000000000000000000000000000000000c350f36409156a6aa261413b56f20855",
                "balance": "0x0"
            },
            "0x945304eb96065b2a98b57a48a06ae28d285a71b5": {
                "code": "0x6000355415600957005b60203560003555",
                "balance": "0x2e"
            },
            "0xa94f5374fce5edbc8e2a8697c15331677e6ebf0b": {
                "balance": "0xde0b6b3a7640000"
            }
        },
        "transaction": {
            "gasPrice": "0xa",
            "maxFeePerGas": null,
            "maxPriorityFeePerGas": null,
            "nonce": "0x0",
            "to": "0x095e7baea6a6c7c4c2dfeb977efac326af552d87",
            "data": [
                "0x7f000000000000000000000000000000000000000000000000000000000000c3507f0000000000000000000000000000000000000000000000000000000000000001a07ffffffffffffffffffffffffffffffffffffffffffffffffffffffffffffffffe7f000000000000000000000000ffffffffffffffffffffffffffffffffffffffff7f000000000000000000000000000000000000000000000000000000000000c3507f000000000000000000000000000000000000000000000000000000000000c3507f000000000000000000000000000000000000000000000000000000000000c350f36409156a6aa261413b56f208"
            ],
            "gasLimit": [
                "0x39619002"
            ],
            "value": [
                "0x690aecf0"
            ],
            "secretKey": "0x45a915e4d060149eb4365960e6a7a45f334393093061116b197e3240065ff2d8"
        },
        "out": "0x",
        "post": {
            "ETC_Magneto": [
                {
                    "hash": "43923c0fa580b0e171a0b43f16272d6e5b90acab034188c54299014e271fa87f",
                    "logs": "e5c11d9f00659176c759fa7f129a1f88fa30b876c38f43fbef2e78fb4f459d0c",
                    "txbytes": "0xf9015b800a843961900294095e7baea6a6c7c4c2dfeb977efac326af552d8784690aecf0b8f57f000000000000000000000000000000000000000000000000000000000000c3507f0000000000000000000000000000000000000000000000000000000000000001a07ffffffffffffffffffffffffffffffffffffffffffffffffffffffffffffffffe7f000000000000000000000000ffffffffffffffffffffffffffffffffffffffff7f000000000000000000000000000000000000000000000000000000000000c3507f000000000000000000000000000000000000000000000000000000000000c3507f000000000000000000000000000000000000000000000000000000000000c350f36409156a6aa261413b56f2081ca0fa84ca5185cbeb98ca9d74286c735f352d8f56256ff346e67c9fe66e5c92f0faa070f10ca0affd804518e75d0af94ab6b237af9a8bc1dd17a9f376d984d8677528",
                    "indexes": {
                        "data": 0,
                        "gas": 0,
                        "value": 0
                    }
                }
            ],
            "ETC_Mystique": [
                {
                    "hash": "43923c0fa580b0e171a0b43f16272d6e5b90acab034188c54299014e271fa87f",
                    "logs": "e5c11d9f00659176c759fa7f129a1f88fa30b876c38f43fbef2e78fb4f459d0c",
                    "txbytes": "0xf9015b800a843961900294095e7baea6a6c7c4c2dfeb977efac326af552d8784690aecf0b8f57f000000000000000000000000000000000000000000000000000000000000c3507f0000000000000000000000000000000000000000000000000000000000000001a07ffffffffffffffffffffffffffffffffffffffffffffffffffffffffffffffffe7f000000000000000000000000ffffffffffffffffffffffffffffffffffffffff7f000000000000000000000000000000000000000000000000000000000000c3507f000000000000000000000000000000000000000000000000000000000000c3507f000000000000000000000000000000000000000000000000000000000000c350f36409156a6aa261413b56f2081ca0fa84ca5185cbeb98ca9d74286c735f352d8f56256ff346e67c9fe66e5c92f0faa070f10ca0affd804518e75d0af94ab6b237af9a8bc1dd17a9f376d984d8677528",
                    "indexes": {
                        "data": 0,
                        "gas": 0,
                        "value": 0
                    }
                }
            ],
            "ETC_Phoenix": [
                {
                    "hash": "43923c0fa580b0e171a0b43f16272d6e5b90acab034188c54299014e271fa87f",
                    "logs": "e5c11d9f00659176c759fa7f129a1f88fa30b876c38f43fbef2e78fb4f459d0c",
                    "txbytes": "0xf9015b800a843961900294095e7baea6a6c7c4c2dfeb977efac326af552d8784690aecf0b8f57f000000000000000000000000000000000000000000000000000000000000c3507f0000000000000000000000000000000000000000000000000000000000000001a07ffffffffffffffffffffffffffffffffffffffffffffffffffffffffffffffffe7f000000000000000000000000ffffffffffffffffffffffffffffffffffffffff7f000000000000000000000000000000000000000000000000000000000000c3507f000000000000000000000000000000000000000000000000000000000000c3507f000000000000000000000000000000000000000000000000000000000000c350f36409156a6aa261413b56f2081ca0fa84ca5185cbeb98ca9d74286c735f352d8f56256ff346e67c9fe66e5c92f0faa070f10ca0affd804518e75d0af94ab6b237af9a8bc1dd17a9f376d984d8677528",
                    "indexes": {
                        "data": 0,
                        "gas": 0,
                        "value": 0
                    }
                }
            ]
        }
    }
}