{
    "randomStatetest233": {
        "_info": {
            "comment": "",
            "filling-rpc-server": "evm version 1.10.16-unstable-0f893109-20220105",
            "filling-tool-version": "retesteth-0.2.2-testinfo+commit.01c6aac2.Linux.g++",
            "filledWith": "CoreGeth-1.12.9-unstable-ab16c56768f0284ab56a30aac9550d3ebdc45901",
            "lllcversion": "Version: 0.5.14-develop.2021.11.27+commit.401d5358.Linux.g++",
            "source": "src/GeneralStateTestsFiller/stRandom/randomStatetest233Filler.json",
            "sourceHash": "cc94b3d1d9f12ee68d7c8a8e7f8572e0f179ef0e95a5cb7f9b4c3c9bac91b45c"
        },
        "env": {
            "currentCoinbase": "0x945304eb96065b2a98b57a48a06ae28d285a71b5",
            "currentDifficulty": "0x20000",
            "currentGasLimit": "0x7fffffffffffffff",
            "currentNumber": "0x1",
            "currentTimestamp": "0x3e8",
            "currentBaseFee": "0xa",
            "previousHash": "0x5e20a0453cecd065ea59c37ac63e079ee08998b6045136a8ce6635c7912ec0b6"
        },
        "pre": {
            "0x095e7baea6a6c7c4c2dfeb977efac326af552d87": {
                "code": "0x7ffffffffffffffffffffffffffffffffffffffffffffffffffffffffffffffffe817fffffffffffffffffffffffffffffffffffffffffffffffffffffffffffffffff42057f000000000000000000000000ffffffffffffffffffffffffffffffffffffffff517f000000000000000000000001000000000000000000000000000000000000000065715460005155",
                "balance": "0x0"
            },
            "0x945304eb96065b2a98b57a48a06ae28d285a71b5": {
                "code": "0x6000355415600957005b60203560003555",
                "balance": "0x2e"
            },
            "0xa94f5374fce5edbc8e2a8697c15331677e6ebf0b": {
                "balance": "0xde0b6b3a7640000"
            }
        },
        "transaction": {
            "gasPrice": "0xa",
            "nonce": "0x0",
            "to": "0x095e7baea6a6c7c4c2dfeb977efac326af552d87",
            "data": [
                "0x7ffffffffffffffffffffffffffffffffffffffffffffffffffffffffffffffffe817fffffffffffffffffffffffffffffffffffffffffffffffffffffffffffffffff42057f000000000000000000000000ffffffffffffffffffffffffffffffffffffffff517f0000000000000000000000010000000000000000000000000000000000000000657154"
            ],
            "gasLimit": [
                "0x16fb234b"
            ],
            "value": [
                "0x77b5363e"
            ],
            "secretKey": "0x45a915e4d060149eb4365960e6a7a45f334393093061116b197e3240065ff2d8",
            "sender": "0xa94f5374fce5edbc8e2a8697c15331677e6ebf0b"
        },
        "post": {
            "ETC_Magneto": [
                {
                    "hash": "f3e8249b82978fe84962caccf17256a65eb56056aa85056e9afa0b2f0b11750b",
                    "logs": "1dcc4de8dec75d7aab85b567b6ccd41ad312451b948a7413f0a142fd40d49347",
                    "txbytes": "0xf8f1800a8416fb234b94095e7baea6a6c7c4c2dfeb977efac326af552d878477b5363eb88b7ffffffffffffffffffffffffffffffffffffffffffffffffffffffffffffffffe817fffffffffffffffffffffffffffffffffffffffffffffffffffffffffffffffff42057f000000000000000000000000ffffffffffffffffffffffffffffffffffffffff517f00000000000000000000000100000000000000000000000000000000000000006571541ca046771a9db324f2b0300c5ef60792d520fa2f44ed965c8c557659dcdddc29e006a02bd5fdf5e29c11dcc531c94dc47b1306928488507b906b2f650a469108ae1fe8",
                    "indexes": {
                        "data": 0,
                        "gas": 0,
                        "value": 0
                    }
                }
            ],
            "ETC_Mystique": [
                {
                    "hash": "f3e8249b82978fe84962caccf17256a65eb56056aa85056e9afa0b2f0b11750b",
                    "logs": "1dcc4de8dec75d7aab85b567b6ccd41ad312451b948a7413f0a142fd40d49347",
                    "txbytes": "0xf8f1800a8416fb234b94095e7baea6a6c7c4c2dfeb977efac326af552d878477b5363eb88b7ffffffffffffffffffffffffffffffffffffffffffffffffffffffffffffffffe817fffffffffffffffffffffffffffffffffffffffffffffffffffffffffffffffff42057f000000000000000000000000ffffffffffffffffffffffffffffffffffffffff517f00000000000000000000000100000000000000000000000000000000000000006571541ca046771a9db324f2b0300c5ef60792d520fa2f44ed965c8c557659dcdddc29e006a02bd5fdf5e29c11dcc531c94dc47b1306928488507b906b2f650a469108ae1fe8",
                    "indexes": {
                        "data": 0,
                        "gas": 0,
                        "value": 0
                    }
                }
            ],
            "ETC_Phoenix": [
                {
                    "hash": "f3e8249b82978fe84962caccf17256a65eb56056aa85056e9afa0b2f0b11750b",
                    "logs": "1dcc4de8dec75d7aab85b567b6ccd41ad312451b948a7413f0a142fd40d49347",
                    "txbytes": "0xf8f1800a8416fb234b94095e7baea6a6c7c4c2dfeb977efac326af552d878477b5363eb88b7ffffffffffffffffffffffffffffffffffffffffffffffffffffffffffffffffe817fffffffffffffffffffffffffffffffffffffffffffffffffffffffffffffffff42057f000000000000000000000000ffffffffffffffffffffffffffffffffffffffff517f00000000000000000000000100000000000000000000000000000000000000006571541ca046771a9db324f2b0300c5ef60792d520fa2f44ed965c8c557659dcdddc29e006a02bd5fdf5e29c11dcc531c94dc47b1306928488507b906b2f650a469108ae1fe8",
                    "indexes": {
                        "data": 0,
                        "gas": 0,
                        "value": 0
                    }
                }
            ]
        }
    }
}