{
    "randomStatetest66": {
        "_info": {
            "comment": "",
            "filling-rpc-server": "evm version 1.10.16-unstable-0f893109-20220105",
            "filling-tool-version": "retesteth-0.2.2-testinfo+commit.01c6aac2.Linux.g++",
            "filledWith": "CoreGeth-1.12.9-unstable-d390462df9df233b60b4cd7a37db5b3043832022",
            "lllcversion": "Version: 0.5.14-develop.2021.11.27+commit.401d5358.Linux.g++",
            "source": "src/GeneralStateTestsFiller/stRandom/randomStatetest66Filler.json",
            "sourceHash": "5b8d38167fdc1b095ba890ba444ebb3ecae9a25652bd44ce6c1209f28ed8b61e"
        },
        "env": {
            "currentCoinbase": "0x945304eb96065b2a98b57a48a06ae28d285a71b5",
            "currentDifficulty": "0x20000",
            "currentGasLimit": "0x7fffffffffffffff",
            "currentNumber": "0x1",
            "currentTimestamp": "0x3e8",
            "previousHash": "0x5e20a0453cecd065ea59c37ac63e079ee08998b6045136a8ce6635c7912ec0b6"
        },
        "pre": {
            "0x095e7baea6a6c7c4c2dfeb977efac326af552d87": {
                "code": "0x457fffffffffffffffffffffffffffffffffffffffffffffffffffffffffffffffff417fffffffffffffffffffffffffffffffffffffffffffffffffffffffffffffffff7f000000000000000000000000945304eb96065b2a98b57a48a06ae28d285a71b57ffffffffffffffffffffffffffffffffffffffffffffffffffffffffffffffffe097f000000000000000000000001000000000000000000000000000000000000000055",
                "balance": "0x0",
                "nonce": "0x0"
            },
            "0x945304eb96065b2a98b57a48a06ae28d285a71b5": {
                "code": "0x6000355415600957005b60203560003555",
                "balance": "0x2e",
                "nonce": "0x0"
            },
            "0xa94f5374fce5edbc8e2a8697c15331677e6ebf0b": {
                "code": "0x",
                "balance": "0xde0b6b3a7640000",
                "nonce": "0x0"
            }
        },
        "transaction": {
            "gasPrice": "0xa",
            "nonce": "0x0",
            "to": "0x095e7baea6a6c7c4c2dfeb977efac326af552d87",
            "data": [
                "0x457fffffffffffffffffffffffffffffffffffffffffffffffffffffffffffffffff417fffffffffffffffffffffffffffffffffffffffffffffffffffffffffffffffff7f000000000000000000000000945304eb96065b2a98b57a48a06ae28d285a71b57ffffffffffffffffffffffffffffffffffffffffffffffffffffffffffffffffe097f0000000000000000000000010000000000000000000000000000000000000000"
            ],
            "gasLimit": [
                "0x5be4cce8"
            ],
            "value": [
                "0x2f5660ce"
            ],
            "secretKey": "0x45a915e4d060149eb4365960e6a7a45f334393093061116b197e3240065ff2d8",
            "sender": "0xa94f5374fce5edbc8e2a8697c15331677e6ebf0b"
        },
        "post": {
            "ETC_Magneto": [
                {
                    "hash": "71e846765a36f9a849e43f2abe37d484cbf00f969f345ffa157f02b7201d4da8",
                    "logs": "1dcc4de8dec75d7aab85b567b6ccd41ad312451b948a7413f0a142fd40d49347",
                    "txbytes": "0xf9010e800a845be4cce894095e7baea6a6c7c4c2dfeb977efac326af552d87842f5660ceb8a8457fffffffffffffffffffffffffffffffffffffffffffffffffffffffffffffffff417fffffffffffffffffffffffffffffffffffffffffffffffffffffffffffffffff7f000000000000000000000000945304eb96065b2a98b57a48a06ae28d285a71b57ffffffffffffffffffffffffffffffffffffffffffffffffffffffffffffffffe097f00000000000000000000000100000000000000000000000000000000000000001ba0f967dc26c76afea70929af5c9c06765af74d4cfd8725aa115fdfe083f8701ecfa068b3e31486ace4c7bee633dc867961b7242c849d4035aafb2c669d63ab985735",
                    "indexes": {
                        "data": 0,
                        "gas": 0,
                        "value": 0
                    }
                }
            ],
            "ETC_Mystique": [
                {
                    "hash": "71e846765a36f9a849e43f2abe37d484cbf00f969f345ffa157f02b7201d4da8",
                    "logs": "1dcc4de8dec75d7aab85b567b6ccd41ad312451b948a7413f0a142fd40d49347",
                    "txbytes": "0xf9010e800a845be4cce894095e7baea6a6c7c4c2dfeb977efac326af552d87842f5660ceb8a8457fffffffffffffffffffffffffffffffffffffffffffffffffffffffffffffffff417fffffffffffffffffffffffffffffffffffffffffffffffffffffffffffffffff7f000000000000000000000000945304eb96065b2a98b57a48a06ae28d285a71b57ffffffffffffffffffffffffffffffffffffffffffffffffffffffffffffffffe097f00000000000000000000000100000000000000000000000000000000000000001ba0f967dc26c76afea70929af5c9c06765af74d4cfd8725aa115fdfe083f8701ecfa068b3e31486ace4c7bee633dc867961b7242c849d4035aafb2c669d63ab985735",
                    "indexes": {
                        "data": 0,
                        "gas": 0,
                        "value": 0
                    }
                }
            ],
            "ETC_Phoenix": [
                {
                    "hash": "e5e9b4537a1780948a95d6c65d5b2b1c8fb49331d72826b2750fb5855fc8fd8a",
                    "logs": "1dcc4de8dec75d7aab85b567b6ccd41ad312451b948a7413f0a142fd40d49347",
                    "txbytes": "0xf9010e800a845be4cce894095e7baea6a6c7c4c2dfeb977efac326af552d87842f5660ceb8a8457fffffffffffffffffffffffffffffffffffffffffffffffffffffffffffffffff417fffffffffffffffffffffffffffffffffffffffffffffffffffffffffffffffff7f000000000000000000000000945304eb96065b2a98b57a48a06ae28d285a71b57ffffffffffffffffffffffffffffffffffffffffffffffffffffffffffffffffe097f00000000000000000000000100000000000000000000000000000000000000001ba0f967dc26c76afea70929af5c9c06765af74d4cfd8725aa115fdfe083f8701ecfa068b3e31486ace4c7bee633dc867961b7242c849d4035aafb2c669d63ab985735",
                    "indexes": {
                        "data": 0,
                        "gas": 0,
                        "value": 0
                    }
                }
            ]
        }
    }
}