{
    "randomStatetest310": {
        "_info": {
            "comment": "",
            "filling-rpc-server": "evm version 1.10.16-unstable-0f893109-20220105",
            "filling-tool-version": "retesteth-0.2.2-testinfo+commit.01c6aac2.Linux.g++",
            "filledWith": "CoreGeth-1.12.9-unstable-3995a327f2ded5c98324b03792b5ccc22557754f",
            "lllcversion": "Version: 0.5.14-develop.2021.11.27+commit.401d5358.Linux.g++",
            "source": "src/GeneralStateTestsFiller/stRandom/randomStatetest310Filler.json",
            "sourceHash": "76b6cc62d783b2e8326a79b5c4d88f2a8761a4812acdb181cf9e0c28f705f672"
        },
        "env": {
            "currentCoinbase": "0x945304eb96065b2a98b57a48a06ae28d285a71b5",
            "currentDifficulty": "0x20000",
            "currentGasLimit": "0x7fffffffffffffff",
            "currentNumber": "0x1",
            "currentTimestamp": "0x3e8",
            "currentBaseFee": "0xa",
            "previousHash": "0x5e20a0453cecd065ea59c37ac63e079ee08998b6045136a8ce6635c7912ec0b6"
        },
        "pre": {
            "0x095e7baea6a6c7c4c2dfeb977efac326af552d87": {
                "code": "0x44587fffffffffffffffffffffffffffffffffffffffffffffffffffffffffffffffff7f000000000000000000000000000000000000000000000000000000000000c3507f000000000000000000000000ffffffffffffffffffffffffffffffffffffffff59907fffffffffffffffffffffffffffffffffffffffffffffffffffffffffffffffff1a37160b6a650645597c796e9c97955560005155",
                "balance": "0x0"
            },
            "0x945304eb96065b2a98b57a48a06ae28d285a71b5": {
                "code": "0x6000355415600957005b60203560003555",
                "balance": "0x2e"
            },
            "0xa94f5374fce5edbc8e2a8697c15331677e6ebf0b": {
                "balance": "0xde0b6b3a7640000"
            }
        },
        "transaction": {
            "gasPrice": "0xa",
            "nonce": "0x0",
            "to": "0x095e7baea6a6c7c4c2dfeb977efac326af552d87",
            "data": [
                "0x44587fffffffffffffffffffffffffffffffffffffffffffffffffffffffffffffffff7f000000000000000000000000000000000000000000000000000000000000c3507f000000000000000000000000ffffffffffffffffffffffffffffffffffffffff59907fffffffffffffffffffffffffffffffffffffffffffffffffffffffffffffffff1a37160b6a650645597c796e9c9795"
            ],
            "gasLimit": [
                "0x1a37e2dd"
            ],
            "value": [
                "0x1b76ed9d"
            ],
            "secretKey": "0x45a915e4d060149eb4365960e6a7a45f334393093061116b197e3240065ff2d8",
            "sender": "0xa94f5374fce5edbc8e2a8697c15331677e6ebf0b"
        },
        "post": {
            "ETC_Magneto": [
                {
                    "hash": "012efdbeeaf23fb493f4ee53b2ff1dd3a6c82a63e73b0c42829488c20d6c723a",
                    "logs": "1dcc4de8dec75d7aab85b567b6ccd41ad312451b948a7413f0a142fd40d49347",
                    "txbytes": "0xf8fd800a841a37e2dd94095e7baea6a6c7c4c2dfeb977efac326af552d87841b76ed9db89744587fffffffffffffffffffffffffffffffffffffffffffffffffffffffffffffffff7f000000000000000000000000000000000000000000000000000000000000c3507f000000000000000000000000ffffffffffffffffffffffffffffffffffffffff59907fffffffffffffffffffffffffffffffffffffffffffffffffffffffffffffffff1a37160b6a650645597c796e9c97951ba06f2295bc5526bf1b558aa1a041981b8662f2704a04f2cd9629e5b2581801b942a029a2c3b4e489b78ace734d7b9e1f1283ccb2eead7b6812d693b5431aa55bed83",
                    "indexes": {
                        "data": 0,
                        "gas": 0,
                        "value": 0
                    }
                }
            ],
            "ETC_Mystique": [
                {
                    "hash": "012efdbeeaf23fb493f4ee53b2ff1dd3a6c82a63e73b0c42829488c20d6c723a",
                    "logs": "1dcc4de8dec75d7aab85b567b6ccd41ad312451b948a7413f0a142fd40d49347",
                    "txbytes": "0xf8fd800a841a37e2dd94095e7baea6a6c7c4c2dfeb977efac326af552d87841b76ed9db89744587fffffffffffffffffffffffffffffffffffffffffffffffffffffffffffffffff7f000000000000000000000000000000000000000000000000000000000000c3507f000000000000000000000000ffffffffffffffffffffffffffffffffffffffff59907fffffffffffffffffffffffffffffffffffffffffffffffffffffffffffffffff1a37160b6a650645597c796e9c97951ba06f2295bc5526bf1b558aa1a041981b8662f2704a04f2cd9629e5b2581801b942a029a2c3b4e489b78ace734d7b9e1f1283ccb2eead7b6812d693b5431aa55bed83",
                    "indexes": {
                        "data": 0,
                        "gas": 0,
                        "value": 0
                    }
                }
            ],
            "ETC_Phoenix": [
                {
                    "hash": "a08bc564309e22ba9fa17a92871dc2cf1ff6ef281408395fee541262e96801dd",
                    "logs": "1dcc4de8dec75d7aab85b567b6ccd41ad312451b948a7413f0a142fd40d49347",
                    "txbytes": "0xf8fd800a841a37e2dd94095e7baea6a6c7c4c2dfeb977efac326af552d87841b76ed9db89744587fffffffffffffffffffffffffffffffffffffffffffffffffffffffffffffffff7f000000000000000000000000000000000000000000000000000000000000c3507f000000000000000000000000ffffffffffffffffffffffffffffffffffffffff59907fffffffffffffffffffffffffffffffffffffffffffffffffffffffffffffffff1a37160b6a650645597c796e9c97951ba06f2295bc5526bf1b558aa1a041981b8662f2704a04f2cd9629e5b2581801b942a029a2c3b4e489b78ace734d7b9e1f1283ccb2eead7b6812d693b5431aa55bed83",
                    "indexes": {
                        "data": 0,
                        "gas": 0,
                        "value": 0
                    }
                }
            ]
        }
    }
}