{
    "randomStatetest36": {
        "_info": {
            "comment": "",
            "filling-rpc-server": "evm version 1.10.16-unstable-0f893109-20220105",
            "filling-tool-version": "retesteth-0.2.2-testinfo+commit.01c6aac2.Linux.g++",
            "filledWith": "CoreGeth-1.12.9-unstable-4cf5b2b0837228e7d5eadba6a01ffb80e9288e21",
            "lllcversion": "Version: 0.5.14-develop.2021.11.27+commit.401d5358.Linux.g++",
            "source": "src/GeneralStateTestsFiller/stRandom/randomStatetest36Filler.json",
            "sourceHash": "d3e358dd563f9880c2dde37954cd1b23920271919fa56468a4b85258ccad9bae"
        },
        "env": {
            "currentCoinbase": "0x945304eb96065b2a98b57a48a06ae28d285a71b5",
            "currentDifficulty": "0x20000",
            "currentGasLimit": "0x7fffffffffffffff",
            "currentNumber": "0x1",
            "currentTimestamp": "0x3e8",
            "previousHash": "0x5e20a0453cecd065ea59c37ac63e079ee08998b6045136a8ce6635c7912ec0b6"
        },
        "pre": {
            "0x095e7baea6a6c7c4c2dfeb977efac326af552d87": {
                "code": "0x447ffffffffffffffffffffffffffffffffffffffffffffffffffffffffffffffffe7ffffffffffffffffffffffffffffffffffffffffffffffffffffffffffffffffe7f000000000000000000000000ffffffffffffffffffffffffffffffffffffffff7f00000000000000000000000000000000000000000000000000000000000000017ffffffffffffffffffffffffffffffffffffffffffffffffffffffffffffffffe7f00000000000000000000000000000000000000000000000000000000000000017f0000000000000000000000010000000000000000000000000000000000000000448243628c0970843ba460005155",
                "balance": "0x0",
                "nonce": "0x0"
            },
            "0x945304eb96065b2a98b57a48a06ae28d285a71b5": {
                "code": "0x6000355415600957005b60203560003555",
                "balance": "0x2e",
                "nonce": "0x0"
            },
            "0xa94f5374fce5edbc8e2a8697c15331677e6ebf0b": {
                "code": "0x",
                "balance": "0xde0b6b3a7640000",
                "nonce": "0x0"
            }
        },
        "transaction": {
            "gasPrice": "0xa",
            "nonce": "0x0",
            "to": "0x095e7baea6a6c7c4c2dfeb977efac326af552d87",
            "data": [
                "0x447ffffffffffffffffffffffffffffffffffffffffffffffffffffffffffffffffe7ffffffffffffffffffffffffffffffffffffffffffffffffffffffffffffffffe7f000000000000000000000000ffffffffffffffffffffffffffffffffffffffff7f00000000000000000000000000000000000000000000000000000000000000017ffffffffffffffffffffffffffffffffffffffffffffffffffffffffffffffffe7f00000000000000000000000000000000000000000000000000000000000000017f0000000000000000000000010000000000000000000000000000000000000000448243628c0970843ba4"
            ],
            "gasLimit": [
                "0x5a7f675f"
            ],
            "value": [
                "0x7d1970db"
            ],
            "secretKey": "0x45a915e4d060149eb4365960e6a7a45f334393093061116b197e3240065ff2d8",
            "sender": "0xa94f5374fce5edbc8e2a8697c15331677e6ebf0b"
        },
        "post": {
            "ETC_Magneto": [
                {
                    "hash": "7619b42777c39e01f6839e5059c64dc62f3c2a241c31625fad0d638512eee34b",
                    "logs": "1907fc3e01271275b7acec1a4b8ae6e5ffc6b93614e7385cb342bc23ed73f2c3",
                    "txbytes": "0xf90158800a845a7f675f94095e7baea6a6c7c4c2dfeb977efac326af552d87847d1970dbb8f2447ffffffffffffffffffffffffffffffffffffffffffffffffffffffffffffffffe7ffffffffffffffffffffffffffffffffffffffffffffffffffffffffffffffffe7f000000000000000000000000ffffffffffffffffffffffffffffffffffffffff7f00000000000000000000000000000000000000000000000000000000000000017ffffffffffffffffffffffffffffffffffffffffffffffffffffffffffffffffe7f00000000000000000000000000000000000000000000000000000000000000017f0000000000000000000000010000000000000000000000000000000000000000448243628c0970843ba41ca09a03011235091fde48125684f07b1a9d131cc5f00841aedb1a81b0c94923c181a04f05fb72de091193bc1265ef7e62ade681de25d89fffa0e4f5d8380904118ad9",
                    "indexes": {
                        "data": 0,
                        "gas": 0,
                        "value": 0
                    }
                }
            ],
            "ETC_Mystique": [
                {
                    "hash": "7619b42777c39e01f6839e5059c64dc62f3c2a241c31625fad0d638512eee34b",
                    "logs": "1907fc3e01271275b7acec1a4b8ae6e5ffc6b93614e7385cb342bc23ed73f2c3",
                    "txbytes": "0xf90158800a845a7f675f94095e7baea6a6c7c4c2dfeb977efac326af552d87847d1970dbb8f2447ffffffffffffffffffffffffffffffffffffffffffffffffffffffffffffffffe7ffffffffffffffffffffffffffffffffffffffffffffffffffffffffffffffffe7f000000000000000000000000ffffffffffffffffffffffffffffffffffffffff7f00000000000000000000000000000000000000000000000000000000000000017ffffffffffffffffffffffffffffffffffffffffffffffffffffffffffffffffe7f00000000000000000000000000000000000000000000000000000000000000017f0000000000000000000000010000000000000000000000000000000000000000448243628c0970843ba41ca09a03011235091fde48125684f07b1a9d131cc5f00841aedb1a81b0c94923c181a04f05fb72de091193bc1265ef7e62ade681de25d89fffa0e4f5d8380904118ad9",
                    "indexes": {
                        "data": 0,
                        "gas": 0,
                        "value": 0
                    }
                }
            ],
            "ETC_Phoenix": [
                {
                    "hash": "ad4d2419bc3507de4d3d81fc22964570a15094ce8dc0029f2e2fe4c1f5c5afa0",
                    "logs": "1907fc3e01271275b7acec1a4b8ae6e5ffc6b93614e7385cb342bc23ed73f2c3",
                    "txbytes": "0xf90158800a845a7f675f94095e7baea6a6c7c4c2dfeb977efac326af552d87847d1970dbb8f2447ffffffffffffffffffffffffffffffffffffffffffffffffffffffffffffffffe7ffffffffffffffffffffffffffffffffffffffffffffffffffffffffffffffffe7f000000000000000000000000ffffffffffffffffffffffffffffffffffffffff7f00000000000000000000000000000000000000000000000000000000000000017ffffffffffffffffffffffffffffffffffffffffffffffffffffffffffffffffe7f00000000000000000000000000000000000000000000000000000000000000017f0000000000000000000000010000000000000000000000000000000000000000448243628c0970843ba41ca09a03011235091fde48125684f07b1a9d131cc5f00841aedb1a81b0c94923c181a04f05fb72de091193bc1265ef7e62ade681de25d89fffa0e4f5d8380904118ad9",
                    "indexes": {
                        "data": 0,
                        "gas": 0,
                        "value": 0
                    }
                }
            ]
        }
    }
}