{
    "randomStatetest80": {
        "_info": {
            "comment": "",
            "filling-rpc-server": "evm version 1.10.16-unstable-0f893109-20220105",
            "filling-tool-version": "retesteth-0.2.2-testinfo+commit.01c6aac2.Linux.g++",
            "filledWith": "CoreGeth-1.12.9-unstable-4d59a861107c8232d6896811c48f229d30087be4",
            "lllcversion": "Version: 0.5.14-develop.2021.11.27+commit.401d5358.Linux.g++",
            "source": "src/GeneralStateTestsFiller/stRandom/randomStatetest80Filler.json",
            "sourceHash": "c165db150676b3c903ce7df76740e9534037a0a1b11c8a687a36847fd542c891"
        },
        "env": {
            "currentCoinbase": "0x945304eb96065b2a98b57a48a06ae28d285a71b5",
            "currentDifficulty": "0x20000",
            "currentGasLimit": "0x7fffffffffffffff",
            "currentNumber": "0x1",
            "currentTimestamp": "0x3e8",
            "currentBaseFee": "0xa",
            "previousHash": "0x5e20a0453cecd065ea59c37ac63e079ee08998b6045136a8ce6635c7912ec0b6"
        },
        "pre": {
            "0x095e7baea6a6c7c4c2dfeb977efac326af552d87": {
                "code": "0x7f000000000000000000000000945304eb96065b2a98b57a48a06ae28d285a71b57f000000000000000000000000000000000000000000000000000000000000c3507f000000000000000000000000945304eb96065b2a98b57a48a06ae28d285a71b57f0000000000000000000000010000000000000000000000000000000000000000117fffffffffffffffffffffffffffffffffffffffffffffffffffffffffffffffff7e7f000000000000000000000000945304eb96065b2a98b57a48a06ae28d285a71b5681069127b3b9c877d6f6169ff3660005155",
                "balance": "0x0"
            },
            "0x945304eb96065b2a98b57a48a06ae28d285a71b5": {
                "code": "0x6000355415600957005b60203560003555",
                "balance": "0x2e"
            },
            "0xa94f5374fce5edbc8e2a8697c15331677e6ebf0b": {
                "balance": "0xde0b6b3a7640000"
            }
        },
        "transaction": {
            "gasPrice": "0xa",
            "nonce": "0x0",
            "to": "0x095e7baea6a6c7c4c2dfeb977efac326af552d87",
            "data": [
                "0x7f000000000000000000000000945304eb96065b2a98b57a48a06ae28d285a71b57f000000000000000000000000000000000000000000000000000000000000c3507f000000000000000000000000945304eb96065b2a98b57a48a06ae28d285a71b57f0000000000000000000000010000000000000000000000000000000000000000117fffffffffffffffffffffffffffffffffffffffffffffffffffffffffffffffff7e7f000000000000000000000000945304eb96065b2a98b57a48a06ae28d285a71b5681069127b3b9c877d6f6169ff36"
            ],
            "gasLimit": [
                "0xa0d7e38"
            ],
            "value": [
                "0x1ed9a5b6"
            ],
            "secretKey": "0x45a915e4d060149eb4365960e6a7a45f334393093061116b197e3240065ff2d8",
            "sender": "0xa94f5374fce5edbc8e2a8697c15331677e6ebf0b"
        },
        "post": {
            "ETC_Magneto": [
                {
                    "hash": "f3d394869197d0ea0704ee9296116c1e6d7766d6801173bdeb6d6d86213bf4a2",
                    "logs": "1dcc4de8dec75d7aab85b567b6ccd41ad312451b948a7413f0a142fd40d49347",
                    "txbytes": "0xf9013c800a840a0d7e3894095e7baea6a6c7c4c2dfeb977efac326af552d87841ed9a5b6b8d67f000000000000000000000000945304eb96065b2a98b57a48a06ae28d285a71b57f000000000000000000000000000000000000000000000000000000000000c3507f000000000000000000000000945304eb96065b2a98b57a48a06ae28d285a71b57f0000000000000000000000010000000000000000000000000000000000000000117fffffffffffffffffffffffffffffffffffffffffffffffffffffffffffffffff7e7f000000000000000000000000945304eb96065b2a98b57a48a06ae28d285a71b5681069127b3b9c877d6f6169ff361ba0a6dc2041024191ec8bf7db38f0c421f69ef78a22313a19f6fa1c2701dac35223a04027db43d973d00ffae4468256a0fe113cbb1d2041e725f8864b9ed39e9a42ee",
                    "indexes": {
                        "data": 0,
                        "gas": 0,
                        "value": 0
                    }
                }
            ],
            "ETC_Mystique": [
                {
                    "hash": "f3d394869197d0ea0704ee9296116c1e6d7766d6801173bdeb6d6d86213bf4a2",
                    "logs": "1dcc4de8dec75d7aab85b567b6ccd41ad312451b948a7413f0a142fd40d49347",
                    "txbytes": "0xf9013c800a840a0d7e3894095e7baea6a6c7c4c2dfeb977efac326af552d87841ed9a5b6b8d67f000000000000000000000000945304eb96065b2a98b57a48a06ae28d285a71b57f000000000000000000000000000000000000000000000000000000000000c3507f000000000000000000000000945304eb96065b2a98b57a48a06ae28d285a71b57f0000000000000000000000010000000000000000000000000000000000000000117fffffffffffffffffffffffffffffffffffffffffffffffffffffffffffffffff7e7f000000000000000000000000945304eb96065b2a98b57a48a06ae28d285a71b5681069127b3b9c877d6f6169ff361ba0a6dc2041024191ec8bf7db38f0c421f69ef78a22313a19f6fa1c2701dac35223a04027db43d973d00ffae4468256a0fe113cbb1d2041e725f8864b9ed39e9a42ee",
                    "indexes": {
                        "data": 0,
                        "gas": 0,
                        "value": 0
                    }
                }
            ],
            "ETC_Phoenix": [
                {
                    "hash": "44d8029c5b57bd789b5dfad4ee013395afbca9ae2437ba8928dab32829f0dc9a",
                    "logs": "1dcc4de8dec75d7aab85b567b6ccd41ad312451b948a7413f0a142fd40d49347",
                    "txbytes": "0xf9013c800a840a0d7e3894095e7baea6a6c7c4c2dfeb977efac326af552d87841ed9a5b6b8d67f000000000000000000000000945304eb96065b2a98b57a48a06ae28d285a71b57f000000000000000000000000000000000000000000000000000000000000c3507f000000000000000000000000945304eb96065b2a98b57a48a06ae28d285a71b57f0000000000000000000000010000000000000000000000000000000000000000117fffffffffffffffffffffffffffffffffffffffffffffffffffffffffffffffff7e7f000000000000000000000000945304eb96065b2a98b57a48a06ae28d285a71b5681069127b3b9c877d6f6169ff361ba0a6dc2041024191ec8bf7db38f0c421f69ef78a22313a19f6fa1c2701dac35223a04027db43d973d00ffae4468256a0fe113cbb1d2041e725f8864b9ed39e9a42ee",
                    "indexes": {
                        "data": 0,
                        "gas": 0,
                        "value": 0
                    }
                }
            ]
        }
    }
}