{
    "randomStatetest97": {
        "_info": {
            "comment": "",
            "filling-rpc-server": "evm version 1.10.16-unstable-0f893109-20220105",
            "filling-tool-version": "retesteth-0.2.2-testinfo+commit.01c6aac2.Linux.g++",
            "filledWith": "CoreGeth-1.12.9-unstable-f4059ddd82d975bdc54fa648e5422a80172161cb",
            "lllcversion": "Version: 0.5.14-develop.2021.11.27+commit.401d5358.Linux.g++",
            "source": "src/GeneralStateTestsFiller/stRandom/randomStatetest97Filler.json",
            "sourceHash": "d2dcdd3c9b1938972e766bb8f605fa65bad85fdecbe65d7867cbdfc69937e52e"
        },
        "env": {
            "currentCoinbase": "945304eb96065b2a98b57a48a06ae28d285a71b5",
            "currentDifficulty": "0x20000",
            "currentRandom": null,
            "currentGasLimit": "0x7fffffffffffffff",
            "currentNumber": "0x1",
            "currentTimestamp": "0x3e8",
            "currentBaseFee": "0xa"
        },
        "pre": {
            "0x095e7baea6a6c7c4c2dfeb977efac326af552d87": {
                "code": "0x7f000000000000000000000000945304eb96065b2a98b57a48a06ae28d285a71b5587f0000000000000000000000000000000000000000000000000000000000000001957f0000000000000000000000000000000000000000000000000000000000000000407f00000000000000000000000000000000000000000000000000000000000000017f000000000000000000000000000000000000000000000000000000000000c3509781040107338b35071887a186",
                "balance": "0x0"
            },
            "0x945304eb96065b2a98b57a48a06ae28d285a71b5": {
                "code": "0x6000355415600957005b60203560003555",
                "balance": "0x2e"
            },
            "0xa94f5374fce5edbc8e2a8697c15331677e6ebf0b": {
                "balance": "0xde0b6b3a7640000"
            }
        },
        "transaction": {
            "gasPrice": "0xa",
            "maxFeePerGas": null,
            "maxPriorityFeePerGas": null,
            "nonce": "0x0",
            "to": "0x095e7baea6a6c7c4c2dfeb977efac326af552d87",
            "data": [
                "0x7f000000000000000000000000945304eb96065b2a98b57a48a06ae28d285a71b5587f0000000000000000000000000000000000000000000000000000000000000001957f0000000000000000000000000000000000000000000000000000000000000000407f00000000000000000000000000000000000000000000000000000000000000017f000000000000000000000000000000000000000000000000000000000000c3509781040107338b35071887a186"
            ],
            "gasLimit": [
                "0x43f70ef"
            ],
            "value": [
                "0x14008cb2"
            ],
            "secretKey": "0x45a915e4d060149eb4365960e6a7a45f334393093061116b197e3240065ff2d8"
        },
        "out": "0x",
        "post": {
            "ETC_Magneto": [
                {
                    "hash": "5b36e32cf3224da57267b11a74afea73ba0551cbfe58d01782e9a3e7a983f45c",
                    "logs": "1dcc4de8dec75d7aab85b567b6ccd41ad312451b948a7413f0a142fd40d49347",
                    "txbytes": "0xf9011b800a84043f70ef94095e7baea6a6c7c4c2dfeb977efac326af552d878414008cb2b8b57f000000000000000000000000945304eb96065b2a98b57a48a06ae28d285a71b5587f0000000000000000000000000000000000000000000000000000000000000001957f0000000000000000000000000000000000000000000000000000000000000000407f00000000000000000000000000000000000000000000000000000000000000017f000000000000000000000000000000000000000000000000000000000000c3509781040107338b35071887a1861ba01901ac03724897dfc5f05db2f9f777d7d5f8323891076e377ac3f5cdf35b8c63a04f95408eb11c0a3aa238a1db47e3d4efb2976ce8a9d3e789ce93be845e222935",
                    "indexes": {
                        "data": 0,
                        "gas": 0,
                        "value": 0
                    }
                }
            ],
            "ETC_Mystique": [
                {
                    "hash": "5b36e32cf3224da57267b11a74afea73ba0551cbfe58d01782e9a3e7a983f45c",
                    "logs": "1dcc4de8dec75d7aab85b567b6ccd41ad312451b948a7413f0a142fd40d49347",
                    "txbytes": "0xf9011b800a84043f70ef94095e7baea6a6c7c4c2dfeb977efac326af552d878414008cb2b8b57f000000000000000000000000945304eb96065b2a98b57a48a06ae28d285a71b5587f0000000000000000000000000000000000000000000000000000000000000001957f0000000000000000000000000000000000000000000000000000000000000000407f00000000000000000000000000000000000000000000000000000000000000017f000000000000000000000000000000000000000000000000000000000000c3509781040107338b35071887a1861ba01901ac03724897dfc5f05db2f9f777d7d5f8323891076e377ac3f5cdf35b8c63a04f95408eb11c0a3aa238a1db47e3d4efb2976ce8a9d3e789ce93be845e222935",
                    "indexes": {
                        "data": 0,
                        "gas": 0,
                        "value": 0
                    }
                }
            ],
            "ETC_Phoenix": [
                {
                    "hash": "5b36e32cf3224da57267b11a74afea73ba0551cbfe58d01782e9a3e7a983f45c",
                    "logs": "1dcc4de8dec75d7aab85b567b6ccd41ad312451b948a7413f0a142fd40d49347",
                    "txbytes": "0xf9011b800a84043f70ef94095e7baea6a6c7c4c2dfeb977efac326af552d878414008cb2b8b57f000000000000000000000000945304eb96065b2a98b57a48a06ae28d285a71b5587f0000000000000000000000000000000000000000000000000000000000000001957f0000000000000000000000000000000000000000000000000000000000000000407f00000000000000000000000000000000000000000000000000000000000000017f000000000000000000000000000000000000000000000000000000000000c3509781040107338b35071887a1861ba01901ac03724897dfc5f05db2f9f777d7d5f8323891076e377ac3f5cdf35b8c63a04f95408eb11c0a3aa238a1db47e3d4efb2976ce8a9d3e789ce93be845e222935",
                    "indexes": {
                        "data": 0,
                        "gas": 0,
                        "value": 0
                    }
                }
            ]
        }
    }
}