{
    "randomStatetest334": {
        "_info": {
            "comment": "",
            "filling-rpc-server": "evm version 1.10.16-unstable-0f893109-20220105",
            "filling-tool-version": "retesteth-0.2.2-testinfo+commit.01c6aac2.Linux.g++",
            "filledWith": "CoreGeth-1.12.9-unstable-d390462df9df233b60b4cd7a37db5b3043832022",
            "lllcversion": "Version: 0.5.14-develop.2021.11.27+commit.401d5358.Linux.g++",
            "source": "src/GeneralStateTestsFiller/stRandom/randomStatetest334Filler.json",
            "sourceHash": "e9d2c3cd9defc994b3cf508a5e582baa4064a9b1e89551c50b74bd162c1ce85d"
        },
        "env": {
            "currentCoinbase": "0x945304eb96065b2a98b57a48a06ae28d285a71b5",
            "currentDifficulty": "0x20000",
            "currentGasLimit": "0x7fffffffffffffff",
            "currentNumber": "0x1",
            "currentTimestamp": "0x3e8",
            "previousHash": "0x5e20a0453cecd065ea59c37ac63e079ee08998b6045136a8ce6635c7912ec0b6"
        },
        "pre": {
            "0x095e7baea6a6c7c4c2dfeb977efac326af552d87": {
                "code": "0x7f00000000000000000000000000000000000000000000000000000000000000013a7fffffffffffffffffffffffffffffffffffffffffffffffffffffffffffffffff7ffffffffffffffffffffffffffffffffffffffffffffffffffffffffffffffffe6f424468208e181851308b7c7a776863a160005155",
                "balance": "0x0",
                "nonce": "0x0"
            },
            "0x945304eb96065b2a98b57a48a06ae28d285a71b5": {
                "code": "0x6000355415600957005b60203560003555",
                "balance": "0x2e",
                "nonce": "0x0"
            },
            "0xa94f5374fce5edbc8e2a8697c15331677e6ebf0b": {
                "code": "0x",
                "balance": "0xde0b6b3a7640000",
                "nonce": "0x0"
            }
        },
        "transaction": {
            "gasPrice": "0xa",
            "nonce": "0x0",
            "to": "0x095e7baea6a6c7c4c2dfeb977efac326af552d87",
            "data": [
                "0x7f00000000000000000000000000000000000000000000000000000000000000013a7fffffffffffffffffffffffffffffffffffffffffffffffffffffffffffffffff7ffffffffffffffffffffffffffffffffffffffffffffffffffffffffffffffffe6f424468208e181851308b7c7a776863a1"
            ],
            "gasLimit": [
                "0x1381fdac"
            ],
            "value": [
                "0x36993f17"
            ],
            "secretKey": "0x45a915e4d060149eb4365960e6a7a45f334393093061116b197e3240065ff2d8",
            "sender": "0xa94f5374fce5edbc8e2a8697c15331677e6ebf0b"
        },
        "post": {
            "ETC_Magneto": [
                {
                    "hash": "9d4a8a5448ade779277c04f944de45072d600c945157bbe5b348a38b07f876eb",
                    "logs": "1dcc4de8dec75d7aab85b567b6ccd41ad312451b948a7413f0a142fd40d49347",
                    "txbytes": "0xf8db800a841381fdac94095e7baea6a6c7c4c2dfeb977efac326af552d878436993f17b8757f00000000000000000000000000000000000000000000000000000000000000013a7fffffffffffffffffffffffffffffffffffffffffffffffffffffffffffffffff7ffffffffffffffffffffffffffffffffffffffffffffffffffffffffffffffffe6f424468208e181851308b7c7a776863a11ca076731df2b5e1a7671bf76494a1d3c123a54c644ee03cc59a43f50ed282535241a0224991242804ae835fd0bff9fe293a0916f1665a72e687906cbb68157beb76bc",
                    "indexes": {
                        "data": 0,
                        "gas": 0,
                        "value": 0
                    }
                }
            ],
            "ETC_Mystique": [
                {
                    "hash": "9d4a8a5448ade779277c04f944de45072d600c945157bbe5b348a38b07f876eb",
                    "logs": "1dcc4de8dec75d7aab85b567b6ccd41ad312451b948a7413f0a142fd40d49347",
                    "txbytes": "0xf8db800a841381fdac94095e7baea6a6c7c4c2dfeb977efac326af552d878436993f17b8757f00000000000000000000000000000000000000000000000000000000000000013a7fffffffffffffffffffffffffffffffffffffffffffffffffffffffffffffffff7ffffffffffffffffffffffffffffffffffffffffffffffffffffffffffffffffe6f424468208e181851308b7c7a776863a11ca076731df2b5e1a7671bf76494a1d3c123a54c644ee03cc59a43f50ed282535241a0224991242804ae835fd0bff9fe293a0916f1665a72e687906cbb68157beb76bc",
                    "indexes": {
                        "data": 0,
                        "gas": 0,
                        "value": 0
                    }
                }
            ],
            "ETC_Phoenix": [
                {
                    "hash": "de721db64698a6f5260af51d5b90f62aee7ff9b6c45192c3810f76578ddc22e9",
                    "logs": "1dcc4de8dec75d7aab85b567b6ccd41ad312451b948a7413f0a142fd40d49347",
                    "txbytes": "0xf8db800a841381fdac94095e7baea6a6c7c4c2dfeb977efac326af552d878436993f17b8757f00000000000000000000000000000000000000000000000000000000000000013a7fffffffffffffffffffffffffffffffffffffffffffffffffffffffffffffffff7ffffffffffffffffffffffffffffffffffffffffffffffffffffffffffffffffe6f424468208e181851308b7c7a776863a11ca076731df2b5e1a7671bf76494a1d3c123a54c644ee03cc59a43f50ed282535241a0224991242804ae835fd0bff9fe293a0916f1665a72e687906cbb68157beb76bc",
                    "indexes": {
                        "data": 0,
                        "gas": 0,
                        "value": 0
                    }
                }
            ]
        }
    }
}