{
    "randomStatetest367": {
        "_info": {
            "comment": "",
            "filling-rpc-server": "evm version 1.10.16-unstable-0f893109-20220105",
            "filling-tool-version": "retesteth-0.2.2-testinfo+commit.01c6aac2.Linux.g++",
            "filledWith": "CoreGeth-1.12.9-unstable-ab16c56768f0284ab56a30aac9550d3ebdc45901",
            "lllcversion": "Version: 0.5.14-develop.2021.11.27+commit.401d5358.Linux.g++",
            "source": "src/GeneralStateTestsFiller/stRandom/randomStatetest367Filler.json",
            "sourceHash": "8c96c73cf5d2ab98d2e13066603c853c2e7bb83e22627bee9b4d18c70167e874"
        },
        "env": {
            "currentCoinbase": "0x945304eb96065b2a98b57a48a06ae28d285a71b5",
            "currentDifficulty": "0x20000",
            "currentGasLimit": "0x7fffffffffffffff",
            "currentNumber": "0x1",
            "currentTimestamp": "0x3e8",
            "currentBaseFee": "0xa",
            "previousHash": "0x5e20a0453cecd065ea59c37ac63e079ee08998b6045136a8ce6635c7912ec0b6"
        },
        "pre": {
            "0x095e7baea6a6c7c4c2dfeb977efac326af552d87": {
                "code": "0x7f000000000000000000000000945304eb96065b2a98b57a48a06ae28d285a71b57f000000000000000000000000ffffffffffffffffffffffffffffffffffffffff7f0000000000000000000000000000000000000000000000000000000000000000447f000000000000000000000000000000000000000000000000000000000000c3507f000000000000000000000000945304eb96065b2a98b57a48a06ae28d285a71b5447f000000000000000000000000945304eb96065b2a98b57a48a06ae28d285a71b51905810a6c7a5959339f3342838b5560005155",
                "balance": "0x0"
            },
            "0x945304eb96065b2a98b57a48a06ae28d285a71b5": {
                "code": "0x6000355415600957005b60203560003555",
                "balance": "0x2e"
            },
            "0xa94f5374fce5edbc8e2a8697c15331677e6ebf0b": {
                "balance": "0xde0b6b3a7640000"
            }
        },
        "transaction": {
            "gasPrice": "0xa",
            "nonce": "0x0",
            "to": "0x095e7baea6a6c7c4c2dfeb977efac326af552d87",
            "data": [
                "0x7f000000000000000000000000945304eb96065b2a98b57a48a06ae28d285a71b57f000000000000000000000000ffffffffffffffffffffffffffffffffffffffff7f0000000000000000000000000000000000000000000000000000000000000000447f000000000000000000000000000000000000000000000000000000000000c3507f000000000000000000000000945304eb96065b2a98b57a48a06ae28d285a71b5447f000000000000000000000000945304eb96065b2a98b57a48a06ae28d285a71b51905810a6c7a5959339f3342838b"
            ],
            "gasLimit": [
                "0x6e0c2062"
            ],
            "value": [
                "0x2bc3d730"
            ],
            "secretKey": "0x45a915e4d060149eb4365960e6a7a45f334393093061116b197e3240065ff2d8",
            "sender": "0xa94f5374fce5edbc8e2a8697c15331677e6ebf0b"
        },
        "post": {
            "ETC_Magneto": [
                {
                    "hash": "dce1268c1b4b824b4b5e4f9bc1bee997d68707c04b12a0e80d39b23db53251ad",
                    "logs": "1dcc4de8dec75d7aab85b567b6ccd41ad312451b948a7413f0a142fd40d49347",
                    "txbytes": "0xf9013c800a846e0c206294095e7baea6a6c7c4c2dfeb977efac326af552d87842bc3d730b8d67f000000000000000000000000945304eb96065b2a98b57a48a06ae28d285a71b57f000000000000000000000000ffffffffffffffffffffffffffffffffffffffff7f0000000000000000000000000000000000000000000000000000000000000000447f000000000000000000000000000000000000000000000000000000000000c3507f000000000000000000000000945304eb96065b2a98b57a48a06ae28d285a71b5447f000000000000000000000000945304eb96065b2a98b57a48a06ae28d285a71b51905810a6c7a5959339f3342838b1ba0df1e26a6bf34c55c305799f59dc8596b59a58c1a99455e0327c96704d082239ba007a09ebbde3fa7fab819f961f10f498a63d91a05a813aafa3a61867489934c9b",
                    "indexes": {
                        "data": 0,
                        "gas": 0,
                        "value": 0
                    }
                }
            ],
            "ETC_Mystique": [
                {
                    "hash": "dce1268c1b4b824b4b5e4f9bc1bee997d68707c04b12a0e80d39b23db53251ad",
                    "logs": "1dcc4de8dec75d7aab85b567b6ccd41ad312451b948a7413f0a142fd40d49347",
                    "txbytes": "0xf9013c800a846e0c206294095e7baea6a6c7c4c2dfeb977efac326af552d87842bc3d730b8d67f000000000000000000000000945304eb96065b2a98b57a48a06ae28d285a71b57f000000000000000000000000ffffffffffffffffffffffffffffffffffffffff7f0000000000000000000000000000000000000000000000000000000000000000447f000000000000000000000000000000000000000000000000000000000000c3507f000000000000000000000000945304eb96065b2a98b57a48a06ae28d285a71b5447f000000000000000000000000945304eb96065b2a98b57a48a06ae28d285a71b51905810a6c7a5959339f3342838b1ba0df1e26a6bf34c55c305799f59dc8596b59a58c1a99455e0327c96704d082239ba007a09ebbde3fa7fab819f961f10f498a63d91a05a813aafa3a61867489934c9b",
                    "indexes": {
                        "data": 0,
                        "gas": 0,
                        "value": 0
                    }
                }
            ],
            "ETC_Phoenix": [
                {
                    "hash": "f51daef7597051573e3b452b8b8822b217a2d625d3d2cc357eb92d3379b8d0c9",
                    "logs": "1dcc4de8dec75d7aab85b567b6ccd41ad312451b948a7413f0a142fd40d49347",
                    "txbytes": "0xf9013c800a846e0c206294095e7baea6a6c7c4c2dfeb977efac326af552d87842bc3d730b8d67f000000000000000000000000945304eb96065b2a98b57a48a06ae28d285a71b57f000000000000000000000000ffffffffffffffffffffffffffffffffffffffff7f0000000000000000000000000000000000000000000000000000000000000000447f000000000000000000000000000000000000000000000000000000000000c3507f000000000000000000000000945304eb96065b2a98b57a48a06ae28d285a71b5447f000000000000000000000000945304eb96065b2a98b57a48a06ae28d285a71b51905810a6c7a5959339f3342838b1ba0df1e26a6bf34c55c305799f59dc8596b59a58c1a99455e0327c96704d082239ba007a09ebbde3fa7fab819f961f10f498a63d91a05a813aafa3a61867489934c9b",
                    "indexes": {
                        "data": 0,
                        "gas": 0,
                        "value": 0
                    }
                }
            ]
        }
    }
}