{
    "randomStatetest265": {
        "_info": {
            "comment": "",
            "filling-rpc-server": "evm version 1.10.16-unstable-0f893109-20220105",
            "filling-tool-version": "retesteth-0.2.2-testinfo+commit.01c6aac2.Linux.g++",
            "filledWith": "CoreGeth-1.12.9-unstable-3995a327f2ded5c98324b03792b5ccc22557754f",
            "lllcversion": "Version: 0.5.14-develop.2021.11.27+commit.401d5358.Linux.g++",
            "source": "src/GeneralStateTestsFiller/stRandom/randomStatetest265Filler.json",
            "sourceHash": "ad9624a38488e6989c83ee89a883111866f75c6a708e17fea93a8e6093ceeb39"
        },
        "env": {
            "currentCoinbase": "0x945304eb96065b2a98b57a48a06ae28d285a71b5",
            "currentDifficulty": "0x20000",
            "currentGasLimit": "0x7fffffffffffffff",
            "currentNumber": "0x1",
            "currentTimestamp": "0x3e8",
            "currentBaseFee": "0xa",
            "previousHash": "0x5e20a0453cecd065ea59c37ac63e079ee08998b6045136a8ce6635c7912ec0b6"
        },
        "pre": {
            "0x095e7baea6a6c7c4c2dfeb977efac326af552d87": {
                "code": "0x7f000000000000000000000000000000000000000000000000000000000000c3507f000000000000000000000000000000000000000000000000000000000000c3503b7f000000000000000000000000000000000000000000000000000000000000c3506a7f00000000000000000000000000000000000000000000000000000000000000017f000000000000000000000000ffffffffffffffffffffffffffffffffffffffff7f0000000000000000000000010000000000000000000000000000000000000000745b9b824070397f921960005155",
                "balance": "0x0"
            },
            "0x945304eb96065b2a98b57a48a06ae28d285a71b5": {
                "code": "0x6000355415600957005b60203560003555",
                "balance": "0x2e"
            },
            "0xa94f5374fce5edbc8e2a8697c15331677e6ebf0b": {
                "balance": "0xde0b6b3a7640000"
            }
        },
        "transaction": {
            "gasPrice": "0xa",
            "nonce": "0x0",
            "to": "0x095e7baea6a6c7c4c2dfeb977efac326af552d87",
            "data": [
                "0x7f000000000000000000000000000000000000000000000000000000000000c3507f000000000000000000000000000000000000000000000000000000000000c3503b7f000000000000000000000000000000000000000000000000000000000000c3506a7f00000000000000000000000000000000000000000000000000000000000000017f000000000000000000000000ffffffffffffffffffffffffffffffffffffffff7f0000000000000000000000010000000000000000000000000000000000000000745b9b824070397f9219"
            ],
            "gasLimit": [
                "0x6c4dfece"
            ],
            "value": [
                "0x2217865b"
            ],
            "secretKey": "0x45a915e4d060149eb4365960e6a7a45f334393093061116b197e3240065ff2d8",
            "sender": "0xa94f5374fce5edbc8e2a8697c15331677e6ebf0b"
        },
        "post": {
            "ETC_Magneto": [
                {
                    "hash": "820c29bed1ed500761a63d11b9c8fa594ece1063dc09d2807f3a470d5558df76",
                    "logs": "1dcc4de8dec75d7aab85b567b6ccd41ad312451b948a7413f0a142fd40d49347",
                    "txbytes": "0xf90138800a846c4dfece94095e7baea6a6c7c4c2dfeb977efac326af552d87842217865bb8d27f000000000000000000000000000000000000000000000000000000000000c3507f000000000000000000000000000000000000000000000000000000000000c3503b7f000000000000000000000000000000000000000000000000000000000000c3506a7f00000000000000000000000000000000000000000000000000000000000000017f000000000000000000000000ffffffffffffffffffffffffffffffffffffffff7f0000000000000000000000010000000000000000000000000000000000000000745b9b824070397f92191ca0c82eaa4006beb22a569424b96c454916b9403a9dbb26d47455ace90c232d8688a0213875ea8b5ef86784f00fbe694aec626278d7d8829d63247a38fba0fb57cd03",
                    "indexes": {
                        "data": 0,
                        "gas": 0,
                        "value": 0
                    }
                }
            ],
            "ETC_Mystique": [
                {
                    "hash": "820c29bed1ed500761a63d11b9c8fa594ece1063dc09d2807f3a470d5558df76",
                    "logs": "1dcc4de8dec75d7aab85b567b6ccd41ad312451b948a7413f0a142fd40d49347",
                    "txbytes": "0xf90138800a846c4dfece94095e7baea6a6c7c4c2dfeb977efac326af552d87842217865bb8d27f000000000000000000000000000000000000000000000000000000000000c3507f000000000000000000000000000000000000000000000000000000000000c3503b7f000000000000000000000000000000000000000000000000000000000000c3506a7f00000000000000000000000000000000000000000000000000000000000000017f000000000000000000000000ffffffffffffffffffffffffffffffffffffffff7f0000000000000000000000010000000000000000000000000000000000000000745b9b824070397f92191ca0c82eaa4006beb22a569424b96c454916b9403a9dbb26d47455ace90c232d8688a0213875ea8b5ef86784f00fbe694aec626278d7d8829d63247a38fba0fb57cd03",
                    "indexes": {
                        "data": 0,
                        "gas": 0,
                        "value": 0
                    }
                }
            ],
            "ETC_Phoenix": [
                {
                    "hash": "92acebaee141e92b8f03842adef6c118dbe7034d9bdd217b81d90eb3d6b24ec3",
                    "logs": "1dcc4de8dec75d7aab85b567b6ccd41ad312451b948a7413f0a142fd40d49347",
                    "txbytes": "0xf90138800a846c4dfece94095e7baea6a6c7c4c2dfeb977efac326af552d87842217865bb8d27f000000000000000000000000000000000000000000000000000000000000c3507f000000000000000000000000000000000000000000000000000000000000c3503b7f000000000000000000000000000000000000000000000000000000000000c3506a7f00000000000000000000000000000000000000000000000000000000000000017f000000000000000000000000ffffffffffffffffffffffffffffffffffffffff7f0000000000000000000000010000000000000000000000000000000000000000745b9b824070397f92191ca0c82eaa4006beb22a569424b96c454916b9403a9dbb26d47455ace90c232d8688a0213875ea8b5ef86784f00fbe694aec626278d7d8829d63247a38fba0fb57cd03",
                    "indexes": {
                        "data": 0,
                        "gas": 0,
                        "value": 0
                    }
                }
            ]
        }
    }
}