{
    "randomStatetest55": {
        "_info": {
            "comment": "",
            "filling-rpc-server": "evm version 1.10.16-unstable-0f893109-20220105",
            "filling-tool-version": "retesteth-0.2.2-testinfo+commit.01c6aac2.Linux.g++",
            "filledWith": "CoreGeth-1.12.9-unstable-d390462df9df233b60b4cd7a37db5b3043832022",
            "lllcversion": "Version: 0.5.14-develop.2021.11.27+commit.401d5358.Linux.g++",
            "source": "src/GeneralStateTestsFiller/stRandom/randomStatetest55Filler.json",
            "sourceHash": "fe6cb74e959fd314637194153debe42fbb1f32830b03aa6da2b8bf68d56c6ff8"
        },
        "env": {
            "currentCoinbase": "0x945304eb96065b2a98b57a48a06ae28d285a71b5",
            "currentDifficulty": "0x20000",
            "currentGasLimit": "0x7fffffffffffffff",
            "currentNumber": "0x1",
            "currentTimestamp": "0x3e8",
            "previousHash": "0x5e20a0453cecd065ea59c37ac63e079ee08998b6045136a8ce6635c7912ec0b6"
        },
        "pre": {
            "0x095e7baea6a6c7c4c2dfeb977efac326af552d87": {
                "code": "0x7f00000000000000000000000000000000000000000000000000000000000000007f000000000000000000000000945304eb96065b2a98b57a48a06ae28d285a71b57f000000000000000000000000000000000000000000000000000000000000000084967f000000000000000000000000ffffffffffffffffffffffffffffffffffffffff137ffffffffffffffffffffffffffffffffffffffffffffffffffffffffffffffffe016f3a5b594088a2f238089b71",
                "balance": "0x0",
                "nonce": "0x0"
            },
            "0x945304eb96065b2a98b57a48a06ae28d285a71b5": {
                "code": "0x6000355415600957005b60203560003555",
                "balance": "0x2e",
                "nonce": "0x0"
            },
            "0xa94f5374fce5edbc8e2a8697c15331677e6ebf0b": {
                "code": "0x",
                "balance": "0xde0b6b3a7640000",
                "nonce": "0x0"
            }
        },
        "transaction": {
            "gasPrice": "0xa",
            "nonce": "0x0",
            "to": "0x095e7baea6a6c7c4c2dfeb977efac326af552d87",
            "data": [
                "0x7f00000000000000000000000000000000000000000000000000000000000000007f000000000000000000000000945304eb96065b2a98b57a48a06ae28d285a71b57f000000000000000000000000000000000000000000000000000000000000000084967f000000000000000000000000ffffffffffffffffffffffffffffffffffffffff137ffffffffffffffffffffffffffffffffffffffffffffffffffffffffffffffffe016f3a5b594088a2f238089b71"
            ],
            "gasLimit": [
                "0x2bd66e7e"
            ],
            "value": [
                "0x40bfde69"
            ],
            "secretKey": "0x45a915e4d060149eb4365960e6a7a45f334393093061116b197e3240065ff2d8",
            "sender": "0xa94f5374fce5edbc8e2a8697c15331677e6ebf0b"
        },
        "post": {
            "ETC_Magneto": [
                {
                    "hash": "ca24ba9e0e71af3d91dc313afd8908aad9a6cecf254b30428af04d878d19424f",
                    "logs": "1dcc4de8dec75d7aab85b567b6ccd41ad312451b948a7413f0a142fd40d49347",
                    "txbytes": "0xf9011b800a842bd66e7e94095e7baea6a6c7c4c2dfeb977efac326af552d878440bfde69b8b57f00000000000000000000000000000000000000000000000000000000000000007f000000000000000000000000945304eb96065b2a98b57a48a06ae28d285a71b57f000000000000000000000000000000000000000000000000000000000000000084967f000000000000000000000000ffffffffffffffffffffffffffffffffffffffff137ffffffffffffffffffffffffffffffffffffffffffffffffffffffffffffffffe016f3a5b594088a2f238089b711ca08e116678b7fb104544ee2b793f34cd28604dcc4960c9ff9e456ecd8585fc32c6a008105743754e16f53351156461eed487730d789b88e7c2255c31f47067aab3d5",
                    "indexes": {
                        "data": 0,
                        "gas": 0,
                        "value": 0
                    }
                }
            ],
            "ETC_Mystique": [
                {
                    "hash": "ca24ba9e0e71af3d91dc313afd8908aad9a6cecf254b30428af04d878d19424f",
                    "logs": "1dcc4de8dec75d7aab85b567b6ccd41ad312451b948a7413f0a142fd40d49347",
                    "txbytes": "0xf9011b800a842bd66e7e94095e7baea6a6c7c4c2dfeb977efac326af552d878440bfde69b8b57f00000000000000000000000000000000000000000000000000000000000000007f000000000000000000000000945304eb96065b2a98b57a48a06ae28d285a71b57f000000000000000000000000000000000000000000000000000000000000000084967f000000000000000000000000ffffffffffffffffffffffffffffffffffffffff137ffffffffffffffffffffffffffffffffffffffffffffffffffffffffffffffffe016f3a5b594088a2f238089b711ca08e116678b7fb104544ee2b793f34cd28604dcc4960c9ff9e456ecd8585fc32c6a008105743754e16f53351156461eed487730d789b88e7c2255c31f47067aab3d5",
                    "indexes": {
                        "data": 0,
                        "gas": 0,
                        "value": 0
                    }
                }
            ],
            "ETC_Phoenix": [
                {
                    "hash": "ca24ba9e0e71af3d91dc313afd8908aad9a6cecf254b30428af04d878d19424f",
                    "logs": "1dcc4de8dec75d7aab85b567b6ccd41ad312451b948a7413f0a142fd40d49347",
                    "txbytes": "0xf9011b800a842bd66e7e94095e7baea6a6c7c4c2dfeb977efac326af552d878440bfde69b8b57f00000000000000000000000000000000000000000000000000000000000000007f000000000000000000000000945304eb96065b2a98b57a48a06ae28d285a71b57f000000000000000000000000000000000000000000000000000000000000000084967f000000000000000000000000ffffffffffffffffffffffffffffffffffffffff137ffffffffffffffffffffffffffffffffffffffffffffffffffffffffffffffffe016f3a5b594088a2f238089b711ca08e116678b7fb104544ee2b793f34cd28604dcc4960c9ff9e456ecd8585fc32c6a008105743754e16f53351156461eed487730d789b88e7c2255c31f47067aab3d5",
                    "indexes": {
                        "data": 0,
                        "gas": 0,
                        "value": 0
                    }
                }
            ]
        }
    }
}