{
    "randomStatetest200": {
        "_info": {
            "comment": "",
            "filling-rpc-server": "evm version 1.10.16-unstable-0f893109-20220105",
            "filling-tool-version": "retesteth-0.2.2-testinfo+commit.01c6aac2.Linux.g++",
            "filledWith": "CoreGeth-1.12.9-unstable-d64998ce9b05f4f41b35740c69c4b402e41a3105",
            "lllcversion": "Version: 0.5.14-develop.2021.11.27+commit.401d5358.Linux.g++",
            "source": "src/GeneralStateTestsFiller/stRandom/randomStatetest200Filler.json",
            "sourceHash": "4034058833d08376a6eb11fb274881f7b62c8622d2006dfc1adfa4a0c6ec1703"
        },
        "env": {
            "currentCoinbase": "0x945304eb96065b2a98b57a48a06ae28d285a71b5",
            "currentDifficulty": "0x20000",
            "currentGasLimit": "0x7fffffffffffffff",
            "currentNumber": "0x1",
            "currentTimestamp": "0x3e8",
            "previousHash": "0x5e20a0453cecd065ea59c37ac63e079ee08998b6045136a8ce6635c7912ec0b6"
        },
        "pre": {
            "0x095e7baea6a6c7c4c2dfeb977efac326af552d87": {
                "code": "0x437f000000000000000000000000000000000000000000000000000000000000c3507f000000000000000000000000ffffffffffffffffffffffffffffffffffffffff7f00000000000000000000000100000000000000000000000000000000000000007f000000000000000000000000945304eb96065b2a98b57a48a06ae28d285a71b5346f42051af2a24050039e9d3a678b028a0a8055",
                "balance": "0x0"
            },
            "0x945304eb96065b2a98b57a48a06ae28d285a71b5": {
                "code": "0x6000355415600957005b60203560003555",
                "balance": "0x2e"
            },
            "0xa94f5374fce5edbc8e2a8697c15331677e6ebf0b": {
                "balance": "0xde0b6b3a7640000"
            }
        },
        "transaction": {
            "gasPrice": "0xa",
            "nonce": "0x0",
            "to": "0x095e7baea6a6c7c4c2dfeb977efac326af552d87",
            "data": [
                "0x437f000000000000000000000000000000000000000000000000000000000000c3507f000000000000000000000000ffffffffffffffffffffffffffffffffffffffff7f00000000000000000000000100000000000000000000000000000000000000007f000000000000000000000000945304eb96065b2a98b57a48a06ae28d285a71b5346f42051af2a24050039e9d3a678b028a0a80"
            ],
            "gasLimit": [
                "0x138a126b"
            ],
            "value": [
                "0x3f51031d"
            ],
            "secretKey": "0x45a915e4d060149eb4365960e6a7a45f334393093061116b197e3240065ff2d8",
            "sender": "0xa94f5374fce5edbc8e2a8697c15331677e6ebf0b"
        },
        "post": {
            "ETC_Magneto": [
                {
                    "hash": "b2907c5bdd1d975ac34dd66304d93bd0cff9d92bfe0d5f0a9f3c6a2ee1ed1e90",
                    "logs": "1dcc4de8dec75d7aab85b567b6ccd41ad312451b948a7413f0a142fd40d49347",
                    "txbytes": "0xf8fe800a84138a126b94095e7baea6a6c7c4c2dfeb977efac326af552d87843f51031db898437f000000000000000000000000000000000000000000000000000000000000c3507f000000000000000000000000ffffffffffffffffffffffffffffffffffffffff7f00000000000000000000000100000000000000000000000000000000000000007f000000000000000000000000945304eb96065b2a98b57a48a06ae28d285a71b5346f42051af2a24050039e9d3a678b028a0a801ba01dc0f43b6c9cfa7ef32a7de763db69a6e0c82531f1a89f2dbfe0e38c4e6a783aa01144fac2e83c0b70b49276933bf31876bcca55374698eebb5f78dd6f34d25562",
                    "indexes": {
                        "data": 0,
                        "gas": 0,
                        "value": 0
                    }
                }
            ],
            "ETC_Mystique": [
                {
                    "hash": "b2907c5bdd1d975ac34dd66304d93bd0cff9d92bfe0d5f0a9f3c6a2ee1ed1e90",
                    "logs": "1dcc4de8dec75d7aab85b567b6ccd41ad312451b948a7413f0a142fd40d49347",
                    "txbytes": "0xf8fe800a84138a126b94095e7baea6a6c7c4c2dfeb977efac326af552d87843f51031db898437f000000000000000000000000000000000000000000000000000000000000c3507f000000000000000000000000ffffffffffffffffffffffffffffffffffffffff7f00000000000000000000000100000000000000000000000000000000000000007f000000000000000000000000945304eb96065b2a98b57a48a06ae28d285a71b5346f42051af2a24050039e9d3a678b028a0a801ba01dc0f43b6c9cfa7ef32a7de763db69a6e0c82531f1a89f2dbfe0e38c4e6a783aa01144fac2e83c0b70b49276933bf31876bcca55374698eebb5f78dd6f34d25562",
                    "indexes": {
                        "data": 0,
                        "gas": 0,
                        "value": 0
                    }
                }
            ],
            "ETC_Phoenix": [
                {
                    "hash": "b8f8c22221fcb3b94982759a5b6fcdc9b9eee1bb2a4edf4bfd6e69def31625bf",
                    "logs": "1dcc4de8dec75d7aab85b567b6ccd41ad312451b948a7413f0a142fd40d49347",
                    "txbytes": "0xf8fe800a84138a126b94095e7baea6a6c7c4c2dfeb977efac326af552d87843f51031db898437f000000000000000000000000000000000000000000000000000000000000c3507f000000000000000000000000ffffffffffffffffffffffffffffffffffffffff7f00000000000000000000000100000000000000000000000000000000000000007f000000000000000000000000945304eb96065b2a98b57a48a06ae28d285a71b5346f42051af2a24050039e9d3a678b028a0a801ba01dc0f43b6c9cfa7ef32a7de763db69a6e0c82531f1a89f2dbfe0e38c4e6a783aa01144fac2e83c0b70b49276933bf31876bcca55374698eebb5f78dd6f34d25562",
                    "indexes": {
                        "data": 0,
                        "gas": 0,
                        "value": 0
                    }
                }
            ]
        }
    }
}