{
    "randomStatetest267": {
        "_info": {
            "comment": "",
            "filling-rpc-server": "evm version 1.10.16-unstable-0f893109-20220105",
            "filling-tool-version": "retesteth-0.2.2-testinfo+commit.01c6aac2.Linux.g++",
            "filledWith": "CoreGeth-1.12.9-unstable-4cf5b2b0837228e7d5eadba6a01ffb80e9288e21",
            "lllcversion": "Version: 0.5.14-develop.2021.11.27+commit.401d5358.Linux.g++",
            "source": "src/GeneralStateTestsFiller/stRandom/randomStatetest267Filler.json",
            "sourceHash": "de91e00aeba72c58f16f5e12a249c6063f3a7ad645e95c001109eeaf389194aa"
        },
        "env": {
            "currentCoinbase": "0x945304eb96065b2a98b57a48a06ae28d285a71b5",
            "currentDifficulty": "0x20000",
            "currentGasLimit": "0x7fffffffffffffff",
            "currentNumber": "0x1",
            "currentTimestamp": "0x3e8",
            "previousHash": "0x5e20a0453cecd065ea59c37ac63e079ee08998b6045136a8ce6635c7912ec0b6"
        },
        "pre": {
            "0x095e7baea6a6c7c4c2dfeb977efac326af552d87": {
                "code": "0x447f000000000000000000000000000000000000000000000000000000000000c3507ffffffffffffffffffffffffffffffffffffffffffffffffffffffffffffffffe7f00000000000000000000000100000000000000000000000000000000000000007f000000000000000000000000945304eb96065b2a98b57a48a06ae28d285a71b57f00000000000000000000000000000000000000000000000000000000000000007e7f000000000000000000000000945304eb96065b2a98b57a48a06ae28d285a71b5a132776d398e3b7c14686a07346f60005155",
                "balance": "0x0",
                "nonce": "0x0"
            },
            "0x945304eb96065b2a98b57a48a06ae28d285a71b5": {
                "code": "0x6000355415600957005b60203560003555",
                "balance": "0x2e",
                "nonce": "0x0"
            },
            "0xa94f5374fce5edbc8e2a8697c15331677e6ebf0b": {
                "code": "0x",
                "balance": "0xde0b6b3a7640000",
                "nonce": "0x0"
            }
        },
        "transaction": {
            "gasPrice": "0xa",
            "nonce": "0x0",
            "to": "0x095e7baea6a6c7c4c2dfeb977efac326af552d87",
            "data": [
                "0x447f000000000000000000000000000000000000000000000000000000000000c3507ffffffffffffffffffffffffffffffffffffffffffffffffffffffffffffffffe7f00000000000000000000000100000000000000000000000000000000000000007f000000000000000000000000945304eb96065b2a98b57a48a06ae28d285a71b57f00000000000000000000000000000000000000000000000000000000000000007e7f000000000000000000000000945304eb96065b2a98b57a48a06ae28d285a71b5a132776d398e3b7c14686a07346f"
            ],
            "gasLimit": [
                "0xa7ed73a"
            ],
            "value": [
                "0x0f5106ae"
            ],
            "secretKey": "0x45a915e4d060149eb4365960e6a7a45f334393093061116b197e3240065ff2d8",
            "sender": "0xa94f5374fce5edbc8e2a8697c15331677e6ebf0b"
        },
        "post": {
            "ETC_Magneto": [
                {
                    "hash": "2fa5c0ffb4739eaa584a2f09dfcc4af5c487c298681a21210d5bff249a106536",
                    "logs": "1dcc4de8dec75d7aab85b567b6ccd41ad312451b948a7413f0a142fd40d49347",
                    "txbytes": "0xf9013c800a840a7ed73a94095e7baea6a6c7c4c2dfeb977efac326af552d87840f5106aeb8d6447f000000000000000000000000000000000000000000000000000000000000c3507ffffffffffffffffffffffffffffffffffffffffffffffffffffffffffffffffe7f00000000000000000000000100000000000000000000000000000000000000007f000000000000000000000000945304eb96065b2a98b57a48a06ae28d285a71b57f00000000000000000000000000000000000000000000000000000000000000007e7f000000000000000000000000945304eb96065b2a98b57a48a06ae28d285a71b5a132776d398e3b7c14686a07346f1ca034dfc5d8e0d232517fdbc58a3cfa559756789b51b36f4bf972a4eabc0dbc8787a007eb4b90e898936b7080a781acfa43a8a6cbf7c7910b87b02ed4f3f723baad36",
                    "indexes": {
                        "data": 0,
                        "gas": 0,
                        "value": 0
                    }
                }
            ],
            "ETC_Mystique": [
                {
                    "hash": "2fa5c0ffb4739eaa584a2f09dfcc4af5c487c298681a21210d5bff249a106536",
                    "logs": "1dcc4de8dec75d7aab85b567b6ccd41ad312451b948a7413f0a142fd40d49347",
                    "txbytes": "0xf9013c800a840a7ed73a94095e7baea6a6c7c4c2dfeb977efac326af552d87840f5106aeb8d6447f000000000000000000000000000000000000000000000000000000000000c3507ffffffffffffffffffffffffffffffffffffffffffffffffffffffffffffffffe7f00000000000000000000000100000000000000000000000000000000000000007f000000000000000000000000945304eb96065b2a98b57a48a06ae28d285a71b57f00000000000000000000000000000000000000000000000000000000000000007e7f000000000000000000000000945304eb96065b2a98b57a48a06ae28d285a71b5a132776d398e3b7c14686a07346f1ca034dfc5d8e0d232517fdbc58a3cfa559756789b51b36f4bf972a4eabc0dbc8787a007eb4b90e898936b7080a781acfa43a8a6cbf7c7910b87b02ed4f3f723baad36",
                    "indexes": {
                        "data": 0,
                        "gas": 0,
                        "value": 0
                    }
                }
            ],
            "ETC_Phoenix": [
                {
                    "hash": "897cecb1f4532ad6192cf622e363ecdffc8ad2ebae00578a75533a781f7c0acd",
                    "logs": "1dcc4de8dec75d7aab85b567b6ccd41ad312451b948a7413f0a142fd40d49347",
                    "txbytes": "0xf9013c800a840a7ed73a94095e7baea6a6c7c4c2dfeb977efac326af552d87840f5106aeb8d6447f000000000000000000000000000000000000000000000000000000000000c3507ffffffffffffffffffffffffffffffffffffffffffffffffffffffffffffffffe7f00000000000000000000000100000000000000000000000000000000000000007f000000000000000000000000945304eb96065b2a98b57a48a06ae28d285a71b57f00000000000000000000000000000000000000000000000000000000000000007e7f000000000000000000000000945304eb96065b2a98b57a48a06ae28d285a71b5a132776d398e3b7c14686a07346f1ca034dfc5d8e0d232517fdbc58a3cfa559756789b51b36f4bf972a4eabc0dbc8787a007eb4b90e898936b7080a781acfa43a8a6cbf7c7910b87b02ed4f3f723baad36",
                    "indexes": {
                        "data": 0,
                        "gas": 0,
                        "value": 0
                    }
                }
            ]
        }
    }
}