{
    "randomStatetest13": {
        "_info": {
            "comment": "",
            "filling-rpc-server": "evm version 1.10.16-unstable-0f893109-20220105",
            "filling-tool-version": "retesteth-0.2.2-testinfo+commit.01c6aac2.Linux.g++",
            "filledWith": "CoreGeth-1.12.9-unstable-4cf5b2b0837228e7d5eadba6a01ffb80e9288e21",
            "lllcversion": "Version: 0.5.14-develop.2021.11.27+commit.401d5358.Linux.g++",
            "source": "src/GeneralStateTestsFiller/stRandom/randomStatetest13Filler.json",
            "sourceHash": "3aca124ef15ff9a4ede6bc5d098a32443ff9797b613b34520676861c477f50e4"
        },
        "env": {
            "currentCoinbase": "0x945304eb96065b2a98b57a48a06ae28d285a71b5",
            "currentDifficulty": "0x20000",
            "currentGasLimit": "0x7fffffffffffffff",
            "currentNumber": "0x1",
            "currentTimestamp": "0x3e8",
            "previousHash": "0x5e20a0453cecd065ea59c37ac63e079ee08998b6045136a8ce6635c7912ec0b6"
        },
        "pre": {
            "0x095e7baea6a6c7c4c2dfeb977efac326af552d87": {
                "code": "0x7f000000000000000000000000945304eb96065b2a98b57a48a06ae28d285a71b57fffffffffffffffffffffffffffffffffffffffffffffffffffffffffffffffff7f0000000000000000000000000000000000000000000000000000000000000000027ffffffffffffffffffffffffffffffffffffffffffffffffffffffffffffffffe307f00000000000000000000000100000000000000000000000000000000000000007f00000000000000000000000100000000000000000000000000000000000000005255",
                "balance": "0x0",
                "nonce": "0x0"
            },
            "0x945304eb96065b2a98b57a48a06ae28d285a71b5": {
                "code": "0x6000355415600957005b60203560003555",
                "balance": "0x2e",
                "nonce": "0x0"
            },
            "0xa94f5374fce5edbc8e2a8697c15331677e6ebf0b": {
                "code": "0x",
                "balance": "0xde0b6b3a7640000",
                "nonce": "0x0"
            }
        },
        "transaction": {
            "gasPrice": "0xa",
            "nonce": "0x0",
            "to": "0x095e7baea6a6c7c4c2dfeb977efac326af552d87",
            "data": [
                "0x7f000000000000000000000000945304eb96065b2a98b57a48a06ae28d285a71b57fffffffffffffffffffffffffffffffffffffffffffffffffffffffffffffffff7f0000000000000000000000000000000000000000000000000000000000000000027ffffffffffffffffffffffffffffffffffffffffffffffffffffffffffffffffe307f00000000000000000000000100000000000000000000000000000000000000007f000000000000000000000001000000000000000000000000000000000000000052"
            ],
            "gasLimit": [
                "0x524f3ae7"
            ],
            "value": [
                "0x37d68e6c"
            ],
            "secretKey": "0x45a915e4d060149eb4365960e6a7a45f334393093061116b197e3240065ff2d8",
            "sender": "0xa94f5374fce5edbc8e2a8697c15331677e6ebf0b"
        },
        "post": {
            "ETC_Magneto": [
                {
                    "hash": "3230bbd456c99515e42a4aac89ecd5d0db132c4c6dcc687742f3a1026f383506",
                    "logs": "1dcc4de8dec75d7aab85b567b6ccd41ad312451b948a7413f0a142fd40d49347",
                    "txbytes": "0xf9012f800a84524f3ae794095e7baea6a6c7c4c2dfeb977efac326af552d878437d68e6cb8c97f000000000000000000000000945304eb96065b2a98b57a48a06ae28d285a71b57fffffffffffffffffffffffffffffffffffffffffffffffffffffffffffffffff7f0000000000000000000000000000000000000000000000000000000000000000027ffffffffffffffffffffffffffffffffffffffffffffffffffffffffffffffffe307f00000000000000000000000100000000000000000000000000000000000000007f0000000000000000000000010000000000000000000000000000000000000000521ca0b56fefd0fa07ae74cc2920127981ad3731f3f95d845012aafb2dc30e36f3df95a020cbeedcc0fbbac6c1aa7cfb6590d3771f9778e5216ccf97ee050bd3891839ac",
                    "indexes": {
                        "data": 0,
                        "gas": 0,
                        "value": 0
                    }
                }
            ],
            "ETC_Mystique": [
                {
                    "hash": "3230bbd456c99515e42a4aac89ecd5d0db132c4c6dcc687742f3a1026f383506",
                    "logs": "1dcc4de8dec75d7aab85b567b6ccd41ad312451b948a7413f0a142fd40d49347",
                    "txbytes": "0xf9012f800a84524f3ae794095e7baea6a6c7c4c2dfeb977efac326af552d878437d68e6cb8c97f000000000000000000000000945304eb96065b2a98b57a48a06ae28d285a71b57fffffffffffffffffffffffffffffffffffffffffffffffffffffffffffffffff7f0000000000000000000000000000000000000000000000000000000000000000027ffffffffffffffffffffffffffffffffffffffffffffffffffffffffffffffffe307f00000000000000000000000100000000000000000000000000000000000000007f0000000000000000000000010000000000000000000000000000000000000000521ca0b56fefd0fa07ae74cc2920127981ad3731f3f95d845012aafb2dc30e36f3df95a020cbeedcc0fbbac6c1aa7cfb6590d3771f9778e5216ccf97ee050bd3891839ac",
                    "indexes": {
                        "data": 0,
                        "gas": 0,
                        "value": 0
                    }
                }
            ],
            "ETC_Phoenix": [
                {
                    "hash": "3230bbd456c99515e42a4aac89ecd5d0db132c4c6dcc687742f3a1026f383506",
                    "logs": "1dcc4de8dec75d7aab85b567b6ccd41ad312451b948a7413f0a142fd40d49347",
                    "txbytes": "0xf9012f800a84524f3ae794095e7baea6a6c7c4c2dfeb977efac326af552d878437d68e6cb8c97f000000000000000000000000945304eb96065b2a98b57a48a06ae28d285a71b57fffffffffffffffffffffffffffffffffffffffffffffffffffffffffffffffff7f0000000000000000000000000000000000000000000000000000000000000000027ffffffffffffffffffffffffffffffffffffffffffffffffffffffffffffffffe307f00000000000000000000000100000000000000000000000000000000000000007f0000000000000000000000010000000000000000000000000000000000000000521ca0b56fefd0fa07ae74cc2920127981ad3731f3f95d845012aafb2dc30e36f3df95a020cbeedcc0fbbac6c1aa7cfb6590d3771f9778e5216ccf97ee050bd3891839ac",
                    "indexes": {
                        "data": 0,
                        "gas": 0,
                        "value": 0
                    }
                }
            ]
        }
    }
}