{
    "callToNonExistent": {
        "_info": {
            "comment": "https://github.com/ethereum/tests/issues/652",
            "filling-rpc-server": "evm version 1.10.16-unstable-0f893109-20220105",
            "filling-tool-version": "retesteth-0.2.2-testinfo+commit.01c6aac2.Linux.g++",
            "filledWith": "CoreGeth-1.12.9-unstable-d390462df9df233b60b4cd7a37db5b3043832022",
            "lllcversion": "Version: 0.5.14-develop.2021.11.27+commit.401d5358.Linux.g++",
            "source": "src/GeneralStateTestsFiller/stExtCodeHash/callToNonExistentFiller.json",
            "sourceHash": "311269554ec8988061b366cf74d1ff48bb7dcfd2b8bb107a50b00dc49ad219ba"
        },
        "env": {
            "currentCoinbase": "0x2adc25665018aa1fe0e6bc666dac8fc2697ff9ba",
            "currentDifficulty": "0x20000",
            "currentGasLimit": "0xb2d05e00",
            "currentNumber": "0x1",
            "currentTimestamp": "0x3e8",
            "previousHash": "0x5e20a0453cecd065ea59c37ac63e079ee08998b6045136a8ce6635c7912ec0b6"
        },
        "pre": {
            "0x1000000000000000000000000000000000000000": {
                "code": "0x604060006040600060006000355af200",
                "storage": {
                    "0x0000000000000000000000000000000000000000000000000000000000000001": "0x0000000000000000000000000000000000000000000000000000000000001122"
                },
                "balance": "0x0",
                "nonce": "0x0"
            },
            "0x1000000000000000000000000000000000000001": {
                "code": "0x6000600060006000600073dead0000000000000000000000000000000000016161a8f160005573dead0000000000000000000000000000000000013f60015500",
                "balance": "0x0",
                "nonce": "0x0"
            },
            "0x2000000000000000000000000000000000000001": {
                "code": "0x6000600060006000600073dead0000000000000000000000000000000000016161a8f260005573dead0000000000000000000000000000000000013f60015500",
                "balance": "0x0",
                "nonce": "0x0"
            },
            "0x3000000000000000000000000000000000000001": {
                "code": "0x600060006000600073dead0000000000000000000000000000000000016161a8f460005573dead0000000000000000000000000000000000013f60015500",
                "balance": "0x0",
                "nonce": "0x0"
            },
            "0x4000000000000000000000000000000000000001": {
                "code": "0x600060006000600073dead0000000000000000000000000000000000016161a8fa60005573dead0000000000000000000000000000000000013f60015500",
                "balance": "0x0",
                "nonce": "0x0"
            },
            "0xa94f5374fce5edbc8e2a8697c15331677e6ebf0b": {
                "code": "0x",
                "balance": "0xde0b6b3a7640000",
                "nonce": "0x0"
            }
        },
        "transaction": {
            "gasPrice": "0xa",
            "nonce": "0x0",
            "to": "0x1000000000000000000000000000000000000000",
            "data": [
                "0x0000000000000000000000001000000000000000000000000000000000000001",
                "0x0000000000000000000000002000000000000000000000000000000000000001",
                "0x0000000000000000000000003000000000000000000000000000000000000001",
                "0x0000000000000000000000004000000000000000000000000000000000000001"
            ],
            "gasLimit": [
                "0x186a0"
            ],
            "value": [
                "0x01"
            ],
            "secretKey": "0x45a915e4d060149eb4365960e6a7a45f334393093061116b197e3240065ff2d8",
            "sender": "0xa94f5374fce5edbc8e2a8697c15331677e6ebf0b"
        },
        "post": {
            "ETC_Magneto": [
                {
                    "hash": "f85e1480bf5cd652c37b2c967be18f48d77865b088fbd41eee4c23663a19bda5",
                    "logs": "1dcc4de8dec75d7aab85b567b6ccd41ad312451b948a7413f0a142fd40d49347",
                    "txbytes": "0xf880800a830186a094100000000000000000000000000000000000000001a000000000000000000000000010000000000000000000000000000000000000011ca07c083b036be3a2e160151e89a1c9253049fe80fb916fb44f1ed5dd2c27f8e63da04a1e1e46aa1f22836f2223ba6d6380f918b6e71620dc77caddd45bbffb526b4e",
                    "indexes": {
                        "data": 0,
                        "gas": 0,
                        "value": 0
                    }
                },
                {
                    "hash": "f85e1480bf5cd652c37b2c967be18f48d77865b088fbd41eee4c23663a19bda5",
                    "logs": "1dcc4de8dec75d7aab85b567b6ccd41ad312451b948a7413f0a142fd40d49347",
                    "txbytes": "0xf880800a830186a094100000000000000000000000000000000000000001a000000000000000000000000020000000000000000000000000000000000000011ba007880ac8844b66fc4a9c7599d8fafdfd42bcfb098665e854b1f355bb3bb59795a003fcdf76e6661ed9b8da69fb8d203672a120f4c5e54d1836c2818f7225922cf1",
                    "indexes": {
                        "data": 1,
                        "gas": 0,
                        "value": 0
                    }
                },
                {
                    "hash": "6fceaeeb78773c4f2ca691edd1d522a8b838b39a0505b27c4b2d573fa220ed17",
                    "logs": "1dcc4de8dec75d7aab85b567b6ccd41ad312451b948a7413f0a142fd40d49347",
                    "txbytes": "0xf880800a830186a094100000000000000000000000000000000000000001a000000000000000000000000030000000000000000000000000000000000000011ca0ee5a124738fe45bfe6f7033bc18a47894d051562826706ef514be677ab76026ca05a37a5aaa2a104cb2d19e45530b98076375d9f61e1a6b21e8e6f3922c02bbc2f",
                    "indexes": {
                        "data": 2,
                        "gas": 0,
                        "value": 0
                    }
                },
                {
                    "hash": "6fceaeeb78773c4f2ca691edd1d522a8b838b39a0505b27c4b2d573fa220ed17",
                    "logs": "1dcc4de8dec75d7aab85b567b6ccd41ad312451b948a7413f0a142fd40d49347",
                    "txbytes": "0xf880800a830186a094100000000000000000000000000000000000000001a000000000000000000000000040000000000000000000000000000000000000011ba0a48163c9728cdb95c26a49faafe02e2ca5c9ff4e44470fe3498544a412d02fd0a012a2ed928c2f0a08ff3a57eea09d87b797fe56d678aa2bd732238395d5cf56a5",
                    "indexes": {
                        "data": 3,
                        "gas": 0,
                        "value": 0
                    }
                }
            ],
            "ETC_Mystique": [
                {
                    "hash": "27da0db493b793c4c8140c9f992630b48d9dfe6b9618d532d9995f6dc7975632",
                    "logs": "1dcc4de8dec75d7aab85b567b6ccd41ad312451b948a7413f0a142fd40d49347",
                    "txbytes": "0xf880800a830186a094100000000000000000000000000000000000000001a000000000000000000000000010000000000000000000000000000000000000011ca07c083b036be3a2e160151e89a1c9253049fe80fb916fb44f1ed5dd2c27f8e63da04a1e1e46aa1f22836f2223ba6d6380f918b6e71620dc77caddd45bbffb526b4e",
                    "indexes": {
                        "data": 0,
                        "gas": 0,
                        "value": 0
                    }
                },
                {
                    "hash": "27da0db493b793c4c8140c9f992630b48d9dfe6b9618d532d9995f6dc7975632",
                    "logs": "1dcc4de8dec75d7aab85b567b6ccd41ad312451b948a7413f0a142fd40d49347",
                    "txbytes": "0xf880800a830186a094100000000000000000000000000000000000000001a000000000000000000000000020000000000000000000000000000000000000011ba007880ac8844b66fc4a9c7599d8fafdfd42bcfb098665e854b1f355bb3bb59795a003fcdf76e6661ed9b8da69fb8d203672a120f4c5e54d1836c2818f7225922cf1",
                    "indexes": {
                        "data": 1,
                        "gas": 0,
                        "value": 0
                    }
                },
                {
                    "hash": "e6ba0a6a1823c5ea816cc74e318e7fece3b021e35bc87c159a5e77e7d8340d09",
                    "logs": "1dcc4de8dec75d7aab85b567b6ccd41ad312451b948a7413f0a142fd40d49347",
                    "txbytes": "0xf880800a830186a094100000000000000000000000000000000000000001a000000000000000000000000030000000000000000000000000000000000000011ca0ee5a124738fe45bfe6f7033bc18a47894d051562826706ef514be677ab76026ca05a37a5aaa2a104cb2d19e45530b98076375d9f61e1a6b21e8e6f3922c02bbc2f",
                    "indexes": {
                        "data": 2,
                        "gas": 0,
                        "value": 0
                    }
                },
                {
                    "hash": "e6ba0a6a1823c5ea816cc74e318e7fece3b021e35bc87c159a5e77e7d8340d09",
                    "logs": "1dcc4de8dec75d7aab85b567b6ccd41ad312451b948a7413f0a142fd40d49347",
                    "txbytes": "0xf880800a830186a094100000000000000000000000000000000000000001a000000000000000000000000040000000000000000000000000000000000000011ba0a48163c9728cdb95c26a49faafe02e2ca5c9ff4e44470fe3498544a412d02fd0a012a2ed928c2f0a08ff3a57eea09d87b797fe56d678aa2bd732238395d5cf56a5",
                    "indexes": {
                        "data": 3,
                        "gas": 0,
                        "value": 0
                    }
                }
            ],
            "ETC_Phoenix": [
                {
                    "hash": "a47618d87ab96bda2817cb22f8d67b59bdcc63223bd3f287df2f7cd5f5d8de6f",
                    "logs": "1dcc4de8dec75d7aab85b567b6ccd41ad312451b948a7413f0a142fd40d49347",
                    "txbytes": "0xf880800a830186a094100000000000000000000000000000000000000001a000000000000000000000000010000000000000000000000000000000000000011ca07c083b036be3a2e160151e89a1c9253049fe80fb916fb44f1ed5dd2c27f8e63da04a1e1e46aa1f22836f2223ba6d6380f918b6e71620dc77caddd45bbffb526b4e",
                    "indexes": {
                        "data": 0,
                        "gas": 0,
                        "value": 0
                    }
                },
                {
                    "hash": "a47618d87ab96bda2817cb22f8d67b59bdcc63223bd3f287df2f7cd5f5d8de6f",
                    "logs": "1dcc4de8dec75d7aab85b567b6ccd41ad312451b948a7413f0a142fd40d49347",
                    "txbytes": "0xf880800a830186a094100000000000000000000000000000000000000001a000000000000000000000000020000000000000000000000000000000000000011ba007880ac8844b66fc4a9c7599d8fafdfd42bcfb098665e854b1f355bb3bb59795a003fcdf76e6661ed9b8da69fb8d203672a120f4c5e54d1836c2818f7225922cf1",
                    "indexes": {
                        "data": 1,
                        "gas": 0,
                        "value": 0
                    }
                },
                {
                    "hash": "f57d73521906aeac5898f3a9945877219d4bb00726c81c1f9084334bb7699723",
                    "logs": "1dcc4de8dec75d7aab85b567b6ccd41ad312451b948a7413f0a142fd40d49347",
                    "txbytes": "0xf880800a830186a094100000000000000000000000000000000000000001a000000000000000000000000030000000000000000000000000000000000000011ca0ee5a124738fe45bfe6f7033bc18a47894d051562826706ef514be677ab76026ca05a37a5aaa2a104cb2d19e45530b98076375d9f61e1a6b21e8e6f3922c02bbc2f",
                    "indexes": {
                        "data": 2,
                        "gas": 0,
                        "value": 0
                    }
                },
                {
                    "hash": "f57d73521906aeac5898f3a9945877219d4bb00726c81c1f9084334bb7699723",
                    "logs": "1dcc4de8dec75d7aab85b567b6ccd41ad312451b948a7413f0a142fd40d49347",
                    "txbytes": "0xf880800a830186a094100000000000000000000000000000000000000001a000000000000000000000000040000000000000000000000000000000000000011ba0a48163c9728cdb95c26a49faafe02e2ca5c9ff4e44470fe3498544a412d02fd0a012a2ed928c2f0a08ff3a57eea09d87b797fe56d678aa2bd732238395d5cf56a5",
                    "indexes": {
                        "data": 3,
                        "gas": 0,
                        "value": 0
                    }
                }
            ]
        }
    }
}