{
    "callToSuicideThenExtcodehash": {
        "_info": {
            "comment": "https://github.com/ethereum/tests/issues/652",
            "filling-rpc-server": "evm version 1.10.16-unstable-0f893109-20220105",
            "filling-tool-version": "retesteth-0.2.2-testinfo+commit.01c6aac2.Linux.g++",
            "filledWith": "CoreGeth-1.12.9-unstable-f4059ddd82d975bdc54fa648e5422a80172161cb",
            "lllcversion": "Version: 0.5.14-develop.2021.11.27+commit.401d5358.Linux.g++",
            "source": "src/GeneralStateTestsFiller/stExtCodeHash/callToSuicideThenExtcodehashFiller.json",
            "sourceHash": "d6ed26284b9823fa9de32e779364c901d9a6f6de1b0023ae1eb1b4c0ff5510e1"
        },
        "env": {
            "currentCoinbase": "2adc25665018aa1fe0e6bc666dac8fc2697ff9ba",
            "currentDifficulty": "0x20000",
            "currentRandom": null,
            "currentGasLimit": "0xb2d05e00",
            "currentNumber": "0x1",
            "currentTimestamp": "0x3e8",
            "currentBaseFee": "0xa"
        },
        "pre": {
            "0x1000000000000000000000000000000000000000": {
                "code": "0x604060006040600060006000355af200",
                "storage": {
                    "0x0000000000000000000000000000000000000000000000000000000000000001": "0x0000000000000000000000000000000000000000000000000000000000001122"
                },
                "balance": "0x0"
            },
            "0x1000000000000000000000000000000000000001": {
                "code": "0x6000600060006000600073dead00000000000000000000000000000000000162028488f160005573dead0000000000000000000000000000000000013f60015500",
                "balance": "0x0"
            },
            "0x2000000000000000000000000000000000000001": {
                "code": "0x6000600060006000600073dead00000000000000000000000000000000000162028488f260005573dead0000000000000000000000000000000000013f60015500",
                "balance": "0x0"
            },
            "0x3000000000000000000000000000000000000001": {
                "code": "0x600060006000600073dead00000000000000000000000000000000000162028488f460005573dead0000000000000000000000000000000000013f60015500",
                "balance": "0x0"
            },
            "0x4000000000000000000000000000000000000001": {
                "code": "0x600060006000600073dead00000000000000000000000000000000000162028488fa60005573dead0000000000000000000000000000000000013f60015500",
                "balance": "0x0"
            },
            "0xa94f5374fce5edbc8e2a8697c15331677e6ebf0b": {
                "balance": "0xde0b6b3a7640000"
            },
            "0xdead000000000000000000000000000000000001": {
                "code": "0x6025ff00",
                "balance": "0x14b230ce3"
            }
        },
        "transaction": {
            "gasPrice": "0xa",
            "maxFeePerGas": null,
            "maxPriorityFeePerGas": null,
            "nonce": "0x0",
            "to": "0x1000000000000000000000000000000000000000",
            "data": [
                "0x0000000000000000000000001000000000000000000000000000000000000001",
                "0x0000000000000000000000002000000000000000000000000000000000000001",
                "0x0000000000000000000000003000000000000000000000000000000000000001",
                "0x0000000000000000000000004000000000000000000000000000000000000001"
            ],
            "gasLimit": [
                "0x493e0"
            ],
            "value": [
                "0x01"
            ],
            "secretKey": "0x45a915e4d060149eb4365960e6a7a45f334393093061116b197e3240065ff2d8"
        },
        "out": "0x",
        "post": {
            "ETC_Magneto": [
                {
                    "hash": "3eab1b57523e1905c685a73c6a901dbca4cab42819eb08adef05e03161f2c2dc",
                    "logs": "1dcc4de8dec75d7aab85b567b6ccd41ad312451b948a7413f0a142fd40d49347",
                    "txbytes": "0xf880800a830493e094100000000000000000000000000000000000000001a000000000000000000000000010000000000000000000000000000000000000011ba0f4d5efd24030cbcf0b4aa00d9c2dc996e61673cfb06aaed08dbe365a75442b76a045180e0ae71e4da71c244b69f3c8f05d2b5f3d7d1f3615c1768c7b9c56259606",
                    "indexes": {
                        "data": 0,
                        "gas": 0,
                        "value": 0
                    }
                },
                {
                    "hash": "2047717cdb51a0ed014b06849bf738701ca32be62a792197d807f6d26b145cbf",
                    "logs": "1dcc4de8dec75d7aab85b567b6ccd41ad312451b948a7413f0a142fd40d49347",
                    "txbytes": "0xf880800a830493e094100000000000000000000000000000000000000001a000000000000000000000000020000000000000000000000000000000000000011ca033fda59854883aab2661fc46fe0058a4166592edd0a5ecfa450b112d7b96c277a041db7047e883e638ede7fcfe1850b20de05532e061899f2120ffcb5396dd4dd0",
                    "indexes": {
                        "data": 1,
                        "gas": 0,
                        "value": 0
                    }
                },
                {
                    "hash": "00d89c0b8597facee510864029cd1131adcb2ce32b703fcc0662e94232e9cc6e",
                    "logs": "1dcc4de8dec75d7aab85b567b6ccd41ad312451b948a7413f0a142fd40d49347",
                    "txbytes": "0xf880800a830493e094100000000000000000000000000000000000000001a000000000000000000000000030000000000000000000000000000000000000011ba00f8668f41e8b1eae9531db8d2f7fe45aa03ebe74efdbd9eb8047ffc78c76b3f7a0367be67dbfe4fd97b2a1cd16697e468eddf9661937dbdb523871d94d9b92779a",
                    "indexes": {
                        "data": 2,
                        "gas": 0,
                        "value": 0
                    }
                },
                {
                    "hash": "82988ac54f566090360c67d7313c2e88fb2694bba68e99d34668eac504af8606",
                    "logs": "1dcc4de8dec75d7aab85b567b6ccd41ad312451b948a7413f0a142fd40d49347",
                    "txbytes": "0xf880800a830493e094100000000000000000000000000000000000000001a000000000000000000000000040000000000000000000000000000000000000011ca022e6116a6c39963715aa0e3f13bda810b72e02fc53e84fbd743b7112093fefdda073e63d65e34e3e608d9985088b6e95beff848676ea85c632d6652a6a2161266a",
                    "indexes": {
                        "data": 3,
                        "gas": 0,
                        "value": 0
                    }
                }
            ],
            "ETC_Mystique": [
                {
                    "hash": "55140454571e3fc4c2a2c91f54c3856009bebdabc6964fdeb9b4700093a8547b",
                    "logs": "1dcc4de8dec75d7aab85b567b6ccd41ad312451b948a7413f0a142fd40d49347",
                    "txbytes": "0xf880800a830493e094100000000000000000000000000000000000000001a000000000000000000000000010000000000000000000000000000000000000011ba0f4d5efd24030cbcf0b4aa00d9c2dc996e61673cfb06aaed08dbe365a75442b76a045180e0ae71e4da71c244b69f3c8f05d2b5f3d7d1f3615c1768c7b9c56259606",
                    "indexes": {
                        "data": 0,
                        "gas": 0,
                        "value": 0
                    }
                },
                {
                    "hash": "aada092c81cb3a39b541fab387efb08469bd4ef9ff7766e629dc82f04dd31b18",
                    "logs": "1dcc4de8dec75d7aab85b567b6ccd41ad312451b948a7413f0a142fd40d49347",
                    "txbytes": "0xf880800a830493e094100000000000000000000000000000000000000001a000000000000000000000000020000000000000000000000000000000000000011ca033fda59854883aab2661fc46fe0058a4166592edd0a5ecfa450b112d7b96c277a041db7047e883e638ede7fcfe1850b20de05532e061899f2120ffcb5396dd4dd0",
                    "indexes": {
                        "data": 1,
                        "gas": 0,
                        "value": 0
                    }
                },
                {
                    "hash": "9d53c3552ab3ef2de83a59c520717609e2fb8c605ed86000a224e0eb025b9c95",
                    "logs": "1dcc4de8dec75d7aab85b567b6ccd41ad312451b948a7413f0a142fd40d49347",
                    "txbytes": "0xf880800a830493e094100000000000000000000000000000000000000001a000000000000000000000000030000000000000000000000000000000000000011ba00f8668f41e8b1eae9531db8d2f7fe45aa03ebe74efdbd9eb8047ffc78c76b3f7a0367be67dbfe4fd97b2a1cd16697e468eddf9661937dbdb523871d94d9b92779a",
                    "indexes": {
                        "data": 2,
                        "gas": 0,
                        "value": 0
                    }
                },
                {
                    "hash": "82988ac54f566090360c67d7313c2e88fb2694bba68e99d34668eac504af8606",
                    "logs": "1dcc4de8dec75d7aab85b567b6ccd41ad312451b948a7413f0a142fd40d49347",
                    "txbytes": "0xf880800a830493e094100000000000000000000000000000000000000001a000000000000000000000000040000000000000000000000000000000000000011ca022e6116a6c39963715aa0e3f13bda810b72e02fc53e84fbd743b7112093fefdda073e63d65e34e3e608d9985088b6e95beff848676ea85c632d6652a6a2161266a",
                    "indexes": {
                        "data": 3,
                        "gas": 0,
                        "value": 0
                    }
                }
            ],
            "ETC_Phoenix": [
                {
                    "hash": "477226719dedc0741495bd91c91633c1c1dfdaac8575c7c960123479f2c4b42f",
                    "logs": "1dcc4de8dec75d7aab85b567b6ccd41ad312451b948a7413f0a142fd40d49347",
                    "txbytes": "0xf880800a830493e094100000000000000000000000000000000000000001a000000000000000000000000010000000000000000000000000000000000000011ba0f4d5efd24030cbcf0b4aa00d9c2dc996e61673cfb06aaed08dbe365a75442b76a045180e0ae71e4da71c244b69f3c8f05d2b5f3d7d1f3615c1768c7b9c56259606",
                    "indexes": {
                        "data": 0,
                        "gas": 0,
                        "value": 0
                    }
                },
                {
                    "hash": "5a0f09a45415e30203aae66537b6526f2e00a01c5b32636c0cad85e448715c76",
                    "logs": "1dcc4de8dec75d7aab85b567b6ccd41ad312451b948a7413f0a142fd40d49347",
                    "txbytes": "0xf880800a830493e094100000000000000000000000000000000000000001a000000000000000000000000020000000000000000000000000000000000000011ca033fda59854883aab2661fc46fe0058a4166592edd0a5ecfa450b112d7b96c277a041db7047e883e638ede7fcfe1850b20de05532e061899f2120ffcb5396dd4dd0",
                    "indexes": {
                        "data": 1,
                        "gas": 0,
                        "value": 0
                    }
                },
                {
                    "hash": "759935aef9a675e8c2554d1e312efa9c9ca541a7b54c33ab8e1b53326659543c",
                    "logs": "1dcc4de8dec75d7aab85b567b6ccd41ad312451b948a7413f0a142fd40d49347",
                    "txbytes": "0xf880800a830493e094100000000000000000000000000000000000000001a000000000000000000000000030000000000000000000000000000000000000011ba00f8668f41e8b1eae9531db8d2f7fe45aa03ebe74efdbd9eb8047ffc78c76b3f7a0367be67dbfe4fd97b2a1cd16697e468eddf9661937dbdb523871d94d9b92779a",
                    "indexes": {
                        "data": 2,
                        "gas": 0,
                        "value": 0
                    }
                },
                {
                    "hash": "8caf8e283edc4a963142b40485dad9352ae13ce1aade0aec7f870ed4afb25c24",
                    "logs": "1dcc4de8dec75d7aab85b567b6ccd41ad312451b948a7413f0a142fd40d49347",
                    "txbytes": "0xf880800a830493e094100000000000000000000000000000000000000001a000000000000000000000000040000000000000000000000000000000000000011ca022e6116a6c39963715aa0e3f13bda810b72e02fc53e84fbd743b7112093fefdda073e63d65e34e3e608d9985088b6e95beff848676ea85c632d6652a6a2161266a",
                    "indexes": {
                        "data": 3,
                        "gas": 0,
                        "value": 0
                    }
                }
            ]
        }
    }
}