{
    "codeCopyZero": {
        "_info": {
            "comment": "https://github.com/ethereum/tests/issues/493,  CODECOPY and EXTCODECOPY where codesize = 0",
            "filling-rpc-server": "evm version 1.10.16-unstable-0f893109-20220105",
            "filling-tool-version": "retesteth-0.2.2-testinfo+commit.01c6aac2.Linux.g++",
            "filledWith": "CoreGeth-1.12.9-unstable-d64998ce9b05f4f41b35740c69c4b402e41a3105",
            "lllcversion": "Version: 0.5.14-develop.2021.11.27+commit.401d5358.Linux.g++",
            "source": "src/GeneralStateTestsFiller/stExtCodeHash/codeCopyZeroFiller.yml",
            "sourceHash": "cb9bdfe28ca4954159734a2b5658cdedad3492d96f1f74f52610dfe040c6c071"
        },
        "env": {
            "currentCoinbase": "0x2adc25665018aa1fe0e6bc666dac8fc2697ff9ba",
            "currentDifficulty": "0x20000",
            "currentGasLimit": "0x989680",
            "currentNumber": "0x1",
            "currentTimestamp": "0x3e8",
            "previousHash": "0x5e20a0453cecd065ea59c37ac63e079ee08998b6045136a8ce6635c7912ec0b6"
        },
        "pre": {
            "0xa000000000000000000000000000000000000000": {
                "code": "0x60206000600073a2220000000000000000000000000000000000003c60005160105573a2220000000000000000000000000000000000003b60115573a2220000000000000000000000000000000000003f6012556000600060006000600073a22200000000000000000000000000000000000061c350f260135560206000600073a2000000000000000000000000000000000000003c60005160205573a2000000000000000000000000000000000000003b60215573a2000000000000000000000000000000000000003f6022556000600060006000600073a20000000000000000000000000000000000000061c350f260235560206000600073a3000000000000000000000000000000000000003c60005160305573a3000000000000000000000000000000000000003b60315573a3000000000000000000000000000000000000003f6032556000600060006000600073a30000000000000000000000000000000000000061c350f26033556020600060006000600073a10000000000000000000000000000000000000062086470f15060005160405500",
                "balance": "0xde0b6b3a7640000"
            },
            "0xa100000000000000000000000000000000000000": {
                "code": "0x6000603980601a60003960006000f560005260206000f30000fe60206000600039600051605055303b605155303f605255600060006000600060003061c350f23b605355602060006000303c60005160545500",
                "balance": "0xde0b6b3a7640000"
            },
            "0xa200000000000000000000000000000000000000": {
                "balance": "0xde0b6b3a7640000"
            },
            "0xa300000000000000000000000000000000000000": {
                "balance": "0x0"
            },
            "0xa94f5374fce5edbc8e2a8697c15331677e6ebf0b": {
                "balance": "0xde0b6b3a7640000"
            }
        },
        "transaction": {
            "gasPrice": "0xa",
            "nonce": "0x0",
            "to": "0xa000000000000000000000000000000000000000",
            "data": [
                "0x"
            ],
            "gasLimit": [
                "0x155cc0"
            ],
            "value": [
                "0x01"
            ],
            "secretKey": "0x45a915e4d060149eb4365960e6a7a45f334393093061116b197e3240065ff2d8",
            "sender": "0xa94f5374fce5edbc8e2a8697c15331677e6ebf0b"
        },
        "post": {
            "ETC_Magneto": [
                {
                    "hash": "478dd8ab28a484a82748ec5cf9633ece45bea9a167db1f739ddab82410795116",
                    "logs": "1dcc4de8dec75d7aab85b567b6ccd41ad312451b948a7413f0a142fd40d49347",
                    "txbytes": "0xf860800a83155cc094a00000000000000000000000000000000000000001801ca0c4779e01b0c76f529fb497f3b6e15762f89ddb906091a91fe9f6b005e205ee17a0736cfe95bf57a25f44159f28fd34a058669e42f293161491cde3a49d501da93c",
                    "indexes": {
                        "data": 0,
                        "gas": 0,
                        "value": 0
                    }
                }
            ],
            "ETC_Mystique": [
                {
                    "hash": "478dd8ab28a484a82748ec5cf9633ece45bea9a167db1f739ddab82410795116",
                    "logs": "1dcc4de8dec75d7aab85b567b6ccd41ad312451b948a7413f0a142fd40d49347",
                    "txbytes": "0xf860800a83155cc094a00000000000000000000000000000000000000001801ca0c4779e01b0c76f529fb497f3b6e15762f89ddb906091a91fe9f6b005e205ee17a0736cfe95bf57a25f44159f28fd34a058669e42f293161491cde3a49d501da93c",
                    "indexes": {
                        "data": 0,
                        "gas": 0,
                        "value": 0
                    }
                }
            ],
            "ETC_Phoenix": [
                {
                    "hash": "3fa364b17cb44de936bea07971db118d3129d94d40d969ef6c4b0eb9edbd37fa",
                    "logs": "1dcc4de8dec75d7aab85b567b6ccd41ad312451b948a7413f0a142fd40d49347",
                    "txbytes": "0xf860800a83155cc094a00000000000000000000000000000000000000001801ca0c4779e01b0c76f529fb497f3b6e15762f89ddb906091a91fe9f6b005e205ee17a0736cfe95bf57a25f44159f28fd34a058669e42f293161491cde3a49d501da93c",
                    "indexes": {
                        "data": 0,
                        "gas": 0,
                        "value": 0
                    }
                }
            ]
        }
    }
}