{
    "extcodehashEmpty": {
        "_info": {
            "comment": "Ori Pomerantz  qbzzt1@gmail.com",
            "filling-rpc-server": "evm version 1.10.16-unstable-0f893109-20220105",
            "filling-tool-version": "retesteth-0.2.2-testinfo+commit.01c6aac2.Linux.g++",
            "filledWith": "CoreGeth-1.12.9-unstable-ab16c56768f0284ab56a30aac9550d3ebdc45901",
            "lllcversion": "Version: 0.5.14-develop.2021.11.27+commit.401d5358.Linux.g++",
            "source": "src/GeneralStateTestsFiller/stExtCodeHash/extcodehashEmptyFiller.yml",
            "sourceHash": "06a24579035b4ae5818390bea82cf6ada8f65177c44fa3c092d87b198c3128ac",
            "labels": {
                "0": "empty",
                "1": "storage",
                "2": "balance",
                "3": "balance",
                "4": "nonce",
                "5": "nonce",
                "6": "hasCode",
                "7": "dead",
                "8": "born",
                "9": "born2"
            }
        },
        "env": {
            "currentCoinbase": "0x2adc25665018aa1fe0e6bc666dac8fc2697ff9ba",
            "currentDifficulty": "0x20000",
            "currentGasLimit": "0x5f5e100",
            "currentNumber": "0x1",
            "currentTimestamp": "0x3e8",
            "currentBaseFee": "0xa",
            "previousHash": "0x5e20a0453cecd065ea59c37ac63e079ee08998b6045136a8ce6635c7912ec0b6"
        },
        "pre": {
            "0x0000000000000000000000000000000000000100": {
                "balance": "0x0"
            },
            "0x0000000000000000000000000000000000000101": {
                "balance": "0x1"
            },
            "0x0000000000000000000000000000000000000102": {
                "balance": "0x0",
                "nonce": "0x1"
            },
            "0x0000000000000000000000000000000000000103": {
                "storage": {
                    "0x0000000000000000000000000000000000000000000000000000000000000000": "0x0000000000000000000000000000000000000000000000000000000001000000",
                    "0x000000000000000000000000000000000000000000000000000000000fffffff": "0x00000000000000000000000000000000000000000000000000000000ffffffff"
                },
                "balance": "0x0"
            },
            "0x0000000000000000000000000000000000000104": {
                "code": "0x00",
                "balance": "0x0"
            },
            "0x0000000000000000000000000000000000001101": {
                "balance": "0x100000000000000"
            },
            "0x0000000000000000000000000000000000001102": {
                "balance": "0x0",
                "nonce": "0xe8d4a51000"
            },
            "0x000000000000000000000000000000000000dead": {
                "code": "0x6160a7ff",
                "balance": "0x64"
            },
            "0x0000000000000000000000000000000000c0ea7e": {
                "code": "0x6006806021610100396020526020516101006000f06040526040513f60005500fe60006000f300",
                "balance": "0x64"
            },
            "0x000000000000000000000000000000000c0ea7e2": {
                "code": "0x600680602a610100396020526160a76020516101006000f56040526040513f60005560405160015500fe60006000f300",
                "balance": "0x64"
            },
            "0xa94f5374fce5edbc8e2a8697c15331677e6ebf0b": {
                "balance": "0xba1a9ce0ba1a9ce"
            },
            "0xcccccccccccccccccccccccccccccccccccccccc": {
                "code": "0x61200060043511600f576000601f565b600060006000600060006004355af15b506004353b6000556004353f600155600054600060006004353c60005160025561200060043510604f576000605f565b600060006000600060016004355af15b506004353f6003555a6020526004353f505a6040526013604051602051030360045500",
                "balance": "0xba1a9ce0ba1a9ce"
            }
        },
        "transaction": {
            "gasPrice": "0xa",
            "nonce": "0x0",
            "to": "0xcccccccccccccccccccccccccccccccccccccccc",
            "data": [
                "0x693c61390000000000000000000000000000000000000000000000000000000000000100",
                "0x693c61390000000000000000000000000000000000000000000000000000000000000103",
                "0x693c61390000000000000000000000000000000000000000000000000000000000000101",
                "0x693c61390000000000000000000000000000000000000000000000000000000000001101",
                "0x693c61390000000000000000000000000000000000000000000000000000000000000102",
                "0x693c61390000000000000000000000000000000000000000000000000000000000001102",
                "0x693c61390000000000000000000000000000000000000000000000000000000000000104",
                "0x693c6139000000000000000000000000000000000000000000000000000000000000dead",
                "0x693c61390000000000000000000000000000000000000000000000000000000000c0ea7e",
                "0x693c6139000000000000000000000000000000000000000000000000000000000c0ea7e2"
            ],
            "gasLimit": [
                "0x4c4b400"
            ],
            "value": [
                "0x01"
            ],
            "secretKey": "0x45a915e4d060149eb4365960e6a7a45f334393093061116b197e3240065ff2d8",
            "sender": "0xa94f5374fce5edbc8e2a8697c15331677e6ebf0b"
        },
        "post": {
            "ETC_Magneto": [
                {
                    "hash": "5d61febe700e66080d83f8df2687bf52fc557084ecb7e1df88f01cd49130a066",
                    "logs": "1dcc4de8dec75d7aab85b567b6ccd41ad312451b948a7413f0a142fd40d49347",
                    "txbytes": "0xf885800a8404c4b40094cccccccccccccccccccccccccccccccccccccccc01a4693c613900000000000000000000000000000000000000000000000000000000000001001ca0ebc6a836413596ba1ac62a71555ade81e42d09eab71d5de0e5775641519ffd6aa07f41824f46f475c442d28620f914388cf7a1f6e98ecfe8ae4656976facb09ef2",
                    "indexes": {
                        "data": 0,
                        "gas": 0,
                        "value": 0
                    }
                },
                {
                    "hash": "9260b67fb3966be94ac475b5775f01869b53f4cf84719180112069f402987a68",
                    "logs": "1dcc4de8dec75d7aab85b567b6ccd41ad312451b948a7413f0a142fd40d49347",
                    "txbytes": "0xf885800a8404c4b40094cccccccccccccccccccccccccccccccccccccccc01a4693c613900000000000000000000000000000000000000000000000000000000000001031ba0880ce7b3bd0a3dfd9937b2490f8c4f7c2033714b54c6a83140b7d4cf12c34c34a01afb8e4533a87ab82bf53e46ac078d1ac9cb6f383db3c3f84e974e5ba1353462",
                    "indexes": {
                        "data": 1,
                        "gas": 0,
                        "value": 0
                    }
                },
                {
                    "hash": "4212473038b45ebadd1b45bd201aac8f3ec68b02b0d67ddccfd799e4f75650dd",
                    "logs": "1dcc4de8dec75d7aab85b567b6ccd41ad312451b948a7413f0a142fd40d49347",
                    "txbytes": "0xf885800a8404c4b40094cccccccccccccccccccccccccccccccccccccccc01a4693c613900000000000000000000000000000000000000000000000000000000000001011ca0ffd26504ab209214bb2e8624e3af346ab8f5a5426dee4ad391f4b14f8dcde5b5a002da13cf479f1c68710ed3fb235b46721807840beacdf41d96440019b5dd859b",
                    "indexes": {
                        "data": 2,
                        "gas": 0,
                        "value": 0
                    }
                },
                {
                    "hash": "9c3b7aafdac0c1a75e3ae4c01990a5ccdb05a6eb0f7409da9ed3a7a4fd29ce6d",
                    "logs": "1dcc4de8dec75d7aab85b567b6ccd41ad312451b948a7413f0a142fd40d49347",
                    "txbytes": "0xf885800a8404c4b40094cccccccccccccccccccccccccccccccccccccccc01a4693c613900000000000000000000000000000000000000000000000000000000000011011ba0954c075c882fedd49eea58b1bb10e2dda0ffdec0ba391a8e945efa811b64932ca040f9eecc73b92bcafcab717da27dcca528d737ec0c6803cb84ac3438488822e4",
                    "indexes": {
                        "data": 3,
                        "gas": 0,
                        "value": 0
                    }
                },
                {
                    "hash": "60f2275672c787e57895dfacd6b0e7cf04e46f51a0a5a9160ba090986aca945a",
                    "logs": "1dcc4de8dec75d7aab85b567b6ccd41ad312451b948a7413f0a142fd40d49347",
                    "txbytes": "0xf885800a8404c4b40094cccccccccccccccccccccccccccccccccccccccc01a4693c613900000000000000000000000000000000000000000000000000000000000001021ca06e247bdafd46e5cae6e41f499c66c65dc939069ffe1d9f9cfb5de833b2bcce52a0056913356be95ab78d8c9029599be68fb1959d4088b8eb807f0987bbb5a2fe89",
                    "indexes": {
                        "data": 4,
                        "gas": 0,
                        "value": 0
                    }
                },
                {
                    "hash": "cd72b44ac81e7018a132e343fdbd84fd574913d5a4cf0a97676d513923bfe6bb",
                    "logs": "1dcc4de8dec75d7aab85b567b6ccd41ad312451b948a7413f0a142fd40d49347",
                    "txbytes": "0xf885800a8404c4b40094cccccccccccccccccccccccccccccccccccccccc01a4693c613900000000000000000000000000000000000000000000000000000000000011021ca06dc574ed80fbd9795c6bff2ea6d372cfabe479b289bcd2f1b6ac27cf1c1ae2aca038f3aedb9960bd7a3f667c3cd62c199a589f8ee5c69eb776c811467dbbe4724f",
                    "indexes": {
                        "data": 5,
                        "gas": 0,
                        "value": 0
                    }
                },
                {
                    "hash": "340c60a218dc2c86500bf97360a41f55674cfc63b57d7fead1e923f392f05cce",
                    "logs": "1dcc4de8dec75d7aab85b567b6ccd41ad312451b948a7413f0a142fd40d49347",
                    "txbytes": "0xf885800a8404c4b40094cccccccccccccccccccccccccccccccccccccccc01a4693c613900000000000000000000000000000000000000000000000000000000000001041ca065e228d51a1e60e5b70b74274c5f7f493035cb29912040034fd39f8a0b1e8bfea05b000262f1fde6bc066d0e358b95a982f43e65348e52dcad20c0ee989231fc61",
                    "indexes": {
                        "data": 6,
                        "gas": 0,
                        "value": 0
                    }
                },
                {
                    "hash": "3347f75d879654698d726c98b276d6feff787a3f313666c9275ef712b4fb8cfb",
                    "logs": "1dcc4de8dec75d7aab85b567b6ccd41ad312451b948a7413f0a142fd40d49347",
                    "txbytes": "0xf885800a8404c4b40094cccccccccccccccccccccccccccccccccccccccc01a4693c6139000000000000000000000000000000000000000000000000000000000000dead1ca07575396df30638f2cdf43e562d1a4d6b9907f3cc44bec937b866aa1eb38c84dfa050d77175eef8416db59ee1e6c0c6e0ba657ccb6758e94e5fbd95decc532e09d9",
                    "indexes": {
                        "data": 7,
                        "gas": 0,
                        "value": 0
                    }
                },
                {
                    "hash": "e19609f0115b8466205813108e02d020d6ae41a700ddf2ee318952562780c0a8",
                    "logs": "1dcc4de8dec75d7aab85b567b6ccd41ad312451b948a7413f0a142fd40d49347",
                    "txbytes": "0xf885800a8404c4b40094cccccccccccccccccccccccccccccccccccccccc01a4693c61390000000000000000000000000000000000000000000000000000000000c0ea7e1ba04894bc12eff853fe6b012c77a3a001dfa2e1a7d5bf1b29e372065427e61ca29aa0264e1c3025b6324667162fafddb29f37a4b0b5273fe6770aef126cf4ad216374",
                    "indexes": {
                        "data": 8,
                        "gas": 0,
                        "value": 0
                    }
                },
                {
                    "hash": "a320faab90a91a98887755eb1425b4326d22bcb7ae1fd79c2bd0850d6a80cea9",
                    "logs": "1dcc4de8dec75d7aab85b567b6ccd41ad312451b948a7413f0a142fd40d49347",
                    "txbytes": "0xf885800a8404c4b40094cccccccccccccccccccccccccccccccccccccccc01a4693c6139000000000000000000000000000000000000000000000000000000000c0ea7e21ba0ddd17f6a616d9603b8937f60af60b0c44fad36caa6ff7680e356f2e9872122c8a04e619ba362929323c13f957c7b727b0b4b8d8bf1f322bc2c5aff36d82ef3db76",
                    "indexes": {
                        "data": 9,
                        "gas": 0,
                        "value": 0
                    }
                }
            ],
            "ETC_Mystique": [
                {
                    "hash": "5d61febe700e66080d83f8df2687bf52fc557084ecb7e1df88f01cd49130a066",
                    "logs": "1dcc4de8dec75d7aab85b567b6ccd41ad312451b948a7413f0a142fd40d49347",
                    "txbytes": "0xf885800a8404c4b40094cccccccccccccccccccccccccccccccccccccccc01a4693c613900000000000000000000000000000000000000000000000000000000000001001ca0ebc6a836413596ba1ac62a71555ade81e42d09eab71d5de0e5775641519ffd6aa07f41824f46f475c442d28620f914388cf7a1f6e98ecfe8ae4656976facb09ef2",
                    "indexes": {
                        "data": 0,
                        "gas": 0,
                        "value": 0
                    }
                },
                {
                    "hash": "9260b67fb3966be94ac475b5775f01869b53f4cf84719180112069f402987a68",
                    "logs": "1dcc4de8dec75d7aab85b567b6ccd41ad312451b948a7413f0a142fd40d49347",
                    "txbytes": "0xf885800a8404c4b40094cccccccccccccccccccccccccccccccccccccccc01a4693c613900000000000000000000000000000000000000000000000000000000000001031ba0880ce7b3bd0a3dfd9937b2490f8c4f7c2033714b54c6a83140b7d4cf12c34c34a01afb8e4533a87ab82bf53e46ac078d1ac9cb6f383db3c3f84e974e5ba1353462",
                    "indexes": {
                        "data": 1,
                        "gas": 0,
                        "value": 0
                    }
                },
                {
                    "hash": "4212473038b45ebadd1b45bd201aac8f3ec68b02b0d67ddccfd799e4f75650dd",
                    "logs": "1dcc4de8dec75d7aab85b567b6ccd41ad312451b948a7413f0a142fd40d49347",
                    "txbytes": "0xf885800a8404c4b40094cccccccccccccccccccccccccccccccccccccccc01a4693c613900000000000000000000000000000000000000000000000000000000000001011ca0ffd26504ab209214bb2e8624e3af346ab8f5a5426dee4ad391f4b14f8dcde5b5a002da13cf479f1c68710ed3fb235b46721807840beacdf41d96440019b5dd859b",
                    "indexes": {
                        "data": 2,
                        "gas": 0,
                        "value": 0
                    }
                },
                {
                    "hash": "9c3b7aafdac0c1a75e3ae4c01990a5ccdb05a6eb0f7409da9ed3a7a4fd29ce6d",
                    "logs": "1dcc4de8dec75d7aab85b567b6ccd41ad312451b948a7413f0a142fd40d49347",
                    "txbytes": "0xf885800a8404c4b40094cccccccccccccccccccccccccccccccccccccccc01a4693c613900000000000000000000000000000000000000000000000000000000000011011ba0954c075c882fedd49eea58b1bb10e2dda0ffdec0ba391a8e945efa811b64932ca040f9eecc73b92bcafcab717da27dcca528d737ec0c6803cb84ac3438488822e4",
                    "indexes": {
                        "data": 3,
                        "gas": 0,
                        "value": 0
                    }
                },
                {
                    "hash": "60f2275672c787e57895dfacd6b0e7cf04e46f51a0a5a9160ba090986aca945a",
                    "logs": "1dcc4de8dec75d7aab85b567b6ccd41ad312451b948a7413f0a142fd40d49347",
                    "txbytes": "0xf885800a8404c4b40094cccccccccccccccccccccccccccccccccccccccc01a4693c613900000000000000000000000000000000000000000000000000000000000001021ca06e247bdafd46e5cae6e41f499c66c65dc939069ffe1d9f9cfb5de833b2bcce52a0056913356be95ab78d8c9029599be68fb1959d4088b8eb807f0987bbb5a2fe89",
                    "indexes": {
                        "data": 4,
                        "gas": 0,
                        "value": 0
                    }
                },
                {
                    "hash": "cd72b44ac81e7018a132e343fdbd84fd574913d5a4cf0a97676d513923bfe6bb",
                    "logs": "1dcc4de8dec75d7aab85b567b6ccd41ad312451b948a7413f0a142fd40d49347",
                    "txbytes": "0xf885800a8404c4b40094cccccccccccccccccccccccccccccccccccccccc01a4693c613900000000000000000000000000000000000000000000000000000000000011021ca06dc574ed80fbd9795c6bff2ea6d372cfabe479b289bcd2f1b6ac27cf1c1ae2aca038f3aedb9960bd7a3f667c3cd62c199a589f8ee5c69eb776c811467dbbe4724f",
                    "indexes": {
                        "data": 5,
                        "gas": 0,
                        "value": 0
                    }
                },
                {
                    "hash": "340c60a218dc2c86500bf97360a41f55674cfc63b57d7fead1e923f392f05cce",
                    "logs": "1dcc4de8dec75d7aab85b567b6ccd41ad312451b948a7413f0a142fd40d49347",
                    "txbytes": "0xf885800a8404c4b40094cccccccccccccccccccccccccccccccccccccccc01a4693c613900000000000000000000000000000000000000000000000000000000000001041ca065e228d51a1e60e5b70b74274c5f7f493035cb29912040034fd39f8a0b1e8bfea05b000262f1fde6bc066d0e358b95a982f43e65348e52dcad20c0ee989231fc61",
                    "indexes": {
                        "data": 6,
                        "gas": 0,
                        "value": 0
                    }
                },
                {
                    "hash": "53f5a215c1445a200f7591e07294f4ddbcc3d928b54a7d7ed8c7e3ecf673f736",
                    "logs": "1dcc4de8dec75d7aab85b567b6ccd41ad312451b948a7413f0a142fd40d49347",
                    "txbytes": "0xf885800a8404c4b40094cccccccccccccccccccccccccccccccccccccccc01a4693c6139000000000000000000000000000000000000000000000000000000000000dead1ca07575396df30638f2cdf43e562d1a4d6b9907f3cc44bec937b866aa1eb38c84dfa050d77175eef8416db59ee1e6c0c6e0ba657ccb6758e94e5fbd95decc532e09d9",
                    "indexes": {
                        "data": 7,
                        "gas": 0,
                        "value": 0
                    }
                },
                {
                    "hash": "e19609f0115b8466205813108e02d020d6ae41a700ddf2ee318952562780c0a8",
                    "logs": "1dcc4de8dec75d7aab85b567b6ccd41ad312451b948a7413f0a142fd40d49347",
                    "txbytes": "0xf885800a8404c4b40094cccccccccccccccccccccccccccccccccccccccc01a4693c61390000000000000000000000000000000000000000000000000000000000c0ea7e1ba04894bc12eff853fe6b012c77a3a001dfa2e1a7d5bf1b29e372065427e61ca29aa0264e1c3025b6324667162fafddb29f37a4b0b5273fe6770aef126cf4ad216374",
                    "indexes": {
                        "data": 8,
                        "gas": 0,
                        "value": 0
                    }
                },
                {
                    "hash": "a320faab90a91a98887755eb1425b4326d22bcb7ae1fd79c2bd0850d6a80cea9",
                    "logs": "1dcc4de8dec75d7aab85b567b6ccd41ad312451b948a7413f0a142fd40d49347",
                    "txbytes": "0xf885800a8404c4b40094cccccccccccccccccccccccccccccccccccccccc01a4693c6139000000000000000000000000000000000000000000000000000000000c0ea7e21ba0ddd17f6a616d9603b8937f60af60b0c44fad36caa6ff7680e356f2e9872122c8a04e619ba362929323c13f957c7b727b0b4b8d8bf1f322bc2c5aff36d82ef3db76",
                    "indexes": {
                        "data": 9,
                        "gas": 0,
                        "value": 0
                    }
                }
            ],
            "ETC_Phoenix": [
                {
                    "hash": "f16659e8455975b5c03ef6ecea0eda1449739d02973213b91fd5159793904cb8",
                    "logs": "1dcc4de8dec75d7aab85b567b6ccd41ad312451b948a7413f0a142fd40d49347",
                    "txbytes": "0xf885800a8404c4b40094cccccccccccccccccccccccccccccccccccccccc01a4693c613900000000000000000000000000000000000000000000000000000000000001001ca0ebc6a836413596ba1ac62a71555ade81e42d09eab71d5de0e5775641519ffd6aa07f41824f46f475c442d28620f914388cf7a1f6e98ecfe8ae4656976facb09ef2",
                    "indexes": {
                        "data": 0,
                        "gas": 0,
                        "value": 0
                    }
                },
                {
                    "hash": "cd29de2cd34b0b4eb9f661b896e652d05e5ae60cef8f1404de98489fb10c2d63",
                    "logs": "1dcc4de8dec75d7aab85b567b6ccd41ad312451b948a7413f0a142fd40d49347",
                    "txbytes": "0xf885800a8404c4b40094cccccccccccccccccccccccccccccccccccccccc01a4693c613900000000000000000000000000000000000000000000000000000000000001031ba0880ce7b3bd0a3dfd9937b2490f8c4f7c2033714b54c6a83140b7d4cf12c34c34a01afb8e4533a87ab82bf53e46ac078d1ac9cb6f383db3c3f84e974e5ba1353462",
                    "indexes": {
                        "data": 1,
                        "gas": 0,
                        "value": 0
                    }
                },
                {
                    "hash": "be8d08453972f749cc1012a3cbc3638a9a2095356c6b37c00d80f7a4677fe364",
                    "logs": "1dcc4de8dec75d7aab85b567b6ccd41ad312451b948a7413f0a142fd40d49347",
                    "txbytes": "0xf885800a8404c4b40094cccccccccccccccccccccccccccccccccccccccc01a4693c613900000000000000000000000000000000000000000000000000000000000001011ca0ffd26504ab209214bb2e8624e3af346ab8f5a5426dee4ad391f4b14f8dcde5b5a002da13cf479f1c68710ed3fb235b46721807840beacdf41d96440019b5dd859b",
                    "indexes": {
                        "data": 2,
                        "gas": 0,
                        "value": 0
                    }
                },
                {
                    "hash": "a09072ea79566088e576c236f59bc16b62d9ac2018f1683fdc510037750c5f91",
                    "logs": "1dcc4de8dec75d7aab85b567b6ccd41ad312451b948a7413f0a142fd40d49347",
                    "txbytes": "0xf885800a8404c4b40094cccccccccccccccccccccccccccccccccccccccc01a4693c613900000000000000000000000000000000000000000000000000000000000011011ba0954c075c882fedd49eea58b1bb10e2dda0ffdec0ba391a8e945efa811b64932ca040f9eecc73b92bcafcab717da27dcca528d737ec0c6803cb84ac3438488822e4",
                    "indexes": {
                        "data": 3,
                        "gas": 0,
                        "value": 0
                    }
                },
                {
                    "hash": "f42c1304de1da4cda34fc5d48ab0f57671552fc7974c524ffbd3e2827400ba62",
                    "logs": "1dcc4de8dec75d7aab85b567b6ccd41ad312451b948a7413f0a142fd40d49347",
                    "txbytes": "0xf885800a8404c4b40094cccccccccccccccccccccccccccccccccccccccc01a4693c613900000000000000000000000000000000000000000000000000000000000001021ca06e247bdafd46e5cae6e41f499c66c65dc939069ffe1d9f9cfb5de833b2bcce52a0056913356be95ab78d8c9029599be68fb1959d4088b8eb807f0987bbb5a2fe89",
                    "indexes": {
                        "data": 4,
                        "gas": 0,
                        "value": 0
                    }
                },
                {
                    "hash": "61bbfb50f3a9cfdcfee2c883c99b4f759607a97225256fe08f0a3551d1abac6d",
                    "logs": "1dcc4de8dec75d7aab85b567b6ccd41ad312451b948a7413f0a142fd40d49347",
                    "txbytes": "0xf885800a8404c4b40094cccccccccccccccccccccccccccccccccccccccc01a4693c613900000000000000000000000000000000000000000000000000000000000011021ca06dc574ed80fbd9795c6bff2ea6d372cfabe479b289bcd2f1b6ac27cf1c1ae2aca038f3aedb9960bd7a3f667c3cd62c199a589f8ee5c69eb776c811467dbbe4724f",
                    "indexes": {
                        "data": 5,
                        "gas": 0,
                        "value": 0
                    }
                },
                {
                    "hash": "098e991e97098485339e8f0e455267009cd3523d57c8a2cb729554b92b4f6b99",
                    "logs": "1dcc4de8dec75d7aab85b567b6ccd41ad312451b948a7413f0a142fd40d49347",
                    "txbytes": "0xf885800a8404c4b40094cccccccccccccccccccccccccccccccccccccccc01a4693c613900000000000000000000000000000000000000000000000000000000000001041ca065e228d51a1e60e5b70b74274c5f7f493035cb29912040034fd39f8a0b1e8bfea05b000262f1fde6bc066d0e358b95a982f43e65348e52dcad20c0ee989231fc61",
                    "indexes": {
                        "data": 6,
                        "gas": 0,
                        "value": 0
                    }
                },
                {
                    "hash": "0393a4b8b20ebc625b541fcf23b1d1c1f42cb32954ebef6cd3cd8e778e6c6835",
                    "logs": "1dcc4de8dec75d7aab85b567b6ccd41ad312451b948a7413f0a142fd40d49347",
                    "txbytes": "0xf885800a8404c4b40094cccccccccccccccccccccccccccccccccccccccc01a4693c6139000000000000000000000000000000000000000000000000000000000000dead1ca07575396df30638f2cdf43e562d1a4d6b9907f3cc44bec937b866aa1eb38c84dfa050d77175eef8416db59ee1e6c0c6e0ba657ccb6758e94e5fbd95decc532e09d9",
                    "indexes": {
                        "data": 7,
                        "gas": 0,
                        "value": 0
                    }
                },
                {
                    "hash": "02d4c6d5623772b45fdffcc3cd32f21639cf85f0446a0761794469db07396faa",
                    "logs": "1dcc4de8dec75d7aab85b567b6ccd41ad312451b948a7413f0a142fd40d49347",
                    "txbytes": "0xf885800a8404c4b40094cccccccccccccccccccccccccccccccccccccccc01a4693c61390000000000000000000000000000000000000000000000000000000000c0ea7e1ba04894bc12eff853fe6b012c77a3a001dfa2e1a7d5bf1b29e372065427e61ca29aa0264e1c3025b6324667162fafddb29f37a4b0b5273fe6770aef126cf4ad216374",
                    "indexes": {
                        "data": 8,
                        "gas": 0,
                        "value": 0
                    }
                },
                {
                    "hash": "1f9f86c69e683ad7a70c2dd171d2e76b9badb1dcb07db4c3cce4783094c05bce",
                    "logs": "1dcc4de8dec75d7aab85b567b6ccd41ad312451b948a7413f0a142fd40d49347",
                    "txbytes": "0xf885800a8404c4b40094cccccccccccccccccccccccccccccccccccccccc01a4693c6139000000000000000000000000000000000000000000000000000000000c0ea7e21ba0ddd17f6a616d9603b8937f60af60b0c44fad36caa6ff7680e356f2e9872122c8a04e619ba362929323c13f957c7b727b0b4b8d8bf1f322bc2c5aff36d82ef3db76",
                    "indexes": {
                        "data": 9,
                        "gas": 0,
                        "value": 0
                    }
                }
            ]
        }
    }
}