{
    "extCodeHashDeletedAccount1": {
        "_info": {
            "comment": "1) Account A already exists in the state and contains code\nCall to Account B do the following:\n- stores Account A code hash to 1\n- stores Account A code size to 2\n- stores Account A code to 3\n- Run selfdestruct on A\n- stores Account A code hash to 4\n- stores Account A code size to 5\n- stores Account A code to 6\n",
            "filling-rpc-server": "evm version 1.10.16-unstable-0f893109-20220105",
            "filling-tool-version": "retesteth-0.2.2-testinfo+commit.01c6aac2.Linux.g++",
            "filledWith": "CoreGeth-1.12.9-unstable-4d59a861107c8232d6896811c48f229d30087be4",
            "lllcversion": "Version: 0.5.14-develop.2021.11.27+commit.401d5358.Linux.g++",
            "source": "src/GeneralStateTestsFiller/stExtCodeHash/extCodeHashDeletedAccount1Filler.yml",
            "sourceHash": "404ce1610cacb57dbb6d0c1e0d6e00d5640901df445dc7907d7613f31d1cbedc"
        },
        "env": {
            "currentCoinbase": "0x2adc25665018aa1fe0e6bc666dac8fc2697ff9ba",
            "currentDifficulty": "0x20000",
            "currentGasLimit": "0xf4240",
            "currentNumber": "0x1",
            "currentTimestamp": "0x3e8",
            "currentBaseFee": "0xa",
            "previousHash": "0x5e20a0453cecd065ea59c37ac63e079ee08998b6045136a8ce6635c7912ec0b6"
        },
        "pre": {
            "0x095e7baea6a6c7c4c2dfeb977efac326af552d87": {
                "code": "0x6020600060006000600073bbbbbbbb000000000000000000000000000000006203f7a0f100",
                "balance": "0xde0b6b3a7640000"
            },
            "0xa94f5374fce5edbc8e2a8697c15331677e6ebf0b": {
                "balance": "0xde0b6b3a7640000"
            },
            "0xaaaaaaaa00000000000000000000000000000000": {
                "code": "0x73deadbeef0000000000000000000000000000000031ff00",
                "balance": "0xde0b6b3a7640000"
            },
            "0xbbbbbbbb00000000000000000000000000000000": {
                "code": "0x73aaaaaaaa000000000000000000000000000000003f60015573aaaaaaaa000000000000000000000000000000003b6002556002546000600073aaaaaaaa000000000000000000000000000000003c6000516003556020600060006000600073aaaaaaaa00000000000000000000000000000000620249f0f15073aaaaaaaa000000000000000000000000000000003f60045573aaaaaaaa000000000000000000000000000000003b6005556005546000602073aaaaaaaa000000000000000000000000000000003c60205160065500",
                "balance": "0xde0b6b3a7640000"
            }
        },
        "transaction": {
            "gasPrice": "0xa",
            "nonce": "0x0",
            "to": "0x095e7baea6a6c7c4c2dfeb977efac326af552d87",
            "data": [
                "0x"
            ],
            "gasLimit": [
                "0x61a80"
            ],
            "value": [
                "0x01"
            ],
            "secretKey": "0x45a915e4d060149eb4365960e6a7a45f334393093061116b197e3240065ff2d8",
            "sender": "0xa94f5374fce5edbc8e2a8697c15331677e6ebf0b"
        },
        "post": {
            "ETC_Magneto": [
                {
                    "hash": "dab7ac06cbea47181e5bf62991c71670b32fba512726c595993814aaabe7b2e3",
                    "logs": "1dcc4de8dec75d7aab85b567b6ccd41ad312451b948a7413f0a142fd40d49347",
                    "txbytes": "0xf860800a83061a8094095e7baea6a6c7c4c2dfeb977efac326af552d8701801ca09d46b87169053cc40670aef750b032c895cde3e35c2c7f5a37c059272e0914c7a04d4a94b67b2776cc3e0fca2ed9503c10fd92ec79f1b2dcbb85df9634c7de3119",
                    "indexes": {
                        "data": 0,
                        "gas": 0,
                        "value": 0
                    }
                }
            ],
            "ETC_Mystique": [
                {
                    "hash": "a3f3ece22ad311ff1aff54de47ea677e0bb46ed0cb40548e3ef701887ec55994",
                    "logs": "1dcc4de8dec75d7aab85b567b6ccd41ad312451b948a7413f0a142fd40d49347",
                    "txbytes": "0xf860800a83061a8094095e7baea6a6c7c4c2dfeb977efac326af552d8701801ca09d46b87169053cc40670aef750b032c895cde3e35c2c7f5a37c059272e0914c7a04d4a94b67b2776cc3e0fca2ed9503c10fd92ec79f1b2dcbb85df9634c7de3119",
                    "indexes": {
                        "data": 0,
                        "gas": 0,
                        "value": 0
                    }
                }
            ],
            "ETC_Phoenix": [
                {
                    "hash": "e774b198ee9c8ee4e1108cc887002ec06e1616ed1687c5c8523f334bb1b51538",
                    "logs": "1dcc4de8dec75d7aab85b567b6ccd41ad312451b948a7413f0a142fd40d49347",
                    "txbytes": "0xf860800a83061a8094095e7baea6a6c7c4c2dfeb977efac326af552d8701801ca09d46b87169053cc40670aef750b032c895cde3e35c2c7f5a37c059272e0914c7a04d4a94b67b2776cc3e0fca2ed9503c10fd92ec79f1b2dcbb85df9634c7de3119",
                    "indexes": {
                        "data": 0,
                        "gas": 0,
                        "value": 0
                    }
                }
            ]
        }
    }
}