{
    "extCodeHashCreatedAndDeletedAccountRecheckInOuterCall": {
        "_info": {
            "comment": "EXTCODEHASH/EXTCODESIZE of an account created then deleted in a CALL, checking results after the CALL returns",
            "filling-rpc-server": "evm version 1.10.16-unstable-0f893109-20220105",
            "filling-tool-version": "retesteth-0.2.2-testinfo+commit.01c6aac2.Linux.g++",
            "filledWith": "CoreGeth-1.12.9-unstable-ab16c56768f0284ab56a30aac9550d3ebdc45901",
            "lllcversion": "Version: 0.5.14-develop.2021.11.27+commit.401d5358.Linux.g++",
            "source": "src/GeneralStateTestsFiller/stExtCodeHash/extCodeHashCreatedAndDeletedAccountRecheckInOuterCallFiller.json",
            "sourceHash": "028346814078af88baf5f6b701eb1d565f416e94b31f54fcdbe99bfe8279510a"
        },
        "env": {
            "currentCoinbase": "0x2adc25665018aa1fe0e6bc666dac8fc2697ff9ba",
            "currentDifficulty": "0x20000",
            "currentGasLimit": "0xf4240",
            "currentNumber": "0x1",
            "currentTimestamp": "0x3e8",
            "currentBaseFee": "0xa",
            "previousHash": "0x5e20a0453cecd065ea59c37ac63e079ee08998b6045136a8ce6635c7912ec0b6"
        },
        "pre": {
            "0xa94f5374fce5edbc8e2a8697c15331677e6ebf0b": {
                "balance": "0xde0b6b3a7640000"
            },
            "0xdeadbeef00000000000000000000000000000000": {
                "code": "0x6010601180604460803960806000f56000526000513f6000556000513b6001556000600060006000600060005162010000f1506000513f6002556000513b6003550000fe600480600d6000396000f300fe6000ff00",
                "balance": "0xde0b6b3a7640000"
            },
            "0xdeadbeef00000000000000000000000000000001": {
                "code": "0x6000600060006000600073deadbeef0000000000000000000000000000000062020000f15073123f4c415171383dcf6f3ac6c3b70fe321e11b5e3f60005573123f4c415171383dcf6f3ac6c3b70fe321e11b5e3b6001550000",
                "balance": "0xde0b6b3a7640000"
            }
        },
        "transaction": {
            "gasPrice": "0xa",
            "nonce": "0x0",
            "to": "0xdeadbeef00000000000000000000000000000001",
            "data": [
                "0x"
            ],
            "gasLimit": [
                "0x61a80"
            ],
            "value": [
                "0x01"
            ],
            "secretKey": "0x45a915e4d060149eb4365960e6a7a45f334393093061116b197e3240065ff2d8",
            "sender": "0xa94f5374fce5edbc8e2a8697c15331677e6ebf0b"
        },
        "post": {
            "ETC_Magneto": [
                {
                    "hash": "56f7d625bd156b8bc8c95c9afaa26457a7af661a36f2000ad4d70a4bab42e58a",
                    "logs": "1dcc4de8dec75d7aab85b567b6ccd41ad312451b948a7413f0a142fd40d49347",
                    "txbytes": "0xf860800a83061a8094deadbeef0000000000000000000000000000000101801ca0ca915032d520b0ce68147354cbf04fc2ddf38a11ce2f4f767abd6a32b14b9152a073f798b81ce7c99b290b46865b6e1aa84a9fd5cd0164784a97fa4f70604d225a",
                    "indexes": {
                        "data": 0,
                        "gas": 0,
                        "value": 0
                    }
                }
            ],
            "ETC_Mystique": [
                {
                    "hash": "ac566732b85afd300f52f98aa7173b9283c33121f923470968eb94b2377c84ad",
                    "logs": "1dcc4de8dec75d7aab85b567b6ccd41ad312451b948a7413f0a142fd40d49347",
                    "txbytes": "0xf860800a83061a8094deadbeef0000000000000000000000000000000101801ca0ca915032d520b0ce68147354cbf04fc2ddf38a11ce2f4f767abd6a32b14b9152a073f798b81ce7c99b290b46865b6e1aa84a9fd5cd0164784a97fa4f70604d225a",
                    "indexes": {
                        "data": 0,
                        "gas": 0,
                        "value": 0
                    }
                }
            ],
            "ETC_Phoenix": [
                {
                    "hash": "5da5148ca42ea9b3fefd6b281c66d9404f332c407d3ab70a5219250ff25c3516",
                    "logs": "1dcc4de8dec75d7aab85b567b6ccd41ad312451b948a7413f0a142fd40d49347",
                    "txbytes": "0xf860800a83061a8094deadbeef0000000000000000000000000000000101801ca0ca915032d520b0ce68147354cbf04fc2ddf38a11ce2f4f767abd6a32b14b9152a073f798b81ce7c99b290b46865b6e1aa84a9fd5cd0164784a97fa4f70604d225a",
                    "indexes": {
                        "data": 0,
                        "gas": 0,
                        "value": 0
                    }
                }
            ]
        }
    }
}