{
    "extCodeHashDeletedAccount3": {
        "_info": {
            "comment": "3) Call creates Account A (0x95ab1c33798981918da6d27056f70376674878d2)\nCall to Account B do the following:\n- stores Account A code hash to 1\n- stores Account A code size to 2\n- stores Account A code to 3\n- Run selfdestruct on A\n- stores Account A code hash to 4\n- stores Account A code size to 5\n- stores Account A code to 6\n",
            "filling-rpc-server": "evm version 1.10.16-unstable-0f893109-20220105",
            "filling-tool-version": "retesteth-0.2.2-testinfo+commit.01c6aac2.Linux.g++",
            "filledWith": "CoreGeth-1.12.9-unstable-ab16c56768f0284ab56a30aac9550d3ebdc45901",
            "lllcversion": "Version: 0.5.14-develop.2021.11.27+commit.401d5358.Linux.g++",
            "source": "src/GeneralStateTestsFiller/stExtCodeHash/extCodeHashDeletedAccount3Filler.yml",
            "sourceHash": "6e002921e44130c0fbb4a13827de2ce649b3198518b0d62e4ae6457fada796d6"
        },
        "env": {
            "currentCoinbase": "0x2adc25665018aa1fe0e6bc666dac8fc2697ff9ba",
            "currentDifficulty": "0x20000",
            "currentGasLimit": "0xf4240",
            "currentNumber": "0x1",
            "currentTimestamp": "0x3e8",
            "currentBaseFee": "0xa",
            "previousHash": "0x5e20a0453cecd065ea59c37ac63e079ee08998b6045136a8ce6635c7912ec0b6"
        },
        "pre": {
            "0x095e7baea6a6c7c4c2dfeb977efac326af552d87": {
                "code": "0x6000603d80604060003960006000f56000526000516000556020600060006000600073bbbbbbbb00000000000000000000000000000000620249f0f1500000fe73cccccccc000000000000000000000000000000003b6000526000516000602073cccccccc000000000000000000000000000000003c6000516020f300",
                "balance": "0xde0b6b3a7640000"
            },
            "0xa94f5374fce5edbc8e2a8697c15331677e6ebf0b": {
                "balance": "0xde0b6b3a7640000"
            },
            "0xbbbbbbbb00000000000000000000000000000000": {
                "code": "0x73554e36262c0e0ab156397c32444e4a018fe93b183f60015573554e36262c0e0ab156397c32444e4a018fe93b183b6002556002546000600073554e36262c0e0ab156397c32444e4a018fe93b183c6000516003556020600060006000600073554e36262c0e0ab156397c32444e4a018fe93b18620249f0f15073554e36262c0e0ab156397c32444e4a018fe93b183f60045573554e36262c0e0ab156397c32444e4a018fe93b183b6005556005546000602073554e36262c0e0ab156397c32444e4a018fe93b183c60205160065500",
                "balance": "0xde0b6b3a7640000"
            },
            "0xcccccccc00000000000000000000000000000000": {
                "code": "0x73bbbbbbbb00000000000000000000000000000000ff00",
                "balance": "0x0"
            }
        },
        "transaction": {
            "gasPrice": "0xa",
            "nonce": "0x0",
            "to": "0x095e7baea6a6c7c4c2dfeb977efac326af552d87",
            "data": [
                "0x"
            ],
            "gasLimit": [
                "0x61a80"
            ],
            "value": [
                "0x01"
            ],
            "secretKey": "0x45a915e4d060149eb4365960e6a7a45f334393093061116b197e3240065ff2d8",
            "sender": "0xa94f5374fce5edbc8e2a8697c15331677e6ebf0b"
        },
        "post": {
            "ETC_Magneto": [
                {
                    "hash": "1945bf718f7989835977f7d305b37c1364a938a73f68c16363859a825450ee60",
                    "logs": "1dcc4de8dec75d7aab85b567b6ccd41ad312451b948a7413f0a142fd40d49347",
                    "txbytes": "0xf860800a83061a8094095e7baea6a6c7c4c2dfeb977efac326af552d8701801ca09d46b87169053cc40670aef750b032c895cde3e35c2c7f5a37c059272e0914c7a04d4a94b67b2776cc3e0fca2ed9503c10fd92ec79f1b2dcbb85df9634c7de3119",
                    "indexes": {
                        "data": 0,
                        "gas": 0,
                        "value": 0
                    }
                }
            ],
            "ETC_Mystique": [
                {
                    "hash": "2b9590ad4919004dd448bf9cbb7116a102da5ccc9e7f78aee47c0849f0347f5c",
                    "logs": "1dcc4de8dec75d7aab85b567b6ccd41ad312451b948a7413f0a142fd40d49347",
                    "txbytes": "0xf860800a83061a8094095e7baea6a6c7c4c2dfeb977efac326af552d8701801ca09d46b87169053cc40670aef750b032c895cde3e35c2c7f5a37c059272e0914c7a04d4a94b67b2776cc3e0fca2ed9503c10fd92ec79f1b2dcbb85df9634c7de3119",
                    "indexes": {
                        "data": 0,
                        "gas": 0,
                        "value": 0
                    }
                }
            ],
            "ETC_Phoenix": [
                {
                    "hash": "200d0056b4ee836f07f1f49ec6891b6746f0ab76c0bf534d4e33f32ff5ed7ac4",
                    "logs": "1dcc4de8dec75d7aab85b567b6ccd41ad312451b948a7413f0a142fd40d49347",
                    "txbytes": "0xf860800a83061a8094095e7baea6a6c7c4c2dfeb977efac326af552d8701801ca09d46b87169053cc40670aef750b032c895cde3e35c2c7f5a37c059272e0914c7a04d4a94b67b2776cc3e0fca2ed9503c10fd92ec79f1b2dcbb85df9634c7de3119",
                    "indexes": {
                        "data": 0,
                        "gas": 0,
                        "value": 0
                    }
                }
            ]
        }
    }
}