{
    "ZeroValue_DELEGATECALL_OOGRevert": {
        "_info": {
            "comment": "",
            "filling-rpc-server": "evm version 1.10.16-unstable-0f893109-20220105",
            "filling-tool-version": "retesteth-0.2.2-testinfo+commit.01c6aac2.Linux.g++",
            "filledWith": "CoreGeth-1.12.9-unstable-f4059ddd82d975bdc54fa648e5422a80172161cb",
            "lllcversion": "Version: 0.5.14-develop.2021.11.27+commit.401d5358.Linux.g++",
            "source": "src/GeneralStateTestsFiller/stZeroCallsRevert/ZeroValue_DELEGATECALL_OOGRevertFiller.json",
            "sourceHash": "e0275f65daa7847b0f6c6b1cca651e614fbe17672ca25197cfffa809a86b76ea"
        },
        "env": {
            "currentCoinbase": "2adc25665018aa1fe0e6bc666dac8fc2697ff9ba",
            "currentDifficulty": "0x20000",
            "currentRandom": null,
            "currentGasLimit": "0x989680",
            "currentNumber": "0x1",
            "currentTimestamp": "0x3e8",
            "currentBaseFee": "0xa"
        },
        "pre": {
            "0xa94f5374fce5edbc8e2a8697c15331677e6ebf0b": {
                "balance": "0xe8d4a51000"
            },
            "0xb94f5374fce5edbc8e2a8697c15331677e6ebf0b": {
                "code": "0x5a600055600060006000600073c94f5374fce5edbc8e2a8697c15331677e6ebf0b61ea60f4600155600c600255600c600355600c6004555a60645500",
                "balance": "0x0"
            }
        },
        "transaction": {
            "gasPrice": "0xa",
            "maxFeePerGas": null,
            "maxPriorityFeePerGas": null,
            "nonce": "0x0",
            "to": "0xb94f5374fce5edbc8e2a8697c15331677e6ebf0b",
            "data": [
                "0x"
            ],
            "gasLimit": [
                "0x20f58"
            ],
            "value": [
                "0x00"
            ],
            "secretKey": "0x45a915e4d060149eb4365960e6a7a45f334393093061116b197e3240065ff2d8"
        },
        "out": "0x",
        "post": {
            "ETC_Magneto": [
                {
                    "hash": "029a31b556ec11e2db4ad305a3621ef5af8d6257c49b57b931572ef56f64e2f0",
                    "logs": "1dcc4de8dec75d7aab85b567b6ccd41ad312451b948a7413f0a142fd40d49347",
                    "txbytes": "0xf860800a83020f5894b94f5374fce5edbc8e2a8697c15331677e6ebf0b80801ca0de453887fe76fd616009849fd98ced156de68a1519b79d9197d6c0200f554ffea047b27910a2ab14d1fd8d826b58c770f18ba9d472c6660cffe01d86b7bf973766",
                    "indexes": {
                        "data": 0,
                        "gas": 0,
                        "value": 0
                    }
                }
            ],
            "ETC_Mystique": [
                {
                    "hash": "029a31b556ec11e2db4ad305a3621ef5af8d6257c49b57b931572ef56f64e2f0",
                    "logs": "1dcc4de8dec75d7aab85b567b6ccd41ad312451b948a7413f0a142fd40d49347",
                    "txbytes": "0xf860800a83020f5894b94f5374fce5edbc8e2a8697c15331677e6ebf0b80801ca0de453887fe76fd616009849fd98ced156de68a1519b79d9197d6c0200f554ffea047b27910a2ab14d1fd8d826b58c770f18ba9d472c6660cffe01d86b7bf973766",
                    "indexes": {
                        "data": 0,
                        "gas": 0,
                        "value": 0
                    }
                }
            ],
            "ETC_Phoenix": [
                {
                    "hash": "029a31b556ec11e2db4ad305a3621ef5af8d6257c49b57b931572ef56f64e2f0",
                    "logs": "1dcc4de8dec75d7aab85b567b6ccd41ad312451b948a7413f0a142fd40d49347",
                    "txbytes": "0xf860800a83020f5894b94f5374fce5edbc8e2a8697c15331677e6ebf0b80801ca0de453887fe76fd616009849fd98ced156de68a1519b79d9197d6c0200f554ffea047b27910a2ab14d1fd8d826b58c770f18ba9d472c6660cffe01d86b7bf973766",
                    "indexes": {
                        "data": 0,
                        "gas": 0,
                        "value": 0
                    }
                }
            ]
        }
    }
}