{
    "randomStatetestDEFAULT-Tue_07_58_41-15153-575192": {
        "_info": {
            "comment": "This is a canon example of a test found by fuzzing with EVMlab, demoing how a suicide-created-but-empty account has a non-zero codehash in geth",
            "filling-rpc-server": "evm version 1.10.16-unstable-0f893109-20220105",
            "filling-tool-version": "retesteth-0.2.2-testinfo+commit.01c6aac2.Linux.g++",
            "filledWith": "CoreGeth-1.12.9-unstable-4cf5b2b0837228e7d5eadba6a01ffb80e9288e21",
            "lllcversion": "Version: 0.5.14-develop.2021.11.27+commit.401d5358.Linux.g++",
            "source": "src/GeneralStateTestsFiller/stBugs/randomStatetestDEFAULT-Tue_07_58_41-15153-575192Filler.json",
            "sourceHash": "597d19c9ec5ff5633f5474d26791c27aa20519e06b24b7ee78807aa7ec3a990b"
        },
        "env": {
            "currentCoinbase": "0x1000000000000000000000000000000000000000",
            "currentDifficulty": "0x20000",
            "currentGasLimit": "0x1312d00",
            "currentNumber": "0x1",
            "currentTimestamp": "0x3e8",
            "previousHash": "0x5fa368f13facaec6bf82d19c5d075fd3386be8a4265ed2d90c29b312a09b6d9d"
        },
        "pre": {
            "0x000000000000000000000000000000000000dead": {
                "code": "0x62abcdefff",
                "balance": "0x0",
                "nonce": "0x1c"
            },
            "0x1000000000000000000000000000000000000000": {
                "code": "0x61dead6000600060006000600061dead5af162abcdef3f600155",
                "balance": "0x0",
                "nonce": "0x1c"
            },
            "0xa94f5374fce5edbc8e2a8697c15331677e6ebf0b": {
                "code": "0x",
                "balance": "0x5d8fdd3ff54298b4",
                "nonce": "0x1c"
            }
        },
        "transaction": {
            "gasPrice": "0xb",
            "nonce": "0x1c",
            "to": "0x1000000000000000000000000000000000000000",
            "data": [
                "0x"
            ],
            "gasLimit": [
                "0x5fde07"
            ],
            "value": [
                "0x00"
            ],
            "secretKey": "0x45a915e4d060149eb4365960e6a7a45f334393093061116b197e3240065ff2d8",
            "sender": "0xa94f5374fce5edbc8e2a8697c15331677e6ebf0b"
        },
        "post": {
            "ETC_Magneto": [
                {
                    "hash": "ac8d98313883cf53b61a999e57af813c35feef308609df1fc3a2c2cd87b20ffc",
                    "logs": "1dcc4de8dec75d7aab85b567b6ccd41ad312451b948a7413f0a142fd40d49347",
                    "txbytes": "0xf8601c0b835fde0794100000000000000000000000000000000000000080801ba05bcf308f6e13f1d310f7bf7c07d23668bfa84384314330c375849619d8bca497a07f8b3303b6d5daf687b482dec689a32d1829d573854757e3dd2e6f101ab36b4a",
                    "indexes": {
                        "data": 0,
                        "gas": 0,
                        "value": 0
                    }
                }
            ],
            "ETC_Mystique": [
                {
                    "hash": "87ea5c382ebead01bd541b51b96fbc3b07e4b24841f6e52c97ee75beb449e7db",
                    "logs": "1dcc4de8dec75d7aab85b567b6ccd41ad312451b948a7413f0a142fd40d49347",
                    "txbytes": "0xf8601c0b835fde0794100000000000000000000000000000000000000080801ba05bcf308f6e13f1d310f7bf7c07d23668bfa84384314330c375849619d8bca497a07f8b3303b6d5daf687b482dec689a32d1829d573854757e3dd2e6f101ab36b4a",
                    "indexes": {
                        "data": 0,
                        "gas": 0,
                        "value": 0
                    }
                }
            ],
            "ETC_Phoenix": [
                {
                    "hash": "05aaa9788d817a5d149af49f5ca914313a1d6609497177ab67bbe3392cc78ab7",
                    "logs": "1dcc4de8dec75d7aab85b567b6ccd41ad312451b948a7413f0a142fd40d49347",
                    "txbytes": "0xf8601c0b835fde0794100000000000000000000000000000000000000080801ba05bcf308f6e13f1d310f7bf7c07d23668bfa84384314330c375849619d8bca497a07f8b3303b6d5daf687b482dec689a32d1829d573854757e3dd2e6f101ab36b4a",
                    "indexes": {
                        "data": 0,
                        "gas": 0,
                        "value": 0
                    }
                }
            ]
        }
    }
}