{
    "staticcall_createfails": {
        "_info": {
            "comment": "",
            "filling-rpc-server": "evm version 1.10.16-unstable-0f893109-20220105",
            "filling-tool-version": "retesteth-0.2.2-testinfo+commit.01c6aac2.Linux.g++",
            "filledWith": "CoreGeth-1.12.9-unstable-d64998ce9b05f4f41b35740c69c4b402e41a3105",
            "lllcversion": "Version: 0.5.14-develop.2021.11.27+commit.401d5358.Linux.g++",
            "source": "src/GeneralStateTestsFiller/stBugs/staticcall_createfailsFiller.json",
            "sourceHash": "9b0330e3c24e67b58bc95d0c721eb5754f1ae853fa803f826499529ff0ed60a7"
        },
        "env": {
            "currentCoinbase": "0x1000000000000000000000000000000000000000",
            "currentDifficulty": "0x20000",
            "currentGasLimit": "0x54a60a4202e088",
            "currentNumber": "0x1",
            "currentTimestamp": "0x3e8",
            "previousHash": "0x0da7f1041f7b60aec6b67cafa0c08c10c9954d0b43737891d204ff372d166593"
        },
        "pre": {
            "0xa94f5374fce5edbc8e2a8697c15331677e6ebf0b": {
                "balance": "0x38beec8feeca2598"
            },
            "0xb94f5374fce5edbc8e2a8697c15331677e6ebf0b": {
                "code": "0x600060006000600060003562011170fa60015500",
                "storage": {
                    "0x0000000000000000000000000000000000000000000000000000000000000001": "0x0000000000000000000000000000000000000000000000000000000000000001"
                },
                "balance": "0x0",
                "nonce": "0x3f"
            },
            "0xc94f5374fce5edbc8e2a8697c15331677e6ebf0b": {
                "code": "0x6001600152600160016001f060025500",
                "balance": "0x0",
                "nonce": "0x3f"
            },
            "0xd94f5374fce5edbc8e2a8697c15331677e6ebf0b": {
                "code": "0x60006000f0",
                "balance": "0x0",
                "nonce": "0x3f"
            }
        },
        "transaction": {
            "gasPrice": "0xa",
            "nonce": "0x0",
            "to": "0xb94f5374fce5edbc8e2a8697c15331677e6ebf0b",
            "data": [
                "0x000000000000000000000000c94f5374fce5edbc8e2a8697c15331677e6ebf0b",
                "0x000000000000000000000000d94f5374fce5edbc8e2a8697c15331677e6ebf0b"
            ],
            "gasLimit": [
                "0x1d4c0"
            ],
            "value": [
                "0x00"
            ],
            "secretKey": "0x45a915e4d060149eb4365960e6a7a45f334393093061116b197e3240065ff2d8",
            "sender": "0xa94f5374fce5edbc8e2a8697c15331677e6ebf0b"
        },
        "post": {
            "ETC_Magneto": [
                {
                    "hash": "fc5e8cde5508404018bb8eb266c087f9adce307ef202ac5c55727013a001332c",
                    "logs": "1dcc4de8dec75d7aab85b567b6ccd41ad312451b948a7413f0a142fd40d49347",
                    "txbytes": "0xf880800a8301d4c094b94f5374fce5edbc8e2a8697c15331677e6ebf0b80a0000000000000000000000000c94f5374fce5edbc8e2a8697c15331677e6ebf0b1ba009e63b5e4eb0b681fbdb4e912b508ad3d73338b9323ff26e50c6ff405668c3eda02b546184882273ef66c9961f085171d5b5679293a65a80776baecb30fda1db2b",
                    "indexes": {
                        "data": 0,
                        "gas": 0,
                        "value": 0
                    }
                },
                {
                    "hash": "fc5e8cde5508404018bb8eb266c087f9adce307ef202ac5c55727013a001332c",
                    "logs": "1dcc4de8dec75d7aab85b567b6ccd41ad312451b948a7413f0a142fd40d49347",
                    "txbytes": "0xf880800a8301d4c094b94f5374fce5edbc8e2a8697c15331677e6ebf0b80a0000000000000000000000000d94f5374fce5edbc8e2a8697c15331677e6ebf0b1ca0844567c660a6723df62f98f3128a2a836402265567f7cf94e4786a607abc50f5a021b48a2aa1f650049631c01b6dcf2524764c604c78bee31bd3319cdcb370675b",
                    "indexes": {
                        "data": 1,
                        "gas": 0,
                        "value": 0
                    }
                }
            ],
            "ETC_Mystique": [
                {
                    "hash": "3ccf3f6e3a4bc35890dbd271307dc01cc355db35373edf8bbc42eb751c0ceb51",
                    "logs": "1dcc4de8dec75d7aab85b567b6ccd41ad312451b948a7413f0a142fd40d49347",
                    "txbytes": "0xf880800a8301d4c094b94f5374fce5edbc8e2a8697c15331677e6ebf0b80a0000000000000000000000000c94f5374fce5edbc8e2a8697c15331677e6ebf0b1ba009e63b5e4eb0b681fbdb4e912b508ad3d73338b9323ff26e50c6ff405668c3eda02b546184882273ef66c9961f085171d5b5679293a65a80776baecb30fda1db2b",
                    "indexes": {
                        "data": 0,
                        "gas": 0,
                        "value": 0
                    }
                },
                {
                    "hash": "3ccf3f6e3a4bc35890dbd271307dc01cc355db35373edf8bbc42eb751c0ceb51",
                    "logs": "1dcc4de8dec75d7aab85b567b6ccd41ad312451b948a7413f0a142fd40d49347",
                    "txbytes": "0xf880800a8301d4c094b94f5374fce5edbc8e2a8697c15331677e6ebf0b80a0000000000000000000000000d94f5374fce5edbc8e2a8697c15331677e6ebf0b1ca0844567c660a6723df62f98f3128a2a836402265567f7cf94e4786a607abc50f5a021b48a2aa1f650049631c01b6dcf2524764c604c78bee31bd3319cdcb370675b",
                    "indexes": {
                        "data": 1,
                        "gas": 0,
                        "value": 0
                    }
                }
            ],
            "ETC_Phoenix": [
                {
                    "hash": "1dd57feacecb832943af8fdc455d539605fca8f5a22ebc4cd5ba1b154e2cd162",
                    "logs": "1dcc4de8dec75d7aab85b567b6ccd41ad312451b948a7413f0a142fd40d49347",
                    "txbytes": "0xf880800a8301d4c094b94f5374fce5edbc8e2a8697c15331677e6ebf0b80a0000000000000000000000000c94f5374fce5edbc8e2a8697c15331677e6ebf0b1ba009e63b5e4eb0b681fbdb4e912b508ad3d73338b9323ff26e50c6ff405668c3eda02b546184882273ef66c9961f085171d5b5679293a65a80776baecb30fda1db2b",
                    "indexes": {
                        "data": 0,
                        "gas": 0,
                        "value": 0
                    }
                },
                {
                    "hash": "1dd57feacecb832943af8fdc455d539605fca8f5a22ebc4cd5ba1b154e2cd162",
                    "logs": "1dcc4de8dec75d7aab85b567b6ccd41ad312451b948a7413f0a142fd40d49347",
                    "txbytes": "0xf880800a8301d4c094b94f5374fce5edbc8e2a8697c15331677e6ebf0b80a0000000000000000000000000d94f5374fce5edbc8e2a8697c15331677e6ebf0b1ca0844567c660a6723df62f98f3128a2a836402265567f7cf94e4786a607abc50f5a021b48a2aa1f650049631c01b6dcf2524764c604c78bee31bd3319cdcb370675b",
                    "indexes": {
                        "data": 1,
                        "gas": 0,
                        "value": 0
                    }
                }
            ]
        }
    }
}