{
    "transactionCollidingWithNonEmptyAccount_send": {
        "_info": {
            "comment": "Account with non-empty code attempts to send tx to another account with empty code",
            "filling-rpc-server": "evm version 1.10.16-unstable-0f893109-20220105",
            "filling-tool-version": "retesteth-0.2.2-testinfo+commit.01c6aac2.Linux.g++",
            "filledWith": "CoreGeth-1.12.9-unstable-f4059ddd82d975bdc54fa648e5422a80172161cb",
            "lllcversion": "Version: 0.5.14-develop.2021.11.27+commit.401d5358.Linux.g++",
            "source": "src/GeneralStateTestsFiller/stEIP3607/transactionCollidingWithNonEmptyAccount_sendFiller.yml",
            "sourceHash": "519c6c3041b211a9ef57db8a6e289b466b3c0bc70939fda545c56de4161ac06f"
        },
        "env": {
            "currentCoinbase": "2adc25665018aa1fe0e6bc666dac8fc2697ff9ba",
            "currentDifficulty": "0x20000",
            "currentRandom": null,
            "currentGasLimit": "0xff112233445566",
            "currentNumber": "0x1",
            "currentTimestamp": "0x3e8",
            "currentBaseFee": "0xa"
        },
        "pre": {
            "0x095e7baea6a6c7c4c2dfeb977efac326af552d87": {
                "balance": "0x0"
            },
            "0x2adc25665018aa1fe0e6bc666dac8fc2697ff9ba": {
                "balance": "0x0",
                "nonce": "0x1"
            },
            "0xa94f5374fce5edbc8e2a8697c15331677e6ebf0b": {
                "code": "0x6000600155",
                "balance": "0xde0b6b3a7640000"
            }
        },
        "transaction": {
            "gasPrice": "0xa",
            "maxFeePerGas": null,
            "maxPriorityFeePerGas": null,
            "nonce": "0x0",
            "to": "0x095e7baea6a6c7c4c2dfeb977efac326af552d87",
            "data": [
                "0x"
            ],
            "gasLimit": [
                "0x61a80"
            ],
            "value": [
                "0x0186a0"
            ],
            "secretKey": "0x45a915e4d060149eb4365960e6a7a45f334393093061116b197e3240065ff2d8"
        },
        "out": "0x",
        "post": {
            "ETC_Mystique": [
                {
                    "hash": "1e3e9912d5bdbe6cd6feea1a121ae56f83e5169476b415884bd9f0412f3927ff",
                    "logs": "1dcc4de8dec75d7aab85b567b6ccd41ad312451b948a7413f0a142fd40d49347",
                    "txbytes": "0xf863800a83061a8094095e7baea6a6c7c4c2dfeb977efac326af552d87830186a0801ba0ffb600e63115a7362e7811894a91d8ba4330e526f22121c994c4692035dfdfd5a06198379fcac8de3dbfac48b165df4bf88e2088f294b61efb9a65fe2281c76e16",
                    "indexes": {
                        "data": 0,
                        "gas": 0,
                        "value": 0
                    }
                }
            ]
        }
    }
}