{
    "operationDiffGas": {
        "_info": {
            "comment": "Ori Pomerantz   qbzzt1@gmail.com",
            "filling-rpc-server": "evm version 1.10.16-unstable-0f893109-20220105",
            "filling-tool-version": "retesteth-0.2.2-testinfo+commit.01c6aac2.Linux.g++",
            "filledWith": "CoreGeth-1.12.9-unstable-ab16c56768f0284ab56a30aac9550d3ebdc45901",
            "lllcversion": "Version: 0.5.14-develop.2021.11.27+commit.401d5358.Linux.g++",
            "source": "src/GeneralStateTestsFiller/stBadOpcode/operationDiffGasFiller.yml",
            "sourceHash": "6c8654d42f611cbabf54d2571c2375b01f50e8d0a7c24edbaebb33e2c8b66b54",
            "labels": {
                "0": "CREATE",
                "1": "CREATE2",
                "10": "EXTCODE",
                "2": "CALL",
                "3": "CALLCODE",
                "4": "DELEGATECALL",
                "5": "STATICCALL",
                "6": "MLOAD",
                "7": "MSTORE",
                "8": "MSTORE8",
                "9": "SHA3"
            }
        },
        "env": {
            "currentCoinbase": "0x2adc25665018aa1fe0e6bc666dac8fc2697ff9ba",
            "currentDifficulty": "0x20000",
            "currentGasLimit": "0x5f5e100",
            "currentNumber": "0x1",
            "currentTimestamp": "0x3e8",
            "currentBaseFee": "0xa",
            "previousHash": "0x5e20a0453cecd065ea59c37ac63e079ee08998b6045136a8ce6635c7912ec0b6"
        },
        "pre": {
            "0x000000000000000000000000000000000000ca11": {
                "code": "0x63deadbeef6000526101006000f3",
                "balance": "0xba1a9ce0ba1a9ce",
                "nonce": "0x1"
            },
            "0x0000000000000000000000000000000000c0de20": {
                "code": "0x61beef60002050",
                "balance": "0xba1a9ce0ba1a9ce",
                "nonce": "0x1"
            },
            "0x0000000000000000000000000000000000c0de3b": {
                "code": "0x61ca11803b60006000833c50",
                "balance": "0xba1a9ce0ba1a9ce",
                "nonce": "0x1"
            },
            "0x0000000000000000000000000000000000c0de51": {
                "code": "0x61beef5150",
                "balance": "0xba1a9ce0ba1a9ce",
                "nonce": "0x1"
            },
            "0x0000000000000000000000000000000000c0de52": {
                "code": "0x60ff61beef52",
                "balance": "0xba1a9ce0ba1a9ce",
                "nonce": "0x1"
            },
            "0x0000000000000000000000000000000000c0de53": {
                "code": "0x60ff61beef53",
                "balance": "0xba1a9ce0ba1a9ce",
                "nonce": "0x1"
            },
            "0x0000000000000000000000000000000000c0def0": {
                "code": "0x61020060006000f0600055",
                "balance": "0xba1a9ce0ba1a9ce",
                "nonce": "0x1"
            },
            "0x0000000000000000000000000000000000c0def1": {
                "code": "0x61010060006101006000600061ca115af150",
                "balance": "0xba1a9ce0ba1a9ce",
                "nonce": "0x1"
            },
            "0x0000000000000000000000000000000000c0def2": {
                "code": "0x61010060006101006000600061ca115af250",
                "balance": "0xba1a9ce0ba1a9ce",
                "nonce": "0x1"
            },
            "0x0000000000000000000000000000000000c0def4": {
                "code": "0x6101006000610100600061ca115af450",
                "balance": "0xba1a9ce0ba1a9ce",
                "nonce": "0x1"
            },
            "0x0000000000000000000000000000000000c0def5": {
                "code": "0x615a1761020060006000f5600055",
                "balance": "0xba1a9ce0ba1a9ce",
                "nonce": "0x1"
            },
            "0x0000000000000000000000000000000000c0defa": {
                "code": "0x6101006000610100600061ca115afa50",
                "balance": "0xba1a9ce0ba1a9ce",
                "nonce": "0x1"
            },
            "0xa94f5374fce5edbc8e2a8697c15331677e6ebf0b": {
                "balance": "0xba1a9ce0ba1a9ce",
                "nonce": "0x1"
            },
            "0xcccccccccccccccccccccccccccccccccccccccc": {
                "code": "0x60243560443560043562c0de000160005b6000811415603157600060006000600060008689f1905082840193505b6010565b82840360005550505050",
                "balance": "0xba1a9ce0ba1a9ce",
                "nonce": "0x1"
            }
        },
        "transaction": {
            "gasPrice": "0xa",
            "nonce": "0x1",
            "to": "0xcccccccccccccccccccccccccccccccccccccccc",
            "data": [
                "0x048071d300000000000000000000000000000000000000000000000000000000000000f000000000000000000000000000000000000000000000000000000000000000000000000000000000000000000000000000000000000000000000000000000064",
                "0x048071d300000000000000000000000000000000000000000000000000000000000000f500000000000000000000000000000000000000000000000000000000000000000000000000000000000000000000000000000000000000000000000000000064",
                "0x048071d300000000000000000000000000000000000000000000000000000000000000f100000000000000000000000000000000000000000000000000000000000000000000000000000000000000000000000000000000000000000000000000000064",
                "0x048071d300000000000000000000000000000000000000000000000000000000000000f200000000000000000000000000000000000000000000000000000000000000000000000000000000000000000000000000000000000000000000000000000064",
                "0x048071d300000000000000000000000000000000000000000000000000000000000000f400000000000000000000000000000000000000000000000000000000000000000000000000000000000000000000000000000000000000000000000000000064",
                "0x048071d300000000000000000000000000000000000000000000000000000000000000fa00000000000000000000000000000000000000000000000000000000000000000000000000000000000000000000000000000000000000000000000000000064",
                "0x048071d3000000000000000000000000000000000000000000000000000000000000005100000000000000000000000000000000000000000000000000000000000000000000000000000000000000000000000000000000000000000000000000000064",
                "0x048071d3000000000000000000000000000000000000000000000000000000000000005200000000000000000000000000000000000000000000000000000000000000000000000000000000000000000000000000000000000000000000000000000064",
                "0x048071d3000000000000000000000000000000000000000000000000000000000000005300000000000000000000000000000000000000000000000000000000000000000000000000000000000000000000000000000000000000000000000000000064",
                "0x048071d3000000000000000000000000000000000000000000000000000000000000002000000000000000000000000000000000000000000000000000000000000000000000000000000000000000000000000000000000000000000000000000000064",
                "0x048071d3000000000000000000000000000000000000000000000000000000000000003b00000000000000000000000000000000000000000000000000000000000000000000000000000000000000000000000000000000000000000000000000000064"
            ],
            "gasLimit": [
                "0x4c4b400"
            ],
            "value": [
                "0x00"
            ],
            "secretKey": "0x45a915e4d060149eb4365960e6a7a45f334393093061116b197e3240065ff2d8",
            "sender": "0xa94f5374fce5edbc8e2a8697c15331677e6ebf0b"
        },
        "post": {
            "ETC_Mystique": [
                {
                    "hash": "d14503de1d1d775162b821c015d815c5206861b7b91d822095eba02335e47501",
                    "logs": "1dcc4de8dec75d7aab85b567b6ccd41ad312451b948a7413f0a142fd40d49347",
                    "txbytes": "0xf8c6010a8404c4b40094cccccccccccccccccccccccccccccccccccccccc80b864048071d300000000000000000000000000000000000000000000000000000000000000f0000000000000000000000000000000000000000000000000000000000000000000000000000000000000000000000000000000000000000000000000000000641ba0e79226d6fb4d6f62aa46c992125b9d9124b2b4b895175622252724d1c37aa71fa05dd61945672ecf8f8cdc3bf795974f491086910486135019de888b62bef6d57f",
                    "indexes": {
                        "data": 0,
                        "gas": 0,
                        "value": 0
                    }
                },
                {
                    "hash": "96c1719e479ab50d585cd5439548d4856de09156bb6b09c5fb4fd3838e5936c5",
                    "logs": "1dcc4de8dec75d7aab85b567b6ccd41ad312451b948a7413f0a142fd40d49347",
                    "txbytes": "0xf8c6010a8404c4b40094cccccccccccccccccccccccccccccccccccccccc80b864048071d300000000000000000000000000000000000000000000000000000000000000f5000000000000000000000000000000000000000000000000000000000000000000000000000000000000000000000000000000000000000000000000000000641ca0ec34d6c15e3919fd6dfef7765332880bf7ac94025820813092a64a23317cf4bfa022530893f70e1c6ebb0ed4aedcdc02c8a95922263e5f2d0bd2ee93b2717bbfc9",
                    "indexes": {
                        "data": 1,
                        "gas": 0,
                        "value": 0
                    }
                },
                {
                    "hash": "1588da6e8c9a83c4f7993f953de7075f41188621d67a3522ade7872d92dd070b",
                    "logs": "1dcc4de8dec75d7aab85b567b6ccd41ad312451b948a7413f0a142fd40d49347",
                    "txbytes": "0xf8c6010a8404c4b40094cccccccccccccccccccccccccccccccccccccccc80b864048071d300000000000000000000000000000000000000000000000000000000000000f1000000000000000000000000000000000000000000000000000000000000000000000000000000000000000000000000000000000000000000000000000000641ca0de28fb2614a9a047de275bb330eb0dfb4aa78ae10b686eb773f1ba72c83c000ca072cddefb84c016c599af0e7ef8b517f3daad785008ca6c4152672305fed4356f",
                    "indexes": {
                        "data": 2,
                        "gas": 0,
                        "value": 0
                    }
                },
                {
                    "hash": "1588da6e8c9a83c4f7993f953de7075f41188621d67a3522ade7872d92dd070b",
                    "logs": "1dcc4de8dec75d7aab85b567b6ccd41ad312451b948a7413f0a142fd40d49347",
                    "txbytes": "0xf8c6010a8404c4b40094cccccccccccccccccccccccccccccccccccccccc80b864048071d300000000000000000000000000000000000000000000000000000000000000f2000000000000000000000000000000000000000000000000000000000000000000000000000000000000000000000000000000000000000000000000000000641ca0a2b8532cc5cfda8c35171d6e9b5d2cd9a0d0045197137d7bf0fa6ceac689f1eea066587a0471ab0f6b4f1158401ce5b3c4cae4ceff595633e655c3ad0ecb770bda",
                    "indexes": {
                        "data": 3,
                        "gas": 0,
                        "value": 0
                    }
                },
                {
                    "hash": "a29ad2f208bd36a7345e0d50f8ad13dc395171f33d9d9a1ce1b779bed8b2ea00",
                    "logs": "1dcc4de8dec75d7aab85b567b6ccd41ad312451b948a7413f0a142fd40d49347",
                    "txbytes": "0xf8c6010a8404c4b40094cccccccccccccccccccccccccccccccccccccccc80b864048071d300000000000000000000000000000000000000000000000000000000000000f4000000000000000000000000000000000000000000000000000000000000000000000000000000000000000000000000000000000000000000000000000000641ca0d2bb84e885bbf0411ce7bc413fdff49bdf458fec932fabfc0496dec8a0b86a73a010300894dbfabc1405d77549e9d5f7400be4b234b5e023287cfad282ee41369b",
                    "indexes": {
                        "data": 4,
                        "gas": 0,
                        "value": 0
                    }
                },
                {
                    "hash": "a29ad2f208bd36a7345e0d50f8ad13dc395171f33d9d9a1ce1b779bed8b2ea00",
                    "logs": "1dcc4de8dec75d7aab85b567b6ccd41ad312451b948a7413f0a142fd40d49347",
                    "txbytes": "0xf8c6010a8404c4b40094cccccccccccccccccccccccccccccccccccccccc80b864048071d300000000000000000000000000000000000000000000000000000000000000fa000000000000000000000000000000000000000000000000000000000000000000000000000000000000000000000000000000000000000000000000000000641ba0c33d32303f281c87dae4c4d25fb0aa0733149f9d185e604e891941c6ead9e5c6a01db4db57bce24cb8cbd53907c6d0fa80fc1be4449f43c77638e69cf51efe4ded",
                    "indexes": {
                        "data": 5,
                        "gas": 0,
                        "value": 0
                    }
                },
                {
                    "hash": "ef6252981eaa260ca73c26a21740c9445355efe0ee23039a3e2defaf9e0867a0",
                    "logs": "1dcc4de8dec75d7aab85b567b6ccd41ad312451b948a7413f0a142fd40d49347",
                    "txbytes": "0xf8c6010a8404c4b40094cccccccccccccccccccccccccccccccccccccccc80b864048071d30000000000000000000000000000000000000000000000000000000000000051000000000000000000000000000000000000000000000000000000000000000000000000000000000000000000000000000000000000000000000000000000641ca07ee19709bfa8d2ae5527eafd1910f2f4d68d9c880ae4842939e0190c62ac2165a06ddf2ba5726d2ef9a1ad00eb67a22803683cbe490040005cd4bfc74017903fc1",
                    "indexes": {
                        "data": 6,
                        "gas": 0,
                        "value": 0
                    }
                },
                {
                    "hash": "b8084a6cd6a23f87b311f848c42ec2e673864e2f2f412d7d609bb89392e831f9",
                    "logs": "1dcc4de8dec75d7aab85b567b6ccd41ad312451b948a7413f0a142fd40d49347",
                    "txbytes": "0xf8c6010a8404c4b40094cccccccccccccccccccccccccccccccccccccccc80b864048071d30000000000000000000000000000000000000000000000000000000000000052000000000000000000000000000000000000000000000000000000000000000000000000000000000000000000000000000000000000000000000000000000641ca0359aa041d192829e5264650622f072f8e9d5cd5223295e285dcd05de2395d9e9a03e0236fb1b073b67972321ccec33e3d66c87437187647d99f707be0a5cb26c56",
                    "indexes": {
                        "data": 7,
                        "gas": 0,
                        "value": 0
                    }
                },
                {
                    "hash": "e6c08149f193924b760c3dcc94362aeb12449dca4d18e3e692b78baa282d1c24",
                    "logs": "1dcc4de8dec75d7aab85b567b6ccd41ad312451b948a7413f0a142fd40d49347",
                    "txbytes": "0xf8c6010a8404c4b40094cccccccccccccccccccccccccccccccccccccccc80b864048071d30000000000000000000000000000000000000000000000000000000000000053000000000000000000000000000000000000000000000000000000000000000000000000000000000000000000000000000000000000000000000000000000641ca09f59444904740ec0738c3a39465aabe80426dac0eb88a2a7f6f0ad2214737db9a04ae7925a2f05b5b6e1a3b66f93202a60a13d3bb64a72d3501c81140fdbc7be28",
                    "indexes": {
                        "data": 8,
                        "gas": 0,
                        "value": 0
                    }
                },
                {
                    "hash": "b685ea570a32368089da1289696c4c46c8320fc9d1fba35fff749f4aafcc8a54",
                    "logs": "1dcc4de8dec75d7aab85b567b6ccd41ad312451b948a7413f0a142fd40d49347",
                    "txbytes": "0xf8c6010a8404c4b40094cccccccccccccccccccccccccccccccccccccccc80b864048071d3000000000000000000000000000000000000000000000000000000000000003b000000000000000000000000000000000000000000000000000000000000000000000000000000000000000000000000000000000000000000000000000000641ba06fffc7f41922ccf84c2e3f4494542c64326e25966ad7aabb59ff283d53dfa0dfa01590b9ca0c960ea1db4601be1bd32c99841ae63b7e33aa76e67e14859e624cb8",
                    "indexes": {
                        "data": 10,
                        "gas": 0,
                        "value": 0
                    }
                },
                {
                    "hash": "831ef948695cee9082a5312be07c69aebcba93bab2398b894af0be2853756fff",
                    "logs": "1dcc4de8dec75d7aab85b567b6ccd41ad312451b948a7413f0a142fd40d49347",
                    "txbytes": "0xf8c6010a8404c4b40094cccccccccccccccccccccccccccccccccccccccc80b864048071d30000000000000000000000000000000000000000000000000000000000000020000000000000000000000000000000000000000000000000000000000000000000000000000000000000000000000000000000000000000000000000000000641ba0f8389b0f125246d7f4b71521f8f9848d8e05f328fe9873a144e027a3272df974a06935a1543ae84f9d2bf5432b7603003111caf2e78b2ea7df2df54f98bce7479d",
                    "indexes": {
                        "data": 9,
                        "gas": 0,
                        "value": 0
                    }
                }
            ]
        }
    }
}