{
    "ContractStoreClearsSuccess": {
        "_info": {
            "comment": "",
            "filling-rpc-server": "evm version 1.10.16-unstable-0f893109-20220105",
            "filling-tool-version": "retesteth-0.2.2-testinfo+commit.01c6aac2.Linux.g++",
            "filledWith": "CoreGeth-1.12.9-unstable-4cf5b2b0837228e7d5eadba6a01ffb80e9288e21",
            "lllcversion": "Version: 0.5.14-develop.2021.11.27+commit.401d5358.Linux.g++",
            "source": "src/GeneralStateTestsFiller/stTransactionTest/ContractStoreClearsSuccessFiller.json",
            "sourceHash": "359c080988ebed14a51f3a037fdb2ccb6b6b8699222ff867489969e1b243bc06"
        },
        "env": {
            "currentCoinbase": "0xb94f5374fce5edbc8e2a8697c15331677e6ebf0b",
            "currentDifficulty": "0x20000",
            "currentGasLimit": "0x989680",
            "currentNumber": "0x1",
            "currentTimestamp": "0x3e8",
            "previousHash": "0x5e20a0453cecd065ea59c37ac63e079ee08998b6045136a8ce6635c7912ec0b6"
        },
        "pre": {
            "0xa94f5374fce5edbc8e2a8697c15331677e6ebf0b": {
                "code": "0x",
                "balance": "0x8583b00",
                "nonce": "0x0"
            },
            "0xd2571607e241ecf590ed94b12d87c94babe36db6": {
                "code": "0x600060005560006001556000600255600060035560006004556000600555600060065560006007556000600855600060095500",
                "storage": {
                    "0x0000000000000000000000000000000000000000000000000000000000000000": "0x000000000000000000000000000000000000000000000000000000000000000c",
                    "0x0000000000000000000000000000000000000000000000000000000000000001": "0x000000000000000000000000000000000000000000000000000000000000000c",
                    "0x0000000000000000000000000000000000000000000000000000000000000002": "0x000000000000000000000000000000000000000000000000000000000000000c",
                    "0x0000000000000000000000000000000000000000000000000000000000000003": "0x000000000000000000000000000000000000000000000000000000000000000c",
                    "0x0000000000000000000000000000000000000000000000000000000000000004": "0x000000000000000000000000000000000000000000000000000000000000000c",
                    "0x0000000000000000000000000000000000000000000000000000000000000005": "0x000000000000000000000000000000000000000000000000000000000000000c",
                    "0x0000000000000000000000000000000000000000000000000000000000000006": "0x000000000000000000000000000000000000000000000000000000000000000c",
                    "0x0000000000000000000000000000000000000000000000000000000000000007": "0x000000000000000000000000000000000000000000000000000000000000000c",
                    "0x0000000000000000000000000000000000000000000000000000000000000008": "0x000000000000000000000000000000000000000000000000000000000000000c",
                    "0x0000000000000000000000000000000000000000000000000000000000000009": "0x000000000000000000000000000000000000000000000000000000000000000c"
                },
                "balance": "0x0",
                "nonce": "0x0"
            }
        },
        "transaction": {
            "gasPrice": "0xa",
            "nonce": "0x0",
            "to": "0xd2571607e241ecf590ed94b12d87c94babe36db6",
            "data": [
                "0x"
            ],
            "gasLimit": [
                "0x1fbd0"
            ],
            "value": [
                "0x0a"
            ],
            "secretKey": "0x45a915e4d060149eb4365960e6a7a45f334393093061116b197e3240065ff2d8",
            "sender": "0xa94f5374fce5edbc8e2a8697c15331677e6ebf0b"
        },
        "post": {
            "ETC_Magneto": [
                {
                    "hash": "45e595a3fcebec7a7519615f0b5f56ffd98d9c5a91bdf3d7d2849979c7c3bd62",
                    "logs": "1dcc4de8dec75d7aab85b567b6ccd41ad312451b948a7413f0a142fd40d49347",
                    "txbytes": "0xf860800a8301fbd094d2571607e241ecf590ed94b12d87c94babe36db60a801ca01eb0a418d15685d7b053d7725ebda337bd63ac222ee8bb28396682e5c9faaf53a041cac48f3945316b2201122d65e8fb0eef3ca1d97cc53078cf9544e1b2d1521d",
                    "indexes": {
                        "data": 0,
                        "gas": 0,
                        "value": 0
                    }
                }
            ],
            "ETC_Mystique": [
                {
                    "hash": "902aec0575f0f6465f26f8d4826320d8b45892b42947ff7c2e342988feb094f6",
                    "logs": "1dcc4de8dec75d7aab85b567b6ccd41ad312451b948a7413f0a142fd40d49347",
                    "txbytes": "0xf860800a8301fbd094d2571607e241ecf590ed94b12d87c94babe36db60a801ca01eb0a418d15685d7b053d7725ebda337bd63ac222ee8bb28396682e5c9faaf53a041cac48f3945316b2201122d65e8fb0eef3ca1d97cc53078cf9544e1b2d1521d",
                    "indexes": {
                        "data": 0,
                        "gas": 0,
                        "value": 0
                    }
                }
            ],
            "ETC_Phoenix": [
                {
                    "hash": "45e595a3fcebec7a7519615f0b5f56ffd98d9c5a91bdf3d7d2849979c7c3bd62",
                    "logs": "1dcc4de8dec75d7aab85b567b6ccd41ad312451b948a7413f0a142fd40d49347",
                    "txbytes": "0xf860800a8301fbd094d2571607e241ecf590ed94b12d87c94babe36db60a801ca01eb0a418d15685d7b053d7725ebda337bd63ac222ee8bb28396682e5c9faaf53a041cac48f3945316b2201122d65e8fb0eef3ca1d97cc53078cf9544e1b2d1521d",
                    "indexes": {
                        "data": 0,
                        "gas": 0,
                        "value": 0
                    }
                }
            ]
        }
    }
}