{
    "ContractStoreClearsOOG": {
        "_info": {
            "comment": "",
            "filling-rpc-server": "evm version 1.10.16-unstable-0f893109-20220105",
            "filling-tool-version": "retesteth-0.2.2-testinfo+commit.01c6aac2.Linux.g++",
            "filledWith": "CoreGeth-1.12.9-unstable-4d59a861107c8232d6896811c48f229d30087be4",
            "lllcversion": "Version: 0.5.14-develop.2021.11.27+commit.401d5358.Linux.g++",
            "source": "src/GeneralStateTestsFiller/stTransactionTest/ContractStoreClearsOOGFiller.json",
            "sourceHash": "2a4527a4da13391ace81c87c091e14ec072d66fc17c6c00b273b3ed54b784c88"
        },
        "env": {
            "currentCoinbase": "0xb94f5374fce5edbc8e2a8697c15331677e6ebf0b",
            "currentDifficulty": "0x20000",
            "currentGasLimit": "0x186a0",
            "currentNumber": "0x1",
            "currentTimestamp": "0x3e8",
            "currentBaseFee": "0xa",
            "previousHash": "0x5e20a0453cecd065ea59c37ac63e079ee08998b6045136a8ce6635c7912ec0b6"
        },
        "pre": {
            "0xa94f5374fce5edbc8e2a8697c15331677e6ebf0b": {
                "balance": "0x1c9c380"
            },
            "0xd2571607e241ecf590ed94b12d87c94babe36db6": {
                "code": "0x600060005560006001556000600255600060035560006004556000600555600060065560006007556000600855600c60095500",
                "storage": {
                    "0x0000000000000000000000000000000000000000000000000000000000000000": "0x000000000000000000000000000000000000000000000000000000000000000c",
                    "0x0000000000000000000000000000000000000000000000000000000000000001": "0x000000000000000000000000000000000000000000000000000000000000000c",
                    "0x0000000000000000000000000000000000000000000000000000000000000002": "0x000000000000000000000000000000000000000000000000000000000000000c",
                    "0x0000000000000000000000000000000000000000000000000000000000000003": "0x000000000000000000000000000000000000000000000000000000000000000c",
                    "0x0000000000000000000000000000000000000000000000000000000000000004": "0x000000000000000000000000000000000000000000000000000000000000000c",
                    "0x0000000000000000000000000000000000000000000000000000000000000005": "0x000000000000000000000000000000000000000000000000000000000000000c",
                    "0x0000000000000000000000000000000000000000000000000000000000000006": "0x000000000000000000000000000000000000000000000000000000000000000c",
                    "0x0000000000000000000000000000000000000000000000000000000000000007": "0x000000000000000000000000000000000000000000000000000000000000000c",
                    "0x0000000000000000000000000000000000000000000000000000000000000008": "0x000000000000000000000000000000000000000000000000000000000000000c",
                    "0x0000000000000000000000000000000000000000000000000000000000000009": "0x000000000000000000000000000000000000000000000000000000000000000c"
                },
                "balance": "0x0"
            }
        },
        "transaction": {
            "gasPrice": "0xa",
            "nonce": "0x0",
            "to": "0xd2571607e241ecf590ed94b12d87c94babe36db6",
            "data": [
                "0x"
            ],
            "gasLimit": [
                "0x59d8"
            ],
            "value": [
                "0x0a"
            ],
            "secretKey": "0x45a915e4d060149eb4365960e6a7a45f334393093061116b197e3240065ff2d8",
            "sender": "0xa94f5374fce5edbc8e2a8697c15331677e6ebf0b"
        },
        "post": {
            "ETC_Magneto": [
                {
                    "hash": "602a8688968080e256491cc78a85d9ee0c8be317ef905a81088cae7940f54c74",
                    "logs": "1dcc4de8dec75d7aab85b567b6ccd41ad312451b948a7413f0a142fd40d49347",
                    "txbytes": "0xf85f800a8259d894d2571607e241ecf590ed94b12d87c94babe36db60a801ba0f1fba05f1d0dea1dd212bceeb0cca49f9746df353c5851d63ae78061b53a2ef7a067faa7b1fbd181a4280cc7bfc7e7892ad3a7c50d986d4d5bbfab345c581a8fe4",
                    "indexes": {
                        "data": 0,
                        "gas": 0,
                        "value": 0
                    }
                }
            ],
            "ETC_Mystique": [
                {
                    "hash": "602a8688968080e256491cc78a85d9ee0c8be317ef905a81088cae7940f54c74",
                    "logs": "1dcc4de8dec75d7aab85b567b6ccd41ad312451b948a7413f0a142fd40d49347",
                    "txbytes": "0xf85f800a8259d894d2571607e241ecf590ed94b12d87c94babe36db60a801ba0f1fba05f1d0dea1dd212bceeb0cca49f9746df353c5851d63ae78061b53a2ef7a067faa7b1fbd181a4280cc7bfc7e7892ad3a7c50d986d4d5bbfab345c581a8fe4",
                    "indexes": {
                        "data": 0,
                        "gas": 0,
                        "value": 0
                    }
                }
            ],
            "ETC_Phoenix": [
                {
                    "hash": "602a8688968080e256491cc78a85d9ee0c8be317ef905a81088cae7940f54c74",
                    "logs": "1dcc4de8dec75d7aab85b567b6ccd41ad312451b948a7413f0a142fd40d49347",
                    "txbytes": "0xf85f800a8259d894d2571607e241ecf590ed94b12d87c94babe36db60a801ba0f1fba05f1d0dea1dd212bceeb0cca49f9746df353c5851d63ae78061b53a2ef7a067faa7b1fbd181a4280cc7bfc7e7892ad3a7c50d986d4d5bbfab345c581a8fe4",
                    "indexes": {
                        "data": 0,
                        "gas": 0,
                        "value": 0
                    }
                }
            ]
        }
    }
}