{
    "HighGasLimit": {
        "_info": {
            "comment": "",
            "filling-rpc-server": "evm version 1.10.16-unstable-0f893109-20220105",
            "filling-tool-version": "retesteth-0.2.2-testinfo+commit.01c6aac2.Linux.g++",
            "filledWith": "CoreGeth-1.12.9-unstable-4cf5b2b0837228e7d5eadba6a01ffb80e9288e21",
            "lllcversion": "Version: 0.5.14-develop.2021.11.27+commit.401d5358.Linux.g++",
            "source": "src/GeneralStateTestsFiller/stTransactionTest/HighGasLimitFiller.json",
            "sourceHash": "11c8e54be8eadccc19ac13f8836759331070de3b8e9f1eda5f5e462cd3df155c"
        },
        "env": {
            "currentCoinbase": "0x2adc25665018aa1fe0e6bc666dac8fc2697ff9ba",
            "currentDifficulty": "0x20000",
            "currentGasLimit": "0x7fffffffffffffff",
            "currentNumber": "0x1",
            "currentTimestamp": "0x3e8",
            "previousHash": "0x5e20a0453cecd065ea59c37ac63e079ee08998b6045136a8ce6635c7912ec0b6"
        },
        "pre": {
            "0xa94f5374fce5edbc8e2a8697c15331677e6ebf0b": {
                "code": "0x",
                "balance": "0xffffffffffffffffffffffffffffffffffffffffffffffffffffffffffffffff",
                "nonce": "0x0"
            }
        },
        "transaction": {
            "gasPrice": "0xa",
            "nonce": "0x0",
            "to": "0xb94f5374fce5edbc8e2a8697c15331677e6ebf0b",
            "data": [
                "0x3240349548983454"
            ],
            "gasLimit": [
                "0x1000000000000000"
            ],
            "value": [
                "0x0384"
            ],
            "secretKey": "0x45a915e4d060149eb4365960e6a7a45f334393093061116b197e3240065ff2d8",
            "sender": "0xa94f5374fce5edbc8e2a8697c15331677e6ebf0b"
        },
        "post": {
            "ETC_Magneto": [
                {
                    "hash": "35221d531f8c318cd1f9d3134cc09c497bf741ba366812ca3313b03c557a3b93",
                    "logs": "1dcc4de8dec75d7aab85b567b6ccd41ad312451b948a7413f0a142fd40d49347",
                    "txbytes": "0xf86f800a88100000000000000094b94f5374fce5edbc8e2a8697c15331677e6ebf0b8203848832403495489834541ca0bf639352ff3906ac21955ab967762211495191cb24152a93356cb242cd1fafdba060c9523b6ec1a931c9cfb8041cfa5c8d670cf7725c3feea5f77609862d661f57",
                    "indexes": {
                        "data": 0,
                        "gas": 0,
                        "value": 0
                    }
                }
            ],
            "ETC_Mystique": [
                {
                    "hash": "35221d531f8c318cd1f9d3134cc09c497bf741ba366812ca3313b03c557a3b93",
                    "logs": "1dcc4de8dec75d7aab85b567b6ccd41ad312451b948a7413f0a142fd40d49347",
                    "txbytes": "0xf86f800a88100000000000000094b94f5374fce5edbc8e2a8697c15331677e6ebf0b8203848832403495489834541ca0bf639352ff3906ac21955ab967762211495191cb24152a93356cb242cd1fafdba060c9523b6ec1a931c9cfb8041cfa5c8d670cf7725c3feea5f77609862d661f57",
                    "indexes": {
                        "data": 0,
                        "gas": 0,
                        "value": 0
                    }
                }
            ],
            "ETC_Phoenix": [
                {
                    "hash": "35221d531f8c318cd1f9d3134cc09c497bf741ba366812ca3313b03c557a3b93",
                    "logs": "1dcc4de8dec75d7aab85b567b6ccd41ad312451b948a7413f0a142fd40d49347",
                    "txbytes": "0xf86f800a88100000000000000094b94f5374fce5edbc8e2a8697c15331677e6ebf0b8203848832403495489834541ca0bf639352ff3906ac21955ab967762211495191cb24152a93356cb242cd1fafdba060c9523b6ec1a931c9cfb8041cfa5c8d670cf7725c3feea5f77609862d661f57",
                    "indexes": {
                        "data": 0,
                        "gas": 0,
                        "value": 0
                    }
                }
            ]
        }
    }
}