{
    "InternalCallHittingGasLimit": {
        "_info": {
            "comment": "",
            "filling-rpc-server": "evm version 1.10.16-unstable-0f893109-20220105",
            "filling-tool-version": "retesteth-0.2.2-testinfo+commit.01c6aac2.Linux.g++",
            "filledWith": "CoreGeth-1.12.9-unstable-f4059ddd82d975bdc54fa648e5422a80172161cb",
            "lllcversion": "Version: 0.5.14-develop.2021.11.27+commit.401d5358.Linux.g++",
            "source": "src/GeneralStateTestsFiller/stTransactionTest/InternalCallHittingGasLimitFiller.json",
            "sourceHash": "51fc788408c6e4e174dc48b7aa3ef0d7e69bf994fac010e48c77f7dd223b1b1a"
        },
        "env": {
            "currentCoinbase": "2adf5374fce5edbc8e2a8697c15331677e6ebf0b",
            "currentDifficulty": "0x20000",
            "currentRandom": null,
            "currentGasLimit": "0x55f0",
            "currentNumber": "0x1",
            "currentTimestamp": "0x3e8",
            "currentBaseFee": "0xa"
        },
        "pre": {
            "0xa94f5374fce5edbc8e2a8697c15331677e6ebf0b": {
                "balance": "0x3b9aca00"
            },
            "0xb94f5374fce5edbc8e2a8697c15331677e6ebf0b": {
                "code": "0x6000600060006000600173c94f5374fce5edbc8e2a8697c15331677e6ebf0b611388f100",
                "balance": "0xf4240"
            },
            "0xc94f5374fce5edbc8e2a8697c15331677e6ebf0b": {
                "code": "0x603760015500",
                "balance": "0x0"
            }
        },
        "transaction": {
            "gasPrice": "0xa",
            "maxFeePerGas": null,
            "maxPriorityFeePerGas": null,
            "nonce": "0x0",
            "to": "0xb94f5374fce5edbc8e2a8697c15331677e6ebf0b",
            "data": [
                "0x"
            ],
            "gasLimit": [
                "0x526c"
            ],
            "value": [
                "0x0a"
            ],
            "secretKey": "0x45a915e4d060149eb4365960e6a7a45f334393093061116b197e3240065ff2d8"
        },
        "out": "0x",
        "post": {
            "ETC_Magneto": [
                {
                    "hash": "2515df0201cbed70420d7fd9672496c64c89628f1fa597f6b6defb7572d698b6",
                    "logs": "1dcc4de8dec75d7aab85b567b6ccd41ad312451b948a7413f0a142fd40d49347",
                    "txbytes": "0xf85f800a82526c94b94f5374fce5edbc8e2a8697c15331677e6ebf0b0a801ca003bfa7fac910e1662d691830bf3b402b922e1698518c7ee70f11504e9ae46cd4a00705438e4ac1dd0708395dcb11959fa65c7554530e7ec6a24789bbbe08153a5a",
                    "indexes": {
                        "data": 0,
                        "gas": 0,
                        "value": 0
                    }
                }
            ],
            "ETC_Mystique": [
                {
                    "hash": "2515df0201cbed70420d7fd9672496c64c89628f1fa597f6b6defb7572d698b6",
                    "logs": "1dcc4de8dec75d7aab85b567b6ccd41ad312451b948a7413f0a142fd40d49347",
                    "txbytes": "0xf85f800a82526c94b94f5374fce5edbc8e2a8697c15331677e6ebf0b0a801ca003bfa7fac910e1662d691830bf3b402b922e1698518c7ee70f11504e9ae46cd4a00705438e4ac1dd0708395dcb11959fa65c7554530e7ec6a24789bbbe08153a5a",
                    "indexes": {
                        "data": 0,
                        "gas": 0,
                        "value": 0
                    }
                }
            ],
            "ETC_Phoenix": [
                {
                    "hash": "2515df0201cbed70420d7fd9672496c64c89628f1fa597f6b6defb7572d698b6",
                    "logs": "1dcc4de8dec75d7aab85b567b6ccd41ad312451b948a7413f0a142fd40d49347",
                    "txbytes": "0xf85f800a82526c94b94f5374fce5edbc8e2a8697c15331677e6ebf0b0a801ca003bfa7fac910e1662d691830bf3b402b922e1698518c7ee70f11504e9ae46cd4a00705438e4ac1dd0708395dcb11959fa65c7554530e7ec6a24789bbbe08153a5a",
                    "indexes": {
                        "data": 0,
                        "gas": 0,
                        "value": 0
                    }
                }
            ]
        }
    }
}