{
    "InternalCallHittingGasLimit2": {
        "_info": {
            "comment": "",
            "filling-rpc-server": "evm version 1.10.16-unstable-0f893109-20220105",
            "filling-tool-version": "retesteth-0.2.2-testinfo+commit.01c6aac2.Linux.g++",
            "filledWith": "CoreGeth-1.12.9-unstable-f4059ddd82d975bdc54fa648e5422a80172161cb",
            "lllcversion": "Version: 0.5.14-develop.2021.11.27+commit.401d5358.Linux.g++",
            "source": "src/GeneralStateTestsFiller/stTransactionTest/InternalCallHittingGasLimit2Filler.json",
            "sourceHash": "e3b1cd88e125290f97f4d078c0d5a33dd5b9bdcc04ed0540a6c82ba39c18ba71"
        },
        "env": {
            "currentCoinbase": "2adf5374fce5edbc8e2a8697c15331677e6ebf0b",
            "currentDifficulty": "0x20000",
            "currentRandom": null,
            "currentGasLimit": "0xba96",
            "currentNumber": "0x1",
            "currentTimestamp": "0x3e8",
            "currentBaseFee": "0xa"
        },
        "pre": {
            "0xa94f5374fce5edbc8e2a8697c15331677e6ebf0b": {
                "balance": "0x3b9aca00"
            },
            "0xb94f5374fce5edbc8e2a8697c15331677e6ebf0b": {
                "code": "0x6000600060006000600173c94f5374fce5edbc8e2a8697c15331677e6ebf0b6161a8f100",
                "balance": "0x0"
            },
            "0xc94f5374fce5edbc8e2a8697c15331677e6ebf0b": {
                "code": "0x603760015500",
                "balance": "0x0"
            }
        },
        "transaction": {
            "gasPrice": "0xa",
            "maxFeePerGas": null,
            "maxPriorityFeePerGas": null,
            "nonce": "0x0",
            "to": "0xb94f5374fce5edbc8e2a8697c15331677e6ebf0b",
            "data": [
                "0x"
            ],
            "gasLimit": [
                "0xba96"
            ],
            "value": [
                "0x0a"
            ],
            "secretKey": "0x45a915e4d060149eb4365960e6a7a45f334393093061116b197e3240065ff2d8"
        },
        "out": "0x",
        "post": {
            "ETC_Magneto": [
                {
                    "hash": "cc14fa319a967d70c5af7d76a35f71ecbe3b3f4290bac5b30c52d11dcc215a0a",
                    "logs": "1dcc4de8dec75d7aab85b567b6ccd41ad312451b948a7413f0a142fd40d49347",
                    "txbytes": "0xf85f800a82ba9694b94f5374fce5edbc8e2a8697c15331677e6ebf0b0a801ba04ca425ac8b73d55369b88b2be6d7d537820415298ca706e3857e53d8b039f2dfa058cb65775b2406d461aadc00db14b743ea10cd5b254ebbe4b14218a6129715e7",
                    "indexes": {
                        "data": 0,
                        "gas": 0,
                        "value": 0
                    }
                }
            ],
            "ETC_Mystique": [
                {
                    "hash": "cc14fa319a967d70c5af7d76a35f71ecbe3b3f4290bac5b30c52d11dcc215a0a",
                    "logs": "1dcc4de8dec75d7aab85b567b6ccd41ad312451b948a7413f0a142fd40d49347",
                    "txbytes": "0xf85f800a82ba9694b94f5374fce5edbc8e2a8697c15331677e6ebf0b0a801ba04ca425ac8b73d55369b88b2be6d7d537820415298ca706e3857e53d8b039f2dfa058cb65775b2406d461aadc00db14b743ea10cd5b254ebbe4b14218a6129715e7",
                    "indexes": {
                        "data": 0,
                        "gas": 0,
                        "value": 0
                    }
                }
            ],
            "ETC_Phoenix": [
                {
                    "hash": "ce553e2e565ba3be08f614f2804e7e91a3ddf9e9eaa5f6f9bac82bb73a2e17dd",
                    "logs": "1dcc4de8dec75d7aab85b567b6ccd41ad312451b948a7413f0a142fd40d49347",
                    "txbytes": "0xf85f800a82ba9694b94f5374fce5edbc8e2a8697c15331677e6ebf0b0a801ba04ca425ac8b73d55369b88b2be6d7d537820415298ca706e3857e53d8b039f2dfa058cb65775b2406d461aadc00db14b743ea10cd5b254ebbe4b14218a6129715e7",
                    "indexes": {
                        "data": 0,
                        "gas": 0,
                        "value": 0
                    }
                }
            ]
        }
    }
}