{
    "InternalCallHittingGasLimitSuccess": {
        "_info": {
            "comment": "",
            "filling-rpc-server": "evm version 1.10.16-unstable-0f893109-20220105",
            "filling-tool-version": "retesteth-0.2.2-testinfo+commit.01c6aac2.Linux.g++",
            "filledWith": "CoreGeth-1.12.9-unstable-3995a327f2ded5c98324b03792b5ccc22557754f",
            "lllcversion": "Version: 0.5.14-develop.2021.11.27+commit.401d5358.Linux.g++",
            "source": "src/GeneralStateTestsFiller/stTransactionTest/InternalCallHittingGasLimitSuccessFiller.json",
            "sourceHash": "278ca8e2e04e9e2c63c004e79890c3c33cd4335eb03a672a4e95fd766bcc0a77"
        },
        "env": {
            "currentCoinbase": "0x2adf5374fce5edbc8e2a8697c15331677e6ebf0b",
            "currentDifficulty": "0x20000",
            "currentGasLimit": "0x35b60",
            "currentNumber": "0x1",
            "currentTimestamp": "0x3e8",
            "currentBaseFee": "0xa",
            "previousHash": "0x5e20a0453cecd065ea59c37ac63e079ee08998b6045136a8ce6635c7912ec0b6"
        },
        "pre": {
            "0xa94f5374fce5edbc8e2a8697c15331677e6ebf0b": {
                "balance": "0x3b9aca00"
            },
            "0xb94f5374fce5edbc8e2a8697c15331677e6ebf0b": {
                "code": "0x6000600060006000600173c94f5374fce5edbc8e2a8697c15331677e6ebf0b6161a8f100",
                "balance": "0x0"
            },
            "0xc94f5374fce5edbc8e2a8697c15331677e6ebf0b": {
                "code": "0x603760015500",
                "balance": "0x0"
            }
        },
        "transaction": {
            "gasPrice": "0xa",
            "nonce": "0x0",
            "to": "0xb94f5374fce5edbc8e2a8697c15331677e6ebf0b",
            "data": [
                "0x"
            ],
            "gasLimit": [
                "0x249f0"
            ],
            "value": [
                "0x0a"
            ],
            "secretKey": "0x45a915e4d060149eb4365960e6a7a45f334393093061116b197e3240065ff2d8",
            "sender": "0xa94f5374fce5edbc8e2a8697c15331677e6ebf0b"
        },
        "post": {
            "ETC_Magneto": [
                {
                    "hash": "45ef8b0ca59b3aaa8f2e2df3ea95cf1b132f83f4c4a2edd1bb462325b388ecbe",
                    "logs": "1dcc4de8dec75d7aab85b567b6ccd41ad312451b948a7413f0a142fd40d49347",
                    "txbytes": "0xf860800a830249f094b94f5374fce5edbc8e2a8697c15331677e6ebf0b0a801ca069541a8d05e90aecdaef0eb0451bbda4fda028aa7e0098c1260f27124903a3aea008ebb44ae37e6412972e8fb863296738dc5f6e1fa7a0fd9633e227429a48042f",
                    "indexes": {
                        "data": 0,
                        "gas": 0,
                        "value": 0
                    }
                }
            ],
            "ETC_Mystique": [
                {
                    "hash": "45ef8b0ca59b3aaa8f2e2df3ea95cf1b132f83f4c4a2edd1bb462325b388ecbe",
                    "logs": "1dcc4de8dec75d7aab85b567b6ccd41ad312451b948a7413f0a142fd40d49347",
                    "txbytes": "0xf860800a830249f094b94f5374fce5edbc8e2a8697c15331677e6ebf0b0a801ca069541a8d05e90aecdaef0eb0451bbda4fda028aa7e0098c1260f27124903a3aea008ebb44ae37e6412972e8fb863296738dc5f6e1fa7a0fd9633e227429a48042f",
                    "indexes": {
                        "data": 0,
                        "gas": 0,
                        "value": 0
                    }
                }
            ],
            "ETC_Phoenix": [
                {
                    "hash": "b6cad058acf185c96241edecc643c3c3f82c113b6b56d10c7d1d69e3dc9ca98f",
                    "logs": "1dcc4de8dec75d7aab85b567b6ccd41ad312451b948a7413f0a142fd40d49347",
                    "txbytes": "0xf860800a830249f094b94f5374fce5edbc8e2a8697c15331677e6ebf0b0a801ca069541a8d05e90aecdaef0eb0451bbda4fda028aa7e0098c1260f27124903a3aea008ebb44ae37e6412972e8fb863296738dc5f6e1fa7a0fd9633e227429a48042f",
                    "indexes": {
                        "data": 0,
                        "gas": 0,
                        "value": 0
                    }
                }
            ]
        }
    }
}