{
    "InternlCallStoreClearsSucces": {
        "_info": {
            "comment": "",
            "filling-rpc-server": "evm version 1.10.16-unstable-0f893109-20220105",
            "filling-tool-version": "retesteth-0.2.2-testinfo+commit.01c6aac2.Linux.g++",
            "filledWith": "CoreGeth-1.12.9-unstable-d64998ce9b05f4f41b35740c69c4b402e41a3105",
            "lllcversion": "Version: 0.5.14-develop.2021.11.27+commit.401d5358.Linux.g++",
            "source": "src/GeneralStateTestsFiller/stTransactionTest/InternlCallStoreClearsSuccesFiller.json",
            "sourceHash": "5b3d5ee0b1f7e95036235c6bc644eee09ee4eb482e4e09fae6779f2d188ac208"
        },
        "env": {
            "currentCoinbase": "0xb94f5374fce5edbc8e2a8697c15331677e6ebf0b",
            "currentDifficulty": "0x20000",
            "currentGasLimit": "0xf4240",
            "currentNumber": "0x1",
            "currentTimestamp": "0x3e8",
            "previousHash": "0x5e20a0453cecd065ea59c37ac63e079ee08998b6045136a8ce6635c7912ec0b6"
        },
        "pre": {
            "0x0000000000000000000000000000000000000000": {
                "code": "0x600060005560006001556000600255600060035560006004556000600555600060065560006007556000600855600060095500",
                "storage": {
                    "0x0000000000000000000000000000000000000000000000000000000000000000": "0x000000000000000000000000000000000000000000000000000000000000000c",
                    "0x0000000000000000000000000000000000000000000000000000000000000001": "0x000000000000000000000000000000000000000000000000000000000000000c",
                    "0x0000000000000000000000000000000000000000000000000000000000000002": "0x000000000000000000000000000000000000000000000000000000000000000c",
                    "0x0000000000000000000000000000000000000000000000000000000000000003": "0x000000000000000000000000000000000000000000000000000000000000000c",
                    "0x0000000000000000000000000000000000000000000000000000000000000004": "0x000000000000000000000000000000000000000000000000000000000000000c",
                    "0x0000000000000000000000000000000000000000000000000000000000000005": "0x000000000000000000000000000000000000000000000000000000000000000c",
                    "0x0000000000000000000000000000000000000000000000000000000000000006": "0x000000000000000000000000000000000000000000000000000000000000000c",
                    "0x0000000000000000000000000000000000000000000000000000000000000007": "0x000000000000000000000000000000000000000000000000000000000000000c",
                    "0x0000000000000000000000000000000000000000000000000000000000000008": "0x000000000000000000000000000000000000000000000000000000000000000c",
                    "0x0000000000000000000000000000000000000000000000000000000000000009": "0x000000000000000000000000000000000000000000000000000000000000000c"
                },
                "balance": "0x0"
            },
            "0xa94f5374fce5edbc8e2a8697c15331677e6ebf0b": {
                "balance": "0x3b9aca00"
            },
            "0xc94f5374fce5edbc8e2a8697c15331677e6ebf0b": {
                "code": "0x600060006000600060016000620186a0f100",
                "balance": "0xa"
            }
        },
        "transaction": {
            "gasPrice": "0xa",
            "nonce": "0x0",
            "to": "0xc94f5374fce5edbc8e2a8697c15331677e6ebf0b",
            "data": [
                "0x"
            ],
            "gasLimit": [
                "0x27100"
            ],
            "value": [
                "0x0a"
            ],
            "secretKey": "0x45a915e4d060149eb4365960e6a7a45f334393093061116b197e3240065ff2d8",
            "sender": "0xa94f5374fce5edbc8e2a8697c15331677e6ebf0b"
        },
        "post": {
            "ETC_Magneto": [
                {
                    "hash": "015258179dcc61049d99b59134106fe9124bf85e8fa2c85ebe83383cd7fe74d4",
                    "logs": "1dcc4de8dec75d7aab85b567b6ccd41ad312451b948a7413f0a142fd40d49347",
                    "txbytes": "0xf860800a8302710094c94f5374fce5edbc8e2a8697c15331677e6ebf0b0a801ca01b09da9879da722c5decb614abb43b747401549386dceddc50798d29e2a4c2fca03480b02f1b1d38d6a8f46bf4e60f9151f07762dc2a008f7aecf7b1b64659cf89",
                    "indexes": {
                        "data": 0,
                        "gas": 0,
                        "value": 0
                    }
                }
            ],
            "ETC_Mystique": [
                {
                    "hash": "165f39134df841fd9f37121bc1e3a72472dd1d7159f4391951848f0c24c8f7c0",
                    "logs": "1dcc4de8dec75d7aab85b567b6ccd41ad312451b948a7413f0a142fd40d49347",
                    "txbytes": "0xf860800a8302710094c94f5374fce5edbc8e2a8697c15331677e6ebf0b0a801ca01b09da9879da722c5decb614abb43b747401549386dceddc50798d29e2a4c2fca03480b02f1b1d38d6a8f46bf4e60f9151f07762dc2a008f7aecf7b1b64659cf89",
                    "indexes": {
                        "data": 0,
                        "gas": 0,
                        "value": 0
                    }
                }
            ],
            "ETC_Phoenix": [
                {
                    "hash": "210a807cb139ea1f172370226cfae297e792ba2e415c5a63585f35021497be7b",
                    "logs": "1dcc4de8dec75d7aab85b567b6ccd41ad312451b948a7413f0a142fd40d49347",
                    "txbytes": "0xf860800a8302710094c94f5374fce5edbc8e2a8697c15331677e6ebf0b0a801ca01b09da9879da722c5decb614abb43b747401549386dceddc50798d29e2a4c2fca03480b02f1b1d38d6a8f46bf4e60f9151f07762dc2a008f7aecf7b1b64659cf89",
                    "indexes": {
                        "data": 0,
                        "gas": 0,
                        "value": 0
                    }
                }
            ]
        }
    }
}