{
    "StoreClearsAndInternlCallStoreClearsOOG": {
        "_info": {
            "comment": "",
            "filling-rpc-server": "evm version 1.10.16-unstable-0f893109-20220105",
            "filling-tool-version": "retesteth-0.2.2-testinfo+commit.01c6aac2.Linux.g++",
            "filledWith": "CoreGeth-1.12.9-unstable-d390462df9df233b60b4cd7a37db5b3043832022",
            "lllcversion": "Version: 0.5.14-develop.2021.11.27+commit.401d5358.Linux.g++",
            "source": "src/GeneralStateTestsFiller/stTransactionTest/StoreClearsAndInternlCallStoreClearsOOGFiller.json",
            "sourceHash": "fe3ad453fdb5f7e93dab8946e93b773a88cdc18dc11e320989a5e4de6f1d213d"
        },
        "env": {
            "currentCoinbase": "0xb94f5374fce5edbc8e2a8697c15331677e6ebf0b",
            "currentDifficulty": "0x20000",
            "currentGasLimit": "0x989680",
            "currentNumber": "0x1",
            "currentTimestamp": "0x3e8",
            "previousHash": "0x5e20a0453cecd065ea59c37ac63e079ee08998b6045136a8ce6635c7912ec0b6"
        },
        "pre": {
            "0x0000000000000000000000000000000000000000": {
                "code": "0x600060005560006001556000600255600060035560006004556000600555600060065560006007556000600855600060095500",
                "storage": {
                    "0x0000000000000000000000000000000000000000000000000000000000000000": "0x000000000000000000000000000000000000000000000000000000000000000c",
                    "0x0000000000000000000000000000000000000000000000000000000000000001": "0x000000000000000000000000000000000000000000000000000000000000000c",
                    "0x0000000000000000000000000000000000000000000000000000000000000002": "0x000000000000000000000000000000000000000000000000000000000000000c",
                    "0x0000000000000000000000000000000000000000000000000000000000000003": "0x000000000000000000000000000000000000000000000000000000000000000c",
                    "0x0000000000000000000000000000000000000000000000000000000000000004": "0x000000000000000000000000000000000000000000000000000000000000000c",
                    "0x0000000000000000000000000000000000000000000000000000000000000005": "0x000000000000000000000000000000000000000000000000000000000000000c",
                    "0x0000000000000000000000000000000000000000000000000000000000000006": "0x000000000000000000000000000000000000000000000000000000000000000c",
                    "0x0000000000000000000000000000000000000000000000000000000000000007": "0x000000000000000000000000000000000000000000000000000000000000000c",
                    "0x0000000000000000000000000000000000000000000000000000000000000008": "0x000000000000000000000000000000000000000000000000000000000000000c",
                    "0x0000000000000000000000000000000000000000000000000000000000000009": "0x000000000000000000000000000000000000000000000000000000000000000c"
                },
                "balance": "0x0",
                "nonce": "0x0"
            },
            "0xa94f5374fce5edbc8e2a8697c15331677e6ebf0b": {
                "code": "0x",
                "balance": "0x1dcd6500",
                "nonce": "0x0"
            },
            "0xc94f5374fce5edbc8e2a8697c15331677e6ebf0b": {
                "code": "0x6000600055600060015560006002556000600355600060006000600060016000614e20f100",
                "storage": {
                    "0x0000000000000000000000000000000000000000000000000000000000000000": "0x000000000000000000000000000000000000000000000000000000000000000c",
                    "0x0000000000000000000000000000000000000000000000000000000000000001": "0x000000000000000000000000000000000000000000000000000000000000000c",
                    "0x0000000000000000000000000000000000000000000000000000000000000002": "0x000000000000000000000000000000000000000000000000000000000000000c",
                    "0x0000000000000000000000000000000000000000000000000000000000000003": "0x000000000000000000000000000000000000000000000000000000000000000c",
                    "0x0000000000000000000000000000000000000000000000000000000000000004": "0x000000000000000000000000000000000000000000000000000000000000000c"
                },
                "balance": "0xa",
                "nonce": "0x0"
            }
        },
        "transaction": {
            "gasPrice": "0xa",
            "nonce": "0x0",
            "to": "0xc94f5374fce5edbc8e2a8697c15331677e6ebf0b",
            "data": [
                "0x"
            ],
            "gasLimit": [
                "0x30d40"
            ],
            "value": [
                "0x0a"
            ],
            "secretKey": "0x45a915e4d060149eb4365960e6a7a45f334393093061116b197e3240065ff2d8",
            "sender": "0xa94f5374fce5edbc8e2a8697c15331677e6ebf0b"
        },
        "post": {
            "ETC_Magneto": [
                {
                    "hash": "3e20fdc168541f6cccee4611d39f9f6f44cb1d60b9dac1c522f88b2aa06bd423",
                    "logs": "1dcc4de8dec75d7aab85b567b6ccd41ad312451b948a7413f0a142fd40d49347",
                    "txbytes": "0xf860800a83030d4094c94f5374fce5edbc8e2a8697c15331677e6ebf0b0a801ca0c9291e5983826f6d4d7cc91d0c22bf9e8079174ade181f2312bbef40d7f7dfc3a01670558c27459ba78b92ad368f4f6e15a84275da139a10c3c602d4baf61ebdbf",
                    "indexes": {
                        "data": 0,
                        "gas": 0,
                        "value": 0
                    }
                }
            ],
            "ETC_Mystique": [
                {
                    "hash": "026dee512437c8f39b59e820cde083e68d737abf1444adc6cd63a5cbe29404e9",
                    "logs": "1dcc4de8dec75d7aab85b567b6ccd41ad312451b948a7413f0a142fd40d49347",
                    "txbytes": "0xf860800a83030d4094c94f5374fce5edbc8e2a8697c15331677e6ebf0b0a801ca0c9291e5983826f6d4d7cc91d0c22bf9e8079174ade181f2312bbef40d7f7dfc3a01670558c27459ba78b92ad368f4f6e15a84275da139a10c3c602d4baf61ebdbf",
                    "indexes": {
                        "data": 0,
                        "gas": 0,
                        "value": 0
                    }
                }
            ],
            "ETC_Phoenix": [
                {
                    "hash": "26660767410cdfbf8103a8a1d245f18a15edd431fcb494901cbe78e3494d661f",
                    "logs": "1dcc4de8dec75d7aab85b567b6ccd41ad312451b948a7413f0a142fd40d49347",
                    "txbytes": "0xf860800a83030d4094c94f5374fce5edbc8e2a8697c15331677e6ebf0b0a801ca0c9291e5983826f6d4d7cc91d0c22bf9e8079174ade181f2312bbef40d7f7dfc3a01670558c27459ba78b92ad368f4f6e15a84275da139a10c3c602d4baf61ebdbf",
                    "indexes": {
                        "data": 0,
                        "gas": 0,
                        "value": 0
                    }
                }
            ]
        }
    }
}