{
    "StoreClearsAndInternlCallStoreClearsSuccess": {
        "_info": {
            "comment": "",
            "filling-rpc-server": "evm version 1.10.16-unstable-0f893109-20220105",
            "filling-tool-version": "retesteth-0.2.2-testinfo+commit.01c6aac2.Linux.g++",
            "filledWith": "CoreGeth-1.12.9-unstable-d64998ce9b05f4f41b35740c69c4b402e41a3105",
            "lllcversion": "Version: 0.5.14-develop.2021.11.27+commit.401d5358.Linux.g++",
            "source": "src/GeneralStateTestsFiller/stTransactionTest/StoreClearsAndInternlCallStoreClearsSuccessFiller.json",
            "sourceHash": "0ec14fa2d9591662afc533136f4f373006b93c16da137a2f68570bc44861e61f"
        },
        "env": {
            "currentCoinbase": "0xb94f5374fce5edbc8e2a8697c15331677e6ebf0b",
            "currentDifficulty": "0x20000",
            "currentGasLimit": "0x989680",
            "currentNumber": "0x1",
            "currentTimestamp": "0x3e8",
            "previousHash": "0x5e20a0453cecd065ea59c37ac63e079ee08998b6045136a8ce6635c7912ec0b6"
        },
        "pre": {
            "0x0000000000000000000000000000000000000000": {
                "code": "0x600060005560006001556000600255600060035560006004556000600555600060065560006007556000600855600060095500",
                "storage": {
                    "0x0000000000000000000000000000000000000000000000000000000000000000": "0x000000000000000000000000000000000000000000000000000000000000000c",
                    "0x0000000000000000000000000000000000000000000000000000000000000001": "0x000000000000000000000000000000000000000000000000000000000000000c",
                    "0x0000000000000000000000000000000000000000000000000000000000000002": "0x000000000000000000000000000000000000000000000000000000000000000c",
                    "0x0000000000000000000000000000000000000000000000000000000000000003": "0x000000000000000000000000000000000000000000000000000000000000000c",
                    "0x0000000000000000000000000000000000000000000000000000000000000004": "0x000000000000000000000000000000000000000000000000000000000000000c",
                    "0x0000000000000000000000000000000000000000000000000000000000000005": "0x000000000000000000000000000000000000000000000000000000000000000c",
                    "0x0000000000000000000000000000000000000000000000000000000000000006": "0x000000000000000000000000000000000000000000000000000000000000000c",
                    "0x0000000000000000000000000000000000000000000000000000000000000007": "0x000000000000000000000000000000000000000000000000000000000000000c",
                    "0x0000000000000000000000000000000000000000000000000000000000000008": "0x000000000000000000000000000000000000000000000000000000000000000c",
                    "0x0000000000000000000000000000000000000000000000000000000000000009": "0x000000000000000000000000000000000000000000000000000000000000000c"
                },
                "balance": "0x0"
            },
            "0xa94f5374fce5edbc8e2a8697c15331677e6ebf0b": {
                "balance": "0x1dcd6500"
            },
            "0xc94f5374fce5edbc8e2a8697c15331677e6ebf0b": {
                "code": "0x600060005560006001556000600255600060035560006000600060006001600061c350f100",
                "storage": {
                    "0x0000000000000000000000000000000000000000000000000000000000000000": "0x000000000000000000000000000000000000000000000000000000000000000c",
                    "0x0000000000000000000000000000000000000000000000000000000000000001": "0x000000000000000000000000000000000000000000000000000000000000000c",
                    "0x0000000000000000000000000000000000000000000000000000000000000002": "0x000000000000000000000000000000000000000000000000000000000000000c",
                    "0x0000000000000000000000000000000000000000000000000000000000000003": "0x000000000000000000000000000000000000000000000000000000000000000c",
                    "0x0000000000000000000000000000000000000000000000000000000000000004": "0x000000000000000000000000000000000000000000000000000000000000000c"
                },
                "balance": "0xa"
            }
        },
        "transaction": {
            "gasPrice": "0xa",
            "nonce": "0x0",
            "to": "0xc94f5374fce5edbc8e2a8697c15331677e6ebf0b",
            "data": [
                "0x"
            ],
            "gasLimit": [
                "0x30d40"
            ],
            "value": [
                "0x0a"
            ],
            "secretKey": "0x45a915e4d060149eb4365960e6a7a45f334393093061116b197e3240065ff2d8",
            "sender": "0xa94f5374fce5edbc8e2a8697c15331677e6ebf0b"
        },
        "post": {
            "ETC_Magneto": [
                {
                    "hash": "a8bccc0317002ca49e859b87c789fc1381bc7a277d023c231505bb243f67cfb4",
                    "logs": "1dcc4de8dec75d7aab85b567b6ccd41ad312451b948a7413f0a142fd40d49347",
                    "txbytes": "0xf860800a83030d4094c94f5374fce5edbc8e2a8697c15331677e6ebf0b0a801ca0c9291e5983826f6d4d7cc91d0c22bf9e8079174ade181f2312bbef40d7f7dfc3a01670558c27459ba78b92ad368f4f6e15a84275da139a10c3c602d4baf61ebdbf",
                    "indexes": {
                        "data": 0,
                        "gas": 0,
                        "value": 0
                    }
                }
            ],
            "ETC_Mystique": [
                {
                    "hash": "78f8d0310c9a6242b98a875f7dea6586a0f9187b15d81593ec91718d971ae66e",
                    "logs": "1dcc4de8dec75d7aab85b567b6ccd41ad312451b948a7413f0a142fd40d49347",
                    "txbytes": "0xf860800a83030d4094c94f5374fce5edbc8e2a8697c15331677e6ebf0b0a801ca0c9291e5983826f6d4d7cc91d0c22bf9e8079174ade181f2312bbef40d7f7dfc3a01670558c27459ba78b92ad368f4f6e15a84275da139a10c3c602d4baf61ebdbf",
                    "indexes": {
                        "data": 0,
                        "gas": 0,
                        "value": 0
                    }
                }
            ],
            "ETC_Phoenix": [
                {
                    "hash": "ddab1e12e91963393bfeddd012c373b37e33abf5c61f2dc633b5792ac82c3c31",
                    "logs": "1dcc4de8dec75d7aab85b567b6ccd41ad312451b948a7413f0a142fd40d49347",
                    "txbytes": "0xf860800a83030d4094c94f5374fce5edbc8e2a8697c15331677e6ebf0b0a801ca0c9291e5983826f6d4d7cc91d0c22bf9e8079174ade181f2312bbef40d7f7dfc3a01670558c27459ba78b92ad368f4f6e15a84275da139a10c3c602d4baf61ebdbf",
                    "indexes": {
                        "data": 0,
                        "gas": 0,
                        "value": 0
                    }
                }
            ]
        }
    }
}