{
    "SuicidesAndInternlCallSuicidesBonusGasAtCallFailed": {
        "_info": {
            "comment": "",
            "filling-rpc-server": "evm version 1.10.16-unstable-0f893109-20220105",
            "filling-tool-version": "retesteth-0.2.2-testinfo+commit.01c6aac2.Linux.g++",
            "filledWith": "CoreGeth-1.12.9-unstable-ab16c56768f0284ab56a30aac9550d3ebdc45901",
            "lllcversion": "Version: 0.5.14-develop.2021.11.27+commit.401d5358.Linux.g++",
            "source": "src/GeneralStateTestsFiller/stTransactionTest/SuicidesAndInternlCallSuicidesBonusGasAtCallFailedFiller.json",
            "sourceHash": "63a4f814ee7d8f86b30fc627cceaa2304b2211c3cbac90993e7d33f538e343b1"
        },
        "env": {
            "currentCoinbase": "0xb94f5374fce5edbc8e2a8697c15331677e6ebf0b",
            "currentDifficulty": "0x20000",
            "currentGasLimit": "0xf4240",
            "currentNumber": "0x1",
            "currentTimestamp": "0x3e8",
            "currentBaseFee": "0xa",
            "previousHash": "0x5e20a0453cecd065ea59c37ac63e079ee08998b6045136a8ce6635c7912ec0b6"
        },
        "pre": {
            "0x0000000000000000000000000000000000000000": {
                "code": "0x6001ff00",
                "balance": "0x0"
            },
            "0xa94f5374fce5edbc8e2a8697c15331677e6ebf0b": {
                "balance": "0x5f5e100"
            },
            "0xc94f5374fce5edbc8e2a8697c15331677e6ebf0b": {
                "code": "0x6000600060006000600060006000f1506000ff00",
                "balance": "0xa"
            }
        },
        "transaction": {
            "gasPrice": "0xa",
            "nonce": "0x0",
            "to": "0xc94f5374fce5edbc8e2a8697c15331677e6ebf0b",
            "data": [
                "0x"
            ],
            "gasLimit": [
                "0xc350"
            ],
            "value": [
                "0x0a"
            ],
            "secretKey": "0x45a915e4d060149eb4365960e6a7a45f334393093061116b197e3240065ff2d8",
            "sender": "0xa94f5374fce5edbc8e2a8697c15331677e6ebf0b"
        },
        "post": {
            "ETC_Magneto": [
                {
                    "hash": "f06726e88dab2fa08e6f545793fe418ca50916fdb850be8b64686a562af9cdd5",
                    "logs": "1dcc4de8dec75d7aab85b567b6ccd41ad312451b948a7413f0a142fd40d49347",
                    "txbytes": "0xf85f800a82c35094c94f5374fce5edbc8e2a8697c15331677e6ebf0b0a801ca04bec1be9ee435b6007f1c0836637b02553a853728a7a826c45dd033e66aa7f73a03f0169232ad638e31802b935fca13510dfa18db05e69a953023b96ec2460a769",
                    "indexes": {
                        "data": 0,
                        "gas": 0,
                        "value": 0
                    }
                }
            ],
            "ETC_Mystique": [
                {
                    "hash": "0646d2e89814ac905ff3b072442a0f3429b0cd993e8be79da773000641a2cbb0",
                    "logs": "1dcc4de8dec75d7aab85b567b6ccd41ad312451b948a7413f0a142fd40d49347",
                    "txbytes": "0xf85f800a82c35094c94f5374fce5edbc8e2a8697c15331677e6ebf0b0a801ca04bec1be9ee435b6007f1c0836637b02553a853728a7a826c45dd033e66aa7f73a03f0169232ad638e31802b935fca13510dfa18db05e69a953023b96ec2460a769",
                    "indexes": {
                        "data": 0,
                        "gas": 0,
                        "value": 0
                    }
                }
            ],
            "ETC_Phoenix": [
                {
                    "hash": "b52aef0fd57e5d2168e38e1ed5299d20241dba07a252c972ca1259216908cfd1",
                    "logs": "1dcc4de8dec75d7aab85b567b6ccd41ad312451b948a7413f0a142fd40d49347",
                    "txbytes": "0xf85f800a82c35094c94f5374fce5edbc8e2a8697c15331677e6ebf0b0a801ca04bec1be9ee435b6007f1c0836637b02553a853728a7a826c45dd033e66aa7f73a03f0169232ad638e31802b935fca13510dfa18db05e69a953023b96ec2460a769",
                    "indexes": {
                        "data": 0,
                        "gas": 0,
                        "value": 0
                    }
                }
            ]
        }
    }
}