{
    "SuicidesStopAfterSuicide": {
        "_info": {
            "comment": "",
            "filling-rpc-server": "evm version 1.10.16-unstable-0f893109-20220105",
            "filling-tool-version": "retesteth-0.2.2-testinfo+commit.01c6aac2.Linux.g++",
            "filledWith": "CoreGeth-1.12.9-unstable-ab16c56768f0284ab56a30aac9550d3ebdc45901",
            "lllcversion": "Version: 0.5.14-develop.2021.11.27+commit.401d5358.Linux.g++",
            "source": "src/GeneralStateTestsFiller/stTransactionTest/SuicidesStopAfterSuicideFiller.json",
            "sourceHash": "90854fbabdf25c276c57f842da37856f16d2dee03c59ae4183ff9f7b30109fc6"
        },
        "env": {
            "currentCoinbase": "0xb94f5374fce5edbc8e2a8697c15331677e6ebf0b",
            "currentDifficulty": "0x20000",
            "currentGasLimit": "0x186a0",
            "currentNumber": "0x1",
            "currentTimestamp": "0x3e8",
            "currentBaseFee": "0xa",
            "previousHash": "0x5e20a0453cecd065ea59c37ac63e079ee08998b6045136a8ce6635c7912ec0b6"
        },
        "pre": {
            "0x0000000000000000000000000000000000000000": {
                "code": "0x6001ff00",
                "balance": "0x456"
            },
            "0xa94f5374fce5edbc8e2a8697c15331677e6ebf0b": {
                "balance": "0x7459280"
            },
            "0xc94f5374fce5edbc8e2a8697c15331677e6ebf0b": {
                "code": "0x6000ff600060006000600060006000617530f100",
                "balance": "0x2710"
            }
        },
        "transaction": {
            "gasPrice": "0xa",
            "nonce": "0x0",
            "to": "0xc94f5374fce5edbc8e2a8697c15331677e6ebf0b",
            "data": [
                "0x"
            ],
            "gasLimit": [
                "0x146f4"
            ],
            "value": [
                "0x0a"
            ],
            "secretKey": "0x45a915e4d060149eb4365960e6a7a45f334393093061116b197e3240065ff2d8",
            "sender": "0xa94f5374fce5edbc8e2a8697c15331677e6ebf0b"
        },
        "post": {
            "ETC_Magneto": [
                {
                    "hash": "d53bb3d2c7e0779bb8729ae9cd90a2400040f85582a4e5ac263ad0536da3a162",
                    "logs": "1dcc4de8dec75d7aab85b567b6ccd41ad312451b948a7413f0a142fd40d49347",
                    "txbytes": "0xf860800a830146f494c94f5374fce5edbc8e2a8697c15331677e6ebf0b0a801ba067b705b92163ccfd9705cfbe4a5df1b72d71a0b225ef9991d1c44570306f2002a04a28fa12146d50bd38a4c4420e596a369e28bb7beeb1837d22f27df8a66c3425",
                    "indexes": {
                        "data": 0,
                        "gas": 0,
                        "value": 0
                    }
                }
            ],
            "ETC_Mystique": [
                {
                    "hash": "4d67589da55e8c178e9708d91576754e87ce3a08b7763084ada2312880a16fb4",
                    "logs": "1dcc4de8dec75d7aab85b567b6ccd41ad312451b948a7413f0a142fd40d49347",
                    "txbytes": "0xf860800a830146f494c94f5374fce5edbc8e2a8697c15331677e6ebf0b0a801ba067b705b92163ccfd9705cfbe4a5df1b72d71a0b225ef9991d1c44570306f2002a04a28fa12146d50bd38a4c4420e596a369e28bb7beeb1837d22f27df8a66c3425",
                    "indexes": {
                        "data": 0,
                        "gas": 0,
                        "value": 0
                    }
                }
            ],
            "ETC_Phoenix": [
                {
                    "hash": "e90293ef704e013e4b4ebb4077aa7163bdd1181b2dc690791f9f0841b6e34b6e",
                    "logs": "1dcc4de8dec75d7aab85b567b6ccd41ad312451b948a7413f0a142fd40d49347",
                    "txbytes": "0xf860800a830146f494c94f5374fce5edbc8e2a8697c15331677e6ebf0b0a801ba067b705b92163ccfd9705cfbe4a5df1b72d71a0b225ef9991d1c44570306f2002a04a28fa12146d50bd38a4c4420e596a369e28bb7beeb1837d22f27df8a66c3425",
                    "indexes": {
                        "data": 0,
                        "gas": 0,
                        "value": 0
                    }
                }
            ]
        }
    }
}