{
    "SuicidesAndSendMoneyToItselfEtherDestroyed": {
        "_info": {
            "comment": "",
            "filling-rpc-server": "evm version 1.10.16-unstable-0f893109-20220105",
            "filling-tool-version": "retesteth-0.2.2-testinfo+commit.01c6aac2.Linux.g++",
            "filledWith": "CoreGeth-1.12.9-unstable-ab16c56768f0284ab56a30aac9550d3ebdc45901",
            "lllcversion": "Version: 0.5.14-develop.2021.11.27+commit.401d5358.Linux.g++",
            "source": "src/GeneralStateTestsFiller/stTransactionTest/SuicidesAndSendMoneyToItselfEtherDestroyedFiller.json",
            "sourceHash": "5771e7b80d59c0da2762781824f83116bdb7129cb5c087941eeddc24af3d090b"
        },
        "env": {
            "currentCoinbase": "0xb94f5374fce5edbc8e2a8697c15331677e6ebf0b",
            "currentDifficulty": "0x20000",
            "currentGasLimit": "0xf4240",
            "currentNumber": "0x1",
            "currentTimestamp": "0x3e8",
            "currentBaseFee": "0xa",
            "previousHash": "0x5e20a0453cecd065ea59c37ac63e079ee08998b6045136a8ce6635c7912ec0b6"
        },
        "pre": {
            "0xa94f5374fce5edbc8e2a8697c15331677e6ebf0b": {
                "balance": "0x7459280"
            },
            "0xb94f5374fce5edbc8e2a8697c15331677e6ebf0b": {
                "balance": "0x0",
                "nonce": "0x1"
            },
            "0xc94f5374fce5edbc8e2a8697c15331677e6ebf0b": {
                "code": "0x73c94f5374fce5edbc8e2a8697c15331677e6ebf0bff00",
                "balance": "0x3e8"
            }
        },
        "transaction": {
            "gasPrice": "0xa",
            "nonce": "0x0",
            "to": "0xc94f5374fce5edbc8e2a8697c15331677e6ebf0b",
            "data": [
                "0x"
            ],
            "gasLimit": [
                "0x7bd4"
            ],
            "value": [
                "0x0a"
            ],
            "secretKey": "0x45a915e4d060149eb4365960e6a7a45f334393093061116b197e3240065ff2d8",
            "sender": "0xa94f5374fce5edbc8e2a8697c15331677e6ebf0b"
        },
        "post": {
            "ETC_Magneto": [
                {
                    "hash": "c23ae2f8ef4f933a77cf71f42319a5254d0f39894b7f78bb4b71626e87d6bdf0",
                    "logs": "1dcc4de8dec75d7aab85b567b6ccd41ad312451b948a7413f0a142fd40d49347",
                    "txbytes": "0xf85f800a827bd494c94f5374fce5edbc8e2a8697c15331677e6ebf0b0a801ba0606dc92cee78534d6034c9ba7369fed826526c6ca619da932ada213706ef49daa039d2c16bb0f35009e8032a1c6dd0c45cdead7bad6e3af951c105b405b08d6683",
                    "indexes": {
                        "data": 0,
                        "gas": 0,
                        "value": 0
                    }
                }
            ],
            "ETC_Mystique": [
                {
                    "hash": "f60d1b1e4c5909da724ec220a441818ec365ab05286e50cfcb2c817b61d0dc03",
                    "logs": "1dcc4de8dec75d7aab85b567b6ccd41ad312451b948a7413f0a142fd40d49347",
                    "txbytes": "0xf85f800a827bd494c94f5374fce5edbc8e2a8697c15331677e6ebf0b0a801ba0606dc92cee78534d6034c9ba7369fed826526c6ca619da932ada213706ef49daa039d2c16bb0f35009e8032a1c6dd0c45cdead7bad6e3af951c105b405b08d6683",
                    "indexes": {
                        "data": 0,
                        "gas": 0,
                        "value": 0
                    }
                }
            ],
            "ETC_Phoenix": [
                {
                    "hash": "c23ae2f8ef4f933a77cf71f42319a5254d0f39894b7f78bb4b71626e87d6bdf0",
                    "logs": "1dcc4de8dec75d7aab85b567b6ccd41ad312451b948a7413f0a142fd40d49347",
                    "txbytes": "0xf85f800a827bd494c94f5374fce5edbc8e2a8697c15331677e6ebf0b0a801ba0606dc92cee78534d6034c9ba7369fed826526c6ca619da932ada213706ef49daa039d2c16bb0f35009e8032a1c6dd0c45cdead7bad6e3af951c105b405b08d6683",
                    "indexes": {
                        "data": 0,
                        "gas": 0,
                        "value": 0
                    }
                }
            ]
        }
    }
}