{
    "TransactionToAddressh160minusOne": {
        "_info": {
            "comment": "",
            "filling-rpc-server": "evm version 1.10.16-unstable-0f893109-20220105",
            "filling-tool-version": "retesteth-0.2.2-testinfo+commit.01c6aac2.Linux.g++",
            "filledWith": "CoreGeth-1.12.9-unstable-3995a327f2ded5c98324b03792b5ccc22557754f",
            "lllcversion": "Version: 0.5.14-develop.2021.11.27+commit.401d5358.Linux.g++",
            "source": "src/GeneralStateTestsFiller/stTransactionTest/TransactionToAddressh160minusOneFiller.json",
            "sourceHash": "0f13d3ab953649f426b316a0f02e2105399d96f38c3b524758655706f585bb05"
        },
        "env": {
            "currentCoinbase": "0x2adc25665018aa1fe0e6bc666dac8fc2697ff9ba",
            "currentDifficulty": "0x20000",
            "currentGasLimit": "0x186a0",
            "currentNumber": "0x1",
            "currentTimestamp": "0x3e8",
            "currentBaseFee": "0xa",
            "previousHash": "0x5e20a0453cecd065ea59c37ac63e079ee08998b6045136a8ce6635c7912ec0b6"
        },
        "pre": {
            "0xa94f5374fce5edbc8e2a8697c15331677e6ebf0b": {
                "balance": "0x3b9aca00"
            }
        },
        "transaction": {
            "gasPrice": "0xa",
            "nonce": "0x0",
            "to": "0xffffffffffffffffffffffffffffffffffffffff",
            "data": [
                "0x"
            ],
            "gasLimit": [
                "0x55f0"
            ],
            "value": [
                "0x64"
            ],
            "secretKey": "0x45a915e4d060149eb4365960e6a7a45f334393093061116b197e3240065ff2d8",
            "sender": "0xa94f5374fce5edbc8e2a8697c15331677e6ebf0b"
        },
        "post": {
            "ETC_Magneto": [
                {
                    "hash": "305bca8c15e75d5c01b1654c27f3c9e590ad8b6dab7e07dfbb2891f56e3f23a8",
                    "logs": "1dcc4de8dec75d7aab85b567b6ccd41ad312451b948a7413f0a142fd40d49347",
                    "txbytes": "0xf85f800a8255f094ffffffffffffffffffffffffffffffffffffffff64801ba07e2f96effb8bc48ed3708db0a43166e56577e24b7e181ecc76e629ddbd01f50fa028957e58d13f85e52b1e13e7818c96c8f44ad05f38596ba3a5e055af04f9c55c",
                    "indexes": {
                        "data": 0,
                        "gas": 0,
                        "value": 0
                    }
                }
            ],
            "ETC_Mystique": [
                {
                    "hash": "305bca8c15e75d5c01b1654c27f3c9e590ad8b6dab7e07dfbb2891f56e3f23a8",
                    "logs": "1dcc4de8dec75d7aab85b567b6ccd41ad312451b948a7413f0a142fd40d49347",
                    "txbytes": "0xf85f800a8255f094ffffffffffffffffffffffffffffffffffffffff64801ba07e2f96effb8bc48ed3708db0a43166e56577e24b7e181ecc76e629ddbd01f50fa028957e58d13f85e52b1e13e7818c96c8f44ad05f38596ba3a5e055af04f9c55c",
                    "indexes": {
                        "data": 0,
                        "gas": 0,
                        "value": 0
                    }
                }
            ],
            "ETC_Phoenix": [
                {
                    "hash": "305bca8c15e75d5c01b1654c27f3c9e590ad8b6dab7e07dfbb2891f56e3f23a8",
                    "logs": "1dcc4de8dec75d7aab85b567b6ccd41ad312451b948a7413f0a142fd40d49347",
                    "txbytes": "0xf85f800a8255f094ffffffffffffffffffffffffffffffffffffffff64801ba07e2f96effb8bc48ed3708db0a43166e56577e24b7e181ecc76e629ddbd01f50fa028957e58d13f85e52b1e13e7818c96c8f44ad05f38596ba3a5e055af04f9c55c",
                    "indexes": {
                        "data": 0,
                        "gas": 0,
                        "value": 0
                    }
                }
            ]
        }
    }
}