{
    "TransactionToItself": {
        "_info": {
            "comment": "",
            "filling-rpc-server": "evm version 1.10.16-unstable-0f893109-20220105",
            "filling-tool-version": "retesteth-0.2.2-testinfo+commit.01c6aac2.Linux.g++",
            "filledWith": "CoreGeth-1.12.9-unstable-ab16c56768f0284ab56a30aac9550d3ebdc45901",
            "lllcversion": "Version: 0.5.14-develop.2021.11.27+commit.401d5358.Linux.g++",
            "source": "src/GeneralStateTestsFiller/stTransactionTest/TransactionToItselfFiller.json",
            "sourceHash": "9e08eb3b90b911ac26c7b545d50e15f38e695f8dd18c022ecd21e266540803ce"
        },
        "env": {
            "currentCoinbase": "0x2adc25665018aa1fe0e6bc666dac8fc2697ff9ba",
            "currentDifficulty": "0x20000",
            "currentGasLimit": "0xf4240",
            "currentNumber": "0x1",
            "currentTimestamp": "0x3e8",
            "currentBaseFee": "0xa",
            "previousHash": "0x5e20a0453cecd065ea59c37ac63e079ee08998b6045136a8ce6635c7912ec0b6"
        },
        "pre": {
            "0xa94f5374fce5edbc8e2a8697c15331677e6ebf0b": {
                "balance": "0x3b9aca00"
            }
        },
        "transaction": {
            "gasPrice": "0xa",
            "nonce": "0x0",
            "to": "0xa94f5374fce5edbc8e2a8697c15331677e6ebf0b",
            "data": [
                "0x"
            ],
            "gasLimit": [
                "0x61a8"
            ],
            "value": [
                "0x01"
            ],
            "secretKey": "0x45a915e4d060149eb4365960e6a7a45f334393093061116b197e3240065ff2d8",
            "sender": "0xa94f5374fce5edbc8e2a8697c15331677e6ebf0b"
        },
        "post": {
            "ETC_Magneto": [
                {
                    "hash": "d44397f5a909dfdc535a8d18ba45596639c5cf23be0e67d060b2827136d41f6f",
                    "logs": "1dcc4de8dec75d7aab85b567b6ccd41ad312451b948a7413f0a142fd40d49347",
                    "txbytes": "0xf85f800a8261a894a94f5374fce5edbc8e2a8697c15331677e6ebf0b01801ca066516edb238ae274d489690754f1cad62e33be9687eccc5c61ceb4c3e1c0f2cda0157a7499fd6b8c81fd3262408ec8e5d1dd3faa6dfa41341fd466ef675761b0ec",
                    "indexes": {
                        "data": 0,
                        "gas": 0,
                        "value": 0
                    }
                }
            ],
            "ETC_Mystique": [
                {
                    "hash": "d44397f5a909dfdc535a8d18ba45596639c5cf23be0e67d060b2827136d41f6f",
                    "logs": "1dcc4de8dec75d7aab85b567b6ccd41ad312451b948a7413f0a142fd40d49347",
                    "txbytes": "0xf85f800a8261a894a94f5374fce5edbc8e2a8697c15331677e6ebf0b01801ca066516edb238ae274d489690754f1cad62e33be9687eccc5c61ceb4c3e1c0f2cda0157a7499fd6b8c81fd3262408ec8e5d1dd3faa6dfa41341fd466ef675761b0ec",
                    "indexes": {
                        "data": 0,
                        "gas": 0,
                        "value": 0
                    }
                }
            ],
            "ETC_Phoenix": [
                {
                    "hash": "d44397f5a909dfdc535a8d18ba45596639c5cf23be0e67d060b2827136d41f6f",
                    "logs": "1dcc4de8dec75d7aab85b567b6ccd41ad312451b948a7413f0a142fd40d49347",
                    "txbytes": "0xf85f800a8261a894a94f5374fce5edbc8e2a8697c15331677e6ebf0b01801ca066516edb238ae274d489690754f1cad62e33be9687eccc5c61ceb4c3e1c0f2cda0157a7499fd6b8c81fd3262408ec8e5d1dd3faa6dfa41341fd466ef675761b0ec",
                    "indexes": {
                        "data": 0,
                        "gas": 0,
                        "value": 0
                    }
                }
            ]
        }
    }
}