{
    "TransactionSendingToZero": {
        "_info": {
            "comment": "",
            "filling-rpc-server": "evm version 1.10.16-unstable-0f893109-20220105",
            "filling-tool-version": "retesteth-0.2.2-testinfo+commit.01c6aac2.Linux.g++",
            "filledWith": "CoreGeth-1.12.9-unstable-f4059ddd82d975bdc54fa648e5422a80172161cb",
            "lllcversion": "Version: 0.5.14-develop.2021.11.27+commit.401d5358.Linux.g++",
            "source": "src/GeneralStateTestsFiller/stTransactionTest/TransactionSendingToZeroFiller.json",
            "sourceHash": "3644732e411b048f7f7c30cfe272dd2fdb8a14053e4f42fe2a93c709c451ba8c"
        },
        "env": {
            "currentCoinbase": "2adc25665018aa1fe0e6bc666dac8fc2697ff9ba",
            "currentDifficulty": "0x20000",
            "currentRandom": null,
            "currentGasLimit": "0xf4240",
            "currentNumber": "0x1",
            "currentTimestamp": "0x3e8",
            "currentBaseFee": "0xa"
        },
        "pre": {
            "0xa94f5374fce5edbc8e2a8697c15331677e6ebf0b": {
                "balance": "0x5f5e100"
            }
        },
        "transaction": {
            "gasPrice": "0xa",
            "maxFeePerGas": null,
            "maxPriorityFeePerGas": null,
            "nonce": "0x0",
            "to": "0x0000000000000000000000000000000000000000",
            "data": [
                "0x"
            ],
            "gasLimit": [
                "0x61a8"
            ],
            "value": [
                "0x01"
            ],
            "secretKey": "0x45a915e4d060149eb4365960e6a7a45f334393093061116b197e3240065ff2d8"
        },
        "out": "0x",
        "post": {
            "ETC_Magneto": [
                {
                    "hash": "6b8bb0213020c18e9d3d1db0f77aa119e43bb1dd48c0e6ac68eb237fc617ed08",
                    "logs": "1dcc4de8dec75d7aab85b567b6ccd41ad312451b948a7413f0a142fd40d49347",
                    "txbytes": "0xf85f800a8261a894000000000000000000000000000000000000000001801ca0b2d14737cfeadb71a80b7569f12da1e86709adc3839b8335aac66bf2ddefe7c9a00c3e5734175e32a3607c7c89e38b754ac5c6781f5238c7055e4fc058debc2b99",
                    "indexes": {
                        "data": 0,
                        "gas": 0,
                        "value": 0
                    }
                }
            ],
            "ETC_Mystique": [
                {
                    "hash": "6b8bb0213020c18e9d3d1db0f77aa119e43bb1dd48c0e6ac68eb237fc617ed08",
                    "logs": "1dcc4de8dec75d7aab85b567b6ccd41ad312451b948a7413f0a142fd40d49347",
                    "txbytes": "0xf85f800a8261a894000000000000000000000000000000000000000001801ca0b2d14737cfeadb71a80b7569f12da1e86709adc3839b8335aac66bf2ddefe7c9a00c3e5734175e32a3607c7c89e38b754ac5c6781f5238c7055e4fc058debc2b99",
                    "indexes": {
                        "data": 0,
                        "gas": 0,
                        "value": 0
                    }
                }
            ],
            "ETC_Phoenix": [
                {
                    "hash": "6b8bb0213020c18e9d3d1db0f77aa119e43bb1dd48c0e6ac68eb237fc617ed08",
                    "logs": "1dcc4de8dec75d7aab85b567b6ccd41ad312451b948a7413f0a142fd40d49347",
                    "txbytes": "0xf85f800a8261a894000000000000000000000000000000000000000001801ca0b2d14737cfeadb71a80b7569f12da1e86709adc3839b8335aac66bf2ddefe7c9a00c3e5734175e32a3607c7c89e38b754ac5c6781f5238c7055e4fc058debc2b99",
                    "indexes": {
                        "data": 0,
                        "gas": 0,
                        "value": 0
                    }
                }
            ]
        }
    }
}