{
    "ValueOverflow": {
        "_info": {
            "comment": "",
            "filling-rpc-server": "evm version 1.10.16-unstable-0f893109-20220105",
            "filling-tool-version": "retesteth-0.2.2-testinfo+commit.01c6aac2.Linux.g++",
            "filledWith": "CoreGeth-1.12.9-unstable-4d59a861107c8232d6896811c48f229d30087be4",
            "lllcversion": "Version: 0.5.14-develop.2021.11.27+commit.401d5358.Linux.g++",
            "source": "src/GeneralStateTestsFiller/stTransactionTest/ValueOverflowFiller.yml",
            "sourceHash": "a1626d31fb6eb2560692e59377813d19bd986753c99dacf2b31122c033fdb793"
        },
        "env": {
            "currentCoinbase": "0x2adc25665018aa1fe0e6bc666dac8fc2697ff9ba",
            "currentDifficulty": "0x20000",
            "currentGasLimit": "0x5500000",
            "currentNumber": "0x1",
            "currentTimestamp": "0x3e8",
            "currentBaseFee": "0xa",
            "previousHash": "0x5e20a0453cecd065ea59c37ac63e079ee08998b6045136a8ce6635c7912ec0b6"
        },
        "pre": {
            "0xa94f5374fce5edbc8e2a8697c15331677e6ebf0b": {
                "balance": "0x3b9aca00"
            },
            "0xd0d0d0d0d0d0d0d0d0d0d0d0d0d0d0d0d0d0d0d0": {
                "balance": "0x0"
            }
        },
        "transaction": {
            "gasPrice": "0x64",
            "nonce": "0x0",
            "to": "0xd0d0d0d0d0d0d0d0d0d0d0d0d0d0d0d0d0d0d0d0",
            "data": [
                "0x"
            ],
            "gasLimit": [
                "0x5208"
            ],
            "value": [
                "0x:bigint 0x10000000000000000000000000000000000000000000000000000000000000001"
            ],
            "secretKey": "0x45a915e4d060149eb4365960e6a7a45f334393093061116b197e3240065ff2d8",
            "sender": "0xa94f5374fce5edbc8e2a8697c15331677e6ebf0b"
        },
        "post": {
            "ETC_Agharta": [
                {
                    "hash": "1751725d1aad5298768fbcf64069b2c1b85aeaffcc561146067d6beedd08052a",
                    "logs": "1dcc4de8dec75d7aab85b567b6ccd41ad312451b948a7413f0a142fd40d49347",
                    "txbytes": "0xf880806482520894d0d0d0d0d0d0d0d0d0d0d0d0d0d0d0d0d0d0d0d0a1010000000000000000000000000000000000000000000000000000000000000001801ba0c16787a8e25e941d67691954642876c08f00996163ae7dfadbbfd6cd436f549da06180e5626cae31590f40641fe8f63734316c4bfeb4cdfab6714198c1044d2e28",
                    "expectException": "TR_NoFunds",
                    "indexes": {
                        "data": 0,
                        "gas": 0,
                        "value": 0
                    }
                }
            ],
            "ETC_Atlantis": [
                {
                    "hash": "1751725d1aad5298768fbcf64069b2c1b85aeaffcc561146067d6beedd08052a",
                    "logs": "1dcc4de8dec75d7aab85b567b6ccd41ad312451b948a7413f0a142fd40d49347",
                    "txbytes": "0xf880806482520894d0d0d0d0d0d0d0d0d0d0d0d0d0d0d0d0d0d0d0d0a1010000000000000000000000000000000000000000000000000000000000000001801ba0c16787a8e25e941d67691954642876c08f00996163ae7dfadbbfd6cd436f549da06180e5626cae31590f40641fe8f63734316c4bfeb4cdfab6714198c1044d2e28",
                    "expectException": "TR_NoFunds",
                    "indexes": {
                        "data": 0,
                        "gas": 0,
                        "value": 0
                    }
                }
            ],
            "ETC_Magneto": [
                {
                    "hash": "1751725d1aad5298768fbcf64069b2c1b85aeaffcc561146067d6beedd08052a",
                    "logs": "1dcc4de8dec75d7aab85b567b6ccd41ad312451b948a7413f0a142fd40d49347",
                    "txbytes": "0xf880806482520894d0d0d0d0d0d0d0d0d0d0d0d0d0d0d0d0d0d0d0d0a1010000000000000000000000000000000000000000000000000000000000000001801ba0c16787a8e25e941d67691954642876c08f00996163ae7dfadbbfd6cd436f549da06180e5626cae31590f40641fe8f63734316c4bfeb4cdfab6714198c1044d2e28",
                    "expectException": "TR_NoFunds",
                    "indexes": {
                        "data": 0,
                        "gas": 0,
                        "value": 0
                    }
                }
            ],
            "ETC_Mystique": [
                {
                    "hash": "1751725d1aad5298768fbcf64069b2c1b85aeaffcc561146067d6beedd08052a",
                    "logs": "1dcc4de8dec75d7aab85b567b6ccd41ad312451b948a7413f0a142fd40d49347",
                    "txbytes": "0xf880806482520894d0d0d0d0d0d0d0d0d0d0d0d0d0d0d0d0d0d0d0d0a1010000000000000000000000000000000000000000000000000000000000000001801ba0c16787a8e25e941d67691954642876c08f00996163ae7dfadbbfd6cd436f549da06180e5626cae31590f40641fe8f63734316c4bfeb4cdfab6714198c1044d2e28",
                    "expectException": "TR_NoFunds",
                    "indexes": {
                        "data": 0,
                        "gas": 0,
                        "value": 0
                    }
                }
            ],
            "ETC_Phoenix": [
                {
                    "hash": "1751725d1aad5298768fbcf64069b2c1b85aeaffcc561146067d6beedd08052a",
                    "logs": "1dcc4de8dec75d7aab85b567b6ccd41ad312451b948a7413f0a142fd40d49347",
                    "txbytes": "0xf880806482520894d0d0d0d0d0d0d0d0d0d0d0d0d0d0d0d0d0d0d0d0a1010000000000000000000000000000000000000000000000000000000000000001801ba0c16787a8e25e941d67691954642876c08f00996163ae7dfadbbfd6cd436f549da06180e5626cae31590f40641fe8f63734316c4bfeb4cdfab6714198c1044d2e28",
                    "expectException": "TR_NoFunds",
                    "indexes": {
                        "data": 0,
                        "gas": 0,
                        "value": 0
                    }
                }
            ]
        }
    }
}