{
    "lowGasLimit": {
        "_info": {
            "comment": "Ori Pomerantz qbzzt1@gmail.com",
            "filling-rpc-server": "evm version 1.10.16-unstable-0f893109-20220105",
            "filling-tool-version": "retesteth-0.2.2-testinfo+commit.01c6aac2.Linux.g++",
            "filledWith": "CoreGeth-1.12.9-unstable-d64998ce9b05f4f41b35740c69c4b402e41a3105",
            "lllcversion": "Version: 0.5.14-develop.2021.11.27+commit.401d5358.Linux.g++",
            "source": "src/GeneralStateTestsFiller/stEIP1559/lowGasLimitFiller.yml",
            "sourceHash": "b710754210771e967153d0fc8d9bd32d1799ad186a7ad4dd98542bd0145c89c9"
        },
        "env": {
            "currentCoinbase": "0x2adc25665018aa1fe0e6bc666dac8fc2697ff9ba",
            "currentDifficulty": "0x20000",
            "currentGasLimit": "0x13880",
            "currentNumber": "0x1",
            "currentTimestamp": "0x3e8",
            "previousHash": "0x5e20a0453cecd065ea59c37ac63e079ee08998b6045136a8ce6635c7912ec0b6"
        },
        "pre": {
            "0xa94f5374fce5edbc8e2a8697c15331677e6ebf0b": {
                "balance": "0xde0b6b3a7640000",
                "nonce": "0x1"
            },
            "0xcccccccccccccccccccccccccccccccccccccccc": {
                "code": "0x6001600101600055",
                "storage": {
                    "0x0000000000000000000000000000000000000000000000000000000000000000": "0x00000000000000000000000000000000000000000000000000000000000060a7"
                },
                "balance": "0xde0b6b3a7640000"
            }
        },
        "transaction": {
            "gasPrice": "0xa",
            "maxFeePerGas": "0x3e8",
            "maxPriorityFeePerGas": "0x3e8",
            "nonce": "0x1",
            "to": "0xcccccccccccccccccccccccccccccccccccccccc",
            "data": [
                "0x00"
            ],
            "accessLists": [
                []
            ],
            "gasLimit": [
                "0x15f90",
                "0xc350",
                "0x61a8",
                "0x4e20"
            ],
            "value": [
                "0x00"
            ],
            "secretKey": "0x45a915e4d060149eb4365960e6a7a45f334393093061116b197e3240065ff2d8",
            "sender": "0xa94f5374fce5edbc8e2a8697c15331677e6ebf0b"
        },
        "post": {
            "ETC_Mystique": [
                {
                    "hash": "1e643068e6c94ca9a5518899b3e7fe8d95e268742f07f6478b5d0608ee2e5d76",
                    "logs": "1dcc4de8dec75d7aab85b567b6ccd41ad312451b948a7413f0a142fd40d49347",
                    "txbytes": "0x02f86701018203e88203e883015f9094cccccccccccccccccccccccccccccccccccccccc8000c001a0d116bcf69c336794ee7a497bbafba8dcaab4d8df659b862b29151189bbadf53ea04f9437f843e0785a4b642e55592e86eb530ff853fe631832ded1026296649907",
                    "expectException": "TR_GasLimitReached",
                    "indexes": {
                        "data": 0,
                        "gas": 0,
                        "value": 0
                    }
                },
                {
                    "hash": "de132f80067a8b293e50eb3ac864e9293b3f0daebbf5dc4a7cb762ac192497ee",
                    "logs": "1dcc4de8dec75d7aab85b567b6ccd41ad312451b948a7413f0a142fd40d49347",
                    "txbytes": "0x02f86601018203e88203e882c35094cccccccccccccccccccccccccccccccccccccccc8000c080a05cd8d86e9511a4c005f2f05fb418efcfd67243ecfcdc49b68f7738a20984d4d2a03fd46728a0b6b72250e42f6e78337482dc88971847588526f06f1bdb7d82ecce",
                    "expectException": "TR_TypeNotSupported",
                    "indexes": {
                        "data": 0,
                        "gas": 1,
                        "value": 0
                    }
                },
                {
                    "hash": "036b3fa2ef915a2317e980e58223cce8518f974fa75b83ea2630aebdadbfe214",
                    "logs": "1dcc4de8dec75d7aab85b567b6ccd41ad312451b948a7413f0a142fd40d49347",
                    "txbytes": "0x02f86601018203e88203e88261a894cccccccccccccccccccccccccccccccccccccccc8000c001a0129b06778a71bd179f78a616cf15d0322935c733c9b95363c932e82dc7d9a3eda0126e02c12db989ec6d3851b73a49ad1b0a63a786a8454a386294b5202ab5c958",
                    "expectException": "TR_TypeNotSupported",
                    "indexes": {
                        "data": 0,
                        "gas": 2,
                        "value": 0
                    }
                },
                {
                    "hash": "1e643068e6c94ca9a5518899b3e7fe8d95e268742f07f6478b5d0608ee2e5d76",
                    "logs": "1dcc4de8dec75d7aab85b567b6ccd41ad312451b948a7413f0a142fd40d49347",
                    "txbytes": "0x02f86601018203e88203e8824e2094cccccccccccccccccccccccccccccccccccccccc8000c080a0d60857a60776af9a5e8735b4c4b3df63b43904520c7a4941f8bbb635185c7a53a03a19f2f00a663c3c04142fb7518ff4ea1a752359411ea8406e53d6fee26aa0ec",
                    "expectException": "TR_IntrinsicGas",
                    "indexes": {
                        "data": 0,
                        "gas": 3,
                        "value": 0
                    }
                }
            ]
        }
    }
}