{
    "outOfFundsOldTypes": {
        "_info": {
            "comment": "Ori Pomerantz qbzzt1@gmail.com",
            "filling-rpc-server": "evm version 1.10.16-unstable-0f893109-20220105",
            "filling-tool-version": "retesteth-0.2.2-testinfo+commit.01c6aac2.Linux.g++",
            "filledWith": "CoreGeth-1.12.9-unstable-ab16c56768f0284ab56a30aac9550d3ebdc45901",
            "lllcversion": "Version: 0.5.14-develop.2021.11.27+commit.401d5358.Linux.g++",
            "source": "src/GeneralStateTestsFiller/stEIP1559/outOfFundsOldTypesFiller.yml",
            "sourceHash": "f5cc66f92c22f6ec702ad2689c9ace453184f426f62ee6ced2eaf9acbca5f068"
        },
        "env": {
            "currentCoinbase": "0x2adc25665018aa1fe0e6bc666dac8fc2697ff9ba",
            "currentDifficulty": "0x20000",
            "currentGasLimit": "0xff112233445566",
            "currentNumber": "0x1",
            "currentTimestamp": "0x3e8",
            "currentBaseFee": "0x3e8",
            "previousHash": "0x5e20a0453cecd065ea59c37ac63e079ee08998b6045136a8ce6635c7912ec0b6"
        },
        "pre": {
            "0xa94f5374fce5edbc8e2a8697c15331677e6ebf0b": {
                "balance": "0xde0b6b3a7640000",
                "nonce": "0x1"
            },
            "0xcccccccccccccccccccccccccccccccccccccccc": {
                "code": "0x6001600101600055",
                "balance": "0xde0b6b3a7640000"
            }
        },
        "transaction": {
            "gasPrice": "0x2540be400",
            "nonce": "0x1",
            "to": "0xcccccccccccccccccccccccccccccccccccccccc",
            "data": [
                "0x00",
                "0x01"
            ],
            "accessLists": [
                null,
                []
            ],
            "gasLimit": [
                "0x246139ca8000",
                "0x9c40"
            ],
            "value": [
                "0x00",
                "0x0de0b6b3a7640000"
            ],
            "secretKey": "0x45a915e4d060149eb4365960e6a7a45f334393093061116b197e3240065ff2d8",
            "sender": "0xa94f5374fce5edbc8e2a8697c15331677e6ebf0b"
        },
        "post": {
            "ETC_Mystique": [
                {
                    "hash": "500ddcebbfe42e15e3d8b5a3344b569cc5820e13d432e69b346a416bb1817491",
                    "logs": "1dcc4de8dec75d7aab85b567b6ccd41ad312451b948a7413f0a142fd40d49347",
                    "txbytes": "0xf868018502540be40086246139ca800094cccccccccccccccccccccccccccccccccccccccc80001ba09e53aee77b280e8454ed90d9b42a8a064a4e07c57111fb49e14ea252fb50ced6a0574dba84f5baca1e333612371e959abc7057014ce19fce71901703f0aa45c438",
                    "expectException": "TR_NoFunds",
                    "indexes": {
                        "data": 0,
                        "gas": 0,
                        "value": 0
                    }
                },
                {
                    "hash": "500ddcebbfe42e15e3d8b5a3344b569cc5820e13d432e69b346a416bb1817491",
                    "logs": "1dcc4de8dec75d7aab85b567b6ccd41ad312451b948a7413f0a142fd40d49347",
                    "txbytes": "0xf870018502540be40086246139ca800094cccccccccccccccccccccccccccccccccccccccc880de0b6b3a7640000001ca0ea06ef39f418b0aa6e3822b878d494bbf028a98c4c0cdd68472f119bc3fdabbba019fd4918db7bebead9c87978eb1c2ee428efc90c0f11a18ce5396df93a362149",
                    "expectException": "TR_NoFunds",
                    "indexes": {
                        "data": 0,
                        "gas": 0,
                        "value": 1
                    }
                },
                {
                    "hash": "500ddcebbfe42e15e3d8b5a3344b569cc5820e13d432e69b346a416bb1817491",
                    "logs": "1dcc4de8dec75d7aab85b567b6ccd41ad312451b948a7413f0a142fd40d49347",
                    "txbytes": "0x01f86a01018502540be40086246139ca800094cccccccccccccccccccccccccccccccccccccccc8001c001a0376bb679a3e5d2260d0b24cc067833f218c97fc5566f7388ee8112c128c85df6a06f6d96ac44a542b895a709da4779823e9ca9a5bc8a86403f51df85c1994ffc36",
                    "expectException": "TR_NoFunds",
                    "indexes": {
                        "data": 1,
                        "gas": 0,
                        "value": 0
                    }
                },
                {
                    "hash": "500ddcebbfe42e15e3d8b5a3344b569cc5820e13d432e69b346a416bb1817491",
                    "logs": "1dcc4de8dec75d7aab85b567b6ccd41ad312451b948a7413f0a142fd40d49347",
                    "txbytes": "0x01f87201018502540be40086246139ca800094cccccccccccccccccccccccccccccccccccccccc880de0b6b3a764000001c001a095020e3b91bc04edac72212c4beff72631d8cd7c69836116fa67f5c6ce31960da07a1181545273ab93fefd70ac663798ac7388c9d2acb67c5663968b16365e3f61",
                    "expectException": "TR_NoFunds",
                    "indexes": {
                        "data": 1,
                        "gas": 0,
                        "value": 1
                    }
                },
                {
                    "hash": "0e951c5a77ddfd9319a0277497966c19827cabaa174008deb87e2bed0ad3b948",
                    "logs": "1dcc4de8dec75d7aab85b567b6ccd41ad312451b948a7413f0a142fd40d49347",
                    "txbytes": "0xf864018502540be400829c4094cccccccccccccccccccccccccccccccccccccccc80001ca08e0936fea8efd4a1d4200ec3ac26d468bc8f473d50806bb3320ec7a4482598cba03e4bfc3c5273cf5722761f5ce066a6ff4b48c3df3d74e3e13aa44af37c4d8bed",
                    "indexes": {
                        "data": 0,
                        "gas": 1,
                        "value": 0
                    }
                },
                {
                    "hash": "0e951c5a77ddfd9319a0277497966c19827cabaa174008deb87e2bed0ad3b948",
                    "logs": "1dcc4de8dec75d7aab85b567b6ccd41ad312451b948a7413f0a142fd40d49347",
                    "txbytes": "0x01f86601018502540be400829c4094cccccccccccccccccccccccccccccccccccccccc8001c001a09f90bf844a0d5745f33e463a202ce49615e18de09afb50680a07b5b8b91dfba9a06df8c01637adc9a85b854e985c09066a5a7e7634afe00c7b070bd02f37b8dfc8",
                    "indexes": {
                        "data": 1,
                        "gas": 1,
                        "value": 0
                    }
                },
                {
                    "hash": "500ddcebbfe42e15e3d8b5a3344b569cc5820e13d432e69b346a416bb1817491",
                    "logs": "1dcc4de8dec75d7aab85b567b6ccd41ad312451b948a7413f0a142fd40d49347",
                    "txbytes": "0xf86c018502540be400829c4094cccccccccccccccccccccccccccccccccccccccc880de0b6b3a7640000001ca039f1474dd143199109aca4775e843a57c899b20436b20ae322579a34982e9aa8a053652d84a2486fef4ecf80016c69f04d123ff32c10843791da6f49e91814e7bb",
                    "expectException": "TR_NoFunds",
                    "indexes": {
                        "data": 0,
                        "gas": 1,
                        "value": 1
                    }
                },
                {
                    "hash": "500ddcebbfe42e15e3d8b5a3344b569cc5820e13d432e69b346a416bb1817491",
                    "logs": "1dcc4de8dec75d7aab85b567b6ccd41ad312451b948a7413f0a142fd40d49347",
                    "txbytes": "0x01f86e01018502540be400829c4094cccccccccccccccccccccccccccccccccccccccc880de0b6b3a764000001c080a0b59d8a4208c6bce7e75184755bfce9348f7f942fd982c1c3777b6756a843a9aba023f5265373f1978d55ba8c47a4d4e3fff82241b98d28d78f4c349b635bea8ff3",
                    "expectException": "TR_NoFunds",
                    "indexes": {
                        "data": 1,
                        "gas": 1,
                        "value": 1
                    }
                }
            ]
        }
    }
}