{
    "transactionIntinsicBug": {
        "_info": {
            "comment": "Bug discovered on ropsten https://github.com/ethereum/go-ethereum/pull/23244/files",
            "filling-rpc-server": "evm version 1.10.16-unstable-0f893109-20220105",
            "filling-tool-version": "retesteth-0.2.2-testinfo+commit.01c6aac2.Linux.g++",
            "filledWith": "CoreGeth-1.12.9-unstable-4cf5b2b0837228e7d5eadba6a01ffb80e9288e21",
            "lllcversion": "Version: 0.5.14-develop.2021.11.27+commit.401d5358.Linux.g++",
            "source": "src/GeneralStateTestsFiller/stEIP1559/transactionIntinsicBugFiller.yml",
            "sourceHash": "980e34ffb005fddb88825c8224d94a93fe65077bc811335f21729da8f1cd5be1",
            "labels": {
                "0": "declaredKeyWrite"
            }
        },
        "env": {
            "currentCoinbase": "0x2adc25665018aa1fe0e6bc666dac8fc2697ff9ba",
            "currentDifficulty": "0x20000",
            "currentGasLimit": "0xff112233445566",
            "currentNumber": "0x1",
            "currentTimestamp": "0x3e8",
            "previousHash": "0x5e20a0453cecd065ea59c37ac63e079ee08998b6045136a8ce6635c7912ec0b6"
        },
        "pre": {
            "0xa94f5374fce5edbc8e2a8697c15331677e6ebf0b": {
                "code": "0x",
                "balance": "0x2faf094",
                "nonce": "0x1"
            },
            "0xcccccccccccccccccccccccccccccccccccccccc": {
                "code": "0x",
                "balance": "0x0",
                "nonce": "0x0"
            }
        },
        "transaction": {
            "gasPrice": "0xa",
            "maxFeePerGas": "0x3e8",
            "maxPriorityFeePerGas": "0x14",
            "nonce": "0x1",
            "to": "0xcccccccccccccccccccccccccccccccccccccccc",
            "data": [
                "0x00"
            ],
            "accessLists": [
                []
            ],
            "gasLimit": [
                "0xc350"
            ],
            "value": [
                "0x02dc6c14"
            ],
            "secretKey": "0x45a915e4d060149eb4365960e6a7a45f334393093061116b197e3240065ff2d8",
            "sender": "0xa94f5374fce5edbc8e2a8697c15331677e6ebf0b"
        },
        "post": {
            "ETC_Mystique": [
                {
                    "hash": "e437f23dde868903471ed39c52d5ddf14e0415c9db185d4f20f5c9de0f5209e8",
                    "logs": "1dcc4de8dec75d7aab85b567b6ccd41ad312451b948a7413f0a142fd40d49347",
                    "txbytes": "0x02f8680101148203e882c35094cccccccccccccccccccccccccccccccccccccccc8402dc6c1400c001a07da1c307f31860a499caecb8ceea3c733f450b85ae26abb83fa0077a26d1384aa06276eee443d11a244396549532f6179aa11c9a1b917a632324f69b1d079eba09",
                    "expectException": "TR_NoFunds",
                    "indexes": {
                        "data": 0,
                        "gas": 0,
                        "value": 0
                    }
                }
            ]
        }
    }
}