{
    "arith": {
        "_info": {
            "comment": "Ori Pomerantz qbzzt1@gmail.com",
            "filling-rpc-server": "evm version 1.10.16-unstable-0f893109-20220105",
            "filling-tool-version": "retesteth-0.2.2-testinfo+commit.01c6aac2.Linux.g++",
            "filledWith": "CoreGeth-1.12.9-unstable-4d59a861107c8232d6896811c48f229d30087be4",
            "lllcversion": "Version: 0.5.14-develop.2021.11.27+commit.401d5358.Linux.g++",
            "source": "src/GeneralStateTestsFiller/VMTests/vmArithmeticTest/arithFiller.yml",
            "sourceHash": "b8806024134ce9bf944ec1331e05479ef3d5d0b342825d2c42d076dc4f59f5e2"
        },
        "env": {
            "currentCoinbase": "0x2adc25665018aa1fe0e6bc666dac8fc2697ff9ba",
            "currentDifficulty": "0x20000",
            "currentGasLimit": "0x5f5e100",
            "currentNumber": "0x1",
            "currentTimestamp": "0x3e8",
            "currentBaseFee": "0xa",
            "previousHash": "0x5e20a0453cecd065ea59c37ac63e079ee08998b6045136a8ce6635c7912ec0b6"
        },
        "pre": {
            "0xa94f5374fce5edbc8e2a8697c15331677e6ebf0b": {
                "balance": "0xba1a9ce0ba1a9ce"
            },
            "0xcccccccccccccccccccccccccccccccccccccccc": {
                "code": "0x600160019001600702600501600290046004906021900560170160030260059007600303600960110a60005560086000f3",
                "balance": "0xba1a9ce0ba1a9ce"
            }
        },
        "transaction": {
            "gasPrice": "0xa",
            "nonce": "0x0",
            "to": "0xcccccccccccccccccccccccccccccccccccccccc",
            "data": [
                "0x00"
            ],
            "gasLimit": [
                "0x4c4b400"
            ],
            "value": [
                "0x01"
            ],
            "secretKey": "0x45a915e4d060149eb4365960e6a7a45f334393093061116b197e3240065ff2d8",
            "sender": "0xa94f5374fce5edbc8e2a8697c15331677e6ebf0b"
        },
        "post": {
            "ETC_Magneto": [
                {
                    "hash": "6e0c70998e8153599e4c1aa2ca96328df529f64d623eafd0289304ed909cd3b3",
                    "logs": "1dcc4de8dec75d7aab85b567b6ccd41ad312451b948a7413f0a142fd40d49347",
                    "txbytes": "0xf861800a8404c4b40094cccccccccccccccccccccccccccccccccccccccc01001ca06939410fcd80efd44b8d819c37a4e460b38e39f37d99e1f09ccd9c25753ef79aa017a79fccc1ede0aae2dbb9f810acc5d6ece485338b3d695742b607a3b886a2b1",
                    "indexes": {
                        "data": 0,
                        "gas": 0,
                        "value": 0
                    }
                }
            ],
            "ETC_Mystique": [
                {
                    "hash": "6e0c70998e8153599e4c1aa2ca96328df529f64d623eafd0289304ed909cd3b3",
                    "logs": "1dcc4de8dec75d7aab85b567b6ccd41ad312451b948a7413f0a142fd40d49347",
                    "txbytes": "0xf861800a8404c4b40094cccccccccccccccccccccccccccccccccccccccc01001ca06939410fcd80efd44b8d819c37a4e460b38e39f37d99e1f09ccd9c25753ef79aa017a79fccc1ede0aae2dbb9f810acc5d6ece485338b3d695742b607a3b886a2b1",
                    "indexes": {
                        "data": 0,
                        "gas": 0,
                        "value": 0
                    }
                }
            ],
            "ETC_Phoenix": [
                {
                    "hash": "c54b8146a7249b372e5ae689a25ddd49ebc936e8fa8c7edea1f6f40b2150aa50",
                    "logs": "1dcc4de8dec75d7aab85b567b6ccd41ad312451b948a7413f0a142fd40d49347",
                    "txbytes": "0xf861800a8404c4b40094cccccccccccccccccccccccccccccccccccccccc01001ca06939410fcd80efd44b8d819c37a4e460b38e39f37d99e1f09ccd9c25753ef79aa017a79fccc1ede0aae2dbb9f810acc5d6ece485338b3d695742b607a3b886a2b1",
                    "indexes": {
                        "data": 0,
                        "gas": 0,
                        "value": 0
                    }
                }
            ]
        }
    }
}