{
    "fib": {
        "_info": {
            "comment": "Ori Pomerantz qbzzt1@gmail.com",
            "filling-rpc-server": "evm version 1.10.16-unstable-0f893109-20220105",
            "filling-tool-version": "retesteth-0.2.2-testinfo+commit.01c6aac2.Linux.g++",
            "filledWith": "CoreGeth-1.12.9-unstable-ab16c56768f0284ab56a30aac9550d3ebdc45901",
            "lllcversion": "Version: 0.5.14-develop.2021.11.27+commit.401d5358.Linux.g++",
            "source": "src/GeneralStateTestsFiller/VMTests/vmArithmeticTest/fibFiller.yml",
            "sourceHash": "0130c56f7b3a1a32c824f57a28f182ba074f9068459710e3a5d507e327abd6bf"
        },
        "env": {
            "currentCoinbase": "0x2adc25665018aa1fe0e6bc666dac8fc2697ff9ba",
            "currentDifficulty": "0x20000",
            "currentGasLimit": "0x5f5e100",
            "currentNumber": "0x1",
            "currentTimestamp": "0x3e8",
            "currentBaseFee": "0xa",
            "previousHash": "0x5e20a0453cecd065ea59c37ac63e079ee08998b6045136a8ce6635c7912ec0b6"
        },
        "pre": {
            "0xa94f5374fce5edbc8e2a8697c15331677e6ebf0b": {
                "balance": "0xba1a9ce0ba1a9ce"
            },
            "0xcccccccccccccccccccccccccccccccccccccccc": {
                "code": "0x60026002035460016002035401600255600260030354600160030354016003556002600403546001600403540160045560026005035460016005035401600555600260060354600160060354016006556002600703546001600703540160075560026008035460016008035401600855600260090354600160090354016009556002600a03546001600a035401600a5500",
                "storage": {
                    "0x0000000000000000000000000000000000000000000000000000000000000000": "0x0000000000000000000000000000000000000000000000000000000000000000",
                    "0x0000000000000000000000000000000000000000000000000000000000000001": "0x0000000000000000000000000000000000000000000000000000000000000001"
                },
                "balance": "0xba1a9ce0ba1a9ce"
            }
        },
        "transaction": {
            "gasPrice": "0xa",
            "nonce": "0x0",
            "to": "0xcccccccccccccccccccccccccccccccccccccccc",
            "data": [
                "0x01"
            ],
            "gasLimit": [
                "0x4c4b400"
            ],
            "value": [
                "0x01"
            ],
            "secretKey": "0x45a915e4d060149eb4365960e6a7a45f334393093061116b197e3240065ff2d8",
            "sender": "0xa94f5374fce5edbc8e2a8697c15331677e6ebf0b"
        },
        "post": {
            "ETC_Magneto": [
                {
                    "hash": "53b1c278a078d9c65577081d8759405d704e3556913c6600aa06c8908d2a54e1",
                    "logs": "1dcc4de8dec75d7aab85b567b6ccd41ad312451b948a7413f0a142fd40d49347",
                    "txbytes": "0xf861800a8404c4b40094cccccccccccccccccccccccccccccccccccccccc01011ca0db1a622b24f35797694145cbe4477b1e1139e30a7dfe81a22a1f08a772b90b90a04f3cf0cb9ad98a4c469d8d9cbf2693bc3182349023c9628f1bdc3791523d9d06",
                    "indexes": {
                        "data": 0,
                        "gas": 0,
                        "value": 0
                    }
                }
            ],
            "ETC_Mystique": [
                {
                    "hash": "53b1c278a078d9c65577081d8759405d704e3556913c6600aa06c8908d2a54e1",
                    "logs": "1dcc4de8dec75d7aab85b567b6ccd41ad312451b948a7413f0a142fd40d49347",
                    "txbytes": "0xf861800a8404c4b40094cccccccccccccccccccccccccccccccccccccccc01011ca0db1a622b24f35797694145cbe4477b1e1139e30a7dfe81a22a1f08a772b90b90a04f3cf0cb9ad98a4c469d8d9cbf2693bc3182349023c9628f1bdc3791523d9d06",
                    "indexes": {
                        "data": 0,
                        "gas": 0,
                        "value": 0
                    }
                }
            ],
            "ETC_Phoenix": [
                {
                    "hash": "0b0205d9c0dda184b17a0454ffc0c87277bc6e3edae693c4a5932eb82636dfd3",
                    "logs": "1dcc4de8dec75d7aab85b567b6ccd41ad312451b948a7413f0a142fd40d49347",
                    "txbytes": "0xf861800a8404c4b40094cccccccccccccccccccccccccccccccccccccccc01011ca0db1a622b24f35797694145cbe4477b1e1139e30a7dfe81a22a1f08a772b90b90a04f3cf0cb9ad98a4c469d8d9cbf2693bc3182349023c9628f1bdc3791523d9d06",
                    "indexes": {
                        "data": 0,
                        "gas": 0,
                        "value": 0
                    }
                }
            ]
        }
    }
}