{
    "smod": {
        "_info": {
            "comment": "Ori Pomerantz qbzzt1@gmail.com",
            "filling-rpc-server": "evm version 1.10.16-unstable-0f893109-20220105",
            "filling-tool-version": "retesteth-0.2.2-testinfo+commit.01c6aac2.Linux.g++",
            "filledWith": "CoreGeth-1.12.9-unstable-f4059ddd82d975bdc54fa648e5422a80172161cb",
            "lllcversion": "Version: 0.5.14-develop.2021.11.27+commit.401d5358.Linux.g++",
            "source": "src/GeneralStateTestsFiller/VMTests/vmArithmeticTest/smodFiller.yml",
            "sourceHash": "89f3787b62f2b27e4bdc376e9d640365d98a0b7ccc972fbe720d32a9c16129fb",
            "labels": {
                "0": "smod_2_3",
                "1": "smod_neg1_2",
                "2": "smod_0_neg1",
                "3": "smod_3_0",
                "4": "smod_neg2_3",
                "5": "smod_16_0"
            }
        },
        "env": {
            "currentCoinbase": "2adc25665018aa1fe0e6bc666dac8fc2697ff9ba",
            "currentDifficulty": "0x20000",
            "currentRandom": null,
            "currentGasLimit": "0x5f5e100",
            "currentNumber": "0x1",
            "currentTimestamp": "0x3e8",
            "currentBaseFee": "0xa"
        },
        "pre": {
            "0x0000000000000000000000000000000000000100": {
                "code": "0x600360020760005500",
                "balance": "0xba1a9ce0ba1a9ce"
            },
            "0x0000000000000000000000000000000000000101": {
                "code": "0x60027fffffffffffffffffffffffffffffffffffffffffffffffffffffffffffffffff0760005500",
                "balance": "0xba1a9ce0ba1a9ce"
            },
            "0x0000000000000000000000000000000000000102": {
                "code": "0x7fffffffffffffffffffffffffffffffffffffffffffffffffffffffffffffffff60000760005500",
                "balance": "0xba1a9ce0ba1a9ce"
            },
            "0x0000000000000000000000000000000000000103": {
                "code": "0x600060030760005500",
                "balance": "0xba1a9ce0ba1a9ce"
            },
            "0x0000000000000000000000000000000000000104": {
                "code": "0x600360026000030760005500",
                "balance": "0xba1a9ce0ba1a9ce"
            },
            "0x0000000000000000000000000000000000000105": {
                "code": "0x600160006010070360005500",
                "balance": "0xba1a9ce0ba1a9ce"
            },
            "0xa94f5374fce5edbc8e2a8697c15331677e6ebf0b": {
                "balance": "0xba1a9ce0ba1a9ce"
            },
            "0xcccccccccccccccccccccccccccccccccccccccc": {
                "code": "0x600060006000600060006004356101000162fffffff100",
                "balance": "0xba1a9ce0ba1a9ce"
            }
        },
        "transaction": {
            "gasPrice": "0xa",
            "maxFeePerGas": null,
            "maxPriorityFeePerGas": null,
            "nonce": "0x0",
            "to": "0xcccccccccccccccccccccccccccccccccccccccc",
            "data": [
                "0x693c61390000000000000000000000000000000000000000000000000000000000000000",
                "0x693c61390000000000000000000000000000000000000000000000000000000000000001",
                "0x693c61390000000000000000000000000000000000000000000000000000000000000002",
                "0x693c61390000000000000000000000000000000000000000000000000000000000000003",
                "0x693c61390000000000000000000000000000000000000000000000000000000000000004",
                "0x693c61390000000000000000000000000000000000000000000000000000000000000005"
            ],
            "gasLimit": [
                "0x4c4b400"
            ],
            "value": [
                "0x01"
            ],
            "secretKey": "0x45a915e4d060149eb4365960e6a7a45f334393093061116b197e3240065ff2d8"
        },
        "out": "0x",
        "post": {
            "ETC_Magneto": [
                {
                    "hash": "07ace033d30784148e53ec164f5ccd1926ddeef08a31429cc4bf9c7bc80fb54a",
                    "logs": "1dcc4de8dec75d7aab85b567b6ccd41ad312451b948a7413f0a142fd40d49347",
                    "txbytes": "0xf885800a8404c4b40094cccccccccccccccccccccccccccccccccccccccc01a4693c613900000000000000000000000000000000000000000000000000000000000000001ba0e8ff56322287185f6afd3422a825b47bf5c1a4ccf0dc0389cdc03f7c1c32b7eaa0776b02f9f5773238d3ff36b74a123f409cd6420908d7855bbe4c8ff63e00d698",
                    "indexes": {
                        "data": 0,
                        "gas": 0,
                        "value": 0
                    }
                },
                {
                    "hash": "61489b20ef9742cb60522e271330426853bb1f2811b02ed9739d60e19589f259",
                    "logs": "1dcc4de8dec75d7aab85b567b6ccd41ad312451b948a7413f0a142fd40d49347",
                    "txbytes": "0xf885800a8404c4b40094cccccccccccccccccccccccccccccccccccccccc01a4693c613900000000000000000000000000000000000000000000000000000000000000011ba02c5e81a024dd0f6fb773c8787fa46ab5eb55cb73df83562e6ddbe9106a3df7f6a029437b9a23e45bbfce086f2ddaa98b1e9e6914d7e58e2c5a128310042b332f89",
                    "indexes": {
                        "data": 1,
                        "gas": 0,
                        "value": 0
                    }
                },
                {
                    "hash": "9d9530eebb6cecccc81779b836cd3f24eb92a9189e60ca52300eca161c88d2ea",
                    "logs": "1dcc4de8dec75d7aab85b567b6ccd41ad312451b948a7413f0a142fd40d49347",
                    "txbytes": "0xf885800a8404c4b40094cccccccccccccccccccccccccccccccccccccccc01a4693c613900000000000000000000000000000000000000000000000000000000000000021ba0fc37ad4eb0633eb18f2b7867bacbe994a2ffcbb04a71e394e6e76041f6ce216fa03b1b415a5c386d8de9e16be9fdc188234b80a0dec99922d03c240f2e463053e3",
                    "indexes": {
                        "data": 2,
                        "gas": 0,
                        "value": 0
                    }
                },
                {
                    "hash": "9d9530eebb6cecccc81779b836cd3f24eb92a9189e60ca52300eca161c88d2ea",
                    "logs": "1dcc4de8dec75d7aab85b567b6ccd41ad312451b948a7413f0a142fd40d49347",
                    "txbytes": "0xf885800a8404c4b40094cccccccccccccccccccccccccccccccccccccccc01a4693c613900000000000000000000000000000000000000000000000000000000000000031ba0f06eb219c5dba98711a9a2678339f64d172bfac289a5c43a0018d3917be8dc2aa0147bd7a6ee30217e63cbddc28b0e72f115da754d8916b87992aa27ed00eb105e",
                    "indexes": {
                        "data": 3,
                        "gas": 0,
                        "value": 0
                    }
                },
                {
                    "hash": "5ab27b70dc987fa0d5ad18d0f32354f50aa84b799219b64f79a61c648a13e269",
                    "logs": "1dcc4de8dec75d7aab85b567b6ccd41ad312451b948a7413f0a142fd40d49347",
                    "txbytes": "0xf885800a8404c4b40094cccccccccccccccccccccccccccccccccccccccc01a4693c613900000000000000000000000000000000000000000000000000000000000000041ba0c148a101aa54703ff0e949441bdba90b1972a16c338f7f9a24b07f0313cd49d6a028cb82229b8a57e2048761d6fa5060c5b459f000d4e218de1372c1df9cfa171e",
                    "indexes": {
                        "data": 4,
                        "gas": 0,
                        "value": 0
                    }
                },
                {
                    "hash": "c1baf2e8f83810b2474dc03bec51e55c45fac5efe10b4c888fa46e489595484b",
                    "logs": "1dcc4de8dec75d7aab85b567b6ccd41ad312451b948a7413f0a142fd40d49347",
                    "txbytes": "0xf885800a8404c4b40094cccccccccccccccccccccccccccccccccccccccc01a4693c613900000000000000000000000000000000000000000000000000000000000000051ca09a1ce3fdc8469be9bbe660a07c169cf5b6b70fe408cc1395057bbd4cdc2c8557a0560e8c0503c4364efd017933749f22e1d9ad4eff4580d5463df54b9bff8dca31",
                    "indexes": {
                        "data": 5,
                        "gas": 0,
                        "value": 0
                    }
                }
            ],
            "ETC_Mystique": [
                {
                    "hash": "07ace033d30784148e53ec164f5ccd1926ddeef08a31429cc4bf9c7bc80fb54a",
                    "logs": "1dcc4de8dec75d7aab85b567b6ccd41ad312451b948a7413f0a142fd40d49347",
                    "txbytes": "0xf885800a8404c4b40094cccccccccccccccccccccccccccccccccccccccc01a4693c613900000000000000000000000000000000000000000000000000000000000000001ba0e8ff56322287185f6afd3422a825b47bf5c1a4ccf0dc0389cdc03f7c1c32b7eaa0776b02f9f5773238d3ff36b74a123f409cd6420908d7855bbe4c8ff63e00d698",
                    "indexes": {
                        "data": 0,
                        "gas": 0,
                        "value": 0
                    }
                },
                {
                    "hash": "61489b20ef9742cb60522e271330426853bb1f2811b02ed9739d60e19589f259",
                    "logs": "1dcc4de8dec75d7aab85b567b6ccd41ad312451b948a7413f0a142fd40d49347",
                    "txbytes": "0xf885800a8404c4b40094cccccccccccccccccccccccccccccccccccccccc01a4693c613900000000000000000000000000000000000000000000000000000000000000011ba02c5e81a024dd0f6fb773c8787fa46ab5eb55cb73df83562e6ddbe9106a3df7f6a029437b9a23e45bbfce086f2ddaa98b1e9e6914d7e58e2c5a128310042b332f89",
                    "indexes": {
                        "data": 1,
                        "gas": 0,
                        "value": 0
                    }
                },
                {
                    "hash": "9d9530eebb6cecccc81779b836cd3f24eb92a9189e60ca52300eca161c88d2ea",
                    "logs": "1dcc4de8dec75d7aab85b567b6ccd41ad312451b948a7413f0a142fd40d49347",
                    "txbytes": "0xf885800a8404c4b40094cccccccccccccccccccccccccccccccccccccccc01a4693c613900000000000000000000000000000000000000000000000000000000000000021ba0fc37ad4eb0633eb18f2b7867bacbe994a2ffcbb04a71e394e6e76041f6ce216fa03b1b415a5c386d8de9e16be9fdc188234b80a0dec99922d03c240f2e463053e3",
                    "indexes": {
                        "data": 2,
                        "gas": 0,
                        "value": 0
                    }
                },
                {
                    "hash": "9d9530eebb6cecccc81779b836cd3f24eb92a9189e60ca52300eca161c88d2ea",
                    "logs": "1dcc4de8dec75d7aab85b567b6ccd41ad312451b948a7413f0a142fd40d49347",
                    "txbytes": "0xf885800a8404c4b40094cccccccccccccccccccccccccccccccccccccccc01a4693c613900000000000000000000000000000000000000000000000000000000000000031ba0f06eb219c5dba98711a9a2678339f64d172bfac289a5c43a0018d3917be8dc2aa0147bd7a6ee30217e63cbddc28b0e72f115da754d8916b87992aa27ed00eb105e",
                    "indexes": {
                        "data": 3,
                        "gas": 0,
                        "value": 0
                    }
                },
                {
                    "hash": "5ab27b70dc987fa0d5ad18d0f32354f50aa84b799219b64f79a61c648a13e269",
                    "logs": "1dcc4de8dec75d7aab85b567b6ccd41ad312451b948a7413f0a142fd40d49347",
                    "txbytes": "0xf885800a8404c4b40094cccccccccccccccccccccccccccccccccccccccc01a4693c613900000000000000000000000000000000000000000000000000000000000000041ba0c148a101aa54703ff0e949441bdba90b1972a16c338f7f9a24b07f0313cd49d6a028cb82229b8a57e2048761d6fa5060c5b459f000d4e218de1372c1df9cfa171e",
                    "indexes": {
                        "data": 4,
                        "gas": 0,
                        "value": 0
                    }
                },
                {
                    "hash": "c1baf2e8f83810b2474dc03bec51e55c45fac5efe10b4c888fa46e489595484b",
                    "logs": "1dcc4de8dec75d7aab85b567b6ccd41ad312451b948a7413f0a142fd40d49347",
                    "txbytes": "0xf885800a8404c4b40094cccccccccccccccccccccccccccccccccccccccc01a4693c613900000000000000000000000000000000000000000000000000000000000000051ca09a1ce3fdc8469be9bbe660a07c169cf5b6b70fe408cc1395057bbd4cdc2c8557a0560e8c0503c4364efd017933749f22e1d9ad4eff4580d5463df54b9bff8dca31",
                    "indexes": {
                        "data": 5,
                        "gas": 0,
                        "value": 0
                    }
                }
            ],
            "ETC_Phoenix": [
                {
                    "hash": "7e271949ee64203e798b9d6fd3154be2e8ecb2f6baf48c28bb5f59f0ca082de7",
                    "logs": "1dcc4de8dec75d7aab85b567b6ccd41ad312451b948a7413f0a142fd40d49347",
                    "txbytes": "0xf885800a8404c4b40094cccccccccccccccccccccccccccccccccccccccc01a4693c613900000000000000000000000000000000000000000000000000000000000000001ba0e8ff56322287185f6afd3422a825b47bf5c1a4ccf0dc0389cdc03f7c1c32b7eaa0776b02f9f5773238d3ff36b74a123f409cd6420908d7855bbe4c8ff63e00d698",
                    "indexes": {
                        "data": 0,
                        "gas": 0,
                        "value": 0
                    }
                },
                {
                    "hash": "95ed8b863838de3fd8de8221d3ab1a2bd410412ca2bdab841001e6216f25c000",
                    "logs": "1dcc4de8dec75d7aab85b567b6ccd41ad312451b948a7413f0a142fd40d49347",
                    "txbytes": "0xf885800a8404c4b40094cccccccccccccccccccccccccccccccccccccccc01a4693c613900000000000000000000000000000000000000000000000000000000000000011ba02c5e81a024dd0f6fb773c8787fa46ab5eb55cb73df83562e6ddbe9106a3df7f6a029437b9a23e45bbfce086f2ddaa98b1e9e6914d7e58e2c5a128310042b332f89",
                    "indexes": {
                        "data": 1,
                        "gas": 0,
                        "value": 0
                    }
                },
                {
                    "hash": "ead2f0dd1576162508b4a9fa5294778712c5a72544befa17d3d39a2d9b92856f",
                    "logs": "1dcc4de8dec75d7aab85b567b6ccd41ad312451b948a7413f0a142fd40d49347",
                    "txbytes": "0xf885800a8404c4b40094cccccccccccccccccccccccccccccccccccccccc01a4693c613900000000000000000000000000000000000000000000000000000000000000021ba0fc37ad4eb0633eb18f2b7867bacbe994a2ffcbb04a71e394e6e76041f6ce216fa03b1b415a5c386d8de9e16be9fdc188234b80a0dec99922d03c240f2e463053e3",
                    "indexes": {
                        "data": 2,
                        "gas": 0,
                        "value": 0
                    }
                },
                {
                    "hash": "ead2f0dd1576162508b4a9fa5294778712c5a72544befa17d3d39a2d9b92856f",
                    "logs": "1dcc4de8dec75d7aab85b567b6ccd41ad312451b948a7413f0a142fd40d49347",
                    "txbytes": "0xf885800a8404c4b40094cccccccccccccccccccccccccccccccccccccccc01a4693c613900000000000000000000000000000000000000000000000000000000000000031ba0f06eb219c5dba98711a9a2678339f64d172bfac289a5c43a0018d3917be8dc2aa0147bd7a6ee30217e63cbddc28b0e72f115da754d8916b87992aa27ed00eb105e",
                    "indexes": {
                        "data": 3,
                        "gas": 0,
                        "value": 0
                    }
                },
                {
                    "hash": "6e15436e8a2b9606cbc5397c513cba9a3b4bace07ba9b3d50840a24d3cb8aea7",
                    "logs": "1dcc4de8dec75d7aab85b567b6ccd41ad312451b948a7413f0a142fd40d49347",
                    "txbytes": "0xf885800a8404c4b40094cccccccccccccccccccccccccccccccccccccccc01a4693c613900000000000000000000000000000000000000000000000000000000000000041ba0c148a101aa54703ff0e949441bdba90b1972a16c338f7f9a24b07f0313cd49d6a028cb82229b8a57e2048761d6fa5060c5b459f000d4e218de1372c1df9cfa171e",
                    "indexes": {
                        "data": 4,
                        "gas": 0,
                        "value": 0
                    }
                },
                {
                    "hash": "992e041c5b40441df7c5c039911b7d9fe9a451cc179421474b363656c9a6b629",
                    "logs": "1dcc4de8dec75d7aab85b567b6ccd41ad312451b948a7413f0a142fd40d49347",
                    "txbytes": "0xf885800a8404c4b40094cccccccccccccccccccccccccccccccccccccccc01a4693c613900000000000000000000000000000000000000000000000000000000000000051ca09a1ce3fdc8469be9bbe660a07c169cf5b6b70fe408cc1395057bbd4cdc2c8557a0560e8c0503c4364efd017933749f22e1d9ad4eff4580d5463df54b9bff8dca31",
                    "indexes": {
                        "data": 5,
                        "gas": 0,
                        "value": 0
                    }
                }
            ]
        }
    }
}