{
    "EXTCODESIZE_toNonExistent": {
        "_info": {
            "comment": "",
            "filling-rpc-server": "evm version 1.10.16-unstable-0f893109-20220105",
            "filling-tool-version": "retesteth-0.2.2-testinfo+commit.01c6aac2.Linux.g++",
            "filledWith": "CoreGeth-1.12.9-unstable-f4059ddd82d975bdc54fa648e5422a80172161cb",
            "lllcversion": "Version: 0.5.14-develop.2021.11.27+commit.401d5358.Linux.g++",
            "source": "src/GeneralStateTestsFiller/stEIP158Specific/EXTCODESIZE_toNonExistentFiller.json",
            "sourceHash": "eb25ec13cde4aa8a914946b1e64ac724f35a97fa04d182e51d432365b95f7f23"
        },
        "env": {
            "currentCoinbase": "2adc25665018aa1fe0e6bc666dac8fc2697ff9ba",
            "currentDifficulty": "0x20000",
            "currentRandom": null,
            "currentGasLimit": "0x989680",
            "currentNumber": "0x1",
            "currentTimestamp": "0x3e8",
            "currentBaseFee": "0xa"
        },
        "pre": {
            "0xa94f5374fce5edbc8e2a8697c15331677e6ebf0b": {
                "balance": "0xe8d4a51000"
            },
            "0xb94f5374fce5edbc8e2a8697c15331677e6ebf0b": {
                "code": "0x5a60005273c94f5374fce5edbc8e2a8697c15331677e6ebf0b3b6001555a6000510360645500",
                "balance": "0x0"
            }
        },
        "transaction": {
            "gasPrice": "0xa",
            "maxFeePerGas": null,
            "maxPriorityFeePerGas": null,
            "nonce": "0x0",
            "to": "0xb94f5374fce5edbc8e2a8697c15331677e6ebf0b",
            "data": [
                "0x"
            ],
            "gasLimit": [
                "0x927c0"
            ],
            "value": [
                "0x00"
            ],
            "secretKey": "0x45a915e4d060149eb4365960e6a7a45f334393093061116b197e3240065ff2d8"
        },
        "out": "0x",
        "post": {
            "ETC_Magneto": [
                {
                    "hash": "36c7a916e019b2a4ee76313a31396f5bfd9de287cfd5ae6d00523fe616a74874",
                    "logs": "1dcc4de8dec75d7aab85b567b6ccd41ad312451b948a7413f0a142fd40d49347",
                    "txbytes": "0xf860800a830927c094b94f5374fce5edbc8e2a8697c15331677e6ebf0b80801ca065622aa0319be041688699ffcc35390d71659fb43600cba91177760bd5cbe3f7a05d3be8e63e5061a12f6f569ba20df19ea8a844cbe9eba3a85c230f7cd8d70426",
                    "indexes": {
                        "data": 0,
                        "gas": 0,
                        "value": 0
                    }
                }
            ],
            "ETC_Mystique": [
                {
                    "hash": "36c7a916e019b2a4ee76313a31396f5bfd9de287cfd5ae6d00523fe616a74874",
                    "logs": "1dcc4de8dec75d7aab85b567b6ccd41ad312451b948a7413f0a142fd40d49347",
                    "txbytes": "0xf860800a830927c094b94f5374fce5edbc8e2a8697c15331677e6ebf0b80801ca065622aa0319be041688699ffcc35390d71659fb43600cba91177760bd5cbe3f7a05d3be8e63e5061a12f6f569ba20df19ea8a844cbe9eba3a85c230f7cd8d70426",
                    "indexes": {
                        "data": 0,
                        "gas": 0,
                        "value": 0
                    }
                }
            ],
            "ETC_Phoenix": [
                {
                    "hash": "09e1c7ec944a54681fe55b64c3b01636c83d8347ecbb4e4fb1b0fde3dc2bd72e",
                    "logs": "1dcc4de8dec75d7aab85b567b6ccd41ad312451b948a7413f0a142fd40d49347",
                    "txbytes": "0xf860800a830927c094b94f5374fce5edbc8e2a8697c15331677e6ebf0b80801ca065622aa0319be041688699ffcc35390d71659fb43600cba91177760bd5cbe3f7a05d3be8e63e5061a12f6f569ba20df19ea8a844cbe9eba3a85c230f7cd8d70426",
                    "indexes": {
                        "data": 0,
                        "gas": 0,
                        "value": 0
                    }
                }
            ]
        }
    }
}