{
    "Callcode1024OOG": {
        "_info": {
            "comment": "calldepth and oog",
            "filling-rpc-server": "evm version 1.10.16-unstable-0f893109-20220105",
            "filling-tool-version": "retesteth-0.2.2-testinfo+commit.01c6aac2.Linux.g++",
            "filledWith": "CoreGeth-1.12.9-unstable-4cf5b2b0837228e7d5eadba6a01ffb80e9288e21",
            "lllcversion": "Version: 0.5.14-develop.2021.11.27+commit.401d5358.Linux.g++",
            "source": "src/GeneralStateTestsFiller/stCallCreateCallCodeTest/Callcode1024OOGFiller.json",
            "sourceHash": "6fc2fd3316322d40ff3958c43f1167e55740aae2f066a33d218eaae9fd41b91c"
        },
        "env": {
            "currentCoinbase": "0xb94f5374fce5edbc8e2a8697c15331677e6ebf0b",
            "currentDifficulty": "0x20000",
            "currentGasLimit": "0x7fffffffffffffff",
            "currentNumber": "0x1",
            "currentTimestamp": "0x3e8",
            "previousHash": "0x5e20a0453cecd065ea59c37ac63e079ee08998b6045136a8ce6635c7912ec0b6"
        },
        "pre": {
            "0xa94f5374fce5edbc8e2a8697c15331677e6ebf0b": {
                "code": "0x",
                "balance": "0xffffffffffffffffffffffffffffffff",
                "nonce": "0x0"
            },
            "0xaaaf5374fce5edbc8e2a8697c15331677e6ebf0b": {
                "code": "0x",
                "balance": "0x1b58",
                "nonce": "0x0"
            },
            "0xbbbf5374fce5edbc8e2a8697c15331677e6ebf0b": {
                "code": "0x6001600054016000556000600060006000600073bbbf5374fce5edbc8e2a8697c15331677e6ebf0b610401600054046001036127105a0302f26001556103e86000540260010160025500",
                "balance": "0x400",
                "nonce": "0x0"
            }
        },
        "transaction": {
            "gasPrice": "0xa",
            "nonce": "0x0",
            "to": "0xbbbf5374fce5edbc8e2a8697c15331677e6ebf0b",
            "data": [
                "0x"
            ],
            "gasLimit": [
                "0xefe17a",
                "0xc8353a"
            ],
            "value": [
                "0x0a"
            ],
            "secretKey": "0x45a915e4d060149eb4365960e6a7a45f334393093061116b197e3240065ff2d8",
            "sender": "0xa94f5374fce5edbc8e2a8697c15331677e6ebf0b"
        },
        "post": {
            "ETC_Magneto": [
                {
                    "hash": "f7b1e95ac60e209ba531090df7c1f0218160bf3defdfca858d499bf045fb8068",
                    "logs": "1dcc4de8dec75d7aab85b567b6ccd41ad312451b948a7413f0a142fd40d49347",
                    "txbytes": "0xf860800a83efe17a94bbbf5374fce5edbc8e2a8697c15331677e6ebf0b0a801ca02ba8393604eee5a91085dcc638a570907c65d83112b9d041fc9b096903510ba6a03436ebb8869c02355de0405ca29f940bdbf821b9ea2e7ea883abdb701114bcd4",
                    "indexes": {
                        "data": 0,
                        "gas": 0,
                        "value": 0
                    }
                },
                {
                    "hash": "2a6bd675bea978a902218ef47b8ac4fc139f47ac6b20dc5229582fa1034c92b9",
                    "logs": "1dcc4de8dec75d7aab85b567b6ccd41ad312451b948a7413f0a142fd40d49347",
                    "txbytes": "0xf860800a83c8353a94bbbf5374fce5edbc8e2a8697c15331677e6ebf0b0a801ca014c4ac8efa19723d893b27c12947bb1cc54d3fb255456bde809d5eeacc8097c8a04214b1cf469a2dcb91dc815d900653e74c7ab9116f8b862243f2e526ee7445c5",
                    "indexes": {
                        "data": 0,
                        "gas": 1,
                        "value": 0
                    }
                }
            ],
            "ETC_Mystique": [
                {
                    "hash": "f7b1e95ac60e209ba531090df7c1f0218160bf3defdfca858d499bf045fb8068",
                    "logs": "1dcc4de8dec75d7aab85b567b6ccd41ad312451b948a7413f0a142fd40d49347",
                    "txbytes": "0xf860800a83efe17a94bbbf5374fce5edbc8e2a8697c15331677e6ebf0b0a801ca02ba8393604eee5a91085dcc638a570907c65d83112b9d041fc9b096903510ba6a03436ebb8869c02355de0405ca29f940bdbf821b9ea2e7ea883abdb701114bcd4",
                    "indexes": {
                        "data": 0,
                        "gas": 0,
                        "value": 0
                    }
                },
                {
                    "hash": "2a6bd675bea978a902218ef47b8ac4fc139f47ac6b20dc5229582fa1034c92b9",
                    "logs": "1dcc4de8dec75d7aab85b567b6ccd41ad312451b948a7413f0a142fd40d49347",
                    "txbytes": "0xf860800a83c8353a94bbbf5374fce5edbc8e2a8697c15331677e6ebf0b0a801ca014c4ac8efa19723d893b27c12947bb1cc54d3fb255456bde809d5eeacc8097c8a04214b1cf469a2dcb91dc815d900653e74c7ab9116f8b862243f2e526ee7445c5",
                    "indexes": {
                        "data": 0,
                        "gas": 1,
                        "value": 0
                    }
                }
            ],
            "ETC_Phoenix": [
                {
                    "hash": "8c38950ae957476f98f4cc865d6a735be6277573a82c4f83d3aef084fe2ad2f3",
                    "logs": "1dcc4de8dec75d7aab85b567b6ccd41ad312451b948a7413f0a142fd40d49347",
                    "txbytes": "0xf860800a83efe17a94bbbf5374fce5edbc8e2a8697c15331677e6ebf0b0a801ca02ba8393604eee5a91085dcc638a570907c65d83112b9d041fc9b096903510ba6a03436ebb8869c02355de0405ca29f940bdbf821b9ea2e7ea883abdb701114bcd4",
                    "indexes": {
                        "data": 0,
                        "gas": 0,
                        "value": 0
                    }
                },
                {
                    "hash": "4ff85fb31648a5048b0ae77c80bcf45f2eaf5978649c1b421acfbb20571f9515",
                    "logs": "1dcc4de8dec75d7aab85b567b6ccd41ad312451b948a7413f0a142fd40d49347",
                    "txbytes": "0xf860800a83c8353a94bbbf5374fce5edbc8e2a8697c15331677e6ebf0b0a801ca014c4ac8efa19723d893b27c12947bb1cc54d3fb255456bde809d5eeacc8097c8a04214b1cf469a2dcb91dc815d900653e74c7ab9116f8b862243f2e526ee7445c5",
                    "indexes": {
                        "data": 0,
                        "gas": 1,
                        "value": 0
                    }
                }
            ]
        }
    }
}