{
    "callWithHighValueAndGasOOG": {
        "_info": {
            "comment": "call with value. call takes more gas then tx has, and more value than account has. check returndata.",
            "filling-rpc-server": "evm version 1.10.16-unstable-0f893109-20220105",
            "filling-tool-version": "retesteth-0.2.2-testinfo+commit.01c6aac2.Linux.g++",
            "filledWith": "CoreGeth-1.12.9-unstable-f4059ddd82d975bdc54fa648e5422a80172161cb",
            "lllcversion": "Version: 0.5.14-develop.2021.11.27+commit.401d5358.Linux.g++",
            "source": "src/GeneralStateTestsFiller/stCallCreateCallCodeTest/callWithHighValueAndGasOOGFiller.json",
            "sourceHash": "bd64020882e550d738162c934ae80d03d99a79a6bc2ccbbc1bdf85f4f43b55b1"
        },
        "env": {
            "currentCoinbase": "2adc25665018aa1fe0e6bc666dac8fc2697ff9ba",
            "currentDifficulty": "0x20000",
            "currentRandom": null,
            "currentGasLimit": "0x1c9c380",
            "currentNumber": "0x1",
            "currentTimestamp": "0x3e8",
            "currentBaseFee": "0xa"
        },
        "pre": {
            "0x095e7baea6a6c7c4c2dfeb977efac326af552d87": {
                "code": "0x7fffffffffffffffffffffffffffffffffffffffffffffffffffffffffffffffff6000527faaffffffffffffffffffffffffffffffffffffffffffffffffffffffffffffaa602052600260006040600068056bc75e2d6310000073945304eb96065b2a98b57a48a06ae28d285a71b56bfffffffffffffffffffffffff160005560005160015500",
                "storage": {
                    "0x0000000000000000000000000000000000000000000000000000000000000000": "0x0000000000000000000000000000000000000000000000000000000000000005"
                },
                "balance": "0xde0b6b3a7640000"
            },
            "0x945304eb96065b2a98b57a48a06ae28d285a71b5": {
                "code": "0x6001600155603760005360026000f3",
                "balance": "0x17"
            },
            "0xa94f5374fce5edbc8e2a8697c15331677e6ebf0b": {
                "balance": "0x3635c9adc5dea00000"
            }
        },
        "transaction": {
            "gasPrice": "0xa",
            "maxFeePerGas": null,
            "maxPriorityFeePerGas": null,
            "nonce": "0x0",
            "to": "0x095e7baea6a6c7c4c2dfeb977efac326af552d87",
            "data": [
                "0x"
            ],
            "gasLimit": [
                "0x5b8d80"
            ],
            "value": [
                "0x0186a0",
                "0x056bc75e2d63100000"
            ],
            "secretKey": "0x45a915e4d060149eb4365960e6a7a45f334393093061116b197e3240065ff2d8"
        },
        "out": "0x",
        "post": {
            "ETC_Magneto": [
                {
                    "hash": "d6d6c32b107592f679e76f73b448e18bcd07839f634bc2ad9adb7d28c82da734",
                    "logs": "1dcc4de8dec75d7aab85b567b6ccd41ad312451b948a7413f0a142fd40d49347",
                    "txbytes": "0xf863800a835b8d8094095e7baea6a6c7c4c2dfeb977efac326af552d87830186a0801ba047fa88975272e5b80d7970fedb5a867f6bde90cf9d97265b27b385263fa67c77a02ca3643ac5bbb44ef94e47761feb7504ed8a740861a830f3d60624e1836e0cc1",
                    "indexes": {
                        "data": 0,
                        "gas": 0,
                        "value": 0
                    }
                },
                {
                    "hash": "8df0798fa011218a48db36c8b9a3fafa58e66f2c6438346d503711abe6175d85",
                    "logs": "1dcc4de8dec75d7aab85b567b6ccd41ad312451b948a7413f0a142fd40d49347",
                    "txbytes": "0xf869800a835b8d8094095e7baea6a6c7c4c2dfeb977efac326af552d8789056bc75e2d63100000801ba040fdcd9903984833ff70b44a75ea6bf9084cb928744a5163a2553dd21f793aaaa07cff40245cf7bec14e6e25219d4d929968d2e249950914dbe03384c3b6df7872",
                    "indexes": {
                        "data": 0,
                        "gas": 0,
                        "value": 1
                    }
                }
            ],
            "ETC_Mystique": [
                {
                    "hash": "94be914f5b264e07fdb150025c3f5145666c1e49bf25be6951b6b16fe82c6244",
                    "logs": "1dcc4de8dec75d7aab85b567b6ccd41ad312451b948a7413f0a142fd40d49347",
                    "txbytes": "0xf863800a835b8d8094095e7baea6a6c7c4c2dfeb977efac326af552d87830186a0801ba047fa88975272e5b80d7970fedb5a867f6bde90cf9d97265b27b385263fa67c77a02ca3643ac5bbb44ef94e47761feb7504ed8a740861a830f3d60624e1836e0cc1",
                    "indexes": {
                        "data": 0,
                        "gas": 0,
                        "value": 0
                    }
                },
                {
                    "hash": "8df0798fa011218a48db36c8b9a3fafa58e66f2c6438346d503711abe6175d85",
                    "logs": "1dcc4de8dec75d7aab85b567b6ccd41ad312451b948a7413f0a142fd40d49347",
                    "txbytes": "0xf869800a835b8d8094095e7baea6a6c7c4c2dfeb977efac326af552d8789056bc75e2d63100000801ba040fdcd9903984833ff70b44a75ea6bf9084cb928744a5163a2553dd21f793aaaa07cff40245cf7bec14e6e25219d4d929968d2e249950914dbe03384c3b6df7872",
                    "indexes": {
                        "data": 0,
                        "gas": 0,
                        "value": 1
                    }
                }
            ],
            "ETC_Phoenix": [
                {
                    "hash": "78c8e2f3014f473202815d825d70639652e6ac975253cf19dd45bd7b7b265002",
                    "logs": "1dcc4de8dec75d7aab85b567b6ccd41ad312451b948a7413f0a142fd40d49347",
                    "txbytes": "0xf863800a835b8d8094095e7baea6a6c7c4c2dfeb977efac326af552d87830186a0801ba047fa88975272e5b80d7970fedb5a867f6bde90cf9d97265b27b385263fa67c77a02ca3643ac5bbb44ef94e47761feb7504ed8a740861a830f3d60624e1836e0cc1",
                    "indexes": {
                        "data": 0,
                        "gas": 0,
                        "value": 0
                    }
                },
                {
                    "hash": "3743d7ebe86cd0dc7e9cb59cda4027c47d225aee8977eab0de53d941819ac24c",
                    "logs": "1dcc4de8dec75d7aab85b567b6ccd41ad312451b948a7413f0a142fd40d49347",
                    "txbytes": "0xf869800a835b8d8094095e7baea6a6c7c4c2dfeb977efac326af552d8789056bc75e2d63100000801ba040fdcd9903984833ff70b44a75ea6bf9084cb928744a5163a2553dd21f793aaaa07cff40245cf7bec14e6e25219d4d929968d2e249950914dbe03384c3b6df7872",
                    "indexes": {
                        "data": 0,
                        "gas": 0,
                        "value": 1
                    }
                }
            ]
        }
    }
}