{
    "Callcode1024BalanceTooLow": {
        "_info": {
            "comment": "calldepth and balance",
            "filling-rpc-server": "evm version 1.10.16-unstable-0f893109-20220105",
            "filling-tool-version": "retesteth-0.2.2-testinfo+commit.01c6aac2.Linux.g++",
            "filledWith": "CoreGeth-1.12.9-unstable-4cf5b2b0837228e7d5eadba6a01ffb80e9288e21",
            "lllcversion": "Version: 0.5.14-develop.2021.11.27+commit.401d5358.Linux.g++",
            "source": "src/GeneralStateTestsFiller/stCallCreateCallCodeTest/Callcode1024BalanceTooLowFiller.json",
            "sourceHash": "f3a9fb10e6e683147f7a227c358a5437aa4df6f9981a99768630b6263beec7ab"
        },
        "env": {
            "currentCoinbase": "0xb94f5374fce5edbc8e2a8697c15331677e6ebf0b",
            "currentDifficulty": "0x20000",
            "currentGasLimit": "0x7fffffffffffffff",
            "currentNumber": "0x1",
            "currentTimestamp": "0x3e8",
            "previousHash": "0x5e20a0453cecd065ea59c37ac63e079ee08998b6045136a8ce6635c7912ec0b6"
        },
        "pre": {
            "0xa94f5374fce5edbc8e2a8697c15331677e6ebf0b": {
                "code": "0x",
                "balance": "0xffffffffffffffffffffffffffffffff",
                "nonce": "0x0"
            },
            "0xaaaf5374fce5edbc8e2a8697c15331677e6ebf0b": {
                "code": "0x",
                "balance": "0x1b58",
                "nonce": "0x0"
            },
            "0xbbbf5374fce5edbc8e2a8697c15331677e6ebf0b": {
                "code": "0x600160005401600055600060006000600060005473bbbf5374fce5edbc8e2a8697c15331677e6ebf0b650ffffffffffff260015500",
                "balance": "0x400",
                "nonce": "0x0"
            }
        },
        "transaction": {
            "gasPrice": "0xa",
            "nonce": "0x0",
            "to": "0xbbbf5374fce5edbc8e2a8697c15331677e6ebf0b",
            "data": [
                "0x"
            ],
            "gasLimit": [
                "0x7f000fffffffffff"
            ],
            "value": [
                "0x0a"
            ],
            "secretKey": "0x45a915e4d060149eb4365960e6a7a45f334393093061116b197e3240065ff2d8",
            "sender": "0xa94f5374fce5edbc8e2a8697c15331677e6ebf0b"
        },
        "post": {
            "ETC_Magneto": [
                {
                    "hash": "6912aa5489ef9692965a6ceda1bcfe00eeafba55d1fed5813dfc4a281bdf09d5",
                    "logs": "1dcc4de8dec75d7aab85b567b6ccd41ad312451b948a7413f0a142fd40d49347",
                    "txbytes": "0xf865800a887f000fffffffffff94bbbf5374fce5edbc8e2a8697c15331677e6ebf0b0a801ba0d24086757a61c5e17528f050ea028f352cc65d4e4d3242b9dd43d2fc2dfd01fda05a75aaa367d1ef23ddcdc42dc41e4af07e017cba8e2c0b1d6bb97f9e13fa2e55",
                    "indexes": {
                        "data": 0,
                        "gas": 0,
                        "value": 0
                    }
                }
            ],
            "ETC_Mystique": [
                {
                    "hash": "6912aa5489ef9692965a6ceda1bcfe00eeafba55d1fed5813dfc4a281bdf09d5",
                    "logs": "1dcc4de8dec75d7aab85b567b6ccd41ad312451b948a7413f0a142fd40d49347",
                    "txbytes": "0xf865800a887f000fffffffffff94bbbf5374fce5edbc8e2a8697c15331677e6ebf0b0a801ba0d24086757a61c5e17528f050ea028f352cc65d4e4d3242b9dd43d2fc2dfd01fda05a75aaa367d1ef23ddcdc42dc41e4af07e017cba8e2c0b1d6bb97f9e13fa2e55",
                    "indexes": {
                        "data": 0,
                        "gas": 0,
                        "value": 0
                    }
                }
            ],
            "ETC_Phoenix": [
                {
                    "hash": "568ac1c20666a97807ebeabc903e17e6b1b6087f592141e7209e4240ede39395",
                    "logs": "1dcc4de8dec75d7aab85b567b6ccd41ad312451b948a7413f0a142fd40d49347",
                    "txbytes": "0xf865800a887f000fffffffffff94bbbf5374fce5edbc8e2a8697c15331677e6ebf0b0a801ba0d24086757a61c5e17528f050ea028f352cc65d4e4d3242b9dd43d2fc2dfd01fda05a75aaa367d1ef23ddcdc42dc41e4af07e017cba8e2c0b1d6bb97f9e13fa2e55",
                    "indexes": {
                        "data": 0,
                        "gas": 0,
                        "value": 0
                    }
                }
            ]
        }
    }
}