{
    "CallcodeLoseGasOOG": {
        "_info": {
            "comment": "recursive call",
            "filling-rpc-server": "evm version 1.10.16-unstable-0f893109-20220105",
            "filling-tool-version": "retesteth-0.2.2-testinfo+commit.01c6aac2.Linux.g++",
            "filledWith": "CoreGeth-1.12.9-unstable-f4059ddd82d975bdc54fa648e5422a80172161cb",
            "lllcversion": "Version: 0.5.14-develop.2021.11.27+commit.401d5358.Linux.g++",
            "source": "src/GeneralStateTestsFiller/stCallCreateCallCodeTest/CallcodeLoseGasOOGFiller.json",
            "sourceHash": "529837d37f22eb953cb32a4fda76bea58d02a44ed446c0179631369fcf5608ac"
        },
        "env": {
            "currentCoinbase": "b94f5374fce5edbc8e2a8697c15331677e6ebf0b",
            "currentDifficulty": "0x20000",
            "currentRandom": null,
            "currentGasLimit": "0x7fffffffffffffff",
            "currentNumber": "0x1",
            "currentTimestamp": "0x3e8",
            "currentBaseFee": "0xa"
        },
        "pre": {
            "0xa94f5374fce5edbc8e2a8697c15331677e6ebf0b": {
                "balance": "0xffffffffffffffffffffffffffffffff"
            },
            "0xaaaf5374fce5edbc8e2a8697c15331677e6ebf0b": {
                "balance": "0x1b58"
            },
            "0xbbbf5374fce5edbc8e2a8697c15331677e6ebf0b": {
                "code": "0x6001600054016000556000600060006000600073bbbf5374fce5edbc8e2a8697c15331677e6ebf0b620186a060005402600101f26001556103e86000540260010160025500",
                "balance": "0x400"
            }
        },
        "transaction": {
            "gasPrice": "0xa",
            "maxFeePerGas": null,
            "maxPriorityFeePerGas": null,
            "nonce": "0x0",
            "to": "0xbbbf5374fce5edbc8e2a8697c15331677e6ebf0b",
            "data": [
                "0x"
            ],
            "gasLimit": [
                "0x28976",
                "0x26266",
                "0x29810"
            ],
            "value": [
                "0x0a"
            ],
            "secretKey": "0x45a915e4d060149eb4365960e6a7a45f334393093061116b197e3240065ff2d8"
        },
        "out": "0x",
        "post": {
            "ETC_Magneto": [
                {
                    "hash": "46a2fb934ae5106e7562a226a1fd4aab5d1772f81c4da7e7ef20f503f37e88f4",
                    "logs": "1dcc4de8dec75d7aab85b567b6ccd41ad312451b948a7413f0a142fd40d49347",
                    "txbytes": "0xf860800a8302626694bbbf5374fce5edbc8e2a8697c15331677e6ebf0b0a801ba0372debc44ae927e8dddd1fd0572404455fa0e0a3021a556f7ee6226b2d6049d6a06b0e73837269b911cd41b9526771c0c1cdc51406c3f2b49e3077511e070a6330",
                    "indexes": {
                        "data": 0,
                        "gas": 1,
                        "value": 0
                    }
                },
                {
                    "hash": "f1f2b29d75b0debae9124d3caf3215b7acbb5c06093030d5dfd7896b26e27593",
                    "logs": "1dcc4de8dec75d7aab85b567b6ccd41ad312451b948a7413f0a142fd40d49347",
                    "txbytes": "0xf860800a8302981094bbbf5374fce5edbc8e2a8697c15331677e6ebf0b0a801ba06bfbe8819c0ae0b49161ee698a0ba772a4cc6469336845b3f334ec0d4c88bca2a02a7c322d094326dfa4fbfbdadddb76d586bd25646add7c3ed6717ac44fd7a6a1",
                    "indexes": {
                        "data": 0,
                        "gas": 2,
                        "value": 0
                    }
                }
            ],
            "ETC_Mystique": [
                {
                    "hash": "46a2fb934ae5106e7562a226a1fd4aab5d1772f81c4da7e7ef20f503f37e88f4",
                    "logs": "1dcc4de8dec75d7aab85b567b6ccd41ad312451b948a7413f0a142fd40d49347",
                    "txbytes": "0xf860800a8302626694bbbf5374fce5edbc8e2a8697c15331677e6ebf0b0a801ba0372debc44ae927e8dddd1fd0572404455fa0e0a3021a556f7ee6226b2d6049d6a06b0e73837269b911cd41b9526771c0c1cdc51406c3f2b49e3077511e070a6330",
                    "indexes": {
                        "data": 0,
                        "gas": 1,
                        "value": 0
                    }
                },
                {
                    "hash": "f1f2b29d75b0debae9124d3caf3215b7acbb5c06093030d5dfd7896b26e27593",
                    "logs": "1dcc4de8dec75d7aab85b567b6ccd41ad312451b948a7413f0a142fd40d49347",
                    "txbytes": "0xf860800a8302981094bbbf5374fce5edbc8e2a8697c15331677e6ebf0b0a801ba06bfbe8819c0ae0b49161ee698a0ba772a4cc6469336845b3f334ec0d4c88bca2a02a7c322d094326dfa4fbfbdadddb76d586bd25646add7c3ed6717ac44fd7a6a1",
                    "indexes": {
                        "data": 0,
                        "gas": 2,
                        "value": 0
                    }
                }
            ],
            "ETC_Phoenix": [
                {
                    "hash": "46a2fb934ae5106e7562a226a1fd4aab5d1772f81c4da7e7ef20f503f37e88f4",
                    "logs": "1dcc4de8dec75d7aab85b567b6ccd41ad312451b948a7413f0a142fd40d49347",
                    "txbytes": "0xf860800a8302626694bbbf5374fce5edbc8e2a8697c15331677e6ebf0b0a801ba0372debc44ae927e8dddd1fd0572404455fa0e0a3021a556f7ee6226b2d6049d6a06b0e73837269b911cd41b9526771c0c1cdc51406c3f2b49e3077511e070a6330",
                    "indexes": {
                        "data": 0,
                        "gas": 1,
                        "value": 0
                    }
                },
                {
                    "hash": "73f2c690420bfbde6d3267121933e0755e55cdedc180f4a42a6102ea72be6c6f",
                    "logs": "1dcc4de8dec75d7aab85b567b6ccd41ad312451b948a7413f0a142fd40d49347",
                    "txbytes": "0xf860800a8302897694bbbf5374fce5edbc8e2a8697c15331677e6ebf0b0a801ba0c96942327e8d497655a922d17f1bd85e09a77954fb42c4561eac701dae78c10ca07c7b28ec13d8ac3fb41cd3eaa4d77377e0a1932a4626b56677ec543544f5e6bc",
                    "indexes": {
                        "data": 0,
                        "gas": 0,
                        "value": 0
                    }
                }
            ]
        }
    }
}