{
    "createInitFail_OOGduringInit2": {
        "_info": {
            "comment": "",
            "filling-rpc-server": "evm version 1.10.16-unstable-0f893109-20220105",
            "filling-tool-version": "retesteth-0.2.2-testinfo+commit.01c6aac2.Linux.g++",
            "filledWith": "CoreGeth-1.12.9-unstable-4d59a861107c8232d6896811c48f229d30087be4",
            "lllcversion": "Version: 0.5.14-develop.2021.11.27+commit.401d5358.Linux.g++",
            "source": "src/GeneralStateTestsFiller/stCallCreateCallCodeTest/createInitFail_OOGduringInit2Filler.json",
            "sourceHash": "d4030718c4174dd8d4946d22b77c3df58d0a682f8959ccc47256cf1919afef49"
        },
        "env": {
            "currentCoinbase": "0x2adc25665018aa1fe0e6bc666dac8fc2697ff9ba",
            "currentDifficulty": "0x20000",
            "currentGasLimit": "0x989680",
            "currentNumber": "0x1",
            "currentTimestamp": "0x3e8",
            "currentBaseFee": "0xa",
            "previousHash": "0x5e20a0453cecd065ea59c37ac63e079ee08998b6045136a8ce6635c7912ec0b6"
        },
        "pre": {
            "0x095e7baea6a6c7c4c2dfeb977efac326af552d87": {
                "code": "0x600d80600f60003960006001f000fe6001600155622fffff60002000",
                "balance": "0xde0b6b3a7640000"
            },
            "0xa94f5374fce5edbc8e2a8697c15331677e6ebf0b": {
                "balance": "0xde0b6b3a7640000"
            }
        },
        "transaction": {
            "gasPrice": "0xa",
            "nonce": "0x0",
            "to": "0x095e7baea6a6c7c4c2dfeb977efac326af552d87",
            "data": [
                "0x"
            ],
            "gasLimit": [
                "0xf4240"
            ],
            "value": [
                "0x0186a0"
            ],
            "secretKey": "0x45a915e4d060149eb4365960e6a7a45f334393093061116b197e3240065ff2d8",
            "sender": "0xa94f5374fce5edbc8e2a8697c15331677e6ebf0b"
        },
        "post": {
            "ETC_Magneto": [
                {
                    "hash": "e1fb3af146c893af8ef6abb9a0cd058dc32c3bd3d0a84a90ba6f6ca0eeaecb01",
                    "logs": "1dcc4de8dec75d7aab85b567b6ccd41ad312451b948a7413f0a142fd40d49347",
                    "txbytes": "0xf863800a830f424094095e7baea6a6c7c4c2dfeb977efac326af552d87830186a0801ca07bb4986663aec020c016ea3db37ba36e62e9c7d355dc8ed8566b20ce7452b600a07da62397d8a969f674442837f419001f2671df0f19a45586ed3acfd93e819d82",
                    "indexes": {
                        "data": 0,
                        "gas": 0,
                        "value": 0
                    }
                }
            ],
            "ETC_Mystique": [
                {
                    "hash": "e1fb3af146c893af8ef6abb9a0cd058dc32c3bd3d0a84a90ba6f6ca0eeaecb01",
                    "logs": "1dcc4de8dec75d7aab85b567b6ccd41ad312451b948a7413f0a142fd40d49347",
                    "txbytes": "0xf863800a830f424094095e7baea6a6c7c4c2dfeb977efac326af552d87830186a0801ca07bb4986663aec020c016ea3db37ba36e62e9c7d355dc8ed8566b20ce7452b600a07da62397d8a969f674442837f419001f2671df0f19a45586ed3acfd93e819d82",
                    "indexes": {
                        "data": 0,
                        "gas": 0,
                        "value": 0
                    }
                }
            ],
            "ETC_Phoenix": [
                {
                    "hash": "e1fb3af146c893af8ef6abb9a0cd058dc32c3bd3d0a84a90ba6f6ca0eeaecb01",
                    "logs": "1dcc4de8dec75d7aab85b567b6ccd41ad312451b948a7413f0a142fd40d49347",
                    "txbytes": "0xf863800a830f424094095e7baea6a6c7c4c2dfeb977efac326af552d87830186a0801ca07bb4986663aec020c016ea3db37ba36e62e9c7d355dc8ed8566b20ce7452b600a07da62397d8a969f674442837f419001f2671df0f19a45586ed3acfd93e819d82",
                    "indexes": {
                        "data": 0,
                        "gas": 0,
                        "value": 0
                    }
                }
            ]
        }
    }
}