{
    "createNameRegistratorPreStore1NotEnoughGas": {
        "_info": {
            "comment": "Legacy Test from Christoph. J",
            "filling-rpc-server": "evm version 1.10.16-unstable-0f893109-20220105",
            "filling-tool-version": "retesteth-0.2.2-testinfo+commit.01c6aac2.Linux.g++",
            "filledWith": "CoreGeth-1.12.9-unstable-ab16c56768f0284ab56a30aac9550d3ebdc45901",
            "lllcversion": "Version: 0.5.14-develop.2021.11.27+commit.401d5358.Linux.g++",
            "source": "src/GeneralStateTestsFiller/stCallCreateCallCodeTest/createNameRegistratorPreStore1NotEnoughGasFiller.json",
            "sourceHash": "4eb6c4a4c2d457a8d249727360e1d9477d47eb44d7740fb151d71634e17731d5"
        },
        "env": {
            "currentCoinbase": "0x2adc25665018aa1fe0e6bc666dac8fc2697ff9ba",
            "currentDifficulty": "0x20000",
            "currentGasLimit": "0x5f5e100",
            "currentNumber": "0x1",
            "currentTimestamp": "0x3e8",
            "currentBaseFee": "0xa",
            "previousHash": "0x5e20a0453cecd065ea59c37ac63e079ee08998b6045136a8ce6635c7912ec0b6"
        },
        "pre": {
            "0x095e7baea6a6c7c4c2dfeb977efac326af552d87": {
                "code": "0x7f6001600155601080600c6000396000f3006000355415600957005b602035600060005260356020536055602153602260006017f000",
                "balance": "0xde0b6b3a7640000"
            },
            "0xa94f5374fce5edbc8e2a8697c15331677e6ebf0b": {
                "balance": "0xde0b6b3a7640000"
            }
        },
        "transaction": {
            "gasPrice": "0xa",
            "nonce": "0x0",
            "to": "0x095e7baea6a6c7c4c2dfeb977efac326af552d87",
            "data": [
                "0x"
            ],
            "gasLimit": [
                "0x11d6f"
            ],
            "value": [
                "0x0186a0"
            ],
            "secretKey": "0x45a915e4d060149eb4365960e6a7a45f334393093061116b197e3240065ff2d8",
            "sender": "0xa94f5374fce5edbc8e2a8697c15331677e6ebf0b"
        },
        "post": {
            "ETC_Magneto": [
                {
                    "hash": "8b1b3ef437450e5e41b020c9b94ad1d8430cfadfac920f284ad8ee0927443825",
                    "logs": "1dcc4de8dec75d7aab85b567b6ccd41ad312451b948a7413f0a142fd40d49347",
                    "txbytes": "0xf863800a83011d6f94095e7baea6a6c7c4c2dfeb977efac326af552d87830186a0801ba0d0d76b4882999b2669e26891044e28889f4b4c21b73f5888801fb7fb316ddc3fa060a8bcce33803093f72c6c2b3d08bdc822719a217794d2fbcc9b235574044657",
                    "indexes": {
                        "data": 0,
                        "gas": 0,
                        "value": 0
                    }
                }
            ],
            "ETC_Mystique": [
                {
                    "hash": "8b1b3ef437450e5e41b020c9b94ad1d8430cfadfac920f284ad8ee0927443825",
                    "logs": "1dcc4de8dec75d7aab85b567b6ccd41ad312451b948a7413f0a142fd40d49347",
                    "txbytes": "0xf863800a83011d6f94095e7baea6a6c7c4c2dfeb977efac326af552d87830186a0801ba0d0d76b4882999b2669e26891044e28889f4b4c21b73f5888801fb7fb316ddc3fa060a8bcce33803093f72c6c2b3d08bdc822719a217794d2fbcc9b235574044657",
                    "indexes": {
                        "data": 0,
                        "gas": 0,
                        "value": 0
                    }
                }
            ],
            "ETC_Phoenix": [
                {
                    "hash": "8b1b3ef437450e5e41b020c9b94ad1d8430cfadfac920f284ad8ee0927443825",
                    "logs": "1dcc4de8dec75d7aab85b567b6ccd41ad312451b948a7413f0a142fd40d49347",
                    "txbytes": "0xf863800a83011d6f94095e7baea6a6c7c4c2dfeb977efac326af552d87830186a0801ba0d0d76b4882999b2669e26891044e28889f4b4c21b73f5888801fb7fb316ddc3fa060a8bcce33803093f72c6c2b3d08bdc822719a217794d2fbcc9b235574044657",
                    "indexes": {
                        "data": 0,
                        "gas": 0,
                        "value": 0
                    }
                }
            ]
        }
    }
}