{
    "createInitFail_OOGduringInit": {
        "_info": {
            "comment": "create fails because init code has OOG",
            "filling-rpc-server": "evm version 1.10.16-unstable-0f893109-20220105",
            "filling-tool-version": "retesteth-0.2.2-testinfo+commit.01c6aac2.Linux.g++",
            "filledWith": "CoreGeth-1.12.9-unstable-f4059ddd82d975bdc54fa648e5422a80172161cb",
            "lllcversion": "Version: 0.5.14-develop.2021.11.27+commit.401d5358.Linux.g++",
            "source": "src/GeneralStateTestsFiller/stCallCreateCallCodeTest/createInitFail_OOGduringInitFiller.json",
            "sourceHash": "b948ff08ccfd0d6123880f6e9750ee163de562725c5c93a8c7d094e2a15e95da"
        },
        "env": {
            "currentCoinbase": "2adc25665018aa1fe0e6bc666dac8fc2697ff9ba",
            "currentDifficulty": "0x20000",
            "currentRandom": null,
            "currentGasLimit": "0x5f5e100",
            "currentNumber": "0x1",
            "currentTimestamp": "0x3e8",
            "currentBaseFee": "0xa"
        },
        "pre": {
            "0x095e7baea6a6c7c4c2dfeb977efac326af552d87": {
                "code": "0x605a600053600160006001f0ff00",
                "balance": "0xde0b6b3a7640000"
            },
            "0xa94f5374fce5edbc8e2a8697c15331677e6ebf0b": {
                "balance": "0xde0b6b3a7640000"
            }
        },
        "transaction": {
            "gasPrice": "0xa",
            "maxFeePerGas": null,
            "maxPriorityFeePerGas": null,
            "nonce": "0x0",
            "to": "0x095e7baea6a6c7c4c2dfeb977efac326af552d87",
            "data": [
                "0x"
            ],
            "gasLimit": [
                "0xcf1d"
            ],
            "value": [
                "0x0186a0"
            ],
            "secretKey": "0x45a915e4d060149eb4365960e6a7a45f334393093061116b197e3240065ff2d8"
        },
        "out": "0x",
        "post": {
            "ETC_Magneto": [
                {
                    "hash": "9f74aefd204fef6e6dc55282e97f0cee7791b1b1517862a14927de5e18fe7ff6",
                    "logs": "1dcc4de8dec75d7aab85b567b6ccd41ad312451b948a7413f0a142fd40d49347",
                    "txbytes": "0xf862800a82cf1d94095e7baea6a6c7c4c2dfeb977efac326af552d87830186a0801ba0883b55ae8c86df5311e87d5be2cb39f09f3b75a8825c8fb2c31e438b193fd72ea0215aa80c193f90678a508077fc0801f4a58e33d470de28965d23db78ffebbb48",
                    "indexes": {
                        "data": 0,
                        "gas": 0,
                        "value": 0
                    }
                }
            ],
            "ETC_Mystique": [
                {
                    "hash": "9f74aefd204fef6e6dc55282e97f0cee7791b1b1517862a14927de5e18fe7ff6",
                    "logs": "1dcc4de8dec75d7aab85b567b6ccd41ad312451b948a7413f0a142fd40d49347",
                    "txbytes": "0xf862800a82cf1d94095e7baea6a6c7c4c2dfeb977efac326af552d87830186a0801ba0883b55ae8c86df5311e87d5be2cb39f09f3b75a8825c8fb2c31e438b193fd72ea0215aa80c193f90678a508077fc0801f4a58e33d470de28965d23db78ffebbb48",
                    "indexes": {
                        "data": 0,
                        "gas": 0,
                        "value": 0
                    }
                }
            ],
            "ETC_Phoenix": [
                {
                    "hash": "9f74aefd204fef6e6dc55282e97f0cee7791b1b1517862a14927de5e18fe7ff6",
                    "logs": "1dcc4de8dec75d7aab85b567b6ccd41ad312451b948a7413f0a142fd40d49347",
                    "txbytes": "0xf862800a82cf1d94095e7baea6a6c7c4c2dfeb977efac326af552d87830186a0801ba0883b55ae8c86df5311e87d5be2cb39f09f3b75a8825c8fb2c31e438b193fd72ea0215aa80c193f90678a508077fc0801f4a58e33d470de28965d23db78ffebbb48",
                    "indexes": {
                        "data": 0,
                        "gas": 0,
                        "value": 0
                    }
                }
            ]
        }
    }
}