{
    "shiftCombinations": {
        "_info": {
            "comment": "https://github.com/ethereum/tests/issues/564",
            "filling-rpc-server": "evm version 1.10.16-unstable-0f893109-20220105",
            "filling-tool-version": "retesteth-0.2.2-testinfo+commit.01c6aac2.Linux.g++",
            "filledWith": "CoreGeth-1.12.9-unstable-3995a327f2ded5c98324b03792b5ccc22557754f",
            "lllcversion": "Version: 0.5.14-develop.2021.11.27+commit.401d5358.Linux.g++",
            "source": "src/GeneralStateTestsFiller/stShift/shiftCombinationsFiller.yml",
            "sourceHash": "8ee650ebee957f04a3b4aa13286b882d0ed5d0dcc7d7a83fe7223b505f761f44"
        },
        "env": {
            "currentCoinbase": "0x2adc25665018aa1fe0e6bc666dac8fc2697ff9ba",
            "currentDifficulty": "0x20000",
            "currentGasLimit": "0x5f5e100",
            "currentNumber": "0x1",
            "currentTimestamp": "0x3e8",
            "currentBaseFee": "0xa",
            "previousHash": "0x5e20a0453cecd065ea59c37ac63e079ee08998b6045136a8ce6635c7912ec0b6"
        },
        "pre": {
            "0x095e7baea6a6c7c4c2dfeb977efac326af552d87": {
                "code": "0x60ff60005260006000602002612774015260016001602002612774015260026002602002612774015260056003602002612774015260fe6004602002612774015260ff6005602002612774015261010060066020026127740152610101600760200261277401527fffffffffffffffffffffffffffffffffffffffffffffffffffffffffffffffff600860200261277401527ffffffffffffffffffffffffffffffffffffffffffffffffffffffffffffffffe600960200261277401527f8000000000000000000000000000000000000000000000000000000000000000600a60200261277401527fa000000000000000000000000000000000000000000000000000000000000000600b60200261277401527f5555555555555555555555555555555555555555555555555555555555555555600c60200261277401527faaaaaaaaaaaaaaaaaaaaaaaaaaaaaaaaaaaaaaaaaaaaaaaaaaaaaaaaaaaaaaaa600d602002612774015260006000602002614e84015260016001602002614e84015260026002602002614e84015260056003602002612774015260fe6004602002614e84015260ff6005602002614e8401526101006006602002614e8401526101016007602002614e8401527fffffffffffffffffffffffffffffffffffffffffffffffffffffffffffffffff6008602002614e8401527ffffffffffffffffffffffffffffffffffffffffffffffffffffffffffffffffe6009602002614e8401527f8000000000000000000000000000000000000000000000000000000000000000600a602002614e8401527fa000000000000000000000000000000000000000000000000000000000000000600b602002614e8401527f5555555555555555555555555555555555555555555555555555555555555555600c602002614e8401527faaaaaaaaaaaaaaaaaaaaaaaaaaaaaaaaaaaaaaaaaaaaaaaaaaaaaaaaaaaaaaaa600d602002614e84015260006020525b600e60205110156104f05760006040525b600e60405110156104e257600051600101600052631000001d60005155600051600101600052600060205160200261277401511461032f57602051602002612774015160005155610336565b6080600051555b6000516001016000526000604051602002614e8401511461036557604051602002614e8401516000515561036c565b6080600051555b600051600101600052604051602002614e84015160205160200261277401511d60005155600051600101600052631000001b6000515560005160010160005260006020516020026127740151146103d1576020516020026127740151600051556103d8565b6080600051555b6000516001016000526000604051602002614e8401511461040757604051602002614e8401516000515561040e565b6080600051555b600051600101600052604051602002614e84015160205160200261277401511b60005155600051600101600052631000001c6000515560005160010160005260006020516020026127740151146104735760205160200261277401516000515561047a565b6080600051555b6000516001016000526000604051602002614e840151146104a957604051602002614e840151600051556104b0565b6080600051555b600051600101600052604051602002614e84015160205160200261277401511c600051556040516001016040526102e3565b6020516001016020526102d2565b0000",
                "balance": "0xde0b6b3a7640000"
            },
            "0xa94f5374fce5edbc8e2a8697c15331677e6ebf0b": {
                "balance": "0xde0b6b3a7640000"
            }
        },
        "transaction": {
            "gasPrice": "0xa",
            "nonce": "0x0",
            "to": "0x095e7baea6a6c7c4c2dfeb977efac326af552d87",
            "data": [
                "0x"
            ],
            "gasLimit": [
                "0x4c4b400"
            ],
            "value": [
                "0x01"
            ],
            "secretKey": "0x45a915e4d060149eb4365960e6a7a45f334393093061116b197e3240065ff2d8",
            "sender": "0xa94f5374fce5edbc8e2a8697c15331677e6ebf0b"
        },
        "post": {
            "ETC_Magneto": [
                {
                    "hash": "350dbee2363c36e51387289a2198d34b3198ed4e7a3486d0f6e484fa62c5122e",
                    "logs": "1dcc4de8dec75d7aab85b567b6ccd41ad312451b948a7413f0a142fd40d49347",
                    "txbytes": "0xf861800a8404c4b40094095e7baea6a6c7c4c2dfeb977efac326af552d8701801ba0ee27b78889f9804d41653c96e9719d812664cdad812b86cfbcd5aed83cd93e87a05fdfe56c164829fe45dd3008c5daa006a2e2e4e87de68c39622b11d07f1b3775",
                    "indexes": {
                        "data": 0,
                        "gas": 0,
                        "value": 0
                    }
                }
            ],
            "ETC_Mystique": [
                {
                    "hash": "350dbee2363c36e51387289a2198d34b3198ed4e7a3486d0f6e484fa62c5122e",
                    "logs": "1dcc4de8dec75d7aab85b567b6ccd41ad312451b948a7413f0a142fd40d49347",
                    "txbytes": "0xf861800a8404c4b40094095e7baea6a6c7c4c2dfeb977efac326af552d8701801ba0ee27b78889f9804d41653c96e9719d812664cdad812b86cfbcd5aed83cd93e87a05fdfe56c164829fe45dd3008c5daa006a2e2e4e87de68c39622b11d07f1b3775",
                    "indexes": {
                        "data": 0,
                        "gas": 0,
                        "value": 0
                    }
                }
            ],
            "ETC_Phoenix": [
                {
                    "hash": "7f5b9c845385c0e9e19b4f8f5ae59f0d18f5d74f72b6ae5484e18d097a1da5e4",
                    "logs": "1dcc4de8dec75d7aab85b567b6ccd41ad312451b948a7413f0a142fd40d49347",
                    "txbytes": "0xf861800a8404c4b40094095e7baea6a6c7c4c2dfeb977efac326af552d8701801ba0ee27b78889f9804d41653c96e9719d812664cdad812b86cfbcd5aed83cd93e87a05fdfe56c164829fe45dd3008c5daa006a2e2e4e87de68c39622b11d07f1b3775",
                    "indexes": {
                        "data": 0,
                        "gas": 0,
                        "value": 0
                    }
                }
            ]
        }
    }
}