{
    "shl01-0100": {
        "_info": {
            "comment": "",
            "filling-rpc-server": "evm version 1.10.16-unstable-0f893109-20220105",
            "filling-tool-version": "retesteth-0.2.2-testinfo+commit.01c6aac2.Linux.g++",
            "filledWith": "CoreGeth-1.12.9-unstable-ab16c56768f0284ab56a30aac9550d3ebdc45901",
            "lllcversion": "Version: 0.5.14-develop.2021.11.27+commit.401d5358.Linux.g++",
            "source": "src/GeneralStateTestsFiller/stShift/shl01-0100Filler.json",
            "sourceHash": "e5edd905bc5998901d139ef14a4fc81d10bcdc6e2b0b566737b75fd7cf4361fe"
        },
        "env": {
            "currentCoinbase": "0x2adc25665018aa1fe0e6bc666dac8fc2697ff9ba",
            "currentDifficulty": "0x20000",
            "currentGasLimit": "0xf4240",
            "currentNumber": "0x1",
            "currentTimestamp": "0x3e8",
            "currentBaseFee": "0xa",
            "previousHash": "0x5e20a0453cecd065ea59c37ac63e079ee08998b6045136a8ce6635c7912ec0b6"
        },
        "pre": {
            "0x095e7baea6a6c7c4c2dfeb977efac326af552d87": {
                "code": "0x60016101001b600055",
                "storage": {
                    "0x0000000000000000000000000000000000000000000000000000000000000000": "0x0000000000000000000000000000000000000000000000000000000000000003"
                },
                "balance": "0xde0b6b3a7640000"
            },
            "0xa94f5374fce5edbc8e2a8697c15331677e6ebf0b": {
                "balance": "0xde0b6b3a7640000"
            }
        },
        "transaction": {
            "gasPrice": "0xa",
            "nonce": "0x0",
            "to": "0x095e7baea6a6c7c4c2dfeb977efac326af552d87",
            "data": [
                "0x"
            ],
            "gasLimit": [
                "0x61a80"
            ],
            "value": [
                "0x0186a0"
            ],
            "secretKey": "0x45a915e4d060149eb4365960e6a7a45f334393093061116b197e3240065ff2d8",
            "sender": "0xa94f5374fce5edbc8e2a8697c15331677e6ebf0b"
        },
        "post": {
            "ETC_Magneto": [
                {
                    "hash": "282f631d98fb5a4b72ca1fe0d7d5b7fd5faf973d960f01cb75683a4f5117f8e7",
                    "logs": "1dcc4de8dec75d7aab85b567b6ccd41ad312451b948a7413f0a142fd40d49347",
                    "txbytes": "0xf863800a83061a8094095e7baea6a6c7c4c2dfeb977efac326af552d87830186a0801ba0ffb600e63115a7362e7811894a91d8ba4330e526f22121c994c4692035dfdfd5a06198379fcac8de3dbfac48b165df4bf88e2088f294b61efb9a65fe2281c76e16",
                    "indexes": {
                        "data": 0,
                        "gas": 0,
                        "value": 0
                    }
                }
            ],
            "ETC_Mystique": [
                {
                    "hash": "ba8930f226232aedaaa6ce75f04c22d9e4c64d135a1d83e3390a342547c0365c",
                    "logs": "1dcc4de8dec75d7aab85b567b6ccd41ad312451b948a7413f0a142fd40d49347",
                    "txbytes": "0xf863800a83061a8094095e7baea6a6c7c4c2dfeb977efac326af552d87830186a0801ba0ffb600e63115a7362e7811894a91d8ba4330e526f22121c994c4692035dfdfd5a06198379fcac8de3dbfac48b165df4bf88e2088f294b61efb9a65fe2281c76e16",
                    "indexes": {
                        "data": 0,
                        "gas": 0,
                        "value": 0
                    }
                }
            ],
            "ETC_Phoenix": [
                {
                    "hash": "282f631d98fb5a4b72ca1fe0d7d5b7fd5faf973d960f01cb75683a4f5117f8e7",
                    "logs": "1dcc4de8dec75d7aab85b567b6ccd41ad312451b948a7413f0a142fd40d49347",
                    "txbytes": "0xf863800a83061a8094095e7baea6a6c7c4c2dfeb977efac326af552d87830186a0801ba0ffb600e63115a7362e7811894a91d8ba4330e526f22121c994c4692035dfdfd5a06198379fcac8de3dbfac48b165df4bf88e2088f294b61efb9a65fe2281c76e16",
                    "indexes": {
                        "data": 0,
                        "gas": 0,
                        "value": 0
                    }
                }
            ]
        }
    }
}