{
    "callcallcodecallcode_011_OOGMBefore": {
        "_info": {
            "comment": "CALLCODE -\u003e DELEGATE -\u003e OOG DELEGATE -\u003e CODE",
            "filling-rpc-server": "evm version 1.10.16-unstable-0f893109-20220105",
            "filling-tool-version": "retesteth-0.2.2-testinfo+commit.01c6aac2.Linux.g++",
            "filledWith": "CoreGeth-1.12.9-unstable-4d59a861107c8232d6896811c48f229d30087be4",
            "lllcversion": "Version: 0.5.14-develop.2021.11.27+commit.401d5358.Linux.g++",
            "source": "src/GeneralStateTestsFiller/stCallDelegateCodesCallCodeHomestead/callcallcodecallcode_011_OOGMBeforeFiller.json",
            "sourceHash": "726e1be56aafc6075e903d661b00c9739bcf06337de8f05279bd2e3df7fd4f7f"
        },
        "env": {
            "currentCoinbase": "0x2adc25665018aa1fe0e6bc666dac8fc2697ff9ba",
            "currentDifficulty": "0x20000",
            "currentGasLimit": "0x1c9c380",
            "currentNumber": "0x1",
            "currentTimestamp": "0x3e8",
            "currentBaseFee": "0xa",
            "previousHash": "0x5e20a0453cecd065ea59c37ac63e079ee08998b6045136a8ce6635c7912ec0b6"
        },
        "pre": {
            "0x1000000000000000000000000000000000000000": {
                "code": "0x60406000604060006000731000000000000000000000000000000000000001620249f0f260005500",
                "balance": "0xde0b6b3a7640000"
            },
            "0x1000000000000000000000000000000000000001": {
                "code": "0x6040600060406000731000000000000000000000000000000000000002619c90f46001556001600b5500",
                "balance": "0x0"
            },
            "0x1000000000000000000000000000000000000002": {
                "code": "0x622fffff600020506040600060406000731000000000000000000000000000000000000003614e34f460025500",
                "balance": "0x0"
            },
            "0x1000000000000000000000000000000000000003": {
                "code": "0x600160035500",
                "balance": "0x0"
            },
            "0xa94f5374fce5edbc8e2a8697c15331677e6ebf0b": {
                "balance": "0xde0b6b3a7640000"
            }
        },
        "transaction": {
            "gasPrice": "0xa",
            "nonce": "0x0",
            "to": "0x1000000000000000000000000000000000000000",
            "data": [
                "0x"
            ],
            "gasLimit": [
                "0x29fe0"
            ],
            "value": [
                "0x00"
            ],
            "secretKey": "0x45a915e4d060149eb4365960e6a7a45f334393093061116b197e3240065ff2d8",
            "sender": "0xa94f5374fce5edbc8e2a8697c15331677e6ebf0b"
        },
        "post": {
            "ETC_Magneto": [
                {
                    "hash": "74c989b3ab3366d0ea679c156f5e3b8f2e2a8aa313b0d21e483af1eef2761949",
                    "logs": "1dcc4de8dec75d7aab85b567b6ccd41ad312451b948a7413f0a142fd40d49347",
                    "txbytes": "0xf860800a83029fe094100000000000000000000000000000000000000080801ca01b274730d72131698f0cc6eea2f774a24c10b287a72be84322c3c9fa1ddc2dffa056fcfb722815c7658ee0ac5099f980ad1cacb56f3b0e4800760de325539de6c8",
                    "indexes": {
                        "data": 0,
                        "gas": 0,
                        "value": 0
                    }
                }
            ],
            "ETC_Mystique": [
                {
                    "hash": "74c989b3ab3366d0ea679c156f5e3b8f2e2a8aa313b0d21e483af1eef2761949",
                    "logs": "1dcc4de8dec75d7aab85b567b6ccd41ad312451b948a7413f0a142fd40d49347",
                    "txbytes": "0xf860800a83029fe094100000000000000000000000000000000000000080801ca01b274730d72131698f0cc6eea2f774a24c10b287a72be84322c3c9fa1ddc2dffa056fcfb722815c7658ee0ac5099f980ad1cacb56f3b0e4800760de325539de6c8",
                    "indexes": {
                        "data": 0,
                        "gas": 0,
                        "value": 0
                    }
                }
            ],
            "ETC_Phoenix": [
                {
                    "hash": "0e5334400ae4ebe5c964226594bd4f3eb58b3bd0eafbb59057449e46e58824e7",
                    "logs": "1dcc4de8dec75d7aab85b567b6ccd41ad312451b948a7413f0a142fd40d49347",
                    "txbytes": "0xf860800a83029fe094100000000000000000000000000000000000000080801ca01b274730d72131698f0cc6eea2f774a24c10b287a72be84322c3c9fa1ddc2dffa056fcfb722815c7658ee0ac5099f980ad1cacb56f3b0e4800760de325539de6c8",
                    "indexes": {
                        "data": 0,
                        "gas": 0,
                        "value": 0
                    }
                }
            ]
        }
    }
}