{
    "createContractViaContractOOGInitCode": {
        "_info": {
            "comment": "",
            "filling-rpc-server": "evm version 1.10.16-unstable-0f893109-20220105",
            "filling-tool-version": "retesteth-0.2.2-testinfo+commit.01c6aac2.Linux.g++",
            "filledWith": "CoreGeth-1.12.9-unstable-f4059ddd82d975bdc54fa648e5422a80172161cb",
            "lllcversion": "Version: 0.5.14-develop.2021.11.27+commit.401d5358.Linux.g++",
            "source": "src/GeneralStateTestsFiller/stHomesteadSpecific/createContractViaContractOOGInitCodeFiller.json",
            "sourceHash": "cabc31f7abf0c74525da181596325cc465fd678d2f35016d54483d4a55fa5f19"
        },
        "env": {
            "currentCoinbase": "2adc25665018aa1fe0e6bc666dac8fc2697ff9ba",
            "currentDifficulty": "0x20000",
            "currentRandom": null,
            "currentGasLimit": "0xf4240",
            "currentNumber": "0x1",
            "currentTimestamp": "0x3e8",
            "currentBaseFee": "0xa"
        },
        "pre": {
            "0x1000000000000000000000000000000000000001": {
                "code": "0x6b602060406000f0600c600055600052600c60146000f000",
                "balance": "0x0"
            },
            "0xa94f5374fce5edbc8e2a8697c15331677e6ebf0b": {
                "balance": "0x10c8e0"
            }
        },
        "transaction": {
            "gasPrice": "0xa",
            "maxFeePerGas": null,
            "maxPriorityFeePerGas": null,
            "nonce": "0x0",
            "to": "0x1000000000000000000000000000000000000001",
            "data": [
                "0x"
            ],
            "gasLimit": [
                "0x19a54"
            ],
            "value": [
                "0x00"
            ],
            "secretKey": "0x45a915e4d060149eb4365960e6a7a45f334393093061116b197e3240065ff2d8"
        },
        "out": "0x",
        "post": {
            "ETC_Magneto": [
                {
                    "hash": "79a730a1bc61d0f78b19cf551ef82b6005145670629002d8763a4b9cb3cb9608",
                    "logs": "1dcc4de8dec75d7aab85b567b6ccd41ad312451b948a7413f0a142fd40d49347",
                    "txbytes": "0xf860800a83019a5494100000000000000000000000000000000000000180801ca0396b3fa38957d7ca6948fd8a05a73a402588cee2fc9591e85fe94c8198108a62a0506129aae98dcc2bf75a47be6a860a2814bc0064591796d2cb33fdf87ceae542",
                    "indexes": {
                        "data": 0,
                        "gas": 0,
                        "value": 0
                    }
                }
            ],
            "ETC_Mystique": [
                {
                    "hash": "79a730a1bc61d0f78b19cf551ef82b6005145670629002d8763a4b9cb3cb9608",
                    "logs": "1dcc4de8dec75d7aab85b567b6ccd41ad312451b948a7413f0a142fd40d49347",
                    "txbytes": "0xf860800a83019a5494100000000000000000000000000000000000000180801ca0396b3fa38957d7ca6948fd8a05a73a402588cee2fc9591e85fe94c8198108a62a0506129aae98dcc2bf75a47be6a860a2814bc0064591796d2cb33fdf87ceae542",
                    "indexes": {
                        "data": 0,
                        "gas": 0,
                        "value": 0
                    }
                }
            ],
            "ETC_Phoenix": [
                {
                    "hash": "79a730a1bc61d0f78b19cf551ef82b6005145670629002d8763a4b9cb3cb9608",
                    "logs": "1dcc4de8dec75d7aab85b567b6ccd41ad312451b948a7413f0a142fd40d49347",
                    "txbytes": "0xf860800a83019a5494100000000000000000000000000000000000000180801ca0396b3fa38957d7ca6948fd8a05a73a402588cee2fc9591e85fe94c8198108a62a0506129aae98dcc2bf75a47be6a860a2814bc0064591796d2cb33fdf87ceae542",
                    "indexes": {
                        "data": 0,
                        "gas": 0,
                        "value": 0
                    }
                }
            ]
        }
    }
}