{
    "createContractViaContract": {
        "_info": {
            "comment": "",
            "filling-rpc-server": "evm version 1.10.16-unstable-0f893109-20220105",
            "filling-tool-version": "retesteth-0.2.2-testinfo+commit.01c6aac2.Linux.g++",
            "filledWith": "CoreGeth-1.12.9-unstable-f4059ddd82d975bdc54fa648e5422a80172161cb",
            "lllcversion": "Version: 0.5.14-develop.2021.11.27+commit.401d5358.Linux.g++",
            "source": "src/GeneralStateTestsFiller/stHomesteadSpecific/createContractViaContractFiller.json",
            "sourceHash": "362d8d2718034c2e70ffb29309815defffa4877b5038ac32f32d94153a9f6897"
        },
        "env": {
            "currentCoinbase": "2adc25665018aa1fe0e6bc666dac8fc2697ff9ba",
            "currentDifficulty": "0x20000",
            "currentRandom": null,
            "currentGasLimit": "0xf4240",
            "currentNumber": "0x1",
            "currentTimestamp": "0x3e8",
            "currentBaseFee": "0xa"
        },
        "pre": {
            "0x1000000000000000000000000000000000000001": {
                "code": "0x600060006000f000",
                "balance": "0x0"
            },
            "0xa94f5374fce5edbc8e2a8697c15331677e6ebf0b": {
                "balance": "0xf4240"
            }
        },
        "transaction": {
            "gasPrice": "0xa",
            "maxFeePerGas": null,
            "maxPriorityFeePerGas": null,
            "nonce": "0x0",
            "to": "0x1000000000000000000000000000000000000001",
            "data": [
                "0x"
            ],
            "gasLimit": [
                "0x186a0"
            ],
            "value": [
                "0x00"
            ],
            "secretKey": "0x45a915e4d060149eb4365960e6a7a45f334393093061116b197e3240065ff2d8"
        },
        "out": "0x",
        "post": {
            "ETC_Magneto": [
                {
                    "hash": "6d929b0cd1f560502e3ba1c732b278e47236e0ff1b13c2d97a91f8742a53d20a",
                    "logs": "1dcc4de8dec75d7aab85b567b6ccd41ad312451b948a7413f0a142fd40d49347",
                    "txbytes": "0xf860800a830186a094100000000000000000000000000000000000000180801ca0594f176e4711c05310f401064605ab57b4f9538858908aa379ddf6bb1a18c46ba01982f0c00049d0cb19c28ffe05f32952a3136f81dd6adc5ee34ac8144862a2f2",
                    "indexes": {
                        "data": 0,
                        "gas": 0,
                        "value": 0
                    }
                }
            ],
            "ETC_Mystique": [
                {
                    "hash": "6d929b0cd1f560502e3ba1c732b278e47236e0ff1b13c2d97a91f8742a53d20a",
                    "logs": "1dcc4de8dec75d7aab85b567b6ccd41ad312451b948a7413f0a142fd40d49347",
                    "txbytes": "0xf860800a830186a094100000000000000000000000000000000000000180801ca0594f176e4711c05310f401064605ab57b4f9538858908aa379ddf6bb1a18c46ba01982f0c00049d0cb19c28ffe05f32952a3136f81dd6adc5ee34ac8144862a2f2",
                    "indexes": {
                        "data": 0,
                        "gas": 0,
                        "value": 0
                    }
                }
            ],
            "ETC_Phoenix": [
                {
                    "hash": "6d929b0cd1f560502e3ba1c732b278e47236e0ff1b13c2d97a91f8742a53d20a",
                    "logs": "1dcc4de8dec75d7aab85b567b6ccd41ad312451b948a7413f0a142fd40d49347",
                    "txbytes": "0xf860800a830186a094100000000000000000000000000000000000000180801ca0594f176e4711c05310f401064605ab57b4f9538858908aa379ddf6bb1a18c46ba01982f0c00049d0cb19c28ffe05f32952a3136f81dd6adc5ee34ac8144862a2f2",
                    "indexes": {
                        "data": 0,
                        "gas": 0,
                        "value": 0
                    }
                }
            ]
        }
    }
}