{
    "gasPrice0": {
        "_info": {
            "comment": "",
            "filling-rpc-server": "evm version 1.10.16-unstable-0f893109-20220105",
            "filling-tool-version": "retesteth-0.2.2-testinfo+commit.01c6aac2.Linux.g++",
            "filledWith": "CoreGeth-1.12.9-unstable-d390462df9df233b60b4cd7a37db5b3043832022",
            "lllcversion": "Version: 0.5.14-develop.2021.11.27+commit.401d5358.Linux.g++",
            "source": "src/GeneralStateTestsFiller/stSpecialTest/gasPrice0Filler.json",
            "sourceHash": "a735245f92eb8af35566f664602a704cf2ad62e6560d4d352e87dc1db5cfa568"
        },
        "env": {
            "currentCoinbase": "0x2adc25665018aa1fe0e6bc666dac8fc2697ff9ba",
            "currentDifficulty": "0x20000",
            "currentGasLimit": "0xf4240",
            "currentNumber": "0x1",
            "currentTimestamp": "0x3e8",
            "previousHash": "0x5e20a0453cecd065ea59c37ac63e079ee08998b6045136a8ce6635c7912ec0b6"
        },
        "pre": {
            "0x095e7baea6a6c7c4c2dfeb977efac326af552d87": {
                "code": "0x6001600101600055",
                "balance": "0xde0b6b3a7640000",
                "nonce": "0x0"
            },
            "0xa94f5374fce5edbc8e2a8697c15331677e6ebf0b": {
                "code": "0x",
                "balance": "0xde0b6b3a7640000",
                "nonce": "0x0"
            }
        },
        "transaction": {
            "gasPrice": "0xa",
            "nonce": "0x0",
            "to": "0x095e7baea6a6c7c4c2dfeb977efac326af552d87",
            "data": [
                "0x"
            ],
            "gasLimit": [
                "0xa0340"
            ],
            "value": [
                "0x0186a0"
            ],
            "secretKey": "0x45a915e4d060149eb4365960e6a7a45f334393093061116b197e3240065ff2d8",
            "sender": "0xa94f5374fce5edbc8e2a8697c15331677e6ebf0b"
        },
        "post": {
            "ETC_Magneto": [
                {
                    "hash": "afccd54b3b20ea0174b39b3d052929ff2adfba5965520e65816476dd0007fc43",
                    "logs": "1dcc4de8dec75d7aab85b567b6ccd41ad312451b948a7413f0a142fd40d49347",
                    "txbytes": "0xf863800a830a034094095e7baea6a6c7c4c2dfeb977efac326af552d87830186a0801ba0fdf326507c8e835018d00783135867d368cb010db4709185b624ecb84652bc9aa0461943dc21e56faa3ca8043d823dae6fe1b1087626b1958a69f566b97c49c8c5",
                    "indexes": {
                        "data": 0,
                        "gas": 0,
                        "value": 0
                    }
                }
            ],
            "ETC_Mystique": [
                {
                    "hash": "afccd54b3b20ea0174b39b3d052929ff2adfba5965520e65816476dd0007fc43",
                    "logs": "1dcc4de8dec75d7aab85b567b6ccd41ad312451b948a7413f0a142fd40d49347",
                    "txbytes": "0xf863800a830a034094095e7baea6a6c7c4c2dfeb977efac326af552d87830186a0801ba0fdf326507c8e835018d00783135867d368cb010db4709185b624ecb84652bc9aa0461943dc21e56faa3ca8043d823dae6fe1b1087626b1958a69f566b97c49c8c5",
                    "indexes": {
                        "data": 0,
                        "gas": 0,
                        "value": 0
                    }
                }
            ],
            "ETC_Phoenix": [
                {
                    "hash": "949e104318ab835e76448359a8c425a695204f61408c9342c2b335e8a5d21b73",
                    "logs": "1dcc4de8dec75d7aab85b567b6ccd41ad312451b948a7413f0a142fd40d49347",
                    "txbytes": "0xf863800a830a034094095e7baea6a6c7c4c2dfeb977efac326af552d87830186a0801ba0fdf326507c8e835018d00783135867d368cb010db4709185b624ecb84652bc9aa0461943dc21e56faa3ca8043d823dae6fe1b1087626b1958a69f566b97c49c8c5",
                    "indexes": {
                        "data": 0,
                        "gas": 0,
                        "value": 0
                    }
                }
            ]
        }
    }
}