{
    "push32withoutByte": {
        "_info": {
            "comment": "push expect 32 bytes. but we have only 10 byte",
            "filling-rpc-server": "evm version 1.10.16-unstable-0f893109-20220105",
            "filling-tool-version": "retesteth-0.2.2-testinfo+commit.01c6aac2.Linux.g++",
            "filledWith": "CoreGeth-1.12.9-unstable-f4059ddd82d975bdc54fa648e5422a80172161cb",
            "lllcversion": "Version: 0.5.14-develop.2021.11.27+commit.401d5358.Linux.g++",
            "source": "src/GeneralStateTestsFiller/stSpecialTest/push32withoutByteFiller.json",
            "sourceHash": "376f0cda83a57da026382b3ed21d4da4d0078d3a57ca58126cacf9a9b0a9b7e7"
        },
        "env": {
            "currentCoinbase": "68795c4aa09d6f4ed3e5deddf8c2ad3049a601da",
            "currentDifficulty": "0x20000",
            "currentRandom": null,
            "currentGasLimit": "0x2fefd8",
            "currentNumber": "0x1",
            "currentTimestamp": "0x3e8",
            "currentBaseFee": "0xa"
        },
        "pre": {
            "0x0dc02922f33e45537411b9f92a1dcc9750ba9932": {
                "code": "0x7f11223344556677889910",
                "balance": "0x0"
            },
            "0xa94f5374fce5edbc8e2a8697c15331677e6ebf0b": {
                "balance": "0x8ac7230489e80000",
                "nonce": "0x1"
            }
        },
        "transaction": {
            "gasPrice": "0xa",
            "maxFeePerGas": null,
            "maxPriorityFeePerGas": null,
            "nonce": "0x1",
            "to": "0x0dc02922f33e45537411b9f92a1dcc9750ba9932",
            "data": [
                "0x"
            ],
            "gasLimit": [
                "0x7a120"
            ],
            "value": [
                "0x00"
            ],
            "secretKey": "0x45a915e4d060149eb4365960e6a7a45f334393093061116b197e3240065ff2d8"
        },
        "out": "0x",
        "post": {
            "ETC_Magneto": [
                {
                    "hash": "ad88ad486ce94b52155086ce7cffd9d8aa0eefb92ad46c5ad1e1b7c6ce5633a5",
                    "logs": "1dcc4de8dec75d7aab85b567b6ccd41ad312451b948a7413f0a142fd40d49347",
                    "txbytes": "0xf860010a8307a120940dc02922f33e45537411b9f92a1dcc9750ba993280801ca0251f31bd60aed600d24bc0c50af7a7041657e37c465b82c1004d9978213edb03a01a16bd43b6aebb640a6868291b69d2a39b69950f556a454e34c3e19a10949f6c",
                    "indexes": {
                        "data": 0,
                        "gas": 0,
                        "value": 0
                    }
                }
            ],
            "ETC_Mystique": [
                {
                    "hash": "ad88ad486ce94b52155086ce7cffd9d8aa0eefb92ad46c5ad1e1b7c6ce5633a5",
                    "logs": "1dcc4de8dec75d7aab85b567b6ccd41ad312451b948a7413f0a142fd40d49347",
                    "txbytes": "0xf860010a8307a120940dc02922f33e45537411b9f92a1dcc9750ba993280801ca0251f31bd60aed600d24bc0c50af7a7041657e37c465b82c1004d9978213edb03a01a16bd43b6aebb640a6868291b69d2a39b69950f556a454e34c3e19a10949f6c",
                    "indexes": {
                        "data": 0,
                        "gas": 0,
                        "value": 0
                    }
                }
            ],
            "ETC_Phoenix": [
                {
                    "hash": "ad88ad486ce94b52155086ce7cffd9d8aa0eefb92ad46c5ad1e1b7c6ce5633a5",
                    "logs": "1dcc4de8dec75d7aab85b567b6ccd41ad312451b948a7413f0a142fd40d49347",
                    "txbytes": "0xf860010a8307a120940dc02922f33e45537411b9f92a1dcc9750ba993280801ca0251f31bd60aed600d24bc0c50af7a7041657e37c465b82c1004d9978213edb03a01a16bd43b6aebb640a6868291b69d2a39b69950f556a454e34c3e19a10949f6c",
                    "indexes": {
                        "data": 0,
                        "gas": 0,
                        "value": 0
                    }
                }
            ]
        }
    }
}