{
    "log0_nonEmptyMem_logMemSize1": {
        "_info": {
            "comment": "",
            "filling-rpc-server": "evm version 1.10.16-unstable-0f893109-20220105",
            "filling-tool-version": "retesteth-0.2.2-testinfo+commit.01c6aac2.Linux.g++",
            "filledWith": "CoreGeth-1.12.9-unstable-d64998ce9b05f4f41b35740c69c4b402e41a3105",
            "lllcversion": "Version: 0.5.14-develop.2021.11.27+commit.401d5358.Linux.g++",
            "source": "src/GeneralStateTestsFiller/stLogTests/log0_nonEmptyMem_logMemSize1Filler.json",
            "sourceHash": "fea2b0341eb60dc2b5cdd799c7f97ee0e8baa2bdc92d57f0f42891f5be1c6578"
        },
        "env": {
            "currentCoinbase": "0x2adc25665018aa1fe0e6bc666dac8fc2697ff9ba",
            "currentDifficulty": "0x20000",
            "currentGasLimit": "0xf4240",
            "currentNumber": "0x1",
            "currentTimestamp": "0x3e8",
            "previousHash": "0x5e20a0453cecd065ea59c37ac63e079ee08998b6045136a8ce6635c7912ec0b6"
        },
        "pre": {
            "0x095e7baea6a6c7c4c2dfeb977efac326af552d87": {
                "code": "0x60006000600060006017730f572e5295c57f15886f9b263e2f6d2d6c7b5ec66103e8f160005500",
                "balance": "0xde0b6b3a7640000"
            },
            "0x0f572e5295c57f15886f9b263e2f6d2d6c7b5ec6": {
                "code": "0x7faabbffffffffffffffffffffffffffffffffffffffffffffffffffffffffccdd60005260016000a000",
                "balance": "0xde0b6b3a7640000"
            },
            "0xa94f5374fce5edbc8e2a8697c15331677e6ebf0b": {
                "balance": "0xde0b6b3a7640000"
            }
        },
        "transaction": {
            "gasPrice": "0xa",
            "nonce": "0x0",
            "to": "0x095e7baea6a6c7c4c2dfeb977efac326af552d87",
            "data": [
                "0x"
            ],
            "gasLimit": [
                "0x33450"
            ],
            "value": [
                "0x200b20"
            ],
            "secretKey": "0x45a915e4d060149eb4365960e6a7a45f334393093061116b197e3240065ff2d8",
            "sender": "0xa94f5374fce5edbc8e2a8697c15331677e6ebf0b"
        },
        "post": {
            "ETC_Magneto": [
                {
                    "hash": "c15727f6e1a7968318a93245ed8c7df5683a78f2f8d79abfb7ca6c6fd153dcc4",
                    "logs": "20238193c29688c64e395ae6044273a99e54e9cfaec2033f1cdc8967e0409cc1",
                    "txbytes": "0xf863800a8303345094095e7baea6a6c7c4c2dfeb977efac326af552d8783200b20801ba0e01bfeefc00e9c4b32ec6205a417b27a7b1d3b5e3a6b9bbc6f8060da9ed5a0f9a036a443ba06096ed1ea2445994322a363436f1e026ff19c83349cb656520656bf",
                    "indexes": {
                        "data": 0,
                        "gas": 0,
                        "value": 0
                    }
                }
            ],
            "ETC_Mystique": [
                {
                    "hash": "c15727f6e1a7968318a93245ed8c7df5683a78f2f8d79abfb7ca6c6fd153dcc4",
                    "logs": "20238193c29688c64e395ae6044273a99e54e9cfaec2033f1cdc8967e0409cc1",
                    "txbytes": "0xf863800a8303345094095e7baea6a6c7c4c2dfeb977efac326af552d8783200b20801ba0e01bfeefc00e9c4b32ec6205a417b27a7b1d3b5e3a6b9bbc6f8060da9ed5a0f9a036a443ba06096ed1ea2445994322a363436f1e026ff19c83349cb656520656bf",
                    "indexes": {
                        "data": 0,
                        "gas": 0,
                        "value": 0
                    }
                }
            ],
            "ETC_Phoenix": [
                {
                    "hash": "21f029b25d7c9959df3697ee1e41df0ddd815a86a17bcbbd037c38c6c3a0d7c5",
                    "logs": "20238193c29688c64e395ae6044273a99e54e9cfaec2033f1cdc8967e0409cc1",
                    "txbytes": "0xf863800a8303345094095e7baea6a6c7c4c2dfeb977efac326af552d8783200b20801ba0e01bfeefc00e9c4b32ec6205a417b27a7b1d3b5e3a6b9bbc6f8060da9ed5a0f9a036a443ba06096ed1ea2445994322a363436f1e026ff19c83349cb656520656bf",
                    "indexes": {
                        "data": 0,
                        "gas": 0,
                        "value": 0
                    }
                }
            ]
        }
    }
}