{
    "log1_logMemsizeZero": {
        "_info": {
            "comment": "",
            "filling-rpc-server": "evm version 1.10.16-unstable-0f893109-20220105",
            "filling-tool-version": "retesteth-0.2.2-testinfo+commit.01c6aac2.Linux.g++",
            "filledWith": "CoreGeth-1.12.9-unstable-4d59a861107c8232d6896811c48f229d30087be4",
            "lllcversion": "Version: 0.5.14-develop.2021.11.27+commit.401d5358.Linux.g++",
            "source": "src/GeneralStateTestsFiller/stLogTests/log1_logMemsizeZeroFiller.json",
            "sourceHash": "0c366650baa1dfd4d2b0044d920ac1a230db85d46689a1576c90d5ecfb78e8ea"
        },
        "env": {
            "currentCoinbase": "0x2adc25665018aa1fe0e6bc666dac8fc2697ff9ba",
            "currentDifficulty": "0x20000",
            "currentGasLimit": "0xf4240",
            "currentNumber": "0x1",
            "currentTimestamp": "0x3e8",
            "currentBaseFee": "0xa",
            "previousHash": "0x5e20a0453cecd065ea59c37ac63e079ee08998b6045136a8ce6635c7912ec0b6"
        },
        "pre": {
            "0x095e7baea6a6c7c4c2dfeb977efac326af552d87": {
                "code": "0x60006000600060006017730f572e5295c57f15886f9b263e2f6d2d6c7b5ec66103e8f160005500",
                "balance": "0xde0b6b3a7640000"
            },
            "0x0f572e5295c57f15886f9b263e2f6d2d6c7b5ec6": {
                "code": "0x7faabbffffffffffffffffffffffffffffffffffffffffffffffffffffffffccdd600052600060006001a100",
                "balance": "0xde0b6b3a7640000"
            },
            "0xa94f5374fce5edbc8e2a8697c15331677e6ebf0b": {
                "balance": "0xde0b6b3a7640000"
            }
        },
        "transaction": {
            "gasPrice": "0xa",
            "nonce": "0x0",
            "to": "0x095e7baea6a6c7c4c2dfeb977efac326af552d87",
            "data": [
                "0x"
            ],
            "gasLimit": [
                "0x33450"
            ],
            "value": [
                "0x0186a0"
            ],
            "secretKey": "0x45a915e4d060149eb4365960e6a7a45f334393093061116b197e3240065ff2d8",
            "sender": "0xa94f5374fce5edbc8e2a8697c15331677e6ebf0b"
        },
        "post": {
            "ETC_Magneto": [
                {
                    "hash": "1b399cf356e086bcc7f40bde8a944620b8065c1d18c3fb499c747c3fba91b34b",
                    "logs": "7a0b07b554f8629b2183374bf734bfd10f641d640654b6f8e5cc088467f90b3d",
                    "txbytes": "0xf863800a8303345094095e7baea6a6c7c4c2dfeb977efac326af552d87830186a0801ba0d7f12f33fd6ed868181c442fa795b825833472c08304ba8076c99e361277a1cea00754e3b3f79c4ac1554e25989ea8422b5dde0a09c4ff362ad4086d3f3a7d63cf",
                    "indexes": {
                        "data": 0,
                        "gas": 0,
                        "value": 0
                    }
                }
            ],
            "ETC_Mystique": [
                {
                    "hash": "1b399cf356e086bcc7f40bde8a944620b8065c1d18c3fb499c747c3fba91b34b",
                    "logs": "7a0b07b554f8629b2183374bf734bfd10f641d640654b6f8e5cc088467f90b3d",
                    "txbytes": "0xf863800a8303345094095e7baea6a6c7c4c2dfeb977efac326af552d87830186a0801ba0d7f12f33fd6ed868181c442fa795b825833472c08304ba8076c99e361277a1cea00754e3b3f79c4ac1554e25989ea8422b5dde0a09c4ff362ad4086d3f3a7d63cf",
                    "indexes": {
                        "data": 0,
                        "gas": 0,
                        "value": 0
                    }
                }
            ],
            "ETC_Phoenix": [
                {
                    "hash": "8a7c3261879a71034e1a53b1c39d5991b8f9c622ed5687fa8f36fabd8d0311bc",
                    "logs": "7a0b07b554f8629b2183374bf734bfd10f641d640654b6f8e5cc088467f90b3d",
                    "txbytes": "0xf863800a8303345094095e7baea6a6c7c4c2dfeb977efac326af552d87830186a0801ba0d7f12f33fd6ed868181c442fa795b825833472c08304ba8076c99e361277a1cea00754e3b3f79c4ac1554e25989ea8422b5dde0a09c4ff362ad4086d3f3a7d63cf",
                    "indexes": {
                        "data": 0,
                        "gas": 0,
                        "value": 0
                    }
                }
            ]
        }
    }
}