{
    "accessListExample": {
        "_info": {
            "comment": "A test shows accessList transaction example",
            "filling-rpc-server": "evm version 1.10.16-unstable-2dfa4bcf-20220121",
            "filling-tool-version": "retesteth-0.2.2-testinfo+commit.1b89e144.Linux.g++",
            "filledWith": "CoreGeth-1.12.9-unstable-ab16c56768f0284ab56a30aac9550d3ebdc45901",
            "lllcversion": "Version: 0.5.14-develop.2022.1.23+commit.401d5358.Linux.g++",
            "source": "src/GeneralStateTestsFiller/stExample/accessListExampleFiller.yml",
            "sourceHash": "f31fb03b8eb70d66c12ff2839816abc3fbce8ef9aec17a0a30b62e6bbba43a31",
            "labels": {
                "0": "declaredKeyWrite",
                "1": "declaredKeyWrite2"
            }
        },
        "env": {
            "currentCoinbase": "0x2adc25665018aa1fe0e6bc666dac8fc2697ff9ba",
            "currentDifficulty": "0x20000",
            "currentGasLimit": "0xff112233445566",
            "currentNumber": "0x1",
            "currentTimestamp": "0x3e8",
            "currentBaseFee": "0xa",
            "previousHash": "0x5e20a0453cecd065ea59c37ac63e079ee08998b6045136a8ce6635c7912ec0b6"
        },
        "pre": {
            "0x095e7baea6a6c7c4c2dfeb977efac326af552d87": {
                "code": "0x600160010160005500",
                "balance": "0xde0b6b3a7640000"
            },
            "0xa94f5374fce5edbc8e2a8697c15331677e6ebf0b": {
                "balance": "0xde0b6b3a7640000"
            }
        },
        "transaction": {
            "gasPrice": "0xa",
            "nonce": "0x0",
            "to": "0x095e7baea6a6c7c4c2dfeb977efac326af552d87",
            "data": [
                "0x00",
                "0x00"
            ],
            "accessLists": [
                [
                    {
                        "address": "0x095e7baea6a6c7c4c2dfeb977efac326af552d87",
                        "storageKeys": [
                            "0x0000000000000000000000000000000000000000000000000000000000000000",
                            "0x0000000000000000000000000000000000000000000000000000000000000001"
                        ]
                    },
                    {
                        "address": "0x195e7baea6a6c7c4c2dfeb977efac326af552d87",
                        "storageKeys": [
                            "0x0000000000000000000000000000000000000000000000000000000000000000"
                        ]
                    }
                ],
                [
                    {
                        "address": "0x195e7baea6a6c7c4c2dfeb977efac326af552d87",
                        "storageKeys": [
                            "0x0000000000000000000000000000000000000000000000000000000000000000"
                        ]
                    }
                ]
            ],
            "gasLimit": [
                "0x61a80"
            ],
            "value": [
                "0x0186a0"
            ],
            "secretKey": "0x45a915e4d060149eb4365960e6a7a45f334393093061116b197e3240065ff2d8",
            "sender": "0xa94f5374fce5edbc8e2a8697c15331677e6ebf0b"
        },
        "post": {
            "ETC_Agharta": [
                {
                    "hash": "23af372a0ccfd6a662f86652c982d9c769c0eb240428d6b124acd73a84057da5",
                    "logs": "1dcc4de8dec75d7aab85b567b6ccd41ad312451b948a7413f0a142fd40d49347",
                    "txbytes": "0x01f8f901800a83061a8094095e7baea6a6c7c4c2dfeb977efac326af552d87830186a000f893f85994095e7baea6a6c7c4c2dfeb977efac326af552d87f842a00000000000000000000000000000000000000000000000000000000000000000a00000000000000000000000000000000000000000000000000000000000000001f794195e7baea6a6c7c4c2dfeb977efac326af552d87e1a0000000000000000000000000000000000000000000000000000000000000000080a011c97e0bb8a356fe4f49b37863d059c6fe8cd3214a6ac06a8387a2f6f0b75f60a0212368a1097da30806edfd13d9c35662e1baee939235eb25de867980bd0eda26",
                    "expectException": "TR_TypeNotSupported",
                    "indexes": {
                        "data": 0,
                        "gas": 0,
                        "value": 0
                    }
                },
                {
                    "hash": "23af372a0ccfd6a662f86652c982d9c769c0eb240428d6b124acd73a84057da5",
                    "logs": "1dcc4de8dec75d7aab85b567b6ccd41ad312451b948a7413f0a142fd40d49347",
                    "txbytes": "0x01f89e01800a83061a8094095e7baea6a6c7c4c2dfeb977efac326af552d87830186a000f838f794195e7baea6a6c7c4c2dfeb977efac326af552d87e1a0000000000000000000000000000000000000000000000000000000000000000080a0378aab326d222137f330470cc4066787c24d0b1ec8cf858628633009a9ce5a82a01485155170a1cd7cf692d89e1a2fb302e0cde48871b6f760c8c6b0b7c11f6629",
                    "expectException": "TR_TypeNotSupported",
                    "indexes": {
                        "data": 1,
                        "gas": 0,
                        "value": 0
                    }
                }
            ],
            "ETC_Atlantis": [
                {
                    "hash": "23af372a0ccfd6a662f86652c982d9c769c0eb240428d6b124acd73a84057da5",
                    "logs": "1dcc4de8dec75d7aab85b567b6ccd41ad312451b948a7413f0a142fd40d49347",
                    "txbytes": "0x01f8f901800a83061a8094095e7baea6a6c7c4c2dfeb977efac326af552d87830186a000f893f85994095e7baea6a6c7c4c2dfeb977efac326af552d87f842a00000000000000000000000000000000000000000000000000000000000000000a00000000000000000000000000000000000000000000000000000000000000001f794195e7baea6a6c7c4c2dfeb977efac326af552d87e1a0000000000000000000000000000000000000000000000000000000000000000080a011c97e0bb8a356fe4f49b37863d059c6fe8cd3214a6ac06a8387a2f6f0b75f60a0212368a1097da30806edfd13d9c35662e1baee939235eb25de867980bd0eda26",
                    "expectException": "TR_TypeNotSupported",
                    "indexes": {
                        "data": 0,
                        "gas": 0,
                        "value": 0
                    }
                },
                {
                    "hash": "23af372a0ccfd6a662f86652c982d9c769c0eb240428d6b124acd73a84057da5",
                    "logs": "1dcc4de8dec75d7aab85b567b6ccd41ad312451b948a7413f0a142fd40d49347",
                    "txbytes": "0x01f89e01800a83061a8094095e7baea6a6c7c4c2dfeb977efac326af552d87830186a000f838f794195e7baea6a6c7c4c2dfeb977efac326af552d87e1a0000000000000000000000000000000000000000000000000000000000000000080a0378aab326d222137f330470cc4066787c24d0b1ec8cf858628633009a9ce5a82a01485155170a1cd7cf692d89e1a2fb302e0cde48871b6f760c8c6b0b7c11f6629",
                    "expectException": "TR_TypeNotSupported",
                    "indexes": {
                        "data": 1,
                        "gas": 0,
                        "value": 0
                    }
                }
            ],
            "ETC_Magneto": [
                {
                    "hash": "92575ea202220f5f34292941b2ed9d6821c29f221d3ea417682b872d18094c55",
                    "logs": "1dcc4de8dec75d7aab85b567b6ccd41ad312451b948a7413f0a142fd40d49347",
                    "txbytes": "0x01f8f901800a83061a8094095e7baea6a6c7c4c2dfeb977efac326af552d87830186a000f893f85994095e7baea6a6c7c4c2dfeb977efac326af552d87f842a00000000000000000000000000000000000000000000000000000000000000000a00000000000000000000000000000000000000000000000000000000000000001f794195e7baea6a6c7c4c2dfeb977efac326af552d87e1a0000000000000000000000000000000000000000000000000000000000000000080a011c97e0bb8a356fe4f49b37863d059c6fe8cd3214a6ac06a8387a2f6f0b75f60a0212368a1097da30806edfd13d9c35662e1baee939235eb25de867980bd0eda26",
                    "indexes": {
                        "data": 0,
                        "gas": 0,
                        "value": 0
                    }
                },
                {
                    "hash": "036bf17c08e7ee19bb2e2cd209947cf71ac16426a30afad455ae183bde397993",
                    "logs": "1dcc4de8dec75d7aab85b567b6ccd41ad312451b948a7413f0a142fd40d49347",
                    "txbytes": "0x01f89e01800a83061a8094095e7baea6a6c7c4c2dfeb977efac326af552d87830186a000f838f794195e7baea6a6c7c4c2dfeb977efac326af552d87e1a0000000000000000000000000000000000000000000000000000000000000000080a0378aab326d222137f330470cc4066787c24d0b1ec8cf858628633009a9ce5a82a01485155170a1cd7cf692d89e1a2fb302e0cde48871b6f760c8c6b0b7c11f6629",
                    "indexes": {
                        "data": 1,
                        "gas": 0,
                        "value": 0
                    }
                }
            ],
            "ETC_Mystique": [
                {
                    "hash": "92575ea202220f5f34292941b2ed9d6821c29f221d3ea417682b872d18094c55",
                    "logs": "1dcc4de8dec75d7aab85b567b6ccd41ad312451b948a7413f0a142fd40d49347",
                    "txbytes": "0x01f8f901800a83061a8094095e7baea6a6c7c4c2dfeb977efac326af552d87830186a000f893f85994095e7baea6a6c7c4c2dfeb977efac326af552d87f842a00000000000000000000000000000000000000000000000000000000000000000a00000000000000000000000000000000000000000000000000000000000000001f794195e7baea6a6c7c4c2dfeb977efac326af552d87e1a0000000000000000000000000000000000000000000000000000000000000000080a011c97e0bb8a356fe4f49b37863d059c6fe8cd3214a6ac06a8387a2f6f0b75f60a0212368a1097da30806edfd13d9c35662e1baee939235eb25de867980bd0eda26",
                    "indexes": {
                        "data": 0,
                        "gas": 0,
                        "value": 0
                    }
                },
                {
                    "hash": "036bf17c08e7ee19bb2e2cd209947cf71ac16426a30afad455ae183bde397993",
                    "logs": "1dcc4de8dec75d7aab85b567b6ccd41ad312451b948a7413f0a142fd40d49347",
                    "txbytes": "0x01f89e01800a83061a8094095e7baea6a6c7c4c2dfeb977efac326af552d87830186a000f838f794195e7baea6a6c7c4c2dfeb977efac326af552d87e1a0000000000000000000000000000000000000000000000000000000000000000080a0378aab326d222137f330470cc4066787c24d0b1ec8cf858628633009a9ce5a82a01485155170a1cd7cf692d89e1a2fb302e0cde48871b6f760c8c6b0b7c11f6629",
                    "indexes": {
                        "data": 1,
                        "gas": 0,
                        "value": 0
                    }
                }
            ],
            "ETC_Phoenix": [
                {
                    "hash": "23af372a0ccfd6a662f86652c982d9c769c0eb240428d6b124acd73a84057da5",
                    "logs": "1dcc4de8dec75d7aab85b567b6ccd41ad312451b948a7413f0a142fd40d49347",
                    "txbytes": "0x01f8f901800a83061a8094095e7baea6a6c7c4c2dfeb977efac326af552d87830186a000f893f85994095e7baea6a6c7c4c2dfeb977efac326af552d87f842a00000000000000000000000000000000000000000000000000000000000000000a00000000000000000000000000000000000000000000000000000000000000001f794195e7baea6a6c7c4c2dfeb977efac326af552d87e1a0000000000000000000000000000000000000000000000000000000000000000080a011c97e0bb8a356fe4f49b37863d059c6fe8cd3214a6ac06a8387a2f6f0b75f60a0212368a1097da30806edfd13d9c35662e1baee939235eb25de867980bd0eda26",
                    "expectException": "TR_TypeNotSupported",
                    "indexes": {
                        "data": 0,
                        "gas": 0,
                        "value": 0
                    }
                },
                {
                    "hash": "23af372a0ccfd6a662f86652c982d9c769c0eb240428d6b124acd73a84057da5",
                    "logs": "1dcc4de8dec75d7aab85b567b6ccd41ad312451b948a7413f0a142fd40d49347",
                    "txbytes": "0x01f89e01800a83061a8094095e7baea6a6c7c4c2dfeb977efac326af552d87830186a000f838f794195e7baea6a6c7c4c2dfeb977efac326af552d87e1a0000000000000000000000000000000000000000000000000000000000000000080a0378aab326d222137f330470cc4066787c24d0b1ec8cf858628633009a9ce5a82a01485155170a1cd7cf692d89e1a2fb302e0cde48871b6f760c8c6b0b7c11f6629",
                    "expectException": "TR_TypeNotSupported",
                    "indexes": {
                        "data": 1,
                        "gas": 0,
                        "value": 0
                    }
                }
            ]
        }
    }
}