{
    "basefeeExample": {
        "_info": {
            "comment": "A test shows basefee transaction example",
            "filling-rpc-server": "evm version 1.10.16-unstable-2dfa4bcf-20220121",
            "filling-tool-version": "retesteth-0.2.2-testinfo+commit.1b89e144.Linux.g++",
            "filledWith": "CoreGeth-1.12.9-unstable-3995a327f2ded5c98324b03792b5ccc22557754f",
            "lllcversion": "Version: 0.5.14-develop.2022.1.23+commit.401d5358.Linux.g++",
            "source": "src/GeneralStateTestsFiller/stExample/basefeeExampleFiller.yml",
            "sourceHash": "04505a6b2b5f39d0386f5410b6e404897e85e0d117fe2cbe9824a04617796e12",
            "labels": {
                "0": "declaredKeyWrite"
            }
        },
        "env": {
            "currentCoinbase": "0x2adc25665018aa1fe0e6bc666dac8fc2697ff9ba",
            "currentDifficulty": "0x20000",
            "currentGasLimit": "0x1000000000",
            "currentNumber": "0x1",
            "currentTimestamp": "0x3e8",
            "currentBaseFee": "0x42c1d80",
            "previousHash": "0x5e20a0453cecd065ea59c37ac63e079ee08998b6045136a8ce6635c7912ec0b6"
        },
        "pre": {
            "0x095e7baea6a6c7c4c2dfeb977efac326af552d87": {
                "code": "0x600160010160005500",
                "balance": "0xde0b6b3a7640000"
            },
            "0xa94f5374fce5edbc8e2a8697c15331677e6ebf0b": {
                "balance": "0xde0b6b3a7640000"
            }
        },
        "transaction": {
            "gasPrice": "0xa",
            "maxFeePerGas": "0x12a05f200",
            "maxPriorityFeePerGas": "0x2",
            "nonce": "0x0",
            "to": "0x095e7baea6a6c7c4c2dfeb977efac326af552d87",
            "data": [
                "0x00"
            ],
            "accessLists": [
                [
                    {
                        "address": "0x095e7baea6a6c7c4c2dfeb977efac326af552d87",
                        "storageKeys": [
                            "0x0000000000000000000000000000000000000000000000000000000000000000",
                            "0x0000000000000000000000000000000000000000000000000000000000000001"
                        ]
                    }
                ]
            ],
            "gasLimit": [
                "0x3d0900"
            ],
            "value": [
                "0x0186a0"
            ],
            "secretKey": "0x45a915e4d060149eb4365960e6a7a45f334393093061116b197e3240065ff2d8",
            "sender": "0xa94f5374fce5edbc8e2a8697c15331677e6ebf0b"
        },
        "post": {
            "ETC_Agharta": [
                {
                    "hash": "23af372a0ccfd6a662f86652c982d9c769c0eb240428d6b124acd73a84057da5",
                    "logs": "1dcc4de8dec75d7aab85b567b6ccd41ad312451b948a7413f0a142fd40d49347",
                    "txbytes": "0x02f8c701800285012a05f200833d090094095e7baea6a6c7c4c2dfeb977efac326af552d87830186a000f85bf85994095e7baea6a6c7c4c2dfeb977efac326af552d87f842a00000000000000000000000000000000000000000000000000000000000000000a0000000000000000000000000000000000000000000000000000000000000000180a05cbd172231fc0735e0fb994dd5b1a4939170a260b36f0427a8a80866b063b948a07c230f7f578dd61785c93361b9871c0706ebfa6d06e3f4491dc9558c5202ed36",
                    "expectException": "TR_TypeNotSupported",
                    "indexes": {
                        "data": 0,
                        "gas": 0,
                        "value": 0
                    }
                }
            ],
            "ETC_Atlantis": [
                {
                    "hash": "23af372a0ccfd6a662f86652c982d9c769c0eb240428d6b124acd73a84057da5",
                    "logs": "1dcc4de8dec75d7aab85b567b6ccd41ad312451b948a7413f0a142fd40d49347",
                    "txbytes": "0x02f8c701800285012a05f200833d090094095e7baea6a6c7c4c2dfeb977efac326af552d87830186a000f85bf85994095e7baea6a6c7c4c2dfeb977efac326af552d87f842a00000000000000000000000000000000000000000000000000000000000000000a0000000000000000000000000000000000000000000000000000000000000000180a05cbd172231fc0735e0fb994dd5b1a4939170a260b36f0427a8a80866b063b948a07c230f7f578dd61785c93361b9871c0706ebfa6d06e3f4491dc9558c5202ed36",
                    "expectException": "TR_TypeNotSupported",
                    "indexes": {
                        "data": 0,
                        "gas": 0,
                        "value": 0
                    }
                }
            ],
            "ETC_Magneto": [
                {
                    "hash": "23af372a0ccfd6a662f86652c982d9c769c0eb240428d6b124acd73a84057da5",
                    "logs": "1dcc4de8dec75d7aab85b567b6ccd41ad312451b948a7413f0a142fd40d49347",
                    "txbytes": "0x02f8c701800285012a05f200833d090094095e7baea6a6c7c4c2dfeb977efac326af552d87830186a000f85bf85994095e7baea6a6c7c4c2dfeb977efac326af552d87f842a00000000000000000000000000000000000000000000000000000000000000000a0000000000000000000000000000000000000000000000000000000000000000180a05cbd172231fc0735e0fb994dd5b1a4939170a260b36f0427a8a80866b063b948a07c230f7f578dd61785c93361b9871c0706ebfa6d06e3f4491dc9558c5202ed36",
                    "expectException": "TR_TypeNotSupported",
                    "indexes": {
                        "data": 0,
                        "gas": 0,
                        "value": 0
                    }
                }
            ],
            "ETC_Mystique": [
                {
                    "hash": "824d2219f7aeda8c6055bfb967db764cc4297a6656216ef4abc85f5685685217",
                    "logs": "1dcc4de8dec75d7aab85b567b6ccd41ad312451b948a7413f0a142fd40d49347",
                    "txbytes": "0x02f8c701800285012a05f200833d090094095e7baea6a6c7c4c2dfeb977efac326af552d87830186a000f85bf85994095e7baea6a6c7c4c2dfeb977efac326af552d87f842a00000000000000000000000000000000000000000000000000000000000000000a0000000000000000000000000000000000000000000000000000000000000000180a05cbd172231fc0735e0fb994dd5b1a4939170a260b36f0427a8a80866b063b948a07c230f7f578dd61785c93361b9871c0706ebfa6d06e3f4491dc9558c5202ed36",
                    "expectException": "TR_TypeNotSupported",
                    "indexes": {
                        "data": 0,
                        "gas": 0,
                        "value": 0
                    }
                }
            ],
            "ETC_Phoenix": [
                {
                    "hash": "23af372a0ccfd6a662f86652c982d9c769c0eb240428d6b124acd73a84057da5",
                    "logs": "1dcc4de8dec75d7aab85b567b6ccd41ad312451b948a7413f0a142fd40d49347",
                    "txbytes": "0x02f8c701800285012a05f200833d090094095e7baea6a6c7c4c2dfeb977efac326af552d87830186a000f85bf85994095e7baea6a6c7c4c2dfeb977efac326af552d87f842a00000000000000000000000000000000000000000000000000000000000000000a0000000000000000000000000000000000000000000000000000000000000000180a05cbd172231fc0735e0fb994dd5b1a4939170a260b36f0427a8a80866b063b948a07c230f7f578dd61785c93361b9871c0706ebfa6d06e3f4491dc9558c5202ed36",
                    "expectException": "TR_TypeNotSupported",
                    "indexes": {
                        "data": 0,
                        "gas": 0,
                        "value": 0
                    }
                }
            ]
        }
    }
}