{
    "labelsExample": {
        "_info": {
            "comment": "An example how to use labels in expect section",
            "filling-rpc-server": "evm version 1.10.16-unstable-0f893109-20220105",
            "filling-tool-version": "retesteth-0.2.2-testinfo+commit.01c6aac2.Linux.g++",
            "filledWith": "CoreGeth-1.12.9-unstable-d390462df9df233b60b4cd7a37db5b3043832022",
            "lllcversion": "Version: 0.5.14-develop.2021.11.27+commit.401d5358.Linux.g++",
            "source": "src/GeneralStateTestsFiller/stExample/labelsExampleFiller.yml",
            "sourceHash": "558d8e86b4f14daa0cba594816ac9749bf4576f6a09c2dce513cc554d610cd18",
            "labels": {
                "0": "transaction1",
                "1": "transaction2",
                "2": "transaction3",
                "3": "transaction3"
            }
        },
        "env": {
            "currentCoinbase": "0x2adc25665018aa1fe0e6bc666dac8fc2697ff9ba",
            "currentDifficulty": "0x20000",
            "currentGasLimit": "0xff112233445566",
            "currentNumber": "0x1",
            "currentTimestamp": "0x3e8",
            "previousHash": "0x5e20a0453cecd065ea59c37ac63e079ee08998b6045136a8ce6635c7912ec0b6"
        },
        "pre": {
            "0x095e7baea6a6c7c4c2dfeb977efac326af552d87": {
                "code": "0x60003560005500",
                "balance": "0xde0b6b3a7640000",
                "nonce": "0x0"
            },
            "0xa94f5374fce5edbc8e2a8697c15331677e6ebf0b": {
                "code": "0x",
                "balance": "0xde0b6b3a7640000",
                "nonce": "0x0"
            }
        },
        "transaction": {
            "gasPrice": "0xa",
            "nonce": "0x0",
            "to": "0x095e7baea6a6c7c4c2dfeb977efac326af552d87",
            "data": [
                "0x01",
                "0x02",
                "0x03",
                "0x03"
            ],
            "gasLimit": [
                "0x61a80"
            ],
            "value": [
                "0x0186a0"
            ],
            "secretKey": "0x45a915e4d060149eb4365960e6a7a45f334393093061116b197e3240065ff2d8",
            "sender": "0xa94f5374fce5edbc8e2a8697c15331677e6ebf0b"
        },
        "post": {
            "ETC_Magneto": [
                {
                    "hash": "14feeb642a0bdf3088f54103212c4d6c442b36da7a1c51bf88204db33b5e95e4",
                    "logs": "1dcc4de8dec75d7aab85b567b6ccd41ad312451b948a7413f0a142fd40d49347",
                    "txbytes": "0xf863800a83061a8094095e7baea6a6c7c4c2dfeb977efac326af552d87830186a0011ca064f084caf7c68cc95d8d2681b780c9743198f0d751564bd2b6d090c140375e86a07d65260b3168acbdbf8d9bd3eea906fffe193e75d5a0ea6edd0689dafb2f3846",
                    "indexes": {
                        "data": 0,
                        "gas": 0,
                        "value": 0
                    }
                },
                {
                    "hash": "65af8ce194077a635de5e77a658858df2bad8923b1e3b6506081b5b389419b82",
                    "logs": "1dcc4de8dec75d7aab85b567b6ccd41ad312451b948a7413f0a142fd40d49347",
                    "txbytes": "0xf863800a83061a8094095e7baea6a6c7c4c2dfeb977efac326af552d87830186a0021ca04661c5bf586a5d6b957d0a5d7d0cf0f497d346173fc3e9bc242739372aee19a4a00e8711b7c66f394f0e02d812f6977a0854588de8136cd4d6463d61e8906c6d89",
                    "indexes": {
                        "data": 1,
                        "gas": 0,
                        "value": 0
                    }
                },
                {
                    "hash": "bf0e9502795f5bebb3397b13b20e1d8f4486e8071d658eeaf19834c251a9a4de",
                    "logs": "1dcc4de8dec75d7aab85b567b6ccd41ad312451b948a7413f0a142fd40d49347",
                    "txbytes": "0xf863800a83061a8094095e7baea6a6c7c4c2dfeb977efac326af552d87830186a0031ba027a71db0ff4b0ef161071519ca4bf60678520a77dc01700bfa8423487feea5cba00249081f34c0d69ee540dd6d3d1f716a9c5ec4216fae20842edda248af0a9e5e",
                    "indexes": {
                        "data": 2,
                        "gas": 0,
                        "value": 0
                    }
                },
                {
                    "hash": "bf0e9502795f5bebb3397b13b20e1d8f4486e8071d658eeaf19834c251a9a4de",
                    "logs": "1dcc4de8dec75d7aab85b567b6ccd41ad312451b948a7413f0a142fd40d49347",
                    "txbytes": "0xf863800a83061a8094095e7baea6a6c7c4c2dfeb977efac326af552d87830186a0031ba027a71db0ff4b0ef161071519ca4bf60678520a77dc01700bfa8423487feea5cba00249081f34c0d69ee540dd6d3d1f716a9c5ec4216fae20842edda248af0a9e5e",
                    "indexes": {
                        "data": 3,
                        "gas": 0,
                        "value": 0
                    }
                }
            ],
            "ETC_Mystique": [
                {
                    "hash": "14feeb642a0bdf3088f54103212c4d6c442b36da7a1c51bf88204db33b5e95e4",
                    "logs": "1dcc4de8dec75d7aab85b567b6ccd41ad312451b948a7413f0a142fd40d49347",
                    "txbytes": "0xf863800a83061a8094095e7baea6a6c7c4c2dfeb977efac326af552d87830186a0011ca064f084caf7c68cc95d8d2681b780c9743198f0d751564bd2b6d090c140375e86a07d65260b3168acbdbf8d9bd3eea906fffe193e75d5a0ea6edd0689dafb2f3846",
                    "indexes": {
                        "data": 0,
                        "gas": 0,
                        "value": 0
                    }
                },
                {
                    "hash": "65af8ce194077a635de5e77a658858df2bad8923b1e3b6506081b5b389419b82",
                    "logs": "1dcc4de8dec75d7aab85b567b6ccd41ad312451b948a7413f0a142fd40d49347",
                    "txbytes": "0xf863800a83061a8094095e7baea6a6c7c4c2dfeb977efac326af552d87830186a0021ca04661c5bf586a5d6b957d0a5d7d0cf0f497d346173fc3e9bc242739372aee19a4a00e8711b7c66f394f0e02d812f6977a0854588de8136cd4d6463d61e8906c6d89",
                    "indexes": {
                        "data": 1,
                        "gas": 0,
                        "value": 0
                    }
                },
                {
                    "hash": "bf0e9502795f5bebb3397b13b20e1d8f4486e8071d658eeaf19834c251a9a4de",
                    "logs": "1dcc4de8dec75d7aab85b567b6ccd41ad312451b948a7413f0a142fd40d49347",
                    "txbytes": "0xf863800a83061a8094095e7baea6a6c7c4c2dfeb977efac326af552d87830186a0031ba027a71db0ff4b0ef161071519ca4bf60678520a77dc01700bfa8423487feea5cba00249081f34c0d69ee540dd6d3d1f716a9c5ec4216fae20842edda248af0a9e5e",
                    "indexes": {
                        "data": 2,
                        "gas": 0,
                        "value": 0
                    }
                },
                {
                    "hash": "bf0e9502795f5bebb3397b13b20e1d8f4486e8071d658eeaf19834c251a9a4de",
                    "logs": "1dcc4de8dec75d7aab85b567b6ccd41ad312451b948a7413f0a142fd40d49347",
                    "txbytes": "0xf863800a83061a8094095e7baea6a6c7c4c2dfeb977efac326af552d87830186a0031ba027a71db0ff4b0ef161071519ca4bf60678520a77dc01700bfa8423487feea5cba00249081f34c0d69ee540dd6d3d1f716a9c5ec4216fae20842edda248af0a9e5e",
                    "indexes": {
                        "data": 3,
                        "gas": 0,
                        "value": 0
                    }
                }
            ]
        }
    }
}