{
    "selfBalanceCallTypes": {
        "_info": {
            "comment": "SELFBALANCE tests inside CALL, DELEGATECALL, and CALLCODE",
            "filling-rpc-server": "evm version 1.10.16-unstable-0f893109-20220105",
            "filling-tool-version": "retesteth-0.2.2-testinfo+commit.01c6aac2.Linux.g++",
            "filledWith": "CoreGeth-1.12.9-unstable-ab16c56768f0284ab56a30aac9550d3ebdc45901",
            "lllcversion": "Version: 0.5.14-develop.2021.11.27+commit.401d5358.Linux.g++",
            "source": "src/GeneralStateTestsFiller/stSelfBalance/selfBalanceCallTypesFiller.json",
            "sourceHash": "8de624e4fe14f16e65aff537810f4720b46fa908d55029b69f26e6d8af0c3fe8"
        },
        "env": {
            "currentCoinbase": "0x2adc25665018aa1fe0e6bc666dac8fc2697ff9ba",
            "currentDifficulty": "0x20000",
            "currentGasLimit": "0x2540be400",
            "currentNumber": "0x1",
            "currentTimestamp": "0x3e8",
            "currentBaseFee": "0xa",
            "previousHash": "0x5e20a0453cecd065ea59c37ac63e079ee08998b6045136a8ce6635c7912ec0b6"
        },
        "pre": {
            "0x1100000000000000000000000000000000000000": {
                "code": "0x3031471460115500",
                "balance": "0x1000"
            },
            "0x1200000000000000000000000000000000000000": {
                "code": "0x4760215500",
                "balance": "0x1100"
            },
            "0x1300000000000000000000000000000000000000": {
                "code": "0x5a475a905090036002900360315500",
                "balance": "0x1200"
            },
            "0x1400000000000000000000000000000000000000": {
                "code": "0x47806041556000600060006000600160006000f1504780604255900360435500",
                "balance": "0x1300"
            },
            "0x2000000000000000000000000000000000000000": {
                "code": "0x60006080525b608051541560755760003560011415602c57600060006000600060006080515460155a03f1505b6000356002141560495760006000600060006080515460155a03f4505b60003560031415606857600060006000600060006080515460155a03f2505b6001608051016080526005565b00",
                "storage": {
                    "0x0000000000000000000000000000000000000000000000000000000000000000": "0x0000000000000000000000001100000000000000000000000000000000000000",
                    "0x0000000000000000000000000000000000000000000000000000000000000001": "0x0000000000000000000000001200000000000000000000000000000000000000",
                    "0x0000000000000000000000000000000000000000000000000000000000000002": "0x0000000000000000000000001300000000000000000000000000000000000000",
                    "0x0000000000000000000000000000000000000000000000000000000000000003": "0x0000000000000000000000001400000000000000000000000000000000000000"
                },
                "balance": "0x2000"
            },
            "0xa94f5374fce5edbc8e2a8697c15331677e6ebf0b": {
                "balance": "0x3635c9adc5dea00000"
            }
        },
        "transaction": {
            "gasPrice": "0xa",
            "nonce": "0x0",
            "to": "0x2000000000000000000000000000000000000000",
            "data": [
                "0x0000000000000000000000000000000000000000000000000000000000000001",
                "0x0000000000000000000000000000000000000000000000000000000000000002",
                "0x0000000000000000000000000000000000000000000000000000000000000003"
            ],
            "gasLimit": [
                "0xf4240"
            ],
            "value": [
                "0x00"
            ],
            "secretKey": "0x45a915e4d060149eb4365960e6a7a45f334393093061116b197e3240065ff2d8",
            "sender": "0xa94f5374fce5edbc8e2a8697c15331677e6ebf0b"
        },
        "post": {
            "ETC_Magneto": [
                {
                    "hash": "470f39a913857ffde873831ffd3c393436305f0b38930cbc69d7ef64f750e549",
                    "logs": "1dcc4de8dec75d7aab85b567b6ccd41ad312451b948a7413f0a142fd40d49347",
                    "txbytes": "0xf880800a830f424094200000000000000000000000000000000000000080a000000000000000000000000000000000000000000000000000000000000000011ca04bef38824a81c6a5395a2861d96af62900b6c52078e0d62e921d062477c335d5a0431aa53df4cc36a187d5c8706bad34803d4fa6225f36719d6e61e67a0cfdf085",
                    "indexes": {
                        "data": 0,
                        "gas": 0,
                        "value": 0
                    }
                },
                {
                    "hash": "d464a1fcd04b024fd97db0681dc67ad59e250f8918ad043f4c0c83c84c0d0753",
                    "logs": "1dcc4de8dec75d7aab85b567b6ccd41ad312451b948a7413f0a142fd40d49347",
                    "txbytes": "0xf880800a830f424094200000000000000000000000000000000000000080a000000000000000000000000000000000000000000000000000000000000000021ca036e06371098c7620877d3f6d79a23328dcd0401e22c3e437d0f5f7577229dea5a00abdb4a548b4fffa1fffae5e8ba26b4353bffed347a9d047f558305fc8d0c143",
                    "indexes": {
                        "data": 1,
                        "gas": 0,
                        "value": 0
                    }
                },
                {
                    "hash": "73b99696b83090eca8dbf8842c6d2e364f4282bd9fb712880acfda6fc861ebc7",
                    "logs": "1dcc4de8dec75d7aab85b567b6ccd41ad312451b948a7413f0a142fd40d49347",
                    "txbytes": "0xf880800a830f424094200000000000000000000000000000000000000080a000000000000000000000000000000000000000000000000000000000000000031ba03a5882571b99048333c19803a830a3dacfb37c0b11f0c3d9966db036f05ea999a013862438450b50142de98437a102c47c85af8a9575a306e9fe25fc2375de8db0",
                    "indexes": {
                        "data": 2,
                        "gas": 0,
                        "value": 0
                    }
                }
            ],
            "ETC_Mystique": [
                {
                    "hash": "470f39a913857ffde873831ffd3c393436305f0b38930cbc69d7ef64f750e549",
                    "logs": "1dcc4de8dec75d7aab85b567b6ccd41ad312451b948a7413f0a142fd40d49347",
                    "txbytes": "0xf880800a830f424094200000000000000000000000000000000000000080a000000000000000000000000000000000000000000000000000000000000000011ca04bef38824a81c6a5395a2861d96af62900b6c52078e0d62e921d062477c335d5a0431aa53df4cc36a187d5c8706bad34803d4fa6225f36719d6e61e67a0cfdf085",
                    "indexes": {
                        "data": 0,
                        "gas": 0,
                        "value": 0
                    }
                },
                {
                    "hash": "d464a1fcd04b024fd97db0681dc67ad59e250f8918ad043f4c0c83c84c0d0753",
                    "logs": "1dcc4de8dec75d7aab85b567b6ccd41ad312451b948a7413f0a142fd40d49347",
                    "txbytes": "0xf880800a830f424094200000000000000000000000000000000000000080a000000000000000000000000000000000000000000000000000000000000000021ca036e06371098c7620877d3f6d79a23328dcd0401e22c3e437d0f5f7577229dea5a00abdb4a548b4fffa1fffae5e8ba26b4353bffed347a9d047f558305fc8d0c143",
                    "indexes": {
                        "data": 1,
                        "gas": 0,
                        "value": 0
                    }
                },
                {
                    "hash": "73b99696b83090eca8dbf8842c6d2e364f4282bd9fb712880acfda6fc861ebc7",
                    "logs": "1dcc4de8dec75d7aab85b567b6ccd41ad312451b948a7413f0a142fd40d49347",
                    "txbytes": "0xf880800a830f424094200000000000000000000000000000000000000080a000000000000000000000000000000000000000000000000000000000000000031ba03a5882571b99048333c19803a830a3dacfb37c0b11f0c3d9966db036f05ea999a013862438450b50142de98437a102c47c85af8a9575a306e9fe25fc2375de8db0",
                    "indexes": {
                        "data": 2,
                        "gas": 0,
                        "value": 0
                    }
                }
            ],
            "ETC_Phoenix": [
                {
                    "hash": "05dc3c08260187b5312a7c6a7bd4245017386e3145023c565a21cf7ae1863f8a",
                    "logs": "1dcc4de8dec75d7aab85b567b6ccd41ad312451b948a7413f0a142fd40d49347",
                    "txbytes": "0xf880800a830f424094200000000000000000000000000000000000000080a000000000000000000000000000000000000000000000000000000000000000011ca04bef38824a81c6a5395a2861d96af62900b6c52078e0d62e921d062477c335d5a0431aa53df4cc36a187d5c8706bad34803d4fa6225f36719d6e61e67a0cfdf085",
                    "indexes": {
                        "data": 0,
                        "gas": 0,
                        "value": 0
                    }
                },
                {
                    "hash": "dc9a9415f3c9e8c5f0d7d3ccfd2c112974b0c40e365b34ca5557aef10144bb13",
                    "logs": "1dcc4de8dec75d7aab85b567b6ccd41ad312451b948a7413f0a142fd40d49347",
                    "txbytes": "0xf880800a830f424094200000000000000000000000000000000000000080a000000000000000000000000000000000000000000000000000000000000000021ca036e06371098c7620877d3f6d79a23328dcd0401e22c3e437d0f5f7577229dea5a00abdb4a548b4fffa1fffae5e8ba26b4353bffed347a9d047f558305fc8d0c143",
                    "indexes": {
                        "data": 1,
                        "gas": 0,
                        "value": 0
                    }
                },
                {
                    "hash": "8ad4c65213b937a95686c1859a3a2f9d1cca7f4a98c690c1ff0cda79c972dc82",
                    "logs": "1dcc4de8dec75d7aab85b567b6ccd41ad312451b948a7413f0a142fd40d49347",
                    "txbytes": "0xf880800a830f424094200000000000000000000000000000000000000080a000000000000000000000000000000000000000000000000000000000000000031ba03a5882571b99048333c19803a830a3dacfb37c0b11f0c3d9966db036f05ea999a013862438450b50142de98437a102c47c85af8a9575a306e9fe25fc2375de8db0",
                    "indexes": {
                        "data": 2,
                        "gas": 0,
                        "value": 0
                    }
                }
            ]
        }
    }
}