{
    "refund_TxToSuicideOOG": {
        "_info": {
            "comment": "",
            "filling-rpc-server": "evm version 1.10.16-unstable-0f893109-20220105",
            "filling-tool-version": "retesteth-0.2.2-testinfo+commit.01c6aac2.Linux.g++",
            "filledWith": "CoreGeth-1.12.9-unstable-d390462df9df233b60b4cd7a37db5b3043832022",
            "lllcversion": "Version: 0.5.14-develop.2021.11.27+commit.401d5358.Linux.g++",
            "source": "src/GeneralStateTestsFiller/stRefundTest/refund_TxToSuicideOOGFiller.json",
            "sourceHash": "9044515ae59017a464f3caa8f9e2e25dec4863072b100e0b6790e92bbb3bc488"
        },
        "env": {
            "currentCoinbase": "0x2adc25665018aa1fe0e6bc666dac8fc2697ff9ba",
            "currentDifficulty": "0x20000",
            "currentGasLimit": "0x989680",
            "currentNumber": "0x1",
            "currentTimestamp": "0x3e8",
            "previousHash": "0x5e20a0453cecd065ea59c37ac63e079ee08998b6045136a8ce6635c7912ec0b6"
        },
        "pre": {
            "0x2adc25665018aa1fe0e6bc666dac8fc2697ff9ba": {
                "code": "0x",
                "balance": "0x0",
                "nonce": "0x1"
            },
            "0xa94f5374fce5edbc8e2a8697c15331677e6ebf0b": {
                "code": "0x",
                "balance": "0x5f5e100",
                "nonce": "0x0"
            },
            "0xaaae7baea6a6c7c4c2dfeb977efac326af552aaa": {
                "code": "0x73095e7baea6a6c7c4c2dfeb977efac326af552d87ff00",
                "storage": {
                    "0x0000000000000000000000000000000000000000000000000000000000000001": "0x0000000000000000000000000000000000000000000000000000000000000001"
                },
                "balance": "0xde0b6b3a7640000",
                "nonce": "0x0"
            }
        },
        "transaction": {
            "gasPrice": "0xa",
            "nonce": "0x0",
            "to": "0xaaae7baea6a6c7c4c2dfeb977efac326af552aaa",
            "data": [
                "0x"
            ],
            "gasLimit": [
                "0x520a"
            ],
            "value": [
                "0x0a"
            ],
            "secretKey": "0x45a915e4d060149eb4365960e6a7a45f334393093061116b197e3240065ff2d8",
            "sender": "0xa94f5374fce5edbc8e2a8697c15331677e6ebf0b"
        },
        "post": {
            "ETC_Magneto": [
                {
                    "hash": "43ea62f0122abb7183e6caff1056a3556f180211cb047d075a358a8abcbe2447",
                    "logs": "1dcc4de8dec75d7aab85b567b6ccd41ad312451b948a7413f0a142fd40d49347",
                    "txbytes": "0xf85f800a82520a94aaae7baea6a6c7c4c2dfeb977efac326af552aaa0a801ba0c76c7d9a81e5f908a495ef4604f812e0e53eb01f38cd835b17dfb0506ab2f047a024ac3b160ab4f592743b93b903b9f12b3b9399e430d158748eb445514f424c1a",
                    "indexes": {
                        "data": 0,
                        "gas": 0,
                        "value": 0
                    }
                }
            ],
            "ETC_Mystique": [
                {
                    "hash": "43ea62f0122abb7183e6caff1056a3556f180211cb047d075a358a8abcbe2447",
                    "logs": "1dcc4de8dec75d7aab85b567b6ccd41ad312451b948a7413f0a142fd40d49347",
                    "txbytes": "0xf85f800a82520a94aaae7baea6a6c7c4c2dfeb977efac326af552aaa0a801ba0c76c7d9a81e5f908a495ef4604f812e0e53eb01f38cd835b17dfb0506ab2f047a024ac3b160ab4f592743b93b903b9f12b3b9399e430d158748eb445514f424c1a",
                    "indexes": {
                        "data": 0,
                        "gas": 0,
                        "value": 0
                    }
                }
            ],
            "ETC_Phoenix": [
                {
                    "hash": "43ea62f0122abb7183e6caff1056a3556f180211cb047d075a358a8abcbe2447",
                    "logs": "1dcc4de8dec75d7aab85b567b6ccd41ad312451b948a7413f0a142fd40d49347",
                    "txbytes": "0xf85f800a82520a94aaae7baea6a6c7c4c2dfeb977efac326af552aaa0a801ba0c76c7d9a81e5f908a495ef4604f812e0e53eb01f38cd835b17dfb0506ab2f047a024ac3b160ab4f592743b93b903b9f12b3b9399e430d158748eb445514f424c1a",
                    "indexes": {
                        "data": 0,
                        "gas": 0,
                        "value": 0
                    }
                }
            ]
        }
    }
}