{
    "refund_CallToSuicideNoStorage": {
        "_info": {
            "comment": "",
            "filling-rpc-server": "evm version 1.10.16-unstable-0f893109-20220105",
            "filling-tool-version": "retesteth-0.2.2-testinfo+commit.01c6aac2.Linux.g++",
            "filledWith": "CoreGeth-1.12.9-unstable-d390462df9df233b60b4cd7a37db5b3043832022",
            "lllcversion": "Version: 0.5.14-develop.2021.11.27+commit.401d5358.Linux.g++",
            "source": "src/GeneralStateTestsFiller/stRefundTest/refund_CallToSuicideNoStorageFiller.json",
            "sourceHash": "afce4f39d4687bdc2422e9ada924a9e1f674df580fa77fb723211e01d1fc294a"
        },
        "env": {
            "currentCoinbase": "0x2adc25665018aa1fe0e6bc666dac8fc2697ff9ba",
            "currentDifficulty": "0x20000",
            "currentGasLimit": "0x5f5e100",
            "currentNumber": "0x1",
            "currentTimestamp": "0x3e8",
            "previousHash": "0x5e20a0453cecd065ea59c37ac63e079ee08998b6045136a8ce6635c7912ec0b6"
        },
        "pre": {
            "0x095e7baea6a6c7c4c2dfeb977efac326af552d87": {
                "code": "0x6000600060006000600073aaae7baea6a6c7c4c2dfeb977efac326af552aaa600035f160005500",
                "storage": {
                    "0x0000000000000000000000000000000000000000000000000000000000000001": "0x0000000000000000000000000000000000000000000000000000000000000001"
                },
                "balance": "0xde0b6b3a7640000",
                "nonce": "0x0"
            },
            "0xa94f5374fce5edbc8e2a8697c15331677e6ebf0b": {
                "code": "0x",
                "balance": "0x2540be400",
                "nonce": "0x0"
            },
            "0xaaae7baea6a6c7c4c2dfeb977efac326af552aaa": {
                "code": "0x73095e7baea6a6c7c4c2dfeb977efac326af552d87ff00",
                "balance": "0xde0b6b3a7640000",
                "nonce": "0x0"
            }
        },
        "transaction": {
            "gasPrice": "0xa",
            "nonce": "0x0",
            "to": "0x095e7baea6a6c7c4c2dfeb977efac326af552d87",
            "data": [
                "0x00000000000000000000000000000000000000000000000000000000000001f4",
                "0x0000000000000000000000000000000000000000000000000000000000010000"
            ],
            "gasLimit": [
                "0x989680"
            ],
            "value": [
                "0x0a"
            ],
            "secretKey": "0x45a915e4d060149eb4365960e6a7a45f334393093061116b197e3240065ff2d8",
            "sender": "0xa94f5374fce5edbc8e2a8697c15331677e6ebf0b"
        },
        "post": {
            "ETC_Magneto": [
                {
                    "hash": "160ad240888ed3ae93a38806e6c8ed449cf40cc96bc434bf8cdf2a1da539b8c2",
                    "logs": "1dcc4de8dec75d7aab85b567b6ccd41ad312451b948a7413f0a142fd40d49347",
                    "txbytes": "0xf880800a8398968094095e7baea6a6c7c4c2dfeb977efac326af552d870aa000000000000000000000000000000000000000000000000000000000000001f41ba0197899a9d15577a83bb1684b065adaa53ecdc898a624f60cf34dec80c6946f6aa0281738455051a91a7af6fd4b54de93b4dafaa7b4c1862bb2aa76e38555a27127",
                    "indexes": {
                        "data": 0,
                        "gas": 0,
                        "value": 0
                    }
                },
                {
                    "hash": "e44d034cf6b93aeecc1c18ba12ff8906861974770ec5784bad8451ae2ebd5166",
                    "logs": "1dcc4de8dec75d7aab85b567b6ccd41ad312451b948a7413f0a142fd40d49347",
                    "txbytes": "0xf880800a8398968094095e7baea6a6c7c4c2dfeb977efac326af552d870aa000000000000000000000000000000000000000000000000000000000000100001ba041966dbf27524b982a1fb2815dd06bae4b59fa0d38b97575cce4dc2ef120e371a04634fa825f7bb6635af2b882719be45278d938cc1f25e47c741e578d99a9c3e9",
                    "indexes": {
                        "data": 1,
                        "gas": 0,
                        "value": 0
                    }
                }
            ],
            "ETC_Mystique": [
                {
                    "hash": "160ad240888ed3ae93a38806e6c8ed449cf40cc96bc434bf8cdf2a1da539b8c2",
                    "logs": "1dcc4de8dec75d7aab85b567b6ccd41ad312451b948a7413f0a142fd40d49347",
                    "txbytes": "0xf880800a8398968094095e7baea6a6c7c4c2dfeb977efac326af552d870aa000000000000000000000000000000000000000000000000000000000000001f41ba0197899a9d15577a83bb1684b065adaa53ecdc898a624f60cf34dec80c6946f6aa0281738455051a91a7af6fd4b54de93b4dafaa7b4c1862bb2aa76e38555a27127",
                    "indexes": {
                        "data": 0,
                        "gas": 0,
                        "value": 0
                    }
                },
                {
                    "hash": "544f96d39552cce9e0fa073297c00b3971290f25ac1093b08fb09c43aedcb3d2",
                    "logs": "1dcc4de8dec75d7aab85b567b6ccd41ad312451b948a7413f0a142fd40d49347",
                    "txbytes": "0xf880800a8398968094095e7baea6a6c7c4c2dfeb977efac326af552d870aa000000000000000000000000000000000000000000000000000000000000100001ba041966dbf27524b982a1fb2815dd06bae4b59fa0d38b97575cce4dc2ef120e371a04634fa825f7bb6635af2b882719be45278d938cc1f25e47c741e578d99a9c3e9",
                    "indexes": {
                        "data": 1,
                        "gas": 0,
                        "value": 0
                    }
                }
            ],
            "ETC_Phoenix": [
                {
                    "hash": "cd7115b9032093c042131ccb64ee4938b4fe579519b23356323932bd9aa16e54",
                    "logs": "1dcc4de8dec75d7aab85b567b6ccd41ad312451b948a7413f0a142fd40d49347",
                    "txbytes": "0xf880800a8398968094095e7baea6a6c7c4c2dfeb977efac326af552d870aa000000000000000000000000000000000000000000000000000000000000001f41ba0197899a9d15577a83bb1684b065adaa53ecdc898a624f60cf34dec80c6946f6aa0281738455051a91a7af6fd4b54de93b4dafaa7b4c1862bb2aa76e38555a27127",
                    "indexes": {
                        "data": 0,
                        "gas": 0,
                        "value": 0
                    }
                },
                {
                    "hash": "dfa17f888e5c221228f463c4d394d42cb6d1415b29560a4cd6ba2a7abf948498",
                    "logs": "1dcc4de8dec75d7aab85b567b6ccd41ad312451b948a7413f0a142fd40d49347",
                    "txbytes": "0xf880800a8398968094095e7baea6a6c7c4c2dfeb977efac326af552d870aa000000000000000000000000000000000000000000000000000000000000100001ba041966dbf27524b982a1fb2815dd06bae4b59fa0d38b97575cce4dc2ef120e371a04634fa825f7bb6635af2b882719be45278d938cc1f25e47c741e578d99a9c3e9",
                    "indexes": {
                        "data": 1,
                        "gas": 0,
                        "value": 0
                    }
                }
            ]
        }
    }
}