{
    "refundSuicide50procentCap": {
        "_info": {
            "comment": "",
            "filling-rpc-server": "evm version 1.10.16-unstable-0f893109-20220105",
            "filling-tool-version": "retesteth-0.2.2-testinfo+commit.01c6aac2.Linux.g++",
            "filledWith": "CoreGeth-1.12.9-unstable-f4059ddd82d975bdc54fa648e5422a80172161cb",
            "lllcversion": "Version: 0.5.14-develop.2021.11.27+commit.401d5358.Linux.g++",
            "source": "src/GeneralStateTestsFiller/stRefundTest/refundSuicide50procentCapFiller.json",
            "sourceHash": "feff894e2ea4a5e12d12e9a7962c340ea5b2a1b8d2fe6b15a12166b6ca9cfbef"
        },
        "env": {
            "currentCoinbase": "2adc25665018aa1fe0e6bc666dac8fc2697ff9ba",
            "currentDifficulty": "0x20000",
            "currentRandom": null,
            "currentGasLimit": "0x5f5e100",
            "currentNumber": "0x1",
            "currentTimestamp": "0x3e8",
            "currentBaseFee": "0xa"
        },
        "pre": {
            "0x095e7baea6a6c7c4c2dfeb977efac326af552d87": {
                "code": "0x5a6016526001600a556000600060006000600073aaae7baea6a6c7c4c2dfeb977efac326af552aaa600035f1600b55600060015560006002556000600355600060045560006005556000600655600060075560006008555a6016510360175500",
                "storage": {
                    "0x0000000000000000000000000000000000000000000000000000000000000001": "0x0000000000000000000000000000000000000000000000000000000000000001",
                    "0x0000000000000000000000000000000000000000000000000000000000000002": "0x0000000000000000000000000000000000000000000000000000000000000001",
                    "0x0000000000000000000000000000000000000000000000000000000000000003": "0x0000000000000000000000000000000000000000000000000000000000000001",
                    "0x0000000000000000000000000000000000000000000000000000000000000004": "0x0000000000000000000000000000000000000000000000000000000000000001",
                    "0x0000000000000000000000000000000000000000000000000000000000000005": "0x0000000000000000000000000000000000000000000000000000000000000001",
                    "0x0000000000000000000000000000000000000000000000000000000000000006": "0x0000000000000000000000000000000000000000000000000000000000000001",
                    "0x0000000000000000000000000000000000000000000000000000000000000007": "0x0000000000000000000000000000000000000000000000000000000000000001",
                    "0x0000000000000000000000000000000000000000000000000000000000000008": "0x0000000000000000000000000000000000000000000000000000000000000001"
                },
                "balance": "0xde0b6b3a7640000"
            },
            "0x2adc25665018aa1fe0e6bc666dac8fc2697ff9ba": {
                "balance": "0x0",
                "nonce": "0x1"
            },
            "0xa94f5374fce5edbc8e2a8697c15331677e6ebf0b": {
                "balance": "0x3b9aca00"
            },
            "0xaaae7baea6a6c7c4c2dfeb977efac326af552aaa": {
                "code": "0x73095e7baea6a6c7c4c2dfeb977efac326af552d87ff00",
                "balance": "0xde0b6b3a7640000"
            }
        },
        "transaction": {
            "gasPrice": "0xa",
            "maxFeePerGas": null,
            "maxPriorityFeePerGas": null,
            "nonce": "0x0",
            "to": "0x095e7baea6a6c7c4c2dfeb977efac326af552d87",
            "data": [
                "0x00000000000000000000000000000000000000000000000000000000000001f4",
                "0x0000000000000000000000000000000000000000000000000000000000010000"
            ],
            "gasLimit": [
                "0x989680"
            ],
            "value": [
                "0x00"
            ],
            "secretKey": "0x45a915e4d060149eb4365960e6a7a45f334393093061116b197e3240065ff2d8"
        },
        "out": "0x",
        "post": {
            "ETC_Magneto": [
                {
                    "hash": "5088a085bd6345d48ca35af070dec751ca7ead04cdbe21d29e63053e9c9681d2",
                    "logs": "1dcc4de8dec75d7aab85b567b6ccd41ad312451b948a7413f0a142fd40d49347",
                    "txbytes": "0xf880800a8398968094095e7baea6a6c7c4c2dfeb977efac326af552d8780a000000000000000000000000000000000000000000000000000000000000001f41ba0dadbb495e7268ba23dbc3206f34623abdff31684e608b529a832e3b08ad06cd1a044481694f8ba79011cc56bb248187b481067d07085b20c03142a50aa226da1f6",
                    "indexes": {
                        "data": 0,
                        "gas": 0,
                        "value": 0
                    }
                },
                {
                    "hash": "45923c683da31dd1274bfe6c7cfefff418ee2575c17ef6841ab7c5fbe9e26647",
                    "logs": "1dcc4de8dec75d7aab85b567b6ccd41ad312451b948a7413f0a142fd40d49347",
                    "txbytes": "0xf880800a8398968094095e7baea6a6c7c4c2dfeb977efac326af552d8780a000000000000000000000000000000000000000000000000000000000000100001ca02e7bddca2f91baee67bfb51d6f8b655bcaf4d4df3da91cf2acd488d67e53dd92a043e3eb8768701a7e91b880a4a75b2dbcbd53df142e926b1eb33815c70a18faef",
                    "indexes": {
                        "data": 1,
                        "gas": 0,
                        "value": 0
                    }
                }
            ],
            "ETC_Mystique": [
                {
                    "hash": "a99a48ce5ca7236f3d5648aaf933a88c36502e2a2d41c32020622ea96f49d508",
                    "logs": "1dcc4de8dec75d7aab85b567b6ccd41ad312451b948a7413f0a142fd40d49347",
                    "txbytes": "0xf880800a8398968094095e7baea6a6c7c4c2dfeb977efac326af552d8780a000000000000000000000000000000000000000000000000000000000000001f41ba0dadbb495e7268ba23dbc3206f34623abdff31684e608b529a832e3b08ad06cd1a044481694f8ba79011cc56bb248187b481067d07085b20c03142a50aa226da1f6",
                    "indexes": {
                        "data": 0,
                        "gas": 0,
                        "value": 0
                    }
                },
                {
                    "hash": "695fa5bb8bafaaba4e6af4542a2de14ffbc9b2f054364083b8f606e8e55b4104",
                    "logs": "1dcc4de8dec75d7aab85b567b6ccd41ad312451b948a7413f0a142fd40d49347",
                    "txbytes": "0xf880800a8398968094095e7baea6a6c7c4c2dfeb977efac326af552d8780a000000000000000000000000000000000000000000000000000000000000100001ca02e7bddca2f91baee67bfb51d6f8b655bcaf4d4df3da91cf2acd488d67e53dd92a043e3eb8768701a7e91b880a4a75b2dbcbd53df142e926b1eb33815c70a18faef",
                    "indexes": {
                        "data": 1,
                        "gas": 0,
                        "value": 0
                    }
                }
            ],
            "ETC_Phoenix": [
                {
                    "hash": "eddfdda21ba37fd7a778c06ef8d28598287cc3fb5196aed0d420dd2816075c4b",
                    "logs": "1dcc4de8dec75d7aab85b567b6ccd41ad312451b948a7413f0a142fd40d49347",
                    "txbytes": "0xf880800a8398968094095e7baea6a6c7c4c2dfeb977efac326af552d8780a000000000000000000000000000000000000000000000000000000000000001f41ba0dadbb495e7268ba23dbc3206f34623abdff31684e608b529a832e3b08ad06cd1a044481694f8ba79011cc56bb248187b481067d07085b20c03142a50aa226da1f6",
                    "indexes": {
                        "data": 0,
                        "gas": 0,
                        "value": 0
                    }
                },
                {
                    "hash": "6a8140e50a8418cf20a220fb053b05c629eaeaa722c4ebd25c9eeb1556099e83",
                    "logs": "1dcc4de8dec75d7aab85b567b6ccd41ad312451b948a7413f0a142fd40d49347",
                    "txbytes": "0xf880800a8398968094095e7baea6a6c7c4c2dfeb977efac326af552d8780a000000000000000000000000000000000000000000000000000000000000100001ca02e7bddca2f91baee67bfb51d6f8b655bcaf4d4df3da91cf2acd488d67e53dd92a043e3eb8768701a7e91b880a4a75b2dbcbd53df142e926b1eb33815c70a18faef",
                    "indexes": {
                        "data": 1,
                        "gas": 0,
                        "value": 0
                    }
                }
            ]
        }
    }
}