{
    "refund50_1": {
        "_info": {
            "comment": "",
            "filling-rpc-server": "evm version 1.10.16-unstable-0f893109-20220105",
            "filling-tool-version": "retesteth-0.2.2-testinfo+commit.01c6aac2.Linux.g++",
            "filledWith": "CoreGeth-1.12.9-unstable-3995a327f2ded5c98324b03792b5ccc22557754f",
            "lllcversion": "Version: 0.5.14-develop.2021.11.27+commit.401d5358.Linux.g++",
            "source": "src/GeneralStateTestsFiller/stRefundTest/refund50_1Filler.json",
            "sourceHash": "20f7ba482aaa881c7692e3f516e978f40a1ad01dda6183ce78e291085fa7d0b5"
        },
        "env": {
            "currentCoinbase": "0x2adc25665018aa1fe0e6bc666dac8fc2697ff9ba",
            "currentDifficulty": "0x20000",
            "currentGasLimit": "0xf4240",
            "currentNumber": "0x1",
            "currentTimestamp": "0x3e8",
            "currentBaseFee": "0xa",
            "previousHash": "0x5e20a0453cecd065ea59c37ac63e079ee08998b6045136a8ce6635c7912ec0b6"
        },
        "pre": {
            "0x095e7baea6a6c7c4c2dfeb977efac326af552d87": {
                "code": "0x6000600155600060025560006003556000600455600060055500",
                "storage": {
                    "0x0000000000000000000000000000000000000000000000000000000000000001": "0x0000000000000000000000000000000000000000000000000000000000000001",
                    "0x0000000000000000000000000000000000000000000000000000000000000002": "0x0000000000000000000000000000000000000000000000000000000000000001",
                    "0x0000000000000000000000000000000000000000000000000000000000000003": "0x0000000000000000000000000000000000000000000000000000000000000001",
                    "0x0000000000000000000000000000000000000000000000000000000000000004": "0x0000000000000000000000000000000000000000000000000000000000000001",
                    "0x0000000000000000000000000000000000000000000000000000000000000005": "0x0000000000000000000000000000000000000000000000000000000000000001"
                },
                "balance": "0xde0b6b3a7640000"
            },
            "0x2adc25665018aa1fe0e6bc666dac8fc2697ff9ba": {
                "balance": "0x0",
                "nonce": "0x1"
            },
            "0xa94f5374fce5edbc8e2a8697c15331677e6ebf0b": {
                "balance": "0x989680"
            }
        },
        "transaction": {
            "gasPrice": "0xa",
            "nonce": "0x0",
            "to": "0x095e7baea6a6c7c4c2dfeb977efac326af552d87",
            "data": [
                "0x"
            ],
            "gasLimit": [
                "0x186a0"
            ],
            "value": [
                "0x00"
            ],
            "secretKey": "0x45a915e4d060149eb4365960e6a7a45f334393093061116b197e3240065ff2d8",
            "sender": "0xa94f5374fce5edbc8e2a8697c15331677e6ebf0b"
        },
        "post": {
            "ETC_Magneto": [
                {
                    "hash": "de50d48bb9bb62caccbd65b5f97852b75c074d39c3de3b65bc31a7e859dabac8",
                    "logs": "1dcc4de8dec75d7aab85b567b6ccd41ad312451b948a7413f0a142fd40d49347",
                    "txbytes": "0xf860800a830186a094095e7baea6a6c7c4c2dfeb977efac326af552d8780801ba0eac92a424c1599d71b1c116ad53800caa599233ea91907e639b7cb98fa0da3bba06be40f001771af85bfba5e6c4d579e038e6465af3f55e71b9490ab48fcfa5b1e",
                    "indexes": {
                        "data": 0,
                        "gas": 0,
                        "value": 0
                    }
                }
            ],
            "ETC_Mystique": [
                {
                    "hash": "9eec931c2485b396ac1ffdb46908778263e6a4fa049e7d77ab0a4b7896b3e40e",
                    "logs": "1dcc4de8dec75d7aab85b567b6ccd41ad312451b948a7413f0a142fd40d49347",
                    "txbytes": "0xf860800a830186a094095e7baea6a6c7c4c2dfeb977efac326af552d8780801ba0eac92a424c1599d71b1c116ad53800caa599233ea91907e639b7cb98fa0da3bba06be40f001771af85bfba5e6c4d579e038e6465af3f55e71b9490ab48fcfa5b1e",
                    "indexes": {
                        "data": 0,
                        "gas": 0,
                        "value": 0
                    }
                }
            ],
            "ETC_Phoenix": [
                {
                    "hash": "de50d48bb9bb62caccbd65b5f97852b75c074d39c3de3b65bc31a7e859dabac8",
                    "logs": "1dcc4de8dec75d7aab85b567b6ccd41ad312451b948a7413f0a142fd40d49347",
                    "txbytes": "0xf860800a830186a094095e7baea6a6c7c4c2dfeb977efac326af552d8780801ba0eac92a424c1599d71b1c116ad53800caa599233ea91907e639b7cb98fa0da3bba06be40f001771af85bfba5e6c4d579e038e6465af3f55e71b9490ab48fcfa5b1e",
                    "indexes": {
                        "data": 0,
                        "gas": 0,
                        "value": 0
                    }
                }
            ]
        }
    }
}