{
    "refund_changeNonZeroStorage": {
        "_info": {
            "comment": "",
            "filling-rpc-server": "evm version 1.10.16-unstable-0f893109-20220105",
            "filling-tool-version": "retesteth-0.2.2-testinfo+commit.01c6aac2.Linux.g++",
            "filledWith": "CoreGeth-1.12.9-unstable-d64998ce9b05f4f41b35740c69c4b402e41a3105",
            "lllcversion": "Version: 0.5.14-develop.2021.11.27+commit.401d5358.Linux.g++",
            "source": "src/GeneralStateTestsFiller/stRefundTest/refund_changeNonZeroStorageFiller.json",
            "sourceHash": "03c5699118ee9a13267350be11ed562b6b21f50e7893090af4b3e1db0074f20b"
        },
        "env": {
            "currentCoinbase": "0x2adc25665018aa1fe0e6bc666dac8fc2697ff9ba",
            "currentDifficulty": "0x20000",
            "currentGasLimit": "0xf4240",
            "currentNumber": "0x1",
            "currentTimestamp": "0x3e8",
            "previousHash": "0x5e20a0453cecd065ea59c37ac63e079ee08998b6045136a8ce6635c7912ec0b6"
        },
        "pre": {
            "0x095e7baea6a6c7c4c2dfeb977efac326af552d87": {
                "code": "0x601760015500",
                "storage": {
                    "0x0000000000000000000000000000000000000000000000000000000000000001": "0x0000000000000000000000000000000000000000000000000000000000000001"
                },
                "balance": "0xde0b6b3a7640000"
            },
            "0x2adc25665018aa1fe0e6bc666dac8fc2697ff9ba": {
                "balance": "0x0",
                "nonce": "0x1"
            },
            "0xa94f5374fce5edbc8e2a8697c15331677e6ebf0b": {
                "balance": "0x3c336080"
            }
        },
        "transaction": {
            "gasPrice": "0xa",
            "nonce": "0x0",
            "to": "0x095e7baea6a6c7c4c2dfeb977efac326af552d87",
            "data": [
                "0x"
            ],
            "gasLimit": [
                "0x37c94"
            ],
            "value": [
                "0x0a"
            ],
            "secretKey": "0x45a915e4d060149eb4365960e6a7a45f334393093061116b197e3240065ff2d8",
            "sender": "0xa94f5374fce5edbc8e2a8697c15331677e6ebf0b"
        },
        "post": {
            "ETC_Magneto": [
                {
                    "hash": "1c2126739e6eee090640b4fa14036d069cdd9f504655aee10572b0acc761fd99",
                    "logs": "1dcc4de8dec75d7aab85b567b6ccd41ad312451b948a7413f0a142fd40d49347",
                    "txbytes": "0xf860800a83037c9494095e7baea6a6c7c4c2dfeb977efac326af552d870a801ba0b07974995e9a9397bd9ee2cd20d94561a8b24b540495d57095bd3c8eef318bdaa0675ab3cd023f6d479de46a677e1e13b12833acfce3243fb86951cd903dd37357",
                    "indexes": {
                        "data": 0,
                        "gas": 0,
                        "value": 0
                    }
                }
            ],
            "ETC_Mystique": [
                {
                    "hash": "1c2126739e6eee090640b4fa14036d069cdd9f504655aee10572b0acc761fd99",
                    "logs": "1dcc4de8dec75d7aab85b567b6ccd41ad312451b948a7413f0a142fd40d49347",
                    "txbytes": "0xf860800a83037c9494095e7baea6a6c7c4c2dfeb977efac326af552d870a801ba0b07974995e9a9397bd9ee2cd20d94561a8b24b540495d57095bd3c8eef318bdaa0675ab3cd023f6d479de46a677e1e13b12833acfce3243fb86951cd903dd37357",
                    "indexes": {
                        "data": 0,
                        "gas": 0,
                        "value": 0
                    }
                }
            ],
            "ETC_Phoenix": [
                {
                    "hash": "1c2126739e6eee090640b4fa14036d069cdd9f504655aee10572b0acc761fd99",
                    "logs": "1dcc4de8dec75d7aab85b567b6ccd41ad312451b948a7413f0a142fd40d49347",
                    "txbytes": "0xf860800a83037c9494095e7baea6a6c7c4c2dfeb977efac326af552d870a801ba0b07974995e9a9397bd9ee2cd20d94561a8b24b540495d57095bd3c8eef318bdaa0675ab3cd023f6d479de46a677e1e13b12833acfce3243fb86951cd903dd37357",
                    "indexes": {
                        "data": 0,
                        "gas": 0,
                        "value": 0
                    }
                }
            ]
        }
    }
}