{
    "refund_NoOOG_1": {
        "_info": {
            "comment": "",
            "filling-rpc-server": "evm version 1.10.16-unstable-0f893109-20220105",
            "filling-tool-version": "retesteth-0.2.2-testinfo+commit.01c6aac2.Linux.g++",
            "filledWith": "CoreGeth-1.12.9-unstable-4d59a861107c8232d6896811c48f229d30087be4",
            "lllcversion": "Version: 0.5.14-develop.2021.11.27+commit.401d5358.Linux.g++",
            "source": "src/GeneralStateTestsFiller/stRefundTest/refund_NoOOG_1Filler.json",
            "sourceHash": "0c5cdcd3bcd9f06e1b6697bddc68333038d1c6a0f95d64c9ff77b729c31f0d3b"
        },
        "env": {
            "currentCoinbase": "0x2adc25665018aa1fe0e6bc666dac8fc2697ff9ba",
            "currentDifficulty": "0x20000",
            "currentGasLimit": "0xf4240",
            "currentNumber": "0x1",
            "currentTimestamp": "0x3e8",
            "currentBaseFee": "0xa",
            "previousHash": "0x5e20a0453cecd065ea59c37ac63e079ee08998b6045136a8ce6635c7912ec0b6"
        },
        "pre": {
            "0x095e7baea6a6c7c4c2dfeb977efac326af552d87": {
                "code": "0x600060015500",
                "storage": {
                    "0x0000000000000000000000000000000000000000000000000000000000000001": "0x0000000000000000000000000000000000000000000000000000000000000001"
                },
                "balance": "0xde0b6b3a7640000"
            },
            "0x2adc25665018aa1fe0e6bc666dac8fc2697ff9ba": {
                "balance": "0x0",
                "nonce": "0x1"
            },
            "0xa94f5374fce5edbc8e2a8697c15331677e6ebf0b": {
                "balance": "0xa03f70"
            }
        },
        "transaction": {
            "gasPrice": "0xa",
            "nonce": "0x0",
            "to": "0x095e7baea6a6c7c4c2dfeb977efac326af552d87",
            "data": [
                "0x"
            ],
            "gasLimit": [
                "0x6596"
            ],
            "value": [
                "0x00"
            ],
            "secretKey": "0x45a915e4d060149eb4365960e6a7a45f334393093061116b197e3240065ff2d8",
            "sender": "0xa94f5374fce5edbc8e2a8697c15331677e6ebf0b"
        },
        "post": {
            "ETC_Magneto": [
                {
                    "hash": "d15de46f779e9403fe2d99499e582d798fb2c6d887098ddccbdb0d5a972202bb",
                    "logs": "1dcc4de8dec75d7aab85b567b6ccd41ad312451b948a7413f0a142fd40d49347",
                    "txbytes": "0xf85f800a82659694095e7baea6a6c7c4c2dfeb977efac326af552d8780801ba091ae12013e37bdf4007367d40df21019d04f000c03ea1a2594167a4b0837af89a05e35bf67e560f4bd41f00082c81ab8443365983f7deca87866c38f4bd2451bfa",
                    "indexes": {
                        "data": 0,
                        "gas": 0,
                        "value": 0
                    }
                }
            ],
            "ETC_Mystique": [
                {
                    "hash": "01c669cad36f8e4d9f1da028666b678058b0392e132c60fd8b551a50e956852a",
                    "logs": "1dcc4de8dec75d7aab85b567b6ccd41ad312451b948a7413f0a142fd40d49347",
                    "txbytes": "0xf85f800a82659694095e7baea6a6c7c4c2dfeb977efac326af552d8780801ba091ae12013e37bdf4007367d40df21019d04f000c03ea1a2594167a4b0837af89a05e35bf67e560f4bd41f00082c81ab8443365983f7deca87866c38f4bd2451bfa",
                    "indexes": {
                        "data": 0,
                        "gas": 0,
                        "value": 0
                    }
                }
            ],
            "ETC_Phoenix": [
                {
                    "hash": "d15de46f779e9403fe2d99499e582d798fb2c6d887098ddccbdb0d5a972202bb",
                    "logs": "1dcc4de8dec75d7aab85b567b6ccd41ad312451b948a7413f0a142fd40d49347",
                    "txbytes": "0xf85f800a82659694095e7baea6a6c7c4c2dfeb977efac326af552d8780801ba091ae12013e37bdf4007367d40df21019d04f000c03ea1a2594167a4b0837af89a05e35bf67e560f4bd41f00082c81ab8443365983f7deca87866c38f4bd2451bfa",
                    "indexes": {
                        "data": 0,
                        "gas": 0,
                        "value": 0
                    }
                }
            ]
        }
    }
}