{
    "refund_OOG": {
        "_info": {
            "comment": "",
            "filling-rpc-server": "evm version 1.10.16-unstable-0f893109-20220105",
            "filling-tool-version": "retesteth-0.2.2-testinfo+commit.01c6aac2.Linux.g++",
            "filledWith": "CoreGeth-1.12.9-unstable-4cf5b2b0837228e7d5eadba6a01ffb80e9288e21",
            "lllcversion": "Version: 0.5.14-develop.2021.11.27+commit.401d5358.Linux.g++",
            "source": "src/GeneralStateTestsFiller/stRefundTest/refund_OOGFiller.json",
            "sourceHash": "1d8ea596c29c7c865e980da92f40afbb4f06bac356ec23eef654d4ee49544f6e"
        },
        "env": {
            "currentCoinbase": "0x2adc25665018aa1fe0e6bc666dac8fc2697ff9ba",
            "currentDifficulty": "0x20000",
            "currentGasLimit": "0xf4240",
            "currentNumber": "0x1",
            "currentTimestamp": "0x3e8",
            "previousHash": "0x5e20a0453cecd065ea59c37ac63e079ee08998b6045136a8ce6635c7912ec0b6"
        },
        "pre": {
            "0x095e7baea6a6c7c4c2dfeb977efac326af552d87": {
                "code": "0x600060015500",
                "storage": {
                    "0x0000000000000000000000000000000000000000000000000000000000000001": "0x0000000000000000000000000000000000000000000000000000000000000001"
                },
                "balance": "0xde0b6b3a7640000",
                "nonce": "0x0"
            },
            "0x2adc25665018aa1fe0e6bc666dac8fc2697ff9ba": {
                "code": "0x",
                "balance": "0x0",
                "nonce": "0x1"
            },
            "0xa94f5374fce5edbc8e2a8697c15331677e6ebf0b": {
                "code": "0x",
                "balance": "0x7a120",
                "nonce": "0x0"
            }
        },
        "transaction": {
            "gasPrice": "0xa",
            "nonce": "0x0",
            "to": "0x095e7baea6a6c7c4c2dfeb977efac326af552d87",
            "data": [
                "0x"
            ],
            "gasLimit": [
                "0x6595"
            ],
            "value": [
                "0x0a"
            ],
            "secretKey": "0x45a915e4d060149eb4365960e6a7a45f334393093061116b197e3240065ff2d8",
            "sender": "0xa94f5374fce5edbc8e2a8697c15331677e6ebf0b"
        },
        "post": {
            "ETC_Magneto": [
                {
                    "hash": "326894bf356a48008c23a7dfd8dcafcad1d8df7139607926e49d8f92c4c33fcf",
                    "logs": "1dcc4de8dec75d7aab85b567b6ccd41ad312451b948a7413f0a142fd40d49347",
                    "txbytes": "0xf85f800a82659594095e7baea6a6c7c4c2dfeb977efac326af552d870a801ba0b7782e56383b9412120139f4293222e4355b6efb40f7a4467cbd801dc2e3e46aa0750fdee2bf9f9c2e91a9c4412eecead4e4c053904ad380c465407336b4b8072e",
                    "indexes": {
                        "data": 0,
                        "gas": 0,
                        "value": 0
                    }
                }
            ],
            "ETC_Mystique": [
                {
                    "hash": "326894bf356a48008c23a7dfd8dcafcad1d8df7139607926e49d8f92c4c33fcf",
                    "logs": "1dcc4de8dec75d7aab85b567b6ccd41ad312451b948a7413f0a142fd40d49347",
                    "txbytes": "0xf85f800a82659594095e7baea6a6c7c4c2dfeb977efac326af552d870a801ba0b7782e56383b9412120139f4293222e4355b6efb40f7a4467cbd801dc2e3e46aa0750fdee2bf9f9c2e91a9c4412eecead4e4c053904ad380c465407336b4b8072e",
                    "indexes": {
                        "data": 0,
                        "gas": 0,
                        "value": 0
                    }
                }
            ],
            "ETC_Phoenix": [
                {
                    "hash": "326894bf356a48008c23a7dfd8dcafcad1d8df7139607926e49d8f92c4c33fcf",
                    "logs": "1dcc4de8dec75d7aab85b567b6ccd41ad312451b948a7413f0a142fd40d49347",
                    "txbytes": "0xf85f800a82659594095e7baea6a6c7c4c2dfeb977efac326af552d870a801ba0b7782e56383b9412120139f4293222e4355b6efb40f7a4467cbd801dc2e3e46aa0750fdee2bf9f9c2e91a9c4412eecead4e4c053904ad380c465407336b4b8072e",
                    "indexes": {
                        "data": 0,
                        "gas": 0,
                        "value": 0
                    }
                }
            ]
        }
    }
}