{
    "refund_TxToSuicide": {
        "_info": {
            "comment": "",
            "filling-rpc-server": "evm version 1.10.16-unstable-0f893109-20220105",
            "filling-tool-version": "retesteth-0.2.2-testinfo+commit.01c6aac2.Linux.g++",
            "filledWith": "CoreGeth-1.12.9-unstable-4d59a861107c8232d6896811c48f229d30087be4",
            "lllcversion": "Version: 0.5.14-develop.2021.11.27+commit.401d5358.Linux.g++",
            "source": "src/GeneralStateTestsFiller/stRefundTest/refund_TxToSuicideFiller.json",
            "sourceHash": "93ebfaccd0113f81657882bec7d11eada3ceca60f61e127b7d0ad53475d3846e"
        },
        "env": {
            "currentCoinbase": "0x2adc25665018aa1fe0e6bc666dac8fc2697ff9ba",
            "currentDifficulty": "0x20000",
            "currentGasLimit": "0x989680",
            "currentNumber": "0x1",
            "currentTimestamp": "0x3e8",
            "currentBaseFee": "0xa",
            "previousHash": "0x5e20a0453cecd065ea59c37ac63e079ee08998b6045136a8ce6635c7912ec0b6"
        },
        "pre": {
            "0x2adc25665018aa1fe0e6bc666dac8fc2697ff9ba": {
                "balance": "0x0",
                "nonce": "0x1"
            },
            "0xa94f5374fce5edbc8e2a8697c15331677e6ebf0b": {
                "balance": "0x5f5e100"
            },
            "0xaaae7baea6a6c7c4c2dfeb977efac326af552aaa": {
                "code": "0x73095e7baea6a6c7c4c2dfeb977efac326af552d87ff00",
                "storage": {
                    "0x0000000000000000000000000000000000000000000000000000000000000001": "0x0000000000000000000000000000000000000000000000000000000000000001"
                },
                "balance": "0xde0b6b3a7640000"
            }
        },
        "transaction": {
            "gasPrice": "0xa",
            "nonce": "0x0",
            "to": "0xaaae7baea6a6c7c4c2dfeb977efac326af552aaa",
            "data": [
                "0x"
            ],
            "gasLimit": [
                "0xee4b"
            ],
            "value": [
                "0x0a"
            ],
            "secretKey": "0x45a915e4d060149eb4365960e6a7a45f334393093061116b197e3240065ff2d8",
            "sender": "0xa94f5374fce5edbc8e2a8697c15331677e6ebf0b"
        },
        "post": {
            "ETC_Magneto": [
                {
                    "hash": "cd3310312e09bdb270f043970f6552374287f955b013e481c0ffc8285869a039",
                    "logs": "1dcc4de8dec75d7aab85b567b6ccd41ad312451b948a7413f0a142fd40d49347",
                    "txbytes": "0xf85f800a82ee4b94aaae7baea6a6c7c4c2dfeb977efac326af552aaa0a801ca0af5d647559f37ea03ed602c96214fc46af5d3c9be816d08d990d4187d5ae456ba0664917ed847b2d6152e387341d3bea91aa7eec91ac6fb203239d4affe2e02d2f",
                    "indexes": {
                        "data": 0,
                        "gas": 0,
                        "value": 0
                    }
                }
            ],
            "ETC_Mystique": [
                {
                    "hash": "5ea42d190fe983fec7bf8619d78434a52b30d1979aee192149c0b6a6da04f478",
                    "logs": "1dcc4de8dec75d7aab85b567b6ccd41ad312451b948a7413f0a142fd40d49347",
                    "txbytes": "0xf85f800a82ee4b94aaae7baea6a6c7c4c2dfeb977efac326af552aaa0a801ca0af5d647559f37ea03ed602c96214fc46af5d3c9be816d08d990d4187d5ae456ba0664917ed847b2d6152e387341d3bea91aa7eec91ac6fb203239d4affe2e02d2f",
                    "indexes": {
                        "data": 0,
                        "gas": 0,
                        "value": 0
                    }
                }
            ],
            "ETC_Phoenix": [
                {
                    "hash": "11a225c9b850681c18be857b56f1b46e1f08835e75f7d1d4a7438932bd33fc1e",
                    "logs": "1dcc4de8dec75d7aab85b567b6ccd41ad312451b948a7413f0a142fd40d49347",
                    "txbytes": "0xf85f800a82ee4b94aaae7baea6a6c7c4c2dfeb977efac326af552aaa0a801ca0af5d647559f37ea03ed602c96214fc46af5d3c9be816d08d990d4187d5ae456ba0664917ed847b2d6152e387341d3bea91aa7eec91ac6fb203239d4affe2e02d2f",
                    "indexes": {
                        "data": 0,
                        "gas": 0,
                        "value": 0
                    }
                }
            ]
        }
    }
}