{
    "ecmul_1-3_5617_28000_96": {
        "_info": {
            "comment": "Puts the point (1, 3) and the factor 21888242871839275222246405745257275088548364400416034343698204186575808495617 into the ECMUL precompile, truncating or expanding the input data to 96 bytes. Gives the execution 28000 bytes",
            "filling-rpc-server": "evm version 1.10.16-unstable-0f893109-20220105",
            "filling-tool-version": "retesteth-0.2.2-testinfo+commit.01c6aac2.Linux.g++",
            "filledWith": "CoreGeth-1.12.9-unstable-d64998ce9b05f4f41b35740c69c4b402e41a3105",
            "lllcversion": "Version: 0.5.14-develop.2021.11.27+commit.401d5358.Linux.g++",
            "source": "src/GeneralStateTestsFiller/stZeroKnowledge/ecmul_1-3_5617_28000_96Filler.json",
            "sourceHash": "0e90f8f5e2204bbd721566f45224fd0b6a58900f8d370b5a2f5665d05ae4da2a"
        },
        "env": {
            "currentCoinbase": "0x3535353535353535353535353535353535353535",
            "currentDifficulty": "0x20000",
            "currentGasLimit": "0x5f5e100",
            "currentNumber": "0x1",
            "currentTimestamp": "0x3e8",
            "previousHash": "0xc6745cf3cada515bbfb9573261c82547e0b8f9e3d5dd382e464704a84e47b5ad"
        },
        "pre": {
            "0x0000000000000000000000000000000000000000": {
                "balance": "0x1"
            },
            "0x0000000000000000000000000000000000000001": {
                "balance": "0x1"
            },
            "0x0000000000000000000000000000000000000002": {
                "balance": "0x1"
            },
            "0x0000000000000000000000000000000000000003": {
                "balance": "0x1"
            },
            "0x0000000000000000000000000000000000000004": {
                "balance": "0x1"
            },
            "0x0000000000000000000000000000000000000005": {
                "balance": "0x1"
            },
            "0x0000000000000000000000000000000000000006": {
                "balance": "0x1"
            },
            "0x0000000000000000000000000000000000000007": {
                "balance": "0x1"
            },
            "0x10a1c1cb95c92ec31d3f22c66eef1d9f3f258c6b": {
                "balance": "0xde0b6b3a7640000"
            },
            "0x13cbb8d99c6c4e0f2728c7d72606e78a29c4e224": {
                "balance": "0xde0b6b3a7640000"
            },
            "0x24143873e0e0815fdcbcffdbe09c979cbf9ad013": {
                "balance": "0xde0b6b3a7640000"
            },
            "0x3535353535353535353535353535353535353535": {
                "balance": "0x75cacd"
            },
            "0x598443f1880ef585b21f1d7585bd0577402861e5": {
                "balance": "0xde0b6b3a7640000"
            },
            "0x77db2bebba79db42a978f896968f4afce746ea1f": {
                "balance": "0xde0b6b3a7640000"
            },
            "0x7d577a597b2742b498cb5cf0c26cdcd726d39e6e": {
                "balance": "0xde0b6b3a7640000"
            },
            "0x82a978b3f5962a5b0957d9ee9eef472ee55b42f1": {
                "balance": "0xde0b6b3a6ee3533",
                "nonce": "0xb5"
            },
            "0x90f0b1ebbba1c1936aff7aaf20a7878ff9e04b6c": {
                "balance": "0xde0b6b3a7640000"
            },
            "0xc305c901078781c232a2a521c2af7980f8385ee9": {
                "code": "0x600035601c52740100000000000000000000000000000000000000006020526fffffffffffffffffffffffffffffffff6040527fffffffffffffffffffffffffffffffff000000000000000000000000000000016060527402540be3fffffffffffffffffffffffffdabf41c006080527ffffffffffffffffffffffffdabf41c00000000000000000000000002540be40060a0526330c8d1da600051141561012b5760c06004356004013511151558576004356004013560200160043560040161014037604061026061014051610160600060076305f5e0fff11558576040610240526102406060806102c0828460006004601bf15050506102c08051602082012090506000556102c060206020820352604081510160206001820306601f820103905060208203f350005b",
                "storage": {
                    "0x0000000000000000000000000000000000000000000000000000000000000000": "0xad3228b676f7d3cd4284a5443f17f1962b36e491b30a40b2405849e597ba5fb5"
                },
                "balance": "0x0",
                "nonce": "0x1"
            },
            "0xdceceaf3fc5c0a63d195d69b1a90011b7b19650d": {
                "balance": "0xde0b6b3a7640000"
            },
            "0xe0fc04fa2d34a66b779fd5cee748268032a146c0": {
                "balance": "0xde0b6b3a7640000"
            }
        },
        "transaction": {
            "gasPrice": "0xa",
            "nonce": "0xb5",
            "to": "0xc305c901078781c232a2a521c2af7980f8385ee9",
            "data": [
                "0x30c8d1da000000000000000000000000000000000000000000000000000000000000002000000000000000000000000000000000000000000000000000000000000000600000000000000000000000000000000000000000000000000000000000000001000000000000000000000000000000000000000000000000000000000000000330644e72e131a029b85045b68181585d2833e84879b9709143e1f593f0000001"
            ],
            "gasLimit": [
                "0xcb78",
                "0x15f90",
                "0x1adb0",
                "0x30d40"
            ],
            "value": [
                "0x00"
            ],
            "secretKey": "0x044852b2a670ade5407e78fb2863c51de9fcb96542a07186fe3aeda6bb8a116d",
            "sender": "0x82a978b3f5962a5b0957d9ee9eef472ee55b42f1"
        },
        "post": {
            "ETC_Magneto": [
                {
                    "hash": "cdf00f76f4b9b2aa569058a49519667d98873ed7a2271a7fe66e603b5d1123c3",
                    "logs": "1dcc4de8dec75d7aab85b567b6ccd41ad312451b948a7413f0a142fd40d49347",
                    "txbytes": "0xf9010581b50a82cb7894c305c901078781c232a2a521c2af7980f8385ee980b8a430c8d1da000000000000000000000000000000000000000000000000000000000000002000000000000000000000000000000000000000000000000000000000000000600000000000000000000000000000000000000000000000000000000000000001000000000000000000000000000000000000000000000000000000000000000330644e72e131a029b85045b68181585d2833e84879b9709143e1f593f00000011ba08bd45de7a7b48dcdce3be70898fc4a5da5be390562bee8d8e5dd3af261574bf9a0095389361cbc90eb1dda3a1388ddbb59ee1abde74170cf5bc8030cc875208e52",
                    "indexes": {
                        "data": 0,
                        "gas": 0,
                        "value": 0
                    }
                },
                {
                    "hash": "b9a884d5811723b8477596f3fc4ef3b530cb7267a0ddaf6259a159eafbabcbe2",
                    "logs": "1dcc4de8dec75d7aab85b567b6ccd41ad312451b948a7413f0a142fd40d49347",
                    "txbytes": "0xf9010681b50a83015f9094c305c901078781c232a2a521c2af7980f8385ee980b8a430c8d1da000000000000000000000000000000000000000000000000000000000000002000000000000000000000000000000000000000000000000000000000000000600000000000000000000000000000000000000000000000000000000000000001000000000000000000000000000000000000000000000000000000000000000330644e72e131a029b85045b68181585d2833e84879b9709143e1f593f00000011ba0fd91bb2733141074a54675d414409c7b9a9a49b1fb7dbdb18e672274cb395bf1a01e142b03b07310003f3cd1ba3835bdea22203f97f541eba96cd799b7b2656c2c",
                    "indexes": {
                        "data": 0,
                        "gas": 1,
                        "value": 0
                    }
                },
                {
                    "hash": "4053e1874f1755b4ade40751b5c0ff3e20f449a536a291a23d4a073cb3304297",
                    "logs": "1dcc4de8dec75d7aab85b567b6ccd41ad312451b948a7413f0a142fd40d49347",
                    "txbytes": "0xf9010681b50a8301adb094c305c901078781c232a2a521c2af7980f8385ee980b8a430c8d1da000000000000000000000000000000000000000000000000000000000000002000000000000000000000000000000000000000000000000000000000000000600000000000000000000000000000000000000000000000000000000000000001000000000000000000000000000000000000000000000000000000000000000330644e72e131a029b85045b68181585d2833e84879b9709143e1f593f00000011ba089db4d7c38145c9deafe452990f063681ba96d52f00d7d9e200440e49b957548a07c56717b92347cd7ebeeeb8935116a909c7c19ea4ab4bbc99bad2a35cf7fb347",
                    "indexes": {
                        "data": 0,
                        "gas": 2,
                        "value": 0
                    }
                },
                {
                    "hash": "10ab6441b1ce2e07ec93d43cbc43c6a787388cbbc84476440598c5b506e71da3",
                    "logs": "1dcc4de8dec75d7aab85b567b6ccd41ad312451b948a7413f0a142fd40d49347",
                    "txbytes": "0xf9010681b50a83030d4094c305c901078781c232a2a521c2af7980f8385ee980b8a430c8d1da000000000000000000000000000000000000000000000000000000000000002000000000000000000000000000000000000000000000000000000000000000600000000000000000000000000000000000000000000000000000000000000001000000000000000000000000000000000000000000000000000000000000000330644e72e131a029b85045b68181585d2833e84879b9709143e1f593f00000011ca0c3ea8154fd6e1f299ff0fbec795c81be720f897dcc966cba7517f866b97242eda02f452fa1205f1128f4c7dcccb9a4a09db6303fa16acdb8ea56f317687176f0ad",
                    "indexes": {
                        "data": 0,
                        "gas": 3,
                        "value": 0
                    }
                }
            ],
            "ETC_Mystique": [
                {
                    "hash": "cdf00f76f4b9b2aa569058a49519667d98873ed7a2271a7fe66e603b5d1123c3",
                    "logs": "1dcc4de8dec75d7aab85b567b6ccd41ad312451b948a7413f0a142fd40d49347",
                    "txbytes": "0xf9010581b50a82cb7894c305c901078781c232a2a521c2af7980f8385ee980b8a430c8d1da000000000000000000000000000000000000000000000000000000000000002000000000000000000000000000000000000000000000000000000000000000600000000000000000000000000000000000000000000000000000000000000001000000000000000000000000000000000000000000000000000000000000000330644e72e131a029b85045b68181585d2833e84879b9709143e1f593f00000011ba08bd45de7a7b48dcdce3be70898fc4a5da5be390562bee8d8e5dd3af261574bf9a0095389361cbc90eb1dda3a1388ddbb59ee1abde74170cf5bc8030cc875208e52",
                    "indexes": {
                        "data": 0,
                        "gas": 0,
                        "value": 0
                    }
                },
                {
                    "hash": "b9a884d5811723b8477596f3fc4ef3b530cb7267a0ddaf6259a159eafbabcbe2",
                    "logs": "1dcc4de8dec75d7aab85b567b6ccd41ad312451b948a7413f0a142fd40d49347",
                    "txbytes": "0xf9010681b50a83015f9094c305c901078781c232a2a521c2af7980f8385ee980b8a430c8d1da000000000000000000000000000000000000000000000000000000000000002000000000000000000000000000000000000000000000000000000000000000600000000000000000000000000000000000000000000000000000000000000001000000000000000000000000000000000000000000000000000000000000000330644e72e131a029b85045b68181585d2833e84879b9709143e1f593f00000011ba0fd91bb2733141074a54675d414409c7b9a9a49b1fb7dbdb18e672274cb395bf1a01e142b03b07310003f3cd1ba3835bdea22203f97f541eba96cd799b7b2656c2c",
                    "indexes": {
                        "data": 0,
                        "gas": 1,
                        "value": 0
                    }
                },
                {
                    "hash": "4053e1874f1755b4ade40751b5c0ff3e20f449a536a291a23d4a073cb3304297",
                    "logs": "1dcc4de8dec75d7aab85b567b6ccd41ad312451b948a7413f0a142fd40d49347",
                    "txbytes": "0xf9010681b50a8301adb094c305c901078781c232a2a521c2af7980f8385ee980b8a430c8d1da000000000000000000000000000000000000000000000000000000000000002000000000000000000000000000000000000000000000000000000000000000600000000000000000000000000000000000000000000000000000000000000001000000000000000000000000000000000000000000000000000000000000000330644e72e131a029b85045b68181585d2833e84879b9709143e1f593f00000011ba089db4d7c38145c9deafe452990f063681ba96d52f00d7d9e200440e49b957548a07c56717b92347cd7ebeeeb8935116a909c7c19ea4ab4bbc99bad2a35cf7fb347",
                    "indexes": {
                        "data": 0,
                        "gas": 2,
                        "value": 0
                    }
                },
                {
                    "hash": "10ab6441b1ce2e07ec93d43cbc43c6a787388cbbc84476440598c5b506e71da3",
                    "logs": "1dcc4de8dec75d7aab85b567b6ccd41ad312451b948a7413f0a142fd40d49347",
                    "txbytes": "0xf9010681b50a83030d4094c305c901078781c232a2a521c2af7980f8385ee980b8a430c8d1da000000000000000000000000000000000000000000000000000000000000002000000000000000000000000000000000000000000000000000000000000000600000000000000000000000000000000000000000000000000000000000000001000000000000000000000000000000000000000000000000000000000000000330644e72e131a029b85045b68181585d2833e84879b9709143e1f593f00000011ca0c3ea8154fd6e1f299ff0fbec795c81be720f897dcc966cba7517f866b97242eda02f452fa1205f1128f4c7dcccb9a4a09db6303fa16acdb8ea56f317687176f0ad",
                    "indexes": {
                        "data": 0,
                        "gas": 3,
                        "value": 0
                    }
                }
            ],
            "ETC_Phoenix": [
                {
                    "hash": "cdf00f76f4b9b2aa569058a49519667d98873ed7a2271a7fe66e603b5d1123c3",
                    "logs": "1dcc4de8dec75d7aab85b567b6ccd41ad312451b948a7413f0a142fd40d49347",
                    "txbytes": "0xf9010581b50a82cb7894c305c901078781c232a2a521c2af7980f8385ee980b8a430c8d1da000000000000000000000000000000000000000000000000000000000000002000000000000000000000000000000000000000000000000000000000000000600000000000000000000000000000000000000000000000000000000000000001000000000000000000000000000000000000000000000000000000000000000330644e72e131a029b85045b68181585d2833e84879b9709143e1f593f00000011ba08bd45de7a7b48dcdce3be70898fc4a5da5be390562bee8d8e5dd3af261574bf9a0095389361cbc90eb1dda3a1388ddbb59ee1abde74170cf5bc8030cc875208e52",
                    "indexes": {
                        "data": 0,
                        "gas": 0,
                        "value": 0
                    }
                },
                {
                    "hash": "b9a884d5811723b8477596f3fc4ef3b530cb7267a0ddaf6259a159eafbabcbe2",
                    "logs": "1dcc4de8dec75d7aab85b567b6ccd41ad312451b948a7413f0a142fd40d49347",
                    "txbytes": "0xf9010681b50a83015f9094c305c901078781c232a2a521c2af7980f8385ee980b8a430c8d1da000000000000000000000000000000000000000000000000000000000000002000000000000000000000000000000000000000000000000000000000000000600000000000000000000000000000000000000000000000000000000000000001000000000000000000000000000000000000000000000000000000000000000330644e72e131a029b85045b68181585d2833e84879b9709143e1f593f00000011ba0fd91bb2733141074a54675d414409c7b9a9a49b1fb7dbdb18e672274cb395bf1a01e142b03b07310003f3cd1ba3835bdea22203f97f541eba96cd799b7b2656c2c",
                    "indexes": {
                        "data": 0,
                        "gas": 1,
                        "value": 0
                    }
                },
                {
                    "hash": "4053e1874f1755b4ade40751b5c0ff3e20f449a536a291a23d4a073cb3304297",
                    "logs": "1dcc4de8dec75d7aab85b567b6ccd41ad312451b948a7413f0a142fd40d49347",
                    "txbytes": "0xf9010681b50a8301adb094c305c901078781c232a2a521c2af7980f8385ee980b8a430c8d1da000000000000000000000000000000000000000000000000000000000000002000000000000000000000000000000000000000000000000000000000000000600000000000000000000000000000000000000000000000000000000000000001000000000000000000000000000000000000000000000000000000000000000330644e72e131a029b85045b68181585d2833e84879b9709143e1f593f00000011ba089db4d7c38145c9deafe452990f063681ba96d52f00d7d9e200440e49b957548a07c56717b92347cd7ebeeeb8935116a909c7c19ea4ab4bbc99bad2a35cf7fb347",
                    "indexes": {
                        "data": 0,
                        "gas": 2,
                        "value": 0
                    }
                },
                {
                    "hash": "10ab6441b1ce2e07ec93d43cbc43c6a787388cbbc84476440598c5b506e71da3",
                    "logs": "1dcc4de8dec75d7aab85b567b6ccd41ad312451b948a7413f0a142fd40d49347",
                    "txbytes": "0xf9010681b50a83030d4094c305c901078781c232a2a521c2af7980f8385ee980b8a430c8d1da000000000000000000000000000000000000000000000000000000000000002000000000000000000000000000000000000000000000000000000000000000600000000000000000000000000000000000000000000000000000000000000001000000000000000000000000000000000000000000000000000000000000000330644e72e131a029b85045b68181585d2833e84879b9709143e1f593f00000011ca0c3ea8154fd6e1f299ff0fbec795c81be720f897dcc966cba7517f866b97242eda02f452fa1205f1128f4c7dcccb9a4a09db6303fa16acdb8ea56f317687176f0ad",
                    "indexes": {
                        "data": 0,
                        "gas": 3,
                        "value": 0
                    }
                }
            ]
        }
    }
}