{
    "ecmul_7827-6598_9935_21000_128": {
        "_info": {
            "comment": "Puts the point (11999875504842010600789954262886096740416429265635183817701593963271973497827, 11843594000332171325303933275547366297934113019079887694534126289021216356598) and the factor 115792089237316195423570985008687907853269984665640564039457584007913129639935 into the ECMUL precompile, truncating or expanding the input data to 128 bytes. Gives the execution 21000 bytes",
            "filling-rpc-server": "evm version 1.10.16-unstable-0f893109-20220105",
            "filling-tool-version": "retesteth-0.2.2-testinfo+commit.01c6aac2.Linux.g++",
            "filledWith": "CoreGeth-1.12.9-unstable-4cf5b2b0837228e7d5eadba6a01ffb80e9288e21",
            "lllcversion": "Version: 0.5.14-develop.2021.11.27+commit.401d5358.Linux.g++",
            "source": "src/GeneralStateTestsFiller/stZeroKnowledge/ecmul_7827-6598_9935_21000_128Filler.json",
            "sourceHash": "f9f3c34997243634cced723f5a13e94b4876dece3d930d508d813ce6b7d0d57e"
        },
        "env": {
            "currentCoinbase": "0x3535353535353535353535353535353535353535",
            "currentDifficulty": "0x20000",
            "currentGasLimit": "0x5f5e100",
            "currentNumber": "0x1",
            "currentTimestamp": "0x3e8",
            "previousHash": "0xc6745cf3cada515bbfb9573261c82547e0b8f9e3d5dd382e464704a84e47b5ad"
        },
        "pre": {
            "0x0000000000000000000000000000000000000000": {
                "code": "0x",
                "balance": "0x1",
                "nonce": "0x0"
            },
            "0x0000000000000000000000000000000000000001": {
                "code": "0x",
                "balance": "0x1",
                "nonce": "0x0"
            },
            "0x0000000000000000000000000000000000000002": {
                "code": "0x",
                "balance": "0x1",
                "nonce": "0x0"
            },
            "0x0000000000000000000000000000000000000003": {
                "code": "0x",
                "balance": "0x1",
                "nonce": "0x0"
            },
            "0x0000000000000000000000000000000000000004": {
                "code": "0x",
                "balance": "0x1",
                "nonce": "0x0"
            },
            "0x0000000000000000000000000000000000000005": {
                "code": "0x",
                "balance": "0x1",
                "nonce": "0x0"
            },
            "0x0000000000000000000000000000000000000006": {
                "code": "0x",
                "balance": "0x1",
                "nonce": "0x0"
            },
            "0x0000000000000000000000000000000000000007": {
                "code": "0x",
                "balance": "0x1",
                "nonce": "0x0"
            },
            "0x10a1c1cb95c92ec31d3f22c66eef1d9f3f258c6b": {
                "code": "0x",
                "balance": "0xde0b6b3a7640000",
                "nonce": "0x0"
            },
            "0x13cbb8d99c6c4e0f2728c7d72606e78a29c4e224": {
                "code": "0x",
                "balance": "0xde0b6b3a7640000",
                "nonce": "0x0"
            },
            "0x24143873e0e0815fdcbcffdbe09c979cbf9ad013": {
                "code": "0x",
                "balance": "0xde0b6b3a7640000",
                "nonce": "0x0"
            },
            "0x3535353535353535353535353535353535353535": {
                "code": "0x",
                "balance": "0x4073ae",
                "nonce": "0x0"
            },
            "0x598443f1880ef585b21f1d7585bd0577402861e5": {
                "code": "0x",
                "balance": "0xde0b6b3a7640000",
                "nonce": "0x0"
            },
            "0x77db2bebba79db42a978f896968f4afce746ea1f": {
                "code": "0x",
                "balance": "0xde0b6b3a7640000",
                "nonce": "0x0"
            },
            "0x7d577a597b2742b498cb5cf0c26cdcd726d39e6e": {
                "code": "0x",
                "balance": "0xde0b6b3a7640000",
                "nonce": "0x0"
            },
            "0x82a978b3f5962a5b0957d9ee9eef472ee55b42f1": {
                "code": "0x",
                "balance": "0xde0b6b3a7238c52",
                "nonce": "0x5d"
            },
            "0x90f0b1ebbba1c1936aff7aaf20a7878ff9e04b6c": {
                "code": "0x",
                "balance": "0xde0b6b3a7640000",
                "nonce": "0x0"
            },
            "0xc305c901078781c232a2a521c2af7980f8385ee9": {
                "code": "0x600035601c52740100000000000000000000000000000000000000006020526fffffffffffffffffffffffffffffffff6040527fffffffffffffffffffffffffffffffff000000000000000000000000000000016060527402540be3fffffffffffffffffffffffffdabf41c006080527ffffffffffffffffffffffffdabf41c00000000000000000000000002540be40060a0526330c8d1da600051141561012b5760c06004356004013511151558576004356004013560200160043560040161014037604061026061014051610160600060076305f5e0fff11558576040610240526102406060806102c0828460006004601bf15050506102c08051602082012090506000556102c060206020820352604081510160206001820306601f820103905060208203f350005b",
                "balance": "0x0",
                "nonce": "0x1"
            },
            "0xdceceaf3fc5c0a63d195d69b1a90011b7b19650d": {
                "code": "0x",
                "balance": "0xde0b6b3a7640000",
                "nonce": "0x0"
            },
            "0xe0fc04fa2d34a66b779fd5cee748268032a146c0": {
                "code": "0x",
                "balance": "0xde0b6b3a7640000",
                "nonce": "0x0"
            }
        },
        "transaction": {
            "gasPrice": "0xa",
            "nonce": "0x5d",
            "to": "0xc305c901078781c232a2a521c2af7980f8385ee9",
            "data": [
                "0x30c8d1da000000000000000000000000000000000000000000000000000000000000002000000000000000000000000000000000000000000000000000000000000000801a87b0584ce92f4593d161480614f2989035225609f08058ccfa3d0f940febe31a2f3c951f6dadcc7ee9007dff81504b0fcd6d7cf59996efdc33d92bf7f9f8f6ffffffffffffffffffffffffffffffffffffffffffffffffffffffffffffffff0000000000000000000000000000000000000000000000000000000000000000"
            ],
            "gasLimit": [
                "0xc060",
                "0xc350",
                "0x1adb0",
                "0x30d40"
            ],
            "value": [
                "0x00"
            ],
            "secretKey": "0x044852b2a670ade5407e78fb2863c51de9fcb96542a07186fe3aeda6bb8a116d",
            "sender": "0x82a978b3f5962a5b0957d9ee9eef472ee55b42f1"
        },
        "post": {
            "ETC_Magneto": [
                {
                    "hash": "2e424072d228ba0a3fe56d67edb9ab778cd65e04b81c99458a2752fff4c46ecc",
                    "logs": "1dcc4de8dec75d7aab85b567b6ccd41ad312451b948a7413f0a142fd40d49347",
                    "txbytes": "0xf901245d0a82c06094c305c901078781c232a2a521c2af7980f8385ee980b8c430c8d1da000000000000000000000000000000000000000000000000000000000000002000000000000000000000000000000000000000000000000000000000000000801a87b0584ce92f4593d161480614f2989035225609f08058ccfa3d0f940febe31a2f3c951f6dadcc7ee9007dff81504b0fcd6d7cf59996efdc33d92bf7f9f8f6ffffffffffffffffffffffffffffffffffffffffffffffffffffffffffffffff00000000000000000000000000000000000000000000000000000000000000001ca01dfb0993305bb10ed3ca8931863ddb0e530daa23b25547db023e804afc6e7187a06f6c9f93eda70eca839d197c43b9e3717bfb94321b5705e280a7296011fd75d7",
                    "indexes": {
                        "data": 0,
                        "gas": 0,
                        "value": 0
                    }
                },
                {
                    "hash": "517a3caa28f56d1ad70269502d3431b33ebf526822812421916c63170872ad47",
                    "logs": "1dcc4de8dec75d7aab85b567b6ccd41ad312451b948a7413f0a142fd40d49347",
                    "txbytes": "0xf901245d0a82c35094c305c901078781c232a2a521c2af7980f8385ee980b8c430c8d1da000000000000000000000000000000000000000000000000000000000000002000000000000000000000000000000000000000000000000000000000000000801a87b0584ce92f4593d161480614f2989035225609f08058ccfa3d0f940febe31a2f3c951f6dadcc7ee9007dff81504b0fcd6d7cf59996efdc33d92bf7f9f8f6ffffffffffffffffffffffffffffffffffffffffffffffffffffffffffffffff00000000000000000000000000000000000000000000000000000000000000001ca0411dbd8d8743319a32c89e32063573833d3f7074d3193d5d9b95cf4e16dd0cf8a03263f20ce9ff72fca27a21a1e1ec6bbd4de1bef5fe09837462a2869622c7fcf1",
                    "indexes": {
                        "data": 0,
                        "gas": 1,
                        "value": 0
                    }
                },
                {
                    "hash": "1b10ea5a931bb941c2783242c72b9d99382bc776d301ca20373a35dd0b3bff81",
                    "logs": "1dcc4de8dec75d7aab85b567b6ccd41ad312451b948a7413f0a142fd40d49347",
                    "txbytes": "0xf901255d0a8301adb094c305c901078781c232a2a521c2af7980f8385ee980b8c430c8d1da000000000000000000000000000000000000000000000000000000000000002000000000000000000000000000000000000000000000000000000000000000801a87b0584ce92f4593d161480614f2989035225609f08058ccfa3d0f940febe31a2f3c951f6dadcc7ee9007dff81504b0fcd6d7cf59996efdc33d92bf7f9f8f6ffffffffffffffffffffffffffffffffffffffffffffffffffffffffffffffff00000000000000000000000000000000000000000000000000000000000000001ba0c3552e990e6e7ca1b992fe17f55186b228131a5232ab9124757d366a09cece98a0173c06f0951e555bd0c5a93edd430e74e6bf0b9e6e0aeecfe7ab24b552428859",
                    "indexes": {
                        "data": 0,
                        "gas": 2,
                        "value": 0
                    }
                },
                {
                    "hash": "1b10ea5a931bb941c2783242c72b9d99382bc776d301ca20373a35dd0b3bff81",
                    "logs": "1dcc4de8dec75d7aab85b567b6ccd41ad312451b948a7413f0a142fd40d49347",
                    "txbytes": "0xf901255d0a83030d4094c305c901078781c232a2a521c2af7980f8385ee980b8c430c8d1da000000000000000000000000000000000000000000000000000000000000002000000000000000000000000000000000000000000000000000000000000000801a87b0584ce92f4593d161480614f2989035225609f08058ccfa3d0f940febe31a2f3c951f6dadcc7ee9007dff81504b0fcd6d7cf59996efdc33d92bf7f9f8f6ffffffffffffffffffffffffffffffffffffffffffffffffffffffffffffffff00000000000000000000000000000000000000000000000000000000000000001ca08dd481b663a4b37b38f0ae831e062ce3e9ff4d8f6d75c6d5cd5c3b824cf78f92a04c2206e575840ff2f733606addbff55910fc7283df2d2cdfae57ad89d6f65a8a",
                    "indexes": {
                        "data": 0,
                        "gas": 3,
                        "value": 0
                    }
                }
            ],
            "ETC_Mystique": [
                {
                    "hash": "2e424072d228ba0a3fe56d67edb9ab778cd65e04b81c99458a2752fff4c46ecc",
                    "logs": "1dcc4de8dec75d7aab85b567b6ccd41ad312451b948a7413f0a142fd40d49347",
                    "txbytes": "0xf901245d0a82c06094c305c901078781c232a2a521c2af7980f8385ee980b8c430c8d1da000000000000000000000000000000000000000000000000000000000000002000000000000000000000000000000000000000000000000000000000000000801a87b0584ce92f4593d161480614f2989035225609f08058ccfa3d0f940febe31a2f3c951f6dadcc7ee9007dff81504b0fcd6d7cf59996efdc33d92bf7f9f8f6ffffffffffffffffffffffffffffffffffffffffffffffffffffffffffffffff00000000000000000000000000000000000000000000000000000000000000001ca01dfb0993305bb10ed3ca8931863ddb0e530daa23b25547db023e804afc6e7187a06f6c9f93eda70eca839d197c43b9e3717bfb94321b5705e280a7296011fd75d7",
                    "indexes": {
                        "data": 0,
                        "gas": 0,
                        "value": 0
                    }
                },
                {
                    "hash": "517a3caa28f56d1ad70269502d3431b33ebf526822812421916c63170872ad47",
                    "logs": "1dcc4de8dec75d7aab85b567b6ccd41ad312451b948a7413f0a142fd40d49347",
                    "txbytes": "0xf901245d0a82c35094c305c901078781c232a2a521c2af7980f8385ee980b8c430c8d1da000000000000000000000000000000000000000000000000000000000000002000000000000000000000000000000000000000000000000000000000000000801a87b0584ce92f4593d161480614f2989035225609f08058ccfa3d0f940febe31a2f3c951f6dadcc7ee9007dff81504b0fcd6d7cf59996efdc33d92bf7f9f8f6ffffffffffffffffffffffffffffffffffffffffffffffffffffffffffffffff00000000000000000000000000000000000000000000000000000000000000001ca0411dbd8d8743319a32c89e32063573833d3f7074d3193d5d9b95cf4e16dd0cf8a03263f20ce9ff72fca27a21a1e1ec6bbd4de1bef5fe09837462a2869622c7fcf1",
                    "indexes": {
                        "data": 0,
                        "gas": 1,
                        "value": 0
                    }
                },
                {
                    "hash": "1b10ea5a931bb941c2783242c72b9d99382bc776d301ca20373a35dd0b3bff81",
                    "logs": "1dcc4de8dec75d7aab85b567b6ccd41ad312451b948a7413f0a142fd40d49347",
                    "txbytes": "0xf901255d0a8301adb094c305c901078781c232a2a521c2af7980f8385ee980b8c430c8d1da000000000000000000000000000000000000000000000000000000000000002000000000000000000000000000000000000000000000000000000000000000801a87b0584ce92f4593d161480614f2989035225609f08058ccfa3d0f940febe31a2f3c951f6dadcc7ee9007dff81504b0fcd6d7cf59996efdc33d92bf7f9f8f6ffffffffffffffffffffffffffffffffffffffffffffffffffffffffffffffff00000000000000000000000000000000000000000000000000000000000000001ba0c3552e990e6e7ca1b992fe17f55186b228131a5232ab9124757d366a09cece98a0173c06f0951e555bd0c5a93edd430e74e6bf0b9e6e0aeecfe7ab24b552428859",
                    "indexes": {
                        "data": 0,
                        "gas": 2,
                        "value": 0
                    }
                },
                {
                    "hash": "1b10ea5a931bb941c2783242c72b9d99382bc776d301ca20373a35dd0b3bff81",
                    "logs": "1dcc4de8dec75d7aab85b567b6ccd41ad312451b948a7413f0a142fd40d49347",
                    "txbytes": "0xf901255d0a83030d4094c305c901078781c232a2a521c2af7980f8385ee980b8c430c8d1da000000000000000000000000000000000000000000000000000000000000002000000000000000000000000000000000000000000000000000000000000000801a87b0584ce92f4593d161480614f2989035225609f08058ccfa3d0f940febe31a2f3c951f6dadcc7ee9007dff81504b0fcd6d7cf59996efdc33d92bf7f9f8f6ffffffffffffffffffffffffffffffffffffffffffffffffffffffffffffffff00000000000000000000000000000000000000000000000000000000000000001ca08dd481b663a4b37b38f0ae831e062ce3e9ff4d8f6d75c6d5cd5c3b824cf78f92a04c2206e575840ff2f733606addbff55910fc7283df2d2cdfae57ad89d6f65a8a",
                    "indexes": {
                        "data": 0,
                        "gas": 3,
                        "value": 0
                    }
                }
            ],
            "ETC_Phoenix": [
                {
                    "hash": "2e424072d228ba0a3fe56d67edb9ab778cd65e04b81c99458a2752fff4c46ecc",
                    "logs": "1dcc4de8dec75d7aab85b567b6ccd41ad312451b948a7413f0a142fd40d49347",
                    "txbytes": "0xf901245d0a82c06094c305c901078781c232a2a521c2af7980f8385ee980b8c430c8d1da000000000000000000000000000000000000000000000000000000000000002000000000000000000000000000000000000000000000000000000000000000801a87b0584ce92f4593d161480614f2989035225609f08058ccfa3d0f940febe31a2f3c951f6dadcc7ee9007dff81504b0fcd6d7cf59996efdc33d92bf7f9f8f6ffffffffffffffffffffffffffffffffffffffffffffffffffffffffffffffff00000000000000000000000000000000000000000000000000000000000000001ca01dfb0993305bb10ed3ca8931863ddb0e530daa23b25547db023e804afc6e7187a06f6c9f93eda70eca839d197c43b9e3717bfb94321b5705e280a7296011fd75d7",
                    "indexes": {
                        "data": 0,
                        "gas": 0,
                        "value": 0
                    }
                },
                {
                    "hash": "517a3caa28f56d1ad70269502d3431b33ebf526822812421916c63170872ad47",
                    "logs": "1dcc4de8dec75d7aab85b567b6ccd41ad312451b948a7413f0a142fd40d49347",
                    "txbytes": "0xf901245d0a82c35094c305c901078781c232a2a521c2af7980f8385ee980b8c430c8d1da000000000000000000000000000000000000000000000000000000000000002000000000000000000000000000000000000000000000000000000000000000801a87b0584ce92f4593d161480614f2989035225609f08058ccfa3d0f940febe31a2f3c951f6dadcc7ee9007dff81504b0fcd6d7cf59996efdc33d92bf7f9f8f6ffffffffffffffffffffffffffffffffffffffffffffffffffffffffffffffff00000000000000000000000000000000000000000000000000000000000000001ca0411dbd8d8743319a32c89e32063573833d3f7074d3193d5d9b95cf4e16dd0cf8a03263f20ce9ff72fca27a21a1e1ec6bbd4de1bef5fe09837462a2869622c7fcf1",
                    "indexes": {
                        "data": 0,
                        "gas": 1,
                        "value": 0
                    }
                },
                {
                    "hash": "ec13e3a06aef1314fe474d732114f71652235ae82c209d9159d101e9c20835b4",
                    "logs": "1dcc4de8dec75d7aab85b567b6ccd41ad312451b948a7413f0a142fd40d49347",
                    "txbytes": "0xf901255d0a8301adb094c305c901078781c232a2a521c2af7980f8385ee980b8c430c8d1da000000000000000000000000000000000000000000000000000000000000002000000000000000000000000000000000000000000000000000000000000000801a87b0584ce92f4593d161480614f2989035225609f08058ccfa3d0f940febe31a2f3c951f6dadcc7ee9007dff81504b0fcd6d7cf59996efdc33d92bf7f9f8f6ffffffffffffffffffffffffffffffffffffffffffffffffffffffffffffffff00000000000000000000000000000000000000000000000000000000000000001ba0c3552e990e6e7ca1b992fe17f55186b228131a5232ab9124757d366a09cece98a0173c06f0951e555bd0c5a93edd430e74e6bf0b9e6e0aeecfe7ab24b552428859",
                    "indexes": {
                        "data": 0,
                        "gas": 2,
                        "value": 0
                    }
                },
                {
                    "hash": "ec13e3a06aef1314fe474d732114f71652235ae82c209d9159d101e9c20835b4",
                    "logs": "1dcc4de8dec75d7aab85b567b6ccd41ad312451b948a7413f0a142fd40d49347",
                    "txbytes": "0xf901255d0a83030d4094c305c901078781c232a2a521c2af7980f8385ee980b8c430c8d1da000000000000000000000000000000000000000000000000000000000000002000000000000000000000000000000000000000000000000000000000000000801a87b0584ce92f4593d161480614f2989035225609f08058ccfa3d0f940febe31a2f3c951f6dadcc7ee9007dff81504b0fcd6d7cf59996efdc33d92bf7f9f8f6ffffffffffffffffffffffffffffffffffffffffffffffffffffffffffffffff00000000000000000000000000000000000000000000000000000000000000001ca08dd481b663a4b37b38f0ae831e062ce3e9ff4d8f6d75c6d5cd5c3b824cf78f92a04c2206e575840ff2f733606addbff55910fc7283df2d2cdfae57ad89d6f65a8a",
                    "indexes": {
                        "data": 0,
                        "gas": 3,
                        "value": 0
                    }
                }
            ]
        }
    }
}