{
    "ecmul_1-3_5617_28000_128": {
        "_info": {
            "comment": "Puts the point (1, 3) and the factor 21888242871839275222246405745257275088548364400416034343698204186575808495617 into the ECMUL precompile, truncating or expanding the input data to 128 bytes. Gives the execution 28000 bytes",
            "filling-rpc-server": "evm version 1.10.16-unstable-0f893109-20220105",
            "filling-tool-version": "retesteth-0.2.2-testinfo+commit.01c6aac2.Linux.g++",
            "filledWith": "CoreGeth-1.12.9-unstable-4cf5b2b0837228e7d5eadba6a01ffb80e9288e21",
            "lllcversion": "Version: 0.5.14-develop.2021.11.27+commit.401d5358.Linux.g++",
            "source": "src/GeneralStateTestsFiller/stZeroKnowledge/ecmul_1-3_5617_28000_128Filler.json",
            "sourceHash": "edaeb5b97cf2be825fca7bbfd7b6697c7d13cbb712b723c0d4cef41144d52c73"
        },
        "env": {
            "currentCoinbase": "0x3535353535353535353535353535353535353535",
            "currentDifficulty": "0x20000",
            "currentGasLimit": "0x5f5e100",
            "currentNumber": "0x1",
            "currentTimestamp": "0x3e8",
            "previousHash": "0xc6745cf3cada515bbfb9573261c82547e0b8f9e3d5dd382e464704a84e47b5ad"
        },
        "pre": {
            "0x0000000000000000000000000000000000000000": {
                "code": "0x",
                "balance": "0x1",
                "nonce": "0x0"
            },
            "0x0000000000000000000000000000000000000001": {
                "code": "0x",
                "balance": "0x1",
                "nonce": "0x0"
            },
            "0x0000000000000000000000000000000000000002": {
                "code": "0x",
                "balance": "0x1",
                "nonce": "0x0"
            },
            "0x0000000000000000000000000000000000000003": {
                "code": "0x",
                "balance": "0x1",
                "nonce": "0x0"
            },
            "0x0000000000000000000000000000000000000004": {
                "code": "0x",
                "balance": "0x1",
                "nonce": "0x0"
            },
            "0x0000000000000000000000000000000000000005": {
                "code": "0x",
                "balance": "0x1",
                "nonce": "0x0"
            },
            "0x0000000000000000000000000000000000000006": {
                "code": "0x",
                "balance": "0x1",
                "nonce": "0x0"
            },
            "0x0000000000000000000000000000000000000007": {
                "code": "0x",
                "balance": "0x1",
                "nonce": "0x0"
            },
            "0x10a1c1cb95c92ec31d3f22c66eef1d9f3f258c6b": {
                "code": "0x",
                "balance": "0xde0b6b3a7640000",
                "nonce": "0x0"
            },
            "0x13cbb8d99c6c4e0f2728c7d72606e78a29c4e224": {
                "code": "0x",
                "balance": "0xde0b6b3a7640000",
                "nonce": "0x0"
            },
            "0x24143873e0e0815fdcbcffdbe09c979cbf9ad013": {
                "code": "0x",
                "balance": "0xde0b6b3a7640000",
                "nonce": "0x0"
            },
            "0x3535353535353535353535353535353535353535": {
                "code": "0x",
                "balance": "0x769645",
                "nonce": "0x0"
            },
            "0x598443f1880ef585b21f1d7585bd0577402861e5": {
                "code": "0x",
                "balance": "0xde0b6b3a7640000",
                "nonce": "0x0"
            },
            "0x77db2bebba79db42a978f896968f4afce746ea1f": {
                "code": "0x",
                "balance": "0xde0b6b3a7640000",
                "nonce": "0x0"
            },
            "0x7d577a597b2742b498cb5cf0c26cdcd726d39e6e": {
                "code": "0x",
                "balance": "0xde0b6b3a7640000",
                "nonce": "0x0"
            },
            "0x82a978b3f5962a5b0957d9ee9eef472ee55b42f1": {
                "code": "0x",
                "balance": "0xde0b6b3a6ed69bb",
                "nonce": "0xb6"
            },
            "0x90f0b1ebbba1c1936aff7aaf20a7878ff9e04b6c": {
                "code": "0x",
                "balance": "0xde0b6b3a7640000",
                "nonce": "0x0"
            },
            "0xc305c901078781c232a2a521c2af7980f8385ee9": {
                "code": "0x600035601c52740100000000000000000000000000000000000000006020526fffffffffffffffffffffffffffffffff6040527fffffffffffffffffffffffffffffffff000000000000000000000000000000016060527402540be3fffffffffffffffffffffffffdabf41c006080527ffffffffffffffffffffffffdabf41c00000000000000000000000002540be40060a0526330c8d1da600051141561012b5760c06004356004013511151558576004356004013560200160043560040161014037604061026061014051610160600060076305f5e0fff11558576040610240526102406060806102c0828460006004601bf15050506102c08051602082012090506000556102c060206020820352604081510160206001820306601f820103905060208203f350005b",
                "storage": {
                    "0x0000000000000000000000000000000000000000000000000000000000000000": "0xad3228b676f7d3cd4284a5443f17f1962b36e491b30a40b2405849e597ba5fb5"
                },
                "balance": "0x0",
                "nonce": "0x1"
            },
            "0xdceceaf3fc5c0a63d195d69b1a90011b7b19650d": {
                "code": "0x",
                "balance": "0xde0b6b3a7640000",
                "nonce": "0x0"
            },
            "0xe0fc04fa2d34a66b779fd5cee748268032a146c0": {
                "code": "0x",
                "balance": "0xde0b6b3a7640000",
                "nonce": "0x0"
            }
        },
        "transaction": {
            "gasPrice": "0xa",
            "nonce": "0xb6",
            "to": "0xc305c901078781c232a2a521c2af7980f8385ee9",
            "data": [
                "0x30c8d1da000000000000000000000000000000000000000000000000000000000000002000000000000000000000000000000000000000000000000000000000000000800000000000000000000000000000000000000000000000000000000000000001000000000000000000000000000000000000000000000000000000000000000330644e72e131a029b85045b68181585d2833e84879b9709143e1f593f00000010000000000000000000000000000000000000000000000000000000000000000"
            ],
            "gasLimit": [
                "0xcbf8",
                "0x15f90",
                "0x1adb0",
                "0x30d40"
            ],
            "value": [
                "0x00"
            ],
            "secretKey": "0x044852b2a670ade5407e78fb2863c51de9fcb96542a07186fe3aeda6bb8a116d",
            "sender": "0x82a978b3f5962a5b0957d9ee9eef472ee55b42f1"
        },
        "post": {
            "ETC_Magneto": [
                {
                    "hash": "3b7ba2143aa37c871bdc1aba63fcf92493f6e5fd2e34dd6ac4848a6d21cca1e9",
                    "logs": "1dcc4de8dec75d7aab85b567b6ccd41ad312451b948a7413f0a142fd40d49347",
                    "txbytes": "0xf9012581b60a82cbf894c305c901078781c232a2a521c2af7980f8385ee980b8c430c8d1da000000000000000000000000000000000000000000000000000000000000002000000000000000000000000000000000000000000000000000000000000000800000000000000000000000000000000000000000000000000000000000000001000000000000000000000000000000000000000000000000000000000000000330644e72e131a029b85045b68181585d2833e84879b9709143e1f593f000000100000000000000000000000000000000000000000000000000000000000000001ca0ab88c2a1aa7ddbf1c2951392d7ab99e08a6bb5e8fa188ae4444b419a78ed2040a03150d2449b910606b2a70756e96f7548327e0537e512ea68c6eb139a67a02be1",
                    "indexes": {
                        "data": 0,
                        "gas": 0,
                        "value": 0
                    }
                },
                {
                    "hash": "770a0fc4a804592620d0981913291426ca4b0bcf4da814957610b445945f99f1",
                    "logs": "1dcc4de8dec75d7aab85b567b6ccd41ad312451b948a7413f0a142fd40d49347",
                    "txbytes": "0xf9012681b60a83015f9094c305c901078781c232a2a521c2af7980f8385ee980b8c430c8d1da000000000000000000000000000000000000000000000000000000000000002000000000000000000000000000000000000000000000000000000000000000800000000000000000000000000000000000000000000000000000000000000001000000000000000000000000000000000000000000000000000000000000000330644e72e131a029b85045b68181585d2833e84879b9709143e1f593f000000100000000000000000000000000000000000000000000000000000000000000001ca045217d91f712b57520587dced8bd398f8e092efe93cc01634d03593872c8171da05f365c3f9131819df7417cfeb13bf452aaff5cdbaf0cb7ceba96dee2d36367b6",
                    "indexes": {
                        "data": 0,
                        "gas": 1,
                        "value": 0
                    }
                },
                {
                    "hash": "610df24712e1b3479f2b4dcc4dd8531989895d17962e38981f1d4fe34e17512f",
                    "logs": "1dcc4de8dec75d7aab85b567b6ccd41ad312451b948a7413f0a142fd40d49347",
                    "txbytes": "0xf9012681b60a8301adb094c305c901078781c232a2a521c2af7980f8385ee980b8c430c8d1da000000000000000000000000000000000000000000000000000000000000002000000000000000000000000000000000000000000000000000000000000000800000000000000000000000000000000000000000000000000000000000000001000000000000000000000000000000000000000000000000000000000000000330644e72e131a029b85045b68181585d2833e84879b9709143e1f593f000000100000000000000000000000000000000000000000000000000000000000000001ca0ad51a2f5065b5aa3b0ed69ecdb298d6e16f42210dd86906525af52a1fb5609fea03e88ba96bf8583ea248f92c467390cb7ce722ee08d76b0471dd93172a94a2bb3",
                    "indexes": {
                        "data": 0,
                        "gas": 2,
                        "value": 0
                    }
                },
                {
                    "hash": "658eb6e12ccc3756fcd532da52464a414bd6f5190f51f2fc8312d16911395634",
                    "logs": "1dcc4de8dec75d7aab85b567b6ccd41ad312451b948a7413f0a142fd40d49347",
                    "txbytes": "0xf9012681b60a83030d4094c305c901078781c232a2a521c2af7980f8385ee980b8c430c8d1da000000000000000000000000000000000000000000000000000000000000002000000000000000000000000000000000000000000000000000000000000000800000000000000000000000000000000000000000000000000000000000000001000000000000000000000000000000000000000000000000000000000000000330644e72e131a029b85045b68181585d2833e84879b9709143e1f593f000000100000000000000000000000000000000000000000000000000000000000000001ba0212b84b23ced5408eb03e6ca46149d765893478ac443220eb75ea033ac5fc7d2a02caffa5386831fe5a41fb37019cef194b2bdf7a1f70a7871a6dcb9cda5feb8ff",
                    "indexes": {
                        "data": 0,
                        "gas": 3,
                        "value": 0
                    }
                }
            ],
            "ETC_Mystique": [
                {
                    "hash": "3b7ba2143aa37c871bdc1aba63fcf92493f6e5fd2e34dd6ac4848a6d21cca1e9",
                    "logs": "1dcc4de8dec75d7aab85b567b6ccd41ad312451b948a7413f0a142fd40d49347",
                    "txbytes": "0xf9012581b60a82cbf894c305c901078781c232a2a521c2af7980f8385ee980b8c430c8d1da000000000000000000000000000000000000000000000000000000000000002000000000000000000000000000000000000000000000000000000000000000800000000000000000000000000000000000000000000000000000000000000001000000000000000000000000000000000000000000000000000000000000000330644e72e131a029b85045b68181585d2833e84879b9709143e1f593f000000100000000000000000000000000000000000000000000000000000000000000001ca0ab88c2a1aa7ddbf1c2951392d7ab99e08a6bb5e8fa188ae4444b419a78ed2040a03150d2449b910606b2a70756e96f7548327e0537e512ea68c6eb139a67a02be1",
                    "indexes": {
                        "data": 0,
                        "gas": 0,
                        "value": 0
                    }
                },
                {
                    "hash": "770a0fc4a804592620d0981913291426ca4b0bcf4da814957610b445945f99f1",
                    "logs": "1dcc4de8dec75d7aab85b567b6ccd41ad312451b948a7413f0a142fd40d49347",
                    "txbytes": "0xf9012681b60a83015f9094c305c901078781c232a2a521c2af7980f8385ee980b8c430c8d1da000000000000000000000000000000000000000000000000000000000000002000000000000000000000000000000000000000000000000000000000000000800000000000000000000000000000000000000000000000000000000000000001000000000000000000000000000000000000000000000000000000000000000330644e72e131a029b85045b68181585d2833e84879b9709143e1f593f000000100000000000000000000000000000000000000000000000000000000000000001ca045217d91f712b57520587dced8bd398f8e092efe93cc01634d03593872c8171da05f365c3f9131819df7417cfeb13bf452aaff5cdbaf0cb7ceba96dee2d36367b6",
                    "indexes": {
                        "data": 0,
                        "gas": 1,
                        "value": 0
                    }
                },
                {
                    "hash": "610df24712e1b3479f2b4dcc4dd8531989895d17962e38981f1d4fe34e17512f",
                    "logs": "1dcc4de8dec75d7aab85b567b6ccd41ad312451b948a7413f0a142fd40d49347",
                    "txbytes": "0xf9012681b60a8301adb094c305c901078781c232a2a521c2af7980f8385ee980b8c430c8d1da000000000000000000000000000000000000000000000000000000000000002000000000000000000000000000000000000000000000000000000000000000800000000000000000000000000000000000000000000000000000000000000001000000000000000000000000000000000000000000000000000000000000000330644e72e131a029b85045b68181585d2833e84879b9709143e1f593f000000100000000000000000000000000000000000000000000000000000000000000001ca0ad51a2f5065b5aa3b0ed69ecdb298d6e16f42210dd86906525af52a1fb5609fea03e88ba96bf8583ea248f92c467390cb7ce722ee08d76b0471dd93172a94a2bb3",
                    "indexes": {
                        "data": 0,
                        "gas": 2,
                        "value": 0
                    }
                },
                {
                    "hash": "658eb6e12ccc3756fcd532da52464a414bd6f5190f51f2fc8312d16911395634",
                    "logs": "1dcc4de8dec75d7aab85b567b6ccd41ad312451b948a7413f0a142fd40d49347",
                    "txbytes": "0xf9012681b60a83030d4094c305c901078781c232a2a521c2af7980f8385ee980b8c430c8d1da000000000000000000000000000000000000000000000000000000000000002000000000000000000000000000000000000000000000000000000000000000800000000000000000000000000000000000000000000000000000000000000001000000000000000000000000000000000000000000000000000000000000000330644e72e131a029b85045b68181585d2833e84879b9709143e1f593f000000100000000000000000000000000000000000000000000000000000000000000001ba0212b84b23ced5408eb03e6ca46149d765893478ac443220eb75ea033ac5fc7d2a02caffa5386831fe5a41fb37019cef194b2bdf7a1f70a7871a6dcb9cda5feb8ff",
                    "indexes": {
                        "data": 0,
                        "gas": 3,
                        "value": 0
                    }
                }
            ],
            "ETC_Phoenix": [
                {
                    "hash": "3b7ba2143aa37c871bdc1aba63fcf92493f6e5fd2e34dd6ac4848a6d21cca1e9",
                    "logs": "1dcc4de8dec75d7aab85b567b6ccd41ad312451b948a7413f0a142fd40d49347",
                    "txbytes": "0xf9012581b60a82cbf894c305c901078781c232a2a521c2af7980f8385ee980b8c430c8d1da000000000000000000000000000000000000000000000000000000000000002000000000000000000000000000000000000000000000000000000000000000800000000000000000000000000000000000000000000000000000000000000001000000000000000000000000000000000000000000000000000000000000000330644e72e131a029b85045b68181585d2833e84879b9709143e1f593f000000100000000000000000000000000000000000000000000000000000000000000001ca0ab88c2a1aa7ddbf1c2951392d7ab99e08a6bb5e8fa188ae4444b419a78ed2040a03150d2449b910606b2a70756e96f7548327e0537e512ea68c6eb139a67a02be1",
                    "indexes": {
                        "data": 0,
                        "gas": 0,
                        "value": 0
                    }
                },
                {
                    "hash": "770a0fc4a804592620d0981913291426ca4b0bcf4da814957610b445945f99f1",
                    "logs": "1dcc4de8dec75d7aab85b567b6ccd41ad312451b948a7413f0a142fd40d49347",
                    "txbytes": "0xf9012681b60a83015f9094c305c901078781c232a2a521c2af7980f8385ee980b8c430c8d1da000000000000000000000000000000000000000000000000000000000000002000000000000000000000000000000000000000000000000000000000000000800000000000000000000000000000000000000000000000000000000000000001000000000000000000000000000000000000000000000000000000000000000330644e72e131a029b85045b68181585d2833e84879b9709143e1f593f000000100000000000000000000000000000000000000000000000000000000000000001ca045217d91f712b57520587dced8bd398f8e092efe93cc01634d03593872c8171da05f365c3f9131819df7417cfeb13bf452aaff5cdbaf0cb7ceba96dee2d36367b6",
                    "indexes": {
                        "data": 0,
                        "gas": 1,
                        "value": 0
                    }
                },
                {
                    "hash": "610df24712e1b3479f2b4dcc4dd8531989895d17962e38981f1d4fe34e17512f",
                    "logs": "1dcc4de8dec75d7aab85b567b6ccd41ad312451b948a7413f0a142fd40d49347",
                    "txbytes": "0xf9012681b60a8301adb094c305c901078781c232a2a521c2af7980f8385ee980b8c430c8d1da000000000000000000000000000000000000000000000000000000000000002000000000000000000000000000000000000000000000000000000000000000800000000000000000000000000000000000000000000000000000000000000001000000000000000000000000000000000000000000000000000000000000000330644e72e131a029b85045b68181585d2833e84879b9709143e1f593f000000100000000000000000000000000000000000000000000000000000000000000001ca0ad51a2f5065b5aa3b0ed69ecdb298d6e16f42210dd86906525af52a1fb5609fea03e88ba96bf8583ea248f92c467390cb7ce722ee08d76b0471dd93172a94a2bb3",
                    "indexes": {
                        "data": 0,
                        "gas": 2,
                        "value": 0
                    }
                },
                {
                    "hash": "658eb6e12ccc3756fcd532da52464a414bd6f5190f51f2fc8312d16911395634",
                    "logs": "1dcc4de8dec75d7aab85b567b6ccd41ad312451b948a7413f0a142fd40d49347",
                    "txbytes": "0xf9012681b60a83030d4094c305c901078781c232a2a521c2af7980f8385ee980b8c430c8d1da000000000000000000000000000000000000000000000000000000000000002000000000000000000000000000000000000000000000000000000000000000800000000000000000000000000000000000000000000000000000000000000001000000000000000000000000000000000000000000000000000000000000000330644e72e131a029b85045b68181585d2833e84879b9709143e1f593f000000100000000000000000000000000000000000000000000000000000000000000001ba0212b84b23ced5408eb03e6ca46149d765893478ac443220eb75ea033ac5fc7d2a02caffa5386831fe5a41fb37019cef194b2bdf7a1f70a7871a6dcb9cda5feb8ff",
                    "indexes": {
                        "data": 0,
                        "gas": 3,
                        "value": 0
                    }
                }
            ]
        }
    }
}