{
    "ecmul_7827-6598_9935_28000_96": {
        "_info": {
            "comment": "Puts the point (11999875504842010600789954262886096740416429265635183817701593963271973497827, 11843594000332171325303933275547366297934113019079887694534126289021216356598) and the factor 115792089237316195423570985008687907853269984665640564039457584007913129639935 into the ECMUL precompile, truncating or expanding the input data to 96 bytes. Gives the execution 28000 bytes",
            "filling-rpc-server": "evm version 1.10.16-unstable-0f893109-20220105",
            "filling-tool-version": "retesteth-0.2.2-testinfo+commit.01c6aac2.Linux.g++",
            "filledWith": "CoreGeth-1.12.9-unstable-f4059ddd82d975bdc54fa648e5422a80172161cb",
            "lllcversion": "Version: 0.5.14-develop.2021.11.27+commit.401d5358.Linux.g++",
            "source": "src/GeneralStateTestsFiller/stZeroKnowledge/ecmul_7827-6598_9935_28000_96Filler.json",
            "sourceHash": "dc35070b05f7a4ebd4102aa8031fb7877b22a0b50a30fd0aa734f8197aafdded"
        },
        "env": {
            "currentCoinbase": "3535353535353535353535353535353535353535",
            "currentDifficulty": "0x20000",
            "currentRandom": null,
            "currentGasLimit": "0x5f5e100",
            "currentNumber": "0x1",
            "currentTimestamp": "0x3e8",
            "currentBaseFee": "0xa"
        },
        "pre": {
            "0x0000000000000000000000000000000000000000": {
                "balance": "0x1"
            },
            "0x0000000000000000000000000000000000000001": {
                "balance": "0x1"
            },
            "0x0000000000000000000000000000000000000002": {
                "balance": "0x1"
            },
            "0x0000000000000000000000000000000000000003": {
                "balance": "0x1"
            },
            "0x0000000000000000000000000000000000000004": {
                "balance": "0x1"
            },
            "0x0000000000000000000000000000000000000005": {
                "balance": "0x1"
            },
            "0x0000000000000000000000000000000000000006": {
                "balance": "0x1"
            },
            "0x0000000000000000000000000000000000000007": {
                "balance": "0x1"
            },
            "0x10a1c1cb95c92ec31d3f22c66eef1d9f3f258c6b": {
                "balance": "0xde0b6b3a7640000"
            },
            "0x13cbb8d99c6c4e0f2728c7d72606e78a29c4e224": {
                "balance": "0xde0b6b3a7640000"
            },
            "0x24143873e0e0815fdcbcffdbe09c979cbf9ad013": {
                "balance": "0xde0b6b3a7640000"
            },
            "0x3535353535353535353535353535353535353535": {
                "balance": "0x7afe97"
            },
            "0x598443f1880ef585b21f1d7585bd0577402861e5": {
                "balance": "0xde0b6b3a7640000"
            },
            "0x77db2bebba79db42a978f896968f4afce746ea1f": {
                "balance": "0xde0b6b3a7640000"
            },
            "0x7d577a597b2742b498cb5cf0c26cdcd726d39e6e": {
                "balance": "0xde0b6b3a7640000"
            },
            "0x82a978b3f5962a5b0957d9ee9eef472ee55b42f1": {
                "balance": "0xde0b6b3a6e90169",
                "nonce": "0xbd"
            },
            "0x90f0b1ebbba1c1936aff7aaf20a7878ff9e04b6c": {
                "balance": "0xde0b6b3a7640000"
            },
            "0xc305c901078781c232a2a521c2af7980f8385ee9": {
                "code": "0x600035601c52740100000000000000000000000000000000000000006020526fffffffffffffffffffffffffffffffff6040527fffffffffffffffffffffffffffffffff000000000000000000000000000000016060527402540be3fffffffffffffffffffffffffdabf41c006080527ffffffffffffffffffffffffdabf41c00000000000000000000000002540be40060a0526330c8d1da600051141561012b5760c06004356004013511151558576004356004013560200160043560040161014037604061026061014051610160600060076305f5e0fff11558576040610240526102406060806102c0828460006004601bf15050506102c08051602082012090506000556102c060206020820352604081510160206001820306601f820103905060208203f350005b",
                "storage": {
                    "0x0000000000000000000000000000000000000000000000000000000000000000": "0xa34b6e4f9c282ff62c1e6f53fd92ad8efd8346d9866333a95ab4506a8158afc7"
                },
                "balance": "0x0",
                "nonce": "0x1"
            },
            "0xdceceaf3fc5c0a63d195d69b1a90011b7b19650d": {
                "balance": "0xde0b6b3a7640000"
            },
            "0xe0fc04fa2d34a66b779fd5cee748268032a146c0": {
                "balance": "0xde0b6b3a7640000"
            }
        },
        "transaction": {
            "gasPrice": "0xa",
            "maxFeePerGas": null,
            "maxPriorityFeePerGas": null,
            "nonce": "0xbd",
            "to": "0xc305c901078781c232a2a521c2af7980f8385ee9",
            "data": [
                "0x30c8d1da000000000000000000000000000000000000000000000000000000000000002000000000000000000000000000000000000000000000000000000000000000601a87b0584ce92f4593d161480614f2989035225609f08058ccfa3d0f940febe31a2f3c951f6dadcc7ee9007dff81504b0fcd6d7cf59996efdc33d92bf7f9f8f6ffffffffffffffffffffffffffffffffffffffffffffffffffffffffffffffff"
            ],
            "gasLimit": [
                "0x80e8",
                "0x15f90",
                "0x1adb0",
                "0x30d40"
            ],
            "value": [
                "0x00"
            ],
            "secretKey": "0x044852b2a670ade5407e78fb2863c51de9fcb96542a07186fe3aeda6bb8a116d"
        },
        "out": "0x",
        "post": {
            "ETC_Magneto": [
                {
                    "hash": "d3d1cda17495fc445d3c2a3372d05881e6cb84e1a9efcc59cbbaeb7bf30c9280",
                    "logs": "1dcc4de8dec75d7aab85b567b6ccd41ad312451b948a7413f0a142fd40d49347",
                    "txbytes": "0xf9010581bd0a8280e894c305c901078781c232a2a521c2af7980f8385ee980b8a430c8d1da000000000000000000000000000000000000000000000000000000000000002000000000000000000000000000000000000000000000000000000000000000601a87b0584ce92f4593d161480614f2989035225609f08058ccfa3d0f940febe31a2f3c951f6dadcc7ee9007dff81504b0fcd6d7cf59996efdc33d92bf7f9f8f6ffffffffffffffffffffffffffffffffffffffffffffffffffffffffffffffff1ca041ae7b573809b39209414255f1e59dd3c40c711597f2c77d046625216f723f15a01a5df9c8be5d63f4af40fb540b378479bba8a32ca8455263a687bf4221466bc2",
                    "indexes": {
                        "data": 0,
                        "gas": 0,
                        "value": 0
                    }
                },
                {
                    "hash": "a87d90b819fdc188ec688937d78ac990361a5b0d82293e78a0b0a114a6e9f76b",
                    "logs": "1dcc4de8dec75d7aab85b567b6ccd41ad312451b948a7413f0a142fd40d49347",
                    "txbytes": "0xf9010681bd0a83015f9094c305c901078781c232a2a521c2af7980f8385ee980b8a430c8d1da000000000000000000000000000000000000000000000000000000000000002000000000000000000000000000000000000000000000000000000000000000601a87b0584ce92f4593d161480614f2989035225609f08058ccfa3d0f940febe31a2f3c951f6dadcc7ee9007dff81504b0fcd6d7cf59996efdc33d92bf7f9f8f6ffffffffffffffffffffffffffffffffffffffffffffffffffffffffffffffff1ca093279f6359a3591fb69d384e4b12f4df6118cd8db2ebf1288cb7599e55d93a0fa025db8cfe915981868b40cb174a85b852a79a4facf9c07f00b0d4d473d0c5b4ad",
                    "indexes": {
                        "data": 0,
                        "gas": 1,
                        "value": 0
                    }
                },
                {
                    "hash": "a87d90b819fdc188ec688937d78ac990361a5b0d82293e78a0b0a114a6e9f76b",
                    "logs": "1dcc4de8dec75d7aab85b567b6ccd41ad312451b948a7413f0a142fd40d49347",
                    "txbytes": "0xf9010681bd0a8301adb094c305c901078781c232a2a521c2af7980f8385ee980b8a430c8d1da000000000000000000000000000000000000000000000000000000000000002000000000000000000000000000000000000000000000000000000000000000601a87b0584ce92f4593d161480614f2989035225609f08058ccfa3d0f940febe31a2f3c951f6dadcc7ee9007dff81504b0fcd6d7cf59996efdc33d92bf7f9f8f6ffffffffffffffffffffffffffffffffffffffffffffffffffffffffffffffff1ca0e0a46600927c20d37b627965bf1d815b7b845895402e0cb5d5a3359b1b338e5aa00e112d9d5dacd7d05b7ab54cf01c74083248ff3d7100a91ed67ce867cc352541",
                    "indexes": {
                        "data": 0,
                        "gas": 2,
                        "value": 0
                    }
                },
                {
                    "hash": "a87d90b819fdc188ec688937d78ac990361a5b0d82293e78a0b0a114a6e9f76b",
                    "logs": "1dcc4de8dec75d7aab85b567b6ccd41ad312451b948a7413f0a142fd40d49347",
                    "txbytes": "0xf9010681bd0a83030d4094c305c901078781c232a2a521c2af7980f8385ee980b8a430c8d1da000000000000000000000000000000000000000000000000000000000000002000000000000000000000000000000000000000000000000000000000000000601a87b0584ce92f4593d161480614f2989035225609f08058ccfa3d0f940febe31a2f3c951f6dadcc7ee9007dff81504b0fcd6d7cf59996efdc33d92bf7f9f8f6ffffffffffffffffffffffffffffffffffffffffffffffffffffffffffffffff1ca03c21613c71aac753e6b28624fe183e3eda29ec07817bd8e9432a7a40978cec74a00a644723496d163fda42050055a0bb885a1fb2b28e828cc6e74af0f2b148a6ac",
                    "indexes": {
                        "data": 0,
                        "gas": 3,
                        "value": 0
                    }
                }
            ],
            "ETC_Mystique": [
                {
                    "hash": "d3d1cda17495fc445d3c2a3372d05881e6cb84e1a9efcc59cbbaeb7bf30c9280",
                    "logs": "1dcc4de8dec75d7aab85b567b6ccd41ad312451b948a7413f0a142fd40d49347",
                    "txbytes": "0xf9010581bd0a8280e894c305c901078781c232a2a521c2af7980f8385ee980b8a430c8d1da000000000000000000000000000000000000000000000000000000000000002000000000000000000000000000000000000000000000000000000000000000601a87b0584ce92f4593d161480614f2989035225609f08058ccfa3d0f940febe31a2f3c951f6dadcc7ee9007dff81504b0fcd6d7cf59996efdc33d92bf7f9f8f6ffffffffffffffffffffffffffffffffffffffffffffffffffffffffffffffff1ca041ae7b573809b39209414255f1e59dd3c40c711597f2c77d046625216f723f15a01a5df9c8be5d63f4af40fb540b378479bba8a32ca8455263a687bf4221466bc2",
                    "indexes": {
                        "data": 0,
                        "gas": 0,
                        "value": 0
                    }
                },
                {
                    "hash": "a87d90b819fdc188ec688937d78ac990361a5b0d82293e78a0b0a114a6e9f76b",
                    "logs": "1dcc4de8dec75d7aab85b567b6ccd41ad312451b948a7413f0a142fd40d49347",
                    "txbytes": "0xf9010681bd0a83015f9094c305c901078781c232a2a521c2af7980f8385ee980b8a430c8d1da000000000000000000000000000000000000000000000000000000000000002000000000000000000000000000000000000000000000000000000000000000601a87b0584ce92f4593d161480614f2989035225609f08058ccfa3d0f940febe31a2f3c951f6dadcc7ee9007dff81504b0fcd6d7cf59996efdc33d92bf7f9f8f6ffffffffffffffffffffffffffffffffffffffffffffffffffffffffffffffff1ca093279f6359a3591fb69d384e4b12f4df6118cd8db2ebf1288cb7599e55d93a0fa025db8cfe915981868b40cb174a85b852a79a4facf9c07f00b0d4d473d0c5b4ad",
                    "indexes": {
                        "data": 0,
                        "gas": 1,
                        "value": 0
                    }
                },
                {
                    "hash": "a87d90b819fdc188ec688937d78ac990361a5b0d82293e78a0b0a114a6e9f76b",
                    "logs": "1dcc4de8dec75d7aab85b567b6ccd41ad312451b948a7413f0a142fd40d49347",
                    "txbytes": "0xf9010681bd0a8301adb094c305c901078781c232a2a521c2af7980f8385ee980b8a430c8d1da000000000000000000000000000000000000000000000000000000000000002000000000000000000000000000000000000000000000000000000000000000601a87b0584ce92f4593d161480614f2989035225609f08058ccfa3d0f940febe31a2f3c951f6dadcc7ee9007dff81504b0fcd6d7cf59996efdc33d92bf7f9f8f6ffffffffffffffffffffffffffffffffffffffffffffffffffffffffffffffff1ca0e0a46600927c20d37b627965bf1d815b7b845895402e0cb5d5a3359b1b338e5aa00e112d9d5dacd7d05b7ab54cf01c74083248ff3d7100a91ed67ce867cc352541",
                    "indexes": {
                        "data": 0,
                        "gas": 2,
                        "value": 0
                    }
                },
                {
                    "hash": "a87d90b819fdc188ec688937d78ac990361a5b0d82293e78a0b0a114a6e9f76b",
                    "logs": "1dcc4de8dec75d7aab85b567b6ccd41ad312451b948a7413f0a142fd40d49347",
                    "txbytes": "0xf9010681bd0a83030d4094c305c901078781c232a2a521c2af7980f8385ee980b8a430c8d1da000000000000000000000000000000000000000000000000000000000000002000000000000000000000000000000000000000000000000000000000000000601a87b0584ce92f4593d161480614f2989035225609f08058ccfa3d0f940febe31a2f3c951f6dadcc7ee9007dff81504b0fcd6d7cf59996efdc33d92bf7f9f8f6ffffffffffffffffffffffffffffffffffffffffffffffffffffffffffffffff1ca03c21613c71aac753e6b28624fe183e3eda29ec07817bd8e9432a7a40978cec74a00a644723496d163fda42050055a0bb885a1fb2b28e828cc6e74af0f2b148a6ac",
                    "indexes": {
                        "data": 0,
                        "gas": 3,
                        "value": 0
                    }
                }
            ],
            "ETC_Phoenix": [
                {
                    "hash": "d3d1cda17495fc445d3c2a3372d05881e6cb84e1a9efcc59cbbaeb7bf30c9280",
                    "logs": "1dcc4de8dec75d7aab85b567b6ccd41ad312451b948a7413f0a142fd40d49347",
                    "txbytes": "0xf9010581bd0a8280e894c305c901078781c232a2a521c2af7980f8385ee980b8a430c8d1da000000000000000000000000000000000000000000000000000000000000002000000000000000000000000000000000000000000000000000000000000000601a87b0584ce92f4593d161480614f2989035225609f08058ccfa3d0f940febe31a2f3c951f6dadcc7ee9007dff81504b0fcd6d7cf59996efdc33d92bf7f9f8f6ffffffffffffffffffffffffffffffffffffffffffffffffffffffffffffffff1ca041ae7b573809b39209414255f1e59dd3c40c711597f2c77d046625216f723f15a01a5df9c8be5d63f4af40fb540b378479bba8a32ca8455263a687bf4221466bc2",
                    "indexes": {
                        "data": 0,
                        "gas": 0,
                        "value": 0
                    }
                },
                {
                    "hash": "b6020ae30af0b74439a6f62d5a758aa2a64f9a670ab28be51bb674c00475a4d2",
                    "logs": "1dcc4de8dec75d7aab85b567b6ccd41ad312451b948a7413f0a142fd40d49347",
                    "txbytes": "0xf9010681bd0a83015f9094c305c901078781c232a2a521c2af7980f8385ee980b8a430c8d1da000000000000000000000000000000000000000000000000000000000000002000000000000000000000000000000000000000000000000000000000000000601a87b0584ce92f4593d161480614f2989035225609f08058ccfa3d0f940febe31a2f3c951f6dadcc7ee9007dff81504b0fcd6d7cf59996efdc33d92bf7f9f8f6ffffffffffffffffffffffffffffffffffffffffffffffffffffffffffffffff1ca093279f6359a3591fb69d384e4b12f4df6118cd8db2ebf1288cb7599e55d93a0fa025db8cfe915981868b40cb174a85b852a79a4facf9c07f00b0d4d473d0c5b4ad",
                    "indexes": {
                        "data": 0,
                        "gas": 1,
                        "value": 0
                    }
                },
                {
                    "hash": "b6020ae30af0b74439a6f62d5a758aa2a64f9a670ab28be51bb674c00475a4d2",
                    "logs": "1dcc4de8dec75d7aab85b567b6ccd41ad312451b948a7413f0a142fd40d49347",
                    "txbytes": "0xf9010681bd0a8301adb094c305c901078781c232a2a521c2af7980f8385ee980b8a430c8d1da000000000000000000000000000000000000000000000000000000000000002000000000000000000000000000000000000000000000000000000000000000601a87b0584ce92f4593d161480614f2989035225609f08058ccfa3d0f940febe31a2f3c951f6dadcc7ee9007dff81504b0fcd6d7cf59996efdc33d92bf7f9f8f6ffffffffffffffffffffffffffffffffffffffffffffffffffffffffffffffff1ca0e0a46600927c20d37b627965bf1d815b7b845895402e0cb5d5a3359b1b338e5aa00e112d9d5dacd7d05b7ab54cf01c74083248ff3d7100a91ed67ce867cc352541",
                    "indexes": {
                        "data": 0,
                        "gas": 2,
                        "value": 0
                    }
                },
                {
                    "hash": "b6020ae30af0b74439a6f62d5a758aa2a64f9a670ab28be51bb674c00475a4d2",
                    "logs": "1dcc4de8dec75d7aab85b567b6ccd41ad312451b948a7413f0a142fd40d49347",
                    "txbytes": "0xf9010681bd0a83030d4094c305c901078781c232a2a521c2af7980f8385ee980b8a430c8d1da000000000000000000000000000000000000000000000000000000000000002000000000000000000000000000000000000000000000000000000000000000601a87b0584ce92f4593d161480614f2989035225609f08058ccfa3d0f940febe31a2f3c951f6dadcc7ee9007dff81504b0fcd6d7cf59996efdc33d92bf7f9f8f6ffffffffffffffffffffffffffffffffffffffffffffffffffffffffffffffff1ca03c21613c71aac753e6b28624fe183e3eda29ec07817bd8e9432a7a40978cec74a00a644723496d163fda42050055a0bb885a1fb2b28e828cc6e74af0f2b148a6ac",
                    "indexes": {
                        "data": 0,
                        "gas": 3,
                        "value": 0
                    }
                }
            ]
        }
    }
}