{
    "ecmul_1-3_1_21000_128": {
        "_info": {
            "comment": "Puts the point (1, 3) and the factor 1 into the ECMUL precompile, truncating or expanding the input data to 128 bytes. Gives the execution 21000 bytes",
            "filling-rpc-server": "evm version 1.10.16-unstable-0f893109-20220105",
            "filling-tool-version": "retesteth-0.2.2-testinfo+commit.01c6aac2.Linux.g++",
            "filledWith": "CoreGeth-1.12.9-unstable-f4059ddd82d975bdc54fa648e5422a80172161cb",
            "lllcversion": "Version: 0.5.14-develop.2021.11.27+commit.401d5358.Linux.g++",
            "source": "src/GeneralStateTestsFiller/stZeroKnowledge/ecmul_1-3_1_21000_128Filler.json",
            "sourceHash": "5571b3783a4aee1196ceea83a211a57428656c2570083d948d31f133cb1f7e9e"
        },
        "env": {
            "currentCoinbase": "3535353535353535353535353535353535353535",
            "currentDifficulty": "0x20000",
            "currentRandom": null,
            "currentGasLimit": "0x5f5e100",
            "currentNumber": "0x1",
            "currentTimestamp": "0x3e8",
            "currentBaseFee": "0xa"
        },
        "pre": {
            "0x0000000000000000000000000000000000000000": {
                "balance": "0x1"
            },
            "0x0000000000000000000000000000000000000001": {
                "balance": "0x1"
            },
            "0x0000000000000000000000000000000000000002": {
                "balance": "0x1"
            },
            "0x0000000000000000000000000000000000000003": {
                "balance": "0x1"
            },
            "0x0000000000000000000000000000000000000004": {
                "balance": "0x1"
            },
            "0x0000000000000000000000000000000000000005": {
                "balance": "0x1"
            },
            "0x0000000000000000000000000000000000000006": {
                "balance": "0x1"
            },
            "0x0000000000000000000000000000000000000007": {
                "balance": "0x1"
            },
            "0x10a1c1cb95c92ec31d3f22c66eef1d9f3f258c6b": {
                "balance": "0xde0b6b3a7640000"
            },
            "0x13cbb8d99c6c4e0f2728c7d72606e78a29c4e224": {
                "balance": "0xde0b6b3a7640000"
            },
            "0x24143873e0e0815fdcbcffdbe09c979cbf9ad013": {
                "balance": "0xde0b6b3a7640000"
            },
            "0x3535353535353535353535353535353535353535": {
                "balance": "0x15738e"
            },
            "0x598443f1880ef585b21f1d7585bd0577402861e5": {
                "balance": "0xde0b6b3a7640000"
            },
            "0x77db2bebba79db42a978f896968f4afce746ea1f": {
                "balance": "0xde0b6b3a7640000"
            },
            "0x7d577a597b2742b498cb5cf0c26cdcd726d39e6e": {
                "balance": "0xde0b6b3a7640000"
            },
            "0x82a978b3f5962a5b0957d9ee9eef472ee55b42f1": {
                "balance": "0xde0b6b3a74e8c72",
                "nonce": "0x1e"
            },
            "0x90f0b1ebbba1c1936aff7aaf20a7878ff9e04b6c": {
                "balance": "0xde0b6b3a7640000"
            },
            "0xc305c901078781c232a2a521c2af7980f8385ee9": {
                "code": "0x600035601c52740100000000000000000000000000000000000000006020526fffffffffffffffffffffffffffffffff6040527fffffffffffffffffffffffffffffffff000000000000000000000000000000016060527402540be3fffffffffffffffffffffffffdabf41c006080527ffffffffffffffffffffffffdabf41c00000000000000000000000002540be40060a0526330c8d1da600051141561012b5760c06004356004013511151558576004356004013560200160043560040161014037604061026061014051610160600060076305f5e0fff11558576040610240526102406060806102c0828460006004601bf15050506102c08051602082012090506000556102c060206020820352604081510160206001820306601f820103905060208203f350005b",
                "balance": "0x0",
                "nonce": "0x1"
            },
            "0xdceceaf3fc5c0a63d195d69b1a90011b7b19650d": {
                "balance": "0xde0b6b3a7640000"
            },
            "0xe0fc04fa2d34a66b779fd5cee748268032a146c0": {
                "balance": "0xde0b6b3a7640000"
            }
        },
        "transaction": {
            "gasPrice": "0xa",
            "maxFeePerGas": null,
            "maxPriorityFeePerGas": null,
            "nonce": "0x1e",
            "to": "0xc305c901078781c232a2a521c2af7980f8385ee9",
            "data": [
                "0x30c8d1da000000000000000000000000000000000000000000000000000000000000002000000000000000000000000000000000000000000000000000000000000000800000000000000000000000000000000000000000000000000000000000000001000000000000000000000000000000000000000000000000000000000000000300000000000000000000000000000000000000000000000000000000000000010000000000000000000000000000000000000000000000000000000000000000"
            ],
            "gasLimit": [
                "0xa960",
                "0x15f90",
                "0x1adb0",
                "0x30d40"
            ],
            "value": [
                "0x00"
            ],
            "secretKey": "0x044852b2a670ade5407e78fb2863c51de9fcb96542a07186fe3aeda6bb8a116d"
        },
        "out": "0x",
        "post": {
            "ETC_Magneto": [
                {
                    "hash": "64623a3a8c11f4fe9b929f753f6f45d1ad6cf42a92a37be6fa08cb5e82902b63",
                    "logs": "1dcc4de8dec75d7aab85b567b6ccd41ad312451b948a7413f0a142fd40d49347",
                    "txbytes": "0xf901241e0a82a96094c305c901078781c232a2a521c2af7980f8385ee980b8c430c8d1da0000000000000000000000000000000000000000000000000000000000000020000000000000000000000000000000000000000000000000000000000000008000000000000000000000000000000000000000000000000000000000000000010000000000000000000000000000000000000000000000000000000000000003000000000000000000000000000000000000000000000000000000000000000100000000000000000000000000000000000000000000000000000000000000001ca00aa74dc630ee51f35250ffbb7b7ac6511f485b7f789aa91a978c42bc2470708ea07db5183df874f6fca7c9977c8ebe6345b97e8c69c556b03dbd1973b75031c667",
                    "indexes": {
                        "data": 0,
                        "gas": 0,
                        "value": 0
                    }
                },
                {
                    "hash": "878b7d8c103ad467af6653976be80c06d338b80127112eef3615a2b9558f1743",
                    "logs": "1dcc4de8dec75d7aab85b567b6ccd41ad312451b948a7413f0a142fd40d49347",
                    "txbytes": "0xf901251e0a83015f9094c305c901078781c232a2a521c2af7980f8385ee980b8c430c8d1da0000000000000000000000000000000000000000000000000000000000000020000000000000000000000000000000000000000000000000000000000000008000000000000000000000000000000000000000000000000000000000000000010000000000000000000000000000000000000000000000000000000000000003000000000000000000000000000000000000000000000000000000000000000100000000000000000000000000000000000000000000000000000000000000001ba053f3d17c747f62b240e316e2db4c15f609a5b4ea5952555e805aa98738fc8bc2a001ae94c20fc21b4f1069d1216c47287c3959e58a8ab089e626fb5a1acc238aed",
                    "indexes": {
                        "data": 0,
                        "gas": 1,
                        "value": 0
                    }
                },
                {
                    "hash": "455a985125c042a173cc4f3046e5f6214db91f165f70d1f70f0a6a0abf0c2375",
                    "logs": "1dcc4de8dec75d7aab85b567b6ccd41ad312451b948a7413f0a142fd40d49347",
                    "txbytes": "0xf901251e0a8301adb094c305c901078781c232a2a521c2af7980f8385ee980b8c430c8d1da0000000000000000000000000000000000000000000000000000000000000020000000000000000000000000000000000000000000000000000000000000008000000000000000000000000000000000000000000000000000000000000000010000000000000000000000000000000000000000000000000000000000000003000000000000000000000000000000000000000000000000000000000000000100000000000000000000000000000000000000000000000000000000000000001ba081b5ac3574599dfdb1dc43a0526ed95aeda4f60351d39b90b58d1323bc3ec619a074cc010d378fd2ac9a7e149bdcef8248a3d88ff8480fe433ddbbb1de40909730",
                    "indexes": {
                        "data": 0,
                        "gas": 2,
                        "value": 0
                    }
                },
                {
                    "hash": "c1e90282e42c1f9e2906c49960d084e98882754becfe9f5ede46058915c10381",
                    "logs": "1dcc4de8dec75d7aab85b567b6ccd41ad312451b948a7413f0a142fd40d49347",
                    "txbytes": "0xf901251e0a83030d4094c305c901078781c232a2a521c2af7980f8385ee980b8c430c8d1da0000000000000000000000000000000000000000000000000000000000000020000000000000000000000000000000000000000000000000000000000000008000000000000000000000000000000000000000000000000000000000000000010000000000000000000000000000000000000000000000000000000000000003000000000000000000000000000000000000000000000000000000000000000100000000000000000000000000000000000000000000000000000000000000001ba0bbeb7b2796d9e2404667357142a224e0cc25b107e734d451125bd18533dcfd65a06482bfd5d39f7852a5bfbe4c5df6d86941febe7dc6d34629f569c0a5e66ccf06",
                    "indexes": {
                        "data": 0,
                        "gas": 3,
                        "value": 0
                    }
                }
            ],
            "ETC_Mystique": [
                {
                    "hash": "64623a3a8c11f4fe9b929f753f6f45d1ad6cf42a92a37be6fa08cb5e82902b63",
                    "logs": "1dcc4de8dec75d7aab85b567b6ccd41ad312451b948a7413f0a142fd40d49347",
                    "txbytes": "0xf901241e0a82a96094c305c901078781c232a2a521c2af7980f8385ee980b8c430c8d1da0000000000000000000000000000000000000000000000000000000000000020000000000000000000000000000000000000000000000000000000000000008000000000000000000000000000000000000000000000000000000000000000010000000000000000000000000000000000000000000000000000000000000003000000000000000000000000000000000000000000000000000000000000000100000000000000000000000000000000000000000000000000000000000000001ca00aa74dc630ee51f35250ffbb7b7ac6511f485b7f789aa91a978c42bc2470708ea07db5183df874f6fca7c9977c8ebe6345b97e8c69c556b03dbd1973b75031c667",
                    "indexes": {
                        "data": 0,
                        "gas": 0,
                        "value": 0
                    }
                },
                {
                    "hash": "878b7d8c103ad467af6653976be80c06d338b80127112eef3615a2b9558f1743",
                    "logs": "1dcc4de8dec75d7aab85b567b6ccd41ad312451b948a7413f0a142fd40d49347",
                    "txbytes": "0xf901251e0a83015f9094c305c901078781c232a2a521c2af7980f8385ee980b8c430c8d1da0000000000000000000000000000000000000000000000000000000000000020000000000000000000000000000000000000000000000000000000000000008000000000000000000000000000000000000000000000000000000000000000010000000000000000000000000000000000000000000000000000000000000003000000000000000000000000000000000000000000000000000000000000000100000000000000000000000000000000000000000000000000000000000000001ba053f3d17c747f62b240e316e2db4c15f609a5b4ea5952555e805aa98738fc8bc2a001ae94c20fc21b4f1069d1216c47287c3959e58a8ab089e626fb5a1acc238aed",
                    "indexes": {
                        "data": 0,
                        "gas": 1,
                        "value": 0
                    }
                },
                {
                    "hash": "455a985125c042a173cc4f3046e5f6214db91f165f70d1f70f0a6a0abf0c2375",
                    "logs": "1dcc4de8dec75d7aab85b567b6ccd41ad312451b948a7413f0a142fd40d49347",
                    "txbytes": "0xf901251e0a8301adb094c305c901078781c232a2a521c2af7980f8385ee980b8c430c8d1da0000000000000000000000000000000000000000000000000000000000000020000000000000000000000000000000000000000000000000000000000000008000000000000000000000000000000000000000000000000000000000000000010000000000000000000000000000000000000000000000000000000000000003000000000000000000000000000000000000000000000000000000000000000100000000000000000000000000000000000000000000000000000000000000001ba081b5ac3574599dfdb1dc43a0526ed95aeda4f60351d39b90b58d1323bc3ec619a074cc010d378fd2ac9a7e149bdcef8248a3d88ff8480fe433ddbbb1de40909730",
                    "indexes": {
                        "data": 0,
                        "gas": 2,
                        "value": 0
                    }
                },
                {
                    "hash": "c1e90282e42c1f9e2906c49960d084e98882754becfe9f5ede46058915c10381",
                    "logs": "1dcc4de8dec75d7aab85b567b6ccd41ad312451b948a7413f0a142fd40d49347",
                    "txbytes": "0xf901251e0a83030d4094c305c901078781c232a2a521c2af7980f8385ee980b8c430c8d1da0000000000000000000000000000000000000000000000000000000000000020000000000000000000000000000000000000000000000000000000000000008000000000000000000000000000000000000000000000000000000000000000010000000000000000000000000000000000000000000000000000000000000003000000000000000000000000000000000000000000000000000000000000000100000000000000000000000000000000000000000000000000000000000000001ba0bbeb7b2796d9e2404667357142a224e0cc25b107e734d451125bd18533dcfd65a06482bfd5d39f7852a5bfbe4c5df6d86941febe7dc6d34629f569c0a5e66ccf06",
                    "indexes": {
                        "data": 0,
                        "gas": 3,
                        "value": 0
                    }
                }
            ],
            "ETC_Phoenix": [
                {
                    "hash": "64623a3a8c11f4fe9b929f753f6f45d1ad6cf42a92a37be6fa08cb5e82902b63",
                    "logs": "1dcc4de8dec75d7aab85b567b6ccd41ad312451b948a7413f0a142fd40d49347",
                    "txbytes": "0xf901241e0a82a96094c305c901078781c232a2a521c2af7980f8385ee980b8c430c8d1da0000000000000000000000000000000000000000000000000000000000000020000000000000000000000000000000000000000000000000000000000000008000000000000000000000000000000000000000000000000000000000000000010000000000000000000000000000000000000000000000000000000000000003000000000000000000000000000000000000000000000000000000000000000100000000000000000000000000000000000000000000000000000000000000001ca00aa74dc630ee51f35250ffbb7b7ac6511f485b7f789aa91a978c42bc2470708ea07db5183df874f6fca7c9977c8ebe6345b97e8c69c556b03dbd1973b75031c667",
                    "indexes": {
                        "data": 0,
                        "gas": 0,
                        "value": 0
                    }
                },
                {
                    "hash": "878b7d8c103ad467af6653976be80c06d338b80127112eef3615a2b9558f1743",
                    "logs": "1dcc4de8dec75d7aab85b567b6ccd41ad312451b948a7413f0a142fd40d49347",
                    "txbytes": "0xf901251e0a83015f9094c305c901078781c232a2a521c2af7980f8385ee980b8c430c8d1da0000000000000000000000000000000000000000000000000000000000000020000000000000000000000000000000000000000000000000000000000000008000000000000000000000000000000000000000000000000000000000000000010000000000000000000000000000000000000000000000000000000000000003000000000000000000000000000000000000000000000000000000000000000100000000000000000000000000000000000000000000000000000000000000001ba053f3d17c747f62b240e316e2db4c15f609a5b4ea5952555e805aa98738fc8bc2a001ae94c20fc21b4f1069d1216c47287c3959e58a8ab089e626fb5a1acc238aed",
                    "indexes": {
                        "data": 0,
                        "gas": 1,
                        "value": 0
                    }
                },
                {
                    "hash": "455a985125c042a173cc4f3046e5f6214db91f165f70d1f70f0a6a0abf0c2375",
                    "logs": "1dcc4de8dec75d7aab85b567b6ccd41ad312451b948a7413f0a142fd40d49347",
                    "txbytes": "0xf901251e0a8301adb094c305c901078781c232a2a521c2af7980f8385ee980b8c430c8d1da0000000000000000000000000000000000000000000000000000000000000020000000000000000000000000000000000000000000000000000000000000008000000000000000000000000000000000000000000000000000000000000000010000000000000000000000000000000000000000000000000000000000000003000000000000000000000000000000000000000000000000000000000000000100000000000000000000000000000000000000000000000000000000000000001ba081b5ac3574599dfdb1dc43a0526ed95aeda4f60351d39b90b58d1323bc3ec619a074cc010d378fd2ac9a7e149bdcef8248a3d88ff8480fe433ddbbb1de40909730",
                    "indexes": {
                        "data": 0,
                        "gas": 2,
                        "value": 0
                    }
                },
                {
                    "hash": "c1e90282e42c1f9e2906c49960d084e98882754becfe9f5ede46058915c10381",
                    "logs": "1dcc4de8dec75d7aab85b567b6ccd41ad312451b948a7413f0a142fd40d49347",
                    "txbytes": "0xf901251e0a83030d4094c305c901078781c232a2a521c2af7980f8385ee980b8c430c8d1da0000000000000000000000000000000000000000000000000000000000000020000000000000000000000000000000000000000000000000000000000000008000000000000000000000000000000000000000000000000000000000000000010000000000000000000000000000000000000000000000000000000000000003000000000000000000000000000000000000000000000000000000000000000100000000000000000000000000000000000000000000000000000000000000001ba0bbeb7b2796d9e2404667357142a224e0cc25b107e734d451125bd18533dcfd65a06482bfd5d39f7852a5bfbe4c5df6d86941febe7dc6d34629f569c0a5e66ccf06",
                    "indexes": {
                        "data": 0,
                        "gas": 3,
                        "value": 0
                    }
                }
            ]
        }
    }
}