{
    "ecmul_1-3_9935_28000_96": {
        "_info": {
            "comment": "Puts the point (1, 3) and the factor 115792089237316195423570985008687907853269984665640564039457584007913129639935 into the ECMUL precompile, truncating or expanding the input data to 96 bytes. Gives the execution 28000 bytes",
            "filling-rpc-server": "evm version 1.10.16-unstable-0f893109-20220105",
            "filling-tool-version": "retesteth-0.2.2-testinfo+commit.01c6aac2.Linux.g++",
            "filledWith": "CoreGeth-1.12.9-unstable-d390462df9df233b60b4cd7a37db5b3043832022",
            "lllcversion": "Version: 0.5.14-develop.2021.11.27+commit.401d5358.Linux.g++",
            "source": "src/GeneralStateTestsFiller/stZeroKnowledge/ecmul_1-3_9935_28000_96Filler.json",
            "sourceHash": "abad9e1e8dad912d4a9b2df569c0cf7934406ec31a22cf3e0b88dce1859eebcf"
        },
        "env": {
            "currentCoinbase": "0x3535353535353535353535353535353535353535",
            "currentDifficulty": "0x20000",
            "currentGasLimit": "0x5f5e100",
            "currentNumber": "0x1",
            "currentTimestamp": "0x3e8",
            "previousHash": "0xc6745cf3cada515bbfb9573261c82547e0b8f9e3d5dd382e464704a84e47b5ad"
        },
        "pre": {
            "0x0000000000000000000000000000000000000000": {
                "code": "0x",
                "balance": "0x1",
                "nonce": "0x0"
            },
            "0x0000000000000000000000000000000000000001": {
                "code": "0x",
                "balance": "0x1",
                "nonce": "0x0"
            },
            "0x0000000000000000000000000000000000000002": {
                "code": "0x",
                "balance": "0x1",
                "nonce": "0x0"
            },
            "0x0000000000000000000000000000000000000003": {
                "code": "0x",
                "balance": "0x1",
                "nonce": "0x0"
            },
            "0x0000000000000000000000000000000000000004": {
                "code": "0x",
                "balance": "0x1",
                "nonce": "0x0"
            },
            "0x0000000000000000000000000000000000000005": {
                "code": "0x",
                "balance": "0x1",
                "nonce": "0x0"
            },
            "0x0000000000000000000000000000000000000006": {
                "code": "0x",
                "balance": "0x1",
                "nonce": "0x0"
            },
            "0x0000000000000000000000000000000000000007": {
                "code": "0x",
                "balance": "0x1",
                "nonce": "0x0"
            },
            "0x10a1c1cb95c92ec31d3f22c66eef1d9f3f258c6b": {
                "code": "0x",
                "balance": "0xde0b6b3a7640000",
                "nonce": "0x0"
            },
            "0x13cbb8d99c6c4e0f2728c7d72606e78a29c4e224": {
                "code": "0x",
                "balance": "0xde0b6b3a7640000",
                "nonce": "0x0"
            },
            "0x24143873e0e0815fdcbcffdbe09c979cbf9ad013": {
                "code": "0x",
                "balance": "0xde0b6b3a7640000",
                "nonce": "0x0"
            },
            "0x3535353535353535353535353535353535353535": {
                "code": "0x",
                "balance": "0x7c204c",
                "nonce": "0x0"
            },
            "0x598443f1880ef585b21f1d7585bd0577402861e5": {
                "code": "0x",
                "balance": "0xde0b6b3a7640000",
                "nonce": "0x0"
            },
            "0x77db2bebba79db42a978f896968f4afce746ea1f": {
                "code": "0x",
                "balance": "0xde0b6b3a7640000",
                "nonce": "0x0"
            },
            "0x7d577a597b2742b498cb5cf0c26cdcd726d39e6e": {
                "code": "0x",
                "balance": "0xde0b6b3a7640000",
                "nonce": "0x0"
            },
            "0x82a978b3f5962a5b0957d9ee9eef472ee55b42f1": {
                "code": "0x",
                "balance": "0xde0b6b3a6e7dfb4",
                "nonce": "0xbf"
            },
            "0x90f0b1ebbba1c1936aff7aaf20a7878ff9e04b6c": {
                "code": "0x",
                "balance": "0xde0b6b3a7640000",
                "nonce": "0x0"
            },
            "0xc305c901078781c232a2a521c2af7980f8385ee9": {
                "code": "0x600035601c52740100000000000000000000000000000000000000006020526fffffffffffffffffffffffffffffffff6040527fffffffffffffffffffffffffffffffff000000000000000000000000000000016060527402540be3fffffffffffffffffffffffffdabf41c006080527ffffffffffffffffffffffffdabf41c00000000000000000000000002540be40060a0526330c8d1da600051141561012b5760c06004356004013511151558576004356004013560200160043560040161014037604061026061014051610160600060076305f5e0fff11558576040610240526102406060806102c0828460006004601bf15050506102c08051602082012090506000556102c060206020820352604081510160206001820306601f820103905060208203f350005b",
                "storage": {
                    "0x0000000000000000000000000000000000000000000000000000000000000000": "0x40c97882e95e71d48d97c8655188333e16470e807a99282b8795064ca6ca4dcf"
                },
                "balance": "0x0",
                "nonce": "0x1"
            },
            "0xdceceaf3fc5c0a63d195d69b1a90011b7b19650d": {
                "code": "0x",
                "balance": "0xde0b6b3a7640000",
                "nonce": "0x0"
            },
            "0xe0fc04fa2d34a66b779fd5cee748268032a146c0": {
                "code": "0x",
                "balance": "0xde0b6b3a7640000",
                "nonce": "0x0"
            }
        },
        "transaction": {
            "gasPrice": "0xa",
            "nonce": "0xbf",
            "to": "0xc305c901078781c232a2a521c2af7980f8385ee9",
            "data": [
                "0x30c8d1da0000000000000000000000000000000000000000000000000000000000000020000000000000000000000000000000000000000000000000000000000000006000000000000000000000000000000000000000000000000000000000000000010000000000000000000000000000000000000000000000000000000000000003ffffffffffffffffffffffffffffffffffffffffffffffffffffffffffffffff"
            ],
            "gasLimit": [
                "0xcbf8",
                "0x15f90",
                "0x1adb0",
                "0x30d40"
            ],
            "value": [
                "0x00"
            ],
            "secretKey": "0x044852b2a670ade5407e78fb2863c51de9fcb96542a07186fe3aeda6bb8a116d",
            "sender": "0x82a978b3f5962a5b0957d9ee9eef472ee55b42f1"
        },
        "post": {
            "ETC_Magneto": [
                {
                    "hash": "0bba39ab16d88084ce2e60e40f7d89acc47f3248e0093981d5cb96c57ffa8240",
                    "logs": "1dcc4de8dec75d7aab85b567b6ccd41ad312451b948a7413f0a142fd40d49347",
                    "txbytes": "0xf9010581bf0a82cbf894c305c901078781c232a2a521c2af7980f8385ee980b8a430c8d1da0000000000000000000000000000000000000000000000000000000000000020000000000000000000000000000000000000000000000000000000000000006000000000000000000000000000000000000000000000000000000000000000010000000000000000000000000000000000000000000000000000000000000003ffffffffffffffffffffffffffffffffffffffffffffffffffffffffffffffff1ca072657eaf037c05c048644d49b095ba2e76859e4aa411891a00d099cdc3453ce4a0236d5c589ecce0871690d44ce65135eae92b919c645332aa2741dd4bc69838df",
                    "indexes": {
                        "data": 0,
                        "gas": 0,
                        "value": 0
                    }
                },
                {
                    "hash": "40a7000c2b91dff56c289925d300e6077798258d6a38dd9fb114d97298457a81",
                    "logs": "1dcc4de8dec75d7aab85b567b6ccd41ad312451b948a7413f0a142fd40d49347",
                    "txbytes": "0xf9010681bf0a83015f9094c305c901078781c232a2a521c2af7980f8385ee980b8a430c8d1da0000000000000000000000000000000000000000000000000000000000000020000000000000000000000000000000000000000000000000000000000000006000000000000000000000000000000000000000000000000000000000000000010000000000000000000000000000000000000000000000000000000000000003ffffffffffffffffffffffffffffffffffffffffffffffffffffffffffffffff1ca0169a6fa3d81b3e7e7bbe008cd3d1a6dddae877805acfe003f34f8a2840e8982ca03ab6ee8512576f20f80974d7722c900e683b8e815e94c0d6edc70fb946dd86e5",
                    "indexes": {
                        "data": 0,
                        "gas": 1,
                        "value": 0
                    }
                },
                {
                    "hash": "7ab67b5279f8b73ac600f6aa05cd37e71354ababaa2594914f7d8c06054ee709",
                    "logs": "1dcc4de8dec75d7aab85b567b6ccd41ad312451b948a7413f0a142fd40d49347",
                    "txbytes": "0xf9010681bf0a8301adb094c305c901078781c232a2a521c2af7980f8385ee980b8a430c8d1da0000000000000000000000000000000000000000000000000000000000000020000000000000000000000000000000000000000000000000000000000000006000000000000000000000000000000000000000000000000000000000000000010000000000000000000000000000000000000000000000000000000000000003ffffffffffffffffffffffffffffffffffffffffffffffffffffffffffffffff1ca0e8e63967127bb10f1f091031b7130932f03f55dc43e79fa81ab2b7c65dd66c44a06e4b4131ecf8c44bd16b88b4aeced1ada6184b79782ff312ac67890a919be2dd",
                    "indexes": {
                        "data": 0,
                        "gas": 2,
                        "value": 0
                    }
                },
                {
                    "hash": "68de0c190beaa7ea9400a8ab607f2c7d6efc47e3e4cca0b801532dfa07ced0be",
                    "logs": "1dcc4de8dec75d7aab85b567b6ccd41ad312451b948a7413f0a142fd40d49347",
                    "txbytes": "0xf9010681bf0a83030d4094c305c901078781c232a2a521c2af7980f8385ee980b8a430c8d1da0000000000000000000000000000000000000000000000000000000000000020000000000000000000000000000000000000000000000000000000000000006000000000000000000000000000000000000000000000000000000000000000010000000000000000000000000000000000000000000000000000000000000003ffffffffffffffffffffffffffffffffffffffffffffffffffffffffffffffff1ba09c2c5a31c235ff3c3f48df2bb88112186a047e2cb3a1d833b38cc326e10c3540a07a89c61acf468c474290526288c5a8111aacddb599e95608e0b169383c129e71",
                    "indexes": {
                        "data": 0,
                        "gas": 3,
                        "value": 0
                    }
                }
            ],
            "ETC_Mystique": [
                {
                    "hash": "0bba39ab16d88084ce2e60e40f7d89acc47f3248e0093981d5cb96c57ffa8240",
                    "logs": "1dcc4de8dec75d7aab85b567b6ccd41ad312451b948a7413f0a142fd40d49347",
                    "txbytes": "0xf9010581bf0a82cbf894c305c901078781c232a2a521c2af7980f8385ee980b8a430c8d1da0000000000000000000000000000000000000000000000000000000000000020000000000000000000000000000000000000000000000000000000000000006000000000000000000000000000000000000000000000000000000000000000010000000000000000000000000000000000000000000000000000000000000003ffffffffffffffffffffffffffffffffffffffffffffffffffffffffffffffff1ca072657eaf037c05c048644d49b095ba2e76859e4aa411891a00d099cdc3453ce4a0236d5c589ecce0871690d44ce65135eae92b919c645332aa2741dd4bc69838df",
                    "indexes": {
                        "data": 0,
                        "gas": 0,
                        "value": 0
                    }
                },
                {
                    "hash": "40a7000c2b91dff56c289925d300e6077798258d6a38dd9fb114d97298457a81",
                    "logs": "1dcc4de8dec75d7aab85b567b6ccd41ad312451b948a7413f0a142fd40d49347",
                    "txbytes": "0xf9010681bf0a83015f9094c305c901078781c232a2a521c2af7980f8385ee980b8a430c8d1da0000000000000000000000000000000000000000000000000000000000000020000000000000000000000000000000000000000000000000000000000000006000000000000000000000000000000000000000000000000000000000000000010000000000000000000000000000000000000000000000000000000000000003ffffffffffffffffffffffffffffffffffffffffffffffffffffffffffffffff1ca0169a6fa3d81b3e7e7bbe008cd3d1a6dddae877805acfe003f34f8a2840e8982ca03ab6ee8512576f20f80974d7722c900e683b8e815e94c0d6edc70fb946dd86e5",
                    "indexes": {
                        "data": 0,
                        "gas": 1,
                        "value": 0
                    }
                },
                {
                    "hash": "7ab67b5279f8b73ac600f6aa05cd37e71354ababaa2594914f7d8c06054ee709",
                    "logs": "1dcc4de8dec75d7aab85b567b6ccd41ad312451b948a7413f0a142fd40d49347",
                    "txbytes": "0xf9010681bf0a8301adb094c305c901078781c232a2a521c2af7980f8385ee980b8a430c8d1da0000000000000000000000000000000000000000000000000000000000000020000000000000000000000000000000000000000000000000000000000000006000000000000000000000000000000000000000000000000000000000000000010000000000000000000000000000000000000000000000000000000000000003ffffffffffffffffffffffffffffffffffffffffffffffffffffffffffffffff1ca0e8e63967127bb10f1f091031b7130932f03f55dc43e79fa81ab2b7c65dd66c44a06e4b4131ecf8c44bd16b88b4aeced1ada6184b79782ff312ac67890a919be2dd",
                    "indexes": {
                        "data": 0,
                        "gas": 2,
                        "value": 0
                    }
                },
                {
                    "hash": "68de0c190beaa7ea9400a8ab607f2c7d6efc47e3e4cca0b801532dfa07ced0be",
                    "logs": "1dcc4de8dec75d7aab85b567b6ccd41ad312451b948a7413f0a142fd40d49347",
                    "txbytes": "0xf9010681bf0a83030d4094c305c901078781c232a2a521c2af7980f8385ee980b8a430c8d1da0000000000000000000000000000000000000000000000000000000000000020000000000000000000000000000000000000000000000000000000000000006000000000000000000000000000000000000000000000000000000000000000010000000000000000000000000000000000000000000000000000000000000003ffffffffffffffffffffffffffffffffffffffffffffffffffffffffffffffff1ba09c2c5a31c235ff3c3f48df2bb88112186a047e2cb3a1d833b38cc326e10c3540a07a89c61acf468c474290526288c5a8111aacddb599e95608e0b169383c129e71",
                    "indexes": {
                        "data": 0,
                        "gas": 3,
                        "value": 0
                    }
                }
            ],
            "ETC_Phoenix": [
                {
                    "hash": "0bba39ab16d88084ce2e60e40f7d89acc47f3248e0093981d5cb96c57ffa8240",
                    "logs": "1dcc4de8dec75d7aab85b567b6ccd41ad312451b948a7413f0a142fd40d49347",
                    "txbytes": "0xf9010581bf0a82cbf894c305c901078781c232a2a521c2af7980f8385ee980b8a430c8d1da0000000000000000000000000000000000000000000000000000000000000020000000000000000000000000000000000000000000000000000000000000006000000000000000000000000000000000000000000000000000000000000000010000000000000000000000000000000000000000000000000000000000000003ffffffffffffffffffffffffffffffffffffffffffffffffffffffffffffffff1ca072657eaf037c05c048644d49b095ba2e76859e4aa411891a00d099cdc3453ce4a0236d5c589ecce0871690d44ce65135eae92b919c645332aa2741dd4bc69838df",
                    "indexes": {
                        "data": 0,
                        "gas": 0,
                        "value": 0
                    }
                },
                {
                    "hash": "40a7000c2b91dff56c289925d300e6077798258d6a38dd9fb114d97298457a81",
                    "logs": "1dcc4de8dec75d7aab85b567b6ccd41ad312451b948a7413f0a142fd40d49347",
                    "txbytes": "0xf9010681bf0a83015f9094c305c901078781c232a2a521c2af7980f8385ee980b8a430c8d1da0000000000000000000000000000000000000000000000000000000000000020000000000000000000000000000000000000000000000000000000000000006000000000000000000000000000000000000000000000000000000000000000010000000000000000000000000000000000000000000000000000000000000003ffffffffffffffffffffffffffffffffffffffffffffffffffffffffffffffff1ca0169a6fa3d81b3e7e7bbe008cd3d1a6dddae877805acfe003f34f8a2840e8982ca03ab6ee8512576f20f80974d7722c900e683b8e815e94c0d6edc70fb946dd86e5",
                    "indexes": {
                        "data": 0,
                        "gas": 1,
                        "value": 0
                    }
                },
                {
                    "hash": "7ab67b5279f8b73ac600f6aa05cd37e71354ababaa2594914f7d8c06054ee709",
                    "logs": "1dcc4de8dec75d7aab85b567b6ccd41ad312451b948a7413f0a142fd40d49347",
                    "txbytes": "0xf9010681bf0a8301adb094c305c901078781c232a2a521c2af7980f8385ee980b8a430c8d1da0000000000000000000000000000000000000000000000000000000000000020000000000000000000000000000000000000000000000000000000000000006000000000000000000000000000000000000000000000000000000000000000010000000000000000000000000000000000000000000000000000000000000003ffffffffffffffffffffffffffffffffffffffffffffffffffffffffffffffff1ca0e8e63967127bb10f1f091031b7130932f03f55dc43e79fa81ab2b7c65dd66c44a06e4b4131ecf8c44bd16b88b4aeced1ada6184b79782ff312ac67890a919be2dd",
                    "indexes": {
                        "data": 0,
                        "gas": 2,
                        "value": 0
                    }
                },
                {
                    "hash": "68de0c190beaa7ea9400a8ab607f2c7d6efc47e3e4cca0b801532dfa07ced0be",
                    "logs": "1dcc4de8dec75d7aab85b567b6ccd41ad312451b948a7413f0a142fd40d49347",
                    "txbytes": "0xf9010681bf0a83030d4094c305c901078781c232a2a521c2af7980f8385ee980b8a430c8d1da0000000000000000000000000000000000000000000000000000000000000020000000000000000000000000000000000000000000000000000000000000006000000000000000000000000000000000000000000000000000000000000000010000000000000000000000000000000000000000000000000000000000000003ffffffffffffffffffffffffffffffffffffffffffffffffffffffffffffffff1ba09c2c5a31c235ff3c3f48df2bb88112186a047e2cb3a1d833b38cc326e10c3540a07a89c61acf468c474290526288c5a8111aacddb599e95608e0b169383c129e71",
                    "indexes": {
                        "data": 0,
                        "gas": 3,
                        "value": 0
                    }
                }
            ]
        }
    }
}