{
    "ecmul_7827-6598_9935_21000_96": {
        "_info": {
            "comment": "Puts the point (11999875504842010600789954262886096740416429265635183817701593963271973497827, 11843594000332171325303933275547366297934113019079887694534126289021216356598) and the factor 115792089237316195423570985008687907853269984665640564039457584007913129639935 into the ECMUL precompile, truncating or expanding the input data to 96 bytes. Gives the execution 21000 bytes",
            "filling-rpc-server": "evm version 1.10.16-unstable-0f893109-20220105",
            "filling-tool-version": "retesteth-0.2.2-testinfo+commit.01c6aac2.Linux.g++",
            "filledWith": "CoreGeth-1.12.9-unstable-4cf5b2b0837228e7d5eadba6a01ffb80e9288e21",
            "lllcversion": "Version: 0.5.14-develop.2021.11.27+commit.401d5358.Linux.g++",
            "source": "src/GeneralStateTestsFiller/stZeroKnowledge/ecmul_7827-6598_9935_21000_96Filler.json",
            "sourceHash": "1f86fe3ca162faf2471bddcb989386fc76ac7d85d9c14c7e70f909313f9ec991"
        },
        "env": {
            "currentCoinbase": "0x3535353535353535353535353535353535353535",
            "currentDifficulty": "0x20000",
            "currentGasLimit": "0x5f5e100",
            "currentNumber": "0x1",
            "currentTimestamp": "0x3e8",
            "previousHash": "0xc6745cf3cada515bbfb9573261c82547e0b8f9e3d5dd382e464704a84e47b5ad"
        },
        "pre": {
            "0x0000000000000000000000000000000000000000": {
                "code": "0x",
                "balance": "0x1",
                "nonce": "0x0"
            },
            "0x0000000000000000000000000000000000000001": {
                "code": "0x",
                "balance": "0x1",
                "nonce": "0x0"
            },
            "0x0000000000000000000000000000000000000002": {
                "code": "0x",
                "balance": "0x1",
                "nonce": "0x0"
            },
            "0x0000000000000000000000000000000000000003": {
                "code": "0x",
                "balance": "0x1",
                "nonce": "0x0"
            },
            "0x0000000000000000000000000000000000000004": {
                "code": "0x",
                "balance": "0x1",
                "nonce": "0x0"
            },
            "0x0000000000000000000000000000000000000005": {
                "code": "0x",
                "balance": "0x1",
                "nonce": "0x0"
            },
            "0x0000000000000000000000000000000000000006": {
                "code": "0x",
                "balance": "0x1",
                "nonce": "0x0"
            },
            "0x0000000000000000000000000000000000000007": {
                "code": "0x",
                "balance": "0x1",
                "nonce": "0x0"
            },
            "0x10a1c1cb95c92ec31d3f22c66eef1d9f3f258c6b": {
                "code": "0x",
                "balance": "0xde0b6b3a7640000",
                "nonce": "0x0"
            },
            "0x13cbb8d99c6c4e0f2728c7d72606e78a29c4e224": {
                "code": "0x",
                "balance": "0xde0b6b3a7640000",
                "nonce": "0x0"
            },
            "0x24143873e0e0815fdcbcffdbe09c979cbf9ad013": {
                "code": "0x",
                "balance": "0xde0b6b3a7640000",
                "nonce": "0x0"
            },
            "0x3535353535353535353535353535353535353535": {
                "code": "0x",
                "balance": "0x3fb3ce",
                "nonce": "0x0"
            },
            "0x598443f1880ef585b21f1d7585bd0577402861e5": {
                "code": "0x",
                "balance": "0xde0b6b3a7640000",
                "nonce": "0x0"
            },
            "0x77db2bebba79db42a978f896968f4afce746ea1f": {
                "code": "0x",
                "balance": "0xde0b6b3a7640000",
                "nonce": "0x0"
            },
            "0x7d577a597b2742b498cb5cf0c26cdcd726d39e6e": {
                "code": "0x",
                "balance": "0xde0b6b3a7640000",
                "nonce": "0x0"
            },
            "0x82a978b3f5962a5b0957d9ee9eef472ee55b42f1": {
                "code": "0x",
                "balance": "0xde0b6b3a7244c32",
                "nonce": "0x5c"
            },
            "0x90f0b1ebbba1c1936aff7aaf20a7878ff9e04b6c": {
                "code": "0x",
                "balance": "0xde0b6b3a7640000",
                "nonce": "0x0"
            },
            "0xc305c901078781c232a2a521c2af7980f8385ee9": {
                "code": "0x600035601c52740100000000000000000000000000000000000000006020526fffffffffffffffffffffffffffffffff6040527fffffffffffffffffffffffffffffffff000000000000000000000000000000016060527402540be3fffffffffffffffffffffffffdabf41c006080527ffffffffffffffffffffffffdabf41c00000000000000000000000002540be40060a0526330c8d1da600051141561012b5760c06004356004013511151558576004356004013560200160043560040161014037604061026061014051610160600060076305f5e0fff11558576040610240526102406060806102c0828460006004601bf15050506102c08051602082012090506000556102c060206020820352604081510160206001820306601f820103905060208203f350005b",
                "balance": "0x0",
                "nonce": "0x1"
            },
            "0xdceceaf3fc5c0a63d195d69b1a90011b7b19650d": {
                "code": "0x",
                "balance": "0xde0b6b3a7640000",
                "nonce": "0x0"
            },
            "0xe0fc04fa2d34a66b779fd5cee748268032a146c0": {
                "code": "0x",
                "balance": "0xde0b6b3a7640000",
                "nonce": "0x0"
            }
        },
        "transaction": {
            "gasPrice": "0xa",
            "nonce": "0x5c",
            "to": "0xc305c901078781c232a2a521c2af7980f8385ee9",
            "data": [
                "0x30c8d1da000000000000000000000000000000000000000000000000000000000000002000000000000000000000000000000000000000000000000000000000000000601a87b0584ce92f4593d161480614f2989035225609f08058ccfa3d0f940febe31a2f3c951f6dadcc7ee9007dff81504b0fcd6d7cf59996efdc33d92bf7f9f8f6ffffffffffffffffffffffffffffffffffffffffffffffffffffffffffffffff"
            ],
            "gasLimit": [
                "0xbfe0",
                "0xc350",
                "0x1adb0",
                "0x30d40"
            ],
            "value": [
                "0x00"
            ],
            "secretKey": "0x044852b2a670ade5407e78fb2863c51de9fcb96542a07186fe3aeda6bb8a116d",
            "sender": "0x82a978b3f5962a5b0957d9ee9eef472ee55b42f1"
        },
        "post": {
            "ETC_Magneto": [
                {
                    "hash": "e7b4225d04afb8be404ffd71d207c397e2359c8f60a0854138aa61f19f9f5f56",
                    "logs": "1dcc4de8dec75d7aab85b567b6ccd41ad312451b948a7413f0a142fd40d49347",
                    "txbytes": "0xf901045c0a82bfe094c305c901078781c232a2a521c2af7980f8385ee980b8a430c8d1da000000000000000000000000000000000000000000000000000000000000002000000000000000000000000000000000000000000000000000000000000000601a87b0584ce92f4593d161480614f2989035225609f08058ccfa3d0f940febe31a2f3c951f6dadcc7ee9007dff81504b0fcd6d7cf59996efdc33d92bf7f9f8f6ffffffffffffffffffffffffffffffffffffffffffffffffffffffffffffffff1ca0d0ca8808e59a7cc6b5605c0bbb9153ff385eaea462503254cbe328342138e108a06c92f64cd65f6e8a557a28151100f336bbbb09ca4ec503a1d57e6be3920a5ea7",
                    "indexes": {
                        "data": 0,
                        "gas": 0,
                        "value": 0
                    }
                },
                {
                    "hash": "0d27253925b23c732bbd0ba3010060ddb8bcb5e1bb457ca5bb380b66890f7a19",
                    "logs": "1dcc4de8dec75d7aab85b567b6ccd41ad312451b948a7413f0a142fd40d49347",
                    "txbytes": "0xf901045c0a82c35094c305c901078781c232a2a521c2af7980f8385ee980b8a430c8d1da000000000000000000000000000000000000000000000000000000000000002000000000000000000000000000000000000000000000000000000000000000601a87b0584ce92f4593d161480614f2989035225609f08058ccfa3d0f940febe31a2f3c951f6dadcc7ee9007dff81504b0fcd6d7cf59996efdc33d92bf7f9f8f6ffffffffffffffffffffffffffffffffffffffffffffffffffffffffffffffff1ba0d88b93256094a11a65cde311698e12843d0de1ef4ee7fa99fa5c7a14a47d4748a01272b549af0d0b06f2662166cc59596ae25310c81897b4bf636c240aa2f679b6",
                    "indexes": {
                        "data": 0,
                        "gas": 1,
                        "value": 0
                    }
                },
                {
                    "hash": "966cb17cecb530699a807209c2d64c4a02310d1a2f9d29a09b88fbdcce4eeb0a",
                    "logs": "1dcc4de8dec75d7aab85b567b6ccd41ad312451b948a7413f0a142fd40d49347",
                    "txbytes": "0xf901055c0a8301adb094c305c901078781c232a2a521c2af7980f8385ee980b8a430c8d1da000000000000000000000000000000000000000000000000000000000000002000000000000000000000000000000000000000000000000000000000000000601a87b0584ce92f4593d161480614f2989035225609f08058ccfa3d0f940febe31a2f3c951f6dadcc7ee9007dff81504b0fcd6d7cf59996efdc33d92bf7f9f8f6ffffffffffffffffffffffffffffffffffffffffffffffffffffffffffffffff1ca039db35e2dcd272553dfba7751b41eb5c0f4d8be053d81903dc4e5e7017dcae39a02fe4b2b9057799d4910978ba4ff4456dd4c6ed71bcc554fd9647d81db33d0b93",
                    "indexes": {
                        "data": 0,
                        "gas": 2,
                        "value": 0
                    }
                },
                {
                    "hash": "966cb17cecb530699a807209c2d64c4a02310d1a2f9d29a09b88fbdcce4eeb0a",
                    "logs": "1dcc4de8dec75d7aab85b567b6ccd41ad312451b948a7413f0a142fd40d49347",
                    "txbytes": "0xf901055c0a83030d4094c305c901078781c232a2a521c2af7980f8385ee980b8a430c8d1da000000000000000000000000000000000000000000000000000000000000002000000000000000000000000000000000000000000000000000000000000000601a87b0584ce92f4593d161480614f2989035225609f08058ccfa3d0f940febe31a2f3c951f6dadcc7ee9007dff81504b0fcd6d7cf59996efdc33d92bf7f9f8f6ffffffffffffffffffffffffffffffffffffffffffffffffffffffffffffffff1ba08d66350ac0f5d863c65cba4b54a9c5f4e7bce27186b7d11af21398be12f9212ea02e6681c030087cfad12e76cbbc1245b73088b2f4d787af5f9b198b0b648e34f3",
                    "indexes": {
                        "data": 0,
                        "gas": 3,
                        "value": 0
                    }
                }
            ],
            "ETC_Mystique": [
                {
                    "hash": "e7b4225d04afb8be404ffd71d207c397e2359c8f60a0854138aa61f19f9f5f56",
                    "logs": "1dcc4de8dec75d7aab85b567b6ccd41ad312451b948a7413f0a142fd40d49347",
                    "txbytes": "0xf901045c0a82bfe094c305c901078781c232a2a521c2af7980f8385ee980b8a430c8d1da000000000000000000000000000000000000000000000000000000000000002000000000000000000000000000000000000000000000000000000000000000601a87b0584ce92f4593d161480614f2989035225609f08058ccfa3d0f940febe31a2f3c951f6dadcc7ee9007dff81504b0fcd6d7cf59996efdc33d92bf7f9f8f6ffffffffffffffffffffffffffffffffffffffffffffffffffffffffffffffff1ca0d0ca8808e59a7cc6b5605c0bbb9153ff385eaea462503254cbe328342138e108a06c92f64cd65f6e8a557a28151100f336bbbb09ca4ec503a1d57e6be3920a5ea7",
                    "indexes": {
                        "data": 0,
                        "gas": 0,
                        "value": 0
                    }
                },
                {
                    "hash": "0d27253925b23c732bbd0ba3010060ddb8bcb5e1bb457ca5bb380b66890f7a19",
                    "logs": "1dcc4de8dec75d7aab85b567b6ccd41ad312451b948a7413f0a142fd40d49347",
                    "txbytes": "0xf901045c0a82c35094c305c901078781c232a2a521c2af7980f8385ee980b8a430c8d1da000000000000000000000000000000000000000000000000000000000000002000000000000000000000000000000000000000000000000000000000000000601a87b0584ce92f4593d161480614f2989035225609f08058ccfa3d0f940febe31a2f3c951f6dadcc7ee9007dff81504b0fcd6d7cf59996efdc33d92bf7f9f8f6ffffffffffffffffffffffffffffffffffffffffffffffffffffffffffffffff1ba0d88b93256094a11a65cde311698e12843d0de1ef4ee7fa99fa5c7a14a47d4748a01272b549af0d0b06f2662166cc59596ae25310c81897b4bf636c240aa2f679b6",
                    "indexes": {
                        "data": 0,
                        "gas": 1,
                        "value": 0
                    }
                },
                {
                    "hash": "966cb17cecb530699a807209c2d64c4a02310d1a2f9d29a09b88fbdcce4eeb0a",
                    "logs": "1dcc4de8dec75d7aab85b567b6ccd41ad312451b948a7413f0a142fd40d49347",
                    "txbytes": "0xf901055c0a8301adb094c305c901078781c232a2a521c2af7980f8385ee980b8a430c8d1da000000000000000000000000000000000000000000000000000000000000002000000000000000000000000000000000000000000000000000000000000000601a87b0584ce92f4593d161480614f2989035225609f08058ccfa3d0f940febe31a2f3c951f6dadcc7ee9007dff81504b0fcd6d7cf59996efdc33d92bf7f9f8f6ffffffffffffffffffffffffffffffffffffffffffffffffffffffffffffffff1ca039db35e2dcd272553dfba7751b41eb5c0f4d8be053d81903dc4e5e7017dcae39a02fe4b2b9057799d4910978ba4ff4456dd4c6ed71bcc554fd9647d81db33d0b93",
                    "indexes": {
                        "data": 0,
                        "gas": 2,
                        "value": 0
                    }
                },
                {
                    "hash": "966cb17cecb530699a807209c2d64c4a02310d1a2f9d29a09b88fbdcce4eeb0a",
                    "logs": "1dcc4de8dec75d7aab85b567b6ccd41ad312451b948a7413f0a142fd40d49347",
                    "txbytes": "0xf901055c0a83030d4094c305c901078781c232a2a521c2af7980f8385ee980b8a430c8d1da000000000000000000000000000000000000000000000000000000000000002000000000000000000000000000000000000000000000000000000000000000601a87b0584ce92f4593d161480614f2989035225609f08058ccfa3d0f940febe31a2f3c951f6dadcc7ee9007dff81504b0fcd6d7cf59996efdc33d92bf7f9f8f6ffffffffffffffffffffffffffffffffffffffffffffffffffffffffffffffff1ba08d66350ac0f5d863c65cba4b54a9c5f4e7bce27186b7d11af21398be12f9212ea02e6681c030087cfad12e76cbbc1245b73088b2f4d787af5f9b198b0b648e34f3",
                    "indexes": {
                        "data": 0,
                        "gas": 3,
                        "value": 0
                    }
                }
            ],
            "ETC_Phoenix": [
                {
                    "hash": "e7b4225d04afb8be404ffd71d207c397e2359c8f60a0854138aa61f19f9f5f56",
                    "logs": "1dcc4de8dec75d7aab85b567b6ccd41ad312451b948a7413f0a142fd40d49347",
                    "txbytes": "0xf901045c0a82bfe094c305c901078781c232a2a521c2af7980f8385ee980b8a430c8d1da000000000000000000000000000000000000000000000000000000000000002000000000000000000000000000000000000000000000000000000000000000601a87b0584ce92f4593d161480614f2989035225609f08058ccfa3d0f940febe31a2f3c951f6dadcc7ee9007dff81504b0fcd6d7cf59996efdc33d92bf7f9f8f6ffffffffffffffffffffffffffffffffffffffffffffffffffffffffffffffff1ca0d0ca8808e59a7cc6b5605c0bbb9153ff385eaea462503254cbe328342138e108a06c92f64cd65f6e8a557a28151100f336bbbb09ca4ec503a1d57e6be3920a5ea7",
                    "indexes": {
                        "data": 0,
                        "gas": 0,
                        "value": 0
                    }
                },
                {
                    "hash": "0d27253925b23c732bbd0ba3010060ddb8bcb5e1bb457ca5bb380b66890f7a19",
                    "logs": "1dcc4de8dec75d7aab85b567b6ccd41ad312451b948a7413f0a142fd40d49347",
                    "txbytes": "0xf901045c0a82c35094c305c901078781c232a2a521c2af7980f8385ee980b8a430c8d1da000000000000000000000000000000000000000000000000000000000000002000000000000000000000000000000000000000000000000000000000000000601a87b0584ce92f4593d161480614f2989035225609f08058ccfa3d0f940febe31a2f3c951f6dadcc7ee9007dff81504b0fcd6d7cf59996efdc33d92bf7f9f8f6ffffffffffffffffffffffffffffffffffffffffffffffffffffffffffffffff1ba0d88b93256094a11a65cde311698e12843d0de1ef4ee7fa99fa5c7a14a47d4748a01272b549af0d0b06f2662166cc59596ae25310c81897b4bf636c240aa2f679b6",
                    "indexes": {
                        "data": 0,
                        "gas": 1,
                        "value": 0
                    }
                },
                {
                    "hash": "c8a803dac18aa2118562a498408f102380fe4c8a6e9e8d705b3e5893229050d0",
                    "logs": "1dcc4de8dec75d7aab85b567b6ccd41ad312451b948a7413f0a142fd40d49347",
                    "txbytes": "0xf901055c0a8301adb094c305c901078781c232a2a521c2af7980f8385ee980b8a430c8d1da000000000000000000000000000000000000000000000000000000000000002000000000000000000000000000000000000000000000000000000000000000601a87b0584ce92f4593d161480614f2989035225609f08058ccfa3d0f940febe31a2f3c951f6dadcc7ee9007dff81504b0fcd6d7cf59996efdc33d92bf7f9f8f6ffffffffffffffffffffffffffffffffffffffffffffffffffffffffffffffff1ca039db35e2dcd272553dfba7751b41eb5c0f4d8be053d81903dc4e5e7017dcae39a02fe4b2b9057799d4910978ba4ff4456dd4c6ed71bcc554fd9647d81db33d0b93",
                    "indexes": {
                        "data": 0,
                        "gas": 2,
                        "value": 0
                    }
                },
                {
                    "hash": "c8a803dac18aa2118562a498408f102380fe4c8a6e9e8d705b3e5893229050d0",
                    "logs": "1dcc4de8dec75d7aab85b567b6ccd41ad312451b948a7413f0a142fd40d49347",
                    "txbytes": "0xf901055c0a83030d4094c305c901078781c232a2a521c2af7980f8385ee980b8a430c8d1da000000000000000000000000000000000000000000000000000000000000002000000000000000000000000000000000000000000000000000000000000000601a87b0584ce92f4593d161480614f2989035225609f08058ccfa3d0f940febe31a2f3c951f6dadcc7ee9007dff81504b0fcd6d7cf59996efdc33d92bf7f9f8f6ffffffffffffffffffffffffffffffffffffffffffffffffffffffffffffffff1ba08d66350ac0f5d863c65cba4b54a9c5f4e7bce27186b7d11af21398be12f9212ea02e6681c030087cfad12e76cbbc1245b73088b2f4d787af5f9b198b0b648e34f3",
                    "indexes": {
                        "data": 0,
                        "gas": 3,
                        "value": 0
                    }
                }
            ]
        }
    }
}