{
    "ecpairing_perturb_g2_by_field_modulus_again": {
        "_info": {
            "comment": "Puts the given data into the ECPAIRING precompile",
            "filling-rpc-server": "evm version 1.10.16-unstable-0f893109-20220105",
            "filling-tool-version": "retesteth-0.2.2-testinfo+commit.01c6aac2.Linux.g++",
            "filledWith": "CoreGeth-1.12.9-unstable-4d59a861107c8232d6896811c48f229d30087be4",
            "lllcversion": "Version: 0.5.14-develop.2021.11.27+commit.401d5358.Linux.g++",
            "source": "src/GeneralStateTestsFiller/stZeroKnowledge/ecpairing_perturb_g2_by_field_modulus_againFiller.json",
            "sourceHash": "99627940de171e0f22c7bb3cf04e2fad9814e12c830eccd99878f23f5453c75f"
        },
        "env": {
            "currentCoinbase": "0x3535353535353535353535353535353535353535",
            "currentDifficulty": "0x20000",
            "currentGasLimit": "0x5f5e100",
            "currentNumber": "0x1",
            "currentTimestamp": "0x3e8",
            "currentBaseFee": "0xa",
            "previousHash": "0xc6745cf3cada515bbfb9573261c82547e0b8f9e3d5dd382e464704a84e47b5ad"
        },
        "pre": {
            "0x0000000000000000000000000000000000000001": {
                "balance": "0x1"
            },
            "0x0000000000000000000000000000000000000002": {
                "balance": "0x1"
            },
            "0x0000000000000000000000000000000000000003": {
                "balance": "0x1"
            },
            "0x0000000000000000000000000000000000000004": {
                "balance": "0x1"
            },
            "0x0000000000000000000000000000000000000005": {
                "balance": "0x1"
            },
            "0x0000000000000000000000000000000000000006": {
                "balance": "0x1"
            },
            "0x0000000000000000000000000000000000000007": {
                "balance": "0x1"
            },
            "0x0000000000000000000000000000000000000008": {
                "balance": "0x1"
            },
            "0x10a1c1cb95c92ec31d3f22c66eef1d9f3f258c6b": {
                "balance": "0xde0b6b3a7640000"
            },
            "0x13cbb8d99c6c4e0f2728c7d72606e78a29c4e224": {
                "balance": "0xde0b6b3a7640000"
            },
            "0x24143873e0e0815fdcbcffdbe09c979cbf9ad013": {
                "balance": "0xde0b6b3a7640000"
            },
            "0x3535353535353535353535353535353535353535": {
                "balance": "0x68b559"
            },
            "0x598443f1880ef585b21f1d7585bd0577402861e5": {
                "balance": "0xde0b6b3a7640000"
            },
            "0x77db2bebba79db42a978f896968f4afce746ea1f": {
                "balance": "0xde0b6b3a7640000"
            },
            "0x7d577a597b2742b498cb5cf0c26cdcd726d39e6e": {
                "balance": "0xde0b6b3a7640000"
            },
            "0x82a978b3f5962a5b0957d9ee9eef472ee55b42f1": {
                "balance": "0xde0b6b3a6fb4aa7",
                "nonce": "0x1b"
            },
            "0x90f0b1ebbba1c1936aff7aaf20a7878ff9e04b6c": {
                "balance": "0xde0b6b3a7640000"
            },
            "0xc305c901078781c232a2a521c2af7980f8385ee9": {
                "code": "0x600035601c52740100000000000000000000000000000000000000006020526fffffffffffffffffffffffffffffffff6040527fffffffffffffffffffffffffffffffff000000000000000000000000000000016060527402540be3fffffffffffffffffffffffffdabf41c006080527ffffffffffffffffffffffffdabf41c00000000000000000000000002540be40060a0526330c8d1da600051141561012c576107806004356004013511151558576004356004013560200160043560040161014037602061092061014051610160600060086305f5e0fff11558576020610900526109006040806109608284600060046018f150505061096080516020820120905060005561096060206020820352604081510160206001820306601f820103905060208203f350005b",
                "storage": {
                    "0x0000000000000000000000000000000000000000000000000000000000000000": "0x290decd9548b62a8d60345a988386fc84ba6bc95484008f6362f93160ef3e563"
                },
                "balance": "0x0",
                "nonce": "0x1"
            },
            "0xdceceaf3fc5c0a63d195d69b1a90011b7b19650d": {
                "balance": "0xde0b6b3a7640000"
            },
            "0xe0fc04fa2d34a66b779fd5cee748268032a146c0": {
                "balance": "0xde0b6b3a7640000"
            }
        },
        "transaction": {
            "gasPrice": "0xa",
            "nonce": "0x1b",
            "to": "0xc305c901078781c232a2a521c2af7980f8385ee9",
            "data": [
                "0x30c8d1da000000000000000000000000000000000000000000000000000000000000002000000000000000000000000000000000000000000000000000000000000000c000000000000000000000000000000000000000000000000000000000000000000000000000000000000000000000000000000000000000000000000000000000198e9393920d483a7260bfb731fb5d25f1aa493335a9e71297e485b7aef312c21800deef121f1e76426a00665e5c4479674322d4f75edadd46debd5cd992f6ed090689d0585ff075ec9e99ad690c3395bc4b313370b38ef355acdadcd122975b432cad18bcbe0e1502fbb7370f4c98ed7b5351fa74b59e08890758183f777af1"
            ],
            "gasLimit": [
                "0x3ab68",
                "0x15f90",
                "0x1adb0",
                "0x30d40"
            ],
            "value": [
                "0x00"
            ],
            "secretKey": "0x044852b2a670ade5407e78fb2863c51de9fcb96542a07186fe3aeda6bb8a116d",
            "sender": "0x82a978b3f5962a5b0957d9ee9eef472ee55b42f1"
        },
        "post": {
            "ETC_Magneto": [
                {
                    "hash": "5fa0802591f252387097b130f7f07e4cf1884438d96c55ec75ff6691d06f6165",
                    "logs": "1dcc4de8dec75d7aab85b567b6ccd41ad312451b948a7413f0a142fd40d49347",
                    "txbytes": "0xf901661b0a8303ab6894c305c901078781c232a2a521c2af7980f8385ee980b9010430c8d1da000000000000000000000000000000000000000000000000000000000000002000000000000000000000000000000000000000000000000000000000000000c000000000000000000000000000000000000000000000000000000000000000000000000000000000000000000000000000000000000000000000000000000000198e9393920d483a7260bfb731fb5d25f1aa493335a9e71297e485b7aef312c21800deef121f1e76426a00665e5c4479674322d4f75edadd46debd5cd992f6ed090689d0585ff075ec9e99ad690c3395bc4b313370b38ef355acdadcd122975b432cad18bcbe0e1502fbb7370f4c98ed7b5351fa74b59e08890758183f777af11ba006019fe9e6b92f78d3e68d0a4d3c29432647e94a50eed0067bbc1aa64ac0dea2a0745e95b59e784e7659415022c3742a2216e92ff3000420911df147f99c2d5cc2",
                    "indexes": {
                        "data": 0,
                        "gas": 0,
                        "value": 0
                    }
                },
                {
                    "hash": "30dadf9aa98f125ce3a7fda8327f6ff18839edaf0567549330b1b46046e0b55e",
                    "logs": "1dcc4de8dec75d7aab85b567b6ccd41ad312451b948a7413f0a142fd40d49347",
                    "txbytes": "0xf901661b0a83015f9094c305c901078781c232a2a521c2af7980f8385ee980b9010430c8d1da000000000000000000000000000000000000000000000000000000000000002000000000000000000000000000000000000000000000000000000000000000c000000000000000000000000000000000000000000000000000000000000000000000000000000000000000000000000000000000000000000000000000000000198e9393920d483a7260bfb731fb5d25f1aa493335a9e71297e485b7aef312c21800deef121f1e76426a00665e5c4479674322d4f75edadd46debd5cd992f6ed090689d0585ff075ec9e99ad690c3395bc4b313370b38ef355acdadcd122975b432cad18bcbe0e1502fbb7370f4c98ed7b5351fa74b59e08890758183f777af11ca0f9261c466d5c4d78a32fe14daf925c3ac4fd620e348041cb855b6c189411a71ca036295e92e799f140248f4fc23d78ba1490d8c9d7e7a9109a1e70456c8ba11720",
                    "indexes": {
                        "data": 0,
                        "gas": 1,
                        "value": 0
                    }
                },
                {
                    "hash": "abe29579071118899a2b88fbc3c2145ed6f4aed25cb8990b019d140b44c98aac",
                    "logs": "1dcc4de8dec75d7aab85b567b6ccd41ad312451b948a7413f0a142fd40d49347",
                    "txbytes": "0xf901661b0a8301adb094c305c901078781c232a2a521c2af7980f8385ee980b9010430c8d1da000000000000000000000000000000000000000000000000000000000000002000000000000000000000000000000000000000000000000000000000000000c000000000000000000000000000000000000000000000000000000000000000000000000000000000000000000000000000000000000000000000000000000000198e9393920d483a7260bfb731fb5d25f1aa493335a9e71297e485b7aef312c21800deef121f1e76426a00665e5c4479674322d4f75edadd46debd5cd992f6ed090689d0585ff075ec9e99ad690c3395bc4b313370b38ef355acdadcd122975b432cad18bcbe0e1502fbb7370f4c98ed7b5351fa74b59e08890758183f777af11ba0871d472034875227399269b04cfe80d37f494518eb0d2cacef47f0234231c014a07813bff14ad354cebcef14648b52d775cbb0c82b1176b10ef6f34eeba946fa69",
                    "indexes": {
                        "data": 0,
                        "gas": 2,
                        "value": 0
                    }
                },
                {
                    "hash": "e58458cd7c1217beadaae5ad4c71691713d50501f48a7510b257da15730a6b73",
                    "logs": "1dcc4de8dec75d7aab85b567b6ccd41ad312451b948a7413f0a142fd40d49347",
                    "txbytes": "0xf901661b0a83030d4094c305c901078781c232a2a521c2af7980f8385ee980b9010430c8d1da000000000000000000000000000000000000000000000000000000000000002000000000000000000000000000000000000000000000000000000000000000c000000000000000000000000000000000000000000000000000000000000000000000000000000000000000000000000000000000000000000000000000000000198e9393920d483a7260bfb731fb5d25f1aa493335a9e71297e485b7aef312c21800deef121f1e76426a00665e5c4479674322d4f75edadd46debd5cd992f6ed090689d0585ff075ec9e99ad690c3395bc4b313370b38ef355acdadcd122975b432cad18bcbe0e1502fbb7370f4c98ed7b5351fa74b59e08890758183f777af11ca0f69f4c8de7c8ae9e62fd07cf30d7e0606bcbeff78982044b09c361c5d5047ca9a037693f82d5d362c86e1c71b5c6f21941e766b3e1200f9d0d465728fde7aecf57",
                    "indexes": {
                        "data": 0,
                        "gas": 3,
                        "value": 0
                    }
                }
            ],
            "ETC_Mystique": [
                {
                    "hash": "5fa0802591f252387097b130f7f07e4cf1884438d96c55ec75ff6691d06f6165",
                    "logs": "1dcc4de8dec75d7aab85b567b6ccd41ad312451b948a7413f0a142fd40d49347",
                    "txbytes": "0xf901661b0a8303ab6894c305c901078781c232a2a521c2af7980f8385ee980b9010430c8d1da000000000000000000000000000000000000000000000000000000000000002000000000000000000000000000000000000000000000000000000000000000c000000000000000000000000000000000000000000000000000000000000000000000000000000000000000000000000000000000000000000000000000000000198e9393920d483a7260bfb731fb5d25f1aa493335a9e71297e485b7aef312c21800deef121f1e76426a00665e5c4479674322d4f75edadd46debd5cd992f6ed090689d0585ff075ec9e99ad690c3395bc4b313370b38ef355acdadcd122975b432cad18bcbe0e1502fbb7370f4c98ed7b5351fa74b59e08890758183f777af11ba006019fe9e6b92f78d3e68d0a4d3c29432647e94a50eed0067bbc1aa64ac0dea2a0745e95b59e784e7659415022c3742a2216e92ff3000420911df147f99c2d5cc2",
                    "indexes": {
                        "data": 0,
                        "gas": 0,
                        "value": 0
                    }
                },
                {
                    "hash": "30dadf9aa98f125ce3a7fda8327f6ff18839edaf0567549330b1b46046e0b55e",
                    "logs": "1dcc4de8dec75d7aab85b567b6ccd41ad312451b948a7413f0a142fd40d49347",
                    "txbytes": "0xf901661b0a83015f9094c305c901078781c232a2a521c2af7980f8385ee980b9010430c8d1da000000000000000000000000000000000000000000000000000000000000002000000000000000000000000000000000000000000000000000000000000000c000000000000000000000000000000000000000000000000000000000000000000000000000000000000000000000000000000000000000000000000000000000198e9393920d483a7260bfb731fb5d25f1aa493335a9e71297e485b7aef312c21800deef121f1e76426a00665e5c4479674322d4f75edadd46debd5cd992f6ed090689d0585ff075ec9e99ad690c3395bc4b313370b38ef355acdadcd122975b432cad18bcbe0e1502fbb7370f4c98ed7b5351fa74b59e08890758183f777af11ca0f9261c466d5c4d78a32fe14daf925c3ac4fd620e348041cb855b6c189411a71ca036295e92e799f140248f4fc23d78ba1490d8c9d7e7a9109a1e70456c8ba11720",
                    "indexes": {
                        "data": 0,
                        "gas": 1,
                        "value": 0
                    }
                },
                {
                    "hash": "abe29579071118899a2b88fbc3c2145ed6f4aed25cb8990b019d140b44c98aac",
                    "logs": "1dcc4de8dec75d7aab85b567b6ccd41ad312451b948a7413f0a142fd40d49347",
                    "txbytes": "0xf901661b0a8301adb094c305c901078781c232a2a521c2af7980f8385ee980b9010430c8d1da000000000000000000000000000000000000000000000000000000000000002000000000000000000000000000000000000000000000000000000000000000c000000000000000000000000000000000000000000000000000000000000000000000000000000000000000000000000000000000000000000000000000000000198e9393920d483a7260bfb731fb5d25f1aa493335a9e71297e485b7aef312c21800deef121f1e76426a00665e5c4479674322d4f75edadd46debd5cd992f6ed090689d0585ff075ec9e99ad690c3395bc4b313370b38ef355acdadcd122975b432cad18bcbe0e1502fbb7370f4c98ed7b5351fa74b59e08890758183f777af11ba0871d472034875227399269b04cfe80d37f494518eb0d2cacef47f0234231c014a07813bff14ad354cebcef14648b52d775cbb0c82b1176b10ef6f34eeba946fa69",
                    "indexes": {
                        "data": 0,
                        "gas": 2,
                        "value": 0
                    }
                },
                {
                    "hash": "e58458cd7c1217beadaae5ad4c71691713d50501f48a7510b257da15730a6b73",
                    "logs": "1dcc4de8dec75d7aab85b567b6ccd41ad312451b948a7413f0a142fd40d49347",
                    "txbytes": "0xf901661b0a83030d4094c305c901078781c232a2a521c2af7980f8385ee980b9010430c8d1da000000000000000000000000000000000000000000000000000000000000002000000000000000000000000000000000000000000000000000000000000000c000000000000000000000000000000000000000000000000000000000000000000000000000000000000000000000000000000000000000000000000000000000198e9393920d483a7260bfb731fb5d25f1aa493335a9e71297e485b7aef312c21800deef121f1e76426a00665e5c4479674322d4f75edadd46debd5cd992f6ed090689d0585ff075ec9e99ad690c3395bc4b313370b38ef355acdadcd122975b432cad18bcbe0e1502fbb7370f4c98ed7b5351fa74b59e08890758183f777af11ca0f69f4c8de7c8ae9e62fd07cf30d7e0606bcbeff78982044b09c361c5d5047ca9a037693f82d5d362c86e1c71b5c6f21941e766b3e1200f9d0d465728fde7aecf57",
                    "indexes": {
                        "data": 0,
                        "gas": 3,
                        "value": 0
                    }
                }
            ],
            "ETC_Phoenix": [
                {
                    "hash": "5fa0802591f252387097b130f7f07e4cf1884438d96c55ec75ff6691d06f6165",
                    "logs": "1dcc4de8dec75d7aab85b567b6ccd41ad312451b948a7413f0a142fd40d49347",
                    "txbytes": "0xf901661b0a8303ab6894c305c901078781c232a2a521c2af7980f8385ee980b9010430c8d1da000000000000000000000000000000000000000000000000000000000000002000000000000000000000000000000000000000000000000000000000000000c000000000000000000000000000000000000000000000000000000000000000000000000000000000000000000000000000000000000000000000000000000000198e9393920d483a7260bfb731fb5d25f1aa493335a9e71297e485b7aef312c21800deef121f1e76426a00665e5c4479674322d4f75edadd46debd5cd992f6ed090689d0585ff075ec9e99ad690c3395bc4b313370b38ef355acdadcd122975b432cad18bcbe0e1502fbb7370f4c98ed7b5351fa74b59e08890758183f777af11ba006019fe9e6b92f78d3e68d0a4d3c29432647e94a50eed0067bbc1aa64ac0dea2a0745e95b59e784e7659415022c3742a2216e92ff3000420911df147f99c2d5cc2",
                    "indexes": {
                        "data": 0,
                        "gas": 0,
                        "value": 0
                    }
                },
                {
                    "hash": "30dadf9aa98f125ce3a7fda8327f6ff18839edaf0567549330b1b46046e0b55e",
                    "logs": "1dcc4de8dec75d7aab85b567b6ccd41ad312451b948a7413f0a142fd40d49347",
                    "txbytes": "0xf901661b0a83015f9094c305c901078781c232a2a521c2af7980f8385ee980b9010430c8d1da000000000000000000000000000000000000000000000000000000000000002000000000000000000000000000000000000000000000000000000000000000c000000000000000000000000000000000000000000000000000000000000000000000000000000000000000000000000000000000000000000000000000000000198e9393920d483a7260bfb731fb5d25f1aa493335a9e71297e485b7aef312c21800deef121f1e76426a00665e5c4479674322d4f75edadd46debd5cd992f6ed090689d0585ff075ec9e99ad690c3395bc4b313370b38ef355acdadcd122975b432cad18bcbe0e1502fbb7370f4c98ed7b5351fa74b59e08890758183f777af11ca0f9261c466d5c4d78a32fe14daf925c3ac4fd620e348041cb855b6c189411a71ca036295e92e799f140248f4fc23d78ba1490d8c9d7e7a9109a1e70456c8ba11720",
                    "indexes": {
                        "data": 0,
                        "gas": 1,
                        "value": 0
                    }
                },
                {
                    "hash": "abe29579071118899a2b88fbc3c2145ed6f4aed25cb8990b019d140b44c98aac",
                    "logs": "1dcc4de8dec75d7aab85b567b6ccd41ad312451b948a7413f0a142fd40d49347",
                    "txbytes": "0xf901661b0a8301adb094c305c901078781c232a2a521c2af7980f8385ee980b9010430c8d1da000000000000000000000000000000000000000000000000000000000000002000000000000000000000000000000000000000000000000000000000000000c000000000000000000000000000000000000000000000000000000000000000000000000000000000000000000000000000000000000000000000000000000000198e9393920d483a7260bfb731fb5d25f1aa493335a9e71297e485b7aef312c21800deef121f1e76426a00665e5c4479674322d4f75edadd46debd5cd992f6ed090689d0585ff075ec9e99ad690c3395bc4b313370b38ef355acdadcd122975b432cad18bcbe0e1502fbb7370f4c98ed7b5351fa74b59e08890758183f777af11ba0871d472034875227399269b04cfe80d37f494518eb0d2cacef47f0234231c014a07813bff14ad354cebcef14648b52d775cbb0c82b1176b10ef6f34eeba946fa69",
                    "indexes": {
                        "data": 0,
                        "gas": 2,
                        "value": 0
                    }
                },
                {
                    "hash": "e58458cd7c1217beadaae5ad4c71691713d50501f48a7510b257da15730a6b73",
                    "logs": "1dcc4de8dec75d7aab85b567b6ccd41ad312451b948a7413f0a142fd40d49347",
                    "txbytes": "0xf901661b0a83030d4094c305c901078781c232a2a521c2af7980f8385ee980b9010430c8d1da000000000000000000000000000000000000000000000000000000000000002000000000000000000000000000000000000000000000000000000000000000c000000000000000000000000000000000000000000000000000000000000000000000000000000000000000000000000000000000000000000000000000000000198e9393920d483a7260bfb731fb5d25f1aa493335a9e71297e485b7aef312c21800deef121f1e76426a00665e5c4479674322d4f75edadd46debd5cd992f6ed090689d0585ff075ec9e99ad690c3395bc4b313370b38ef355acdadcd122975b432cad18bcbe0e1502fbb7370f4c98ed7b5351fa74b59e08890758183f777af11ca0f69f4c8de7c8ae9e62fd07cf30d7e0606bcbeff78982044b09c361c5d5047ca9a037693f82d5d362c86e1c71b5c6f21941e766b3e1200f9d0d465728fde7aecf57",
                    "indexes": {
                        "data": 0,
                        "gas": 3,
                        "value": 0
                    }
                }
            ]
        }
    }
}