{
    "ecpairing_two_point_match_3": {
        "_info": {
            "comment": "Puts the given data into the ECPAIRING precompile",
            "filling-rpc-server": "evm version 1.10.16-unstable-0f893109-20220105",
            "filling-tool-version": "retesteth-0.2.2-testinfo+commit.01c6aac2.Linux.g++",
            "filledWith": "CoreGeth-1.12.9-unstable-4cf5b2b0837228e7d5eadba6a01ffb80e9288e21",
            "lllcversion": "Version: 0.5.14-develop.2021.11.27+commit.401d5358.Linux.g++",
            "source": "src/GeneralStateTestsFiller/stZeroKnowledge/ecpairing_two_point_match_3Filler.json",
            "sourceHash": "091df8d884cde24b4604098cba80f5f7e871a549cba68f6157899a77cdf8eba7"
        },
        "env": {
            "currentCoinbase": "0x3535353535353535353535353535353535353535",
            "currentDifficulty": "0x20000",
            "currentGasLimit": "0x5f5e100",
            "currentNumber": "0x1",
            "currentTimestamp": "0x3e8",
            "previousHash": "0xc6745cf3cada515bbfb9573261c82547e0b8f9e3d5dd382e464704a84e47b5ad"
        },
        "pre": {
            "0x0000000000000000000000000000000000000001": {
                "code": "0x",
                "balance": "0x1",
                "nonce": "0x0"
            },
            "0x0000000000000000000000000000000000000002": {
                "code": "0x",
                "balance": "0x1",
                "nonce": "0x0"
            },
            "0x0000000000000000000000000000000000000003": {
                "code": "0x",
                "balance": "0x1",
                "nonce": "0x0"
            },
            "0x0000000000000000000000000000000000000004": {
                "code": "0x",
                "balance": "0x1",
                "nonce": "0x0"
            },
            "0x0000000000000000000000000000000000000005": {
                "code": "0x",
                "balance": "0x1",
                "nonce": "0x0"
            },
            "0x0000000000000000000000000000000000000006": {
                "code": "0x",
                "balance": "0x1",
                "nonce": "0x0"
            },
            "0x0000000000000000000000000000000000000007": {
                "code": "0x",
                "balance": "0x1",
                "nonce": "0x0"
            },
            "0x0000000000000000000000000000000000000008": {
                "code": "0x",
                "balance": "0x1",
                "nonce": "0x0"
            },
            "0x10a1c1cb95c92ec31d3f22c66eef1d9f3f258c6b": {
                "code": "0x",
                "balance": "0xde0b6b3a7640000",
                "nonce": "0x0"
            },
            "0x13cbb8d99c6c4e0f2728c7d72606e78a29c4e224": {
                "code": "0x",
                "balance": "0xde0b6b3a7640000",
                "nonce": "0x0"
            },
            "0x24143873e0e0815fdcbcffdbe09c979cbf9ad013": {
                "code": "0x",
                "balance": "0xde0b6b3a7640000",
                "nonce": "0x0"
            },
            "0x3535353535353535353535353535353535353535": {
                "code": "0x",
                "balance": "0x302897",
                "nonce": "0x0"
            },
            "0x598443f1880ef585b21f1d7585bd0577402861e5": {
                "code": "0x",
                "balance": "0xde0b6b3a7640000",
                "nonce": "0x0"
            },
            "0x77db2bebba79db42a978f896968f4afce746ea1f": {
                "code": "0x",
                "balance": "0xde0b6b3a7640000",
                "nonce": "0x0"
            },
            "0x7d577a597b2742b498cb5cf0c26cdcd726d39e6e": {
                "code": "0x",
                "balance": "0xde0b6b3a7640000",
                "nonce": "0x0"
            },
            "0x82a978b3f5962a5b0957d9ee9eef472ee55b42f1": {
                "code": "0x",
                "balance": "0xde0b6b3a733d769",
                "nonce": "0xe"
            },
            "0x90f0b1ebbba1c1936aff7aaf20a7878ff9e04b6c": {
                "code": "0x",
                "balance": "0xde0b6b3a7640000",
                "nonce": "0x0"
            },
            "0xc305c901078781c232a2a521c2af7980f8385ee9": {
                "code": "0x600035601c52740100000000000000000000000000000000000000006020526fffffffffffffffffffffffffffffffff6040527fffffffffffffffffffffffffffffffff000000000000000000000000000000016060527402540be3fffffffffffffffffffffffffdabf41c006080527ffffffffffffffffffffffffdabf41c00000000000000000000000002540be40060a0526330c8d1da600051141561012c576107806004356004013511151558576004356004013560200160043560040161014037602061092061014051610160600060086305f5e0fff11558576020610900526109006040806109608284600060046018f150505061096080516020820120905060005561096060206020820352604081510160206001820306601f820103905060208203f350005b",
                "storage": {
                    "0x0000000000000000000000000000000000000000000000000000000000000000": "0xb10e2d527612073b26eecdfd717e6a320cf44b4afac2b0732d9fcbe2b7fa0cf6"
                },
                "balance": "0x0",
                "nonce": "0x1"
            },
            "0xdceceaf3fc5c0a63d195d69b1a90011b7b19650d": {
                "code": "0x",
                "balance": "0xde0b6b3a7640000",
                "nonce": "0x0"
            },
            "0xe0fc04fa2d34a66b779fd5cee748268032a146c0": {
                "code": "0x",
                "balance": "0xde0b6b3a7640000",
                "nonce": "0x0"
            }
        },
        "transaction": {
            "gasPrice": "0xa",
            "nonce": "0xe",
            "to": "0xc305c901078781c232a2a521c2af7980f8385ee9",
            "data": [
                "0x30c8d1da0000000000000000000000000000000000000000000000000000000000000020000000000000000000000000000000000000000000000000000000000000018000000000000000000000000000000000000000000000000000000000000000010000000000000000000000000000000000000000000000000000000000000002203e205db4f19b37b60121b83a7333706db86431c6d835849957ed8c3928ad7927dc7234fd11d3e8c36c59277c3e6f149d5cd3cfa9a62aee49f8130962b4b3b9195e8aa5b7827463722b8c153931579d3505566b4edf48d498e185f0509de15204bb53b8977e5f92a0bc372742c4830944a59b4fe6b1c0466e2a6dad122b5d2e030644e72e131a029b85045b68181585d97816a916871ca8d3c208c16d87cfd31a76dae6d3272396d0cbe61fced2bc532edac647851e3ac53ce1cc9c7e645a83198e9393920d483a7260bfb731fb5d25f1aa493335a9e71297e485b7aef312c21800deef121f1e76426a00665e5c4479674322d4f75edadd46debd5cd992f6ed090689d0585ff075ec9e99ad690c3395bc4b313370b38ef355acdadcd122975b12c85ea5db8c6deb4aab71808dcb408fe3d1e7690c43d37b4ce6cc0166fa7daa"
            ],
            "gasLimit": [
                "0x517a8",
                "0x15f90",
                "0x1adb0",
                "0x30d40"
            ],
            "value": [
                "0x00"
            ],
            "secretKey": "0x044852b2a670ade5407e78fb2863c51de9fcb96542a07186fe3aeda6bb8a116d",
            "sender": "0x82a978b3f5962a5b0957d9ee9eef472ee55b42f1"
        },
        "post": {
            "ETC_Magneto": [
                {
                    "hash": "b9967ac2df79a606b9ac95e2675f63682cd77304dca9b796649594779635403c",
                    "logs": "1dcc4de8dec75d7aab85b567b6ccd41ad312451b948a7413f0a142fd40d49347",
                    "txbytes": "0xf902260e0a830517a894c305c901078781c232a2a521c2af7980f8385ee980b901c430c8d1da0000000000000000000000000000000000000000000000000000000000000020000000000000000000000000000000000000000000000000000000000000018000000000000000000000000000000000000000000000000000000000000000010000000000000000000000000000000000000000000000000000000000000002203e205db4f19b37b60121b83a7333706db86431c6d835849957ed8c3928ad7927dc7234fd11d3e8c36c59277c3e6f149d5cd3cfa9a62aee49f8130962b4b3b9195e8aa5b7827463722b8c153931579d3505566b4edf48d498e185f0509de15204bb53b8977e5f92a0bc372742c4830944a59b4fe6b1c0466e2a6dad122b5d2e030644e72e131a029b85045b68181585d97816a916871ca8d3c208c16d87cfd31a76dae6d3272396d0cbe61fced2bc532edac647851e3ac53ce1cc9c7e645a83198e9393920d483a7260bfb731fb5d25f1aa493335a9e71297e485b7aef312c21800deef121f1e76426a00665e5c4479674322d4f75edadd46debd5cd992f6ed090689d0585ff075ec9e99ad690c3395bc4b313370b38ef355acdadcd122975b12c85ea5db8c6deb4aab71808dcb408fe3d1e7690c43d37b4ce6cc0166fa7daa1ca0b77a372fe28f6a4a215d2ad218f14fb0bbba6c201cc52acfbf97d9b52e5ae351a03560ee202edf68b3321585b4575da1c1582604d38fdad474efa252677d71efa0",
                    "indexes": {
                        "data": 0,
                        "gas": 0,
                        "value": 0
                    }
                },
                {
                    "hash": "efd9c35f3565b5eb8ec99d7bae68f18b09a69c6946bd95b017ac0f1008c007a9",
                    "logs": "1dcc4de8dec75d7aab85b567b6ccd41ad312451b948a7413f0a142fd40d49347",
                    "txbytes": "0xf902260e0a83015f9094c305c901078781c232a2a521c2af7980f8385ee980b901c430c8d1da0000000000000000000000000000000000000000000000000000000000000020000000000000000000000000000000000000000000000000000000000000018000000000000000000000000000000000000000000000000000000000000000010000000000000000000000000000000000000000000000000000000000000002203e205db4f19b37b60121b83a7333706db86431c6d835849957ed8c3928ad7927dc7234fd11d3e8c36c59277c3e6f149d5cd3cfa9a62aee49f8130962b4b3b9195e8aa5b7827463722b8c153931579d3505566b4edf48d498e185f0509de15204bb53b8977e5f92a0bc372742c4830944a59b4fe6b1c0466e2a6dad122b5d2e030644e72e131a029b85045b68181585d97816a916871ca8d3c208c16d87cfd31a76dae6d3272396d0cbe61fced2bc532edac647851e3ac53ce1cc9c7e645a83198e9393920d483a7260bfb731fb5d25f1aa493335a9e71297e485b7aef312c21800deef121f1e76426a00665e5c4479674322d4f75edadd46debd5cd992f6ed090689d0585ff075ec9e99ad690c3395bc4b313370b38ef355acdadcd122975b12c85ea5db8c6deb4aab71808dcb408fe3d1e7690c43d37b4ce6cc0166fa7daa1ba0190f0071bdf47a316c7e21d1019bbbf8b9243336acaaccd221ed1d1b2af305fea0229a0511f2d27b7e7575afecdfd505e4df761f63bbc86fd2dfac0b2f24c3be73",
                    "indexes": {
                        "data": 0,
                        "gas": 1,
                        "value": 0
                    }
                },
                {
                    "hash": "011f13b27b389c0237ecb9de703e77d4f3d7502d4aed08e12197f78a00f2b6b6",
                    "logs": "1dcc4de8dec75d7aab85b567b6ccd41ad312451b948a7413f0a142fd40d49347",
                    "txbytes": "0xf902260e0a8301adb094c305c901078781c232a2a521c2af7980f8385ee980b901c430c8d1da0000000000000000000000000000000000000000000000000000000000000020000000000000000000000000000000000000000000000000000000000000018000000000000000000000000000000000000000000000000000000000000000010000000000000000000000000000000000000000000000000000000000000002203e205db4f19b37b60121b83a7333706db86431c6d835849957ed8c3928ad7927dc7234fd11d3e8c36c59277c3e6f149d5cd3cfa9a62aee49f8130962b4b3b9195e8aa5b7827463722b8c153931579d3505566b4edf48d498e185f0509de15204bb53b8977e5f92a0bc372742c4830944a59b4fe6b1c0466e2a6dad122b5d2e030644e72e131a029b85045b68181585d97816a916871ca8d3c208c16d87cfd31a76dae6d3272396d0cbe61fced2bc532edac647851e3ac53ce1cc9c7e645a83198e9393920d483a7260bfb731fb5d25f1aa493335a9e71297e485b7aef312c21800deef121f1e76426a00665e5c4479674322d4f75edadd46debd5cd992f6ed090689d0585ff075ec9e99ad690c3395bc4b313370b38ef355acdadcd122975b12c85ea5db8c6deb4aab71808dcb408fe3d1e7690c43d37b4ce6cc0166fa7daa1ca0db1ae85024637199c0197e02304d4eac357e27d4d9f5c63a2489a1df3376488ca03330ab862301ad7cac8743868537ef67c84f2732078b1a877cbd4656999b793f",
                    "indexes": {
                        "data": 0,
                        "gas": 2,
                        "value": 0
                    }
                },
                {
                    "hash": "b9967ac2df79a606b9ac95e2675f63682cd77304dca9b796649594779635403c",
                    "logs": "1dcc4de8dec75d7aab85b567b6ccd41ad312451b948a7413f0a142fd40d49347",
                    "txbytes": "0xf902260e0a83030d4094c305c901078781c232a2a521c2af7980f8385ee980b901c430c8d1da0000000000000000000000000000000000000000000000000000000000000020000000000000000000000000000000000000000000000000000000000000018000000000000000000000000000000000000000000000000000000000000000010000000000000000000000000000000000000000000000000000000000000002203e205db4f19b37b60121b83a7333706db86431c6d835849957ed8c3928ad7927dc7234fd11d3e8c36c59277c3e6f149d5cd3cfa9a62aee49f8130962b4b3b9195e8aa5b7827463722b8c153931579d3505566b4edf48d498e185f0509de15204bb53b8977e5f92a0bc372742c4830944a59b4fe6b1c0466e2a6dad122b5d2e030644e72e131a029b85045b68181585d97816a916871ca8d3c208c16d87cfd31a76dae6d3272396d0cbe61fced2bc532edac647851e3ac53ce1cc9c7e645a83198e9393920d483a7260bfb731fb5d25f1aa493335a9e71297e485b7aef312c21800deef121f1e76426a00665e5c4479674322d4f75edadd46debd5cd992f6ed090689d0585ff075ec9e99ad690c3395bc4b313370b38ef355acdadcd122975b12c85ea5db8c6deb4aab71808dcb408fe3d1e7690c43d37b4ce6cc0166fa7daa1ca064ac4fbf221787dac77bdbdfd168de36d36bd28ab6d4b7effe5d9d19b878efb1a061b4408d0c6c7cc386cde9b9665dccf2c3889f8b15e0c7b1ce4cd8dc527deeaa",
                    "indexes": {
                        "data": 0,
                        "gas": 3,
                        "value": 0
                    }
                }
            ],
            "ETC_Mystique": [
                {
                    "hash": "b9967ac2df79a606b9ac95e2675f63682cd77304dca9b796649594779635403c",
                    "logs": "1dcc4de8dec75d7aab85b567b6ccd41ad312451b948a7413f0a142fd40d49347",
                    "txbytes": "0xf902260e0a830517a894c305c901078781c232a2a521c2af7980f8385ee980b901c430c8d1da0000000000000000000000000000000000000000000000000000000000000020000000000000000000000000000000000000000000000000000000000000018000000000000000000000000000000000000000000000000000000000000000010000000000000000000000000000000000000000000000000000000000000002203e205db4f19b37b60121b83a7333706db86431c6d835849957ed8c3928ad7927dc7234fd11d3e8c36c59277c3e6f149d5cd3cfa9a62aee49f8130962b4b3b9195e8aa5b7827463722b8c153931579d3505566b4edf48d498e185f0509de15204bb53b8977e5f92a0bc372742c4830944a59b4fe6b1c0466e2a6dad122b5d2e030644e72e131a029b85045b68181585d97816a916871ca8d3c208c16d87cfd31a76dae6d3272396d0cbe61fced2bc532edac647851e3ac53ce1cc9c7e645a83198e9393920d483a7260bfb731fb5d25f1aa493335a9e71297e485b7aef312c21800deef121f1e76426a00665e5c4479674322d4f75edadd46debd5cd992f6ed090689d0585ff075ec9e99ad690c3395bc4b313370b38ef355acdadcd122975b12c85ea5db8c6deb4aab71808dcb408fe3d1e7690c43d37b4ce6cc0166fa7daa1ca0b77a372fe28f6a4a215d2ad218f14fb0bbba6c201cc52acfbf97d9b52e5ae351a03560ee202edf68b3321585b4575da1c1582604d38fdad474efa252677d71efa0",
                    "indexes": {
                        "data": 0,
                        "gas": 0,
                        "value": 0
                    }
                },
                {
                    "hash": "efd9c35f3565b5eb8ec99d7bae68f18b09a69c6946bd95b017ac0f1008c007a9",
                    "logs": "1dcc4de8dec75d7aab85b567b6ccd41ad312451b948a7413f0a142fd40d49347",
                    "txbytes": "0xf902260e0a83015f9094c305c901078781c232a2a521c2af7980f8385ee980b901c430c8d1da0000000000000000000000000000000000000000000000000000000000000020000000000000000000000000000000000000000000000000000000000000018000000000000000000000000000000000000000000000000000000000000000010000000000000000000000000000000000000000000000000000000000000002203e205db4f19b37b60121b83a7333706db86431c6d835849957ed8c3928ad7927dc7234fd11d3e8c36c59277c3e6f149d5cd3cfa9a62aee49f8130962b4b3b9195e8aa5b7827463722b8c153931579d3505566b4edf48d498e185f0509de15204bb53b8977e5f92a0bc372742c4830944a59b4fe6b1c0466e2a6dad122b5d2e030644e72e131a029b85045b68181585d97816a916871ca8d3c208c16d87cfd31a76dae6d3272396d0cbe61fced2bc532edac647851e3ac53ce1cc9c7e645a83198e9393920d483a7260bfb731fb5d25f1aa493335a9e71297e485b7aef312c21800deef121f1e76426a00665e5c4479674322d4f75edadd46debd5cd992f6ed090689d0585ff075ec9e99ad690c3395bc4b313370b38ef355acdadcd122975b12c85ea5db8c6deb4aab71808dcb408fe3d1e7690c43d37b4ce6cc0166fa7daa1ba0190f0071bdf47a316c7e21d1019bbbf8b9243336acaaccd221ed1d1b2af305fea0229a0511f2d27b7e7575afecdfd505e4df761f63bbc86fd2dfac0b2f24c3be73",
                    "indexes": {
                        "data": 0,
                        "gas": 1,
                        "value": 0
                    }
                },
                {
                    "hash": "011f13b27b389c0237ecb9de703e77d4f3d7502d4aed08e12197f78a00f2b6b6",
                    "logs": "1dcc4de8dec75d7aab85b567b6ccd41ad312451b948a7413f0a142fd40d49347",
                    "txbytes": "0xf902260e0a8301adb094c305c901078781c232a2a521c2af7980f8385ee980b901c430c8d1da0000000000000000000000000000000000000000000000000000000000000020000000000000000000000000000000000000000000000000000000000000018000000000000000000000000000000000000000000000000000000000000000010000000000000000000000000000000000000000000000000000000000000002203e205db4f19b37b60121b83a7333706db86431c6d835849957ed8c3928ad7927dc7234fd11d3e8c36c59277c3e6f149d5cd3cfa9a62aee49f8130962b4b3b9195e8aa5b7827463722b8c153931579d3505566b4edf48d498e185f0509de15204bb53b8977e5f92a0bc372742c4830944a59b4fe6b1c0466e2a6dad122b5d2e030644e72e131a029b85045b68181585d97816a916871ca8d3c208c16d87cfd31a76dae6d3272396d0cbe61fced2bc532edac647851e3ac53ce1cc9c7e645a83198e9393920d483a7260bfb731fb5d25f1aa493335a9e71297e485b7aef312c21800deef121f1e76426a00665e5c4479674322d4f75edadd46debd5cd992f6ed090689d0585ff075ec9e99ad690c3395bc4b313370b38ef355acdadcd122975b12c85ea5db8c6deb4aab71808dcb408fe3d1e7690c43d37b4ce6cc0166fa7daa1ca0db1ae85024637199c0197e02304d4eac357e27d4d9f5c63a2489a1df3376488ca03330ab862301ad7cac8743868537ef67c84f2732078b1a877cbd4656999b793f",
                    "indexes": {
                        "data": 0,
                        "gas": 2,
                        "value": 0
                    }
                },
                {
                    "hash": "b9967ac2df79a606b9ac95e2675f63682cd77304dca9b796649594779635403c",
                    "logs": "1dcc4de8dec75d7aab85b567b6ccd41ad312451b948a7413f0a142fd40d49347",
                    "txbytes": "0xf902260e0a83030d4094c305c901078781c232a2a521c2af7980f8385ee980b901c430c8d1da0000000000000000000000000000000000000000000000000000000000000020000000000000000000000000000000000000000000000000000000000000018000000000000000000000000000000000000000000000000000000000000000010000000000000000000000000000000000000000000000000000000000000002203e205db4f19b37b60121b83a7333706db86431c6d835849957ed8c3928ad7927dc7234fd11d3e8c36c59277c3e6f149d5cd3cfa9a62aee49f8130962b4b3b9195e8aa5b7827463722b8c153931579d3505566b4edf48d498e185f0509de15204bb53b8977e5f92a0bc372742c4830944a59b4fe6b1c0466e2a6dad122b5d2e030644e72e131a029b85045b68181585d97816a916871ca8d3c208c16d87cfd31a76dae6d3272396d0cbe61fced2bc532edac647851e3ac53ce1cc9c7e645a83198e9393920d483a7260bfb731fb5d25f1aa493335a9e71297e485b7aef312c21800deef121f1e76426a00665e5c4479674322d4f75edadd46debd5cd992f6ed090689d0585ff075ec9e99ad690c3395bc4b313370b38ef355acdadcd122975b12c85ea5db8c6deb4aab71808dcb408fe3d1e7690c43d37b4ce6cc0166fa7daa1ca064ac4fbf221787dac77bdbdfd168de36d36bd28ab6d4b7effe5d9d19b878efb1a061b4408d0c6c7cc386cde9b9665dccf2c3889f8b15e0c7b1ce4cd8dc527deeaa",
                    "indexes": {
                        "data": 0,
                        "gas": 3,
                        "value": 0
                    }
                }
            ],
            "ETC_Phoenix": [
                {
                    "hash": "dd7a9379d415e45c8215121cfa8d86d3e1a546b53d290a05ffd1ba1933071cd4",
                    "logs": "1dcc4de8dec75d7aab85b567b6ccd41ad312451b948a7413f0a142fd40d49347",
                    "txbytes": "0xf902260e0a830517a894c305c901078781c232a2a521c2af7980f8385ee980b901c430c8d1da0000000000000000000000000000000000000000000000000000000000000020000000000000000000000000000000000000000000000000000000000000018000000000000000000000000000000000000000000000000000000000000000010000000000000000000000000000000000000000000000000000000000000002203e205db4f19b37b60121b83a7333706db86431c6d835849957ed8c3928ad7927dc7234fd11d3e8c36c59277c3e6f149d5cd3cfa9a62aee49f8130962b4b3b9195e8aa5b7827463722b8c153931579d3505566b4edf48d498e185f0509de15204bb53b8977e5f92a0bc372742c4830944a59b4fe6b1c0466e2a6dad122b5d2e030644e72e131a029b85045b68181585d97816a916871ca8d3c208c16d87cfd31a76dae6d3272396d0cbe61fced2bc532edac647851e3ac53ce1cc9c7e645a83198e9393920d483a7260bfb731fb5d25f1aa493335a9e71297e485b7aef312c21800deef121f1e76426a00665e5c4479674322d4f75edadd46debd5cd992f6ed090689d0585ff075ec9e99ad690c3395bc4b313370b38ef355acdadcd122975b12c85ea5db8c6deb4aab71808dcb408fe3d1e7690c43d37b4ce6cc0166fa7daa1ca0b77a372fe28f6a4a215d2ad218f14fb0bbba6c201cc52acfbf97d9b52e5ae351a03560ee202edf68b3321585b4575da1c1582604d38fdad474efa252677d71efa0",
                    "indexes": {
                        "data": 0,
                        "gas": 0,
                        "value": 0
                    }
                },
                {
                    "hash": "efd9c35f3565b5eb8ec99d7bae68f18b09a69c6946bd95b017ac0f1008c007a9",
                    "logs": "1dcc4de8dec75d7aab85b567b6ccd41ad312451b948a7413f0a142fd40d49347",
                    "txbytes": "0xf902260e0a83015f9094c305c901078781c232a2a521c2af7980f8385ee980b901c430c8d1da0000000000000000000000000000000000000000000000000000000000000020000000000000000000000000000000000000000000000000000000000000018000000000000000000000000000000000000000000000000000000000000000010000000000000000000000000000000000000000000000000000000000000002203e205db4f19b37b60121b83a7333706db86431c6d835849957ed8c3928ad7927dc7234fd11d3e8c36c59277c3e6f149d5cd3cfa9a62aee49f8130962b4b3b9195e8aa5b7827463722b8c153931579d3505566b4edf48d498e185f0509de15204bb53b8977e5f92a0bc372742c4830944a59b4fe6b1c0466e2a6dad122b5d2e030644e72e131a029b85045b68181585d97816a916871ca8d3c208c16d87cfd31a76dae6d3272396d0cbe61fced2bc532edac647851e3ac53ce1cc9c7e645a83198e9393920d483a7260bfb731fb5d25f1aa493335a9e71297e485b7aef312c21800deef121f1e76426a00665e5c4479674322d4f75edadd46debd5cd992f6ed090689d0585ff075ec9e99ad690c3395bc4b313370b38ef355acdadcd122975b12c85ea5db8c6deb4aab71808dcb408fe3d1e7690c43d37b4ce6cc0166fa7daa1ba0190f0071bdf47a316c7e21d1019bbbf8b9243336acaaccd221ed1d1b2af305fea0229a0511f2d27b7e7575afecdfd505e4df761f63bbc86fd2dfac0b2f24c3be73",
                    "indexes": {
                        "data": 0,
                        "gas": 1,
                        "value": 0
                    }
                },
                {
                    "hash": "011f13b27b389c0237ecb9de703e77d4f3d7502d4aed08e12197f78a00f2b6b6",
                    "logs": "1dcc4de8dec75d7aab85b567b6ccd41ad312451b948a7413f0a142fd40d49347",
                    "txbytes": "0xf902260e0a8301adb094c305c901078781c232a2a521c2af7980f8385ee980b901c430c8d1da0000000000000000000000000000000000000000000000000000000000000020000000000000000000000000000000000000000000000000000000000000018000000000000000000000000000000000000000000000000000000000000000010000000000000000000000000000000000000000000000000000000000000002203e205db4f19b37b60121b83a7333706db86431c6d835849957ed8c3928ad7927dc7234fd11d3e8c36c59277c3e6f149d5cd3cfa9a62aee49f8130962b4b3b9195e8aa5b7827463722b8c153931579d3505566b4edf48d498e185f0509de15204bb53b8977e5f92a0bc372742c4830944a59b4fe6b1c0466e2a6dad122b5d2e030644e72e131a029b85045b68181585d97816a916871ca8d3c208c16d87cfd31a76dae6d3272396d0cbe61fced2bc532edac647851e3ac53ce1cc9c7e645a83198e9393920d483a7260bfb731fb5d25f1aa493335a9e71297e485b7aef312c21800deef121f1e76426a00665e5c4479674322d4f75edadd46debd5cd992f6ed090689d0585ff075ec9e99ad690c3395bc4b313370b38ef355acdadcd122975b12c85ea5db8c6deb4aab71808dcb408fe3d1e7690c43d37b4ce6cc0166fa7daa1ca0db1ae85024637199c0197e02304d4eac357e27d4d9f5c63a2489a1df3376488ca03330ab862301ad7cac8743868537ef67c84f2732078b1a877cbd4656999b793f",
                    "indexes": {
                        "data": 0,
                        "gas": 2,
                        "value": 0
                    }
                },
                {
                    "hash": "dd7a9379d415e45c8215121cfa8d86d3e1a546b53d290a05ffd1ba1933071cd4",
                    "logs": "1dcc4de8dec75d7aab85b567b6ccd41ad312451b948a7413f0a142fd40d49347",
                    "txbytes": "0xf902260e0a83030d4094c305c901078781c232a2a521c2af7980f8385ee980b901c430c8d1da0000000000000000000000000000000000000000000000000000000000000020000000000000000000000000000000000000000000000000000000000000018000000000000000000000000000000000000000000000000000000000000000010000000000000000000000000000000000000000000000000000000000000002203e205db4f19b37b60121b83a7333706db86431c6d835849957ed8c3928ad7927dc7234fd11d3e8c36c59277c3e6f149d5cd3cfa9a62aee49f8130962b4b3b9195e8aa5b7827463722b8c153931579d3505566b4edf48d498e185f0509de15204bb53b8977e5f92a0bc372742c4830944a59b4fe6b1c0466e2a6dad122b5d2e030644e72e131a029b85045b68181585d97816a916871ca8d3c208c16d87cfd31a76dae6d3272396d0cbe61fced2bc532edac647851e3ac53ce1cc9c7e645a83198e9393920d483a7260bfb731fb5d25f1aa493335a9e71297e485b7aef312c21800deef121f1e76426a00665e5c4479674322d4f75edadd46debd5cd992f6ed090689d0585ff075ec9e99ad690c3395bc4b313370b38ef355acdadcd122975b12c85ea5db8c6deb4aab71808dcb408fe3d1e7690c43d37b4ce6cc0166fa7daa1ca064ac4fbf221787dac77bdbdfd168de36d36bd28ab6d4b7effe5d9d19b878efb1a061b4408d0c6c7cc386cde9b9665dccf2c3889f8b15e0c7b1ce4cd8dc527deeaa",
                    "indexes": {
                        "data": 0,
                        "gas": 3,
                        "value": 0
                    }
                }
            ]
        }
    }
}