{
    "ecpairing_two_point_fail_2": {
        "_info": {
            "comment": "Puts the given data into the ECPAIRING precompile",
            "filling-rpc-server": "evm version 1.10.16-unstable-0f893109-20220105",
            "filling-tool-version": "retesteth-0.2.2-testinfo+commit.01c6aac2.Linux.g++",
            "filledWith": "CoreGeth-1.12.9-unstable-f4059ddd82d975bdc54fa648e5422a80172161cb",
            "lllcversion": "Version: 0.5.14-develop.2021.11.27+commit.401d5358.Linux.g++",
            "source": "src/GeneralStateTestsFiller/stZeroKnowledge/ecpairing_two_point_fail_2Filler.json",
            "sourceHash": "2a8cd42858926b56d7b5d932745a805131140c5fb454b8fb10d2fbae20097b3d"
        },
        "env": {
            "currentCoinbase": "3535353535353535353535353535353535353535",
            "currentDifficulty": "0x20000",
            "currentRandom": null,
            "currentGasLimit": "0x5f5e100",
            "currentNumber": "0x1",
            "currentTimestamp": "0x3e8",
            "currentBaseFee": "0xa"
        },
        "pre": {
            "0x0000000000000000000000000000000000000001": {
                "balance": "0x1"
            },
            "0x0000000000000000000000000000000000000002": {
                "balance": "0x1"
            },
            "0x0000000000000000000000000000000000000003": {
                "balance": "0x1"
            },
            "0x0000000000000000000000000000000000000004": {
                "balance": "0x1"
            },
            "0x0000000000000000000000000000000000000005": {
                "balance": "0x1"
            },
            "0x0000000000000000000000000000000000000006": {
                "balance": "0x1"
            },
            "0x0000000000000000000000000000000000000007": {
                "balance": "0x1"
            },
            "0x0000000000000000000000000000000000000008": {
                "balance": "0x1"
            },
            "0x10a1c1cb95c92ec31d3f22c66eef1d9f3f258c6b": {
                "balance": "0xde0b6b3a7640000"
            },
            "0x13cbb8d99c6c4e0f2728c7d72606e78a29c4e224": {
                "balance": "0xde0b6b3a7640000"
            },
            "0x24143873e0e0815fdcbcffdbe09c979cbf9ad013": {
                "balance": "0xde0b6b3a7640000"
            },
            "0x3535353535353535353535353535353535353535": {
                "balance": "0x39a4d9"
            },
            "0x598443f1880ef585b21f1d7585bd0577402861e5": {
                "balance": "0xde0b6b3a7640000"
            },
            "0x77db2bebba79db42a978f896968f4afce746ea1f": {
                "balance": "0xde0b6b3a7640000"
            },
            "0x7d577a597b2742b498cb5cf0c26cdcd726d39e6e": {
                "balance": "0xde0b6b3a7640000"
            },
            "0x82a978b3f5962a5b0957d9ee9eef472ee55b42f1": {
                "balance": "0xde0b6b3a72a5b27",
                "nonce": "0x10"
            },
            "0x90f0b1ebbba1c1936aff7aaf20a7878ff9e04b6c": {
                "balance": "0xde0b6b3a7640000"
            },
            "0xc305c901078781c232a2a521c2af7980f8385ee9": {
                "code": "0x600035601c52740100000000000000000000000000000000000000006020526fffffffffffffffffffffffffffffffff6040527fffffffffffffffffffffffffffffffff000000000000000000000000000000016060527402540be3fffffffffffffffffffffffffdabf41c006080527ffffffffffffffffffffffffdabf41c00000000000000000000000002540be40060a0526330c8d1da600051141561012c576107806004356004013511151558576004356004013560200160043560040161014037602061092061014051610160600060086305f5e0fff11558576020610900526109006040806109608284600060046018f150505061096080516020820120905060005561096060206020820352604081510160206001820306601f820103905060208203f350005b",
                "storage": {
                    "0x0000000000000000000000000000000000000000000000000000000000000000": "0xb10e2d527612073b26eecdfd717e6a320cf44b4afac2b0732d9fcbe2b7fa0cf6"
                },
                "balance": "0x0",
                "nonce": "0x1"
            },
            "0xdceceaf3fc5c0a63d195d69b1a90011b7b19650d": {
                "balance": "0xde0b6b3a7640000"
            },
            "0xe0fc04fa2d34a66b779fd5cee748268032a146c0": {
                "balance": "0xde0b6b3a7640000"
            }
        },
        "transaction": {
            "gasPrice": "0xa",
            "maxFeePerGas": null,
            "maxPriorityFeePerGas": null,
            "nonce": "0x10",
            "to": "0xc305c901078781c232a2a521c2af7980f8385ee9",
            "data": [
                "0x30c8d1da00000000000000000000000000000000000000000000000000000000000000200000000000000000000000000000000000000000000000000000000000000180105456a333e6d636854f987ea7bb713dfd0ae8371a72aea313ae0c32c0bf10160cf031d41b41557f3e7e3ba0c51bebe5da8e6ecd855ec50fc87efcdeac168bcc0476be093a6d2b4bbf907172049874af11e1b6267606e00804d3ff0037ec57fd3010c68cb50161b7d1d96bb71edfec9880171954e56871abf3d93cc94d745fa114c059d74e5b6c4ec14ae5864ebe23a71781d86c29fb8fb6cce94f70d3de7a2101b33461f39d9e887dbb100f170a2345dde3c07e256d1dfa2b657ba5cd03042700000000000000000000000000000000000000000000000000000000000000010000000000000000000000000000000000000000000000000000000000000002105384b6dd6c48634b9fe89cb3e19667c1fe6736c69df070d674c95a42b3b8242c0d8e67f0f2c14c43734b430d8be4265af8c4f7a67deb0b029fd2dff99cc6b9015eaec465d922580c7de5d4a5c26de75eaf2af6841b7412ef2eebd1e051076f1b4c21849e48de12d1bae2bad3299717aa8664ade430e19dec72a6e10a39b0ab"
            ],
            "gasLimit": [
                "0x517e8",
                "0x15f90",
                "0x1adb0",
                "0x222e0"
            ],
            "value": [
                "0x00"
            ],
            "secretKey": "0x044852b2a670ade5407e78fb2863c51de9fcb96542a07186fe3aeda6bb8a116d"
        },
        "out": "0x",
        "post": {
            "ETC_Magneto": [
                {
                    "hash": "b8abbaf637646cefe1f57ea6e3b4fb7f12529e4045c9d2b464c808edf9ca4617",
                    "logs": "1dcc4de8dec75d7aab85b567b6ccd41ad312451b948a7413f0a142fd40d49347",
                    "txbytes": "0xf90226100a830517e894c305c901078781c232a2a521c2af7980f8385ee980b901c430c8d1da00000000000000000000000000000000000000000000000000000000000000200000000000000000000000000000000000000000000000000000000000000180105456a333e6d636854f987ea7bb713dfd0ae8371a72aea313ae0c32c0bf10160cf031d41b41557f3e7e3ba0c51bebe5da8e6ecd855ec50fc87efcdeac168bcc0476be093a6d2b4bbf907172049874af11e1b6267606e00804d3ff0037ec57fd3010c68cb50161b7d1d96bb71edfec9880171954e56871abf3d93cc94d745fa114c059d74e5b6c4ec14ae5864ebe23a71781d86c29fb8fb6cce94f70d3de7a2101b33461f39d9e887dbb100f170a2345dde3c07e256d1dfa2b657ba5cd03042700000000000000000000000000000000000000000000000000000000000000010000000000000000000000000000000000000000000000000000000000000002105384b6dd6c48634b9fe89cb3e19667c1fe6736c69df070d674c95a42b3b8242c0d8e67f0f2c14c43734b430d8be4265af8c4f7a67deb0b029fd2dff99cc6b9015eaec465d922580c7de5d4a5c26de75eaf2af6841b7412ef2eebd1e051076f1b4c21849e48de12d1bae2bad3299717aa8664ade430e19dec72a6e10a39b0ab1ba086cc834cab6ff07efe442876ecbcec750633bd8ed4cd06311c00608076be0f3ba075d2aa07f3a4f929e0d23e4a108f41686fdf94a9b6c247f205c485efee01f429",
                    "indexes": {
                        "data": 0,
                        "gas": 0,
                        "value": 0
                    }
                },
                {
                    "hash": "2c0e9e1605e1a49e986342cd178c19c4a77317571da0edfb536362fcdfea221a",
                    "logs": "1dcc4de8dec75d7aab85b567b6ccd41ad312451b948a7413f0a142fd40d49347",
                    "txbytes": "0xf90226100a83015f9094c305c901078781c232a2a521c2af7980f8385ee980b901c430c8d1da00000000000000000000000000000000000000000000000000000000000000200000000000000000000000000000000000000000000000000000000000000180105456a333e6d636854f987ea7bb713dfd0ae8371a72aea313ae0c32c0bf10160cf031d41b41557f3e7e3ba0c51bebe5da8e6ecd855ec50fc87efcdeac168bcc0476be093a6d2b4bbf907172049874af11e1b6267606e00804d3ff0037ec57fd3010c68cb50161b7d1d96bb71edfec9880171954e56871abf3d93cc94d745fa114c059d74e5b6c4ec14ae5864ebe23a71781d86c29fb8fb6cce94f70d3de7a2101b33461f39d9e887dbb100f170a2345dde3c07e256d1dfa2b657ba5cd03042700000000000000000000000000000000000000000000000000000000000000010000000000000000000000000000000000000000000000000000000000000002105384b6dd6c48634b9fe89cb3e19667c1fe6736c69df070d674c95a42b3b8242c0d8e67f0f2c14c43734b430d8be4265af8c4f7a67deb0b029fd2dff99cc6b9015eaec465d922580c7de5d4a5c26de75eaf2af6841b7412ef2eebd1e051076f1b4c21849e48de12d1bae2bad3299717aa8664ade430e19dec72a6e10a39b0ab1ba01e9b505ddf5ee2a9db42635cec20a639c922e634892eda9f7c50a568e94329c8a0525fbd4126526eb20b6af30952c897a6d7bb7adb5c3d354454950268d1c7a5d3",
                    "indexes": {
                        "data": 0,
                        "gas": 1,
                        "value": 0
                    }
                },
                {
                    "hash": "e0165080c364cf5d86ace4b934e414941f25890bdb079f0bc2ee0b7f975d8ea6",
                    "logs": "1dcc4de8dec75d7aab85b567b6ccd41ad312451b948a7413f0a142fd40d49347",
                    "txbytes": "0xf90226100a8301adb094c305c901078781c232a2a521c2af7980f8385ee980b901c430c8d1da00000000000000000000000000000000000000000000000000000000000000200000000000000000000000000000000000000000000000000000000000000180105456a333e6d636854f987ea7bb713dfd0ae8371a72aea313ae0c32c0bf10160cf031d41b41557f3e7e3ba0c51bebe5da8e6ecd855ec50fc87efcdeac168bcc0476be093a6d2b4bbf907172049874af11e1b6267606e00804d3ff0037ec57fd3010c68cb50161b7d1d96bb71edfec9880171954e56871abf3d93cc94d745fa114c059d74e5b6c4ec14ae5864ebe23a71781d86c29fb8fb6cce94f70d3de7a2101b33461f39d9e887dbb100f170a2345dde3c07e256d1dfa2b657ba5cd03042700000000000000000000000000000000000000000000000000000000000000010000000000000000000000000000000000000000000000000000000000000002105384b6dd6c48634b9fe89cb3e19667c1fe6736c69df070d674c95a42b3b8242c0d8e67f0f2c14c43734b430d8be4265af8c4f7a67deb0b029fd2dff99cc6b9015eaec465d922580c7de5d4a5c26de75eaf2af6841b7412ef2eebd1e051076f1b4c21849e48de12d1bae2bad3299717aa8664ade430e19dec72a6e10a39b0ab1ba0a13d2b1233bbe400b2bd50c85316089cdd5b7f8a34d039920618b4972df5a413a036d8d5a311bcc5a5873a3d02be7159c6552b4fee1b4b5f2393c685cf5909f62b",
                    "indexes": {
                        "data": 0,
                        "gas": 2,
                        "value": 0
                    }
                },
                {
                    "hash": "d84b10bd271d8cd1c95d2fcafdbc8d1c8c9fd5ebaa740d17a87d65574ef8c3f6",
                    "logs": "1dcc4de8dec75d7aab85b567b6ccd41ad312451b948a7413f0a142fd40d49347",
                    "txbytes": "0xf90226100a830222e094c305c901078781c232a2a521c2af7980f8385ee980b901c430c8d1da00000000000000000000000000000000000000000000000000000000000000200000000000000000000000000000000000000000000000000000000000000180105456a333e6d636854f987ea7bb713dfd0ae8371a72aea313ae0c32c0bf10160cf031d41b41557f3e7e3ba0c51bebe5da8e6ecd855ec50fc87efcdeac168bcc0476be093a6d2b4bbf907172049874af11e1b6267606e00804d3ff0037ec57fd3010c68cb50161b7d1d96bb71edfec9880171954e56871abf3d93cc94d745fa114c059d74e5b6c4ec14ae5864ebe23a71781d86c29fb8fb6cce94f70d3de7a2101b33461f39d9e887dbb100f170a2345dde3c07e256d1dfa2b657ba5cd03042700000000000000000000000000000000000000000000000000000000000000010000000000000000000000000000000000000000000000000000000000000002105384b6dd6c48634b9fe89cb3e19667c1fe6736c69df070d674c95a42b3b8242c0d8e67f0f2c14c43734b430d8be4265af8c4f7a67deb0b029fd2dff99cc6b9015eaec465d922580c7de5d4a5c26de75eaf2af6841b7412ef2eebd1e051076f1b4c21849e48de12d1bae2bad3299717aa8664ade430e19dec72a6e10a39b0ab1ba0b2bf70b720dc32984e8b93163673f571e483898d4ba48cdb3340b7d4bece8176a04e3cb61426ad15e5342ee11cb0b08634e876f82b4c5f593d811174c4aa3a716c",
                    "indexes": {
                        "data": 0,
                        "gas": 3,
                        "value": 0
                    }
                }
            ],
            "ETC_Mystique": [
                {
                    "hash": "b8abbaf637646cefe1f57ea6e3b4fb7f12529e4045c9d2b464c808edf9ca4617",
                    "logs": "1dcc4de8dec75d7aab85b567b6ccd41ad312451b948a7413f0a142fd40d49347",
                    "txbytes": "0xf90226100a830517e894c305c901078781c232a2a521c2af7980f8385ee980b901c430c8d1da00000000000000000000000000000000000000000000000000000000000000200000000000000000000000000000000000000000000000000000000000000180105456a333e6d636854f987ea7bb713dfd0ae8371a72aea313ae0c32c0bf10160cf031d41b41557f3e7e3ba0c51bebe5da8e6ecd855ec50fc87efcdeac168bcc0476be093a6d2b4bbf907172049874af11e1b6267606e00804d3ff0037ec57fd3010c68cb50161b7d1d96bb71edfec9880171954e56871abf3d93cc94d745fa114c059d74e5b6c4ec14ae5864ebe23a71781d86c29fb8fb6cce94f70d3de7a2101b33461f39d9e887dbb100f170a2345dde3c07e256d1dfa2b657ba5cd03042700000000000000000000000000000000000000000000000000000000000000010000000000000000000000000000000000000000000000000000000000000002105384b6dd6c48634b9fe89cb3e19667c1fe6736c69df070d674c95a42b3b8242c0d8e67f0f2c14c43734b430d8be4265af8c4f7a67deb0b029fd2dff99cc6b9015eaec465d922580c7de5d4a5c26de75eaf2af6841b7412ef2eebd1e051076f1b4c21849e48de12d1bae2bad3299717aa8664ade430e19dec72a6e10a39b0ab1ba086cc834cab6ff07efe442876ecbcec750633bd8ed4cd06311c00608076be0f3ba075d2aa07f3a4f929e0d23e4a108f41686fdf94a9b6c247f205c485efee01f429",
                    "indexes": {
                        "data": 0,
                        "gas": 0,
                        "value": 0
                    }
                },
                {
                    "hash": "2c0e9e1605e1a49e986342cd178c19c4a77317571da0edfb536362fcdfea221a",
                    "logs": "1dcc4de8dec75d7aab85b567b6ccd41ad312451b948a7413f0a142fd40d49347",
                    "txbytes": "0xf90226100a83015f9094c305c901078781c232a2a521c2af7980f8385ee980b901c430c8d1da00000000000000000000000000000000000000000000000000000000000000200000000000000000000000000000000000000000000000000000000000000180105456a333e6d636854f987ea7bb713dfd0ae8371a72aea313ae0c32c0bf10160cf031d41b41557f3e7e3ba0c51bebe5da8e6ecd855ec50fc87efcdeac168bcc0476be093a6d2b4bbf907172049874af11e1b6267606e00804d3ff0037ec57fd3010c68cb50161b7d1d96bb71edfec9880171954e56871abf3d93cc94d745fa114c059d74e5b6c4ec14ae5864ebe23a71781d86c29fb8fb6cce94f70d3de7a2101b33461f39d9e887dbb100f170a2345dde3c07e256d1dfa2b657ba5cd03042700000000000000000000000000000000000000000000000000000000000000010000000000000000000000000000000000000000000000000000000000000002105384b6dd6c48634b9fe89cb3e19667c1fe6736c69df070d674c95a42b3b8242c0d8e67f0f2c14c43734b430d8be4265af8c4f7a67deb0b029fd2dff99cc6b9015eaec465d922580c7de5d4a5c26de75eaf2af6841b7412ef2eebd1e051076f1b4c21849e48de12d1bae2bad3299717aa8664ade430e19dec72a6e10a39b0ab1ba01e9b505ddf5ee2a9db42635cec20a639c922e634892eda9f7c50a568e94329c8a0525fbd4126526eb20b6af30952c897a6d7bb7adb5c3d354454950268d1c7a5d3",
                    "indexes": {
                        "data": 0,
                        "gas": 1,
                        "value": 0
                    }
                },
                {
                    "hash": "e0165080c364cf5d86ace4b934e414941f25890bdb079f0bc2ee0b7f975d8ea6",
                    "logs": "1dcc4de8dec75d7aab85b567b6ccd41ad312451b948a7413f0a142fd40d49347",
                    "txbytes": "0xf90226100a8301adb094c305c901078781c232a2a521c2af7980f8385ee980b901c430c8d1da00000000000000000000000000000000000000000000000000000000000000200000000000000000000000000000000000000000000000000000000000000180105456a333e6d636854f987ea7bb713dfd0ae8371a72aea313ae0c32c0bf10160cf031d41b41557f3e7e3ba0c51bebe5da8e6ecd855ec50fc87efcdeac168bcc0476be093a6d2b4bbf907172049874af11e1b6267606e00804d3ff0037ec57fd3010c68cb50161b7d1d96bb71edfec9880171954e56871abf3d93cc94d745fa114c059d74e5b6c4ec14ae5864ebe23a71781d86c29fb8fb6cce94f70d3de7a2101b33461f39d9e887dbb100f170a2345dde3c07e256d1dfa2b657ba5cd03042700000000000000000000000000000000000000000000000000000000000000010000000000000000000000000000000000000000000000000000000000000002105384b6dd6c48634b9fe89cb3e19667c1fe6736c69df070d674c95a42b3b8242c0d8e67f0f2c14c43734b430d8be4265af8c4f7a67deb0b029fd2dff99cc6b9015eaec465d922580c7de5d4a5c26de75eaf2af6841b7412ef2eebd1e051076f1b4c21849e48de12d1bae2bad3299717aa8664ade430e19dec72a6e10a39b0ab1ba0a13d2b1233bbe400b2bd50c85316089cdd5b7f8a34d039920618b4972df5a413a036d8d5a311bcc5a5873a3d02be7159c6552b4fee1b4b5f2393c685cf5909f62b",
                    "indexes": {
                        "data": 0,
                        "gas": 2,
                        "value": 0
                    }
                },
                {
                    "hash": "d84b10bd271d8cd1c95d2fcafdbc8d1c8c9fd5ebaa740d17a87d65574ef8c3f6",
                    "logs": "1dcc4de8dec75d7aab85b567b6ccd41ad312451b948a7413f0a142fd40d49347",
                    "txbytes": "0xf90226100a830222e094c305c901078781c232a2a521c2af7980f8385ee980b901c430c8d1da00000000000000000000000000000000000000000000000000000000000000200000000000000000000000000000000000000000000000000000000000000180105456a333e6d636854f987ea7bb713dfd0ae8371a72aea313ae0c32c0bf10160cf031d41b41557f3e7e3ba0c51bebe5da8e6ecd855ec50fc87efcdeac168bcc0476be093a6d2b4bbf907172049874af11e1b6267606e00804d3ff0037ec57fd3010c68cb50161b7d1d96bb71edfec9880171954e56871abf3d93cc94d745fa114c059d74e5b6c4ec14ae5864ebe23a71781d86c29fb8fb6cce94f70d3de7a2101b33461f39d9e887dbb100f170a2345dde3c07e256d1dfa2b657ba5cd03042700000000000000000000000000000000000000000000000000000000000000010000000000000000000000000000000000000000000000000000000000000002105384b6dd6c48634b9fe89cb3e19667c1fe6736c69df070d674c95a42b3b8242c0d8e67f0f2c14c43734b430d8be4265af8c4f7a67deb0b029fd2dff99cc6b9015eaec465d922580c7de5d4a5c26de75eaf2af6841b7412ef2eebd1e051076f1b4c21849e48de12d1bae2bad3299717aa8664ade430e19dec72a6e10a39b0ab1ba0b2bf70b720dc32984e8b93163673f571e483898d4ba48cdb3340b7d4bece8176a04e3cb61426ad15e5342ee11cb0b08634e876f82b4c5f593d811174c4aa3a716c",
                    "indexes": {
                        "data": 0,
                        "gas": 3,
                        "value": 0
                    }
                }
            ],
            "ETC_Phoenix": [
                {
                    "hash": "383e3d2adbffc1cf9614e3639f33f0a9269f7734f29b7120ee6c914a82d822df",
                    "logs": "1dcc4de8dec75d7aab85b567b6ccd41ad312451b948a7413f0a142fd40d49347",
                    "txbytes": "0xf90226100a830517e894c305c901078781c232a2a521c2af7980f8385ee980b901c430c8d1da00000000000000000000000000000000000000000000000000000000000000200000000000000000000000000000000000000000000000000000000000000180105456a333e6d636854f987ea7bb713dfd0ae8371a72aea313ae0c32c0bf10160cf031d41b41557f3e7e3ba0c51bebe5da8e6ecd855ec50fc87efcdeac168bcc0476be093a6d2b4bbf907172049874af11e1b6267606e00804d3ff0037ec57fd3010c68cb50161b7d1d96bb71edfec9880171954e56871abf3d93cc94d745fa114c059d74e5b6c4ec14ae5864ebe23a71781d86c29fb8fb6cce94f70d3de7a2101b33461f39d9e887dbb100f170a2345dde3c07e256d1dfa2b657ba5cd03042700000000000000000000000000000000000000000000000000000000000000010000000000000000000000000000000000000000000000000000000000000002105384b6dd6c48634b9fe89cb3e19667c1fe6736c69df070d674c95a42b3b8242c0d8e67f0f2c14c43734b430d8be4265af8c4f7a67deb0b029fd2dff99cc6b9015eaec465d922580c7de5d4a5c26de75eaf2af6841b7412ef2eebd1e051076f1b4c21849e48de12d1bae2bad3299717aa8664ade430e19dec72a6e10a39b0ab1ba086cc834cab6ff07efe442876ecbcec750633bd8ed4cd06311c00608076be0f3ba075d2aa07f3a4f929e0d23e4a108f41686fdf94a9b6c247f205c485efee01f429",
                    "indexes": {
                        "data": 0,
                        "gas": 0,
                        "value": 0
                    }
                },
                {
                    "hash": "2c0e9e1605e1a49e986342cd178c19c4a77317571da0edfb536362fcdfea221a",
                    "logs": "1dcc4de8dec75d7aab85b567b6ccd41ad312451b948a7413f0a142fd40d49347",
                    "txbytes": "0xf90226100a83015f9094c305c901078781c232a2a521c2af7980f8385ee980b901c430c8d1da00000000000000000000000000000000000000000000000000000000000000200000000000000000000000000000000000000000000000000000000000000180105456a333e6d636854f987ea7bb713dfd0ae8371a72aea313ae0c32c0bf10160cf031d41b41557f3e7e3ba0c51bebe5da8e6ecd855ec50fc87efcdeac168bcc0476be093a6d2b4bbf907172049874af11e1b6267606e00804d3ff0037ec57fd3010c68cb50161b7d1d96bb71edfec9880171954e56871abf3d93cc94d745fa114c059d74e5b6c4ec14ae5864ebe23a71781d86c29fb8fb6cce94f70d3de7a2101b33461f39d9e887dbb100f170a2345dde3c07e256d1dfa2b657ba5cd03042700000000000000000000000000000000000000000000000000000000000000010000000000000000000000000000000000000000000000000000000000000002105384b6dd6c48634b9fe89cb3e19667c1fe6736c69df070d674c95a42b3b8242c0d8e67f0f2c14c43734b430d8be4265af8c4f7a67deb0b029fd2dff99cc6b9015eaec465d922580c7de5d4a5c26de75eaf2af6841b7412ef2eebd1e051076f1b4c21849e48de12d1bae2bad3299717aa8664ade430e19dec72a6e10a39b0ab1ba01e9b505ddf5ee2a9db42635cec20a639c922e634892eda9f7c50a568e94329c8a0525fbd4126526eb20b6af30952c897a6d7bb7adb5c3d354454950268d1c7a5d3",
                    "indexes": {
                        "data": 0,
                        "gas": 1,
                        "value": 0
                    }
                },
                {
                    "hash": "e0165080c364cf5d86ace4b934e414941f25890bdb079f0bc2ee0b7f975d8ea6",
                    "logs": "1dcc4de8dec75d7aab85b567b6ccd41ad312451b948a7413f0a142fd40d49347",
                    "txbytes": "0xf90226100a8301adb094c305c901078781c232a2a521c2af7980f8385ee980b901c430c8d1da00000000000000000000000000000000000000000000000000000000000000200000000000000000000000000000000000000000000000000000000000000180105456a333e6d636854f987ea7bb713dfd0ae8371a72aea313ae0c32c0bf10160cf031d41b41557f3e7e3ba0c51bebe5da8e6ecd855ec50fc87efcdeac168bcc0476be093a6d2b4bbf907172049874af11e1b6267606e00804d3ff0037ec57fd3010c68cb50161b7d1d96bb71edfec9880171954e56871abf3d93cc94d745fa114c059d74e5b6c4ec14ae5864ebe23a71781d86c29fb8fb6cce94f70d3de7a2101b33461f39d9e887dbb100f170a2345dde3c07e256d1dfa2b657ba5cd03042700000000000000000000000000000000000000000000000000000000000000010000000000000000000000000000000000000000000000000000000000000002105384b6dd6c48634b9fe89cb3e19667c1fe6736c69df070d674c95a42b3b8242c0d8e67f0f2c14c43734b430d8be4265af8c4f7a67deb0b029fd2dff99cc6b9015eaec465d922580c7de5d4a5c26de75eaf2af6841b7412ef2eebd1e051076f1b4c21849e48de12d1bae2bad3299717aa8664ade430e19dec72a6e10a39b0ab1ba0a13d2b1233bbe400b2bd50c85316089cdd5b7f8a34d039920618b4972df5a413a036d8d5a311bcc5a5873a3d02be7159c6552b4fee1b4b5f2393c685cf5909f62b",
                    "indexes": {
                        "data": 0,
                        "gas": 2,
                        "value": 0
                    }
                },
                {
                    "hash": "d84b10bd271d8cd1c95d2fcafdbc8d1c8c9fd5ebaa740d17a87d65574ef8c3f6",
                    "logs": "1dcc4de8dec75d7aab85b567b6ccd41ad312451b948a7413f0a142fd40d49347",
                    "txbytes": "0xf90226100a830222e094c305c901078781c232a2a521c2af7980f8385ee980b901c430c8d1da00000000000000000000000000000000000000000000000000000000000000200000000000000000000000000000000000000000000000000000000000000180105456a333e6d636854f987ea7bb713dfd0ae8371a72aea313ae0c32c0bf10160cf031d41b41557f3e7e3ba0c51bebe5da8e6ecd855ec50fc87efcdeac168bcc0476be093a6d2b4bbf907172049874af11e1b6267606e00804d3ff0037ec57fd3010c68cb50161b7d1d96bb71edfec9880171954e56871abf3d93cc94d745fa114c059d74e5b6c4ec14ae5864ebe23a71781d86c29fb8fb6cce94f70d3de7a2101b33461f39d9e887dbb100f170a2345dde3c07e256d1dfa2b657ba5cd03042700000000000000000000000000000000000000000000000000000000000000010000000000000000000000000000000000000000000000000000000000000002105384b6dd6c48634b9fe89cb3e19667c1fe6736c69df070d674c95a42b3b8242c0d8e67f0f2c14c43734b430d8be4265af8c4f7a67deb0b029fd2dff99cc6b9015eaec465d922580c7de5d4a5c26de75eaf2af6841b7412ef2eebd1e051076f1b4c21849e48de12d1bae2bad3299717aa8664ade430e19dec72a6e10a39b0ab1ba0b2bf70b720dc32984e8b93163673f571e483898d4ba48cdb3340b7d4bece8176a04e3cb61426ad15e5342ee11cb0b08634e876f82b4c5f593d811174c4aa3a716c",
                    "indexes": {
                        "data": 0,
                        "gas": 3,
                        "value": 0
                    }
                }
            ]
        }
    }
}