{
    "ecpairing_empty_data_insufficient_gas": {
        "_info": {
            "comment": "Puts the given data into the ECPAIRING precompile",
            "filling-rpc-server": "evm version 1.10.16-unstable-0f893109-20220105",
            "filling-tool-version": "retesteth-0.2.2-testinfo+commit.01c6aac2.Linux.g++",
            "filledWith": "CoreGeth-1.12.9-unstable-d64998ce9b05f4f41b35740c69c4b402e41a3105",
            "lllcversion": "Version: 0.5.14-develop.2021.11.27+commit.401d5358.Linux.g++",
            "source": "src/GeneralStateTestsFiller/stZeroKnowledge/ecpairing_empty_data_insufficient_gasFiller.json",
            "sourceHash": "48f443ced0408a808cedbbee2317b1ee23fabcfe8bbe781554fa56799190616d"
        },
        "env": {
            "currentCoinbase": "0x3535353535353535353535353535353535353535",
            "currentDifficulty": "0x20000",
            "currentGasLimit": "0x5f5e100",
            "currentNumber": "0x1",
            "currentTimestamp": "0x3e8",
            "previousHash": "0xc6745cf3cada515bbfb9573261c82547e0b8f9e3d5dd382e464704a84e47b5ad"
        },
        "pre": {
            "0x0000000000000000000000000000000000000001": {
                "balance": "0x1"
            },
            "0x0000000000000000000000000000000000000002": {
                "balance": "0x1"
            },
            "0x0000000000000000000000000000000000000003": {
                "balance": "0x1"
            },
            "0x0000000000000000000000000000000000000004": {
                "balance": "0x1"
            },
            "0x0000000000000000000000000000000000000005": {
                "balance": "0x1"
            },
            "0x0000000000000000000000000000000000000006": {
                "balance": "0x1"
            },
            "0x0000000000000000000000000000000000000007": {
                "balance": "0x1"
            },
            "0x0000000000000000000000000000000000000008": {
                "balance": "0x1"
            },
            "0x10a1c1cb95c92ec31d3f22c66eef1d9f3f258c6b": {
                "balance": "0xde0b6b3a7640000"
            },
            "0x13cbb8d99c6c4e0f2728c7d72606e78a29c4e224": {
                "balance": "0xde0b6b3a7640000"
            },
            "0x24143873e0e0815fdcbcffdbe09c979cbf9ad013": {
                "balance": "0xde0b6b3a7640000"
            },
            "0x3535353535353535353535353535353535353535": {
                "balance": "0x2027a"
            },
            "0x598443f1880ef585b21f1d7585bd0577402861e5": {
                "balance": "0xde0b6b3a7640000"
            },
            "0x77db2bebba79db42a978f896968f4afce746ea1f": {
                "balance": "0xde0b6b3a7640000"
            },
            "0x7d577a597b2742b498cb5cf0c26cdcd726d39e6e": {
                "balance": "0xde0b6b3a7640000"
            },
            "0x82a978b3f5962a5b0957d9ee9eef472ee55b42f1": {
                "balance": "0xde0b6b3a761fd86",
                "nonce": "0x1"
            },
            "0x90f0b1ebbba1c1936aff7aaf20a7878ff9e04b6c": {
                "balance": "0xde0b6b3a7640000"
            },
            "0xc305c901078781c232a2a521c2af7980f8385ee9": {
                "code": "0x600035601c52740100000000000000000000000000000000000000006020526fffffffffffffffffffffffffffffffff6040527fffffffffffffffffffffffffffffffff000000000000000000000000000000016060527402540be3fffffffffffffffffffffffffdabf41c006080527ffffffffffffffffffffffffdabf41c00000000000000000000000002540be40060a0526330c8d1da600051141561012c576107806004356004013511151558576004356004013560200160043560040161014037602061092061014051610160600060086305f5e0fff11558576020610900526109006040806109608284600060046018f150505061096080516020820120905060005561096060206020820352604081510160206001820306601f820103905060208203f350005b",
                "balance": "0x0",
                "nonce": "0x1"
            },
            "0xdceceaf3fc5c0a63d195d69b1a90011b7b19650d": {
                "balance": "0xde0b6b3a7640000"
            },
            "0xe0fc04fa2d34a66b779fd5cee748268032a146c0": {
                "balance": "0xde0b6b3a7640000"
            }
        },
        "transaction": {
            "gasPrice": "0xa",
            "nonce": "0x1",
            "to": "0xc305c901078781c232a2a521c2af7980f8385ee9",
            "data": [
                "0x30c8d1da00000000000000000000000000000000000000000000000000000000000000200000000000000000000000000000000000000000000000000000000000000000"
            ],
            "gasLimit": [
                "0x9c40",
                "0x13880",
                "0x249f0"
            ],
            "value": [
                "0x00"
            ],
            "secretKey": "0x044852b2a670ade5407e78fb2863c51de9fcb96542a07186fe3aeda6bb8a116d",
            "sender": "0x82a978b3f5962a5b0957d9ee9eef472ee55b42f1"
        },
        "post": {
            "ETC_Magneto": [
                {
                    "hash": "be053322c857a21aeed6655a0959af48db2e9ef5ab99505729b2c46ff4d21384",
                    "logs": "1dcc4de8dec75d7aab85b567b6ccd41ad312451b948a7413f0a142fd40d49347",
                    "txbytes": "0xf8a4010a829c4094c305c901078781c232a2a521c2af7980f8385ee980b84430c8d1da000000000000000000000000000000000000000000000000000000000000002000000000000000000000000000000000000000000000000000000000000000001ca0d38799e0dc379d53ff710d483c2af9cebece7196881ed2044b47d57af3c1781aa00d9bd779c7f0477f177945ad916c309e79f065705ffc1879d59cb90aa61875cf",
                    "indexes": {
                        "data": 0,
                        "gas": 0,
                        "value": 0
                    }
                },
                {
                    "hash": "5f5a872a81102e315d5d0066bcc13f0e2c92da859c065efc4407ae2ac5b38f8a",
                    "logs": "1dcc4de8dec75d7aab85b567b6ccd41ad312451b948a7413f0a142fd40d49347",
                    "txbytes": "0xf8a5010a8301388094c305c901078781c232a2a521c2af7980f8385ee980b84430c8d1da000000000000000000000000000000000000000000000000000000000000002000000000000000000000000000000000000000000000000000000000000000001ca0784c186861fde65018653e125ee3aa1cef8a124e2e54e1683ac5228a2d19c711a07e18d8536c963b2339cde31b2b921ee43760326c49259ac7bc853fbaf48dfb02",
                    "indexes": {
                        "data": 0,
                        "gas": 1,
                        "value": 0
                    }
                },
                {
                    "hash": "e79fec146a655e1f71f39f390dbd527df0de71daa2f860993dc1e60a0601a474",
                    "logs": "1dcc4de8dec75d7aab85b567b6ccd41ad312451b948a7413f0a142fd40d49347",
                    "txbytes": "0xf8a5010a830249f094c305c901078781c232a2a521c2af7980f8385ee980b84430c8d1da000000000000000000000000000000000000000000000000000000000000002000000000000000000000000000000000000000000000000000000000000000001ba09653902ade4f13be960edcdb18532c6b62ba2d4fe0476a56e34bdb1c734dc1d0a02e0dc713385275bf0974de46235fc193f4f739bbe7143424ce663e1714be4377",
                    "indexes": {
                        "data": 0,
                        "gas": 2,
                        "value": 0
                    }
                }
            ],
            "ETC_Mystique": [
                {
                    "hash": "be053322c857a21aeed6655a0959af48db2e9ef5ab99505729b2c46ff4d21384",
                    "logs": "1dcc4de8dec75d7aab85b567b6ccd41ad312451b948a7413f0a142fd40d49347",
                    "txbytes": "0xf8a4010a829c4094c305c901078781c232a2a521c2af7980f8385ee980b84430c8d1da000000000000000000000000000000000000000000000000000000000000002000000000000000000000000000000000000000000000000000000000000000001ca0d38799e0dc379d53ff710d483c2af9cebece7196881ed2044b47d57af3c1781aa00d9bd779c7f0477f177945ad916c309e79f065705ffc1879d59cb90aa61875cf",
                    "indexes": {
                        "data": 0,
                        "gas": 0,
                        "value": 0
                    }
                },
                {
                    "hash": "5f5a872a81102e315d5d0066bcc13f0e2c92da859c065efc4407ae2ac5b38f8a",
                    "logs": "1dcc4de8dec75d7aab85b567b6ccd41ad312451b948a7413f0a142fd40d49347",
                    "txbytes": "0xf8a5010a8301388094c305c901078781c232a2a521c2af7980f8385ee980b84430c8d1da000000000000000000000000000000000000000000000000000000000000002000000000000000000000000000000000000000000000000000000000000000001ca0784c186861fde65018653e125ee3aa1cef8a124e2e54e1683ac5228a2d19c711a07e18d8536c963b2339cde31b2b921ee43760326c49259ac7bc853fbaf48dfb02",
                    "indexes": {
                        "data": 0,
                        "gas": 1,
                        "value": 0
                    }
                },
                {
                    "hash": "e79fec146a655e1f71f39f390dbd527df0de71daa2f860993dc1e60a0601a474",
                    "logs": "1dcc4de8dec75d7aab85b567b6ccd41ad312451b948a7413f0a142fd40d49347",
                    "txbytes": "0xf8a5010a830249f094c305c901078781c232a2a521c2af7980f8385ee980b84430c8d1da000000000000000000000000000000000000000000000000000000000000002000000000000000000000000000000000000000000000000000000000000000001ba09653902ade4f13be960edcdb18532c6b62ba2d4fe0476a56e34bdb1c734dc1d0a02e0dc713385275bf0974de46235fc193f4f739bbe7143424ce663e1714be4377",
                    "indexes": {
                        "data": 0,
                        "gas": 2,
                        "value": 0
                    }
                }
            ],
            "ETC_Phoenix": [
                {
                    "hash": "be053322c857a21aeed6655a0959af48db2e9ef5ab99505729b2c46ff4d21384",
                    "logs": "1dcc4de8dec75d7aab85b567b6ccd41ad312451b948a7413f0a142fd40d49347",
                    "txbytes": "0xf8a4010a829c4094c305c901078781c232a2a521c2af7980f8385ee980b84430c8d1da000000000000000000000000000000000000000000000000000000000000002000000000000000000000000000000000000000000000000000000000000000001ca0d38799e0dc379d53ff710d483c2af9cebece7196881ed2044b47d57af3c1781aa00d9bd779c7f0477f177945ad916c309e79f065705ffc1879d59cb90aa61875cf",
                    "indexes": {
                        "data": 0,
                        "gas": 0,
                        "value": 0
                    }
                },
                {
                    "hash": "5f5a872a81102e315d5d0066bcc13f0e2c92da859c065efc4407ae2ac5b38f8a",
                    "logs": "1dcc4de8dec75d7aab85b567b6ccd41ad312451b948a7413f0a142fd40d49347",
                    "txbytes": "0xf8a5010a8301388094c305c901078781c232a2a521c2af7980f8385ee980b84430c8d1da000000000000000000000000000000000000000000000000000000000000002000000000000000000000000000000000000000000000000000000000000000001ca0784c186861fde65018653e125ee3aa1cef8a124e2e54e1683ac5228a2d19c711a07e18d8536c963b2339cde31b2b921ee43760326c49259ac7bc853fbaf48dfb02",
                    "indexes": {
                        "data": 0,
                        "gas": 1,
                        "value": 0
                    }
                },
                {
                    "hash": "8a74db79fd6790bab83afe92f5db5d4068eaee474919f0bc5f4a84834b2f0e57",
                    "logs": "1dcc4de8dec75d7aab85b567b6ccd41ad312451b948a7413f0a142fd40d49347",
                    "txbytes": "0xf8a5010a830249f094c305c901078781c232a2a521c2af7980f8385ee980b84430c8d1da000000000000000000000000000000000000000000000000000000000000002000000000000000000000000000000000000000000000000000000000000000001ba09653902ade4f13be960edcdb18532c6b62ba2d4fe0476a56e34bdb1c734dc1d0a02e0dc713385275bf0974de46235fc193f4f739bbe7143424ce663e1714be4377",
                    "indexes": {
                        "data": 0,
                        "gas": 2,
                        "value": 0
                    }
                }
            ]
        }
    }
}