{
    "ecpairing_empty_data": {
        "_info": {
            "comment": "Puts the given data into the ECPAIRING precompile",
            "filling-rpc-server": "evm version 1.10.16-unstable-0f893109-20220105",
            "filling-tool-version": "retesteth-0.2.2-testinfo+commit.01c6aac2.Linux.g++",
            "filledWith": "CoreGeth-1.12.9-unstable-d64998ce9b05f4f41b35740c69c4b402e41a3105",
            "lllcversion": "Version: 0.5.14-develop.2021.11.27+commit.401d5358.Linux.g++",
            "source": "src/GeneralStateTestsFiller/stZeroKnowledge/ecpairing_empty_dataFiller.json",
            "sourceHash": "fc50c438f3fd56ab731dd281f1cae25c78c5f1dc5eee8b23ba28aeca7bae6e6a"
        },
        "env": {
            "currentCoinbase": "0x3535353535353535353535353535353535353535",
            "currentDifficulty": "0x20000",
            "currentGasLimit": "0x5f5e100",
            "currentNumber": "0x1",
            "currentTimestamp": "0x3e8",
            "previousHash": "0xc6745cf3cada515bbfb9573261c82547e0b8f9e3d5dd382e464704a84e47b5ad"
        },
        "pre": {
            "0x0000000000000000000000000000000000000001": {
                "balance": "0x1"
            },
            "0x0000000000000000000000000000000000000002": {
                "balance": "0x1"
            },
            "0x0000000000000000000000000000000000000003": {
                "balance": "0x1"
            },
            "0x0000000000000000000000000000000000000004": {
                "balance": "0x1"
            },
            "0x0000000000000000000000000000000000000005": {
                "balance": "0x1"
            },
            "0x0000000000000000000000000000000000000006": {
                "balance": "0x1"
            },
            "0x0000000000000000000000000000000000000007": {
                "balance": "0x1"
            },
            "0x0000000000000000000000000000000000000008": {
                "balance": "0x1"
            },
            "0x10a1c1cb95c92ec31d3f22c66eef1d9f3f258c6b": {
                "balance": "0xde0b6b3a7640000"
            },
            "0x13cbb8d99c6c4e0f2728c7d72606e78a29c4e224": {
                "balance": "0xde0b6b3a7640000"
            },
            "0x24143873e0e0815fdcbcffdbe09c979cbf9ad013": {
                "balance": "0xde0b6b3a7640000"
            },
            "0x3535353535353535353535353535353535353535": {
                "balance": "0x3dd71"
            },
            "0x598443f1880ef585b21f1d7585bd0577402861e5": {
                "balance": "0xde0b6b3a7640000"
            },
            "0x77db2bebba79db42a978f896968f4afce746ea1f": {
                "balance": "0xde0b6b3a7640000"
            },
            "0x7d577a597b2742b498cb5cf0c26cdcd726d39e6e": {
                "balance": "0xde0b6b3a7640000"
            },
            "0x82a978b3f5962a5b0957d9ee9eef472ee55b42f1": {
                "balance": "0xde0b6b3a760228f",
                "nonce": "0x2"
            },
            "0x90f0b1ebbba1c1936aff7aaf20a7878ff9e04b6c": {
                "balance": "0xde0b6b3a7640000"
            },
            "0xc305c901078781c232a2a521c2af7980f8385ee9": {
                "code": "0x600035601c52740100000000000000000000000000000000000000006020526fffffffffffffffffffffffffffffffff6040527fffffffffffffffffffffffffffffffff000000000000000000000000000000016060527402540be3fffffffffffffffffffffffffdabf41c006080527ffffffffffffffffffffffffdabf41c00000000000000000000000002540be40060a0526330c8d1da600051141561012c576107806004356004013511151558576004356004013560200160043560040161014037602061092061014051610160600060086305f5e0fff11558576020610900526109006040806109608284600060046018f150505061096080516020820120905060005561096060206020820352604081510160206001820306601f820103905060208203f350005b",
                "balance": "0x0",
                "nonce": "0x1"
            },
            "0xdceceaf3fc5c0a63d195d69b1a90011b7b19650d": {
                "balance": "0xde0b6b3a7640000"
            },
            "0xe0fc04fa2d34a66b779fd5cee748268032a146c0": {
                "balance": "0xde0b6b3a7640000"
            }
        },
        "transaction": {
            "gasPrice": "0xa",
            "nonce": "0x2",
            "to": "0xc305c901078781c232a2a521c2af7980f8385ee9",
            "data": [
                "0x30c8d1da00000000000000000000000000000000000000000000000000000000000000200000000000000000000000000000000000000000000000000000000000000000"
            ],
            "gasLimit": [
                "0x25028",
                "0x13880",
                "0x14c08",
                "0x30d40"
            ],
            "value": [
                "0x00"
            ],
            "secretKey": "0x044852b2a670ade5407e78fb2863c51de9fcb96542a07186fe3aeda6bb8a116d",
            "sender": "0x82a978b3f5962a5b0957d9ee9eef472ee55b42f1"
        },
        "post": {
            "ETC_Magneto": [
                {
                    "hash": "5147ef181a55196e3b19ea4e132a159c7c61c97e5b35dca4600afd3e95b56665",
                    "logs": "1dcc4de8dec75d7aab85b567b6ccd41ad312451b948a7413f0a142fd40d49347",
                    "txbytes": "0xf8a5020a8302502894c305c901078781c232a2a521c2af7980f8385ee980b84430c8d1da000000000000000000000000000000000000000000000000000000000000002000000000000000000000000000000000000000000000000000000000000000001ba00f12412b56525b0931258613f3b7d2ea0dd8a5ca7c4aa37b23a0c3d431e68e4fa0252ca35ca8ca3e077705c19080d58bed5538cafec83ececf5e1d1f59b2334092",
                    "indexes": {
                        "data": 0,
                        "gas": 0,
                        "value": 0
                    }
                },
                {
                    "hash": "5147ef181a55196e3b19ea4e132a159c7c61c97e5b35dca4600afd3e95b56665",
                    "logs": "1dcc4de8dec75d7aab85b567b6ccd41ad312451b948a7413f0a142fd40d49347",
                    "txbytes": "0xf8a5020a83030d4094c305c901078781c232a2a521c2af7980f8385ee980b84430c8d1da000000000000000000000000000000000000000000000000000000000000002000000000000000000000000000000000000000000000000000000000000000001ba035123e37a9e904bef0acec3221ceea22d6b30af35b744577ec7f647a4751e465a0295326891ca6c9a98bec9fcf741beab4ed3ae9461f38c34adc2324f0035a73d9",
                    "indexes": {
                        "data": 0,
                        "gas": 3,
                        "value": 0
                    }
                },
                {
                    "hash": "5370df94e397a5733fbe774c29f320587ee04be4f3e6df1dd0ced3075d9c5092",
                    "logs": "1dcc4de8dec75d7aab85b567b6ccd41ad312451b948a7413f0a142fd40d49347",
                    "txbytes": "0xf8a5020a8301388094c305c901078781c232a2a521c2af7980f8385ee980b84430c8d1da000000000000000000000000000000000000000000000000000000000000002000000000000000000000000000000000000000000000000000000000000000001ba06d2b1f0288ef64dfa4912a88450f3bfe09f35cbc51494ffe6d8fb4eb357ac8f8a056d7d1b2deb93fde299db95ab8ad151abcfe37174b1ef5e2c8723827170aee67",
                    "indexes": {
                        "data": 0,
                        "gas": 1,
                        "value": 0
                    }
                },
                {
                    "hash": "6c360f16da9b4774c33c880ad29ace8b305fa36efe9c60510c6e3f0a506e4cb9",
                    "logs": "1dcc4de8dec75d7aab85b567b6ccd41ad312451b948a7413f0a142fd40d49347",
                    "txbytes": "0xf8a5020a83014c0894c305c901078781c232a2a521c2af7980f8385ee980b84430c8d1da000000000000000000000000000000000000000000000000000000000000002000000000000000000000000000000000000000000000000000000000000000001ca089684f0ff4ee34b6e811fd489755d6ecb10f0c81096de39e1370b73617d920a6a0206c9b4f1e13e5b4e96bdd65b78f795921c50288942c759742b6b7eeff76c366",
                    "indexes": {
                        "data": 0,
                        "gas": 2,
                        "value": 0
                    }
                }
            ],
            "ETC_Mystique": [
                {
                    "hash": "5147ef181a55196e3b19ea4e132a159c7c61c97e5b35dca4600afd3e95b56665",
                    "logs": "1dcc4de8dec75d7aab85b567b6ccd41ad312451b948a7413f0a142fd40d49347",
                    "txbytes": "0xf8a5020a8302502894c305c901078781c232a2a521c2af7980f8385ee980b84430c8d1da000000000000000000000000000000000000000000000000000000000000002000000000000000000000000000000000000000000000000000000000000000001ba00f12412b56525b0931258613f3b7d2ea0dd8a5ca7c4aa37b23a0c3d431e68e4fa0252ca35ca8ca3e077705c19080d58bed5538cafec83ececf5e1d1f59b2334092",
                    "indexes": {
                        "data": 0,
                        "gas": 0,
                        "value": 0
                    }
                },
                {
                    "hash": "5147ef181a55196e3b19ea4e132a159c7c61c97e5b35dca4600afd3e95b56665",
                    "logs": "1dcc4de8dec75d7aab85b567b6ccd41ad312451b948a7413f0a142fd40d49347",
                    "txbytes": "0xf8a5020a83030d4094c305c901078781c232a2a521c2af7980f8385ee980b84430c8d1da000000000000000000000000000000000000000000000000000000000000002000000000000000000000000000000000000000000000000000000000000000001ba035123e37a9e904bef0acec3221ceea22d6b30af35b744577ec7f647a4751e465a0295326891ca6c9a98bec9fcf741beab4ed3ae9461f38c34adc2324f0035a73d9",
                    "indexes": {
                        "data": 0,
                        "gas": 3,
                        "value": 0
                    }
                },
                {
                    "hash": "5370df94e397a5733fbe774c29f320587ee04be4f3e6df1dd0ced3075d9c5092",
                    "logs": "1dcc4de8dec75d7aab85b567b6ccd41ad312451b948a7413f0a142fd40d49347",
                    "txbytes": "0xf8a5020a8301388094c305c901078781c232a2a521c2af7980f8385ee980b84430c8d1da000000000000000000000000000000000000000000000000000000000000002000000000000000000000000000000000000000000000000000000000000000001ba06d2b1f0288ef64dfa4912a88450f3bfe09f35cbc51494ffe6d8fb4eb357ac8f8a056d7d1b2deb93fde299db95ab8ad151abcfe37174b1ef5e2c8723827170aee67",
                    "indexes": {
                        "data": 0,
                        "gas": 1,
                        "value": 0
                    }
                },
                {
                    "hash": "6c360f16da9b4774c33c880ad29ace8b305fa36efe9c60510c6e3f0a506e4cb9",
                    "logs": "1dcc4de8dec75d7aab85b567b6ccd41ad312451b948a7413f0a142fd40d49347",
                    "txbytes": "0xf8a5020a83014c0894c305c901078781c232a2a521c2af7980f8385ee980b84430c8d1da000000000000000000000000000000000000000000000000000000000000002000000000000000000000000000000000000000000000000000000000000000001ca089684f0ff4ee34b6e811fd489755d6ecb10f0c81096de39e1370b73617d920a6a0206c9b4f1e13e5b4e96bdd65b78f795921c50288942c759742b6b7eeff76c366",
                    "indexes": {
                        "data": 0,
                        "gas": 2,
                        "value": 0
                    }
                }
            ],
            "ETC_Phoenix": [
                {
                    "hash": "77e2c2318753df102ad37ce04185c8f8209305b108fceb24f5962270b20310ab",
                    "logs": "1dcc4de8dec75d7aab85b567b6ccd41ad312451b948a7413f0a142fd40d49347",
                    "txbytes": "0xf8a5020a8302502894c305c901078781c232a2a521c2af7980f8385ee980b84430c8d1da000000000000000000000000000000000000000000000000000000000000002000000000000000000000000000000000000000000000000000000000000000001ba00f12412b56525b0931258613f3b7d2ea0dd8a5ca7c4aa37b23a0c3d431e68e4fa0252ca35ca8ca3e077705c19080d58bed5538cafec83ececf5e1d1f59b2334092",
                    "indexes": {
                        "data": 0,
                        "gas": 0,
                        "value": 0
                    }
                },
                {
                    "hash": "77e2c2318753df102ad37ce04185c8f8209305b108fceb24f5962270b20310ab",
                    "logs": "1dcc4de8dec75d7aab85b567b6ccd41ad312451b948a7413f0a142fd40d49347",
                    "txbytes": "0xf8a5020a83030d4094c305c901078781c232a2a521c2af7980f8385ee980b84430c8d1da000000000000000000000000000000000000000000000000000000000000002000000000000000000000000000000000000000000000000000000000000000001ba035123e37a9e904bef0acec3221ceea22d6b30af35b744577ec7f647a4751e465a0295326891ca6c9a98bec9fcf741beab4ed3ae9461f38c34adc2324f0035a73d9",
                    "indexes": {
                        "data": 0,
                        "gas": 3,
                        "value": 0
                    }
                },
                {
                    "hash": "5370df94e397a5733fbe774c29f320587ee04be4f3e6df1dd0ced3075d9c5092",
                    "logs": "1dcc4de8dec75d7aab85b567b6ccd41ad312451b948a7413f0a142fd40d49347",
                    "txbytes": "0xf8a5020a8301388094c305c901078781c232a2a521c2af7980f8385ee980b84430c8d1da000000000000000000000000000000000000000000000000000000000000002000000000000000000000000000000000000000000000000000000000000000001ba06d2b1f0288ef64dfa4912a88450f3bfe09f35cbc51494ffe6d8fb4eb357ac8f8a056d7d1b2deb93fde299db95ab8ad151abcfe37174b1ef5e2c8723827170aee67",
                    "indexes": {
                        "data": 0,
                        "gas": 1,
                        "value": 0
                    }
                },
                {
                    "hash": "6c360f16da9b4774c33c880ad29ace8b305fa36efe9c60510c6e3f0a506e4cb9",
                    "logs": "1dcc4de8dec75d7aab85b567b6ccd41ad312451b948a7413f0a142fd40d49347",
                    "txbytes": "0xf8a5020a83014c0894c305c901078781c232a2a521c2af7980f8385ee980b84430c8d1da000000000000000000000000000000000000000000000000000000000000002000000000000000000000000000000000000000000000000000000000000000001ca089684f0ff4ee34b6e811fd489755d6ecb10f0c81096de39e1370b73617d920a6a0206c9b4f1e13e5b4e96bdd65b78f795921c50288942c759742b6b7eeff76c366",
                    "indexes": {
                        "data": 0,
                        "gas": 2,
                        "value": 0
                    }
                }
            ]
        }
    }
}