{
    "ecpairing_bad_length_191": {
        "_info": {
            "comment": "Puts the given data into the ECPAIRING precompile",
            "filling-rpc-server": "evm version 1.10.16-unstable-0f893109-20220105",
            "filling-tool-version": "retesteth-0.2.2-testinfo+commit.01c6aac2.Linux.g++",
            "filledWith": "CoreGeth-1.12.9-unstable-d390462df9df233b60b4cd7a37db5b3043832022",
            "lllcversion": "Version: 0.5.14-develop.2021.11.27+commit.401d5358.Linux.g++",
            "source": "src/GeneralStateTestsFiller/stZeroKnowledge/ecpairing_bad_length_191Filler.json",
            "sourceHash": "0433f7e0be1b096193d9ff2c0462f2c7ad0c1f05be72e627b028ee729799c03e"
        },
        "env": {
            "currentCoinbase": "0x3535353535353535353535353535353535353535",
            "currentDifficulty": "0x20000",
            "currentGasLimit": "0x5f5e100",
            "currentNumber": "0x1",
            "currentTimestamp": "0x3e8",
            "previousHash": "0xc6745cf3cada515bbfb9573261c82547e0b8f9e3d5dd382e464704a84e47b5ad"
        },
        "pre": {
            "0x0000000000000000000000000000000000000001": {
                "code": "0x",
                "balance": "0x1",
                "nonce": "0x0"
            },
            "0x0000000000000000000000000000000000000002": {
                "code": "0x",
                "balance": "0x1",
                "nonce": "0x0"
            },
            "0x0000000000000000000000000000000000000003": {
                "code": "0x",
                "balance": "0x1",
                "nonce": "0x0"
            },
            "0x0000000000000000000000000000000000000004": {
                "code": "0x",
                "balance": "0x1",
                "nonce": "0x0"
            },
            "0x0000000000000000000000000000000000000005": {
                "code": "0x",
                "balance": "0x1",
                "nonce": "0x0"
            },
            "0x0000000000000000000000000000000000000006": {
                "code": "0x",
                "balance": "0x1",
                "nonce": "0x0"
            },
            "0x0000000000000000000000000000000000000007": {
                "code": "0x",
                "balance": "0x1",
                "nonce": "0x0"
            },
            "0x0000000000000000000000000000000000000008": {
                "code": "0x",
                "balance": "0x1",
                "nonce": "0x0"
            },
            "0x10a1c1cb95c92ec31d3f22c66eef1d9f3f258c6b": {
                "code": "0x",
                "balance": "0xde0b6b3a7640000",
                "nonce": "0x0"
            },
            "0x13cbb8d99c6c4e0f2728c7d72606e78a29c4e224": {
                "code": "0x",
                "balance": "0xde0b6b3a7640000",
                "nonce": "0x0"
            },
            "0x24143873e0e0815fdcbcffdbe09c979cbf9ad013": {
                "code": "0x",
                "balance": "0xde0b6b3a7640000",
                "nonce": "0x0"
            },
            "0x3535353535353535353535353535353535353535": {
                "code": "0x",
                "balance": "0x1258db",
                "nonce": "0x0"
            },
            "0x598443f1880ef585b21f1d7585bd0577402861e5": {
                "code": "0x",
                "balance": "0xde0b6b3a7640000",
                "nonce": "0x0"
            },
            "0x77db2bebba79db42a978f896968f4afce746ea1f": {
                "code": "0x",
                "balance": "0xde0b6b3a7640000",
                "nonce": "0x0"
            },
            "0x7d577a597b2742b498cb5cf0c26cdcd726d39e6e": {
                "code": "0x",
                "balance": "0xde0b6b3a7640000",
                "nonce": "0x0"
            },
            "0x82a978b3f5962a5b0957d9ee9eef472ee55b42f1": {
                "code": "0x",
                "balance": "0xde0b6b3a751a725",
                "nonce": "0x7"
            },
            "0x90f0b1ebbba1c1936aff7aaf20a7878ff9e04b6c": {
                "code": "0x",
                "balance": "0xde0b6b3a7640000",
                "nonce": "0x0"
            },
            "0xc305c901078781c232a2a521c2af7980f8385ee9": {
                "code": "0x600035601c52740100000000000000000000000000000000000000006020526fffffffffffffffffffffffffffffffff6040527fffffffffffffffffffffffffffffffff000000000000000000000000000000016060527402540be3fffffffffffffffffffffffffdabf41c006080527ffffffffffffffffffffffffdabf41c00000000000000000000000002540be40060a0526330c8d1da600051141561012c576107806004356004013511151558576004356004013560200160043560040161014037602061092061014051610160600060086305f5e0fff11558576020610900526109006040806109608284600060046018f150505061096080516020820120905060005561096060206020820352604081510160206001820306601f820103905060208203f350005b",
                "storage": {
                    "0x0000000000000000000000000000000000000000000000000000000000000000": "0xb10e2d527612073b26eecdfd717e6a320cf44b4afac2b0732d9fcbe2b7fa0cf6"
                },
                "balance": "0x0",
                "nonce": "0x1"
            },
            "0xdceceaf3fc5c0a63d195d69b1a90011b7b19650d": {
                "code": "0x",
                "balance": "0xde0b6b3a7640000",
                "nonce": "0x0"
            },
            "0xe0fc04fa2d34a66b779fd5cee748268032a146c0": {
                "code": "0x",
                "balance": "0xde0b6b3a7640000",
                "nonce": "0x0"
            }
        },
        "transaction": {
            "gasPrice": "0xa",
            "nonce": "0x7",
            "to": "0xc305c901078781c232a2a521c2af7980f8385ee9",
            "data": [
                "0x30c8d1da000000000000000000000000000000000000000000000000000000000000002000000000000000000000000000000000000000000000000000000000000000bf00000000000000000000000000000000000000000000000000000000000000010000000000000000000000000000000000000000000000000000000000000002198e9393920d483a7260bfb731fb5d25f1aa493335a9e71297e485b7aef312c21800deef121f1e76426a00665e5c4479674322d4f75edadd46debd5cd992f6ed090689d0585ff075ec9e99ad690c3395bc4b313370b38ef355acdadcd122975b12c85ea5db8c6deb4aab71808dcb408fe3d1e7690c43d37b4ce6cc0166fa7d00"
            ],
            "gasLimit": [
                "0x3aba8",
                "0x15f90",
                "0x1adb0",
                "0x30d40"
            ],
            "value": [
                "0x00"
            ],
            "secretKey": "0x044852b2a670ade5407e78fb2863c51de9fcb96542a07186fe3aeda6bb8a116d",
            "sender": "0x82a978b3f5962a5b0957d9ee9eef472ee55b42f1"
        },
        "post": {
            "ETC_Magneto": [
                {
                    "hash": "75e91de9bca64634f39af6d6ebfd1be3b3ae2eee25bc7c2235a4c54c9bfdab0f",
                    "logs": "1dcc4de8dec75d7aab85b567b6ccd41ad312451b948a7413f0a142fd40d49347",
                    "txbytes": "0xf90166070a8303aba894c305c901078781c232a2a521c2af7980f8385ee980b9010430c8d1da000000000000000000000000000000000000000000000000000000000000002000000000000000000000000000000000000000000000000000000000000000bf00000000000000000000000000000000000000000000000000000000000000010000000000000000000000000000000000000000000000000000000000000002198e9393920d483a7260bfb731fb5d25f1aa493335a9e71297e485b7aef312c21800deef121f1e76426a00665e5c4479674322d4f75edadd46debd5cd992f6ed090689d0585ff075ec9e99ad690c3395bc4b313370b38ef355acdadcd122975b12c85ea5db8c6deb4aab71808dcb408fe3d1e7690c43d37b4ce6cc0166fa7d001ba06411a15282d2212df2b150f2040b11fb0f5b8ab354ddf95ba4ac1bf9330c328aa00c380cc38adcfe4ee862328fd41a1f132d61db2a2fd47d90d0fa1d4aa7ee21ba",
                    "indexes": {
                        "data": 0,
                        "gas": 0,
                        "value": 0
                    }
                },
                {
                    "hash": "710be63e3855d8f78271405910b56727487768b87a66909324999ea3c03600e9",
                    "logs": "1dcc4de8dec75d7aab85b567b6ccd41ad312451b948a7413f0a142fd40d49347",
                    "txbytes": "0xf90166070a83015f9094c305c901078781c232a2a521c2af7980f8385ee980b9010430c8d1da000000000000000000000000000000000000000000000000000000000000002000000000000000000000000000000000000000000000000000000000000000bf00000000000000000000000000000000000000000000000000000000000000010000000000000000000000000000000000000000000000000000000000000002198e9393920d483a7260bfb731fb5d25f1aa493335a9e71297e485b7aef312c21800deef121f1e76426a00665e5c4479674322d4f75edadd46debd5cd992f6ed090689d0585ff075ec9e99ad690c3395bc4b313370b38ef355acdadcd122975b12c85ea5db8c6deb4aab71808dcb408fe3d1e7690c43d37b4ce6cc0166fa7d001ca01b85b3e152b9976e59e53ca20b3bfbcaed2cf5ac76c4b546c25893ead55bee10a021ad6d37b9bff70584c7928d1340e6f8de4d1d8472db3916eb4cdb440568a920",
                    "indexes": {
                        "data": 0,
                        "gas": 1,
                        "value": 0
                    }
                },
                {
                    "hash": "a594f4bc86edd9567268f9219911b5558b661c08380f8909b9e277e4fd80ab78",
                    "logs": "1dcc4de8dec75d7aab85b567b6ccd41ad312451b948a7413f0a142fd40d49347",
                    "txbytes": "0xf90166070a8301adb094c305c901078781c232a2a521c2af7980f8385ee980b9010430c8d1da000000000000000000000000000000000000000000000000000000000000002000000000000000000000000000000000000000000000000000000000000000bf00000000000000000000000000000000000000000000000000000000000000010000000000000000000000000000000000000000000000000000000000000002198e9393920d483a7260bfb731fb5d25f1aa493335a9e71297e485b7aef312c21800deef121f1e76426a00665e5c4479674322d4f75edadd46debd5cd992f6ed090689d0585ff075ec9e99ad690c3395bc4b313370b38ef355acdadcd122975b12c85ea5db8c6deb4aab71808dcb408fe3d1e7690c43d37b4ce6cc0166fa7d001ba0d215aa69ab564e7139549b89c08c672c430b287ebfce4e83ca29d14f3ec26ed7a01c65884d95b8352b9a5e571c0505b57148aa0fb812681a3b11db79e7a7d9f586",
                    "indexes": {
                        "data": 0,
                        "gas": 2,
                        "value": 0
                    }
                },
                {
                    "hash": "28ff583618e7edd20f24fb7d456a09d578b0662847afa986edfe3aaf5b276774",
                    "logs": "1dcc4de8dec75d7aab85b567b6ccd41ad312451b948a7413f0a142fd40d49347",
                    "txbytes": "0xf90166070a83030d4094c305c901078781c232a2a521c2af7980f8385ee980b9010430c8d1da000000000000000000000000000000000000000000000000000000000000002000000000000000000000000000000000000000000000000000000000000000bf00000000000000000000000000000000000000000000000000000000000000010000000000000000000000000000000000000000000000000000000000000002198e9393920d483a7260bfb731fb5d25f1aa493335a9e71297e485b7aef312c21800deef121f1e76426a00665e5c4479674322d4f75edadd46debd5cd992f6ed090689d0585ff075ec9e99ad690c3395bc4b313370b38ef355acdadcd122975b12c85ea5db8c6deb4aab71808dcb408fe3d1e7690c43d37b4ce6cc0166fa7d001ca0e727447585d0767c50df5018200f3244ac106c0ffed6d6e545ec5f146b5859fea05ce309ec4696b2e178d83a85378bb8155e49f2c238105a391c1d9e28dc81d7ed",
                    "indexes": {
                        "data": 0,
                        "gas": 3,
                        "value": 0
                    }
                }
            ],
            "ETC_Mystique": [
                {
                    "hash": "75e91de9bca64634f39af6d6ebfd1be3b3ae2eee25bc7c2235a4c54c9bfdab0f",
                    "logs": "1dcc4de8dec75d7aab85b567b6ccd41ad312451b948a7413f0a142fd40d49347",
                    "txbytes": "0xf90166070a8303aba894c305c901078781c232a2a521c2af7980f8385ee980b9010430c8d1da000000000000000000000000000000000000000000000000000000000000002000000000000000000000000000000000000000000000000000000000000000bf00000000000000000000000000000000000000000000000000000000000000010000000000000000000000000000000000000000000000000000000000000002198e9393920d483a7260bfb731fb5d25f1aa493335a9e71297e485b7aef312c21800deef121f1e76426a00665e5c4479674322d4f75edadd46debd5cd992f6ed090689d0585ff075ec9e99ad690c3395bc4b313370b38ef355acdadcd122975b12c85ea5db8c6deb4aab71808dcb408fe3d1e7690c43d37b4ce6cc0166fa7d001ba06411a15282d2212df2b150f2040b11fb0f5b8ab354ddf95ba4ac1bf9330c328aa00c380cc38adcfe4ee862328fd41a1f132d61db2a2fd47d90d0fa1d4aa7ee21ba",
                    "indexes": {
                        "data": 0,
                        "gas": 0,
                        "value": 0
                    }
                },
                {
                    "hash": "710be63e3855d8f78271405910b56727487768b87a66909324999ea3c03600e9",
                    "logs": "1dcc4de8dec75d7aab85b567b6ccd41ad312451b948a7413f0a142fd40d49347",
                    "txbytes": "0xf90166070a83015f9094c305c901078781c232a2a521c2af7980f8385ee980b9010430c8d1da000000000000000000000000000000000000000000000000000000000000002000000000000000000000000000000000000000000000000000000000000000bf00000000000000000000000000000000000000000000000000000000000000010000000000000000000000000000000000000000000000000000000000000002198e9393920d483a7260bfb731fb5d25f1aa493335a9e71297e485b7aef312c21800deef121f1e76426a00665e5c4479674322d4f75edadd46debd5cd992f6ed090689d0585ff075ec9e99ad690c3395bc4b313370b38ef355acdadcd122975b12c85ea5db8c6deb4aab71808dcb408fe3d1e7690c43d37b4ce6cc0166fa7d001ca01b85b3e152b9976e59e53ca20b3bfbcaed2cf5ac76c4b546c25893ead55bee10a021ad6d37b9bff70584c7928d1340e6f8de4d1d8472db3916eb4cdb440568a920",
                    "indexes": {
                        "data": 0,
                        "gas": 1,
                        "value": 0
                    }
                },
                {
                    "hash": "a594f4bc86edd9567268f9219911b5558b661c08380f8909b9e277e4fd80ab78",
                    "logs": "1dcc4de8dec75d7aab85b567b6ccd41ad312451b948a7413f0a142fd40d49347",
                    "txbytes": "0xf90166070a8301adb094c305c901078781c232a2a521c2af7980f8385ee980b9010430c8d1da000000000000000000000000000000000000000000000000000000000000002000000000000000000000000000000000000000000000000000000000000000bf00000000000000000000000000000000000000000000000000000000000000010000000000000000000000000000000000000000000000000000000000000002198e9393920d483a7260bfb731fb5d25f1aa493335a9e71297e485b7aef312c21800deef121f1e76426a00665e5c4479674322d4f75edadd46debd5cd992f6ed090689d0585ff075ec9e99ad690c3395bc4b313370b38ef355acdadcd122975b12c85ea5db8c6deb4aab71808dcb408fe3d1e7690c43d37b4ce6cc0166fa7d001ba0d215aa69ab564e7139549b89c08c672c430b287ebfce4e83ca29d14f3ec26ed7a01c65884d95b8352b9a5e571c0505b57148aa0fb812681a3b11db79e7a7d9f586",
                    "indexes": {
                        "data": 0,
                        "gas": 2,
                        "value": 0
                    }
                },
                {
                    "hash": "28ff583618e7edd20f24fb7d456a09d578b0662847afa986edfe3aaf5b276774",
                    "logs": "1dcc4de8dec75d7aab85b567b6ccd41ad312451b948a7413f0a142fd40d49347",
                    "txbytes": "0xf90166070a83030d4094c305c901078781c232a2a521c2af7980f8385ee980b9010430c8d1da000000000000000000000000000000000000000000000000000000000000002000000000000000000000000000000000000000000000000000000000000000bf00000000000000000000000000000000000000000000000000000000000000010000000000000000000000000000000000000000000000000000000000000002198e9393920d483a7260bfb731fb5d25f1aa493335a9e71297e485b7aef312c21800deef121f1e76426a00665e5c4479674322d4f75edadd46debd5cd992f6ed090689d0585ff075ec9e99ad690c3395bc4b313370b38ef355acdadcd122975b12c85ea5db8c6deb4aab71808dcb408fe3d1e7690c43d37b4ce6cc0166fa7d001ca0e727447585d0767c50df5018200f3244ac106c0ffed6d6e545ec5f146b5859fea05ce309ec4696b2e178d83a85378bb8155e49f2c238105a391c1d9e28dc81d7ed",
                    "indexes": {
                        "data": 0,
                        "gas": 3,
                        "value": 0
                    }
                }
            ],
            "ETC_Phoenix": [
                {
                    "hash": "75e91de9bca64634f39af6d6ebfd1be3b3ae2eee25bc7c2235a4c54c9bfdab0f",
                    "logs": "1dcc4de8dec75d7aab85b567b6ccd41ad312451b948a7413f0a142fd40d49347",
                    "txbytes": "0xf90166070a8303aba894c305c901078781c232a2a521c2af7980f8385ee980b9010430c8d1da000000000000000000000000000000000000000000000000000000000000002000000000000000000000000000000000000000000000000000000000000000bf00000000000000000000000000000000000000000000000000000000000000010000000000000000000000000000000000000000000000000000000000000002198e9393920d483a7260bfb731fb5d25f1aa493335a9e71297e485b7aef312c21800deef121f1e76426a00665e5c4479674322d4f75edadd46debd5cd992f6ed090689d0585ff075ec9e99ad690c3395bc4b313370b38ef355acdadcd122975b12c85ea5db8c6deb4aab71808dcb408fe3d1e7690c43d37b4ce6cc0166fa7d001ba06411a15282d2212df2b150f2040b11fb0f5b8ab354ddf95ba4ac1bf9330c328aa00c380cc38adcfe4ee862328fd41a1f132d61db2a2fd47d90d0fa1d4aa7ee21ba",
                    "indexes": {
                        "data": 0,
                        "gas": 0,
                        "value": 0
                    }
                },
                {
                    "hash": "710be63e3855d8f78271405910b56727487768b87a66909324999ea3c03600e9",
                    "logs": "1dcc4de8dec75d7aab85b567b6ccd41ad312451b948a7413f0a142fd40d49347",
                    "txbytes": "0xf90166070a83015f9094c305c901078781c232a2a521c2af7980f8385ee980b9010430c8d1da000000000000000000000000000000000000000000000000000000000000002000000000000000000000000000000000000000000000000000000000000000bf00000000000000000000000000000000000000000000000000000000000000010000000000000000000000000000000000000000000000000000000000000002198e9393920d483a7260bfb731fb5d25f1aa493335a9e71297e485b7aef312c21800deef121f1e76426a00665e5c4479674322d4f75edadd46debd5cd992f6ed090689d0585ff075ec9e99ad690c3395bc4b313370b38ef355acdadcd122975b12c85ea5db8c6deb4aab71808dcb408fe3d1e7690c43d37b4ce6cc0166fa7d001ca01b85b3e152b9976e59e53ca20b3bfbcaed2cf5ac76c4b546c25893ead55bee10a021ad6d37b9bff70584c7928d1340e6f8de4d1d8472db3916eb4cdb440568a920",
                    "indexes": {
                        "data": 0,
                        "gas": 1,
                        "value": 0
                    }
                },
                {
                    "hash": "a594f4bc86edd9567268f9219911b5558b661c08380f8909b9e277e4fd80ab78",
                    "logs": "1dcc4de8dec75d7aab85b567b6ccd41ad312451b948a7413f0a142fd40d49347",
                    "txbytes": "0xf90166070a8301adb094c305c901078781c232a2a521c2af7980f8385ee980b9010430c8d1da000000000000000000000000000000000000000000000000000000000000002000000000000000000000000000000000000000000000000000000000000000bf00000000000000000000000000000000000000000000000000000000000000010000000000000000000000000000000000000000000000000000000000000002198e9393920d483a7260bfb731fb5d25f1aa493335a9e71297e485b7aef312c21800deef121f1e76426a00665e5c4479674322d4f75edadd46debd5cd992f6ed090689d0585ff075ec9e99ad690c3395bc4b313370b38ef355acdadcd122975b12c85ea5db8c6deb4aab71808dcb408fe3d1e7690c43d37b4ce6cc0166fa7d001ba0d215aa69ab564e7139549b89c08c672c430b287ebfce4e83ca29d14f3ec26ed7a01c65884d95b8352b9a5e571c0505b57148aa0fb812681a3b11db79e7a7d9f586",
                    "indexes": {
                        "data": 0,
                        "gas": 2,
                        "value": 0
                    }
                },
                {
                    "hash": "28ff583618e7edd20f24fb7d456a09d578b0662847afa986edfe3aaf5b276774",
                    "logs": "1dcc4de8dec75d7aab85b567b6ccd41ad312451b948a7413f0a142fd40d49347",
                    "txbytes": "0xf90166070a83030d4094c305c901078781c232a2a521c2af7980f8385ee980b9010430c8d1da000000000000000000000000000000000000000000000000000000000000002000000000000000000000000000000000000000000000000000000000000000bf00000000000000000000000000000000000000000000000000000000000000010000000000000000000000000000000000000000000000000000000000000002198e9393920d483a7260bfb731fb5d25f1aa493335a9e71297e485b7aef312c21800deef121f1e76426a00665e5c4479674322d4f75edadd46debd5cd992f6ed090689d0585ff075ec9e99ad690c3395bc4b313370b38ef355acdadcd122975b12c85ea5db8c6deb4aab71808dcb408fe3d1e7690c43d37b4ce6cc0166fa7d001ca0e727447585d0767c50df5018200f3244ac106c0ffed6d6e545ec5f146b5859fea05ce309ec4696b2e178d83a85378bb8155e49f2c238105a391c1d9e28dc81d7ed",
                    "indexes": {
                        "data": 0,
                        "gas": 3,
                        "value": 0
                    }
                }
            ]
        }
    }
}