{
    "CallIdentity_1_nonzeroValue": {
        "_info": {
            "comment": "",
            "filling-rpc-server": "evm version 1.10.16-unstable-0f893109-20220105",
            "filling-tool-version": "retesteth-0.2.2-testinfo+commit.01c6aac2.Linux.g++",
            "filledWith": "CoreGeth-1.12.9-unstable-f4059ddd82d975bdc54fa648e5422a80172161cb",
            "lllcversion": "Version: 0.5.14-develop.2021.11.27+commit.401d5358.Linux.g++",
            "source": "src/GeneralStateTestsFiller/stPreCompiledContracts2/CallIdentity_1_nonzeroValueFiller.json",
            "sourceHash": "1dfb7b12f808c0711b3d5c30c962bdcc071bba6a1db8d40ae2d36896ddf5b40d"
        },
        "env": {
            "currentCoinbase": "2adc25665018aa1fe0e6bc666dac8fc2697ff9ba",
            "currentDifficulty": "0x20000",
            "currentRandom": null,
            "currentGasLimit": "0x5f5e100",
            "currentNumber": "0x1",
            "currentTimestamp": "0x3e8",
            "currentBaseFee": "0xa"
        },
        "pre": {
            "0x095e7baea6a6c7c4c2dfeb977efac326af552d87": {
                "code": "0x60206000600060006013600462030d40f160025560005160005500",
                "balance": "0xbebc200"
            },
            "0xa94f5374fce5edbc8e2a8697c15331677e6ebf0b": {
                "balance": "0xde0b6b3a7640000"
            }
        },
        "transaction": {
            "gasPrice": "0xa",
            "maxFeePerGas": null,
            "maxPriorityFeePerGas": null,
            "nonce": "0x0",
            "to": "0x095e7baea6a6c7c4c2dfeb977efac326af552d87",
            "data": [
                "0x"
            ],
            "gasLimit": [
                "0x592a8"
            ],
            "value": [
                "0x0186a0"
            ],
            "secretKey": "0x45a915e4d060149eb4365960e6a7a45f334393093061116b197e3240065ff2d8"
        },
        "out": "0x",
        "post": {
            "ETC_Magneto": [
                {
                    "hash": "a9d5385bca84ae328caada13a645054234763de6a928e7f26c19ea3e28f9efa8",
                    "logs": "1dcc4de8dec75d7aab85b567b6ccd41ad312451b948a7413f0a142fd40d49347",
                    "txbytes": "0xf863800a830592a894095e7baea6a6c7c4c2dfeb977efac326af552d87830186a0801ca082a671a227220f2b04a9aa780da80015d702902cb314f4900b727ae835a6e613a02a8d1cd19b7388c9b4211156827537f3c9792e3dda07ed0343d0d16c1ffdc497",
                    "indexes": {
                        "data": 0,
                        "gas": 0,
                        "value": 0
                    }
                }
            ],
            "ETC_Mystique": [
                {
                    "hash": "a9d5385bca84ae328caada13a645054234763de6a928e7f26c19ea3e28f9efa8",
                    "logs": "1dcc4de8dec75d7aab85b567b6ccd41ad312451b948a7413f0a142fd40d49347",
                    "txbytes": "0xf863800a830592a894095e7baea6a6c7c4c2dfeb977efac326af552d87830186a0801ca082a671a227220f2b04a9aa780da80015d702902cb314f4900b727ae835a6e613a02a8d1cd19b7388c9b4211156827537f3c9792e3dda07ed0343d0d16c1ffdc497",
                    "indexes": {
                        "data": 0,
                        "gas": 0,
                        "value": 0
                    }
                }
            ],
            "ETC_Phoenix": [
                {
                    "hash": "e95a6dfa3867696b1999a27cd438d070c6bc1f3497ca9abc56389ec08b1c3837",
                    "logs": "1dcc4de8dec75d7aab85b567b6ccd41ad312451b948a7413f0a142fd40d49347",
                    "txbytes": "0xf863800a830592a894095e7baea6a6c7c4c2dfeb977efac326af552d87830186a0801ca082a671a227220f2b04a9aa780da80015d702902cb314f4900b727ae835a6e613a02a8d1cd19b7388c9b4211156827537f3c9792e3dda07ed0343d0d16c1ffdc497",
                    "indexes": {
                        "data": 0,
                        "gas": 0,
                        "value": 0
                    }
                }
            ]
        }
    }
}