{
    "CallEcrecoverInvalidSignature": {
        "_info": {
            "comment": "CALL to ECREC precompile with input which is a completely invalid signature and a 32 byte output range in memory. ECREC should return an empty response and the 32 byte output range should be left unchanged.",
            "filling-rpc-server": "evm version 1.10.16-unstable-0f893109-20220105",
            "filling-tool-version": "retesteth-0.2.2-testinfo+commit.01c6aac2.Linux.g++",
            "filledWith": "CoreGeth-1.12.9-unstable-4cf5b2b0837228e7d5eadba6a01ffb80e9288e21",
            "lllcversion": "Version: 0.5.14-develop.2021.11.27+commit.401d5358.Linux.g++",
            "source": "src/GeneralStateTestsFiller/stPreCompiledContracts2/CallEcrecoverInvalidSignatureFiller.json",
            "sourceHash": "cb99123bdb0df153bcd24d79cc15a80a7c136a1f05c71586ee8bf326f0dbff51"
        },
        "env": {
            "currentCoinbase": "0x2adc25665018aa1fe0e6bc666dac8fc2697ff9ba",
            "currentDifficulty": "0x20000",
            "currentGasLimit": "0x989680",
            "currentNumber": "0x1",
            "currentTimestamp": "0x3e8",
            "previousHash": "0x5e20a0453cecd065ea59c37ac63e079ee08998b6045136a8ce6635c7912ec0b6"
        },
        "pre": {
            "0x095e7baea6a6c7c4c2dfeb977efac326af552d87": {
                "code": "0x7f1122334455667788991011121314151617181920212223242526272829303132608052602060806080600060006001620493e0f15060805160005500",
                "balance": "0x1312d00",
                "nonce": "0x0"
            },
            "0xa94f5374fce5edbc8e2a8697c15331677e6ebf0b": {
                "code": "0x",
                "balance": "0xde0b6b3a7640000",
                "nonce": "0x0"
            }
        },
        "transaction": {
            "gasPrice": "0xa",
            "nonce": "0x0",
            "to": "0x095e7baea6a6c7c4c2dfeb977efac326af552d87",
            "data": [
                "0x"
            ],
            "gasLimit": [
                "0x37ba90"
            ],
            "value": [
                "0x0186a0"
            ],
            "secretKey": "0x45a915e4d060149eb4365960e6a7a45f334393093061116b197e3240065ff2d8",
            "sender": "0xa94f5374fce5edbc8e2a8697c15331677e6ebf0b"
        },
        "post": {
            "ETC_Magneto": [
                {
                    "hash": "0bdd1008407ec0a783fb0dfa39e683092bd67bbeb897a9fde11475cc47bd02b7",
                    "logs": "1dcc4de8dec75d7aab85b567b6ccd41ad312451b948a7413f0a142fd40d49347",
                    "txbytes": "0xf863800a8337ba9094095e7baea6a6c7c4c2dfeb977efac326af552d87830186a0801ba06a993fe85c28a258b1f8de2e2821e0fd3fcbd10fa9112a637a941ba0d449fe6ba06990d0aadd5b2ae11998bfc220b1abf8b04b0500b91c500748aa6b50daf4c250",
                    "indexes": {
                        "data": 0,
                        "gas": 0,
                        "value": 0
                    }
                }
            ],
            "ETC_Mystique": [
                {
                    "hash": "0bdd1008407ec0a783fb0dfa39e683092bd67bbeb897a9fde11475cc47bd02b7",
                    "logs": "1dcc4de8dec75d7aab85b567b6ccd41ad312451b948a7413f0a142fd40d49347",
                    "txbytes": "0xf863800a8337ba9094095e7baea6a6c7c4c2dfeb977efac326af552d87830186a0801ba06a993fe85c28a258b1f8de2e2821e0fd3fcbd10fa9112a637a941ba0d449fe6ba06990d0aadd5b2ae11998bfc220b1abf8b04b0500b91c500748aa6b50daf4c250",
                    "indexes": {
                        "data": 0,
                        "gas": 0,
                        "value": 0
                    }
                }
            ],
            "ETC_Phoenix": [
                {
                    "hash": "f3a24b4de1c8fbea1819a33bc439214d1b6d3a48ec71ad883b054b1b10a78ebf",
                    "logs": "1dcc4de8dec75d7aab85b567b6ccd41ad312451b948a7413f0a142fd40d49347",
                    "txbytes": "0xf863800a8337ba9094095e7baea6a6c7c4c2dfeb977efac326af552d87830186a0801ba06a993fe85c28a258b1f8de2e2821e0fd3fcbd10fa9112a637a941ba0d449fe6ba06990d0aadd5b2ae11998bfc220b1abf8b04b0500b91c500748aa6b50daf4c250",
                    "indexes": {
                        "data": 0,
                        "gas": 0,
                        "value": 0
                    }
                }
            ]
        }
    }
}