{
    "modexpRandomInput": {
        "_info": {
            "comment": "Fuzzed input discovered by Guido",
            "filling-rpc-server": "evm version 1.10.16-unstable-0f893109-20220105",
            "filling-tool-version": "retesteth-0.2.2-testinfo+commit.01c6aac2.Linux.g++",
            "filledWith": "CoreGeth-1.12.9-unstable-d64998ce9b05f4f41b35740c69c4b402e41a3105",
            "lllcversion": "Version: 0.5.14-develop.2021.11.27+commit.401d5358.Linux.g++",
            "source": "src/GeneralStateTestsFiller/stPreCompiledContracts2/modexpRandomInputFiller.json",
            "sourceHash": "5aa4dd4cf7d54f59d69a76618b733675a7b0138f999c03883ac0668497984c53"
        },
        "env": {
            "currentCoinbase": "0x3535353535353535353535353535353535353535",
            "currentDifficulty": "0x20000",
            "currentGasLimit": "0x5f5e100",
            "currentNumber": "0x1",
            "currentTimestamp": "0x3e8",
            "previousHash": "0xc6745cf3cada515bbfb9573261c82547e0b8f9e3d5dd382e464704a84e47b5ad"
        },
        "pre": {
            "0xa94f5374fce5edbc8e2a8697c15331677e6ebf0b": {
                "balance": "0x3635c9adc5dea00000"
            }
        },
        "transaction": {
            "gasPrice": "0xa",
            "nonce": "0x0",
            "to": "0x0000000000000000000000000000000000000005",
            "data": [
                "0x00000000000000000000000000000000000000000000000000000000000000e300000000000000000000000000000000000000000000000000",
                "0x00000000008000000000000000000000000000000000000000000000000000000000000400000000000000000000000a",
                "0x0000000000000000000000000000000000000000000000000000000000000000000000000000000000000000000000000000000000000000000000000001147000000000000000000000000000000000000000000000000000000000061660350000000000000000000000000000000000000000000000000000000000000008"
            ],
            "gasLimit": [
                "0xad570",
                "0x6acfc0"
            ],
            "value": [
                "0x00"
            ],
            "secretKey": "0x45a915e4d060149eb4365960e6a7a45f334393093061116b197e3240065ff2d8",
            "sender": "0xa94f5374fce5edbc8e2a8697c15331677e6ebf0b"
        },
        "post": {
            "ETC_Magneto": [
                {
                    "hash": "da6887a3432e0f837eaad56214a9d761466f38bc81d5fb58c5a93f9029821dda",
                    "logs": "1dcc4de8dec75d7aab85b567b6ccd41ad312451b948a7413f0a142fd40d49347",
                    "txbytes": "0xf89a800a830ad57094000000000000000000000000000000000000000580b83900000000000000000000000000000000000000000000000000000000000000e3000000000000000000000000000000000000000000000000001ba0b68f145196c885458cf986ae74640178ba0df6fbdcb533f222a4ff3db0337b6ca00b9d327286d4beb4b5ebab578fb5d560c0396c3daf65263e594f4b4f02d6a897",
                    "indexes": {
                        "data": 0,
                        "gas": 0,
                        "value": 0
                    }
                },
                {
                    "hash": "da6887a3432e0f837eaad56214a9d761466f38bc81d5fb58c5a93f9029821dda",
                    "logs": "1dcc4de8dec75d7aab85b567b6ccd41ad312451b948a7413f0a142fd40d49347",
                    "txbytes": "0xf89a800a836acfc094000000000000000000000000000000000000000580b83900000000000000000000000000000000000000000000000000000000000000e3000000000000000000000000000000000000000000000000001ca0e9719be5e00b4af69f222adf73accb902954ebe1d69ef8dd7e650736188452eea025ee5d17281e445f702d7c363b9bb1ef89ef1fd29c6c5745daef3bf5fda4d672",
                    "indexes": {
                        "data": 0,
                        "gas": 1,
                        "value": 0
                    }
                },
                {
                    "hash": "bc24d625a3bffa61909bbd2af9e69b3f3bfd0343320182ec1179dff9fe56eea0",
                    "logs": "1dcc4de8dec75d7aab85b567b6ccd41ad312451b948a7413f0a142fd40d49347",
                    "txbytes": "0xf890800a830ad57094000000000000000000000000000000000000000580b000000000008000000000000000000000000000000000000000000000000000000000000400000000000000000000000a1ca0d145a9801c5286d47af76601ae4c16b182d7575fda22e60e9d5cf756da4984c1a01156ee0b505505efa84daa70a2aaa11eb6851cb138db9def16ae796dbfc3c88e",
                    "indexes": {
                        "data": 1,
                        "gas": 0,
                        "value": 0
                    }
                },
                {
                    "hash": "086669759a422409ee6a80f1ac49ffbba861e7d5503b6282b1bf9fb6e7472dce",
                    "logs": "1dcc4de8dec75d7aab85b567b6ccd41ad312451b948a7413f0a142fd40d49347",
                    "txbytes": "0xf890800a836acfc094000000000000000000000000000000000000000580b000000000008000000000000000000000000000000000000000000000000000000000000400000000000000000000000a1ca0d9e594a91b7ae2e99471efe96a7804d522174d59a5c8daf21b393e674e2982bea03e88ccb590b75eae785f3f59644ea30cdf06887a3330f5b444aec425c849d071",
                    "indexes": {
                        "data": 1,
                        "gas": 1,
                        "value": 0
                    }
                },
                {
                    "hash": "bc24d625a3bffa61909bbd2af9e69b3f3bfd0343320182ec1179dff9fe56eea0",
                    "logs": "1dcc4de8dec75d7aab85b567b6ccd41ad312451b948a7413f0a142fd40d49347",
                    "txbytes": "0xf8e1800a830ad57094000000000000000000000000000000000000000580b88000000000000000000000000000000000000000000000000000000000000000000000000000000000000000000000000000000000000000000000000000011470000000000000000000000000000000000000000000000000000000000616603500000000000000000000000000000000000000000000000000000000000000081ba01e706ae806a9bcc5a1bcbe53e842484de388f1e7e54fa29892c34c1cf39ab23ea05b7f2ece335c6ea34ba4dba513548c84093ba98d2ca40d8a2c679193c81ede4d",
                    "indexes": {
                        "data": 2,
                        "gas": 0,
                        "value": 0
                    }
                },
                {
                    "hash": "086669759a422409ee6a80f1ac49ffbba861e7d5503b6282b1bf9fb6e7472dce",
                    "logs": "1dcc4de8dec75d7aab85b567b6ccd41ad312451b948a7413f0a142fd40d49347",
                    "txbytes": "0xf8e1800a836acfc094000000000000000000000000000000000000000580b88000000000000000000000000000000000000000000000000000000000000000000000000000000000000000000000000000000000000000000000000000011470000000000000000000000000000000000000000000000000000000000616603500000000000000000000000000000000000000000000000000000000000000081ba0d2245bc414d5ed5b0745c5d9d605a6f542048c3b2d27caeb1b8ff17476cefde2a02bfd2563f14f84a625571116aa88c71914da547cbab5273bf9bc3cc30c396c0a",
                    "indexes": {
                        "data": 2,
                        "gas": 1,
                        "value": 0
                    }
                }
            ],
            "ETC_Mystique": [
                {
                    "hash": "da6887a3432e0f837eaad56214a9d761466f38bc81d5fb58c5a93f9029821dda",
                    "logs": "1dcc4de8dec75d7aab85b567b6ccd41ad312451b948a7413f0a142fd40d49347",
                    "txbytes": "0xf89a800a830ad57094000000000000000000000000000000000000000580b83900000000000000000000000000000000000000000000000000000000000000e3000000000000000000000000000000000000000000000000001ba0b68f145196c885458cf986ae74640178ba0df6fbdcb533f222a4ff3db0337b6ca00b9d327286d4beb4b5ebab578fb5d560c0396c3daf65263e594f4b4f02d6a897",
                    "indexes": {
                        "data": 0,
                        "gas": 0,
                        "value": 0
                    }
                },
                {
                    "hash": "da6887a3432e0f837eaad56214a9d761466f38bc81d5fb58c5a93f9029821dda",
                    "logs": "1dcc4de8dec75d7aab85b567b6ccd41ad312451b948a7413f0a142fd40d49347",
                    "txbytes": "0xf89a800a836acfc094000000000000000000000000000000000000000580b83900000000000000000000000000000000000000000000000000000000000000e3000000000000000000000000000000000000000000000000001ca0e9719be5e00b4af69f222adf73accb902954ebe1d69ef8dd7e650736188452eea025ee5d17281e445f702d7c363b9bb1ef89ef1fd29c6c5745daef3bf5fda4d672",
                    "indexes": {
                        "data": 0,
                        "gas": 1,
                        "value": 0
                    }
                },
                {
                    "hash": "bc24d625a3bffa61909bbd2af9e69b3f3bfd0343320182ec1179dff9fe56eea0",
                    "logs": "1dcc4de8dec75d7aab85b567b6ccd41ad312451b948a7413f0a142fd40d49347",
                    "txbytes": "0xf890800a830ad57094000000000000000000000000000000000000000580b000000000008000000000000000000000000000000000000000000000000000000000000400000000000000000000000a1ca0d145a9801c5286d47af76601ae4c16b182d7575fda22e60e9d5cf756da4984c1a01156ee0b505505efa84daa70a2aaa11eb6851cb138db9def16ae796dbfc3c88e",
                    "indexes": {
                        "data": 1,
                        "gas": 0,
                        "value": 0
                    }
                },
                {
                    "hash": "086669759a422409ee6a80f1ac49ffbba861e7d5503b6282b1bf9fb6e7472dce",
                    "logs": "1dcc4de8dec75d7aab85b567b6ccd41ad312451b948a7413f0a142fd40d49347",
                    "txbytes": "0xf890800a836acfc094000000000000000000000000000000000000000580b000000000008000000000000000000000000000000000000000000000000000000000000400000000000000000000000a1ca0d9e594a91b7ae2e99471efe96a7804d522174d59a5c8daf21b393e674e2982bea03e88ccb590b75eae785f3f59644ea30cdf06887a3330f5b444aec425c849d071",
                    "indexes": {
                        "data": 1,
                        "gas": 1,
                        "value": 0
                    }
                },
                {
                    "hash": "bc24d625a3bffa61909bbd2af9e69b3f3bfd0343320182ec1179dff9fe56eea0",
                    "logs": "1dcc4de8dec75d7aab85b567b6ccd41ad312451b948a7413f0a142fd40d49347",
                    "txbytes": "0xf8e1800a830ad57094000000000000000000000000000000000000000580b88000000000000000000000000000000000000000000000000000000000000000000000000000000000000000000000000000000000000000000000000000011470000000000000000000000000000000000000000000000000000000000616603500000000000000000000000000000000000000000000000000000000000000081ba01e706ae806a9bcc5a1bcbe53e842484de388f1e7e54fa29892c34c1cf39ab23ea05b7f2ece335c6ea34ba4dba513548c84093ba98d2ca40d8a2c679193c81ede4d",
                    "indexes": {
                        "data": 2,
                        "gas": 0,
                        "value": 0
                    }
                },
                {
                    "hash": "086669759a422409ee6a80f1ac49ffbba861e7d5503b6282b1bf9fb6e7472dce",
                    "logs": "1dcc4de8dec75d7aab85b567b6ccd41ad312451b948a7413f0a142fd40d49347",
                    "txbytes": "0xf8e1800a836acfc094000000000000000000000000000000000000000580b88000000000000000000000000000000000000000000000000000000000000000000000000000000000000000000000000000000000000000000000000000011470000000000000000000000000000000000000000000000000000000000616603500000000000000000000000000000000000000000000000000000000000000081ba0d2245bc414d5ed5b0745c5d9d605a6f542048c3b2d27caeb1b8ff17476cefde2a02bfd2563f14f84a625571116aa88c71914da547cbab5273bf9bc3cc30c396c0a",
                    "indexes": {
                        "data": 2,
                        "gas": 1,
                        "value": 0
                    }
                }
            ],
            "ETC_Phoenix": [
                {
                    "hash": "47a7480e650bf5ed330211059c7c5ba139268fce1f7c7c47df995cad1d60447b",
                    "logs": "1dcc4de8dec75d7aab85b567b6ccd41ad312451b948a7413f0a142fd40d49347",
                    "txbytes": "0xf89a800a830ad57094000000000000000000000000000000000000000580b83900000000000000000000000000000000000000000000000000000000000000e3000000000000000000000000000000000000000000000000001ba0b68f145196c885458cf986ae74640178ba0df6fbdcb533f222a4ff3db0337b6ca00b9d327286d4beb4b5ebab578fb5d560c0396c3daf65263e594f4b4f02d6a897",
                    "indexes": {
                        "data": 0,
                        "gas": 0,
                        "value": 0
                    }
                },
                {
                    "hash": "47a7480e650bf5ed330211059c7c5ba139268fce1f7c7c47df995cad1d60447b",
                    "logs": "1dcc4de8dec75d7aab85b567b6ccd41ad312451b948a7413f0a142fd40d49347",
                    "txbytes": "0xf89a800a836acfc094000000000000000000000000000000000000000580b83900000000000000000000000000000000000000000000000000000000000000e3000000000000000000000000000000000000000000000000001ca0e9719be5e00b4af69f222adf73accb902954ebe1d69ef8dd7e650736188452eea025ee5d17281e445f702d7c363b9bb1ef89ef1fd29c6c5745daef3bf5fda4d672",
                    "indexes": {
                        "data": 0,
                        "gas": 1,
                        "value": 0
                    }
                },
                {
                    "hash": "bc24d625a3bffa61909bbd2af9e69b3f3bfd0343320182ec1179dff9fe56eea0",
                    "logs": "1dcc4de8dec75d7aab85b567b6ccd41ad312451b948a7413f0a142fd40d49347",
                    "txbytes": "0xf890800a830ad57094000000000000000000000000000000000000000580b000000000008000000000000000000000000000000000000000000000000000000000000400000000000000000000000a1ca0d145a9801c5286d47af76601ae4c16b182d7575fda22e60e9d5cf756da4984c1a01156ee0b505505efa84daa70a2aaa11eb6851cb138db9def16ae796dbfc3c88e",
                    "indexes": {
                        "data": 1,
                        "gas": 0,
                        "value": 0
                    }
                },
                {
                    "hash": "086669759a422409ee6a80f1ac49ffbba861e7d5503b6282b1bf9fb6e7472dce",
                    "logs": "1dcc4de8dec75d7aab85b567b6ccd41ad312451b948a7413f0a142fd40d49347",
                    "txbytes": "0xf890800a836acfc094000000000000000000000000000000000000000580b000000000008000000000000000000000000000000000000000000000000000000000000400000000000000000000000a1ca0d9e594a91b7ae2e99471efe96a7804d522174d59a5c8daf21b393e674e2982bea03e88ccb590b75eae785f3f59644ea30cdf06887a3330f5b444aec425c849d071",
                    "indexes": {
                        "data": 1,
                        "gas": 1,
                        "value": 0
                    }
                },
                {
                    "hash": "bc24d625a3bffa61909bbd2af9e69b3f3bfd0343320182ec1179dff9fe56eea0",
                    "logs": "1dcc4de8dec75d7aab85b567b6ccd41ad312451b948a7413f0a142fd40d49347",
                    "txbytes": "0xf8e1800a830ad57094000000000000000000000000000000000000000580b88000000000000000000000000000000000000000000000000000000000000000000000000000000000000000000000000000000000000000000000000000011470000000000000000000000000000000000000000000000000000000000616603500000000000000000000000000000000000000000000000000000000000000081ba01e706ae806a9bcc5a1bcbe53e842484de388f1e7e54fa29892c34c1cf39ab23ea05b7f2ece335c6ea34ba4dba513548c84093ba98d2ca40d8a2c679193c81ede4d",
                    "indexes": {
                        "data": 2,
                        "gas": 0,
                        "value": 0
                    }
                },
                {
                    "hash": "086669759a422409ee6a80f1ac49ffbba861e7d5503b6282b1bf9fb6e7472dce",
                    "logs": "1dcc4de8dec75d7aab85b567b6ccd41ad312451b948a7413f0a142fd40d49347",
                    "txbytes": "0xf8e1800a836acfc094000000000000000000000000000000000000000580b88000000000000000000000000000000000000000000000000000000000000000000000000000000000000000000000000000000000000000000000000000011470000000000000000000000000000000000000000000000000000000000616603500000000000000000000000000000000000000000000000000000000000000081ba0d2245bc414d5ed5b0745c5d9d605a6f542048c3b2d27caeb1b8ff17476cefde2a02bfd2563f14f84a625571116aa88c71914da547cbab5273bf9bc3cc30c396c0a",
                    "indexes": {
                        "data": 2,
                        "gas": 1,
                        "value": 0
                    }
                }
            ]
        }
    }
}