{
    "Call1024BalanceTooLow": {
        "_info": {
            "comment": "",
            "filling-rpc-server": "evm version 1.10.16-unstable-0f893109-20220105",
            "filling-tool-version": "retesteth-0.2.2-testinfo+commit.01c6aac2.Linux.g++",
            "filledWith": "CoreGeth-1.12.9-unstable-d64998ce9b05f4f41b35740c69c4b402e41a3105",
            "lllcversion": "Version: 0.5.14-develop.2021.11.27+commit.401d5358.Linux.g++",
            "source": "src/GeneralStateTestsFiller/stDelegatecallTestHomestead/Call1024BalanceTooLowFiller.json",
            "sourceHash": "f91b000bdf9bbc5dbb55a5862c84c809d5670471039c211c8f5cebc864211263"
        },
        "env": {
            "currentCoinbase": "0xb94f5374fce5edbc8e2a8697c15331677e6ebf0b",
            "currentDifficulty": "0x20000",
            "currentGasLimit": "0x7fffffffffffffff",
            "currentNumber": "0x1",
            "currentTimestamp": "0x3e8",
            "previousHash": "0x5e20a0453cecd065ea59c37ac63e079ee08998b6045136a8ce6635c7912ec0b6"
        },
        "pre": {
            "0xa94f5374fce5edbc8e2a8697c15331677e6ebf0b": {
                "balance": "0xffffffffffffffffffffffffffffffff"
            },
            "0xaaaf5374fce5edbc8e2a8697c15331677e6ebf0b": {
                "balance": "0x1b58"
            },
            "0xbbbf5374fce5edbc8e2a8697c15331677e6ebf0b": {
                "code": "0x600160005401600055600060006000600073bbbf5374fce5edbc8e2a8697c15331677e6ebf0b650ffffffffffff460015500",
                "balance": "0x400"
            }
        },
        "transaction": {
            "gasPrice": "0xa",
            "nonce": "0x0",
            "to": "0xbbbf5374fce5edbc8e2a8697c15331677e6ebf0b",
            "data": [
                "0x"
            ],
            "gasLimit": [
                "0x10000000d788"
            ],
            "value": [
                "0x0a"
            ],
            "secretKey": "0x45a915e4d060149eb4365960e6a7a45f334393093061116b197e3240065ff2d8",
            "sender": "0xa94f5374fce5edbc8e2a8697c15331677e6ebf0b"
        },
        "post": {
            "ETC_Magneto": [
                {
                    "hash": "277480afffc0f5b222bb2b4f173c6ad2bbf81406d942f91e58cb43dbb213c3f8",
                    "logs": "1dcc4de8dec75d7aab85b567b6ccd41ad312451b948a7413f0a142fd40d49347",
                    "txbytes": "0xf863800a8610000000d78894bbbf5374fce5edbc8e2a8697c15331677e6ebf0b0a801ba0fadbc513261a88f1e148f1955078ed31a9f37f452e45b15ad8ee2ba2f04a1868a06601bfd41c31244dbf89228d2b5d7cde692e93a8386b72b3834d1e47931ea8e4",
                    "indexes": {
                        "data": 0,
                        "gas": 0,
                        "value": 0
                    }
                }
            ],
            "ETC_Mystique": [
                {
                    "hash": "277480afffc0f5b222bb2b4f173c6ad2bbf81406d942f91e58cb43dbb213c3f8",
                    "logs": "1dcc4de8dec75d7aab85b567b6ccd41ad312451b948a7413f0a142fd40d49347",
                    "txbytes": "0xf863800a8610000000d78894bbbf5374fce5edbc8e2a8697c15331677e6ebf0b0a801ba0fadbc513261a88f1e148f1955078ed31a9f37f452e45b15ad8ee2ba2f04a1868a06601bfd41c31244dbf89228d2b5d7cde692e93a8386b72b3834d1e47931ea8e4",
                    "indexes": {
                        "data": 0,
                        "gas": 0,
                        "value": 0
                    }
                }
            ],
            "ETC_Phoenix": [
                {
                    "hash": "5e34e5c4b1eec1379e8c442fcf05a38a557c319a5a0904c62e4a9071f9f5acbc",
                    "logs": "1dcc4de8dec75d7aab85b567b6ccd41ad312451b948a7413f0a142fd40d49347",
                    "txbytes": "0xf863800a8610000000d78894bbbf5374fce5edbc8e2a8697c15331677e6ebf0b0a801ba0fadbc513261a88f1e148f1955078ed31a9f37f452e45b15ad8ee2ba2f04a1868a06601bfd41c31244dbf89228d2b5d7cde692e93a8386b72b3834d1e47931ea8e4",
                    "indexes": {
                        "data": 0,
                        "gas": 0,
                        "value": 0
                    }
                }
            ]
        }
    }
}