{
    "callOutput3partial": {
        "_info": {
            "comment": "",
            "filling-rpc-server": "evm version 1.10.16-unstable-0f893109-20220105",
            "filling-tool-version": "retesteth-0.2.2-testinfo+commit.01c6aac2.Linux.g++",
            "filledWith": "CoreGeth-1.12.9-unstable-ab16c56768f0284ab56a30aac9550d3ebdc45901",
            "lllcversion": "Version: 0.5.14-develop.2021.11.27+commit.401d5358.Linux.g++",
            "source": "src/GeneralStateTestsFiller/stDelegatecallTestHomestead/callOutput3partialFiller.json",
            "sourceHash": "15874ce818786549ec450ccc0743886e6d423ad2a0ab69ab1c19579918658550"
        },
        "env": {
            "currentCoinbase": "0x2adc25665018aa1fe0e6bc666dac8fc2697ff9ba",
            "currentDifficulty": "0x20000",
            "currentGasLimit": "0xf4240",
            "currentNumber": "0x1",
            "currentTimestamp": "0x3e8",
            "currentBaseFee": "0xa",
            "previousHash": "0x5e20a0453cecd065ea59c37ac63e079ee08998b6045136a8ce6635c7912ec0b6"
        },
        "pre": {
            "0x095e7baea6a6c7c4c2dfeb977efac326af552d87": {
                "code": "0x7f5e20a0453cecd065ea59c37ac63e079ee08998b6045136a8ce6635c7912ec0b6600052600a60006000600073aaae7baea6a6c7c4c2dfeb977efac326af552d8761c350f45060005160005500",
                "balance": "0xde0b6b3a7640000"
            },
            "0xa94f5374fce5edbc8e2a8697c15331677e6ebf0b": {
                "balance": "0xde0b6b3a7640000"
            },
            "0xaaae7baea6a6c7c4c2dfeb977efac326af552d87": {
                "code": "0x6001600101600055",
                "balance": "0xde0b6b3a7640000"
            }
        },
        "transaction": {
            "gasPrice": "0xa",
            "nonce": "0x0",
            "to": "0x095e7baea6a6c7c4c2dfeb977efac326af552d87",
            "data": [
                "0x"
            ],
            "gasLimit": [
                "0xdbba0"
            ],
            "value": [
                "0x0186a0"
            ],
            "secretKey": "0x45a915e4d060149eb4365960e6a7a45f334393093061116b197e3240065ff2d8",
            "sender": "0xa94f5374fce5edbc8e2a8697c15331677e6ebf0b"
        },
        "post": {
            "ETC_Magneto": [
                {
                    "hash": "29354c66ddcd946845b5780409328269cacd205be067eecf6765ab2c76346c84",
                    "logs": "1dcc4de8dec75d7aab85b567b6ccd41ad312451b948a7413f0a142fd40d49347",
                    "txbytes": "0xf863800a830dbba094095e7baea6a6c7c4c2dfeb977efac326af552d87830186a0801ca04982edab0614d35b80b70f68e3036fa1774b76ca51bfa06622e8db4837580eaea02a109e7076f596480207d7fbc0499f57763c67be6b8c23cc62c900b82d0ccec9",
                    "indexes": {
                        "data": 0,
                        "gas": 0,
                        "value": 0
                    }
                }
            ],
            "ETC_Mystique": [
                {
                    "hash": "29354c66ddcd946845b5780409328269cacd205be067eecf6765ab2c76346c84",
                    "logs": "1dcc4de8dec75d7aab85b567b6ccd41ad312451b948a7413f0a142fd40d49347",
                    "txbytes": "0xf863800a830dbba094095e7baea6a6c7c4c2dfeb977efac326af552d87830186a0801ca04982edab0614d35b80b70f68e3036fa1774b76ca51bfa06622e8db4837580eaea02a109e7076f596480207d7fbc0499f57763c67be6b8c23cc62c900b82d0ccec9",
                    "indexes": {
                        "data": 0,
                        "gas": 0,
                        "value": 0
                    }
                }
            ],
            "ETC_Phoenix": [
                {
                    "hash": "162a76ddae218f2d177e38d2c1b13924c5c5ace8de84170eb2e032c711887aa7",
                    "logs": "1dcc4de8dec75d7aab85b567b6ccd41ad312451b948a7413f0a142fd40d49347",
                    "txbytes": "0xf863800a830dbba094095e7baea6a6c7c4c2dfeb977efac326af552d87830186a0801ca04982edab0614d35b80b70f68e3036fa1774b76ca51bfa06622e8db4837580eaea02a109e7076f596480207d7fbc0499f57763c67be6b8c23cc62c900b82d0ccec9",
                    "indexes": {
                        "data": 0,
                        "gas": 0,
                        "value": 0
                    }
                }
            ]
        }
    }
}