{
    "callOutput2": {
        "_info": {
            "comment": "",
            "filling-rpc-server": "evm version 1.10.16-unstable-0f893109-20220105",
            "filling-tool-version": "retesteth-0.2.2-testinfo+commit.01c6aac2.Linux.g++",
            "filledWith": "CoreGeth-1.12.9-unstable-d390462df9df233b60b4cd7a37db5b3043832022",
            "lllcversion": "Version: 0.5.14-develop.2021.11.27+commit.401d5358.Linux.g++",
            "source": "src/GeneralStateTestsFiller/stDelegatecallTestHomestead/callOutput2Filler.json",
            "sourceHash": "69906bd779111a2c034681b18bb753287e1303c0d48451dec2d65d3d6b240429"
        },
        "env": {
            "currentCoinbase": "0x2adc25665018aa1fe0e6bc666dac8fc2697ff9ba",
            "currentDifficulty": "0x20000",
            "currentGasLimit": "0xf4240",
            "currentNumber": "0x1",
            "currentTimestamp": "0x3e8",
            "previousHash": "0x5e20a0453cecd065ea59c37ac63e079ee08998b6045136a8ce6635c7912ec0b6"
        },
        "pre": {
            "0x095e7baea6a6c7c4c2dfeb977efac326af552d87": {
                "code": "0x7f5e20a0453cecd065ea59c37ac63e079ee08998b6045136a8ce6635c7912ec0b6600052600060006020600073aaae7baea6a6c7c4c2dfeb977efac326af552d8761c350f45060005160005500",
                "balance": "0xde0b6b3a7640000",
                "nonce": "0x0"
            },
            "0xa94f5374fce5edbc8e2a8697c15331677e6ebf0b": {
                "code": "0x",
                "balance": "0xde0b6b3a7640000",
                "nonce": "0x0"
            },
            "0xaaae7baea6a6c7c4c2dfeb977efac326af552d87": {
                "code": "0x6001600101600055",
                "balance": "0xde0b6b3a7640000",
                "nonce": "0x0"
            }
        },
        "transaction": {
            "gasPrice": "0xa",
            "nonce": "0x0",
            "to": "0x095e7baea6a6c7c4c2dfeb977efac326af552d87",
            "data": [
                "0x"
            ],
            "gasLimit": [
                "0xdbba0"
            ],
            "value": [
                "0x0186a0"
            ],
            "secretKey": "0x45a915e4d060149eb4365960e6a7a45f334393093061116b197e3240065ff2d8",
            "sender": "0xa94f5374fce5edbc8e2a8697c15331677e6ebf0b"
        },
        "post": {
            "ETC_Magneto": [
                {
                    "hash": "5d9073eba2bff131b75ceda5f961de6595718e44b79988e6a91dea8da09492fd",
                    "logs": "1dcc4de8dec75d7aab85b567b6ccd41ad312451b948a7413f0a142fd40d49347",
                    "txbytes": "0xf863800a830dbba094095e7baea6a6c7c4c2dfeb977efac326af552d87830186a0801ca04982edab0614d35b80b70f68e3036fa1774b76ca51bfa06622e8db4837580eaea02a109e7076f596480207d7fbc0499f57763c67be6b8c23cc62c900b82d0ccec9",
                    "indexes": {
                        "data": 0,
                        "gas": 0,
                        "value": 0
                    }
                }
            ],
            "ETC_Mystique": [
                {
                    "hash": "5d9073eba2bff131b75ceda5f961de6595718e44b79988e6a91dea8da09492fd",
                    "logs": "1dcc4de8dec75d7aab85b567b6ccd41ad312451b948a7413f0a142fd40d49347",
                    "txbytes": "0xf863800a830dbba094095e7baea6a6c7c4c2dfeb977efac326af552d87830186a0801ca04982edab0614d35b80b70f68e3036fa1774b76ca51bfa06622e8db4837580eaea02a109e7076f596480207d7fbc0499f57763c67be6b8c23cc62c900b82d0ccec9",
                    "indexes": {
                        "data": 0,
                        "gas": 0,
                        "value": 0
                    }
                }
            ],
            "ETC_Phoenix": [
                {
                    "hash": "debf5125baa7a82c02b069dabeb1b5b330207adbf12a48ea450bcce22aeec2cb",
                    "logs": "1dcc4de8dec75d7aab85b567b6ccd41ad312451b948a7413f0a142fd40d49347",
                    "txbytes": "0xf863800a830dbba094095e7baea6a6c7c4c2dfeb977efac326af552d87830186a0801ca04982edab0614d35b80b70f68e3036fa1774b76ca51bfa06622e8db4837580eaea02a109e7076f596480207d7fbc0499f57763c67be6b8c23cc62c900b82d0ccec9",
                    "indexes": {
                        "data": 0,
                        "gas": 0,
                        "value": 0
                    }
                }
            ]
        }
    }
}