{
    "CallcodeLoseGasOOG": {
        "_info": {
            "comment": "",
            "filling-rpc-server": "evm version 1.10.16-unstable-0f893109-20220105",
            "filling-tool-version": "retesteth-0.2.2-testinfo+commit.01c6aac2.Linux.g++",
            "filledWith": "CoreGeth-1.12.9-unstable-d64998ce9b05f4f41b35740c69c4b402e41a3105",
            "lllcversion": "Version: 0.5.14-develop.2021.11.27+commit.401d5358.Linux.g++",
            "source": "src/GeneralStateTestsFiller/stDelegatecallTestHomestead/CallcodeLoseGasOOGFiller.json",
            "sourceHash": "ebeb278512609d9e1e23cceb26427f344f4ace285f8941aec5304ad07e768c52"
        },
        "env": {
            "currentCoinbase": "0xb94f5374fce5edbc8e2a8697c15331677e6ebf0b",
            "currentDifficulty": "0x20000",
            "currentGasLimit": "0x7fffffffffffffff",
            "currentNumber": "0x1",
            "currentTimestamp": "0x3e8",
            "previousHash": "0x5e20a0453cecd065ea59c37ac63e079ee08998b6045136a8ce6635c7912ec0b6"
        },
        "pre": {
            "0xa94f5374fce5edbc8e2a8697c15331677e6ebf0b": {
                "balance": "0xffffffffffffffffffffffffffffffff"
            },
            "0xaaaf5374fce5edbc8e2a8697c15331677e6ebf0b": {
                "balance": "0x1b58"
            },
            "0xbbbf5374fce5edbc8e2a8697c15331677e6ebf0b": {
                "code": "0x600160005401600055600060006000600073bbbf5374fce5edbc8e2a8697c15331677e6ebf0b620186a060005402600101f46001556103e86000540260010160025500",
                "balance": "0x400"
            }
        },
        "transaction": {
            "gasPrice": "0xa",
            "nonce": "0x0",
            "to": "0xbbbf5374fce5edbc8e2a8697c15331677e6ebf0b",
            "data": [
                "0x"
            ],
            "gasLimit": [
                "0x28976",
                "0x26266",
                "0x927c0"
            ],
            "value": [
                "0x0a"
            ],
            "secretKey": "0x45a915e4d060149eb4365960e6a7a45f334393093061116b197e3240065ff2d8",
            "sender": "0xa94f5374fce5edbc8e2a8697c15331677e6ebf0b"
        },
        "post": {
            "ETC_Magneto": [
                {
                    "hash": "60341cb173211a9c81ad0be902df5a75f968a2c3578288718342114709ab4bd2",
                    "logs": "1dcc4de8dec75d7aab85b567b6ccd41ad312451b948a7413f0a142fd40d49347",
                    "txbytes": "0xf860800a830927c094bbbf5374fce5edbc8e2a8697c15331677e6ebf0b0a801ca00ab9912386db9f86448c17a9083d1cdf2186fd328d944216fd73afa229a44c55a00859179a5bc062e24f12d77e0ec4ff8c1d799a5eced12311cfea93bbf55c36f1",
                    "indexes": {
                        "data": 0,
                        "gas": 2,
                        "value": 0
                    }
                },
                {
                    "hash": "fe3d4a02d03b733efd85541b3cd436ac061eb5098eac3a9783b25aa531952226",
                    "logs": "1dcc4de8dec75d7aab85b567b6ccd41ad312451b948a7413f0a142fd40d49347",
                    "txbytes": "0xf860800a8302626694bbbf5374fce5edbc8e2a8697c15331677e6ebf0b0a801ba0372debc44ae927e8dddd1fd0572404455fa0e0a3021a556f7ee6226b2d6049d6a06b0e73837269b911cd41b9526771c0c1cdc51406c3f2b49e3077511e070a6330",
                    "indexes": {
                        "data": 0,
                        "gas": 1,
                        "value": 0
                    }
                }
            ],
            "ETC_Mystique": [
                {
                    "hash": "60341cb173211a9c81ad0be902df5a75f968a2c3578288718342114709ab4bd2",
                    "logs": "1dcc4de8dec75d7aab85b567b6ccd41ad312451b948a7413f0a142fd40d49347",
                    "txbytes": "0xf860800a830927c094bbbf5374fce5edbc8e2a8697c15331677e6ebf0b0a801ca00ab9912386db9f86448c17a9083d1cdf2186fd328d944216fd73afa229a44c55a00859179a5bc062e24f12d77e0ec4ff8c1d799a5eced12311cfea93bbf55c36f1",
                    "indexes": {
                        "data": 0,
                        "gas": 2,
                        "value": 0
                    }
                },
                {
                    "hash": "fe3d4a02d03b733efd85541b3cd436ac061eb5098eac3a9783b25aa531952226",
                    "logs": "1dcc4de8dec75d7aab85b567b6ccd41ad312451b948a7413f0a142fd40d49347",
                    "txbytes": "0xf860800a8302626694bbbf5374fce5edbc8e2a8697c15331677e6ebf0b0a801ba0372debc44ae927e8dddd1fd0572404455fa0e0a3021a556f7ee6226b2d6049d6a06b0e73837269b911cd41b9526771c0c1cdc51406c3f2b49e3077511e070a6330",
                    "indexes": {
                        "data": 0,
                        "gas": 1,
                        "value": 0
                    }
                }
            ],
            "ETC_Phoenix": [
                {
                    "hash": "d6b7f6a9dbd6a3371276f02a09bc3dfeee880e9a26e1a5da55b4910be752d876",
                    "logs": "1dcc4de8dec75d7aab85b567b6ccd41ad312451b948a7413f0a142fd40d49347",
                    "txbytes": "0xf860800a8302897694bbbf5374fce5edbc8e2a8697c15331677e6ebf0b0a801ba0c96942327e8d497655a922d17f1bd85e09a77954fb42c4561eac701dae78c10ca07c7b28ec13d8ac3fb41cd3eaa4d77377e0a1932a4626b56677ec543544f5e6bc",
                    "indexes": {
                        "data": 0,
                        "gas": 0,
                        "value": 0
                    }
                },
                {
                    "hash": "fe3d4a02d03b733efd85541b3cd436ac061eb5098eac3a9783b25aa531952226",
                    "logs": "1dcc4de8dec75d7aab85b567b6ccd41ad312451b948a7413f0a142fd40d49347",
                    "txbytes": "0xf860800a8302626694bbbf5374fce5edbc8e2a8697c15331677e6ebf0b0a801ba0372debc44ae927e8dddd1fd0572404455fa0e0a3021a556f7ee6226b2d6049d6a06b0e73837269b911cd41b9526771c0c1cdc51406c3f2b49e3077511e070a6330",
                    "indexes": {
                        "data": 0,
                        "gas": 1,
                        "value": 0
                    }
                }
            ]
        }
    }
}