{
    "CallRecursiveBombPreCall": {
        "_info": {
            "comment": "",
            "filling-rpc-server": "evm version 1.10.16-unstable-0f893109-20220105",
            "filling-tool-version": "retesteth-0.2.2-testinfo+commit.01c6aac2.Linux.g++",
            "filledWith": "CoreGeth-1.12.9-unstable-ab16c56768f0284ab56a30aac9550d3ebdc45901",
            "lllcversion": "Version: 0.5.14-develop.2021.11.27+commit.401d5358.Linux.g++",
            "source": "src/GeneralStateTestsFiller/stDelegatecallTestHomestead/CallRecursiveBombPreCallFiller.json",
            "sourceHash": "ba12205a7ef1792b8ad16d602f8c05f495dd6730ed7147d052b6cf21da60db82"
        },
        "env": {
            "currentCoinbase": "0x2adc25665018aa1fe0e6bc666dac8fc2697ff9ba",
            "currentDifficulty": "0x20000",
            "currentGasLimit": "0x7fffffffffffffff",
            "currentNumber": "0x1",
            "currentTimestamp": "0x3e8",
            "currentBaseFee": "0xa",
            "previousHash": "0x5e20a0453cecd065ea59c37ac63e079ee08998b6045136a8ce6635c7912ec0b6"
        },
        "pre": {
            "0x095e7baea6a6c7c4c2dfeb977efac326af552d87": {
                "code": "0x6000600060006000601773bad304eb96065b2a98b57a48a06ae28d285a71b5620186a0f150600060006000600073945304eb96065b2a98b57a48a06ae28d285a71b56707fffffffffffffff400",
                "balance": "0xfffffffffffffffffffffffffffffff"
            },
            "0x945304eb96065b2a98b57a48a06ae28d285a71b5": {
                "code": "0x6001600054016000556000600060006000600073945304eb96065b2a98b57a48a06ae28d285a71b562036b005a03f160015500",
                "balance": "0xde0b6b3a7640000"
            },
            "0xa94f5374fce5edbc8e2a8697c15331677e6ebf0b": {
                "balance": "0xfffffffffffffffffffffffffffffff"
            }
        },
        "transaction": {
            "gasPrice": "0xa",
            "nonce": "0x0",
            "to": "0x095e7baea6a6c7c4c2dfeb977efac326af552d87",
            "data": [
                "0x"
            ],
            "gasLimit": [
                "0x7fe0000000000001"
            ],
            "value": [
                "0x00"
            ],
            "secretKey": "0x45a915e4d060149eb4365960e6a7a45f334393093061116b197e3240065ff2d8",
            "sender": "0xa94f5374fce5edbc8e2a8697c15331677e6ebf0b"
        },
        "post": {
            "ETC_Magneto": [
                {
                    "hash": "5f66771d33067069cb5154feead2b65356c504cee7fb3f2962abac2177066690",
                    "logs": "1dcc4de8dec75d7aab85b567b6ccd41ad312451b948a7413f0a142fd40d49347",
                    "txbytes": "0xf865800a887fe000000000000194095e7baea6a6c7c4c2dfeb977efac326af552d8780801ca0364f82f35c1de49c8240f79a50728a2c6205b7b7fc8e479276023b5e2c759ff6a07cf0e565dd02a05bf2a5aafd5b9bd1089de60d06e54c46c1b8d8169dcc513b60",
                    "indexes": {
                        "data": 0,
                        "gas": 0,
                        "value": 0
                    }
                }
            ],
            "ETC_Mystique": [
                {
                    "hash": "5f66771d33067069cb5154feead2b65356c504cee7fb3f2962abac2177066690",
                    "logs": "1dcc4de8dec75d7aab85b567b6ccd41ad312451b948a7413f0a142fd40d49347",
                    "txbytes": "0xf865800a887fe000000000000194095e7baea6a6c7c4c2dfeb977efac326af552d8780801ca0364f82f35c1de49c8240f79a50728a2c6205b7b7fc8e479276023b5e2c759ff6a07cf0e565dd02a05bf2a5aafd5b9bd1089de60d06e54c46c1b8d8169dcc513b60",
                    "indexes": {
                        "data": 0,
                        "gas": 0,
                        "value": 0
                    }
                }
            ],
            "ETC_Phoenix": [
                {
                    "hash": "fb38998a5f7e0713224643c74354a3a495a1528e94111b0bb53d152872bad52c",
                    "logs": "1dcc4de8dec75d7aab85b567b6ccd41ad312451b948a7413f0a142fd40d49347",
                    "txbytes": "0xf865800a887fe000000000000194095e7baea6a6c7c4c2dfeb977efac326af552d8780801ca0364f82f35c1de49c8240f79a50728a2c6205b7b7fc8e479276023b5e2c759ff6a07cf0e565dd02a05bf2a5aafd5b9bd1089de60d06e54c46c1b8d8169dcc513b60",
                    "indexes": {
                        "data": 0,
                        "gas": 0,
                        "value": 0
                    }
                }
            ]
        }
    }
}