{
    "delegatecallValueCheck": {
        "_info": {
            "comment": "",
            "filling-rpc-server": "evm version 1.10.16-unstable-0f893109-20220105",
            "filling-tool-version": "retesteth-0.2.2-testinfo+commit.01c6aac2.Linux.g++",
            "filledWith": "CoreGeth-1.12.9-unstable-ab16c56768f0284ab56a30aac9550d3ebdc45901",
            "lllcversion": "Version: 0.5.14-develop.2021.11.27+commit.401d5358.Linux.g++",
            "source": "src/GeneralStateTestsFiller/stDelegatecallTestHomestead/delegatecallValueCheckFiller.json",
            "sourceHash": "5974df08bc893a5be1b3922a3f1f8f746203e256ad9572999d57b072047e276c"
        },
        "env": {
            "currentCoinbase": "0x2adc25665018aa1fe0e6bc666dac8fc2697ff9ba",
            "currentDifficulty": "0x20000",
            "currentGasLimit": "0x1c9c380",
            "currentNumber": "0x1",
            "currentTimestamp": "0x3e8",
            "currentBaseFee": "0xa",
            "previousHash": "0x5e20a0453cecd065ea59c37ac63e079ee08998b6045136a8ce6635c7912ec0b6"
        },
        "pre": {
            "0x095e7baea6a6c7c4c2dfeb977efac326af552d87": {
                "code": "0x600260006040600073945304eb96065b2a98b57a48a06ae28d285a71b56207a120f460005500",
                "balance": "0xde0b6b3a7640000"
            },
            "0x945304eb96065b2a98b57a48a06ae28d285a71b5": {
                "code": "0x3460015500",
                "balance": "0x17"
            },
            "0xa94f5374fce5edbc8e2a8697c15331677e6ebf0b": {
                "balance": "0xde0b6b3a7640000"
            }
        },
        "transaction": {
            "gasPrice": "0xa",
            "nonce": "0x0",
            "to": "0x095e7baea6a6c7c4c2dfeb977efac326af552d87",
            "data": [
                "0x"
            ],
            "gasLimit": [
                "0x2dc6c0"
            ],
            "value": [
                "0x17"
            ],
            "secretKey": "0x45a915e4d060149eb4365960e6a7a45f334393093061116b197e3240065ff2d8",
            "sender": "0xa94f5374fce5edbc8e2a8697c15331677e6ebf0b"
        },
        "post": {
            "ETC_Magneto": [
                {
                    "hash": "50b0d136679c1295c22a2d91dd19d65fca2bb85c32ebe6fb8114fb27c825e0fa",
                    "logs": "1dcc4de8dec75d7aab85b567b6ccd41ad312451b948a7413f0a142fd40d49347",
                    "txbytes": "0xf860800a832dc6c094095e7baea6a6c7c4c2dfeb977efac326af552d8717801ba0bf9e75961a225c176d31a75b307930cd2fa70f532c0d98343063f73c4a4ab2b5a078c6e7605da993e3d9cc852ec8933e905723b59bfd71eeef133c0553ec461ad5",
                    "indexes": {
                        "data": 0,
                        "gas": 0,
                        "value": 0
                    }
                }
            ],
            "ETC_Mystique": [
                {
                    "hash": "50b0d136679c1295c22a2d91dd19d65fca2bb85c32ebe6fb8114fb27c825e0fa",
                    "logs": "1dcc4de8dec75d7aab85b567b6ccd41ad312451b948a7413f0a142fd40d49347",
                    "txbytes": "0xf860800a832dc6c094095e7baea6a6c7c4c2dfeb977efac326af552d8717801ba0bf9e75961a225c176d31a75b307930cd2fa70f532c0d98343063f73c4a4ab2b5a078c6e7605da993e3d9cc852ec8933e905723b59bfd71eeef133c0553ec461ad5",
                    "indexes": {
                        "data": 0,
                        "gas": 0,
                        "value": 0
                    }
                }
            ],
            "ETC_Phoenix": [
                {
                    "hash": "45134387a05de1dc82b3cfea2b0247aa17ce51515601e600497212efe09d39ba",
                    "logs": "1dcc4de8dec75d7aab85b567b6ccd41ad312451b948a7413f0a142fd40d49347",
                    "txbytes": "0xf860800a832dc6c094095e7baea6a6c7c4c2dfeb977efac326af552d8717801ba0bf9e75961a225c176d31a75b307930cd2fa70f532c0d98343063f73c4a4ab2b5a078c6e7605da993e3d9cc852ec8933e905723b59bfd71eeef133c0553ec461ad5",
                    "indexes": {
                        "data": 0,
                        "gas": 0,
                        "value": 0
                    }
                }
            ]
        }
    }
}