{
    "delegatecallInInitcodeToExistingContractOOG": {
        "_info": {
            "comment": "",
            "filling-rpc-server": "evm version 1.10.16-unstable-0f893109-20220105",
            "filling-tool-version": "retesteth-0.2.2-testinfo+commit.01c6aac2.Linux.g++",
            "filledWith": "CoreGeth-1.12.9-unstable-f4059ddd82d975bdc54fa648e5422a80172161cb",
            "lllcversion": "Version: 0.5.14-develop.2021.11.27+commit.401d5358.Linux.g++",
            "source": "src/GeneralStateTestsFiller/stDelegatecallTestHomestead/delegatecallInInitcodeToExistingContractOOGFiller.json",
            "sourceHash": "08d50aa047d327c1d8b0a6919d7e3a01d9e0a54626df1f0e5e9ff667e6f69b4d"
        },
        "env": {
            "currentCoinbase": "2adc25665018aa1fe0e6bc666dac8fc2697ff9ba",
            "currentDifficulty": "0x20000",
            "currentRandom": null,
            "currentGasLimit": "0xf4240",
            "currentNumber": "0x1",
            "currentTimestamp": "0x3e8",
            "currentBaseFee": "0xa"
        },
        "pre": {
            "0x1000000000000000000000000000000000000000": {
                "code": "0x7f604060006040600073945304eb96065b2a98b57a48a06ae28d285a71b56201866000527fa0f4600a5533600b550000000000000000000000000000000000000000000000602052604060006005f000",
                "balance": "0x2710"
            },
            "0x945304eb96065b2a98b57a48a06ae28d285a71b5": {
                "code": "0x600160025500",
                "balance": "0x0"
            },
            "0xa94f5374fce5edbc8e2a8697c15331677e6ebf0b": {
                "balance": "0x2386f26fc10000"
            }
        },
        "transaction": {
            "gasPrice": "0xa",
            "maxFeePerGas": null,
            "maxPriorityFeePerGas": null,
            "nonce": "0x0",
            "to": "0x1000000000000000000000000000000000000000",
            "data": [
                "0x"
            ],
            "gasLimit": [
                "0x25608"
            ],
            "value": [
                "0x00"
            ],
            "secretKey": "0x45a915e4d060149eb4365960e6a7a45f334393093061116b197e3240065ff2d8"
        },
        "out": "0x",
        "post": {
            "ETC_Magneto": [
                {
                    "hash": "d0d99a189b81baa833adb7dc963901af64a72f8c2b6ef258ab31ba03f029b465",
                    "logs": "1dcc4de8dec75d7aab85b567b6ccd41ad312451b948a7413f0a142fd40d49347",
                    "txbytes": "0xf860800a8302560894100000000000000000000000000000000000000080801ca0bc609c065cb35258847ed84a8977898f4220b6aab011177c41a7eb2665ac3f36a0626d6b3e4f528307f1bbedaaa05858ec2ab20950e725f9dcd74883524b0fa4f9",
                    "indexes": {
                        "data": 0,
                        "gas": 0,
                        "value": 0
                    }
                }
            ],
            "ETC_Mystique": [
                {
                    "hash": "d0d99a189b81baa833adb7dc963901af64a72f8c2b6ef258ab31ba03f029b465",
                    "logs": "1dcc4de8dec75d7aab85b567b6ccd41ad312451b948a7413f0a142fd40d49347",
                    "txbytes": "0xf860800a8302560894100000000000000000000000000000000000000080801ca0bc609c065cb35258847ed84a8977898f4220b6aab011177c41a7eb2665ac3f36a0626d6b3e4f528307f1bbedaaa05858ec2ab20950e725f9dcd74883524b0fa4f9",
                    "indexes": {
                        "data": 0,
                        "gas": 0,
                        "value": 0
                    }
                }
            ],
            "ETC_Phoenix": [
                {
                    "hash": "842e6fe39eadec86bd05f8592180a2d06fab0ae751f89bfce7138a81c6af2dd2",
                    "logs": "1dcc4de8dec75d7aab85b567b6ccd41ad312451b948a7413f0a142fd40d49347",
                    "txbytes": "0xf860800a8302560894100000000000000000000000000000000000000080801ca0bc609c065cb35258847ed84a8977898f4220b6aab011177c41a7eb2665ac3f36a0626d6b3e4f528307f1bbedaaa05858ec2ab20950e725f9dcd74883524b0fa4f9",
                    "indexes": {
                        "data": 0,
                        "gas": 0,
                        "value": 0
                    }
                }
            ]
        }
    }
}