{
    "Call50000_identity2": {
        "_info": {
            "comment": "",
            "filling-rpc-server": "evm version 1.10.16-unstable-0f893109-20220105",
            "filling-tool-version": "retesteth-0.2.2-testinfo+commit.01c6aac2.Linux.g++",
            "filledWith": "CoreGeth-1.12.9-unstable-d64998ce9b05f4f41b35740c69c4b402e41a3105",
            "lllcversion": "Version: 0.5.14-develop.2021.11.27+commit.401d5358.Linux.g++",
            "source": "src/GeneralStateTestsFiller/stQuadraticComplexityTest/Call50000_identity2Filler.json",
            "sourceHash": "be4701f2c7a5f05188634050ea979edce1924c7aeb1f2824734134531c7eddad"
        },
        "env": {
            "currentCoinbase": "0xb94f5374fce5edbc8e2a8697c15331677e6ebf0b",
            "currentDifficulty": "0x20000",
            "currentGasLimit": "0x3499e1a0",
            "currentNumber": "0x1",
            "currentTimestamp": "0x3e8",
            "previousHash": "0x5e20a0453cecd065ea59c37ac63e079ee08998b6045136a8ce6635c7912ec0b6"
        },
        "pre": {
            "0xa94f5374fce5edbc8e2a8697c15331677e6ebf0b": {
                "balance": "0xffffffffffffffffffffffffffffffff"
            },
            "0xbbbf5374fce5edbc8e2a8697c15331677e6ebf0b": {
                "code": "0x602a6001525b61c350608051101560325761c350600161c35060006001600461061cf16000556001608051016080526005565b60805160015560015160025500",
                "balance": "0xfffffffffffff"
            }
        },
        "transaction": {
            "gasPrice": "0xa",
            "nonce": "0x0",
            "to": "0xbbbf5374fce5edbc8e2a8697c15331677e6ebf0b",
            "data": [
                "0x"
            ],
            "gasLimit": [
                "0x249f0",
                "0xee6b280"
            ],
            "value": [
                "0x0a"
            ],
            "secretKey": "0x45a915e4d060149eb4365960e6a7a45f334393093061116b197e3240065ff2d8",
            "sender": "0xa94f5374fce5edbc8e2a8697c15331677e6ebf0b"
        },
        "post": {
            "ETC_Magneto": [
                {
                    "hash": "55b3fc3b285f73c1cc4c4d0600a4825ada407231c4c5c816ff2c0b28c9a05362",
                    "logs": "1dcc4de8dec75d7aab85b567b6ccd41ad312451b948a7413f0a142fd40d49347",
                    "txbytes": "0xf861800a840ee6b28094bbbf5374fce5edbc8e2a8697c15331677e6ebf0b0a801ba0462186579a4be0ad8a63224059a11693b4c0684b9939f6c2394d1fbe045275f2a059d73f99e037295a5f8c0e656acdb5c8b9acd28ec73c320c277df61f2e2d54f9",
                    "indexes": {
                        "data": 0,
                        "gas": 1,
                        "value": 0
                    }
                },
                {
                    "hash": "9fea784ad551855ef1630adc8d1430a8b8ec47b9106417d2bc6865998e0a229b",
                    "logs": "1dcc4de8dec75d7aab85b567b6ccd41ad312451b948a7413f0a142fd40d49347",
                    "txbytes": "0xf860800a830249f094bbbf5374fce5edbc8e2a8697c15331677e6ebf0b0a801ba06843bbbe573744c46cf47f1c126c11a53cffa1bcc3eeb0e0d328e6a73ecc5447a02062c2fbb34bfea606f3cf268b5a94a81d68e748d4d896c514061c03e8acb774",
                    "indexes": {
                        "data": 0,
                        "gas": 0,
                        "value": 0
                    }
                }
            ],
            "ETC_Mystique": [
                {
                    "hash": "55b3fc3b285f73c1cc4c4d0600a4825ada407231c4c5c816ff2c0b28c9a05362",
                    "logs": "1dcc4de8dec75d7aab85b567b6ccd41ad312451b948a7413f0a142fd40d49347",
                    "txbytes": "0xf861800a840ee6b28094bbbf5374fce5edbc8e2a8697c15331677e6ebf0b0a801ba0462186579a4be0ad8a63224059a11693b4c0684b9939f6c2394d1fbe045275f2a059d73f99e037295a5f8c0e656acdb5c8b9acd28ec73c320c277df61f2e2d54f9",
                    "indexes": {
                        "data": 0,
                        "gas": 1,
                        "value": 0
                    }
                },
                {
                    "hash": "9fea784ad551855ef1630adc8d1430a8b8ec47b9106417d2bc6865998e0a229b",
                    "logs": "1dcc4de8dec75d7aab85b567b6ccd41ad312451b948a7413f0a142fd40d49347",
                    "txbytes": "0xf860800a830249f094bbbf5374fce5edbc8e2a8697c15331677e6ebf0b0a801ba06843bbbe573744c46cf47f1c126c11a53cffa1bcc3eeb0e0d328e6a73ecc5447a02062c2fbb34bfea606f3cf268b5a94a81d68e748d4d896c514061c03e8acb774",
                    "indexes": {
                        "data": 0,
                        "gas": 0,
                        "value": 0
                    }
                }
            ],
            "ETC_Phoenix": [
                {
                    "hash": "55b3fc3b285f73c1cc4c4d0600a4825ada407231c4c5c816ff2c0b28c9a05362",
                    "logs": "1dcc4de8dec75d7aab85b567b6ccd41ad312451b948a7413f0a142fd40d49347",
                    "txbytes": "0xf861800a840ee6b28094bbbf5374fce5edbc8e2a8697c15331677e6ebf0b0a801ba0462186579a4be0ad8a63224059a11693b4c0684b9939f6c2394d1fbe045275f2a059d73f99e037295a5f8c0e656acdb5c8b9acd28ec73c320c277df61f2e2d54f9",
                    "indexes": {
                        "data": 0,
                        "gas": 1,
                        "value": 0
                    }
                },
                {
                    "hash": "9fea784ad551855ef1630adc8d1430a8b8ec47b9106417d2bc6865998e0a229b",
                    "logs": "1dcc4de8dec75d7aab85b567b6ccd41ad312451b948a7413f0a142fd40d49347",
                    "txbytes": "0xf860800a830249f094bbbf5374fce5edbc8e2a8697c15331677e6ebf0b0a801ba06843bbbe573744c46cf47f1c126c11a53cffa1bcc3eeb0e0d328e6a73ecc5447a02062c2fbb34bfea606f3cf268b5a94a81d68e748d4d896c514061c03e8acb774",
                    "indexes": {
                        "data": 0,
                        "gas": 0,
                        "value": 0
                    }
                }
            ]
        }
    }
}