{
    "Call20KbytesContract50_1": {
        "_info": {
            "comment": "",
            "filling-rpc-server": "evm version 1.10.16-unstable-0f893109-20220105",
            "filling-tool-version": "retesteth-0.2.2-testinfo+commit.01c6aac2.Linux.g++",
            "filledWith": "CoreGeth-1.12.9-unstable-d64998ce9b05f4f41b35740c69c4b402e41a3105",
            "lllcversion": "Version: 0.5.14-develop.2021.11.27+commit.401d5358.Linux.g++",
            "source": "src/GeneralStateTestsFiller/stQuadraticComplexityTest/Call20KbytesContract50_1Filler.json",
            "sourceHash": "1f992895c929a2ca2c9ac2c0081597bc80a3d1864f7cbd58211f00a360c4c294"
        },
        "env": {
            "currentCoinbase": "0xb94f5374fce5edbc8e2a8697c15331677e6ebf0b",
            "currentDifficulty": "0x20000",
            "currentGasLimit": "0xcd79195900",
            "currentNumber": "0x1",
            "currentTimestamp": "0x3e8",
            "previousHash": "0x5e20a0453cecd065ea59c37ac63e079ee08998b6045136a8ce6635c7912ec0b6"
        },
        "pre": {
            "0xa94f5374fce5edbc8e2a8697c15331677e6ebf0b": {
                "balance": "0xffffffffffffffffffffffffffffffff"
            },
            "0xaaa50000fce5edbc8e2a8697c15331677e6ebf0b": {
                "code": "0x6001600101600101600101600101600101600101600101600101600101600101600101600101600101600101600101600101600101600101600101600101600101600101600101600101600101600101600101600101600101600101600101600101600101600101600101600101600101600101600101600101600101600101600101600101600101600101600101600101600101600101600101600101600101600101600101600101600101600101600101600101600101600101600101600101600101600101600101600101600101600101600101600101600101600101600101600101600101600101600101600101600101600101600101600101600101600101600101600101600101600101600101600101600101600101600101600101600101600101600101600101600101600101600101600101600101600101600101600101600101600101600101600101600101600101600101600101600101600101600101600101600101600101600101600101600101600101600101600101600101600101600101600101600101600101600101600101600101600101600101600101600101600101600101600101600101600101600101600101600101600101600101600101600101600101600101600101600101600101600101600101600101600101600101600101600101600101600101600101600101600101600101600101600101600101600101600101600101600101600101600101600101600101600101600101600101600101600101600101600101600101600101600101600101600101600101600101600101600101600101600101600101600101600101600101600101600101600101600101600101600101600101600101600101600101600101600101600101600101600101600101600101600101600101600101600101600101600101600101600101600101600101600101600101600101600101600101600101600101600101600101600101600101600101600101600101600101600101600101600101600101600101600101600101600101600101600101600101600101600101600101600101600101600101600101600101600101600101600101600101600101600101600101600101600101600101600101600101600101600101600101600101600101600101600101600101600101600101600101600101600101600101600101600101600101600101600101600101600101600101600101600101600101600101600101600101600101600101600101600101600101600101600101600101600101600101600101600101600101600101600101600101600101600101600101600101600101600101600101600101600101600101600101600101600101600101600101600101600101600101600101600101600101600101600101600101600101600101600101600101600101600101600101600101600101600101600101600101600101600101600101600101600101600101600101600101600101600101600101600101600101600101600101600101600101600101600101600101600101600101600101600101600101600101600101600101600101600101600101600101600101600101600101600101600101600101600101600101600101600101600101600101600101600101600101600101600101600101600101600101600101600101600101600101600101600101600101600101600101600101600101600101600101600101600101600101600101600101600101600101600101600101600101600101600101600101600101600101600101600101600101600101600101600101600101600101600101600101600101600101600101600101600101600101600101600101600101600101600101600101600101600101600101600101600101600101600101600101600101600101600101600101600101600101600101600101600101600101600101600101600101600101600101600101600101600101600101600101600101600101600101600101600101600101600101600101600101600101600101600101600101600101600101600101600101600101600101600101600101600101600101600101600101600101600101600101600101600101600101600101600101600101600101600101600101600101600101600101600101600101600101600101600101600101600101600101600101600101600101600101600101600101600101600101600101600101600101600101600101600101600101600101600101600101600101600101600101600101600101600101600101600101600101600101600101600101600101600101600101600101600101600101600101600101600101600101600101600101600101600101600101600101600101600101600101600101600101600101600101600101600101600101600101600101600101600101600101600101600101600101600101600101600101600101600101600101600101600101600101600101600101600101600101600101600101600101600101600101600101600101600101600101600101600101600101600101600101600101600101600101600101600101600101600101600101600101600101600101600101600101600101600101600101600101600101600101600101600101600101600101600101600101600101600101600101600101600101600101600101600101600101600101600101600101600101600101600101600101600101600101600101600101600101600101600101600101600101600101600101600101600101600101600101600101600101600101600101600101600101600101600101600101600101600101600101600101600101600101600101600101600101600101600101600101600101600101600101600101600101600101600101600101600101600101600101600101600101600101600101600101600101600101600101600101600101600101600101600101600101600101600101600101600101600101600101600101600101600101600101600101600101600101600101600101600101600101600101600101600101600101600101600101600101600101600101600101600101600101600101600101600101600101600101600101600101600101600101600101600101600101600101600101600101600101600101600101600101600101600101600101600101600101600101600101600101600101600101600101600101600101600101600101600101600101600101600101600101600101600101600101600101600101600101600101600101600101600101600101600101600101600101600101600101600101600101600101600101600101600101600101600101600101600101600101600101600101600101600101600101600101600101600101600101600101600101600101600101600101600101600101600101600101600101600101600101600101600101600101600101600101600101600101600101600101600101600101600101600101600101600101600101600101600101600101600101600101600101600101600101600101600101600101600101600101600101600101600101600101600101600101600101600101600101600101600101600101600101600101600101600101600101600101600101600101600101600101600101600101600101600101600101600101600101600101600101600101600101600101600101600101600101600101600101600101600101600101600101600101600101600101600101600101600101600101600101600101600101600101600101600101600101600101600101600101600101600101600101600101600101600101600101600101600101600101600101600101600101600101600101600101600101600101600101600101600101600101600101600101600101600101600101600101600101600101600101600101600101600101600101600101600101600101600101600101600101600101600101600101600101600101600101600101600101600101600101600101600101600101600101600101600101600101600101600101600101600101600101600101600101600101600101600101600101600101600101600101600101600101600101600101600101600101600101600101600101600101600101600101600101600101600101600101600101600101600101600101600101600101600101600101600101600101600101600101600101600101600101600101600101600101600101600101600101600101600101600101600101600101600101600101600101600101600101600101600101600101600101600101600101600101600101600101600101600101600101600101600101600101600101600101600101600101600101600101600101600101600101600101600101600101600101600101600101600101600101600101600101600101600101600101600101600101600101600101600101600101600101600101600101600101600101600101600101600101600101600101600101600101600101600101600101600101600101600101600101600101600101600101600101600101600101600101600101600101600101600101600101600101600101600101600101600101600101600101600101600101600101600101600101600101600101600101600101600101600101600101600101600101600101600101600101600101600101600101600101600101600101600101600101600101600101600101600101600101600101600101600101600101600101600101600101600101600101600101600101600101600101600101600101600101600101600101600101600101600101600101600101600101600101600101600101600101600101600101600101600101600101600101600101600101600101600101600101600101600101600101600101600101600101600101600101600101600101600101600101600101600101600101600101600101600101600101600101600101600101600101600101600101600101600101600101600101600101600101600101600101600101600101600101600101600101600101600101600101600101600101600101600101600101600101600101600101600101600101600101600101600101600101600101600101600101600101600101600101600101600101600101600101600101600101600101600101600101600101600101600101600101600101600101600101600101600101600101600101600101600101600101600101600101600101600101600101600101600101600101600101600101600101600101600101600101600101600101600101600101600101600101600101600101600101600101600101600101600101600101600101600101600101600101600101600101600101600101600101600101600101600101600101600101600101600101600101600101600101600101600101600101600101600101600101600101600101600101600101600101600101600101600101600101600101600101600101600101600101600101600101600101600101600101600101600101600101600101600101600101600101600101600101600101600101600101600101600101600101600101600101600101600101600101600101600101600101600101600101600101600101600101600101600101600101600101600101600101600101600101600101600101600101600101600101600101600101600101600101600101600101600101600101600101600101600101600101600101600101600101600101600101600101600101600101600101600101600101600101600101600101600101600101600101600101600101600101600101600101600101600101600101600101600101600101600101600101600101600101600101600101600101600101600101600101600101600101600101600101600101600101600101600101600101600101600101600101600101600101600101600101600101600101600101600101600101600101600101600101600101600101600101600101600101600101600101600101600101600101600101600101600101600101600101600101600101600101600101600101600101600101600101600101600101600101600101600101600101600101600101600101600101600101600101600101600101600101600101600101600101600101600101600101600101600101600101600101600101600101600101600101600101600101600101600101600101600101600101600101600101600101600101600101600101600101600101600101600101600101600101600101600101600101600101600101600101600101600101600101600101600101600101600101600101600101600101600101600101600101600101600101600101600101600101600101600101600101600101600101600101600101600101600101600101600101600101600101600101600101600101600101600101600101600101600101600101600101600101600101600101600101600101600101600101600101600101600101600101600101600101600101600101600101600101600101600101600101600101600101600101600101600101600101600101600101600101600101600101600101600101600101600101600101600101600101600101600101600101600101600101600101600101600101600101600101600101600101600101600101600101600101600101600101600101600101600101600101600101600101600101600101600101600101600101600101600101600101600101600101600101600101600101600101600101600101600101600101600101600101600101600101600101600101600101600101600101600101600101600101600101600101600101600101600101600101600101600101600101600101600101600101600101600101600101600101600101600101600101600101600101600101600101600101600101600101600101600101600101600101600101600101600101600101600101600101600101600101600101600101600101600101600101600101600101600101600101600101600101600101600101600101600101600101600101600101600101600101600101600101600101600101600101600101600101600101600101600101600101600101600101600101600101600101600101600101600101600101600101600101600101600101600101600101600101600101600101600101600101600101600101600101600101600101600101600101600101600101600101600101600101600101600101600101600101600101600101600101600101600101600101600101600101600101600101600101600101600101600101600101600101600101600101600101600101600101600101600101600101600101600101600101600101600101600101600101600101600101600101600101600101600101600101600101600101600101600101600101600101600101600101600101600101600101600101600101600101600101600101600101600101600101600101600101600101600101600101600101600101600101600101600101600101600101600101600101600101600101600101600101600101600101600101600101600101600101600101600101600101600101600101600101600101600101600101600101600101600101600101600101600101600101600101600101600101600101600101600101600101600101600101600101600101600101600101600101600101600101600101600101600101600101600101600101600101600101600101600101600101600101600101600101600101600101600101600101600101600101600101600101600101600101600101600101600101600101600101600101600101600101600101600101600101600101600101600101600101600101600101600101600101600101600101600101600101600101600101600101600101600101600101600101600101600101600101600101600101600101600101600101600101600101600101600101600101600101600101600101600101600101600101600101600101600101600101600101600101600101600101600101600101600101600101600101600101600101600101600101600101600101600101600101600101600101600101600101600101600101600101600101600101600101600101600101600101600101600101600101600101600101600101600101600101600101600101600101600101600101600101600101600101600101600101600101600101600101600101600101600101600101600101600101600101600101600101600101600101600101600101600101600101600101600101600101600101600101600101600101600101600101600101600101600101600101600101600101600101600101600101600101600101600101600101600101600101600101600101600101600101600101600101600101600101600101600101600101600101600101600101600101600101600101600101600101600101600101600101600101600101600101600101600101600101600101600101600101600101600101600101600101600101600101600101600101600101600101600101600101600101600101600101600101600101600101600101600101600101600101600101600101600101600101600101600101600101600101600101600101600101600101600101600101600101600101600101600101600101600101600101600101600101600101600101600101600101600101600101600101600101600101600101600101600101600101600101600101600101600101600101600101600101600101600101600101600101600101600101600101600101600101600101600101600101600101600101600101600101600101600101600101600101600101600101600101600101600101600101600101600101600101600101600101600101600101600101600101600101600101600101600101600101600101600101600101600101600101600101600101600101600101600101600101600101600101600101600101600101600101600101600101600101600101600101600101600101600101600101600101600101600101600101600101600101600101600101600101600101600101600101600101600101600101600101600101600101600101600101600101600101600101600101600101600101600101600101600101600101600101600101600101600101600101600101600101600101600101600101600101600101600101600101600101600101600101600101600101600101600101600101600101600101600101600101600101600101600101600101600101600101600101600101600101600101600101600101600101600101600101600101600101600101600101600101600101600101600101600101600101600101600101600101600101600101600101600101600101600101600101600101600101600101600101600101600101600101600101600101600101600101600101600101600101600101600101600101600101600101600101600101600101600101600101600101600101600101600101600101600101600101600101600101600101600101600101600101600101600101600101600101600101600101600101600101600101600101600101600101600101600101600101600101600101600101600101600101600101600101600101600101600101600101600101600101600101600101600101600101600101600101600101600101600101600101600101600101600101600101600101600101600101600101600101600101600101600101600101600101600101600101600101600101600101600101600101600101600101600101600101600101600101600101600101600101600101600101600101600101600101600101600101600101600101600101600101600101600101600101600101600101600101600101600101600101600101600101600101600101600101600101600101600101600101600101600101600101600101600101600101600101600101600101600101600101600101600101600101600101600101600101600101600101600101600101600101600101600101600101600101600101600101600101600101600101600101600101600101600101600101600101600101600101600101600101600101600101600101600101600101600101600101600101600101600101600101600101600101600101600101600101600101600101600101600101600101600101600101600101600101600101600101600101600101600101600101600101600101600101600101600101600101600101600101600101600101600101600101600101600101600101600101600101600101600101600101600101600101600101600101600101600101600101600101600101600101600101600101600101600101600101600101600101600101600101600101600101600101600101600101600101600101600101600101600101600101600101600101600101600101600101600101600101600101600101600101600101600101600101600101600101600101600101600101600101600101600101600101600101600101600101600101600101600101600101600101600101600101600101600101600101600101600101600101600101600101600101600101600101600101600101600101600101600101600101600101600101600101600101600101600101600101600101600101600101600101600101600101600101600101600101600101600101600101600101600101600101600101600101600101600101600101600101600101600101600101600101600101600101600101600101600101600101600101600101600101600101600101600101600101600101600101600101600101600101600101600101600101600101600101600101600101600101600101600101600101600101600101600101600101600101600101600101600101600101600101600101600101600101600101600101600101600101600101600101600101600101600101600101600101600101600101600101600101600101600101600101600101600101600101600101600101600101600101600101600101600101600101600101600101600101600101600101600101600101600101600101600101600101600101600101600101600101600101600101600101600101600101600101600101600101600101600101600101600101600101600101600101600101600101600101600101600101600101600101600101600101600101600101600101600101600101600101600101600101600101600101600101600101600101600101600101600101600101600101600101600101600101600101600101600101600101600101600101600101600101600101600101600101600101600101600101600101600101600101600101600101600101600101600101600101600101600101600101600101600101600101600101600101600101600101600101600101600101600101600101600101600101600101600101600101600101600101600101600101600101600101600101600101600101600101600101600101600101600101600101600101600101600101600101600101600101600101600101600101600101600101600101600101600101600101600101600101600101600101600101600101600101600101600101600101600101600101600101600101600101600101600101600101600101600101600101600101600101600101600101600101600101600101600101600101600101600101600101600101600101600101600101600101600101600101600101600101600101600101600101600101600101600101600101600101600101600101600101600101600101600101600101600101600101600101600101600101600101600101600101600101600101600101600101600101600101600101600101600101600101600101600101600101600101600101600101600101600101600101600101600101600101600101600101600101600101600101600101600101600101600101600101600101600101600101600101600101600101600101600101600101600101600101600101600101600101600101600101600101600101600101600101600101600101600101600101600101600101600101600101600101600101600101600101600101600101600101600101600101600101600101600101600101600101600101600101600101600101600101600101600101600101600101600101600101600101600101600101600101600101600101600101600101600101600101600101600101600101600101600101600101600101600101600101600101600101600101600101600101600101600101600101600101600101600101600101600101600101600101600101600101600101600101600101600101600101600101600101600101600101600101600101600101600101600101600101600101600101600101600101600101600101600101600101600101600101600101600101600101600101600101600101600101600101600101600101600101600101600101600101600101600101600101600101600101600101600101600101600101600101600101600101600101600101600101600101600101600101600101600101600101600101600101600101600101600101600101600101600101600101600101600101600101600101600101600101600101600101600101600101600101600101600101600101600101600101600101600101600101600101600101600101600101600101600101600101600101600101600101600101600101600101600101600101600101600101600101600101600101600101600101600101600101600101600101600101600101600101600101600101600101600101600101600101600101600101600101600101600101600101600101600101600101600101600101600101600101600101600101600101600101600101600101600101600101600101600101600101600101600101600101600101600101600101600101600101600101600101600101600101600101600101600101600101600101600101600101600101600101600101600101600101600101600101600101600101600101600101600101600101600101600101600101600101600101600101600101600101600101600101600101600101600101600101600101600101600101600101600101600101600101600101600101600101600101600101600101600101600101600101600101600101600101600101600101600101600101600101600101600101600101600101600101600101600101600101600101600101600101600101600101600101600101600101600101600101600101600101600101600101600101600101600101600101600101600101600101600101600101600101600101600101600101600101600101600101600101600101600101600101600101600101600101600101600101600101600101600101600101600101600101600101600101600101600101600101600101600101600101600101600101600101600101600101600101600101600101600101600101600101600101600101600101600101600101600101600101600101600101600101600101600101600101600101600101600101600101600101600101600101600101600101600101600101600101600101600101600101600101600101600101600101600101600101600101600101600101600101600101600101600101600101600101600101600101600101600101600101600101600101600101600101600101600101600101600101600101600101600101600101600101600101600101600101600101600101600101600101600101600101600101600101600101600101600101600101600101600101600101600101600101600101600101600101600101600101600101600101600101600101600101600101600101600101600101600101600101600101600101600101600101600101600101600101600101600101600101600101600101600101600101600101600101600101600101600101600101600101600101600101600101600101600101600101600101600101600101600101600101600101600101600101600101600101600101600101600101600101600101600101600101600101600101600101600101600101600101600101600101600101600101600101600101600101600101600101600101600101600101600101600101600101600101600101600101600101600101600101600101600101600101600101600101600101600101600101600101600101600101600101600101600101600101600101600101600101600101600101600101600101600101600101600101600101600101600101600101600101600101600101600101600101600101600101600101600101600101600101600101600101600101600101600101600101600101600101600101600101600101600101600101600101600101600101600101600101600101600101600101600101600101600101600101600101600101600101600101600101600101600101600101600101600101600101600101600101600101600101600101600101600101600101600101600101600101600101600101600101600101600101600101600101600101600101600101600101600101600101600101600101600101600101600101600101600101600101600101600101600101600101600101600101600101600101600101600101600101600101600101600101600101600101600101600101600101600101600101600101600101600101600101600101600101600101600101600101600101600101600101600101600101600101600101600101600101600101600101600101600101600101600101600101600101600101600101600101600101600101600101600101600101600101600101600101600101600101600101600101600101600101600101600101600101600101600101600101600101600101600101600101600101600101600101600101600101600101600101600101600101600101600101600101600101600101600101600101600101600101600101600101600101600101600101600101600101600101600101600101600101600101600101600101600101600101600101600101600101600101600101600101600055",
                "balance": "0xfffffffffffff"
            },
            "0xbbbf5374fce5edbc8e2a8697c15331677e6ebf0b": {
                "code": "0x5b603260805110156040576000600060006000600073aaa50000fce5edbc8e2a8697c15331677e6ebf0b64148c1c2280f16000556001608051016080526000565b60805160015500",
                "balance": "0xfffffffffffff"
            }
        },
        "transaction": {
            "gasPrice": "0xa",
            "nonce": "0x0",
            "to": "0xbbbf5374fce5edbc8e2a8697c15331677e6ebf0b",
            "data": [
                "0x"
            ],
            "gasLimit": [
                "0x249f0",
                "0xee6b280"
            ],
            "value": [
                "0x0a"
            ],
            "secretKey": "0x45a915e4d060149eb4365960e6a7a45f334393093061116b197e3240065ff2d8",
            "sender": "0xa94f5374fce5edbc8e2a8697c15331677e6ebf0b"
        },
        "post": {
            "ETC_Magneto": [
                {
                    "hash": "ec2b60e57314790d01a5659f757f96c48840562596b122a7301db70630b3f157",
                    "logs": "1dcc4de8dec75d7aab85b567b6ccd41ad312451b948a7413f0a142fd40d49347",
                    "txbytes": "0xf861800a840ee6b28094bbbf5374fce5edbc8e2a8697c15331677e6ebf0b0a801ba0462186579a4be0ad8a63224059a11693b4c0684b9939f6c2394d1fbe045275f2a059d73f99e037295a5f8c0e656acdb5c8b9acd28ec73c320c277df61f2e2d54f9",
                    "indexes": {
                        "data": 0,
                        "gas": 1,
                        "value": 0
                    }
                },
                {
                    "hash": "7941e1e23b3275b9b930c7db9349fe64a6fb19284db491f6cd76ded3b60ce054",
                    "logs": "1dcc4de8dec75d7aab85b567b6ccd41ad312451b948a7413f0a142fd40d49347",
                    "txbytes": "0xf860800a830249f094bbbf5374fce5edbc8e2a8697c15331677e6ebf0b0a801ba06843bbbe573744c46cf47f1c126c11a53cffa1bcc3eeb0e0d328e6a73ecc5447a02062c2fbb34bfea606f3cf268b5a94a81d68e748d4d896c514061c03e8acb774",
                    "indexes": {
                        "data": 0,
                        "gas": 0,
                        "value": 0
                    }
                }
            ],
            "ETC_Mystique": [
                {
                    "hash": "ec2b60e57314790d01a5659f757f96c48840562596b122a7301db70630b3f157",
                    "logs": "1dcc4de8dec75d7aab85b567b6ccd41ad312451b948a7413f0a142fd40d49347",
                    "txbytes": "0xf861800a840ee6b28094bbbf5374fce5edbc8e2a8697c15331677e6ebf0b0a801ba0462186579a4be0ad8a63224059a11693b4c0684b9939f6c2394d1fbe045275f2a059d73f99e037295a5f8c0e656acdb5c8b9acd28ec73c320c277df61f2e2d54f9",
                    "indexes": {
                        "data": 0,
                        "gas": 1,
                        "value": 0
                    }
                },
                {
                    "hash": "7941e1e23b3275b9b930c7db9349fe64a6fb19284db491f6cd76ded3b60ce054",
                    "logs": "1dcc4de8dec75d7aab85b567b6ccd41ad312451b948a7413f0a142fd40d49347",
                    "txbytes": "0xf860800a830249f094bbbf5374fce5edbc8e2a8697c15331677e6ebf0b0a801ba06843bbbe573744c46cf47f1c126c11a53cffa1bcc3eeb0e0d328e6a73ecc5447a02062c2fbb34bfea606f3cf268b5a94a81d68e748d4d896c514061c03e8acb774",
                    "indexes": {
                        "data": 0,
                        "gas": 0,
                        "value": 0
                    }
                }
            ],
            "ETC_Phoenix": [
                {
                    "hash": "5784047d028a4652f08af26b7c443a0bf9dc7c1d97bbae6d07244ac3f6aedaae",
                    "logs": "1dcc4de8dec75d7aab85b567b6ccd41ad312451b948a7413f0a142fd40d49347",
                    "txbytes": "0xf861800a840ee6b28094bbbf5374fce5edbc8e2a8697c15331677e6ebf0b0a801ba0462186579a4be0ad8a63224059a11693b4c0684b9939f6c2394d1fbe045275f2a059d73f99e037295a5f8c0e656acdb5c8b9acd28ec73c320c277df61f2e2d54f9",
                    "indexes": {
                        "data": 0,
                        "gas": 1,
                        "value": 0
                    }
                },
                {
                    "hash": "7941e1e23b3275b9b930c7db9349fe64a6fb19284db491f6cd76ded3b60ce054",
                    "logs": "1dcc4de8dec75d7aab85b567b6ccd41ad312451b948a7413f0a142fd40d49347",
                    "txbytes": "0xf860800a830249f094bbbf5374fce5edbc8e2a8697c15331677e6ebf0b0a801ba06843bbbe573744c46cf47f1c126c11a53cffa1bcc3eeb0e0d328e6a73ecc5447a02062c2fbb34bfea606f3cf268b5a94a81d68e748d4d896c514061c03e8acb774",
                    "indexes": {
                        "data": 0,
                        "gas": 0,
                        "value": 0
                    }
                }
            ]
        }
    }
}