{
    "Create1000Byzantium": {
        "_info": {
            "comment": "",
            "filling-rpc-server": "evm version 1.10.16-unstable-0f893109-20220105",
            "filling-tool-version": "retesteth-0.2.2-testinfo+commit.01c6aac2.Linux.g++",
            "filledWith": "CoreGeth-1.12.9-unstable-d64998ce9b05f4f41b35740c69c4b402e41a3105",
            "lllcversion": "Version: 0.5.14-develop.2021.11.27+commit.401d5358.Linux.g++",
            "source": "src/GeneralStateTestsFiller/stQuadraticComplexityTest/Create1000ByzantiumFiller.json",
            "sourceHash": "24f170aa46627cf656c345cc3fd22ed39df052454763e9b6d3db77ad6436a829"
        },
        "env": {
            "currentCoinbase": "0xb94f5374fce5edbc8e2a8697c15331677e6ebf0b",
            "currentDifficulty": "0x20000",
            "currentGasLimit": "0x200999600",
            "currentNumber": "0x1",
            "currentTimestamp": "0x3e8",
            "previousHash": "0x5e20a0453cecd065ea59c37ac63e079ee08998b6045136a8ce6635c7912ec0b6"
        },
        "pre": {
            "0xa94f5374fce5edbc8e2a8697c15331677e6ebf0b": {
                "balance": "0xffffffffffffffffffffffffffffffff"
            },
            "0xbbbf5374fce5edbc8e2a8697c15331677e6ebf0b": {
                "code": "0x5b6103e8608051101560235761c35060006001f06000556001608051016080526000565b60805160015500",
                "balance": "0xfffffffffffff"
            }
        },
        "transaction": {
            "gasPrice": "0xa",
            "nonce": "0x0",
            "to": "0xbbbf5374fce5edbc8e2a8697c15331677e6ebf0b",
            "data": [
                "0x"
            ],
            "gasLimit": [
                "0x249f0",
                "0xee6b280"
            ],
            "value": [
                "0x0a"
            ],
            "secretKey": "0x45a915e4d060149eb4365960e6a7a45f334393093061116b197e3240065ff2d8",
            "sender": "0xa94f5374fce5edbc8e2a8697c15331677e6ebf0b"
        },
        "post": {
            "ETC_Magneto": [
                {
                    "hash": "a527a5b7a8c32210ea3ea32574380a34343e762c7fe5a3a69f2ee6eb5efbd5ae",
                    "logs": "1dcc4de8dec75d7aab85b567b6ccd41ad312451b948a7413f0a142fd40d49347",
                    "txbytes": "0xf860800a830249f094bbbf5374fce5edbc8e2a8697c15331677e6ebf0b0a801ba06843bbbe573744c46cf47f1c126c11a53cffa1bcc3eeb0e0d328e6a73ecc5447a02062c2fbb34bfea606f3cf268b5a94a81d68e748d4d896c514061c03e8acb774",
                    "indexes": {
                        "data": 0,
                        "gas": 0,
                        "value": 0
                    }
                },
                {
                    "hash": "1da8482aa906f81125a5ff4d0a2c9b21c9e875817af76ab7f6a6712991f57091",
                    "logs": "1dcc4de8dec75d7aab85b567b6ccd41ad312451b948a7413f0a142fd40d49347",
                    "txbytes": "0xf861800a840ee6b28094bbbf5374fce5edbc8e2a8697c15331677e6ebf0b0a801ba0462186579a4be0ad8a63224059a11693b4c0684b9939f6c2394d1fbe045275f2a059d73f99e037295a5f8c0e656acdb5c8b9acd28ec73c320c277df61f2e2d54f9",
                    "indexes": {
                        "data": 0,
                        "gas": 1,
                        "value": 0
                    }
                }
            ],
            "ETC_Mystique": [
                {
                    "hash": "a527a5b7a8c32210ea3ea32574380a34343e762c7fe5a3a69f2ee6eb5efbd5ae",
                    "logs": "1dcc4de8dec75d7aab85b567b6ccd41ad312451b948a7413f0a142fd40d49347",
                    "txbytes": "0xf860800a830249f094bbbf5374fce5edbc8e2a8697c15331677e6ebf0b0a801ba06843bbbe573744c46cf47f1c126c11a53cffa1bcc3eeb0e0d328e6a73ecc5447a02062c2fbb34bfea606f3cf268b5a94a81d68e748d4d896c514061c03e8acb774",
                    "indexes": {
                        "data": 0,
                        "gas": 0,
                        "value": 0
                    }
                },
                {
                    "hash": "1da8482aa906f81125a5ff4d0a2c9b21c9e875817af76ab7f6a6712991f57091",
                    "logs": "1dcc4de8dec75d7aab85b567b6ccd41ad312451b948a7413f0a142fd40d49347",
                    "txbytes": "0xf861800a840ee6b28094bbbf5374fce5edbc8e2a8697c15331677e6ebf0b0a801ba0462186579a4be0ad8a63224059a11693b4c0684b9939f6c2394d1fbe045275f2a059d73f99e037295a5f8c0e656acdb5c8b9acd28ec73c320c277df61f2e2d54f9",
                    "indexes": {
                        "data": 0,
                        "gas": 1,
                        "value": 0
                    }
                }
            ],
            "ETC_Phoenix": [
                {
                    "hash": "a527a5b7a8c32210ea3ea32574380a34343e762c7fe5a3a69f2ee6eb5efbd5ae",
                    "logs": "1dcc4de8dec75d7aab85b567b6ccd41ad312451b948a7413f0a142fd40d49347",
                    "txbytes": "0xf860800a830249f094bbbf5374fce5edbc8e2a8697c15331677e6ebf0b0a801ba06843bbbe573744c46cf47f1c126c11a53cffa1bcc3eeb0e0d328e6a73ecc5447a02062c2fbb34bfea606f3cf268b5a94a81d68e748d4d896c514061c03e8acb774",
                    "indexes": {
                        "data": 0,
                        "gas": 0,
                        "value": 0
                    }
                },
                {
                    "hash": "a453f2c03861bd9dd4fc7050ea0d9f499388c795a552786a5805a0c560754c03",
                    "logs": "1dcc4de8dec75d7aab85b567b6ccd41ad312451b948a7413f0a142fd40d49347",
                    "txbytes": "0xf861800a840ee6b28094bbbf5374fce5edbc8e2a8697c15331677e6ebf0b0a801ba0462186579a4be0ad8a63224059a11693b4c0684b9939f6c2394d1fbe045275f2a059d73f99e037295a5f8c0e656acdb5c8b9acd28ec73c320c277df61f2e2d54f9",
                    "indexes": {
                        "data": 0,
                        "gas": 1,
                        "value": 0
                    }
                }
            ]
        }
    }
}