{
    "QuadraticComplexitySolidity_CallDataCopy": {
        "_info": {
            "comment": "",
            "filling-rpc-server": "evm version 1.10.16-unstable-0f893109-20220105",
            "filling-tool-version": "retesteth-0.2.2-testinfo+commit.01c6aac2.Linux.g++",
            "filledWith": "CoreGeth-1.12.9-unstable-f4059ddd82d975bdc54fa648e5422a80172161cb",
            "lllcversion": "Version: 0.5.14-develop.2021.11.27+commit.401d5358.Linux.g++",
            "source": "src/GeneralStateTestsFiller/stQuadraticComplexityTest/QuadraticComplexitySolidity_CallDataCopyFiller.json",
            "sourceHash": "b3397bb6593374762e68eb30b3219b08ada287ca26f25c34c84f9c7c4a27f452"
        },
        "env": {
            "currentCoinbase": "2adc25665018aa1fe0e6bc666dac8fc2697ff9ba",
            "currentDifficulty": "0x20000",
            "currentRandom": null,
            "currentGasLimit": "0x14dc9380",
            "currentNumber": "0x1",
            "currentTimestamp": "0x3e8",
            "currentBaseFee": "0xa"
        },
        "pre": {
            "0xa94f5374fce5edbc8e2a8697c15331677e6ebf0b": {
                "code": "0x60003560e060020a9004806361a4770614601557005b601e6004356024565b60006000f35b60008160008190555073b94f5374fce5edbc8e2a8697c15331677e6ebf0b90505b600082131560bf5780600160a060020a03166000600060007f6a7573740000000000000000000000000000000000000000000000000000000081526004017f63616c6c000000000000000000000000000000000000000000000000000000008152602001600060008560155a03f150506001820391506045565b505056",
                "balance": "0x11c37937e08000"
            },
            "0xb94f5374fce5edbc8e2a8697c15331677e6ebf0b": {
                "code": "0x61c350600060003700",
                "balance": "0x4c4b40"
            },
            "0xc9c5a15a403e41498b6f69f6f89dd9f5892d21f7": {
                "balance": "0x11c37937e08000"
            }
        },
        "transaction": {
            "gasPrice": "0xa",
            "maxFeePerGas": null,
            "maxPriorityFeePerGas": null,
            "nonce": "0x0",
            "to": "0xa94f5374fce5edbc8e2a8697c15331677e6ebf0b",
            "data": [
                "0x61a47706000000000000000000000000000000000000000000000000000000000000c350"
            ],
            "gasLimit": [
                "0x249f0",
                "0xee6b280"
            ],
            "value": [
                "0x01"
            ],
            "secretKey": "0x6a7eeac5f12b409d42028f66b0b2132535ee158cfda439e3bfdd4558e8f4bf6c"
        },
        "out": "0x",
        "post": {
            "ETC_Magneto": [
                {
                    "hash": "8867e664335273f4b1752b76c6fb3234411854ed6b2241eda19c30262268a1a2",
                    "logs": "1dcc4de8dec75d7aab85b567b6ccd41ad312451b948a7413f0a142fd40d49347",
                    "txbytes": "0xf885800a840ee6b28094a94f5374fce5edbc8e2a8697c15331677e6ebf0b01a461a47706000000000000000000000000000000000000000000000000000000000000c3501ca086ab11bda226ca5cff0980470d2575c9c5fccd9a9655fa4799d50e847707cf4ba064c721852bf5e6c6dcc2e1157f3157eba29b356b85ee043a02d6a5f34ae69e3f",
                    "indexes": {
                        "data": 0,
                        "gas": 1,
                        "value": 0
                    }
                },
                {
                    "hash": "3d270d98b9e2571813850bd2bad0ece7ea918ffead6b4ef8f980c1217b62e945",
                    "logs": "1dcc4de8dec75d7aab85b567b6ccd41ad312451b948a7413f0a142fd40d49347",
                    "txbytes": "0xf884800a830249f094a94f5374fce5edbc8e2a8697c15331677e6ebf0b01a461a47706000000000000000000000000000000000000000000000000000000000000c3501ba08ad815a41e70c73b65c93890719655734b9dce9ccb56d38838fabde52b210916a01e44ba66cf947e01c79239e5e5586007e618c7716cfe01143b342683f7a6bdec",
                    "indexes": {
                        "data": 0,
                        "gas": 0,
                        "value": 0
                    }
                }
            ],
            "ETC_Mystique": [
                {
                    "hash": "3d270d98b9e2571813850bd2bad0ece7ea918ffead6b4ef8f980c1217b62e945",
                    "logs": "1dcc4de8dec75d7aab85b567b6ccd41ad312451b948a7413f0a142fd40d49347",
                    "txbytes": "0xf884800a830249f094a94f5374fce5edbc8e2a8697c15331677e6ebf0b01a461a47706000000000000000000000000000000000000000000000000000000000000c3501ba08ad815a41e70c73b65c93890719655734b9dce9ccb56d38838fabde52b210916a01e44ba66cf947e01c79239e5e5586007e618c7716cfe01143b342683f7a6bdec",
                    "indexes": {
                        "data": 0,
                        "gas": 0,
                        "value": 0
                    }
                }
            ],
            "ETC_Phoenix": [
                {
                    "hash": "8867e664335273f4b1752b76c6fb3234411854ed6b2241eda19c30262268a1a2",
                    "logs": "1dcc4de8dec75d7aab85b567b6ccd41ad312451b948a7413f0a142fd40d49347",
                    "txbytes": "0xf885800a840ee6b28094a94f5374fce5edbc8e2a8697c15331677e6ebf0b01a461a47706000000000000000000000000000000000000000000000000000000000000c3501ca086ab11bda226ca5cff0980470d2575c9c5fccd9a9655fa4799d50e847707cf4ba064c721852bf5e6c6dcc2e1157f3157eba29b356b85ee043a02d6a5f34ae69e3f",
                    "indexes": {
                        "data": 0,
                        "gas": 1,
                        "value": 0
                    }
                },
                {
                    "hash": "3d270d98b9e2571813850bd2bad0ece7ea918ffead6b4ef8f980c1217b62e945",
                    "logs": "1dcc4de8dec75d7aab85b567b6ccd41ad312451b948a7413f0a142fd40d49347",
                    "txbytes": "0xf884800a830249f094a94f5374fce5edbc8e2a8697c15331677e6ebf0b01a461a47706000000000000000000000000000000000000000000000000000000000000c3501ba08ad815a41e70c73b65c93890719655734b9dce9ccb56d38838fabde52b210916a01e44ba66cf947e01c79239e5e5586007e618c7716cfe01143b342683f7a6bdec",
                    "indexes": {
                        "data": 0,
                        "gas": 0,
                        "value": 0
                    }
                }
            ]
        }
    }
}