{
    "Return50000_2": {
        "_info": {
            "comment": "",
            "filling-rpc-server": "evm version 1.10.16-unstable-0f893109-20220105",
            "filling-tool-version": "retesteth-0.2.2-testinfo+commit.01c6aac2.Linux.g++",
            "filledWith": "CoreGeth-1.12.9-unstable-d64998ce9b05f4f41b35740c69c4b402e41a3105",
            "lllcversion": "Version: 0.5.14-develop.2021.11.27+commit.401d5358.Linux.g++",
            "source": "src/GeneralStateTestsFiller/stQuadraticComplexityTest/Return50000_2Filler.json",
            "sourceHash": "1a7bc178dc2be712f247197498c88a82d51ca574cf5c81181f1ad701bf8b76aa"
        },
        "env": {
            "currentCoinbase": "0xb94f5374fce5edbc8e2a8697c15331677e6ebf0b",
            "currentDifficulty": "0x20000",
            "currentGasLimit": "0x20e02d040",
            "currentNumber": "0x1",
            "currentTimestamp": "0x3e8",
            "previousHash": "0x5e20a0453cecd065ea59c37ac63e079ee08998b6045136a8ce6635c7912ec0b6"
        },
        "pre": {
            "0xa94f5374fce5edbc8e2a8697c15331677e6ebf0b": {
                "balance": "0xffffffffffffffffffffffffffffffff"
            },
            "0xaaaf5374fce5edbc8e2a8697c15331677e6ebf0b": {
                "code": "0x61c34f356000526001600051f300",
                "balance": "0xfffffffffffff"
            },
            "0xbbbf5374fce5edbc8e2a8697c15331677e6ebf0b": {
                "code": "0x5b61c3506080511015603f576000600061c3506000600073aaaf5374fce5edbc8e2a8697c15331677e6ebf0b61061cf16000556001608051016080526000565b60805160015500",
                "balance": "0xfffffffffffff"
            }
        },
        "transaction": {
            "gasPrice": "0xa",
            "nonce": "0x0",
            "to": "0xbbbf5374fce5edbc8e2a8697c15331677e6ebf0b",
            "data": [
                "0x"
            ],
            "gasLimit": [
                "0x249f0",
                "0xee6b280"
            ],
            "value": [
                "0x0a"
            ],
            "secretKey": "0x45a915e4d060149eb4365960e6a7a45f334393093061116b197e3240065ff2d8",
            "sender": "0xa94f5374fce5edbc8e2a8697c15331677e6ebf0b"
        },
        "post": {
            "ETC_Magneto": [
                {
                    "hash": "3126fa651608d307f15a671ce53955a68df3bf8640c141a20fa01c092b4a9409",
                    "logs": "1dcc4de8dec75d7aab85b567b6ccd41ad312451b948a7413f0a142fd40d49347",
                    "txbytes": "0xf861800a840ee6b28094bbbf5374fce5edbc8e2a8697c15331677e6ebf0b0a801ba0462186579a4be0ad8a63224059a11693b4c0684b9939f6c2394d1fbe045275f2a059d73f99e037295a5f8c0e656acdb5c8b9acd28ec73c320c277df61f2e2d54f9",
                    "indexes": {
                        "data": 0,
                        "gas": 1,
                        "value": 0
                    }
                },
                {
                    "hash": "4e4ef61cbbba9aa1553816212a174247df5cfe9aafa66d5009d682a3711eb71a",
                    "logs": "1dcc4de8dec75d7aab85b567b6ccd41ad312451b948a7413f0a142fd40d49347",
                    "txbytes": "0xf860800a830249f094bbbf5374fce5edbc8e2a8697c15331677e6ebf0b0a801ba06843bbbe573744c46cf47f1c126c11a53cffa1bcc3eeb0e0d328e6a73ecc5447a02062c2fbb34bfea606f3cf268b5a94a81d68e748d4d896c514061c03e8acb774",
                    "indexes": {
                        "data": 0,
                        "gas": 0,
                        "value": 0
                    }
                }
            ],
            "ETC_Mystique": [
                {
                    "hash": "3126fa651608d307f15a671ce53955a68df3bf8640c141a20fa01c092b4a9409",
                    "logs": "1dcc4de8dec75d7aab85b567b6ccd41ad312451b948a7413f0a142fd40d49347",
                    "txbytes": "0xf861800a840ee6b28094bbbf5374fce5edbc8e2a8697c15331677e6ebf0b0a801ba0462186579a4be0ad8a63224059a11693b4c0684b9939f6c2394d1fbe045275f2a059d73f99e037295a5f8c0e656acdb5c8b9acd28ec73c320c277df61f2e2d54f9",
                    "indexes": {
                        "data": 0,
                        "gas": 1,
                        "value": 0
                    }
                },
                {
                    "hash": "4e4ef61cbbba9aa1553816212a174247df5cfe9aafa66d5009d682a3711eb71a",
                    "logs": "1dcc4de8dec75d7aab85b567b6ccd41ad312451b948a7413f0a142fd40d49347",
                    "txbytes": "0xf860800a830249f094bbbf5374fce5edbc8e2a8697c15331677e6ebf0b0a801ba06843bbbe573744c46cf47f1c126c11a53cffa1bcc3eeb0e0d328e6a73ecc5447a02062c2fbb34bfea606f3cf268b5a94a81d68e748d4d896c514061c03e8acb774",
                    "indexes": {
                        "data": 0,
                        "gas": 0,
                        "value": 0
                    }
                }
            ],
            "ETC_Phoenix": [
                {
                    "hash": "d5e4b2619275ad2d111280bca47fa81602a643f225bfd1c3fdc435684b016e73",
                    "logs": "1dcc4de8dec75d7aab85b567b6ccd41ad312451b948a7413f0a142fd40d49347",
                    "txbytes": "0xf861800a840ee6b28094bbbf5374fce5edbc8e2a8697c15331677e6ebf0b0a801ba0462186579a4be0ad8a63224059a11693b4c0684b9939f6c2394d1fbe045275f2a059d73f99e037295a5f8c0e656acdb5c8b9acd28ec73c320c277df61f2e2d54f9",
                    "indexes": {
                        "data": 0,
                        "gas": 1,
                        "value": 0
                    }
                },
                {
                    "hash": "4e4ef61cbbba9aa1553816212a174247df5cfe9aafa66d5009d682a3711eb71a",
                    "logs": "1dcc4de8dec75d7aab85b567b6ccd41ad312451b948a7413f0a142fd40d49347",
                    "txbytes": "0xf860800a830249f094bbbf5374fce5edbc8e2a8697c15331677e6ebf0b0a801ba06843bbbe573744c46cf47f1c126c11a53cffa1bcc3eeb0e0d328e6a73ecc5447a02062c2fbb34bfea606f3cf268b5a94a81d68e748d4d896c514061c03e8acb774",
                    "indexes": {
                        "data": 0,
                        "gas": 0,
                        "value": 0
                    }
                }
            ]
        }
    }
}