{
    "returndatasize_after_failing_delegatecall": {
        "_info": {
            "comment": "",
            "filling-rpc-server": "evm version 1.10.16-unstable-0f893109-20220105",
            "filling-tool-version": "retesteth-0.2.2-testinfo+commit.01c6aac2.Linux.g++",
            "filledWith": "CoreGeth-1.12.9-unstable-f4059ddd82d975bdc54fa648e5422a80172161cb",
            "lllcversion": "Version: 0.5.14-develop.2021.11.27+commit.401d5358.Linux.g++",
            "source": "src/GeneralStateTestsFiller/stReturnDataTest/returndatasize_after_failing_delegatecallFiller.json",
            "sourceHash": "de764d2b7a4bbc7dd8f7a361f23dacd90a315c4b4c16e2a8e0d3cf5de9009698"
        },
        "env": {
            "currentCoinbase": "2adc25665018aa1fe0e6bc666dac8fc2697ff9ba",
            "currentDifficulty": "0x20000",
            "currentRandom": null,
            "currentGasLimit": "0x1a00000000",
            "currentNumber": "0x1",
            "currentTimestamp": "0x3e8",
            "currentBaseFee": "0xa"
        },
        "pre": {
            "0x0f572e5295c57f15886f9b263e2f6d2d6c7b5ec6": {
                "balance": "0x1000000"
            },
            "0x1000000000000000000000000000000000000001": {
                "code": "0x6000600060006000731000000000000000000000000000000000000002612710f4503d60005500",
                "storage": {
                    "0x0000000000000000000000000000000000000000000000000000000000000000": "0xffffffffffffffffffffffffffffffffffffffffffffffffffffffffffffffff"
                },
                "balance": "0x0"
            },
            "0x1000000000000000000000000000000000000002": {
                "code": "0xfd",
                "balance": "0x6400000000"
            },
            "0xa94f5374fce5edbc8e2a8697c15331677e6ebf0b": {
                "balance": "0x6400000000"
            }
        },
        "transaction": {
            "gasPrice": "0xa",
            "maxFeePerGas": null,
            "maxPriorityFeePerGas": null,
            "nonce": "0x0",
            "to": "0x1000000000000000000000000000000000000001",
            "data": [
                "0x"
            ],
            "gasLimit": [
                "0xa00000000"
            ],
            "value": [
                "0x00"
            ],
            "secretKey": "0x45a915e4d060149eb4365960e6a7a45f334393093061116b197e3240065ff2d8"
        },
        "out": "0x",
        "post": {
            "ETC_Magneto": [
                {
                    "hash": "95a93e5932c038b5af6445bf4437229ec842994f5bf38b52fba3c69bf715b318",
                    "logs": "1dcc4de8dec75d7aab85b567b6ccd41ad312451b948a7413f0a142fd40d49347",
                    "txbytes": "0xf862800a850a0000000094100000000000000000000000000000000000000180801ca08bbb9026ad67292dd79e7029089219cc6c33dae0588d64694163002552fa5c9ea01252d0f551f409215407cd3f18f0064b2a252d50a613d6f41e71fc351439d550",
                    "indexes": {
                        "data": 0,
                        "gas": 0,
                        "value": 0
                    }
                }
            ],
            "ETC_Mystique": [
                {
                    "hash": "9c2f3369566be16313b3226339873bde74d50a60b55f30e9a960ef2e991f5f8d",
                    "logs": "1dcc4de8dec75d7aab85b567b6ccd41ad312451b948a7413f0a142fd40d49347",
                    "txbytes": "0xf862800a850a0000000094100000000000000000000000000000000000000180801ca08bbb9026ad67292dd79e7029089219cc6c33dae0588d64694163002552fa5c9ea01252d0f551f409215407cd3f18f0064b2a252d50a613d6f41e71fc351439d550",
                    "indexes": {
                        "data": 0,
                        "gas": 0,
                        "value": 0
                    }
                }
            ],
            "ETC_Phoenix": [
                {
                    "hash": "f021bd1a60fac0f0d18e684c38d2cc4397d5612c59ee69a3dbbea4d4ff3930aa",
                    "logs": "1dcc4de8dec75d7aab85b567b6ccd41ad312451b948a7413f0a142fd40d49347",
                    "txbytes": "0xf862800a850a0000000094100000000000000000000000000000000000000180801ca08bbb9026ad67292dd79e7029089219cc6c33dae0588d64694163002552fa5c9ea01252d0f551f409215407cd3f18f0064b2a252d50a613d6f41e71fc351439d550",
                    "indexes": {
                        "data": 0,
                        "gas": 0,
                        "value": 0
                    }
                }
            ]
        }
    }
}