{
    "returndatasize_after_failing_staticcall": {
        "_info": {
            "comment": "",
            "filling-rpc-server": "evm version 1.10.16-unstable-0f893109-20220105",
            "filling-tool-version": "retesteth-0.2.2-testinfo+commit.01c6aac2.Linux.g++",
            "filledWith": "CoreGeth-1.12.9-unstable-ab16c56768f0284ab56a30aac9550d3ebdc45901",
            "lllcversion": "Version: 0.5.14-develop.2021.11.27+commit.401d5358.Linux.g++",
            "source": "src/GeneralStateTestsFiller/stReturnDataTest/returndatasize_after_failing_staticcallFiller.json",
            "sourceHash": "9e346545fd4e09fe15bd4af6f92fe842f791afa1281f213df5873b9748df774d"
        },
        "env": {
            "currentCoinbase": "0x2adc25665018aa1fe0e6bc666dac8fc2697ff9ba",
            "currentDifficulty": "0x20000",
            "currentGasLimit": "0x1a00000000",
            "currentNumber": "0x1",
            "currentTimestamp": "0x3e8",
            "currentBaseFee": "0xa",
            "previousHash": "0x5e20a0453cecd065ea59c37ac63e079ee08998b6045136a8ce6635c7912ec0b6"
        },
        "pre": {
            "0x0f572e5295c57f15886f9b263e2f6d2d6c7b5ec6": {
                "balance": "0x100000"
            },
            "0x1000000000000000000000000000000000000001": {
                "code": "0x600060006000600073100000000000000000000000000000000000000261ea60fa503d60005500",
                "storage": {
                    "0x0000000000000000000000000000000000000000000000000000000000000000": "0xffffffffffffffffffffffffffffffffffffffffffffffffffffffffffffffff"
                },
                "balance": "0x0"
            },
            "0x1000000000000000000000000000000000000002": {
                "code": "0xfd",
                "balance": "0x6400000000"
            },
            "0xa94f5374fce5edbc8e2a8697c15331677e6ebf0b": {
                "balance": "0x6400000000"
            }
        },
        "transaction": {
            "gasPrice": "0xa",
            "nonce": "0x0",
            "to": "0x1000000000000000000000000000000000000001",
            "data": [
                "0x"
            ],
            "gasLimit": [
                "0xa00000000"
            ],
            "value": [
                "0x00"
            ],
            "secretKey": "0x45a915e4d060149eb4365960e6a7a45f334393093061116b197e3240065ff2d8",
            "sender": "0xa94f5374fce5edbc8e2a8697c15331677e6ebf0b"
        },
        "post": {
            "ETC_Magneto": [
                {
                    "hash": "af59ca6036ae2a1b6dc23a170782fdf3b7f89b0d625a6d00be763116db78db58",
                    "logs": "1dcc4de8dec75d7aab85b567b6ccd41ad312451b948a7413f0a142fd40d49347",
                    "txbytes": "0xf862800a850a0000000094100000000000000000000000000000000000000180801ca08bbb9026ad67292dd79e7029089219cc6c33dae0588d64694163002552fa5c9ea01252d0f551f409215407cd3f18f0064b2a252d50a613d6f41e71fc351439d550",
                    "indexes": {
                        "data": 0,
                        "gas": 0,
                        "value": 0
                    }
                }
            ],
            "ETC_Mystique": [
                {
                    "hash": "7b1942b11d2186809ece1539c50a59ae6c5d15d14e1a79e07dfa2f6c26bbd2d1",
                    "logs": "1dcc4de8dec75d7aab85b567b6ccd41ad312451b948a7413f0a142fd40d49347",
                    "txbytes": "0xf862800a850a0000000094100000000000000000000000000000000000000180801ca08bbb9026ad67292dd79e7029089219cc6c33dae0588d64694163002552fa5c9ea01252d0f551f409215407cd3f18f0064b2a252d50a613d6f41e71fc351439d550",
                    "indexes": {
                        "data": 0,
                        "gas": 0,
                        "value": 0
                    }
                }
            ],
            "ETC_Phoenix": [
                {
                    "hash": "a0a4819de02be489cba11042fa3993814eb676c8de5f465beaf437a1a0c19d2f",
                    "logs": "1dcc4de8dec75d7aab85b567b6ccd41ad312451b948a7413f0a142fd40d49347",
                    "txbytes": "0xf862800a850a0000000094100000000000000000000000000000000000000180801ca08bbb9026ad67292dd79e7029089219cc6c33dae0588d64694163002552fa5c9ea01252d0f551f409215407cd3f18f0064b2a252d50a613d6f41e71fc351439d550",
                    "indexes": {
                        "data": 0,
                        "gas": 0,
                        "value": 0
                    }
                }
            ]
        }
    }
}