{
    "returndatacopy_initial_256": {
        "_info": {
            "comment": "",
            "filling-rpc-server": "evm version 1.10.16-unstable-0f893109-20220105",
            "filling-tool-version": "retesteth-0.2.2-testinfo+commit.01c6aac2.Linux.g++",
            "filledWith": "CoreGeth-1.12.9-unstable-4cf5b2b0837228e7d5eadba6a01ffb80e9288e21",
            "lllcversion": "Version: 0.5.14-develop.2021.11.27+commit.401d5358.Linux.g++",
            "source": "src/GeneralStateTestsFiller/stReturnDataTest/returndatacopy_initial_256Filler.json",
            "sourceHash": "8b4a3ca12201249bdd973816e5ab26322af5ffdb4c5738ac4401dcd31c5f9dbe"
        },
        "env": {
            "currentCoinbase": "0x2adc25665018aa1fe0e6bc666dac8fc2697ff9ba",
            "currentDifficulty": "0x20000",
            "currentGasLimit": "0x1a00000000",
            "currentNumber": "0x1",
            "currentTimestamp": "0x3e8",
            "previousHash": "0x5e20a0453cecd065ea59c37ac63e079ee08998b6045136a8ce6635c7912ec0b6"
        },
        "pre": {
            "0x0f572e5295c57f15886f9b263e2f6d2d6c7b5ec6": {
                "code": "0x606460006000356000033e6e112233445566778899aabbccddeeff60005260005160005500",
                "storage": {
                    "0x0000000000000000000000000000000000000000000000000000000000000000": "0x0000000000000000000000000000000000000000000000000000000000000001"
                },
                "balance": "0xde0b6b3a7640000",
                "nonce": "0x0"
            },
            "0xa94f5374fce5edbc8e2a8697c15331677e6ebf0b": {
                "code": "0x",
                "balance": "0x6400000000",
                "nonce": "0x0"
            }
        },
        "transaction": {
            "gasPrice": "0xa",
            "nonce": "0x0",
            "to": "0x0f572e5295c57f15886f9b263e2f6d2d6c7b5ec6",
            "data": [
                "0x0000000000000000000000000000000000000000000000000000000000000064",
                "0x0000000000000000000000000000000000000000000000000000000000000063",
                "0x0000000000000000000000000000000000000000000000000000000000000065"
            ],
            "gasLimit": [
                "0xa00000000"
            ],
            "value": [
                "0x00"
            ],
            "secretKey": "0x45a915e4d060149eb4365960e6a7a45f334393093061116b197e3240065ff2d8",
            "sender": "0xa94f5374fce5edbc8e2a8697c15331677e6ebf0b"
        },
        "post": {
            "ETC_Magneto": [
                {
                    "hash": "c356d28490583664d159f3b5d38d17f706db58ce20011bfac845b9ff7831dc64",
                    "logs": "1dcc4de8dec75d7aab85b567b6ccd41ad312451b948a7413f0a142fd40d49347",
                    "txbytes": "0xf882800a850a00000000940f572e5295c57f15886f9b263e2f6d2d6c7b5ec680a000000000000000000000000000000000000000000000000000000000000000641ba0f05f480de16b281eb6cb98870d861078386a3d310dc92add157b11a1b4983811a0754889998f8c1a409e1b7a611450304fb566e9007cf26e2d8c6bb8b472a60ad9",
                    "indexes": {
                        "data": 0,
                        "gas": 0,
                        "value": 0
                    }
                },
                {
                    "hash": "c356d28490583664d159f3b5d38d17f706db58ce20011bfac845b9ff7831dc64",
                    "logs": "1dcc4de8dec75d7aab85b567b6ccd41ad312451b948a7413f0a142fd40d49347",
                    "txbytes": "0xf882800a850a00000000940f572e5295c57f15886f9b263e2f6d2d6c7b5ec680a000000000000000000000000000000000000000000000000000000000000000631ba04afdb6e8fe2789b7aa06db208616e7169b63d579e4299758a49da2adec1a4088a0199b7a861aceb8dba34be5a61b24cb2d99da3fb8f608b598085f81661c235681",
                    "indexes": {
                        "data": 1,
                        "gas": 0,
                        "value": 0
                    }
                },
                {
                    "hash": "c356d28490583664d159f3b5d38d17f706db58ce20011bfac845b9ff7831dc64",
                    "logs": "1dcc4de8dec75d7aab85b567b6ccd41ad312451b948a7413f0a142fd40d49347",
                    "txbytes": "0xf882800a850a00000000940f572e5295c57f15886f9b263e2f6d2d6c7b5ec680a000000000000000000000000000000000000000000000000000000000000000651ba06f8137010f4b0bd6fd0a89e5e34ded6b36cc45fd64db04cc1d7a4d9e2fa3c2bfa024417589e3b42c96e8cd1a69f8d383a8c0907011a3a0c7852e6495a1156a02b7",
                    "indexes": {
                        "data": 2,
                        "gas": 0,
                        "value": 0
                    }
                }
            ],
            "ETC_Mystique": [
                {
                    "hash": "c356d28490583664d159f3b5d38d17f706db58ce20011bfac845b9ff7831dc64",
                    "logs": "1dcc4de8dec75d7aab85b567b6ccd41ad312451b948a7413f0a142fd40d49347",
                    "txbytes": "0xf882800a850a00000000940f572e5295c57f15886f9b263e2f6d2d6c7b5ec680a000000000000000000000000000000000000000000000000000000000000000641ba0f05f480de16b281eb6cb98870d861078386a3d310dc92add157b11a1b4983811a0754889998f8c1a409e1b7a611450304fb566e9007cf26e2d8c6bb8b472a60ad9",
                    "indexes": {
                        "data": 0,
                        "gas": 0,
                        "value": 0
                    }
                },
                {
                    "hash": "c356d28490583664d159f3b5d38d17f706db58ce20011bfac845b9ff7831dc64",
                    "logs": "1dcc4de8dec75d7aab85b567b6ccd41ad312451b948a7413f0a142fd40d49347",
                    "txbytes": "0xf882800a850a00000000940f572e5295c57f15886f9b263e2f6d2d6c7b5ec680a000000000000000000000000000000000000000000000000000000000000000631ba04afdb6e8fe2789b7aa06db208616e7169b63d579e4299758a49da2adec1a4088a0199b7a861aceb8dba34be5a61b24cb2d99da3fb8f608b598085f81661c235681",
                    "indexes": {
                        "data": 1,
                        "gas": 0,
                        "value": 0
                    }
                },
                {
                    "hash": "c356d28490583664d159f3b5d38d17f706db58ce20011bfac845b9ff7831dc64",
                    "logs": "1dcc4de8dec75d7aab85b567b6ccd41ad312451b948a7413f0a142fd40d49347",
                    "txbytes": "0xf882800a850a00000000940f572e5295c57f15886f9b263e2f6d2d6c7b5ec680a000000000000000000000000000000000000000000000000000000000000000651ba06f8137010f4b0bd6fd0a89e5e34ded6b36cc45fd64db04cc1d7a4d9e2fa3c2bfa024417589e3b42c96e8cd1a69f8d383a8c0907011a3a0c7852e6495a1156a02b7",
                    "indexes": {
                        "data": 2,
                        "gas": 0,
                        "value": 0
                    }
                }
            ],
            "ETC_Phoenix": [
                {
                    "hash": "c356d28490583664d159f3b5d38d17f706db58ce20011bfac845b9ff7831dc64",
                    "logs": "1dcc4de8dec75d7aab85b567b6ccd41ad312451b948a7413f0a142fd40d49347",
                    "txbytes": "0xf882800a850a00000000940f572e5295c57f15886f9b263e2f6d2d6c7b5ec680a000000000000000000000000000000000000000000000000000000000000000641ba0f05f480de16b281eb6cb98870d861078386a3d310dc92add157b11a1b4983811a0754889998f8c1a409e1b7a611450304fb566e9007cf26e2d8c6bb8b472a60ad9",
                    "indexes": {
                        "data": 0,
                        "gas": 0,
                        "value": 0
                    }
                },
                {
                    "hash": "c356d28490583664d159f3b5d38d17f706db58ce20011bfac845b9ff7831dc64",
                    "logs": "1dcc4de8dec75d7aab85b567b6ccd41ad312451b948a7413f0a142fd40d49347",
                    "txbytes": "0xf882800a850a00000000940f572e5295c57f15886f9b263e2f6d2d6c7b5ec680a000000000000000000000000000000000000000000000000000000000000000631ba04afdb6e8fe2789b7aa06db208616e7169b63d579e4299758a49da2adec1a4088a0199b7a861aceb8dba34be5a61b24cb2d99da3fb8f608b598085f81661c235681",
                    "indexes": {
                        "data": 1,
                        "gas": 0,
                        "value": 0
                    }
                },
                {
                    "hash": "c356d28490583664d159f3b5d38d17f706db58ce20011bfac845b9ff7831dc64",
                    "logs": "1dcc4de8dec75d7aab85b567b6ccd41ad312451b948a7413f0a142fd40d49347",
                    "txbytes": "0xf882800a850a00000000940f572e5295c57f15886f9b263e2f6d2d6c7b5ec680a000000000000000000000000000000000000000000000000000000000000000651ba06f8137010f4b0bd6fd0a89e5e34ded6b36cc45fd64db04cc1d7a4d9e2fa3c2bfa024417589e3b42c96e8cd1a69f8d383a8c0907011a3a0c7852e6495a1156a02b7",
                    "indexes": {
                        "data": 2,
                        "gas": 0,
                        "value": 0
                    }
                }
            ]
        }
    }
}