{
    "subcallReturnMoreThenExpected": {
        "_info": {
            "comment": "https://github.com/ethereum/tests/issues/558 (subcall/opcode return more data then expected)",
            "filling-rpc-server": "evm version 1.10.16-unstable-0f893109-20220105",
            "filling-tool-version": "retesteth-0.2.2-testinfo+commit.01c6aac2.Linux.g++",
            "filledWith": "CoreGeth-1.12.9-unstable-f4059ddd82d975bdc54fa648e5422a80172161cb",
            "lllcversion": "Version: 0.5.14-develop.2021.11.27+commit.401d5358.Linux.g++",
            "source": "src/GeneralStateTestsFiller/stReturnDataTest/subcallReturnMoreThenExpectedFiller.yml",
            "sourceHash": "00a2dcd24478a9f10889280b9dfc78518230da4f1090f704b959c5adc1787b10"
        },
        "env": {
            "currentCoinbase": "2adc25665018aa1fe0e6bc666dac8fc2697ff9ba",
            "currentDifficulty": "0x20000",
            "currentRandom": null,
            "currentGasLimit": "0x989680",
            "currentNumber": "0x1",
            "currentTimestamp": "0x3e8",
            "currentBaseFee": "0xa"
        },
        "pre": {
            "0x095e7baea6a6c7c4c2dfeb977efac326af552d87": {
                "code": "0x600c600060006000600073194f5374fce5edbc8e2a8697c15331677e6ebf0b62030d40f1506000516000556000600052600c60006000600073194f5374fce5edbc8e2a8697c15331677e6ebf0b62030d40f4506000516001556000600052600c60006000600073194f5374fce5edbc8e2a8697c15331677e6ebf0b62030d40fa506000516002556000600052600c600060006000600073194f5374fce5edbc8e2a8697c15331677e6ebf0b62030d40f2506000516003556000600052600c600060006000600073294f5374fce5edbc8e2a8697c15331677e6ebf0b62030d40f1506000516004556000600052600c60006000600073294f5374fce5edbc8e2a8697c15331677e6ebf0b62030d40f4506000516005556000600052600c60006000600073294f5374fce5edbc8e2a8697c15331677e6ebf0b62030d40fa506000516006556000600052600c600060006000600073294f5374fce5edbc8e2a8697c15331677e6ebf0b62030d40f25060005160075500",
                "balance": "0xde0b6b3a7640000"
            },
            "0x194f5374fce5edbc8e2a8697c15331677e6ebf0b": {
                "code": "0x7f11223344556677889910111213141516171819202122232425262728293031326000527f333435363738394041424344454647484950515253545556575859606162636460205260406000f300",
                "balance": "0xde0b6b3a7640000"
            },
            "0x294f5374fce5edbc8e2a8697c15331677e6ebf0b": {
                "code": "0x7f11223344556677889910111213141516171819202122232425262728293031326000527f333435363738394041424344454647484950515253545556575859606162636460205260406000fd00",
                "balance": "0xde0b6b3a7640000"
            },
            "0xa94f5374fce5edbc8e2a8697c15331677e6ebf0b": {
                "balance": "0xde0b6b3a7640000"
            }
        },
        "transaction": {
            "gasPrice": "0xa",
            "maxFeePerGas": null,
            "maxPriorityFeePerGas": null,
            "nonce": "0x0",
            "to": "0x095e7baea6a6c7c4c2dfeb977efac326af552d87",
            "data": [
                "0x"
            ],
            "gasLimit": [
                "0x61a80"
            ],
            "value": [
                "0x01"
            ],
            "secretKey": "0x45a915e4d060149eb4365960e6a7a45f334393093061116b197e3240065ff2d8"
        },
        "out": "0x",
        "post": {
            "ETC_Magneto": [
                {
                    "hash": "4e5310ed493a5ae9e7f56ddaac560c1ca14750be11734268b3e755e13443dd23",
                    "logs": "1dcc4de8dec75d7aab85b567b6ccd41ad312451b948a7413f0a142fd40d49347",
                    "txbytes": "0xf860800a83061a8094095e7baea6a6c7c4c2dfeb977efac326af552d8701801ca09d46b87169053cc40670aef750b032c895cde3e35c2c7f5a37c059272e0914c7a04d4a94b67b2776cc3e0fca2ed9503c10fd92ec79f1b2dcbb85df9634c7de3119",
                    "indexes": {
                        "data": 0,
                        "gas": 0,
                        "value": 0
                    }
                }
            ],
            "ETC_Mystique": [
                {
                    "hash": "4e5310ed493a5ae9e7f56ddaac560c1ca14750be11734268b3e755e13443dd23",
                    "logs": "1dcc4de8dec75d7aab85b567b6ccd41ad312451b948a7413f0a142fd40d49347",
                    "txbytes": "0xf860800a83061a8094095e7baea6a6c7c4c2dfeb977efac326af552d8701801ca09d46b87169053cc40670aef750b032c895cde3e35c2c7f5a37c059272e0914c7a04d4a94b67b2776cc3e0fca2ed9503c10fd92ec79f1b2dcbb85df9634c7de3119",
                    "indexes": {
                        "data": 0,
                        "gas": 0,
                        "value": 0
                    }
                }
            ],
            "ETC_Phoenix": [
                {
                    "hash": "a185df0fe3f38a6d97d07413c8d39673af1503601522ba95f52aedadf0686fa1",
                    "logs": "1dcc4de8dec75d7aab85b567b6ccd41ad312451b948a7413f0a142fd40d49347",
                    "txbytes": "0xf860800a83061a8094095e7baea6a6c7c4c2dfeb977efac326af552d8701801ca09d46b87169053cc40670aef750b032c895cde3e35c2c7f5a37c059272e0914c7a04d4a94b67b2776cc3e0fca2ed9503c10fd92ec79f1b2dcbb85df9634c7de3119",
                    "indexes": {
                        "data": 0,
                        "gas": 0,
                        "value": 0
                    }
                }
            ]
        }
    }
}