{
    "CALLCODE_Bounds4": {
        "_info": {
            "comment": "",
            "filling-rpc-server": "evm version 1.10.16-unstable-0f893109-20220105",
            "filling-tool-version": "retesteth-0.2.2-testinfo+commit.01c6aac2.Linux.g++",
            "filledWith": "CoreGeth-1.12.9-unstable-3995a327f2ded5c98324b03792b5ccc22557754f",
            "lllcversion": "Version: 0.5.14-develop.2021.11.27+commit.401d5358.Linux.g++",
            "source": "src/GeneralStateTestsFiller/stMemoryStressTest/CALLCODE_Bounds4Filler.json",
            "sourceHash": "5ce5c461c4f1b52b27d3628167e3ea2661c588e8e0574112a4533ea05d49fe11"
        },
        "env": {
            "currentCoinbase": "0x2adc25665018aa1fe0e6bc666dac8fc2697ff9ba",
            "currentDifficulty": "0x20000",
            "currentGasLimit": "0x7fffffffffffffff",
            "currentNumber": "0x1",
            "currentTimestamp": "0x3e8",
            "currentBaseFee": "0xa",
            "previousHash": "0x5e20a0453cecd065ea59c37ac63e079ee08998b6045136a8ce6635c7912ec0b6"
        },
        "pre": {
            "0x1000000000000000000000000000000000000000": {
                "code": "0x67ffffffffffffffff600067ffffffffffffffff600060007310000000000000000000000000000000000000016707fffffffffffffff2506fffffffffffffffffffffffffffffffff60006fffffffffffffffffffffffffffffffff600060007310000000000000000000000000000000000000016707fffffffffffffff2507fffffffffffffffffffffffffffffffffffffffffffffffffffffffffffffffff60007fffffffffffffffffffffffffffffffffffffffffffffffffffffffffffffffff600060007310000000000000000000000000000000000000016707fffffffffffffff25067ffffffffffffffff67ffffffffffffffff67ffffffffffffffff67ffffffffffffffff60007310000000000000000000000000000000000000016707fffffffffffffff25067ffffffffffffffff67ffffffffffffffff67ffffffffffffffff67ffffffffffffffff60007310000000000000000000000000000000000000016707fffffffffffffff2507fffffffffffffffffffffffffffffffffffffffffffffffffffffffffffffffff7fffffffffffffffffffffffffffffffffffffffffffffffffffffffffffffffff7fffffffffffffffffffffffffffffffffffffffffffffffffffffffffffffffff7fffffffffffffffffffffffffffffffffffffffffffffffffffffffffffffffff60007310000000000000000000000000000000000000016707fffffffffffffff2506fffffffffffffffffffffffffffffffff6fffffffffffffffffffffffffffffffff6fffffffffffffffffffffffffffffffff6fffffffffffffffffffffffffffffffff60007310000000000000000000000000000000000000016707fffffffffffffff200",
                "balance": "0x0"
            },
            "0x1000000000000000000000000000000000000001": {
                "code": "0x60005460010160005500",
                "balance": "0x0"
            },
            "0xa94f5374fce5edbc8e2a8697c15331677e6ebf0b": {
                "balance": "0xffffffffffffffffffffffffffffffffffffffffffffffffffffffffffffffff"
            }
        },
        "transaction": {
            "gasPrice": "0xa",
            "nonce": "0x0",
            "to": "0x1000000000000000000000000000000000000000",
            "data": [
                "0x"
            ],
            "gasLimit": [
                "0x249f0",
                "0xf4240",
                "0xee6b280"
            ],
            "value": [
                "0x01"
            ],
            "secretKey": "0x45a915e4d060149eb4365960e6a7a45f334393093061116b197e3240065ff2d8",
            "sender": "0xa94f5374fce5edbc8e2a8697c15331677e6ebf0b"
        },
        "post": {
            "ETC_Magneto": [
                {
                    "hash": "4ecc224c617e924daafd47cbc7bb7cfff995cb7b0d4d0a5255f4f85ab35f880b",
                    "logs": "1dcc4de8dec75d7aab85b567b6ccd41ad312451b948a7413f0a142fd40d49347",
                    "txbytes": "0xf860800a830249f094100000000000000000000000000000000000000001801ba0f56f3b98c5ed3c38d0e4e1e3e499b6ba9bda60fcf0f6a811d7979fb5d81cec53a00be599284605e5223d1fc0a043f56e1a6a9ec2802406f664cbfea850323aeabf",
                    "indexes": {
                        "data": 0,
                        "gas": 0,
                        "value": 0
                    }
                },
                {
                    "hash": "52a411905ec627f84159466e6f858c64e92fffd18f10aa8e09e7b1970722d921",
                    "logs": "1dcc4de8dec75d7aab85b567b6ccd41ad312451b948a7413f0a142fd40d49347",
                    "txbytes": "0xf860800a830f424094100000000000000000000000000000000000000001801ca0762b992dfa4bdba09e74392a9a7f5ecca4dc51b6c532d754c85e43c1eb5a9b99a073aca7e77a140bce62bbbd4f9dd5e343d61b28d9829e78ea19d67b6b9cd5a0a6",
                    "indexes": {
                        "data": 0,
                        "gas": 1,
                        "value": 0
                    }
                },
                {
                    "hash": "833c72588aedf9163e2de717d635adbf4a80db8ba17870fc9cd80aa23cee37a3",
                    "logs": "1dcc4de8dec75d7aab85b567b6ccd41ad312451b948a7413f0a142fd40d49347",
                    "txbytes": "0xf861800a840ee6b28094100000000000000000000000000000000000000001801ba03640a6caf9899ca45eae05a4cf9012df3acee146ac86e6bf1dab1135d88963caa06a8076e5713e9298c2e8115b867a91f23a042d6b29b5c453b3700f1ce8a7d6d9",
                    "indexes": {
                        "data": 0,
                        "gas": 2,
                        "value": 0
                    }
                }
            ],
            "ETC_Mystique": [
                {
                    "hash": "4ecc224c617e924daafd47cbc7bb7cfff995cb7b0d4d0a5255f4f85ab35f880b",
                    "logs": "1dcc4de8dec75d7aab85b567b6ccd41ad312451b948a7413f0a142fd40d49347",
                    "txbytes": "0xf860800a830249f094100000000000000000000000000000000000000001801ba0f56f3b98c5ed3c38d0e4e1e3e499b6ba9bda60fcf0f6a811d7979fb5d81cec53a00be599284605e5223d1fc0a043f56e1a6a9ec2802406f664cbfea850323aeabf",
                    "indexes": {
                        "data": 0,
                        "gas": 0,
                        "value": 0
                    }
                },
                {
                    "hash": "52a411905ec627f84159466e6f858c64e92fffd18f10aa8e09e7b1970722d921",
                    "logs": "1dcc4de8dec75d7aab85b567b6ccd41ad312451b948a7413f0a142fd40d49347",
                    "txbytes": "0xf860800a830f424094100000000000000000000000000000000000000001801ca0762b992dfa4bdba09e74392a9a7f5ecca4dc51b6c532d754c85e43c1eb5a9b99a073aca7e77a140bce62bbbd4f9dd5e343d61b28d9829e78ea19d67b6b9cd5a0a6",
                    "indexes": {
                        "data": 0,
                        "gas": 1,
                        "value": 0
                    }
                },
                {
                    "hash": "833c72588aedf9163e2de717d635adbf4a80db8ba17870fc9cd80aa23cee37a3",
                    "logs": "1dcc4de8dec75d7aab85b567b6ccd41ad312451b948a7413f0a142fd40d49347",
                    "txbytes": "0xf861800a840ee6b28094100000000000000000000000000000000000000001801ba03640a6caf9899ca45eae05a4cf9012df3acee146ac86e6bf1dab1135d88963caa06a8076e5713e9298c2e8115b867a91f23a042d6b29b5c453b3700f1ce8a7d6d9",
                    "indexes": {
                        "data": 0,
                        "gas": 2,
                        "value": 0
                    }
                }
            ],
            "ETC_Phoenix": [
                {
                    "hash": "4ecc224c617e924daafd47cbc7bb7cfff995cb7b0d4d0a5255f4f85ab35f880b",
                    "logs": "1dcc4de8dec75d7aab85b567b6ccd41ad312451b948a7413f0a142fd40d49347",
                    "txbytes": "0xf860800a830249f094100000000000000000000000000000000000000001801ba0f56f3b98c5ed3c38d0e4e1e3e499b6ba9bda60fcf0f6a811d7979fb5d81cec53a00be599284605e5223d1fc0a043f56e1a6a9ec2802406f664cbfea850323aeabf",
                    "indexes": {
                        "data": 0,
                        "gas": 0,
                        "value": 0
                    }
                },
                {
                    "hash": "52a411905ec627f84159466e6f858c64e92fffd18f10aa8e09e7b1970722d921",
                    "logs": "1dcc4de8dec75d7aab85b567b6ccd41ad312451b948a7413f0a142fd40d49347",
                    "txbytes": "0xf860800a830f424094100000000000000000000000000000000000000001801ca0762b992dfa4bdba09e74392a9a7f5ecca4dc51b6c532d754c85e43c1eb5a9b99a073aca7e77a140bce62bbbd4f9dd5e343d61b28d9829e78ea19d67b6b9cd5a0a6",
                    "indexes": {
                        "data": 0,
                        "gas": 1,
                        "value": 0
                    }
                },
                {
                    "hash": "833c72588aedf9163e2de717d635adbf4a80db8ba17870fc9cd80aa23cee37a3",
                    "logs": "1dcc4de8dec75d7aab85b567b6ccd41ad312451b948a7413f0a142fd40d49347",
                    "txbytes": "0xf861800a840ee6b28094100000000000000000000000000000000000000001801ba03640a6caf9899ca45eae05a4cf9012df3acee146ac86e6bf1dab1135d88963caa06a8076e5713e9298c2e8115b867a91f23a042d6b29b5c453b3700f1ce8a7d6d9",
                    "indexes": {
                        "data": 0,
                        "gas": 2,
                        "value": 0
                    }
                }
            ]
        }
    }
}