{
    "CREATE_Bounds3": {
        "_info": {
            "comment": "",
            "filling-rpc-server": "evm version 1.10.16-unstable-0f893109-20220105",
            "filling-tool-version": "retesteth-0.2.2-testinfo+commit.01c6aac2.Linux.g++",
            "filledWith": "CoreGeth-1.12.9-unstable-d64998ce9b05f4f41b35740c69c4b402e41a3105",
            "lllcversion": "Version: 0.5.14-develop.2021.11.27+commit.401d5358.Linux.g++",
            "source": "src/GeneralStateTestsFiller/stMemoryStressTest/CREATE_Bounds3Filler.json",
            "sourceHash": "d8e374bc3e69a329d850edd882fcc829ad61604b391fb53b79411cd3a2a7f691"
        },
        "env": {
            "currentCoinbase": "0x2adc25665018aa1fe0e6bc666dac8fc2697ff9ba",
            "currentDifficulty": "0x20000",
            "currentGasLimit": "0x7fffffffffffffff",
            "currentNumber": "0x1",
            "currentTimestamp": "0x3e8",
            "previousHash": "0x5e20a0453cecd065ea59c37ac63e079ee08998b6045136a8ce6635c7912ec0b6"
        },
        "pre": {
            "0x1000000000000000000000000000000000000000": {
                "code": "0x7f6001600155601080600c6000396000f3006000355415600957005b60203560006000526035602053605560215367ffffffffffffffff60006001f0506fffffffffffffffffffffffffffffffff60006001f0507fffffffffffffffffffffffffffffffffffffffffffffffffffffffffffffffff60006001f0506000630fffffff6001f050600063ffffffff6001f050600067ffffffffffffffff6001f05060006fffffffffffffffffffffffffffffffff6001f05060007fffffffffffffffffffffffffffffffffffffffffffffffffffffffffffffffff6001f050630fffffff630fffffff6001f05063ffffffff63ffffffff6001f05067ffffffffffffffff67ffffffffffffffff6001f0506fffffffffffffffffffffffffffffffff6fffffffffffffffffffffffffffffffff6001f0507fffffffffffffffffffffffffffffffffffffffffffffffffffffffffffffffff7fffffffffffffffffffffffffffffffffffffffffffffffffffffffffffffffff6001f000",
                "balance": "0x64"
            },
            "0xa94f5374fce5edbc8e2a8697c15331677e6ebf0b": {
                "balance": "0xfffffffffffffffffffffffffffffffffffffffffffffffff"
            }
        },
        "transaction": {
            "gasPrice": "0xa",
            "nonce": "0x0",
            "to": "0x1000000000000000000000000000000000000000",
            "data": [
                "0x"
            ],
            "gasLimit": [
                "0x249f0",
                "0xf4240",
                "0xee6b280"
            ],
            "value": [
                "0x00"
            ],
            "secretKey": "0x45a915e4d060149eb4365960e6a7a45f334393093061116b197e3240065ff2d8",
            "sender": "0xa94f5374fce5edbc8e2a8697c15331677e6ebf0b"
        },
        "post": {
            "ETC_Magneto": [
                {
                    "hash": "b1f3a708dea610cc394ef2eb90c731ede7c57a97c2f3ee8ae3d6563cd7cbc6c0",
                    "logs": "1dcc4de8dec75d7aab85b567b6ccd41ad312451b948a7413f0a142fd40d49347",
                    "txbytes": "0xf860800a830249f094100000000000000000000000000000000000000080801ba0fe4a77219ac4a58bd46862626fe5cef17f7ec1cdc61a696b52d86ed80fde5d3ba05684bbd2ee080b484999bac2ff09bc7249fbdb87247c57df7c12fe2768d4f77f",
                    "indexes": {
                        "data": 0,
                        "gas": 0,
                        "value": 0
                    }
                },
                {
                    "hash": "b43d3bd0f15613c76adb62ae7d065113bf7553dc97f7cb0c3e0f27673e6cd309",
                    "logs": "1dcc4de8dec75d7aab85b567b6ccd41ad312451b948a7413f0a142fd40d49347",
                    "txbytes": "0xf860800a830f424094100000000000000000000000000000000000000080801ba0878fccf1801724b1bfb5b0a67d68454b9c56fe9e3753200bc36cd66eed5636eca00dc53455b0e859433799ddbe3c16f98e70c52b6bf684992d9907dc9d1ccb03f1",
                    "indexes": {
                        "data": 0,
                        "gas": 1,
                        "value": 0
                    }
                },
                {
                    "hash": "15ed1ea23d2fb364af0dac89a963f43e5ec566952ec61ed7153fe928e3077eb5",
                    "logs": "1dcc4de8dec75d7aab85b567b6ccd41ad312451b948a7413f0a142fd40d49347",
                    "txbytes": "0xf861800a840ee6b28094100000000000000000000000000000000000000080801ba0da1e8d8970f7dddb5f908c240f343cb670949e6c1e67331c399a7b25d72b35d3a07ce031a61b985df97d04af05cf7e52aa58342a729d5efd4efaf47aad0c5eb297",
                    "indexes": {
                        "data": 0,
                        "gas": 2,
                        "value": 0
                    }
                }
            ],
            "ETC_Mystique": [
                {
                    "hash": "b1f3a708dea610cc394ef2eb90c731ede7c57a97c2f3ee8ae3d6563cd7cbc6c0",
                    "logs": "1dcc4de8dec75d7aab85b567b6ccd41ad312451b948a7413f0a142fd40d49347",
                    "txbytes": "0xf860800a830249f094100000000000000000000000000000000000000080801ba0fe4a77219ac4a58bd46862626fe5cef17f7ec1cdc61a696b52d86ed80fde5d3ba05684bbd2ee080b484999bac2ff09bc7249fbdb87247c57df7c12fe2768d4f77f",
                    "indexes": {
                        "data": 0,
                        "gas": 0,
                        "value": 0
                    }
                },
                {
                    "hash": "b43d3bd0f15613c76adb62ae7d065113bf7553dc97f7cb0c3e0f27673e6cd309",
                    "logs": "1dcc4de8dec75d7aab85b567b6ccd41ad312451b948a7413f0a142fd40d49347",
                    "txbytes": "0xf860800a830f424094100000000000000000000000000000000000000080801ba0878fccf1801724b1bfb5b0a67d68454b9c56fe9e3753200bc36cd66eed5636eca00dc53455b0e859433799ddbe3c16f98e70c52b6bf684992d9907dc9d1ccb03f1",
                    "indexes": {
                        "data": 0,
                        "gas": 1,
                        "value": 0
                    }
                },
                {
                    "hash": "15ed1ea23d2fb364af0dac89a963f43e5ec566952ec61ed7153fe928e3077eb5",
                    "logs": "1dcc4de8dec75d7aab85b567b6ccd41ad312451b948a7413f0a142fd40d49347",
                    "txbytes": "0xf861800a840ee6b28094100000000000000000000000000000000000000080801ba0da1e8d8970f7dddb5f908c240f343cb670949e6c1e67331c399a7b25d72b35d3a07ce031a61b985df97d04af05cf7e52aa58342a729d5efd4efaf47aad0c5eb297",
                    "indexes": {
                        "data": 0,
                        "gas": 2,
                        "value": 0
                    }
                }
            ],
            "ETC_Phoenix": [
                {
                    "hash": "b1f3a708dea610cc394ef2eb90c731ede7c57a97c2f3ee8ae3d6563cd7cbc6c0",
                    "logs": "1dcc4de8dec75d7aab85b567b6ccd41ad312451b948a7413f0a142fd40d49347",
                    "txbytes": "0xf860800a830249f094100000000000000000000000000000000000000080801ba0fe4a77219ac4a58bd46862626fe5cef17f7ec1cdc61a696b52d86ed80fde5d3ba05684bbd2ee080b484999bac2ff09bc7249fbdb87247c57df7c12fe2768d4f77f",
                    "indexes": {
                        "data": 0,
                        "gas": 0,
                        "value": 0
                    }
                },
                {
                    "hash": "b43d3bd0f15613c76adb62ae7d065113bf7553dc97f7cb0c3e0f27673e6cd309",
                    "logs": "1dcc4de8dec75d7aab85b567b6ccd41ad312451b948a7413f0a142fd40d49347",
                    "txbytes": "0xf860800a830f424094100000000000000000000000000000000000000080801ba0878fccf1801724b1bfb5b0a67d68454b9c56fe9e3753200bc36cd66eed5636eca00dc53455b0e859433799ddbe3c16f98e70c52b6bf684992d9907dc9d1ccb03f1",
                    "indexes": {
                        "data": 0,
                        "gas": 1,
                        "value": 0
                    }
                },
                {
                    "hash": "15ed1ea23d2fb364af0dac89a963f43e5ec566952ec61ed7153fe928e3077eb5",
                    "logs": "1dcc4de8dec75d7aab85b567b6ccd41ad312451b948a7413f0a142fd40d49347",
                    "txbytes": "0xf861800a840ee6b28094100000000000000000000000000000000000000080801ba0da1e8d8970f7dddb5f908c240f343cb670949e6c1e67331c399a7b25d72b35d3a07ce031a61b985df97d04af05cf7e52aa58342a729d5efd4efaf47aad0c5eb297",
                    "indexes": {
                        "data": 0,
                        "gas": 2,
                        "value": 0
                    }
                }
            ]
        }
    }
}