{
    "FillStack": {
        "_info": {
            "comment": "",
            "filling-rpc-server": "evm version 1.10.16-unstable-0f893109-20220105",
            "filling-tool-version": "retesteth-0.2.2-testinfo+commit.01c6aac2.Linux.g++",
            "filledWith": "CoreGeth-1.12.9-unstable-3995a327f2ded5c98324b03792b5ccc22557754f",
            "lllcversion": "Version: 0.5.14-develop.2021.11.27+commit.401d5358.Linux.g++",
            "source": "src/GeneralStateTestsFiller/stMemoryStressTest/FillStackFiller.json",
            "sourceHash": "8673c0089c7b052d81f3d95bb56b13e8e82e317d0574719b48a3ab51dc195680"
        },
        "env": {
            "currentCoinbase": "0x945304eb96065b2a98b57a48a06ae28d285a71b5",
            "currentDifficulty": "0x20000",
            "currentGasLimit": "0x7fffffffffffffff",
            "currentNumber": "0x1",
            "currentTimestamp": "0x3e8",
            "currentBaseFee": "0xa",
            "previousHash": "0x5e20a0453cecd065ea59c37ac63e079ee08998b6045136a8ce6635c7912ec0b6"
        },
        "pre": {
            "0x095e7baea6a6c7c4c2dfeb977efac326af552d87": {
                "code": "0x5b7fffffffffffffffffffffffffffffffffffffffffffffffffffffffffffffffff7ffffffffffffffffffffffffffffffffffffffffffffffffffffffffffffffffe457f00000000000000000000000100000000000000000000000000000000000000007f00000000000000000000000000000000000000000000000000000000000000017f000000000000000000000000000000000000000000000000000000000000c3504357155320803a975560005155",
                "balance": "0x0"
            },
            "0x945304eb96065b2a98b57a48a06ae28d285a71b5": {
                "code": "0x6000355415600957005b60203560003555",
                "balance": "0x2e"
            },
            "0xa94f5374fce5edbc8e2a8697c15331677e6ebf0b": {
                "balance": "0x152d02c7e14af6800000"
            }
        },
        "transaction": {
            "gasPrice": "0xa",
            "nonce": "0x0",
            "to": "0x095e7baea6a6c7c4c2dfeb977efac326af552d87",
            "data": [
                "0x5b7fffffffffffffffffffffffffffffffffffffffffffffffffffffffffffffffff7ffffffffffffffffffffffffffffffffffffffffffffffffffffffffffffffffe457f00000000000000000000000100000000000000000000000000000000000000007f00000000000000000000000000000000000000000000000000000000000000017f000000000000000000000000000000000000000000000000000000000000c3504357155320803a97"
            ],
            "gasLimit": [
                "0x2fefd8",
                "0xee6b280"
            ],
            "value": [
                "0x0fbd1593"
            ],
            "secretKey": "0x45a915e4d060149eb4365960e6a7a45f334393093061116b197e3240065ff2d8",
            "sender": "0xa94f5374fce5edbc8e2a8697c15331677e6ebf0b"
        },
        "post": {
            "ETC_Magneto": [
                {
                    "hash": "9d799a74fb3ffd6b40c1f0b15a48b4e9bc684a97db13a7021d2802f4d25b3501",
                    "logs": "1dcc4de8dec75d7aab85b567b6ccd41ad312451b948a7413f0a142fd40d49347",
                    "txbytes": "0xf90114800a832fefd894095e7baea6a6c7c4c2dfeb977efac326af552d87840fbd1593b8af5b7fffffffffffffffffffffffffffffffffffffffffffffffffffffffffffffffff7ffffffffffffffffffffffffffffffffffffffffffffffffffffffffffffffffe457f00000000000000000000000100000000000000000000000000000000000000007f00000000000000000000000000000000000000000000000000000000000000017f000000000000000000000000000000000000000000000000000000000000c3504357155320803a971ca050cec89b5b9f1dd3b1993c73c1defc850ebcbe19e2868dd0f942d78975de3c07a02ed9dade484978e2da2530d05426e1012f88445c5e4ebc764cf714fbf380d87b",
                    "indexes": {
                        "data": 0,
                        "gas": 0,
                        "value": 0
                    }
                },
                {
                    "hash": "d4773c0396375311d4eeae793499755a692fa98997773e13e7e1786c0f0a90de",
                    "logs": "1dcc4de8dec75d7aab85b567b6ccd41ad312451b948a7413f0a142fd40d49347",
                    "txbytes": "0xf90115800a840ee6b28094095e7baea6a6c7c4c2dfeb977efac326af552d87840fbd1593b8af5b7fffffffffffffffffffffffffffffffffffffffffffffffffffffffffffffffff7ffffffffffffffffffffffffffffffffffffffffffffffffffffffffffffffffe457f00000000000000000000000100000000000000000000000000000000000000007f00000000000000000000000000000000000000000000000000000000000000017f000000000000000000000000000000000000000000000000000000000000c3504357155320803a971ba07adbab6c7d7f3765b0c30882f655f28ed4510504739e4286e577db70969050d7a031b06f40e5fac6e94565fefbd0387c2dd5535d1df3ca8ea65a24edff416c573d",
                    "indexes": {
                        "data": 0,
                        "gas": 1,
                        "value": 0
                    }
                }
            ],
            "ETC_Mystique": [
                {
                    "hash": "9d799a74fb3ffd6b40c1f0b15a48b4e9bc684a97db13a7021d2802f4d25b3501",
                    "logs": "1dcc4de8dec75d7aab85b567b6ccd41ad312451b948a7413f0a142fd40d49347",
                    "txbytes": "0xf90114800a832fefd894095e7baea6a6c7c4c2dfeb977efac326af552d87840fbd1593b8af5b7fffffffffffffffffffffffffffffffffffffffffffffffffffffffffffffffff7ffffffffffffffffffffffffffffffffffffffffffffffffffffffffffffffffe457f00000000000000000000000100000000000000000000000000000000000000007f00000000000000000000000000000000000000000000000000000000000000017f000000000000000000000000000000000000000000000000000000000000c3504357155320803a971ca050cec89b5b9f1dd3b1993c73c1defc850ebcbe19e2868dd0f942d78975de3c07a02ed9dade484978e2da2530d05426e1012f88445c5e4ebc764cf714fbf380d87b",
                    "indexes": {
                        "data": 0,
                        "gas": 0,
                        "value": 0
                    }
                },
                {
                    "hash": "d4773c0396375311d4eeae793499755a692fa98997773e13e7e1786c0f0a90de",
                    "logs": "1dcc4de8dec75d7aab85b567b6ccd41ad312451b948a7413f0a142fd40d49347",
                    "txbytes": "0xf90115800a840ee6b28094095e7baea6a6c7c4c2dfeb977efac326af552d87840fbd1593b8af5b7fffffffffffffffffffffffffffffffffffffffffffffffffffffffffffffffff7ffffffffffffffffffffffffffffffffffffffffffffffffffffffffffffffffe457f00000000000000000000000100000000000000000000000000000000000000007f00000000000000000000000000000000000000000000000000000000000000017f000000000000000000000000000000000000000000000000000000000000c3504357155320803a971ba07adbab6c7d7f3765b0c30882f655f28ed4510504739e4286e577db70969050d7a031b06f40e5fac6e94565fefbd0387c2dd5535d1df3ca8ea65a24edff416c573d",
                    "indexes": {
                        "data": 0,
                        "gas": 1,
                        "value": 0
                    }
                }
            ],
            "ETC_Phoenix": [
                {
                    "hash": "9d799a74fb3ffd6b40c1f0b15a48b4e9bc684a97db13a7021d2802f4d25b3501",
                    "logs": "1dcc4de8dec75d7aab85b567b6ccd41ad312451b948a7413f0a142fd40d49347",
                    "txbytes": "0xf90114800a832fefd894095e7baea6a6c7c4c2dfeb977efac326af552d87840fbd1593b8af5b7fffffffffffffffffffffffffffffffffffffffffffffffffffffffffffffffff7ffffffffffffffffffffffffffffffffffffffffffffffffffffffffffffffffe457f00000000000000000000000100000000000000000000000000000000000000007f00000000000000000000000000000000000000000000000000000000000000017f000000000000000000000000000000000000000000000000000000000000c3504357155320803a971ca050cec89b5b9f1dd3b1993c73c1defc850ebcbe19e2868dd0f942d78975de3c07a02ed9dade484978e2da2530d05426e1012f88445c5e4ebc764cf714fbf380d87b",
                    "indexes": {
                        "data": 0,
                        "gas": 0,
                        "value": 0
                    }
                },
                {
                    "hash": "d4773c0396375311d4eeae793499755a692fa98997773e13e7e1786c0f0a90de",
                    "logs": "1dcc4de8dec75d7aab85b567b6ccd41ad312451b948a7413f0a142fd40d49347",
                    "txbytes": "0xf90115800a840ee6b28094095e7baea6a6c7c4c2dfeb977efac326af552d87840fbd1593b8af5b7fffffffffffffffffffffffffffffffffffffffffffffffffffffffffffffffff7ffffffffffffffffffffffffffffffffffffffffffffffffffffffffffffffffe457f00000000000000000000000100000000000000000000000000000000000000007f00000000000000000000000000000000000000000000000000000000000000017f000000000000000000000000000000000000000000000000000000000000c3504357155320803a971ba07adbab6c7d7f3765b0c30882f655f28ed4510504739e4286e577db70969050d7a031b06f40e5fac6e94565fefbd0387c2dd5535d1df3ca8ea65a24edff416c573d",
                    "indexes": {
                        "data": 0,
                        "gas": 1,
                        "value": 0
                    }
                }
            ]
        }
    }
}