{
    "MLOAD_Bounds3": {
        "_info": {
            "comment": "",
            "filling-rpc-server": "evm version 1.10.16-unstable-0f893109-20220105",
            "filling-tool-version": "retesteth-0.2.2-testinfo+commit.01c6aac2.Linux.g++",
            "filledWith": "CoreGeth-1.12.9-unstable-d390462df9df233b60b4cd7a37db5b3043832022",
            "lllcversion": "Version: 0.5.14-develop.2021.11.27+commit.401d5358.Linux.g++",
            "source": "src/GeneralStateTestsFiller/stMemoryStressTest/MLOAD_Bounds3Filler.json",
            "sourceHash": "dc6f56992af7f2a2cc26cc94210a4bafac94c107cbfddc557060c12dd88490a9"
        },
        "env": {
            "currentCoinbase": "0x2adc25665018aa1fe0e6bc666dac8fc2697ff9ba",
            "currentDifficulty": "0x20000",
            "currentGasLimit": "0x7fffffffffffffff",
            "currentNumber": "0x1",
            "currentTimestamp": "0x3e8",
            "previousHash": "0x5e20a0453cecd065ea59c37ac63e079ee08998b6045136a8ce6635c7912ec0b6"
        },
        "pre": {
            "0x1000000000000000000000000000000000000000": {
                "code": "0x624000005100",
                "balance": "0x0",
                "nonce": "0x0"
            },
            "0xa94f5374fce5edbc8e2a8697c15331677e6ebf0b": {
                "code": "0x",
                "balance": "0x7ffffffffffffffffff",
                "nonce": "0x0"
            }
        },
        "transaction": {
            "gasPrice": "0xa",
            "nonce": "0x0",
            "to": "0x1000000000000000000000000000000000000000",
            "data": [
                "0x"
            ],
            "gasLimit": [
                "0x2160ec0",
                "0xee6b280"
            ],
            "value": [
                "0x01"
            ],
            "secretKey": "0x45a915e4d060149eb4365960e6a7a45f334393093061116b197e3240065ff2d8",
            "sender": "0xa94f5374fce5edbc8e2a8697c15331677e6ebf0b"
        },
        "post": {
            "ETC_Magneto": [
                {
                    "hash": "48e86a0f557db9cf86206539a54ce787644867d541ce52809dd3f9e4ddb56501",
                    "logs": "1dcc4de8dec75d7aab85b567b6ccd41ad312451b948a7413f0a142fd40d49347",
                    "txbytes": "0xf861800a8402160ec094100000000000000000000000000000000000000001801ca02374c1c86d92771655d41d9714e4f01dbd72c67e80cb5b83f8957149d974b7fca012d1739e2a2dc7f927063fe5636db33069195b78a49b20310823321a04392278",
                    "indexes": {
                        "data": 0,
                        "gas": 0,
                        "value": 0
                    }
                },
                {
                    "hash": "48e86a0f557db9cf86206539a54ce787644867d541ce52809dd3f9e4ddb56501",
                    "logs": "1dcc4de8dec75d7aab85b567b6ccd41ad312451b948a7413f0a142fd40d49347",
                    "txbytes": "0xf861800a840ee6b28094100000000000000000000000000000000000000001801ba03640a6caf9899ca45eae05a4cf9012df3acee146ac86e6bf1dab1135d88963caa06a8076e5713e9298c2e8115b867a91f23a042d6b29b5c453b3700f1ce8a7d6d9",
                    "indexes": {
                        "data": 0,
                        "gas": 1,
                        "value": 0
                    }
                }
            ],
            "ETC_Mystique": [
                {
                    "hash": "48e86a0f557db9cf86206539a54ce787644867d541ce52809dd3f9e4ddb56501",
                    "logs": "1dcc4de8dec75d7aab85b567b6ccd41ad312451b948a7413f0a142fd40d49347",
                    "txbytes": "0xf861800a8402160ec094100000000000000000000000000000000000000001801ca02374c1c86d92771655d41d9714e4f01dbd72c67e80cb5b83f8957149d974b7fca012d1739e2a2dc7f927063fe5636db33069195b78a49b20310823321a04392278",
                    "indexes": {
                        "data": 0,
                        "gas": 0,
                        "value": 0
                    }
                },
                {
                    "hash": "48e86a0f557db9cf86206539a54ce787644867d541ce52809dd3f9e4ddb56501",
                    "logs": "1dcc4de8dec75d7aab85b567b6ccd41ad312451b948a7413f0a142fd40d49347",
                    "txbytes": "0xf861800a840ee6b28094100000000000000000000000000000000000000001801ba03640a6caf9899ca45eae05a4cf9012df3acee146ac86e6bf1dab1135d88963caa06a8076e5713e9298c2e8115b867a91f23a042d6b29b5c453b3700f1ce8a7d6d9",
                    "indexes": {
                        "data": 0,
                        "gas": 1,
                        "value": 0
                    }
                }
            ],
            "ETC_Phoenix": [
                {
                    "hash": "48e86a0f557db9cf86206539a54ce787644867d541ce52809dd3f9e4ddb56501",
                    "logs": "1dcc4de8dec75d7aab85b567b6ccd41ad312451b948a7413f0a142fd40d49347",
                    "txbytes": "0xf861800a8402160ec094100000000000000000000000000000000000000001801ca02374c1c86d92771655d41d9714e4f01dbd72c67e80cb5b83f8957149d974b7fca012d1739e2a2dc7f927063fe5636db33069195b78a49b20310823321a04392278",
                    "indexes": {
                        "data": 0,
                        "gas": 0,
                        "value": 0
                    }
                },
                {
                    "hash": "48e86a0f557db9cf86206539a54ce787644867d541ce52809dd3f9e4ddb56501",
                    "logs": "1dcc4de8dec75d7aab85b567b6ccd41ad312451b948a7413f0a142fd40d49347",
                    "txbytes": "0xf861800a840ee6b28094100000000000000000000000000000000000000001801ba03640a6caf9899ca45eae05a4cf9012df3acee146ac86e6bf1dab1135d88963caa06a8076e5713e9298c2e8115b867a91f23a042d6b29b5c453b3700f1ce8a7d6d9",
                    "indexes": {
                        "data": 0,
                        "gas": 1,
                        "value": 0
                    }
                }
            ]
        }
    }
}