{
    "mload32bitBound": {
        "_info": {
            "comment": "",
            "filling-rpc-server": "evm version 1.10.16-unstable-0f893109-20220105",
            "filling-tool-version": "retesteth-0.2.2-testinfo+commit.01c6aac2.Linux.g++",
            "filledWith": "CoreGeth-1.12.9-unstable-3995a327f2ded5c98324b03792b5ccc22557754f",
            "lllcversion": "Version: 0.5.14-develop.2021.11.27+commit.401d5358.Linux.g++",
            "source": "src/GeneralStateTestsFiller/stMemoryStressTest/mload32bitBoundFiller.json",
            "sourceHash": "25fbef8352b99ef3e3577ec2f9ca07aad0ac0ffffd3cf3e28c9dd9a389e0e968"
        },
        "env": {
            "currentCoinbase": "0x2adc25665018aa1fe0e6bc666dac8fc2697ff9ba",
            "currentDifficulty": "0x20000",
            "currentGasLimit": "0x10000804025c",
            "currentNumber": "0x1",
            "currentTimestamp": "0x3e8",
            "currentBaseFee": "0xa",
            "previousHash": "0x5e20a0453cecd065ea59c37ac63e079ee08998b6045136a8ce6635c7912ec0b6"
        },
        "pre": {
            "0x0f572e5295c57f15886f9b263e2f6d2d6c7b5ec6": {
                "code": "0x6401000000005160015500",
                "balance": "0xde0b6b3a7640000"
            },
            "0xa94f5374fce5edbc8e2a8697c15331677e6ebf0b": {
                "balance": "0x3e801f4fa93760"
            }
        },
        "transaction": {
            "gasPrice": "0xa",
            "nonce": "0x0",
            "to": "0x0f572e5295c57f15886f9b263e2f6d2d6c7b5ec6",
            "data": [
                "0x"
            ],
            "gasLimit": [
                "0x249f0",
                "0xee6b280"
            ],
            "value": [
                "0x0a"
            ],
            "secretKey": "0x45a915e4d060149eb4365960e6a7a45f334393093061116b197e3240065ff2d8",
            "sender": "0xa94f5374fce5edbc8e2a8697c15331677e6ebf0b"
        },
        "post": {
            "ETC_Magneto": [
                {
                    "hash": "bc4defa87c782fa70db1a89db9d332dd852089aeeede4031e2085f2fe1e14251",
                    "logs": "1dcc4de8dec75d7aab85b567b6ccd41ad312451b948a7413f0a142fd40d49347",
                    "txbytes": "0xf861800a840ee6b280940f572e5295c57f15886f9b263e2f6d2d6c7b5ec60a801ca0eac9af1814c602e079c9b5d2c20e3e0159ac4ed70caf162c917aa3aa44191e79a07277f4a37e7aedd81d8c1b04c47e4f7e80a57df9103c467c098629ed290c7d3d",
                    "indexes": {
                        "data": 0,
                        "gas": 1,
                        "value": 0
                    }
                },
                {
                    "hash": "9e346988cb67eb1b9b0e0819b1b6112c12c9a8d7a08de686c2b3b7347b8decb4",
                    "logs": "1dcc4de8dec75d7aab85b567b6ccd41ad312451b948a7413f0a142fd40d49347",
                    "txbytes": "0xf860800a830249f0940f572e5295c57f15886f9b263e2f6d2d6c7b5ec60a801ba04af4d9d96097d7aaf3f287ecdaeaba21acd637d5f36b9bca020947493e9eed49a0273594e154216c5aea4df741c4fe99d9038a81604068adc24e251972a8f91e28",
                    "indexes": {
                        "data": 0,
                        "gas": 0,
                        "value": 0
                    }
                }
            ],
            "ETC_Mystique": [
                {
                    "hash": "bc4defa87c782fa70db1a89db9d332dd852089aeeede4031e2085f2fe1e14251",
                    "logs": "1dcc4de8dec75d7aab85b567b6ccd41ad312451b948a7413f0a142fd40d49347",
                    "txbytes": "0xf861800a840ee6b280940f572e5295c57f15886f9b263e2f6d2d6c7b5ec60a801ca0eac9af1814c602e079c9b5d2c20e3e0159ac4ed70caf162c917aa3aa44191e79a07277f4a37e7aedd81d8c1b04c47e4f7e80a57df9103c467c098629ed290c7d3d",
                    "indexes": {
                        "data": 0,
                        "gas": 1,
                        "value": 0
                    }
                },
                {
                    "hash": "9e346988cb67eb1b9b0e0819b1b6112c12c9a8d7a08de686c2b3b7347b8decb4",
                    "logs": "1dcc4de8dec75d7aab85b567b6ccd41ad312451b948a7413f0a142fd40d49347",
                    "txbytes": "0xf860800a830249f0940f572e5295c57f15886f9b263e2f6d2d6c7b5ec60a801ba04af4d9d96097d7aaf3f287ecdaeaba21acd637d5f36b9bca020947493e9eed49a0273594e154216c5aea4df741c4fe99d9038a81604068adc24e251972a8f91e28",
                    "indexes": {
                        "data": 0,
                        "gas": 0,
                        "value": 0
                    }
                }
            ],
            "ETC_Phoenix": [
                {
                    "hash": "bc4defa87c782fa70db1a89db9d332dd852089aeeede4031e2085f2fe1e14251",
                    "logs": "1dcc4de8dec75d7aab85b567b6ccd41ad312451b948a7413f0a142fd40d49347",
                    "txbytes": "0xf861800a840ee6b280940f572e5295c57f15886f9b263e2f6d2d6c7b5ec60a801ca0eac9af1814c602e079c9b5d2c20e3e0159ac4ed70caf162c917aa3aa44191e79a07277f4a37e7aedd81d8c1b04c47e4f7e80a57df9103c467c098629ed290c7d3d",
                    "indexes": {
                        "data": 0,
                        "gas": 1,
                        "value": 0
                    }
                },
                {
                    "hash": "9e346988cb67eb1b9b0e0819b1b6112c12c9a8d7a08de686c2b3b7347b8decb4",
                    "logs": "1dcc4de8dec75d7aab85b567b6ccd41ad312451b948a7413f0a142fd40d49347",
                    "txbytes": "0xf860800a830249f0940f572e5295c57f15886f9b263e2f6d2d6c7b5ec60a801ba04af4d9d96097d7aaf3f287ecdaeaba21acd637d5f36b9bca020947493e9eed49a0273594e154216c5aea4df741c4fe99d9038a81604068adc24e251972a8f91e28",
                    "indexes": {
                        "data": 0,
                        "gas": 0,
                        "value": 0
                    }
                }
            ]
        }
    }
}