{
    "RETURN_Bounds": {
        "_info": {
            "comment": "",
            "filling-rpc-server": "evm version 1.10.16-unstable-0f893109-20220105",
            "filling-tool-version": "retesteth-0.2.2-testinfo+commit.01c6aac2.Linux.g++",
            "filledWith": "CoreGeth-1.12.9-unstable-d64998ce9b05f4f41b35740c69c4b402e41a3105",
            "lllcversion": "Version: 0.5.14-develop.2021.11.27+commit.401d5358.Linux.g++",
            "source": "src/GeneralStateTestsFiller/stMemoryStressTest/RETURN_BoundsFiller.json",
            "sourceHash": "4afd7ae3ed0460ade24f9cbdf675fdf79e6ba5343dd3410e1b5375eb397ff531"
        },
        "env": {
            "currentCoinbase": "0x2adc25665018aa1fe0e6bc666dac8fc2697ff9ba",
            "currentDifficulty": "0x20000",
            "currentGasLimit": "0x7fffffffffffffff",
            "currentNumber": "0x1",
            "currentTimestamp": "0x3e8",
            "previousHash": "0x5e20a0453cecd065ea59c37ac63e079ee08998b6045136a8ce6635c7912ec0b6"
        },
        "pre": {
            "0x1000000000000000000000000000000000000000": {
                "code": "0x600060006000600060007310000000000000000000000000000000000000016707fffffffffffffff1600155600060006000600060007310000000000000000000000000000000000000026707fffffffffffffff1600255600060006000600060007310000000000000000000000000000000000000036707fffffffffffffff1600355600060006000600060007310000000000000000000000000000000000000046707fffffffffffffff1600455600060006000600060007310000000000000000000000000000000000000056707fffffffffffffff1600555600060006000600060007310000000000000000000000000000000000000066707fffffffffffffff1600655600060006000600060007310000000000000000000000000000000000000066707fffffffffffffff1600755600060006000600060007310000000000000000000000000000000000000066707fffffffffffffff1600855600060006000600060007310000000000000000000000000000000000000066707fffffffffffffff1600955600060006000600060007310000000000000000000000000000000000000066707fffffffffffffff1600a55600060006000600060007310000000000000000000000000000000000000066707fffffffffffffff1600b55600060006000600060007310000000000000000000000000000000000000066707fffffffffffffff1600c55600060006000600060007310000000000000000000000000000000000000066707fffffffffffffff1600d55600060006000600060007310000000000000000000000000000000000000066707fffffffffffffff1600e55600060006000600060007310000000000000000000000000000000000000066707fffffffffffffff1600f55600060006000600060007310000000000000000000000000000000000000066707fffffffffffffff160105500",
                "balance": "0x0"
            },
            "0x1000000000000000000000000000000000000001": {
                "code": "0x60006000f300",
                "balance": "0x0"
            },
            "0x1000000000000000000000000000000000000002": {
                "code": "0x6000630ffffffff300",
                "balance": "0x0"
            },
            "0x1000000000000000000000000000000000000003": {
                "code": "0x600063fffffffff300",
                "balance": "0x0"
            },
            "0x1000000000000000000000000000000000000004": {
                "code": "0x600067fffffffffffffffff300",
                "balance": "0x0"
            },
            "0x1000000000000000000000000000000000000005": {
                "code": "0x60006d0ffffffffffffffffffffffffffff300",
                "balance": "0x0"
            },
            "0x1000000000000000000000000000000000000006": {
                "code": "0x60007ffffffffffffffffffffffffffffffffffffffffffffffffffffffffffffffffff300",
                "balance": "0x0"
            },
            "0x1000000000000000000000000000000000000007": {
                "code": "0x630fffffff6000f300",
                "balance": "0x0"
            },
            "0x1000000000000000000000000000000000000008": {
                "code": "0x63ffffffff6000f300",
                "balance": "0x0"
            },
            "0x1000000000000000000000000000000000000009": {
                "code": "0x67ffffffffffffffff6000f300",
                "balance": "0x0"
            },
            "0x1000000000000000000000000000000000000010": {
                "code": "0x6d0fffffffffffffffffffffffffff6000f300",
                "balance": "0x0"
            },
            "0x1000000000000000000000000000000000000011": {
                "code": "0x7fffffffffffffffffffffffffffffffffffffffffffffffffffffffffffffffff6000f300",
                "balance": "0x0"
            },
            "0x1000000000000000000000000000000000000012": {
                "code": "0x630fffffff630ffffffff300",
                "balance": "0x0"
            },
            "0x1000000000000000000000000000000000000013": {
                "code": "0x63ffffffff63fffffffff300",
                "balance": "0x0"
            },
            "0x1000000000000000000000000000000000000014": {
                "code": "0x67ffffffffffffffff67fffffffffffffffff300",
                "balance": "0x0"
            },
            "0x1000000000000000000000000000000000000015": {
                "code": "0x6d0fffffffffffffffffffffffffff6d0ffffffffffffffffffffffffffff300",
                "balance": "0x0"
            },
            "0x1000000000000000000000000000000000000016": {
                "code": "0x7fffffffffffffffffffffffffffffffffffffffffffffffffffffffffffffffff7ffffffffffffffffffffffffffffffffffffffffffffffffffffffffffffffffff300",
                "balance": "0x0"
            },
            "0xa94f5374fce5edbc8e2a8697c15331677e6ebf0b": {
                "balance": "0xffffffffffffffffffffffffffffffffffffffffffffffffffffffffffffffff"
            }
        },
        "transaction": {
            "gasPrice": "0xa",
            "nonce": "0x0",
            "to": "0x1000000000000000000000000000000000000000",
            "data": [
                "0x"
            ],
            "gasLimit": [
                "0x249f0",
                "0x7a120",
                "0xe4e1c0"
            ],
            "value": [
                "0x01"
            ],
            "secretKey": "0x45a915e4d060149eb4365960e6a7a45f334393093061116b197e3240065ff2d8",
            "sender": "0xa94f5374fce5edbc8e2a8697c15331677e6ebf0b"
        },
        "post": {
            "ETC_Magneto": [
                {
                    "hash": "d1ae2494867a0c263a6f7aa6519987062c65762bb82149a02e66d2dda5f0eabc",
                    "logs": "1dcc4de8dec75d7aab85b567b6ccd41ad312451b948a7413f0a142fd40d49347",
                    "txbytes": "0xf860800a830249f094100000000000000000000000000000000000000001801ba0f56f3b98c5ed3c38d0e4e1e3e499b6ba9bda60fcf0f6a811d7979fb5d81cec53a00be599284605e5223d1fc0a043f56e1a6a9ec2802406f664cbfea850323aeabf",
                    "indexes": {
                        "data": 0,
                        "gas": 0,
                        "value": 0
                    }
                },
                {
                    "hash": "450373b049a84d93bd0b199b8c5aa2d0fb3ea585d9afe500dddcb53caffa4beb",
                    "logs": "1dcc4de8dec75d7aab85b567b6ccd41ad312451b948a7413f0a142fd40d49347",
                    "txbytes": "0xf860800a8307a12094100000000000000000000000000000000000000001801ca07d728dcdfad13de98a9792066671ade883b6540d54eabe003faf386f3de4da6ea02cfbc9a4f02bde0bad3892a47da7a43cc3920434c4784f65e999b6a77b5e99f6",
                    "indexes": {
                        "data": 0,
                        "gas": 1,
                        "value": 0
                    }
                },
                {
                    "hash": "450373b049a84d93bd0b199b8c5aa2d0fb3ea585d9afe500dddcb53caffa4beb",
                    "logs": "1dcc4de8dec75d7aab85b567b6ccd41ad312451b948a7413f0a142fd40d49347",
                    "txbytes": "0xf860800a83e4e1c094100000000000000000000000000000000000000001801ca02e11c64679a2e918f62444a04a0ce6c97966543d24d6567a2ec61019821d00bda0576332402517902aacbb6871851a4e85bb970996109a78e10db30582decd03a8",
                    "indexes": {
                        "data": 0,
                        "gas": 2,
                        "value": 0
                    }
                }
            ],
            "ETC_Mystique": [
                {
                    "hash": "d1ae2494867a0c263a6f7aa6519987062c65762bb82149a02e66d2dda5f0eabc",
                    "logs": "1dcc4de8dec75d7aab85b567b6ccd41ad312451b948a7413f0a142fd40d49347",
                    "txbytes": "0xf860800a830249f094100000000000000000000000000000000000000001801ba0f56f3b98c5ed3c38d0e4e1e3e499b6ba9bda60fcf0f6a811d7979fb5d81cec53a00be599284605e5223d1fc0a043f56e1a6a9ec2802406f664cbfea850323aeabf",
                    "indexes": {
                        "data": 0,
                        "gas": 0,
                        "value": 0
                    }
                },
                {
                    "hash": "450373b049a84d93bd0b199b8c5aa2d0fb3ea585d9afe500dddcb53caffa4beb",
                    "logs": "1dcc4de8dec75d7aab85b567b6ccd41ad312451b948a7413f0a142fd40d49347",
                    "txbytes": "0xf860800a8307a12094100000000000000000000000000000000000000001801ca07d728dcdfad13de98a9792066671ade883b6540d54eabe003faf386f3de4da6ea02cfbc9a4f02bde0bad3892a47da7a43cc3920434c4784f65e999b6a77b5e99f6",
                    "indexes": {
                        "data": 0,
                        "gas": 1,
                        "value": 0
                    }
                },
                {
                    "hash": "450373b049a84d93bd0b199b8c5aa2d0fb3ea585d9afe500dddcb53caffa4beb",
                    "logs": "1dcc4de8dec75d7aab85b567b6ccd41ad312451b948a7413f0a142fd40d49347",
                    "txbytes": "0xf860800a83e4e1c094100000000000000000000000000000000000000001801ca02e11c64679a2e918f62444a04a0ce6c97966543d24d6567a2ec61019821d00bda0576332402517902aacbb6871851a4e85bb970996109a78e10db30582decd03a8",
                    "indexes": {
                        "data": 0,
                        "gas": 2,
                        "value": 0
                    }
                }
            ],
            "ETC_Phoenix": [
                {
                    "hash": "d1ae2494867a0c263a6f7aa6519987062c65762bb82149a02e66d2dda5f0eabc",
                    "logs": "1dcc4de8dec75d7aab85b567b6ccd41ad312451b948a7413f0a142fd40d49347",
                    "txbytes": "0xf860800a830249f094100000000000000000000000000000000000000001801ba0f56f3b98c5ed3c38d0e4e1e3e499b6ba9bda60fcf0f6a811d7979fb5d81cec53a00be599284605e5223d1fc0a043f56e1a6a9ec2802406f664cbfea850323aeabf",
                    "indexes": {
                        "data": 0,
                        "gas": 0,
                        "value": 0
                    }
                },
                {
                    "hash": "0dd375fe95e91df0aed2a228cc1b91077bbed4de0e09683decf2949052c9fdff",
                    "logs": "1dcc4de8dec75d7aab85b567b6ccd41ad312451b948a7413f0a142fd40d49347",
                    "txbytes": "0xf860800a8307a12094100000000000000000000000000000000000000001801ca07d728dcdfad13de98a9792066671ade883b6540d54eabe003faf386f3de4da6ea02cfbc9a4f02bde0bad3892a47da7a43cc3920434c4784f65e999b6a77b5e99f6",
                    "indexes": {
                        "data": 0,
                        "gas": 1,
                        "value": 0
                    }
                },
                {
                    "hash": "0dd375fe95e91df0aed2a228cc1b91077bbed4de0e09683decf2949052c9fdff",
                    "logs": "1dcc4de8dec75d7aab85b567b6ccd41ad312451b948a7413f0a142fd40d49347",
                    "txbytes": "0xf860800a83e4e1c094100000000000000000000000000000000000000001801ca02e11c64679a2e918f62444a04a0ce6c97966543d24d6567a2ec61019821d00bda0576332402517902aacbb6871851a4e85bb970996109a78e10db30582decd03a8",
                    "indexes": {
                        "data": 0,
                        "gas": 2,
                        "value": 0
                    }
                }
            ]
        }
    }
}