{
    "static_CALL_Bounds": {
        "_info": {
            "comment": "",
            "filling-rpc-server": "evm version 1.10.16-unstable-0f893109-20220105",
            "filling-tool-version": "retesteth-0.2.2-testinfo+commit.01c6aac2.Linux.g++",
            "filledWith": "CoreGeth-1.12.9-unstable-ab16c56768f0284ab56a30aac9550d3ebdc45901",
            "lllcversion": "Version: 0.5.14-develop.2021.11.27+commit.401d5358.Linux.g++",
            "source": "src/GeneralStateTestsFiller/stMemoryStressTest/static_CALL_BoundsFiller.json",
            "sourceHash": "ca370587b2498e234d738e990726b14d69c5dbb126f67fc916e4024141575c3e"
        },
        "env": {
            "currentCoinbase": "0x2adc25665018aa1fe0e6bc666dac8fc2697ff9ba",
            "currentDifficulty": "0x20000",
            "currentGasLimit": "0x7fffffffffffffff",
            "currentNumber": "0x1",
            "currentTimestamp": "0x3e8",
            "currentBaseFee": "0xa",
            "previousHash": "0x5e20a0453cecd065ea59c37ac63e079ee08998b6045136a8ce6635c7912ec0b6"
        },
        "pre": {
            "0x1000000000000000000000000000000000000000": {
                "code": "0x60006000600060007310000000000000000000000000000000000000016707fffffffffffffffa50630fffffff6000630fffffff60007310000000000000000000000000000000000000016707fffffffffffffffa5063ffffffff600063ffffffff60007310000000000000000000000000000000000000016707fffffffffffffffa506000630fffffff6000630fffffff7310000000000000000000000000000000000000016707fffffffffffffffa50600063ffffffff600063ffffffff7310000000000000000000000000000000000000016707fffffffffffffffa50600067ffffffffffffffff600067ffffffffffffffff7310000000000000000000000000000000000000016707fffffffffffffffa5060006fffffffffffffffffffffffffffffffff60006fffffffffffffffffffffffffffffffff7310000000000000000000000000000000000000016707fffffffffffffffa5060007fffffffffffffffffffffffffffffffffffffffffffffffffffffffffffffffff60007fffffffffffffffffffffffffffffffffffffffffffffffffffffffffffffffff7310000000000000000000000000000000000000016707fffffffffffffffa00",
                "balance": "0x0"
            },
            "0x1000000000000000000000000000000000000001": {
                "code": "0x60005460010160005200",
                "balance": "0x0"
            },
            "0xa94f5374fce5edbc8e2a8697c15331677e6ebf0b": {
                "balance": "0xffffffffffffffffffffffffffffffffffffffffffffffffffffff"
            }
        },
        "transaction": {
            "gasPrice": "0xa",
            "nonce": "0x0",
            "to": "0x1000000000000000000000000000000000000000",
            "data": [
                "0x"
            ],
            "gasLimit": [
                "0x249f0",
                "0xee6b280"
            ],
            "value": [
                "0x01"
            ],
            "secretKey": "0x45a915e4d060149eb4365960e6a7a45f334393093061116b197e3240065ff2d8",
            "sender": "0xa94f5374fce5edbc8e2a8697c15331677e6ebf0b"
        },
        "post": {
            "ETC_Magneto": [
                {
                    "hash": "1b9d71f4df3e796e684f4ce4d3f23d815336ec7b8cb46713d0be6651fa363784",
                    "logs": "1dcc4de8dec75d7aab85b567b6ccd41ad312451b948a7413f0a142fd40d49347",
                    "txbytes": "0xf860800a830249f094100000000000000000000000000000000000000001801ba0f56f3b98c5ed3c38d0e4e1e3e499b6ba9bda60fcf0f6a811d7979fb5d81cec53a00be599284605e5223d1fc0a043f56e1a6a9ec2802406f664cbfea850323aeabf",
                    "indexes": {
                        "data": 0,
                        "gas": 0,
                        "value": 0
                    }
                },
                {
                    "hash": "06eecae6c73d3080431b1904c6f5dd4358e8a9ba95fc45899175d46d6e6d38f7",
                    "logs": "1dcc4de8dec75d7aab85b567b6ccd41ad312451b948a7413f0a142fd40d49347",
                    "txbytes": "0xf861800a840ee6b28094100000000000000000000000000000000000000001801ba03640a6caf9899ca45eae05a4cf9012df3acee146ac86e6bf1dab1135d88963caa06a8076e5713e9298c2e8115b867a91f23a042d6b29b5c453b3700f1ce8a7d6d9",
                    "indexes": {
                        "data": 0,
                        "gas": 1,
                        "value": 0
                    }
                }
            ],
            "ETC_Mystique": [
                {
                    "hash": "1b9d71f4df3e796e684f4ce4d3f23d815336ec7b8cb46713d0be6651fa363784",
                    "logs": "1dcc4de8dec75d7aab85b567b6ccd41ad312451b948a7413f0a142fd40d49347",
                    "txbytes": "0xf860800a830249f094100000000000000000000000000000000000000001801ba0f56f3b98c5ed3c38d0e4e1e3e499b6ba9bda60fcf0f6a811d7979fb5d81cec53a00be599284605e5223d1fc0a043f56e1a6a9ec2802406f664cbfea850323aeabf",
                    "indexes": {
                        "data": 0,
                        "gas": 0,
                        "value": 0
                    }
                },
                {
                    "hash": "06eecae6c73d3080431b1904c6f5dd4358e8a9ba95fc45899175d46d6e6d38f7",
                    "logs": "1dcc4de8dec75d7aab85b567b6ccd41ad312451b948a7413f0a142fd40d49347",
                    "txbytes": "0xf861800a840ee6b28094100000000000000000000000000000000000000001801ba03640a6caf9899ca45eae05a4cf9012df3acee146ac86e6bf1dab1135d88963caa06a8076e5713e9298c2e8115b867a91f23a042d6b29b5c453b3700f1ce8a7d6d9",
                    "indexes": {
                        "data": 0,
                        "gas": 1,
                        "value": 0
                    }
                }
            ],
            "ETC_Phoenix": [
                {
                    "hash": "1b9d71f4df3e796e684f4ce4d3f23d815336ec7b8cb46713d0be6651fa363784",
                    "logs": "1dcc4de8dec75d7aab85b567b6ccd41ad312451b948a7413f0a142fd40d49347",
                    "txbytes": "0xf860800a830249f094100000000000000000000000000000000000000001801ba0f56f3b98c5ed3c38d0e4e1e3e499b6ba9bda60fcf0f6a811d7979fb5d81cec53a00be599284605e5223d1fc0a043f56e1a6a9ec2802406f664cbfea850323aeabf",
                    "indexes": {
                        "data": 0,
                        "gas": 0,
                        "value": 0
                    }
                },
                {
                    "hash": "06eecae6c73d3080431b1904c6f5dd4358e8a9ba95fc45899175d46d6e6d38f7",
                    "logs": "1dcc4de8dec75d7aab85b567b6ccd41ad312451b948a7413f0a142fd40d49347",
                    "txbytes": "0xf861800a840ee6b28094100000000000000000000000000000000000000001801ba03640a6caf9899ca45eae05a4cf9012df3acee146ac86e6bf1dab1135d88963caa06a8076e5713e9298c2e8115b867a91f23a042d6b29b5c453b3700f1ce8a7d6d9",
                    "indexes": {
                        "data": 0,
                        "gas": 1,
                        "value": 0
                    }
                }
            ]
        }
    }
}