{
    "createFailResult": {
        "_info": {
            "comment": "Ori Pomerantz   qbzzt1@gmail.com",
            "filling-rpc-server": "evm version 1.10.16-unstable-0f893109-20220105",
            "filling-tool-version": "retesteth-0.2.2-testinfo+commit.01c6aac2.Linux.g++",
            "filledWith": "CoreGeth-1.12.9-unstable-ab16c56768f0284ab56a30aac9550d3ebdc45901",
            "lllcversion": "Version: 0.5.14-develop.2021.11.27+commit.401d5358.Linux.g++",
            "source": "src/GeneralStateTestsFiller/stCreateTest/createFailResultFiller.yml",
            "sourceHash": "a7be850243c2c2ca9c8c973e20f624ca7406438b0b662cfc59137d91dae5b449",
            "labels": {
                "0": "CREATE--OOG",
                "1": "CREATE2-OOG",
                "2": "CREATE--GOOD",
                "3": "CREATE2-GOOD",
                "4": "CREATE--BAD",
                "5": "CREATE2-BAD",
                "6": "CREATE2-BOOM",
                "7": "CREATE2-BAD-BOOM",
                "8": "CREATE--BOOM",
                "9": "CREATE--BAD-BOOM"
            }
        },
        "env": {
            "currentCoinbase": "0x2adc25665018aa1fe0e6bc666dac8fc2697ff9ba",
            "currentDifficulty": "0x20000",
            "currentGasLimit": "0x5f5e100",
            "currentNumber": "0x1",
            "currentTimestamp": "0x3e8",
            "currentBaseFee": "0xa",
            "previousHash": "0x5e20a0453cecd065ea59c37ac63e079ee08998b6045136a8ce6635c7912ec0b6"
        },
        "pre": {
            "0x0000000000000000000000000000000000000bad": {
                "code": "0x650bad0bad0bad60005260206000fd",
                "balance": "0xba1a9ce0ba1a9ce",
                "nonce": "0x1"
            },
            "0x000000000000000000000000000000000000600d": {
                "code": "0x61600d60005260206000f3",
                "balance": "0xba1a9ce0ba1a9ce",
                "nonce": "0x1"
            },
            "0x000000000000000000000000000000000000da7a": {
                "code": "0x63deadbeef6000526160a760205260406000f3",
                "balance": "0xba1a9ce0ba1a9ce",
                "nonce": "0x1"
            },
            "0x0000000000000000000000000000000000c0deee": {
                "code": "0x604061010060006000600061da7a5af16010553d6011556101005160125561012051601355600035803b8060006000843c8060006000f06000553d6001553d60006102003e61020051600255610220516003555050",
                "balance": "0xba1a9ce0ba1a9ce",
                "nonce": "0x1"
            },
            "0x0000000000000000000000000000000000c0def0": {
                "code": "0x604061010060006000600061da7a5af16010553d6011556101005160125561012051601355600035803b8060006000843c8060006000f06000553d6001553d60006102003e61020051600255610220516003555050",
                "balance": "0xba1a9ce0ba1a9ce",
                "nonce": "0x1"
            },
            "0x0000000000000000000000000000000000c0def5": {
                "code": "0x604061010060006000600061da7a5af16010553d6011556101005160125561012051601355600035803b8060006000843c615a178160006000f56000553d6001553d60006102003e61020051600255610220516003555050",
                "balance": "0xba1a9ce0ba1a9ce",
                "nonce": "0x1"
            },
            "0x0000000000000000000000000000000000c0deff": {
                "code": "0x604061010060006000600061da7a5af16010553d6011556101005160125561012051601355600035803b8060006000843c63bad05a178160006000f56000553d6001553d60006102003e61020051600255610220516003555050",
                "balance": "0xba1a9ce0ba1a9ce",
                "nonce": "0x1"
            },
            "0x13c950f8740ffaea1869a88d70b029e8b0c9a8da": {
                "code": "0x600100",
                "balance": "0x600d",
                "nonce": "0x1"
            },
            "0xa94f5374fce5edbc8e2a8697c15331677e6ebf0b": {
                "balance": "0xba1a9ce0ba1a9ce",
                "nonce": "0x1"
            },
            "0xbb0237ab04970e3cf3e813c02064662adc89336b": {
                "code": "0x600100",
                "balance": "0x600d",
                "nonce": "0x1"
            },
            "0xcccccccccccccccccccccccccccccccccccccccc": {
                "code": "0x6004356024358162c0de0001604061010060006000600061da7a5af16010553d60115561010051601255610120516013555a60068314156046576004615654026175300190505b8260005260206102006020600060008686f1806000553d600155610200516002555050505050",
                "balance": "0xba1a9ce0ba1a9ce",
                "nonce": "0x1"
            },
            "0xf9d1ea8eab6963659ee85b3e0b4d8a57e7edba2b": {
                "code": "0x600100",
                "balance": "0x600d",
                "nonce": "0x1"
            }
        },
        "transaction": {
            "gasPrice": "0xa",
            "nonce": "0x1",
            "to": "0xcccccccccccccccccccccccccccccccccccccccc",
            "data": [
                "0x1a8451e600000000000000000000000000000000000000000000000000000000000000f00000000000000000000000000000000000000000000000000000000000000006",
                "0x1a8451e600000000000000000000000000000000000000000000000000000000000000f50000000000000000000000000000000000000000000000000000000000000006",
                "0x1a8451e600000000000000000000000000000000000000000000000000000000000000f0000000000000000000000000000000000000000000000000000000000000600d",
                "0x1a8451e600000000000000000000000000000000000000000000000000000000000000f5000000000000000000000000000000000000000000000000000000000000600d",
                "0x1a8451e600000000000000000000000000000000000000000000000000000000000000f00000000000000000000000000000000000000000000000000000000000000bad",
                "0x1a8451e600000000000000000000000000000000000000000000000000000000000000f50000000000000000000000000000000000000000000000000000000000000bad",
                "0x1a8451e600000000000000000000000000000000000000000000000000000000000000ff000000000000000000000000000000000000000000000000000000000000600d",
                "0x1a8451e600000000000000000000000000000000000000000000000000000000000000ff0000000000000000000000000000000000000000000000000000000000000bad",
                "0x1a8451e600000000000000000000000000000000000000000000000000000000000000ee000000000000000000000000000000000000000000000000000000000000600d",
                "0x1a8451e600000000000000000000000000000000000000000000000000000000000000ee0000000000000000000000000000000000000000000000000000000000000bad"
            ],
            "gasLimit": [
                "0x4c4b400"
            ],
            "value": [
                "0x00"
            ],
            "secretKey": "0x45a915e4d060149eb4365960e6a7a45f334393093061116b197e3240065ff2d8",
            "sender": "0xa94f5374fce5edbc8e2a8697c15331677e6ebf0b"
        },
        "post": {
            "ETC_Mystique": [
                {
                    "hash": "a98478f8ef7157ab3be752657d7140feb01843ddd979bd8a51b68516b7732e1f",
                    "logs": "1dcc4de8dec75d7aab85b567b6ccd41ad312451b948a7413f0a142fd40d49347",
                    "txbytes": "0xf8a6010a8404c4b40094cccccccccccccccccccccccccccccccccccccccc80b8441a8451e600000000000000000000000000000000000000000000000000000000000000f000000000000000000000000000000000000000000000000000000000000000061ba099036e6654daa14b85469a7f14725ce56495105e80eb987a5967dbcf4f969e83a00995eeaada3641f2a0d0488c07368a42e11757e9d23994a2dcc2989afafe84f4",
                    "indexes": {
                        "data": 0,
                        "gas": 0,
                        "value": 0
                    }
                },
                {
                    "hash": "a98478f8ef7157ab3be752657d7140feb01843ddd979bd8a51b68516b7732e1f",
                    "logs": "1dcc4de8dec75d7aab85b567b6ccd41ad312451b948a7413f0a142fd40d49347",
                    "txbytes": "0xf8a6010a8404c4b40094cccccccccccccccccccccccccccccccccccccccc80b8441a8451e600000000000000000000000000000000000000000000000000000000000000f500000000000000000000000000000000000000000000000000000000000000061ca069a9bcb53b46ad304354ab278e67b094c34a129560b36098e2a9670ab2dc62daa02f59ecde03e61030201cb456cccf7543532dc6b769df1ec3bae14fddfcd4f223",
                    "indexes": {
                        "data": 1,
                        "gas": 0,
                        "value": 0
                    }
                },
                {
                    "hash": "6bea0a8e1e875b7896a313cca89f2db7ee9e20fbab021bdc7c5e17342c48c1a9",
                    "logs": "1dcc4de8dec75d7aab85b567b6ccd41ad312451b948a7413f0a142fd40d49347",
                    "txbytes": "0xf8a6010a8404c4b40094cccccccccccccccccccccccccccccccccccccccc80b8441a8451e600000000000000000000000000000000000000000000000000000000000000f0000000000000000000000000000000000000000000000000000000000000600d1ba0eee5abdbdd24c31b693aa18eab64f5ba9443a599f69b872ceaea9e87db5276c2a0018c577488875b71634000cf28ee1feeeec06c6b456ac95baaf99bc68984a837",
                    "indexes": {
                        "data": 2,
                        "gas": 0,
                        "value": 0
                    }
                },
                {
                    "hash": "82bb48dfe4070a1b30fee835a0a4ef93b0b110fb514775abdb1e0e707135ff80",
                    "logs": "1dcc4de8dec75d7aab85b567b6ccd41ad312451b948a7413f0a142fd40d49347",
                    "txbytes": "0xf8a6010a8404c4b40094cccccccccccccccccccccccccccccccccccccccc80b8441a8451e600000000000000000000000000000000000000000000000000000000000000f5000000000000000000000000000000000000000000000000000000000000600d1ca0545c028b11b79f2822401cf664dbe730b7c6f65ec6081664e6886a2e21ae39e5a064c774949c8b05deb48283b728e327d2283c0e54bf47340e57e4e8b0860e3e9c",
                    "indexes": {
                        "data": 3,
                        "gas": 0,
                        "value": 0
                    }
                },
                {
                    "hash": "99753a46189370326556f26221fa469dc7f940262c352fcef2c574c5917948db",
                    "logs": "1dcc4de8dec75d7aab85b567b6ccd41ad312451b948a7413f0a142fd40d49347",
                    "txbytes": "0xf8a6010a8404c4b40094cccccccccccccccccccccccccccccccccccccccc80b8441a8451e600000000000000000000000000000000000000000000000000000000000000f00000000000000000000000000000000000000000000000000000000000000bad1ba0ab0070dd5bef70945c5855d362721891d0a12d10abd93386bba7bddbd086dd2fa0083ad2318a60e68e7112452d5d0e325492ae9c3918e0339cb26c73053630e9c6",
                    "indexes": {
                        "data": 4,
                        "gas": 0,
                        "value": 0
                    }
                },
                {
                    "hash": "d34776be315f3e57e80553d68ce401ef3b20d2421a448454c94c4b36876dcd92",
                    "logs": "1dcc4de8dec75d7aab85b567b6ccd41ad312451b948a7413f0a142fd40d49347",
                    "txbytes": "0xf8a6010a8404c4b40094cccccccccccccccccccccccccccccccccccccccc80b8441a8451e600000000000000000000000000000000000000000000000000000000000000f50000000000000000000000000000000000000000000000000000000000000bad1ca0aec305539d314ba1df77ec7d6e1426957059b5cd5f899a627baa31862cb0842da07b1a214e18a96e17d27aa47e1e918d0800fa9c80372e80fb56e19683db61d678",
                    "indexes": {
                        "data": 5,
                        "gas": 0,
                        "value": 0
                    }
                },
                {
                    "hash": "6f9603ede9cf7ee25086567e6d3729e055bb3d5ef3d73413bdb5168cd395cb5a",
                    "logs": "1dcc4de8dec75d7aab85b567b6ccd41ad312451b948a7413f0a142fd40d49347",
                    "txbytes": "0xf8a6010a8404c4b40094cccccccccccccccccccccccccccccccccccccccc80b8441a8451e600000000000000000000000000000000000000000000000000000000000000ff000000000000000000000000000000000000000000000000000000000000600d1ca0be493b7f0ca37ba075f6787d9a0aa1f0b1e3cb4e6a017736a4fdcca96b2e8624a04f5985c3ee18271aacdb54788988f1c31272d3e9db2f4391c288a8376d02138c",
                    "indexes": {
                        "data": 6,
                        "gas": 0,
                        "value": 0
                    }
                },
                {
                    "hash": "6f9603ede9cf7ee25086567e6d3729e055bb3d5ef3d73413bdb5168cd395cb5a",
                    "logs": "1dcc4de8dec75d7aab85b567b6ccd41ad312451b948a7413f0a142fd40d49347",
                    "txbytes": "0xf8a6010a8404c4b40094cccccccccccccccccccccccccccccccccccccccc80b8441a8451e600000000000000000000000000000000000000000000000000000000000000ff0000000000000000000000000000000000000000000000000000000000000bad1ca099e1ccd5afadc2e6f83e6f18d4a4ffac1a11b9d9ed10ca247daac0b7fe1e9377a07f4e48cf613767927f696632a297c495b05129318e0fe80ea7d449f4ac81c46c",
                    "indexes": {
                        "data": 7,
                        "gas": 0,
                        "value": 0
                    }
                },
                {
                    "hash": "ede8023ec4b51024a324e90ec877f8a8454d5f7d4100fa9f87415d6f84287ff1",
                    "logs": "1dcc4de8dec75d7aab85b567b6ccd41ad312451b948a7413f0a142fd40d49347",
                    "txbytes": "0xf8a6010a8404c4b40094cccccccccccccccccccccccccccccccccccccccc80b8441a8451e600000000000000000000000000000000000000000000000000000000000000ee000000000000000000000000000000000000000000000000000000000000600d1ca00ae614ea20f3b3a321e65fd0ed2bf8c0cb4c81eeeb1539745345d7c3c7ac0e2aa01122dc8f92d5fc5ef43d012886a3d9d01e5e5d58fdc78e344b5481036004831b",
                    "indexes": {
                        "data": 8,
                        "gas": 0,
                        "value": 0
                    }
                },
                {
                    "hash": "ede8023ec4b51024a324e90ec877f8a8454d5f7d4100fa9f87415d6f84287ff1",
                    "logs": "1dcc4de8dec75d7aab85b567b6ccd41ad312451b948a7413f0a142fd40d49347",
                    "txbytes": "0xf8a6010a8404c4b40094cccccccccccccccccccccccccccccccccccccccc80b8441a8451e600000000000000000000000000000000000000000000000000000000000000ee0000000000000000000000000000000000000000000000000000000000000bad1ca0c45f622f46f012258df5ec69be396aaeab4cb3ec985c36be86e57451f41f7b0ea01c6f17ee581c27a74e2a5d29375558d12e12e875d85ec71d709beff910696294",
                    "indexes": {
                        "data": 9,
                        "gas": 0,
                        "value": 0
                    }
                }
            ]
        }
    }
}