{
    "CreateOOGafterInitCodeReturndata": {
        "_info": {
            "comment": "Call RETURNDATASIZE and RETURNDATACOPY after CREATE deploy a contract",
            "filling-rpc-server": "evm version 1.10.16-unstable-0f893109-20220105",
            "filling-tool-version": "retesteth-0.2.2-testinfo+commit.01c6aac2.Linux.g++",
            "filledWith": "CoreGeth-1.12.9-unstable-d64998ce9b05f4f41b35740c69c4b402e41a3105",
            "lllcversion": "Version: 0.5.14-develop.2021.11.27+commit.401d5358.Linux.g++",
            "source": "src/GeneralStateTestsFiller/stCreateTest/CreateOOGafterInitCodeReturndataFiller.json",
            "sourceHash": "b3d3f242a2cc3b9b21cb965b8aa1ae517137da38d4f0870c2faa92a3f14f9e59"
        },
        "env": {
            "currentCoinbase": "0x2adc25665018aa1fe0e6bc666dac8fc2697ff9ba",
            "currentDifficulty": "0x20000",
            "currentGasLimit": "0x989680",
            "currentNumber": "0x1",
            "currentTimestamp": "0x3e8",
            "previousHash": "0x5e20a0453cecd065ea59c37ac63e079ee08998b6045136a8ce6635c7912ec0b6"
        },
        "pre": {
            "0xa94f5374fce5edbc8e2a8697c15331677e6ebf0b": {
                "balance": "0xe8d4a51000"
            },
            "0xb94f5374fce5edbc8e2a8697c15331677e6ebf0b": {
                "code": "0x6d6460016001556000526005601bf3600052600e60126000f0503d6001556020600060003e60005160025500",
                "balance": "0x0"
            }
        },
        "transaction": {
            "gasPrice": "0xa",
            "nonce": "0x0",
            "to": "0xb94f5374fce5edbc8e2a8697c15331677e6ebf0b",
            "data": [
                "0x"
            ],
            "gasLimit": [
                "0xd2f0",
                "0x17318"
            ],
            "value": [
                "0x00"
            ],
            "secretKey": "0x45a915e4d060149eb4365960e6a7a45f334393093061116b197e3240065ff2d8",
            "sender": "0xa94f5374fce5edbc8e2a8697c15331677e6ebf0b"
        },
        "post": {
            "ETC_Magneto": [
                {
                    "hash": "02ad49ef190c5d47efa41c68072ecae3b6364e0f0f49838a80fb0b2280287eca",
                    "logs": "1dcc4de8dec75d7aab85b567b6ccd41ad312451b948a7413f0a142fd40d49347",
                    "txbytes": "0xf85f800a82d2f094b94f5374fce5edbc8e2a8697c15331677e6ebf0b80801ca04110d91c8d222752e43bb98f811ccf151dfd7ef10cf8dd5888369fece4112983a00752c4ac643358117ead0ac6abdeed2c936ebe3d64524ab6dc41e19aba7e2d21",
                    "indexes": {
                        "data": 0,
                        "gas": 0,
                        "value": 0
                    }
                },
                {
                    "hash": "6404bad6bbee9cbc2311ebac5853e9a16e5ebf62e85b308425aeccc800ac895b",
                    "logs": "1dcc4de8dec75d7aab85b567b6ccd41ad312451b948a7413f0a142fd40d49347",
                    "txbytes": "0xf860800a8301731894b94f5374fce5edbc8e2a8697c15331677e6ebf0b80801ca0378412b32fcd3ef4b3bd343dcd3e8c9f9538abc129f1b90803372440bbbb6057a06186c4dd19e0b3969dd87dddc244e87a27621cafcfeb2ca66c73dd64e3264aa6",
                    "indexes": {
                        "data": 0,
                        "gas": 1,
                        "value": 0
                    }
                }
            ],
            "ETC_Mystique": [
                {
                    "hash": "02ad49ef190c5d47efa41c68072ecae3b6364e0f0f49838a80fb0b2280287eca",
                    "logs": "1dcc4de8dec75d7aab85b567b6ccd41ad312451b948a7413f0a142fd40d49347",
                    "txbytes": "0xf85f800a82d2f094b94f5374fce5edbc8e2a8697c15331677e6ebf0b80801ca04110d91c8d222752e43bb98f811ccf151dfd7ef10cf8dd5888369fece4112983a00752c4ac643358117ead0ac6abdeed2c936ebe3d64524ab6dc41e19aba7e2d21",
                    "indexes": {
                        "data": 0,
                        "gas": 0,
                        "value": 0
                    }
                },
                {
                    "hash": "6404bad6bbee9cbc2311ebac5853e9a16e5ebf62e85b308425aeccc800ac895b",
                    "logs": "1dcc4de8dec75d7aab85b567b6ccd41ad312451b948a7413f0a142fd40d49347",
                    "txbytes": "0xf860800a8301731894b94f5374fce5edbc8e2a8697c15331677e6ebf0b80801ca0378412b32fcd3ef4b3bd343dcd3e8c9f9538abc129f1b90803372440bbbb6057a06186c4dd19e0b3969dd87dddc244e87a27621cafcfeb2ca66c73dd64e3264aa6",
                    "indexes": {
                        "data": 0,
                        "gas": 1,
                        "value": 0
                    }
                }
            ],
            "ETC_Phoenix": [
                {
                    "hash": "02ad49ef190c5d47efa41c68072ecae3b6364e0f0f49838a80fb0b2280287eca",
                    "logs": "1dcc4de8dec75d7aab85b567b6ccd41ad312451b948a7413f0a142fd40d49347",
                    "txbytes": "0xf85f800a82d2f094b94f5374fce5edbc8e2a8697c15331677e6ebf0b80801ca04110d91c8d222752e43bb98f811ccf151dfd7ef10cf8dd5888369fece4112983a00752c4ac643358117ead0ac6abdeed2c936ebe3d64524ab6dc41e19aba7e2d21",
                    "indexes": {
                        "data": 0,
                        "gas": 0,
                        "value": 0
                    }
                },
                {
                    "hash": "6404bad6bbee9cbc2311ebac5853e9a16e5ebf62e85b308425aeccc800ac895b",
                    "logs": "1dcc4de8dec75d7aab85b567b6ccd41ad312451b948a7413f0a142fd40d49347",
                    "txbytes": "0xf860800a8301731894b94f5374fce5edbc8e2a8697c15331677e6ebf0b80801ca0378412b32fcd3ef4b3bd343dcd3e8c9f9538abc129f1b90803372440bbbb6057a06186c4dd19e0b3969dd87dddc244e87a27621cafcfeb2ca66c73dd64e3264aa6",
                    "indexes": {
                        "data": 0,
                        "gas": 1,
                        "value": 0
                    }
                }
            ]
        }
    }
}