{
    "CreateOOGFromEOARefunds": {
        "_info": {
            "comment": "",
            "filling-rpc-server": "evm version 1.10.16-unstable-0f893109-20220105",
            "filling-tool-version": "retesteth-0.2.2-testinfo+commit.01c6aac2.Linux.g++",
            "filledWith": "CoreGeth-1.12.9-unstable-4d59a861107c8232d6896811c48f229d30087be4",
            "lllcversion": "Version: 0.5.14-develop.2021.11.27+commit.401d5358.Linux.g++",
            "source": "src/GeneralStateTestsFiller/stCreateTest/CreateOOGFromEOARefundsFiller.yml",
            "sourceHash": "248f0d43006ce95ae663d4c62ec7ae7a83b65351dc9e2a879ab27a433a22ed65",
            "labels": {
                "0": "SStore_Refund_NoOoG",
                "1": "SStore_Refund_OoG",
                "10": "SStore_Refund_OoG",
                "11": "SStore_Refund_OoG",
                "12": "SelfDestruct_Refund_NoOoG",
                "13": "SelfDestruct_Refund_OoG",
                "14": "SelfDestruct_Refund_OoG",
                "15": "LogOp_NoOoG",
                "16": "LogOp_OoG",
                "17": "LogOp_OoG",
                "18": "SStore_Create_Refund_NoOoG",
                "19": "SStore_Create_Refund_OoG",
                "2": "SStore_Refund_OoG",
                "20": "SStore_Create_Refund_OoG",
                "21": "SStore_Create2_Refund_NoOoG",
                "22": "SStore_Create2_Refund_OoG",
                "23": "SStore_Create2_Refund_OoG",
                "3": "SStore_Refund_NoOoG",
                "4": "SStore_Refund_OoG",
                "5": "SStore_Refund_OoG",
                "6": "SStore_Refund_NoOoG",
                "7": "SStore_Refund_OoG",
                "8": "SStore_Refund_OoG",
                "9": "SStore_Refund_NoOoG"
            }
        },
        "env": {
            "currentCoinbase": "0x2adc25665018aa1fe0e6bc666dac8fc2697ff9ba",
            "currentDifficulty": "0x20000",
            "currentGasLimit": "0x100000000",
            "currentNumber": "0x1",
            "currentTimestamp": "0x3e8",
            "currentBaseFee": "0xa",
            "previousHash": "0x5e20a0453cecd065ea59c37ac63e079ee08998b6045136a8ce6635c7912ec0b6"
        },
        "pre": {
            "0x00000000000000000000000000000000000c0de0": {
                "code": "0x60ff60005260206000a060fa60206000a160fb60fa60206000a260fc60fb60fa60206000a360fd60fc60fb60fa60206000a4",
                "storage": {
                    "0x0000000000000000000000000000000000000000000000000000000000000001": "0x0000000000000000000000000000000000000000000000000000000000000001"
                },
                "balance": "0x0",
                "nonce": "0x1"
            },
            "0x00000000000000000000000000000000000c0de1": {
                "code": "0x6001600055600060005560016000f3",
                "balance": "0x0",
                "nonce": "0x1"
            },
            "0x00000000000000000000000000000000000c0dea": {
                "code": "0x6000600155",
                "storage": {
                    "0x0000000000000000000000000000000000000000000000000000000000000001": "0x0000000000000000000000000000000000000000000000000000000000000001"
                },
                "balance": "0x0",
                "nonce": "0x1"
            },
            "0x00000000000000000000000000000000000c0ded": {
                "code": "0x32ff",
                "storage": {
                    "0x0000000000000000000000000000000000000000000000000000000000000001": "0x0000000000000000000000000000000000000000000000000000000000000001"
                },
                "balance": "0x0",
                "nonce": "0x1"
            },
            "0xa94f5374fce5edbc8e2a8697c15331677e6ebf0b": {
                "balance": "0x3d0900",
                "nonce": "0x1"
            }
        },
        "transaction": {
            "gasPrice": "0xa",
            "nonce": "0x1",
            "to": "",
            "data": [
                "0x60016000556001600155600060015560016000f3",
                "0x6001600055600160015560006001556113886000f3",
                "0x600160005560016001556000600155fe",
                "0x600160005560006000600060006000620c0dea5af15060016000f3",
                "0x600160005560006000600060006000620c0dea5af1506113886000f3",
                "0x600160005560006000600060006000620c0dea5af150fe",
                "0x600160005560016001556000600060006000620c0dea5af45060016000f3",
                "0x600160005560016001556000600060006000620c0dea5af4506113886000f3",
                "0x600160005560016001556000600060006000620c0dea5af450fe",
                "0x6001600055600160015560006000600060006000620c0dea5af25060016000f3",
                "0x6001600055600160015560006000600060006000620c0dea5af2506113886000f3",
                "0x6001600055600160015560006000600060006000620c0dea5af250fe",
                "0x600160005560006000600060006000620c0ded5af15060016000f3",
                "0x600160005560006000600060006000620c0ded5af1506113886000f3",
                "0x600160005560006000600060006000620c0ded5af150fe",
                "0x600160005560006000600060006000620c0de05af15060016000f3",
                "0x600160005560006000600060006000620c0de05af1506113886000f3",
                "0x600160005560006000600060006000620c0de05af150fe",
                "0x600160005560016001556000600155620c0de1803b8060006000843c8060006000f050600160018201f35050",
                "0x600160005560016001556000600155620c0de1803b8060006000843c8060006000f05061138860018201f35050",
                "0x600160005560016001556000600155620c0de1803b8060006000843c8060006000f050fe5050",
                "0x600160005560016001556000600155620c0de1803b8060006000843c60008160006000f550600160018201f35050",
                "0x600160005560016001556000600155620c0de1803b8060006000843c60008160006000f55061138860018201f35050",
                "0x600160005560016001556000600155620c0de1803b8060006000843c60008160006000f550fe5050"
            ],
            "gasLimit": [
                "0x61a80"
            ],
            "value": [
                "0x00"
            ],
            "secretKey": "0x45a915e4d060149eb4365960e6a7a45f334393093061116b197e3240065ff2d8",
            "sender": "0xa94f5374fce5edbc8e2a8697c15331677e6ebf0b"
        },
        "post": {
            "ETC_Mystique": [
                {
                    "hash": "f0c876b8e844809c365ec229d01c3e7a7eb77b3735a21f6f94caca1499eca3c8",
                    "logs": "1dcc4de8dec75d7aab85b567b6ccd41ad312451b948a7413f0a142fd40d49347",
                    "txbytes": "0xf860010a83061a8080809460016000556001600155600060015560016000f31ba07c61780bb4d184fdaa6254b7b13d247ff82a45596d23cc97938341f5eb61698fa02ec11543eeec89db1a37d30297065236de401fb90f4418ba2de270a8a6b209c1",
                    "indexes": {
                        "data": 0,
                        "gas": 0,
                        "value": 0
                    }
                },
                {
                    "hash": "927894ddf1c7b171ce3f22043738bd58b7fc41b0e0a3864c58565a11c5e7c1de",
                    "logs": "1dcc4de8dec75d7aab85b567b6ccd41ad312451b948a7413f0a142fd40d49347",
                    "txbytes": "0xf867010a83061a8080809b600160005560006000600060006000620c0dea5af15060016000f31ba01630639ec82d5468bcc50afa351f1def2e7bf4c59635f888a1e2a2eaf61ce7c7a07607cba9344c7ed2545b98c3b738f34f87f0570c1a7cf42a394be2d9bfed2924",
                    "indexes": {
                        "data": 3,
                        "gas": 0,
                        "value": 0
                    }
                },
                {
                    "hash": "3b7c4677a0d04ae9519d574eebde15b093903d660513ce0b553a10ddfe0d145d",
                    "logs": "1dcc4de8dec75d7aab85b567b6ccd41ad312451b948a7413f0a142fd40d49347",
                    "txbytes": "0xf86a010a83061a8080809e600160005560016001556000600060006000620c0dea5af45060016000f31ca06a85e55aeb9656d979004343110b4a6d6fe71b06645173a882e663aacc30193fa0661fd1199cf4bd5bad2d5dfccf44968b5e3b62e6c2573d8a5c38ff1e10f7bf6a",
                    "indexes": {
                        "data": 6,
                        "gas": 0,
                        "value": 0
                    }
                },
                {
                    "hash": "3d5c132ccf12e03cb0b422e9faadb4c137f043207ce91af26604f5fc89a15477",
                    "logs": "1dcc4de8dec75d7aab85b567b6ccd41ad312451b948a7413f0a142fd40d49347",
                    "txbytes": "0xf86b010a83061a808080a06001600055600160015560006000600060006000620c0dea5af25060016000f31ba0915a9e699a2ed7a983ccbdd761ad353e641dfbb617da58dc9d86ece91e9023089f70180b1a3d85c29ddbb4cb798e9555420622abc4ae612db14a76e55bbe3d03",
                    "indexes": {
                        "data": 9,
                        "gas": 0,
                        "value": 0
                    }
                },
                {
                    "hash": "a19f13a609873db1a2e35518f30143f865b081501116428ea3131614eacba2b7",
                    "logs": "1dcc4de8dec75d7aab85b567b6ccd41ad312451b948a7413f0a142fd40d49347",
                    "txbytes": "0xf861010a83061a808080956001600055600160015560006001556113886000f31ca08cb366ef744303e1ec884073b69b01a1f95b0fe321d1222aae4a4cfb92c05b2fa05c33621291fc38144abcfac14c442ece92f915a5b148f387483c82359dacf503",
                    "indexes": {
                        "data": 1,
                        "gas": 0,
                        "value": 0
                    }
                },
                {
                    "hash": "a19f13a609873db1a2e35518f30143f865b081501116428ea3131614eacba2b7",
                    "logs": "1dcc4de8dec75d7aab85b567b6ccd41ad312451b948a7413f0a142fd40d49347",
                    "txbytes": "0xf85c010a83061a80808090600160005560016001556000600155fe1ba0ce7029985521fe89d864a1a93fd7fcf2541c3ac010362def2c37978ef839deefa04c86eb1b1b9e2c3e3a132cb923936122c017bd5f17d03516df05664da28efe77",
                    "indexes": {
                        "data": 2,
                        "gas": 0,
                        "value": 0
                    }
                },
                {
                    "hash": "a19f13a609873db1a2e35518f30143f865b081501116428ea3131614eacba2b7",
                    "logs": "1dcc4de8dec75d7aab85b567b6ccd41ad312451b948a7413f0a142fd40d49347",
                    "txbytes": "0xf868010a83061a8080809c600160005560006000600060006000620c0dea5af1506113886000f31ca0221414f82fcd764c6a6e1715d92213bd49be260d98d49c6c0a3287cb1aea05a5a025c1d0b189b52d42150cc9072370eca2ae8c57e483b5052890686a126811c6a7",
                    "indexes": {
                        "data": 4,
                        "gas": 0,
                        "value": 0
                    }
                },
                {
                    "hash": "a19f13a609873db1a2e35518f30143f865b081501116428ea3131614eacba2b7",
                    "logs": "1dcc4de8dec75d7aab85b567b6ccd41ad312451b948a7413f0a142fd40d49347",
                    "txbytes": "0xf863010a83061a80808097600160005560006000600060006000620c0dea5af150fe1ca013b99478dda0dacd8d06dedc45811a971184003af91e520733ab00c414206689a05249d89bbf4668a2be66b51318d006c7b6d4ab43bb4a2f969d68871a25c361b2",
                    "indexes": {
                        "data": 5,
                        "gas": 0,
                        "value": 0
                    }
                },
                {
                    "hash": "a19f13a609873db1a2e35518f30143f865b081501116428ea3131614eacba2b7",
                    "logs": "1dcc4de8dec75d7aab85b567b6ccd41ad312451b948a7413f0a142fd40d49347",
                    "txbytes": "0xf86b010a83061a8080809f600160005560016001556000600060006000620c0dea5af4506113886000f31ca00515253689d3ad94818e1b4b9db71d4413d79935b661706c75e477a93082903aa046611ef243a21d0d9731693fdcd41aa88cfbe86f0d4cf7b7ae087ee2c8e71eff",
                    "indexes": {
                        "data": 7,
                        "gas": 0,
                        "value": 0
                    }
                },
                {
                    "hash": "a19f13a609873db1a2e35518f30143f865b081501116428ea3131614eacba2b7",
                    "logs": "1dcc4de8dec75d7aab85b567b6ccd41ad312451b948a7413f0a142fd40d49347",
                    "txbytes": "0xf866010a83061a8080809a600160005560016001556000600060006000620c0dea5af450fe1ca0f7ae27272c11ff9ce3dc53a63691579880505c7cfd5875b101208cb5384aa9d3a00fbb678621229f85c5fb82dbca77ab5d999a47727acf3937597410d2ca6c199e",
                    "indexes": {
                        "data": 8,
                        "gas": 0,
                        "value": 0
                    }
                },
                {
                    "hash": "a19f13a609873db1a2e35518f30143f865b081501116428ea3131614eacba2b7",
                    "logs": "1dcc4de8dec75d7aab85b567b6ccd41ad312451b948a7413f0a142fd40d49347",
                    "txbytes": "0xf86d010a83061a808080a16001600055600160015560006000600060006000620c0dea5af2506113886000f31ba0e6c9926d7f2b919d36f7b86dac224f15b58715dfb8ca5632aecbb1b84dba6507a060fb23cf85ab3f21e52499dcacfae98b2ac6876354dc0a7369deb4a9b9605c42",
                    "indexes": {
                        "data": 10,
                        "gas": 0,
                        "value": 0
                    }
                },
                {
                    "hash": "a19f13a609873db1a2e35518f30143f865b081501116428ea3131614eacba2b7",
                    "logs": "1dcc4de8dec75d7aab85b567b6ccd41ad312451b948a7413f0a142fd40d49347",
                    "txbytes": "0xf868010a83061a8080809c6001600055600160015560006000600060006000620c0dea5af250fe1ca04770218fdc44423d3196e755c9cdffa435a67a77e30e91e418d429b8f4e584cfa033c56e7b69c4f7ddc9d3f652dc8bb24056b8652aae2a73ae071e364f252402f4",
                    "indexes": {
                        "data": 11,
                        "gas": 0,
                        "value": 0
                    }
                },
                {
                    "hash": "70e7817296ea673a9c9fb6fed07c265a73ba0ace710529f6035cd82b8f31c19f",
                    "logs": "1dcc4de8dec75d7aab85b567b6ccd41ad312451b948a7413f0a142fd40d49347",
                    "txbytes": "0xf867010a83061a8080809b600160005560006000600060006000620c0ded5af15060016000f31ba0073d0c1e40988b314d98b144e769f5ebfa96b911d573fc81a8f88d403d6325d3a022866dc1e647ddad06ed790284b7580859351c61f5af949ef5dee75b740cf034",
                    "indexes": {
                        "data": 12,
                        "gas": 0,
                        "value": 0
                    }
                },
                {
                    "hash": "a19f13a609873db1a2e35518f30143f865b081501116428ea3131614eacba2b7",
                    "logs": "1dcc4de8dec75d7aab85b567b6ccd41ad312451b948a7413f0a142fd40d49347",
                    "txbytes": "0xf868010a83061a8080809c600160005560006000600060006000620c0ded5af1506113886000f31ca0606ec83e2466e44d6a75eb94b680235cf87357957047201f4eaa0261f4ad242aa0621c65239c5fccab37da6fdacd4d05f5922202ba89653006bd233cc03ba20001",
                    "indexes": {
                        "data": 13,
                        "gas": 0,
                        "value": 0
                    }
                },
                {
                    "hash": "a19f13a609873db1a2e35518f30143f865b081501116428ea3131614eacba2b7",
                    "logs": "1dcc4de8dec75d7aab85b567b6ccd41ad312451b948a7413f0a142fd40d49347",
                    "txbytes": "0xf863010a83061a80808097600160005560006000600060006000620c0ded5af150fe1ca0b0a90a97cc66a19f409e5fb6dc71141de4af985ebc9deb1f43e8d6bd0401d08aa006d33bc86995f2cb3d5aeee97940005ac5486d12cf25fe2126c3568db97f9212",
                    "indexes": {
                        "data": 14,
                        "gas": 0,
                        "value": 0
                    }
                },
                {
                    "hash": "9f6fdaa9755aed9bbb3160d0abaf5e473c490a7742dc1a85e6c168e91330c208",
                    "logs": "94fff771ace1df4cb19dd7f8872798185dda62dc009bace8942c0257ad867ac0",
                    "txbytes": "0xf867010a83061a8080809b600160005560006000600060006000620c0de05af15060016000f31ba0a07a7a554662fff8c4ec0d8ab56db3ab8bf9d5fbb498e332e3b56cfb14026710a03a9a0e3ba70e0723b534508a0a50d7d504c8b832c7873436904dff6537c4fbba",
                    "indexes": {
                        "data": 15,
                        "gas": 0,
                        "value": 0
                    }
                },
                {
                    "hash": "a19f13a609873db1a2e35518f30143f865b081501116428ea3131614eacba2b7",
                    "logs": "1dcc4de8dec75d7aab85b567b6ccd41ad312451b948a7413f0a142fd40d49347",
                    "txbytes": "0xf868010a83061a8080809c600160005560006000600060006000620c0de05af1506113886000f31ba070a5168332e4ece646206daba45eff39ef8aefa13e57347fbcaff0df64747ce3a06ad2b78a370f0ba6b7a5afc2fc6a49af44f02359a9f44473034368cd9874d81d",
                    "indexes": {
                        "data": 16,
                        "gas": 0,
                        "value": 0
                    }
                },
                {
                    "hash": "a19f13a609873db1a2e35518f30143f865b081501116428ea3131614eacba2b7",
                    "logs": "1dcc4de8dec75d7aab85b567b6ccd41ad312451b948a7413f0a142fd40d49347",
                    "txbytes": "0xf863010a83061a80808097600160005560006000600060006000620c0de05af150fe1ba05a1892c8e43c7c5f3246b21bff97c04a31d383a202bf54fa5756794f91885740a04dba33944e38b06a27ec8a1f60609078768fd871d2198d8262e16ede98a72337",
                    "indexes": {
                        "data": 17,
                        "gas": 0,
                        "value": 0
                    }
                },
                {
                    "hash": "f00b3cd974eca891611f640b40e8c942b6a2b4df0a731af6031861a114b71126",
                    "logs": "1dcc4de8dec75d7aab85b567b6ccd41ad312451b948a7413f0a142fd40d49347",
                    "txbytes": "0xf878010a83061a808080ac600160005560016001556000600155620c0de1803b8060006000843c8060006000f050600160018201f350501ca04516c3c7706cfed38edd1a057c3a42332d9e98d9c2c6ab51d2f8f4603eeaa24da006e307f19db91afc4b60185e5f806ac882e2f605c09dc40d4548f2ac80ee5764",
                    "indexes": {
                        "data": 18,
                        "gas": 0,
                        "value": 0
                    }
                },
                {
                    "hash": "a19f13a609873db1a2e35518f30143f865b081501116428ea3131614eacba2b7",
                    "logs": "1dcc4de8dec75d7aab85b567b6ccd41ad312451b948a7413f0a142fd40d49347",
                    "txbytes": "0xf879010a83061a808080ad600160005560016001556000600155620c0de1803b8060006000843c8060006000f05061138860018201f350501ca02624b7c62a0e8290e5b72af102532352679d9aee9789ddb0c68661fd0af93f87a07b05b0278caab50c6b67abd79ef9a7cf43ed401012cec4624b3c462afbfbb359",
                    "indexes": {
                        "data": 19,
                        "gas": 0,
                        "value": 0
                    }
                },
                {
                    "hash": "a19f13a609873db1a2e35518f30143f865b081501116428ea3131614eacba2b7",
                    "logs": "1dcc4de8dec75d7aab85b567b6ccd41ad312451b948a7413f0a142fd40d49347",
                    "txbytes": "0xf872010a83061a808080a6600160005560016001556000600155620c0de1803b8060006000843c8060006000f050fe50501ba0259e2ab835b7940f5a36901c3f488e9ca269103312990b71d256a9362034d8d3a07e011ed77052025cee01d6b8e94111a471473534f09cd685f119191c77253d54",
                    "indexes": {
                        "data": 20,
                        "gas": 0,
                        "value": 0
                    }
                },
                {
                    "hash": "c051102f912275ee3ed0f8ae7df632a55f29cf123e95de9333b5fc312075beaa",
                    "logs": "1dcc4de8dec75d7aab85b567b6ccd41ad312451b948a7413f0a142fd40d49347",
                    "txbytes": "0xf87a010a83061a808080ae600160005560016001556000600155620c0de1803b8060006000843c60008160006000f550600160018201f350501ca07c2a8f0448841175c6d30fe9ea6e15b3e283309ac6c26c2048128368308a1c25a01ac268292df8d1939e602d8f91d3d322e92009ac906b7d11db91397c05b99244",
                    "indexes": {
                        "data": 21,
                        "gas": 0,
                        "value": 0
                    }
                },
                {
                    "hash": "a19f13a609873db1a2e35518f30143f865b081501116428ea3131614eacba2b7",
                    "logs": "1dcc4de8dec75d7aab85b567b6ccd41ad312451b948a7413f0a142fd40d49347",
                    "txbytes": "0xf87b010a83061a808080af600160005560016001556000600155620c0de1803b8060006000843c60008160006000f55061138860018201f350501ba0875efefbf18a53624271cb15e9249ece18b931f9c912f5227218a4d68f24ee06a0711452f05c6d0f3c98665ffbba4b0306288ead10c51892376c99338e7409fad5",
                    "indexes": {
                        "data": 22,
                        "gas": 0,
                        "value": 0
                    }
                },
                {
                    "hash": "a19f13a609873db1a2e35518f30143f865b081501116428ea3131614eacba2b7",
                    "logs": "1dcc4de8dec75d7aab85b567b6ccd41ad312451b948a7413f0a142fd40d49347",
                    "txbytes": "0xf874010a83061a808080a8600160005560016001556000600155620c0de1803b8060006000843c60008160006000f550fe50501ca08cb151b0ea092226833d56c44c532a946ce47a99c90ea42b69e1f24fec0dd607a03adb396b1cf0d97a12553c01134c90be801ec593c0100a22b46933420369ec18",
                    "indexes": {
                        "data": 23,
                        "gas": 0,
                        "value": 0
                    }
                }
            ]
        }
    }
}