{
    "CREATE_FirstByte_loop": {
        "_info": {
            "comment": "",
            "filling-rpc-server": "evm version 1.10.16-unstable-0f893109-20220105",
            "filling-tool-version": "retesteth-0.2.2-testinfo+commit.01c6aac2.Linux.g++",
            "filledWith": "CoreGeth-1.12.9-unstable-3995a327f2ded5c98324b03792b5ccc22557754f",
            "lllcversion": "Version: 0.5.14-develop.2021.11.27+commit.401d5358.Linux.g++",
            "source": "src/GeneralStateTestsFiller/stCreateTest/CREATE_FirstByte_loopFiller.yml",
            "sourceHash": "66823f103a4c36be6cbba66ed01ffbcf4b7ba5a103e7486191cc546044586d24"
        },
        "env": {
            "currentCoinbase": "0x2adc25665018aa1fe0e6bc666dac8fc2697ff9ba",
            "currentDifficulty": "0x20000",
            "currentGasLimit": "0x5500000",
            "currentNumber": "0x1",
            "currentTimestamp": "0x3e8",
            "currentBaseFee": "0xa",
            "previousHash": "0x5e20a0453cecd065ea59c37ac63e079ee08998b6045136a8ce6635c7912ec0b6"
        },
        "pre": {
            "0xa94f5374fce5edbc8e2a8697c15331677e6ebf0b": {
                "balance": "0x3b9aca00"
            },
            "0xb94f5374fce5edbc8e2a8697c15331677e6ebf0b": {
                "code": "0x7f600060005360016000f30000000000000000000000000000000000000000000060005260005b610100811015604f5780600153600a60006000f01515604457600181555b5b6001810190506026565b50600161010055",
                "balance": "0x0"
            }
        },
        "transaction": {
            "gasPrice": "0xa",
            "nonce": "0x0",
            "to": "0xb94f5374fce5edbc8e2a8697c15331677e6ebf0b",
            "data": [
                "0x"
            ],
            "gasLimit": [
                "0x42c1d80"
            ],
            "value": [
                "0x00"
            ],
            "secretKey": "0x45a915e4d060149eb4365960e6a7a45f334393093061116b197e3240065ff2d8",
            "sender": "0xa94f5374fce5edbc8e2a8697c15331677e6ebf0b"
        },
        "post": {
            "ETC_Magneto": [
                {
                    "hash": "ed6873a4894b8e2fe3d05611ba62c91dd617af0d1821172f4aab3552fb2e8095",
                    "logs": "1dcc4de8dec75d7aab85b567b6ccd41ad312451b948a7413f0a142fd40d49347",
                    "txbytes": "0xf861800a84042c1d8094b94f5374fce5edbc8e2a8697c15331677e6ebf0b80801ca0f141d67812db948c9a4ea43c27d695248205c121ae8d924d23517ab09e38f369a03fe3cfedb4c9a7e61340b6fec87917690e92082f752ad820ad5006c7d49185ed",
                    "indexes": {
                        "data": 0,
                        "gas": 0,
                        "value": 0
                    }
                }
            ],
            "ETC_Mystique": [
                {
                    "hash": "b16959cd3dad1f5cec6b827305b1973020f3d45179570cc86400cced32d9dd53",
                    "logs": "1dcc4de8dec75d7aab85b567b6ccd41ad312451b948a7413f0a142fd40d49347",
                    "txbytes": "0xf861800a84042c1d8094b94f5374fce5edbc8e2a8697c15331677e6ebf0b80801ca0f141d67812db948c9a4ea43c27d695248205c121ae8d924d23517ab09e38f369a03fe3cfedb4c9a7e61340b6fec87917690e92082f752ad820ad5006c7d49185ed",
                    "indexes": {
                        "data": 0,
                        "gas": 0,
                        "value": 0
                    }
                }
            ]
        }
    }
}