{
    "createLargeResult": {
        "_info": {
            "comment": "Ori Pomerantz   qbzzt1@gmail.com",
            "filling-rpc-server": "evm version 1.10.16-unstable-2dfa4bcf-20220121",
            "filling-tool-version": "retesteth-0.2.2-testinfo+commit.1b89e144.Linux.g++",
            "filledWith": "CoreGeth-1.12.9-unstable-d390462df9df233b60b4cd7a37db5b3043832022",
            "lllcversion": "Version: 0.5.14-develop.2022.1.23+commit.401d5358.Linux.g++",
            "source": "src/GeneralStateTestsFiller/stCreateTest/createLargeResultFiller.yml",
            "sourceHash": "0edda8b0538dba2daefd1e856270be9d14afc6dfccd5f1d517b4d4a47f4fbaef",
            "labels": {
                "0": "CREATE-RETURN",
                "1": "CREATE2-RETURN",
                "10": "CREATE-REVERT-TOOBIG",
                "11": "CREATE2-REVERT-TOOBIG",
                "12": "CREATE-RETURN-HUGE",
                "13": "CREATE2-RETURN-HUGE",
                "14": "CREATE-REVERT-HUGE",
                "15": "CREATE2-REVERT-HUGE",
                "2": "CREATE-REVERT",
                "3": "CREATE2-REVERT",
                "4": "CREATE-RETURN-MAX",
                "5": "CREATE2-RETURN-MAX",
                "6": "CREATE-REVERT-MAX",
                "7": "CREATE2-REVERT-MAX",
                "8": "CREATE-RETURN-TOOBIG",
                "9": "CREATE2-RETURN-TOOBIG"
            }
        },
        "env": {
            "currentCoinbase": "0x2adc25665018aa1fe0e6bc666dac8fc2697ff9ba",
            "currentDifficulty": "0x20000",
            "currentGasLimit": "0x5f5e100",
            "currentNumber": "0x1",
            "currentTimestamp": "0x3e8",
            "previousHash": "0x5e20a0453cecd065ea59c37ac63e079ee08998b6045136a8ce6635c7912ec0b6"
        },
        "pre": {
            "0x000000000000000000000000000000000000c0de": {
                "code": "0x600019600052602061010061010039610100516000f3",
                "balance": "0x0",
                "nonce": "0x1"
            },
            "0xa94f5374fce5edbc8e2a8697c15331677e6ebf0b": {
                "code": "0x",
                "balance": "0xba1a9ce0ba1a9ce",
                "nonce": "0x1"
            },
            "0xcccccccccccccccccccccccccccccccccccccccc": {
                "code": "0x60043560243560443561c0de3b806000600061c0de3c826001820353816101005260008460f0811460355760f581146043576051565b61012060006000f091506051565b615a1761012060006000f591505b50806000555a600155803f6002555050505050",
                "storage": {
                    "0x0000000000000000000000000000000000000000000000000000000000000000": "0x00000000000000000000000000000000000000000000000000000000000060a7",
                    "0x0000000000000000000000000000000000000000000000000000000000000001": "0x00000000000000000000000000000000000000000000000000000000000060a7",
                    "0x0000000000000000000000000000000000000000000000000000000000000002": "0x00000000000000000000000000000000000000000000000000000000000060a7"
                },
                "balance": "0xba1a9ce0ba1a9ce",
                "nonce": "0x1"
            }
        },
        "transaction": {
            "gasPrice": "0xa",
            "nonce": "0x1",
            "to": "0xcccccccccccccccccccccccccccccccccccccccc",
            "data": [
                "0x048071d300000000000000000000000000000000000000000000000000000000000000f000000000000000000000000000000000000000000000000000000000000000f30000000000000000000000000000000000000000000000000000000000000100",
                "0x048071d300000000000000000000000000000000000000000000000000000000000000f500000000000000000000000000000000000000000000000000000000000000f30000000000000000000000000000000000000000000000000000000000000100",
                "0x048071d300000000000000000000000000000000000000000000000000000000000000f000000000000000000000000000000000000000000000000000000000000000fd0000000000000000000000000000000000000000000000000000000000000100",
                "0x048071d300000000000000000000000000000000000000000000000000000000000000f500000000000000000000000000000000000000000000000000000000000000fd0000000000000000000000000000000000000000000000000000000000000100",
                "0x048071d300000000000000000000000000000000000000000000000000000000000000f000000000000000000000000000000000000000000000000000000000000000f30000000000000000000000000000000000000000000000000000000000006000",
                "0x048071d300000000000000000000000000000000000000000000000000000000000000f500000000000000000000000000000000000000000000000000000000000000f30000000000000000000000000000000000000000000000000000000000006000",
                "0x048071d300000000000000000000000000000000000000000000000000000000000000f000000000000000000000000000000000000000000000000000000000000000fd0000000000000000000000000000000000000000000000000000000000006000",
                "0x048071d300000000000000000000000000000000000000000000000000000000000000f500000000000000000000000000000000000000000000000000000000000000fd0000000000000000000000000000000000000000000000000000000000006000",
                "0x048071d300000000000000000000000000000000000000000000000000000000000000f000000000000000000000000000000000000000000000000000000000000000f30000000000000000000000000000000000000000000000000000000000006001",
                "0x048071d300000000000000000000000000000000000000000000000000000000000000f500000000000000000000000000000000000000000000000000000000000000f30000000000000000000000000000000000000000000000000000000000006001",
                "0x048071d300000000000000000000000000000000000000000000000000000000000000f000000000000000000000000000000000000000000000000000000000000000fd0000000000000000000000000000000000000000000000000000000000006001",
                "0x048071d300000000000000000000000000000000000000000000000000000000000000f500000000000000000000000000000000000000000000000000000000000000fd0000000000000000000000000000000000000000000000000000000000006001",
                "0x048071d300000000000000000000000000000000000000000000000000000000000000f000000000000000000000000000000000000000000000000000000000000000f3000000000000000000000000000000000000000000000000000000000000c000",
                "0x048071d300000000000000000000000000000000000000000000000000000000000000f500000000000000000000000000000000000000000000000000000000000000f3000000000000000000000000000000000000000000000000000000000000c000",
                "0x048071d300000000000000000000000000000000000000000000000000000000000000f000000000000000000000000000000000000000000000000000000000000000fd000000000000000000000000000000000000000000000000000000000000c000",
                "0x048071d300000000000000000000000000000000000000000000000000000000000000f500000000000000000000000000000000000000000000000000000000000000fd000000000000000000000000000000000000000000000000000000000000c000"
            ],
            "gasLimit": [
                "0x4c4b400"
            ],
            "value": [
                "0x00"
            ],
            "secretKey": "0x45a915e4d060149eb4365960e6a7a45f334393093061116b197e3240065ff2d8",
            "sender": "0xa94f5374fce5edbc8e2a8697c15331677e6ebf0b"
        },
        "post": {
            "ETC_Mystique": [
                {
                    "hash": "a90b55e186b6772bb8cb84ee15471ee794b5380ebda0445b83611b84730d52b8",
                    "logs": "1dcc4de8dec75d7aab85b567b6ccd41ad312451b948a7413f0a142fd40d49347",
                    "txbytes": "0xf8c6010a8404c4b40094cccccccccccccccccccccccccccccccccccccccc80b864048071d300000000000000000000000000000000000000000000000000000000000000f000000000000000000000000000000000000000000000000000000000000000f300000000000000000000000000000000000000000000000000000000000001001ba0adc8a8542cc97c5b18f18ebf3cc84056ec5f21daad783bfde46636b58cb18008a040570038cee041ad21af5812e25bf93995d6edf0f331a63fdb6607ecb3760bfa",
                    "indexes": {
                        "data": 0,
                        "gas": 0,
                        "value": 0
                    }
                },
                {
                    "hash": "9682f4b688fe0d6e8ad9e9904e8e950b5690d2c518bc6dbb657572899ba84f72",
                    "logs": "1dcc4de8dec75d7aab85b567b6ccd41ad312451b948a7413f0a142fd40d49347",
                    "txbytes": "0xf8c6010a8404c4b40094cccccccccccccccccccccccccccccccccccccccc80b864048071d300000000000000000000000000000000000000000000000000000000000000f500000000000000000000000000000000000000000000000000000000000000f300000000000000000000000000000000000000000000000000000000000001001ba04b480b3e27bae9848c9576e439e0011339ac049657ff499bd715fc8f14e1b967a068b02a77de4d471c24a48595907d7afef8e9f11330c940eecffe4f0ac36391ab",
                    "indexes": {
                        "data": 1,
                        "gas": 0,
                        "value": 0
                    }
                },
                {
                    "hash": "53a06ed702c901785584be619a6b949a599a984fa572c4061b24a316e20cb157",
                    "logs": "1dcc4de8dec75d7aab85b567b6ccd41ad312451b948a7413f0a142fd40d49347",
                    "txbytes": "0xf8c6010a8404c4b40094cccccccccccccccccccccccccccccccccccccccc80b864048071d300000000000000000000000000000000000000000000000000000000000000f000000000000000000000000000000000000000000000000000000000000000fd00000000000000000000000000000000000000000000000000000000000001001ca03eb30bf418af062bf845ca21ac2db4e596add6746a011ddb0978f69a846134d4a075677b407ae258e747b7124f9d856ab1b2324257b10444d822a7e524a7cd73f1",
                    "indexes": {
                        "data": 2,
                        "gas": 0,
                        "value": 0
                    }
                },
                {
                    "hash": "a85425b8448d1ef7b35ada1f272adb44b028bb68a0e03649213338ad8a37e77b",
                    "logs": "1dcc4de8dec75d7aab85b567b6ccd41ad312451b948a7413f0a142fd40d49347",
                    "txbytes": "0xf8c6010a8404c4b40094cccccccccccccccccccccccccccccccccccccccc80b864048071d300000000000000000000000000000000000000000000000000000000000000f500000000000000000000000000000000000000000000000000000000000000fd00000000000000000000000000000000000000000000000000000000000001001ba025ca9f8e7070a4face5435083d518c7b606d8be2ce4bf8d50008e0ecf848e75aa0426079d64f7706bb5baea1aac0f0cf9cac1d0a90762421847e26373e9923c385",
                    "indexes": {
                        "data": 3,
                        "gas": 0,
                        "value": 0
                    }
                },
                {
                    "hash": "0588e40cfbfb02c13e93790259beadcc948f59748f7f4a9072e195dcbc62ebe6",
                    "logs": "1dcc4de8dec75d7aab85b567b6ccd41ad312451b948a7413f0a142fd40d49347",
                    "txbytes": "0xf8c6010a8404c4b40094cccccccccccccccccccccccccccccccccccccccc80b864048071d300000000000000000000000000000000000000000000000000000000000000f000000000000000000000000000000000000000000000000000000000000000f300000000000000000000000000000000000000000000000000000000000060001ca071073a0e953d929e3d6f6a6b05951b28d8baf133dfd875a42f3ca83dfdefe449a02ac9102470f246564877a670e7c12ae2d33932d716c9a7405dc7625f0c42a7e1",
                    "indexes": {
                        "data": 4,
                        "gas": 0,
                        "value": 0
                    }
                },
                {
                    "hash": "a7319180e828a8e0ba793c917de9178741e3c7f49c6731669815385708890001",
                    "logs": "1dcc4de8dec75d7aab85b567b6ccd41ad312451b948a7413f0a142fd40d49347",
                    "txbytes": "0xf8c6010a8404c4b40094cccccccccccccccccccccccccccccccccccccccc80b864048071d300000000000000000000000000000000000000000000000000000000000000f500000000000000000000000000000000000000000000000000000000000000f300000000000000000000000000000000000000000000000000000000000060001ca09bfc0ba1bf6f1dfea317e4f7ea20a375fa0c834fa4d37dd55a16d513b8fa93aba07952553990c3a0e036fdc7700496b8c3a8a2980e45f7bb49ca5e578190bfbe8d",
                    "indexes": {
                        "data": 5,
                        "gas": 0,
                        "value": 0
                    }
                },
                {
                    "hash": "5c9af81d9df3e3f081e115c82612917f09a593d214cca6ffa6ff5ceb1896391f",
                    "logs": "1dcc4de8dec75d7aab85b567b6ccd41ad312451b948a7413f0a142fd40d49347",
                    "txbytes": "0xf8c6010a8404c4b40094cccccccccccccccccccccccccccccccccccccccc80b864048071d300000000000000000000000000000000000000000000000000000000000000f000000000000000000000000000000000000000000000000000000000000000fd00000000000000000000000000000000000000000000000000000000000060001ba072b94310e8e3af3d245443012519520fd8a779d1ae41f2b8a964de77de290401a03879f00115259c54eee85c67a1c297323206281b573a78ffd5aed92e1c2cf4ed",
                    "indexes": {
                        "data": 6,
                        "gas": 0,
                        "value": 0
                    }
                },
                {
                    "hash": "956a47eb578f53a3518daa7e781603eae4bc8a3addd2fae1c1f68fbc3c4e582d",
                    "logs": "1dcc4de8dec75d7aab85b567b6ccd41ad312451b948a7413f0a142fd40d49347",
                    "txbytes": "0xf8c6010a8404c4b40094cccccccccccccccccccccccccccccccccccccccc80b864048071d300000000000000000000000000000000000000000000000000000000000000f500000000000000000000000000000000000000000000000000000000000000fd00000000000000000000000000000000000000000000000000000000000060001ca0a39401b24163d45ce9472600d5808640aca5be83e6ad2f6f23d9f5785f8faeaca0135eb98e763e8328b7d30028fb793daf1f63d375517e4b589f6c21ef52f7fd1c",
                    "indexes": {
                        "data": 7,
                        "gas": 0,
                        "value": 0
                    }
                },
                {
                    "hash": "ba09eff2efe14a296661c6014f9a6e35f6f9f25bc5de7c773508db6d6115dceb",
                    "logs": "1dcc4de8dec75d7aab85b567b6ccd41ad312451b948a7413f0a142fd40d49347",
                    "txbytes": "0xf8c6010a8404c4b40094cccccccccccccccccccccccccccccccccccccccc80b864048071d300000000000000000000000000000000000000000000000000000000000000f000000000000000000000000000000000000000000000000000000000000000f300000000000000000000000000000000000000000000000000000000000060011ca081a150b4c1e025b7fdb74455d89937e2289a7c7e3de72671d113be6fc300ceefa00910484c0b5bb509b3d3b27942e50fcf4c13af9e2aa4249c63d2a46e81b75b75",
                    "indexes": {
                        "data": 8,
                        "gas": 0,
                        "value": 0
                    }
                },
                {
                    "hash": "8a1772a05f621d5a90dd08252463632e0de979baa763a1d4484e49a49232bf4f",
                    "logs": "1dcc4de8dec75d7aab85b567b6ccd41ad312451b948a7413f0a142fd40d49347",
                    "txbytes": "0xf8c6010a8404c4b40094cccccccccccccccccccccccccccccccccccccccc80b864048071d300000000000000000000000000000000000000000000000000000000000000f500000000000000000000000000000000000000000000000000000000000000f300000000000000000000000000000000000000000000000000000000000060011ca09f578ce033c4ab6cc638318a5e9831e07028196cda8d6058663ad43dd6e30877a0349cfc76335cccd67302c829562c5f67df42120c87c834aa1167157018913a4b",
                    "indexes": {
                        "data": 9,
                        "gas": 0,
                        "value": 0
                    }
                },
                {
                    "hash": "36801ce6982ec0614700147b4e6f5ea01d2259aa425a37c65704c72dd5b959e6",
                    "logs": "1dcc4de8dec75d7aab85b567b6ccd41ad312451b948a7413f0a142fd40d49347",
                    "txbytes": "0xf8c6010a8404c4b40094cccccccccccccccccccccccccccccccccccccccc80b864048071d300000000000000000000000000000000000000000000000000000000000000f000000000000000000000000000000000000000000000000000000000000000fd00000000000000000000000000000000000000000000000000000000000060011ca07e0bbc95298f34821a03ed4ca785443b034c11013c1c233265a7c745fff30ec3a07c4cb7086d577f441e20c76f9581a24cad7a555ea5133515c3066b188cf13cbc",
                    "indexes": {
                        "data": 10,
                        "gas": 0,
                        "value": 0
                    }
                },
                {
                    "hash": "6583a8f2e7a4039464d52efaac1ee651d832a60bce9f65353750b6f487a1fb81",
                    "logs": "1dcc4de8dec75d7aab85b567b6ccd41ad312451b948a7413f0a142fd40d49347",
                    "txbytes": "0xf8c6010a8404c4b40094cccccccccccccccccccccccccccccccccccccccc80b864048071d300000000000000000000000000000000000000000000000000000000000000f500000000000000000000000000000000000000000000000000000000000000fd00000000000000000000000000000000000000000000000000000000000060011ba01ec8e26c4a808e3245d8ec1d21314c46aaf9158ad6c9177767aec3e5d2761b49a0556d28ac61ce277d9603f3b6e8d0ea504a0210e71d026d6950905de264b77479",
                    "indexes": {
                        "data": 11,
                        "gas": 0,
                        "value": 0
                    }
                },
                {
                    "hash": "9039c71c2220f6d92717fa6e3df8a28d6699965f956dda8d28edfc5e14c33efd",
                    "logs": "1dcc4de8dec75d7aab85b567b6ccd41ad312451b948a7413f0a142fd40d49347",
                    "txbytes": "0xf8c6010a8404c4b40094cccccccccccccccccccccccccccccccccccccccc80b864048071d300000000000000000000000000000000000000000000000000000000000000f000000000000000000000000000000000000000000000000000000000000000f3000000000000000000000000000000000000000000000000000000000000c0001ba08151b5a68d356ada4d5da39f5f654f6f55f15dd041498b675579ddc0f4c4e21ea0474f72a6688dbe9cc63ca45185ea86261877553d6d7a6168f144c1b537fe3a95",
                    "indexes": {
                        "data": 12,
                        "gas": 0,
                        "value": 0
                    }
                },
                {
                    "hash": "8a1772a05f621d5a90dd08252463632e0de979baa763a1d4484e49a49232bf4f",
                    "logs": "1dcc4de8dec75d7aab85b567b6ccd41ad312451b948a7413f0a142fd40d49347",
                    "txbytes": "0xf8c6010a8404c4b40094cccccccccccccccccccccccccccccccccccccccc80b864048071d300000000000000000000000000000000000000000000000000000000000000f500000000000000000000000000000000000000000000000000000000000000f3000000000000000000000000000000000000000000000000000000000000c0001ba0faa7964d408c4ba0e17ff313c38258b9937367d2f1502c3c976ded441cc6c904a061f8025a7910068249697874ba911b5ef183f90e4effda635a9ebccdc01064d4",
                    "indexes": {
                        "data": 13,
                        "gas": 0,
                        "value": 0
                    }
                },
                {
                    "hash": "45fa7a2a539d879d685602b383544a70e86fec89847b973f988262e8a3270123",
                    "logs": "1dcc4de8dec75d7aab85b567b6ccd41ad312451b948a7413f0a142fd40d49347",
                    "txbytes": "0xf8c6010a8404c4b40094cccccccccccccccccccccccccccccccccccccccc80b864048071d300000000000000000000000000000000000000000000000000000000000000f000000000000000000000000000000000000000000000000000000000000000fd000000000000000000000000000000000000000000000000000000000000c0001ca0734b4cf78bbbeca59f7b90d9dbf7e561ef984d331455af25587464bb5e7c9a6ea02cfdc16a2b4d18a69c37b72dc56b79a479990992f0957ea0576d32df0a80b29d",
                    "indexes": {
                        "data": 14,
                        "gas": 0,
                        "value": 0
                    }
                },
                {
                    "hash": "fd4bae0607569156222fac23aad8291b8be18630992748fd058fad099b34f8d9",
                    "logs": "1dcc4de8dec75d7aab85b567b6ccd41ad312451b948a7413f0a142fd40d49347",
                    "txbytes": "0xf8c6010a8404c4b40094cccccccccccccccccccccccccccccccccccccccc80b864048071d300000000000000000000000000000000000000000000000000000000000000f500000000000000000000000000000000000000000000000000000000000000fd000000000000000000000000000000000000000000000000000000000000c0001ba05ada786b503538e405be2ae8ec845c068bccd1e41179fd9267168d43d1e268a7a025725946853ad348d782995840aa5ef3030bc51badaec6bafd4c90f33160ac04",
                    "indexes": {
                        "data": 15,
                        "gas": 0,
                        "value": 0
                    }
                }
            ]
        }
    }
}