{
    "CreateOOGafterInitCodeReturndataSize": {
        "_info": {
            "comment": "Calls a contract that runs CREATE which deploy a code. then OOG happens upon deployment of the actual code. check the RETURNDATASIZE after create. fails with OOG if RETURNDATASIZE != 0",
            "filling-rpc-server": "evm version 1.10.16-unstable-0f893109-20220105",
            "filling-tool-version": "retesteth-0.2.2-testinfo+commit.01c6aac2.Linux.g++",
            "filledWith": "CoreGeth-1.12.9-unstable-ab16c56768f0284ab56a30aac9550d3ebdc45901",
            "lllcversion": "Version: 0.5.14-develop.2021.11.27+commit.401d5358.Linux.g++",
            "source": "src/GeneralStateTestsFiller/stCreateTest/CreateOOGafterInitCodeReturndataSizeFiller.json",
            "sourceHash": "0070468e2d7134842199d35f96a1c97e1ad81c9635a4cce54ffa864dfe8fa173"
        },
        "env": {
            "currentCoinbase": "0x2adc25665018aa1fe0e6bc666dac8fc2697ff9ba",
            "currentDifficulty": "0x20000",
            "currentGasLimit": "0x989680",
            "currentNumber": "0x1",
            "currentTimestamp": "0x3e8",
            "currentBaseFee": "0xa",
            "previousHash": "0x5e20a0453cecd065ea59c37ac63e079ee08998b6045136a8ce6635c7912ec0b6"
        },
        "pre": {
            "0xa94f5374fce5edbc8e2a8697c15331677e6ebf0b": {
                "balance": "0xe8d4a51000"
            },
            "0xb94f5374fce5edbc8e2a8697c15331677e6ebf0b": {
                "code": "0x726960016001556001600255600052600a6016f36000526013600d6000f0503d60020a00",
                "balance": "0x0"
            }
        },
        "transaction": {
            "gasPrice": "0xa",
            "nonce": "0x0",
            "to": "0xb94f5374fce5edbc8e2a8697c15331677e6ebf0b",
            "data": [
                "0x"
            ],
            "gasLimit": [
                "0xd70e"
            ],
            "value": [
                "0x01"
            ],
            "secretKey": "0x45a915e4d060149eb4365960e6a7a45f334393093061116b197e3240065ff2d8",
            "sender": "0xa94f5374fce5edbc8e2a8697c15331677e6ebf0b"
        },
        "post": {
            "ETC_Magneto": [
                {
                    "hash": "fc05f8c71b854a587e9b574ec71240e8e559cbcc4515031be869a0dd741d227b",
                    "logs": "1dcc4de8dec75d7aab85b567b6ccd41ad312451b948a7413f0a142fd40d49347",
                    "txbytes": "0xf85f800a82d70e94b94f5374fce5edbc8e2a8697c15331677e6ebf0b01801ca0657b3b641025f7b251552c2af1242cbf701078623a65f34886115b9d7c8a2ab2a04abea43044e314bf30692b864ce53967721d044a65eca265ebfa2c395e7099f6",
                    "indexes": {
                        "data": 0,
                        "gas": 0,
                        "value": 0
                    }
                }
            ],
            "ETC_Mystique": [
                {
                    "hash": "fc05f8c71b854a587e9b574ec71240e8e559cbcc4515031be869a0dd741d227b",
                    "logs": "1dcc4de8dec75d7aab85b567b6ccd41ad312451b948a7413f0a142fd40d49347",
                    "txbytes": "0xf85f800a82d70e94b94f5374fce5edbc8e2a8697c15331677e6ebf0b01801ca0657b3b641025f7b251552c2af1242cbf701078623a65f34886115b9d7c8a2ab2a04abea43044e314bf30692b864ce53967721d044a65eca265ebfa2c395e7099f6",
                    "indexes": {
                        "data": 0,
                        "gas": 0,
                        "value": 0
                    }
                }
            ],
            "ETC_Phoenix": [
                {
                    "hash": "fc05f8c71b854a587e9b574ec71240e8e559cbcc4515031be869a0dd741d227b",
                    "logs": "1dcc4de8dec75d7aab85b567b6ccd41ad312451b948a7413f0a142fd40d49347",
                    "txbytes": "0xf85f800a82d70e94b94f5374fce5edbc8e2a8697c15331677e6ebf0b01801ca0657b3b641025f7b251552c2af1242cbf701078623a65f34886115b9d7c8a2ab2a04abea43044e314bf30692b864ce53967721d044a65eca265ebfa2c395e7099f6",
                    "indexes": {
                        "data": 0,
                        "gas": 0,
                        "value": 0
                    }
                }
            ]
        }
    }
}