{
    "CreateOOGafterInitCode": {
        "_info": {
            "comment": "",
            "filling-rpc-server": "evm version 1.10.16-unstable-0f893109-20220105",
            "filling-tool-version": "retesteth-0.2.2-testinfo+commit.01c6aac2.Linux.g++",
            "filledWith": "CoreGeth-1.12.9-unstable-4d59a861107c8232d6896811c48f229d30087be4",
            "lllcversion": "Version: 0.5.14-develop.2021.11.27+commit.401d5358.Linux.g++",
            "source": "src/GeneralStateTestsFiller/stCreateTest/CreateOOGafterInitCodeFiller.json",
            "sourceHash": "37ed7cc6031d9c752f27c33401aee6cbfb035a63328e7f81f8ab1e410ba3a20a"
        },
        "env": {
            "currentCoinbase": "0x2adc25665018aa1fe0e6bc666dac8fc2697ff9ba",
            "currentDifficulty": "0x20000",
            "currentGasLimit": "0x989680",
            "currentNumber": "0x1",
            "currentTimestamp": "0x3e8",
            "currentBaseFee": "0xa",
            "previousHash": "0x5e20a0453cecd065ea59c37ac63e079ee08998b6045136a8ce6635c7912ec0b6"
        },
        "pre": {
            "0xa94f5374fce5edbc8e2a8697c15331677e6ebf0b": {
                "balance": "0xe8d4a51000"
            },
            "0xb94f5374fce5edbc8e2a8697c15331677e6ebf0b": {
                "code": "0x6d6460016001556000526005601bf3600052600e60126000f000",
                "balance": "0x0"
            }
        },
        "transaction": {
            "gasPrice": "0xa",
            "nonce": "0x0",
            "to": "0xb94f5374fce5edbc8e2a8697c15331677e6ebf0b",
            "data": [
                "0x"
            ],
            "gasLimit": [
                "0xd2f0",
                "0xd6d8"
            ],
            "value": [
                "0x00"
            ],
            "secretKey": "0x45a915e4d060149eb4365960e6a7a45f334393093061116b197e3240065ff2d8",
            "sender": "0xa94f5374fce5edbc8e2a8697c15331677e6ebf0b"
        },
        "post": {
            "ETC_Magneto": [
                {
                    "hash": "297ddfae2075999416d87a52b438a47914602fa1aae59de3cbc5c3779e9456dc",
                    "logs": "1dcc4de8dec75d7aab85b567b6ccd41ad312451b948a7413f0a142fd40d49347",
                    "txbytes": "0xf85f800a82d2f094b94f5374fce5edbc8e2a8697c15331677e6ebf0b80801ca04110d91c8d222752e43bb98f811ccf151dfd7ef10cf8dd5888369fece4112983a00752c4ac643358117ead0ac6abdeed2c936ebe3d64524ab6dc41e19aba7e2d21",
                    "indexes": {
                        "data": 0,
                        "gas": 0,
                        "value": 0
                    }
                },
                {
                    "hash": "ef0defc690d50d46a062baf5c63c27f6dd623fa83e5921c5cda4d310cdbfe287",
                    "logs": "1dcc4de8dec75d7aab85b567b6ccd41ad312451b948a7413f0a142fd40d49347",
                    "txbytes": "0xf85f800a82d6d894b94f5374fce5edbc8e2a8697c15331677e6ebf0b80801ca03eaf11cd8a231db8431618bf811491b92e01dc244f69c773cd0ab190d0982a31a07bb6c9d4a24e9ece0bd5bf2ecd86963398a16547e3eb36cfd203de19a79c328b",
                    "indexes": {
                        "data": 0,
                        "gas": 1,
                        "value": 0
                    }
                }
            ],
            "ETC_Mystique": [
                {
                    "hash": "297ddfae2075999416d87a52b438a47914602fa1aae59de3cbc5c3779e9456dc",
                    "logs": "1dcc4de8dec75d7aab85b567b6ccd41ad312451b948a7413f0a142fd40d49347",
                    "txbytes": "0xf85f800a82d2f094b94f5374fce5edbc8e2a8697c15331677e6ebf0b80801ca04110d91c8d222752e43bb98f811ccf151dfd7ef10cf8dd5888369fece4112983a00752c4ac643358117ead0ac6abdeed2c936ebe3d64524ab6dc41e19aba7e2d21",
                    "indexes": {
                        "data": 0,
                        "gas": 0,
                        "value": 0
                    }
                },
                {
                    "hash": "ef0defc690d50d46a062baf5c63c27f6dd623fa83e5921c5cda4d310cdbfe287",
                    "logs": "1dcc4de8dec75d7aab85b567b6ccd41ad312451b948a7413f0a142fd40d49347",
                    "txbytes": "0xf85f800a82d6d894b94f5374fce5edbc8e2a8697c15331677e6ebf0b80801ca03eaf11cd8a231db8431618bf811491b92e01dc244f69c773cd0ab190d0982a31a07bb6c9d4a24e9ece0bd5bf2ecd86963398a16547e3eb36cfd203de19a79c328b",
                    "indexes": {
                        "data": 0,
                        "gas": 1,
                        "value": 0
                    }
                }
            ],
            "ETC_Phoenix": [
                {
                    "hash": "297ddfae2075999416d87a52b438a47914602fa1aae59de3cbc5c3779e9456dc",
                    "logs": "1dcc4de8dec75d7aab85b567b6ccd41ad312451b948a7413f0a142fd40d49347",
                    "txbytes": "0xf85f800a82d2f094b94f5374fce5edbc8e2a8697c15331677e6ebf0b80801ca04110d91c8d222752e43bb98f811ccf151dfd7ef10cf8dd5888369fece4112983a00752c4ac643358117ead0ac6abdeed2c936ebe3d64524ab6dc41e19aba7e2d21",
                    "indexes": {
                        "data": 0,
                        "gas": 0,
                        "value": 0
                    }
                },
                {
                    "hash": "ef0defc690d50d46a062baf5c63c27f6dd623fa83e5921c5cda4d310cdbfe287",
                    "logs": "1dcc4de8dec75d7aab85b567b6ccd41ad312451b948a7413f0a142fd40d49347",
                    "txbytes": "0xf85f800a82d6d894b94f5374fce5edbc8e2a8697c15331677e6ebf0b80801ca03eaf11cd8a231db8431618bf811491b92e01dc244f69c773cd0ab190d0982a31a07bb6c9d4a24e9ece0bd5bf2ecd86963398a16547e3eb36cfd203de19a79c328b",
                    "indexes": {
                        "data": 0,
                        "gas": 1,
                        "value": 0
                    }
                }
            ]
        }
    }
}