{
    "CreateOOGafterMaxCodesize": {
        "_info": {
            "comment": "",
            "filling-rpc-server": "evm version 1.10.16-unstable-0f893109-20220105",
            "filling-tool-version": "retesteth-0.2.2-testinfo+commit.01c6aac2.Linux.g++",
            "filledWith": "CoreGeth-1.12.9-unstable-4cf5b2b0837228e7d5eadba6a01ffb80e9288e21",
            "lllcversion": "Version: 0.5.14-develop.2021.11.27+commit.401d5358.Linux.g++",
            "source": "src/GeneralStateTestsFiller/stCreateTest/CreateOOGafterMaxCodesizeFiller.yml",
            "sourceHash": "265ad29d7246cf19e645f55d86e6fec396bc8725dc6718a073f0475897e8fa3c",
            "labels": {
                "0": "LowContractCount_NoDelegateCreate_CallCreateOOG",
                "1": "LowContractCount_DelegateCreate_CallCreateOOG",
                "2": "LowContractCount_DelegateCreate_CallCreate_SelfDestruct",
                "3": "HighContractCount_NoDelegateCreate_CallCreateOOG",
                "4": "HighContractCount_DelegateCreate_CallCreateOOG",
                "5": "HighContractCount_DelegateCreate_CallCreate_SelfDestruct"
            }
        },
        "env": {
            "currentCoinbase": "0x2adc25665018aa1fe0e6bc666dac8fc2697ff9ba",
            "currentDifficulty": "0x20000",
            "currentGasLimit": "0x100000000",
            "currentNumber": "0x1",
            "currentTimestamp": "0x3e8",
            "previousHash": "0x5e20a0453cecd065ea59c37ac63e079ee08998b6045136a8ce6635c7912ec0b6"
        },
        "pre": {
            "0x00000000000000000000000000000000000c0de0": {
                "code": "0x386000556000361115600f576000ff5b",
                "balance": "0x0",
                "nonce": "0x0"
            },
            "0x00000000000000000000000000000000000c0de1": {
                "code": "0x620c0de0803b60006000833c6160006000f350",
                "balance": "0x0",
                "nonce": "0x0"
            },
            "0x00000000000000000000000000000000000c0dea": {
                "code": "0x600435602435604435606435836000526000602052604060208502808260406000620c0deb60025a04f4600081141560375760006000fd5b85600052846020526020870260400192506020860291508183604060006000620c0deb60025a04f190506000811415607857600085141560775760006000fd5b5b86600086141560875786880190505b60005b8181101560b757602081026040015160006000600060006000856103e85a03f150505b600181019050608a565b5060005b8581101560e857602081026040015160006000600160006000856103e85a03f150505b60018101905060bb565b505050505050505050",
                "balance": "0x0",
                "nonce": "0x1"
            },
            "0x00000000000000000000000000000000000c0deb": {
                "code": "0x6001600155600035602035620c0de1803b8060006000843c60005b84811015603b578160006000f08060208302840152505b600181019050601a565b506000831115604657fe5b6020840281f350505050",
                "balance": "0x0",
                "nonce": "0x1"
            },
            "0xa94f5374fce5edbc8e2a8697c15331677e6ebf0b": {
                "code": "0x",
                "balance": "0xba1a9ce0ba1a9ce",
                "nonce": "0x0"
            }
        },
        "transaction": {
            "gasPrice": "0xa",
            "nonce": "0x0",
            "to": "0x00000000000000000000000000000000000c0dea",
            "data": [
                "0xa6f227c00000000000000000000000000000000000000000000000000000000000000000000000000000000000000000000000000000000000000000000000000000000a00000000000000000000000000000000000000000000000000000000000000010000000000000000000000000000000000000000000000000000000000000000",
                "0xa6f227c0000000000000000000000000000000000000000000000000000000000000000a000000000000000000000000000000000000000000000000000000000000000a00000000000000000000000000000000000000000000000000000000000000010000000000000000000000000000000000000000000000000000000000000000",
                "0xa6f227c0000000000000000000000000000000000000000000000000000000000000000a000000000000000000000000000000000000000000000000000000000000000a0000000000000000000000000000000000000000000000000000000000000000000000000000000000000000000000000000000000000000000000000000000e",
                "0xa6f227c0000000000000000000000000000000000000000000000000000000000000000000000000000000000000000000000000000000000000000000000000000000fa00000000000000000000000000000000000000000000000000000000000000010000000000000000000000000000000000000000000000000000000000000000",
                "0xa6f227c000000000000000000000000000000000000000000000000000000000000000fa00000000000000000000000000000000000000000000000000000000000000fa00000000000000000000000000000000000000000000000000000000000000010000000000000000000000000000000000000000000000000000000000000000",
                "0xa6f227c000000000000000000000000000000000000000000000000000000000000000fa00000000000000000000000000000000000000000000000000000000000000fa000000000000000000000000000000000000000000000000000000000000000000000000000000000000000000000000000000000000000000000000000001ee"
            ],
            "gasLimit": [
                "0x100000000"
            ],
            "value": [
                "0x00"
            ],
            "secretKey": "0x45a915e4d060149eb4365960e6a7a45f334393093061116b197e3240065ff2d8",
            "sender": "0xa94f5374fce5edbc8e2a8697c15331677e6ebf0b"
        },
        "post": {
            "ETC_Mystique": [
                {
                    "hash": "1f827a8f5b5a3b3c26fe1fdda2c5669cc36463677273e72f9dec82761e0a76b7",
                    "logs": "1dcc4de8dec75d7aab85b567b6ccd41ad312451b948a7413f0a142fd40d49347",
                    "txbytes": "0xf8e7800a8501000000009400000000000000000000000000000000000c0dea80b884a6f227c00000000000000000000000000000000000000000000000000000000000000000000000000000000000000000000000000000000000000000000000000000000a000000000000000000000000000000000000000000000000000000000000000100000000000000000000000000000000000000000000000000000000000000001ca05c698c89240f08eda2e2d678a53a63d48261d4d71da22f163e5f4d9507ba9c32a02faf9b7a967b88fed493e556295716f803ebf68f0a991d1935f29a56bb7d578d",
                    "indexes": {
                        "data": 0,
                        "gas": 0,
                        "value": 0
                    }
                },
                {
                    "hash": "2509a3585a7757388e135ebfb79e18eb15c72822c868b4a13eb23daaac17524f",
                    "logs": "1dcc4de8dec75d7aab85b567b6ccd41ad312451b948a7413f0a142fd40d49347",
                    "txbytes": "0xf8e7800a8501000000009400000000000000000000000000000000000c0dea80b884a6f227c0000000000000000000000000000000000000000000000000000000000000000a000000000000000000000000000000000000000000000000000000000000000a000000000000000000000000000000000000000000000000000000000000000100000000000000000000000000000000000000000000000000000000000000001ba0296515874d707f54be818e0a8a5fe37f4d248a7be1751ed7f443e7f1747472f8a03bcca7b24c7aca5c56f27a5c9c4b6c550293406fc1ffd7b26620a8e22edd19c7",
                    "indexes": {
                        "data": 1,
                        "gas": 0,
                        "value": 0
                    }
                },
                {
                    "hash": "56fef490b5cc5a0f4c34a397b80a4d849e59c1aeff1d77115858b6374012c294",
                    "logs": "1dcc4de8dec75d7aab85b567b6ccd41ad312451b948a7413f0a142fd40d49347",
                    "txbytes": "0xf8e7800a8501000000009400000000000000000000000000000000000c0dea80b884a6f227c0000000000000000000000000000000000000000000000000000000000000000a000000000000000000000000000000000000000000000000000000000000000a0000000000000000000000000000000000000000000000000000000000000000000000000000000000000000000000000000000000000000000000000000000e1ba00f1bdf006744048a7988183b373e200b8cc4d15d4a35d92003103391e005b50fa0086f4dec0b3847b12c0ba87291de8af843ccfacc4760353c4a02d5d5de7392f7",
                    "indexes": {
                        "data": 2,
                        "gas": 0,
                        "value": 0
                    }
                },
                {
                    "hash": "371163279a981ed0a0627b03b717442366e8e6b1df0119f62ffa140c3c68ab72",
                    "logs": "1dcc4de8dec75d7aab85b567b6ccd41ad312451b948a7413f0a142fd40d49347",
                    "txbytes": "0xf8e7800a8501000000009400000000000000000000000000000000000c0dea80b884a6f227c0000000000000000000000000000000000000000000000000000000000000000000000000000000000000000000000000000000000000000000000000000000fa000000000000000000000000000000000000000000000000000000000000000100000000000000000000000000000000000000000000000000000000000000001ca013cb18c8a2d22fc4328622c1c7e2cc2c41cdc7770eaf891994f185de521c401ba0300fcfab3dedd33a0c7bc00ff617fbdd0fcbc767924e9d8f190c59b714c255f2",
                    "indexes": {
                        "data": 3,
                        "gas": 0,
                        "value": 0
                    }
                },
                {
                    "hash": "135f19c82f384676849749d09635bfd5a76508edd6c8565c929879c8712179ac",
                    "logs": "1dcc4de8dec75d7aab85b567b6ccd41ad312451b948a7413f0a142fd40d49347",
                    "txbytes": "0xf8e7800a8501000000009400000000000000000000000000000000000c0dea80b884a6f227c000000000000000000000000000000000000000000000000000000000000000fa00000000000000000000000000000000000000000000000000000000000000fa000000000000000000000000000000000000000000000000000000000000000100000000000000000000000000000000000000000000000000000000000000001ba00b21f45fe64e6aba8d3bade62ed7fbf2e5fb1515540afd17b9d8964ed1dc38b1a016ef18f9f4408b6394d1d49831d773971aa386f8abbb235842a99cff08cd7022",
                    "indexes": {
                        "data": 4,
                        "gas": 0,
                        "value": 0
                    }
                },
                {
                    "hash": "3d2b531f47adbec970565eb4a7e095b06f1ef3e84326ea0dcf8873669a830fa2",
                    "logs": "1dcc4de8dec75d7aab85b567b6ccd41ad312451b948a7413f0a142fd40d49347",
                    "txbytes": "0xf8e7800a8501000000009400000000000000000000000000000000000c0dea80b884a6f227c000000000000000000000000000000000000000000000000000000000000000fa00000000000000000000000000000000000000000000000000000000000000fa000000000000000000000000000000000000000000000000000000000000000000000000000000000000000000000000000000000000000000000000000001ee1ba0ff8bb3085619b656c3f5a7397758a6c64f19a546b18c117a1787bf9d97cc3c1da07fc487bff20fbf11200c819ae29086011784971b247fed6dfb7531e59ab834da",
                    "indexes": {
                        "data": 5,
                        "gas": 0,
                        "value": 0
                    }
                }
            ]
        }
    }
}